{
	"Midas/joe-v2-main/src/LBToken.sol": {
		"LBToken": {
			"abi": [
				{
					"inputs": [
						{
							"internalType": "uint256",
							"name": "accountsLength",
							"type": "uint256"
						},
						{
							"internalType": "uint256",
							"name": "idsLength",
							"type": "uint256"
						}
					],
					"name": "LBToken__LengthMismatch",
					"type": "error"
				},
				{
					"inputs": [
						{
							"internalType": "address",
							"name": "owner",
							"type": "address"
						}
					],
					"name": "LBToken__SelfApproval",
					"type": "error"
				},
				{
					"inputs": [
						{
							"internalType": "address",
							"name": "owner",
							"type": "address"
						},
						{
							"internalType": "address",
							"name": "spender",
							"type": "address"
						}
					],
					"name": "LBToken__SpenderNotApproved",
					"type": "error"
				},
				{
					"inputs": [
						{
							"internalType": "address",
							"name": "from",
							"type": "address"
						},
						{
							"internalType": "uint256",
							"name": "id",
							"type": "uint256"
						},
						{
							"internalType": "uint256",
							"name": "amount",
							"type": "uint256"
						}
					],
					"name": "LBToken__TransferExceedsBalance",
					"type": "error"
				},
				{
					"inputs": [],
					"name": "LBToken__TransferFromOrToAddress0",
					"type": "error"
				},
				{
					"inputs": [],
					"name": "LBToken__TransferToSelf",
					"type": "error"
				},
				{
					"anonymous": false,
					"inputs": [
						{
							"indexed": true,
							"internalType": "address",
							"name": "account",
							"type": "address"
						},
						{
							"indexed": true,
							"internalType": "address",
							"name": "sender",
							"type": "address"
						},
						{
							"indexed": false,
							"internalType": "bool",
							"name": "approved",
							"type": "bool"
						}
					],
					"name": "ApprovalForAll",
					"type": "event"
				},
				{
					"anonymous": false,
					"inputs": [
						{
							"indexed": true,
							"internalType": "address",
							"name": "sender",
							"type": "address"
						},
						{
							"indexed": true,
							"internalType": "address",
							"name": "from",
							"type": "address"
						},
						{
							"indexed": true,
							"internalType": "address",
							"name": "to",
							"type": "address"
						},
						{
							"indexed": false,
							"internalType": "uint256[]",
							"name": "ids",
							"type": "uint256[]"
						},
						{
							"indexed": false,
							"internalType": "uint256[]",
							"name": "amounts",
							"type": "uint256[]"
						}
					],
					"name": "TransferBatch",
					"type": "event"
				},
				{
					"anonymous": false,
					"inputs": [
						{
							"indexed": true,
							"internalType": "address",
							"name": "sender",
							"type": "address"
						},
						{
							"indexed": true,
							"internalType": "address",
							"name": "from",
							"type": "address"
						},
						{
							"indexed": true,
							"internalType": "address",
							"name": "to",
							"type": "address"
						},
						{
							"indexed": false,
							"internalType": "uint256",
							"name": "id",
							"type": "uint256"
						},
						{
							"indexed": false,
							"internalType": "uint256",
							"name": "amount",
							"type": "uint256"
						}
					],
					"name": "TransferSingle",
					"type": "event"
				},
				{
					"inputs": [
						{
							"internalType": "address",
							"name": "_account",
							"type": "address"
						},
						{
							"internalType": "uint256",
							"name": "_id",
							"type": "uint256"
						}
					],
					"name": "balanceOf",
					"outputs": [
						{
							"internalType": "uint256",
							"name": "",
							"type": "uint256"
						}
					],
					"stateMutability": "view",
					"type": "function"
				},
				{
					"inputs": [
						{
							"internalType": "address[]",
							"name": "_accounts",
							"type": "address[]"
						},
						{
							"internalType": "uint256[]",
							"name": "_ids",
							"type": "uint256[]"
						}
					],
					"name": "balanceOfBatch",
					"outputs": [
						{
							"internalType": "uint256[]",
							"name": "batchBalances",
							"type": "uint256[]"
						}
					],
					"stateMutability": "view",
					"type": "function"
				},
				{
					"inputs": [
						{
							"internalType": "address",
							"name": "_owner",
							"type": "address"
						},
						{
							"internalType": "address",
							"name": "_spender",
							"type": "address"
						}
					],
					"name": "isApprovedForAll",
					"outputs": [
						{
							"internalType": "bool",
							"name": "",
							"type": "bool"
						}
					],
					"stateMutability": "view",
					"type": "function"
				},
				{
					"inputs": [],
					"name": "name",
					"outputs": [
						{
							"internalType": "string",
							"name": "",
							"type": "string"
						}
					],
					"stateMutability": "pure",
					"type": "function"
				},
				{
					"inputs": [
						{
							"internalType": "address",
							"name": "_from",
							"type": "address"
						},
						{
							"internalType": "address",
							"name": "_to",
							"type": "address"
						},
						{
							"internalType": "uint256[]",
							"name": "_ids",
							"type": "uint256[]"
						},
						{
							"internalType": "uint256[]",
							"name": "_amounts",
							"type": "uint256[]"
						}
					],
					"name": "safeBatchTransferFrom",
					"outputs": [],
					"stateMutability": "nonpayable",
					"type": "function"
				},
				{
					"inputs": [
						{
							"internalType": "address",
							"name": "_from",
							"type": "address"
						},
						{
							"internalType": "address",
							"name": "_to",
							"type": "address"
						},
						{
							"internalType": "uint256",
							"name": "_id",
							"type": "uint256"
						},
						{
							"internalType": "uint256",
							"name": "_amount",
							"type": "uint256"
						}
					],
					"name": "safeTransferFrom",
					"outputs": [],
					"stateMutability": "nonpayable",
					"type": "function"
				},
				{
					"inputs": [
						{
							"internalType": "address",
							"name": "_spender",
							"type": "address"
						},
						{
							"internalType": "bool",
							"name": "_approved",
							"type": "bool"
						}
					],
					"name": "setApprovalForAll",
					"outputs": [],
					"stateMutability": "nonpayable",
					"type": "function"
				},
				{
					"inputs": [
						{
							"internalType": "bytes4",
							"name": "_interfaceId",
							"type": "bytes4"
						}
					],
					"name": "supportsInterface",
					"outputs": [
						{
							"internalType": "bool",
							"name": "",
							"type": "bool"
						}
					],
					"stateMutability": "view",
					"type": "function"
				},
				{
					"inputs": [],
					"name": "symbol",
					"outputs": [
						{
							"internalType": "string",
							"name": "",
							"type": "string"
						}
					],
					"stateMutability": "pure",
					"type": "function"
				},
				{
					"inputs": [
						{
							"internalType": "uint256",
							"name": "_id",
							"type": "uint256"
						}
					],
					"name": "totalSupply",
					"outputs": [
						{
							"internalType": "uint256",
							"name": "",
							"type": "uint256"
						}
					],
					"stateMutability": "view",
					"type": "function"
				}
			],
			"devdoc": {
				"author": "Trader Joe",
				"kind": "dev",
				"methods": {
					"balanceOf(address,uint256)": {
						"params": {
							"_account": "The address of the owner",
							"_id": "The token id"
						},
						"returns": {
							"_0": "The amount of tokens of type `id` owned by `_account`"
						}
					},
					"balanceOfBatch(address[],uint256[])": {
						"params": {
							"_accounts": "The addresses of the owners",
							"_ids": "The token ids"
						},
						"returns": {
							"batchBalances": "The balance for each (account, id) pair"
						}
					},
					"isApprovedForAll(address,address)": {
						"params": {
							"_owner": "The address of the owner",
							"_spender": "The address of the spender"
						},
						"returns": {
							"_0": "True if `spender` is approved to transfer `_account`'s tokens"
						}
					},
					"name()": {
						"returns": {
							"_0": "The name of the token"
						}
					},
					"safeBatchTransferFrom(address,address,uint256[],uint256[])": {
						"params": {
							"_amounts": "The list of amounts to send",
							"_from": "The address of the owner of the tokens",
							"_ids": "The list of token ids",
							"_to": "The address of the recipient"
						}
					},
					"safeTransferFrom(address,address,uint256,uint256)": {
						"params": {
							"_amount": "The amount to send",
							"_from": "The address of the owner of the token",
							"_id": "The token id",
							"_to": "The address of the recipient"
						}
					},
					"setApprovalForAll(address,bool)": {
						"params": {
							"_approved": "The boolean value to grant or revoke permission",
							"_spender": "The address of the spender"
						}
					},
					"supportsInterface(bytes4)": {
						"params": {
							"_interfaceId": "The interface identifier"
						},
						"returns": {
							"_0": "Whether the interface is supported (true) or not (false)"
						}
					},
					"symbol()": {
						"returns": {
							"_0": "The symbol of the token"
						}
					},
					"totalSupply(uint256)": {
						"details": "This is the amount of token of type `id` minted minus the amount burned",
						"params": {
							"_id": "The token id"
						},
						"returns": {
							"_0": "The total supply of that token id"
						}
					}
				},
				"stateVariables": {
					"_balances": {
						"details": "Mapping from token id to account balances"
					},
					"_spenderApprovals": {
						"details": "Mapping from account to spender approvals"
					},
					"_totalSupplies": {
						"details": "Mapping from token id to total supplies"
					}
				},
				"title": "Liquidity Book Token",
				"version": 1
			},
			"evm": {
				"assembly": "    /* \"Midas/joe-v2-main/src/LBToken.sol\":366:10443  contract LBToken is ILBToken {... */\n  mstore(0x40, 0x80)\n  callvalue\n  dup1\n  iszero\n  tag_1\n  jumpi\n  0x00\n  dup1\n  revert\ntag_1:\n  pop\n  dataSize(sub_0)\n  dup1\n  dataOffset(sub_0)\n  0x00\n  codecopy\n  0x00\n  return\nstop\n\nsub_0: assembly {\n        /* \"Midas/joe-v2-main/src/LBToken.sol\":366:10443  contract LBToken is ILBToken {... */\n      mstore(0x40, 0x80)\n      callvalue\n      dup1\n      iszero\n      tag_1\n      jumpi\n      0x00\n      dup1\n      revert\n    tag_1:\n      pop\n      jumpi(tag_2, lt(calldatasize, 0x04))\n      shr(0xe0, calldataload(0x00))\n      dup1\n      0x95d89b41\n      gt\n      tag_13\n      jumpi\n      dup1\n      0x95d89b41\n      eq\n      tag_8\n      jumpi\n      dup1\n      0xa22cb465\n      eq\n      tag_9\n      jumpi\n      dup1\n      0xbd85b039\n      eq\n      tag_10\n      jumpi\n      dup1\n      0xe985e9c5\n      eq\n      tag_11\n      jumpi\n      dup1\n      0xfba0ee64\n      eq\n      tag_12\n      jumpi\n      jump(tag_2)\n    tag_13:\n      dup1\n      0xfdd58e\n      eq\n      tag_3\n      jumpi\n      dup1\n      0x01ffc9a7\n      eq\n      tag_4\n      jumpi\n      dup1\n      0x06fdde03\n      eq\n      tag_5\n      jumpi\n      dup1\n      0x0febdd49\n      eq\n      tag_6\n      jumpi\n      dup1\n      0x4e1273f4\n      eq\n      tag_7\n      jumpi\n    tag_2:\n      0x00\n      dup1\n      revert\n        /* \"Midas/joe-v2-main/src/LBToken.sol\":2523:2668  function balanceOf(address _account, uint256 _id) public view virtual override returns (uint256) {... */\n    tag_3:\n      tag_14\n      0x04\n      dup1\n      calldatasize\n      sub\n      dup2\n      add\n      swap1\n      tag_15\n      swap2\n      swap1\n      tag_16\n      jump\t// in\n    tag_15:\n      tag_17\n      jump\t// in\n    tag_14:\n      mload(0x40)\n      tag_18\n      swap2\n      swap1\n      tag_19\n      jump\t// in\n    tag_18:\n      mload(0x40)\n      dup1\n      swap2\n      sub\n      swap1\n      return\n        /* \"Midas/joe-v2-main/src/LBToken.sol\":5947:6150  function supportsInterface(bytes4 _interfaceId) public view virtual override returns (bool) {... */\n    tag_4:\n      tag_20\n      0x04\n      dup1\n      calldatasize\n      sub\n      dup2\n      add\n      swap1\n      tag_21\n      swap2\n      swap1\n      tag_22\n      jump\t// in\n    tag_21:\n      tag_23\n      jump\t// in\n    tag_20:\n      mload(0x40)\n      tag_24\n      swap2\n      swap1\n      tag_25\n      jump\t// in\n    tag_24:\n      mload(0x40)\n      dup1\n      swap2\n      sub\n      swap1\n      return\n        /* \"Midas/joe-v2-main/src/LBToken.sol\":1595:1693  function name() public pure virtual override returns (string memory) {... */\n    tag_5:\n      tag_26\n      tag_27\n      jump\t// in\n    tag_26:\n      mload(0x40)\n      tag_28\n      swap2\n      swap1\n      tag_29\n      jump\t// in\n    tag_28:\n      mload(0x40)\n      dup1\n      swap2\n      sub\n      swap1\n      return\n        /* \"Midas/joe-v2-main/src/LBToken.sol\":4470:4834  function safeTransferFrom(... */\n    tag_6:\n      tag_30\n      0x04\n      dup1\n      calldatasize\n      sub\n      dup2\n      add\n      swap1\n      tag_31\n      swap2\n      swap1\n      tag_32\n      jump\t// in\n    tag_31:\n      tag_33\n      jump\t// in\n    tag_30:\n      stop\n        /* \"Midas/joe-v2-main/src/LBToken.sol\":2897:3376  function balanceOfBatch(address[] calldata _accounts, uint256[] calldata _ids)... */\n    tag_7:\n      tag_34\n      0x04\n      dup1\n      calldatasize\n      sub\n      dup2\n      add\n      swap1\n      tag_35\n      swap2\n      swap1\n      tag_36\n      jump\t// in\n    tag_35:\n      tag_37\n      jump\t// in\n    tag_34:\n      mload(0x40)\n      tag_38\n      swap2\n      swap1\n      tag_39\n      jump\t// in\n    tag_38:\n      mload(0x40)\n      dup1\n      swap2\n      sub\n      swap1\n      return\n        /* \"Midas/joe-v2-main/src/LBToken.sol\":1826:1928  function symbol() public pure virtual override returns (string memory) {... */\n    tag_8:\n      tag_40\n      tag_41\n      jump\t// in\n    tag_40:\n      mload(0x40)\n      tag_42\n      swap2\n      swap1\n      tag_29\n      jump\t// in\n    tag_42:\n      mload(0x40)\n      dup1\n      swap2\n      sub\n      swap1\n      return\n        /* \"Midas/joe-v2-main/src/LBToken.sol\":4052:4205  function setApprovalForAll(address _spender, bool _approved) public virtual override {... */\n    tag_9:\n      tag_43\n      0x04\n      dup1\n      calldatasize\n      sub\n      dup2\n      add\n      swap1\n      tag_44\n      swap2\n      swap1\n      tag_45\n      jump\t// in\n    tag_44:\n      tag_46\n      jump\t// in\n    tag_43:\n      stop\n        /* \"Midas/joe-v2-main/src/LBToken.sol\":2164:2288  function totalSupply(uint256 _id) public view virtual override returns (uint256) {... */\n    tag_10:\n      tag_47\n      0x04\n      dup1\n      calldatasize\n      sub\n      dup2\n      add\n      swap1\n      tag_48\n      swap2\n      swap1\n      tag_49\n      jump\t// in\n    tag_48:\n      tag_50\n      jump\t// in\n    tag_47:\n      mload(0x40)\n      tag_51\n      swap2\n      swap1\n      tag_19\n      jump\t// in\n    tag_51:\n      mload(0x40)\n      dup1\n      swap2\n      sub\n      swap1\n      return\n        /* \"Midas/joe-v2-main/src/LBToken.sol\":3644:3807  function isApprovedForAll(address _owner, address _spender) public view virtual override returns (bool) {... */\n    tag_11:\n      tag_52\n      0x04\n      dup1\n      calldatasize\n      sub\n      dup2\n      add\n      swap1\n      tag_53\n      swap2\n      swap1\n      tag_54\n      jump\t// in\n    tag_53:\n      tag_55\n      jump\t// in\n    tag_52:\n      mload(0x40)\n      tag_56\n      swap2\n      swap1\n      tag_25\n      jump\t// in\n    tag_56:\n      mload(0x40)\n      dup1\n      swap2\n      sub\n      swap1\n      return\n        /* \"Midas/joe-v2-main/src/LBToken.sol\":5127:5689  function safeBatchTransferFrom(... */\n    tag_12:\n      tag_57\n      0x04\n      dup1\n      calldatasize\n      sub\n      dup2\n      add\n      swap1\n      tag_58\n      swap2\n      swap1\n      tag_59\n      jump\t// in\n    tag_58:\n      tag_60\n      jump\t// in\n    tag_57:\n      stop\n        /* \"Midas/joe-v2-main/src/LBToken.sol\":2523:2668  function balanceOf(address _account, uint256 _id) public view virtual override returns (uint256) {... */\n    tag_17:\n        /* \"Midas/joe-v2-main/src/LBToken.sol\":2611:2618  uint256 */\n      0x00\n        /* \"Midas/joe-v2-main/src/LBToken.sol\":2637:2646  _balances */\n      dup1\n        /* \"Midas/joe-v2-main/src/LBToken.sol\":2637:2651  _balances[_id] */\n      0x00\n        /* \"Midas/joe-v2-main/src/LBToken.sol\":2647:2650  _id */\n      dup4\n        /* \"Midas/joe-v2-main/src/LBToken.sol\":2637:2651  _balances[_id] */\n      dup2\n      mstore\n      0x20\n      add\n      swap1\n      dup2\n      mstore\n      0x20\n      add\n      0x00\n      keccak256\n        /* \"Midas/joe-v2-main/src/LBToken.sol\":2637:2661  _balances[_id][_account] */\n      0x00\n        /* \"Midas/joe-v2-main/src/LBToken.sol\":2652:2660  _account */\n      dup5\n        /* \"Midas/joe-v2-main/src/LBToken.sol\":2637:2661  _balances[_id][_account] */\n      0xffffffffffffffffffffffffffffffffffffffff\n      and\n      0xffffffffffffffffffffffffffffffffffffffff\n      and\n      dup2\n      mstore\n      0x20\n      add\n      swap1\n      dup2\n      mstore\n      0x20\n      add\n      0x00\n      keccak256\n      sload\n        /* \"Midas/joe-v2-main/src/LBToken.sol\":2630:2661  return _balances[_id][_account] */\n      swap1\n      pop\n        /* \"Midas/joe-v2-main/src/LBToken.sol\":2523:2668  function balanceOf(address _account, uint256 _id) public view virtual override returns (uint256) {... */\n      swap3\n      swap2\n      pop\n      pop\n      jump\t// out\n        /* \"Midas/joe-v2-main/src/LBToken.sol\":5947:6150  function supportsInterface(bytes4 _interfaceId) public view virtual override returns (bool) {... */\n    tag_23:\n        /* \"Midas/joe-v2-main/src/LBToken.sol\":6033:6037  bool */\n      0x00\n        /* \"Midas/joe-v2-main/src/LBToken.sol\":6072:6098  type(ILBToken).interfaceId */\n      0xdfad3d8c00000000000000000000000000000000000000000000000000000000\n        /* \"Midas/joe-v2-main/src/LBToken.sol\":6056:6098  _interfaceId == type(ILBToken).interfaceId */\n      not(0xffffffffffffffffffffffffffffffffffffffffffffffffffffffff)\n      and\n        /* \"Midas/joe-v2-main/src/LBToken.sol\":6056:6068  _interfaceId */\n      dup3\n        /* \"Midas/joe-v2-main/src/LBToken.sol\":6056:6098  _interfaceId == type(ILBToken).interfaceId */\n      not(0xffffffffffffffffffffffffffffffffffffffffffffffffffffffff)\n      and\n      eq\n        /* \"Midas/joe-v2-main/src/LBToken.sol\":6056:6143  _interfaceId == type(ILBToken).interfaceId || _interfaceId == type(IERC165).interfaceId */\n      dup1\n      tag_63\n      jumpi\n      pop\n        /* \"Midas/joe-v2-main/src/LBToken.sol\":6118:6143  type(IERC165).interfaceId */\n      0x01ffc9a700000000000000000000000000000000000000000000000000000000\n        /* \"Midas/joe-v2-main/src/LBToken.sol\":6102:6143  _interfaceId == type(IERC165).interfaceId */\n      not(0xffffffffffffffffffffffffffffffffffffffffffffffffffffffff)\n      and\n        /* \"Midas/joe-v2-main/src/LBToken.sol\":6102:6114  _interfaceId */\n      dup3\n        /* \"Midas/joe-v2-main/src/LBToken.sol\":6102:6143  _interfaceId == type(IERC165).interfaceId */\n      not(0xffffffffffffffffffffffffffffffffffffffffffffffffffffffff)\n      and\n      eq\n        /* \"Midas/joe-v2-main/src/LBToken.sol\":6056:6143  _interfaceId == type(ILBToken).interfaceId || _interfaceId == type(IERC165).interfaceId */\n    tag_63:\n        /* \"Midas/joe-v2-main/src/LBToken.sol\":6049:6143  return _interfaceId == type(ILBToken).interfaceId || _interfaceId == type(IERC165).interfaceId */\n      swap1\n      pop\n        /* \"Midas/joe-v2-main/src/LBToken.sol\":5947:6150  function supportsInterface(bytes4 _interfaceId) public view virtual override returns (bool) {... */\n      swap2\n      swap1\n      pop\n      jump\t// out\n        /* \"Midas/joe-v2-main/src/LBToken.sol\":1595:1693  function name() public pure virtual override returns (string memory) {... */\n    tag_27:\n        /* \"Midas/joe-v2-main/src/LBToken.sol\":1649:1662  string memory */\n      0x60\n        /* \"Midas/joe-v2-main/src/LBToken.sol\":1681:1686  _NAME */\n      mload(0x40)\n      dup1\n      0x40\n      add\n      0x40\n      mstore\n      dup1\n      0x14\n      dup2\n      mstore\n      0x20\n      add\n      0x4c697175696469747920426f6f6b20546f6b656e000000000000000000000000\n      dup2\n      mstore\n      pop\n        /* \"Midas/joe-v2-main/src/LBToken.sol\":1674:1686  return _NAME */\n      swap1\n      pop\n        /* \"Midas/joe-v2-main/src/LBToken.sol\":1595:1693  function name() public pure virtual override returns (string memory) {... */\n      swap1\n      jump\t// out\n        /* \"Midas/joe-v2-main/src/LBToken.sol\":4470:4834  function safeTransferFrom(... */\n    tag_33:\n        /* \"Midas/joe-v2-main/src/LBToken.sol\":4631:4636  _from */\n      dup4\n        /* \"Midas/joe-v2-main/src/LBToken.sol\":4638:4641  _to */\n      dup4\n        /* \"Midas/joe-v2-main/src/LBToken.sol\":1193:1194  0 */\n      0x00\n        /* \"Midas/joe-v2-main/src/LBToken.sol\":1176:1195  _from == address(0) */\n      0xffffffffffffffffffffffffffffffffffffffff\n      and\n        /* \"Midas/joe-v2-main/src/LBToken.sol\":1176:1181  _from */\n      dup3\n        /* \"Midas/joe-v2-main/src/LBToken.sol\":1176:1195  _from == address(0) */\n      0xffffffffffffffffffffffffffffffffffffffff\n      and\n      eq\n        /* \"Midas/joe-v2-main/src/LBToken.sol\":1176:1216  _from == address(0) || _to == address(0) */\n      dup1\n      tag_66\n      jumpi\n      pop\n        /* \"Midas/joe-v2-main/src/LBToken.sol\":1214:1215  0 */\n      0x00\n        /* \"Midas/joe-v2-main/src/LBToken.sol\":1199:1216  _to == address(0) */\n      0xffffffffffffffffffffffffffffffffffffffff\n      and\n        /* \"Midas/joe-v2-main/src/LBToken.sol\":1199:1202  _to */\n      dup2\n        /* \"Midas/joe-v2-main/src/LBToken.sol\":1199:1216  _to == address(0) */\n      0xffffffffffffffffffffffffffffffffffffffff\n      and\n      eq\n        /* \"Midas/joe-v2-main/src/LBToken.sol\":1176:1216  _from == address(0) || _to == address(0) */\n    tag_66:\n        /* \"Midas/joe-v2-main/src/LBToken.sol\":1172:1260  if (_from == address(0) || _to == address(0)) revert LBToken__TransferFromOrToAddress0() */\n      iszero\n      tag_67\n      jumpi\n        /* \"Midas/joe-v2-main/src/LBToken.sol\":1225:1260  LBToken__TransferFromOrToAddress0() */\n      mload(0x40)\n      0x41a4672000000000000000000000000000000000000000000000000000000000\n      dup2\n      mstore\n      0x04\n      add\n      mload(0x40)\n      dup1\n      swap2\n      sub\n      swap1\n      revert\n        /* \"Midas/joe-v2-main/src/LBToken.sol\":1172:1260  if (_from == address(0) || _to == address(0)) revert LBToken__TransferFromOrToAddress0() */\n    tag_67:\n        /* \"Midas/joe-v2-main/src/LBToken.sol\":1283:1286  _to */\n      dup1\n        /* \"Midas/joe-v2-main/src/LBToken.sol\":1274:1286  _from == _to */\n      0xffffffffffffffffffffffffffffffffffffffff\n      and\n        /* \"Midas/joe-v2-main/src/LBToken.sol\":1274:1279  _from */\n      dup3\n        /* \"Midas/joe-v2-main/src/LBToken.sol\":1274:1286  _from == _to */\n      0xffffffffffffffffffffffffffffffffffffffff\n      and\n      eq\n        /* \"Midas/joe-v2-main/src/LBToken.sol\":1270:1320  if (_from == _to) revert LBToken__TransferToSelf() */\n      iszero\n      tag_68\n      jumpi\n        /* \"Midas/joe-v2-main/src/LBToken.sol\":1295:1320  LBToken__TransferToSelf() */\n      mload(0x40)\n      0x8696f16700000000000000000000000000000000000000000000000000000000\n      dup2\n      mstore\n      0x04\n      add\n      mload(0x40)\n      dup1\n      swap2\n      sub\n      swap1\n      revert\n        /* \"Midas/joe-v2-main/src/LBToken.sol\":1270:1320  if (_from == _to) revert LBToken__TransferToSelf() */\n    tag_68:\n        /* \"Midas/joe-v2-main/src/LBToken.sol\":4657:4662  _from */\n      dup6\n        /* \"Midas/joe-v2-main/src/LBToken.sol\":4664:4674  msg.sender */\n      caller\n        /* \"Midas/joe-v2-main/src/LBToken.sol\":999:1033  _isApprovedForAll(_from, _spender) */\n      tag_70\n        /* \"Midas/joe-v2-main/src/LBToken.sol\":1017:1022  _from */\n      dup3\n        /* \"Midas/joe-v2-main/src/LBToken.sol\":1024:1032  _spender */\n      dup3\n        /* \"Midas/joe-v2-main/src/LBToken.sol\":999:1016  _isApprovedForAll */\n      tag_71\n        /* \"Midas/joe-v2-main/src/LBToken.sol\":999:1033  _isApprovedForAll(_from, _spender) */\n      jump\t// in\n    tag_70:\n        /* \"Midas/joe-v2-main/src/LBToken.sol\":994:1086  if (!_isApprovedForAll(_from, _spender)) revert LBToken__SpenderNotApproved(_from, _spender) */\n      tag_72\n      jumpi\n        /* \"Midas/joe-v2-main/src/LBToken.sol\":1070:1075  _from */\n      dup2\n        /* \"Midas/joe-v2-main/src/LBToken.sol\":1077:1085  _spender */\n      dup2\n        /* \"Midas/joe-v2-main/src/LBToken.sol\":1042:1086  LBToken__SpenderNotApproved(_from, _spender) */\n      mload(0x40)\n      0x548f773d00000000000000000000000000000000000000000000000000000000\n      dup2\n      mstore\n      0x04\n      add\n      tag_73\n      swap3\n      swap2\n      swap1\n      tag_74\n      jump\t// in\n    tag_73:\n      mload(0x40)\n      dup1\n      swap2\n      sub\n      swap1\n      revert\n        /* \"Midas/joe-v2-main/src/LBToken.sol\":994:1086  if (!_isApprovedForAll(_from, _spender)) revert LBToken__SpenderNotApproved(_from, _spender) */\n    tag_72:\n        /* \"Midas/joe-v2-main/src/LBToken.sol\":4686:4702  address _spender */\n      0x00\n        /* \"Midas/joe-v2-main/src/LBToken.sol\":4705:4715  msg.sender */\n      caller\n        /* \"Midas/joe-v2-main/src/LBToken.sol\":4686:4715  address _spender = msg.sender */\n      swap1\n      pop\n        /* \"Midas/joe-v2-main/src/LBToken.sol\":4726:4761  _transfer(_from, _to, _id, _amount) */\n      tag_76\n        /* \"Midas/joe-v2-main/src/LBToken.sol\":4736:4741  _from */\n      dup10\n        /* \"Midas/joe-v2-main/src/LBToken.sol\":4743:4746  _to */\n      dup10\n        /* \"Midas/joe-v2-main/src/LBToken.sol\":4748:4751  _id */\n      dup10\n        /* \"Midas/joe-v2-main/src/LBToken.sol\":4753:4760  _amount */\n      dup10\n        /* \"Midas/joe-v2-main/src/LBToken.sol\":4726:4735  _transfer */\n      tag_77\n        /* \"Midas/joe-v2-main/src/LBToken.sol\":4726:4761  _transfer(_from, _to, _id, _amount) */\n      jump\t// in\n    tag_76:\n        /* \"Midas/joe-v2-main/src/LBToken.sol\":4809:4812  _to */\n      dup8\n        /* \"Midas/joe-v2-main/src/LBToken.sol\":4777:4827  TransferSingle(_spender, _from, _to, _id, _amount) */\n      0xffffffffffffffffffffffffffffffffffffffff\n      and\n        /* \"Midas/joe-v2-main/src/LBToken.sol\":4802:4807  _from */\n      dup10\n        /* \"Midas/joe-v2-main/src/LBToken.sol\":4777:4827  TransferSingle(_spender, _from, _to, _id, _amount) */\n      0xffffffffffffffffffffffffffffffffffffffff\n      and\n        /* \"Midas/joe-v2-main/src/LBToken.sol\":4792:4800  _spender */\n      dup3\n        /* \"Midas/joe-v2-main/src/LBToken.sol\":4777:4827  TransferSingle(_spender, _from, _to, _id, _amount) */\n      0xffffffffffffffffffffffffffffffffffffffff\n      and\n      0xc3d58168c5ae7397731d063d5bbf3d657854427343f4c083240f7aacaa2d0f62\n        /* \"Midas/joe-v2-main/src/LBToken.sol\":4814:4817  _id */\n      dup11\n        /* \"Midas/joe-v2-main/src/LBToken.sol\":4819:4826  _amount */\n      dup11\n        /* \"Midas/joe-v2-main/src/LBToken.sol\":4777:4827  TransferSingle(_spender, _from, _to, _id, _amount) */\n      mload(0x40)\n      tag_78\n      swap3\n      swap2\n      swap1\n      tag_79\n      jump\t// in\n    tag_78:\n      mload(0x40)\n      dup1\n      swap2\n      sub\n      swap1\n      log4\n        /* \"Midas/joe-v2-main/src/LBToken.sol\":4676:4834  {... */\n      pop\n        /* \"Midas/joe-v2-main/src/LBToken.sol\":1330:1331  _ */\n      pop\n      pop\n        /* \"Midas/joe-v2-main/src/LBToken.sol\":4470:4834  function safeTransferFrom(... */\n      pop\n      pop\n      pop\n      pop\n      pop\n      pop\n      jump\t// out\n        /* \"Midas/joe-v2-main/src/LBToken.sol\":2897:3376  function balanceOfBatch(address[] calldata _accounts, uint256[] calldata _ids)... */\n    tag_37:\n        /* \"Midas/joe-v2-main/src/LBToken.sol\":3105:3135  uint256[] memory batchBalances */\n      0x60\n        /* \"Midas/joe-v2-main/src/LBToken.sol\":3057:3066  _accounts */\n      dup5\n      dup5\n        /* \"Midas/joe-v2-main/src/LBToken.sol\":3057:3073  _accounts.length */\n      swap1\n      pop\n        /* \"Midas/joe-v2-main/src/LBToken.sol\":3075:3079  _ids */\n      dup4\n      dup4\n        /* \"Midas/joe-v2-main/src/LBToken.sol\":3075:3086  _ids.length */\n      swap1\n      pop\n        /* \"Midas/joe-v2-main/src/LBToken.sol\":1427:1435  _lengthB */\n      dup1\n        /* \"Midas/joe-v2-main/src/LBToken.sol\":1415:1423  _lengthA */\n      dup3\n        /* \"Midas/joe-v2-main/src/LBToken.sol\":1415:1435  _lengthA != _lengthB */\n      eq\n        /* \"Midas/joe-v2-main/src/LBToken.sol\":1411:1487  if (_lengthA != _lengthB) revert LBToken__LengthMismatch(_lengthA, _lengthB) */\n      tag_81\n      jumpi\n        /* \"Midas/joe-v2-main/src/LBToken.sol\":1468:1476  _lengthA */\n      dup2\n        /* \"Midas/joe-v2-main/src/LBToken.sol\":1478:1486  _lengthB */\n      dup2\n        /* \"Midas/joe-v2-main/src/LBToken.sol\":1444:1487  LBToken__LengthMismatch(_lengthA, _lengthB) */\n      mload(0x40)\n      0x9c802a7500000000000000000000000000000000000000000000000000000000\n      dup2\n      mstore\n      0x04\n      add\n      tag_82\n      swap3\n      swap2\n      swap1\n      tag_79\n      jump\t// in\n    tag_82:\n      mload(0x40)\n      dup1\n      swap2\n      sub\n      swap1\n      revert\n        /* \"Midas/joe-v2-main/src/LBToken.sol\":1411:1487  if (_lengthA != _lengthB) revert LBToken__LengthMismatch(_lengthA, _lengthB) */\n    tag_81:\n        /* \"Midas/joe-v2-main/src/LBToken.sol\":3181:3190  _accounts */\n      dup7\n      dup7\n        /* \"Midas/joe-v2-main/src/LBToken.sol\":3181:3197  _accounts.length */\n      swap1\n      pop\n        /* \"Midas/joe-v2-main/src/LBToken.sol\":3167:3198  new uint256[](_accounts.length) */\n      0xffffffffffffffff\n      dup2\n      gt\n      iszero\n      tag_84\n      jumpi\n      tag_85\n      tag_86\n      jump\t// in\n    tag_85:\n    tag_84:\n      mload(0x40)\n      swap1\n      dup1\n      dup3\n      mstore\n      dup1\n      0x20\n      mul\n      0x20\n      add\n      dup3\n      add\n      0x40\n      mstore\n      dup1\n      iszero\n      tag_87\n      jumpi\n      dup2\n      0x20\n      add\n      0x20\n      dup3\n      mul\n      dup1\n      calldatasize\n      dup4\n      calldatacopy\n      dup1\n      dup3\n      add\n      swap2\n      pop\n      pop\n      swap1\n      pop\n    tag_87:\n      pop\n        /* \"Midas/joe-v2-main/src/LBToken.sol\":3151:3198  batchBalances = new uint256[](_accounts.length) */\n      swap3\n      pop\n        /* \"Midas/joe-v2-main/src/LBToken.sol\":3238:3247  uint256 i */\n      0x00\n        /* \"Midas/joe-v2-main/src/LBToken.sol\":3233:3360  for (uint256 i; i < _accounts.length; ++i) {... */\n    tag_88:\n        /* \"Midas/joe-v2-main/src/LBToken.sol\":3253:3262  _accounts */\n      dup8\n      dup8\n        /* \"Midas/joe-v2-main/src/LBToken.sol\":3253:3269  _accounts.length */\n      swap1\n      pop\n        /* \"Midas/joe-v2-main/src/LBToken.sol\":3249:3250  i */\n      dup2\n        /* \"Midas/joe-v2-main/src/LBToken.sol\":3249:3269  i < _accounts.length */\n      lt\n        /* \"Midas/joe-v2-main/src/LBToken.sol\":3233:3360  for (uint256 i; i < _accounts.length; ++i) {... */\n      iszero\n      tag_89\n      jumpi\n        /* \"Midas/joe-v2-main/src/LBToken.sol\":3313:3345  balanceOf(_accounts[i], _ids[i]) */\n      tag_91\n        /* \"Midas/joe-v2-main/src/LBToken.sol\":3323:3332  _accounts */\n      dup9\n      dup9\n        /* \"Midas/joe-v2-main/src/LBToken.sol\":3333:3334  i */\n      dup4\n        /* \"Midas/joe-v2-main/src/LBToken.sol\":3323:3335  _accounts[i] */\n      dup2\n      dup2\n      lt\n      tag_92\n      jumpi\n      tag_93\n      tag_94\n      jump\t// in\n    tag_93:\n    tag_92:\n      swap1\n      pop\n      0x20\n      mul\n      add\n      0x20\n      dup2\n      add\n      swap1\n      tag_95\n      swap2\n      swap1\n      tag_96\n      jump\t// in\n    tag_95:\n        /* \"Midas/joe-v2-main/src/LBToken.sol\":3337:3341  _ids */\n      dup8\n      dup8\n        /* \"Midas/joe-v2-main/src/LBToken.sol\":3342:3343  i */\n      dup5\n        /* \"Midas/joe-v2-main/src/LBToken.sol\":3337:3344  _ids[i] */\n      dup2\n      dup2\n      lt\n      tag_97\n      jumpi\n      tag_98\n      tag_94\n      jump\t// in\n    tag_98:\n    tag_97:\n      swap1\n      pop\n      0x20\n      mul\n      add\n      calldataload\n        /* \"Midas/joe-v2-main/src/LBToken.sol\":3313:3322  balanceOf */\n      tag_17\n        /* \"Midas/joe-v2-main/src/LBToken.sol\":3313:3345  balanceOf(_accounts[i], _ids[i]) */\n      jump\t// in\n    tag_91:\n        /* \"Midas/joe-v2-main/src/LBToken.sol\":3294:3307  batchBalances */\n      dup5\n        /* \"Midas/joe-v2-main/src/LBToken.sol\":3308:3309  i */\n      dup3\n        /* \"Midas/joe-v2-main/src/LBToken.sol\":3294:3310  batchBalances[i] */\n      dup2\n      mload\n      dup2\n      lt\n      tag_99\n      jumpi\n      tag_100\n      tag_94\n      jump\t// in\n    tag_100:\n    tag_99:\n      0x20\n      mul\n      0x20\n      add\n      add\n        /* \"Midas/joe-v2-main/src/LBToken.sol\":3294:3345  batchBalances[i] = balanceOf(_accounts[i], _ids[i]) */\n      dup2\n      dup2\n      mstore\n      pop\n      pop\n        /* \"Midas/joe-v2-main/src/LBToken.sol\":3271:3274  ++i */\n      dup1\n      0x01\n      add\n      swap1\n      pop\n        /* \"Midas/joe-v2-main/src/LBToken.sol\":3233:3360  for (uint256 i; i < _accounts.length; ++i) {... */\n      jump(tag_88)\n    tag_89:\n      pop\n        /* \"Midas/joe-v2-main/src/LBToken.sol\":2897:3376  function balanceOfBatch(address[] calldata _accounts, uint256[] calldata _ids)... */\n      pop\n      pop\n      swap5\n      swap4\n      pop\n      pop\n      pop\n      pop\n      jump\t// out\n        /* \"Midas/joe-v2-main/src/LBToken.sol\":1826:1928  function symbol() public pure virtual override returns (string memory) {... */\n    tag_41:\n        /* \"Midas/joe-v2-main/src/LBToken.sol\":1882:1895  string memory */\n      0x60\n        /* \"Midas/joe-v2-main/src/LBToken.sol\":1914:1921  _SYMBOL */\n      mload(0x40)\n      dup1\n      0x40\n      add\n      0x40\n      mstore\n      dup1\n      0x03\n      dup2\n      mstore\n      0x20\n      add\n      0x4c42540000000000000000000000000000000000000000000000000000000000\n      dup2\n      mstore\n      pop\n        /* \"Midas/joe-v2-main/src/LBToken.sol\":1907:1921  return _SYMBOL */\n      swap1\n      pop\n        /* \"Midas/joe-v2-main/src/LBToken.sol\":1826:1928  function symbol() public pure virtual override returns (string memory) {... */\n      swap1\n      jump\t// out\n        /* \"Midas/joe-v2-main/src/LBToken.sol\":4052:4205  function setApprovalForAll(address _spender, bool _approved) public virtual override {... */\n    tag_46:\n        /* \"Midas/joe-v2-main/src/LBToken.sol\":4147:4198  _setApprovalForAll(msg.sender, _spender, _approved) */\n      tag_103\n        /* \"Midas/joe-v2-main/src/LBToken.sol\":4166:4176  msg.sender */\n      caller\n        /* \"Midas/joe-v2-main/src/LBToken.sol\":4178:4186  _spender */\n      dup4\n        /* \"Midas/joe-v2-main/src/LBToken.sol\":4188:4197  _approved */\n      dup4\n        /* \"Midas/joe-v2-main/src/LBToken.sol\":4147:4165  _setApprovalForAll */\n      tag_104\n        /* \"Midas/joe-v2-main/src/LBToken.sol\":4147:4198  _setApprovalForAll(msg.sender, _spender, _approved) */\n      jump\t// in\n    tag_103:\n        /* \"Midas/joe-v2-main/src/LBToken.sol\":4052:4205  function setApprovalForAll(address _spender, bool _approved) public virtual override {... */\n      pop\n      pop\n      jump\t// out\n        /* \"Midas/joe-v2-main/src/LBToken.sol\":2164:2288  function totalSupply(uint256 _id) public view virtual override returns (uint256) {... */\n    tag_50:\n        /* \"Midas/joe-v2-main/src/LBToken.sol\":2236:2243  uint256 */\n      0x00\n        /* \"Midas/joe-v2-main/src/LBToken.sol\":2262:2276  _totalSupplies */\n      0x02\n        /* \"Midas/joe-v2-main/src/LBToken.sol\":2262:2281  _totalSupplies[_id] */\n      0x00\n        /* \"Midas/joe-v2-main/src/LBToken.sol\":2277:2280  _id */\n      dup4\n        /* \"Midas/joe-v2-main/src/LBToken.sol\":2262:2281  _totalSupplies[_id] */\n      dup2\n      mstore\n      0x20\n      add\n      swap1\n      dup2\n      mstore\n      0x20\n      add\n      0x00\n      keccak256\n      sload\n        /* \"Midas/joe-v2-main/src/LBToken.sol\":2255:2281  return _totalSupplies[_id] */\n      swap1\n      pop\n        /* \"Midas/joe-v2-main/src/LBToken.sol\":2164:2288  function totalSupply(uint256 _id) public view virtual override returns (uint256) {... */\n      swap2\n      swap1\n      pop\n      jump\t// out\n        /* \"Midas/joe-v2-main/src/LBToken.sol\":3644:3807  function isApprovedForAll(address _owner, address _spender) public view virtual override returns (bool) {... */\n    tag_55:\n        /* \"Midas/joe-v2-main/src/LBToken.sol\":3742:3746  bool */\n      0x00\n        /* \"Midas/joe-v2-main/src/LBToken.sol\":3765:3800  _isApprovedForAll(_owner, _spender) */\n      tag_107\n        /* \"Midas/joe-v2-main/src/LBToken.sol\":3783:3789  _owner */\n      dup4\n        /* \"Midas/joe-v2-main/src/LBToken.sol\":3791:3799  _spender */\n      dup4\n        /* \"Midas/joe-v2-main/src/LBToken.sol\":3765:3782  _isApprovedForAll */\n      tag_71\n        /* \"Midas/joe-v2-main/src/LBToken.sol\":3765:3800  _isApprovedForAll(_owner, _spender) */\n      jump\t// in\n    tag_107:\n        /* \"Midas/joe-v2-main/src/LBToken.sol\":3758:3800  return _isApprovedForAll(_owner, _spender) */\n      swap1\n      pop\n        /* \"Midas/joe-v2-main/src/LBToken.sol\":3644:3807  function isApprovedForAll(address _owner, address _spender) public view virtual override returns (bool) {... */\n      swap3\n      swap2\n      pop\n      pop\n      jump\t// out\n        /* \"Midas/joe-v2-main/src/LBToken.sol\":5127:5689  function safeBatchTransferFrom(... */\n    tag_60:\n        /* \"Midas/joe-v2-main/src/LBToken.sol\":5346:5350  _ids */\n      dup4\n      dup4\n        /* \"Midas/joe-v2-main/src/LBToken.sol\":5346:5357  _ids.length */\n      swap1\n      pop\n        /* \"Midas/joe-v2-main/src/LBToken.sol\":5359:5367  _amounts */\n      dup3\n      dup3\n        /* \"Midas/joe-v2-main/src/LBToken.sol\":5359:5374  _amounts.length */\n      swap1\n      pop\n        /* \"Midas/joe-v2-main/src/LBToken.sol\":1427:1435  _lengthB */\n      dup1\n        /* \"Midas/joe-v2-main/src/LBToken.sol\":1415:1423  _lengthA */\n      dup3\n        /* \"Midas/joe-v2-main/src/LBToken.sol\":1415:1435  _lengthA != _lengthB */\n      eq\n        /* \"Midas/joe-v2-main/src/LBToken.sol\":1411:1487  if (_lengthA != _lengthB) revert LBToken__LengthMismatch(_lengthA, _lengthB) */\n      tag_109\n      jumpi\n        /* \"Midas/joe-v2-main/src/LBToken.sol\":1468:1476  _lengthA */\n      dup2\n        /* \"Midas/joe-v2-main/src/LBToken.sol\":1478:1486  _lengthB */\n      dup2\n        /* \"Midas/joe-v2-main/src/LBToken.sol\":1444:1487  LBToken__LengthMismatch(_lengthA, _lengthB) */\n      mload(0x40)\n      0x9c802a7500000000000000000000000000000000000000000000000000000000\n      dup2\n      mstore\n      0x04\n      add\n      tag_110\n      swap3\n      swap2\n      swap1\n      tag_79\n      jump\t// in\n    tag_110:\n      mload(0x40)\n      dup1\n      swap2\n      sub\n      swap1\n      revert\n        /* \"Midas/joe-v2-main/src/LBToken.sol\":1411:1487  if (_lengthA != _lengthB) revert LBToken__LengthMismatch(_lengthA, _lengthB) */\n    tag_109:\n        /* \"Midas/joe-v2-main/src/LBToken.sol\":5399:5404  _from */\n      dup8\n        /* \"Midas/joe-v2-main/src/LBToken.sol\":5406:5409  _to */\n      dup8\n        /* \"Midas/joe-v2-main/src/LBToken.sol\":1193:1194  0 */\n      0x00\n        /* \"Midas/joe-v2-main/src/LBToken.sol\":1176:1195  _from == address(0) */\n      0xffffffffffffffffffffffffffffffffffffffff\n      and\n        /* \"Midas/joe-v2-main/src/LBToken.sol\":1176:1181  _from */\n      dup3\n        /* \"Midas/joe-v2-main/src/LBToken.sol\":1176:1195  _from == address(0) */\n      0xffffffffffffffffffffffffffffffffffffffff\n      and\n      eq\n        /* \"Midas/joe-v2-main/src/LBToken.sol\":1176:1216  _from == address(0) || _to == address(0) */\n      dup1\n      tag_112\n      jumpi\n      pop\n        /* \"Midas/joe-v2-main/src/LBToken.sol\":1214:1215  0 */\n      0x00\n        /* \"Midas/joe-v2-main/src/LBToken.sol\":1199:1216  _to == address(0) */\n      0xffffffffffffffffffffffffffffffffffffffff\n      and\n        /* \"Midas/joe-v2-main/src/LBToken.sol\":1199:1202  _to */\n      dup2\n        /* \"Midas/joe-v2-main/src/LBToken.sol\":1199:1216  _to == address(0) */\n      0xffffffffffffffffffffffffffffffffffffffff\n      and\n      eq\n        /* \"Midas/joe-v2-main/src/LBToken.sol\":1176:1216  _from == address(0) || _to == address(0) */\n    tag_112:\n        /* \"Midas/joe-v2-main/src/LBToken.sol\":1172:1260  if (_from == address(0) || _to == address(0)) revert LBToken__TransferFromOrToAddress0() */\n      iszero\n      tag_113\n      jumpi\n        /* \"Midas/joe-v2-main/src/LBToken.sol\":1225:1260  LBToken__TransferFromOrToAddress0() */\n      mload(0x40)\n      0x41a4672000000000000000000000000000000000000000000000000000000000\n      dup2\n      mstore\n      0x04\n      add\n      mload(0x40)\n      dup1\n      swap2\n      sub\n      swap1\n      revert\n        /* \"Midas/joe-v2-main/src/LBToken.sol\":1172:1260  if (_from == address(0) || _to == address(0)) revert LBToken__TransferFromOrToAddress0() */\n    tag_113:\n        /* \"Midas/joe-v2-main/src/LBToken.sol\":1283:1286  _to */\n      dup1\n        /* \"Midas/joe-v2-main/src/LBToken.sol\":1274:1286  _from == _to */\n      0xffffffffffffffffffffffffffffffffffffffff\n      and\n        /* \"Midas/joe-v2-main/src/LBToken.sol\":1274:1279  _from */\n      dup3\n        /* \"Midas/joe-v2-main/src/LBToken.sol\":1274:1286  _from == _to */\n      0xffffffffffffffffffffffffffffffffffffffff\n      and\n      eq\n        /* \"Midas/joe-v2-main/src/LBToken.sol\":1270:1320  if (_from == _to) revert LBToken__TransferToSelf() */\n      iszero\n      tag_114\n      jumpi\n        /* \"Midas/joe-v2-main/src/LBToken.sol\":1295:1320  LBToken__TransferToSelf() */\n      mload(0x40)\n      0x8696f16700000000000000000000000000000000000000000000000000000000\n      dup2\n      mstore\n      0x04\n      add\n      mload(0x40)\n      dup1\n      swap2\n      sub\n      swap1\n      revert\n        /* \"Midas/joe-v2-main/src/LBToken.sol\":1270:1320  if (_from == _to) revert LBToken__TransferToSelf() */\n    tag_114:\n        /* \"Midas/joe-v2-main/src/LBToken.sol\":5433:5438  _from */\n      dup10\n        /* \"Midas/joe-v2-main/src/LBToken.sol\":5440:5450  msg.sender */\n      caller\n        /* \"Midas/joe-v2-main/src/LBToken.sol\":999:1033  _isApprovedForAll(_from, _spender) */\n      tag_116\n        /* \"Midas/joe-v2-main/src/LBToken.sol\":1017:1022  _from */\n      dup3\n        /* \"Midas/joe-v2-main/src/LBToken.sol\":1024:1032  _spender */\n      dup3\n        /* \"Midas/joe-v2-main/src/LBToken.sol\":999:1016  _isApprovedForAll */\n      tag_71\n        /* \"Midas/joe-v2-main/src/LBToken.sol\":999:1033  _isApprovedForAll(_from, _spender) */\n      jump\t// in\n    tag_116:\n        /* \"Midas/joe-v2-main/src/LBToken.sol\":994:1086  if (!_isApprovedForAll(_from, _spender)) revert LBToken__SpenderNotApproved(_from, _spender) */\n      tag_117\n      jumpi\n        /* \"Midas/joe-v2-main/src/LBToken.sol\":1070:1075  _from */\n      dup2\n        /* \"Midas/joe-v2-main/src/LBToken.sol\":1077:1085  _spender */\n      dup2\n        /* \"Midas/joe-v2-main/src/LBToken.sol\":1042:1086  LBToken__SpenderNotApproved(_from, _spender) */\n      mload(0x40)\n      0x548f773d00000000000000000000000000000000000000000000000000000000\n      dup2\n      mstore\n      0x04\n      add\n      tag_118\n      swap3\n      swap2\n      swap1\n      tag_74\n      jump\t// in\n    tag_118:\n      mload(0x40)\n      dup1\n      swap2\n      sub\n      swap1\n      revert\n        /* \"Midas/joe-v2-main/src/LBToken.sol\":994:1086  if (!_isApprovedForAll(_from, _spender)) revert LBToken__SpenderNotApproved(_from, _spender) */\n    tag_117:\n        /* \"Midas/joe-v2-main/src/LBToken.sol\":5495:5504  uint256 i */\n      0x00\n        /* \"Midas/joe-v2-main/src/LBToken.sol\":5490:5604  for (uint256 i; i < _ids.length; ++i) {... */\n    tag_120:\n        /* \"Midas/joe-v2-main/src/LBToken.sol\":5510:5514  _ids */\n      dup11\n      dup11\n        /* \"Midas/joe-v2-main/src/LBToken.sol\":5510:5521  _ids.length */\n      swap1\n      pop\n        /* \"Midas/joe-v2-main/src/LBToken.sol\":5506:5507  i */\n      dup2\n        /* \"Midas/joe-v2-main/src/LBToken.sol\":5506:5521  i < _ids.length */\n      lt\n        /* \"Midas/joe-v2-main/src/LBToken.sol\":5490:5604  for (uint256 i; i < _ids.length; ++i) {... */\n      iszero\n      tag_121\n      jumpi\n        /* \"Midas/joe-v2-main/src/LBToken.sol\":5546:5589  _transfer(_from, _to, _ids[i], _amounts[i]) */\n      tag_123\n        /* \"Midas/joe-v2-main/src/LBToken.sol\":5556:5561  _from */\n      dup14\n        /* \"Midas/joe-v2-main/src/LBToken.sol\":5563:5566  _to */\n      dup14\n        /* \"Midas/joe-v2-main/src/LBToken.sol\":5568:5572  _ids */\n      dup14\n      dup14\n        /* \"Midas/joe-v2-main/src/LBToken.sol\":5573:5574  i */\n      dup6\n        /* \"Midas/joe-v2-main/src/LBToken.sol\":5568:5575  _ids[i] */\n      dup2\n      dup2\n      lt\n      tag_124\n      jumpi\n      tag_125\n      tag_94\n      jump\t// in\n    tag_125:\n    tag_124:\n      swap1\n      pop\n      0x20\n      mul\n      add\n      calldataload\n        /* \"Midas/joe-v2-main/src/LBToken.sol\":5577:5585  _amounts */\n      dup13\n      dup13\n        /* \"Midas/joe-v2-main/src/LBToken.sol\":5586:5587  i */\n      dup7\n        /* \"Midas/joe-v2-main/src/LBToken.sol\":5577:5588  _amounts[i] */\n      dup2\n      dup2\n      lt\n      tag_126\n      jumpi\n      tag_127\n      tag_94\n      jump\t// in\n    tag_127:\n    tag_126:\n      swap1\n      pop\n      0x20\n      mul\n      add\n      calldataload\n        /* \"Midas/joe-v2-main/src/LBToken.sol\":5546:5555  _transfer */\n      tag_77\n        /* \"Midas/joe-v2-main/src/LBToken.sol\":5546:5589  _transfer(_from, _to, _ids[i], _amounts[i]) */\n      jump\t// in\n    tag_123:\n        /* \"Midas/joe-v2-main/src/LBToken.sol\":5523:5526  ++i */\n      dup1\n      0x01\n      add\n      swap1\n      pop\n        /* \"Midas/joe-v2-main/src/LBToken.sol\":5490:5604  for (uint256 i; i < _ids.length; ++i) {... */\n      jump(tag_120)\n    tag_121:\n      pop\n        /* \"Midas/joe-v2-main/src/LBToken.sol\":5662:5665  _to */\n      dup11\n        /* \"Midas/joe-v2-main/src/LBToken.sol\":5629:5682  TransferBatch(msg.sender, _from, _to, _ids, _amounts) */\n      0xffffffffffffffffffffffffffffffffffffffff\n      and\n        /* \"Midas/joe-v2-main/src/LBToken.sol\":5655:5660  _from */\n      dup13\n        /* \"Midas/joe-v2-main/src/LBToken.sol\":5629:5682  TransferBatch(msg.sender, _from, _to, _ids, _amounts) */\n      0xffffffffffffffffffffffffffffffffffffffff\n      and\n        /* \"Midas/joe-v2-main/src/LBToken.sol\":5643:5653  msg.sender */\n      caller\n        /* \"Midas/joe-v2-main/src/LBToken.sol\":5629:5682  TransferBatch(msg.sender, _from, _to, _ids, _amounts) */\n      0xffffffffffffffffffffffffffffffffffffffff\n      and\n      0x4a39dc06d4c0dbc64b70af90fd698a233a518aa5d07e595d983b8c0526c8f7fb\n        /* \"Midas/joe-v2-main/src/LBToken.sol\":5667:5671  _ids */\n      dup14\n      dup14\n        /* \"Midas/joe-v2-main/src/LBToken.sol\":5673:5681  _amounts */\n      dup14\n      dup14\n        /* \"Midas/joe-v2-main/src/LBToken.sol\":5629:5682  TransferBatch(msg.sender, _from, _to, _ids, _amounts) */\n      mload(0x40)\n      tag_128\n      swap5\n      swap4\n      swap3\n      swap2\n      swap1\n      tag_129\n      jump\t// in\n    tag_128:\n      mload(0x40)\n      dup1\n      swap2\n      sub\n      swap1\n      log4\n        /* \"Midas/joe-v2-main/src/LBToken.sol\":1330:1331  _ */\n      pop\n      pop\n        /* \"Midas/joe-v2-main/src/LBToken.sol\":1497:1498  _ */\n      pop\n      pop\n        /* \"Midas/joe-v2-main/src/LBToken.sol\":5127:5689  function safeBatchTransferFrom(... */\n      pop\n      pop\n      pop\n      pop\n      pop\n      pop\n      pop\n      pop\n      jump\t// out\n        /* \"Midas/joe-v2-main/src/LBToken.sol\":9334:9513  function _isApprovedForAll(address _owner, address _spender) internal view virtual returns (bool) {... */\n    tag_71:\n        /* \"Midas/joe-v2-main/src/LBToken.sol\":9426:9430  bool */\n      0x00\n        /* \"Midas/joe-v2-main/src/LBToken.sol\":9459:9467  _spender */\n      dup2\n        /* \"Midas/joe-v2-main/src/LBToken.sol\":9449:9467  _owner == _spender */\n      0xffffffffffffffffffffffffffffffffffffffff\n      and\n        /* \"Midas/joe-v2-main/src/LBToken.sol\":9449:9455  _owner */\n      dup4\n        /* \"Midas/joe-v2-main/src/LBToken.sol\":9449:9467  _owner == _spender */\n      0xffffffffffffffffffffffffffffffffffffffff\n      and\n      eq\n        /* \"Midas/joe-v2-main/src/LBToken.sol\":9449:9506  _owner == _spender || _spenderApprovals[_owner][_spender] */\n      dup1\n      tag_131\n      jumpi\n      pop\n        /* \"Midas/joe-v2-main/src/LBToken.sol\":9471:9488  _spenderApprovals */\n      0x01\n        /* \"Midas/joe-v2-main/src/LBToken.sol\":9471:9496  _spenderApprovals[_owner] */\n      0x00\n        /* \"Midas/joe-v2-main/src/LBToken.sol\":9489:9495  _owner */\n      dup5\n        /* \"Midas/joe-v2-main/src/LBToken.sol\":9471:9496  _spenderApprovals[_owner] */\n      0xffffffffffffffffffffffffffffffffffffffff\n      and\n      0xffffffffffffffffffffffffffffffffffffffff\n      and\n      dup2\n      mstore\n      0x20\n      add\n      swap1\n      dup2\n      mstore\n      0x20\n      add\n      0x00\n      keccak256\n        /* \"Midas/joe-v2-main/src/LBToken.sol\":9471:9506  _spenderApprovals[_owner][_spender] */\n      0x00\n        /* \"Midas/joe-v2-main/src/LBToken.sol\":9497:9505  _spender */\n      dup4\n        /* \"Midas/joe-v2-main/src/LBToken.sol\":9471:9506  _spenderApprovals[_owner][_spender] */\n      0xffffffffffffffffffffffffffffffffffffffff\n      and\n      0xffffffffffffffffffffffffffffffffffffffff\n      and\n      dup2\n      mstore\n      0x20\n      add\n      swap1\n      dup2\n      mstore\n      0x20\n      add\n      0x00\n      keccak256\n      0x00\n      swap1\n      sload\n      swap1\n      0x0100\n      exp\n      swap1\n      div\n      0xff\n      and\n        /* \"Midas/joe-v2-main/src/LBToken.sol\":9449:9506  _owner == _spender || _spenderApprovals[_owner][_spender] */\n    tag_131:\n        /* \"Midas/joe-v2-main/src/LBToken.sol\":9442:9506  return _owner == _spender || _spenderApprovals[_owner][_spender] */\n      swap1\n      pop\n        /* \"Midas/joe-v2-main/src/LBToken.sol\":9334:9513  function _isApprovedForAll(address _owner, address _spender) internal view virtual returns (bool) {... */\n      swap3\n      swap2\n      pop\n      pop\n      jump\t// out\n        /* \"Midas/joe-v2-main/src/LBToken.sol\":6436:6918  function _transfer(... */\n    tag_77:\n        /* \"Midas/joe-v2-main/src/LBToken.sol\":6578:6598  uint256 _fromBalance */\n      0x00\n        /* \"Midas/joe-v2-main/src/LBToken.sol\":6601:6610  _balances */\n      dup1\n        /* \"Midas/joe-v2-main/src/LBToken.sol\":6601:6615  _balances[_id] */\n      0x00\n        /* \"Midas/joe-v2-main/src/LBToken.sol\":6611:6614  _id */\n      dup5\n        /* \"Midas/joe-v2-main/src/LBToken.sol\":6601:6615  _balances[_id] */\n      dup2\n      mstore\n      0x20\n      add\n      swap1\n      dup2\n      mstore\n      0x20\n      add\n      0x00\n      keccak256\n        /* \"Midas/joe-v2-main/src/LBToken.sol\":6601:6622  _balances[_id][_from] */\n      0x00\n        /* \"Midas/joe-v2-main/src/LBToken.sol\":6616:6621  _from */\n      dup7\n        /* \"Midas/joe-v2-main/src/LBToken.sol\":6601:6622  _balances[_id][_from] */\n      0xffffffffffffffffffffffffffffffffffffffff\n      and\n      0xffffffffffffffffffffffffffffffffffffffff\n      and\n      dup2\n      mstore\n      0x20\n      add\n      swap1\n      dup2\n      mstore\n      0x20\n      add\n      0x00\n      keccak256\n      sload\n        /* \"Midas/joe-v2-main/src/LBToken.sol\":6578:6622  uint256 _fromBalance = _balances[_id][_from] */\n      swap1\n      pop\n        /* \"Midas/joe-v2-main/src/LBToken.sol\":6651:6658  _amount */\n      dup2\n        /* \"Midas/joe-v2-main/src/LBToken.sol\":6636:6648  _fromBalance */\n      dup2\n        /* \"Midas/joe-v2-main/src/LBToken.sol\":6636:6658  _fromBalance < _amount */\n      lt\n        /* \"Midas/joe-v2-main/src/LBToken.sol\":6632:6719  if (_fromBalance < _amount) revert LBToken__TransferExceedsBalance(_from, _id, _amount) */\n      iszero\n      tag_133\n      jumpi\n        /* \"Midas/joe-v2-main/src/LBToken.sol\":6699:6704  _from */\n      dup5\n        /* \"Midas/joe-v2-main/src/LBToken.sol\":6706:6709  _id */\n      dup4\n        /* \"Midas/joe-v2-main/src/LBToken.sol\":6711:6718  _amount */\n      dup4\n        /* \"Midas/joe-v2-main/src/LBToken.sol\":6667:6719  LBToken__TransferExceedsBalance(_from, _id, _amount) */\n      mload(0x40)\n      0x58b4690f00000000000000000000000000000000000000000000000000000000\n      dup2\n      mstore\n      0x04\n      add\n      tag_134\n      swap4\n      swap3\n      swap2\n      swap1\n      tag_135\n      jump\t// in\n    tag_134:\n      mload(0x40)\n      dup1\n      swap2\n      sub\n      swap1\n      revert\n        /* \"Midas/joe-v2-main/src/LBToken.sol\":6632:6719  if (_fromBalance < _amount) revert LBToken__TransferExceedsBalance(_from, _id, _amount) */\n    tag_133:\n        /* \"Midas/joe-v2-main/src/LBToken.sol\":6730:6776  _beforeTokenTransfer(_from, _to, _id, _amount) */\n      tag_136\n        /* \"Midas/joe-v2-main/src/LBToken.sol\":6751:6756  _from */\n      dup6\n        /* \"Midas/joe-v2-main/src/LBToken.sol\":6758:6761  _to */\n      dup6\n        /* \"Midas/joe-v2-main/src/LBToken.sol\":6763:6766  _id */\n      dup6\n        /* \"Midas/joe-v2-main/src/LBToken.sol\":6768:6775  _amount */\n      dup6\n        /* \"Midas/joe-v2-main/src/LBToken.sol\":6730:6750  _beforeTokenTransfer */\n      tag_137\n        /* \"Midas/joe-v2-main/src/LBToken.sol\":6730:6776  _beforeTokenTransfer(_from, _to, _id, _amount) */\n      jump\t// in\n    tag_136:\n        /* \"Midas/joe-v2-main/src/LBToken.sol\":6850:6857  _amount */\n      dup2\n        /* \"Midas/joe-v2-main/src/LBToken.sol\":6835:6847  _fromBalance */\n      dup2\n        /* \"Midas/joe-v2-main/src/LBToken.sol\":6835:6857  _fromBalance - _amount */\n      sub\n        /* \"Midas/joe-v2-main/src/LBToken.sol\":6811:6820  _balances */\n      0x00\n        /* \"Midas/joe-v2-main/src/LBToken.sol\":6811:6825  _balances[_id] */\n      dup1\n        /* \"Midas/joe-v2-main/src/LBToken.sol\":6821:6824  _id */\n      dup6\n        /* \"Midas/joe-v2-main/src/LBToken.sol\":6811:6825  _balances[_id] */\n      dup2\n      mstore\n      0x20\n      add\n      swap1\n      dup2\n      mstore\n      0x20\n      add\n      0x00\n      keccak256\n        /* \"Midas/joe-v2-main/src/LBToken.sol\":6811:6832  _balances[_id][_from] */\n      0x00\n        /* \"Midas/joe-v2-main/src/LBToken.sol\":6826:6831  _from */\n      dup8\n        /* \"Midas/joe-v2-main/src/LBToken.sol\":6811:6832  _balances[_id][_from] */\n      0xffffffffffffffffffffffffffffffffffffffff\n      and\n      0xffffffffffffffffffffffffffffffffffffffff\n      and\n      dup2\n      mstore\n      0x20\n      add\n      swap1\n      dup2\n      mstore\n      0x20\n      add\n      0x00\n      keccak256\n        /* \"Midas/joe-v2-main/src/LBToken.sol\":6811:6857  _balances[_id][_from] = _fromBalance - _amount */\n      dup2\n      swap1\n      sstore\n      pop\n        /* \"Midas/joe-v2-main/src/LBToken.sol\":6894:6901  _amount */\n      dup2\n        /* \"Midas/joe-v2-main/src/LBToken.sol\":6871:6880  _balances */\n      0x00\n        /* \"Midas/joe-v2-main/src/LBToken.sol\":6871:6885  _balances[_id] */\n      dup1\n        /* \"Midas/joe-v2-main/src/LBToken.sol\":6881:6884  _id */\n      dup6\n        /* \"Midas/joe-v2-main/src/LBToken.sol\":6871:6885  _balances[_id] */\n      dup2\n      mstore\n      0x20\n      add\n      swap1\n      dup2\n      mstore\n      0x20\n      add\n      0x00\n      keccak256\n        /* \"Midas/joe-v2-main/src/LBToken.sol\":6871:6890  _balances[_id][_to] */\n      0x00\n        /* \"Midas/joe-v2-main/src/LBToken.sol\":6886:6889  _to */\n      dup7\n        /* \"Midas/joe-v2-main/src/LBToken.sol\":6871:6890  _balances[_id][_to] */\n      0xffffffffffffffffffffffffffffffffffffffff\n      and\n      0xffffffffffffffffffffffffffffffffffffffff\n      and\n      dup2\n      mstore\n      0x20\n      add\n      swap1\n      dup2\n      mstore\n      0x20\n      add\n      0x00\n      keccak256\n      0x00\n        /* \"Midas/joe-v2-main/src/LBToken.sol\":6871:6901  _balances[_id][_to] += _amount */\n      dup3\n      dup3\n      sload\n      add\n      swap3\n      pop\n      pop\n      dup2\n      swap1\n      sstore\n      pop\n        /* \"Midas/joe-v2-main/src/LBToken.sol\":6568:6918  {... */\n      pop\n        /* \"Midas/joe-v2-main/src/LBToken.sol\":6436:6918  function _transfer(... */\n      pop\n      pop\n      pop\n      pop\n      jump\t// out\n        /* \"Midas/joe-v2-main/src/LBToken.sol\":8716:9034  function _setApprovalForAll(... */\n    tag_104:\n        /* \"Midas/joe-v2-main/src/LBToken.sol\":8865:8873  _spender */\n      dup2\n        /* \"Midas/joe-v2-main/src/LBToken.sol\":8855:8873  _owner == _spender */\n      0xffffffffffffffffffffffffffffffffffffffff\n      and\n        /* \"Midas/joe-v2-main/src/LBToken.sol\":8855:8861  _owner */\n      dup4\n        /* \"Midas/joe-v2-main/src/LBToken.sol\":8855:8873  _owner == _spender */\n      0xffffffffffffffffffffffffffffffffffffffff\n      and\n      eq\n        /* \"Midas/joe-v2-main/src/LBToken.sol\":8851:8911  if (_owner == _spender) revert LBToken__SelfApproval(_owner) */\n      iszero\n      tag_139\n      jumpi\n        /* \"Midas/joe-v2-main/src/LBToken.sol\":8904:8910  _owner */\n      dup3\n        /* \"Midas/joe-v2-main/src/LBToken.sol\":8882:8911  LBToken__SelfApproval(_owner) */\n      mload(0x40)\n      0x782ee70700000000000000000000000000000000000000000000000000000000\n      dup2\n      mstore\n      0x04\n      add\n      tag_140\n      swap2\n      swap1\n      tag_141\n      jump\t// in\n    tag_140:\n      mload(0x40)\n      dup1\n      swap2\n      sub\n      swap1\n      revert\n        /* \"Midas/joe-v2-main/src/LBToken.sol\":8851:8911  if (_owner == _spender) revert LBToken__SelfApproval(_owner) */\n    tag_139:\n        /* \"Midas/joe-v2-main/src/LBToken.sol\":8960:8969  _approved */\n      dup1\n        /* \"Midas/joe-v2-main/src/LBToken.sol\":8922:8939  _spenderApprovals */\n      0x01\n        /* \"Midas/joe-v2-main/src/LBToken.sol\":8922:8947  _spenderApprovals[_owner] */\n      0x00\n        /* \"Midas/joe-v2-main/src/LBToken.sol\":8940:8946  _owner */\n      dup6\n        /* \"Midas/joe-v2-main/src/LBToken.sol\":8922:8947  _spenderApprovals[_owner] */\n      0xffffffffffffffffffffffffffffffffffffffff\n      and\n      0xffffffffffffffffffffffffffffffffffffffff\n      and\n      dup2\n      mstore\n      0x20\n      add\n      swap1\n      dup2\n      mstore\n      0x20\n      add\n      0x00\n      keccak256\n        /* \"Midas/joe-v2-main/src/LBToken.sol\":8922:8957  _spenderApprovals[_owner][_spender] */\n      0x00\n        /* \"Midas/joe-v2-main/src/LBToken.sol\":8948:8956  _spender */\n      dup5\n        /* \"Midas/joe-v2-main/src/LBToken.sol\":8922:8957  _spenderApprovals[_owner][_spender] */\n      0xffffffffffffffffffffffffffffffffffffffff\n      and\n      0xffffffffffffffffffffffffffffffffffffffff\n      and\n      dup2\n      mstore\n      0x20\n      add\n      swap1\n      dup2\n      mstore\n      0x20\n      add\n      0x00\n      keccak256\n      0x00\n        /* \"Midas/joe-v2-main/src/LBToken.sol\":8922:8969  _spenderApprovals[_owner][_spender] = _approved */\n      0x0100\n      exp\n      dup2\n      sload\n      dup2\n      0xff\n      mul\n      not\n      and\n      swap1\n      dup4\n      iszero\n      iszero\n      mul\n      or\n      swap1\n      sstore\n      pop\n        /* \"Midas/joe-v2-main/src/LBToken.sol\":9007:9015  _spender */\n      dup2\n        /* \"Midas/joe-v2-main/src/LBToken.sol\":8984:9027  ApprovalForAll(_owner, _spender, _approved) */\n      0xffffffffffffffffffffffffffffffffffffffff\n      and\n        /* \"Midas/joe-v2-main/src/LBToken.sol\":8999:9005  _owner */\n      dup4\n        /* \"Midas/joe-v2-main/src/LBToken.sol\":8984:9027  ApprovalForAll(_owner, _spender, _approved) */\n      0xffffffffffffffffffffffffffffffffffffffff\n      and\n      0x17307eab39ab6107e8899845ad3d59bd9653f200f220920489ca2b5937696c31\n        /* \"Midas/joe-v2-main/src/LBToken.sol\":9017:9026  _approved */\n      dup4\n        /* \"Midas/joe-v2-main/src/LBToken.sol\":8984:9027  ApprovalForAll(_owner, _spender, _approved) */\n      mload(0x40)\n      tag_142\n      swap2\n      swap1\n      tag_25\n      jump\t// in\n    tag_142:\n      mload(0x40)\n      dup1\n      swap2\n      sub\n      swap1\n      log3\n        /* \"Midas/joe-v2-main/src/LBToken.sol\":8716:9034  function _setApprovalForAll(... */\n      pop\n      pop\n      pop\n      jump\t// out\n        /* \"Midas/joe-v2-main/src/LBToken.sol\":10300:10441  function _beforeTokenTransfer(... */\n    tag_137:\n      pop\n      pop\n      pop\n      pop\n      jump\t// out\n        /* \"#utility.yul\":88:205   */\n    tag_145:\n        /* \"#utility.yul\":197:198   */\n      0x00\n        /* \"#utility.yul\":194:195   */\n      dup1\n        /* \"#utility.yul\":187:199   */\n      revert\n        /* \"#utility.yul\":211:328   */\n    tag_146:\n        /* \"#utility.yul\":320:321   */\n      0x00\n        /* \"#utility.yul\":317:318   */\n      dup1\n        /* \"#utility.yul\":310:322   */\n      revert\n        /* \"#utility.yul\":334:460   */\n    tag_147:\n        /* \"#utility.yul\":371:378   */\n      0x00\n        /* \"#utility.yul\":411:453   */\n      0xffffffffffffffffffffffffffffffffffffffff\n        /* \"#utility.yul\":404:409   */\n      dup3\n        /* \"#utility.yul\":400:454   */\n      and\n        /* \"#utility.yul\":389:454   */\n      swap1\n      pop\n        /* \"#utility.yul\":334:460   */\n      swap2\n      swap1\n      pop\n      jump\t// out\n        /* \"#utility.yul\":466:562   */\n    tag_148:\n        /* \"#utility.yul\":503:510   */\n      0x00\n        /* \"#utility.yul\":532:556   */\n      tag_189\n        /* \"#utility.yul\":550:555   */\n      dup3\n        /* \"#utility.yul\":532:556   */\n      tag_147\n      jump\t// in\n    tag_189:\n        /* \"#utility.yul\":521:556   */\n      swap1\n      pop\n        /* \"#utility.yul\":466:562   */\n      swap2\n      swap1\n      pop\n      jump\t// out\n        /* \"#utility.yul\":568:690   */\n    tag_149:\n        /* \"#utility.yul\":641:665   */\n      tag_191\n        /* \"#utility.yul\":659:664   */\n      dup2\n        /* \"#utility.yul\":641:665   */\n      tag_148\n      jump\t// in\n    tag_191:\n        /* \"#utility.yul\":634:639   */\n      dup2\n        /* \"#utility.yul\":631:666   */\n      eq\n        /* \"#utility.yul\":621:684   */\n      tag_192\n      jumpi\n        /* \"#utility.yul\":680:681   */\n      0x00\n        /* \"#utility.yul\":677:678   */\n      dup1\n        /* \"#utility.yul\":670:682   */\n      revert\n        /* \"#utility.yul\":621:684   */\n    tag_192:\n        /* \"#utility.yul\":568:690   */\n      pop\n      jump\t// out\n        /* \"#utility.yul\":696:835   */\n    tag_150:\n        /* \"#utility.yul\":742:747   */\n      0x00\n        /* \"#utility.yul\":780:786   */\n      dup2\n        /* \"#utility.yul\":767:787   */\n      calldataload\n        /* \"#utility.yul\":758:787   */\n      swap1\n      pop\n        /* \"#utility.yul\":796:829   */\n      tag_194\n        /* \"#utility.yul\":823:828   */\n      dup2\n        /* \"#utility.yul\":796:829   */\n      tag_149\n      jump\t// in\n    tag_194:\n        /* \"#utility.yul\":696:835   */\n      swap3\n      swap2\n      pop\n      pop\n      jump\t// out\n        /* \"#utility.yul\":841:918   */\n    tag_151:\n        /* \"#utility.yul\":878:885   */\n      0x00\n        /* \"#utility.yul\":907:912   */\n      dup2\n        /* \"#utility.yul\":896:912   */\n      swap1\n      pop\n        /* \"#utility.yul\":841:918   */\n      swap2\n      swap1\n      pop\n      jump\t// out\n        /* \"#utility.yul\":924:1046   */\n    tag_152:\n        /* \"#utility.yul\":997:1021   */\n      tag_197\n        /* \"#utility.yul\":1015:1020   */\n      dup2\n        /* \"#utility.yul\":997:1021   */\n      tag_151\n      jump\t// in\n    tag_197:\n        /* \"#utility.yul\":990:995   */\n      dup2\n        /* \"#utility.yul\":987:1022   */\n      eq\n        /* \"#utility.yul\":977:1040   */\n      tag_198\n      jumpi\n        /* \"#utility.yul\":1036:1037   */\n      0x00\n        /* \"#utility.yul\":1033:1034   */\n      dup1\n        /* \"#utility.yul\":1026:1038   */\n      revert\n        /* \"#utility.yul\":977:1040   */\n    tag_198:\n        /* \"#utility.yul\":924:1046   */\n      pop\n      jump\t// out\n        /* \"#utility.yul\":1052:1191   */\n    tag_153:\n        /* \"#utility.yul\":1098:1103   */\n      0x00\n        /* \"#utility.yul\":1136:1142   */\n      dup2\n        /* \"#utility.yul\":1123:1143   */\n      calldataload\n        /* \"#utility.yul\":1114:1143   */\n      swap1\n      pop\n        /* \"#utility.yul\":1152:1185   */\n      tag_200\n        /* \"#utility.yul\":1179:1184   */\n      dup2\n        /* \"#utility.yul\":1152:1185   */\n      tag_152\n      jump\t// in\n    tag_200:\n        /* \"#utility.yul\":1052:1191   */\n      swap3\n      swap2\n      pop\n      pop\n      jump\t// out\n        /* \"#utility.yul\":1197:1671   */\n    tag_16:\n        /* \"#utility.yul\":1265:1271   */\n      0x00\n        /* \"#utility.yul\":1273:1279   */\n      dup1\n        /* \"#utility.yul\":1322:1324   */\n      0x40\n        /* \"#utility.yul\":1310:1319   */\n      dup4\n        /* \"#utility.yul\":1301:1308   */\n      dup6\n        /* \"#utility.yul\":1297:1320   */\n      sub\n        /* \"#utility.yul\":1293:1325   */\n      slt\n        /* \"#utility.yul\":1290:1409   */\n      iszero\n      tag_202\n      jumpi\n        /* \"#utility.yul\":1328:1407   */\n      tag_203\n      tag_145\n      jump\t// in\n    tag_203:\n        /* \"#utility.yul\":1290:1409   */\n    tag_202:\n        /* \"#utility.yul\":1448:1449   */\n      0x00\n        /* \"#utility.yul\":1473:1526   */\n      tag_204\n        /* \"#utility.yul\":1518:1525   */\n      dup6\n        /* \"#utility.yul\":1509:1515   */\n      dup3\n        /* \"#utility.yul\":1498:1507   */\n      dup7\n        /* \"#utility.yul\":1494:1516   */\n      add\n        /* \"#utility.yul\":1473:1526   */\n      tag_150\n      jump\t// in\n    tag_204:\n        /* \"#utility.yul\":1463:1526   */\n      swap3\n      pop\n        /* \"#utility.yul\":1419:1536   */\n      pop\n        /* \"#utility.yul\":1575:1577   */\n      0x20\n        /* \"#utility.yul\":1601:1654   */\n      tag_205\n        /* \"#utility.yul\":1646:1653   */\n      dup6\n        /* \"#utility.yul\":1637:1643   */\n      dup3\n        /* \"#utility.yul\":1626:1635   */\n      dup7\n        /* \"#utility.yul\":1622:1644   */\n      add\n        /* \"#utility.yul\":1601:1654   */\n      tag_153\n      jump\t// in\n    tag_205:\n        /* \"#utility.yul\":1591:1654   */\n      swap2\n      pop\n        /* \"#utility.yul\":1546:1664   */\n      pop\n        /* \"#utility.yul\":1197:1671   */\n      swap3\n      pop\n      swap3\n      swap1\n      pop\n      jump\t// out\n        /* \"#utility.yul\":1677:1795   */\n    tag_154:\n        /* \"#utility.yul\":1764:1788   */\n      tag_207\n        /* \"#utility.yul\":1782:1787   */\n      dup2\n        /* \"#utility.yul\":1764:1788   */\n      tag_151\n      jump\t// in\n    tag_207:\n        /* \"#utility.yul\":1759:1762   */\n      dup3\n        /* \"#utility.yul\":1752:1789   */\n      mstore\n        /* \"#utility.yul\":1677:1795   */\n      pop\n      pop\n      jump\t// out\n        /* \"#utility.yul\":1801:2023   */\n    tag_19:\n        /* \"#utility.yul\":1894:1898   */\n      0x00\n        /* \"#utility.yul\":1932:1934   */\n      0x20\n        /* \"#utility.yul\":1921:1930   */\n      dup3\n        /* \"#utility.yul\":1917:1935   */\n      add\n        /* \"#utility.yul\":1909:1935   */\n      swap1\n      pop\n        /* \"#utility.yul\":1945:2016   */\n      tag_209\n        /* \"#utility.yul\":2013:2014   */\n      0x00\n        /* \"#utility.yul\":2002:2011   */\n      dup4\n        /* \"#utility.yul\":1998:2015   */\n      add\n        /* \"#utility.yul\":1989:1995   */\n      dup5\n        /* \"#utility.yul\":1945:2016   */\n      tag_154\n      jump\t// in\n    tag_209:\n        /* \"#utility.yul\":1801:2023   */\n      swap3\n      swap2\n      pop\n      pop\n      jump\t// out\n        /* \"#utility.yul\":2029:2178   */\n    tag_155:\n        /* \"#utility.yul\":2065:2072   */\n      0x00\n        /* \"#utility.yul\":2105:2171   */\n      0xffffffff00000000000000000000000000000000000000000000000000000000\n        /* \"#utility.yul\":2098:2103   */\n      dup3\n        /* \"#utility.yul\":2094:2172   */\n      and\n        /* \"#utility.yul\":2083:2172   */\n      swap1\n      pop\n        /* \"#utility.yul\":2029:2178   */\n      swap2\n      swap1\n      pop\n      jump\t// out\n        /* \"#utility.yul\":2184:2304   */\n    tag_156:\n        /* \"#utility.yul\":2256:2279   */\n      tag_212\n        /* \"#utility.yul\":2273:2278   */\n      dup2\n        /* \"#utility.yul\":2256:2279   */\n      tag_155\n      jump\t// in\n    tag_212:\n        /* \"#utility.yul\":2249:2254   */\n      dup2\n        /* \"#utility.yul\":2246:2280   */\n      eq\n        /* \"#utility.yul\":2236:2298   */\n      tag_213\n      jumpi\n        /* \"#utility.yul\":2294:2295   */\n      0x00\n        /* \"#utility.yul\":2291:2292   */\n      dup1\n        /* \"#utility.yul\":2284:2296   */\n      revert\n        /* \"#utility.yul\":2236:2298   */\n    tag_213:\n        /* \"#utility.yul\":2184:2304   */\n      pop\n      jump\t// out\n        /* \"#utility.yul\":2310:2447   */\n    tag_157:\n        /* \"#utility.yul\":2355:2360   */\n      0x00\n        /* \"#utility.yul\":2393:2399   */\n      dup2\n        /* \"#utility.yul\":2380:2400   */\n      calldataload\n        /* \"#utility.yul\":2371:2400   */\n      swap1\n      pop\n        /* \"#utility.yul\":2409:2441   */\n      tag_215\n        /* \"#utility.yul\":2435:2440   */\n      dup2\n        /* \"#utility.yul\":2409:2441   */\n      tag_156\n      jump\t// in\n    tag_215:\n        /* \"#utility.yul\":2310:2447   */\n      swap3\n      swap2\n      pop\n      pop\n      jump\t// out\n        /* \"#utility.yul\":2453:2780   */\n    tag_22:\n        /* \"#utility.yul\":2511:2517   */\n      0x00\n        /* \"#utility.yul\":2560:2562   */\n      0x20\n        /* \"#utility.yul\":2548:2557   */\n      dup3\n        /* \"#utility.yul\":2539:2546   */\n      dup5\n        /* \"#utility.yul\":2535:2558   */\n      sub\n        /* \"#utility.yul\":2531:2563   */\n      slt\n        /* \"#utility.yul\":2528:2647   */\n      iszero\n      tag_217\n      jumpi\n        /* \"#utility.yul\":2566:2645   */\n      tag_218\n      tag_145\n      jump\t// in\n    tag_218:\n        /* \"#utility.yul\":2528:2647   */\n    tag_217:\n        /* \"#utility.yul\":2686:2687   */\n      0x00\n        /* \"#utility.yul\":2711:2763   */\n      tag_219\n        /* \"#utility.yul\":2755:2762   */\n      dup5\n        /* \"#utility.yul\":2746:2752   */\n      dup3\n        /* \"#utility.yul\":2735:2744   */\n      dup6\n        /* \"#utility.yul\":2731:2753   */\n      add\n        /* \"#utility.yul\":2711:2763   */\n      tag_157\n      jump\t// in\n    tag_219:\n        /* \"#utility.yul\":2701:2763   */\n      swap2\n      pop\n        /* \"#utility.yul\":2657:2773   */\n      pop\n        /* \"#utility.yul\":2453:2780   */\n      swap3\n      swap2\n      pop\n      pop\n      jump\t// out\n        /* \"#utility.yul\":2786:2876   */\n    tag_158:\n        /* \"#utility.yul\":2820:2827   */\n      0x00\n        /* \"#utility.yul\":2863:2868   */\n      dup2\n        /* \"#utility.yul\":2856:2869   */\n      iszero\n        /* \"#utility.yul\":2849:2870   */\n      iszero\n        /* \"#utility.yul\":2838:2870   */\n      swap1\n      pop\n        /* \"#utility.yul\":2786:2876   */\n      swap2\n      swap1\n      pop\n      jump\t// out\n        /* \"#utility.yul\":2882:2991   */\n    tag_159:\n        /* \"#utility.yul\":2963:2984   */\n      tag_222\n        /* \"#utility.yul\":2978:2983   */\n      dup2\n        /* \"#utility.yul\":2963:2984   */\n      tag_158\n      jump\t// in\n    tag_222:\n        /* \"#utility.yul\":2958:2961   */\n      dup3\n        /* \"#utility.yul\":2951:2985   */\n      mstore\n        /* \"#utility.yul\":2882:2991   */\n      pop\n      pop\n      jump\t// out\n        /* \"#utility.yul\":2997:3207   */\n    tag_25:\n        /* \"#utility.yul\":3084:3088   */\n      0x00\n        /* \"#utility.yul\":3122:3124   */\n      0x20\n        /* \"#utility.yul\":3111:3120   */\n      dup3\n        /* \"#utility.yul\":3107:3125   */\n      add\n        /* \"#utility.yul\":3099:3125   */\n      swap1\n      pop\n        /* \"#utility.yul\":3135:3200   */\n      tag_224\n        /* \"#utility.yul\":3197:3198   */\n      0x00\n        /* \"#utility.yul\":3186:3195   */\n      dup4\n        /* \"#utility.yul\":3182:3199   */\n      add\n        /* \"#utility.yul\":3173:3179   */\n      dup5\n        /* \"#utility.yul\":3135:3200   */\n      tag_159\n      jump\t// in\n    tag_224:\n        /* \"#utility.yul\":2997:3207   */\n      swap3\n      swap2\n      pop\n      pop\n      jump\t// out\n        /* \"#utility.yul\":3213:3312   */\n    tag_160:\n        /* \"#utility.yul\":3265:3271   */\n      0x00\n        /* \"#utility.yul\":3299:3304   */\n      dup2\n        /* \"#utility.yul\":3293:3305   */\n      mload\n        /* \"#utility.yul\":3283:3305   */\n      swap1\n      pop\n        /* \"#utility.yul\":3213:3312   */\n      swap2\n      swap1\n      pop\n      jump\t// out\n        /* \"#utility.yul\":3318:3487   */\n    tag_161:\n        /* \"#utility.yul\":3402:3413   */\n      0x00\n        /* \"#utility.yul\":3436:3442   */\n      dup3\n        /* \"#utility.yul\":3431:3434   */\n      dup3\n        /* \"#utility.yul\":3424:3443   */\n      mstore\n        /* \"#utility.yul\":3476:3480   */\n      0x20\n        /* \"#utility.yul\":3471:3474   */\n      dup3\n        /* \"#utility.yul\":3467:3481   */\n      add\n        /* \"#utility.yul\":3452:3481   */\n      swap1\n      pop\n        /* \"#utility.yul\":3318:3487   */\n      swap3\n      swap2\n      pop\n      pop\n      jump\t// out\n        /* \"#utility.yul\":3493:3800   */\n    tag_162:\n        /* \"#utility.yul\":3561:3562   */\n      0x00\n        /* \"#utility.yul\":3571:3684   */\n    tag_228:\n        /* \"#utility.yul\":3585:3591   */\n      dup4\n        /* \"#utility.yul\":3582:3583   */\n      dup2\n        /* \"#utility.yul\":3579:3592   */\n      lt\n        /* \"#utility.yul\":3571:3684   */\n      iszero\n      tag_230\n      jumpi\n        /* \"#utility.yul\":3670:3671   */\n      dup1\n        /* \"#utility.yul\":3665:3668   */\n      dup3\n        /* \"#utility.yul\":3661:3672   */\n      add\n        /* \"#utility.yul\":3655:3673   */\n      mload\n        /* \"#utility.yul\":3651:3652   */\n      dup2\n        /* \"#utility.yul\":3646:3649   */\n      dup5\n        /* \"#utility.yul\":3642:3653   */\n      add\n        /* \"#utility.yul\":3635:3674   */\n      mstore\n        /* \"#utility.yul\":3607:3609   */\n      0x20\n        /* \"#utility.yul\":3604:3605   */\n      dup2\n        /* \"#utility.yul\":3600:3610   */\n      add\n        /* \"#utility.yul\":3595:3610   */\n      swap1\n      pop\n        /* \"#utility.yul\":3571:3684   */\n      jump(tag_228)\n    tag_230:\n        /* \"#utility.yul\":3702:3708   */\n      dup4\n        /* \"#utility.yul\":3699:3700   */\n      dup2\n        /* \"#utility.yul\":3696:3709   */\n      gt\n        /* \"#utility.yul\":3693:3794   */\n      iszero\n      tag_231\n      jumpi\n        /* \"#utility.yul\":3782:3783   */\n      0x00\n        /* \"#utility.yul\":3773:3779   */\n      dup5\n        /* \"#utility.yul\":3768:3771   */\n      dup5\n        /* \"#utility.yul\":3764:3780   */\n      add\n        /* \"#utility.yul\":3757:3784   */\n      mstore\n        /* \"#utility.yul\":3693:3794   */\n    tag_231:\n        /* \"#utility.yul\":3542:3800   */\n      pop\n        /* \"#utility.yul\":3493:3800   */\n      pop\n      pop\n      pop\n      jump\t// out\n        /* \"#utility.yul\":3806:3908   */\n    tag_163:\n        /* \"#utility.yul\":3847:3853   */\n      0x00\n        /* \"#utility.yul\":3898:3900   */\n      0x1f\n        /* \"#utility.yul\":3894:3901   */\n      not\n        /* \"#utility.yul\":3889:3891   */\n      0x1f\n        /* \"#utility.yul\":3882:3887   */\n      dup4\n        /* \"#utility.yul\":3878:3892   */\n      add\n        /* \"#utility.yul\":3874:3902   */\n      and\n        /* \"#utility.yul\":3864:3902   */\n      swap1\n      pop\n        /* \"#utility.yul\":3806:3908   */\n      swap2\n      swap1\n      pop\n      jump\t// out\n        /* \"#utility.yul\":3914:4278   */\n    tag_164:\n        /* \"#utility.yul\":4002:4005   */\n      0x00\n        /* \"#utility.yul\":4030:4069   */\n      tag_234\n        /* \"#utility.yul\":4063:4068   */\n      dup3\n        /* \"#utility.yul\":4030:4069   */\n      tag_160\n      jump\t// in\n    tag_234:\n        /* \"#utility.yul\":4085:4156   */\n      tag_235\n        /* \"#utility.yul\":4149:4155   */\n      dup2\n        /* \"#utility.yul\":4144:4147   */\n      dup6\n        /* \"#utility.yul\":4085:4156   */\n      tag_161\n      jump\t// in\n    tag_235:\n        /* \"#utility.yul\":4078:4156   */\n      swap4\n      pop\n        /* \"#utility.yul\":4165:4217   */\n      tag_236\n        /* \"#utility.yul\":4210:4216   */\n      dup2\n        /* \"#utility.yul\":4205:4208   */\n      dup6\n        /* \"#utility.yul\":4198:4202   */\n      0x20\n        /* \"#utility.yul\":4191:4196   */\n      dup7\n        /* \"#utility.yul\":4187:4203   */\n      add\n        /* \"#utility.yul\":4165:4217   */\n      tag_162\n      jump\t// in\n    tag_236:\n        /* \"#utility.yul\":4242:4271   */\n      tag_237\n        /* \"#utility.yul\":4264:4270   */\n      dup2\n        /* \"#utility.yul\":4242:4271   */\n      tag_163\n      jump\t// in\n    tag_237:\n        /* \"#utility.yul\":4237:4240   */\n      dup5\n        /* \"#utility.yul\":4233:4272   */\n      add\n        /* \"#utility.yul\":4226:4272   */\n      swap2\n      pop\n        /* \"#utility.yul\":4006:4278   */\n      pop\n        /* \"#utility.yul\":3914:4278   */\n      swap3\n      swap2\n      pop\n      pop\n      jump\t// out\n        /* \"#utility.yul\":4284:4597   */\n    tag_29:\n        /* \"#utility.yul\":4397:4401   */\n      0x00\n        /* \"#utility.yul\":4435:4437   */\n      0x20\n        /* \"#utility.yul\":4424:4433   */\n      dup3\n        /* \"#utility.yul\":4420:4438   */\n      add\n        /* \"#utility.yul\":4412:4438   */\n      swap1\n      pop\n        /* \"#utility.yul\":4484:4493   */\n      dup2\n        /* \"#utility.yul\":4478:4482   */\n      dup2\n        /* \"#utility.yul\":4474:4494   */\n      sub\n        /* \"#utility.yul\":4470:4471   */\n      0x00\n        /* \"#utility.yul\":4459:4468   */\n      dup4\n        /* \"#utility.yul\":4455:4472   */\n      add\n        /* \"#utility.yul\":4448:4495   */\n      mstore\n        /* \"#utility.yul\":4512:4590   */\n      tag_239\n        /* \"#utility.yul\":4585:4589   */\n      dup2\n        /* \"#utility.yul\":4576:4582   */\n      dup5\n        /* \"#utility.yul\":4512:4590   */\n      tag_164\n      jump\t// in\n    tag_239:\n        /* \"#utility.yul\":4504:4590   */\n      swap1\n      pop\n        /* \"#utility.yul\":4284:4597   */\n      swap3\n      swap2\n      pop\n      pop\n      jump\t// out\n        /* \"#utility.yul\":4603:5368   */\n    tag_32:\n        /* \"#utility.yul\":4689:4695   */\n      0x00\n        /* \"#utility.yul\":4697:4703   */\n      dup1\n        /* \"#utility.yul\":4705:4711   */\n      0x00\n        /* \"#utility.yul\":4713:4719   */\n      dup1\n        /* \"#utility.yul\":4762:4765   */\n      0x80\n        /* \"#utility.yul\":4750:4759   */\n      dup6\n        /* \"#utility.yul\":4741:4748   */\n      dup8\n        /* \"#utility.yul\":4737:4760   */\n      sub\n        /* \"#utility.yul\":4733:4766   */\n      slt\n        /* \"#utility.yul\":4730:4850   */\n      iszero\n      tag_241\n      jumpi\n        /* \"#utility.yul\":4769:4848   */\n      tag_242\n      tag_145\n      jump\t// in\n    tag_242:\n        /* \"#utility.yul\":4730:4850   */\n    tag_241:\n        /* \"#utility.yul\":4889:4890   */\n      0x00\n        /* \"#utility.yul\":4914:4967   */\n      tag_243\n        /* \"#utility.yul\":4959:4966   */\n      dup8\n        /* \"#utility.yul\":4950:4956   */\n      dup3\n        /* \"#utility.yul\":4939:4948   */\n      dup9\n        /* \"#utility.yul\":4935:4957   */\n      add\n        /* \"#utility.yul\":4914:4967   */\n      tag_150\n      jump\t// in\n    tag_243:\n        /* \"#utility.yul\":4904:4967   */\n      swap5\n      pop\n        /* \"#utility.yul\":4860:4977   */\n      pop\n        /* \"#utility.yul\":5016:5018   */\n      0x20\n        /* \"#utility.yul\":5042:5095   */\n      tag_244\n        /* \"#utility.yul\":5087:5094   */\n      dup8\n        /* \"#utility.yul\":5078:5084   */\n      dup3\n        /* \"#utility.yul\":5067:5076   */\n      dup9\n        /* \"#utility.yul\":5063:5085   */\n      add\n        /* \"#utility.yul\":5042:5095   */\n      tag_150\n      jump\t// in\n    tag_244:\n        /* \"#utility.yul\":5032:5095   */\n      swap4\n      pop\n        /* \"#utility.yul\":4987:5105   */\n      pop\n        /* \"#utility.yul\":5144:5146   */\n      0x40\n        /* \"#utility.yul\":5170:5223   */\n      tag_245\n        /* \"#utility.yul\":5215:5222   */\n      dup8\n        /* \"#utility.yul\":5206:5212   */\n      dup3\n        /* \"#utility.yul\":5195:5204   */\n      dup9\n        /* \"#utility.yul\":5191:5213   */\n      add\n        /* \"#utility.yul\":5170:5223   */\n      tag_153\n      jump\t// in\n    tag_245:\n        /* \"#utility.yul\":5160:5223   */\n      swap3\n      pop\n        /* \"#utility.yul\":5115:5233   */\n      pop\n        /* \"#utility.yul\":5272:5274   */\n      0x60\n        /* \"#utility.yul\":5298:5351   */\n      tag_246\n        /* \"#utility.yul\":5343:5350   */\n      dup8\n        /* \"#utility.yul\":5334:5340   */\n      dup3\n        /* \"#utility.yul\":5323:5332   */\n      dup9\n        /* \"#utility.yul\":5319:5341   */\n      add\n        /* \"#utility.yul\":5298:5351   */\n      tag_153\n      jump\t// in\n    tag_246:\n        /* \"#utility.yul\":5288:5351   */\n      swap2\n      pop\n        /* \"#utility.yul\":5243:5361   */\n      pop\n        /* \"#utility.yul\":4603:5368   */\n      swap3\n      swap6\n      swap2\n      swap5\n      pop\n      swap3\n      pop\n      jump\t// out\n        /* \"#utility.yul\":5374:5491   */\n    tag_165:\n        /* \"#utility.yul\":5483:5484   */\n      0x00\n        /* \"#utility.yul\":5480:5481   */\n      dup1\n        /* \"#utility.yul\":5473:5485   */\n      revert\n        /* \"#utility.yul\":5497:5614   */\n    tag_166:\n        /* \"#utility.yul\":5606:5607   */\n      0x00\n        /* \"#utility.yul\":5603:5604   */\n      dup1\n        /* \"#utility.yul\":5596:5608   */\n      revert\n        /* \"#utility.yul\":5620:5737   */\n    tag_167:\n        /* \"#utility.yul\":5729:5730   */\n      0x00\n        /* \"#utility.yul\":5726:5727   */\n      dup1\n        /* \"#utility.yul\":5719:5731   */\n      revert\n        /* \"#utility.yul\":5760:6328   */\n    tag_168:\n        /* \"#utility.yul\":5833:5841   */\n      0x00\n        /* \"#utility.yul\":5843:5849   */\n      dup1\n        /* \"#utility.yul\":5893:5896   */\n      dup4\n        /* \"#utility.yul\":5886:5890   */\n      0x1f\n        /* \"#utility.yul\":5878:5884   */\n      dup5\n        /* \"#utility.yul\":5874:5891   */\n      add\n        /* \"#utility.yul\":5870:5897   */\n      slt\n        /* \"#utility.yul\":5860:5982   */\n      tag_251\n      jumpi\n        /* \"#utility.yul\":5901:5980   */\n      tag_252\n      tag_165\n      jump\t// in\n    tag_252:\n        /* \"#utility.yul\":5860:5982   */\n    tag_251:\n        /* \"#utility.yul\":6014:6020   */\n      dup3\n        /* \"#utility.yul\":6001:6021   */\n      calldataload\n        /* \"#utility.yul\":5991:6021   */\n      swap1\n      pop\n        /* \"#utility.yul\":6044:6062   */\n      0xffffffffffffffff\n        /* \"#utility.yul\":6036:6042   */\n      dup2\n        /* \"#utility.yul\":6033:6063   */\n      gt\n        /* \"#utility.yul\":6030:6147   */\n      iszero\n      tag_253\n      jumpi\n        /* \"#utility.yul\":6066:6145   */\n      tag_254\n      tag_166\n      jump\t// in\n    tag_254:\n        /* \"#utility.yul\":6030:6147   */\n    tag_253:\n        /* \"#utility.yul\":6180:6184   */\n      0x20\n        /* \"#utility.yul\":6172:6178   */\n      dup4\n        /* \"#utility.yul\":6168:6185   */\n      add\n        /* \"#utility.yul\":6156:6185   */\n      swap2\n      pop\n        /* \"#utility.yul\":6234:6237   */\n      dup4\n        /* \"#utility.yul\":6226:6230   */\n      0x20\n        /* \"#utility.yul\":6218:6224   */\n      dup3\n        /* \"#utility.yul\":6214:6231   */\n      mul\n        /* \"#utility.yul\":6204:6212   */\n      dup4\n        /* \"#utility.yul\":6200:6232   */\n      add\n        /* \"#utility.yul\":6197:6238   */\n      gt\n        /* \"#utility.yul\":6194:6322   */\n      iszero\n      tag_255\n      jumpi\n        /* \"#utility.yul\":6241:6320   */\n      tag_256\n      tag_167\n      jump\t// in\n    tag_256:\n        /* \"#utility.yul\":6194:6322   */\n    tag_255:\n        /* \"#utility.yul\":5760:6328   */\n      swap3\n      pop\n      swap3\n      swap1\n      pop\n      jump\t// out\n        /* \"#utility.yul\":6351:6919   */\n    tag_169:\n        /* \"#utility.yul\":6424:6432   */\n      0x00\n        /* \"#utility.yul\":6434:6440   */\n      dup1\n        /* \"#utility.yul\":6484:6487   */\n      dup4\n        /* \"#utility.yul\":6477:6481   */\n      0x1f\n        /* \"#utility.yul\":6469:6475   */\n      dup5\n        /* \"#utility.yul\":6465:6482   */\n      add\n        /* \"#utility.yul\":6461:6488   */\n      slt\n        /* \"#utility.yul\":6451:6573   */\n      tag_258\n      jumpi\n        /* \"#utility.yul\":6492:6571   */\n      tag_259\n      tag_165\n      jump\t// in\n    tag_259:\n        /* \"#utility.yul\":6451:6573   */\n    tag_258:\n        /* \"#utility.yul\":6605:6611   */\n      dup3\n        /* \"#utility.yul\":6592:6612   */\n      calldataload\n        /* \"#utility.yul\":6582:6612   */\n      swap1\n      pop\n        /* \"#utility.yul\":6635:6653   */\n      0xffffffffffffffff\n        /* \"#utility.yul\":6627:6633   */\n      dup2\n        /* \"#utility.yul\":6624:6654   */\n      gt\n        /* \"#utility.yul\":6621:6738   */\n      iszero\n      tag_260\n      jumpi\n        /* \"#utility.yul\":6657:6736   */\n      tag_261\n      tag_166\n      jump\t// in\n    tag_261:\n        /* \"#utility.yul\":6621:6738   */\n    tag_260:\n        /* \"#utility.yul\":6771:6775   */\n      0x20\n        /* \"#utility.yul\":6763:6769   */\n      dup4\n        /* \"#utility.yul\":6759:6776   */\n      add\n        /* \"#utility.yul\":6747:6776   */\n      swap2\n      pop\n        /* \"#utility.yul\":6825:6828   */\n      dup4\n        /* \"#utility.yul\":6817:6821   */\n      0x20\n        /* \"#utility.yul\":6809:6815   */\n      dup3\n        /* \"#utility.yul\":6805:6822   */\n      mul\n        /* \"#utility.yul\":6795:6803   */\n      dup4\n        /* \"#utility.yul\":6791:6823   */\n      add\n        /* \"#utility.yul\":6788:6829   */\n      gt\n        /* \"#utility.yul\":6785:6913   */\n      iszero\n      tag_262\n      jumpi\n        /* \"#utility.yul\":6832:6911   */\n      tag_263\n      tag_167\n      jump\t// in\n    tag_263:\n        /* \"#utility.yul\":6785:6913   */\n    tag_262:\n        /* \"#utility.yul\":6351:6919   */\n      swap3\n      pop\n      swap3\n      swap1\n      pop\n      jump\t// out\n        /* \"#utility.yul\":6925:7859   */\n    tag_36:\n        /* \"#utility.yul\":7047:7053   */\n      0x00\n        /* \"#utility.yul\":7055:7061   */\n      dup1\n        /* \"#utility.yul\":7063:7069   */\n      0x00\n        /* \"#utility.yul\":7071:7077   */\n      dup1\n        /* \"#utility.yul\":7120:7122   */\n      0x40\n        /* \"#utility.yul\":7108:7117   */\n      dup6\n        /* \"#utility.yul\":7099:7106   */\n      dup8\n        /* \"#utility.yul\":7095:7118   */\n      sub\n        /* \"#utility.yul\":7091:7123   */\n      slt\n        /* \"#utility.yul\":7088:7207   */\n      iszero\n      tag_265\n      jumpi\n        /* \"#utility.yul\":7126:7205   */\n      tag_266\n      tag_145\n      jump\t// in\n    tag_266:\n        /* \"#utility.yul\":7088:7207   */\n    tag_265:\n        /* \"#utility.yul\":7274:7275   */\n      0x00\n        /* \"#utility.yul\":7263:7272   */\n      dup6\n        /* \"#utility.yul\":7259:7276   */\n      add\n        /* \"#utility.yul\":7246:7277   */\n      calldataload\n        /* \"#utility.yul\":7304:7322   */\n      0xffffffffffffffff\n        /* \"#utility.yul\":7296:7302   */\n      dup2\n        /* \"#utility.yul\":7293:7323   */\n      gt\n        /* \"#utility.yul\":7290:7407   */\n      iszero\n      tag_267\n      jumpi\n        /* \"#utility.yul\":7326:7405   */\n      tag_268\n      tag_146\n      jump\t// in\n    tag_268:\n        /* \"#utility.yul\":7290:7407   */\n    tag_267:\n        /* \"#utility.yul\":7439:7519   */\n      tag_269\n        /* \"#utility.yul\":7511:7518   */\n      dup8\n        /* \"#utility.yul\":7502:7508   */\n      dup3\n        /* \"#utility.yul\":7491:7500   */\n      dup9\n        /* \"#utility.yul\":7487:7509   */\n      add\n        /* \"#utility.yul\":7439:7519   */\n      tag_168\n      jump\t// in\n    tag_269:\n        /* \"#utility.yul\":7421:7519   */\n      swap5\n      pop\n      swap5\n      pop\n        /* \"#utility.yul\":7217:7529   */\n      pop\n        /* \"#utility.yul\":7596:7598   */\n      0x20\n        /* \"#utility.yul\":7585:7594   */\n      dup6\n        /* \"#utility.yul\":7581:7599   */\n      add\n        /* \"#utility.yul\":7568:7600   */\n      calldataload\n        /* \"#utility.yul\":7627:7645   */\n      0xffffffffffffffff\n        /* \"#utility.yul\":7619:7625   */\n      dup2\n        /* \"#utility.yul\":7616:7646   */\n      gt\n        /* \"#utility.yul\":7613:7730   */\n      iszero\n      tag_270\n      jumpi\n        /* \"#utility.yul\":7649:7728   */\n      tag_271\n      tag_146\n      jump\t// in\n    tag_271:\n        /* \"#utility.yul\":7613:7730   */\n    tag_270:\n        /* \"#utility.yul\":7762:7842   */\n      tag_272\n        /* \"#utility.yul\":7834:7841   */\n      dup8\n        /* \"#utility.yul\":7825:7831   */\n      dup3\n        /* \"#utility.yul\":7814:7823   */\n      dup9\n        /* \"#utility.yul\":7810:7832   */\n      add\n        /* \"#utility.yul\":7762:7842   */\n      tag_169\n      jump\t// in\n    tag_272:\n        /* \"#utility.yul\":7744:7842   */\n      swap3\n      pop\n      swap3\n      pop\n        /* \"#utility.yul\":7539:7852   */\n      pop\n        /* \"#utility.yul\":6925:7859   */\n      swap3\n      swap6\n      swap2\n      swap5\n      pop\n      swap3\n      pop\n      jump\t// out\n        /* \"#utility.yul\":7865:7979   */\n    tag_170:\n        /* \"#utility.yul\":7932:7938   */\n      0x00\n        /* \"#utility.yul\":7966:7971   */\n      dup2\n        /* \"#utility.yul\":7960:7972   */\n      mload\n        /* \"#utility.yul\":7950:7972   */\n      swap1\n      pop\n        /* \"#utility.yul\":7865:7979   */\n      swap2\n      swap1\n      pop\n      jump\t// out\n        /* \"#utility.yul\":7985:8169   */\n    tag_171:\n        /* \"#utility.yul\":8084:8095   */\n      0x00\n        /* \"#utility.yul\":8118:8124   */\n      dup3\n        /* \"#utility.yul\":8113:8116   */\n      dup3\n        /* \"#utility.yul\":8106:8125   */\n      mstore\n        /* \"#utility.yul\":8158:8162   */\n      0x20\n        /* \"#utility.yul\":8153:8156   */\n      dup3\n        /* \"#utility.yul\":8149:8163   */\n      add\n        /* \"#utility.yul\":8134:8163   */\n      swap1\n      pop\n        /* \"#utility.yul\":7985:8169   */\n      swap3\n      swap2\n      pop\n      pop\n      jump\t// out\n        /* \"#utility.yul\":8175:8307   */\n    tag_172:\n        /* \"#utility.yul\":8242:8246   */\n      0x00\n        /* \"#utility.yul\":8265:8268   */\n      dup2\n        /* \"#utility.yul\":8257:8268   */\n      swap1\n      pop\n        /* \"#utility.yul\":8295:8299   */\n      0x20\n        /* \"#utility.yul\":8290:8293   */\n      dup3\n        /* \"#utility.yul\":8286:8300   */\n      add\n        /* \"#utility.yul\":8278:8300   */\n      swap1\n      pop\n        /* \"#utility.yul\":8175:8307   */\n      swap2\n      swap1\n      pop\n      jump\t// out\n        /* \"#utility.yul\":8313:8421   */\n    tag_173:\n        /* \"#utility.yul\":8390:8414   */\n      tag_277\n        /* \"#utility.yul\":8408:8413   */\n      dup2\n        /* \"#utility.yul\":8390:8414   */\n      tag_151\n      jump\t// in\n    tag_277:\n        /* \"#utility.yul\":8385:8388   */\n      dup3\n        /* \"#utility.yul\":8378:8415   */\n      mstore\n        /* \"#utility.yul\":8313:8421   */\n      pop\n      pop\n      jump\t// out\n        /* \"#utility.yul\":8427:8606   */\n    tag_174:\n        /* \"#utility.yul\":8496:8506   */\n      0x00\n        /* \"#utility.yul\":8517:8563   */\n      tag_279\n        /* \"#utility.yul\":8559:8562   */\n      dup4\n        /* \"#utility.yul\":8551:8557   */\n      dup4\n        /* \"#utility.yul\":8517:8563   */\n      tag_173\n      jump\t// in\n    tag_279:\n        /* \"#utility.yul\":8595:8599   */\n      0x20\n        /* \"#utility.yul\":8590:8593   */\n      dup4\n        /* \"#utility.yul\":8586:8600   */\n      add\n        /* \"#utility.yul\":8572:8600   */\n      swap1\n      pop\n        /* \"#utility.yul\":8427:8606   */\n      swap3\n      swap2\n      pop\n      pop\n      jump\t// out\n        /* \"#utility.yul\":8612:8725   */\n    tag_175:\n        /* \"#utility.yul\":8682:8686   */\n      0x00\n        /* \"#utility.yul\":8714:8718   */\n      0x20\n        /* \"#utility.yul\":8709:8712   */\n      dup3\n        /* \"#utility.yul\":8705:8719   */\n      add\n        /* \"#utility.yul\":8697:8719   */\n      swap1\n      pop\n        /* \"#utility.yul\":8612:8725   */\n      swap2\n      swap1\n      pop\n      jump\t// out\n        /* \"#utility.yul\":8761:9493   */\n    tag_176:\n        /* \"#utility.yul\":8880:8883   */\n      0x00\n        /* \"#utility.yul\":8909:8963   */\n      tag_282\n        /* \"#utility.yul\":8957:8962   */\n      dup3\n        /* \"#utility.yul\":8909:8963   */\n      tag_170\n      jump\t// in\n    tag_282:\n        /* \"#utility.yul\":8979:9065   */\n      tag_283\n        /* \"#utility.yul\":9058:9064   */\n      dup2\n        /* \"#utility.yul\":9053:9056   */\n      dup6\n        /* \"#utility.yul\":8979:9065   */\n      tag_171\n      jump\t// in\n    tag_283:\n        /* \"#utility.yul\":8972:9065   */\n      swap4\n      pop\n        /* \"#utility.yul\":9089:9145   */\n      tag_284\n        /* \"#utility.yul\":9139:9144   */\n      dup4\n        /* \"#utility.yul\":9089:9145   */\n      tag_172\n      jump\t// in\n    tag_284:\n        /* \"#utility.yul\":9168:9175   */\n      dup1\n        /* \"#utility.yul\":9199:9200   */\n      0x00\n        /* \"#utility.yul\":9184:9468   */\n    tag_285:\n        /* \"#utility.yul\":9209:9215   */\n      dup4\n        /* \"#utility.yul\":9206:9207   */\n      dup2\n        /* \"#utility.yul\":9203:9216   */\n      lt\n        /* \"#utility.yul\":9184:9468   */\n      iszero\n      tag_287\n      jumpi\n        /* \"#utility.yul\":9285:9291   */\n      dup2\n        /* \"#utility.yul\":9279:9292   */\n      mload\n        /* \"#utility.yul\":9312:9375   */\n      tag_288\n        /* \"#utility.yul\":9371:9374   */\n      dup9\n        /* \"#utility.yul\":9356:9369   */\n      dup3\n        /* \"#utility.yul\":9312:9375   */\n      tag_174\n      jump\t// in\n    tag_288:\n        /* \"#utility.yul\":9305:9375   */\n      swap8\n      pop\n        /* \"#utility.yul\":9398:9458   */\n      tag_289\n        /* \"#utility.yul\":9451:9457   */\n      dup4\n        /* \"#utility.yul\":9398:9458   */\n      tag_175\n      jump\t// in\n    tag_289:\n        /* \"#utility.yul\":9388:9458   */\n      swap3\n      pop\n        /* \"#utility.yul\":9244:9468   */\n      pop\n        /* \"#utility.yul\":9231:9232   */\n      0x01\n        /* \"#utility.yul\":9228:9229   */\n      dup2\n        /* \"#utility.yul\":9224:9233   */\n      add\n        /* \"#utility.yul\":9219:9233   */\n      swap1\n      pop\n        /* \"#utility.yul\":9184:9468   */\n      jump(tag_285)\n    tag_287:\n        /* \"#utility.yul\":9188:9202   */\n      pop\n        /* \"#utility.yul\":9484:9487   */\n      dup6\n        /* \"#utility.yul\":9477:9487   */\n      swap4\n      pop\n        /* \"#utility.yul\":8885:9493   */\n      pop\n      pop\n      pop\n        /* \"#utility.yul\":8761:9493   */\n      swap3\n      swap2\n      pop\n      pop\n      jump\t// out\n        /* \"#utility.yul\":9499:9872   */\n    tag_39:\n        /* \"#utility.yul\":9642:9646   */\n      0x00\n        /* \"#utility.yul\":9680:9682   */\n      0x20\n        /* \"#utility.yul\":9669:9678   */\n      dup3\n        /* \"#utility.yul\":9665:9683   */\n      add\n        /* \"#utility.yul\":9657:9683   */\n      swap1\n      pop\n        /* \"#utility.yul\":9729:9738   */\n      dup2\n        /* \"#utility.yul\":9723:9727   */\n      dup2\n        /* \"#utility.yul\":9719:9739   */\n      sub\n        /* \"#utility.yul\":9715:9716   */\n      0x00\n        /* \"#utility.yul\":9704:9713   */\n      dup4\n        /* \"#utility.yul\":9700:9717   */\n      add\n        /* \"#utility.yul\":9693:9740   */\n      mstore\n        /* \"#utility.yul\":9757:9865   */\n      tag_291\n        /* \"#utility.yul\":9860:9864   */\n      dup2\n        /* \"#utility.yul\":9851:9857   */\n      dup5\n        /* \"#utility.yul\":9757:9865   */\n      tag_176\n      jump\t// in\n    tag_291:\n        /* \"#utility.yul\":9749:9865   */\n      swap1\n      pop\n        /* \"#utility.yul\":9499:9872   */\n      swap3\n      swap2\n      pop\n      pop\n      jump\t// out\n        /* \"#utility.yul\":9878:9994   */\n    tag_177:\n        /* \"#utility.yul\":9948:9969   */\n      tag_293\n        /* \"#utility.yul\":9963:9968   */\n      dup2\n        /* \"#utility.yul\":9948:9969   */\n      tag_158\n      jump\t// in\n    tag_293:\n        /* \"#utility.yul\":9941:9946   */\n      dup2\n        /* \"#utility.yul\":9938:9970   */\n      eq\n        /* \"#utility.yul\":9928:9988   */\n      tag_294\n      jumpi\n        /* \"#utility.yul\":9984:9985   */\n      0x00\n        /* \"#utility.yul\":9981:9982   */\n      dup1\n        /* \"#utility.yul\":9974:9986   */\n      revert\n        /* \"#utility.yul\":9928:9988   */\n    tag_294:\n        /* \"#utility.yul\":9878:9994   */\n      pop\n      jump\t// out\n        /* \"#utility.yul\":10000:10133   */\n    tag_178:\n        /* \"#utility.yul\":10043:10048   */\n      0x00\n        /* \"#utility.yul\":10081:10087   */\n      dup2\n        /* \"#utility.yul\":10068:10088   */\n      calldataload\n        /* \"#utility.yul\":10059:10088   */\n      swap1\n      pop\n        /* \"#utility.yul\":10097:10127   */\n      tag_296\n        /* \"#utility.yul\":10121:10126   */\n      dup2\n        /* \"#utility.yul\":10097:10127   */\n      tag_177\n      jump\t// in\n    tag_296:\n        /* \"#utility.yul\":10000:10133   */\n      swap3\n      swap2\n      pop\n      pop\n      jump\t// out\n        /* \"#utility.yul\":10139:10607   */\n    tag_45:\n        /* \"#utility.yul\":10204:10210   */\n      0x00\n        /* \"#utility.yul\":10212:10218   */\n      dup1\n        /* \"#utility.yul\":10261:10263   */\n      0x40\n        /* \"#utility.yul\":10249:10258   */\n      dup4\n        /* \"#utility.yul\":10240:10247   */\n      dup6\n        /* \"#utility.yul\":10236:10259   */\n      sub\n        /* \"#utility.yul\":10232:10264   */\n      slt\n        /* \"#utility.yul\":10229:10348   */\n      iszero\n      tag_298\n      jumpi\n        /* \"#utility.yul\":10267:10346   */\n      tag_299\n      tag_145\n      jump\t// in\n    tag_299:\n        /* \"#utility.yul\":10229:10348   */\n    tag_298:\n        /* \"#utility.yul\":10387:10388   */\n      0x00\n        /* \"#utility.yul\":10412:10465   */\n      tag_300\n        /* \"#utility.yul\":10457:10464   */\n      dup6\n        /* \"#utility.yul\":10448:10454   */\n      dup3\n        /* \"#utility.yul\":10437:10446   */\n      dup7\n        /* \"#utility.yul\":10433:10455   */\n      add\n        /* \"#utility.yul\":10412:10465   */\n      tag_150\n      jump\t// in\n    tag_300:\n        /* \"#utility.yul\":10402:10465   */\n      swap3\n      pop\n        /* \"#utility.yul\":10358:10475   */\n      pop\n        /* \"#utility.yul\":10514:10516   */\n      0x20\n        /* \"#utility.yul\":10540:10590   */\n      tag_301\n        /* \"#utility.yul\":10582:10589   */\n      dup6\n        /* \"#utility.yul\":10573:10579   */\n      dup3\n        /* \"#utility.yul\":10562:10571   */\n      dup7\n        /* \"#utility.yul\":10558:10580   */\n      add\n        /* \"#utility.yul\":10540:10590   */\n      tag_178\n      jump\t// in\n    tag_301:\n        /* \"#utility.yul\":10530:10590   */\n      swap2\n      pop\n        /* \"#utility.yul\":10485:10600   */\n      pop\n        /* \"#utility.yul\":10139:10607   */\n      swap3\n      pop\n      swap3\n      swap1\n      pop\n      jump\t// out\n        /* \"#utility.yul\":10613:10942   */\n    tag_49:\n        /* \"#utility.yul\":10672:10678   */\n      0x00\n        /* \"#utility.yul\":10721:10723   */\n      0x20\n        /* \"#utility.yul\":10709:10718   */\n      dup3\n        /* \"#utility.yul\":10700:10707   */\n      dup5\n        /* \"#utility.yul\":10696:10719   */\n      sub\n        /* \"#utility.yul\":10692:10724   */\n      slt\n        /* \"#utility.yul\":10689:10808   */\n      iszero\n      tag_303\n      jumpi\n        /* \"#utility.yul\":10727:10806   */\n      tag_304\n      tag_145\n      jump\t// in\n    tag_304:\n        /* \"#utility.yul\":10689:10808   */\n    tag_303:\n        /* \"#utility.yul\":10847:10848   */\n      0x00\n        /* \"#utility.yul\":10872:10925   */\n      tag_305\n        /* \"#utility.yul\":10917:10924   */\n      dup5\n        /* \"#utility.yul\":10908:10914   */\n      dup3\n        /* \"#utility.yul\":10897:10906   */\n      dup6\n        /* \"#utility.yul\":10893:10915   */\n      add\n        /* \"#utility.yul\":10872:10925   */\n      tag_153\n      jump\t// in\n    tag_305:\n        /* \"#utility.yul\":10862:10925   */\n      swap2\n      pop\n        /* \"#utility.yul\":10818:10935   */\n      pop\n        /* \"#utility.yul\":10613:10942   */\n      swap3\n      swap2\n      pop\n      pop\n      jump\t// out\n        /* \"#utility.yul\":10948:11422   */\n    tag_54:\n        /* \"#utility.yul\":11016:11022   */\n      0x00\n        /* \"#utility.yul\":11024:11030   */\n      dup1\n        /* \"#utility.yul\":11073:11075   */\n      0x40\n        /* \"#utility.yul\":11061:11070   */\n      dup4\n        /* \"#utility.yul\":11052:11059   */\n      dup6\n        /* \"#utility.yul\":11048:11071   */\n      sub\n        /* \"#utility.yul\":11044:11076   */\n      slt\n        /* \"#utility.yul\":11041:11160   */\n      iszero\n      tag_307\n      jumpi\n        /* \"#utility.yul\":11079:11158   */\n      tag_308\n      tag_145\n      jump\t// in\n    tag_308:\n        /* \"#utility.yul\":11041:11160   */\n    tag_307:\n        /* \"#utility.yul\":11199:11200   */\n      0x00\n        /* \"#utility.yul\":11224:11277   */\n      tag_309\n        /* \"#utility.yul\":11269:11276   */\n      dup6\n        /* \"#utility.yul\":11260:11266   */\n      dup3\n        /* \"#utility.yul\":11249:11258   */\n      dup7\n        /* \"#utility.yul\":11245:11267   */\n      add\n        /* \"#utility.yul\":11224:11277   */\n      tag_150\n      jump\t// in\n    tag_309:\n        /* \"#utility.yul\":11214:11277   */\n      swap3\n      pop\n        /* \"#utility.yul\":11170:11287   */\n      pop\n        /* \"#utility.yul\":11326:11328   */\n      0x20\n        /* \"#utility.yul\":11352:11405   */\n      tag_310\n        /* \"#utility.yul\":11397:11404   */\n      dup6\n        /* \"#utility.yul\":11388:11394   */\n      dup3\n        /* \"#utility.yul\":11377:11386   */\n      dup7\n        /* \"#utility.yul\":11373:11395   */\n      add\n        /* \"#utility.yul\":11352:11405   */\n      tag_150\n      jump\t// in\n    tag_310:\n        /* \"#utility.yul\":11342:11405   */\n      swap2\n      pop\n        /* \"#utility.yul\":11297:11415   */\n      pop\n        /* \"#utility.yul\":10948:11422   */\n      swap3\n      pop\n      swap3\n      swap1\n      pop\n      jump\t// out\n        /* \"#utility.yul\":11428:12653   */\n    tag_59:\n        /* \"#utility.yul\":11568:11574   */\n      0x00\n        /* \"#utility.yul\":11576:11582   */\n      dup1\n        /* \"#utility.yul\":11584:11590   */\n      0x00\n        /* \"#utility.yul\":11592:11598   */\n      dup1\n        /* \"#utility.yul\":11600:11606   */\n      0x00\n        /* \"#utility.yul\":11608:11614   */\n      dup1\n        /* \"#utility.yul\":11657:11660   */\n      0x80\n        /* \"#utility.yul\":11645:11654   */\n      dup8\n        /* \"#utility.yul\":11636:11643   */\n      dup10\n        /* \"#utility.yul\":11632:11655   */\n      sub\n        /* \"#utility.yul\":11628:11661   */\n      slt\n        /* \"#utility.yul\":11625:11745   */\n      iszero\n      tag_312\n      jumpi\n        /* \"#utility.yul\":11664:11743   */\n      tag_313\n      tag_145\n      jump\t// in\n    tag_313:\n        /* \"#utility.yul\":11625:11745   */\n    tag_312:\n        /* \"#utility.yul\":11784:11785   */\n      0x00\n        /* \"#utility.yul\":11809:11862   */\n      tag_314\n        /* \"#utility.yul\":11854:11861   */\n      dup10\n        /* \"#utility.yul\":11845:11851   */\n      dup3\n        /* \"#utility.yul\":11834:11843   */\n      dup11\n        /* \"#utility.yul\":11830:11852   */\n      add\n        /* \"#utility.yul\":11809:11862   */\n      tag_150\n      jump\t// in\n    tag_314:\n        /* \"#utility.yul\":11799:11862   */\n      swap7\n      pop\n        /* \"#utility.yul\":11755:11872   */\n      pop\n        /* \"#utility.yul\":11911:11913   */\n      0x20\n        /* \"#utility.yul\":11937:11990   */\n      tag_315\n        /* \"#utility.yul\":11982:11989   */\n      dup10\n        /* \"#utility.yul\":11973:11979   */\n      dup3\n        /* \"#utility.yul\":11962:11971   */\n      dup11\n        /* \"#utility.yul\":11958:11980   */\n      add\n        /* \"#utility.yul\":11937:11990   */\n      tag_150\n      jump\t// in\n    tag_315:\n        /* \"#utility.yul\":11927:11990   */\n      swap6\n      pop\n        /* \"#utility.yul\":11882:12000   */\n      pop\n        /* \"#utility.yul\":12067:12069   */\n      0x40\n        /* \"#utility.yul\":12056:12065   */\n      dup8\n        /* \"#utility.yul\":12052:12070   */\n      add\n        /* \"#utility.yul\":12039:12071   */\n      calldataload\n        /* \"#utility.yul\":12098:12116   */\n      0xffffffffffffffff\n        /* \"#utility.yul\":12090:12096   */\n      dup2\n        /* \"#utility.yul\":12087:12117   */\n      gt\n        /* \"#utility.yul\":12084:12201   */\n      iszero\n      tag_316\n      jumpi\n        /* \"#utility.yul\":12120:12199   */\n      tag_317\n      tag_146\n      jump\t// in\n    tag_317:\n        /* \"#utility.yul\":12084:12201   */\n    tag_316:\n        /* \"#utility.yul\":12233:12313   */\n      tag_318\n        /* \"#utility.yul\":12305:12312   */\n      dup10\n        /* \"#utility.yul\":12296:12302   */\n      dup3\n        /* \"#utility.yul\":12285:12294   */\n      dup11\n        /* \"#utility.yul\":12281:12303   */\n      add\n        /* \"#utility.yul\":12233:12313   */\n      tag_169\n      jump\t// in\n    tag_318:\n        /* \"#utility.yul\":12215:12313   */\n      swap5\n      pop\n      swap5\n      pop\n        /* \"#utility.yul\":12010:12323   */\n      pop\n        /* \"#utility.yul\":12390:12392   */\n      0x60\n        /* \"#utility.yul\":12379:12388   */\n      dup8\n        /* \"#utility.yul\":12375:12393   */\n      add\n        /* \"#utility.yul\":12362:12394   */\n      calldataload\n        /* \"#utility.yul\":12421:12439   */\n      0xffffffffffffffff\n        /* \"#utility.yul\":12413:12419   */\n      dup2\n        /* \"#utility.yul\":12410:12440   */\n      gt\n        /* \"#utility.yul\":12407:12524   */\n      iszero\n      tag_319\n      jumpi\n        /* \"#utility.yul\":12443:12522   */\n      tag_320\n      tag_146\n      jump\t// in\n    tag_320:\n        /* \"#utility.yul\":12407:12524   */\n    tag_319:\n        /* \"#utility.yul\":12556:12636   */\n      tag_321\n        /* \"#utility.yul\":12628:12635   */\n      dup10\n        /* \"#utility.yul\":12619:12625   */\n      dup3\n        /* \"#utility.yul\":12608:12617   */\n      dup11\n        /* \"#utility.yul\":12604:12626   */\n      add\n        /* \"#utility.yul\":12556:12636   */\n      tag_169\n      jump\t// in\n    tag_321:\n        /* \"#utility.yul\":12538:12636   */\n      swap3\n      pop\n      swap3\n      pop\n        /* \"#utility.yul\":12333:12646   */\n      pop\n        /* \"#utility.yul\":11428:12653   */\n      swap3\n      swap6\n      pop\n      swap3\n      swap6\n      pop\n      swap3\n      swap6\n      jump\t// out\n        /* \"#utility.yul\":12659:12777   */\n    tag_179:\n        /* \"#utility.yul\":12746:12770   */\n      tag_323\n        /* \"#utility.yul\":12764:12769   */\n      dup2\n        /* \"#utility.yul\":12746:12770   */\n      tag_148\n      jump\t// in\n    tag_323:\n        /* \"#utility.yul\":12741:12744   */\n      dup3\n        /* \"#utility.yul\":12734:12771   */\n      mstore\n        /* \"#utility.yul\":12659:12777   */\n      pop\n      pop\n      jump\t// out\n        /* \"#utility.yul\":12783:13115   */\n    tag_74:\n        /* \"#utility.yul\":12904:12908   */\n      0x00\n        /* \"#utility.yul\":12942:12944   */\n      0x40\n        /* \"#utility.yul\":12931:12940   */\n      dup3\n        /* \"#utility.yul\":12927:12945   */\n      add\n        /* \"#utility.yul\":12919:12945   */\n      swap1\n      pop\n        /* \"#utility.yul\":12955:13026   */\n      tag_325\n        /* \"#utility.yul\":13023:13024   */\n      0x00\n        /* \"#utility.yul\":13012:13021   */\n      dup4\n        /* \"#utility.yul\":13008:13025   */\n      add\n        /* \"#utility.yul\":12999:13005   */\n      dup6\n        /* \"#utility.yul\":12955:13026   */\n      tag_179\n      jump\t// in\n    tag_325:\n        /* \"#utility.yul\":13036:13108   */\n      tag_326\n        /* \"#utility.yul\":13104:13106   */\n      0x20\n        /* \"#utility.yul\":13093:13102   */\n      dup4\n        /* \"#utility.yul\":13089:13107   */\n      add\n        /* \"#utility.yul\":13080:13086   */\n      dup5\n        /* \"#utility.yul\":13036:13108   */\n      tag_179\n      jump\t// in\n    tag_326:\n        /* \"#utility.yul\":12783:13115   */\n      swap4\n      swap3\n      pop\n      pop\n      pop\n      jump\t// out\n        /* \"#utility.yul\":13121:13453   */\n    tag_79:\n        /* \"#utility.yul\":13242:13246   */\n      0x00\n        /* \"#utility.yul\":13280:13282   */\n      0x40\n        /* \"#utility.yul\":13269:13278   */\n      dup3\n        /* \"#utility.yul\":13265:13283   */\n      add\n        /* \"#utility.yul\":13257:13283   */\n      swap1\n      pop\n        /* \"#utility.yul\":13293:13364   */\n      tag_328\n        /* \"#utility.yul\":13361:13362   */\n      0x00\n        /* \"#utility.yul\":13350:13359   */\n      dup4\n        /* \"#utility.yul\":13346:13363   */\n      add\n        /* \"#utility.yul\":13337:13343   */\n      dup6\n        /* \"#utility.yul\":13293:13364   */\n      tag_154\n      jump\t// in\n    tag_328:\n        /* \"#utility.yul\":13374:13446   */\n      tag_329\n        /* \"#utility.yul\":13442:13444   */\n      0x20\n        /* \"#utility.yul\":13431:13440   */\n      dup4\n        /* \"#utility.yul\":13427:13445   */\n      add\n        /* \"#utility.yul\":13418:13424   */\n      dup5\n        /* \"#utility.yul\":13374:13446   */\n      tag_154\n      jump\t// in\n    tag_329:\n        /* \"#utility.yul\":13121:13453   */\n      swap4\n      swap3\n      pop\n      pop\n      pop\n      jump\t// out\n        /* \"#utility.yul\":13459:13639   */\n    tag_86:\n        /* \"#utility.yul\":13507:13584   */\n      0x4e487b7100000000000000000000000000000000000000000000000000000000\n        /* \"#utility.yul\":13504:13505   */\n      0x00\n        /* \"#utility.yul\":13497:13585   */\n      mstore\n        /* \"#utility.yul\":13604:13608   */\n      0x41\n        /* \"#utility.yul\":13601:13602   */\n      0x04\n        /* \"#utility.yul\":13594:13609   */\n      mstore\n        /* \"#utility.yul\":13628:13632   */\n      0x24\n        /* \"#utility.yul\":13625:13626   */\n      0x00\n        /* \"#utility.yul\":13618:13633   */\n      revert\n        /* \"#utility.yul\":13645:13825   */\n    tag_94:\n        /* \"#utility.yul\":13693:13770   */\n      0x4e487b7100000000000000000000000000000000000000000000000000000000\n        /* \"#utility.yul\":13690:13691   */\n      0x00\n        /* \"#utility.yul\":13683:13771   */\n      mstore\n        /* \"#utility.yul\":13790:13794   */\n      0x32\n        /* \"#utility.yul\":13787:13788   */\n      0x04\n        /* \"#utility.yul\":13780:13795   */\n      mstore\n        /* \"#utility.yul\":13814:13818   */\n      0x24\n        /* \"#utility.yul\":13811:13812   */\n      0x00\n        /* \"#utility.yul\":13804:13819   */\n      revert\n        /* \"#utility.yul\":13831:14160   */\n    tag_96:\n        /* \"#utility.yul\":13890:13896   */\n      0x00\n        /* \"#utility.yul\":13939:13941   */\n      0x20\n        /* \"#utility.yul\":13927:13936   */\n      dup3\n        /* \"#utility.yul\":13918:13925   */\n      dup5\n        /* \"#utility.yul\":13914:13937   */\n      sub\n        /* \"#utility.yul\":13910:13942   */\n      slt\n        /* \"#utility.yul\":13907:14026   */\n      iszero\n      tag_333\n      jumpi\n        /* \"#utility.yul\":13945:14024   */\n      tag_334\n      tag_145\n      jump\t// in\n    tag_334:\n        /* \"#utility.yul\":13907:14026   */\n    tag_333:\n        /* \"#utility.yul\":14065:14066   */\n      0x00\n        /* \"#utility.yul\":14090:14143   */\n      tag_335\n        /* \"#utility.yul\":14135:14142   */\n      dup5\n        /* \"#utility.yul\":14126:14132   */\n      dup3\n        /* \"#utility.yul\":14115:14124   */\n      dup6\n        /* \"#utility.yul\":14111:14133   */\n      add\n        /* \"#utility.yul\":14090:14143   */\n      tag_150\n      jump\t// in\n    tag_335:\n        /* \"#utility.yul\":14080:14143   */\n      swap2\n      pop\n        /* \"#utility.yul\":14036:14153   */\n      pop\n        /* \"#utility.yul\":13831:14160   */\n      swap3\n      swap2\n      pop\n      pop\n      jump\t// out\n        /* \"#utility.yul\":14166:14283   */\n    tag_180:\n        /* \"#utility.yul\":14275:14276   */\n      0x00\n        /* \"#utility.yul\":14272:14273   */\n      dup1\n        /* \"#utility.yul\":14265:14277   */\n      revert\n        /* \"#utility.yul\":14289:14443   */\n    tag_181:\n        /* \"#utility.yul\":14373:14379   */\n      dup3\n        /* \"#utility.yul\":14368:14371   */\n      dup2\n        /* \"#utility.yul\":14363:14366   */\n      dup4\n        /* \"#utility.yul\":14350:14380   */\n      calldatacopy\n        /* \"#utility.yul\":14435:14436   */\n      0x00\n        /* \"#utility.yul\":14426:14432   */\n      dup4\n        /* \"#utility.yul\":14421:14424   */\n      dup4\n        /* \"#utility.yul\":14417:14433   */\n      add\n        /* \"#utility.yul\":14410:14437   */\n      mstore\n        /* \"#utility.yul\":14289:14443   */\n      pop\n      pop\n      pop\n      jump\t// out\n        /* \"#utility.yul\":14479:15016   */\n    tag_182:\n        /* \"#utility.yul\":14607:14610   */\n      0x00\n        /* \"#utility.yul\":14628:14714   */\n      tag_339\n        /* \"#utility.yul\":14707:14713   */\n      dup4\n        /* \"#utility.yul\":14702:14705   */\n      dup6\n        /* \"#utility.yul\":14628:14714   */\n      tag_171\n      jump\t// in\n    tag_339:\n        /* \"#utility.yul\":14621:14714   */\n      swap4\n      pop\n        /* \"#utility.yul\":14738:14804   */\n      0x07ffffffffffffffffffffffffffffffffffffffffffffffffffffffffffffff\n        /* \"#utility.yul\":14730:14736   */\n      dup4\n        /* \"#utility.yul\":14727:14805   */\n      gt\n        /* \"#utility.yul\":14724:14889   */\n      iszero\n      tag_340\n      jumpi\n        /* \"#utility.yul\":14808:14887   */\n      tag_341\n      tag_180\n      jump\t// in\n    tag_341:\n        /* \"#utility.yul\":14724:14889   */\n    tag_340:\n        /* \"#utility.yul\":14920:14924   */\n      0x20\n        /* \"#utility.yul\":14912:14918   */\n      dup4\n        /* \"#utility.yul\":14908:14925   */\n      mul\n        /* \"#utility.yul\":14898:14925   */\n      swap3\n      pop\n        /* \"#utility.yul\":14935:14978   */\n      tag_342\n        /* \"#utility.yul\":14971:14977   */\n      dup4\n        /* \"#utility.yul\":14966:14969   */\n      dup6\n        /* \"#utility.yul\":14959:14964   */\n      dup5\n        /* \"#utility.yul\":14935:14978   */\n      tag_181\n      jump\t// in\n    tag_342:\n        /* \"#utility.yul\":15003:15009   */\n      dup3\n        /* \"#utility.yul\":14998:15001   */\n      dup5\n        /* \"#utility.yul\":14994:15010   */\n      add\n        /* \"#utility.yul\":14987:15010   */\n      swap1\n      pop\n        /* \"#utility.yul\":14479:15016   */\n      swap4\n      swap3\n      pop\n      pop\n      pop\n      jump\t// out\n        /* \"#utility.yul\":15022:15696   */\n    tag_129:\n        /* \"#utility.yul\":15263:15267   */\n      0x00\n        /* \"#utility.yul\":15301:15303   */\n      0x40\n        /* \"#utility.yul\":15290:15299   */\n      dup3\n        /* \"#utility.yul\":15286:15304   */\n      add\n        /* \"#utility.yul\":15278:15304   */\n      swap1\n      pop\n        /* \"#utility.yul\":15350:15359   */\n      dup2\n        /* \"#utility.yul\":15344:15348   */\n      dup2\n        /* \"#utility.yul\":15340:15360   */\n      sub\n        /* \"#utility.yul\":15336:15337   */\n      0x00\n        /* \"#utility.yul\":15325:15334   */\n      dup4\n        /* \"#utility.yul\":15321:15338   */\n      add\n        /* \"#utility.yul\":15314:15361   */\n      mstore\n        /* \"#utility.yul\":15378:15496   */\n      tag_344\n        /* \"#utility.yul\":15491:15495   */\n      dup2\n        /* \"#utility.yul\":15482:15488   */\n      dup7\n        /* \"#utility.yul\":15474:15480   */\n      dup9\n        /* \"#utility.yul\":15378:15496   */\n      tag_182\n      jump\t// in\n    tag_344:\n        /* \"#utility.yul\":15370:15496   */\n      swap1\n      pop\n        /* \"#utility.yul\":15543:15552   */\n      dup2\n        /* \"#utility.yul\":15537:15541   */\n      dup2\n        /* \"#utility.yul\":15533:15553   */\n      sub\n        /* \"#utility.yul\":15528:15530   */\n      0x20\n        /* \"#utility.yul\":15517:15526   */\n      dup4\n        /* \"#utility.yul\":15513:15531   */\n      add\n        /* \"#utility.yul\":15506:15554   */\n      mstore\n        /* \"#utility.yul\":15571:15689   */\n      tag_345\n        /* \"#utility.yul\":15684:15688   */\n      dup2\n        /* \"#utility.yul\":15675:15681   */\n      dup5\n        /* \"#utility.yul\":15667:15673   */\n      dup7\n        /* \"#utility.yul\":15571:15689   */\n      tag_182\n      jump\t// in\n    tag_345:\n        /* \"#utility.yul\":15563:15689   */\n      swap1\n      pop\n        /* \"#utility.yul\":15022:15696   */\n      swap6\n      swap5\n      pop\n      pop\n      pop\n      pop\n      pop\n      jump\t// out\n        /* \"#utility.yul\":15702:16144   */\n    tag_135:\n        /* \"#utility.yul\":15851:15855   */\n      0x00\n        /* \"#utility.yul\":15889:15891   */\n      0x60\n        /* \"#utility.yul\":15878:15887   */\n      dup3\n        /* \"#utility.yul\":15874:15892   */\n      add\n        /* \"#utility.yul\":15866:15892   */\n      swap1\n      pop\n        /* \"#utility.yul\":15902:15973   */\n      tag_347\n        /* \"#utility.yul\":15970:15971   */\n      0x00\n        /* \"#utility.yul\":15959:15968   */\n      dup4\n        /* \"#utility.yul\":15955:15972   */\n      add\n        /* \"#utility.yul\":15946:15952   */\n      dup7\n        /* \"#utility.yul\":15902:15973   */\n      tag_179\n      jump\t// in\n    tag_347:\n        /* \"#utility.yul\":15983:16055   */\n      tag_348\n        /* \"#utility.yul\":16051:16053   */\n      0x20\n        /* \"#utility.yul\":16040:16049   */\n      dup4\n        /* \"#utility.yul\":16036:16054   */\n      add\n        /* \"#utility.yul\":16027:16033   */\n      dup6\n        /* \"#utility.yul\":15983:16055   */\n      tag_154\n      jump\t// in\n    tag_348:\n        /* \"#utility.yul\":16065:16137   */\n      tag_349\n        /* \"#utility.yul\":16133:16135   */\n      0x40\n        /* \"#utility.yul\":16122:16131   */\n      dup4\n        /* \"#utility.yul\":16118:16136   */\n      add\n        /* \"#utility.yul\":16109:16115   */\n      dup5\n        /* \"#utility.yul\":16065:16137   */\n      tag_154\n      jump\t// in\n    tag_349:\n        /* \"#utility.yul\":15702:16144   */\n      swap5\n      swap4\n      pop\n      pop\n      pop\n      pop\n      jump\t// out\n        /* \"#utility.yul\":16150:16372   */\n    tag_141:\n        /* \"#utility.yul\":16243:16247   */\n      0x00\n        /* \"#utility.yul\":16281:16283   */\n      0x20\n        /* \"#utility.yul\":16270:16279   */\n      dup3\n        /* \"#utility.yul\":16266:16284   */\n      add\n        /* \"#utility.yul\":16258:16284   */\n      swap1\n      pop\n        /* \"#utility.yul\":16294:16365   */\n      tag_351\n        /* \"#utility.yul\":16362:16363   */\n      0x00\n        /* \"#utility.yul\":16351:16360   */\n      dup4\n        /* \"#utility.yul\":16347:16364   */\n      add\n        /* \"#utility.yul\":16338:16344   */\n      dup5\n        /* \"#utility.yul\":16294:16365   */\n      tag_179\n      jump\t// in\n    tag_351:\n        /* \"#utility.yul\":16150:16372   */\n      swap3\n      swap2\n      pop\n      pop\n      jump\t// out\n\n    auxdata: 0xa2646970667358221220a32a1a9eb4699186a9ed969cf7a68a9d10c1b01acffa0500b127c3095bb2998d64736f6c634300080a0033\n}\n",
				"bytecode": {
					"linkReferences": {},
					"object": "608060405234801561001057600080fd5b506115ef806100206000396000f3fe608060405234801561001057600080fd5b506004361061009d5760003560e01c806395d89b411161006657806395d89b411461016c578063a22cb4651461018a578063bd85b039146101a6578063e985e9c5146101d6578063fba0ee64146102065761009d565b8062fdd58e146100a257806301ffc9a7146100d257806306fdde03146101025780630febdd49146101205780634e1273f41461013c575b600080fd5b6100bc60048036038101906100b79190610ded565b610222565b6040516100c99190610e3c565b60405180910390f35b6100ec60048036038101906100e79190610eaf565b61027c565b6040516100f99190610ef7565b60405180910390f35b61010a61034e565b6040516101179190610fab565b60405180910390f35b61013a60048036038101906101359190610fcd565b61038b565b005b610156600480360381019061015191906110ef565b61057a565b604051610163919061122e565b60405180910390f35b6101746106a5565b6040516101819190610fab565b60405180910390f35b6101a4600480360381019061019f919061127c565b6106e2565b005b6101c060048036038101906101bb91906112bc565b6106f1565b6040516101cd9190610e3c565b60405180910390f35b6101f060048036038101906101eb91906112e9565b61070e565b6040516101fd9190610ef7565b60405180910390f35b610220600480360381019061021b9190611329565b610722565b005b600080600083815260200190815260200160002060008473ffffffffffffffffffffffffffffffffffffffff1673ffffffffffffffffffffffffffffffffffffffff16815260200190815260200160002054905092915050565b60007fdfad3d8c000000000000000000000000000000000000000000000000000000007bffffffffffffffffffffffffffffffffffffffffffffffffffffffff1916827bffffffffffffffffffffffffffffffffffffffffffffffffffffffff1916148061034757507f01ffc9a7000000000000000000000000000000000000000000000000000000007bffffffffffffffffffffffffffffffffffffffffffffffffffffffff1916827bffffffffffffffffffffffffffffffffffffffffffffffffffffffff1916145b9050919050565b60606040518060400160405280601481526020017f4c697175696469747920426f6f6b20546f6b656e000000000000000000000000815250905090565b8383600073ffffffffffffffffffffffffffffffffffffffff168273ffffffffffffffffffffffffffffffffffffffff1614806103f45750600073ffffffffffffffffffffffffffffffffffffffff168173ffffffffffffffffffffffffffffffffffffffff16145b1561042b576040517f41a4672000000000000000000000000000000000000000000000000000000000815260040160405180910390fd5b8073ffffffffffffffffffffffffffffffffffffffff168273ffffffffffffffffffffffffffffffffffffffff161415610491576040517f8696f16700000000000000000000000000000000000000000000000000000000815260040160405180910390fd5b853361049d82826109ad565b6104e05781816040517f548f773d0000000000000000000000000000000000000000000000000000000081526004016104d79291906113df565b60405180910390fd5b60003390506104f189898989610a77565b8773ffffffffffffffffffffffffffffffffffffffff168973ffffffffffffffffffffffffffffffffffffffff168273ffffffffffffffffffffffffffffffffffffffff167fc3d58168c5ae7397731d063d5bbf3d657854427343f4c083240f7aacaa2d0f628a8a604051610567929190611408565b60405180910390a4505050505050505050565b606084849050838390508082146105ca5781816040517f9c802a750000000000000000000000000000000000000000000000000000000081526004016105c1929190611408565b60405180910390fd5b8686905067ffffffffffffffff8111156105e7576105e6611431565b5b6040519080825280602002602001820160405280156106155781602001602082028036833780820191505090505b50925060005b8787905081101561069a5761067088888381811061063c5761063b611460565b5b9050602002016020810190610651919061148f565b87878481811061066457610663611460565b5b90506020020135610222565b84828151811061068357610682611460565b5b60200260200101818152505080600101905061061b565b505050949350505050565b60606040518060400160405280600381526020017f4c42540000000000000000000000000000000000000000000000000000000000815250905090565b6106ed338383610bda565b5050565b600060026000838152602001908152602001600020549050919050565b600061071a83836109ad565b905092915050565b83839050828290508082146107705781816040517f9c802a75000000000000000000000000000000000000000000000000000000008152600401610767929190611408565b60405180910390fd5b8787600073ffffffffffffffffffffffffffffffffffffffff168273ffffffffffffffffffffffffffffffffffffffff1614806107d95750600073ffffffffffffffffffffffffffffffffffffffff168173ffffffffffffffffffffffffffffffffffffffff16145b15610810576040517f41a4672000000000000000000000000000000000000000000000000000000000815260040160405180910390fd5b8073ffffffffffffffffffffffffffffffffffffffff168273ffffffffffffffffffffffffffffffffffffffff161415610876576040517f8696f16700000000000000000000000000000000000000000000000000000000815260040160405180910390fd5b893361088282826109ad565b6108c55781816040517f548f773d0000000000000000000000000000000000000000000000000000000081526004016108bc9291906113df565b60405180910390fd5b60005b8a8a905081101561091c576109118d8d8d8d858181106108eb576108ea611460565b5b905060200201358c8c8681811061090557610904611460565b5b90506020020135610a77565b8060010190506108c8565b508a73ffffffffffffffffffffffffffffffffffffffff168c73ffffffffffffffffffffffffffffffffffffffff163373ffffffffffffffffffffffffffffffffffffffff167f4a39dc06d4c0dbc64b70af90fd698a233a518aa5d07e595d983b8c0526c8f7fb8d8d8d8d604051610997949392919061152c565b60405180910390a4505050505050505050505050565b60008173ffffffffffffffffffffffffffffffffffffffff168373ffffffffffffffffffffffffffffffffffffffff161480610a6f5750600160008473ffffffffffffffffffffffffffffffffffffffff1673ffffffffffffffffffffffffffffffffffffffff16815260200190815260200160002060008373ffffffffffffffffffffffffffffffffffffffff1673ffffffffffffffffffffffffffffffffffffffff16815260200190815260200160002060009054906101000a900460ff165b905092915050565b600080600084815260200190815260200160002060008673ffffffffffffffffffffffffffffffffffffffff1673ffffffffffffffffffffffffffffffffffffffff16815260200190815260200160002054905081811015610b14578483836040517f58b4690f000000000000000000000000000000000000000000000000000000008152600401610b0b93929190611567565b60405180910390fd5b610b2085858585610d49565b81810360008085815260200190815260200160002060008773ffffffffffffffffffffffffffffffffffffffff1673ffffffffffffffffffffffffffffffffffffffff168152602001908152602001600020819055508160008085815260200190815260200160002060008673ffffffffffffffffffffffffffffffffffffffff1673ffffffffffffffffffffffffffffffffffffffff168152602001908152602001600020600082825401925050819055505050505050565b8173ffffffffffffffffffffffffffffffffffffffff168373ffffffffffffffffffffffffffffffffffffffff161415610c4b57826040517f782ee707000000000000000000000000000000000000000000000000000000008152600401610c42919061159e565b60405180910390fd5b80600160008573ffffffffffffffffffffffffffffffffffffffff1673ffffffffffffffffffffffffffffffffffffffff16815260200190815260200160002060008473ffffffffffffffffffffffffffffffffffffffff1673ffffffffffffffffffffffffffffffffffffffff16815260200190815260200160002060006101000a81548160ff0219169083151502179055508173ffffffffffffffffffffffffffffffffffffffff168373ffffffffffffffffffffffffffffffffffffffff167f17307eab39ab6107e8899845ad3d59bd9653f200f220920489ca2b5937696c3183604051610d3c9190610ef7565b60405180910390a3505050565b50505050565b600080fd5b600080fd5b600073ffffffffffffffffffffffffffffffffffffffff82169050919050565b6000610d8482610d59565b9050919050565b610d9481610d79565b8114610d9f57600080fd5b50565b600081359050610db181610d8b565b92915050565b6000819050919050565b610dca81610db7565b8114610dd557600080fd5b50565b600081359050610de781610dc1565b92915050565b60008060408385031215610e0457610e03610d4f565b5b6000610e1285828601610da2565b9250506020610e2385828601610dd8565b9150509250929050565b610e3681610db7565b82525050565b6000602082019050610e516000830184610e2d565b92915050565b60007fffffffff0000000000000000000000000000000000000000000000000000000082169050919050565b610e8c81610e57565b8114610e9757600080fd5b50565b600081359050610ea981610e83565b92915050565b600060208284031215610ec557610ec4610d4f565b5b6000610ed384828501610e9a565b91505092915050565b60008115159050919050565b610ef181610edc565b82525050565b6000602082019050610f0c6000830184610ee8565b92915050565b600081519050919050565b600082825260208201905092915050565b60005b83811015610f4c578082015181840152602081019050610f31565b83811115610f5b576000848401525b50505050565b6000601f19601f8301169050919050565b6000610f7d82610f12565b610f878185610f1d565b9350610f97818560208601610f2e565b610fa081610f61565b840191505092915050565b60006020820190508181036000830152610fc58184610f72565b905092915050565b60008060008060808587031215610fe757610fe6610d4f565b5b6000610ff587828801610da2565b945050602061100687828801610da2565b935050604061101787828801610dd8565b925050606061102887828801610dd8565b91505092959194509250565b600080fd5b600080fd5b600080fd5b60008083601f84011261105957611058611034565b5b8235905067ffffffffffffffff81111561107657611075611039565b5b6020830191508360208202830111156110925761109161103e565b5b9250929050565b60008083601f8401126110af576110ae611034565b5b8235905067ffffffffffffffff8111156110cc576110cb611039565b5b6020830191508360208202830111156110e8576110e761103e565b5b9250929050565b6000806000806040858703121561110957611108610d4f565b5b600085013567ffffffffffffffff81111561112757611126610d54565b5b61113387828801611043565b9450945050602085013567ffffffffffffffff81111561115657611155610d54565b5b61116287828801611099565b925092505092959194509250565b600081519050919050565b600082825260208201905092915050565b6000819050602082019050919050565b6111a581610db7565b82525050565b60006111b7838361119c565b60208301905092915050565b6000602082019050919050565b60006111db82611170565b6111e5818561117b565b93506111f08361118c565b8060005b8381101561122157815161120888826111ab565b9750611213836111c3565b9250506001810190506111f4565b5085935050505092915050565b6000602082019050818103600083015261124881846111d0565b905092915050565b61125981610edc565b811461126457600080fd5b50565b60008135905061127681611250565b92915050565b6000806040838503121561129357611292610d4f565b5b60006112a185828601610da2565b92505060206112b285828601611267565b9150509250929050565b6000602082840312156112d2576112d1610d4f565b5b60006112e084828501610dd8565b91505092915050565b60008060408385031215611300576112ff610d4f565b5b600061130e85828601610da2565b925050602061131f85828601610da2565b9150509250929050565b6000806000806000806080878903121561134657611345610d4f565b5b600061135489828a01610da2565b965050602061136589828a01610da2565b955050604087013567ffffffffffffffff81111561138657611385610d54565b5b61139289828a01611099565b9450945050606087013567ffffffffffffffff8111156113b5576113b4610d54565b5b6113c189828a01611099565b92509250509295509295509295565b6113d981610d79565b82525050565b60006040820190506113f460008301856113d0565b61140160208301846113d0565b9392505050565b600060408201905061141d6000830185610e2d565b61142a6020830184610e2d565b9392505050565b7f4e487b7100000000000000000000000000000000000000000000000000000000600052604160045260246000fd5b7f4e487b7100000000000000000000000000000000000000000000000000000000600052603260045260246000fd5b6000602082840312156114a5576114a4610d4f565b5b60006114b384828501610da2565b91505092915050565b600080fd5b82818337600083830152505050565b60006114dc838561117b565b93507f07ffffffffffffffffffffffffffffffffffffffffffffffffffffffffffffff83111561150f5761150e6114bc565b5b6020830292506115208385846114c1565b82840190509392505050565b600060408201905081810360008301526115478186886114d0565b9050818103602083015261155c8184866114d0565b905095945050505050565b600060608201905061157c60008301866113d0565b6115896020830185610e2d565b6115966040830184610e2d565b949350505050565b60006020820190506115b360008301846113d0565b9291505056fea2646970667358221220a32a1a9eb4699186a9ed969cf7a68a9d10c1b01acffa0500b127c3095bb2998d64736f6c634300080a0033",
					"opcodes": "PUSH1 0x80 PUSH1 0x40 MSTORE CALLVALUE DUP1 ISZERO PUSH2 0x10 JUMPI PUSH1 0x0 DUP1 REVERT JUMPDEST POP PUSH2 0x15EF DUP1 PUSH2 0x20 PUSH1 0x0 CODECOPY PUSH1 0x0 RETURN INVALID PUSH1 0x80 PUSH1 0x40 MSTORE CALLVALUE DUP1 ISZERO PUSH2 0x10 JUMPI PUSH1 0x0 DUP1 REVERT JUMPDEST POP PUSH1 0x4 CALLDATASIZE LT PUSH2 0x9D JUMPI PUSH1 0x0 CALLDATALOAD PUSH1 0xE0 SHR DUP1 PUSH4 0x95D89B41 GT PUSH2 0x66 JUMPI DUP1 PUSH4 0x95D89B41 EQ PUSH2 0x16C JUMPI DUP1 PUSH4 0xA22CB465 EQ PUSH2 0x18A JUMPI DUP1 PUSH4 0xBD85B039 EQ PUSH2 0x1A6 JUMPI DUP1 PUSH4 0xE985E9C5 EQ PUSH2 0x1D6 JUMPI DUP1 PUSH4 0xFBA0EE64 EQ PUSH2 0x206 JUMPI PUSH2 0x9D JUMP JUMPDEST DUP1 PUSH3 0xFDD58E EQ PUSH2 0xA2 JUMPI DUP1 PUSH4 0x1FFC9A7 EQ PUSH2 0xD2 JUMPI DUP1 PUSH4 0x6FDDE03 EQ PUSH2 0x102 JUMPI DUP1 PUSH4 0xFEBDD49 EQ PUSH2 0x120 JUMPI DUP1 PUSH4 0x4E1273F4 EQ PUSH2 0x13C JUMPI JUMPDEST PUSH1 0x0 DUP1 REVERT JUMPDEST PUSH2 0xBC PUSH1 0x4 DUP1 CALLDATASIZE SUB DUP2 ADD SWAP1 PUSH2 0xB7 SWAP2 SWAP1 PUSH2 0xDED JUMP JUMPDEST PUSH2 0x222 JUMP JUMPDEST PUSH1 0x40 MLOAD PUSH2 0xC9 SWAP2 SWAP1 PUSH2 0xE3C JUMP JUMPDEST PUSH1 0x40 MLOAD DUP1 SWAP2 SUB SWAP1 RETURN JUMPDEST PUSH2 0xEC PUSH1 0x4 DUP1 CALLDATASIZE SUB DUP2 ADD SWAP1 PUSH2 0xE7 SWAP2 SWAP1 PUSH2 0xEAF JUMP JUMPDEST PUSH2 0x27C JUMP JUMPDEST PUSH1 0x40 MLOAD PUSH2 0xF9 SWAP2 SWAP1 PUSH2 0xEF7 JUMP JUMPDEST PUSH1 0x40 MLOAD DUP1 SWAP2 SUB SWAP1 RETURN JUMPDEST PUSH2 0x10A PUSH2 0x34E JUMP JUMPDEST PUSH1 0x40 MLOAD PUSH2 0x117 SWAP2 SWAP1 PUSH2 0xFAB JUMP JUMPDEST PUSH1 0x40 MLOAD DUP1 SWAP2 SUB SWAP1 RETURN JUMPDEST PUSH2 0x13A PUSH1 0x4 DUP1 CALLDATASIZE SUB DUP2 ADD SWAP1 PUSH2 0x135 SWAP2 SWAP1 PUSH2 0xFCD JUMP JUMPDEST PUSH2 0x38B JUMP JUMPDEST STOP JUMPDEST PUSH2 0x156 PUSH1 0x4 DUP1 CALLDATASIZE SUB DUP2 ADD SWAP1 PUSH2 0x151 SWAP2 SWAP1 PUSH2 0x10EF JUMP JUMPDEST PUSH2 0x57A JUMP JUMPDEST PUSH1 0x40 MLOAD PUSH2 0x163 SWAP2 SWAP1 PUSH2 0x122E JUMP JUMPDEST PUSH1 0x40 MLOAD DUP1 SWAP2 SUB SWAP1 RETURN JUMPDEST PUSH2 0x174 PUSH2 0x6A5 JUMP JUMPDEST PUSH1 0x40 MLOAD PUSH2 0x181 SWAP2 SWAP1 PUSH2 0xFAB JUMP JUMPDEST PUSH1 0x40 MLOAD DUP1 SWAP2 SUB SWAP1 RETURN JUMPDEST PUSH2 0x1A4 PUSH1 0x4 DUP1 CALLDATASIZE SUB DUP2 ADD SWAP1 PUSH2 0x19F SWAP2 SWAP1 PUSH2 0x127C JUMP JUMPDEST PUSH2 0x6E2 JUMP JUMPDEST STOP JUMPDEST PUSH2 0x1C0 PUSH1 0x4 DUP1 CALLDATASIZE SUB DUP2 ADD SWAP1 PUSH2 0x1BB SWAP2 SWAP1 PUSH2 0x12BC JUMP JUMPDEST PUSH2 0x6F1 JUMP JUMPDEST PUSH1 0x40 MLOAD PUSH2 0x1CD SWAP2 SWAP1 PUSH2 0xE3C JUMP JUMPDEST PUSH1 0x40 MLOAD DUP1 SWAP2 SUB SWAP1 RETURN JUMPDEST PUSH2 0x1F0 PUSH1 0x4 DUP1 CALLDATASIZE SUB DUP2 ADD SWAP1 PUSH2 0x1EB SWAP2 SWAP1 PUSH2 0x12E9 JUMP JUMPDEST PUSH2 0x70E JUMP JUMPDEST PUSH1 0x40 MLOAD PUSH2 0x1FD SWAP2 SWAP1 PUSH2 0xEF7 JUMP JUMPDEST PUSH1 0x40 MLOAD DUP1 SWAP2 SUB SWAP1 RETURN JUMPDEST PUSH2 0x220 PUSH1 0x4 DUP1 CALLDATASIZE SUB DUP2 ADD SWAP1 PUSH2 0x21B SWAP2 SWAP1 PUSH2 0x1329 JUMP JUMPDEST PUSH2 0x722 JUMP JUMPDEST STOP JUMPDEST PUSH1 0x0 DUP1 PUSH1 0x0 DUP4 DUP2 MSTORE PUSH1 0x20 ADD SWAP1 DUP2 MSTORE PUSH1 0x20 ADD PUSH1 0x0 KECCAK256 PUSH1 0x0 DUP5 PUSH20 0xFFFFFFFFFFFFFFFFFFFFFFFFFFFFFFFFFFFFFFFF AND PUSH20 0xFFFFFFFFFFFFFFFFFFFFFFFFFFFFFFFFFFFFFFFF AND DUP2 MSTORE PUSH1 0x20 ADD SWAP1 DUP2 MSTORE PUSH1 0x20 ADD PUSH1 0x0 KECCAK256 SLOAD SWAP1 POP SWAP3 SWAP2 POP POP JUMP JUMPDEST PUSH1 0x0 PUSH32 0xDFAD3D8C00000000000000000000000000000000000000000000000000000000 PUSH28 0xFFFFFFFFFFFFFFFFFFFFFFFFFFFFFFFFFFFFFFFFFFFFFFFFFFFFFFFF NOT AND DUP3 PUSH28 0xFFFFFFFFFFFFFFFFFFFFFFFFFFFFFFFFFFFFFFFFFFFFFFFFFFFFFFFF NOT AND EQ DUP1 PUSH2 0x347 JUMPI POP PUSH32 0x1FFC9A700000000000000000000000000000000000000000000000000000000 PUSH28 0xFFFFFFFFFFFFFFFFFFFFFFFFFFFFFFFFFFFFFFFFFFFFFFFFFFFFFFFF NOT AND DUP3 PUSH28 0xFFFFFFFFFFFFFFFFFFFFFFFFFFFFFFFFFFFFFFFFFFFFFFFFFFFFFFFF NOT AND EQ JUMPDEST SWAP1 POP SWAP2 SWAP1 POP JUMP JUMPDEST PUSH1 0x60 PUSH1 0x40 MLOAD DUP1 PUSH1 0x40 ADD PUSH1 0x40 MSTORE DUP1 PUSH1 0x14 DUP2 MSTORE PUSH1 0x20 ADD PUSH32 0x4C697175696469747920426F6F6B20546F6B656E000000000000000000000000 DUP2 MSTORE POP SWAP1 POP SWAP1 JUMP JUMPDEST DUP4 DUP4 PUSH1 0x0 PUSH20 0xFFFFFFFFFFFFFFFFFFFFFFFFFFFFFFFFFFFFFFFF AND DUP3 PUSH20 0xFFFFFFFFFFFFFFFFFFFFFFFFFFFFFFFFFFFFFFFF AND EQ DUP1 PUSH2 0x3F4 JUMPI POP PUSH1 0x0 PUSH20 0xFFFFFFFFFFFFFFFFFFFFFFFFFFFFFFFFFFFFFFFF AND DUP2 PUSH20 0xFFFFFFFFFFFFFFFFFFFFFFFFFFFFFFFFFFFFFFFF AND EQ JUMPDEST ISZERO PUSH2 0x42B JUMPI PUSH1 0x40 MLOAD PUSH32 0x41A4672000000000000000000000000000000000000000000000000000000000 DUP2 MSTORE PUSH1 0x4 ADD PUSH1 0x40 MLOAD DUP1 SWAP2 SUB SWAP1 REVERT JUMPDEST DUP1 PUSH20 0xFFFFFFFFFFFFFFFFFFFFFFFFFFFFFFFFFFFFFFFF AND DUP3 PUSH20 0xFFFFFFFFFFFFFFFFFFFFFFFFFFFFFFFFFFFFFFFF AND EQ ISZERO PUSH2 0x491 JUMPI PUSH1 0x40 MLOAD PUSH32 0x8696F16700000000000000000000000000000000000000000000000000000000 DUP2 MSTORE PUSH1 0x4 ADD PUSH1 0x40 MLOAD DUP1 SWAP2 SUB SWAP1 REVERT JUMPDEST DUP6 CALLER PUSH2 0x49D DUP3 DUP3 PUSH2 0x9AD JUMP JUMPDEST PUSH2 0x4E0 JUMPI DUP2 DUP2 PUSH1 0x40 MLOAD PUSH32 0x548F773D00000000000000000000000000000000000000000000000000000000 DUP2 MSTORE PUSH1 0x4 ADD PUSH2 0x4D7 SWAP3 SWAP2 SWAP1 PUSH2 0x13DF JUMP JUMPDEST PUSH1 0x40 MLOAD DUP1 SWAP2 SUB SWAP1 REVERT JUMPDEST PUSH1 0x0 CALLER SWAP1 POP PUSH2 0x4F1 DUP10 DUP10 DUP10 DUP10 PUSH2 0xA77 JUMP JUMPDEST DUP8 PUSH20 0xFFFFFFFFFFFFFFFFFFFFFFFFFFFFFFFFFFFFFFFF AND DUP10 PUSH20 0xFFFFFFFFFFFFFFFFFFFFFFFFFFFFFFFFFFFFFFFF AND DUP3 PUSH20 0xFFFFFFFFFFFFFFFFFFFFFFFFFFFFFFFFFFFFFFFF AND PUSH32 0xC3D58168C5AE7397731D063D5BBF3D657854427343F4C083240F7AACAA2D0F62 DUP11 DUP11 PUSH1 0x40 MLOAD PUSH2 0x567 SWAP3 SWAP2 SWAP1 PUSH2 0x1408 JUMP JUMPDEST PUSH1 0x40 MLOAD DUP1 SWAP2 SUB SWAP1 LOG4 POP POP POP POP POP POP POP POP POP JUMP JUMPDEST PUSH1 0x60 DUP5 DUP5 SWAP1 POP DUP4 DUP4 SWAP1 POP DUP1 DUP3 EQ PUSH2 0x5CA JUMPI DUP2 DUP2 PUSH1 0x40 MLOAD PUSH32 0x9C802A7500000000000000000000000000000000000000000000000000000000 DUP2 MSTORE PUSH1 0x4 ADD PUSH2 0x5C1 SWAP3 SWAP2 SWAP1 PUSH2 0x1408 JUMP JUMPDEST PUSH1 0x40 MLOAD DUP1 SWAP2 SUB SWAP1 REVERT JUMPDEST DUP7 DUP7 SWAP1 POP PUSH8 0xFFFFFFFFFFFFFFFF DUP2 GT ISZERO PUSH2 0x5E7 JUMPI PUSH2 0x5E6 PUSH2 0x1431 JUMP JUMPDEST JUMPDEST PUSH1 0x40 MLOAD SWAP1 DUP1 DUP3 MSTORE DUP1 PUSH1 0x20 MUL PUSH1 0x20 ADD DUP3 ADD PUSH1 0x40 MSTORE DUP1 ISZERO PUSH2 0x615 JUMPI DUP2 PUSH1 0x20 ADD PUSH1 0x20 DUP3 MUL DUP1 CALLDATASIZE DUP4 CALLDATACOPY DUP1 DUP3 ADD SWAP2 POP POP SWAP1 POP JUMPDEST POP SWAP3 POP PUSH1 0x0 JUMPDEST DUP8 DUP8 SWAP1 POP DUP2 LT ISZERO PUSH2 0x69A JUMPI PUSH2 0x670 DUP9 DUP9 DUP4 DUP2 DUP2 LT PUSH2 0x63C JUMPI PUSH2 0x63B PUSH2 0x1460 JUMP JUMPDEST JUMPDEST SWAP1 POP PUSH1 0x20 MUL ADD PUSH1 0x20 DUP2 ADD SWAP1 PUSH2 0x651 SWAP2 SWAP1 PUSH2 0x148F JUMP JUMPDEST DUP8 DUP8 DUP5 DUP2 DUP2 LT PUSH2 0x664 JUMPI PUSH2 0x663 PUSH2 0x1460 JUMP JUMPDEST JUMPDEST SWAP1 POP PUSH1 0x20 MUL ADD CALLDATALOAD PUSH2 0x222 JUMP JUMPDEST DUP5 DUP3 DUP2 MLOAD DUP2 LT PUSH2 0x683 JUMPI PUSH2 0x682 PUSH2 0x1460 JUMP JUMPDEST JUMPDEST PUSH1 0x20 MUL PUSH1 0x20 ADD ADD DUP2 DUP2 MSTORE POP POP DUP1 PUSH1 0x1 ADD SWAP1 POP PUSH2 0x61B JUMP JUMPDEST POP POP POP SWAP5 SWAP4 POP POP POP POP JUMP JUMPDEST PUSH1 0x60 PUSH1 0x40 MLOAD DUP1 PUSH1 0x40 ADD PUSH1 0x40 MSTORE DUP1 PUSH1 0x3 DUP2 MSTORE PUSH1 0x20 ADD PUSH32 0x4C42540000000000000000000000000000000000000000000000000000000000 DUP2 MSTORE POP SWAP1 POP SWAP1 JUMP JUMPDEST PUSH2 0x6ED CALLER DUP4 DUP4 PUSH2 0xBDA JUMP JUMPDEST POP POP JUMP JUMPDEST PUSH1 0x0 PUSH1 0x2 PUSH1 0x0 DUP4 DUP2 MSTORE PUSH1 0x20 ADD SWAP1 DUP2 MSTORE PUSH1 0x20 ADD PUSH1 0x0 KECCAK256 SLOAD SWAP1 POP SWAP2 SWAP1 POP JUMP JUMPDEST PUSH1 0x0 PUSH2 0x71A DUP4 DUP4 PUSH2 0x9AD JUMP JUMPDEST SWAP1 POP SWAP3 SWAP2 POP POP JUMP JUMPDEST DUP4 DUP4 SWAP1 POP DUP3 DUP3 SWAP1 POP DUP1 DUP3 EQ PUSH2 0x770 JUMPI DUP2 DUP2 PUSH1 0x40 MLOAD PUSH32 0x9C802A7500000000000000000000000000000000000000000000000000000000 DUP2 MSTORE PUSH1 0x4 ADD PUSH2 0x767 SWAP3 SWAP2 SWAP1 PUSH2 0x1408 JUMP JUMPDEST PUSH1 0x40 MLOAD DUP1 SWAP2 SUB SWAP1 REVERT JUMPDEST DUP8 DUP8 PUSH1 0x0 PUSH20 0xFFFFFFFFFFFFFFFFFFFFFFFFFFFFFFFFFFFFFFFF AND DUP3 PUSH20 0xFFFFFFFFFFFFFFFFFFFFFFFFFFFFFFFFFFFFFFFF AND EQ DUP1 PUSH2 0x7D9 JUMPI POP PUSH1 0x0 PUSH20 0xFFFFFFFFFFFFFFFFFFFFFFFFFFFFFFFFFFFFFFFF AND DUP2 PUSH20 0xFFFFFFFFFFFFFFFFFFFFFFFFFFFFFFFFFFFFFFFF AND EQ JUMPDEST ISZERO PUSH2 0x810 JUMPI PUSH1 0x40 MLOAD PUSH32 0x41A4672000000000000000000000000000000000000000000000000000000000 DUP2 MSTORE PUSH1 0x4 ADD PUSH1 0x40 MLOAD DUP1 SWAP2 SUB SWAP1 REVERT JUMPDEST DUP1 PUSH20 0xFFFFFFFFFFFFFFFFFFFFFFFFFFFFFFFFFFFFFFFF AND DUP3 PUSH20 0xFFFFFFFFFFFFFFFFFFFFFFFFFFFFFFFFFFFFFFFF AND EQ ISZERO PUSH2 0x876 JUMPI PUSH1 0x40 MLOAD PUSH32 0x8696F16700000000000000000000000000000000000000000000000000000000 DUP2 MSTORE PUSH1 0x4 ADD PUSH1 0x40 MLOAD DUP1 SWAP2 SUB SWAP1 REVERT JUMPDEST DUP10 CALLER PUSH2 0x882 DUP3 DUP3 PUSH2 0x9AD JUMP JUMPDEST PUSH2 0x8C5 JUMPI DUP2 DUP2 PUSH1 0x40 MLOAD PUSH32 0x548F773D00000000000000000000000000000000000000000000000000000000 DUP2 MSTORE PUSH1 0x4 ADD PUSH2 0x8BC SWAP3 SWAP2 SWAP1 PUSH2 0x13DF JUMP JUMPDEST PUSH1 0x40 MLOAD DUP1 SWAP2 SUB SWAP1 REVERT JUMPDEST PUSH1 0x0 JUMPDEST DUP11 DUP11 SWAP1 POP DUP2 LT ISZERO PUSH2 0x91C JUMPI PUSH2 0x911 DUP14 DUP14 DUP14 DUP14 DUP6 DUP2 DUP2 LT PUSH2 0x8EB JUMPI PUSH2 0x8EA PUSH2 0x1460 JUMP JUMPDEST JUMPDEST SWAP1 POP PUSH1 0x20 MUL ADD CALLDATALOAD DUP13 DUP13 DUP7 DUP2 DUP2 LT PUSH2 0x905 JUMPI PUSH2 0x904 PUSH2 0x1460 JUMP JUMPDEST JUMPDEST SWAP1 POP PUSH1 0x20 MUL ADD CALLDATALOAD PUSH2 0xA77 JUMP JUMPDEST DUP1 PUSH1 0x1 ADD SWAP1 POP PUSH2 0x8C8 JUMP JUMPDEST POP DUP11 PUSH20 0xFFFFFFFFFFFFFFFFFFFFFFFFFFFFFFFFFFFFFFFF AND DUP13 PUSH20 0xFFFFFFFFFFFFFFFFFFFFFFFFFFFFFFFFFFFFFFFF AND CALLER PUSH20 0xFFFFFFFFFFFFFFFFFFFFFFFFFFFFFFFFFFFFFFFF AND PUSH32 0x4A39DC06D4C0DBC64B70AF90FD698A233A518AA5D07E595D983B8C0526C8F7FB DUP14 DUP14 DUP14 DUP14 PUSH1 0x40 MLOAD PUSH2 0x997 SWAP5 SWAP4 SWAP3 SWAP2 SWAP1 PUSH2 0x152C JUMP JUMPDEST PUSH1 0x40 MLOAD DUP1 SWAP2 SUB SWAP1 LOG4 POP POP POP POP POP POP POP POP POP POP POP POP JUMP JUMPDEST PUSH1 0x0 DUP2 PUSH20 0xFFFFFFFFFFFFFFFFFFFFFFFFFFFFFFFFFFFFFFFF AND DUP4 PUSH20 0xFFFFFFFFFFFFFFFFFFFFFFFFFFFFFFFFFFFFFFFF AND EQ DUP1 PUSH2 0xA6F JUMPI POP PUSH1 0x1 PUSH1 0x0 DUP5 PUSH20 0xFFFFFFFFFFFFFFFFFFFFFFFFFFFFFFFFFFFFFFFF AND PUSH20 0xFFFFFFFFFFFFFFFFFFFFFFFFFFFFFFFFFFFFFFFF AND DUP2 MSTORE PUSH1 0x20 ADD SWAP1 DUP2 MSTORE PUSH1 0x20 ADD PUSH1 0x0 KECCAK256 PUSH1 0x0 DUP4 PUSH20 0xFFFFFFFFFFFFFFFFFFFFFFFFFFFFFFFFFFFFFFFF AND PUSH20 0xFFFFFFFFFFFFFFFFFFFFFFFFFFFFFFFFFFFFFFFF AND DUP2 MSTORE PUSH1 0x20 ADD SWAP1 DUP2 MSTORE PUSH1 0x20 ADD PUSH1 0x0 KECCAK256 PUSH1 0x0 SWAP1 SLOAD SWAP1 PUSH2 0x100 EXP SWAP1 DIV PUSH1 0xFF AND JUMPDEST SWAP1 POP SWAP3 SWAP2 POP POP JUMP JUMPDEST PUSH1 0x0 DUP1 PUSH1 0x0 DUP5 DUP2 MSTORE PUSH1 0x20 ADD SWAP1 DUP2 MSTORE PUSH1 0x20 ADD PUSH1 0x0 KECCAK256 PUSH1 0x0 DUP7 PUSH20 0xFFFFFFFFFFFFFFFFFFFFFFFFFFFFFFFFFFFFFFFF AND PUSH20 0xFFFFFFFFFFFFFFFFFFFFFFFFFFFFFFFFFFFFFFFF AND DUP2 MSTORE PUSH1 0x20 ADD SWAP1 DUP2 MSTORE PUSH1 0x20 ADD PUSH1 0x0 KECCAK256 SLOAD SWAP1 POP DUP2 DUP2 LT ISZERO PUSH2 0xB14 JUMPI DUP5 DUP4 DUP4 PUSH1 0x40 MLOAD PUSH32 0x58B4690F00000000000000000000000000000000000000000000000000000000 DUP2 MSTORE PUSH1 0x4 ADD PUSH2 0xB0B SWAP4 SWAP3 SWAP2 SWAP1 PUSH2 0x1567 JUMP JUMPDEST PUSH1 0x40 MLOAD DUP1 SWAP2 SUB SWAP1 REVERT JUMPDEST PUSH2 0xB20 DUP6 DUP6 DUP6 DUP6 PUSH2 0xD49 JUMP JUMPDEST DUP2 DUP2 SUB PUSH1 0x0 DUP1 DUP6 DUP2 MSTORE PUSH1 0x20 ADD SWAP1 DUP2 MSTORE PUSH1 0x20 ADD PUSH1 0x0 KECCAK256 PUSH1 0x0 DUP8 PUSH20 0xFFFFFFFFFFFFFFFFFFFFFFFFFFFFFFFFFFFFFFFF AND PUSH20 0xFFFFFFFFFFFFFFFFFFFFFFFFFFFFFFFFFFFFFFFF AND DUP2 MSTORE PUSH1 0x20 ADD SWAP1 DUP2 MSTORE PUSH1 0x20 ADD PUSH1 0x0 KECCAK256 DUP2 SWAP1 SSTORE POP DUP2 PUSH1 0x0 DUP1 DUP6 DUP2 MSTORE PUSH1 0x20 ADD SWAP1 DUP2 MSTORE PUSH1 0x20 ADD PUSH1 0x0 KECCAK256 PUSH1 0x0 DUP7 PUSH20 0xFFFFFFFFFFFFFFFFFFFFFFFFFFFFFFFFFFFFFFFF AND PUSH20 0xFFFFFFFFFFFFFFFFFFFFFFFFFFFFFFFFFFFFFFFF AND DUP2 MSTORE PUSH1 0x20 ADD SWAP1 DUP2 MSTORE PUSH1 0x20 ADD PUSH1 0x0 KECCAK256 PUSH1 0x0 DUP3 DUP3 SLOAD ADD SWAP3 POP POP DUP2 SWAP1 SSTORE POP POP POP POP POP POP JUMP JUMPDEST DUP2 PUSH20 0xFFFFFFFFFFFFFFFFFFFFFFFFFFFFFFFFFFFFFFFF AND DUP4 PUSH20 0xFFFFFFFFFFFFFFFFFFFFFFFFFFFFFFFFFFFFFFFF AND EQ ISZERO PUSH2 0xC4B JUMPI DUP3 PUSH1 0x40 MLOAD PUSH32 0x782EE70700000000000000000000000000000000000000000000000000000000 DUP2 MSTORE PUSH1 0x4 ADD PUSH2 0xC42 SWAP2 SWAP1 PUSH2 0x159E JUMP JUMPDEST PUSH1 0x40 MLOAD DUP1 SWAP2 SUB SWAP1 REVERT JUMPDEST DUP1 PUSH1 0x1 PUSH1 0x0 DUP6 PUSH20 0xFFFFFFFFFFFFFFFFFFFFFFFFFFFFFFFFFFFFFFFF AND PUSH20 0xFFFFFFFFFFFFFFFFFFFFFFFFFFFFFFFFFFFFFFFF AND DUP2 MSTORE PUSH1 0x20 ADD SWAP1 DUP2 MSTORE PUSH1 0x20 ADD PUSH1 0x0 KECCAK256 PUSH1 0x0 DUP5 PUSH20 0xFFFFFFFFFFFFFFFFFFFFFFFFFFFFFFFFFFFFFFFF AND PUSH20 0xFFFFFFFFFFFFFFFFFFFFFFFFFFFFFFFFFFFFFFFF AND DUP2 MSTORE PUSH1 0x20 ADD SWAP1 DUP2 MSTORE PUSH1 0x20 ADD PUSH1 0x0 KECCAK256 PUSH1 0x0 PUSH2 0x100 EXP DUP2 SLOAD DUP2 PUSH1 0xFF MUL NOT AND SWAP1 DUP4 ISZERO ISZERO MUL OR SWAP1 SSTORE POP DUP2 PUSH20 0xFFFFFFFFFFFFFFFFFFFFFFFFFFFFFFFFFFFFFFFF AND DUP4 PUSH20 0xFFFFFFFFFFFFFFFFFFFFFFFFFFFFFFFFFFFFFFFF AND PUSH32 0x17307EAB39AB6107E8899845AD3D59BD9653F200F220920489CA2B5937696C31 DUP4 PUSH1 0x40 MLOAD PUSH2 0xD3C SWAP2 SWAP1 PUSH2 0xEF7 JUMP JUMPDEST PUSH1 0x40 MLOAD DUP1 SWAP2 SUB SWAP1 LOG3 POP POP POP JUMP JUMPDEST POP POP POP POP JUMP JUMPDEST PUSH1 0x0 DUP1 REVERT JUMPDEST PUSH1 0x0 DUP1 REVERT JUMPDEST PUSH1 0x0 PUSH20 0xFFFFFFFFFFFFFFFFFFFFFFFFFFFFFFFFFFFFFFFF DUP3 AND SWAP1 POP SWAP2 SWAP1 POP JUMP JUMPDEST PUSH1 0x0 PUSH2 0xD84 DUP3 PUSH2 0xD59 JUMP JUMPDEST SWAP1 POP SWAP2 SWAP1 POP JUMP JUMPDEST PUSH2 0xD94 DUP2 PUSH2 0xD79 JUMP JUMPDEST DUP2 EQ PUSH2 0xD9F JUMPI PUSH1 0x0 DUP1 REVERT JUMPDEST POP JUMP JUMPDEST PUSH1 0x0 DUP2 CALLDATALOAD SWAP1 POP PUSH2 0xDB1 DUP2 PUSH2 0xD8B JUMP JUMPDEST SWAP3 SWAP2 POP POP JUMP JUMPDEST PUSH1 0x0 DUP2 SWAP1 POP SWAP2 SWAP1 POP JUMP JUMPDEST PUSH2 0xDCA DUP2 PUSH2 0xDB7 JUMP JUMPDEST DUP2 EQ PUSH2 0xDD5 JUMPI PUSH1 0x0 DUP1 REVERT JUMPDEST POP JUMP JUMPDEST PUSH1 0x0 DUP2 CALLDATALOAD SWAP1 POP PUSH2 0xDE7 DUP2 PUSH2 0xDC1 JUMP JUMPDEST SWAP3 SWAP2 POP POP JUMP JUMPDEST PUSH1 0x0 DUP1 PUSH1 0x40 DUP4 DUP6 SUB SLT ISZERO PUSH2 0xE04 JUMPI PUSH2 0xE03 PUSH2 0xD4F JUMP JUMPDEST JUMPDEST PUSH1 0x0 PUSH2 0xE12 DUP6 DUP3 DUP7 ADD PUSH2 0xDA2 JUMP JUMPDEST SWAP3 POP POP PUSH1 0x20 PUSH2 0xE23 DUP6 DUP3 DUP7 ADD PUSH2 0xDD8 JUMP JUMPDEST SWAP2 POP POP SWAP3 POP SWAP3 SWAP1 POP JUMP JUMPDEST PUSH2 0xE36 DUP2 PUSH2 0xDB7 JUMP JUMPDEST DUP3 MSTORE POP POP JUMP JUMPDEST PUSH1 0x0 PUSH1 0x20 DUP3 ADD SWAP1 POP PUSH2 0xE51 PUSH1 0x0 DUP4 ADD DUP5 PUSH2 0xE2D JUMP JUMPDEST SWAP3 SWAP2 POP POP JUMP JUMPDEST PUSH1 0x0 PUSH32 0xFFFFFFFF00000000000000000000000000000000000000000000000000000000 DUP3 AND SWAP1 POP SWAP2 SWAP1 POP JUMP JUMPDEST PUSH2 0xE8C DUP2 PUSH2 0xE57 JUMP JUMPDEST DUP2 EQ PUSH2 0xE97 JUMPI PUSH1 0x0 DUP1 REVERT JUMPDEST POP JUMP JUMPDEST PUSH1 0x0 DUP2 CALLDATALOAD SWAP1 POP PUSH2 0xEA9 DUP2 PUSH2 0xE83 JUMP JUMPDEST SWAP3 SWAP2 POP POP JUMP JUMPDEST PUSH1 0x0 PUSH1 0x20 DUP3 DUP5 SUB SLT ISZERO PUSH2 0xEC5 JUMPI PUSH2 0xEC4 PUSH2 0xD4F JUMP JUMPDEST JUMPDEST PUSH1 0x0 PUSH2 0xED3 DUP5 DUP3 DUP6 ADD PUSH2 0xE9A JUMP JUMPDEST SWAP2 POP POP SWAP3 SWAP2 POP POP JUMP JUMPDEST PUSH1 0x0 DUP2 ISZERO ISZERO SWAP1 POP SWAP2 SWAP1 POP JUMP JUMPDEST PUSH2 0xEF1 DUP2 PUSH2 0xEDC JUMP JUMPDEST DUP3 MSTORE POP POP JUMP JUMPDEST PUSH1 0x0 PUSH1 0x20 DUP3 ADD SWAP1 POP PUSH2 0xF0C PUSH1 0x0 DUP4 ADD DUP5 PUSH2 0xEE8 JUMP JUMPDEST SWAP3 SWAP2 POP POP JUMP JUMPDEST PUSH1 0x0 DUP2 MLOAD SWAP1 POP SWAP2 SWAP1 POP JUMP JUMPDEST PUSH1 0x0 DUP3 DUP3 MSTORE PUSH1 0x20 DUP3 ADD SWAP1 POP SWAP3 SWAP2 POP POP JUMP JUMPDEST PUSH1 0x0 JUMPDEST DUP4 DUP2 LT ISZERO PUSH2 0xF4C JUMPI DUP1 DUP3 ADD MLOAD DUP2 DUP5 ADD MSTORE PUSH1 0x20 DUP2 ADD SWAP1 POP PUSH2 0xF31 JUMP JUMPDEST DUP4 DUP2 GT ISZERO PUSH2 0xF5B JUMPI PUSH1 0x0 DUP5 DUP5 ADD MSTORE JUMPDEST POP POP POP POP JUMP JUMPDEST PUSH1 0x0 PUSH1 0x1F NOT PUSH1 0x1F DUP4 ADD AND SWAP1 POP SWAP2 SWAP1 POP JUMP JUMPDEST PUSH1 0x0 PUSH2 0xF7D DUP3 PUSH2 0xF12 JUMP JUMPDEST PUSH2 0xF87 DUP2 DUP6 PUSH2 0xF1D JUMP JUMPDEST SWAP4 POP PUSH2 0xF97 DUP2 DUP6 PUSH1 0x20 DUP7 ADD PUSH2 0xF2E JUMP JUMPDEST PUSH2 0xFA0 DUP2 PUSH2 0xF61 JUMP JUMPDEST DUP5 ADD SWAP2 POP POP SWAP3 SWAP2 POP POP JUMP JUMPDEST PUSH1 0x0 PUSH1 0x20 DUP3 ADD SWAP1 POP DUP2 DUP2 SUB PUSH1 0x0 DUP4 ADD MSTORE PUSH2 0xFC5 DUP2 DUP5 PUSH2 0xF72 JUMP JUMPDEST SWAP1 POP SWAP3 SWAP2 POP POP JUMP JUMPDEST PUSH1 0x0 DUP1 PUSH1 0x0 DUP1 PUSH1 0x80 DUP6 DUP8 SUB SLT ISZERO PUSH2 0xFE7 JUMPI PUSH2 0xFE6 PUSH2 0xD4F JUMP JUMPDEST JUMPDEST PUSH1 0x0 PUSH2 0xFF5 DUP8 DUP3 DUP9 ADD PUSH2 0xDA2 JUMP JUMPDEST SWAP5 POP POP PUSH1 0x20 PUSH2 0x1006 DUP8 DUP3 DUP9 ADD PUSH2 0xDA2 JUMP JUMPDEST SWAP4 POP POP PUSH1 0x40 PUSH2 0x1017 DUP8 DUP3 DUP9 ADD PUSH2 0xDD8 JUMP JUMPDEST SWAP3 POP POP PUSH1 0x60 PUSH2 0x1028 DUP8 DUP3 DUP9 ADD PUSH2 0xDD8 JUMP JUMPDEST SWAP2 POP POP SWAP3 SWAP6 SWAP2 SWAP5 POP SWAP3 POP JUMP JUMPDEST PUSH1 0x0 DUP1 REVERT JUMPDEST PUSH1 0x0 DUP1 REVERT JUMPDEST PUSH1 0x0 DUP1 REVERT JUMPDEST PUSH1 0x0 DUP1 DUP4 PUSH1 0x1F DUP5 ADD SLT PUSH2 0x1059 JUMPI PUSH2 0x1058 PUSH2 0x1034 JUMP JUMPDEST JUMPDEST DUP3 CALLDATALOAD SWAP1 POP PUSH8 0xFFFFFFFFFFFFFFFF DUP2 GT ISZERO PUSH2 0x1076 JUMPI PUSH2 0x1075 PUSH2 0x1039 JUMP JUMPDEST JUMPDEST PUSH1 0x20 DUP4 ADD SWAP2 POP DUP4 PUSH1 0x20 DUP3 MUL DUP4 ADD GT ISZERO PUSH2 0x1092 JUMPI PUSH2 0x1091 PUSH2 0x103E JUMP JUMPDEST JUMPDEST SWAP3 POP SWAP3 SWAP1 POP JUMP JUMPDEST PUSH1 0x0 DUP1 DUP4 PUSH1 0x1F DUP5 ADD SLT PUSH2 0x10AF JUMPI PUSH2 0x10AE PUSH2 0x1034 JUMP JUMPDEST JUMPDEST DUP3 CALLDATALOAD SWAP1 POP PUSH8 0xFFFFFFFFFFFFFFFF DUP2 GT ISZERO PUSH2 0x10CC JUMPI PUSH2 0x10CB PUSH2 0x1039 JUMP JUMPDEST JUMPDEST PUSH1 0x20 DUP4 ADD SWAP2 POP DUP4 PUSH1 0x20 DUP3 MUL DUP4 ADD GT ISZERO PUSH2 0x10E8 JUMPI PUSH2 0x10E7 PUSH2 0x103E JUMP JUMPDEST JUMPDEST SWAP3 POP SWAP3 SWAP1 POP JUMP JUMPDEST PUSH1 0x0 DUP1 PUSH1 0x0 DUP1 PUSH1 0x40 DUP6 DUP8 SUB SLT ISZERO PUSH2 0x1109 JUMPI PUSH2 0x1108 PUSH2 0xD4F JUMP JUMPDEST JUMPDEST PUSH1 0x0 DUP6 ADD CALLDATALOAD PUSH8 0xFFFFFFFFFFFFFFFF DUP2 GT ISZERO PUSH2 0x1127 JUMPI PUSH2 0x1126 PUSH2 0xD54 JUMP JUMPDEST JUMPDEST PUSH2 0x1133 DUP8 DUP3 DUP9 ADD PUSH2 0x1043 JUMP JUMPDEST SWAP5 POP SWAP5 POP POP PUSH1 0x20 DUP6 ADD CALLDATALOAD PUSH8 0xFFFFFFFFFFFFFFFF DUP2 GT ISZERO PUSH2 0x1156 JUMPI PUSH2 0x1155 PUSH2 0xD54 JUMP JUMPDEST JUMPDEST PUSH2 0x1162 DUP8 DUP3 DUP9 ADD PUSH2 0x1099 JUMP JUMPDEST SWAP3 POP SWAP3 POP POP SWAP3 SWAP6 SWAP2 SWAP5 POP SWAP3 POP JUMP JUMPDEST PUSH1 0x0 DUP2 MLOAD SWAP1 POP SWAP2 SWAP1 POP JUMP JUMPDEST PUSH1 0x0 DUP3 DUP3 MSTORE PUSH1 0x20 DUP3 ADD SWAP1 POP SWAP3 SWAP2 POP POP JUMP JUMPDEST PUSH1 0x0 DUP2 SWAP1 POP PUSH1 0x20 DUP3 ADD SWAP1 POP SWAP2 SWAP1 POP JUMP JUMPDEST PUSH2 0x11A5 DUP2 PUSH2 0xDB7 JUMP JUMPDEST DUP3 MSTORE POP POP JUMP JUMPDEST PUSH1 0x0 PUSH2 0x11B7 DUP4 DUP4 PUSH2 0x119C JUMP JUMPDEST PUSH1 0x20 DUP4 ADD SWAP1 POP SWAP3 SWAP2 POP POP JUMP JUMPDEST PUSH1 0x0 PUSH1 0x20 DUP3 ADD SWAP1 POP SWAP2 SWAP1 POP JUMP JUMPDEST PUSH1 0x0 PUSH2 0x11DB DUP3 PUSH2 0x1170 JUMP JUMPDEST PUSH2 0x11E5 DUP2 DUP6 PUSH2 0x117B JUMP JUMPDEST SWAP4 POP PUSH2 0x11F0 DUP4 PUSH2 0x118C JUMP JUMPDEST DUP1 PUSH1 0x0 JUMPDEST DUP4 DUP2 LT ISZERO PUSH2 0x1221 JUMPI DUP2 MLOAD PUSH2 0x1208 DUP9 DUP3 PUSH2 0x11AB JUMP JUMPDEST SWAP8 POP PUSH2 0x1213 DUP4 PUSH2 0x11C3 JUMP JUMPDEST SWAP3 POP POP PUSH1 0x1 DUP2 ADD SWAP1 POP PUSH2 0x11F4 JUMP JUMPDEST POP DUP6 SWAP4 POP POP POP POP SWAP3 SWAP2 POP POP JUMP JUMPDEST PUSH1 0x0 PUSH1 0x20 DUP3 ADD SWAP1 POP DUP2 DUP2 SUB PUSH1 0x0 DUP4 ADD MSTORE PUSH2 0x1248 DUP2 DUP5 PUSH2 0x11D0 JUMP JUMPDEST SWAP1 POP SWAP3 SWAP2 POP POP JUMP JUMPDEST PUSH2 0x1259 DUP2 PUSH2 0xEDC JUMP JUMPDEST DUP2 EQ PUSH2 0x1264 JUMPI PUSH1 0x0 DUP1 REVERT JUMPDEST POP JUMP JUMPDEST PUSH1 0x0 DUP2 CALLDATALOAD SWAP1 POP PUSH2 0x1276 DUP2 PUSH2 0x1250 JUMP JUMPDEST SWAP3 SWAP2 POP POP JUMP JUMPDEST PUSH1 0x0 DUP1 PUSH1 0x40 DUP4 DUP6 SUB SLT ISZERO PUSH2 0x1293 JUMPI PUSH2 0x1292 PUSH2 0xD4F JUMP JUMPDEST JUMPDEST PUSH1 0x0 PUSH2 0x12A1 DUP6 DUP3 DUP7 ADD PUSH2 0xDA2 JUMP JUMPDEST SWAP3 POP POP PUSH1 0x20 PUSH2 0x12B2 DUP6 DUP3 DUP7 ADD PUSH2 0x1267 JUMP JUMPDEST SWAP2 POP POP SWAP3 POP SWAP3 SWAP1 POP JUMP JUMPDEST PUSH1 0x0 PUSH1 0x20 DUP3 DUP5 SUB SLT ISZERO PUSH2 0x12D2 JUMPI PUSH2 0x12D1 PUSH2 0xD4F JUMP JUMPDEST JUMPDEST PUSH1 0x0 PUSH2 0x12E0 DUP5 DUP3 DUP6 ADD PUSH2 0xDD8 JUMP JUMPDEST SWAP2 POP POP SWAP3 SWAP2 POP POP JUMP JUMPDEST PUSH1 0x0 DUP1 PUSH1 0x40 DUP4 DUP6 SUB SLT ISZERO PUSH2 0x1300 JUMPI PUSH2 0x12FF PUSH2 0xD4F JUMP JUMPDEST JUMPDEST PUSH1 0x0 PUSH2 0x130E DUP6 DUP3 DUP7 ADD PUSH2 0xDA2 JUMP JUMPDEST SWAP3 POP POP PUSH1 0x20 PUSH2 0x131F DUP6 DUP3 DUP7 ADD PUSH2 0xDA2 JUMP JUMPDEST SWAP2 POP POP SWAP3 POP SWAP3 SWAP1 POP JUMP JUMPDEST PUSH1 0x0 DUP1 PUSH1 0x0 DUP1 PUSH1 0x0 DUP1 PUSH1 0x80 DUP8 DUP10 SUB SLT ISZERO PUSH2 0x1346 JUMPI PUSH2 0x1345 PUSH2 0xD4F JUMP JUMPDEST JUMPDEST PUSH1 0x0 PUSH2 0x1354 DUP10 DUP3 DUP11 ADD PUSH2 0xDA2 JUMP JUMPDEST SWAP7 POP POP PUSH1 0x20 PUSH2 0x1365 DUP10 DUP3 DUP11 ADD PUSH2 0xDA2 JUMP JUMPDEST SWAP6 POP POP PUSH1 0x40 DUP8 ADD CALLDATALOAD PUSH8 0xFFFFFFFFFFFFFFFF DUP2 GT ISZERO PUSH2 0x1386 JUMPI PUSH2 0x1385 PUSH2 0xD54 JUMP JUMPDEST JUMPDEST PUSH2 0x1392 DUP10 DUP3 DUP11 ADD PUSH2 0x1099 JUMP JUMPDEST SWAP5 POP SWAP5 POP POP PUSH1 0x60 DUP8 ADD CALLDATALOAD PUSH8 0xFFFFFFFFFFFFFFFF DUP2 GT ISZERO PUSH2 0x13B5 JUMPI PUSH2 0x13B4 PUSH2 0xD54 JUMP JUMPDEST JUMPDEST PUSH2 0x13C1 DUP10 DUP3 DUP11 ADD PUSH2 0x1099 JUMP JUMPDEST SWAP3 POP SWAP3 POP POP SWAP3 SWAP6 POP SWAP3 SWAP6 POP SWAP3 SWAP6 JUMP JUMPDEST PUSH2 0x13D9 DUP2 PUSH2 0xD79 JUMP JUMPDEST DUP3 MSTORE POP POP JUMP JUMPDEST PUSH1 0x0 PUSH1 0x40 DUP3 ADD SWAP1 POP PUSH2 0x13F4 PUSH1 0x0 DUP4 ADD DUP6 PUSH2 0x13D0 JUMP JUMPDEST PUSH2 0x1401 PUSH1 0x20 DUP4 ADD DUP5 PUSH2 0x13D0 JUMP JUMPDEST SWAP4 SWAP3 POP POP POP JUMP JUMPDEST PUSH1 0x0 PUSH1 0x40 DUP3 ADD SWAP1 POP PUSH2 0x141D PUSH1 0x0 DUP4 ADD DUP6 PUSH2 0xE2D JUMP JUMPDEST PUSH2 0x142A PUSH1 0x20 DUP4 ADD DUP5 PUSH2 0xE2D JUMP JUMPDEST SWAP4 SWAP3 POP POP POP JUMP JUMPDEST PUSH32 0x4E487B7100000000000000000000000000000000000000000000000000000000 PUSH1 0x0 MSTORE PUSH1 0x41 PUSH1 0x4 MSTORE PUSH1 0x24 PUSH1 0x0 REVERT JUMPDEST PUSH32 0x4E487B7100000000000000000000000000000000000000000000000000000000 PUSH1 0x0 MSTORE PUSH1 0x32 PUSH1 0x4 MSTORE PUSH1 0x24 PUSH1 0x0 REVERT JUMPDEST PUSH1 0x0 PUSH1 0x20 DUP3 DUP5 SUB SLT ISZERO PUSH2 0x14A5 JUMPI PUSH2 0x14A4 PUSH2 0xD4F JUMP JUMPDEST JUMPDEST PUSH1 0x0 PUSH2 0x14B3 DUP5 DUP3 DUP6 ADD PUSH2 0xDA2 JUMP JUMPDEST SWAP2 POP POP SWAP3 SWAP2 POP POP JUMP JUMPDEST PUSH1 0x0 DUP1 REVERT JUMPDEST DUP3 DUP2 DUP4 CALLDATACOPY PUSH1 0x0 DUP4 DUP4 ADD MSTORE POP POP POP JUMP JUMPDEST PUSH1 0x0 PUSH2 0x14DC DUP4 DUP6 PUSH2 0x117B JUMP JUMPDEST SWAP4 POP PUSH32 0x7FFFFFFFFFFFFFFFFFFFFFFFFFFFFFFFFFFFFFFFFFFFFFFFFFFFFFFFFFFFFFF DUP4 GT ISZERO PUSH2 0x150F JUMPI PUSH2 0x150E PUSH2 0x14BC JUMP JUMPDEST JUMPDEST PUSH1 0x20 DUP4 MUL SWAP3 POP PUSH2 0x1520 DUP4 DUP6 DUP5 PUSH2 0x14C1 JUMP JUMPDEST DUP3 DUP5 ADD SWAP1 POP SWAP4 SWAP3 POP POP POP JUMP JUMPDEST PUSH1 0x0 PUSH1 0x40 DUP3 ADD SWAP1 POP DUP2 DUP2 SUB PUSH1 0x0 DUP4 ADD MSTORE PUSH2 0x1547 DUP2 DUP7 DUP9 PUSH2 0x14D0 JUMP JUMPDEST SWAP1 POP DUP2 DUP2 SUB PUSH1 0x20 DUP4 ADD MSTORE PUSH2 0x155C DUP2 DUP5 DUP7 PUSH2 0x14D0 JUMP JUMPDEST SWAP1 POP SWAP6 SWAP5 POP POP POP POP POP JUMP JUMPDEST PUSH1 0x0 PUSH1 0x60 DUP3 ADD SWAP1 POP PUSH2 0x157C PUSH1 0x0 DUP4 ADD DUP7 PUSH2 0x13D0 JUMP JUMPDEST PUSH2 0x1589 PUSH1 0x20 DUP4 ADD DUP6 PUSH2 0xE2D JUMP JUMPDEST PUSH2 0x1596 PUSH1 0x40 DUP4 ADD DUP5 PUSH2 0xE2D JUMP JUMPDEST SWAP5 SWAP4 POP POP POP POP JUMP JUMPDEST PUSH1 0x0 PUSH1 0x20 DUP3 ADD SWAP1 POP PUSH2 0x15B3 PUSH1 0x0 DUP4 ADD DUP5 PUSH2 0x13D0 JUMP JUMPDEST SWAP3 SWAP2 POP POP JUMP INVALID LOG2 PUSH5 0x6970667358 0x22 SLT KECCAK256 LOG3 0x2A BYTE SWAP15 0xB4 PUSH10 0x9186A9ED969CF7A68A9D LT 0xC1 0xB0 BYTE 0xCF STATICCALL SDIV STOP 0xB1 0x27 0xC3 MULMOD JUMPDEST 0xB2 SWAP10 DUP14 PUSH5 0x736F6C6343 STOP ADDMOD EXP STOP CALLER "
				},
				"gasEstimates": {
					"creation": {
						"codeDepositCost": "1123000",
						"executionCost": "1167",
						"totalCost": "1124167"
					},
					"external": {
						"balanceOf(address,uint256)": "infinite",
						"balanceOfBatch(address[],uint256[])": "infinite",
						"isApprovedForAll(address,address)": "infinite",
						"name()": "infinite",
						"safeBatchTransferFrom(address,address,uint256[],uint256[])": "infinite",
						"safeTransferFrom(address,address,uint256,uint256)": "infinite",
						"setApprovalForAll(address,bool)": "infinite",
						"supportsInterface(bytes4)": "707",
						"symbol()": "infinite",
						"totalSupply(uint256)": "infinite"
					},
					"internal": {
						"_beforeTokenTransfer(address,address,uint256,uint256)": "17",
						"_burn(address,uint256,uint256)": "infinite",
						"_isApprovedForAll(address,address)": "2392",
						"_mint(address,uint256,uint256)": "infinite",
						"_setApprovalForAll(address,address,bool)": "infinite",
						"_transfer(address,address,uint256,uint256)": "infinite"
					}
				},
				"methodIdentifiers": {
					"balanceOf(address,uint256)": "00fdd58e",
					"balanceOfBatch(address[],uint256[])": "4e1273f4",
					"isApprovedForAll(address,address)": "e985e9c5",
					"name()": "06fdde03",
					"safeBatchTransferFrom(address,address,uint256[],uint256[])": "fba0ee64",
					"safeTransferFrom(address,address,uint256,uint256)": "0febdd49",
					"setApprovalForAll(address,bool)": "a22cb465",
					"supportsInterface(bytes4)": "01ffc9a7",
					"symbol()": "95d89b41",
					"totalSupply(uint256)": "bd85b039"
				}
			},
			"storageLayout": {
				"storage": [
					{
						"astId": 1264,
						"contract": "Midas/joe-v2-main/src/LBToken.sol:LBToken",
						"label": "_balances",
						"offset": 0,
						"slot": "0",
						"type": "t_mapping(t_uint256,t_mapping(t_address,t_uint256))"
					},
					{
						"astId": 1271,
						"contract": "Midas/joe-v2-main/src/LBToken.sol:LBToken",
						"label": "_spenderApprovals",
						"offset": 0,
						"slot": "1",
						"type": "t_mapping(t_address,t_mapping(t_address,t_bool))"
					},
					{
						"astId": 1276,
						"contract": "Midas/joe-v2-main/src/LBToken.sol:LBToken",
						"label": "_totalSupplies",
						"offset": 0,
						"slot": "2",
						"type": "t_mapping(t_uint256,t_uint256)"
					}
				],
				"types": {
					"t_address": {
						"encoding": "inplace",
						"label": "address",
						"numberOfBytes": "20"
					},
					"t_bool": {
						"encoding": "inplace",
						"label": "bool",
						"numberOfBytes": "1"
					},
					"t_mapping(t_address,t_bool)": {
						"encoding": "mapping",
						"key": "t_address",
						"label": "mapping(address => bool)",
						"numberOfBytes": "32",
						"value": "t_bool"
					},
					"t_mapping(t_address,t_mapping(t_address,t_bool))": {
						"encoding": "mapping",
						"key": "t_address",
						"label": "mapping(address => mapping(address => bool))",
						"numberOfBytes": "32",
						"value": "t_mapping(t_address,t_bool)"
					},
					"t_mapping(t_address,t_uint256)": {
						"encoding": "mapping",
						"key": "t_address",
						"label": "mapping(address => uint256)",
						"numberOfBytes": "32",
						"value": "t_uint256"
					},
					"t_mapping(t_uint256,t_mapping(t_address,t_uint256))": {
						"encoding": "mapping",
						"key": "t_uint256",
						"label": "mapping(uint256 => mapping(address => uint256))",
						"numberOfBytes": "32",
						"value": "t_mapping(t_address,t_uint256)"
					},
					"t_mapping(t_uint256,t_uint256)": {
						"encoding": "mapping",
						"key": "t_uint256",
						"label": "mapping(uint256 => uint256)",
						"numberOfBytes": "32",
						"value": "t_uint256"
					},
					"t_uint256": {
						"encoding": "inplace",
						"label": "uint256",
						"numberOfBytes": "32"
					}
				}
			},
			"userdoc": {
				"errors": {
					"LBToken__SpenderNotApproved(address,address)": [
						{
							"notice": "LBToken errors "
						}
					]
				},
				"kind": "user",
				"methods": {
					"balanceOf(address,uint256)": {
						"notice": "Returns the amount of tokens of type `id` owned by `_account`"
					},
					"balanceOfBatch(address[],uint256[])": {
						"notice": "Return the balance of multiple (account/id) pairs"
					},
					"isApprovedForAll(address,address)": {
						"notice": "Returns true if `spender` is approved to transfer `_account`'s tokens"
					},
					"name()": {
						"notice": "Returns the name of the token"
					},
					"safeBatchTransferFrom(address,address,uint256[],uint256[])": {
						"notice": "Batch transfers `_amount` tokens of type `_id` from `_from` to `_to`"
					},
					"safeTransferFrom(address,address,uint256,uint256)": {
						"notice": "Transfers `_amount` token of type `_id` from `_from` to `_to`"
					},
					"setApprovalForAll(address,bool)": {
						"notice": "Grants or revokes permission to `spender` to transfer the caller's tokens, according to `approved`"
					},
					"supportsInterface(bytes4)": {
						"notice": "Returns whether this contract implements the interface defined by `interfaceId` (true) or not (false)"
					},
					"symbol()": {
						"notice": "Returns the symbol of the token, usually a shorter version of the name"
					},
					"totalSupply(uint256)": {
						"notice": "Returns the total supply of token of type `id`"
					}
				},
				"notice": "The LBToken is an implementation of a multi-token. It allows to create multi-ERC20 represented by their ids",
				"version": 1
			}
		}
	}
}