{
	"Midas/Midas_main/src/MidasRouter.sol": {
		"MidasRouter": {
			"abi": [
				{
					"inputs": [
						{
							"internalType": "contract IMidasFactory721",
							"name": "_factory",
							"type": "address"
						},
						{
							"internalType": "contract IWETH",
							"name": "_weth",
							"type": "address"
						},
						{
							"internalType": "contract IRoyaltyEngineV1",
							"name": "_royaltyEngine",
							"type": "address"
						}
					],
					"stateMutability": "nonpayable",
					"type": "constructor"
				},
				{
					"inputs": [],
					"name": "TokenHelper__CallFailed",
					"type": "error"
				},
				{
					"inputs": [],
					"name": "TokenHelper__NonContract",
					"type": "error"
				},
				{
					"inputs": [],
					"name": "TokenHelper__TransferFailed",
					"type": "error"
				},
				{
					"inputs": [
						{
							"internalType": "address",
							"name": "_pair",
							"type": "address"
						},
						{
							"internalType": "uint24[]",
							"name": "_ids",
							"type": "uint24[]"
						}
					],
					"name": "_getAmountsToAdd",
					"outputs": [
						{
							"internalType": "uint256",
							"name": "ftAmount",
							"type": "uint256"
						}
					],
					"stateMutability": "pure",
					"type": "function"
				},
				{
					"inputs": [
						{
							"internalType": "address",
							"name": "_tokenX",
							"type": "address"
						},
						{
							"internalType": "address",
							"name": "_tokenY",
							"type": "address"
						},
						{
							"internalType": "uint24[]",
							"name": "_ids",
							"type": "uint24[]"
						},
						{
							"internalType": "uint256",
							"name": "_deadline",
							"type": "uint256"
						}
					],
					"name": "addLiquidityERC20",
					"outputs": [
						{
							"internalType": "uint256",
							"name": "idAmount",
							"type": "uint256"
						},
						{
							"internalType": "uint256",
							"name": "lpTokenId",
							"type": "uint256"
						}
					],
					"stateMutability": "nonpayable",
					"type": "function"
				},
				{
					"inputs": [
						{
							"internalType": "address",
							"name": "_tokenX",
							"type": "address"
						},
						{
							"internalType": "address",
							"name": "_tokenY",
							"type": "address"
						},
						{
							"internalType": "uint24[]",
							"name": "_ids",
							"type": "uint24[]"
						},
						{
							"internalType": "uint256[]",
							"name": "_tokenIds",
							"type": "uint256[]"
						},
						{
							"internalType": "uint256",
							"name": "_deadline",
							"type": "uint256"
						}
					],
					"name": "addLiquidityERC721",
					"outputs": [
						{
							"internalType": "uint256",
							"name": "idAmount",
							"type": "uint256"
						},
						{
							"internalType": "uint256",
							"name": "lpTokenId",
							"type": "uint256"
						}
					],
					"stateMutability": "nonpayable",
					"type": "function"
				},
				{
					"inputs": [
						{
							"internalType": "address",
							"name": "_tokenX",
							"type": "address"
						},
						{
							"internalType": "address",
							"name": "_tokenY",
							"type": "address"
						},
						{
							"internalType": "uint24[]",
							"name": "_ids",
							"type": "uint24[]"
						},
						{
							"internalType": "uint256",
							"name": "_deadline",
							"type": "uint256"
						}
					],
					"name": "addLiquidityETH",
					"outputs": [
						{
							"internalType": "uint256",
							"name": "idAmount",
							"type": "uint256"
						},
						{
							"internalType": "uint256",
							"name": "lpTokenId",
							"type": "uint256"
						}
					],
					"stateMutability": "payable",
					"type": "function"
				},
				{
					"inputs": [
						{
							"internalType": "address",
							"name": "_tokenX",
							"type": "address"
						},
						{
							"internalType": "address",
							"name": "_tokenY",
							"type": "address"
						},
						{
							"internalType": "uint256[]",
							"name": "_tokenIds",
							"type": "uint256[]"
						},
						{
							"internalType": "uint256",
							"name": "_deadline",
							"type": "uint256"
						}
					],
					"name": "buyItems",
					"outputs": [
						{
							"internalType": "uint256",
							"name": "_ftAmount",
							"type": "uint256"
						}
					],
					"stateMutability": "nonpayable",
					"type": "function"
				},
				{
					"inputs": [
						{
							"internalType": "address",
							"name": "_tokenX",
							"type": "address"
						},
						{
							"internalType": "address",
							"name": "_tokenY",
							"type": "address"
						},
						{
							"internalType": "uint256[]",
							"name": "_tokenIds",
							"type": "uint256[]"
						},
						{
							"internalType": "uint256",
							"name": "_deadline",
							"type": "uint256"
						}
					],
					"name": "buyItemsWithETH",
					"outputs": [
						{
							"internalType": "uint256",
							"name": "_ftAmount",
							"type": "uint256"
						}
					],
					"stateMutability": "payable",
					"type": "function"
				},
				{
					"inputs": [],
					"name": "factory",
					"outputs": [
						{
							"internalType": "contract IMidasFactory721",
							"name": "",
							"type": "address"
						}
					],
					"stateMutability": "view",
					"type": "function"
				},
				{
					"inputs": [
						{
							"internalType": "address",
							"name": "_pair",
							"type": "address"
						},
						{
							"internalType": "uint256[]",
							"name": "_tokenIds",
							"type": "uint256[]"
						}
					],
					"name": "getMinAmountIn",
					"outputs": [
						{
							"internalType": "uint256",
							"name": "totalAmount",
							"type": "uint256"
						}
					],
					"stateMutability": "view",
					"type": "function"
				},
				{
					"inputs": [
						{
							"internalType": "address",
							"name": "_tokenX",
							"type": "address"
						},
						{
							"internalType": "address",
							"name": "_tokenY",
							"type": "address"
						},
						{
							"internalType": "uint24[]",
							"name": "_ids",
							"type": "uint24[]"
						},
						{
							"internalType": "uint256[]",
							"name": "_tokenIds",
							"type": "uint256[]"
						},
						{
							"internalType": "uint256",
							"name": "_deadline",
							"type": "uint256"
						}
					],
					"name": "openLimitOrder",
					"outputs": [
						{
							"internalType": "uint256",
							"name": "idAmount",
							"type": "uint256"
						},
						{
							"internalType": "uint256",
							"name": "lpTokenId",
							"type": "uint256"
						}
					],
					"stateMutability": "nonpayable",
					"type": "function"
				},
				{
					"inputs": [
						{
							"internalType": "address",
							"name": "_tokenX",
							"type": "address"
						},
						{
							"internalType": "address",
							"name": "_tokenY",
							"type": "address"
						},
						{
							"internalType": "uint256",
							"name": "_lpTokenId",
							"type": "uint256"
						},
						{
							"internalType": "uint256",
							"name": "_deadline",
							"type": "uint256"
						}
					],
					"name": "removeLiquidity",
					"outputs": [
						{
							"internalType": "uint256",
							"name": "nftAmount",
							"type": "uint256"
						},
						{
							"internalType": "uint256",
							"name": "ftAmount",
							"type": "uint256"
						}
					],
					"stateMutability": "nonpayable",
					"type": "function"
				},
				{
					"inputs": [
						{
							"internalType": "address",
							"name": "_tokenX",
							"type": "address"
						},
						{
							"internalType": "address",
							"name": "_tokenY",
							"type": "address"
						},
						{
							"internalType": "uint256",
							"name": "_lpTokenId",
							"type": "uint256"
						},
						{
							"internalType": "uint256",
							"name": "_deadline",
							"type": "uint256"
						}
					],
					"name": "removeLiquidityETH",
					"outputs": [
						{
							"internalType": "uint256",
							"name": "nftAmount",
							"type": "uint256"
						},
						{
							"internalType": "uint256",
							"name": "ftAmount",
							"type": "uint256"
						}
					],
					"stateMutability": "nonpayable",
					"type": "function"
				},
				{
					"inputs": [],
					"name": "royaltyEngine",
					"outputs": [
						{
							"internalType": "contract IRoyaltyEngineV1",
							"name": "",
							"type": "address"
						}
					],
					"stateMutability": "view",
					"type": "function"
				},
				{
					"inputs": [
						{
							"internalType": "address",
							"name": "_tokenX",
							"type": "address"
						},
						{
							"internalType": "address",
							"name": "_tokenY",
							"type": "address"
						},
						{
							"internalType": "uint256[]",
							"name": "_tokenIds",
							"type": "uint256[]"
						},
						{
							"internalType": "uint256",
							"name": "_deadline",
							"type": "uint256"
						}
					],
					"name": "sellItems",
					"outputs": [
						{
							"internalType": "uint256",
							"name": "_ftAmount",
							"type": "uint256"
						}
					],
					"stateMutability": "nonpayable",
					"type": "function"
				},
				{
					"inputs": [
						{
							"internalType": "address",
							"name": "_tokenX",
							"type": "address"
						},
						{
							"internalType": "address",
							"name": "_tokenY",
							"type": "address"
						},
						{
							"internalType": "uint256[]",
							"name": "_tokenIds",
							"type": "uint256[]"
						},
						{
							"internalType": "uint256",
							"name": "_deadline",
							"type": "uint256"
						}
					],
					"name": "sellItemsToETH",
					"outputs": [
						{
							"internalType": "uint256",
							"name": "_ftAmount",
							"type": "uint256"
						}
					],
					"stateMutability": "payable",
					"type": "function"
				},
				{
					"inputs": [],
					"name": "weth",
					"outputs": [
						{
							"internalType": "contract IWETH",
							"name": "",
							"type": "address"
						}
					],
					"stateMutability": "view",
					"type": "function"
				},
				{
					"stateMutability": "payable",
					"type": "receive"
				}
			],
			"devdoc": {
				"author": "midaswap",
				"kind": "dev",
				"methods": {},
				"title": "Midas Router",
				"version": 1
			},
			"evm": {
				"assembly": "    /* \"Midas/Midas_main/src/MidasRouter.sol\":576:9371  contract MidasRouter is IMidasRouter {... */\n  mstore(0x40, 0x80)\n    /* \"Midas/Midas_main/src/MidasRouter.sol\":999:1212  constructor (... */\n  callvalue\n  dup1\n  iszero\n  tag_1\n  jumpi\n  0x00\n  dup1\n  revert\ntag_1:\n  pop\n  mload(0x40)\n  sub(codesize, bytecodeSize)\n  dup1\n  bytecodeSize\n  dup4\n  codecopy\n  dup2\n  add\n  0x40\n  dup2\n  swap1\n  mstore\n  tag_2\n  swap2\n  tag_3\n  jump\t// in\ntag_2:\n    /* \"Midas/Midas_main/src/MidasRouter.sol\":1125:1132  factory */\n  0x00\n    /* \"Midas/Midas_main/src/MidasRouter.sol\":1125:1143  factory = _factory */\n  dup1\n  sload\n  sub(shl(0xa0, 0x01), 0x01)\n  swap5\n  dup6\n  and\n  not(sub(shl(0xa0, 0x01), 0x01))\n  swap2\n  dup3\n  and\n  or\n  swap1\n  swap2\n  sstore\n  0x01\n    /* \"Midas/Midas_main/src/MidasRouter.sol\":1153:1165  weth = _weth */\n  dup1\n  sload\n  swap4\n  dup6\n  and\n  swap4\n  dup3\n  and\n  swap4\n  swap1\n  swap4\n  or\n  swap1\n  swap3\n  sstore\n    /* \"Midas/Midas_main/src/MidasRouter.sol\":1175:1188  royaltyEngine */\n  0x02\n    /* \"Midas/Midas_main/src/MidasRouter.sol\":1175:1205  royaltyEngine = _royaltyEngine */\n  dup1\n  sload\n  swap2\n  swap1\n  swap4\n  and\n  swap2\n  and\n  or\n  swap1\n  sstore\n    /* \"Midas/Midas_main/src/MidasRouter.sol\":576:9371  contract MidasRouter is IMidasRouter {... */\n  jump(tag_8)\n    /* \"#utility.yul\":14:163   */\ntag_7:\n  sub(shl(0xa0, 0x01), 0x01)\n    /* \"#utility.yul\":107:138   */\n  dup2\n  and\n    /* \"#utility.yul\":97:139   */\n  dup2\n  eq\n    /* \"#utility.yul\":87:157   */\n  tag_10\n  jumpi\n    /* \"#utility.yul\":153:154   */\n  0x00\n    /* \"#utility.yul\":150:151   */\n  dup1\n    /* \"#utility.yul\":143:155   */\n  revert\n    /* \"#utility.yul\":87:157   */\ntag_10:\n    /* \"#utility.yul\":14:163   */\n  pop\n  jump\t// out\n    /* \"#utility.yul\":168:805   */\ntag_3:\n    /* \"#utility.yul\":320:326   */\n  0x00\n    /* \"#utility.yul\":328:334   */\n  dup1\n    /* \"#utility.yul\":336:342   */\n  0x00\n    /* \"#utility.yul\":389:391   */\n  0x60\n    /* \"#utility.yul\":377:386   */\n  dup5\n    /* \"#utility.yul\":368:375   */\n  dup7\n    /* \"#utility.yul\":364:387   */\n  sub\n    /* \"#utility.yul\":360:392   */\n  slt\n    /* \"#utility.yul\":357:409   */\n  iszero\n  tag_12\n  jumpi\n    /* \"#utility.yul\":405:406   */\n  0x00\n    /* \"#utility.yul\":402:403   */\n  dup1\n    /* \"#utility.yul\":395:407   */\n  revert\n    /* \"#utility.yul\":357:409   */\ntag_12:\n    /* \"#utility.yul\":437:446   */\n  dup4\n    /* \"#utility.yul\":431:447   */\n  mload\n    /* \"#utility.yul\":456:505   */\n  tag_13\n    /* \"#utility.yul\":499:504   */\n  dup2\n    /* \"#utility.yul\":456:505   */\n  tag_7\n  jump\t// in\ntag_13:\n    /* \"#utility.yul\":574:576   */\n  0x20\n    /* \"#utility.yul\":559:577   */\n  dup6\n  add\n    /* \"#utility.yul\":553:578   */\n  mload\n    /* \"#utility.yul\":524:529   */\n  swap1\n  swap4\n  pop\n    /* \"#utility.yul\":587:638   */\n  tag_14\n    /* \"#utility.yul\":553:578   */\n  dup2\n    /* \"#utility.yul\":587:638   */\n  tag_7\n  jump\t// in\ntag_14:\n    /* \"#utility.yul\":709:711   */\n  0x40\n    /* \"#utility.yul\":694:712   */\n  dup6\n  add\n    /* \"#utility.yul\":688:713   */\n  mload\n    /* \"#utility.yul\":657:664   */\n  swap1\n  swap3\n  pop\n    /* \"#utility.yul\":722:773   */\n  tag_15\n    /* \"#utility.yul\":688:713   */\n  dup2\n    /* \"#utility.yul\":722:773   */\n  tag_7\n  jump\t// in\ntag_15:\n    /* \"#utility.yul\":792:799   */\n  dup1\n    /* \"#utility.yul\":782:799   */\n  swap2\n  pop\n  pop\n    /* \"#utility.yul\":168:805   */\n  swap3\n  pop\n  swap3\n  pop\n  swap3\n  jump\t// out\ntag_8:\n    /* \"Midas/Midas_main/src/MidasRouter.sol\":576:9371  contract MidasRouter is IMidasRouter {... */\n  dataSize(sub_0)\n  dup1\n  dataOffset(sub_0)\n  0x00\n  codecopy\n  0x00\n  return\nstop\n\nsub_0: assembly {\n        /* \"Midas/Midas_main/src/MidasRouter.sol\":576:9371  contract MidasRouter is IMidasRouter {... */\n      mstore(0x40, 0x80)\n      jumpi(tag_1, lt(calldatasize, 0x04))\n      shr(0xe0, calldataload(0x00))\n      dup1\n      0x0ebd4ed5\n      eq\n      tag_3\n      jumpi\n      dup1\n      0x34497dec\n      eq\n      tag_4\n      jumpi\n      dup1\n      0x3ee7f9d3\n      eq\n      tag_5\n      jumpi\n      dup1\n      0x3fc8cef3\n      eq\n      tag_6\n      jumpi\n      dup1\n      0x4c818ab8\n      eq\n      tag_7\n      jumpi\n      dup1\n      0x4c94c90c\n      eq\n      tag_8\n      jumpi\n      dup1\n      0x5e7cb8e0\n      eq\n      tag_9\n      jumpi\n      dup1\n      0x617e1c59\n      eq\n      tag_10\n      jumpi\n      dup1\n      0x71c3de2a\n      eq\n      tag_11\n      jumpi\n      dup1\n      0x8fb8609a\n      eq\n      tag_12\n      jumpi\n      dup1\n      0x99cc3501\n      eq\n      tag_13\n      jumpi\n      dup1\n      0x9dd91dd7\n      eq\n      tag_14\n      jumpi\n      dup1\n      0xabef0340\n      eq\n      tag_15\n      jumpi\n      dup1\n      0xc45a0155\n      eq\n      tag_16\n      jumpi\n      dup1\n      0xfedf4fa1\n      eq\n      tag_17\n      jumpi\n      0x00\n      dup1\n      revert\n    tag_1:\n      jumpi(tag_2, calldatasize)\n        /* \"Midas/Midas_main/src/MidasRouter.sol\":1284:1288  weth */\n      and(sub(shl(0xa0, 0x01), 0x01), sload(0x01))\n        /* \"Midas/Midas_main/src/MidasRouter.sol\":1262:1272  msg.sender */\n      caller\n        /* \"Midas/Midas_main/src/MidasRouter.sol\":1262:1289  msg.sender == address(weth) */\n      eq\n        /* \"Midas/Midas_main/src/MidasRouter.sol\":1255:1290  assert(msg.sender == address(weth)) */\n      tag_21\n      jumpi\n      tag_21\n      tag_22\n      jump\t// in\n    tag_21:\n        /* \"Midas/Midas_main/src/MidasRouter.sol\":576:9371  contract MidasRouter is IMidasRouter {... */\n      stop\n    tag_2:\n      0x00\n      dup1\n      revert\n        /* \"Midas/Midas_main/src/MidasRouter.sol\":7244:7795  function openLimitOrder(... */\n    tag_3:\n      callvalue\n      dup1\n      iszero\n      tag_23\n      jumpi\n      0x00\n      dup1\n      revert\n    tag_23:\n      pop\n      tag_24\n      tag_25\n      calldatasize\n      0x04\n      tag_26\n      jump\t// in\n    tag_25:\n      tag_27\n      jump\t// in\n    tag_24:\n      0x40\n      dup1\n      mload\n        /* \"#utility.yul\":1948:1973   */\n      swap3\n      dup4\n      mstore\n        /* \"#utility.yul\":2004:2006   */\n      0x20\n        /* \"#utility.yul\":1989:2007   */\n      dup4\n      add\n        /* \"#utility.yul\":1982:2016   */\n      swap2\n      swap1\n      swap2\n      mstore\n        /* \"#utility.yul\":1921:1939   */\n      add\n        /* \"Midas/Midas_main/src/MidasRouter.sol\":7244:7795  function openLimitOrder(... */\n    tag_28:\n      mload(0x40)\n      dup1\n      swap2\n      sub\n      swap1\n      return\n        /* \"Midas/Midas_main/src/MidasRouter.sol\":1593:2149  function addLiquidityERC721(... */\n    tag_4:\n      callvalue\n      dup1\n      iszero\n      tag_30\n      jumpi\n      0x00\n      dup1\n      revert\n    tag_30:\n      pop\n      tag_24\n      tag_32\n      calldatasize\n      0x04\n      tag_26\n      jump\t// in\n    tag_32:\n      tag_33\n      jump\t// in\n        /* \"Midas/Midas_main/src/MidasRouter.sol\":3322:3971  function removeLiquidity(... */\n    tag_5:\n      callvalue\n      dup1\n      iszero\n      tag_35\n      jumpi\n      0x00\n      dup1\n      revert\n    tag_35:\n      pop\n      tag_24\n      tag_37\n      calldatasize\n      0x04\n      tag_38\n      jump\t// in\n    tag_37:\n      tag_39\n      jump\t// in\n        /* \"Midas/Midas_main/src/MidasRouter.sol\":804:821  IWETH public weth */\n    tag_6:\n      callvalue\n      dup1\n      iszero\n      tag_41\n      jumpi\n      0x00\n      dup1\n      revert\n    tag_41:\n      pop\n      sload(0x01)\n      tag_42\n      swap1\n      sub(shl(0xa0, 0x01), 0x01)\n      and\n      dup2\n      jump\n    tag_42:\n      mload(0x40)\n      sub(shl(0xa0, 0x01), 0x01)\n        /* \"#utility.yul\":2735:2767   */\n      swap1\n      swap2\n      and\n        /* \"#utility.yul\":2717:2768   */\n      dup2\n      mstore\n        /* \"#utility.yul\":2705:2707   */\n      0x20\n        /* \"#utility.yul\":2690:2708   */\n      add\n        /* \"Midas/Midas_main/src/MidasRouter.sol\":804:821  IWETH public weth */\n      tag_28\n        /* \"#utility.yul\":2557:2774   */\n      jump\n        /* \"Midas/Midas_main/src/MidasRouter.sol\":5276:5929  function sellItemsToETH(... */\n    tag_7:\n      tag_46\n      tag_47\n      calldatasize\n      0x04\n      tag_48\n      jump\t// in\n    tag_47:\n      tag_49\n      jump\t// in\n    tag_46:\n      mload(0x40)\n        /* \"#utility.yul\":3711:3736   */\n      swap1\n      dup2\n      mstore\n        /* \"#utility.yul\":3699:3701   */\n      0x20\n        /* \"#utility.yul\":3684:3702   */\n      add\n        /* \"Midas/Midas_main/src/MidasRouter.sol\":5276:5929  function sellItemsToETH(... */\n      tag_28\n        /* \"#utility.yul\":3565:3742   */\n      jump\n        /* \"Midas/Midas_main/src/MidasRouter.sol\":827:864  IRoyaltyEngineV1 public royaltyEngine */\n    tag_8:\n      callvalue\n      dup1\n      iszero\n      tag_52\n      jumpi\n      0x00\n      dup1\n      revert\n    tag_52:\n      pop\n      sload(0x02)\n      tag_42\n      swap1\n      sub(shl(0xa0, 0x01), 0x01)\n      and\n      dup2\n      jump\n        /* \"Midas/Midas_main/src/MidasRouter.sol\":8069:9037  function getMinAmountIn(... */\n    tag_9:\n      callvalue\n      dup1\n      iszero\n      tag_57\n      jumpi\n      0x00\n      dup1\n      revert\n    tag_57:\n      pop\n      tag_46\n      tag_59\n      calldatasize\n      0x04\n      tag_60\n      jump\t// in\n    tag_59:\n      tag_61\n      jump\t// in\n        /* \"Midas/Midas_main/src/MidasRouter.sol\":2733:3316  function addLiquidityETH(... */\n    tag_10:\n      tag_24\n      tag_64\n      calldatasize\n      0x04\n      tag_48\n      jump\t// in\n    tag_64:\n      tag_66\n      jump\t// in\n        /* \"Midas/Midas_main/src/MidasRouter.sol\":5935:6537  function buyItems(... */\n    tag_11:\n      callvalue\n      dup1\n      iszero\n      tag_68\n      jumpi\n      0x00\n      dup1\n      revert\n    tag_68:\n      pop\n      tag_46\n      tag_70\n      calldatasize\n      0x04\n      tag_48\n      jump\t// in\n    tag_70:\n      tag_71\n      jump\t// in\n        /* \"Midas/Midas_main/src/MidasRouter.sol\":2155:2727  function addLiquidityERC20(... */\n    tag_12:\n      callvalue\n      dup1\n      iszero\n      tag_73\n      jumpi\n      0x00\n      dup1\n      revert\n    tag_73:\n      pop\n      tag_24\n      tag_75\n      calldatasize\n      0x04\n      tag_48\n      jump\t// in\n    tag_75:\n      tag_76\n      jump\t// in\n        /* \"Midas/Midas_main/src/MidasRouter.sol\":4656:5270  function sellItems(... */\n    tag_13:\n      callvalue\n      dup1\n      iszero\n      tag_78\n      jumpi\n      0x00\n      dup1\n      revert\n    tag_78:\n      pop\n      tag_46\n      tag_80\n      calldatasize\n      0x04\n      tag_48\n      jump\t// in\n    tag_80:\n      tag_81\n      jump\t// in\n        /* \"Midas/Midas_main/src/MidasRouter.sol\":6543:7238  function buyItemsWithETH(... */\n    tag_14:\n      tag_46\n      tag_84\n      calldatasize\n      0x04\n      tag_48\n      jump\t// in\n    tag_84:\n      tag_85\n      jump\t// in\n        /* \"Midas/Midas_main/src/MidasRouter.sol\":7801:8063  function _getAmountsToAdd(... */\n    tag_15:\n      callvalue\n      dup1\n      iszero\n      tag_87\n      jumpi\n      0x00\n      dup1\n      revert\n    tag_87:\n      pop\n      tag_46\n      tag_89\n      calldatasize\n      0x04\n      tag_60\n      jump\t// in\n    tag_89:\n      tag_91\n      jump\t// in\n        /* \"Midas/Midas_main/src/MidasRouter.sol\":767:798  IMidasFactory721 public factory */\n    tag_16:\n      callvalue\n      dup1\n      iszero\n      tag_93\n      jumpi\n      0x00\n      dup1\n      revert\n    tag_93:\n      pop\n      sload(0x00)\n      tag_42\n      swap1\n      sub(shl(0xa0, 0x01), 0x01)\n      and\n      dup2\n      jump\n        /* \"Midas/Midas_main/src/MidasRouter.sol\":3977:4650  function removeLiquidityETH(... */\n    tag_17:\n      callvalue\n      dup1\n      iszero\n      tag_98\n      jumpi\n      0x00\n      dup1\n      revert\n    tag_98:\n      pop\n      tag_24\n      tag_100\n      calldatasize\n      0x04\n      tag_38\n      jump\t// in\n    tag_100:\n      tag_101\n      jump\t// in\n        /* \"Midas/Midas_main/src/MidasRouter.sol\":7244:7795  function openLimitOrder(... */\n    tag_27:\n        /* \"Midas/Midas_main/src/MidasRouter.sol\":7466:7482  uint256 idAmount */\n      0x00\n        /* \"Midas/Midas_main/src/MidasRouter.sol\":7484:7501  uint256 lpTokenId */\n      dup1\n        /* \"Midas/Midas_main/src/MidasRouter.sol\":7446:7455  _deadline */\n      dup3\n        /* \"Midas/Midas_main/src/MidasRouter.sol\":932:947  block.timestamp */\n      timestamp\n        /* \"Midas/Midas_main/src/MidasRouter.sol\":920:928  deadline */\n      dup2\n        /* \"Midas/Midas_main/src/MidasRouter.sol\":920:947  deadline >= block.timestamp */\n      lt\n      iszero\n        /* \"Midas/Midas_main/src/MidasRouter.sol\":912:975  require(deadline >= block.timestamp, 'MidaswapRouter: EXPIRED') */\n      tag_104\n      jumpi\n      mload(0x40)\n      shl(0xe5, 0x461bcd)\n      dup2\n      mstore\n      0x04\n      add\n      tag_105\n      swap1\n      tag_106\n      jump\t// in\n    tag_105:\n      mload(0x40)\n      dup1\n      swap2\n      sub\n      swap1\n      revert\n    tag_104:\n        /* \"Midas/Midas_main/src/MidasRouter.sol\":7513:7526  address _pair */\n      0x00\n        /* \"Midas/Midas_main/src/MidasRouter.sol\":7529:7536  factory */\n      dup1\n      sload\n        /* \"Midas/Midas_main/src/MidasRouter.sol\":7529:7568  factory.getPairERC721(_tokenX, _tokenY) */\n      mload(0x40)\n      shl(0xe0, 0x83d16e13)\n      dup2\n      mstore\n      sub(shl(0xa0, 0x01), 0x01)\n        /* \"Midas/Midas_main/src/MidasRouter.sol\":7529:7536  factory */\n      swap1\n      swap2\n      and\n      swap1\n        /* \"Midas/Midas_main/src/MidasRouter.sol\":7529:7550  factory.getPairERC721 */\n      0x83d16e13\n      swap1\n        /* \"Midas/Midas_main/src/MidasRouter.sol\":7529:7568  factory.getPairERC721(_tokenX, _tokenY) */\n      tag_108\n      swap1\n        /* \"Midas/Midas_main/src/MidasRouter.sol\":7551:7558  _tokenX */\n      dup15\n      swap1\n        /* \"Midas/Midas_main/src/MidasRouter.sol\":7560:7567  _tokenY */\n      dup15\n      swap1\n        /* \"Midas/Midas_main/src/MidasRouter.sol\":7529:7568  factory.getPairERC721(_tokenX, _tokenY) */\n      0x04\n      add\n      tag_109\n      jump\t// in\n    tag_108:\n      0x20\n      mload(0x40)\n      dup1\n      dup4\n      sub\n      dup2\n      dup7\n      gas\n      staticcall\n      iszero\n      dup1\n      iszero\n      tag_111\n      jumpi\n      returndatasize\n      0x00\n      dup1\n      returndatacopy\n      revert(0x00, returndatasize)\n    tag_111:\n      pop\n      pop\n      pop\n      pop\n      mload(0x40)\n      returndatasize\n      not(0x1f)\n      0x1f\n      dup3\n      add\n      and\n      dup3\n      add\n      dup1\n      0x40\n      mstore\n      pop\n      dup2\n      add\n      swap1\n      tag_112\n      swap2\n      swap1\n      tag_113\n      jump\t// in\n    tag_112:\n        /* \"Midas/Midas_main/src/MidasRouter.sol\":7513:7568  address _pair = factory.getPairERC721(_tokenX, _tokenY) */\n      swap1\n      pop\n        /* \"Midas/Midas_main/src/MidasRouter.sol\":7583:7589  uint i */\n      0x00\n        /* \"Midas/Midas_main/src/MidasRouter.sol\":7578:7692  for (uint i = 0; i < _tokenIds.length; i++) {... */\n    tag_114:\n        /* \"Midas/Midas_main/src/MidasRouter.sol\":7595:7615  i < _tokenIds.length */\n      dup7\n      dup2\n      lt\n        /* \"Midas/Midas_main/src/MidasRouter.sol\":7578:7692  for (uint i = 0; i < _tokenIds.length; i++) {... */\n      iszero\n      tag_115\n      jumpi\n        /* \"Midas/Midas_main/src/MidasRouter.sol\":7644:7651  _tokenX */\n      dup12\n      sub(shl(0xa0, 0x01), 0x01)\n        /* \"Midas/Midas_main/src/MidasRouter.sol\":7636:7660  IERC721(_tokenX).approve */\n      and\n      0x095ea7b3\n        /* \"Midas/Midas_main/src/MidasRouter.sol\":7661:7666  _pair */\n      dup4\n        /* \"Midas/Midas_main/src/MidasRouter.sol\":7668:7677  _tokenIds */\n      dup11\n      dup11\n        /* \"Midas/Midas_main/src/MidasRouter.sol\":7678:7679  i */\n      dup6\n        /* \"Midas/Midas_main/src/MidasRouter.sol\":7668:7680  _tokenIds[i] */\n      dup2\n      dup2\n      lt\n      tag_118\n      jumpi\n      tag_118\n      tag_119\n      jump\t// in\n    tag_118:\n      swap1\n      pop\n      0x20\n      mul\n      add\n      calldataload\n        /* \"Midas/Midas_main/src/MidasRouter.sol\":7636:7681  IERC721(_tokenX).approve(_pair, _tokenIds[i]) */\n      mload(0x40)\n      dup4\n      0xffffffff\n      and\n      0xe0\n      shl\n      dup2\n      mstore\n      0x04\n      add\n      tag_120\n      swap3\n      swap2\n      swap1\n      tag_121\n      jump\t// in\n    tag_120:\n      0x00\n      mload(0x40)\n      dup1\n      dup4\n      sub\n      dup2\n      0x00\n      dup8\n      dup1\n      extcodesize\n      iszero\n      dup1\n      iszero\n      tag_122\n      jumpi\n      0x00\n      dup1\n      revert\n    tag_122:\n      pop\n      gas\n      call\n      iszero\n      dup1\n      iszero\n      tag_124\n      jumpi\n      returndatasize\n      0x00\n      dup1\n      returndatacopy\n      revert(0x00, returndatasize)\n    tag_124:\n      pop\n      pop\n      pop\n      pop\n        /* \"Midas/Midas_main/src/MidasRouter.sol\":7617:7620  i++ */\n      dup1\n      dup1\n      tag_125\n      swap1\n      tag_126\n      jump\t// in\n    tag_125:\n      swap2\n      pop\n      pop\n        /* \"Midas/Midas_main/src/MidasRouter.sol\":7578:7692  for (uint i = 0; i < _tokenIds.length; i++) {... */\n      jump(tag_114)\n    tag_115:\n      pop\n        /* \"Midas/Midas_main/src/MidasRouter.sol\":7725:7788  IMidasPair721(_pair).mintNFT(_ids, _tokenIds, msg.sender, true) */\n      mload(0x40)\n      shl(0xe1, 0x68d68fd7)\n      dup2\n      mstore\n      sub(shl(0xa0, 0x01), 0x01)\n        /* \"Midas/Midas_main/src/MidasRouter.sol\":7725:7753  IMidasPair721(_pair).mintNFT */\n      dup3\n      and\n      swap1\n      0xd1ad1fae\n      swap1\n        /* \"Midas/Midas_main/src/MidasRouter.sol\":7725:7788  IMidasPair721(_pair).mintNFT(_ids, _tokenIds, msg.sender, true) */\n      tag_127\n      swap1\n        /* \"Midas/Midas_main/src/MidasRouter.sol\":7754:7758  _ids */\n      dup13\n      swap1\n      dup13\n      swap1\n        /* \"Midas/Midas_main/src/MidasRouter.sol\":7760:7769  _tokenIds */\n      dup13\n      swap1\n      dup13\n      swap1\n        /* \"Midas/Midas_main/src/MidasRouter.sol\":7771:7781  msg.sender */\n      caller\n      swap1\n        /* \"Midas/Midas_main/src/MidasRouter.sol\":7783:7787  true */\n      0x01\n      swap1\n        /* \"Midas/Midas_main/src/MidasRouter.sol\":7725:7788  IMidasPair721(_pair).mintNFT(_ids, _tokenIds, msg.sender, true) */\n      0x04\n      add\n      tag_128\n      jump\t// in\n    tag_127:\n      0x40\n      dup1\n      mload\n      dup1\n      dup4\n      sub\n      dup2\n      0x00\n      dup8\n      gas\n      call\n      iszero\n      dup1\n      iszero\n      tag_130\n      jumpi\n      returndatasize\n      0x00\n      dup1\n      returndatacopy\n      revert(0x00, returndatasize)\n    tag_130:\n      pop\n      pop\n      pop\n      pop\n      mload(0x40)\n      returndatasize\n      not(0x1f)\n      0x1f\n      dup3\n      add\n      and\n      dup3\n      add\n      dup1\n      0x40\n      mstore\n      pop\n      dup2\n      add\n      swap1\n      tag_131\n      swap2\n      swap1\n      tag_132\n      jump\t// in\n    tag_131:\n        /* \"Midas/Midas_main/src/MidasRouter.sol\":7701:7788  (idAmount, lpTokenId) = IMidasPair721(_pair).mintNFT(_ids, _tokenIds, msg.sender, true) */\n      swap1\n      swap13\n      swap1\n      swap12\n      pop\n        /* \"Midas/Midas_main/src/MidasRouter.sol\":7244:7795  function openLimitOrder(... */\n      swap10\n      pop\n      pop\n      pop\n      pop\n      pop\n      pop\n      pop\n      pop\n      pop\n      pop\n      jump\t// out\n        /* \"Midas/Midas_main/src/MidasRouter.sol\":1593:2149  function addLiquidityERC721(... */\n    tag_33:\n        /* \"Midas/Midas_main/src/MidasRouter.sol\":1819:1835  uint256 idAmount */\n      0x00\n        /* \"Midas/Midas_main/src/MidasRouter.sol\":1837:1854  uint256 lpTokenId */\n      dup1\n        /* \"Midas/Midas_main/src/MidasRouter.sol\":1799:1808  _deadline */\n      dup3\n        /* \"Midas/Midas_main/src/MidasRouter.sol\":932:947  block.timestamp */\n      timestamp\n        /* \"Midas/Midas_main/src/MidasRouter.sol\":920:928  deadline */\n      dup2\n        /* \"Midas/Midas_main/src/MidasRouter.sol\":920:947  deadline >= block.timestamp */\n      lt\n      iszero\n        /* \"Midas/Midas_main/src/MidasRouter.sol\":912:975  require(deadline >= block.timestamp, 'MidaswapRouter: EXPIRED') */\n      tag_134\n      jumpi\n      mload(0x40)\n      shl(0xe5, 0x461bcd)\n      dup2\n      mstore\n      0x04\n      add\n      tag_105\n      swap1\n      tag_106\n      jump\t// in\n    tag_134:\n        /* \"Midas/Midas_main/src/MidasRouter.sol\":1866:1879  address _pair */\n      0x00\n        /* \"Midas/Midas_main/src/MidasRouter.sol\":1882:1889  factory */\n      dup1\n      sload\n        /* \"Midas/Midas_main/src/MidasRouter.sol\":1882:1921  factory.getPairERC721(_tokenX, _tokenY) */\n      mload(0x40)\n      shl(0xe0, 0x83d16e13)\n      dup2\n      mstore\n      sub(shl(0xa0, 0x01), 0x01)\n        /* \"Midas/Midas_main/src/MidasRouter.sol\":1882:1889  factory */\n      swap1\n      swap2\n      and\n      swap1\n        /* \"Midas/Midas_main/src/MidasRouter.sol\":1882:1903  factory.getPairERC721 */\n      0x83d16e13\n      swap1\n        /* \"Midas/Midas_main/src/MidasRouter.sol\":1882:1921  factory.getPairERC721(_tokenX, _tokenY) */\n      tag_137\n      swap1\n        /* \"Midas/Midas_main/src/MidasRouter.sol\":1904:1911  _tokenX */\n      dup15\n      swap1\n        /* \"Midas/Midas_main/src/MidasRouter.sol\":1913:1920  _tokenY */\n      dup15\n      swap1\n        /* \"Midas/Midas_main/src/MidasRouter.sol\":1882:1921  factory.getPairERC721(_tokenX, _tokenY) */\n      0x04\n      add\n      tag_109\n      jump\t// in\n    tag_137:\n      0x20\n      mload(0x40)\n      dup1\n      dup4\n      sub\n      dup2\n      dup7\n      gas\n      staticcall\n      iszero\n      dup1\n      iszero\n      tag_139\n      jumpi\n      returndatasize\n      0x00\n      dup1\n      returndatacopy\n      revert(0x00, returndatasize)\n    tag_139:\n      pop\n      pop\n      pop\n      pop\n      mload(0x40)\n      returndatasize\n      not(0x1f)\n      0x1f\n      dup3\n      add\n      and\n      dup3\n      add\n      dup1\n      0x40\n      mstore\n      pop\n      dup2\n      add\n      swap1\n      tag_140\n      swap2\n      swap1\n      tag_113\n      jump\t// in\n    tag_140:\n        /* \"Midas/Midas_main/src/MidasRouter.sol\":1866:1921  address _pair = factory.getPairERC721(_tokenX, _tokenY) */\n      swap1\n      pop\n        /* \"Midas/Midas_main/src/MidasRouter.sol\":1936:1942  uint i */\n      0x00\n        /* \"Midas/Midas_main/src/MidasRouter.sol\":1931:2045  for (uint i = 0; i < _tokenIds.length; i++) {... */\n    tag_141:\n        /* \"Midas/Midas_main/src/MidasRouter.sol\":1948:1968  i < _tokenIds.length */\n      dup7\n      dup2\n      lt\n        /* \"Midas/Midas_main/src/MidasRouter.sol\":1931:2045  for (uint i = 0; i < _tokenIds.length; i++) {... */\n      iszero\n      tag_142\n      jumpi\n        /* \"Midas/Midas_main/src/MidasRouter.sol\":1997:2004  _tokenX */\n      dup12\n      sub(shl(0xa0, 0x01), 0x01)\n        /* \"Midas/Midas_main/src/MidasRouter.sol\":1989:2013  IERC721(_tokenX).approve */\n      and\n      0x095ea7b3\n        /* \"Midas/Midas_main/src/MidasRouter.sol\":2014:2019  _pair */\n      dup4\n        /* \"Midas/Midas_main/src/MidasRouter.sol\":2021:2030  _tokenIds */\n      dup11\n      dup11\n        /* \"Midas/Midas_main/src/MidasRouter.sol\":2031:2032  i */\n      dup6\n        /* \"Midas/Midas_main/src/MidasRouter.sol\":2021:2033  _tokenIds[i] */\n      dup2\n      dup2\n      lt\n      tag_145\n      jumpi\n      tag_145\n      tag_119\n      jump\t// in\n    tag_145:\n      swap1\n      pop\n      0x20\n      mul\n      add\n      calldataload\n        /* \"Midas/Midas_main/src/MidasRouter.sol\":1989:2034  IERC721(_tokenX).approve(_pair, _tokenIds[i]) */\n      mload(0x40)\n      dup4\n      0xffffffff\n      and\n      0xe0\n      shl\n      dup2\n      mstore\n      0x04\n      add\n      tag_146\n      swap3\n      swap2\n      swap1\n      tag_121\n      jump\t// in\n    tag_146:\n      0x00\n      mload(0x40)\n      dup1\n      dup4\n      sub\n      dup2\n      0x00\n      dup8\n      dup1\n      extcodesize\n      iszero\n      dup1\n      iszero\n      tag_147\n      jumpi\n      0x00\n      dup1\n      revert\n    tag_147:\n      pop\n      gas\n      call\n      iszero\n      dup1\n      iszero\n      tag_149\n      jumpi\n      returndatasize\n      0x00\n      dup1\n      returndatacopy\n      revert(0x00, returndatasize)\n    tag_149:\n      pop\n      pop\n      pop\n      pop\n        /* \"Midas/Midas_main/src/MidasRouter.sol\":1970:1973  i++ */\n      dup1\n      dup1\n      tag_150\n      swap1\n      tag_126\n      jump\t// in\n    tag_150:\n      swap2\n      pop\n      pop\n        /* \"Midas/Midas_main/src/MidasRouter.sol\":1931:2045  for (uint i = 0; i < _tokenIds.length; i++) {... */\n      jump(tag_141)\n    tag_142:\n      pop\n        /* \"Midas/Midas_main/src/MidasRouter.sol\":2078:2142  IMidasPair721(_pair).mintNFT(_ids, _tokenIds, msg.sender, false) */\n      mload(0x40)\n      shl(0xe1, 0x68d68fd7)\n      dup2\n      mstore\n      sub(shl(0xa0, 0x01), 0x01)\n        /* \"Midas/Midas_main/src/MidasRouter.sol\":2078:2106  IMidasPair721(_pair).mintNFT */\n      dup3\n      and\n      swap1\n      0xd1ad1fae\n      swap1\n        /* \"Midas/Midas_main/src/MidasRouter.sol\":2078:2142  IMidasPair721(_pair).mintNFT(_ids, _tokenIds, msg.sender, false) */\n      tag_127\n      swap1\n        /* \"Midas/Midas_main/src/MidasRouter.sol\":2107:2111  _ids */\n      dup13\n      swap1\n      dup13\n      swap1\n        /* \"Midas/Midas_main/src/MidasRouter.sol\":2113:2122  _tokenIds */\n      dup13\n      swap1\n      dup13\n      swap1\n        /* \"Midas/Midas_main/src/MidasRouter.sol\":2124:2134  msg.sender */\n      caller\n      swap1\n        /* \"Midas/Midas_main/src/MidasRouter.sol\":2136:2141  false */\n      0x00\n      swap1\n        /* \"Midas/Midas_main/src/MidasRouter.sol\":2078:2142  IMidasPair721(_pair).mintNFT(_ids, _tokenIds, msg.sender, false) */\n      0x04\n      add\n      tag_128\n      jump\t// in\n        /* \"Midas/Midas_main/src/MidasRouter.sol\":3322:3971  function removeLiquidity(... */\n    tag_39:\n        /* \"Midas/Midas_main/src/MidasRouter.sol\":3503:3520  uint256 nftAmount */\n      0x00\n        /* \"Midas/Midas_main/src/MidasRouter.sol\":3522:3538  uint256 ftAmount */\n      dup1\n        /* \"Midas/Midas_main/src/MidasRouter.sol\":3483:3492  _deadline */\n      dup3\n        /* \"Midas/Midas_main/src/MidasRouter.sol\":932:947  block.timestamp */\n      timestamp\n        /* \"Midas/Midas_main/src/MidasRouter.sol\":920:928  deadline */\n      dup2\n        /* \"Midas/Midas_main/src/MidasRouter.sol\":920:947  deadline >= block.timestamp */\n      lt\n      iszero\n        /* \"Midas/Midas_main/src/MidasRouter.sol\":912:975  require(deadline >= block.timestamp, 'MidaswapRouter: EXPIRED') */\n      tag_156\n      jumpi\n      mload(0x40)\n      shl(0xe5, 0x461bcd)\n      dup2\n      mstore\n      0x04\n      add\n      tag_105\n      swap1\n      tag_106\n      jump\t// in\n    tag_156:\n        /* \"Midas/Midas_main/src/MidasRouter.sol\":3577:3581  weth */\n      sload(0x01)\n      sub(shl(0xa0, 0x01), 0x01)\n        /* \"Midas/Midas_main/src/MidasRouter.sol\":3558:3582  _tokenY != address(weth) */\n      dup8\n      dup2\n      and\n        /* \"Midas/Midas_main/src/MidasRouter.sol\":3577:3581  weth */\n      swap2\n      and\n        /* \"Midas/Midas_main/src/MidasRouter.sol\":3558:3582  _tokenY != address(weth) */\n      eq\n      iszero\n        /* \"Midas/Midas_main/src/MidasRouter.sol\":3550:3610  require(_tokenY != address(weth), \"MIDASROUTER: WRONG PAIR\") */\n      tag_159\n      jumpi\n      mload(0x40)\n      shl(0xe5, 0x461bcd)\n      dup2\n      mstore\n      0x04\n      add\n      tag_105\n      swap1\n      tag_161\n      jump\t// in\n    tag_159:\n        /* \"Midas/Midas_main/src/MidasRouter.sol\":3620:3633  address _pair */\n      0x00\n        /* \"Midas/Midas_main/src/MidasRouter.sol\":3636:3643  factory */\n      dup1\n      sload\n        /* \"Midas/Midas_main/src/MidasRouter.sol\":3636:3675  factory.getPairERC721(_tokenX, _tokenY) */\n      mload(0x40)\n      shl(0xe0, 0x83d16e13)\n      dup2\n      mstore\n      sub(shl(0xa0, 0x01), 0x01)\n        /* \"Midas/Midas_main/src/MidasRouter.sol\":3636:3643  factory */\n      swap1\n      swap2\n      and\n      swap1\n        /* \"Midas/Midas_main/src/MidasRouter.sol\":3636:3657  factory.getPairERC721 */\n      0x83d16e13\n      swap1\n        /* \"Midas/Midas_main/src/MidasRouter.sol\":3636:3675  factory.getPairERC721(_tokenX, _tokenY) */\n      tag_162\n      swap1\n        /* \"Midas/Midas_main/src/MidasRouter.sol\":3658:3665  _tokenX */\n      dup12\n      swap1\n        /* \"Midas/Midas_main/src/MidasRouter.sol\":3667:3674  _tokenY */\n      dup12\n      swap1\n        /* \"Midas/Midas_main/src/MidasRouter.sol\":3636:3675  factory.getPairERC721(_tokenX, _tokenY) */\n      0x04\n      add\n      tag_109\n      jump\t// in\n    tag_162:\n      0x20\n      mload(0x40)\n      dup1\n      dup4\n      sub\n      dup2\n      dup7\n      gas\n      staticcall\n      iszero\n      dup1\n      iszero\n      tag_164\n      jumpi\n      returndatasize\n      0x00\n      dup1\n      returndatacopy\n      revert(0x00, returndatasize)\n    tag_164:\n      pop\n      pop\n      pop\n      pop\n      mload(0x40)\n      returndatasize\n      not(0x1f)\n      0x1f\n      dup3\n      add\n      and\n      dup3\n      add\n      dup1\n      0x40\n      mstore\n      pop\n      dup2\n      add\n      swap1\n      tag_165\n      swap2\n      swap1\n      tag_113\n      jump\t// in\n    tag_165:\n        /* \"Midas/Midas_main/src/MidasRouter.sol\":3685:3701  address _lpToken */\n      0x00\n        /* \"Midas/Midas_main/src/MidasRouter.sol\":3704:3711  factory */\n      dup1\n      sload\n        /* \"Midas/Midas_main/src/MidasRouter.sol\":3704:3746  factory.getLPTokenERC721(_tokenX, _tokenY) */\n      mload(0x40)\n      shl(0xe0, 0x65329a4f)\n      dup2\n      mstore\n        /* \"Midas/Midas_main/src/MidasRouter.sol\":3620:3675  address _pair = factory.getPairERC721(_tokenX, _tokenY) */\n      swap3\n      swap4\n      pop\n        /* \"Midas/Midas_main/src/MidasRouter.sol\":3685:3701  address _lpToken */\n      swap1\n      swap2\n      sub(shl(0xa0, 0x01), 0x01)\n        /* \"Midas/Midas_main/src/MidasRouter.sol\":3704:3711  factory */\n      swap1\n      swap2\n      and\n      swap1\n        /* \"Midas/Midas_main/src/MidasRouter.sol\":3704:3728  factory.getLPTokenERC721 */\n      0x65329a4f\n      swap1\n        /* \"Midas/Midas_main/src/MidasRouter.sol\":3704:3746  factory.getLPTokenERC721(_tokenX, _tokenY) */\n      tag_166\n      swap1\n        /* \"Midas/Midas_main/src/MidasRouter.sol\":3729:3736  _tokenX */\n      dup13\n      swap1\n        /* \"Midas/Midas_main/src/MidasRouter.sol\":3738:3745  _tokenY */\n      dup13\n      swap1\n        /* \"Midas/Midas_main/src/MidasRouter.sol\":3704:3746  factory.getLPTokenERC721(_tokenX, _tokenY) */\n      0x04\n      add\n      tag_109\n      jump\t// in\n    tag_166:\n      0x20\n      mload(0x40)\n      dup1\n      dup4\n      sub\n      dup2\n      dup7\n      gas\n      staticcall\n      iszero\n      dup1\n      iszero\n      tag_168\n      jumpi\n      returndatasize\n      0x00\n      dup1\n      returndatacopy\n      revert(0x00, returndatasize)\n    tag_168:\n      pop\n      pop\n      pop\n      pop\n      mload(0x40)\n      returndatasize\n      not(0x1f)\n      0x1f\n      dup3\n      add\n      and\n      dup3\n      add\n      dup1\n      0x40\n      mstore\n      pop\n      dup2\n      add\n      swap1\n      tag_169\n      swap2\n      swap1\n      tag_113\n      jump\t// in\n    tag_169:\n        /* \"Midas/Midas_main/src/MidasRouter.sol\":3756:3821  IERC721(_lpToken).safeTransferFrom(msg.sender, _pair, _lpTokenId) */\n      mload(0x40)\n      shl(0xe1, 0x21421707)\n      dup2\n      mstore\n        /* \"Midas/Midas_main/src/MidasRouter.sol\":3685:3746  address _lpToken = factory.getLPTokenERC721(_tokenX, _tokenY) */\n      swap1\n      swap2\n      pop\n      sub(shl(0xa0, 0x01), 0x01)\n        /* \"Midas/Midas_main/src/MidasRouter.sol\":3756:3790  IERC721(_lpToken).safeTransferFrom */\n      dup3\n      and\n      swap1\n      0x42842e0e\n      swap1\n        /* \"Midas/Midas_main/src/MidasRouter.sol\":3756:3821  IERC721(_lpToken).safeTransferFrom(msg.sender, _pair, _lpTokenId) */\n      tag_170\n      swap1\n        /* \"Midas/Midas_main/src/MidasRouter.sol\":3791:3801  msg.sender */\n      caller\n      swap1\n        /* \"Midas/Midas_main/src/MidasRouter.sol\":3803:3808  _pair */\n      dup7\n      swap1\n        /* \"Midas/Midas_main/src/MidasRouter.sol\":3810:3820  _lpTokenId */\n      dup13\n      swap1\n        /* \"Midas/Midas_main/src/MidasRouter.sol\":3756:3821  IERC721(_lpToken).safeTransferFrom(msg.sender, _pair, _lpTokenId) */\n      0x04\n      add\n      tag_171\n      jump\t// in\n    tag_170:\n      0x00\n      mload(0x40)\n      dup1\n      dup4\n      sub\n      dup2\n      0x00\n      dup8\n      dup1\n      extcodesize\n      iszero\n      dup1\n      iszero\n      tag_172\n      jumpi\n      0x00\n      dup1\n      revert\n    tag_172:\n      pop\n      gas\n      call\n      iszero\n      dup1\n      iszero\n      tag_174\n      jumpi\n      returndatasize\n      0x00\n      dup1\n      returndatacopy\n      revert(0x00, returndatasize)\n    tag_174:\n      pop\n      pop\n        /* \"Midas/Midas_main/src/MidasRouter.sol\":3855:3904  IMidasPair721(_pair).burn(_lpTokenId, msg.sender) */\n      mload(0x40)\n      shl(0xe2, 0x3f34d4cf)\n      dup2\n      mstore\n      sub(shl(0xa0, 0x01), 0x01)\n        /* \"Midas/Midas_main/src/MidasRouter.sol\":3855:3880  IMidasPair721(_pair).burn */\n      dup6\n      and\n      swap3\n      pop\n      0xfcd3533c\n      swap2\n      pop\n        /* \"Midas/Midas_main/src/MidasRouter.sol\":3855:3904  IMidasPair721(_pair).burn(_lpTokenId, msg.sender) */\n      tag_175\n      swap1\n        /* \"Midas/Midas_main/src/MidasRouter.sol\":3881:3891  _lpTokenId */\n      dup11\n      swap1\n        /* \"Midas/Midas_main/src/MidasRouter.sol\":3893:3903  msg.sender */\n      caller\n      swap1\n        /* \"Midas/Midas_main/src/MidasRouter.sol\":3855:3904  IMidasPair721(_pair).burn(_lpTokenId, msg.sender) */\n      0x04\n      add\n      tag_176\n      jump\t// in\n    tag_175:\n      0x40\n      dup1\n      mload\n      dup1\n      dup4\n      sub\n      dup2\n      0x00\n      dup8\n      gas\n      call\n      iszero\n      dup1\n      iszero\n      tag_178\n      jumpi\n      returndatasize\n      0x00\n      dup1\n      returndatacopy\n      revert(0x00, returndatasize)\n    tag_178:\n      pop\n      pop\n      pop\n      pop\n      mload(0x40)\n      returndatasize\n      not(0x1f)\n      0x1f\n      dup3\n      add\n      and\n      dup3\n      add\n      dup1\n      0x40\n      mstore\n      pop\n      dup2\n      add\n      swap1\n      tag_179\n      swap2\n      swap1\n      tag_132\n      jump\t// in\n    tag_179:\n        /* \"Midas/Midas_main/src/MidasRouter.sol\":3831:3904  (nftAmount, ftAmount) = IMidasPair721(_pair).burn(_lpTokenId, msg.sender) */\n      swap1\n      swap6\n      pop\n      swap4\n      pop\n        /* \"Midas/Midas_main/src/MidasRouter.sol\":3914:3964  IERC20(_tokenY).safeTransfer(msg.sender, ftAmount) */\n      tag_180\n      sub(shl(0xa0, 0x01), 0x01)\n        /* \"Midas/Midas_main/src/MidasRouter.sol\":3914:3942  IERC20(_tokenY).safeTransfer */\n      dup10\n      and\n        /* \"Midas/Midas_main/src/MidasRouter.sol\":3943:3953  msg.sender */\n      caller\n        /* \"Midas/Midas_main/src/MidasRouter.sol\":3831:3904  (nftAmount, ftAmount) = IMidasPair721(_pair).burn(_lpTokenId, msg.sender) */\n      dup7\n        /* \"Midas/Midas_main/src/MidasRouter.sol\":3914:3942  IERC20(_tokenY).safeTransfer */\n      tag_181\n        /* \"Midas/Midas_main/src/MidasRouter.sol\":3914:3964  IERC20(_tokenY).safeTransfer(msg.sender, ftAmount) */\n      jump\t// in\n    tag_180:\n        /* \"Midas/Midas_main/src/MidasRouter.sol\":3540:3971  {... */\n      pop\n      pop\n        /* \"Midas/Midas_main/src/MidasRouter.sol\":3322:3971  function removeLiquidity(... */\n      pop\n      swap5\n      pop\n      swap5\n      swap3\n      pop\n      pop\n      pop\n      jump\t// out\n        /* \"Midas/Midas_main/src/MidasRouter.sol\":5276:5929  function sellItemsToETH(... */\n    tag_49:\n        /* \"Midas/Midas_main/src/MidasRouter.sol\":5474:5491  uint256 _ftAmount */\n      0x00\n        /* \"Midas/Midas_main/src/MidasRouter.sol\":5454:5463  _deadline */\n      dup2\n        /* \"Midas/Midas_main/src/MidasRouter.sol\":932:947  block.timestamp */\n      timestamp\n        /* \"Midas/Midas_main/src/MidasRouter.sol\":920:928  deadline */\n      dup2\n        /* \"Midas/Midas_main/src/MidasRouter.sol\":920:947  deadline >= block.timestamp */\n      lt\n      iszero\n        /* \"Midas/Midas_main/src/MidasRouter.sol\":912:975  require(deadline >= block.timestamp, 'MidaswapRouter: EXPIRED') */\n      tag_183\n      jumpi\n      mload(0x40)\n      shl(0xe5, 0x461bcd)\n      dup2\n      mstore\n      0x04\n      add\n      tag_105\n      swap1\n      tag_106\n      jump\t// in\n    tag_183:\n        /* \"Midas/Midas_main/src/MidasRouter.sol\":5530:5534  weth */\n      sload(0x01)\n      sub(shl(0xa0, 0x01), 0x01)\n        /* \"Midas/Midas_main/src/MidasRouter.sol\":5511:5535  _tokenY == address(weth) */\n      dup8\n      dup2\n      and\n        /* \"Midas/Midas_main/src/MidasRouter.sol\":5530:5534  weth */\n      swap2\n      and\n        /* \"Midas/Midas_main/src/MidasRouter.sol\":5511:5535  _tokenY == address(weth) */\n      eq\n        /* \"Midas/Midas_main/src/MidasRouter.sol\":5503:5563  require(_tokenY == address(weth), \"MIDASROUTER: WRONG PAIR\") */\n      tag_186\n      jumpi\n      mload(0x40)\n      shl(0xe5, 0x461bcd)\n      dup2\n      mstore\n      0x04\n      add\n      tag_105\n      swap1\n      tag_161\n      jump\t// in\n    tag_186:\n        /* \"Midas/Midas_main/src/MidasRouter.sol\":5573:5586  address _pair */\n      0x00\n        /* \"Midas/Midas_main/src/MidasRouter.sol\":5589:5596  factory */\n      dup1\n      sload\n        /* \"Midas/Midas_main/src/MidasRouter.sol\":5589:5628  factory.getPairERC721(_tokenX, _tokenY) */\n      mload(0x40)\n      shl(0xe0, 0x83d16e13)\n      dup2\n      mstore\n      sub(shl(0xa0, 0x01), 0x01)\n        /* \"Midas/Midas_main/src/MidasRouter.sol\":5589:5596  factory */\n      swap1\n      swap2\n      and\n      swap1\n        /* \"Midas/Midas_main/src/MidasRouter.sol\":5589:5610  factory.getPairERC721 */\n      0x83d16e13\n      swap1\n        /* \"Midas/Midas_main/src/MidasRouter.sol\":5589:5628  factory.getPairERC721(_tokenX, _tokenY) */\n      tag_188\n      swap1\n        /* \"Midas/Midas_main/src/MidasRouter.sol\":5611:5618  _tokenX */\n      dup12\n      swap1\n        /* \"Midas/Midas_main/src/MidasRouter.sol\":5620:5627  _tokenY */\n      dup12\n      swap1\n        /* \"Midas/Midas_main/src/MidasRouter.sol\":5589:5628  factory.getPairERC721(_tokenX, _tokenY) */\n      0x04\n      add\n      tag_109\n      jump\t// in\n    tag_188:\n      0x20\n      mload(0x40)\n      dup1\n      dup4\n      sub\n      dup2\n      dup7\n      gas\n      staticcall\n      iszero\n      dup1\n      iszero\n      tag_190\n      jumpi\n      returndatasize\n      0x00\n      dup1\n      returndatacopy\n      revert(0x00, returndatasize)\n    tag_190:\n      pop\n      pop\n      pop\n      pop\n      mload(0x40)\n      returndatasize\n      not(0x1f)\n      0x1f\n      dup3\n      add\n      and\n      dup3\n      add\n      dup1\n      0x40\n      mstore\n      pop\n      dup2\n      add\n      swap1\n      tag_191\n      swap2\n      swap1\n      tag_113\n      jump\t// in\n    tag_191:\n        /* \"Midas/Midas_main/src/MidasRouter.sol\":5573:5628  address _pair = factory.getPairERC721(_tokenX, _tokenY) */\n      swap1\n      pop\n        /* \"Midas/Midas_main/src/MidasRouter.sol\":5643:5649  uint i */\n      0x00\n        /* \"Midas/Midas_main/src/MidasRouter.sol\":5638:5923  for (uint i = 0; i < _tokenIds.length; i++) {... */\n    tag_192:\n        /* \"Midas/Midas_main/src/MidasRouter.sol\":5655:5675  i < _tokenIds.length */\n      dup6\n      dup2\n      lt\n        /* \"Midas/Midas_main/src/MidasRouter.sol\":5638:5923  for (uint i = 0; i < _tokenIds.length; i++) {... */\n      iszero\n      tag_193\n      jumpi\n        /* \"Midas/Midas_main/src/MidasRouter.sol\":5704:5711  _tokenX */\n      dup9\n      sub(shl(0xa0, 0x01), 0x01)\n        /* \"Midas/Midas_main/src/MidasRouter.sol\":5696:5720  IERC721(_tokenX).approve */\n      and\n      0x095ea7b3\n        /* \"Midas/Midas_main/src/MidasRouter.sol\":5721:5726  _pair */\n      dup4\n        /* \"Midas/Midas_main/src/MidasRouter.sol\":5728:5737  _tokenIds */\n      dup10\n      dup10\n        /* \"Midas/Midas_main/src/MidasRouter.sol\":5738:5739  i */\n      dup6\n        /* \"Midas/Midas_main/src/MidasRouter.sol\":5728:5740  _tokenIds[i] */\n      dup2\n      dup2\n      lt\n      tag_196\n      jumpi\n      tag_196\n      tag_119\n      jump\t// in\n    tag_196:\n      swap1\n      pop\n      0x20\n      mul\n      add\n      calldataload\n        /* \"Midas/Midas_main/src/MidasRouter.sol\":5696:5741  IERC721(_tokenX).approve(_pair, _tokenIds[i]) */\n      mload(0x40)\n      dup4\n      0xffffffff\n      and\n      0xe0\n      shl\n      dup2\n      mstore\n      0x04\n      add\n      tag_197\n      swap3\n      swap2\n      swap1\n      tag_121\n      jump\t// in\n    tag_197:\n      0x00\n      mload(0x40)\n      dup1\n      dup4\n      sub\n      dup2\n      0x00\n      dup8\n      dup1\n      extcodesize\n      iszero\n      dup1\n      iszero\n      tag_198\n      jumpi\n      0x00\n      dup1\n      revert\n    tag_198:\n      pop\n      gas\n      call\n      iszero\n      dup1\n      iszero\n      tag_200\n      jumpi\n      returndatasize\n      0x00\n      dup1\n      returndatacopy\n      revert(0x00, returndatasize)\n    tag_200:\n      pop\n      pop\n      pop\n      pop\n        /* \"Midas/Midas_main/src/MidasRouter.sol\":5781:5786  _pair */\n      dup2\n      sub(shl(0xa0, 0x01), 0x01)\n        /* \"Midas/Midas_main/src/MidasRouter.sol\":5767:5795  IMidasPair721(_pair).sellNFT */\n      and\n      0x5728ad49\n        /* \"Midas/Midas_main/src/MidasRouter.sol\":5796:5805  _tokenIds */\n      dup9\n      dup9\n        /* \"Midas/Midas_main/src/MidasRouter.sol\":5806:5807  i */\n      dup5\n        /* \"Midas/Midas_main/src/MidasRouter.sol\":5796:5808  _tokenIds[i] */\n      dup2\n      dup2\n      lt\n      tag_202\n      jumpi\n      tag_202\n      tag_119\n      jump\t// in\n    tag_202:\n      swap1\n      pop\n      0x20\n      mul\n      add\n      calldataload\n        /* \"Midas/Midas_main/src/MidasRouter.sol\":5810:5820  msg.sender */\n      caller\n        /* \"Midas/Midas_main/src/MidasRouter.sol\":5767:5821  IMidasPair721(_pair).sellNFT(_tokenIds[i], msg.sender) */\n      mload(0x40)\n      dup4\n      0xffffffff\n      and\n      0xe0\n      shl\n      dup2\n      mstore\n      0x04\n      add\n      tag_203\n      swap3\n      swap2\n      swap1\n      tag_176\n      jump\t// in\n    tag_203:\n      0x20\n      mload(0x40)\n      dup1\n      dup4\n      sub\n      dup2\n      0x00\n      dup8\n      gas\n      call\n      iszero\n      dup1\n      iszero\n      tag_205\n      jumpi\n      returndatasize\n      0x00\n      dup1\n      returndatacopy\n      revert(0x00, returndatasize)\n    tag_205:\n      pop\n      pop\n      pop\n      pop\n      mload(0x40)\n      returndatasize\n      not(0x1f)\n      0x1f\n      dup3\n      add\n      and\n      dup3\n      add\n      dup1\n      0x40\n      mstore\n      pop\n      dup2\n      add\n      swap1\n      tag_206\n      swap2\n      swap1\n      tag_207\n      jump\t// in\n    tag_206:\n        /* \"Midas/Midas_main/src/MidasRouter.sol\":5835:5839  weth */\n      sload(0x01)\n        /* \"Midas/Midas_main/src/MidasRouter.sol\":5835:5859  weth.withdraw(_ftAmount) */\n      mload(0x40)\n      shl(0xe0, 0x2e1a7d4d)\n      dup2\n      mstore\n      0x04\n      dup2\n      add\n        /* \"#utility.yul\":3711:3736   */\n      dup4\n      swap1\n      mstore\n        /* \"Midas/Midas_main/src/MidasRouter.sol\":5755:5821  _ftAmount = IMidasPair721(_pair).sellNFT(_tokenIds[i], msg.sender) */\n      swap2\n      swap6\n      pop\n      sub(shl(0xa0, 0x01), 0x01)\n        /* \"Midas/Midas_main/src/MidasRouter.sol\":5835:5839  weth */\n      and\n      swap1\n        /* \"Midas/Midas_main/src/MidasRouter.sol\":5835:5848  weth.withdraw */\n      0x2e1a7d4d\n      swap1\n        /* \"#utility.yul\":3684:3702   */\n      0x24\n      add\n        /* \"Midas/Midas_main/src/MidasRouter.sol\":5835:5859  weth.withdraw(_ftAmount) */\n      0x00\n      mload(0x40)\n      dup1\n      dup4\n      sub\n      dup2\n      0x00\n      dup8\n      dup1\n      extcodesize\n      iszero\n      dup1\n      iszero\n      tag_209\n      jumpi\n      0x00\n      dup1\n      revert\n    tag_209:\n      pop\n      gas\n      call\n      iszero\n      dup1\n      iszero\n      tag_211\n      jumpi\n      returndatasize\n      0x00\n      dup1\n      returndatacopy\n      revert(0x00, returndatasize)\n    tag_211:\n      pop\n      pop\n      pop\n      pop\n        /* \"Midas/Midas_main/src/MidasRouter.sol\":5873:5912  _safeTransferETH(msg.sender, _ftAmount) */\n      tag_212\n        /* \"Midas/Midas_main/src/MidasRouter.sol\":5890:5900  msg.sender */\n      caller\n        /* \"Midas/Midas_main/src/MidasRouter.sol\":5902:5911  _ftAmount */\n      dup6\n        /* \"Midas/Midas_main/src/MidasRouter.sol\":5873:5889  _safeTransferETH */\n      tag_213\n        /* \"Midas/Midas_main/src/MidasRouter.sol\":5873:5912  _safeTransferETH(msg.sender, _ftAmount) */\n      jump\t// in\n    tag_212:\n        /* \"Midas/Midas_main/src/MidasRouter.sol\":5677:5680  i++ */\n      dup1\n      tag_214\n      dup2\n      tag_126\n      jump\t// in\n    tag_214:\n      swap2\n      pop\n      pop\n        /* \"Midas/Midas_main/src/MidasRouter.sol\":5638:5923  for (uint i = 0; i < _tokenIds.length; i++) {... */\n      jump(tag_192)\n    tag_193:\n      pop\n        /* \"Midas/Midas_main/src/MidasRouter.sol\":5493:5929  {... */\n      pop\n        /* \"Midas/Midas_main/src/MidasRouter.sol\":5276:5929  function sellItemsToETH(... */\n      pop\n      swap6\n      swap5\n      pop\n      pop\n      pop\n      pop\n      pop\n      jump\t// out\n        /* \"Midas/Midas_main/src/MidasRouter.sol\":8069:9037  function getMinAmountIn(... */\n    tag_61:\n        /* \"Midas/Midas_main/src/MidasRouter.sol\":8181:8200  uint256 totalAmount */\n      0x00\n      dup1\n        /* \"Midas/Midas_main/src/MidasRouter.sol\":8252:8261  _tokenIds */\n      dup3\n      sub(shl(0x40, 0x01), 0x01)\n        /* \"Midas/Midas_main/src/MidasRouter.sol\":8238:8269  new uint256[](_tokenIds.length) */\n      dup2\n      gt\n      iszero\n      tag_217\n      jumpi\n      tag_217\n      tag_218\n      jump\t// in\n    tag_217:\n      mload(0x40)\n      swap1\n      dup1\n      dup3\n      mstore\n      dup1\n      0x20\n      mul\n      0x20\n      add\n      dup3\n      add\n      0x40\n      mstore\n      dup1\n      iszero\n      tag_219\n      jumpi\n      dup2\n      0x20\n      add\n      0x20\n      dup3\n      mul\n      dup1\n      calldatasize\n      dup4\n      calldatacopy\n      add\n      swap1\n      pop\n    tag_219:\n      pop\n        /* \"Midas/Midas_main/src/MidasRouter.sol\":8212:8269  uint256[] memory lpList = new uint256[](_tokenIds.length) */\n      swap1\n      pop\n        /* \"Midas/Midas_main/src/MidasRouter.sol\":8284:8290  uint i */\n      0x00\n        /* \"Midas/Midas_main/src/MidasRouter.sol\":8279:8407  for (uint i = 0; i < _tokenIds.length; ++i) {... */\n    tag_220:\n        /* \"Midas/Midas_main/src/MidasRouter.sol\":8296:8316  i < _tokenIds.length */\n      dup4\n      dup2\n      lt\n        /* \"Midas/Midas_main/src/MidasRouter.sol\":8279:8407  for (uint i = 0; i < _tokenIds.length; ++i) {... */\n      iszero\n      tag_221\n      jumpi\n        /* \"Midas/Midas_main/src/MidasRouter.sol\":8363:8368  _pair */\n      dup6\n      sub(shl(0xa0, 0x01), 0x01)\n        /* \"Midas/Midas_main/src/MidasRouter.sol\":8349:8382  IMidasPair721(_pair).getLPFromNFT */\n      and\n      0xc88dd271\n        /* \"Midas/Midas_main/src/MidasRouter.sol\":8383:8392  _tokenIds */\n      dup7\n      dup7\n        /* \"Midas/Midas_main/src/MidasRouter.sol\":8393:8394  i */\n      dup5\n        /* \"Midas/Midas_main/src/MidasRouter.sol\":8383:8395  _tokenIds[i] */\n      dup2\n      dup2\n      lt\n      tag_224\n      jumpi\n      tag_224\n      tag_119\n      jump\t// in\n    tag_224:\n      swap1\n      pop\n      0x20\n      mul\n      add\n      calldataload\n        /* \"Midas/Midas_main/src/MidasRouter.sol\":8349:8396  IMidasPair721(_pair).getLPFromNFT(_tokenIds[i]) */\n      mload(0x40)\n      dup3\n      0xffffffff\n      and\n      0xe0\n      shl\n      dup2\n      mstore\n      0x04\n      add\n      tag_225\n      swap2\n        /* \"#utility.yul\":3711:3736   */\n      dup2\n      mstore\n        /* \"#utility.yul\":3699:3701   */\n      0x20\n        /* \"#utility.yul\":3684:3702   */\n      add\n      swap1\n        /* \"#utility.yul\":3565:3742   */\n      jump\n        /* \"Midas/Midas_main/src/MidasRouter.sol\":8349:8396  IMidasPair721(_pair).getLPFromNFT(_tokenIds[i]) */\n    tag_225:\n      0x20\n      mload(0x40)\n      dup1\n      dup4\n      sub\n      dup2\n      dup7\n      gas\n      staticcall\n      iszero\n      dup1\n      iszero\n      tag_227\n      jumpi\n      returndatasize\n      0x00\n      dup1\n      returndatacopy\n      revert(0x00, returndatasize)\n    tag_227:\n      pop\n      pop\n      pop\n      pop\n      mload(0x40)\n      returndatasize\n      not(0x1f)\n      0x1f\n      dup3\n      add\n      and\n      dup3\n      add\n      dup1\n      0x40\n      mstore\n      pop\n      dup2\n      add\n      swap1\n      tag_228\n      swap2\n      swap1\n      tag_207\n      jump\t// in\n    tag_228:\n        /* \"Midas/Midas_main/src/MidasRouter.sol\":8337:8343  lpList */\n      dup3\n        /* \"Midas/Midas_main/src/MidasRouter.sol\":8344:8345  i */\n      dup3\n        /* \"Midas/Midas_main/src/MidasRouter.sol\":8337:8346  lpList[i] */\n      dup2\n      mload\n      dup2\n      lt\n      tag_230\n      jumpi\n      tag_230\n      tag_119\n      jump\t// in\n    tag_230:\n      0x20\n      swap1\n      dup2\n      mul\n      swap2\n      swap1\n      swap2\n      add\n      add\n        /* \"Midas/Midas_main/src/MidasRouter.sol\":8337:8396  lpList[i] = IMidasPair721(_pair).getLPFromNFT(_tokenIds[i]) */\n      mstore\n        /* \"Midas/Midas_main/src/MidasRouter.sol\":8318:8321  ++i */\n      tag_231\n      dup2\n      tag_126\n      jump\t// in\n    tag_231:\n      swap1\n      pop\n        /* \"Midas/Midas_main/src/MidasRouter.sol\":8279:8407  for (uint i = 0; i < _tokenIds.length; ++i) {... */\n      jump(tag_220)\n    tag_221:\n      pop\n        /* \"Midas/Midas_main/src/MidasRouter.sol\":8425:8453  PriceHelper.sortDesc(lpList) */\n      mload(0x40)\n      shl(0xe0, 0x9d13c02f)\n      dup2\n      mstore\n        /* \"Midas/Midas_main/src/MidasRouter.sol\":8425:8436  PriceHelper */\n      linkerSymbol(\"b24f86d5d090f844bba29ee734626016d72218a09dfbdaae1be6fa22d204bfd3\")\n      swap1\n        /* \"Midas/Midas_main/src/MidasRouter.sol\":8425:8445  PriceHelper.sortDesc */\n      0x9d13c02f\n      swap1\n        /* \"Midas/Midas_main/src/MidasRouter.sol\":8425:8453  PriceHelper.sortDesc(lpList) */\n      tag_232\n      swap1\n        /* \"Midas/Midas_main/src/MidasRouter.sol\":8446:8452  lpList */\n      dup5\n      swap1\n        /* \"Midas/Midas_main/src/MidasRouter.sol\":8425:8453  PriceHelper.sortDesc(lpList) */\n      0x04\n      add\n      tag_233\n      jump\t// in\n    tag_232:\n      0x00\n      mload(0x40)\n      dup1\n      dup4\n      sub\n      dup2\n      dup7\n      gas\n      delegatecall\n      iszero\n      dup1\n      iszero\n      tag_235\n      jumpi\n      returndatasize\n      0x00\n      dup1\n      returndatacopy\n      revert(0x00, returndatasize)\n    tag_235:\n      pop\n      pop\n      pop\n      pop\n      mload(0x40)\n      returndatasize\n      0x00\n      dup3\n      returndatacopy\n      0x1f\n      returndatasize\n      swap1\n      dup2\n      add\n      not(0x1f)\n      and\n      dup3\n      add\n      0x40\n      mstore\n      tag_236\n      swap2\n      swap1\n      dup2\n      add\n      swap1\n      tag_237\n      jump\t// in\n    tag_236:\n        /* \"Midas/Midas_main/src/MidasRouter.sol\":8416:8453  lpList = PriceHelper.sortDesc(lpList) */\n      swap1\n      pop\n        /* \"Midas/Midas_main/src/MidasRouter.sol\":8472:8489  uint24 _activeBin */\n      0x00\n        /* \"Midas/Midas_main/src/MidasRouter.sol\":8499:8514  uint24 _binStep */\n      dup1\n        /* \"Midas/Midas_main/src/MidasRouter.sol\":8528:8534  uint i */\n      0x00\n        /* \"Midas/Midas_main/src/MidasRouter.sol\":8524:8871  for(uint i = 0; i < lpList.length; ++i){... */\n    tag_238:\n        /* \"Midas/Midas_main/src/MidasRouter.sol\":8544:8550  lpList */\n      dup4\n        /* \"Midas/Midas_main/src/MidasRouter.sol\":8544:8557  lpList.length */\n      mload\n        /* \"Midas/Midas_main/src/MidasRouter.sol\":8540:8541  i */\n      dup2\n        /* \"Midas/Midas_main/src/MidasRouter.sol\":8540:8557  i < lpList.length */\n      lt\n        /* \"Midas/Midas_main/src/MidasRouter.sol\":8524:8871  for(uint i = 0; i < lpList.length; ++i){... */\n      iszero\n      tag_239\n      jumpi\n        /* \"Midas/Midas_main/src/MidasRouter.sol\":8585:8586  0 */\n      0x00\n        /* \"Midas/Midas_main/src/MidasRouter.sol\":8581:8582  i */\n      dup2\n        /* \"Midas/Midas_main/src/MidasRouter.sol\":8581:8586  i > 0 */\n      gt\n        /* \"Midas/Midas_main/src/MidasRouter.sol\":8581:8616  i > 0 && lpList[i] == lpList[i - 1] */\n      dup1\n      iszero\n      tag_241\n      jumpi\n      pop\n        /* \"Midas/Midas_main/src/MidasRouter.sol\":8603:8609  lpList */\n      dup4\n        /* \"Midas/Midas_main/src/MidasRouter.sol\":8610:8615  i - 1 */\n      tag_242\n        /* \"Midas/Midas_main/src/MidasRouter.sol\":8614:8615  1 */\n      0x01\n        /* \"Midas/Midas_main/src/MidasRouter.sol\":8610:8611  i */\n      dup4\n        /* \"Midas/Midas_main/src/MidasRouter.sol\":8610:8615  i - 1 */\n      tag_243\n      jump\t// in\n    tag_242:\n        /* \"Midas/Midas_main/src/MidasRouter.sol\":8603:8616  lpList[i - 1] */\n      dup2\n      mload\n      dup2\n      lt\n      tag_245\n      jumpi\n      tag_245\n      tag_119\n      jump\t// in\n    tag_245:\n      0x20\n      mul\n      0x20\n      add\n      add\n      mload\n        /* \"Midas/Midas_main/src/MidasRouter.sol\":8590:8596  lpList */\n      dup5\n        /* \"Midas/Midas_main/src/MidasRouter.sol\":8597:8598  i */\n      dup3\n        /* \"Midas/Midas_main/src/MidasRouter.sol\":8590:8599  lpList[i] */\n      dup2\n      mload\n      dup2\n      lt\n      tag_247\n      jumpi\n      tag_247\n      tag_119\n      jump\t// in\n    tag_247:\n      0x20\n      mul\n      0x20\n      add\n      add\n      mload\n        /* \"Midas/Midas_main/src/MidasRouter.sol\":8590:8616  lpList[i] == lpList[i - 1] */\n      eq\n        /* \"Midas/Midas_main/src/MidasRouter.sol\":8581:8616  i > 0 && lpList[i] == lpList[i - 1] */\n    tag_241:\n        /* \"Midas/Midas_main/src/MidasRouter.sol\":8577:8784  if (i > 0 && lpList[i] == lpList[i - 1]){... */\n      iszero\n      tag_248\n      jumpi\n        /* \"Midas/Midas_main/src/MidasRouter.sol\":8635:8657  _activeBin += _binStep */\n      tag_249\n        /* \"Midas/Midas_main/src/MidasRouter.sol\":8649:8657  _binStep */\n      dup3\n        /* \"Midas/Midas_main/src/MidasRouter.sol\":8635:8657  _activeBin += _binStep */\n      dup5\n      tag_250\n      jump\t// in\n    tag_249:\n      swap3\n      pop\n        /* \"Midas/Midas_main/src/MidasRouter.sol\":8577:8784  if (i > 0 && lpList[i] == lpList[i - 1]){... */\n      jump(tag_251)\n    tag_248:\n        /* \"Midas/Midas_main/src/MidasRouter.sol\":8734:8739  _pair */\n      dup8\n      sub(shl(0xa0, 0x01), 0x01)\n        /* \"Midas/Midas_main/src/MidasRouter.sol\":8720:8758  IMidasPair721(_pair).getBinParamFromLP */\n      and\n      0x3357fcb1\n        /* \"Midas/Midas_main/src/MidasRouter.sol\":8759:8765  lpList */\n      dup6\n        /* \"Midas/Midas_main/src/MidasRouter.sol\":8766:8767  i */\n      dup4\n        /* \"Midas/Midas_main/src/MidasRouter.sol\":8759:8768  lpList[i] */\n      dup2\n      mload\n      dup2\n      lt\n      tag_253\n      jumpi\n      tag_253\n      tag_119\n      jump\t// in\n    tag_253:\n      0x20\n      mul\n      0x20\n      add\n      add\n      mload\n        /* \"Midas/Midas_main/src/MidasRouter.sol\":8720:8769  IMidasPair721(_pair).getBinParamFromLP(lpList[i]) */\n      mload(0x40)\n      dup3\n      0xffffffff\n      and\n      0xe0\n      shl\n      dup2\n      mstore\n      0x04\n      add\n      tag_254\n      swap2\n        /* \"#utility.yul\":3711:3736   */\n      dup2\n      mstore\n        /* \"#utility.yul\":3699:3701   */\n      0x20\n        /* \"#utility.yul\":3684:3702   */\n      add\n      swap1\n        /* \"#utility.yul\":3565:3742   */\n      jump\n        /* \"Midas/Midas_main/src/MidasRouter.sol\":8720:8769  IMidasPair721(_pair).getBinParamFromLP(lpList[i]) */\n    tag_254:\n      0x40\n      dup1\n      mload\n      dup1\n      dup4\n      sub\n      dup2\n      dup7\n      gas\n      staticcall\n      iszero\n      dup1\n      iszero\n      tag_256\n      jumpi\n      returndatasize\n      0x00\n      dup1\n      returndatacopy\n      revert(0x00, returndatasize)\n    tag_256:\n      pop\n      pop\n      pop\n      pop\n      mload(0x40)\n      returndatasize\n      not(0x1f)\n      0x1f\n      dup3\n      add\n      and\n      dup3\n      add\n      dup1\n      0x40\n      mstore\n      pop\n      dup2\n      add\n      swap1\n      tag_257\n      swap2\n      swap1\n      tag_258\n      jump\t// in\n    tag_257:\n        /* \"Midas/Midas_main/src/MidasRouter.sol\":8694:8769  (_activeBin , _binStep) = IMidasPair721(_pair).getBinParamFromLP(lpList[i]) */\n      swap1\n      swap4\n      pop\n      swap2\n      pop\n        /* \"Midas/Midas_main/src/MidasRouter.sol\":8577:8784  if (i > 0 && lpList[i] == lpList[i - 1]){... */\n    tag_251:\n        /* \"Midas/Midas_main/src/MidasRouter.sol\":8812:8860  IMidasPair721(_pair).getPriceFromBin(_activeBin) */\n      mload(0x40)\n      shl(0xe0, 0xfd31c4ab)\n      dup2\n      mstore\n        /* \"#utility.yul\":13538:13546   */\n      0xffffff\n        /* \"#utility.yul\":13526:13547   */\n      dup5\n      and\n        /* \"Midas/Midas_main/src/MidasRouter.sol\":8812:8860  IMidasPair721(_pair).getPriceFromBin(_activeBin) */\n      0x04\n      dup3\n      add\n        /* \"#utility.yul\":13508:13548   */\n      mstore\n      sub(shl(0xa0, 0x01), 0x01)\n        /* \"Midas/Midas_main/src/MidasRouter.sol\":8812:8848  IMidasPair721(_pair).getPriceFromBin */\n      dup10\n      and\n      swap1\n      0xfd31c4ab\n      swap1\n        /* \"#utility.yul\":13481:13499   */\n      0x24\n      add\n        /* \"Midas/Midas_main/src/MidasRouter.sol\":8812:8860  IMidasPair721(_pair).getPriceFromBin(_activeBin) */\n      0x20\n      mload(0x40)\n      dup1\n      dup4\n      sub\n      dup2\n      dup7\n      gas\n      staticcall\n      iszero\n      dup1\n      iszero\n      tag_262\n      jumpi\n      returndatasize\n      0x00\n      dup1\n      returndatacopy\n      revert(0x00, returndatasize)\n    tag_262:\n      pop\n      pop\n      pop\n      pop\n      mload(0x40)\n      returndatasize\n      not(0x1f)\n      0x1f\n      dup3\n      add\n      and\n      dup3\n      add\n      dup1\n      0x40\n      mstore\n      pop\n      dup2\n      add\n      swap1\n      tag_263\n      swap2\n      swap1\n      tag_207\n      jump\t// in\n    tag_263:\n        /* \"Midas/Midas_main/src/MidasRouter.sol\":8797:8860  totalAmount += IMidasPair721(_pair).getPriceFromBin(_activeBin) */\n      tag_264\n      swap1\n      dup7\n      tag_265\n      jump\t// in\n    tag_264:\n      swap5\n      pop\n        /* \"Midas/Midas_main/src/MidasRouter.sol\":8559:8562  ++i */\n      tag_266\n      dup2\n      tag_126\n      jump\t// in\n    tag_266:\n      swap1\n      pop\n        /* \"Midas/Midas_main/src/MidasRouter.sol\":8524:8871  for(uint i = 0; i < lpList.length; ++i){... */\n      jump(tag_238)\n    tag_239:\n      pop\n        /* \"Midas/Midas_main/src/MidasRouter.sol\":8881:8895  uint256 _rate1 */\n      0x00\n        /* \"Midas/Midas_main/src/MidasRouter.sol\":8900:8914  uint256 _rate2 */\n      dup1\n        /* \"Midas/Midas_main/src/MidasRouter.sol\":8932:8937  _pair */\n      dup9\n      sub(shl(0xa0, 0x01), 0x01)\n        /* \"Midas/Midas_main/src/MidasRouter.sol\":8918:8952  IMidasPair721(_pair).feeParameters */\n      and\n      0x98c7adf3\n        /* \"Midas/Midas_main/src/MidasRouter.sol\":8918:8954  IMidasPair721(_pair).feeParameters() */\n      mload(0x40)\n      dup2\n      0xffffffff\n      and\n      0xe0\n      shl\n      dup2\n      mstore\n      0x04\n      add\n      0x60\n      mload(0x40)\n      dup1\n      dup4\n      sub\n      dup2\n      dup7\n      gas\n      staticcall\n      iszero\n      dup1\n      iszero\n      tag_268\n      jumpi\n      returndatasize\n      0x00\n      dup1\n      returndatacopy\n      revert(0x00, returndatasize)\n    tag_268:\n      pop\n      pop\n      pop\n      pop\n      mload(0x40)\n      returndatasize\n      not(0x1f)\n      0x1f\n      dup3\n      add\n      and\n      dup3\n      add\n      dup1\n      0x40\n      mstore\n      pop\n      dup2\n      add\n      swap1\n      tag_269\n      swap2\n      swap1\n      tag_270\n      jump\t// in\n    tag_269:\n        /* \"Midas/Midas_main/src/MidasRouter.sol\":8880:8954  (uint256 _rate1 , , uint256 _rate2) = IMidasPair721(_pair).feeParameters() */\n      swap3\n      pop\n      pop\n      swap2\n      pop\n        /* \"Midas/Midas_main/src/MidasRouter.sol\":9022:9026  1e18 */\n      0x0de0b6b3a7640000\n        /* \"Midas/Midas_main/src/MidasRouter.sol\":9011:9017  _rate2 */\n      dup2\n        /* \"Midas/Midas_main/src/MidasRouter.sol\":9002:9008  _rate1 */\n      dup4\n        /* \"Midas/Midas_main/src/MidasRouter.sol\":8995:8999  1e18 */\n      0x0de0b6b3a7640000\n        /* \"Midas/Midas_main/src/MidasRouter.sol\":8995:9008  1e18 + _rate1 */\n      tag_271\n      swap2\n      swap1\n      tag_265\n      jump\t// in\n    tag_271:\n        /* \"Midas/Midas_main/src/MidasRouter.sol\":8995:9017  1e18 + _rate1 + _rate2 */\n      tag_272\n      swap2\n      swap1\n      tag_265\n      jump\t// in\n    tag_272:\n        /* \"Midas/Midas_main/src/MidasRouter.sol\":8979:9019  totalAmount * ( 1e18 + _rate1 + _rate2 ) */\n      tag_273\n      swap1\n        /* \"Midas/Midas_main/src/MidasRouter.sol\":8979:8990  totalAmount */\n      dup9\n        /* \"Midas/Midas_main/src/MidasRouter.sol\":8979:9019  totalAmount * ( 1e18 + _rate1 + _rate2 ) */\n      tag_274\n      jump\t// in\n    tag_273:\n        /* \"Midas/Midas_main/src/MidasRouter.sol\":8979:9026  totalAmount * ( 1e18 + _rate1 + _rate2 ) / 1e18 */\n      tag_275\n      swap2\n      swap1\n      tag_276\n      jump\t// in\n    tag_275:\n        /* \"Midas/Midas_main/src/MidasRouter.sol\":8979:9030  totalAmount * ( 1e18 + _rate1 + _rate2 ) / 1e18 + 1 */\n      tag_277\n      swap1\n        /* \"Midas/Midas_main/src/MidasRouter.sol\":9029:9030  1 */\n      0x01\n        /* \"Midas/Midas_main/src/MidasRouter.sol\":8979:9030  totalAmount * ( 1e18 + _rate1 + _rate2 ) / 1e18 + 1 */\n      tag_265\n      jump\t// in\n    tag_277:\n        /* \"Midas/Midas_main/src/MidasRouter.sol\":8964:9030  totalAmount =  totalAmount * ( 1e18 + _rate1 + _rate2 ) / 1e18 + 1 */\n      swap10\n        /* \"Midas/Midas_main/src/MidasRouter.sol\":8069:9037  function getMinAmountIn(... */\n      swap9\n      pop\n      pop\n      pop\n      pop\n      pop\n      pop\n      pop\n      pop\n      pop\n      jump\t// out\n        /* \"Midas/Midas_main/src/MidasRouter.sol\":2733:3316  function addLiquidityETH(... */\n    tag_66:\n        /* \"Midas/Midas_main/src/MidasRouter.sol\":2926:2942  uint256 idAmount */\n      0x00\n        /* \"Midas/Midas_main/src/MidasRouter.sol\":2944:2961  uint256 lpTokenId */\n      dup1\n        /* \"Midas/Midas_main/src/MidasRouter.sol\":2906:2915  _deadline */\n      dup3\n        /* \"Midas/Midas_main/src/MidasRouter.sol\":932:947  block.timestamp */\n      timestamp\n        /* \"Midas/Midas_main/src/MidasRouter.sol\":920:928  deadline */\n      dup2\n        /* \"Midas/Midas_main/src/MidasRouter.sol\":920:947  deadline >= block.timestamp */\n      lt\n      iszero\n        /* \"Midas/Midas_main/src/MidasRouter.sol\":912:975  require(deadline >= block.timestamp, 'MidaswapRouter: EXPIRED') */\n      tag_279\n      jumpi\n      mload(0x40)\n      shl(0xe5, 0x461bcd)\n      dup2\n      mstore\n      0x04\n      add\n      tag_105\n      swap1\n      tag_106\n      jump\t// in\n    tag_279:\n        /* \"Midas/Midas_main/src/MidasRouter.sol\":2973:2986  address _pair */\n      0x00\n        /* \"Midas/Midas_main/src/MidasRouter.sol\":2989:2996  factory */\n      dup1\n      sload\n        /* \"Midas/Midas_main/src/MidasRouter.sol\":2989:3028  factory.getPairERC721(_tokenX, _tokenY) */\n      mload(0x40)\n      shl(0xe0, 0x83d16e13)\n      dup2\n      mstore\n      sub(shl(0xa0, 0x01), 0x01)\n        /* \"Midas/Midas_main/src/MidasRouter.sol\":2989:2996  factory */\n      swap1\n      swap2\n      and\n      swap1\n        /* \"Midas/Midas_main/src/MidasRouter.sol\":2989:3010  factory.getPairERC721 */\n      0x83d16e13\n      swap1\n        /* \"Midas/Midas_main/src/MidasRouter.sol\":2989:3028  factory.getPairERC721(_tokenX, _tokenY) */\n      tag_282\n      swap1\n        /* \"Midas/Midas_main/src/MidasRouter.sol\":3011:3018  _tokenX */\n      dup13\n      swap1\n        /* \"Midas/Midas_main/src/MidasRouter.sol\":3020:3027  _tokenY */\n      dup13\n      swap1\n        /* \"Midas/Midas_main/src/MidasRouter.sol\":2989:3028  factory.getPairERC721(_tokenX, _tokenY) */\n      0x04\n      add\n      tag_109\n      jump\t// in\n    tag_282:\n      0x20\n      mload(0x40)\n      dup1\n      dup4\n      sub\n      dup2\n      dup7\n      gas\n      staticcall\n      iszero\n      dup1\n      iszero\n      tag_284\n      jumpi\n      returndatasize\n      0x00\n      dup1\n      returndatacopy\n      revert(0x00, returndatasize)\n    tag_284:\n      pop\n      pop\n      pop\n      pop\n      mload(0x40)\n      returndatasize\n      not(0x1f)\n      0x1f\n      dup3\n      add\n      and\n      dup3\n      add\n      dup1\n      0x40\n      mstore\n      pop\n      dup2\n      add\n      swap1\n      tag_285\n      swap2\n      swap1\n      tag_113\n      jump\t// in\n    tag_285:\n        /* \"Midas/Midas_main/src/MidasRouter.sol\":2973:3028  address _pair = factory.getPairERC721(_tokenX, _tokenY) */\n      swap1\n      pop\n        /* \"Midas/Midas_main/src/MidasRouter.sol\":3038:3053  uint256 _amount */\n      0x00\n        /* \"Midas/Midas_main/src/MidasRouter.sol\":3056:3085  _getAmountsToAdd(_pair, _ids) */\n      tag_286\n        /* \"Midas/Midas_main/src/MidasRouter.sol\":3073:3078  _pair */\n      dup3\n        /* \"Midas/Midas_main/src/MidasRouter.sol\":3080:3084  _ids */\n      dup10\n      dup10\n        /* \"Midas/Midas_main/src/MidasRouter.sol\":3056:3072  _getAmountsToAdd */\n      tag_91\n        /* \"Midas/Midas_main/src/MidasRouter.sol\":3056:3085  _getAmountsToAdd(_pair, _ids) */\n      jump\t// in\n    tag_286:\n        /* \"Midas/Midas_main/src/MidasRouter.sol\":3122:3126  weth */\n      sload(0x01)\n        /* \"Midas/Midas_main/src/MidasRouter.sol\":3038:3085  uint256 _amount = _getAmountsToAdd(_pair, _ids) */\n      swap1\n      swap2\n      pop\n      sub(shl(0xa0, 0x01), 0x01)\n        /* \"Midas/Midas_main/src/MidasRouter.sol\":3103:3127  _tokenY == address(weth) */\n      dup11\n      dup2\n      and\n        /* \"Midas/Midas_main/src/MidasRouter.sol\":3122:3126  weth */\n      swap2\n      and\n        /* \"Midas/Midas_main/src/MidasRouter.sol\":3103:3127  _tokenY == address(weth) */\n      eq\n        /* \"Midas/Midas_main/src/MidasRouter.sol\":3103:3151  _tokenY == address(weth) && msg.value >= _amount */\n      dup1\n      iszero\n      tag_287\n      jumpi\n      pop\n        /* \"Midas/Midas_main/src/MidasRouter.sol\":3144:3151  _amount */\n      dup1\n        /* \"Midas/Midas_main/src/MidasRouter.sol\":3131:3140  msg.value */\n      callvalue\n        /* \"Midas/Midas_main/src/MidasRouter.sol\":3131:3151  msg.value >= _amount */\n      lt\n      iszero\n        /* \"Midas/Midas_main/src/MidasRouter.sol\":3103:3151  _tokenY == address(weth) && msg.value >= _amount */\n    tag_287:\n        /* \"Midas/Midas_main/src/MidasRouter.sol\":3095:3179  require(_tokenY == address(weth) && msg.value >= _amount, \"MIDASROUTER: WRONG PAIR\") */\n      tag_288\n      jumpi\n      mload(0x40)\n      shl(0xe5, 0x461bcd)\n      dup2\n      mstore\n      0x04\n      add\n      tag_105\n      swap1\n      tag_161\n      jump\t// in\n    tag_288:\n        /* \"Midas/Midas_main/src/MidasRouter.sol\":3189:3230  _wethDepositAndTransfer(_pair, msg.value) */\n      tag_290\n        /* \"Midas/Midas_main/src/MidasRouter.sol\":3213:3218  _pair */\n      dup3\n        /* \"Midas/Midas_main/src/MidasRouter.sol\":3220:3229  msg.value */\n      callvalue\n        /* \"Midas/Midas_main/src/MidasRouter.sol\":3189:3212  _wethDepositAndTransfer */\n      tag_291\n        /* \"Midas/Midas_main/src/MidasRouter.sol\":3189:3230  _wethDepositAndTransfer(_pair, msg.value) */\n      jump\t// in\n    tag_290:\n        /* \"Midas/Midas_main/src/MidasRouter.sol\":3264:3309  IMidasPair721(_pair).mintFT(_ids, msg.sender) */\n      mload(0x40)\n      shl(0xe0, 0xa3d055a7)\n      dup2\n      mstore\n      sub(shl(0xa0, 0x01), 0x01)\n        /* \"Midas/Midas_main/src/MidasRouter.sol\":3264:3291  IMidasPair721(_pair).mintFT */\n      dup4\n      and\n      swap1\n      0xa3d055a7\n      swap1\n        /* \"Midas/Midas_main/src/MidasRouter.sol\":3264:3309  IMidasPair721(_pair).mintFT(_ids, msg.sender) */\n      tag_292\n      swap1\n        /* \"Midas/Midas_main/src/MidasRouter.sol\":3292:3296  _ids */\n      dup12\n      swap1\n      dup12\n      swap1\n        /* \"Midas/Midas_main/src/MidasRouter.sol\":3298:3308  msg.sender */\n      caller\n      swap1\n        /* \"Midas/Midas_main/src/MidasRouter.sol\":3264:3309  IMidasPair721(_pair).mintFT(_ids, msg.sender) */\n      0x04\n      add\n      tag_293\n      jump\t// in\n    tag_292:\n      0x40\n      dup1\n      mload\n      dup1\n      dup4\n      sub\n      dup2\n      0x00\n      dup8\n      gas\n      call\n      iszero\n      dup1\n      iszero\n      tag_295\n      jumpi\n      returndatasize\n      0x00\n      dup1\n      returndatacopy\n      revert(0x00, returndatasize)\n    tag_295:\n      pop\n      pop\n      pop\n      pop\n      mload(0x40)\n      returndatasize\n      not(0x1f)\n      0x1f\n      dup3\n      add\n      and\n      dup3\n      add\n      dup1\n      0x40\n      mstore\n      pop\n      dup2\n      add\n      swap1\n      tag_296\n      swap2\n      swap1\n      tag_132\n      jump\t// in\n    tag_296:\n        /* \"Midas/Midas_main/src/MidasRouter.sol\":3240:3309  (idAmount, lpTokenId) = IMidasPair721(_pair).mintFT(_ids, msg.sender) */\n      swap1\n      swap12\n      swap1\n      swap11\n      pop\n        /* \"Midas/Midas_main/src/MidasRouter.sol\":2733:3316  function addLiquidityETH(... */\n      swap9\n      pop\n      pop\n      pop\n      pop\n      pop\n      pop\n      pop\n      pop\n      pop\n      jump\t// out\n        /* \"Midas/Midas_main/src/MidasRouter.sol\":5935:6537  function buyItems(... */\n    tag_71:\n        /* \"Midas/Midas_main/src/MidasRouter.sol\":6119:6136  uint256 _ftAmount */\n      0x00\n        /* \"Midas/Midas_main/src/MidasRouter.sol\":6099:6108  _deadline */\n      dup2\n        /* \"Midas/Midas_main/src/MidasRouter.sol\":932:947  block.timestamp */\n      timestamp\n        /* \"Midas/Midas_main/src/MidasRouter.sol\":920:928  deadline */\n      dup2\n        /* \"Midas/Midas_main/src/MidasRouter.sol\":920:947  deadline >= block.timestamp */\n      lt\n      iszero\n        /* \"Midas/Midas_main/src/MidasRouter.sol\":912:975  require(deadline >= block.timestamp, 'MidaswapRouter: EXPIRED') */\n      tag_298\n      jumpi\n      mload(0x40)\n      shl(0xe5, 0x461bcd)\n      dup2\n      mstore\n      0x04\n      add\n      tag_105\n      swap1\n      tag_106\n      jump\t// in\n    tag_298:\n        /* \"Midas/Midas_main/src/MidasRouter.sol\":6175:6179  weth */\n      sload(0x01)\n      sub(shl(0xa0, 0x01), 0x01)\n        /* \"Midas/Midas_main/src/MidasRouter.sol\":6156:6180  _tokenY != address(weth) */\n      dup8\n      dup2\n      and\n        /* \"Midas/Midas_main/src/MidasRouter.sol\":6175:6179  weth */\n      swap2\n      and\n        /* \"Midas/Midas_main/src/MidasRouter.sol\":6156:6180  _tokenY != address(weth) */\n      eq\n      iszero\n        /* \"Midas/Midas_main/src/MidasRouter.sol\":6148:6208  require(_tokenY != address(weth), \"MIDASROUTER: WRONG PAIR\") */\n      tag_301\n      jumpi\n      mload(0x40)\n      shl(0xe5, 0x461bcd)\n      dup2\n      mstore\n      0x04\n      add\n      tag_105\n      swap1\n      tag_161\n      jump\t// in\n    tag_301:\n        /* \"Midas/Midas_main/src/MidasRouter.sol\":6218:6231  address _pair */\n      0x00\n        /* \"Midas/Midas_main/src/MidasRouter.sol\":6234:6241  factory */\n      dup1\n      sload\n        /* \"Midas/Midas_main/src/MidasRouter.sol\":6234:6273  factory.getPairERC721(_tokenX, _tokenY) */\n      mload(0x40)\n      shl(0xe0, 0x83d16e13)\n      dup2\n      mstore\n      sub(shl(0xa0, 0x01), 0x01)\n        /* \"Midas/Midas_main/src/MidasRouter.sol\":6234:6241  factory */\n      swap1\n      swap2\n      and\n      swap1\n        /* \"Midas/Midas_main/src/MidasRouter.sol\":6234:6255  factory.getPairERC721 */\n      0x83d16e13\n      swap1\n        /* \"Midas/Midas_main/src/MidasRouter.sol\":6234:6273  factory.getPairERC721(_tokenX, _tokenY) */\n      tag_303\n      swap1\n        /* \"Midas/Midas_main/src/MidasRouter.sol\":6256:6263  _tokenX */\n      dup12\n      swap1\n        /* \"Midas/Midas_main/src/MidasRouter.sol\":6265:6272  _tokenY */\n      dup12\n      swap1\n        /* \"Midas/Midas_main/src/MidasRouter.sol\":6234:6273  factory.getPairERC721(_tokenX, _tokenY) */\n      0x04\n      add\n      tag_109\n      jump\t// in\n    tag_303:\n      0x20\n      mload(0x40)\n      dup1\n      dup4\n      sub\n      dup2\n      dup7\n      gas\n      staticcall\n      iszero\n      dup1\n      iszero\n      tag_305\n      jumpi\n      returndatasize\n      0x00\n      dup1\n      returndatacopy\n      revert(0x00, returndatasize)\n    tag_305:\n      pop\n      pop\n      pop\n      pop\n      mload(0x40)\n      returndatasize\n      not(0x1f)\n      0x1f\n      dup3\n      add\n      and\n      dup3\n      add\n      dup1\n      0x40\n      mstore\n      pop\n      dup2\n      add\n      swap1\n      tag_306\n      swap2\n      swap1\n      tag_113\n      jump\t// in\n    tag_306:\n        /* \"Midas/Midas_main/src/MidasRouter.sol\":6218:6273  address _pair = factory.getPairERC721(_tokenX, _tokenY) */\n      swap1\n      pop\n        /* \"Midas/Midas_main/src/MidasRouter.sol\":6295:6327  getMinAmountIn(_pair, _tokenIds) */\n      tag_307\n        /* \"Midas/Midas_main/src/MidasRouter.sol\":6310:6315  _pair */\n      dup2\n        /* \"Midas/Midas_main/src/MidasRouter.sol\":6317:6326  _tokenIds */\n      dup8\n      dup8\n        /* \"Midas/Midas_main/src/MidasRouter.sol\":6295:6309  getMinAmountIn */\n      tag_61\n        /* \"Midas/Midas_main/src/MidasRouter.sol\":6295:6327  getMinAmountIn(_pair, _tokenIds) */\n      jump\t// in\n    tag_307:\n        /* \"Midas/Midas_main/src/MidasRouter.sol\":6283:6327  _ftAmount = getMinAmountIn(_pair, _tokenIds) */\n      swap3\n      pop\n        /* \"Midas/Midas_main/src/MidasRouter.sol\":6337:6399  IERC20(_tokenY).safeTransferFrom(msg.sender, _pair, _ftAmount) */\n      tag_308\n      sub(shl(0xa0, 0x01), 0x01)\n        /* \"Midas/Midas_main/src/MidasRouter.sol\":6337:6369  IERC20(_tokenY).safeTransferFrom */\n      dup9\n      and\n        /* \"Midas/Midas_main/src/MidasRouter.sol\":6370:6380  msg.sender */\n      caller\n        /* \"Midas/Midas_main/src/MidasRouter.sol\":6382:6387  _pair */\n      dup4\n        /* \"Midas/Midas_main/src/MidasRouter.sol\":6283:6327  _ftAmount = getMinAmountIn(_pair, _tokenIds) */\n      dup7\n        /* \"Midas/Midas_main/src/MidasRouter.sol\":6337:6369  IERC20(_tokenY).safeTransferFrom */\n      tag_309\n        /* \"Midas/Midas_main/src/MidasRouter.sol\":6337:6399  IERC20(_tokenY).safeTransferFrom(msg.sender, _pair, _ftAmount) */\n      jump\t// in\n    tag_308:\n        /* \"Midas/Midas_main/src/MidasRouter.sol\":6414:6420  uint i */\n      0x00\n        /* \"Midas/Midas_main/src/MidasRouter.sol\":6409:6531  for (uint i = 0; i < _tokenIds.length; i++) {... */\n    tag_310:\n        /* \"Midas/Midas_main/src/MidasRouter.sol\":6426:6446  i < _tokenIds.length */\n      dup6\n      dup2\n      lt\n        /* \"Midas/Midas_main/src/MidasRouter.sol\":6409:6531  for (uint i = 0; i < _tokenIds.length; i++) {... */\n      iszero\n      tag_193\n      jumpi\n        /* \"Midas/Midas_main/src/MidasRouter.sol\":6481:6486  _pair */\n      dup2\n      sub(shl(0xa0, 0x01), 0x01)\n        /* \"Midas/Midas_main/src/MidasRouter.sol\":6467:6494  IMidasPair721(_pair).buyNFT */\n      and\n      0xd8db47a7\n        /* \"Midas/Midas_main/src/MidasRouter.sol\":6495:6504  _tokenIds */\n      dup9\n      dup9\n        /* \"Midas/Midas_main/src/MidasRouter.sol\":6505:6506  i */\n      dup5\n        /* \"Midas/Midas_main/src/MidasRouter.sol\":6495:6507  _tokenIds[i] */\n      dup2\n      dup2\n      lt\n      tag_314\n      jumpi\n      tag_314\n      tag_119\n      jump\t// in\n    tag_314:\n      swap1\n      pop\n      0x20\n      mul\n      add\n      calldataload\n        /* \"Midas/Midas_main/src/MidasRouter.sol\":6509:6519  msg.sender */\n      caller\n        /* \"Midas/Midas_main/src/MidasRouter.sol\":6467:6520  IMidasPair721(_pair).buyNFT(_tokenIds[i], msg.sender) */\n      mload(0x40)\n      dup4\n      0xffffffff\n      and\n      0xe0\n      shl\n      dup2\n      mstore\n      0x04\n      add\n      tag_315\n      swap3\n      swap2\n      swap1\n      tag_176\n      jump\t// in\n    tag_315:\n      0x00\n      mload(0x40)\n      dup1\n      dup4\n      sub\n      dup2\n      0x00\n      dup8\n      dup1\n      extcodesize\n      iszero\n      dup1\n      iszero\n      tag_316\n      jumpi\n      0x00\n      dup1\n      revert\n    tag_316:\n      pop\n      gas\n      call\n      iszero\n      dup1\n      iszero\n      tag_318\n      jumpi\n      returndatasize\n      0x00\n      dup1\n      returndatacopy\n      revert(0x00, returndatasize)\n    tag_318:\n      pop\n      pop\n      pop\n      pop\n        /* \"Midas/Midas_main/src/MidasRouter.sol\":6448:6451  i++ */\n      dup1\n      dup1\n      tag_319\n      swap1\n      tag_126\n      jump\t// in\n    tag_319:\n      swap2\n      pop\n      pop\n        /* \"Midas/Midas_main/src/MidasRouter.sol\":6409:6531  for (uint i = 0; i < _tokenIds.length; i++) {... */\n      jump(tag_310)\n        /* \"Midas/Midas_main/src/MidasRouter.sol\":2155:2727  function addLiquidityERC20(... */\n    tag_76:\n        /* \"Midas/Midas_main/src/MidasRouter.sol\":2342:2358  uint256 idAmount */\n      0x00\n        /* \"Midas/Midas_main/src/MidasRouter.sol\":2360:2377  uint256 lpTokenId */\n      dup1\n        /* \"Midas/Midas_main/src/MidasRouter.sol\":2322:2331  _deadline */\n      dup3\n        /* \"Midas/Midas_main/src/MidasRouter.sol\":932:947  block.timestamp */\n      timestamp\n        /* \"Midas/Midas_main/src/MidasRouter.sol\":920:928  deadline */\n      dup2\n        /* \"Midas/Midas_main/src/MidasRouter.sol\":920:947  deadline >= block.timestamp */\n      lt\n      iszero\n        /* \"Midas/Midas_main/src/MidasRouter.sol\":912:975  require(deadline >= block.timestamp, 'MidaswapRouter: EXPIRED') */\n      tag_321\n      jumpi\n      mload(0x40)\n      shl(0xe5, 0x461bcd)\n      dup2\n      mstore\n      0x04\n      add\n      tag_105\n      swap1\n      tag_106\n      jump\t// in\n    tag_321:\n        /* \"Midas/Midas_main/src/MidasRouter.sol\":2416:2420  weth */\n      sload(0x01)\n      sub(shl(0xa0, 0x01), 0x01)\n        /* \"Midas/Midas_main/src/MidasRouter.sol\":2397:2421  _tokenY != address(weth) */\n      dup9\n      dup2\n      and\n        /* \"Midas/Midas_main/src/MidasRouter.sol\":2416:2420  weth */\n      swap2\n      and\n        /* \"Midas/Midas_main/src/MidasRouter.sol\":2397:2421  _tokenY != address(weth) */\n      eq\n      iszero\n        /* \"Midas/Midas_main/src/MidasRouter.sol\":2389:2449  require(_tokenY != address(weth), \"MIDASROUTER: WRONG PAIR\") */\n      tag_324\n      jumpi\n      mload(0x40)\n      shl(0xe5, 0x461bcd)\n      dup2\n      mstore\n      0x04\n      add\n      tag_105\n      swap1\n      tag_161\n      jump\t// in\n    tag_324:\n        /* \"Midas/Midas_main/src/MidasRouter.sol\":2459:2472  address _pair */\n      0x00\n        /* \"Midas/Midas_main/src/MidasRouter.sol\":2475:2482  factory */\n      dup1\n      sload\n        /* \"Midas/Midas_main/src/MidasRouter.sol\":2475:2514  factory.getPairERC721(_tokenX, _tokenY) */\n      mload(0x40)\n      shl(0xe0, 0x83d16e13)\n      dup2\n      mstore\n      sub(shl(0xa0, 0x01), 0x01)\n        /* \"Midas/Midas_main/src/MidasRouter.sol\":2475:2482  factory */\n      swap1\n      swap2\n      and\n      swap1\n        /* \"Midas/Midas_main/src/MidasRouter.sol\":2475:2496  factory.getPairERC721 */\n      0x83d16e13\n      swap1\n        /* \"Midas/Midas_main/src/MidasRouter.sol\":2475:2514  factory.getPairERC721(_tokenX, _tokenY) */\n      tag_326\n      swap1\n        /* \"Midas/Midas_main/src/MidasRouter.sol\":2497:2504  _tokenX */\n      dup13\n      swap1\n        /* \"Midas/Midas_main/src/MidasRouter.sol\":2506:2513  _tokenY */\n      dup13\n      swap1\n        /* \"Midas/Midas_main/src/MidasRouter.sol\":2475:2514  factory.getPairERC721(_tokenX, _tokenY) */\n      0x04\n      add\n      tag_109\n      jump\t// in\n    tag_326:\n      0x20\n      mload(0x40)\n      dup1\n      dup4\n      sub\n      dup2\n      dup7\n      gas\n      staticcall\n      iszero\n      dup1\n      iszero\n      tag_328\n      jumpi\n      returndatasize\n      0x00\n      dup1\n      returndatacopy\n      revert(0x00, returndatasize)\n    tag_328:\n      pop\n      pop\n      pop\n      pop\n      mload(0x40)\n      returndatasize\n      not(0x1f)\n      0x1f\n      dup3\n      add\n      and\n      dup3\n      add\n      dup1\n      0x40\n      mstore\n      pop\n      dup2\n      add\n      swap1\n      tag_329\n      swap2\n      swap1\n      tag_113\n      jump\t// in\n    tag_329:\n        /* \"Midas/Midas_main/src/MidasRouter.sol\":2459:2514  address _pair = factory.getPairERC721(_tokenX, _tokenY) */\n      swap1\n      pop\n        /* \"Midas/Midas_main/src/MidasRouter.sol\":2524:2539  uint256 _amount */\n      0x00\n        /* \"Midas/Midas_main/src/MidasRouter.sol\":2542:2571  _getAmountsToAdd(_pair, _ids) */\n      tag_330\n        /* \"Midas/Midas_main/src/MidasRouter.sol\":2559:2564  _pair */\n      dup3\n        /* \"Midas/Midas_main/src/MidasRouter.sol\":2566:2570  _ids */\n      dup10\n      dup10\n        /* \"Midas/Midas_main/src/MidasRouter.sol\":2542:2558  _getAmountsToAdd */\n      tag_91\n        /* \"Midas/Midas_main/src/MidasRouter.sol\":2542:2571  _getAmountsToAdd(_pair, _ids) */\n      jump\t// in\n    tag_330:\n        /* \"Midas/Midas_main/src/MidasRouter.sol\":2524:2571  uint256 _amount = _getAmountsToAdd(_pair, _ids) */\n      swap1\n      pop\n        /* \"Midas/Midas_main/src/MidasRouter.sol\":2581:2641  IERC20(_tokenY).safeTransferFrom(msg.sender, _pair, _amount) */\n      tag_290\n      sub(shl(0xa0, 0x01), 0x01)\n        /* \"Midas/Midas_main/src/MidasRouter.sol\":2581:2613  IERC20(_tokenY).safeTransferFrom */\n      dup11\n      and\n        /* \"Midas/Midas_main/src/MidasRouter.sol\":2614:2624  msg.sender */\n      caller\n        /* \"Midas/Midas_main/src/MidasRouter.sol\":2626:2631  _pair */\n      dup5\n        /* \"Midas/Midas_main/src/MidasRouter.sol\":2524:2571  uint256 _amount = _getAmountsToAdd(_pair, _ids) */\n      dup5\n        /* \"Midas/Midas_main/src/MidasRouter.sol\":2581:2613  IERC20(_tokenY).safeTransferFrom */\n      tag_309\n        /* \"Midas/Midas_main/src/MidasRouter.sol\":2581:2641  IERC20(_tokenY).safeTransferFrom(msg.sender, _pair, _amount) */\n      jump\t// in\n        /* \"Midas/Midas_main/src/MidasRouter.sol\":4656:5270  function sellItems(... */\n    tag_81:\n        /* \"Midas/Midas_main/src/MidasRouter.sol\":4841:4858  uint256 _ftAmount */\n      0x00\n        /* \"Midas/Midas_main/src/MidasRouter.sol\":4821:4830  _deadline */\n      dup2\n        /* \"Midas/Midas_main/src/MidasRouter.sol\":932:947  block.timestamp */\n      timestamp\n        /* \"Midas/Midas_main/src/MidasRouter.sol\":920:928  deadline */\n      dup2\n        /* \"Midas/Midas_main/src/MidasRouter.sol\":920:947  deadline >= block.timestamp */\n      lt\n      iszero\n        /* \"Midas/Midas_main/src/MidasRouter.sol\":912:975  require(deadline >= block.timestamp, 'MidaswapRouter: EXPIRED') */\n      tag_337\n      jumpi\n      mload(0x40)\n      shl(0xe5, 0x461bcd)\n      dup2\n      mstore\n      0x04\n      add\n      tag_105\n      swap1\n      tag_106\n      jump\t// in\n    tag_337:\n        /* \"Midas/Midas_main/src/MidasRouter.sol\":4897:4901  weth */\n      sload(0x01)\n      sub(shl(0xa0, 0x01), 0x01)\n        /* \"Midas/Midas_main/src/MidasRouter.sol\":4878:4902  _tokenY != address(weth) */\n      dup8\n      dup2\n      and\n        /* \"Midas/Midas_main/src/MidasRouter.sol\":4897:4901  weth */\n      swap2\n      and\n        /* \"Midas/Midas_main/src/MidasRouter.sol\":4878:4902  _tokenY != address(weth) */\n      eq\n      iszero\n        /* \"Midas/Midas_main/src/MidasRouter.sol\":4870:4930  require(_tokenY != address(weth), \"MIDASROUTER: WRONG PAIR\") */\n      tag_340\n      jumpi\n      mload(0x40)\n      shl(0xe5, 0x461bcd)\n      dup2\n      mstore\n      0x04\n      add\n      tag_105\n      swap1\n      tag_161\n      jump\t// in\n    tag_340:\n        /* \"Midas/Midas_main/src/MidasRouter.sol\":4940:4953  address _pair */\n      0x00\n        /* \"Midas/Midas_main/src/MidasRouter.sol\":4956:4963  factory */\n      dup1\n      sload\n        /* \"Midas/Midas_main/src/MidasRouter.sol\":4956:4995  factory.getPairERC721(_tokenX, _tokenY) */\n      mload(0x40)\n      shl(0xe0, 0x83d16e13)\n      dup2\n      mstore\n      sub(shl(0xa0, 0x01), 0x01)\n        /* \"Midas/Midas_main/src/MidasRouter.sol\":4956:4963  factory */\n      swap1\n      swap2\n      and\n      swap1\n        /* \"Midas/Midas_main/src/MidasRouter.sol\":4956:4977  factory.getPairERC721 */\n      0x83d16e13\n      swap1\n        /* \"Midas/Midas_main/src/MidasRouter.sol\":4956:4995  factory.getPairERC721(_tokenX, _tokenY) */\n      tag_342\n      swap1\n        /* \"Midas/Midas_main/src/MidasRouter.sol\":4978:4985  _tokenX */\n      dup12\n      swap1\n        /* \"Midas/Midas_main/src/MidasRouter.sol\":4987:4994  _tokenY */\n      dup12\n      swap1\n        /* \"Midas/Midas_main/src/MidasRouter.sol\":4956:4995  factory.getPairERC721(_tokenX, _tokenY) */\n      0x04\n      add\n      tag_109\n      jump\t// in\n    tag_342:\n      0x20\n      mload(0x40)\n      dup1\n      dup4\n      sub\n      dup2\n      dup7\n      gas\n      staticcall\n      iszero\n      dup1\n      iszero\n      tag_344\n      jumpi\n      returndatasize\n      0x00\n      dup1\n      returndatacopy\n      revert(0x00, returndatasize)\n    tag_344:\n      pop\n      pop\n      pop\n      pop\n      mload(0x40)\n      returndatasize\n      not(0x1f)\n      0x1f\n      dup3\n      add\n      and\n      dup3\n      add\n      dup1\n      0x40\n      mstore\n      pop\n      dup2\n      add\n      swap1\n      tag_345\n      swap2\n      swap1\n      tag_113\n      jump\t// in\n    tag_345:\n        /* \"Midas/Midas_main/src/MidasRouter.sol\":4940:4995  address _pair = factory.getPairERC721(_tokenX, _tokenY) */\n      swap1\n      pop\n        /* \"Midas/Midas_main/src/MidasRouter.sol\":5010:5016  uint i */\n      0x00\n        /* \"Midas/Midas_main/src/MidasRouter.sol\":5005:5264  for (uint i = 0; i < _tokenIds.length; i++) {... */\n    tag_346:\n        /* \"Midas/Midas_main/src/MidasRouter.sol\":5022:5042  i < _tokenIds.length */\n      dup6\n      dup2\n      lt\n        /* \"Midas/Midas_main/src/MidasRouter.sol\":5005:5264  for (uint i = 0; i < _tokenIds.length; i++) {... */\n      iszero\n      tag_193\n      jumpi\n        /* \"Midas/Midas_main/src/MidasRouter.sol\":5071:5078  _tokenX */\n      dup9\n      sub(shl(0xa0, 0x01), 0x01)\n        /* \"Midas/Midas_main/src/MidasRouter.sol\":5063:5087  IERC721(_tokenX).approve */\n      and\n      0x095ea7b3\n        /* \"Midas/Midas_main/src/MidasRouter.sol\":5088:5093  _pair */\n      dup4\n        /* \"Midas/Midas_main/src/MidasRouter.sol\":5095:5104  _tokenIds */\n      dup10\n      dup10\n        /* \"Midas/Midas_main/src/MidasRouter.sol\":5105:5106  i */\n      dup6\n        /* \"Midas/Midas_main/src/MidasRouter.sol\":5095:5107  _tokenIds[i] */\n      dup2\n      dup2\n      lt\n      tag_350\n      jumpi\n      tag_350\n      tag_119\n      jump\t// in\n    tag_350:\n      swap1\n      pop\n      0x20\n      mul\n      add\n      calldataload\n        /* \"Midas/Midas_main/src/MidasRouter.sol\":5063:5108  IERC721(_tokenX).approve(_pair, _tokenIds[i]) */\n      mload(0x40)\n      dup4\n      0xffffffff\n      and\n      0xe0\n      shl\n      dup2\n      mstore\n      0x04\n      add\n      tag_351\n      swap3\n      swap2\n      swap1\n      tag_121\n      jump\t// in\n    tag_351:\n      0x00\n      mload(0x40)\n      dup1\n      dup4\n      sub\n      dup2\n      0x00\n      dup8\n      dup1\n      extcodesize\n      iszero\n      dup1\n      iszero\n      tag_352\n      jumpi\n      0x00\n      dup1\n      revert\n    tag_352:\n      pop\n      gas\n      call\n      iszero\n      dup1\n      iszero\n      tag_354\n      jumpi\n      returndatasize\n      0x00\n      dup1\n      returndatacopy\n      revert(0x00, returndatasize)\n    tag_354:\n      pop\n      pop\n      pop\n      pop\n        /* \"Midas/Midas_main/src/MidasRouter.sol\":5148:5153  _pair */\n      dup2\n      sub(shl(0xa0, 0x01), 0x01)\n        /* \"Midas/Midas_main/src/MidasRouter.sol\":5134:5162  IMidasPair721(_pair).sellNFT */\n      and\n      0x5728ad49\n        /* \"Midas/Midas_main/src/MidasRouter.sol\":5163:5172  _tokenIds */\n      dup9\n      dup9\n        /* \"Midas/Midas_main/src/MidasRouter.sol\":5173:5174  i */\n      dup5\n        /* \"Midas/Midas_main/src/MidasRouter.sol\":5163:5175  _tokenIds[i] */\n      dup2\n      dup2\n      lt\n      tag_356\n      jumpi\n      tag_356\n      tag_119\n      jump\t// in\n    tag_356:\n      swap1\n      pop\n      0x20\n      mul\n      add\n      calldataload\n        /* \"Midas/Midas_main/src/MidasRouter.sol\":5177:5187  msg.sender */\n      caller\n        /* \"Midas/Midas_main/src/MidasRouter.sol\":5134:5188  IMidasPair721(_pair).sellNFT(_tokenIds[i], msg.sender) */\n      mload(0x40)\n      dup4\n      0xffffffff\n      and\n      0xe0\n      shl\n      dup2\n      mstore\n      0x04\n      add\n      tag_357\n      swap3\n      swap2\n      swap1\n      tag_176\n      jump\t// in\n    tag_357:\n      0x20\n      mload(0x40)\n      dup1\n      dup4\n      sub\n      dup2\n      0x00\n      dup8\n      gas\n      call\n      iszero\n      dup1\n      iszero\n      tag_359\n      jumpi\n      returndatasize\n      0x00\n      dup1\n      returndatacopy\n      revert(0x00, returndatasize)\n    tag_359:\n      pop\n      pop\n      pop\n      pop\n      mload(0x40)\n      returndatasize\n      not(0x1f)\n      0x1f\n      dup3\n      add\n      and\n      dup3\n      add\n      dup1\n      0x40\n      mstore\n      pop\n      dup2\n      add\n      swap1\n      tag_360\n      swap2\n      swap1\n      tag_207\n      jump\t// in\n    tag_360:\n        /* \"Midas/Midas_main/src/MidasRouter.sol\":5122:5188  _ftAmount = IMidasPair721(_pair).sellNFT(_tokenIds[i], msg.sender) */\n      swap4\n      pop\n        /* \"Midas/Midas_main/src/MidasRouter.sol\":5202:5253  IERC20(_tokenY).safeTransfer(msg.sender, _ftAmount) */\n      tag_361\n      sub(shl(0xa0, 0x01), 0x01)\n        /* \"Midas/Midas_main/src/MidasRouter.sol\":5202:5230  IERC20(_tokenY).safeTransfer */\n      dup10\n      and\n        /* \"Midas/Midas_main/src/MidasRouter.sol\":5231:5241  msg.sender */\n      caller\n        /* \"Midas/Midas_main/src/MidasRouter.sol\":5122:5188  _ftAmount = IMidasPair721(_pair).sellNFT(_tokenIds[i], msg.sender) */\n      dup7\n        /* \"Midas/Midas_main/src/MidasRouter.sol\":5202:5230  IERC20(_tokenY).safeTransfer */\n      tag_181\n        /* \"Midas/Midas_main/src/MidasRouter.sol\":5202:5253  IERC20(_tokenY).safeTransfer(msg.sender, _ftAmount) */\n      jump\t// in\n    tag_361:\n        /* \"Midas/Midas_main/src/MidasRouter.sol\":5044:5047  i++ */\n      dup1\n      tag_362\n      dup2\n      tag_126\n      jump\t// in\n    tag_362:\n      swap2\n      pop\n      pop\n        /* \"Midas/Midas_main/src/MidasRouter.sol\":5005:5264  for (uint i = 0; i < _tokenIds.length; i++) {... */\n      jump(tag_346)\n        /* \"Midas/Midas_main/src/MidasRouter.sol\":6543:7238  function buyItemsWithETH(... */\n    tag_85:\n        /* \"Midas/Midas_main/src/MidasRouter.sol\":6742:6759  uint256 _ftAmount */\n      0x00\n        /* \"Midas/Midas_main/src/MidasRouter.sol\":6722:6731  _deadline */\n      dup2\n        /* \"Midas/Midas_main/src/MidasRouter.sol\":932:947  block.timestamp */\n      timestamp\n        /* \"Midas/Midas_main/src/MidasRouter.sol\":920:928  deadline */\n      dup2\n        /* \"Midas/Midas_main/src/MidasRouter.sol\":920:947  deadline >= block.timestamp */\n      lt\n      iszero\n        /* \"Midas/Midas_main/src/MidasRouter.sol\":912:975  require(deadline >= block.timestamp, 'MidaswapRouter: EXPIRED') */\n      tag_364\n      jumpi\n      mload(0x40)\n      shl(0xe5, 0x461bcd)\n      dup2\n      mstore\n      0x04\n      add\n      tag_105\n      swap1\n      tag_106\n      jump\t// in\n    tag_364:\n        /* \"Midas/Midas_main/src/MidasRouter.sol\":6771:6784  address _pair */\n      0x00\n        /* \"Midas/Midas_main/src/MidasRouter.sol\":6787:6794  factory */\n      dup1\n      sload\n        /* \"Midas/Midas_main/src/MidasRouter.sol\":6787:6826  factory.getPairERC721(_tokenX, _tokenY) */\n      mload(0x40)\n      shl(0xe0, 0x83d16e13)\n      dup2\n      mstore\n      sub(shl(0xa0, 0x01), 0x01)\n        /* \"Midas/Midas_main/src/MidasRouter.sol\":6787:6794  factory */\n      swap1\n      swap2\n      and\n      swap1\n        /* \"Midas/Midas_main/src/MidasRouter.sol\":6787:6808  factory.getPairERC721 */\n      0x83d16e13\n      swap1\n        /* \"Midas/Midas_main/src/MidasRouter.sol\":6787:6826  factory.getPairERC721(_tokenX, _tokenY) */\n      tag_367\n      swap1\n        /* \"Midas/Midas_main/src/MidasRouter.sol\":6809:6816  _tokenX */\n      dup12\n      swap1\n        /* \"Midas/Midas_main/src/MidasRouter.sol\":6818:6825  _tokenY */\n      dup12\n      swap1\n        /* \"Midas/Midas_main/src/MidasRouter.sol\":6787:6826  factory.getPairERC721(_tokenX, _tokenY) */\n      0x04\n      add\n      tag_109\n      jump\t// in\n    tag_367:\n      0x20\n      mload(0x40)\n      dup1\n      dup4\n      sub\n      dup2\n      dup7\n      gas\n      staticcall\n      iszero\n      dup1\n      iszero\n      tag_369\n      jumpi\n      returndatasize\n      0x00\n      dup1\n      returndatacopy\n      revert(0x00, returndatasize)\n    tag_369:\n      pop\n      pop\n      pop\n      pop\n      mload(0x40)\n      returndatasize\n      not(0x1f)\n      0x1f\n      dup3\n      add\n      and\n      dup3\n      add\n      dup1\n      0x40\n      mstore\n      pop\n      dup2\n      add\n      swap1\n      tag_370\n      swap2\n      swap1\n      tag_113\n      jump\t// in\n    tag_370:\n        /* \"Midas/Midas_main/src/MidasRouter.sol\":6771:6826  address _pair = factory.getPairERC721(_tokenX, _tokenY) */\n      swap1\n      pop\n        /* \"Midas/Midas_main/src/MidasRouter.sol\":6848:6880  getMinAmountIn(_pair, _tokenIds) */\n      tag_371\n        /* \"Midas/Midas_main/src/MidasRouter.sol\":6863:6868  _pair */\n      dup2\n        /* \"Midas/Midas_main/src/MidasRouter.sol\":6870:6879  _tokenIds */\n      dup8\n      dup8\n        /* \"Midas/Midas_main/src/MidasRouter.sol\":6848:6862  getMinAmountIn */\n      tag_61\n        /* \"Midas/Midas_main/src/MidasRouter.sol\":6848:6880  getMinAmountIn(_pair, _tokenIds) */\n      jump\t// in\n    tag_371:\n        /* \"Midas/Midas_main/src/MidasRouter.sol\":6917:6921  weth */\n      sload(0x01)\n        /* \"Midas/Midas_main/src/MidasRouter.sol\":6836:6880  _ftAmount = getMinAmountIn(_pair, _tokenIds) */\n      swap1\n      swap4\n      pop\n      sub(shl(0xa0, 0x01), 0x01)\n        /* \"Midas/Midas_main/src/MidasRouter.sol\":6898:6922  _tokenY == address(weth) */\n      dup9\n      dup2\n      and\n        /* \"Midas/Midas_main/src/MidasRouter.sol\":6917:6921  weth */\n      swap2\n      and\n        /* \"Midas/Midas_main/src/MidasRouter.sol\":6898:6922  _tokenY == address(weth) */\n      eq\n        /* \"Midas/Midas_main/src/MidasRouter.sol\":6898:6948  _tokenY == address(weth) && msg.value >= _ftAmount */\n      dup1\n      iszero\n      tag_372\n      jumpi\n      pop\n        /* \"Midas/Midas_main/src/MidasRouter.sol\":6939:6948  _ftAmount */\n      dup3\n        /* \"Midas/Midas_main/src/MidasRouter.sol\":6926:6935  msg.value */\n      callvalue\n        /* \"Midas/Midas_main/src/MidasRouter.sol\":6926:6948  msg.value >= _ftAmount */\n      lt\n      iszero\n        /* \"Midas/Midas_main/src/MidasRouter.sol\":6898:6948  _tokenY == address(weth) && msg.value >= _ftAmount */\n    tag_372:\n        /* \"Midas/Midas_main/src/MidasRouter.sol\":6890:6976  require(_tokenY == address(weth) && msg.value >= _ftAmount, \"MIDASROUTER: WRONG PAIR\") */\n      tag_373\n      jumpi\n      mload(0x40)\n      shl(0xe5, 0x461bcd)\n      dup2\n      mstore\n      0x04\n      add\n      tag_105\n      swap1\n      tag_161\n      jump\t// in\n    tag_373:\n        /* \"Midas/Midas_main/src/MidasRouter.sol\":6987:7028  _wethDepositAndTransfer(_pair, msg.value) */\n      tag_375\n        /* \"Midas/Midas_main/src/MidasRouter.sol\":7011:7016  _pair */\n      dup2\n        /* \"Midas/Midas_main/src/MidasRouter.sol\":7018:7027  msg.value */\n      callvalue\n        /* \"Midas/Midas_main/src/MidasRouter.sol\":6987:7010  _wethDepositAndTransfer */\n      tag_291\n        /* \"Midas/Midas_main/src/MidasRouter.sol\":6987:7028  _wethDepositAndTransfer(_pair, msg.value) */\n      jump\t// in\n    tag_375:\n        /* \"Midas/Midas_main/src/MidasRouter.sol\":7038:7100  IERC20(_tokenY).safeTransferFrom(msg.sender, _pair, _ftAmount) */\n      tag_376\n      sub(shl(0xa0, 0x01), 0x01)\n        /* \"Midas/Midas_main/src/MidasRouter.sol\":7038:7070  IERC20(_tokenY).safeTransferFrom */\n      dup9\n      and\n        /* \"Midas/Midas_main/src/MidasRouter.sol\":7071:7081  msg.sender */\n      caller\n        /* \"Midas/Midas_main/src/MidasRouter.sol\":7083:7088  _pair */\n      dup4\n        /* \"Midas/Midas_main/src/MidasRouter.sol\":7090:7099  _ftAmount */\n      dup7\n        /* \"Midas/Midas_main/src/MidasRouter.sol\":7038:7070  IERC20(_tokenY).safeTransferFrom */\n      tag_309\n        /* \"Midas/Midas_main/src/MidasRouter.sol\":7038:7100  IERC20(_tokenY).safeTransferFrom(msg.sender, _pair, _ftAmount) */\n      jump\t// in\n    tag_376:\n        /* \"Midas/Midas_main/src/MidasRouter.sol\":7115:7121  uint i */\n      0x00\n        /* \"Midas/Midas_main/src/MidasRouter.sol\":7110:7232  for (uint i = 0; i < _tokenIds.length; i++) {... */\n    tag_377:\n        /* \"Midas/Midas_main/src/MidasRouter.sol\":7127:7147  i < _tokenIds.length */\n      dup6\n      dup2\n      lt\n        /* \"Midas/Midas_main/src/MidasRouter.sol\":7110:7232  for (uint i = 0; i < _tokenIds.length; i++) {... */\n      iszero\n      tag_193\n      jumpi\n        /* \"Midas/Midas_main/src/MidasRouter.sol\":7182:7187  _pair */\n      dup2\n      sub(shl(0xa0, 0x01), 0x01)\n        /* \"Midas/Midas_main/src/MidasRouter.sol\":7168:7195  IMidasPair721(_pair).buyNFT */\n      and\n      0xd8db47a7\n        /* \"Midas/Midas_main/src/MidasRouter.sol\":7196:7205  _tokenIds */\n      dup9\n      dup9\n        /* \"Midas/Midas_main/src/MidasRouter.sol\":7206:7207  i */\n      dup5\n        /* \"Midas/Midas_main/src/MidasRouter.sol\":7196:7208  _tokenIds[i] */\n      dup2\n      dup2\n      lt\n      tag_381\n      jumpi\n      tag_381\n      tag_119\n      jump\t// in\n    tag_381:\n      swap1\n      pop\n      0x20\n      mul\n      add\n      calldataload\n        /* \"Midas/Midas_main/src/MidasRouter.sol\":7210:7220  msg.sender */\n      caller\n        /* \"Midas/Midas_main/src/MidasRouter.sol\":7168:7221  IMidasPair721(_pair).buyNFT(_tokenIds[i], msg.sender) */\n      mload(0x40)\n      dup4\n      0xffffffff\n      and\n      0xe0\n      shl\n      dup2\n      mstore\n      0x04\n      add\n      tag_382\n      swap3\n      swap2\n      swap1\n      tag_176\n      jump\t// in\n    tag_382:\n      0x00\n      mload(0x40)\n      dup1\n      dup4\n      sub\n      dup2\n      0x00\n      dup8\n      dup1\n      extcodesize\n      iszero\n      dup1\n      iszero\n      tag_383\n      jumpi\n      0x00\n      dup1\n      revert\n    tag_383:\n      pop\n      gas\n      call\n      iszero\n      dup1\n      iszero\n      tag_385\n      jumpi\n      returndatasize\n      0x00\n      dup1\n      returndatacopy\n      revert(0x00, returndatasize)\n    tag_385:\n      pop\n      pop\n      pop\n      pop\n        /* \"Midas/Midas_main/src/MidasRouter.sol\":7149:7152  i++ */\n      dup1\n      dup1\n      tag_386\n      swap1\n      tag_126\n      jump\t// in\n    tag_386:\n      swap2\n      pop\n      pop\n        /* \"Midas/Midas_main/src/MidasRouter.sol\":7110:7232  for (uint i = 0; i < _tokenIds.length; i++) {... */\n      jump(tag_377)\n        /* \"Midas/Midas_main/src/MidasRouter.sol\":7801:8063  function _getAmountsToAdd(... */\n    tag_91:\n        /* \"Midas/Midas_main/src/MidasRouter.sol\":7908:7924  uint256 ftAmount */\n      0x00\n      dup1\n        /* \"Midas/Midas_main/src/MidasRouter.sol\":7936:8057  for (uint i = 0; i < _ids.length; i++) {... */\n    tag_388:\n        /* \"Midas/Midas_main/src/MidasRouter.sol\":7953:7968  i < _ids.length */\n      dup3\n      dup2\n      lt\n        /* \"Midas/Midas_main/src/MidasRouter.sol\":7936:8057  for (uint i = 0; i < _ids.length; i++) {... */\n      iszero\n      tag_389\n      jumpi\n        /* \"Midas/Midas_main/src/MidasRouter.sol\":8015:8020  _pair */\n      dup5\n      sub(shl(0xa0, 0x01), 0x01)\n        /* \"Midas/Midas_main/src/MidasRouter.sol\":8001:8037  IMidasPair721(_pair).getPriceFromBin */\n      and\n      0xfd31c4ab\n        /* \"Midas/Midas_main/src/MidasRouter.sol\":8038:8042  _ids */\n      dup6\n      dup6\n        /* \"Midas/Midas_main/src/MidasRouter.sol\":8043:8044  i */\n      dup5\n        /* \"Midas/Midas_main/src/MidasRouter.sol\":8038:8045  _ids[i] */\n      dup2\n      dup2\n      lt\n      tag_392\n      jumpi\n      tag_392\n      tag_119\n      jump\t// in\n    tag_392:\n      swap1\n      pop\n      0x20\n      mul\n      add\n      0x20\n      dup2\n      add\n      swap1\n      tag_393\n      swap2\n      swap1\n      tag_394\n      jump\t// in\n    tag_393:\n        /* \"Midas/Midas_main/src/MidasRouter.sol\":8001:8046  IMidasPair721(_pair).getPriceFromBin(_ids[i]) */\n      mload(0x40)\n      not(sub(shl(0xe0, 0x01), 0x01))\n      0xe0\n      dup5\n      swap1\n      shl\n      and\n      dup2\n      mstore\n        /* \"#utility.yul\":13538:13546   */\n      0xffffff\n        /* \"#utility.yul\":13526:13547   */\n      swap1\n      swap2\n      and\n        /* \"Midas/Midas_main/src/MidasRouter.sol\":8001:8046  IMidasPair721(_pair).getPriceFromBin(_ids[i]) */\n      0x04\n      dup3\n      add\n        /* \"#utility.yul\":13508:13548   */\n      mstore\n        /* \"#utility.yul\":13481:13499   */\n      0x24\n      add\n        /* \"Midas/Midas_main/src/MidasRouter.sol\":8001:8046  IMidasPair721(_pair).getPriceFromBin(_ids[i]) */\n      0x20\n      mload(0x40)\n      dup1\n      dup4\n      sub\n      dup2\n      dup7\n      gas\n      staticcall\n      iszero\n      dup1\n      iszero\n      tag_397\n      jumpi\n      returndatasize\n      0x00\n      dup1\n      returndatacopy\n      revert(0x00, returndatasize)\n    tag_397:\n      pop\n      pop\n      pop\n      pop\n      mload(0x40)\n      returndatasize\n      not(0x1f)\n      0x1f\n      dup3\n      add\n      and\n      dup3\n      add\n      dup1\n      0x40\n      mstore\n      pop\n      dup2\n      add\n      swap1\n      tag_398\n      swap2\n      swap1\n      tag_207\n      jump\t// in\n    tag_398:\n        /* \"Midas/Midas_main/src/MidasRouter.sol\":7989:8046  ftAmount += IMidasPair721(_pair).getPriceFromBin(_ids[i]) */\n      tag_399\n      swap1\n      dup4\n      tag_265\n      jump\t// in\n    tag_399:\n      swap2\n      pop\n        /* \"Midas/Midas_main/src/MidasRouter.sol\":7970:7973  i++ */\n      dup1\n      tag_400\n      dup2\n      tag_126\n      jump\t// in\n    tag_400:\n      swap2\n      pop\n      pop\n        /* \"Midas/Midas_main/src/MidasRouter.sol\":7936:8057  for (uint i = 0; i < _ids.length; i++) {... */\n      jump(tag_388)\n    tag_389:\n      pop\n        /* \"Midas/Midas_main/src/MidasRouter.sol\":7801:8063  function _getAmountsToAdd(... */\n      swap4\n      swap3\n      pop\n      pop\n      pop\n      jump\t// out\n        /* \"Midas/Midas_main/src/MidasRouter.sol\":3977:4650  function removeLiquidityETH(... */\n    tag_101:\n        /* \"Midas/Midas_main/src/MidasRouter.sol\":4161:4178  uint256 nftAmount */\n      0x00\n        /* \"Midas/Midas_main/src/MidasRouter.sol\":4180:4196  uint256 ftAmount */\n      dup1\n        /* \"Midas/Midas_main/src/MidasRouter.sol\":4141:4150  _deadline */\n      dup3\n        /* \"Midas/Midas_main/src/MidasRouter.sol\":932:947  block.timestamp */\n      timestamp\n        /* \"Midas/Midas_main/src/MidasRouter.sol\":920:928  deadline */\n      dup2\n        /* \"Midas/Midas_main/src/MidasRouter.sol\":920:947  deadline >= block.timestamp */\n      lt\n      iszero\n        /* \"Midas/Midas_main/src/MidasRouter.sol\":912:975  require(deadline >= block.timestamp, 'MidaswapRouter: EXPIRED') */\n      tag_402\n      jumpi\n      mload(0x40)\n      shl(0xe5, 0x461bcd)\n      dup2\n      mstore\n      0x04\n      add\n      tag_105\n      swap1\n      tag_106\n      jump\t// in\n    tag_402:\n        /* \"Midas/Midas_main/src/MidasRouter.sol\":4235:4239  weth */\n      sload(0x01)\n      sub(shl(0xa0, 0x01), 0x01)\n        /* \"Midas/Midas_main/src/MidasRouter.sol\":4216:4240  _tokenY == address(weth) */\n      dup8\n      dup2\n      and\n        /* \"Midas/Midas_main/src/MidasRouter.sol\":4235:4239  weth */\n      swap2\n      and\n        /* \"Midas/Midas_main/src/MidasRouter.sol\":4216:4240  _tokenY == address(weth) */\n      eq\n        /* \"Midas/Midas_main/src/MidasRouter.sol\":4208:4268  require(_tokenY == address(weth), \"MIDASROUTER: WRONG PAIR\") */\n      tag_405\n      jumpi\n      mload(0x40)\n      shl(0xe5, 0x461bcd)\n      dup2\n      mstore\n      0x04\n      add\n      tag_105\n      swap1\n      tag_161\n      jump\t// in\n    tag_405:\n        /* \"Midas/Midas_main/src/MidasRouter.sol\":4278:4291  address _pair */\n      0x00\n        /* \"Midas/Midas_main/src/MidasRouter.sol\":4294:4301  factory */\n      dup1\n      sload\n        /* \"Midas/Midas_main/src/MidasRouter.sol\":4294:4333  factory.getPairERC721(_tokenX, _tokenY) */\n      mload(0x40)\n      shl(0xe0, 0x83d16e13)\n      dup2\n      mstore\n      sub(shl(0xa0, 0x01), 0x01)\n        /* \"Midas/Midas_main/src/MidasRouter.sol\":4294:4301  factory */\n      swap1\n      swap2\n      and\n      swap1\n        /* \"Midas/Midas_main/src/MidasRouter.sol\":4294:4315  factory.getPairERC721 */\n      0x83d16e13\n      swap1\n        /* \"Midas/Midas_main/src/MidasRouter.sol\":4294:4333  factory.getPairERC721(_tokenX, _tokenY) */\n      tag_407\n      swap1\n        /* \"Midas/Midas_main/src/MidasRouter.sol\":4316:4323  _tokenX */\n      dup12\n      swap1\n        /* \"Midas/Midas_main/src/MidasRouter.sol\":4325:4332  _tokenY */\n      dup12\n      swap1\n        /* \"Midas/Midas_main/src/MidasRouter.sol\":4294:4333  factory.getPairERC721(_tokenX, _tokenY) */\n      0x04\n      add\n      tag_109\n      jump\t// in\n    tag_407:\n      0x20\n      mload(0x40)\n      dup1\n      dup4\n      sub\n      dup2\n      dup7\n      gas\n      staticcall\n      iszero\n      dup1\n      iszero\n      tag_409\n      jumpi\n      returndatasize\n      0x00\n      dup1\n      returndatacopy\n      revert(0x00, returndatasize)\n    tag_409:\n      pop\n      pop\n      pop\n      pop\n      mload(0x40)\n      returndatasize\n      not(0x1f)\n      0x1f\n      dup3\n      add\n      and\n      dup3\n      add\n      dup1\n      0x40\n      mstore\n      pop\n      dup2\n      add\n      swap1\n      tag_410\n      swap2\n      swap1\n      tag_113\n      jump\t// in\n    tag_410:\n        /* \"Midas/Midas_main/src/MidasRouter.sol\":4343:4359  address _lpToken */\n      0x00\n        /* \"Midas/Midas_main/src/MidasRouter.sol\":4362:4369  factory */\n      dup1\n      sload\n        /* \"Midas/Midas_main/src/MidasRouter.sol\":4362:4404  factory.getLPTokenERC721(_tokenX, _tokenY) */\n      mload(0x40)\n      shl(0xe0, 0x65329a4f)\n      dup2\n      mstore\n        /* \"Midas/Midas_main/src/MidasRouter.sol\":4278:4333  address _pair = factory.getPairERC721(_tokenX, _tokenY) */\n      swap3\n      swap4\n      pop\n        /* \"Midas/Midas_main/src/MidasRouter.sol\":4343:4359  address _lpToken */\n      swap1\n      swap2\n      sub(shl(0xa0, 0x01), 0x01)\n        /* \"Midas/Midas_main/src/MidasRouter.sol\":4362:4369  factory */\n      swap1\n      swap2\n      and\n      swap1\n        /* \"Midas/Midas_main/src/MidasRouter.sol\":4362:4386  factory.getLPTokenERC721 */\n      0x65329a4f\n      swap1\n        /* \"Midas/Midas_main/src/MidasRouter.sol\":4362:4404  factory.getLPTokenERC721(_tokenX, _tokenY) */\n      tag_411\n      swap1\n        /* \"Midas/Midas_main/src/MidasRouter.sol\":4387:4394  _tokenX */\n      dup13\n      swap1\n        /* \"Midas/Midas_main/src/MidasRouter.sol\":4396:4403  _tokenY */\n      dup13\n      swap1\n        /* \"Midas/Midas_main/src/MidasRouter.sol\":4362:4404  factory.getLPTokenERC721(_tokenX, _tokenY) */\n      0x04\n      add\n      tag_109\n      jump\t// in\n    tag_411:\n      0x20\n      mload(0x40)\n      dup1\n      dup4\n      sub\n      dup2\n      dup7\n      gas\n      staticcall\n      iszero\n      dup1\n      iszero\n      tag_413\n      jumpi\n      returndatasize\n      0x00\n      dup1\n      returndatacopy\n      revert(0x00, returndatasize)\n    tag_413:\n      pop\n      pop\n      pop\n      pop\n      mload(0x40)\n      returndatasize\n      not(0x1f)\n      0x1f\n      dup3\n      add\n      and\n      dup3\n      add\n      dup1\n      0x40\n      mstore\n      pop\n      dup2\n      add\n      swap1\n      tag_414\n      swap2\n      swap1\n      tag_113\n      jump\t// in\n    tag_414:\n        /* \"Midas/Midas_main/src/MidasRouter.sol\":4414:4479  IERC721(_lpToken).safeTransferFrom(msg.sender, _pair, _lpTokenId) */\n      mload(0x40)\n      shl(0xe1, 0x21421707)\n      dup2\n      mstore\n        /* \"Midas/Midas_main/src/MidasRouter.sol\":4343:4404  address _lpToken = factory.getLPTokenERC721(_tokenX, _tokenY) */\n      swap1\n      swap2\n      pop\n      sub(shl(0xa0, 0x01), 0x01)\n        /* \"Midas/Midas_main/src/MidasRouter.sol\":4414:4448  IERC721(_lpToken).safeTransferFrom */\n      dup3\n      and\n      swap1\n      0x42842e0e\n      swap1\n        /* \"Midas/Midas_main/src/MidasRouter.sol\":4414:4479  IERC721(_lpToken).safeTransferFrom(msg.sender, _pair, _lpTokenId) */\n      tag_415\n      swap1\n        /* \"Midas/Midas_main/src/MidasRouter.sol\":4449:4459  msg.sender */\n      caller\n      swap1\n        /* \"Midas/Midas_main/src/MidasRouter.sol\":4461:4466  _pair */\n      dup7\n      swap1\n        /* \"Midas/Midas_main/src/MidasRouter.sol\":4468:4478  _lpTokenId */\n      dup13\n      swap1\n        /* \"Midas/Midas_main/src/MidasRouter.sol\":4414:4479  IERC721(_lpToken).safeTransferFrom(msg.sender, _pair, _lpTokenId) */\n      0x04\n      add\n      tag_171\n      jump\t// in\n    tag_415:\n      0x00\n      mload(0x40)\n      dup1\n      dup4\n      sub\n      dup2\n      0x00\n      dup8\n      dup1\n      extcodesize\n      iszero\n      dup1\n      iszero\n      tag_416\n      jumpi\n      0x00\n      dup1\n      revert\n    tag_416:\n      pop\n      gas\n      call\n      iszero\n      dup1\n      iszero\n      tag_418\n      jumpi\n      returndatasize\n      0x00\n      dup1\n      returndatacopy\n      revert(0x00, returndatasize)\n    tag_418:\n      pop\n      pop\n        /* \"Midas/Midas_main/src/MidasRouter.sol\":4513:4562  IMidasPair721(_pair).burn(_lpTokenId, msg.sender) */\n      mload(0x40)\n      shl(0xe2, 0x3f34d4cf)\n      dup2\n      mstore\n      sub(shl(0xa0, 0x01), 0x01)\n        /* \"Midas/Midas_main/src/MidasRouter.sol\":4513:4538  IMidasPair721(_pair).burn */\n      dup6\n      and\n      swap3\n      pop\n      0xfcd3533c\n      swap2\n      pop\n        /* \"Midas/Midas_main/src/MidasRouter.sol\":4513:4562  IMidasPair721(_pair).burn(_lpTokenId, msg.sender) */\n      tag_419\n      swap1\n        /* \"Midas/Midas_main/src/MidasRouter.sol\":4539:4549  _lpTokenId */\n      dup11\n      swap1\n        /* \"Midas/Midas_main/src/MidasRouter.sol\":4551:4561  msg.sender */\n      caller\n      swap1\n        /* \"Midas/Midas_main/src/MidasRouter.sol\":4513:4562  IMidasPair721(_pair).burn(_lpTokenId, msg.sender) */\n      0x04\n      add\n      tag_176\n      jump\t// in\n    tag_419:\n      0x40\n      dup1\n      mload\n      dup1\n      dup4\n      sub\n      dup2\n      0x00\n      dup8\n      gas\n      call\n      iszero\n      dup1\n      iszero\n      tag_421\n      jumpi\n      returndatasize\n      0x00\n      dup1\n      returndatacopy\n      revert(0x00, returndatasize)\n    tag_421:\n      pop\n      pop\n      pop\n      pop\n      mload(0x40)\n      returndatasize\n      not(0x1f)\n      0x1f\n      dup3\n      add\n      and\n      dup3\n      add\n      dup1\n      0x40\n      mstore\n      pop\n      dup2\n      add\n      swap1\n      tag_422\n      swap2\n      swap1\n      tag_132\n      jump\t// in\n    tag_422:\n        /* \"Midas/Midas_main/src/MidasRouter.sol\":4572:4576  weth */\n      sload(0x01)\n        /* \"Midas/Midas_main/src/MidasRouter.sol\":4572:4595  weth.withdraw(ftAmount) */\n      mload(0x40)\n      shl(0xe0, 0x2e1a7d4d)\n      dup2\n      mstore\n      0x04\n      dup2\n      add\n        /* \"#utility.yul\":3711:3736   */\n      dup4\n      swap1\n      mstore\n        /* \"Midas/Midas_main/src/MidasRouter.sol\":4489:4562  (nftAmount, ftAmount) = IMidasPair721(_pair).burn(_lpTokenId, msg.sender) */\n      swap3\n      swap8\n      pop\n      swap1\n      swap6\n      pop\n      sub(shl(0xa0, 0x01), 0x01)\n        /* \"Midas/Midas_main/src/MidasRouter.sol\":4572:4576  weth */\n      and\n      swap1\n        /* \"Midas/Midas_main/src/MidasRouter.sol\":4572:4585  weth.withdraw */\n      0x2e1a7d4d\n      swap1\n        /* \"#utility.yul\":3684:3702   */\n      0x24\n      add\n        /* \"Midas/Midas_main/src/MidasRouter.sol\":4572:4595  weth.withdraw(ftAmount) */\n      0x00\n      mload(0x40)\n      dup1\n      dup4\n      sub\n      dup2\n      0x00\n      dup8\n      dup1\n      extcodesize\n      iszero\n      dup1\n      iszero\n      tag_424\n      jumpi\n      0x00\n      dup1\n      revert\n    tag_424:\n      pop\n      gas\n      call\n      iszero\n      dup1\n      iszero\n      tag_426\n      jumpi\n      returndatasize\n      0x00\n      dup1\n      returndatacopy\n      revert(0x00, returndatasize)\n    tag_426:\n      pop\n      pop\n      pop\n      pop\n        /* \"Midas/Midas_main/src/MidasRouter.sol\":4605:4643  _safeTransferETH(msg.sender, ftAmount) */\n      tag_180\n        /* \"Midas/Midas_main/src/MidasRouter.sol\":4622:4632  msg.sender */\n      caller\n        /* \"Midas/Midas_main/src/MidasRouter.sol\":4634:4642  ftAmount */\n      dup6\n        /* \"Midas/Midas_main/src/MidasRouter.sol\":4605:4621  _safeTransferETH */\n      tag_213\n        /* \"Midas/Midas_main/src/MidasRouter.sol\":4605:4643  _safeTransferETH(msg.sender, ftAmount) */\n      jump\t// in\n        /* \"Midas/Midas_main/src/libraries/TokenHelper.sol\":1608:2056  function safeTransfer(... */\n    tag_181:\n        /* \"Midas/Midas_main/src/libraries/TokenHelper.sol\":1732:1743  amount != 0 */\n      dup1\n      iszero\n        /* \"Midas/Midas_main/src/libraries/TokenHelper.sol\":1728:2050  if (amount != 0) {... */\n      tag_429\n      jumpi\n        /* \"Midas/Midas_main/src/libraries/TokenHelper.sol\":1759:1776  bytes memory data */\n      0x00\n        /* \"Midas/Midas_main/src/libraries/TokenHelper.sol\":1802:1825  token.transfer.selector */\n      shl(0xe0, 0xa9059cbb)\n        /* \"Midas/Midas_main/src/libraries/TokenHelper.sol\":1827:1836  recipient */\n      dup4\n        /* \"Midas/Midas_main/src/libraries/TokenHelper.sol\":1838:1844  amount */\n      dup4\n        /* \"Midas/Midas_main/src/libraries/TokenHelper.sol\":1779:1845  abi.encodeWithSelector(token.transfer.selector, recipient, amount) */\n      add(0x24, mload(0x40))\n      tag_430\n      swap3\n      swap2\n      swap1\n      tag_121\n      jump\t// in\n    tag_430:\n      0x40\n      dup1\n      mload\n      not(0x1f)\n      dup2\n      dup5\n      sub\n      add\n      dup2\n      mstore\n      swap2\n      swap1\n      mstore\n      0x20\n      dup2\n      add\n      dup1\n      mload\n      sub(shl(0xe0, 0x01), 0x01)\n      and\n      not(sub(shl(0xe0, 0x01), 0x01))\n      swap1\n      swap4\n      and\n      swap3\n      swap1\n      swap3\n      or\n      swap1\n      swap2\n      mstore\n      swap1\n      pop\n      0x00\n        /* \"Midas/Midas_main/src/libraries/TokenHelper.sol\":1886:1926  _callAndCatchError(address(token), data) */\n      tag_431\n        /* \"Midas/Midas_main/src/libraries/TokenHelper.sol\":1913:1918  token */\n      dup6\n        /* \"Midas/Midas_main/src/libraries/TokenHelper.sol\":1779:1845  abi.encodeWithSelector(token.transfer.selector, recipient, amount) */\n      dup4\n        /* \"Midas/Midas_main/src/libraries/TokenHelper.sol\":1886:1904  _callAndCatchError */\n      tag_432\n        /* \"Midas/Midas_main/src/libraries/TokenHelper.sol\":1886:1926  _callAndCatchError(address(token), data) */\n      jump\t// in\n    tag_431:\n        /* \"Midas/Midas_main/src/libraries/TokenHelper.sol\":1860:1926  bytes memory returnData = _callAndCatchError(address(token), data) */\n      swap1\n      pop\n        /* \"Midas/Midas_main/src/libraries/TokenHelper.sol\":1965:1966  0 */\n      0x00\n        /* \"Midas/Midas_main/src/libraries/TokenHelper.sol\":1945:1955  returnData */\n      dup2\n        /* \"Midas/Midas_main/src/libraries/TokenHelper.sol\":1945:1962  returnData.length */\n      mload\n        /* \"Midas/Midas_main/src/libraries/TokenHelper.sol\":1945:1966  returnData.length > 0 */\n      gt\n        /* \"Midas/Midas_main/src/libraries/TokenHelper.sol\":1945:2001  returnData.length > 0 && !abi.decode(returnData, (bool)) */\n      dup1\n      iszero\n      tag_433\n      jumpi\n      pop\n        /* \"Midas/Midas_main/src/libraries/TokenHelper.sol\":1982:1992  returnData */\n      dup1\n        /* \"Midas/Midas_main/src/libraries/TokenHelper.sol\":1971:2001  abi.decode(returnData, (bool)) */\n      dup1\n      0x20\n      add\n      swap1\n      mload\n      dup2\n      add\n      swap1\n      tag_434\n      swap2\n      swap1\n      tag_435\n      jump\t// in\n    tag_434:\n        /* \"Midas/Midas_main/src/libraries/TokenHelper.sol\":1970:2001  !abi.decode(returnData, (bool)) */\n      iszero\n        /* \"Midas/Midas_main/src/libraries/TokenHelper.sol\":1945:2001  returnData.length > 0 && !abi.decode(returnData, (bool)) */\n    tag_433:\n        /* \"Midas/Midas_main/src/libraries/TokenHelper.sol\":1941:2039  if (returnData.length > 0 && !abi.decode(returnData, (bool))) revert TokenHelper__TransferFailed() */\n      iszero\n      tag_436\n      jumpi\n        /* \"Midas/Midas_main/src/libraries/TokenHelper.sol\":2010:2039  TokenHelper__TransferFailed() */\n      mload(0x40)\n      shl(0xe1, 0x197138bd)\n      dup2\n      mstore\n      0x04\n      add\n      mload(0x40)\n      dup1\n      swap2\n      sub\n      swap1\n      revert\n        /* \"Midas/Midas_main/src/libraries/TokenHelper.sol\":1941:2039  if (returnData.length > 0 && !abi.decode(returnData, (bool))) revert TokenHelper__TransferFailed() */\n    tag_436:\n        /* \"Midas/Midas_main/src/libraries/TokenHelper.sol\":1745:2050  {... */\n      pop\n      pop\n        /* \"Midas/Midas_main/src/libraries/TokenHelper.sol\":1728:2050  if (amount != 0) {... */\n    tag_429:\n        /* \"Midas/Midas_main/src/libraries/TokenHelper.sol\":1608:2056  function safeTransfer(... */\n      pop\n      pop\n      pop\n      jump\t// out\n        /* \"Midas/Midas_main/src/MidasRouter.sol\":9045:9207  function _safeTransferETH(address _to, uint256 _amount) private {... */\n    tag_213:\n        /* \"Midas/Midas_main/src/MidasRouter.sol\":9120:9132  bool success */\n      0x00\n        /* \"Midas/Midas_main/src/MidasRouter.sol\":9138:9141  _to */\n      dup3\n      sub(shl(0xa0, 0x01), 0x01)\n        /* \"Midas/Midas_main/src/MidasRouter.sol\":9138:9146  _to.call */\n      and\n        /* \"Midas/Midas_main/src/MidasRouter.sol\":9154:9161  _amount */\n      dup3\n        /* \"Midas/Midas_main/src/MidasRouter.sol\":9138:9166  _to.call{value: _amount}(\"\") */\n      mload(0x40)\n      0x00\n      mload(0x40)\n      dup1\n      dup4\n      sub\n      dup2\n      dup6\n      dup8\n      gas\n      call\n      swap3\n      pop\n      pop\n      pop\n      returndatasize\n      dup1\n      0x00\n      dup2\n      eq\n      tag_442\n      jumpi\n      mload(0x40)\n      swap2\n      pop\n      and(add(returndatasize, 0x3f), not(0x1f))\n      dup3\n      add\n      0x40\n      mstore\n      returndatasize\n      dup3\n      mstore\n      returndatasize\n      0x00\n      0x20\n      dup5\n      add\n      returndatacopy\n      jump(tag_441)\n    tag_442:\n      0x60\n      swap2\n      pop\n    tag_441:\n      pop\n        /* \"Midas/Midas_main/src/MidasRouter.sol\":9119:9166  (bool success, ) = _to.call{value: _amount}(\"\") */\n      swap1\n      swap2\n      pop\n      pop\n        /* \"Midas/Midas_main/src/MidasRouter.sol\":9195:9199  true */\n      0x01\n        /* \"Midas/Midas_main/src/MidasRouter.sol\":9184:9199  success == true */\n      dup2\n      iszero\n      iszero\n      eq\n        /* \"Midas/Midas_main/src/MidasRouter.sol\":9176:9200  require(success == true) */\n      tag_429\n      jumpi\n      0x00\n      dup1\n      revert\n        /* \"Midas/Midas_main/src/MidasRouter.sol\":9213:9368  function _wethDepositAndTransfer(address _to, uint256 _amount) private {... */\n    tag_291:\n        /* \"Midas/Midas_main/src/MidasRouter.sol\":9294:9298  weth */\n      0x01\n      0x00\n      swap1\n      sload\n      swap1\n      0x0100\n      exp\n      swap1\n      div\n      sub(shl(0xa0, 0x01), 0x01)\n      and\n      sub(shl(0xa0, 0x01), 0x01)\n        /* \"Midas/Midas_main/src/MidasRouter.sol\":9294:9306  weth.deposit */\n      and\n      0xd0e30db0\n        /* \"Midas/Midas_main/src/MidasRouter.sol\":9314:9321  _amount */\n      dup3\n        /* \"Midas/Midas_main/src/MidasRouter.sol\":9294:9324  weth.deposit{value: _amount}() */\n      mload(0x40)\n      dup3\n      0xffffffff\n      and\n      0xe0\n      shl\n      dup2\n      mstore\n      0x04\n      add\n      0x00\n      mload(0x40)\n      dup1\n      dup4\n      sub\n      dup2\n      dup6\n      dup9\n      dup1\n      extcodesize\n      iszero\n      dup1\n      iszero\n      tag_445\n      jumpi\n      0x00\n      dup1\n      revert\n    tag_445:\n      pop\n      gas\n      call\n      iszero\n      dup1\n      iszero\n      tag_447\n      jumpi\n      returndatasize\n      0x00\n      dup1\n      returndatacopy\n      revert(0x00, returndatasize)\n    tag_447:\n      pop\n      pop\n        /* \"Midas/Midas_main/src/MidasRouter.sol\":9334:9338  weth */\n      sload(0x01)\n        /* \"Midas/Midas_main/src/MidasRouter.sol\":9334:9361  weth.transfer(_to, _amount) */\n      mload(0x40)\n      shl(0xe0, 0xa9059cbb)\n      dup2\n      mstore\n      sub(shl(0xa0, 0x01), 0x01)\n        /* \"Midas/Midas_main/src/MidasRouter.sol\":9334:9338  weth */\n      swap1\n      swap2\n      and\n      swap4\n      pop\n        /* \"Midas/Midas_main/src/MidasRouter.sol\":9334:9347  weth.transfer */\n      0xa9059cbb\n      swap3\n      pop\n        /* \"Midas/Midas_main/src/MidasRouter.sol\":9334:9361  weth.transfer(_to, _amount) */\n      tag_448\n      swap2\n      pop\n        /* \"Midas/Midas_main/src/MidasRouter.sol\":9348:9351  _to */\n      dup6\n      swap1\n        /* \"Midas/Midas_main/src/MidasRouter.sol\":9353:9360  _amount */\n      dup6\n      swap1\n        /* \"Midas/Midas_main/src/MidasRouter.sol\":9334:9361  weth.transfer(_to, _amount) */\n      0x04\n      add\n      tag_121\n      jump\t// in\n    tag_448:\n      0x20\n      mload(0x40)\n      dup1\n      dup4\n      sub\n      dup2\n      0x00\n      dup8\n      gas\n      call\n      iszero\n      dup1\n      iszero\n      tag_450\n      jumpi\n      returndatasize\n      0x00\n      dup1\n      returndatacopy\n      revert(0x00, returndatasize)\n    tag_450:\n      pop\n      pop\n      pop\n      pop\n      mload(0x40)\n      returndatasize\n      not(0x1f)\n      0x1f\n      dup3\n      add\n      and\n      dup3\n      add\n      dup1\n      0x40\n      mstore\n      pop\n      dup2\n      add\n      swap1\n      tag_429\n      swap2\n      swap1\n      tag_435\n      jump\t// in\n        /* \"Midas/Midas_main/src/libraries/TokenHelper.sol\":903:1389  function safeTransferFrom(... */\n    tag_309:\n        /* \"Midas/Midas_main/src/libraries/TokenHelper.sol\":1054:1065  amount != 0 */\n      dup1\n      iszero\n        /* \"Midas/Midas_main/src/libraries/TokenHelper.sol\":1050:1383  if (amount != 0) {... */\n      tag_453\n      jumpi\n        /* \"Midas/Midas_main/src/libraries/TokenHelper.sol\":1081:1098  bytes memory data */\n      0x00\n        /* \"Midas/Midas_main/src/libraries/TokenHelper.sol\":1124:1151  token.transferFrom.selector */\n      shl(0xe0, 0x23b872dd)\n        /* \"Midas/Midas_main/src/libraries/TokenHelper.sol\":1153:1158  owner */\n      dup5\n        /* \"Midas/Midas_main/src/libraries/TokenHelper.sol\":1160:1169  recipient */\n      dup5\n        /* \"Midas/Midas_main/src/libraries/TokenHelper.sol\":1171:1177  amount */\n      dup5\n        /* \"Midas/Midas_main/src/libraries/TokenHelper.sol\":1101:1178  abi.encodeWithSelector(token.transferFrom.selector, owner, recipient, amount) */\n      add(0x24, mload(0x40))\n      tag_454\n      swap4\n      swap3\n      swap2\n      swap1\n      tag_171\n      jump\t// in\n    tag_454:\n      0x40\n      dup1\n      mload\n      not(0x1f)\n      dup2\n      dup5\n      sub\n      add\n      dup2\n      mstore\n      swap2\n      swap1\n      mstore\n      0x20\n      dup2\n      add\n      dup1\n      mload\n      sub(shl(0xe0, 0x01), 0x01)\n      and\n      not(sub(shl(0xe0, 0x01), 0x01))\n      swap1\n      swap4\n      and\n      swap3\n      swap1\n      swap3\n      or\n      swap1\n      swap2\n      mstore\n      swap1\n      pop\n      0x00\n        /* \"Midas/Midas_main/src/libraries/TokenHelper.sol\":1219:1259  _callAndCatchError(address(token), data) */\n      tag_455\n        /* \"Midas/Midas_main/src/libraries/TokenHelper.sol\":1246:1251  token */\n      dup7\n        /* \"Midas/Midas_main/src/libraries/TokenHelper.sol\":1101:1178  abi.encodeWithSelector(token.transferFrom.selector, owner, recipient, amount) */\n      dup4\n        /* \"Midas/Midas_main/src/libraries/TokenHelper.sol\":1219:1237  _callAndCatchError */\n      tag_432\n        /* \"Midas/Midas_main/src/libraries/TokenHelper.sol\":1219:1259  _callAndCatchError(address(token), data) */\n      jump\t// in\n    tag_455:\n        /* \"Midas/Midas_main/src/libraries/TokenHelper.sol\":1193:1259  bytes memory returnData = _callAndCatchError(address(token), data) */\n      swap1\n      pop\n        /* \"Midas/Midas_main/src/libraries/TokenHelper.sol\":1298:1299  0 */\n      0x00\n        /* \"Midas/Midas_main/src/libraries/TokenHelper.sol\":1278:1288  returnData */\n      dup2\n        /* \"Midas/Midas_main/src/libraries/TokenHelper.sol\":1278:1295  returnData.length */\n      mload\n        /* \"Midas/Midas_main/src/libraries/TokenHelper.sol\":1278:1299  returnData.length > 0 */\n      gt\n        /* \"Midas/Midas_main/src/libraries/TokenHelper.sol\":1278:1334  returnData.length > 0 && !abi.decode(returnData, (bool)) */\n      dup1\n      iszero\n      tag_456\n      jumpi\n      pop\n        /* \"Midas/Midas_main/src/libraries/TokenHelper.sol\":1315:1325  returnData */\n      dup1\n        /* \"Midas/Midas_main/src/libraries/TokenHelper.sol\":1304:1334  abi.decode(returnData, (bool)) */\n      dup1\n      0x20\n      add\n      swap1\n      mload\n      dup2\n      add\n      swap1\n      tag_457\n      swap2\n      swap1\n      tag_435\n      jump\t// in\n    tag_457:\n        /* \"Midas/Midas_main/src/libraries/TokenHelper.sol\":1303:1334  !abi.decode(returnData, (bool)) */\n      iszero\n        /* \"Midas/Midas_main/src/libraries/TokenHelper.sol\":1278:1334  returnData.length > 0 && !abi.decode(returnData, (bool)) */\n    tag_456:\n        /* \"Midas/Midas_main/src/libraries/TokenHelper.sol\":1274:1372  if (returnData.length > 0 && !abi.decode(returnData, (bool))) revert TokenHelper__TransferFailed() */\n      iszero\n      tag_458\n      jumpi\n        /* \"Midas/Midas_main/src/libraries/TokenHelper.sol\":1343:1372  TokenHelper__TransferFailed() */\n      mload(0x40)\n      shl(0xe1, 0x197138bd)\n      dup2\n      mstore\n      0x04\n      add\n      mload(0x40)\n      dup1\n      swap2\n      sub\n      swap1\n      revert\n        /* \"Midas/Midas_main/src/libraries/TokenHelper.sol\":1274:1372  if (returnData.length > 0 && !abi.decode(returnData, (bool))) revert TokenHelper__TransferFailed() */\n    tag_458:\n        /* \"Midas/Midas_main/src/libraries/TokenHelper.sol\":1067:1383  {... */\n      pop\n      pop\n        /* \"Midas/Midas_main/src/libraries/TokenHelper.sol\":1050:1383  if (amount != 0) {... */\n    tag_453:\n        /* \"Midas/Midas_main/src/libraries/TokenHelper.sol\":903:1389  function safeTransferFrom(... */\n      pop\n      pop\n      pop\n      pop\n      jump\t// out\n        /* \"Midas/Midas_main/src/libraries/TokenHelper.sol\":2914:3551  function _callAndCatchError(address target, bytes memory data) private returns (bytes memory) {... */\n    tag_432:\n        /* \"Midas/Midas_main/src/libraries/TokenHelper.sol\":2994:3006  bytes memory */\n      0x60\n        /* \"Midas/Midas_main/src/libraries/TokenHelper.sol\":3019:3031  bool success */\n      0x00\n        /* \"Midas/Midas_main/src/libraries/TokenHelper.sol\":3033:3056  bytes memory returnData */\n      dup1\n        /* \"Midas/Midas_main/src/libraries/TokenHelper.sol\":3060:3066  target */\n      dup5\n      sub(shl(0xa0, 0x01), 0x01)\n        /* \"Midas/Midas_main/src/libraries/TokenHelper.sol\":3060:3071  target.call */\n      and\n        /* \"Midas/Midas_main/src/libraries/TokenHelper.sol\":3072:3076  data */\n      dup5\n        /* \"Midas/Midas_main/src/libraries/TokenHelper.sol\":3060:3077  target.call(data) */\n      mload(0x40)\n      tag_460\n      swap2\n      swap1\n      tag_461\n      jump\t// in\n    tag_460:\n      0x00\n      mload(0x40)\n      dup1\n      dup4\n      sub\n      dup2\n      0x00\n      dup7\n      gas\n      call\n      swap2\n      pop\n      pop\n      returndatasize\n      dup1\n      0x00\n      dup2\n      eq\n      tag_464\n      jumpi\n      mload(0x40)\n      swap2\n      pop\n      and(add(returndatasize, 0x3f), not(0x1f))\n      dup3\n      add\n      0x40\n      mstore\n      returndatasize\n      dup3\n      mstore\n      returndatasize\n      0x00\n      0x20\n      dup5\n      add\n      returndatacopy\n      jump(tag_463)\n    tag_464:\n      0x60\n      swap2\n      pop\n    tag_463:\n      pop\n        /* \"Midas/Midas_main/src/libraries/TokenHelper.sol\":3018:3077  (bool success, bytes memory returnData) = target.call(data) */\n      swap2\n      pop\n      swap2\n      pop\n        /* \"Midas/Midas_main/src/libraries/TokenHelper.sol\":3092:3099  success */\n      dup2\n        /* \"Midas/Midas_main/src/libraries/TokenHelper.sol\":3088:3517  if (success) {... */\n      iszero\n      tag_465\n      jumpi\n        /* \"Midas/Midas_main/src/libraries/TokenHelper.sol\":3119:3136  returnData.length */\n      dup1\n      mload\n        /* \"Midas/Midas_main/src/libraries/TokenHelper.sol\":3119:3141  returnData.length == 0 */\n      iszero\n        /* \"Midas/Midas_main/src/libraries/TokenHelper.sol\":3119:3165  returnData.length == 0 && !_isContract(target) */\n      dup1\n      iszero\n      tag_466\n      jumpi\n      pop\n      sub(shl(0xa0, 0x01), 0x01)\n        /* \"Midas/Midas_main/src/libraries/TokenHelper.sol\":4296:4315  account.code.length */\n      dup6\n      and\n      extcodesize\n        /* \"Midas/Midas_main/src/libraries/TokenHelper.sol\":4296:4319  account.code.length > 0 */\n      iszero\n        /* \"Midas/Midas_main/src/libraries/TokenHelper.sol\":3119:3165  returnData.length == 0 && !_isContract(target) */\n    tag_466:\n        /* \"Midas/Midas_main/src/libraries/TokenHelper.sol\":3115:3200  if (returnData.length == 0 && !_isContract(target)) revert TokenHelper__NonContract() */\n      iszero\n      tag_469\n      jumpi\n        /* \"Midas/Midas_main/src/libraries/TokenHelper.sol\":3174:3200  TokenHelper__NonContract() */\n      mload(0x40)\n      shl(0xe0, 0x5d97df89)\n      dup2\n      mstore\n      0x04\n      add\n      mload(0x40)\n      dup1\n      swap2\n      sub\n      swap1\n      revert\n        /* \"Midas/Midas_main/src/libraries/TokenHelper.sol\":3115:3200  if (returnData.length == 0 && !_isContract(target)) revert TokenHelper__NonContract() */\n    tag_469:\n        /* \"Midas/Midas_main/src/libraries/TokenHelper.sol\":3088:3517  if (success) {... */\n      jump(tag_472)\n    tag_465:\n        /* \"Midas/Midas_main/src/libraries/TokenHelper.sol\":3235:3252  returnData.length */\n      dup1\n      mload\n        /* \"Midas/Midas_main/src/libraries/TokenHelper.sol\":3231:3507  if (returnData.length == 0) revert TokenHelper__CallFailed();... */\n      tag_471\n      jumpi\n        /* \"Midas/Midas_main/src/libraries/TokenHelper.sol\":3266:3291  TokenHelper__CallFailed() */\n      mload(0x40)\n      shl(0xe0, 0x24074291)\n      dup2\n      mstore\n      0x04\n      add\n      mload(0x40)\n      dup1\n      swap2\n      sub\n      swap1\n      revert\n        /* \"Midas/Midas_main/src/libraries/TokenHelper.sol\":3231:3507  if (returnData.length == 0) revert TokenHelper__CallFailed();... */\n    tag_471:\n        /* \"Midas/Midas_main/src/libraries/TokenHelper.sol\":3463:3473  returnData */\n      dup1\n        /* \"Midas/Midas_main/src/libraries/TokenHelper.sol\":3457:3474  mload(returnData) */\n      mload\n        /* \"Midas/Midas_main/src/libraries/TokenHelper.sol\":3444:3454  returnData */\n      dup2\n        /* \"Midas/Midas_main/src/libraries/TokenHelper.sol\":3440:3442  32 */\n      0x20\n        /* \"Midas/Midas_main/src/libraries/TokenHelper.sol\":3436:3455  add(32, returnData) */\n      add\n        /* \"Midas/Midas_main/src/libraries/TokenHelper.sol\":3429:3475  revert(add(32, returnData), mload(returnData)) */\n      revert\n        /* \"Midas/Midas_main/src/libraries/TokenHelper.sol\":3231:3507  if (returnData.length == 0) revert TokenHelper__CallFailed();... */\n    tag_472:\n        /* \"Midas/Midas_main/src/libraries/TokenHelper.sol\":3534:3544  returnData */\n      swap5\n        /* \"Midas/Midas_main/src/libraries/TokenHelper.sol\":2914:3551  function _callAndCatchError(address target, bytes memory data) private returns (bytes memory) {... */\n      swap4\n      pop\n      pop\n      pop\n      pop\n      jump\t// out\n        /* \"#utility.yul\":14:141   */\n    tag_22:\n        /* \"#utility.yul\":75:85   */\n      0x4e487b71\n        /* \"#utility.yul\":70:73   */\n      0xe0\n        /* \"#utility.yul\":66:86   */\n      shl\n        /* \"#utility.yul\":63:64   */\n      0x00\n        /* \"#utility.yul\":56:87   */\n      mstore\n        /* \"#utility.yul\":106:110   */\n      0x01\n        /* \"#utility.yul\":103:104   */\n      0x04\n        /* \"#utility.yul\":96:111   */\n      mstore\n        /* \"#utility.yul\":130:134   */\n      0x24\n        /* \"#utility.yul\":127:128   */\n      0x00\n        /* \"#utility.yul\":120:135   */\n      revert\n        /* \"#utility.yul\":146:277   */\n    tag_474:\n      sub(shl(0xa0, 0x01), 0x01)\n        /* \"#utility.yul\":221:252   */\n      dup2\n      and\n        /* \"#utility.yul\":211:253   */\n      dup2\n      eq\n        /* \"#utility.yul\":201:271   */\n      tag_482\n      jumpi\n        /* \"#utility.yul\":267:268   */\n      0x00\n        /* \"#utility.yul\":264:265   */\n      dup1\n        /* \"#utility.yul\":257:269   */\n      revert\n        /* \"#utility.yul\":201:271   */\n    tag_482:\n        /* \"#utility.yul\":146:277   */\n      pop\n      jump\t// out\n        /* \"#utility.yul\":282:648   */\n    tag_475:\n        /* \"#utility.yul\":344:352   */\n      0x00\n        /* \"#utility.yul\":354:360   */\n      dup1\n        /* \"#utility.yul\":408:411   */\n      dup4\n        /* \"#utility.yul\":401:405   */\n      0x1f\n        /* \"#utility.yul\":393:399   */\n      dup5\n        /* \"#utility.yul\":389:406   */\n      add\n        /* \"#utility.yul\":385:412   */\n      slt\n        /* \"#utility.yul\":375:430   */\n      tag_484\n      jumpi\n        /* \"#utility.yul\":426:427   */\n      0x00\n        /* \"#utility.yul\":423:424   */\n      dup1\n        /* \"#utility.yul\":416:428   */\n      revert\n        /* \"#utility.yul\":375:430   */\n    tag_484:\n      pop\n        /* \"#utility.yul\":449:469   */\n      dup2\n      calldataload\n      sub(shl(0x40, 0x01), 0x01)\n        /* \"#utility.yul\":481:511   */\n      dup2\n      gt\n        /* \"#utility.yul\":478:528   */\n      iszero\n      tag_485\n      jumpi\n        /* \"#utility.yul\":524:525   */\n      0x00\n        /* \"#utility.yul\":521:522   */\n      dup1\n        /* \"#utility.yul\":514:526   */\n      revert\n        /* \"#utility.yul\":478:528   */\n    tag_485:\n        /* \"#utility.yul\":561:565   */\n      0x20\n        /* \"#utility.yul\":553:559   */\n      dup4\n        /* \"#utility.yul\":549:566   */\n      add\n        /* \"#utility.yul\":537:566   */\n      swap2\n      pop\n        /* \"#utility.yul\":621:624   */\n      dup4\n        /* \"#utility.yul\":614:618   */\n      0x20\n        /* \"#utility.yul\":604:610   */\n      dup3\n        /* \"#utility.yul\":601:602   */\n      0x05\n        /* \"#utility.yul\":597:611   */\n      shl\n        /* \"#utility.yul\":589:595   */\n      dup6\n        /* \"#utility.yul\":585:612   */\n      add\n        /* \"#utility.yul\":581:619   */\n      add\n        /* \"#utility.yul\":578:625   */\n      gt\n        /* \"#utility.yul\":575:642   */\n      iszero\n      tag_486\n      jumpi\n        /* \"#utility.yul\":638:639   */\n      0x00\n        /* \"#utility.yul\":635:636   */\n      dup1\n        /* \"#utility.yul\":628:640   */\n      revert\n        /* \"#utility.yul\":575:642   */\n    tag_486:\n        /* \"#utility.yul\":282:648   */\n      swap3\n      pop\n      swap3\n      swap1\n      pop\n      jump\t// out\n        /* \"#utility.yul\":653:1769   */\n    tag_26:\n        /* \"#utility.yul\":801:807   */\n      0x00\n        /* \"#utility.yul\":809:815   */\n      dup1\n        /* \"#utility.yul\":817:823   */\n      0x00\n        /* \"#utility.yul\":825:831   */\n      dup1\n        /* \"#utility.yul\":833:839   */\n      0x00\n        /* \"#utility.yul\":841:847   */\n      dup1\n        /* \"#utility.yul\":849:855   */\n      0x00\n        /* \"#utility.yul\":902:905   */\n      0xa0\n        /* \"#utility.yul\":890:899   */\n      dup9\n        /* \"#utility.yul\":881:888   */\n      dup11\n        /* \"#utility.yul\":877:900   */\n      sub\n        /* \"#utility.yul\":873:906   */\n      slt\n        /* \"#utility.yul\":870:923   */\n      iszero\n      tag_488\n      jumpi\n        /* \"#utility.yul\":919:920   */\n      0x00\n        /* \"#utility.yul\":916:917   */\n      dup1\n        /* \"#utility.yul\":909:921   */\n      revert\n        /* \"#utility.yul\":870:923   */\n    tag_488:\n        /* \"#utility.yul\":958:967   */\n      dup8\n        /* \"#utility.yul\":945:968   */\n      calldataload\n        /* \"#utility.yul\":977:1008   */\n      tag_489\n        /* \"#utility.yul\":1002:1007   */\n      dup2\n        /* \"#utility.yul\":977:1008   */\n      tag_474\n      jump\t// in\n    tag_489:\n        /* \"#utility.yul\":1027:1032   */\n      swap7\n      pop\n        /* \"#utility.yul\":1084:1086   */\n      0x20\n        /* \"#utility.yul\":1069:1087   */\n      dup9\n      add\n        /* \"#utility.yul\":1056:1088   */\n      calldataload\n        /* \"#utility.yul\":1097:1130   */\n      tag_490\n        /* \"#utility.yul\":1056:1088   */\n      dup2\n        /* \"#utility.yul\":1097:1130   */\n      tag_474\n      jump\t// in\n    tag_490:\n        /* \"#utility.yul\":1149:1156   */\n      swap6\n      pop\n        /* \"#utility.yul\":1207:1209   */\n      0x40\n        /* \"#utility.yul\":1192:1210   */\n      dup9\n      add\n        /* \"#utility.yul\":1179:1211   */\n      calldataload\n      sub(shl(0x40, 0x01), 0x01)\n        /* \"#utility.yul\":1260:1274   */\n      dup1\n      dup3\n      gt\n        /* \"#utility.yul\":1257:1291   */\n      iszero\n      tag_491\n      jumpi\n        /* \"#utility.yul\":1287:1288   */\n      0x00\n        /* \"#utility.yul\":1284:1285   */\n      dup1\n        /* \"#utility.yul\":1277:1289   */\n      revert\n        /* \"#utility.yul\":1257:1291   */\n    tag_491:\n        /* \"#utility.yul\":1326:1395   */\n      tag_492\n        /* \"#utility.yul\":1387:1394   */\n      dup12\n        /* \"#utility.yul\":1378:1384   */\n      dup4\n        /* \"#utility.yul\":1367:1376   */\n      dup13\n        /* \"#utility.yul\":1363:1385   */\n      add\n        /* \"#utility.yul\":1326:1395   */\n      tag_475\n      jump\t// in\n    tag_492:\n        /* \"#utility.yul\":1414:1422   */\n      swap1\n      swap8\n      pop\n        /* \"#utility.yul\":1300:1395   */\n      swap6\n      pop\n        /* \"#utility.yul\":1502:1504   */\n      0x60\n        /* \"#utility.yul\":1487:1505   */\n      dup11\n      add\n        /* \"#utility.yul\":1474:1506   */\n      calldataload\n      swap2\n      pop\n        /* \"#utility.yul\":1518:1534   */\n      dup1\n      dup3\n      gt\n        /* \"#utility.yul\":1515:1551   */\n      iszero\n      tag_493\n      jumpi\n        /* \"#utility.yul\":1547:1548   */\n      0x00\n        /* \"#utility.yul\":1544:1545   */\n      dup1\n        /* \"#utility.yul\":1537:1549   */\n      revert\n        /* \"#utility.yul\":1515:1551   */\n    tag_493:\n      pop\n        /* \"#utility.yul\":1586:1657   */\n      tag_494\n        /* \"#utility.yul\":1649:1656   */\n      dup11\n        /* \"#utility.yul\":1638:1646   */\n      dup3\n        /* \"#utility.yul\":1627:1636   */\n      dup12\n        /* \"#utility.yul\":1623:1647   */\n      add\n        /* \"#utility.yul\":1586:1657   */\n      tag_475\n      jump\t// in\n    tag_494:\n        /* \"#utility.yul\":653:1769   */\n      swap9\n      swap12\n      swap8\n      swap11\n      pop\n      swap6\n      swap9\n      swap5\n      swap8\n      swap6\n      swap7\n        /* \"#utility.yul\":1758:1761   */\n      0x80\n        /* \"#utility.yul\":1743:1762   */\n      swap1\n      swap6\n      add\n        /* \"#utility.yul\":1730:1763   */\n      calldataload\n      swap5\n        /* \"#utility.yul\":653:1769   */\n      swap4\n      pop\n      pop\n      pop\n      pop\n      jump\t// out\n        /* \"#utility.yul\":2027:2552   */\n    tag_38:\n        /* \"#utility.yul\":2113:2119   */\n      0x00\n        /* \"#utility.yul\":2121:2127   */\n      dup1\n        /* \"#utility.yul\":2129:2135   */\n      0x00\n        /* \"#utility.yul\":2137:2143   */\n      dup1\n        /* \"#utility.yul\":2190:2193   */\n      0x80\n        /* \"#utility.yul\":2178:2187   */\n      dup6\n        /* \"#utility.yul\":2169:2176   */\n      dup8\n        /* \"#utility.yul\":2165:2188   */\n      sub\n        /* \"#utility.yul\":2161:2194   */\n      slt\n        /* \"#utility.yul\":2158:2211   */\n      iszero\n      tag_497\n      jumpi\n        /* \"#utility.yul\":2207:2208   */\n      0x00\n        /* \"#utility.yul\":2204:2205   */\n      dup1\n        /* \"#utility.yul\":2197:2209   */\n      revert\n        /* \"#utility.yul\":2158:2211   */\n    tag_497:\n        /* \"#utility.yul\":2246:2255   */\n      dup5\n        /* \"#utility.yul\":2233:2256   */\n      calldataload\n        /* \"#utility.yul\":2265:2296   */\n      tag_498\n        /* \"#utility.yul\":2290:2295   */\n      dup2\n        /* \"#utility.yul\":2265:2296   */\n      tag_474\n      jump\t// in\n    tag_498:\n        /* \"#utility.yul\":2315:2320   */\n      swap4\n      pop\n        /* \"#utility.yul\":2372:2374   */\n      0x20\n        /* \"#utility.yul\":2357:2375   */\n      dup6\n      add\n        /* \"#utility.yul\":2344:2376   */\n      calldataload\n        /* \"#utility.yul\":2385:2418   */\n      tag_499\n        /* \"#utility.yul\":2344:2376   */\n      dup2\n        /* \"#utility.yul\":2385:2418   */\n      tag_474\n      jump\t// in\n    tag_499:\n        /* \"#utility.yul\":2027:2552   */\n      swap4\n      swap7\n        /* \"#utility.yul\":2437:2444   */\n      swap4\n      swap6\n      pop\n      pop\n      pop\n      pop\n        /* \"#utility.yul\":2491:2493   */\n      0x40\n        /* \"#utility.yul\":2476:2494   */\n      dup3\n      add\n        /* \"#utility.yul\":2463:2495   */\n      calldataload\n      swap2\n        /* \"#utility.yul\":2542:2544   */\n      0x60\n        /* \"#utility.yul\":2527:2545   */\n      add\n        /* \"#utility.yul\":2514:2546   */\n      calldataload\n      swap1\n        /* \"#utility.yul\":2027:2552   */\n      jump\t// out\n        /* \"#utility.yul\":2779:3560   */\n    tag_48:\n        /* \"#utility.yul\":2892:2898   */\n      0x00\n        /* \"#utility.yul\":2900:2906   */\n      dup1\n        /* \"#utility.yul\":2908:2914   */\n      0x00\n        /* \"#utility.yul\":2916:2922   */\n      dup1\n        /* \"#utility.yul\":2924:2930   */\n      0x00\n        /* \"#utility.yul\":2977:2980   */\n      0x80\n        /* \"#utility.yul\":2965:2974   */\n      dup7\n        /* \"#utility.yul\":2956:2963   */\n      dup9\n        /* \"#utility.yul\":2952:2975   */\n      sub\n        /* \"#utility.yul\":2948:2981   */\n      slt\n        /* \"#utility.yul\":2945:2998   */\n      iszero\n      tag_502\n      jumpi\n        /* \"#utility.yul\":2994:2995   */\n      0x00\n        /* \"#utility.yul\":2991:2992   */\n      dup1\n        /* \"#utility.yul\":2984:2996   */\n      revert\n        /* \"#utility.yul\":2945:2998   */\n    tag_502:\n        /* \"#utility.yul\":3033:3042   */\n      dup6\n        /* \"#utility.yul\":3020:3043   */\n      calldataload\n        /* \"#utility.yul\":3052:3083   */\n      tag_503\n        /* \"#utility.yul\":3077:3082   */\n      dup2\n        /* \"#utility.yul\":3052:3083   */\n      tag_474\n      jump\t// in\n    tag_503:\n        /* \"#utility.yul\":3102:3107   */\n      swap5\n      pop\n        /* \"#utility.yul\":3159:3161   */\n      0x20\n        /* \"#utility.yul\":3144:3162   */\n      dup7\n      add\n        /* \"#utility.yul\":3131:3163   */\n      calldataload\n        /* \"#utility.yul\":3172:3205   */\n      tag_504\n        /* \"#utility.yul\":3131:3163   */\n      dup2\n        /* \"#utility.yul\":3172:3205   */\n      tag_474\n      jump\t// in\n    tag_504:\n        /* \"#utility.yul\":3224:3231   */\n      swap4\n      pop\n        /* \"#utility.yul\":3282:3284   */\n      0x40\n        /* \"#utility.yul\":3267:3285   */\n      dup7\n      add\n        /* \"#utility.yul\":3254:3286   */\n      calldataload\n      sub(shl(0x40, 0x01), 0x01)\n        /* \"#utility.yul\":3298:3328   */\n      dup2\n      gt\n        /* \"#utility.yul\":3295:3345   */\n      iszero\n      tag_505\n      jumpi\n        /* \"#utility.yul\":3341:3342   */\n      0x00\n        /* \"#utility.yul\":3338:3339   */\n      dup1\n        /* \"#utility.yul\":3331:3343   */\n      revert\n        /* \"#utility.yul\":3295:3345   */\n    tag_505:\n        /* \"#utility.yul\":3380:3449   */\n      tag_506\n        /* \"#utility.yul\":3441:3448   */\n      dup9\n        /* \"#utility.yul\":3432:3438   */\n      dup3\n        /* \"#utility.yul\":3421:3430   */\n      dup10\n        /* \"#utility.yul\":3417:3439   */\n      add\n        /* \"#utility.yul\":3380:3449   */\n      tag_475\n      jump\t// in\n    tag_506:\n        /* \"#utility.yul\":2779:3560   */\n      swap7\n      swap10\n      swap6\n      swap9\n      pop\n        /* \"#utility.yul\":3468:3476   */\n      swap7\n        /* \"#utility.yul\":3550:3552   */\n      0x60\n        /* \"#utility.yul\":3535:3553   */\n      add\n        /* \"#utility.yul\":3522:3554   */\n      calldataload\n      swap5\n        /* \"#utility.yul\":2779:3560   */\n      swap4\n      pop\n      pop\n      pop\n      pop\n      jump\t// out\n        /* \"#utility.yul\":3980:4551   */\n    tag_60:\n        /* \"#utility.yul\":4075:4081   */\n      0x00\n        /* \"#utility.yul\":4083:4089   */\n      dup1\n        /* \"#utility.yul\":4091:4097   */\n      0x00\n        /* \"#utility.yul\":4144:4146   */\n      0x40\n        /* \"#utility.yul\":4132:4141   */\n      dup5\n        /* \"#utility.yul\":4123:4130   */\n      dup7\n        /* \"#utility.yul\":4119:4142   */\n      sub\n        /* \"#utility.yul\":4115:4147   */\n      slt\n        /* \"#utility.yul\":4112:4164   */\n      iszero\n      tag_510\n      jumpi\n        /* \"#utility.yul\":4160:4161   */\n      0x00\n        /* \"#utility.yul\":4157:4158   */\n      dup1\n        /* \"#utility.yul\":4150:4162   */\n      revert\n        /* \"#utility.yul\":4112:4164   */\n    tag_510:\n        /* \"#utility.yul\":4199:4208   */\n      dup4\n        /* \"#utility.yul\":4186:4209   */\n      calldataload\n        /* \"#utility.yul\":4218:4249   */\n      tag_511\n        /* \"#utility.yul\":4243:4248   */\n      dup2\n        /* \"#utility.yul\":4218:4249   */\n      tag_474\n      jump\t// in\n    tag_511:\n        /* \"#utility.yul\":4268:4273   */\n      swap3\n      pop\n        /* \"#utility.yul\":4324:4326   */\n      0x20\n        /* \"#utility.yul\":4309:4327   */\n      dup5\n      add\n        /* \"#utility.yul\":4296:4328   */\n      calldataload\n      sub(shl(0x40, 0x01), 0x01)\n        /* \"#utility.yul\":4340:4370   */\n      dup2\n      gt\n        /* \"#utility.yul\":4337:4387   */\n      iszero\n      tag_512\n      jumpi\n        /* \"#utility.yul\":4383:4384   */\n      0x00\n        /* \"#utility.yul\":4380:4381   */\n      dup1\n        /* \"#utility.yul\":4373:4385   */\n      revert\n        /* \"#utility.yul\":4337:4387   */\n    tag_512:\n        /* \"#utility.yul\":4422:4491   */\n      tag_513\n        /* \"#utility.yul\":4483:4490   */\n      dup7\n        /* \"#utility.yul\":4474:4480   */\n      dup3\n        /* \"#utility.yul\":4463:4472   */\n      dup8\n        /* \"#utility.yul\":4459:4481   */\n      add\n        /* \"#utility.yul\":4422:4491   */\n      tag_475\n      jump\t// in\n    tag_513:\n        /* \"#utility.yul\":3980:4551   */\n      swap5\n      swap8\n        /* \"#utility.yul\":4510:4518   */\n      swap1\n      swap7\n      pop\n        /* \"#utility.yul\":4396:4491   */\n      swap4\n      swap5\n      pop\n      pop\n      pop\n      pop\n        /* \"#utility.yul\":3980:4551   */\n      jump\t// out\n        /* \"#utility.yul\":6149:6496   */\n    tag_106:\n        /* \"#utility.yul\":6351:6353   */\n      0x20\n        /* \"#utility.yul\":6333:6354   */\n      dup1\n      dup3\n      mstore\n        /* \"#utility.yul\":6390:6392   */\n      0x17\n        /* \"#utility.yul\":6370:6388   */\n      swap1\n      dup3\n      add\n        /* \"#utility.yul\":6363:6393   */\n      mstore\n      shl(0x4a, 0x135a59185cddd85c149bdd5d195c8e8811561412549151)\n        /* \"#utility.yul\":6424:6426   */\n      0x40\n        /* \"#utility.yul\":6409:6427   */\n      dup3\n      add\n        /* \"#utility.yul\":6402:6455   */\n      mstore\n        /* \"#utility.yul\":6487:6489   */\n      0x60\n        /* \"#utility.yul\":6472:6490   */\n      add\n      swap1\n        /* \"#utility.yul\":6149:6496   */\n      jump\t// out\n        /* \"#utility.yul\":6501:6805   */\n    tag_109:\n      sub(shl(0xa0, 0x01), 0x01)\n        /* \"#utility.yul\":6731:6746   */\n      swap3\n      dup4\n      and\n        /* \"#utility.yul\":6713:6747   */\n      dup2\n      mstore\n        /* \"#utility.yul\":6783:6798   */\n      swap2\n      and\n        /* \"#utility.yul\":6778:6780   */\n      0x20\n        /* \"#utility.yul\":6763:6781   */\n      dup3\n      add\n        /* \"#utility.yul\":6756:6799   */\n      mstore\n        /* \"#utility.yul\":6663:6665   */\n      0x40\n        /* \"#utility.yul\":6648:6666   */\n      add\n      swap1\n        /* \"#utility.yul\":6501:6805   */\n      jump\t// out\n        /* \"#utility.yul\":6810:7061   */\n    tag_113:\n        /* \"#utility.yul\":6880:6886   */\n      0x00\n        /* \"#utility.yul\":6933:6935   */\n      0x20\n        /* \"#utility.yul\":6921:6930   */\n      dup3\n        /* \"#utility.yul\":6912:6919   */\n      dup5\n        /* \"#utility.yul\":6908:6931   */\n      sub\n        /* \"#utility.yul\":6904:6936   */\n      slt\n        /* \"#utility.yul\":6901:6953   */\n      iszero\n      tag_529\n      jumpi\n        /* \"#utility.yul\":6949:6950   */\n      0x00\n        /* \"#utility.yul\":6946:6947   */\n      dup1\n        /* \"#utility.yul\":6939:6951   */\n      revert\n        /* \"#utility.yul\":6901:6953   */\n    tag_529:\n        /* \"#utility.yul\":6981:6990   */\n      dup2\n        /* \"#utility.yul\":6975:6991   */\n      mload\n        /* \"#utility.yul\":7000:7031   */\n      tag_530\n        /* \"#utility.yul\":7025:7030   */\n      dup2\n        /* \"#utility.yul\":7000:7031   */\n      tag_474\n      jump\t// in\n    tag_530:\n        /* \"#utility.yul\":7050:7055   */\n      swap4\n        /* \"#utility.yul\":6810:7061   */\n      swap3\n      pop\n      pop\n      pop\n      jump\t// out\n        /* \"#utility.yul\":7066:7193   */\n    tag_119:\n        /* \"#utility.yul\":7127:7137   */\n      0x4e487b71\n        /* \"#utility.yul\":7122:7125   */\n      0xe0\n        /* \"#utility.yul\":7118:7138   */\n      shl\n        /* \"#utility.yul\":7115:7116   */\n      0x00\n        /* \"#utility.yul\":7108:7139   */\n      mstore\n        /* \"#utility.yul\":7158:7162   */\n      0x32\n        /* \"#utility.yul\":7155:7156   */\n      0x04\n        /* \"#utility.yul\":7148:7163   */\n      mstore\n        /* \"#utility.yul\":7182:7186   */\n      0x24\n        /* \"#utility.yul\":7179:7180   */\n      0x00\n        /* \"#utility.yul\":7172:7187   */\n      revert\n        /* \"#utility.yul\":7198:7472   */\n    tag_121:\n      sub(shl(0xa0, 0x01), 0x01)\n        /* \"#utility.yul\":7390:7422   */\n      swap3\n      swap1\n      swap3\n      and\n        /* \"#utility.yul\":7372:7423   */\n      dup3\n      mstore\n        /* \"#utility.yul\":7454:7456   */\n      0x20\n        /* \"#utility.yul\":7439:7457   */\n      dup3\n      add\n        /* \"#utility.yul\":7432:7466   */\n      mstore\n        /* \"#utility.yul\":7360:7362   */\n      0x40\n        /* \"#utility.yul\":7345:7363   */\n      add\n      swap1\n        /* \"#utility.yul\":7198:7472   */\n      jump\t// out\n        /* \"#utility.yul\":7477:7604   */\n    tag_476:\n        /* \"#utility.yul\":7538:7548   */\n      0x4e487b71\n        /* \"#utility.yul\":7533:7536   */\n      0xe0\n        /* \"#utility.yul\":7529:7549   */\n      shl\n        /* \"#utility.yul\":7526:7527   */\n      0x00\n        /* \"#utility.yul\":7519:7550   */\n      mstore\n        /* \"#utility.yul\":7569:7573   */\n      0x11\n        /* \"#utility.yul\":7566:7567   */\n      0x04\n        /* \"#utility.yul\":7559:7574   */\n      mstore\n        /* \"#utility.yul\":7593:7597   */\n      0x24\n        /* \"#utility.yul\":7590:7591   */\n      0x00\n        /* \"#utility.yul\":7583:7598   */\n      revert\n        /* \"#utility.yul\":7609:7744   */\n    tag_126:\n        /* \"#utility.yul\":7648:7651   */\n      0x00\n      not(0x00)\n        /* \"#utility.yul\":7669:7686   */\n      dup3\n      eq\n        /* \"#utility.yul\":7666:7709   */\n      iszero\n      tag_536\n      jumpi\n        /* \"#utility.yul\":7689:7707   */\n      tag_536\n      tag_476\n      jump\t// in\n    tag_536:\n      pop\n        /* \"#utility.yul\":7736:7737   */\n      0x01\n        /* \"#utility.yul\":7725:7738   */\n      add\n      swap1\n        /* \"#utility.yul\":7609:7744   */\n      jump\t// out\n        /* \"#utility.yul\":7749:7868   */\n    tag_477:\n        /* \"#utility.yul\":7834:7842   */\n      0xffffff\n        /* \"#utility.yul\":7827:7832   */\n      dup2\n        /* \"#utility.yul\":7823:7843   */\n      and\n        /* \"#utility.yul\":7816:7821   */\n      dup2\n        /* \"#utility.yul\":7813:7844   */\n      eq\n        /* \"#utility.yul\":7803:7862   */\n      tag_482\n      jumpi\n        /* \"#utility.yul\":7858:7859   */\n      0x00\n        /* \"#utility.yul\":7855:7856   */\n      dup1\n        /* \"#utility.yul\":7848:7860   */\n      revert\n        /* \"#utility.yul\":7873:8382   */\n    tag_478:\n        /* \"#utility.yul\":7972:7978   */\n      dup2\n        /* \"#utility.yul\":7967:7970   */\n      dup4\n        /* \"#utility.yul\":7960:7979   */\n      mstore\n        /* \"#utility.yul\":7942:7945   */\n      0x00\n        /* \"#utility.yul\":7998:8002   */\n      0x20\n        /* \"#utility.yul\":8027:8029   */\n      dup1\n        /* \"#utility.yul\":8022:8025   */\n      dup6\n        /* \"#utility.yul\":8018:8030   */\n      add\n        /* \"#utility.yul\":8011:8030   */\n      swap5\n      pop\n        /* \"#utility.yul\":8053:8058   */\n      dup3\n        /* \"#utility.yul\":8076:8077   */\n      0x00\n        /* \"#utility.yul\":8086:8357   */\n    tag_540:\n        /* \"#utility.yul\":8100:8106   */\n      dup6\n        /* \"#utility.yul\":8097:8098   */\n      dup2\n        /* \"#utility.yul\":8094:8107   */\n      lt\n        /* \"#utility.yul\":8086:8357   */\n      iszero\n      tag_542\n      jumpi\n        /* \"#utility.yul\":8177:8183   */\n      dup2\n        /* \"#utility.yul\":8164:8184   */\n      calldataload\n        /* \"#utility.yul\":8197:8229   */\n      tag_543\n        /* \"#utility.yul\":8221:8228   */\n      dup2\n        /* \"#utility.yul\":8197:8229   */\n      tag_477\n      jump\t// in\n    tag_543:\n        /* \"#utility.yul\":8267:8275   */\n      0xffffff\n        /* \"#utility.yul\":8254:8276   */\n      and\n        /* \"#utility.yul\":8242:8277   */\n      dup8\n      mstore\n        /* \"#utility.yul\":8297:8309   */\n      swap6\n      dup3\n      add\n      swap6\n        /* \"#utility.yul\":8332:8347   */\n      swap1\n      dup3\n      add\n      swap1\n        /* \"#utility.yul\":8122:8123   */\n      0x01\n        /* \"#utility.yul\":8115:8124   */\n      add\n        /* \"#utility.yul\":8086:8357   */\n      jump(tag_540)\n    tag_542:\n      pop\n        /* \"#utility.yul\":8373:8376   */\n      swap5\n      swap6\n        /* \"#utility.yul\":7873:8382   */\n      swap5\n      pop\n      pop\n      pop\n      pop\n      pop\n      jump\t// out\n        /* \"#utility.yul\":8387:9275   */\n    tag_128:\n        /* \"#utility.yul\":8712:8715   */\n      0x80\n        /* \"#utility.yul\":8701:8710   */\n      dup2\n        /* \"#utility.yul\":8694:8716   */\n      mstore\n        /* \"#utility.yul\":8675:8679   */\n      0x00\n        /* \"#utility.yul\":8739:8812   */\n      tag_545\n        /* \"#utility.yul\":8807:8810   */\n      0x80\n        /* \"#utility.yul\":8796:8805   */\n      dup4\n        /* \"#utility.yul\":8792:8811   */\n      add\n        /* \"#utility.yul\":8784:8790   */\n      dup9\n        /* \"#utility.yul\":8776:8782   */\n      dup11\n        /* \"#utility.yul\":8739:8812   */\n      tag_478\n      jump\t// in\n    tag_545:\n        /* \"#utility.yul\":8848:8870   */\n      dup3\n      dup2\n      sub\n        /* \"#utility.yul\":8843:8845   */\n      0x20\n        /* \"#utility.yul\":8828:8846   */\n      dup5\n      add\n        /* \"#utility.yul\":8821:8871   */\n      mstore\n        /* \"#utility.yul\":8880:8902   */\n      dup6\n      dup2\n      mstore\n      sub(shl(0xfb, 0x01), 0x01)\n        /* \"#utility.yul\":8914:8945   */\n      dup7\n      gt\n        /* \"#utility.yul\":8911:8962   */\n      iszero\n      tag_546\n      jumpi\n        /* \"#utility.yul\":8958:8959   */\n      0x00\n        /* \"#utility.yul\":8955:8956   */\n      dup1\n        /* \"#utility.yul\":8948:8960   */\n      revert\n        /* \"#utility.yul\":8911:8962   */\n    tag_546:\n        /* \"#utility.yul\":8992:8998   */\n      dup6\n        /* \"#utility.yul\":8989:8990   */\n      0x05\n        /* \"#utility.yul\":8985:8999   */\n      shl\n        /* \"#utility.yul\":9046:9052   */\n      dup1\n        /* \"#utility.yul\":9038:9044   */\n      dup9\n        /* \"#utility.yul\":9033:9035   */\n      0x20\n        /* \"#utility.yul\":9025:9031   */\n      dup5\n        /* \"#utility.yul\":9021:9036   */\n      add\n        /* \"#utility.yul\":9008:9053   */\n      calldatacopy\n        /* \"#utility.yul\":9120:9121   */\n      0x00\n        /* \"#utility.yul\":9076:9095   */\n      swap2\n      add\n        /* \"#utility.yul\":9097:9099   */\n      0x20\n        /* \"#utility.yul\":9072:9100   */\n      add\n        /* \"#utility.yul\":9109:9122   */\n      swap1\n      dup2\n      mstore\n      sub(shl(0xa0, 0x01), 0x01)\n        /* \"#utility.yul\":9177:9209   */\n      swap5\n      swap1\n      swap5\n      and\n        /* \"#utility.yul\":9172:9174   */\n      0x40\n        /* \"#utility.yul\":9157:9175   */\n      dup4\n      add\n        /* \"#utility.yul\":9150:9210   */\n      mstore\n      pop\n        /* \"#utility.yul\":9253:9267   */\n      swap1\n      iszero\n        /* \"#utility.yul\":9246:9268   */\n      iszero\n        /* \"#utility.yul\":9241:9243   */\n      0x60\n        /* \"#utility.yul\":9226:9244   */\n      swap1\n      swap2\n      add\n        /* \"#utility.yul\":9219:9269   */\n      mstore\n        /* \"#utility.yul\":9072:9100   */\n      swap5\n        /* \"#utility.yul\":8387:9275   */\n      swap4\n      pop\n      pop\n      pop\n      pop\n      jump\t// out\n        /* \"#utility.yul\":9280:9525   */\n    tag_132:\n        /* \"#utility.yul\":9359:9365   */\n      0x00\n        /* \"#utility.yul\":9367:9373   */\n      dup1\n        /* \"#utility.yul\":9420:9422   */\n      0x40\n        /* \"#utility.yul\":9408:9417   */\n      dup4\n        /* \"#utility.yul\":9399:9406   */\n      dup6\n        /* \"#utility.yul\":9395:9418   */\n      sub\n        /* \"#utility.yul\":9391:9423   */\n      slt\n        /* \"#utility.yul\":9388:9440   */\n      iszero\n      tag_548\n      jumpi\n        /* \"#utility.yul\":9436:9437   */\n      0x00\n        /* \"#utility.yul\":9433:9434   */\n      dup1\n        /* \"#utility.yul\":9426:9438   */\n      revert\n        /* \"#utility.yul\":9388:9440   */\n    tag_548:\n      pop\n      pop\n        /* \"#utility.yul\":9459:9475   */\n      dup1\n      mload\n        /* \"#utility.yul\":9515:9517   */\n      0x20\n        /* \"#utility.yul\":9500:9518   */\n      swap1\n      swap2\n      add\n        /* \"#utility.yul\":9494:9519   */\n      mload\n        /* \"#utility.yul\":9459:9475   */\n      swap1\n      swap3\n        /* \"#utility.yul\":9494:9519   */\n      swap1\n      swap2\n      pop\n        /* \"#utility.yul\":9280:9525   */\n      jump\t// out\n        /* \"#utility.yul\":9530:9877   */\n    tag_161:\n        /* \"#utility.yul\":9732:9734   */\n      0x20\n        /* \"#utility.yul\":9714:9735   */\n      dup1\n      dup3\n      mstore\n        /* \"#utility.yul\":9771:9773   */\n      0x17\n        /* \"#utility.yul\":9751:9769   */\n      swap1\n      dup3\n      add\n        /* \"#utility.yul\":9744:9774   */\n      mstore\n      shl(0x49, 0x26a4a220a9a927aaaa22a91d102ba927a723902820a4a9)\n        /* \"#utility.yul\":9805:9807   */\n      0x40\n        /* \"#utility.yul\":9790:9808   */\n      dup3\n      add\n        /* \"#utility.yul\":9783:9836   */\n      mstore\n        /* \"#utility.yul\":9868:9870   */\n      0x60\n        /* \"#utility.yul\":9853:9871   */\n      add\n      swap1\n        /* \"#utility.yul\":9530:9877   */\n      jump\t// out\n        /* \"#utility.yul\":9882:10257   */\n    tag_171:\n      sub(shl(0xa0, 0x01), 0x01)\n        /* \"#utility.yul\":10140:10155   */\n      swap4\n      dup5\n      and\n        /* \"#utility.yul\":10122:10156   */\n      dup2\n      mstore\n        /* \"#utility.yul\":10192:10207   */\n      swap2\n      swap1\n      swap3\n      and\n        /* \"#utility.yul\":10187:10189   */\n      0x20\n        /* \"#utility.yul\":10172:10190   */\n      dup3\n      add\n        /* \"#utility.yul\":10165:10208   */\n      mstore\n        /* \"#utility.yul\":10239:10241   */\n      0x40\n        /* \"#utility.yul\":10224:10242   */\n      dup2\n      add\n        /* \"#utility.yul\":10217:10251   */\n      swap2\n      swap1\n      swap2\n      mstore\n        /* \"#utility.yul\":10072:10074   */\n      0x60\n        /* \"#utility.yul\":10057:10075   */\n      add\n      swap1\n        /* \"#utility.yul\":9882:10257   */\n      jump\t// out\n        /* \"#utility.yul\":10262:10536   */\n    tag_176:\n        /* \"#utility.yul\":10436:10461   */\n      swap2\n      dup3\n      mstore\n      sub(shl(0xa0, 0x01), 0x01)\n        /* \"#utility.yul\":10497:10529   */\n      and\n        /* \"#utility.yul\":10492:10494   */\n      0x20\n        /* \"#utility.yul\":10477:10495   */\n      dup3\n      add\n        /* \"#utility.yul\":10470:10530   */\n      mstore\n        /* \"#utility.yul\":10424:10426   */\n      0x40\n        /* \"#utility.yul\":10409:10427   */\n      add\n      swap1\n        /* \"#utility.yul\":10262:10536   */\n      jump\t// out\n        /* \"#utility.yul\":10541:10725   */\n    tag_207:\n        /* \"#utility.yul\":10611:10617   */\n      0x00\n        /* \"#utility.yul\":10664:10666   */\n      0x20\n        /* \"#utility.yul\":10652:10661   */\n      dup3\n        /* \"#utility.yul\":10643:10650   */\n      dup5\n        /* \"#utility.yul\":10639:10662   */\n      sub\n        /* \"#utility.yul\":10635:10667   */\n      slt\n        /* \"#utility.yul\":10632:10684   */\n      iszero\n      tag_553\n      jumpi\n        /* \"#utility.yul\":10680:10681   */\n      0x00\n        /* \"#utility.yul\":10677:10678   */\n      dup1\n        /* \"#utility.yul\":10670:10682   */\n      revert\n        /* \"#utility.yul\":10632:10684   */\n    tag_553:\n      pop\n        /* \"#utility.yul\":10703:10719   */\n      mload\n      swap2\n        /* \"#utility.yul\":10541:10725   */\n      swap1\n      pop\n      jump\t// out\n        /* \"#utility.yul\":10730:10857   */\n    tag_218:\n        /* \"#utility.yul\":10791:10801   */\n      0x4e487b71\n        /* \"#utility.yul\":10786:10789   */\n      0xe0\n        /* \"#utility.yul\":10782:10802   */\n      shl\n        /* \"#utility.yul\":10779:10780   */\n      0x00\n        /* \"#utility.yul\":10772:10803   */\n      mstore\n        /* \"#utility.yul\":10822:10826   */\n      0x41\n        /* \"#utility.yul\":10819:10820   */\n      0x04\n        /* \"#utility.yul\":10812:10827   */\n      mstore\n        /* \"#utility.yul\":10846:10850   */\n      0x24\n        /* \"#utility.yul\":10843:10844   */\n      0x00\n        /* \"#utility.yul\":10836:10851   */\n      revert\n        /* \"#utility.yul\":10862:11502   */\n    tag_233:\n        /* \"#utility.yul\":11041:11043   */\n      0x20\n        /* \"#utility.yul\":11093:11114   */\n      dup1\n      dup3\n      mstore\n        /* \"#utility.yul\":11163:11176   */\n      dup3\n      mload\n        /* \"#utility.yul\":11066:11084   */\n      dup3\n      dup3\n      add\n        /* \"#utility.yul\":11185:11207   */\n      dup2\n      swap1\n      mstore\n        /* \"#utility.yul\":11012:11016   */\n      0x00\n      swap2\n        /* \"#utility.yul\":11041:11043   */\n      swap1\n        /* \"#utility.yul\":11264:11279   */\n      dup5\n      dup3\n      add\n      swap1\n        /* \"#utility.yul\":11238:11240   */\n      0x40\n        /* \"#utility.yul\":11223:11241   */\n      dup6\n      add\n      swap1\n        /* \"#utility.yul\":11012:11016   */\n      dup5\n        /* \"#utility.yul\":11307:11476   */\n    tag_556:\n        /* \"#utility.yul\":11321:11327   */\n      dup2\n        /* \"#utility.yul\":11318:11319   */\n      dup2\n        /* \"#utility.yul\":11315:11328   */\n      lt\n        /* \"#utility.yul\":11307:11476   */\n      iszero\n      tag_558\n      jumpi\n        /* \"#utility.yul\":11382:11395   */\n      dup4\n      mload\n        /* \"#utility.yul\":11370:11396   */\n      dup4\n      mstore\n        /* \"#utility.yul\":11451:11466   */\n      swap3\n      dup5\n      add\n      swap3\n        /* \"#utility.yul\":11416:11428   */\n      swap2\n      dup5\n      add\n      swap2\n        /* \"#utility.yul\":11343:11344   */\n      0x01\n        /* \"#utility.yul\":11336:11345   */\n      add\n        /* \"#utility.yul\":11307:11476   */\n      jump(tag_556)\n    tag_558:\n      pop\n        /* \"#utility.yul\":11493:11496   */\n      swap1\n      swap7\n        /* \"#utility.yul\":10862:11502   */\n      swap6\n      pop\n      pop\n      pop\n      pop\n      pop\n      pop\n      jump\t// out\n        /* \"#utility.yul\":11507:12612   */\n    tag_237:\n        /* \"#utility.yul\":11602:11608   */\n      0x00\n        /* \"#utility.yul\":11633:11635   */\n      0x20\n        /* \"#utility.yul\":11676:11678   */\n      dup1\n        /* \"#utility.yul\":11664:11673   */\n      dup4\n        /* \"#utility.yul\":11655:11662   */\n      dup6\n        /* \"#utility.yul\":11651:11674   */\n      sub\n        /* \"#utility.yul\":11647:11679   */\n      slt\n        /* \"#utility.yul\":11644:11696   */\n      iszero\n      tag_560\n      jumpi\n        /* \"#utility.yul\":11692:11693   */\n      0x00\n        /* \"#utility.yul\":11689:11690   */\n      dup1\n        /* \"#utility.yul\":11682:11694   */\n      revert\n        /* \"#utility.yul\":11644:11696   */\n    tag_560:\n        /* \"#utility.yul\":11719:11735   */\n      dup3\n      mload\n      sub(shl(0x40, 0x01), 0x01)\n        /* \"#utility.yul\":11784:11798   */\n      dup1\n      dup3\n      gt\n        /* \"#utility.yul\":11781:11815   */\n      iszero\n      tag_561\n      jumpi\n        /* \"#utility.yul\":11811:11812   */\n      0x00\n        /* \"#utility.yul\":11808:11809   */\n      dup1\n        /* \"#utility.yul\":11801:11813   */\n      revert\n        /* \"#utility.yul\":11781:11815   */\n    tag_561:\n        /* \"#utility.yul\":11849:11855   */\n      dup2\n        /* \"#utility.yul\":11838:11847   */\n      dup6\n        /* \"#utility.yul\":11834:11856   */\n      add\n        /* \"#utility.yul\":11824:11856   */\n      swap2\n      pop\n        /* \"#utility.yul\":11894:11901   */\n      dup6\n        /* \"#utility.yul\":11887:11891   */\n      0x1f\n        /* \"#utility.yul\":11883:11885   */\n      dup4\n        /* \"#utility.yul\":11879:11892   */\n      add\n        /* \"#utility.yul\":11875:11902   */\n      slt\n        /* \"#utility.yul\":11865:11920   */\n      tag_562\n      jumpi\n        /* \"#utility.yul\":11916:11917   */\n      0x00\n        /* \"#utility.yul\":11913:11914   */\n      dup1\n        /* \"#utility.yul\":11906:11918   */\n      revert\n        /* \"#utility.yul\":11865:11920   */\n    tag_562:\n        /* \"#utility.yul\":11945:11947   */\n      dup2\n        /* \"#utility.yul\":11939:11948   */\n      mload\n        /* \"#utility.yul\":11967:11969   */\n      dup2\n        /* \"#utility.yul\":11963:11965   */\n      dup2\n        /* \"#utility.yul\":11960:11970   */\n      gt\n        /* \"#utility.yul\":11957:11993   */\n      iszero\n      tag_564\n      jumpi\n        /* \"#utility.yul\":11973:11991   */\n      tag_564\n      tag_218\n      jump\t// in\n    tag_564:\n        /* \"#utility.yul\":12019:12021   */\n      dup1\n        /* \"#utility.yul\":12016:12017   */\n      0x05\n        /* \"#utility.yul\":12012:12022   */\n      shl\n        /* \"#utility.yul\":12051:12053   */\n      0x40\n        /* \"#utility.yul\":12045:12054   */\n      mload\n        /* \"#utility.yul\":12114:12116   */\n      0x1f\n        /* \"#utility.yul\":12110:12117   */\n      not\n        /* \"#utility.yul\":12105:12107   */\n      0x3f\n        /* \"#utility.yul\":12101:12103   */\n      dup4\n        /* \"#utility.yul\":12097:12108   */\n      add\n        /* \"#utility.yul\":12093:12118   */\n      and\n        /* \"#utility.yul\":12085:12091   */\n      dup2\n        /* \"#utility.yul\":12081:12119   */\n      add\n        /* \"#utility.yul\":12169:12175   */\n      dup2\n        /* \"#utility.yul\":12157:12167   */\n      dup2\n        /* \"#utility.yul\":12154:12176   */\n      lt\n        /* \"#utility.yul\":12149:12151   */\n      dup6\n        /* \"#utility.yul\":12137:12147   */\n      dup3\n        /* \"#utility.yul\":12134:12152   */\n      gt\n        /* \"#utility.yul\":12131:12177   */\n      or\n        /* \"#utility.yul\":12128:12200   */\n      iszero\n      tag_566\n      jumpi\n        /* \"#utility.yul\":12180:12198   */\n      tag_566\n      tag_218\n      jump\t// in\n    tag_566:\n        /* \"#utility.yul\":12216:12218   */\n      0x40\n        /* \"#utility.yul\":12209:12231   */\n      mstore\n        /* \"#utility.yul\":12266:12284   */\n      swap2\n      dup3\n      mstore\n        /* \"#utility.yul\":12300:12315   */\n      dup5\n      dup3\n      add\n      swap3\n      pop\n        /* \"#utility.yul\":12342:12353   */\n      dup4\n      dup2\n      add\n        /* \"#utility.yul\":12338:12358   */\n      dup6\n      add\n      swap2\n        /* \"#utility.yul\":12370:12389   */\n      dup9\n      dup4\n      gt\n        /* \"#utility.yul\":12367:12406   */\n      iszero\n      tag_567\n      jumpi\n        /* \"#utility.yul\":12402:12403   */\n      0x00\n        /* \"#utility.yul\":12399:12400   */\n      dup1\n        /* \"#utility.yul\":12392:12404   */\n      revert\n        /* \"#utility.yul\":12367:12406   */\n    tag_567:\n        /* \"#utility.yul\":12426:12437   */\n      swap4\n      dup6\n      add\n      swap4\n        /* \"#utility.yul\":12446:12581   */\n    tag_568:\n        /* \"#utility.yul\":12462:12468   */\n      dup3\n        /* \"#utility.yul\":12457:12460   */\n      dup6\n        /* \"#utility.yul\":12454:12469   */\n      lt\n        /* \"#utility.yul\":12446:12581   */\n      iszero\n      tag_570\n      jumpi\n        /* \"#utility.yul\":12528:12538   */\n      dup5\n      mload\n        /* \"#utility.yul\":12516:12539   */\n      dup5\n      mstore\n        /* \"#utility.yul\":12479:12491   */\n      swap4\n      dup6\n      add\n      swap4\n        /* \"#utility.yul\":12559:12571   */\n      swap3\n      dup6\n      add\n      swap3\n        /* \"#utility.yul\":12446:12581   */\n      jump(tag_568)\n    tag_570:\n        /* \"#utility.yul\":12600:12606   */\n      swap9\n        /* \"#utility.yul\":11507:12612   */\n      swap8\n      pop\n      pop\n      pop\n      pop\n      pop\n      pop\n      pop\n      pop\n      jump\t// out\n        /* \"#utility.yul\":12617:12742   */\n    tag_243:\n        /* \"#utility.yul\":12657:12661   */\n      0x00\n        /* \"#utility.yul\":12685:12686   */\n      dup3\n        /* \"#utility.yul\":12682:12683   */\n      dup3\n        /* \"#utility.yul\":12679:12687   */\n      lt\n        /* \"#utility.yul\":12676:12710   */\n      iszero\n      tag_573\n      jumpi\n        /* \"#utility.yul\":12690:12708   */\n      tag_573\n      tag_476\n      jump\t// in\n    tag_573:\n      pop\n        /* \"#utility.yul\":12727:12736   */\n      sub\n      swap1\n        /* \"#utility.yul\":12617:12742   */\n      jump\t// out\n        /* \"#utility.yul\":12747:12973   */\n    tag_250:\n        /* \"#utility.yul\":12786:12789   */\n      0x00\n        /* \"#utility.yul\":12814:12822   */\n      0xffffff\n        /* \"#utility.yul\":12849:12851   */\n      dup1\n        /* \"#utility.yul\":12846:12847   */\n      dup4\n        /* \"#utility.yul\":12842:12852   */\n      and\n        /* \"#utility.yul\":12879:12881   */\n      dup2\n        /* \"#utility.yul\":12876:12877   */\n      dup6\n        /* \"#utility.yul\":12872:12882   */\n      and\n        /* \"#utility.yul\":12910:12913   */\n      dup1\n        /* \"#utility.yul\":12906:12908   */\n      dup4\n        /* \"#utility.yul\":12902:12914   */\n      sub\n        /* \"#utility.yul\":12897:12900   */\n      dup3\n        /* \"#utility.yul\":12894:12915   */\n      gt\n        /* \"#utility.yul\":12891:12938   */\n      iszero\n      tag_576\n      jumpi\n        /* \"#utility.yul\":12918:12936   */\n      tag_576\n      tag_476\n      jump\t// in\n    tag_576:\n        /* \"#utility.yul\":12954:12967   */\n      add\n      swap5\n        /* \"#utility.yul\":12747:12973   */\n      swap4\n      pop\n      pop\n      pop\n      pop\n      jump\t// out\n        /* \"#utility.yul\":12978:13359   */\n    tag_258:\n        /* \"#utility.yul\":13055:13061   */\n      0x00\n        /* \"#utility.yul\":13063:13069   */\n      dup1\n        /* \"#utility.yul\":13116:13118   */\n      0x40\n        /* \"#utility.yul\":13104:13113   */\n      dup4\n        /* \"#utility.yul\":13095:13102   */\n      dup6\n        /* \"#utility.yul\":13091:13114   */\n      sub\n        /* \"#utility.yul\":13087:13119   */\n      slt\n        /* \"#utility.yul\":13084:13136   */\n      iszero\n      tag_578\n      jumpi\n        /* \"#utility.yul\":13132:13133   */\n      0x00\n        /* \"#utility.yul\":13129:13130   */\n      dup1\n        /* \"#utility.yul\":13122:13134   */\n      revert\n        /* \"#utility.yul\":13084:13136   */\n    tag_578:\n        /* \"#utility.yul\":13164:13173   */\n      dup3\n        /* \"#utility.yul\":13158:13174   */\n      mload\n        /* \"#utility.yul\":13183:13213   */\n      tag_579\n        /* \"#utility.yul\":13207:13212   */\n      dup2\n        /* \"#utility.yul\":13183:13213   */\n      tag_477\n      jump\t// in\n    tag_579:\n        /* \"#utility.yul\":13282:13284   */\n      0x20\n        /* \"#utility.yul\":13267:13285   */\n      dup5\n      add\n        /* \"#utility.yul\":13261:13286   */\n      mload\n        /* \"#utility.yul\":13232:13237   */\n      swap1\n      swap3\n      pop\n        /* \"#utility.yul\":13295:13327   */\n      tag_580\n        /* \"#utility.yul\":13261:13286   */\n      dup2\n        /* \"#utility.yul\":13295:13327   */\n      tag_477\n      jump\t// in\n    tag_580:\n        /* \"#utility.yul\":13346:13353   */\n      dup1\n        /* \"#utility.yul\":13336:13353   */\n      swap2\n      pop\n      pop\n        /* \"#utility.yul\":12978:13359   */\n      swap3\n      pop\n      swap3\n      swap1\n      pop\n      jump\t// out\n        /* \"#utility.yul\":13559:13687   */\n    tag_265:\n        /* \"#utility.yul\":13599:13602   */\n      0x00\n        /* \"#utility.yul\":13630:13631   */\n      dup3\n        /* \"#utility.yul\":13626:13632   */\n      not\n        /* \"#utility.yul\":13623:13624   */\n      dup3\n        /* \"#utility.yul\":13620:13633   */\n      gt\n        /* \"#utility.yul\":13617:13656   */\n      iszero\n      tag_584\n      jumpi\n        /* \"#utility.yul\":13636:13654   */\n      tag_584\n      tag_476\n      jump\t// in\n    tag_584:\n      pop\n        /* \"#utility.yul\":13672:13681   */\n      add\n      swap1\n        /* \"#utility.yul\":13559:13687   */\n      jump\t// out\n        /* \"#utility.yul\":13692:13998   */\n    tag_270:\n        /* \"#utility.yul\":13780:13786   */\n      0x00\n        /* \"#utility.yul\":13788:13794   */\n      dup1\n        /* \"#utility.yul\":13796:13802   */\n      0x00\n        /* \"#utility.yul\":13849:13851   */\n      0x60\n        /* \"#utility.yul\":13837:13846   */\n      dup5\n        /* \"#utility.yul\":13828:13835   */\n      dup7\n        /* \"#utility.yul\":13824:13847   */\n      sub\n        /* \"#utility.yul\":13820:13852   */\n      slt\n        /* \"#utility.yul\":13817:13869   */\n      iszero\n      tag_586\n      jumpi\n        /* \"#utility.yul\":13865:13866   */\n      0x00\n        /* \"#utility.yul\":13862:13863   */\n      dup1\n        /* \"#utility.yul\":13855:13867   */\n      revert\n        /* \"#utility.yul\":13817:13869   */\n    tag_586:\n        /* \"#utility.yul\":13894:13903   */\n      dup4\n        /* \"#utility.yul\":13888:13904   */\n      mload\n        /* \"#utility.yul\":13878:13904   */\n      swap3\n      pop\n        /* \"#utility.yul\":13944:13946   */\n      0x20\n        /* \"#utility.yul\":13933:13942   */\n      dup5\n        /* \"#utility.yul\":13929:13947   */\n      add\n        /* \"#utility.yul\":13923:13948   */\n      mload\n        /* \"#utility.yul\":13913:13948   */\n      swap2\n      pop\n        /* \"#utility.yul\":13988:13990   */\n      0x40\n        /* \"#utility.yul\":13977:13986   */\n      dup5\n        /* \"#utility.yul\":13973:13991   */\n      add\n        /* \"#utility.yul\":13967:13992   */\n      mload\n        /* \"#utility.yul\":13957:13992   */\n      swap1\n      pop\n        /* \"#utility.yul\":13692:13998   */\n      swap3\n      pop\n      swap3\n      pop\n      swap3\n      jump\t// out\n        /* \"#utility.yul\":14003:14171   */\n    tag_274:\n        /* \"#utility.yul\":14043:14050   */\n      0x00\n        /* \"#utility.yul\":14109:14110   */\n      dup2\n        /* \"#utility.yul\":14105:14106   */\n      0x00\n        /* \"#utility.yul\":14101:14107   */\n      not\n        /* \"#utility.yul\":14097:14111   */\n      div\n        /* \"#utility.yul\":14094:14095   */\n      dup4\n        /* \"#utility.yul\":14091:14112   */\n      gt\n        /* \"#utility.yul\":14086:14087   */\n      dup3\n        /* \"#utility.yul\":14079:14088   */\n      iszero\n        /* \"#utility.yul\":14072:14089   */\n      iszero\n        /* \"#utility.yul\":14068:14113   */\n      and\n        /* \"#utility.yul\":14065:14136   */\n      iszero\n      tag_589\n      jumpi\n        /* \"#utility.yul\":14116:14134   */\n      tag_589\n      tag_476\n      jump\t// in\n    tag_589:\n      pop\n        /* \"#utility.yul\":14156:14165   */\n      mul\n      swap1\n        /* \"#utility.yul\":14003:14171   */\n      jump\t// out\n        /* \"#utility.yul\":14176:14393   */\n    tag_276:\n        /* \"#utility.yul\":14216:14217   */\n      0x00\n        /* \"#utility.yul\":14242:14243   */\n      dup3\n        /* \"#utility.yul\":14232:14364   */\n      tag_591\n      jumpi\n        /* \"#utility.yul\":14286:14296   */\n      0x4e487b71\n        /* \"#utility.yul\":14281:14284   */\n      0xe0\n        /* \"#utility.yul\":14277:14297   */\n      shl\n        /* \"#utility.yul\":14274:14275   */\n      0x00\n        /* \"#utility.yul\":14267:14298   */\n      mstore\n        /* \"#utility.yul\":14321:14325   */\n      0x12\n        /* \"#utility.yul\":14318:14319   */\n      0x04\n        /* \"#utility.yul\":14311:14326   */\n      mstore\n        /* \"#utility.yul\":14349:14353   */\n      0x24\n        /* \"#utility.yul\":14346:14347   */\n      0x00\n        /* \"#utility.yul\":14339:14354   */\n      revert\n        /* \"#utility.yul\":14232:14364   */\n    tag_591:\n      pop\n        /* \"#utility.yul\":14378:14387   */\n      div\n      swap1\n        /* \"#utility.yul\":14176:14393   */\n      jump\t// out\n        /* \"#utility.yul\":14398:14780   */\n    tag_293:\n        /* \"#utility.yul\":14613:14615   */\n      0x40\n        /* \"#utility.yul\":14602:14611   */\n      dup2\n        /* \"#utility.yul\":14595:14616   */\n      mstore\n        /* \"#utility.yul\":14576:14580   */\n      0x00\n        /* \"#utility.yul\":14633:14705   */\n      tag_593\n        /* \"#utility.yul\":14701:14703   */\n      0x40\n        /* \"#utility.yul\":14690:14699   */\n      dup4\n        /* \"#utility.yul\":14686:14704   */\n      add\n        /* \"#utility.yul\":14678:14684   */\n      dup6\n        /* \"#utility.yul\":14670:14676   */\n      dup8\n        /* \"#utility.yul\":14633:14705   */\n      tag_478\n      jump\t// in\n    tag_593:\n        /* \"#utility.yul\":14625:14705   */\n      swap1\n      pop\n        /* \"#utility.yul\":14770:14771   */\n      0x01\n        /* \"#utility.yul\":14766:14767   */\n      dup1\n        /* \"#utility.yul\":14761:14764   */\n      0xa0\n        /* \"#utility.yul\":14757:14768   */\n      shl\n        /* \"#utility.yul\":14753:14772   */\n      sub\n        /* \"#utility.yul\":14745:14751   */\n      dup4\n        /* \"#utility.yul\":14741:14773   */\n      and\n        /* \"#utility.yul\":14736:14738   */\n      0x20\n        /* \"#utility.yul\":14725:14734   */\n      dup4\n        /* \"#utility.yul\":14721:14739   */\n      add\n        /* \"#utility.yul\":14714:14774   */\n      mstore\n        /* \"#utility.yul\":14398:14780   */\n      swap5\n      swap4\n      pop\n      pop\n      pop\n      pop\n      jump\t// out\n        /* \"#utility.yul\":14785:15030   */\n    tag_394:\n        /* \"#utility.yul\":14843:14849   */\n      0x00\n        /* \"#utility.yul\":14896:14898   */\n      0x20\n        /* \"#utility.yul\":14884:14893   */\n      dup3\n        /* \"#utility.yul\":14875:14882   */\n      dup5\n        /* \"#utility.yul\":14871:14894   */\n      sub\n        /* \"#utility.yul\":14867:14899   */\n      slt\n        /* \"#utility.yul\":14864:14916   */\n      iszero\n      tag_595\n      jumpi\n        /* \"#utility.yul\":14912:14913   */\n      0x00\n        /* \"#utility.yul\":14909:14910   */\n      dup1\n        /* \"#utility.yul\":14902:14914   */\n      revert\n        /* \"#utility.yul\":14864:14916   */\n    tag_595:\n        /* \"#utility.yul\":14951:14960   */\n      dup2\n        /* \"#utility.yul\":14938:14961   */\n      calldataload\n        /* \"#utility.yul\":14970:15000   */\n      tag_530\n        /* \"#utility.yul\":14994:14999   */\n      dup2\n        /* \"#utility.yul\":14970:15000   */\n      tag_477\n      jump\t// in\n        /* \"#utility.yul\":15035:15312   */\n    tag_435:\n        /* \"#utility.yul\":15102:15108   */\n      0x00\n        /* \"#utility.yul\":15155:15157   */\n      0x20\n        /* \"#utility.yul\":15143:15152   */\n      dup3\n        /* \"#utility.yul\":15134:15141   */\n      dup5\n        /* \"#utility.yul\":15130:15153   */\n      sub\n        /* \"#utility.yul\":15126:15158   */\n      slt\n        /* \"#utility.yul\":15123:15175   */\n      iszero\n      tag_598\n      jumpi\n        /* \"#utility.yul\":15171:15172   */\n      0x00\n        /* \"#utility.yul\":15168:15169   */\n      dup1\n        /* \"#utility.yul\":15161:15173   */\n      revert\n        /* \"#utility.yul\":15123:15175   */\n    tag_598:\n        /* \"#utility.yul\":15203:15212   */\n      dup2\n        /* \"#utility.yul\":15197:15213   */\n      mload\n        /* \"#utility.yul\":15256:15261   */\n      dup1\n        /* \"#utility.yul\":15249:15262   */\n      iszero\n        /* \"#utility.yul\":15242:15263   */\n      iszero\n        /* \"#utility.yul\":15235:15240   */\n      dup2\n        /* \"#utility.yul\":15232:15264   */\n      eq\n        /* \"#utility.yul\":15222:15282   */\n      tag_530\n      jumpi\n        /* \"#utility.yul\":15278:15279   */\n      0x00\n        /* \"#utility.yul\":15275:15276   */\n      dup1\n        /* \"#utility.yul\":15268:15280   */\n      revert\n        /* \"#utility.yul\":15527:15953   */\n    tag_461:\n        /* \"#utility.yul\":15656:15659   */\n      0x00\n        /* \"#utility.yul\":15694:15700   */\n      dup3\n        /* \"#utility.yul\":15688:15701   */\n      mload\n        /* \"#utility.yul\":15719:15720   */\n      0x00\n        /* \"#utility.yul\":15729:15858   */\n    tag_602:\n        /* \"#utility.yul\":15743:15749   */\n      dup2\n        /* \"#utility.yul\":15740:15741   */\n      dup2\n        /* \"#utility.yul\":15737:15750   */\n      lt\n        /* \"#utility.yul\":15729:15858   */\n      iszero\n      tag_604\n      jumpi\n        /* \"#utility.yul\":15841:15845   */\n      0x20\n        /* \"#utility.yul\":15825:15839   */\n      dup2\n      dup7\n      add\n        /* \"#utility.yul\":15821:15846   */\n      dup2\n      add\n        /* \"#utility.yul\":15815:15847   */\n      mload\n        /* \"#utility.yul\":15802:15813   */\n      dup6\n      dup4\n      add\n        /* \"#utility.yul\":15795:15848   */\n      mstore\n        /* \"#utility.yul\":15758:15770   */\n      add\n        /* \"#utility.yul\":15729:15858   */\n      jump(tag_602)\n    tag_604:\n        /* \"#utility.yul\":15876:15882   */\n      dup2\n        /* \"#utility.yul\":15873:15874   */\n      dup2\n        /* \"#utility.yul\":15870:15883   */\n      gt\n        /* \"#utility.yul\":15867:15915   */\n      iszero\n      tag_605\n      jumpi\n        /* \"#utility.yul\":15911:15912   */\n      0x00\n        /* \"#utility.yul\":15902:15908   */\n      dup3\n        /* \"#utility.yul\":15897:15900   */\n      dup6\n        /* \"#utility.yul\":15893:15909   */\n      add\n        /* \"#utility.yul\":15886:15913   */\n      mstore\n        /* \"#utility.yul\":15867:15915   */\n    tag_605:\n      pop\n        /* \"#utility.yul\":15931:15947   */\n      swap2\n      swap1\n      swap2\n      add\n      swap3\n        /* \"#utility.yul\":15527:15953   */\n      swap2\n      pop\n      pop\n      jump\t// out\n\n    auxdata: 0xa2646970667358221220ed15c200dcfc6104ca6725e9327ba30c31554e1e0e0535952f7dac50c3bccfdc64736f6c634300080a0033\n}\n",
				"bytecode": {
					"linkReferences": {
						"Midas/Midas_main/src/libraries/PriceHelper.sol": {
							"PriceHelper": [
								{
									"length": 20,
									"start": 3236
								}
							]
						}
					},
					"object": "60806040523480156200001157600080fd5b50604051620024c9380380620024c9833981016040819052620000349162000090565b600080546001600160a01b039485166001600160a01b031991821617909155600180549385169382169390931790925560028054919093169116179055620000e4565b6001600160a01b03811681146200008d57600080fd5b50565b600080600060608486031215620000a657600080fd5b8351620000b38162000077565b6020850151909350620000c68162000077565b6040850151909250620000d98162000077565b809150509250925092565b6123d580620000f46000396000f3fe6080604052600436106100bc5760003560e01c80630ebd4ed5146100e257806334497dec1461011c5780633ee7f9d31461013c5780633fc8cef31461015c5780634c818ab8146101945780634c94c90c146101b55780635e7cb8e0146101d5578063617e1c59146101f557806371c3de2a146102085780638fb8609a1461022857806399cc3501146102485780639dd91dd714610268578063abef03401461027b578063c45a01551461029b578063fedf4fa1146102bb57600080fd5b366100dd576001546001600160a01b031633146100db576100db611c8e565b005b600080fd5b3480156100ee57600080fd5b506101026100fd366004611d07565b6102db565b604080519283526020830191909152015b60405180910390f35b34801561012857600080fd5b50610102610137366004611d07565b6104a0565b34801561014857600080fd5b50610102610157366004611da4565b610608565b34801561016857600080fd5b5060015461017c906001600160a01b031681565b6040516001600160a01b039091168152602001610113565b6101a76101a2366004611dea565b610841565b604051908152602001610113565b3480156101c157600080fd5b5060025461017c906001600160a01b031681565b3480156101e157600080fd5b506101a76101f0366004611e56565b610a9a565b610102610203366004611dea565b610e64565b34801561021457600080fd5b506101a7610223366004611dea565b610fd4565b34801561023457600080fd5b50610102610243366004611dea565b611153565b34801561025457600080fd5b506101a7610263366004611dea565b61123f565b6101a7610276366004611dea565b61143a565b34801561028757600080fd5b506101a7610296366004611e56565b6115cf565b3480156102a757600080fd5b5060005461017c906001600160a01b031681565b3480156102c757600080fd5b506101026102d6366004611da4565b61169b565b60008082428110156103085760405162461bcd60e51b81526004016102ff90611eaa565b60405180910390fd5b600080546040516383d16e1360e01b81526001600160a01b03909116906383d16e139061033b908e908e90600401611edb565b602060405180830381865afa158015610358573d6000803e3d6000fd5b505050506040513d601f19601f8201168201806040525081019061037c9190611ef5565b905060005b86811015610414578b6001600160a01b031663095ea7b3838a8a858181106103ab576103ab611f19565b905060200201356040518363ffffffff1660e01b81526004016103cf929190611f2f565b600060405180830381600087803b1580156103e957600080fd5b505af11580156103fd573d6000803e3d6000fd5b50505050808061040c90611f5e565b915050610381565b506040516368d68fd760e11b81526001600160a01b0382169063d1ad1fae9061044c908c908c908c908c903390600190600401611fcf565b60408051808303816000875af115801561046a573d6000803e3d6000fd5b505050506040513d601f19601f8201168201806040525081019061048e919061203a565b909c909b509950505050505050505050565b60008082428110156104c45760405162461bcd60e51b81526004016102ff90611eaa565b600080546040516383d16e1360e01b81526001600160a01b03909116906383d16e13906104f7908e908e90600401611edb565b602060405180830381865afa158015610514573d6000803e3d6000fd5b505050506040513d601f19601f820116820180604052508101906105389190611ef5565b905060005b868110156105d0578b6001600160a01b031663095ea7b3838a8a8581811061056757610567611f19565b905060200201356040518363ffffffff1660e01b815260040161058b929190611f2f565b600060405180830381600087803b1580156105a557600080fd5b505af11580156105b9573d6000803e3d6000fd5b5050505080806105c890611f5e565b91505061053d565b506040516368d68fd760e11b81526001600160a01b0382169063d1ad1fae9061044c908c908c908c908c903390600090600401611fcf565b600080824281101561062c5760405162461bcd60e51b81526004016102ff90611eaa565b6001546001600160a01b038781169116141561065a5760405162461bcd60e51b81526004016102ff9061205e565b600080546040516383d16e1360e01b81526001600160a01b03909116906383d16e139061068d908b908b90600401611edb565b602060405180830381865afa1580156106aa573d6000803e3d6000fd5b505050506040513d601f19601f820116820180604052508101906106ce9190611ef5565b600080546040516365329a4f60e01b815292935090916001600160a01b03909116906365329a4f90610706908c908c90600401611edb565b602060405180830381865afa158015610723573d6000803e3d6000fd5b505050506040513d601f19601f820116820180604052508101906107479190611ef5565b604051632142170760e11b81529091506001600160a01b038216906342842e0e9061077a90339086908c9060040161208f565b600060405180830381600087803b15801561079457600080fd5b505af11580156107a8573d6000803e3d6000fd5b5050604051633f34d4cf60e21b81526001600160a01b038516925063fcd3533c91506107da908a9033906004016120b3565b60408051808303816000875af11580156107f8573d6000803e3d6000fd5b505050506040513d601f19601f8201168201806040525081019061081c919061203a565b90955093506108356001600160a01b038916338661191a565b50505094509492505050565b600081428110156108645760405162461bcd60e51b81526004016102ff90611eaa565b6001546001600160a01b038781169116146108915760405162461bcd60e51b81526004016102ff9061205e565b600080546040516383d16e1360e01b81526001600160a01b03909116906383d16e13906108c4908b908b90600401611edb565b602060405180830381865afa1580156108e1573d6000803e3d6000fd5b505050506040513d601f19601f820116820180604052508101906109059190611ef5565b905060005b85811015610a8e57886001600160a01b031663095ea7b38389898581811061093457610934611f19565b905060200201356040518363ffffffff1660e01b8152600401610958929190611f2f565b600060405180830381600087803b15801561097257600080fd5b505af1158015610986573d6000803e3d6000fd5b50505050816001600160a01b0316635728ad498888848181106109ab576109ab611f19565b90506020020135336040518363ffffffff1660e01b81526004016109d09291906120b3565b6020604051808303816000875af11580156109ef573d6000803e3d6000fd5b505050506040513d601f19601f82011682018060405250810190610a1391906120ca565b600154604051632e1a7d4d60e01b8152600481018390529195506001600160a01b031690632e1a7d4d90602401600060405180830381600087803b158015610a5a57600080fd5b505af1158015610a6e573d6000803e3d6000fd5b50505050610a7c33856119c7565b80610a8681611f5e565b91505061090a565b50505095945050505050565b600080826001600160401b03811115610ab557610ab56120e3565b604051908082528060200260200182016040528015610ade578160200160208202803683370190505b50905060005b83811015610ba057856001600160a01b031663c88dd271868684818110610b0d57610b0d611f19565b905060200201356040518263ffffffff1660e01b8152600401610b3291815260200190565b602060405180830381865afa158015610b4f573d6000803e3d6000fd5b505050506040513d601f19601f82011682018060405250810190610b7391906120ca565b828281518110610b8557610b85611f19565b6020908102919091010152610b9981611f5e565b9050610ae4565b50604051639d13c02f60e01b815273__$b24f86d5d090f844bba29ee734626016d7$__90639d13c02f90610bd89084906004016120f9565b600060405180830381865af4158015610bf5573d6000803e3d6000fd5b505050506040513d6000823e601f3d908101601f19168201604052610c1d919081019061213d565b905060008060005b8351811015610da557600081118015610c79575083610c456001836121fa565b81518110610c5557610c55611f19565b6020026020010151848281518110610c6f57610c6f611f19565b6020026020010151145b15610c8f57610c888284612211565b9250610d1c565b876001600160a01b0316633357fcb1858381518110610cb057610cb0611f19565b60200260200101516040518263ffffffff1660e01b8152600401610cd691815260200190565b6040805180830381865afa158015610cf2573d6000803e3d6000fd5b505050506040513d601f19601f82011682018060405250810190610d169190612238565b90935091505b60405163fd31c4ab60e01b815262ffffff841660048201526001600160a01b0389169063fd31c4ab90602401602060405180830381865afa158015610d65573d6000803e3d6000fd5b505050506040513d601f19601f82011682018060405250810190610d8991906120ca565b610d939086612272565b9450610d9e81611f5e565b9050610c25565b50600080886001600160a01b03166398c7adf36040518163ffffffff1660e01b8152600401606060405180830381865afa158015610de7573d6000803e3d6000fd5b505050506040513d601f19601f82011682018060405250810190610e0b919061228a565b9250509150670de0b6b3a76400008183670de0b6b3a7640000610e2e9190612272565b610e389190612272565b610e4290886122b8565b610e4c91906122d7565b610e57906001612272565b9998505050505050505050565b6000808242811015610e885760405162461bcd60e51b81526004016102ff90611eaa565b600080546040516383d16e1360e01b81526001600160a01b03909116906383d16e1390610ebb908c908c90600401611edb565b602060405180830381865afa158015610ed8573d6000803e3d6000fd5b505050506040513d601f19601f82011682018060405250810190610efc9190611ef5565b90506000610f0b8289896115cf565b6001549091506001600160a01b038a81169116148015610f2b5750803410155b610f475760405162461bcd60e51b81526004016102ff9061205e565b610f518234611a2d565b60405163a3d055a760e01b81526001600160a01b0383169063a3d055a790610f81908b908b9033906004016122f9565b60408051808303816000875af1158015610f9f573d6000803e3d6000fd5b505050506040513d601f19601f82011682018060405250810190610fc3919061203a565b909b909a5098505050505050505050565b60008142811015610ff75760405162461bcd60e51b81526004016102ff90611eaa565b6001546001600160a01b03878116911614156110255760405162461bcd60e51b81526004016102ff9061205e565b600080546040516383d16e1360e01b81526001600160a01b03909116906383d16e1390611058908b908b90600401611edb565b602060405180830381865afa158015611075573d6000803e3d6000fd5b505050506040513d601f19601f820116820180604052508101906110999190611ef5565b90506110a6818787610a9a565b92506110bd6001600160a01b038816338386611b0b565b60005b85811015610a8e57816001600160a01b031663d8db47a78888848181106110e9576110e9611f19565b90506020020135336040518363ffffffff1660e01b815260040161110e9291906120b3565b600060405180830381600087803b15801561112857600080fd5b505af115801561113c573d6000803e3d6000fd5b50505050808061114b90611f5e565b9150506110c0565b60008082428110156111775760405162461bcd60e51b81526004016102ff90611eaa565b6001546001600160a01b03888116911614156111a55760405162461bcd60e51b81526004016102ff9061205e565b600080546040516383d16e1360e01b81526001600160a01b03909116906383d16e13906111d8908c908c90600401611edb565b602060405180830381865afa1580156111f5573d6000803e3d6000fd5b505050506040513d601f19601f820116820180604052508101906112199190611ef5565b905060006112288289896115cf565b9050610f516001600160a01b038a16338484611b0b565b600081428110156112625760405162461bcd60e51b81526004016102ff90611eaa565b6001546001600160a01b03878116911614156112905760405162461bcd60e51b81526004016102ff9061205e565b600080546040516383d16e1360e01b81526001600160a01b03909116906383d16e13906112c3908b908b90600401611edb565b602060405180830381865afa1580156112e0573d6000803e3d6000fd5b505050506040513d601f19601f820116820180604052508101906113049190611ef5565b905060005b85811015610a8e57886001600160a01b031663095ea7b38389898581811061133357611333611f19565b905060200201356040518363ffffffff1660e01b8152600401611357929190611f2f565b600060405180830381600087803b15801561137157600080fd5b505af1158015611385573d6000803e3d6000fd5b50505050816001600160a01b0316635728ad498888848181106113aa576113aa611f19565b90506020020135336040518363ffffffff1660e01b81526004016113cf9291906120b3565b6020604051808303816000875af11580156113ee573d6000803e3d6000fd5b505050506040513d601f19601f8201168201806040525081019061141291906120ca565b93506114286001600160a01b038916338661191a565b8061143281611f5e565b915050611309565b6000814281101561145d5760405162461bcd60e51b81526004016102ff90611eaa565b600080546040516383d16e1360e01b81526001600160a01b03909116906383d16e1390611490908b908b90600401611edb565b602060405180830381865afa1580156114ad573d6000803e3d6000fd5b505050506040513d601f19601f820116820180604052508101906114d19190611ef5565b90506114de818787610a9a565b6001549093506001600160a01b0388811691161480156114fe5750823410155b61151a5760405162461bcd60e51b81526004016102ff9061205e565b6115248134611a2d565b6115396001600160a01b038816338386611b0b565b60005b85811015610a8e57816001600160a01b031663d8db47a788888481811061156557611565611f19565b90506020020135336040518363ffffffff1660e01b815260040161158a9291906120b3565b600060405180830381600087803b1580156115a457600080fd5b505af11580156115b8573d6000803e3d6000fd5b5050505080806115c790611f5e565b91505061153c565b6000805b8281101561169357846001600160a01b031663fd31c4ab8585848181106115fc576115fc611f19565b90506020020160208101906116119190612325565b6040516001600160e01b031960e084901b16815262ffffff9091166004820152602401602060405180830381865afa158015611651573d6000803e3d6000fd5b505050506040513d601f19601f8201168201806040525081019061167591906120ca565b61167f9083612272565b91508061168b81611f5e565b9150506115d3565b509392505050565b60008082428110156116bf5760405162461bcd60e51b81526004016102ff90611eaa565b6001546001600160a01b038781169116146116ec5760405162461bcd60e51b81526004016102ff9061205e565b600080546040516383d16e1360e01b81526001600160a01b03909116906383d16e139061171f908b908b90600401611edb565b602060405180830381865afa15801561173c573d6000803e3d6000fd5b505050506040513d601f19601f820116820180604052508101906117609190611ef5565b600080546040516365329a4f60e01b815292935090916001600160a01b03909116906365329a4f90611798908c908c90600401611edb565b602060405180830381865afa1580156117b5573d6000803e3d6000fd5b505050506040513d601f19601f820116820180604052508101906117d99190611ef5565b604051632142170760e11b81529091506001600160a01b038216906342842e0e9061180c90339086908c9060040161208f565b600060405180830381600087803b15801561182657600080fd5b505af115801561183a573d6000803e3d6000fd5b5050604051633f34d4cf60e21b81526001600160a01b038516925063fcd3533c915061186c908a9033906004016120b3565b60408051808303816000875af115801561188a573d6000803e3d6000fd5b505050506040513d601f19601f820116820180604052508101906118ae919061203a565b600154604051632e1a7d4d60e01b8152600481018390529297509095506001600160a01b031690632e1a7d4d90602401600060405180830381600087803b1580156118f857600080fd5b505af115801561190c573d6000803e3d6000fd5b5050505061083533856119c7565b80156119c257600063a9059cbb60e01b838360405160240161193d929190611f2f565b60408051601f198184030181529190526020810180516001600160e01b03166001600160e01b0319909316929092179091529050600061197d8583611bbb565b9050600081511180156119a157508080602001905181019061199f9190612342565b155b156119bf5760405163197138bd60e11b815260040160405180910390fd5b50505b505050565b6000826001600160a01b03168260405160006040518083038185875af1925050503d8060008114611a14576040519150601f19603f3d011682016040523d82523d6000602084013e611a19565b606091505b50909150506001811515146119c257600080fd5b600160009054906101000a90046001600160a01b03166001600160a01b031663d0e30db0826040518263ffffffff1660e01b81526004016000604051808303818588803b158015611a7d57600080fd5b505af1158015611a91573d6000803e3d6000fd5b505060015460405163a9059cbb60e01b81526001600160a01b03909116935063a9059cbb9250611ac8915085908590600401611f2f565b6020604051808303816000875af1158015611ae7573d6000803e3d6000fd5b505050506040513d601f19601f820116820180604052508101906119c29190612342565b8015611bb55760006323b872dd60e01b848484604051602401611b309392919061208f565b60408051601f198184030181529190526020810180516001600160e01b03166001600160e01b03199093169290921790915290506000611b708683611bbb565b905060008151118015611b94575080806020019051810190611b929190612342565b155b15611bb25760405163197138bd60e11b815260040160405180910390fd5b50505b50505050565b6060600080846001600160a01b031684604051611bd89190612364565b6000604051808303816000865af19150503d8060008114611c15576040519150601f19603f3d011682016040523d82523d6000602084013e611c1a565b606091505b50915091508115611c5f578051158015611c3c57506001600160a01b0385163b155b15611c5a57604051635d97df8960e01b815260040160405180910390fd5b611c86565b8051611c7e57604051632407429160e01b815260040160405180910390fd5b805181602001fd5b949350505050565b634e487b7160e01b600052600160045260246000fd5b6001600160a01b0381168114611cb957600080fd5b50565b60008083601f840112611cce57600080fd5b5081356001600160401b03811115611ce557600080fd5b6020830191508360208260051b8501011115611d0057600080fd5b9250929050565b600080600080600080600060a0888a031215611d2257600080fd5b8735611d2d81611ca4565b96506020880135611d3d81611ca4565b955060408801356001600160401b0380821115611d5957600080fd5b611d658b838c01611cbc565b909750955060608a0135915080821115611d7e57600080fd5b50611d8b8a828b01611cbc565b989b979a50959894979596608090950135949350505050565b60008060008060808587031215611dba57600080fd5b8435611dc581611ca4565b93506020850135611dd581611ca4565b93969395505050506040820135916060013590565b600080600080600060808688031215611e0257600080fd5b8535611e0d81611ca4565b94506020860135611e1d81611ca4565b935060408601356001600160401b03811115611e3857600080fd5b611e4488828901611cbc565b96999598509660600135949350505050565b600080600060408486031215611e6b57600080fd5b8335611e7681611ca4565b925060208401356001600160401b03811115611e9157600080fd5b611e9d86828701611cbc565b9497909650939450505050565b602080825260179082015276135a59185cddd85c149bdd5d195c8e8811561412549151604a1b604082015260600190565b6001600160a01b0392831681529116602082015260400190565b600060208284031215611f0757600080fd5b8151611f1281611ca4565b9392505050565b634e487b7160e01b600052603260045260246000fd5b6001600160a01b03929092168252602082015260400190565b634e487b7160e01b600052601160045260246000fd5b6000600019821415611f7257611f72611f48565b5060010190565b62ffffff81168114611cb957600080fd5b8183526000602080850194508260005b85811015611fc4578135611fad81611f79565b62ffffff1687529582019590820190600101611f9a565b509495945050505050565b608081526000611fe360808301888a611f8a565b82810360208401528581526001600160fb1b0386111561200257600080fd5b8560051b80886020840137600091016020019081526001600160a01b0394909416604083015250901515606090910152949350505050565b6000806040838503121561204d57600080fd5b505080516020909101519092909150565b60208082526017908201527626a4a220a9a927aaaa22a91d102ba927a723902820a4a960491b604082015260600190565b6001600160a01b039384168152919092166020820152604081019190915260600190565b9182526001600160a01b0316602082015260400190565b6000602082840312156120dc57600080fd5b5051919050565b634e487b7160e01b600052604160045260246000fd5b6020808252825182820181905260009190848201906040850190845b8181101561213157835183529284019291840191600101612115565b50909695505050505050565b6000602080838503121561215057600080fd5b82516001600160401b038082111561216757600080fd5b818501915085601f83011261217b57600080fd5b81518181111561218d5761218d6120e3565b8060051b604051601f19603f830116810181811085821117156121b2576121b26120e3565b6040529182528482019250838101850191888311156121d057600080fd5b938501935b828510156121ee578451845293850193928501926121d5565b98975050505050505050565b60008282101561220c5761220c611f48565b500390565b600062ffffff80831681851680830382111561222f5761222f611f48565b01949350505050565b6000806040838503121561224b57600080fd5b825161225681611f79565b602084015190925061226781611f79565b809150509250929050565b6000821982111561228557612285611f48565b500190565b60008060006060848603121561229f57600080fd5b8351925060208401519150604084015190509250925092565b60008160001904831182151516156122d2576122d2611f48565b500290565b6000826122f457634e487b7160e01b600052601260045260246000fd5b500490565b60408152600061230d604083018587611f8a565b905060018060a01b0383166020830152949350505050565b60006020828403121561233757600080fd5b8135611f1281611f79565b60006020828403121561235457600080fd5b81518015158114611f1257600080fd5b6000825160005b81811015612385576020818601810151858301520161236b565b81811115612394576000828501525b50919091019291505056fea2646970667358221220ed15c200dcfc6104ca6725e9327ba30c31554e1e0e0535952f7dac50c3bccfdc64736f6c634300080a0033",
					"opcodes": "PUSH1 0x80 PUSH1 0x40 MSTORE CALLVALUE DUP1 ISZERO PUSH3 0x11 JUMPI PUSH1 0x0 DUP1 REVERT JUMPDEST POP PUSH1 0x40 MLOAD PUSH3 0x24C9 CODESIZE SUB DUP1 PUSH3 0x24C9 DUP4 CODECOPY DUP2 ADD PUSH1 0x40 DUP2 SWAP1 MSTORE PUSH3 0x34 SWAP2 PUSH3 0x90 JUMP JUMPDEST PUSH1 0x0 DUP1 SLOAD PUSH1 0x1 PUSH1 0x1 PUSH1 0xA0 SHL SUB SWAP5 DUP6 AND PUSH1 0x1 PUSH1 0x1 PUSH1 0xA0 SHL SUB NOT SWAP2 DUP3 AND OR SWAP1 SWAP2 SSTORE PUSH1 0x1 DUP1 SLOAD SWAP4 DUP6 AND SWAP4 DUP3 AND SWAP4 SWAP1 SWAP4 OR SWAP1 SWAP3 SSTORE PUSH1 0x2 DUP1 SLOAD SWAP2 SWAP1 SWAP4 AND SWAP2 AND OR SWAP1 SSTORE PUSH3 0xE4 JUMP JUMPDEST PUSH1 0x1 PUSH1 0x1 PUSH1 0xA0 SHL SUB DUP2 AND DUP2 EQ PUSH3 0x8D JUMPI PUSH1 0x0 DUP1 REVERT JUMPDEST POP JUMP JUMPDEST PUSH1 0x0 DUP1 PUSH1 0x0 PUSH1 0x60 DUP5 DUP7 SUB SLT ISZERO PUSH3 0xA6 JUMPI PUSH1 0x0 DUP1 REVERT JUMPDEST DUP4 MLOAD PUSH3 0xB3 DUP2 PUSH3 0x77 JUMP JUMPDEST PUSH1 0x20 DUP6 ADD MLOAD SWAP1 SWAP4 POP PUSH3 0xC6 DUP2 PUSH3 0x77 JUMP JUMPDEST PUSH1 0x40 DUP6 ADD MLOAD SWAP1 SWAP3 POP PUSH3 0xD9 DUP2 PUSH3 0x77 JUMP JUMPDEST DUP1 SWAP2 POP POP SWAP3 POP SWAP3 POP SWAP3 JUMP JUMPDEST PUSH2 0x23D5 DUP1 PUSH3 0xF4 PUSH1 0x0 CODECOPY PUSH1 0x0 RETURN INVALID PUSH1 0x80 PUSH1 0x40 MSTORE PUSH1 0x4 CALLDATASIZE LT PUSH2 0xBC JUMPI PUSH1 0x0 CALLDATALOAD PUSH1 0xE0 SHR DUP1 PUSH4 0xEBD4ED5 EQ PUSH2 0xE2 JUMPI DUP1 PUSH4 0x34497DEC EQ PUSH2 0x11C JUMPI DUP1 PUSH4 0x3EE7F9D3 EQ PUSH2 0x13C JUMPI DUP1 PUSH4 0x3FC8CEF3 EQ PUSH2 0x15C JUMPI DUP1 PUSH4 0x4C818AB8 EQ PUSH2 0x194 JUMPI DUP1 PUSH4 0x4C94C90C EQ PUSH2 0x1B5 JUMPI DUP1 PUSH4 0x5E7CB8E0 EQ PUSH2 0x1D5 JUMPI DUP1 PUSH4 0x617E1C59 EQ PUSH2 0x1F5 JUMPI DUP1 PUSH4 0x71C3DE2A EQ PUSH2 0x208 JUMPI DUP1 PUSH4 0x8FB8609A EQ PUSH2 0x228 JUMPI DUP1 PUSH4 0x99CC3501 EQ PUSH2 0x248 JUMPI DUP1 PUSH4 0x9DD91DD7 EQ PUSH2 0x268 JUMPI DUP1 PUSH4 0xABEF0340 EQ PUSH2 0x27B JUMPI DUP1 PUSH4 0xC45A0155 EQ PUSH2 0x29B JUMPI DUP1 PUSH4 0xFEDF4FA1 EQ PUSH2 0x2BB JUMPI PUSH1 0x0 DUP1 REVERT JUMPDEST CALLDATASIZE PUSH2 0xDD JUMPI PUSH1 0x1 SLOAD PUSH1 0x1 PUSH1 0x1 PUSH1 0xA0 SHL SUB AND CALLER EQ PUSH2 0xDB JUMPI PUSH2 0xDB PUSH2 0x1C8E JUMP JUMPDEST STOP JUMPDEST PUSH1 0x0 DUP1 REVERT JUMPDEST CALLVALUE DUP1 ISZERO PUSH2 0xEE JUMPI PUSH1 0x0 DUP1 REVERT JUMPDEST POP PUSH2 0x102 PUSH2 0xFD CALLDATASIZE PUSH1 0x4 PUSH2 0x1D07 JUMP JUMPDEST PUSH2 0x2DB JUMP JUMPDEST PUSH1 0x40 DUP1 MLOAD SWAP3 DUP4 MSTORE PUSH1 0x20 DUP4 ADD SWAP2 SWAP1 SWAP2 MSTORE ADD JUMPDEST PUSH1 0x40 MLOAD DUP1 SWAP2 SUB SWAP1 RETURN JUMPDEST CALLVALUE DUP1 ISZERO PUSH2 0x128 JUMPI PUSH1 0x0 DUP1 REVERT JUMPDEST POP PUSH2 0x102 PUSH2 0x137 CALLDATASIZE PUSH1 0x4 PUSH2 0x1D07 JUMP JUMPDEST PUSH2 0x4A0 JUMP JUMPDEST CALLVALUE DUP1 ISZERO PUSH2 0x148 JUMPI PUSH1 0x0 DUP1 REVERT JUMPDEST POP PUSH2 0x102 PUSH2 0x157 CALLDATASIZE PUSH1 0x4 PUSH2 0x1DA4 JUMP JUMPDEST PUSH2 0x608 JUMP JUMPDEST CALLVALUE DUP1 ISZERO PUSH2 0x168 JUMPI PUSH1 0x0 DUP1 REVERT JUMPDEST POP PUSH1 0x1 SLOAD PUSH2 0x17C SWAP1 PUSH1 0x1 PUSH1 0x1 PUSH1 0xA0 SHL SUB AND DUP2 JUMP JUMPDEST PUSH1 0x40 MLOAD PUSH1 0x1 PUSH1 0x1 PUSH1 0xA0 SHL SUB SWAP1 SWAP2 AND DUP2 MSTORE PUSH1 0x20 ADD PUSH2 0x113 JUMP JUMPDEST PUSH2 0x1A7 PUSH2 0x1A2 CALLDATASIZE PUSH1 0x4 PUSH2 0x1DEA JUMP JUMPDEST PUSH2 0x841 JUMP JUMPDEST PUSH1 0x40 MLOAD SWAP1 DUP2 MSTORE PUSH1 0x20 ADD PUSH2 0x113 JUMP JUMPDEST CALLVALUE DUP1 ISZERO PUSH2 0x1C1 JUMPI PUSH1 0x0 DUP1 REVERT JUMPDEST POP PUSH1 0x2 SLOAD PUSH2 0x17C SWAP1 PUSH1 0x1 PUSH1 0x1 PUSH1 0xA0 SHL SUB AND DUP2 JUMP JUMPDEST CALLVALUE DUP1 ISZERO PUSH2 0x1E1 JUMPI PUSH1 0x0 DUP1 REVERT JUMPDEST POP PUSH2 0x1A7 PUSH2 0x1F0 CALLDATASIZE PUSH1 0x4 PUSH2 0x1E56 JUMP JUMPDEST PUSH2 0xA9A JUMP JUMPDEST PUSH2 0x102 PUSH2 0x203 CALLDATASIZE PUSH1 0x4 PUSH2 0x1DEA JUMP JUMPDEST PUSH2 0xE64 JUMP JUMPDEST CALLVALUE DUP1 ISZERO PUSH2 0x214 JUMPI PUSH1 0x0 DUP1 REVERT JUMPDEST POP PUSH2 0x1A7 PUSH2 0x223 CALLDATASIZE PUSH1 0x4 PUSH2 0x1DEA JUMP JUMPDEST PUSH2 0xFD4 JUMP JUMPDEST CALLVALUE DUP1 ISZERO PUSH2 0x234 JUMPI PUSH1 0x0 DUP1 REVERT JUMPDEST POP PUSH2 0x102 PUSH2 0x243 CALLDATASIZE PUSH1 0x4 PUSH2 0x1DEA JUMP JUMPDEST PUSH2 0x1153 JUMP JUMPDEST CALLVALUE DUP1 ISZERO PUSH2 0x254 JUMPI PUSH1 0x0 DUP1 REVERT JUMPDEST POP PUSH2 0x1A7 PUSH2 0x263 CALLDATASIZE PUSH1 0x4 PUSH2 0x1DEA JUMP JUMPDEST PUSH2 0x123F JUMP JUMPDEST PUSH2 0x1A7 PUSH2 0x276 CALLDATASIZE PUSH1 0x4 PUSH2 0x1DEA JUMP JUMPDEST PUSH2 0x143A JUMP JUMPDEST CALLVALUE DUP1 ISZERO PUSH2 0x287 JUMPI PUSH1 0x0 DUP1 REVERT JUMPDEST POP PUSH2 0x1A7 PUSH2 0x296 CALLDATASIZE PUSH1 0x4 PUSH2 0x1E56 JUMP JUMPDEST PUSH2 0x15CF JUMP JUMPDEST CALLVALUE DUP1 ISZERO PUSH2 0x2A7 JUMPI PUSH1 0x0 DUP1 REVERT JUMPDEST POP PUSH1 0x0 SLOAD PUSH2 0x17C SWAP1 PUSH1 0x1 PUSH1 0x1 PUSH1 0xA0 SHL SUB AND DUP2 JUMP JUMPDEST CALLVALUE DUP1 ISZERO PUSH2 0x2C7 JUMPI PUSH1 0x0 DUP1 REVERT JUMPDEST POP PUSH2 0x102 PUSH2 0x2D6 CALLDATASIZE PUSH1 0x4 PUSH2 0x1DA4 JUMP JUMPDEST PUSH2 0x169B JUMP JUMPDEST PUSH1 0x0 DUP1 DUP3 TIMESTAMP DUP2 LT ISZERO PUSH2 0x308 JUMPI PUSH1 0x40 MLOAD PUSH3 0x461BCD PUSH1 0xE5 SHL DUP2 MSTORE PUSH1 0x4 ADD PUSH2 0x2FF SWAP1 PUSH2 0x1EAA JUMP JUMPDEST PUSH1 0x40 MLOAD DUP1 SWAP2 SUB SWAP1 REVERT JUMPDEST PUSH1 0x0 DUP1 SLOAD PUSH1 0x40 MLOAD PUSH4 0x83D16E13 PUSH1 0xE0 SHL DUP2 MSTORE PUSH1 0x1 PUSH1 0x1 PUSH1 0xA0 SHL SUB SWAP1 SWAP2 AND SWAP1 PUSH4 0x83D16E13 SWAP1 PUSH2 0x33B SWAP1 DUP15 SWAP1 DUP15 SWAP1 PUSH1 0x4 ADD PUSH2 0x1EDB JUMP JUMPDEST PUSH1 0x20 PUSH1 0x40 MLOAD DUP1 DUP4 SUB DUP2 DUP7 GAS STATICCALL ISZERO DUP1 ISZERO PUSH2 0x358 JUMPI RETURNDATASIZE PUSH1 0x0 DUP1 RETURNDATACOPY RETURNDATASIZE PUSH1 0x0 REVERT JUMPDEST POP POP POP POP PUSH1 0x40 MLOAD RETURNDATASIZE PUSH1 0x1F NOT PUSH1 0x1F DUP3 ADD AND DUP3 ADD DUP1 PUSH1 0x40 MSTORE POP DUP2 ADD SWAP1 PUSH2 0x37C SWAP2 SWAP1 PUSH2 0x1EF5 JUMP JUMPDEST SWAP1 POP PUSH1 0x0 JUMPDEST DUP7 DUP2 LT ISZERO PUSH2 0x414 JUMPI DUP12 PUSH1 0x1 PUSH1 0x1 PUSH1 0xA0 SHL SUB AND PUSH4 0x95EA7B3 DUP4 DUP11 DUP11 DUP6 DUP2 DUP2 LT PUSH2 0x3AB JUMPI PUSH2 0x3AB PUSH2 0x1F19 JUMP JUMPDEST SWAP1 POP PUSH1 0x20 MUL ADD CALLDATALOAD PUSH1 0x40 MLOAD DUP4 PUSH4 0xFFFFFFFF AND PUSH1 0xE0 SHL DUP2 MSTORE PUSH1 0x4 ADD PUSH2 0x3CF SWAP3 SWAP2 SWAP1 PUSH2 0x1F2F JUMP JUMPDEST PUSH1 0x0 PUSH1 0x40 MLOAD DUP1 DUP4 SUB DUP2 PUSH1 0x0 DUP8 DUP1 EXTCODESIZE ISZERO DUP1 ISZERO PUSH2 0x3E9 JUMPI PUSH1 0x0 DUP1 REVERT JUMPDEST POP GAS CALL ISZERO DUP1 ISZERO PUSH2 0x3FD JUMPI RETURNDATASIZE PUSH1 0x0 DUP1 RETURNDATACOPY RETURNDATASIZE PUSH1 0x0 REVERT JUMPDEST POP POP POP POP DUP1 DUP1 PUSH2 0x40C SWAP1 PUSH2 0x1F5E JUMP JUMPDEST SWAP2 POP POP PUSH2 0x381 JUMP JUMPDEST POP PUSH1 0x40 MLOAD PUSH4 0x68D68FD7 PUSH1 0xE1 SHL DUP2 MSTORE PUSH1 0x1 PUSH1 0x1 PUSH1 0xA0 SHL SUB DUP3 AND SWAP1 PUSH4 0xD1AD1FAE SWAP1 PUSH2 0x44C SWAP1 DUP13 SWAP1 DUP13 SWAP1 DUP13 SWAP1 DUP13 SWAP1 CALLER SWAP1 PUSH1 0x1 SWAP1 PUSH1 0x4 ADD PUSH2 0x1FCF JUMP JUMPDEST PUSH1 0x40 DUP1 MLOAD DUP1 DUP4 SUB DUP2 PUSH1 0x0 DUP8 GAS CALL ISZERO DUP1 ISZERO PUSH2 0x46A JUMPI RETURNDATASIZE PUSH1 0x0 DUP1 RETURNDATACOPY RETURNDATASIZE PUSH1 0x0 REVERT JUMPDEST POP POP POP POP PUSH1 0x40 MLOAD RETURNDATASIZE PUSH1 0x1F NOT PUSH1 0x1F DUP3 ADD AND DUP3 ADD DUP1 PUSH1 0x40 MSTORE POP DUP2 ADD SWAP1 PUSH2 0x48E SWAP2 SWAP1 PUSH2 0x203A JUMP JUMPDEST SWAP1 SWAP13 SWAP1 SWAP12 POP SWAP10 POP POP POP POP POP POP POP POP POP POP JUMP JUMPDEST PUSH1 0x0 DUP1 DUP3 TIMESTAMP DUP2 LT ISZERO PUSH2 0x4C4 JUMPI PUSH1 0x40 MLOAD PUSH3 0x461BCD PUSH1 0xE5 SHL DUP2 MSTORE PUSH1 0x4 ADD PUSH2 0x2FF SWAP1 PUSH2 0x1EAA JUMP JUMPDEST PUSH1 0x0 DUP1 SLOAD PUSH1 0x40 MLOAD PUSH4 0x83D16E13 PUSH1 0xE0 SHL DUP2 MSTORE PUSH1 0x1 PUSH1 0x1 PUSH1 0xA0 SHL SUB SWAP1 SWAP2 AND SWAP1 PUSH4 0x83D16E13 SWAP1 PUSH2 0x4F7 SWAP1 DUP15 SWAP1 DUP15 SWAP1 PUSH1 0x4 ADD PUSH2 0x1EDB JUMP JUMPDEST PUSH1 0x20 PUSH1 0x40 MLOAD DUP1 DUP4 SUB DUP2 DUP7 GAS STATICCALL ISZERO DUP1 ISZERO PUSH2 0x514 JUMPI RETURNDATASIZE PUSH1 0x0 DUP1 RETURNDATACOPY RETURNDATASIZE PUSH1 0x0 REVERT JUMPDEST POP POP POP POP PUSH1 0x40 MLOAD RETURNDATASIZE PUSH1 0x1F NOT PUSH1 0x1F DUP3 ADD AND DUP3 ADD DUP1 PUSH1 0x40 MSTORE POP DUP2 ADD SWAP1 PUSH2 0x538 SWAP2 SWAP1 PUSH2 0x1EF5 JUMP JUMPDEST SWAP1 POP PUSH1 0x0 JUMPDEST DUP7 DUP2 LT ISZERO PUSH2 0x5D0 JUMPI DUP12 PUSH1 0x1 PUSH1 0x1 PUSH1 0xA0 SHL SUB AND PUSH4 0x95EA7B3 DUP4 DUP11 DUP11 DUP6 DUP2 DUP2 LT PUSH2 0x567 JUMPI PUSH2 0x567 PUSH2 0x1F19 JUMP JUMPDEST SWAP1 POP PUSH1 0x20 MUL ADD CALLDATALOAD PUSH1 0x40 MLOAD DUP4 PUSH4 0xFFFFFFFF AND PUSH1 0xE0 SHL DUP2 MSTORE PUSH1 0x4 ADD PUSH2 0x58B SWAP3 SWAP2 SWAP1 PUSH2 0x1F2F JUMP JUMPDEST PUSH1 0x0 PUSH1 0x40 MLOAD DUP1 DUP4 SUB DUP2 PUSH1 0x0 DUP8 DUP1 EXTCODESIZE ISZERO DUP1 ISZERO PUSH2 0x5A5 JUMPI PUSH1 0x0 DUP1 REVERT JUMPDEST POP GAS CALL ISZERO DUP1 ISZERO PUSH2 0x5B9 JUMPI RETURNDATASIZE PUSH1 0x0 DUP1 RETURNDATACOPY RETURNDATASIZE PUSH1 0x0 REVERT JUMPDEST POP POP POP POP DUP1 DUP1 PUSH2 0x5C8 SWAP1 PUSH2 0x1F5E JUMP JUMPDEST SWAP2 POP POP PUSH2 0x53D JUMP JUMPDEST POP PUSH1 0x40 MLOAD PUSH4 0x68D68FD7 PUSH1 0xE1 SHL DUP2 MSTORE PUSH1 0x1 PUSH1 0x1 PUSH1 0xA0 SHL SUB DUP3 AND SWAP1 PUSH4 0xD1AD1FAE SWAP1 PUSH2 0x44C SWAP1 DUP13 SWAP1 DUP13 SWAP1 DUP13 SWAP1 DUP13 SWAP1 CALLER SWAP1 PUSH1 0x0 SWAP1 PUSH1 0x4 ADD PUSH2 0x1FCF JUMP JUMPDEST PUSH1 0x0 DUP1 DUP3 TIMESTAMP DUP2 LT ISZERO PUSH2 0x62C JUMPI PUSH1 0x40 MLOAD PUSH3 0x461BCD PUSH1 0xE5 SHL DUP2 MSTORE PUSH1 0x4 ADD PUSH2 0x2FF SWAP1 PUSH2 0x1EAA JUMP JUMPDEST PUSH1 0x1 SLOAD PUSH1 0x1 PUSH1 0x1 PUSH1 0xA0 SHL SUB DUP8 DUP2 AND SWAP2 AND EQ ISZERO PUSH2 0x65A JUMPI PUSH1 0x40 MLOAD PUSH3 0x461BCD PUSH1 0xE5 SHL DUP2 MSTORE PUSH1 0x4 ADD PUSH2 0x2FF SWAP1 PUSH2 0x205E JUMP JUMPDEST PUSH1 0x0 DUP1 SLOAD PUSH1 0x40 MLOAD PUSH4 0x83D16E13 PUSH1 0xE0 SHL DUP2 MSTORE PUSH1 0x1 PUSH1 0x1 PUSH1 0xA0 SHL SUB SWAP1 SWAP2 AND SWAP1 PUSH4 0x83D16E13 SWAP1 PUSH2 0x68D SWAP1 DUP12 SWAP1 DUP12 SWAP1 PUSH1 0x4 ADD PUSH2 0x1EDB JUMP JUMPDEST PUSH1 0x20 PUSH1 0x40 MLOAD DUP1 DUP4 SUB DUP2 DUP7 GAS STATICCALL ISZERO DUP1 ISZERO PUSH2 0x6AA JUMPI RETURNDATASIZE PUSH1 0x0 DUP1 RETURNDATACOPY RETURNDATASIZE PUSH1 0x0 REVERT JUMPDEST POP POP POP POP PUSH1 0x40 MLOAD RETURNDATASIZE PUSH1 0x1F NOT PUSH1 0x1F DUP3 ADD AND DUP3 ADD DUP1 PUSH1 0x40 MSTORE POP DUP2 ADD SWAP1 PUSH2 0x6CE SWAP2 SWAP1 PUSH2 0x1EF5 JUMP JUMPDEST PUSH1 0x0 DUP1 SLOAD PUSH1 0x40 MLOAD PUSH4 0x65329A4F PUSH1 0xE0 SHL DUP2 MSTORE SWAP3 SWAP4 POP SWAP1 SWAP2 PUSH1 0x1 PUSH1 0x1 PUSH1 0xA0 SHL SUB SWAP1 SWAP2 AND SWAP1 PUSH4 0x65329A4F SWAP1 PUSH2 0x706 SWAP1 DUP13 SWAP1 DUP13 SWAP1 PUSH1 0x4 ADD PUSH2 0x1EDB JUMP JUMPDEST PUSH1 0x20 PUSH1 0x40 MLOAD DUP1 DUP4 SUB DUP2 DUP7 GAS STATICCALL ISZERO DUP1 ISZERO PUSH2 0x723 JUMPI RETURNDATASIZE PUSH1 0x0 DUP1 RETURNDATACOPY RETURNDATASIZE PUSH1 0x0 REVERT JUMPDEST POP POP POP POP PUSH1 0x40 MLOAD RETURNDATASIZE PUSH1 0x1F NOT PUSH1 0x1F DUP3 ADD AND DUP3 ADD DUP1 PUSH1 0x40 MSTORE POP DUP2 ADD SWAP1 PUSH2 0x747 SWAP2 SWAP1 PUSH2 0x1EF5 JUMP JUMPDEST PUSH1 0x40 MLOAD PUSH4 0x21421707 PUSH1 0xE1 SHL DUP2 MSTORE SWAP1 SWAP2 POP PUSH1 0x1 PUSH1 0x1 PUSH1 0xA0 SHL SUB DUP3 AND SWAP1 PUSH4 0x42842E0E SWAP1 PUSH2 0x77A SWAP1 CALLER SWAP1 DUP7 SWAP1 DUP13 SWAP1 PUSH1 0x4 ADD PUSH2 0x208F JUMP JUMPDEST PUSH1 0x0 PUSH1 0x40 MLOAD DUP1 DUP4 SUB DUP2 PUSH1 0x0 DUP8 DUP1 EXTCODESIZE ISZERO DUP1 ISZERO PUSH2 0x794 JUMPI PUSH1 0x0 DUP1 REVERT JUMPDEST POP GAS CALL ISZERO DUP1 ISZERO PUSH2 0x7A8 JUMPI RETURNDATASIZE PUSH1 0x0 DUP1 RETURNDATACOPY RETURNDATASIZE PUSH1 0x0 REVERT JUMPDEST POP POP PUSH1 0x40 MLOAD PUSH4 0x3F34D4CF PUSH1 0xE2 SHL DUP2 MSTORE PUSH1 0x1 PUSH1 0x1 PUSH1 0xA0 SHL SUB DUP6 AND SWAP3 POP PUSH4 0xFCD3533C SWAP2 POP PUSH2 0x7DA SWAP1 DUP11 SWAP1 CALLER SWAP1 PUSH1 0x4 ADD PUSH2 0x20B3 JUMP JUMPDEST PUSH1 0x40 DUP1 MLOAD DUP1 DUP4 SUB DUP2 PUSH1 0x0 DUP8 GAS CALL ISZERO DUP1 ISZERO PUSH2 0x7F8 JUMPI RETURNDATASIZE PUSH1 0x0 DUP1 RETURNDATACOPY RETURNDATASIZE PUSH1 0x0 REVERT JUMPDEST POP POP POP POP PUSH1 0x40 MLOAD RETURNDATASIZE PUSH1 0x1F NOT PUSH1 0x1F DUP3 ADD AND DUP3 ADD DUP1 PUSH1 0x40 MSTORE POP DUP2 ADD SWAP1 PUSH2 0x81C SWAP2 SWAP1 PUSH2 0x203A JUMP JUMPDEST SWAP1 SWAP6 POP SWAP4 POP PUSH2 0x835 PUSH1 0x1 PUSH1 0x1 PUSH1 0xA0 SHL SUB DUP10 AND CALLER DUP7 PUSH2 0x191A JUMP JUMPDEST POP POP POP SWAP5 POP SWAP5 SWAP3 POP POP POP JUMP JUMPDEST PUSH1 0x0 DUP2 TIMESTAMP DUP2 LT ISZERO PUSH2 0x864 JUMPI PUSH1 0x40 MLOAD PUSH3 0x461BCD PUSH1 0xE5 SHL DUP2 MSTORE PUSH1 0x4 ADD PUSH2 0x2FF SWAP1 PUSH2 0x1EAA JUMP JUMPDEST PUSH1 0x1 SLOAD PUSH1 0x1 PUSH1 0x1 PUSH1 0xA0 SHL SUB DUP8 DUP2 AND SWAP2 AND EQ PUSH2 0x891 JUMPI PUSH1 0x40 MLOAD PUSH3 0x461BCD PUSH1 0xE5 SHL DUP2 MSTORE PUSH1 0x4 ADD PUSH2 0x2FF SWAP1 PUSH2 0x205E JUMP JUMPDEST PUSH1 0x0 DUP1 SLOAD PUSH1 0x40 MLOAD PUSH4 0x83D16E13 PUSH1 0xE0 SHL DUP2 MSTORE PUSH1 0x1 PUSH1 0x1 PUSH1 0xA0 SHL SUB SWAP1 SWAP2 AND SWAP1 PUSH4 0x83D16E13 SWAP1 PUSH2 0x8C4 SWAP1 DUP12 SWAP1 DUP12 SWAP1 PUSH1 0x4 ADD PUSH2 0x1EDB JUMP JUMPDEST PUSH1 0x20 PUSH1 0x40 MLOAD DUP1 DUP4 SUB DUP2 DUP7 GAS STATICCALL ISZERO DUP1 ISZERO PUSH2 0x8E1 JUMPI RETURNDATASIZE PUSH1 0x0 DUP1 RETURNDATACOPY RETURNDATASIZE PUSH1 0x0 REVERT JUMPDEST POP POP POP POP PUSH1 0x40 MLOAD RETURNDATASIZE PUSH1 0x1F NOT PUSH1 0x1F DUP3 ADD AND DUP3 ADD DUP1 PUSH1 0x40 MSTORE POP DUP2 ADD SWAP1 PUSH2 0x905 SWAP2 SWAP1 PUSH2 0x1EF5 JUMP JUMPDEST SWAP1 POP PUSH1 0x0 JUMPDEST DUP6 DUP2 LT ISZERO PUSH2 0xA8E JUMPI DUP9 PUSH1 0x1 PUSH1 0x1 PUSH1 0xA0 SHL SUB AND PUSH4 0x95EA7B3 DUP4 DUP10 DUP10 DUP6 DUP2 DUP2 LT PUSH2 0x934 JUMPI PUSH2 0x934 PUSH2 0x1F19 JUMP JUMPDEST SWAP1 POP PUSH1 0x20 MUL ADD CALLDATALOAD PUSH1 0x40 MLOAD DUP4 PUSH4 0xFFFFFFFF AND PUSH1 0xE0 SHL DUP2 MSTORE PUSH1 0x4 ADD PUSH2 0x958 SWAP3 SWAP2 SWAP1 PUSH2 0x1F2F JUMP JUMPDEST PUSH1 0x0 PUSH1 0x40 MLOAD DUP1 DUP4 SUB DUP2 PUSH1 0x0 DUP8 DUP1 EXTCODESIZE ISZERO DUP1 ISZERO PUSH2 0x972 JUMPI PUSH1 0x0 DUP1 REVERT JUMPDEST POP GAS CALL ISZERO DUP1 ISZERO PUSH2 0x986 JUMPI RETURNDATASIZE PUSH1 0x0 DUP1 RETURNDATACOPY RETURNDATASIZE PUSH1 0x0 REVERT JUMPDEST POP POP POP POP DUP2 PUSH1 0x1 PUSH1 0x1 PUSH1 0xA0 SHL SUB AND PUSH4 0x5728AD49 DUP9 DUP9 DUP5 DUP2 DUP2 LT PUSH2 0x9AB JUMPI PUSH2 0x9AB PUSH2 0x1F19 JUMP JUMPDEST SWAP1 POP PUSH1 0x20 MUL ADD CALLDATALOAD CALLER PUSH1 0x40 MLOAD DUP4 PUSH4 0xFFFFFFFF AND PUSH1 0xE0 SHL DUP2 MSTORE PUSH1 0x4 ADD PUSH2 0x9D0 SWAP3 SWAP2 SWAP1 PUSH2 0x20B3 JUMP JUMPDEST PUSH1 0x20 PUSH1 0x40 MLOAD DUP1 DUP4 SUB DUP2 PUSH1 0x0 DUP8 GAS CALL ISZERO DUP1 ISZERO PUSH2 0x9EF JUMPI RETURNDATASIZE PUSH1 0x0 DUP1 RETURNDATACOPY RETURNDATASIZE PUSH1 0x0 REVERT JUMPDEST POP POP POP POP PUSH1 0x40 MLOAD RETURNDATASIZE PUSH1 0x1F NOT PUSH1 0x1F DUP3 ADD AND DUP3 ADD DUP1 PUSH1 0x40 MSTORE POP DUP2 ADD SWAP1 PUSH2 0xA13 SWAP2 SWAP1 PUSH2 0x20CA JUMP JUMPDEST PUSH1 0x1 SLOAD PUSH1 0x40 MLOAD PUSH4 0x2E1A7D4D PUSH1 0xE0 SHL DUP2 MSTORE PUSH1 0x4 DUP2 ADD DUP4 SWAP1 MSTORE SWAP2 SWAP6 POP PUSH1 0x1 PUSH1 0x1 PUSH1 0xA0 SHL SUB AND SWAP1 PUSH4 0x2E1A7D4D SWAP1 PUSH1 0x24 ADD PUSH1 0x0 PUSH1 0x40 MLOAD DUP1 DUP4 SUB DUP2 PUSH1 0x0 DUP8 DUP1 EXTCODESIZE ISZERO DUP1 ISZERO PUSH2 0xA5A JUMPI PUSH1 0x0 DUP1 REVERT JUMPDEST POP GAS CALL ISZERO DUP1 ISZERO PUSH2 0xA6E JUMPI RETURNDATASIZE PUSH1 0x0 DUP1 RETURNDATACOPY RETURNDATASIZE PUSH1 0x0 REVERT JUMPDEST POP POP POP POP PUSH2 0xA7C CALLER DUP6 PUSH2 0x19C7 JUMP JUMPDEST DUP1 PUSH2 0xA86 DUP2 PUSH2 0x1F5E JUMP JUMPDEST SWAP2 POP POP PUSH2 0x90A JUMP JUMPDEST POP POP POP SWAP6 SWAP5 POP POP POP POP POP JUMP JUMPDEST PUSH1 0x0 DUP1 DUP3 PUSH1 0x1 PUSH1 0x1 PUSH1 0x40 SHL SUB DUP2 GT ISZERO PUSH2 0xAB5 JUMPI PUSH2 0xAB5 PUSH2 0x20E3 JUMP JUMPDEST PUSH1 0x40 MLOAD SWAP1 DUP1 DUP3 MSTORE DUP1 PUSH1 0x20 MUL PUSH1 0x20 ADD DUP3 ADD PUSH1 0x40 MSTORE DUP1 ISZERO PUSH2 0xADE JUMPI DUP2 PUSH1 0x20 ADD PUSH1 0x20 DUP3 MUL DUP1 CALLDATASIZE DUP4 CALLDATACOPY ADD SWAP1 POP JUMPDEST POP SWAP1 POP PUSH1 0x0 JUMPDEST DUP4 DUP2 LT ISZERO PUSH2 0xBA0 JUMPI DUP6 PUSH1 0x1 PUSH1 0x1 PUSH1 0xA0 SHL SUB AND PUSH4 0xC88DD271 DUP7 DUP7 DUP5 DUP2 DUP2 LT PUSH2 0xB0D JUMPI PUSH2 0xB0D PUSH2 0x1F19 JUMP JUMPDEST SWAP1 POP PUSH1 0x20 MUL ADD CALLDATALOAD PUSH1 0x40 MLOAD DUP3 PUSH4 0xFFFFFFFF AND PUSH1 0xE0 SHL DUP2 MSTORE PUSH1 0x4 ADD PUSH2 0xB32 SWAP2 DUP2 MSTORE PUSH1 0x20 ADD SWAP1 JUMP JUMPDEST PUSH1 0x20 PUSH1 0x40 MLOAD DUP1 DUP4 SUB DUP2 DUP7 GAS STATICCALL ISZERO DUP1 ISZERO PUSH2 0xB4F JUMPI RETURNDATASIZE PUSH1 0x0 DUP1 RETURNDATACOPY RETURNDATASIZE PUSH1 0x0 REVERT JUMPDEST POP POP POP POP PUSH1 0x40 MLOAD RETURNDATASIZE PUSH1 0x1F NOT PUSH1 0x1F DUP3 ADD AND DUP3 ADD DUP1 PUSH1 0x40 MSTORE POP DUP2 ADD SWAP1 PUSH2 0xB73 SWAP2 SWAP1 PUSH2 0x20CA JUMP JUMPDEST DUP3 DUP3 DUP2 MLOAD DUP2 LT PUSH2 0xB85 JUMPI PUSH2 0xB85 PUSH2 0x1F19 JUMP JUMPDEST PUSH1 0x20 SWAP1 DUP2 MUL SWAP2 SWAP1 SWAP2 ADD ADD MSTORE PUSH2 0xB99 DUP2 PUSH2 0x1F5E JUMP JUMPDEST SWAP1 POP PUSH2 0xAE4 JUMP JUMPDEST POP PUSH1 0x40 MLOAD PUSH4 0x9D13C02F PUSH1 0xE0 SHL DUP2 MSTORE PUSH20 0x0 SWAP1 PUSH4 0x9D13C02F SWAP1 PUSH2 0xBD8 SWAP1 DUP5 SWAP1 PUSH1 0x4 ADD PUSH2 0x20F9 JUMP JUMPDEST PUSH1 0x0 PUSH1 0x40 MLOAD DUP1 DUP4 SUB DUP2 DUP7 GAS DELEGATECALL ISZERO DUP1 ISZERO PUSH2 0xBF5 JUMPI RETURNDATASIZE PUSH1 0x0 DUP1 RETURNDATACOPY RETURNDATASIZE PUSH1 0x0 REVERT JUMPDEST POP POP POP POP PUSH1 0x40 MLOAD RETURNDATASIZE PUSH1 0x0 DUP3 RETURNDATACOPY PUSH1 0x1F RETURNDATASIZE SWAP1 DUP2 ADD PUSH1 0x1F NOT AND DUP3 ADD PUSH1 0x40 MSTORE PUSH2 0xC1D SWAP2 SWAP1 DUP2 ADD SWAP1 PUSH2 0x213D JUMP JUMPDEST SWAP1 POP PUSH1 0x0 DUP1 PUSH1 0x0 JUMPDEST DUP4 MLOAD DUP2 LT ISZERO PUSH2 0xDA5 JUMPI PUSH1 0x0 DUP2 GT DUP1 ISZERO PUSH2 0xC79 JUMPI POP DUP4 PUSH2 0xC45 PUSH1 0x1 DUP4 PUSH2 0x21FA JUMP JUMPDEST DUP2 MLOAD DUP2 LT PUSH2 0xC55 JUMPI PUSH2 0xC55 PUSH2 0x1F19 JUMP JUMPDEST PUSH1 0x20 MUL PUSH1 0x20 ADD ADD MLOAD DUP5 DUP3 DUP2 MLOAD DUP2 LT PUSH2 0xC6F JUMPI PUSH2 0xC6F PUSH2 0x1F19 JUMP JUMPDEST PUSH1 0x20 MUL PUSH1 0x20 ADD ADD MLOAD EQ JUMPDEST ISZERO PUSH2 0xC8F JUMPI PUSH2 0xC88 DUP3 DUP5 PUSH2 0x2211 JUMP JUMPDEST SWAP3 POP PUSH2 0xD1C JUMP JUMPDEST DUP8 PUSH1 0x1 PUSH1 0x1 PUSH1 0xA0 SHL SUB AND PUSH4 0x3357FCB1 DUP6 DUP4 DUP2 MLOAD DUP2 LT PUSH2 0xCB0 JUMPI PUSH2 0xCB0 PUSH2 0x1F19 JUMP JUMPDEST PUSH1 0x20 MUL PUSH1 0x20 ADD ADD MLOAD PUSH1 0x40 MLOAD DUP3 PUSH4 0xFFFFFFFF AND PUSH1 0xE0 SHL DUP2 MSTORE PUSH1 0x4 ADD PUSH2 0xCD6 SWAP2 DUP2 MSTORE PUSH1 0x20 ADD SWAP1 JUMP JUMPDEST PUSH1 0x40 DUP1 MLOAD DUP1 DUP4 SUB DUP2 DUP7 GAS STATICCALL ISZERO DUP1 ISZERO PUSH2 0xCF2 JUMPI RETURNDATASIZE PUSH1 0x0 DUP1 RETURNDATACOPY RETURNDATASIZE PUSH1 0x0 REVERT JUMPDEST POP POP POP POP PUSH1 0x40 MLOAD RETURNDATASIZE PUSH1 0x1F NOT PUSH1 0x1F DUP3 ADD AND DUP3 ADD DUP1 PUSH1 0x40 MSTORE POP DUP2 ADD SWAP1 PUSH2 0xD16 SWAP2 SWAP1 PUSH2 0x2238 JUMP JUMPDEST SWAP1 SWAP4 POP SWAP2 POP JUMPDEST PUSH1 0x40 MLOAD PUSH4 0xFD31C4AB PUSH1 0xE0 SHL DUP2 MSTORE PUSH3 0xFFFFFF DUP5 AND PUSH1 0x4 DUP3 ADD MSTORE PUSH1 0x1 PUSH1 0x1 PUSH1 0xA0 SHL SUB DUP10 AND SWAP1 PUSH4 0xFD31C4AB SWAP1 PUSH1 0x24 ADD PUSH1 0x20 PUSH1 0x40 MLOAD DUP1 DUP4 SUB DUP2 DUP7 GAS STATICCALL ISZERO DUP1 ISZERO PUSH2 0xD65 JUMPI RETURNDATASIZE PUSH1 0x0 DUP1 RETURNDATACOPY RETURNDATASIZE PUSH1 0x0 REVERT JUMPDEST POP POP POP POP PUSH1 0x40 MLOAD RETURNDATASIZE PUSH1 0x1F NOT PUSH1 0x1F DUP3 ADD AND DUP3 ADD DUP1 PUSH1 0x40 MSTORE POP DUP2 ADD SWAP1 PUSH2 0xD89 SWAP2 SWAP1 PUSH2 0x20CA JUMP JUMPDEST PUSH2 0xD93 SWAP1 DUP7 PUSH2 0x2272 JUMP JUMPDEST SWAP5 POP PUSH2 0xD9E DUP2 PUSH2 0x1F5E JUMP JUMPDEST SWAP1 POP PUSH2 0xC25 JUMP JUMPDEST POP PUSH1 0x0 DUP1 DUP9 PUSH1 0x1 PUSH1 0x1 PUSH1 0xA0 SHL SUB AND PUSH4 0x98C7ADF3 PUSH1 0x40 MLOAD DUP2 PUSH4 0xFFFFFFFF AND PUSH1 0xE0 SHL DUP2 MSTORE PUSH1 0x4 ADD PUSH1 0x60 PUSH1 0x40 MLOAD DUP1 DUP4 SUB DUP2 DUP7 GAS STATICCALL ISZERO DUP1 ISZERO PUSH2 0xDE7 JUMPI RETURNDATASIZE PUSH1 0x0 DUP1 RETURNDATACOPY RETURNDATASIZE PUSH1 0x0 REVERT JUMPDEST POP POP POP POP PUSH1 0x40 MLOAD RETURNDATASIZE PUSH1 0x1F NOT PUSH1 0x1F DUP3 ADD AND DUP3 ADD DUP1 PUSH1 0x40 MSTORE POP DUP2 ADD SWAP1 PUSH2 0xE0B SWAP2 SWAP1 PUSH2 0x228A JUMP JUMPDEST SWAP3 POP POP SWAP2 POP PUSH8 0xDE0B6B3A7640000 DUP2 DUP4 PUSH8 0xDE0B6B3A7640000 PUSH2 0xE2E SWAP2 SWAP1 PUSH2 0x2272 JUMP JUMPDEST PUSH2 0xE38 SWAP2 SWAP1 PUSH2 0x2272 JUMP JUMPDEST PUSH2 0xE42 SWAP1 DUP9 PUSH2 0x22B8 JUMP JUMPDEST PUSH2 0xE4C SWAP2 SWAP1 PUSH2 0x22D7 JUMP JUMPDEST PUSH2 0xE57 SWAP1 PUSH1 0x1 PUSH2 0x2272 JUMP JUMPDEST SWAP10 SWAP9 POP POP POP POP POP POP POP POP POP JUMP JUMPDEST PUSH1 0x0 DUP1 DUP3 TIMESTAMP DUP2 LT ISZERO PUSH2 0xE88 JUMPI PUSH1 0x40 MLOAD PUSH3 0x461BCD PUSH1 0xE5 SHL DUP2 MSTORE PUSH1 0x4 ADD PUSH2 0x2FF SWAP1 PUSH2 0x1EAA JUMP JUMPDEST PUSH1 0x0 DUP1 SLOAD PUSH1 0x40 MLOAD PUSH4 0x83D16E13 PUSH1 0xE0 SHL DUP2 MSTORE PUSH1 0x1 PUSH1 0x1 PUSH1 0xA0 SHL SUB SWAP1 SWAP2 AND SWAP1 PUSH4 0x83D16E13 SWAP1 PUSH2 0xEBB SWAP1 DUP13 SWAP1 DUP13 SWAP1 PUSH1 0x4 ADD PUSH2 0x1EDB JUMP JUMPDEST PUSH1 0x20 PUSH1 0x40 MLOAD DUP1 DUP4 SUB DUP2 DUP7 GAS STATICCALL ISZERO DUP1 ISZERO PUSH2 0xED8 JUMPI RETURNDATASIZE PUSH1 0x0 DUP1 RETURNDATACOPY RETURNDATASIZE PUSH1 0x0 REVERT JUMPDEST POP POP POP POP PUSH1 0x40 MLOAD RETURNDATASIZE PUSH1 0x1F NOT PUSH1 0x1F DUP3 ADD AND DUP3 ADD DUP1 PUSH1 0x40 MSTORE POP DUP2 ADD SWAP1 PUSH2 0xEFC SWAP2 SWAP1 PUSH2 0x1EF5 JUMP JUMPDEST SWAP1 POP PUSH1 0x0 PUSH2 0xF0B DUP3 DUP10 DUP10 PUSH2 0x15CF JUMP JUMPDEST PUSH1 0x1 SLOAD SWAP1 SWAP2 POP PUSH1 0x1 PUSH1 0x1 PUSH1 0xA0 SHL SUB DUP11 DUP2 AND SWAP2 AND EQ DUP1 ISZERO PUSH2 0xF2B JUMPI POP DUP1 CALLVALUE LT ISZERO JUMPDEST PUSH2 0xF47 JUMPI PUSH1 0x40 MLOAD PUSH3 0x461BCD PUSH1 0xE5 SHL DUP2 MSTORE PUSH1 0x4 ADD PUSH2 0x2FF SWAP1 PUSH2 0x205E JUMP JUMPDEST PUSH2 0xF51 DUP3 CALLVALUE PUSH2 0x1A2D JUMP JUMPDEST PUSH1 0x40 MLOAD PUSH4 0xA3D055A7 PUSH1 0xE0 SHL DUP2 MSTORE PUSH1 0x1 PUSH1 0x1 PUSH1 0xA0 SHL SUB DUP4 AND SWAP1 PUSH4 0xA3D055A7 SWAP1 PUSH2 0xF81 SWAP1 DUP12 SWAP1 DUP12 SWAP1 CALLER SWAP1 PUSH1 0x4 ADD PUSH2 0x22F9 JUMP JUMPDEST PUSH1 0x40 DUP1 MLOAD DUP1 DUP4 SUB DUP2 PUSH1 0x0 DUP8 GAS CALL ISZERO DUP1 ISZERO PUSH2 0xF9F JUMPI RETURNDATASIZE PUSH1 0x0 DUP1 RETURNDATACOPY RETURNDATASIZE PUSH1 0x0 REVERT JUMPDEST POP POP POP POP PUSH1 0x40 MLOAD RETURNDATASIZE PUSH1 0x1F NOT PUSH1 0x1F DUP3 ADD AND DUP3 ADD DUP1 PUSH1 0x40 MSTORE POP DUP2 ADD SWAP1 PUSH2 0xFC3 SWAP2 SWAP1 PUSH2 0x203A JUMP JUMPDEST SWAP1 SWAP12 SWAP1 SWAP11 POP SWAP9 POP POP POP POP POP POP POP POP POP JUMP JUMPDEST PUSH1 0x0 DUP2 TIMESTAMP DUP2 LT ISZERO PUSH2 0xFF7 JUMPI PUSH1 0x40 MLOAD PUSH3 0x461BCD PUSH1 0xE5 SHL DUP2 MSTORE PUSH1 0x4 ADD PUSH2 0x2FF SWAP1 PUSH2 0x1EAA JUMP JUMPDEST PUSH1 0x1 SLOAD PUSH1 0x1 PUSH1 0x1 PUSH1 0xA0 SHL SUB DUP8 DUP2 AND SWAP2 AND EQ ISZERO PUSH2 0x1025 JUMPI PUSH1 0x40 MLOAD PUSH3 0x461BCD PUSH1 0xE5 SHL DUP2 MSTORE PUSH1 0x4 ADD PUSH2 0x2FF SWAP1 PUSH2 0x205E JUMP JUMPDEST PUSH1 0x0 DUP1 SLOAD PUSH1 0x40 MLOAD PUSH4 0x83D16E13 PUSH1 0xE0 SHL DUP2 MSTORE PUSH1 0x1 PUSH1 0x1 PUSH1 0xA0 SHL SUB SWAP1 SWAP2 AND SWAP1 PUSH4 0x83D16E13 SWAP1 PUSH2 0x1058 SWAP1 DUP12 SWAP1 DUP12 SWAP1 PUSH1 0x4 ADD PUSH2 0x1EDB JUMP JUMPDEST PUSH1 0x20 PUSH1 0x40 MLOAD DUP1 DUP4 SUB DUP2 DUP7 GAS STATICCALL ISZERO DUP1 ISZERO PUSH2 0x1075 JUMPI RETURNDATASIZE PUSH1 0x0 DUP1 RETURNDATACOPY RETURNDATASIZE PUSH1 0x0 REVERT JUMPDEST POP POP POP POP PUSH1 0x40 MLOAD RETURNDATASIZE PUSH1 0x1F NOT PUSH1 0x1F DUP3 ADD AND DUP3 ADD DUP1 PUSH1 0x40 MSTORE POP DUP2 ADD SWAP1 PUSH2 0x1099 SWAP2 SWAP1 PUSH2 0x1EF5 JUMP JUMPDEST SWAP1 POP PUSH2 0x10A6 DUP2 DUP8 DUP8 PUSH2 0xA9A JUMP JUMPDEST SWAP3 POP PUSH2 0x10BD PUSH1 0x1 PUSH1 0x1 PUSH1 0xA0 SHL SUB DUP9 AND CALLER DUP4 DUP7 PUSH2 0x1B0B JUMP JUMPDEST PUSH1 0x0 JUMPDEST DUP6 DUP2 LT ISZERO PUSH2 0xA8E JUMPI DUP2 PUSH1 0x1 PUSH1 0x1 PUSH1 0xA0 SHL SUB AND PUSH4 0xD8DB47A7 DUP9 DUP9 DUP5 DUP2 DUP2 LT PUSH2 0x10E9 JUMPI PUSH2 0x10E9 PUSH2 0x1F19 JUMP JUMPDEST SWAP1 POP PUSH1 0x20 MUL ADD CALLDATALOAD CALLER PUSH1 0x40 MLOAD DUP4 PUSH4 0xFFFFFFFF AND PUSH1 0xE0 SHL DUP2 MSTORE PUSH1 0x4 ADD PUSH2 0x110E SWAP3 SWAP2 SWAP1 PUSH2 0x20B3 JUMP JUMPDEST PUSH1 0x0 PUSH1 0x40 MLOAD DUP1 DUP4 SUB DUP2 PUSH1 0x0 DUP8 DUP1 EXTCODESIZE ISZERO DUP1 ISZERO PUSH2 0x1128 JUMPI PUSH1 0x0 DUP1 REVERT JUMPDEST POP GAS CALL ISZERO DUP1 ISZERO PUSH2 0x113C JUMPI RETURNDATASIZE PUSH1 0x0 DUP1 RETURNDATACOPY RETURNDATASIZE PUSH1 0x0 REVERT JUMPDEST POP POP POP POP DUP1 DUP1 PUSH2 0x114B SWAP1 PUSH2 0x1F5E JUMP JUMPDEST SWAP2 POP POP PUSH2 0x10C0 JUMP JUMPDEST PUSH1 0x0 DUP1 DUP3 TIMESTAMP DUP2 LT ISZERO PUSH2 0x1177 JUMPI PUSH1 0x40 MLOAD PUSH3 0x461BCD PUSH1 0xE5 SHL DUP2 MSTORE PUSH1 0x4 ADD PUSH2 0x2FF SWAP1 PUSH2 0x1EAA JUMP JUMPDEST PUSH1 0x1 SLOAD PUSH1 0x1 PUSH1 0x1 PUSH1 0xA0 SHL SUB DUP9 DUP2 AND SWAP2 AND EQ ISZERO PUSH2 0x11A5 JUMPI PUSH1 0x40 MLOAD PUSH3 0x461BCD PUSH1 0xE5 SHL DUP2 MSTORE PUSH1 0x4 ADD PUSH2 0x2FF SWAP1 PUSH2 0x205E JUMP JUMPDEST PUSH1 0x0 DUP1 SLOAD PUSH1 0x40 MLOAD PUSH4 0x83D16E13 PUSH1 0xE0 SHL DUP2 MSTORE PUSH1 0x1 PUSH1 0x1 PUSH1 0xA0 SHL SUB SWAP1 SWAP2 AND SWAP1 PUSH4 0x83D16E13 SWAP1 PUSH2 0x11D8 SWAP1 DUP13 SWAP1 DUP13 SWAP1 PUSH1 0x4 ADD PUSH2 0x1EDB JUMP JUMPDEST PUSH1 0x20 PUSH1 0x40 MLOAD DUP1 DUP4 SUB DUP2 DUP7 GAS STATICCALL ISZERO DUP1 ISZERO PUSH2 0x11F5 JUMPI RETURNDATASIZE PUSH1 0x0 DUP1 RETURNDATACOPY RETURNDATASIZE PUSH1 0x0 REVERT JUMPDEST POP POP POP POP PUSH1 0x40 MLOAD RETURNDATASIZE PUSH1 0x1F NOT PUSH1 0x1F DUP3 ADD AND DUP3 ADD DUP1 PUSH1 0x40 MSTORE POP DUP2 ADD SWAP1 PUSH2 0x1219 SWAP2 SWAP1 PUSH2 0x1EF5 JUMP JUMPDEST SWAP1 POP PUSH1 0x0 PUSH2 0x1228 DUP3 DUP10 DUP10 PUSH2 0x15CF JUMP JUMPDEST SWAP1 POP PUSH2 0xF51 PUSH1 0x1 PUSH1 0x1 PUSH1 0xA0 SHL SUB DUP11 AND CALLER DUP5 DUP5 PUSH2 0x1B0B JUMP JUMPDEST PUSH1 0x0 DUP2 TIMESTAMP DUP2 LT ISZERO PUSH2 0x1262 JUMPI PUSH1 0x40 MLOAD PUSH3 0x461BCD PUSH1 0xE5 SHL DUP2 MSTORE PUSH1 0x4 ADD PUSH2 0x2FF SWAP1 PUSH2 0x1EAA JUMP JUMPDEST PUSH1 0x1 SLOAD PUSH1 0x1 PUSH1 0x1 PUSH1 0xA0 SHL SUB DUP8 DUP2 AND SWAP2 AND EQ ISZERO PUSH2 0x1290 JUMPI PUSH1 0x40 MLOAD PUSH3 0x461BCD PUSH1 0xE5 SHL DUP2 MSTORE PUSH1 0x4 ADD PUSH2 0x2FF SWAP1 PUSH2 0x205E JUMP JUMPDEST PUSH1 0x0 DUP1 SLOAD PUSH1 0x40 MLOAD PUSH4 0x83D16E13 PUSH1 0xE0 SHL DUP2 MSTORE PUSH1 0x1 PUSH1 0x1 PUSH1 0xA0 SHL SUB SWAP1 SWAP2 AND SWAP1 PUSH4 0x83D16E13 SWAP1 PUSH2 0x12C3 SWAP1 DUP12 SWAP1 DUP12 SWAP1 PUSH1 0x4 ADD PUSH2 0x1EDB JUMP JUMPDEST PUSH1 0x20 PUSH1 0x40 MLOAD DUP1 DUP4 SUB DUP2 DUP7 GAS STATICCALL ISZERO DUP1 ISZERO PUSH2 0x12E0 JUMPI RETURNDATASIZE PUSH1 0x0 DUP1 RETURNDATACOPY RETURNDATASIZE PUSH1 0x0 REVERT JUMPDEST POP POP POP POP PUSH1 0x40 MLOAD RETURNDATASIZE PUSH1 0x1F NOT PUSH1 0x1F DUP3 ADD AND DUP3 ADD DUP1 PUSH1 0x40 MSTORE POP DUP2 ADD SWAP1 PUSH2 0x1304 SWAP2 SWAP1 PUSH2 0x1EF5 JUMP JUMPDEST SWAP1 POP PUSH1 0x0 JUMPDEST DUP6 DUP2 LT ISZERO PUSH2 0xA8E JUMPI DUP9 PUSH1 0x1 PUSH1 0x1 PUSH1 0xA0 SHL SUB AND PUSH4 0x95EA7B3 DUP4 DUP10 DUP10 DUP6 DUP2 DUP2 LT PUSH2 0x1333 JUMPI PUSH2 0x1333 PUSH2 0x1F19 JUMP JUMPDEST SWAP1 POP PUSH1 0x20 MUL ADD CALLDATALOAD PUSH1 0x40 MLOAD DUP4 PUSH4 0xFFFFFFFF AND PUSH1 0xE0 SHL DUP2 MSTORE PUSH1 0x4 ADD PUSH2 0x1357 SWAP3 SWAP2 SWAP1 PUSH2 0x1F2F JUMP JUMPDEST PUSH1 0x0 PUSH1 0x40 MLOAD DUP1 DUP4 SUB DUP2 PUSH1 0x0 DUP8 DUP1 EXTCODESIZE ISZERO DUP1 ISZERO PUSH2 0x1371 JUMPI PUSH1 0x0 DUP1 REVERT JUMPDEST POP GAS CALL ISZERO DUP1 ISZERO PUSH2 0x1385 JUMPI RETURNDATASIZE PUSH1 0x0 DUP1 RETURNDATACOPY RETURNDATASIZE PUSH1 0x0 REVERT JUMPDEST POP POP POP POP DUP2 PUSH1 0x1 PUSH1 0x1 PUSH1 0xA0 SHL SUB AND PUSH4 0x5728AD49 DUP9 DUP9 DUP5 DUP2 DUP2 LT PUSH2 0x13AA JUMPI PUSH2 0x13AA PUSH2 0x1F19 JUMP JUMPDEST SWAP1 POP PUSH1 0x20 MUL ADD CALLDATALOAD CALLER PUSH1 0x40 MLOAD DUP4 PUSH4 0xFFFFFFFF AND PUSH1 0xE0 SHL DUP2 MSTORE PUSH1 0x4 ADD PUSH2 0x13CF SWAP3 SWAP2 SWAP1 PUSH2 0x20B3 JUMP JUMPDEST PUSH1 0x20 PUSH1 0x40 MLOAD DUP1 DUP4 SUB DUP2 PUSH1 0x0 DUP8 GAS CALL ISZERO DUP1 ISZERO PUSH2 0x13EE JUMPI RETURNDATASIZE PUSH1 0x0 DUP1 RETURNDATACOPY RETURNDATASIZE PUSH1 0x0 REVERT JUMPDEST POP POP POP POP PUSH1 0x40 MLOAD RETURNDATASIZE PUSH1 0x1F NOT PUSH1 0x1F DUP3 ADD AND DUP3 ADD DUP1 PUSH1 0x40 MSTORE POP DUP2 ADD SWAP1 PUSH2 0x1412 SWAP2 SWAP1 PUSH2 0x20CA JUMP JUMPDEST SWAP4 POP PUSH2 0x1428 PUSH1 0x1 PUSH1 0x1 PUSH1 0xA0 SHL SUB DUP10 AND CALLER DUP7 PUSH2 0x191A JUMP JUMPDEST DUP1 PUSH2 0x1432 DUP2 PUSH2 0x1F5E JUMP JUMPDEST SWAP2 POP POP PUSH2 0x1309 JUMP JUMPDEST PUSH1 0x0 DUP2 TIMESTAMP DUP2 LT ISZERO PUSH2 0x145D JUMPI PUSH1 0x40 MLOAD PUSH3 0x461BCD PUSH1 0xE5 SHL DUP2 MSTORE PUSH1 0x4 ADD PUSH2 0x2FF SWAP1 PUSH2 0x1EAA JUMP JUMPDEST PUSH1 0x0 DUP1 SLOAD PUSH1 0x40 MLOAD PUSH4 0x83D16E13 PUSH1 0xE0 SHL DUP2 MSTORE PUSH1 0x1 PUSH1 0x1 PUSH1 0xA0 SHL SUB SWAP1 SWAP2 AND SWAP1 PUSH4 0x83D16E13 SWAP1 PUSH2 0x1490 SWAP1 DUP12 SWAP1 DUP12 SWAP1 PUSH1 0x4 ADD PUSH2 0x1EDB JUMP JUMPDEST PUSH1 0x20 PUSH1 0x40 MLOAD DUP1 DUP4 SUB DUP2 DUP7 GAS STATICCALL ISZERO DUP1 ISZERO PUSH2 0x14AD JUMPI RETURNDATASIZE PUSH1 0x0 DUP1 RETURNDATACOPY RETURNDATASIZE PUSH1 0x0 REVERT JUMPDEST POP POP POP POP PUSH1 0x40 MLOAD RETURNDATASIZE PUSH1 0x1F NOT PUSH1 0x1F DUP3 ADD AND DUP3 ADD DUP1 PUSH1 0x40 MSTORE POP DUP2 ADD SWAP1 PUSH2 0x14D1 SWAP2 SWAP1 PUSH2 0x1EF5 JUMP JUMPDEST SWAP1 POP PUSH2 0x14DE DUP2 DUP8 DUP8 PUSH2 0xA9A JUMP JUMPDEST PUSH1 0x1 SLOAD SWAP1 SWAP4 POP PUSH1 0x1 PUSH1 0x1 PUSH1 0xA0 SHL SUB DUP9 DUP2 AND SWAP2 AND EQ DUP1 ISZERO PUSH2 0x14FE JUMPI POP DUP3 CALLVALUE LT ISZERO JUMPDEST PUSH2 0x151A JUMPI PUSH1 0x40 MLOAD PUSH3 0x461BCD PUSH1 0xE5 SHL DUP2 MSTORE PUSH1 0x4 ADD PUSH2 0x2FF SWAP1 PUSH2 0x205E JUMP JUMPDEST PUSH2 0x1524 DUP2 CALLVALUE PUSH2 0x1A2D JUMP JUMPDEST PUSH2 0x1539 PUSH1 0x1 PUSH1 0x1 PUSH1 0xA0 SHL SUB DUP9 AND CALLER DUP4 DUP7 PUSH2 0x1B0B JUMP JUMPDEST PUSH1 0x0 JUMPDEST DUP6 DUP2 LT ISZERO PUSH2 0xA8E JUMPI DUP2 PUSH1 0x1 PUSH1 0x1 PUSH1 0xA0 SHL SUB AND PUSH4 0xD8DB47A7 DUP9 DUP9 DUP5 DUP2 DUP2 LT PUSH2 0x1565 JUMPI PUSH2 0x1565 PUSH2 0x1F19 JUMP JUMPDEST SWAP1 POP PUSH1 0x20 MUL ADD CALLDATALOAD CALLER PUSH1 0x40 MLOAD DUP4 PUSH4 0xFFFFFFFF AND PUSH1 0xE0 SHL DUP2 MSTORE PUSH1 0x4 ADD PUSH2 0x158A SWAP3 SWAP2 SWAP1 PUSH2 0x20B3 JUMP JUMPDEST PUSH1 0x0 PUSH1 0x40 MLOAD DUP1 DUP4 SUB DUP2 PUSH1 0x0 DUP8 DUP1 EXTCODESIZE ISZERO DUP1 ISZERO PUSH2 0x15A4 JUMPI PUSH1 0x0 DUP1 REVERT JUMPDEST POP GAS CALL ISZERO DUP1 ISZERO PUSH2 0x15B8 JUMPI RETURNDATASIZE PUSH1 0x0 DUP1 RETURNDATACOPY RETURNDATASIZE PUSH1 0x0 REVERT JUMPDEST POP POP POP POP DUP1 DUP1 PUSH2 0x15C7 SWAP1 PUSH2 0x1F5E JUMP JUMPDEST SWAP2 POP POP PUSH2 0x153C JUMP JUMPDEST PUSH1 0x0 DUP1 JUMPDEST DUP3 DUP2 LT ISZERO PUSH2 0x1693 JUMPI DUP5 PUSH1 0x1 PUSH1 0x1 PUSH1 0xA0 SHL SUB AND PUSH4 0xFD31C4AB DUP6 DUP6 DUP5 DUP2 DUP2 LT PUSH2 0x15FC JUMPI PUSH2 0x15FC PUSH2 0x1F19 JUMP JUMPDEST SWAP1 POP PUSH1 0x20 MUL ADD PUSH1 0x20 DUP2 ADD SWAP1 PUSH2 0x1611 SWAP2 SWAP1 PUSH2 0x2325 JUMP JUMPDEST PUSH1 0x40 MLOAD PUSH1 0x1 PUSH1 0x1 PUSH1 0xE0 SHL SUB NOT PUSH1 0xE0 DUP5 SWAP1 SHL AND DUP2 MSTORE PUSH3 0xFFFFFF SWAP1 SWAP2 AND PUSH1 0x4 DUP3 ADD MSTORE PUSH1 0x24 ADD PUSH1 0x20 PUSH1 0x40 MLOAD DUP1 DUP4 SUB DUP2 DUP7 GAS STATICCALL ISZERO DUP1 ISZERO PUSH2 0x1651 JUMPI RETURNDATASIZE PUSH1 0x0 DUP1 RETURNDATACOPY RETURNDATASIZE PUSH1 0x0 REVERT JUMPDEST POP POP POP POP PUSH1 0x40 MLOAD RETURNDATASIZE PUSH1 0x1F NOT PUSH1 0x1F DUP3 ADD AND DUP3 ADD DUP1 PUSH1 0x40 MSTORE POP DUP2 ADD SWAP1 PUSH2 0x1675 SWAP2 SWAP1 PUSH2 0x20CA JUMP JUMPDEST PUSH2 0x167F SWAP1 DUP4 PUSH2 0x2272 JUMP JUMPDEST SWAP2 POP DUP1 PUSH2 0x168B DUP2 PUSH2 0x1F5E JUMP JUMPDEST SWAP2 POP POP PUSH2 0x15D3 JUMP JUMPDEST POP SWAP4 SWAP3 POP POP POP JUMP JUMPDEST PUSH1 0x0 DUP1 DUP3 TIMESTAMP DUP2 LT ISZERO PUSH2 0x16BF JUMPI PUSH1 0x40 MLOAD PUSH3 0x461BCD PUSH1 0xE5 SHL DUP2 MSTORE PUSH1 0x4 ADD PUSH2 0x2FF SWAP1 PUSH2 0x1EAA JUMP JUMPDEST PUSH1 0x1 SLOAD PUSH1 0x1 PUSH1 0x1 PUSH1 0xA0 SHL SUB DUP8 DUP2 AND SWAP2 AND EQ PUSH2 0x16EC JUMPI PUSH1 0x40 MLOAD PUSH3 0x461BCD PUSH1 0xE5 SHL DUP2 MSTORE PUSH1 0x4 ADD PUSH2 0x2FF SWAP1 PUSH2 0x205E JUMP JUMPDEST PUSH1 0x0 DUP1 SLOAD PUSH1 0x40 MLOAD PUSH4 0x83D16E13 PUSH1 0xE0 SHL DUP2 MSTORE PUSH1 0x1 PUSH1 0x1 PUSH1 0xA0 SHL SUB SWAP1 SWAP2 AND SWAP1 PUSH4 0x83D16E13 SWAP1 PUSH2 0x171F SWAP1 DUP12 SWAP1 DUP12 SWAP1 PUSH1 0x4 ADD PUSH2 0x1EDB JUMP JUMPDEST PUSH1 0x20 PUSH1 0x40 MLOAD DUP1 DUP4 SUB DUP2 DUP7 GAS STATICCALL ISZERO DUP1 ISZERO PUSH2 0x173C JUMPI RETURNDATASIZE PUSH1 0x0 DUP1 RETURNDATACOPY RETURNDATASIZE PUSH1 0x0 REVERT JUMPDEST POP POP POP POP PUSH1 0x40 MLOAD RETURNDATASIZE PUSH1 0x1F NOT PUSH1 0x1F DUP3 ADD AND DUP3 ADD DUP1 PUSH1 0x40 MSTORE POP DUP2 ADD SWAP1 PUSH2 0x1760 SWAP2 SWAP1 PUSH2 0x1EF5 JUMP JUMPDEST PUSH1 0x0 DUP1 SLOAD PUSH1 0x40 MLOAD PUSH4 0x65329A4F PUSH1 0xE0 SHL DUP2 MSTORE SWAP3 SWAP4 POP SWAP1 SWAP2 PUSH1 0x1 PUSH1 0x1 PUSH1 0xA0 SHL SUB SWAP1 SWAP2 AND SWAP1 PUSH4 0x65329A4F SWAP1 PUSH2 0x1798 SWAP1 DUP13 SWAP1 DUP13 SWAP1 PUSH1 0x4 ADD PUSH2 0x1EDB JUMP JUMPDEST PUSH1 0x20 PUSH1 0x40 MLOAD DUP1 DUP4 SUB DUP2 DUP7 GAS STATICCALL ISZERO DUP1 ISZERO PUSH2 0x17B5 JUMPI RETURNDATASIZE PUSH1 0x0 DUP1 RETURNDATACOPY RETURNDATASIZE PUSH1 0x0 REVERT JUMPDEST POP POP POP POP PUSH1 0x40 MLOAD RETURNDATASIZE PUSH1 0x1F NOT PUSH1 0x1F DUP3 ADD AND DUP3 ADD DUP1 PUSH1 0x40 MSTORE POP DUP2 ADD SWAP1 PUSH2 0x17D9 SWAP2 SWAP1 PUSH2 0x1EF5 JUMP JUMPDEST PUSH1 0x40 MLOAD PUSH4 0x21421707 PUSH1 0xE1 SHL DUP2 MSTORE SWAP1 SWAP2 POP PUSH1 0x1 PUSH1 0x1 PUSH1 0xA0 SHL SUB DUP3 AND SWAP1 PUSH4 0x42842E0E SWAP1 PUSH2 0x180C SWAP1 CALLER SWAP1 DUP7 SWAP1 DUP13 SWAP1 PUSH1 0x4 ADD PUSH2 0x208F JUMP JUMPDEST PUSH1 0x0 PUSH1 0x40 MLOAD DUP1 DUP4 SUB DUP2 PUSH1 0x0 DUP8 DUP1 EXTCODESIZE ISZERO DUP1 ISZERO PUSH2 0x1826 JUMPI PUSH1 0x0 DUP1 REVERT JUMPDEST POP GAS CALL ISZERO DUP1 ISZERO PUSH2 0x183A JUMPI RETURNDATASIZE PUSH1 0x0 DUP1 RETURNDATACOPY RETURNDATASIZE PUSH1 0x0 REVERT JUMPDEST POP POP PUSH1 0x40 MLOAD PUSH4 0x3F34D4CF PUSH1 0xE2 SHL DUP2 MSTORE PUSH1 0x1 PUSH1 0x1 PUSH1 0xA0 SHL SUB DUP6 AND SWAP3 POP PUSH4 0xFCD3533C SWAP2 POP PUSH2 0x186C SWAP1 DUP11 SWAP1 CALLER SWAP1 PUSH1 0x4 ADD PUSH2 0x20B3 JUMP JUMPDEST PUSH1 0x40 DUP1 MLOAD DUP1 DUP4 SUB DUP2 PUSH1 0x0 DUP8 GAS CALL ISZERO DUP1 ISZERO PUSH2 0x188A JUMPI RETURNDATASIZE PUSH1 0x0 DUP1 RETURNDATACOPY RETURNDATASIZE PUSH1 0x0 REVERT JUMPDEST POP POP POP POP PUSH1 0x40 MLOAD RETURNDATASIZE PUSH1 0x1F NOT PUSH1 0x1F DUP3 ADD AND DUP3 ADD DUP1 PUSH1 0x40 MSTORE POP DUP2 ADD SWAP1 PUSH2 0x18AE SWAP2 SWAP1 PUSH2 0x203A JUMP JUMPDEST PUSH1 0x1 SLOAD PUSH1 0x40 MLOAD PUSH4 0x2E1A7D4D PUSH1 0xE0 SHL DUP2 MSTORE PUSH1 0x4 DUP2 ADD DUP4 SWAP1 MSTORE SWAP3 SWAP8 POP SWAP1 SWAP6 POP PUSH1 0x1 PUSH1 0x1 PUSH1 0xA0 SHL SUB AND SWAP1 PUSH4 0x2E1A7D4D SWAP1 PUSH1 0x24 ADD PUSH1 0x0 PUSH1 0x40 MLOAD DUP1 DUP4 SUB DUP2 PUSH1 0x0 DUP8 DUP1 EXTCODESIZE ISZERO DUP1 ISZERO PUSH2 0x18F8 JUMPI PUSH1 0x0 DUP1 REVERT JUMPDEST POP GAS CALL ISZERO DUP1 ISZERO PUSH2 0x190C JUMPI RETURNDATASIZE PUSH1 0x0 DUP1 RETURNDATACOPY RETURNDATASIZE PUSH1 0x0 REVERT JUMPDEST POP POP POP POP PUSH2 0x835 CALLER DUP6 PUSH2 0x19C7 JUMP JUMPDEST DUP1 ISZERO PUSH2 0x19C2 JUMPI PUSH1 0x0 PUSH4 0xA9059CBB PUSH1 0xE0 SHL DUP4 DUP4 PUSH1 0x40 MLOAD PUSH1 0x24 ADD PUSH2 0x193D SWAP3 SWAP2 SWAP1 PUSH2 0x1F2F JUMP JUMPDEST PUSH1 0x40 DUP1 MLOAD PUSH1 0x1F NOT DUP2 DUP5 SUB ADD DUP2 MSTORE SWAP2 SWAP1 MSTORE PUSH1 0x20 DUP2 ADD DUP1 MLOAD PUSH1 0x1 PUSH1 0x1 PUSH1 0xE0 SHL SUB AND PUSH1 0x1 PUSH1 0x1 PUSH1 0xE0 SHL SUB NOT SWAP1 SWAP4 AND SWAP3 SWAP1 SWAP3 OR SWAP1 SWAP2 MSTORE SWAP1 POP PUSH1 0x0 PUSH2 0x197D DUP6 DUP4 PUSH2 0x1BBB JUMP JUMPDEST SWAP1 POP PUSH1 0x0 DUP2 MLOAD GT DUP1 ISZERO PUSH2 0x19A1 JUMPI POP DUP1 DUP1 PUSH1 0x20 ADD SWAP1 MLOAD DUP2 ADD SWAP1 PUSH2 0x199F SWAP2 SWAP1 PUSH2 0x2342 JUMP JUMPDEST ISZERO JUMPDEST ISZERO PUSH2 0x19BF JUMPI PUSH1 0x40 MLOAD PUSH4 0x197138BD PUSH1 0xE1 SHL DUP2 MSTORE PUSH1 0x4 ADD PUSH1 0x40 MLOAD DUP1 SWAP2 SUB SWAP1 REVERT JUMPDEST POP POP JUMPDEST POP POP POP JUMP JUMPDEST PUSH1 0x0 DUP3 PUSH1 0x1 PUSH1 0x1 PUSH1 0xA0 SHL SUB AND DUP3 PUSH1 0x40 MLOAD PUSH1 0x0 PUSH1 0x40 MLOAD DUP1 DUP4 SUB DUP2 DUP6 DUP8 GAS CALL SWAP3 POP POP POP RETURNDATASIZE DUP1 PUSH1 0x0 DUP2 EQ PUSH2 0x1A14 JUMPI PUSH1 0x40 MLOAD SWAP2 POP PUSH1 0x1F NOT PUSH1 0x3F RETURNDATASIZE ADD AND DUP3 ADD PUSH1 0x40 MSTORE RETURNDATASIZE DUP3 MSTORE RETURNDATASIZE PUSH1 0x0 PUSH1 0x20 DUP5 ADD RETURNDATACOPY PUSH2 0x1A19 JUMP JUMPDEST PUSH1 0x60 SWAP2 POP JUMPDEST POP SWAP1 SWAP2 POP POP PUSH1 0x1 DUP2 ISZERO ISZERO EQ PUSH2 0x19C2 JUMPI PUSH1 0x0 DUP1 REVERT JUMPDEST PUSH1 0x1 PUSH1 0x0 SWAP1 SLOAD SWAP1 PUSH2 0x100 EXP SWAP1 DIV PUSH1 0x1 PUSH1 0x1 PUSH1 0xA0 SHL SUB AND PUSH1 0x1 PUSH1 0x1 PUSH1 0xA0 SHL SUB AND PUSH4 0xD0E30DB0 DUP3 PUSH1 0x40 MLOAD DUP3 PUSH4 0xFFFFFFFF AND PUSH1 0xE0 SHL DUP2 MSTORE PUSH1 0x4 ADD PUSH1 0x0 PUSH1 0x40 MLOAD DUP1 DUP4 SUB DUP2 DUP6 DUP9 DUP1 EXTCODESIZE ISZERO DUP1 ISZERO PUSH2 0x1A7D JUMPI PUSH1 0x0 DUP1 REVERT JUMPDEST POP GAS CALL ISZERO DUP1 ISZERO PUSH2 0x1A91 JUMPI RETURNDATASIZE PUSH1 0x0 DUP1 RETURNDATACOPY RETURNDATASIZE PUSH1 0x0 REVERT JUMPDEST POP POP PUSH1 0x1 SLOAD PUSH1 0x40 MLOAD PUSH4 0xA9059CBB PUSH1 0xE0 SHL DUP2 MSTORE PUSH1 0x1 PUSH1 0x1 PUSH1 0xA0 SHL SUB SWAP1 SWAP2 AND SWAP4 POP PUSH4 0xA9059CBB SWAP3 POP PUSH2 0x1AC8 SWAP2 POP DUP6 SWAP1 DUP6 SWAP1 PUSH1 0x4 ADD PUSH2 0x1F2F JUMP JUMPDEST PUSH1 0x20 PUSH1 0x40 MLOAD DUP1 DUP4 SUB DUP2 PUSH1 0x0 DUP8 GAS CALL ISZERO DUP1 ISZERO PUSH2 0x1AE7 JUMPI RETURNDATASIZE PUSH1 0x0 DUP1 RETURNDATACOPY RETURNDATASIZE PUSH1 0x0 REVERT JUMPDEST POP POP POP POP PUSH1 0x40 MLOAD RETURNDATASIZE PUSH1 0x1F NOT PUSH1 0x1F DUP3 ADD AND DUP3 ADD DUP1 PUSH1 0x40 MSTORE POP DUP2 ADD SWAP1 PUSH2 0x19C2 SWAP2 SWAP1 PUSH2 0x2342 JUMP JUMPDEST DUP1 ISZERO PUSH2 0x1BB5 JUMPI PUSH1 0x0 PUSH4 0x23B872DD PUSH1 0xE0 SHL DUP5 DUP5 DUP5 PUSH1 0x40 MLOAD PUSH1 0x24 ADD PUSH2 0x1B30 SWAP4 SWAP3 SWAP2 SWAP1 PUSH2 0x208F JUMP JUMPDEST PUSH1 0x40 DUP1 MLOAD PUSH1 0x1F NOT DUP2 DUP5 SUB ADD DUP2 MSTORE SWAP2 SWAP1 MSTORE PUSH1 0x20 DUP2 ADD DUP1 MLOAD PUSH1 0x1 PUSH1 0x1 PUSH1 0xE0 SHL SUB AND PUSH1 0x1 PUSH1 0x1 PUSH1 0xE0 SHL SUB NOT SWAP1 SWAP4 AND SWAP3 SWAP1 SWAP3 OR SWAP1 SWAP2 MSTORE SWAP1 POP PUSH1 0x0 PUSH2 0x1B70 DUP7 DUP4 PUSH2 0x1BBB JUMP JUMPDEST SWAP1 POP PUSH1 0x0 DUP2 MLOAD GT DUP1 ISZERO PUSH2 0x1B94 JUMPI POP DUP1 DUP1 PUSH1 0x20 ADD SWAP1 MLOAD DUP2 ADD SWAP1 PUSH2 0x1B92 SWAP2 SWAP1 PUSH2 0x2342 JUMP JUMPDEST ISZERO JUMPDEST ISZERO PUSH2 0x1BB2 JUMPI PUSH1 0x40 MLOAD PUSH4 0x197138BD PUSH1 0xE1 SHL DUP2 MSTORE PUSH1 0x4 ADD PUSH1 0x40 MLOAD DUP1 SWAP2 SUB SWAP1 REVERT JUMPDEST POP POP JUMPDEST POP POP POP POP JUMP JUMPDEST PUSH1 0x60 PUSH1 0x0 DUP1 DUP5 PUSH1 0x1 PUSH1 0x1 PUSH1 0xA0 SHL SUB AND DUP5 PUSH1 0x40 MLOAD PUSH2 0x1BD8 SWAP2 SWAP1 PUSH2 0x2364 JUMP JUMPDEST PUSH1 0x0 PUSH1 0x40 MLOAD DUP1 DUP4 SUB DUP2 PUSH1 0x0 DUP7 GAS CALL SWAP2 POP POP RETURNDATASIZE DUP1 PUSH1 0x0 DUP2 EQ PUSH2 0x1C15 JUMPI PUSH1 0x40 MLOAD SWAP2 POP PUSH1 0x1F NOT PUSH1 0x3F RETURNDATASIZE ADD AND DUP3 ADD PUSH1 0x40 MSTORE RETURNDATASIZE DUP3 MSTORE RETURNDATASIZE PUSH1 0x0 PUSH1 0x20 DUP5 ADD RETURNDATACOPY PUSH2 0x1C1A JUMP JUMPDEST PUSH1 0x60 SWAP2 POP JUMPDEST POP SWAP2 POP SWAP2 POP DUP2 ISZERO PUSH2 0x1C5F JUMPI DUP1 MLOAD ISZERO DUP1 ISZERO PUSH2 0x1C3C JUMPI POP PUSH1 0x1 PUSH1 0x1 PUSH1 0xA0 SHL SUB DUP6 AND EXTCODESIZE ISZERO JUMPDEST ISZERO PUSH2 0x1C5A JUMPI PUSH1 0x40 MLOAD PUSH4 0x5D97DF89 PUSH1 0xE0 SHL DUP2 MSTORE PUSH1 0x4 ADD PUSH1 0x40 MLOAD DUP1 SWAP2 SUB SWAP1 REVERT JUMPDEST PUSH2 0x1C86 JUMP JUMPDEST DUP1 MLOAD PUSH2 0x1C7E JUMPI PUSH1 0x40 MLOAD PUSH4 0x24074291 PUSH1 0xE0 SHL DUP2 MSTORE PUSH1 0x4 ADD PUSH1 0x40 MLOAD DUP1 SWAP2 SUB SWAP1 REVERT JUMPDEST DUP1 MLOAD DUP2 PUSH1 0x20 ADD REVERT JUMPDEST SWAP5 SWAP4 POP POP POP POP JUMP JUMPDEST PUSH4 0x4E487B71 PUSH1 0xE0 SHL PUSH1 0x0 MSTORE PUSH1 0x1 PUSH1 0x4 MSTORE PUSH1 0x24 PUSH1 0x0 REVERT JUMPDEST PUSH1 0x1 PUSH1 0x1 PUSH1 0xA0 SHL SUB DUP2 AND DUP2 EQ PUSH2 0x1CB9 JUMPI PUSH1 0x0 DUP1 REVERT JUMPDEST POP JUMP JUMPDEST PUSH1 0x0 DUP1 DUP4 PUSH1 0x1F DUP5 ADD SLT PUSH2 0x1CCE JUMPI PUSH1 0x0 DUP1 REVERT JUMPDEST POP DUP2 CALLDATALOAD PUSH1 0x1 PUSH1 0x1 PUSH1 0x40 SHL SUB DUP2 GT ISZERO PUSH2 0x1CE5 JUMPI PUSH1 0x0 DUP1 REVERT JUMPDEST PUSH1 0x20 DUP4 ADD SWAP2 POP DUP4 PUSH1 0x20 DUP3 PUSH1 0x5 SHL DUP6 ADD ADD GT ISZERO PUSH2 0x1D00 JUMPI PUSH1 0x0 DUP1 REVERT JUMPDEST SWAP3 POP SWAP3 SWAP1 POP JUMP JUMPDEST PUSH1 0x0 DUP1 PUSH1 0x0 DUP1 PUSH1 0x0 DUP1 PUSH1 0x0 PUSH1 0xA0 DUP9 DUP11 SUB SLT ISZERO PUSH2 0x1D22 JUMPI PUSH1 0x0 DUP1 REVERT JUMPDEST DUP8 CALLDATALOAD PUSH2 0x1D2D DUP2 PUSH2 0x1CA4 JUMP JUMPDEST SWAP7 POP PUSH1 0x20 DUP9 ADD CALLDATALOAD PUSH2 0x1D3D DUP2 PUSH2 0x1CA4 JUMP JUMPDEST SWAP6 POP PUSH1 0x40 DUP9 ADD CALLDATALOAD PUSH1 0x1 PUSH1 0x1 PUSH1 0x40 SHL SUB DUP1 DUP3 GT ISZERO PUSH2 0x1D59 JUMPI PUSH1 0x0 DUP1 REVERT JUMPDEST PUSH2 0x1D65 DUP12 DUP4 DUP13 ADD PUSH2 0x1CBC JUMP JUMPDEST SWAP1 SWAP8 POP SWAP6 POP PUSH1 0x60 DUP11 ADD CALLDATALOAD SWAP2 POP DUP1 DUP3 GT ISZERO PUSH2 0x1D7E JUMPI PUSH1 0x0 DUP1 REVERT JUMPDEST POP PUSH2 0x1D8B DUP11 DUP3 DUP12 ADD PUSH2 0x1CBC JUMP JUMPDEST SWAP9 SWAP12 SWAP8 SWAP11 POP SWAP6 SWAP9 SWAP5 SWAP8 SWAP6 SWAP7 PUSH1 0x80 SWAP1 SWAP6 ADD CALLDATALOAD SWAP5 SWAP4 POP POP POP POP JUMP JUMPDEST PUSH1 0x0 DUP1 PUSH1 0x0 DUP1 PUSH1 0x80 DUP6 DUP8 SUB SLT ISZERO PUSH2 0x1DBA JUMPI PUSH1 0x0 DUP1 REVERT JUMPDEST DUP5 CALLDATALOAD PUSH2 0x1DC5 DUP2 PUSH2 0x1CA4 JUMP JUMPDEST SWAP4 POP PUSH1 0x20 DUP6 ADD CALLDATALOAD PUSH2 0x1DD5 DUP2 PUSH2 0x1CA4 JUMP JUMPDEST SWAP4 SWAP7 SWAP4 SWAP6 POP POP POP POP PUSH1 0x40 DUP3 ADD CALLDATALOAD SWAP2 PUSH1 0x60 ADD CALLDATALOAD SWAP1 JUMP JUMPDEST PUSH1 0x0 DUP1 PUSH1 0x0 DUP1 PUSH1 0x0 PUSH1 0x80 DUP7 DUP9 SUB SLT ISZERO PUSH2 0x1E02 JUMPI PUSH1 0x0 DUP1 REVERT JUMPDEST DUP6 CALLDATALOAD PUSH2 0x1E0D DUP2 PUSH2 0x1CA4 JUMP JUMPDEST SWAP5 POP PUSH1 0x20 DUP7 ADD CALLDATALOAD PUSH2 0x1E1D DUP2 PUSH2 0x1CA4 JUMP JUMPDEST SWAP4 POP PUSH1 0x40 DUP7 ADD CALLDATALOAD PUSH1 0x1 PUSH1 0x1 PUSH1 0x40 SHL SUB DUP2 GT ISZERO PUSH2 0x1E38 JUMPI PUSH1 0x0 DUP1 REVERT JUMPDEST PUSH2 0x1E44 DUP9 DUP3 DUP10 ADD PUSH2 0x1CBC JUMP JUMPDEST SWAP7 SWAP10 SWAP6 SWAP9 POP SWAP7 PUSH1 0x60 ADD CALLDATALOAD SWAP5 SWAP4 POP POP POP POP JUMP JUMPDEST PUSH1 0x0 DUP1 PUSH1 0x0 PUSH1 0x40 DUP5 DUP7 SUB SLT ISZERO PUSH2 0x1E6B JUMPI PUSH1 0x0 DUP1 REVERT JUMPDEST DUP4 CALLDATALOAD PUSH2 0x1E76 DUP2 PUSH2 0x1CA4 JUMP JUMPDEST SWAP3 POP PUSH1 0x20 DUP5 ADD CALLDATALOAD PUSH1 0x1 PUSH1 0x1 PUSH1 0x40 SHL SUB DUP2 GT ISZERO PUSH2 0x1E91 JUMPI PUSH1 0x0 DUP1 REVERT JUMPDEST PUSH2 0x1E9D DUP7 DUP3 DUP8 ADD PUSH2 0x1CBC JUMP JUMPDEST SWAP5 SWAP8 SWAP1 SWAP7 POP SWAP4 SWAP5 POP POP POP POP JUMP JUMPDEST PUSH1 0x20 DUP1 DUP3 MSTORE PUSH1 0x17 SWAP1 DUP3 ADD MSTORE PUSH23 0x135A59185CDDD85C149BDD5D195C8E8811561412549151 PUSH1 0x4A SHL PUSH1 0x40 DUP3 ADD MSTORE PUSH1 0x60 ADD SWAP1 JUMP JUMPDEST PUSH1 0x1 PUSH1 0x1 PUSH1 0xA0 SHL SUB SWAP3 DUP4 AND DUP2 MSTORE SWAP2 AND PUSH1 0x20 DUP3 ADD MSTORE PUSH1 0x40 ADD SWAP1 JUMP JUMPDEST PUSH1 0x0 PUSH1 0x20 DUP3 DUP5 SUB SLT ISZERO PUSH2 0x1F07 JUMPI PUSH1 0x0 DUP1 REVERT JUMPDEST DUP2 MLOAD PUSH2 0x1F12 DUP2 PUSH2 0x1CA4 JUMP JUMPDEST SWAP4 SWAP3 POP POP POP JUMP JUMPDEST PUSH4 0x4E487B71 PUSH1 0xE0 SHL PUSH1 0x0 MSTORE PUSH1 0x32 PUSH1 0x4 MSTORE PUSH1 0x24 PUSH1 0x0 REVERT JUMPDEST PUSH1 0x1 PUSH1 0x1 PUSH1 0xA0 SHL SUB SWAP3 SWAP1 SWAP3 AND DUP3 MSTORE PUSH1 0x20 DUP3 ADD MSTORE PUSH1 0x40 ADD SWAP1 JUMP JUMPDEST PUSH4 0x4E487B71 PUSH1 0xE0 SHL PUSH1 0x0 MSTORE PUSH1 0x11 PUSH1 0x4 MSTORE PUSH1 0x24 PUSH1 0x0 REVERT JUMPDEST PUSH1 0x0 PUSH1 0x0 NOT DUP3 EQ ISZERO PUSH2 0x1F72 JUMPI PUSH2 0x1F72 PUSH2 0x1F48 JUMP JUMPDEST POP PUSH1 0x1 ADD SWAP1 JUMP JUMPDEST PUSH3 0xFFFFFF DUP2 AND DUP2 EQ PUSH2 0x1CB9 JUMPI PUSH1 0x0 DUP1 REVERT JUMPDEST DUP2 DUP4 MSTORE PUSH1 0x0 PUSH1 0x20 DUP1 DUP6 ADD SWAP5 POP DUP3 PUSH1 0x0 JUMPDEST DUP6 DUP2 LT ISZERO PUSH2 0x1FC4 JUMPI DUP2 CALLDATALOAD PUSH2 0x1FAD DUP2 PUSH2 0x1F79 JUMP JUMPDEST PUSH3 0xFFFFFF AND DUP8 MSTORE SWAP6 DUP3 ADD SWAP6 SWAP1 DUP3 ADD SWAP1 PUSH1 0x1 ADD PUSH2 0x1F9A JUMP JUMPDEST POP SWAP5 SWAP6 SWAP5 POP POP POP POP POP JUMP JUMPDEST PUSH1 0x80 DUP2 MSTORE PUSH1 0x0 PUSH2 0x1FE3 PUSH1 0x80 DUP4 ADD DUP9 DUP11 PUSH2 0x1F8A JUMP JUMPDEST DUP3 DUP2 SUB PUSH1 0x20 DUP5 ADD MSTORE DUP6 DUP2 MSTORE PUSH1 0x1 PUSH1 0x1 PUSH1 0xFB SHL SUB DUP7 GT ISZERO PUSH2 0x2002 JUMPI PUSH1 0x0 DUP1 REVERT JUMPDEST DUP6 PUSH1 0x5 SHL DUP1 DUP9 PUSH1 0x20 DUP5 ADD CALLDATACOPY PUSH1 0x0 SWAP2 ADD PUSH1 0x20 ADD SWAP1 DUP2 MSTORE PUSH1 0x1 PUSH1 0x1 PUSH1 0xA0 SHL SUB SWAP5 SWAP1 SWAP5 AND PUSH1 0x40 DUP4 ADD MSTORE POP SWAP1 ISZERO ISZERO PUSH1 0x60 SWAP1 SWAP2 ADD MSTORE SWAP5 SWAP4 POP POP POP POP JUMP JUMPDEST PUSH1 0x0 DUP1 PUSH1 0x40 DUP4 DUP6 SUB SLT ISZERO PUSH2 0x204D JUMPI PUSH1 0x0 DUP1 REVERT JUMPDEST POP POP DUP1 MLOAD PUSH1 0x20 SWAP1 SWAP2 ADD MLOAD SWAP1 SWAP3 SWAP1 SWAP2 POP JUMP JUMPDEST PUSH1 0x20 DUP1 DUP3 MSTORE PUSH1 0x17 SWAP1 DUP3 ADD MSTORE PUSH23 0x26A4A220A9A927AAAA22A91D102BA927A723902820A4A9 PUSH1 0x49 SHL PUSH1 0x40 DUP3 ADD MSTORE PUSH1 0x60 ADD SWAP1 JUMP JUMPDEST PUSH1 0x1 PUSH1 0x1 PUSH1 0xA0 SHL SUB SWAP4 DUP5 AND DUP2 MSTORE SWAP2 SWAP1 SWAP3 AND PUSH1 0x20 DUP3 ADD MSTORE PUSH1 0x40 DUP2 ADD SWAP2 SWAP1 SWAP2 MSTORE PUSH1 0x60 ADD SWAP1 JUMP JUMPDEST SWAP2 DUP3 MSTORE PUSH1 0x1 PUSH1 0x1 PUSH1 0xA0 SHL SUB AND PUSH1 0x20 DUP3 ADD MSTORE PUSH1 0x40 ADD SWAP1 JUMP JUMPDEST PUSH1 0x0 PUSH1 0x20 DUP3 DUP5 SUB SLT ISZERO PUSH2 0x20DC JUMPI PUSH1 0x0 DUP1 REVERT JUMPDEST POP MLOAD SWAP2 SWAP1 POP JUMP JUMPDEST PUSH4 0x4E487B71 PUSH1 0xE0 SHL PUSH1 0x0 MSTORE PUSH1 0x41 PUSH1 0x4 MSTORE PUSH1 0x24 PUSH1 0x0 REVERT JUMPDEST PUSH1 0x20 DUP1 DUP3 MSTORE DUP3 MLOAD DUP3 DUP3 ADD DUP2 SWAP1 MSTORE PUSH1 0x0 SWAP2 SWAP1 DUP5 DUP3 ADD SWAP1 PUSH1 0x40 DUP6 ADD SWAP1 DUP5 JUMPDEST DUP2 DUP2 LT ISZERO PUSH2 0x2131 JUMPI DUP4 MLOAD DUP4 MSTORE SWAP3 DUP5 ADD SWAP3 SWAP2 DUP5 ADD SWAP2 PUSH1 0x1 ADD PUSH2 0x2115 JUMP JUMPDEST POP SWAP1 SWAP7 SWAP6 POP POP POP POP POP POP JUMP JUMPDEST PUSH1 0x0 PUSH1 0x20 DUP1 DUP4 DUP6 SUB SLT ISZERO PUSH2 0x2150 JUMPI PUSH1 0x0 DUP1 REVERT JUMPDEST DUP3 MLOAD PUSH1 0x1 PUSH1 0x1 PUSH1 0x40 SHL SUB DUP1 DUP3 GT ISZERO PUSH2 0x2167 JUMPI PUSH1 0x0 DUP1 REVERT JUMPDEST DUP2 DUP6 ADD SWAP2 POP DUP6 PUSH1 0x1F DUP4 ADD SLT PUSH2 0x217B JUMPI PUSH1 0x0 DUP1 REVERT JUMPDEST DUP2 MLOAD DUP2 DUP2 GT ISZERO PUSH2 0x218D JUMPI PUSH2 0x218D PUSH2 0x20E3 JUMP JUMPDEST DUP1 PUSH1 0x5 SHL PUSH1 0x40 MLOAD PUSH1 0x1F NOT PUSH1 0x3F DUP4 ADD AND DUP2 ADD DUP2 DUP2 LT DUP6 DUP3 GT OR ISZERO PUSH2 0x21B2 JUMPI PUSH2 0x21B2 PUSH2 0x20E3 JUMP JUMPDEST PUSH1 0x40 MSTORE SWAP2 DUP3 MSTORE DUP5 DUP3 ADD SWAP3 POP DUP4 DUP2 ADD DUP6 ADD SWAP2 DUP9 DUP4 GT ISZERO PUSH2 0x21D0 JUMPI PUSH1 0x0 DUP1 REVERT JUMPDEST SWAP4 DUP6 ADD SWAP4 JUMPDEST DUP3 DUP6 LT ISZERO PUSH2 0x21EE JUMPI DUP5 MLOAD DUP5 MSTORE SWAP4 DUP6 ADD SWAP4 SWAP3 DUP6 ADD SWAP3 PUSH2 0x21D5 JUMP JUMPDEST SWAP9 SWAP8 POP POP POP POP POP POP POP POP JUMP JUMPDEST PUSH1 0x0 DUP3 DUP3 LT ISZERO PUSH2 0x220C JUMPI PUSH2 0x220C PUSH2 0x1F48 JUMP JUMPDEST POP SUB SWAP1 JUMP JUMPDEST PUSH1 0x0 PUSH3 0xFFFFFF DUP1 DUP4 AND DUP2 DUP6 AND DUP1 DUP4 SUB DUP3 GT ISZERO PUSH2 0x222F JUMPI PUSH2 0x222F PUSH2 0x1F48 JUMP JUMPDEST ADD SWAP5 SWAP4 POP POP POP POP JUMP JUMPDEST PUSH1 0x0 DUP1 PUSH1 0x40 DUP4 DUP6 SUB SLT ISZERO PUSH2 0x224B JUMPI PUSH1 0x0 DUP1 REVERT JUMPDEST DUP3 MLOAD PUSH2 0x2256 DUP2 PUSH2 0x1F79 JUMP JUMPDEST PUSH1 0x20 DUP5 ADD MLOAD SWAP1 SWAP3 POP PUSH2 0x2267 DUP2 PUSH2 0x1F79 JUMP JUMPDEST DUP1 SWAP2 POP POP SWAP3 POP SWAP3 SWAP1 POP JUMP JUMPDEST PUSH1 0x0 DUP3 NOT DUP3 GT ISZERO PUSH2 0x2285 JUMPI PUSH2 0x2285 PUSH2 0x1F48 JUMP JUMPDEST POP ADD SWAP1 JUMP JUMPDEST PUSH1 0x0 DUP1 PUSH1 0x0 PUSH1 0x60 DUP5 DUP7 SUB SLT ISZERO PUSH2 0x229F JUMPI PUSH1 0x0 DUP1 REVERT JUMPDEST DUP4 MLOAD SWAP3 POP PUSH1 0x20 DUP5 ADD MLOAD SWAP2 POP PUSH1 0x40 DUP5 ADD MLOAD SWAP1 POP SWAP3 POP SWAP3 POP SWAP3 JUMP JUMPDEST PUSH1 0x0 DUP2 PUSH1 0x0 NOT DIV DUP4 GT DUP3 ISZERO ISZERO AND ISZERO PUSH2 0x22D2 JUMPI PUSH2 0x22D2 PUSH2 0x1F48 JUMP JUMPDEST POP MUL SWAP1 JUMP JUMPDEST PUSH1 0x0 DUP3 PUSH2 0x22F4 JUMPI PUSH4 0x4E487B71 PUSH1 0xE0 SHL PUSH1 0x0 MSTORE PUSH1 0x12 PUSH1 0x4 MSTORE PUSH1 0x24 PUSH1 0x0 REVERT JUMPDEST POP DIV SWAP1 JUMP JUMPDEST PUSH1 0x40 DUP2 MSTORE PUSH1 0x0 PUSH2 0x230D PUSH1 0x40 DUP4 ADD DUP6 DUP8 PUSH2 0x1F8A JUMP JUMPDEST SWAP1 POP PUSH1 0x1 DUP1 PUSH1 0xA0 SHL SUB DUP4 AND PUSH1 0x20 DUP4 ADD MSTORE SWAP5 SWAP4 POP POP POP POP JUMP JUMPDEST PUSH1 0x0 PUSH1 0x20 DUP3 DUP5 SUB SLT ISZERO PUSH2 0x2337 JUMPI PUSH1 0x0 DUP1 REVERT JUMPDEST DUP2 CALLDATALOAD PUSH2 0x1F12 DUP2 PUSH2 0x1F79 JUMP JUMPDEST PUSH1 0x0 PUSH1 0x20 DUP3 DUP5 SUB SLT ISZERO PUSH2 0x2354 JUMPI PUSH1 0x0 DUP1 REVERT JUMPDEST DUP2 MLOAD DUP1 ISZERO ISZERO DUP2 EQ PUSH2 0x1F12 JUMPI PUSH1 0x0 DUP1 REVERT JUMPDEST PUSH1 0x0 DUP3 MLOAD PUSH1 0x0 JUMPDEST DUP2 DUP2 LT ISZERO PUSH2 0x2385 JUMPI PUSH1 0x20 DUP2 DUP7 ADD DUP2 ADD MLOAD DUP6 DUP4 ADD MSTORE ADD PUSH2 0x236B JUMP JUMPDEST DUP2 DUP2 GT ISZERO PUSH2 0x2394 JUMPI PUSH1 0x0 DUP3 DUP6 ADD MSTORE JUMPDEST POP SWAP2 SWAP1 SWAP2 ADD SWAP3 SWAP2 POP POP JUMP INVALID LOG2 PUSH5 0x6970667358 0x22 SLT KECCAK256 0xED ISZERO 0xC2 STOP 0xDC 0xFC PUSH2 0x4CA PUSH8 0x25E9327BA30C3155 0x4E 0x1E 0xE SDIV CALLDATALOAD SWAP6 0x2F PUSH30 0xAC50C3BCCFDC64736F6C634300080A003300000000000000000000000000 "
				},
				"gasEstimates": {
					"creation": {
						"codeDepositCost": "1834600",
						"executionCost": "infinite",
						"totalCost": "infinite"
					},
					"external": {
						"_getAmountsToAdd(address,uint24[])": "infinite",
						"addLiquidityERC20(address,address,uint24[],uint256)": "infinite",
						"addLiquidityERC721(address,address,uint24[],uint256[],uint256)": "infinite",
						"addLiquidityETH(address,address,uint24[],uint256)": "infinite",
						"buyItems(address,address,uint256[],uint256)": "infinite",
						"buyItemsWithETH(address,address,uint256[],uint256)": "infinite",
						"factory()": "2601",
						"getMinAmountIn(address,uint256[])": "infinite",
						"openLimitOrder(address,address,uint24[],uint256[],uint256)": "infinite",
						"removeLiquidity(address,address,uint256,uint256)": "infinite",
						"removeLiquidityETH(address,address,uint256,uint256)": "infinite",
						"royaltyEngine()": "2425",
						"sellItems(address,address,uint256[],uint256)": "infinite",
						"sellItemsToETH(address,address,uint256[],uint256)": "infinite",
						"weth()": "2381"
					},
					"internal": {
						"_safeTransferETH(address,uint256)": "infinite",
						"_wethDepositAndTransfer(address,uint256)": "infinite"
					}
				},
				"methodIdentifiers": {
					"_getAmountsToAdd(address,uint24[])": "abef0340",
					"addLiquidityERC20(address,address,uint24[],uint256)": "8fb8609a",
					"addLiquidityERC721(address,address,uint24[],uint256[],uint256)": "34497dec",
					"addLiquidityETH(address,address,uint24[],uint256)": "617e1c59",
					"buyItems(address,address,uint256[],uint256)": "71c3de2a",
					"buyItemsWithETH(address,address,uint256[],uint256)": "9dd91dd7",
					"factory()": "c45a0155",
					"getMinAmountIn(address,uint256[])": "5e7cb8e0",
					"openLimitOrder(address,address,uint24[],uint256[],uint256)": "0ebd4ed5",
					"removeLiquidity(address,address,uint256,uint256)": "3ee7f9d3",
					"removeLiquidityETH(address,address,uint256,uint256)": "fedf4fa1",
					"royaltyEngine()": "4c94c90c",
					"sellItems(address,address,uint256[],uint256)": "99cc3501",
					"sellItemsToETH(address,address,uint256[],uint256)": "4c818ab8",
					"weth()": "3fc8cef3"
				}
			},
			"storageLayout": {
				"storage": [
					{
						"astId": 412,
						"contract": "Midas/Midas_main/src/MidasRouter.sol:MidasRouter",
						"label": "factory",
						"offset": 0,
						"slot": "0",
						"type": "t_contract(IMidasFactory721)1527"
					},
					{
						"astId": 415,
						"contract": "Midas/Midas_main/src/MidasRouter.sol:MidasRouter",
						"label": "weth",
						"offset": 0,
						"slot": "1",
						"type": "t_contract(IWETH)1937"
					},
					{
						"astId": 418,
						"contract": "Midas/Midas_main/src/MidasRouter.sol:MidasRouter",
						"label": "royaltyEngine",
						"offset": 0,
						"slot": "2",
						"type": "t_contract(IRoyaltyEngineV1)1922"
					}
				],
				"types": {
					"t_contract(IMidasFactory721)1527": {
						"encoding": "inplace",
						"label": "contract IMidasFactory721",
						"numberOfBytes": "20"
					},
					"t_contract(IRoyaltyEngineV1)1922": {
						"encoding": "inplace",
						"label": "contract IRoyaltyEngineV1",
						"numberOfBytes": "20"
					},
					"t_contract(IWETH)1937": {
						"encoding": "inplace",
						"label": "contract IWETH",
						"numberOfBytes": "20"
					}
				}
			},
			"userdoc": {
				"errors": {
					"TokenHelper__NonContract()": [
						{
							"notice": "TokenHelper errors "
						}
					]
				},
				"kind": "user",
				"methods": {},
				"notice": "Router for trades and liquidity managements against the Midaswap",
				"version": 1
			}
		}
	}
}