{
	"Midas/Midas_main/src/LPToken.sol": {
		"LPToken": {
			"abi": [
				{
					"inputs": [
						{
							"internalType": "string",
							"name": "name_",
							"type": "string"
						},
						{
							"internalType": "string",
							"name": "symbol_",
							"type": "string"
						},
						{
							"internalType": "address",
							"name": "factory_",
							"type": "address"
						}
					],
					"stateMutability": "nonpayable",
					"type": "constructor"
				},
				{
					"anonymous": false,
					"inputs": [
						{
							"indexed": true,
							"internalType": "address",
							"name": "owner",
							"type": "address"
						},
						{
							"indexed": true,
							"internalType": "address",
							"name": "approved",
							"type": "address"
						},
						{
							"indexed": true,
							"internalType": "uint256",
							"name": "tokenId",
							"type": "uint256"
						}
					],
					"name": "Approval",
					"type": "event"
				},
				{
					"anonymous": false,
					"inputs": [
						{
							"indexed": true,
							"internalType": "address",
							"name": "owner",
							"type": "address"
						},
						{
							"indexed": true,
							"internalType": "address",
							"name": "operator",
							"type": "address"
						},
						{
							"indexed": false,
							"internalType": "bool",
							"name": "approved",
							"type": "bool"
						}
					],
					"name": "ApprovalForAll",
					"type": "event"
				},
				{
					"anonymous": false,
					"inputs": [
						{
							"indexed": true,
							"internalType": "address",
							"name": "from",
							"type": "address"
						},
						{
							"indexed": true,
							"internalType": "address",
							"name": "to",
							"type": "address"
						},
						{
							"indexed": true,
							"internalType": "uint256",
							"name": "tokenId",
							"type": "uint256"
						}
					],
					"name": "Transfer",
					"type": "event"
				},
				{
					"inputs": [
						{
							"internalType": "address",
							"name": "to",
							"type": "address"
						},
						{
							"internalType": "uint256",
							"name": "tokenId",
							"type": "uint256"
						}
					],
					"name": "approve",
					"outputs": [],
					"stateMutability": "nonpayable",
					"type": "function"
				},
				{
					"inputs": [
						{
							"internalType": "address",
							"name": "owner",
							"type": "address"
						}
					],
					"name": "balanceOf",
					"outputs": [
						{
							"internalType": "uint256",
							"name": "",
							"type": "uint256"
						}
					],
					"stateMutability": "view",
					"type": "function"
				},
				{
					"inputs": [
						{
							"internalType": "uint256",
							"name": "tokenId",
							"type": "uint256"
						}
					],
					"name": "burn",
					"outputs": [],
					"stateMutability": "nonpayable",
					"type": "function"
				},
				{
					"inputs": [
						{
							"internalType": "uint256",
							"name": "tokenId",
							"type": "uint256"
						}
					],
					"name": "getApproved",
					"outputs": [
						{
							"internalType": "address",
							"name": "",
							"type": "address"
						}
					],
					"stateMutability": "view",
					"type": "function"
				},
				{
					"inputs": [
						{
							"internalType": "address",
							"name": "pair",
							"type": "address"
						}
					],
					"name": "initialize",
					"outputs": [],
					"stateMutability": "nonpayable",
					"type": "function"
				},
				{
					"inputs": [
						{
							"internalType": "address",
							"name": "owner",
							"type": "address"
						},
						{
							"internalType": "address",
							"name": "operator",
							"type": "address"
						}
					],
					"name": "isApprovedForAll",
					"outputs": [
						{
							"internalType": "bool",
							"name": "",
							"type": "bool"
						}
					],
					"stateMutability": "view",
					"type": "function"
				},
				{
					"inputs": [
						{
							"internalType": "address",
							"name": "to",
							"type": "address"
						},
						{
							"internalType": "uint256",
							"name": "tokenId",
							"type": "uint256"
						}
					],
					"name": "mint",
					"outputs": [],
					"stateMutability": "nonpayable",
					"type": "function"
				},
				{
					"inputs": [],
					"name": "name",
					"outputs": [
						{
							"internalType": "string",
							"name": "",
							"type": "string"
						}
					],
					"stateMutability": "view",
					"type": "function"
				},
				{
					"inputs": [
						{
							"internalType": "uint256",
							"name": "tokenId",
							"type": "uint256"
						}
					],
					"name": "ownerOf",
					"outputs": [
						{
							"internalType": "address",
							"name": "",
							"type": "address"
						}
					],
					"stateMutability": "view",
					"type": "function"
				},
				{
					"inputs": [
						{
							"internalType": "address",
							"name": "from",
							"type": "address"
						},
						{
							"internalType": "address",
							"name": "to",
							"type": "address"
						},
						{
							"internalType": "uint256",
							"name": "tokenId",
							"type": "uint256"
						}
					],
					"name": "safeTransferFrom",
					"outputs": [],
					"stateMutability": "nonpayable",
					"type": "function"
				},
				{
					"inputs": [
						{
							"internalType": "address",
							"name": "from",
							"type": "address"
						},
						{
							"internalType": "address",
							"name": "to",
							"type": "address"
						},
						{
							"internalType": "uint256",
							"name": "tokenId",
							"type": "uint256"
						},
						{
							"internalType": "bytes",
							"name": "data",
							"type": "bytes"
						}
					],
					"name": "safeTransferFrom",
					"outputs": [],
					"stateMutability": "nonpayable",
					"type": "function"
				},
				{
					"inputs": [
						{
							"internalType": "address",
							"name": "operator",
							"type": "address"
						},
						{
							"internalType": "bool",
							"name": "approved",
							"type": "bool"
						}
					],
					"name": "setApprovalForAll",
					"outputs": [],
					"stateMutability": "nonpayable",
					"type": "function"
				},
				{
					"inputs": [
						{
							"internalType": "bytes4",
							"name": "interfaceId",
							"type": "bytes4"
						}
					],
					"name": "supportsInterface",
					"outputs": [
						{
							"internalType": "bool",
							"name": "",
							"type": "bool"
						}
					],
					"stateMutability": "view",
					"type": "function"
				},
				{
					"inputs": [],
					"name": "symbol",
					"outputs": [
						{
							"internalType": "string",
							"name": "",
							"type": "string"
						}
					],
					"stateMutability": "view",
					"type": "function"
				},
				{
					"inputs": [
						{
							"internalType": "uint256",
							"name": "tokenId",
							"type": "uint256"
						}
					],
					"name": "tokenURI",
					"outputs": [
						{
							"internalType": "string",
							"name": "",
							"type": "string"
						}
					],
					"stateMutability": "view",
					"type": "function"
				},
				{
					"inputs": [
						{
							"internalType": "address",
							"name": "from",
							"type": "address"
						},
						{
							"internalType": "address",
							"name": "to",
							"type": "address"
						},
						{
							"internalType": "uint256",
							"name": "tokenId",
							"type": "uint256"
						}
					],
					"name": "transferFrom",
					"outputs": [],
					"stateMutability": "nonpayable",
					"type": "function"
				}
			],
			"devdoc": {
				"author": "midaswap",
				"kind": "dev",
				"methods": {
					"approve(address,uint256)": {
						"details": "See {IERC721-approve}."
					},
					"balanceOf(address)": {
						"details": "See {IERC721-balanceOf}."
					},
					"constructor": {
						"details": "Initializes the contract by setting a `name` and a `symbol` to the token collection."
					},
					"getApproved(uint256)": {
						"details": "See {IERC721-getApproved}."
					},
					"isApprovedForAll(address,address)": {
						"details": "See {IERC721-isApprovedForAll}."
					},
					"name()": {
						"details": "See {IERC721Metadata-name}."
					},
					"ownerOf(uint256)": {
						"details": "See {IERC721-ownerOf}."
					},
					"safeTransferFrom(address,address,uint256)": {
						"details": "See {IERC721-safeTransferFrom}."
					},
					"safeTransferFrom(address,address,uint256,bytes)": {
						"details": "See {IERC721-safeTransferFrom}."
					},
					"setApprovalForAll(address,bool)": {
						"details": "See {IERC721-setApprovalForAll}."
					},
					"supportsInterface(bytes4)": {
						"details": "See {IERC165-supportsInterface}."
					},
					"symbol()": {
						"details": "See {IERC721Metadata-symbol}."
					},
					"tokenURI(uint256)": {
						"details": "See {IERC721Metadata-tokenURI}."
					},
					"transferFrom(address,address,uint256)": {
						"details": "See {IERC721-transferFrom}."
					}
				},
				"title": "Midas ERC721 LP Token",
				"version": 1
			},
			"evm": {
				"assembly": "    /* \"Midas/Midas_main/src/LPToken.sol\":745:17565  contract LPToken is Context, ERC165, IERC721, IERC721Metadata {... */\n  mstore(0x40, 0x80)\n    /* \"Midas/Midas_main/src/LPToken.sol\":1610:1770  constructor(string memory name_, string memory symbol_, address factory_) {... */\n  callvalue\n  dup1\n  iszero\n  tag_1\n  jumpi\n  0x00\n  dup1\n  revert\ntag_1:\n  pop\n  mload(0x40)\n  sub(codesize, bytecodeSize)\n  dup1\n  bytecodeSize\n  dup4\n  codecopy\n  dup2\n  add\n  0x40\n  dup2\n  swap1\n  mstore\n  tag_2\n  swap2\n  tag_3\n  jump\t// in\ntag_2:\n    /* \"Midas/Midas_main/src/LPToken.sol\":1694:1707  _name = name_ */\n  dup3\n  mload\n  tag_6\n  swap1\n    /* \"Midas/Midas_main/src/LPToken.sol\":1694:1699  _name */\n  0x00\n  swap1\n    /* \"Midas/Midas_main/src/LPToken.sol\":1694:1707  _name = name_ */\n  0x20\n  dup7\n  add\n  swap1\n  tag_7\n  jump\t// in\ntag_6:\n  pop\n    /* \"Midas/Midas_main/src/LPToken.sol\":1717:1734  _symbol = symbol_ */\n  dup2\n  mload\n  tag_8\n  swap1\n    /* \"Midas/Midas_main/src/LPToken.sol\":1717:1724  _symbol */\n  0x01\n  swap1\n    /* \"Midas/Midas_main/src/LPToken.sol\":1717:1734  _symbol = symbol_ */\n  0x20\n  dup6\n  add\n  swap1\n  tag_7\n  jump\t// in\ntag_8:\n  pop\n    /* \"Midas/Midas_main/src/LPToken.sol\":1744:1752  _factory */\n  0x03\n    /* \"Midas/Midas_main/src/LPToken.sol\":1744:1763  _factory = factory_ */\n  dup1\n  sload\n  not(sub(shl(0xa0, 0x01), 0x01))\n  and\n  sub(shl(0xa0, 0x01), 0x01)\n  swap3\n  swap1\n  swap3\n  and\n  swap2\n  swap1\n  swap2\n  or\n  swap1\n  sstore\n  pop\n    /* \"Midas/Midas_main/src/LPToken.sol\":745:17565  contract LPToken is Context, ERC165, IERC721, IERC721Metadata {... */\n  tag_23\n  swap1\n  pop\n  jump\ntag_7:\n  dup3\n  dup1\n  sload\n  tag_10\n  swap1\n  tag_11\n  jump\t// in\ntag_10:\n  swap1\n  0x00\n  mstore\n  keccak256(0x00, 0x20)\n  swap1\n  0x1f\n  add\n  0x20\n  swap1\n  div\n  dup2\n  add\n  swap3\n  dup3\n  tag_13\n  jumpi\n  0x00\n  dup6\n  sstore\n  jump(tag_16)\ntag_13:\n  dup3\n  0x1f\n  lt\n  tag_14\n  jumpi\n  dup1\n  mload\n  not(0xff)\n  and\n  dup4\n  dup1\n  add\n  or\n  dup6\n  sstore\n  jump(tag_16)\ntag_14:\n  dup3\n  dup1\n  add\n  0x01\n  add\n  dup6\n  sstore\n  dup3\n  iszero\n  tag_16\n  jumpi\n  swap2\n  dup3\n  add\ntag_15:\n  dup3\n  dup2\n  gt\n  iszero\n  tag_16\n  jumpi\n  dup3\n  mload\n  dup3\n  sstore\n  swap2\n  0x20\n  add\n  swap2\n  swap1\n  0x01\n  add\n  swap1\n  jump(tag_15)\ntag_16:\n  pop\n  tag_17\n  swap3\n  swap2\n  pop\n  tag_18\n  jump\t// in\ntag_17:\n  pop\n  swap1\n  jump\t// out\ntag_18:\ntag_19:\n  dup1\n  dup3\n  gt\n  iszero\n  tag_17\n  jumpi\n  0x00\n  dup2\n  sstore\n  0x01\n  add\n  jump(tag_19)\n    /* \"#utility.yul\":14:141   */\ntag_21:\n    /* \"#utility.yul\":75:85   */\n  0x4e487b71\n    /* \"#utility.yul\":70:73   */\n  0xe0\n    /* \"#utility.yul\":66:86   */\n  shl\n    /* \"#utility.yul\":63:64   */\n  0x00\n    /* \"#utility.yul\":56:87   */\n  mstore\n    /* \"#utility.yul\":106:110   */\n  0x41\n    /* \"#utility.yul\":103:104   */\n  0x04\n    /* \"#utility.yul\":96:111   */\n  mstore\n    /* \"#utility.yul\":130:134   */\n  0x24\n    /* \"#utility.yul\":127:128   */\n  0x00\n    /* \"#utility.yul\":120:135   */\n  revert\n    /* \"#utility.yul\":146:1031   */\ntag_22:\n    /* \"#utility.yul\":200:205   */\n  0x00\n    /* \"#utility.yul\":253:256   */\n  dup3\n    /* \"#utility.yul\":246:250   */\n  0x1f\n    /* \"#utility.yul\":238:244   */\n  dup4\n    /* \"#utility.yul\":234:251   */\n  add\n    /* \"#utility.yul\":230:257   */\n  slt\n    /* \"#utility.yul\":220:275   */\n  tag_26\n  jumpi\n    /* \"#utility.yul\":271:272   */\n  0x00\n    /* \"#utility.yul\":268:269   */\n  dup1\n    /* \"#utility.yul\":261:273   */\n  revert\n    /* \"#utility.yul\":220:275   */\ntag_26:\n    /* \"#utility.yul\":294:307   */\n  dup2\n  mload\n  sub(shl(0x40, 0x01), 0x01)\n    /* \"#utility.yul\":356:366   */\n  dup1\n  dup3\n  gt\n    /* \"#utility.yul\":353:389   */\n  iszero\n  tag_28\n  jumpi\n    /* \"#utility.yul\":369:387   */\n  tag_28\n  tag_21\n  jump\t// in\ntag_28:\n    /* \"#utility.yul\":444:446   */\n  0x40\n    /* \"#utility.yul\":438:447   */\n  mload\n    /* \"#utility.yul\":412:414   */\n  0x1f\n    /* \"#utility.yul\":498:511   */\n  dup4\n  add\n  not(0x1f)\n    /* \"#utility.yul\":494:516   */\n  swap1\n  dup2\n  and\n    /* \"#utility.yul\":518:520   */\n  0x3f\n    /* \"#utility.yul\":490:521   */\n  add\n    /* \"#utility.yul\":486:526   */\n  and\n    /* \"#utility.yul\":474:527   */\n  dup2\n  add\n  swap1\n    /* \"#utility.yul\":542:560   */\n  dup3\n  dup3\n  gt\n    /* \"#utility.yul\":562:584   */\n  dup2\n  dup4\n  lt\n    /* \"#utility.yul\":539:585   */\n  or\n    /* \"#utility.yul\":536:608   */\n  iszero\n  tag_30\n  jumpi\n    /* \"#utility.yul\":588:606   */\n  tag_30\n  tag_21\n  jump\t// in\ntag_30:\n    /* \"#utility.yul\":628:638   */\n  dup2\n    /* \"#utility.yul\":624:626   */\n  0x40\n    /* \"#utility.yul\":617:639   */\n  mstore\n    /* \"#utility.yul\":663:665   */\n  dup4\n    /* \"#utility.yul\":655:661   */\n  dup2\n    /* \"#utility.yul\":648:666   */\n  mstore\n    /* \"#utility.yul\":685:689   */\n  0x20\n    /* \"#utility.yul\":675:689   */\n  swap3\n  pop\n    /* \"#utility.yul\":730:733   */\n  dup7\n    /* \"#utility.yul\":725:727   */\n  dup4\n    /* \"#utility.yul\":720:722   */\n  dup6\n    /* \"#utility.yul\":712:718   */\n  dup9\n    /* \"#utility.yul\":708:723   */\n  add\n    /* \"#utility.yul\":704:728   */\n  add\n    /* \"#utility.yul\":701:734   */\n  gt\n    /* \"#utility.yul\":698:751   */\n  iszero\n  tag_31\n  jumpi\n    /* \"#utility.yul\":747:748   */\n  0x00\n    /* \"#utility.yul\":744:745   */\n  dup1\n    /* \"#utility.yul\":737:749   */\n  revert\n    /* \"#utility.yul\":698:751   */\ntag_31:\n    /* \"#utility.yul\":769:770   */\n  0x00\n    /* \"#utility.yul\":760:770   */\n  swap2\n  pop\n    /* \"#utility.yul\":779:912   */\ntag_32:\n    /* \"#utility.yul\":793:795   */\n  dup4\n    /* \"#utility.yul\":790:791   */\n  dup3\n    /* \"#utility.yul\":787:796   */\n  lt\n    /* \"#utility.yul\":779:912   */\n  iszero\n  tag_34\n  jumpi\n    /* \"#utility.yul\":881:895   */\n  dup6\n  dup3\n  add\n    /* \"#utility.yul\":877:900   */\n  dup4\n  add\n    /* \"#utility.yul\":871:901   */\n  mload\n    /* \"#utility.yul\":850:864   */\n  dup2\n  dup4\n  add\n    /* \"#utility.yul\":846:869   */\n  dup5\n  add\n    /* \"#utility.yul\":839:902   */\n  mstore\n    /* \"#utility.yul\":804:814   */\n  swap1\n  dup3\n  add\n  swap1\n    /* \"#utility.yul\":779:912   */\n  jump(tag_32)\ntag_34:\n    /* \"#utility.yul\":930:932   */\n  dup4\n    /* \"#utility.yul\":927:928   */\n  dup3\n    /* \"#utility.yul\":924:933   */\n  gt\n    /* \"#utility.yul\":921:1001   */\n  iszero\n  tag_35\n  jumpi\n    /* \"#utility.yul\":989:990   */\n  0x00\n    /* \"#utility.yul\":984:986   */\n  dup4\n    /* \"#utility.yul\":979:981   */\n  dup6\n    /* \"#utility.yul\":971:977   */\n  dup4\n    /* \"#utility.yul\":967:982   */\n  add\n    /* \"#utility.yul\":963:987   */\n  add\n    /* \"#utility.yul\":956:991   */\n  mstore\n    /* \"#utility.yul\":921:1001   */\ntag_35:\n    /* \"#utility.yul\":1019:1025   */\n  swap7\n    /* \"#utility.yul\":146:1031   */\n  swap6\n  pop\n  pop\n  pop\n  pop\n  pop\n  pop\n  jump\t// out\n    /* \"#utility.yul\":1036:1765   */\ntag_3:\n    /* \"#utility.yul\":1144:1150   */\n  0x00\n    /* \"#utility.yul\":1152:1158   */\n  dup1\n    /* \"#utility.yul\":1160:1166   */\n  0x00\n    /* \"#utility.yul\":1213:1215   */\n  0x60\n    /* \"#utility.yul\":1201:1210   */\n  dup5\n    /* \"#utility.yul\":1192:1199   */\n  dup7\n    /* \"#utility.yul\":1188:1211   */\n  sub\n    /* \"#utility.yul\":1184:1216   */\n  slt\n    /* \"#utility.yul\":1181:1233   */\n  iszero\n  tag_37\n  jumpi\n    /* \"#utility.yul\":1229:1230   */\n  0x00\n    /* \"#utility.yul\":1226:1227   */\n  dup1\n    /* \"#utility.yul\":1219:1231   */\n  revert\n    /* \"#utility.yul\":1181:1233   */\ntag_37:\n    /* \"#utility.yul\":1256:1272   */\n  dup4\n  mload\n  sub(shl(0x40, 0x01), 0x01)\n    /* \"#utility.yul\":1321:1335   */\n  dup1\n  dup3\n  gt\n    /* \"#utility.yul\":1318:1352   */\n  iszero\n  tag_38\n  jumpi\n    /* \"#utility.yul\":1348:1349   */\n  0x00\n    /* \"#utility.yul\":1345:1346   */\n  dup1\n    /* \"#utility.yul\":1338:1350   */\n  revert\n    /* \"#utility.yul\":1318:1352   */\ntag_38:\n    /* \"#utility.yul\":1371:1432   */\n  tag_39\n    /* \"#utility.yul\":1424:1431   */\n  dup8\n    /* \"#utility.yul\":1415:1421   */\n  dup4\n    /* \"#utility.yul\":1404:1413   */\n  dup9\n    /* \"#utility.yul\":1400:1422   */\n  add\n    /* \"#utility.yul\":1371:1432   */\n  tag_22\n  jump\t// in\ntag_39:\n    /* \"#utility.yul\":1361:1432   */\n  swap5\n  pop\n    /* \"#utility.yul\":1478:1480   */\n  0x20\n    /* \"#utility.yul\":1467:1476   */\n  dup7\n    /* \"#utility.yul\":1463:1481   */\n  add\n    /* \"#utility.yul\":1457:1482   */\n  mload\n    /* \"#utility.yul\":1441:1482   */\n  swap2\n  pop\n    /* \"#utility.yul\":1507:1509   */\n  dup1\n    /* \"#utility.yul\":1497:1505   */\n  dup3\n    /* \"#utility.yul\":1494:1510   */\n  gt\n    /* \"#utility.yul\":1491:1527   */\n  iszero\n  tag_40\n  jumpi\n    /* \"#utility.yul\":1523:1524   */\n  0x00\n    /* \"#utility.yul\":1520:1521   */\n  dup1\n    /* \"#utility.yul\":1513:1525   */\n  revert\n    /* \"#utility.yul\":1491:1527   */\ntag_40:\n  pop\n    /* \"#utility.yul\":1546:1609   */\n  tag_41\n    /* \"#utility.yul\":1601:1608   */\n  dup7\n    /* \"#utility.yul\":1590:1598   */\n  dup3\n    /* \"#utility.yul\":1579:1588   */\n  dup8\n    /* \"#utility.yul\":1575:1599   */\n  add\n    /* \"#utility.yul\":1546:1609   */\n  tag_22\n  jump\t// in\ntag_41:\n    /* \"#utility.yul\":1652:1654   */\n  0x40\n    /* \"#utility.yul\":1637:1655   */\n  dup7\n  add\n    /* \"#utility.yul\":1631:1656   */\n  mload\n    /* \"#utility.yul\":1536:1609   */\n  swap1\n  swap4\n  pop\n    /* \"#utility.yul\":1631:1656   */\n  swap1\n  pop\n  sub(shl(0xa0, 0x01), 0x01)\n    /* \"#utility.yul\":1685:1716   */\n  dup2\n  and\n    /* \"#utility.yul\":1675:1717   */\n  dup2\n  eq\n    /* \"#utility.yul\":1665:1735   */\n  tag_42\n  jumpi\n    /* \"#utility.yul\":1731:1732   */\n  0x00\n    /* \"#utility.yul\":1728:1729   */\n  dup1\n    /* \"#utility.yul\":1721:1733   */\n  revert\n    /* \"#utility.yul\":1665:1735   */\ntag_42:\n    /* \"#utility.yul\":1754:1759   */\n  dup1\n    /* \"#utility.yul\":1744:1759   */\n  swap2\n  pop\n  pop\n    /* \"#utility.yul\":1036:1765   */\n  swap3\n  pop\n  swap3\n  pop\n  swap3\n  jump\t// out\n    /* \"#utility.yul\":1770:2150   */\ntag_11:\n    /* \"#utility.yul\":1849:1850   */\n  0x01\n    /* \"#utility.yul\":1845:1857   */\n  dup2\n  dup2\n  shr\n  swap1\n    /* \"#utility.yul\":1892:1904   */\n  dup3\n  and\n  dup1\n    /* \"#utility.yul\":1913:1974   */\n  tag_44\n  jumpi\n    /* \"#utility.yul\":1967:1971   */\n  0x7f\n    /* \"#utility.yul\":1959:1965   */\n  dup3\n    /* \"#utility.yul\":1955:1972   */\n  and\n    /* \"#utility.yul\":1945:1972   */\n  swap2\n  pop\n    /* \"#utility.yul\":1913:1974   */\ntag_44:\n    /* \"#utility.yul\":2020:2022   */\n  0x20\n    /* \"#utility.yul\":2012:2018   */\n  dup3\n    /* \"#utility.yul\":2009:2023   */\n  lt\n    /* \"#utility.yul\":1989:2007   */\n  dup2\n    /* \"#utility.yul\":1986:2024   */\n  eq\n    /* \"#utility.yul\":1983:2144   */\n  iszero\n  tag_45\n  jumpi\n    /* \"#utility.yul\":2066:2076   */\n  0x4e487b71\n    /* \"#utility.yul\":2061:2064   */\n  0xe0\n    /* \"#utility.yul\":2057:2077   */\n  shl\n    /* \"#utility.yul\":2054:2055   */\n  0x00\n    /* \"#utility.yul\":2047:2078   */\n  mstore\n    /* \"#utility.yul\":2101:2105   */\n  0x22\n    /* \"#utility.yul\":2098:2099   */\n  0x04\n    /* \"#utility.yul\":2091:2106   */\n  mstore\n    /* \"#utility.yul\":2129:2133   */\n  0x24\n    /* \"#utility.yul\":2126:2127   */\n  0x00\n    /* \"#utility.yul\":2119:2134   */\n  revert\n    /* \"#utility.yul\":1983:2144   */\ntag_45:\n  pop\n    /* \"#utility.yul\":1770:2150   */\n  swap2\n  swap1\n  pop\n  jump\t// out\ntag_23:\n    /* \"Midas/Midas_main/src/LPToken.sol\":745:17565  contract LPToken is Context, ERC165, IERC721, IERC721Metadata {... */\n  dataSize(sub_0)\n  dup1\n  dataOffset(sub_0)\n  0x00\n  codecopy\n  0x00\n  return\nstop\n\nsub_0: assembly {\n        /* \"Midas/Midas_main/src/LPToken.sol\":745:17565  contract LPToken is Context, ERC165, IERC721, IERC721Metadata {... */\n      mstore(0x40, 0x80)\n      callvalue\n      dup1\n      iszero\n      tag_1\n      jumpi\n      0x00\n      dup1\n      revert\n    tag_1:\n      pop\n      jumpi(tag_2, lt(calldatasize, 0x04))\n      shr(0xe0, calldataload(0x00))\n      dup1\n      0x01ffc9a7\n      eq\n      tag_3\n      jumpi\n      dup1\n      0x06fdde03\n      eq\n      tag_4\n      jumpi\n      dup1\n      0x081812fc\n      eq\n      tag_5\n      jumpi\n      dup1\n      0x095ea7b3\n      eq\n      tag_6\n      jumpi\n      dup1\n      0x23b872dd\n      eq\n      tag_7\n      jumpi\n      dup1\n      0x40c10f19\n      eq\n      tag_8\n      jumpi\n      dup1\n      0x42842e0e\n      eq\n      tag_9\n      jumpi\n      dup1\n      0x42966c68\n      eq\n      tag_10\n      jumpi\n      dup1\n      0x6352211e\n      eq\n      tag_11\n      jumpi\n      dup1\n      0x70a08231\n      eq\n      tag_12\n      jumpi\n      dup1\n      0x95d89b41\n      eq\n      tag_13\n      jumpi\n      dup1\n      0xa22cb465\n      eq\n      tag_14\n      jumpi\n      dup1\n      0xb88d4fde\n      eq\n      tag_15\n      jumpi\n      dup1\n      0xc4d66de8\n      eq\n      tag_16\n      jumpi\n      dup1\n      0xc87b56dd\n      eq\n      tag_17\n      jumpi\n      dup1\n      0xe985e9c5\n      eq\n      tag_18\n      jumpi\n    tag_2:\n      0x00\n      dup1\n      revert\n        /* \"Midas/Midas_main/src/LPToken.sol\":2421:2721  function supportsInterface(bytes4 interfaceId) public view virtual override(ERC165, IERC165) returns (bool) {... */\n    tag_3:\n      tag_19\n      tag_20\n      calldatasize\n      0x04\n      tag_21\n      jump\t// in\n    tag_20:\n      tag_22\n      jump\t// in\n    tag_19:\n      mload(0x40)\n        /* \"#utility.yul\":565:579   */\n      swap1\n      iszero\n        /* \"#utility.yul\":558:580   */\n      iszero\n        /* \"#utility.yul\":540:581   */\n      dup2\n      mstore\n        /* \"#utility.yul\":528:530   */\n      0x20\n        /* \"#utility.yul\":513:531   */\n      add\n        /* \"Midas/Midas_main/src/LPToken.sol\":2421:2721  function supportsInterface(bytes4 interfaceId) public view virtual override(ERC165, IERC165) returns (bool) {... */\n    tag_23:\n      mload(0x40)\n      dup1\n      swap2\n      sub\n      swap1\n      return\n        /* \"Midas/Midas_main/src/LPToken.sol\":3324:3422  function name() public view virtual override returns (string memory) {... */\n    tag_4:\n      tag_25\n      tag_26\n      jump\t// in\n    tag_25:\n      mload(0x40)\n      tag_23\n      swap2\n      swap1\n      tag_28\n      jump\t// in\n        /* \"Midas/Midas_main/src/LPToken.sol\":4791:4958  function getApproved(uint256 tokenId) public view virtual override returns (address) {... */\n    tag_5:\n      tag_29\n      tag_30\n      calldatasize\n      0x04\n      tag_31\n      jump\t// in\n    tag_30:\n      tag_32\n      jump\t// in\n    tag_29:\n      mload(0x40)\n      sub(shl(0xa0, 0x01), 0x01)\n        /* \"#utility.yul\":1692:1724   */\n      swap1\n      swap2\n      and\n        /* \"#utility.yul\":1674:1725   */\n      dup2\n      mstore\n        /* \"#utility.yul\":1662:1664   */\n      0x20\n        /* \"#utility.yul\":1647:1665   */\n      add\n        /* \"Midas/Midas_main/src/LPToken.sol\":4791:4958  function getApproved(uint256 tokenId) public view virtual override returns (address) {... */\n      tag_23\n        /* \"#utility.yul\":1528:1731   */\n      jump\n        /* \"Midas/Midas_main/src/LPToken.sol\":4321:4730  function approve(address to, uint256 tokenId) public virtual override {... */\n    tag_6:\n      tag_35\n      tag_36\n      calldatasize\n      0x04\n      tag_37\n      jump\t// in\n    tag_36:\n      tag_38\n      jump\t// in\n    tag_35:\n      stop\n        /* \"Midas/Midas_main/src/LPToken.sol\":5468:5765  function transferFrom(address from, address to, uint256 tokenId) public virtual override {... */\n    tag_7:\n      tag_35\n      tag_40\n      calldatasize\n      0x04\n      tag_41\n      jump\t// in\n    tag_40:\n      tag_42\n      jump\t// in\n        /* \"Midas/Midas_main/src/LPToken.sol\":2046:2152  function mint(address to, uint256 tokenId) public virtual onlyPair {... */\n    tag_8:\n      tag_35\n      tag_44\n      calldatasize\n      0x04\n      tag_37\n      jump\t// in\n    tag_44:\n      tag_45\n      jump\t// in\n        /* \"Midas/Midas_main/src/LPToken.sol\":5831:5980  function safeTransferFrom(address from, address to, uint256 tokenId) public virtual override {... */\n    tag_9:\n      tag_35\n      tag_47\n      calldatasize\n      0x04\n      tag_41\n      jump\t// in\n    tag_47:\n      tag_48\n      jump\t// in\n        /* \"Midas/Midas_main/src/LPToken.sol\":2158:2354  function burn(uint256 tokenId) public virtual onlyPair {... */\n    tag_10:\n      tag_35\n      tag_50\n      calldatasize\n      0x04\n      tag_31\n      jump\t// in\n    tag_50:\n      tag_51\n      jump\t// in\n        /* \"Midas/Midas_main/src/LPToken.sol\":3042:3262  function ownerOf(uint256 tokenId) public view virtual override returns (address) {... */\n    tag_11:\n      tag_29\n      tag_53\n      calldatasize\n      0x04\n      tag_31\n      jump\t// in\n    tag_53:\n      tag_54\n      jump\t// in\n        /* \"Midas/Midas_main/src/LPToken.sol\":2780:2985  function balanceOf(address owner) public view virtual override returns (uint256) {... */\n    tag_12:\n      tag_56\n      tag_57\n      calldatasize\n      0x04\n      tag_58\n      jump\t// in\n    tag_57:\n      tag_59\n      jump\t// in\n    tag_56:\n      mload(0x40)\n        /* \"#utility.yul\":2843:2868   */\n      swap1\n      dup2\n      mstore\n        /* \"#utility.yul\":2831:2833   */\n      0x20\n        /* \"#utility.yul\":2816:2834   */\n      add\n        /* \"Midas/Midas_main/src/LPToken.sol\":2780:2985  function balanceOf(address owner) public view virtual override returns (uint256) {... */\n      tag_23\n        /* \"#utility.yul\":2697:2874   */\n      jump\n        /* \"Midas/Midas_main/src/LPToken.sol\":3486:3588  function symbol() public view virtual override returns (string memory) {... */\n    tag_13:\n      tag_25\n      tag_63\n      jump\t// in\n        /* \"Midas/Midas_main/src/LPToken.sol\":5025:5178  function setApprovalForAll(address operator, bool approved) public virtual override {... */\n    tag_14:\n      tag_35\n      tag_66\n      calldatasize\n      0x04\n      tag_67\n      jump\t// in\n    tag_66:\n      tag_68\n      jump\t// in\n        /* \"Midas/Midas_main/src/LPToken.sol\":6046:6323  function safeTransferFrom(address from, address to, uint256 tokenId, bytes memory data) public virtual override {... */\n    tag_15:\n      tag_35\n      tag_70\n      calldatasize\n      0x04\n      tag_71\n      jump\t// in\n    tag_70:\n      tag_72\n      jump\t// in\n        /* \"Midas/Midas_main/src/LPToken.sol\":1946:2036  function initialize(address pair) public virtual onlyFactory {... */\n    tag_16:\n      tag_35\n      tag_74\n      calldatasize\n      0x04\n      tag_58\n      jump\t// in\n    tag_74:\n      tag_75\n      jump\t// in\n        /* \"Midas/Midas_main/src/LPToken.sol\":3654:3930  function tokenURI(uint256 tokenId) public view virtual override returns (string memory) {... */\n    tag_17:\n      tag_25\n      tag_77\n      calldatasize\n      0x04\n      tag_31\n      jump\t// in\n    tag_77:\n      tag_78\n      jump\t// in\n        /* \"Midas/Midas_main/src/LPToken.sol\":5244:5406  function isApprovedForAll(address owner, address operator) public view virtual override returns (bool) {... */\n    tag_18:\n      tag_19\n      tag_81\n      calldatasize\n      0x04\n      tag_82\n      jump\t// in\n    tag_81:\n      tag_83\n      jump\t// in\n        /* \"Midas/Midas_main/src/LPToken.sol\":2421:2721  function supportsInterface(bytes4 interfaceId) public view virtual override(ERC165, IERC165) returns (bool) {... */\n    tag_22:\n        /* \"Midas/Midas_main/src/LPToken.sol\":2523:2527  bool */\n      0x00\n      not(sub(shl(0xe0, 0x01), 0x01))\n        /* \"Midas/Midas_main/src/LPToken.sol\":2558:2598  interfaceId == type(IERC721).interfaceId */\n      dup3\n      and\n      shl(0xe0, 0x80ac58cd)\n      eq\n      dup1\n        /* \"Midas/Midas_main/src/LPToken.sol\":2558:2662  interfaceId == type(IERC721).interfaceId ||... */\n      tag_86\n      jumpi\n      pop\n      not(sub(shl(0xe0, 0x01), 0x01))\n        /* \"Midas/Midas_main/src/LPToken.sol\":2614:2662  interfaceId == type(IERC721Metadata).interfaceId */\n      dup3\n      and\n      shl(0xe0, 0x5b5e139f)\n      eq\n        /* \"Midas/Midas_main/src/LPToken.sol\":2558:2662  interfaceId == type(IERC721).interfaceId ||... */\n    tag_86:\n        /* \"Midas/Midas_main/src/LPToken.sol\":2558:2714  interfaceId == type(IERC721).interfaceId ||... */\n      dup1\n      tag_88\n      jumpi\n      pop\n      shl(0xe0, 0x01ffc9a7)\n      not(sub(shl(0xe0, 0x01), 0x01))\n        /* \"@openzeppelin/contracts/utils/introspection/ERC165.sol\":937:977  interfaceId == type(IERC165).interfaceId */\n      dup4\n      and\n      eq\n        /* \"Midas/Midas_main/src/LPToken.sol\":2678:2714  super.supportsInterface(interfaceId) */\n    tag_88:\n        /* \"Midas/Midas_main/src/LPToken.sol\":2539:2714  return... */\n      swap3\n        /* \"Midas/Midas_main/src/LPToken.sol\":2421:2721  function supportsInterface(bytes4 interfaceId) public view virtual override(ERC165, IERC165) returns (bool) {... */\n      swap2\n      pop\n      pop\n      jump\t// out\n        /* \"Midas/Midas_main/src/LPToken.sol\":3324:3422  function name() public view virtual override returns (string memory) {... */\n    tag_26:\n        /* \"Midas/Midas_main/src/LPToken.sol\":3378:3391  string memory */\n      0x60\n        /* \"Midas/Midas_main/src/LPToken.sol\":3410:3415  _name */\n      0x00\n        /* \"Midas/Midas_main/src/LPToken.sol\":3403:3415  return _name */\n      dup1\n      sload\n      tag_91\n      swap1\n      tag_92\n      jump\t// in\n    tag_91:\n      dup1\n      0x1f\n      add\n      0x20\n      dup1\n      swap2\n      div\n      mul\n      0x20\n      add\n      mload(0x40)\n      swap1\n      dup2\n      add\n      0x40\n      mstore\n      dup1\n      swap3\n      swap2\n      swap1\n      dup2\n      dup2\n      mstore\n      0x20\n      add\n      dup3\n      dup1\n      sload\n      tag_93\n      swap1\n      tag_92\n      jump\t// in\n    tag_93:\n      dup1\n      iszero\n      tag_94\n      jumpi\n      dup1\n      0x1f\n      lt\n      tag_95\n      jumpi\n      0x0100\n      dup1\n      dup4\n      sload\n      div\n      mul\n      dup4\n      mstore\n      swap2\n      0x20\n      add\n      swap2\n      jump(tag_94)\n    tag_95:\n      dup3\n      add\n      swap2\n      swap1\n      0x00\n      mstore\n      keccak256(0x00, 0x20)\n      swap1\n    tag_96:\n      dup2\n      sload\n      dup2\n      mstore\n      swap1\n      0x01\n      add\n      swap1\n      0x20\n      add\n      dup1\n      dup4\n      gt\n      tag_96\n      jumpi\n      dup3\n      swap1\n      sub\n      0x1f\n      and\n      dup3\n      add\n      swap2\n    tag_94:\n      pop\n      pop\n      pop\n      pop\n      pop\n      swap1\n      pop\n        /* \"Midas/Midas_main/src/LPToken.sol\":3324:3422  function name() public view virtual override returns (string memory) {... */\n      swap1\n      jump\t// out\n        /* \"Midas/Midas_main/src/LPToken.sol\":4791:4958  function getApproved(uint256 tokenId) public view virtual override returns (address) {... */\n    tag_32:\n        /* \"Midas/Midas_main/src/LPToken.sol\":4867:4874  address */\n      0x00\n        /* \"Midas/Midas_main/src/LPToken.sol\":4886:4909  _requireMinted(tokenId) */\n      tag_98\n        /* \"Midas/Midas_main/src/LPToken.sol\":4901:4908  tokenId */\n      dup3\n        /* \"Midas/Midas_main/src/LPToken.sol\":4886:4900  _requireMinted */\n      tag_99\n        /* \"Midas/Midas_main/src/LPToken.sol\":4886:4909  _requireMinted(tokenId) */\n      jump\t// in\n    tag_98:\n      pop\n        /* \"Midas/Midas_main/src/LPToken.sol\":4927:4951  _tokenApprovals[tokenId] */\n      0x00\n      swap1\n      dup2\n      mstore\n        /* \"Midas/Midas_main/src/LPToken.sol\":4927:4942  _tokenApprovals */\n      0x06\n        /* \"Midas/Midas_main/src/LPToken.sol\":4927:4951  _tokenApprovals[tokenId] */\n      0x20\n      mstore\n      0x40\n      swap1\n      keccak256\n      sload\n      sub(shl(0xa0, 0x01), 0x01)\n      and\n      swap1\n        /* \"Midas/Midas_main/src/LPToken.sol\":4791:4958  function getApproved(uint256 tokenId) public view virtual override returns (address) {... */\n      jump\t// out\n        /* \"Midas/Midas_main/src/LPToken.sol\":4321:4730  function approve(address to, uint256 tokenId) public virtual override {... */\n    tag_38:\n        /* \"Midas/Midas_main/src/LPToken.sol\":4401:4414  address owner */\n      0x00\n        /* \"Midas/Midas_main/src/LPToken.sol\":4417:4441  LPToken.ownerOf(tokenId) */\n      tag_101\n        /* \"Midas/Midas_main/src/LPToken.sol\":4433:4440  tokenId */\n      dup3\n        /* \"Midas/Midas_main/src/LPToken.sol\":4417:4432  LPToken.ownerOf */\n      tag_54\n        /* \"Midas/Midas_main/src/LPToken.sol\":4417:4441  LPToken.ownerOf(tokenId) */\n      jump\t// in\n    tag_101:\n        /* \"Midas/Midas_main/src/LPToken.sol\":4401:4441  address owner = LPToken.ownerOf(tokenId) */\n      swap1\n      pop\n        /* \"Midas/Midas_main/src/LPToken.sol\":4465:4470  owner */\n      dup1\n      sub(shl(0xa0, 0x01), 0x01)\n        /* \"Midas/Midas_main/src/LPToken.sol\":4459:4470  to != owner */\n      and\n        /* \"Midas/Midas_main/src/LPToken.sol\":4459:4461  to */\n      dup4\n      sub(shl(0xa0, 0x01), 0x01)\n        /* \"Midas/Midas_main/src/LPToken.sol\":4459:4470  to != owner */\n      and\n      eq\n      iszero\n        /* \"Midas/Midas_main/src/LPToken.sol\":4451:4509  require(to != owner, \"LPToken: approval to current owner\") */\n      tag_102\n      jumpi\n      mload(0x40)\n      shl(0xe5, 0x461bcd)\n      dup2\n      mstore\n        /* \"#utility.yul\":5358:5360   */\n      0x20\n        /* \"Midas/Midas_main/src/LPToken.sol\":4451:4509  require(to != owner, \"LPToken: approval to current owner\") */\n      0x04\n      dup3\n      add\n        /* \"#utility.yul\":5340:5361   */\n      mstore\n        /* \"#utility.yul\":5397:5399   */\n      0x22\n        /* \"#utility.yul\":5377:5395   */\n      0x24\n      dup3\n      add\n        /* \"#utility.yul\":5370:5400   */\n      mstore\n        /* \"#utility.yul\":5436:5470   */\n      0x4c50546f6b656e3a20617070726f76616c20746f2063757272656e74206f776e\n        /* \"#utility.yul\":5416:5434   */\n      0x44\n      dup3\n      add\n        /* \"#utility.yul\":5409:5471   */\n      mstore\n      shl(0xf1, 0x32b9)\n        /* \"#utility.yul\":5487:5505   */\n      0x64\n      dup3\n      add\n        /* \"#utility.yul\":5480:5512   */\n      mstore\n        /* \"#utility.yul\":5529:5548   */\n      0x84\n      add\n        /* \"Midas/Midas_main/src/LPToken.sol\":4451:4509  require(to != owner, \"LPToken: approval to current owner\") */\n    tag_103:\n      mload(0x40)\n      dup1\n      swap2\n      sub\n      swap1\n      revert\n    tag_102:\n        /* \"@openzeppelin/contracts/utils/Context.sol\":719:729  msg.sender */\n      caller\n      sub(shl(0xa0, 0x01), 0x01)\n        /* \"Midas/Midas_main/src/LPToken.sol\":4541:4562  _msgSender() == owner */\n      dup3\n      and\n      eq\n      dup1\n        /* \"Midas/Midas_main/src/LPToken.sol\":4541:4603  _msgSender() == owner || isApprovedForAll(owner, _msgSender()) */\n      tag_108\n      jumpi\n      pop\n        /* \"Midas/Midas_main/src/LPToken.sol\":4566:4603  isApprovedForAll(owner, _msgSender()) */\n      tag_108\n        /* \"Midas/Midas_main/src/LPToken.sol\":4583:4588  owner */\n      dup2\n        /* \"@openzeppelin/contracts/utils/Context.sol\":719:729  msg.sender */\n      caller\n        /* \"Midas/Midas_main/src/LPToken.sol\":5244:5406  function isApprovedForAll(address owner, address operator) public view virtual override returns (bool) {... */\n      tag_83\n      jump\t// in\n        /* \"Midas/Midas_main/src/LPToken.sol\":4566:4603  isApprovedForAll(owner, _msgSender()) */\n    tag_108:\n        /* \"Midas/Midas_main/src/LPToken.sol\":4520:4691  require(... */\n      tag_110\n      jumpi\n      mload(0x40)\n      shl(0xe5, 0x461bcd)\n      dup2\n      mstore\n        /* \"#utility.yul\":5761:5763   */\n      0x20\n        /* \"Midas/Midas_main/src/LPToken.sol\":4520:4691  require(... */\n      0x04\n      dup3\n      add\n        /* \"#utility.yul\":5743:5764   */\n      mstore\n        /* \"#utility.yul\":5800:5802   */\n      0x3e\n        /* \"#utility.yul\":5780:5798   */\n      0x24\n      dup3\n      add\n        /* \"#utility.yul\":5773:5803   */\n      mstore\n        /* \"#utility.yul\":5839:5873   */\n      0x4c50546f6b656e3a20617070726f76652063616c6c6572206973206e6f742074\n        /* \"#utility.yul\":5819:5837   */\n      0x44\n      dup3\n      add\n        /* \"#utility.yul\":5812:5874   */\n      mstore\n        /* \"#utility.yul\":5910:5942   */\n      0x6f6b656e206f776e6572206f7220617070726f76656420666f7220616c6c0000\n        /* \"#utility.yul\":5890:5908   */\n      0x64\n      dup3\n      add\n        /* \"#utility.yul\":5883:5943   */\n      mstore\n        /* \"#utility.yul\":5960:5979   */\n      0x84\n      add\n        /* \"Midas/Midas_main/src/LPToken.sol\":4520:4691  require(... */\n      tag_103\n        /* \"#utility.yul\":5559:5985   */\n      jump\n        /* \"Midas/Midas_main/src/LPToken.sol\":4520:4691  require(... */\n    tag_110:\n        /* \"Midas/Midas_main/src/LPToken.sol\":4702:4723  _approve(to, tokenId) */\n      tag_113\n        /* \"Midas/Midas_main/src/LPToken.sol\":4711:4713  to */\n      dup4\n        /* \"Midas/Midas_main/src/LPToken.sol\":4715:4722  tokenId */\n      dup4\n        /* \"Midas/Midas_main/src/LPToken.sol\":4702:4710  _approve */\n      tag_114\n        /* \"Midas/Midas_main/src/LPToken.sol\":4702:4723  _approve(to, tokenId) */\n      jump\t// in\n    tag_113:\n        /* \"Midas/Midas_main/src/LPToken.sol\":4391:4730  {... */\n      pop\n        /* \"Midas/Midas_main/src/LPToken.sol\":4321:4730  function approve(address to, uint256 tokenId) public virtual override {... */\n      pop\n      pop\n      jump\t// out\n        /* \"Midas/Midas_main/src/LPToken.sol\":5468:5765  function transferFrom(address from, address to, uint256 tokenId) public virtual override {... */\n    tag_42:\n        /* \"Midas/Midas_main/src/LPToken.sol\":5627:5668  _isApprovedOrOwner(_msgSender(), tokenId) */\n      tag_116\n        /* \"@openzeppelin/contracts/utils/Context.sol\":719:729  msg.sender */\n      caller\n        /* \"Midas/Midas_main/src/LPToken.sol\":5646:5658  _msgSender() */\n    tag_117:\n        /* \"Midas/Midas_main/src/LPToken.sol\":5660:5667  tokenId */\n      dup3\n        /* \"Midas/Midas_main/src/LPToken.sol\":5627:5645  _isApprovedOrOwner */\n      tag_118\n        /* \"Midas/Midas_main/src/LPToken.sol\":5627:5668  _isApprovedOrOwner(_msgSender(), tokenId) */\n      jump\t// in\n    tag_116:\n        /* \"Midas/Midas_main/src/LPToken.sol\":5619:5719  require(_isApprovedOrOwner(_msgSender(), tokenId), \"LPToken: caller is not token owner or approved\") */\n      tag_119\n      jumpi\n      mload(0x40)\n      shl(0xe5, 0x461bcd)\n      dup2\n      mstore\n      0x04\n      add\n      tag_103\n      swap1\n      tag_121\n      jump\t// in\n    tag_119:\n        /* \"Midas/Midas_main/src/LPToken.sol\":5730:5758  _transfer(from, to, tokenId) */\n      tag_113\n        /* \"Midas/Midas_main/src/LPToken.sol\":5740:5744  from */\n      dup4\n        /* \"Midas/Midas_main/src/LPToken.sol\":5746:5748  to */\n      dup4\n        /* \"Midas/Midas_main/src/LPToken.sol\":5750:5757  tokenId */\n      dup4\n        /* \"Midas/Midas_main/src/LPToken.sol\":5730:5739  _transfer */\n      tag_123\n        /* \"Midas/Midas_main/src/LPToken.sol\":5730:5758  _transfer(from, to, tokenId) */\n      jump\t// in\n        /* \"Midas/Midas_main/src/LPToken.sol\":2046:2152  function mint(address to, uint256 tokenId) public virtual onlyPair {... */\n    tag_45:\n        /* \"Midas/Midas_main/src/LPToken.sol\":1830:1835  _pair */\n      and(sub(shl(0xa0, 0x01), 0x01), sload(0x02))\n        /* \"Midas/Midas_main/src/LPToken.sol\":1816:1826  msg.sender */\n      caller\n        /* \"Midas/Midas_main/src/LPToken.sol\":1816:1835  msg.sender == _pair */\n      eq\n        /* \"Midas/Midas_main/src/LPToken.sol\":1808:1836  require(msg.sender == _pair) */\n      tag_125\n      jumpi\n      0x00\n      dup1\n      revert\n    tag_125:\n        /* \"Midas/Midas_main/src/LPToken.sol\":2123:2145  _safeMint(to, tokenId) */\n      tag_127\n        /* \"Midas/Midas_main/src/LPToken.sol\":2133:2135  to */\n      dup3\n        /* \"Midas/Midas_main/src/LPToken.sol\":2137:2144  tokenId */\n      dup3\n        /* \"Midas/Midas_main/src/LPToken.sol\":2123:2132  _safeMint */\n      tag_128\n        /* \"Midas/Midas_main/src/LPToken.sol\":2123:2145  _safeMint(to, tokenId) */\n      jump\t// in\n    tag_127:\n        /* \"Midas/Midas_main/src/LPToken.sol\":2046:2152  function mint(address to, uint256 tokenId) public virtual onlyPair {... */\n      pop\n      pop\n      jump\t// out\n        /* \"Midas/Midas_main/src/LPToken.sol\":5831:5980  function safeTransferFrom(address from, address to, uint256 tokenId) public virtual override {... */\n    tag_48:\n        /* \"Midas/Midas_main/src/LPToken.sol\":5934:5973  safeTransferFrom(from, to, tokenId, \"\") */\n      tag_113\n        /* \"Midas/Midas_main/src/LPToken.sol\":5951:5955  from */\n      dup4\n        /* \"Midas/Midas_main/src/LPToken.sol\":5957:5959  to */\n      dup4\n        /* \"Midas/Midas_main/src/LPToken.sol\":5961:5968  tokenId */\n      dup4\n        /* \"Midas/Midas_main/src/LPToken.sol\":5934:5973  safeTransferFrom(from, to, tokenId, \"\") */\n      mload(0x40)\n      dup1\n      0x20\n      add\n      0x40\n      mstore\n      dup1\n      0x00\n      dup2\n      mstore\n      pop\n        /* \"Midas/Midas_main/src/LPToken.sol\":5934:5950  safeTransferFrom */\n      tag_72\n        /* \"Midas/Midas_main/src/LPToken.sol\":5934:5973  safeTransferFrom(from, to, tokenId, \"\") */\n      jump\t// in\n        /* \"Midas/Midas_main/src/LPToken.sol\":2158:2354  function burn(uint256 tokenId) public virtual onlyPair {... */\n    tag_51:\n        /* \"Midas/Midas_main/src/LPToken.sol\":1830:1835  _pair */\n      and(sub(shl(0xa0, 0x01), 0x01), sload(0x02))\n        /* \"Midas/Midas_main/src/LPToken.sol\":1816:1826  msg.sender */\n      caller\n        /* \"Midas/Midas_main/src/LPToken.sol\":1816:1835  msg.sender == _pair */\n      eq\n        /* \"Midas/Midas_main/src/LPToken.sol\":1808:1836  require(msg.sender == _pair) */\n      tag_132\n      jumpi\n      0x00\n      dup1\n      revert\n    tag_132:\n        /* \"Midas/Midas_main/src/LPToken.sol\":2231:2272  _isApprovedOrOwner(_msgSender(), tokenId) */\n      tag_134\n        /* \"@openzeppelin/contracts/utils/Context.sol\":719:729  msg.sender */\n      caller\n        /* \"Midas/Midas_main/src/LPToken.sol\":2250:2262  _msgSender() */\n      tag_117\n        /* \"@openzeppelin/contracts/utils/Context.sol\":640:736  function _msgSender() internal view virtual returns (address) {... */\n      jump\n        /* \"Midas/Midas_main/src/LPToken.sol\":2231:2272  _isApprovedOrOwner(_msgSender(), tokenId) */\n    tag_134:\n        /* \"Midas/Midas_main/src/LPToken.sol\":2223:2323  require(_isApprovedOrOwner(_msgSender(), tokenId), \"LPToken: caller is not token owner or approved\") */\n      tag_136\n      jumpi\n      mload(0x40)\n      shl(0xe5, 0x461bcd)\n      dup2\n      mstore\n      0x04\n      add\n      tag_103\n      swap1\n      tag_121\n      jump\t// in\n    tag_136:\n        /* \"Midas/Midas_main/src/LPToken.sol\":2333:2347  _burn(tokenId) */\n      tag_138\n        /* \"Midas/Midas_main/src/LPToken.sol\":2339:2346  tokenId */\n      dup2\n        /* \"Midas/Midas_main/src/LPToken.sol\":2333:2338  _burn */\n      tag_139\n        /* \"Midas/Midas_main/src/LPToken.sol\":2333:2347  _burn(tokenId) */\n      jump\t// in\n    tag_138:\n        /* \"Midas/Midas_main/src/LPToken.sol\":2158:2354  function burn(uint256 tokenId) public virtual onlyPair {... */\n      pop\n      jump\t// out\n        /* \"Midas/Midas_main/src/LPToken.sol\":3042:3262  function ownerOf(uint256 tokenId) public view virtual override returns (address) {... */\n    tag_54:\n        /* \"Midas/Midas_main/src/LPToken.sol\":3114:3121  address */\n      0x00\n        /* \"Midas/Midas_main/src/LPToken.sol\":3133:3146  address owner */\n      dup1\n        /* \"Midas/Midas_main/src/LPToken.sol\":3149:3166  _ownerOf(tokenId) */\n      tag_141\n        /* \"Midas/Midas_main/src/LPToken.sol\":3158:3165  tokenId */\n      dup4\n        /* \"Midas/Midas_main/src/LPToken.sol\":3149:3157  _ownerOf */\n      tag_142\n        /* \"Midas/Midas_main/src/LPToken.sol\":3149:3166  _ownerOf(tokenId) */\n      jump\t// in\n    tag_141:\n        /* \"Midas/Midas_main/src/LPToken.sol\":3133:3166  address owner = _ownerOf(tokenId) */\n      swap1\n      pop\n      sub(shl(0xa0, 0x01), 0x01)\n        /* \"Midas/Midas_main/src/LPToken.sol\":3184:3203  owner != address(0) */\n      dup2\n      and\n        /* \"Midas/Midas_main/src/LPToken.sol\":3176:3233  require(owner != address(0), \"LPToken: invalid token ID\") */\n      tag_88\n      jumpi\n      mload(0x40)\n      shl(0xe5, 0x461bcd)\n      dup2\n      mstore\n      0x04\n      add\n      tag_103\n      swap1\n      tag_145\n      jump\t// in\n        /* \"Midas/Midas_main/src/LPToken.sol\":2780:2985  function balanceOf(address owner) public view virtual override returns (uint256) {... */\n    tag_59:\n        /* \"Midas/Midas_main/src/LPToken.sol\":2852:2859  uint256 */\n      0x00\n      sub(shl(0xa0, 0x01), 0x01)\n        /* \"Midas/Midas_main/src/LPToken.sol\":2879:2898  owner != address(0) */\n      dup3\n      and\n        /* \"Midas/Midas_main/src/LPToken.sol\":2871:2945  require(owner != address(0), \"LPToken: address zero is not a valid owner\") */\n      tag_147\n      jumpi\n      mload(0x40)\n      shl(0xe5, 0x461bcd)\n      dup2\n      mstore\n        /* \"#utility.yul\":6961:6963   */\n      0x20\n        /* \"Midas/Midas_main/src/LPToken.sol\":2871:2945  require(owner != address(0), \"LPToken: address zero is not a valid owner\") */\n      0x04\n      dup3\n      add\n        /* \"#utility.yul\":6943:6964   */\n      mstore\n        /* \"#utility.yul\":7000:7002   */\n      0x2a\n        /* \"#utility.yul\":6980:6998   */\n      0x24\n      dup3\n      add\n        /* \"#utility.yul\":6973:7003   */\n      mstore\n        /* \"#utility.yul\":7039:7073   */\n      0x4c50546f6b656e3a2061646472657373207a65726f206973206e6f7420612076\n        /* \"#utility.yul\":7019:7037   */\n      0x44\n      dup3\n      add\n        /* \"#utility.yul\":7012:7074   */\n      mstore\n      shl(0xb1, 0x30b634b21037bbb732b9)\n        /* \"#utility.yul\":7090:7108   */\n      0x64\n      dup3\n      add\n        /* \"#utility.yul\":7083:7123   */\n      mstore\n        /* \"#utility.yul\":7140:7159   */\n      0x84\n      add\n        /* \"Midas/Midas_main/src/LPToken.sol\":2871:2945  require(owner != address(0), \"LPToken: address zero is not a valid owner\") */\n      tag_103\n        /* \"#utility.yul\":6759:7165   */\n      jump\n        /* \"Midas/Midas_main/src/LPToken.sol\":2871:2945  require(owner != address(0), \"LPToken: address zero is not a valid owner\") */\n    tag_147:\n      pop\n      sub(shl(0xa0, 0x01), 0x01)\n        /* \"Midas/Midas_main/src/LPToken.sol\":2962:2978  _balances[owner] */\n      and\n      0x00\n      swap1\n      dup2\n      mstore\n        /* \"Midas/Midas_main/src/LPToken.sol\":2962:2971  _balances */\n      0x05\n        /* \"Midas/Midas_main/src/LPToken.sol\":2962:2978  _balances[owner] */\n      0x20\n      mstore\n      0x40\n      swap1\n      keccak256\n      sload\n      swap1\n        /* \"Midas/Midas_main/src/LPToken.sol\":2780:2985  function balanceOf(address owner) public view virtual override returns (uint256) {... */\n      jump\t// out\n        /* \"Midas/Midas_main/src/LPToken.sol\":3486:3588  function symbol() public view virtual override returns (string memory) {... */\n    tag_63:\n        /* \"Midas/Midas_main/src/LPToken.sol\":3542:3555  string memory */\n      0x60\n        /* \"Midas/Midas_main/src/LPToken.sol\":3574:3581  _symbol */\n      0x01\n        /* \"Midas/Midas_main/src/LPToken.sol\":3567:3581  return _symbol */\n      dup1\n      sload\n      tag_91\n      swap1\n      tag_92\n      jump\t// in\n        /* \"Midas/Midas_main/src/LPToken.sol\":5025:5178  function setApprovalForAll(address operator, bool approved) public virtual override {... */\n    tag_68:\n        /* \"Midas/Midas_main/src/LPToken.sol\":5119:5171  _setApprovalForAll(_msgSender(), operator, approved) */\n      tag_127\n        /* \"@openzeppelin/contracts/utils/Context.sol\":719:729  msg.sender */\n      caller\n        /* \"Midas/Midas_main/src/LPToken.sol\":5152:5160  operator */\n      dup4\n        /* \"Midas/Midas_main/src/LPToken.sol\":5162:5170  approved */\n      dup4\n        /* \"Midas/Midas_main/src/LPToken.sol\":5119:5137  _setApprovalForAll */\n      tag_159\n        /* \"Midas/Midas_main/src/LPToken.sol\":5119:5171  _setApprovalForAll(_msgSender(), operator, approved) */\n      jump\t// in\n        /* \"Midas/Midas_main/src/LPToken.sol\":6046:6323  function safeTransferFrom(address from, address to, uint256 tokenId, bytes memory data) public virtual override {... */\n    tag_72:\n        /* \"Midas/Midas_main/src/LPToken.sol\":6176:6217  _isApprovedOrOwner(_msgSender(), tokenId) */\n      tag_161\n        /* \"@openzeppelin/contracts/utils/Context.sol\":719:729  msg.sender */\n      caller\n        /* \"Midas/Midas_main/src/LPToken.sol\":6209:6216  tokenId */\n      dup4\n        /* \"Midas/Midas_main/src/LPToken.sol\":6176:6194  _isApprovedOrOwner */\n      tag_118\n        /* \"Midas/Midas_main/src/LPToken.sol\":6176:6217  _isApprovedOrOwner(_msgSender(), tokenId) */\n      jump\t// in\n    tag_161:\n        /* \"Midas/Midas_main/src/LPToken.sol\":6168:6268  require(_isApprovedOrOwner(_msgSender(), tokenId), \"LPToken: caller is not token owner or approved\") */\n      tag_163\n      jumpi\n      mload(0x40)\n      shl(0xe5, 0x461bcd)\n      dup2\n      mstore\n      0x04\n      add\n      tag_103\n      swap1\n      tag_121\n      jump\t// in\n    tag_163:\n        /* \"Midas/Midas_main/src/LPToken.sol\":6278:6316  _safeTransfer(from, to, tokenId, data) */\n      tag_165\n        /* \"Midas/Midas_main/src/LPToken.sol\":6292:6296  from */\n      dup5\n        /* \"Midas/Midas_main/src/LPToken.sol\":6298:6300  to */\n      dup5\n        /* \"Midas/Midas_main/src/LPToken.sol\":6302:6309  tokenId */\n      dup5\n        /* \"Midas/Midas_main/src/LPToken.sol\":6311:6315  data */\n      dup5\n        /* \"Midas/Midas_main/src/LPToken.sol\":6278:6291  _safeTransfer */\n      tag_166\n        /* \"Midas/Midas_main/src/LPToken.sol\":6278:6316  _safeTransfer(from, to, tokenId, data) */\n      jump\t// in\n    tag_165:\n        /* \"Midas/Midas_main/src/LPToken.sol\":6046:6323  function safeTransferFrom(address from, address to, uint256 tokenId, bytes memory data) public virtual override {... */\n      pop\n      pop\n      pop\n      pop\n      jump\t// out\n        /* \"Midas/Midas_main/src/LPToken.sol\":1946:2036  function initialize(address pair) public virtual onlyFactory {... */\n    tag_75:\n        /* \"Midas/Midas_main/src/LPToken.sol\":1913:1921  _factory */\n      and(sub(shl(0xa0, 0x01), 0x01), sload(0x03))\n        /* \"Midas/Midas_main/src/LPToken.sol\":1899:1909  msg.sender */\n      caller\n        /* \"Midas/Midas_main/src/LPToken.sol\":1899:1921  msg.sender == _factory */\n      eq\n        /* \"Midas/Midas_main/src/LPToken.sol\":1891:1922  require(msg.sender == _factory) */\n      tag_168\n      jumpi\n      0x00\n      dup1\n      revert\n    tag_168:\n        /* \"Midas/Midas_main/src/LPToken.sol\":2017:2022  _pair */\n      0x02\n        /* \"Midas/Midas_main/src/LPToken.sol\":2017:2029  _pair = pair */\n      dup1\n      sload\n      not(sub(shl(0xa0, 0x01), 0x01))\n      and\n      sub(shl(0xa0, 0x01), 0x01)\n      swap3\n      swap1\n      swap3\n      and\n      swap2\n      swap1\n      swap2\n      or\n      swap1\n      sstore\n        /* \"Midas/Midas_main/src/LPToken.sol\":1946:2036  function initialize(address pair) public virtual onlyFactory {... */\n      jump\t// out\n        /* \"Midas/Midas_main/src/LPToken.sol\":3654:3930  function tokenURI(uint256 tokenId) public view virtual override returns (string memory) {... */\n    tag_78:\n        /* \"Midas/Midas_main/src/LPToken.sol\":3727:3740  string memory */\n      0x60\n        /* \"Midas/Midas_main/src/LPToken.sol\":3752:3775  _requireMinted(tokenId) */\n      tag_171\n        /* \"Midas/Midas_main/src/LPToken.sol\":3767:3774  tokenId */\n      dup3\n        /* \"Midas/Midas_main/src/LPToken.sol\":3752:3766  _requireMinted */\n      tag_99\n        /* \"Midas/Midas_main/src/LPToken.sol\":3752:3775  _requireMinted(tokenId) */\n      jump\t// in\n    tag_171:\n        /* \"Midas/Midas_main/src/LPToken.sol\":3786:3807  string memory baseURI */\n      0x00\n        /* \"Midas/Midas_main/src/LPToken.sol\":3810:3820  _baseURI() */\n      tag_172\n        /* \"Midas/Midas_main/src/LPToken.sol\":4248:4257  return \"\" */\n      0x40\n      dup1\n      mload\n      0x20\n      dup2\n      add\n      swap1\n      swap2\n      mstore\n      0x00\n      dup2\n      mstore\n      swap1\n        /* \"Midas/Midas_main/src/LPToken.sol\":4172:4264  function _baseURI() internal view virtual returns (string memory) {... */\n      jump\n        /* \"Midas/Midas_main/src/LPToken.sol\":3810:3820  _baseURI() */\n    tag_172:\n        /* \"Midas/Midas_main/src/LPToken.sol\":3786:3820  string memory baseURI = _baseURI() */\n      swap1\n      pop\n        /* \"Midas/Midas_main/src/LPToken.sol\":3861:3862  0 */\n      0x00\n        /* \"Midas/Midas_main/src/LPToken.sol\":3843:3850  baseURI */\n      dup2\n        /* \"Midas/Midas_main/src/LPToken.sol\":3837:3858  bytes(baseURI).length */\n      mload\n        /* \"Midas/Midas_main/src/LPToken.sol\":3837:3862  bytes(baseURI).length > 0 */\n      gt\n        /* \"Midas/Midas_main/src/LPToken.sol\":3837:3923  bytes(baseURI).length > 0 ? string(abi.encodePacked(baseURI, tokenId.toString())) : \"\" */\n      tag_174\n      jumpi\n      mload(0x40)\n      dup1\n      0x20\n      add\n      0x40\n      mstore\n      dup1\n      0x00\n      dup2\n      mstore\n      pop\n      jump(tag_175)\n    tag_174:\n        /* \"Midas/Midas_main/src/LPToken.sol\":3889:3896  baseURI */\n      dup1\n        /* \"Midas/Midas_main/src/LPToken.sol\":3898:3916  tokenId.toString() */\n      tag_176\n        /* \"Midas/Midas_main/src/LPToken.sol\":3898:3905  tokenId */\n      dup5\n        /* \"Midas/Midas_main/src/LPToken.sol\":3898:3914  tokenId.toString */\n      tag_177\n        /* \"Midas/Midas_main/src/LPToken.sol\":3898:3916  tokenId.toString() */\n      jump\t// in\n    tag_176:\n        /* \"Midas/Midas_main/src/LPToken.sol\":3872:3917  abi.encodePacked(baseURI, tokenId.toString()) */\n      add(0x20, mload(0x40))\n      tag_178\n      swap3\n      swap2\n      swap1\n      tag_179\n      jump\t// in\n    tag_178:\n      mload(0x40)\n      0x20\n      dup2\n      dup4\n      sub\n      sub\n      dup2\n      mstore\n      swap1\n      0x40\n      mstore\n        /* \"Midas/Midas_main/src/LPToken.sol\":3837:3923  bytes(baseURI).length > 0 ? string(abi.encodePacked(baseURI, tokenId.toString())) : \"\" */\n    tag_175:\n        /* \"Midas/Midas_main/src/LPToken.sol\":3830:3923  return bytes(baseURI).length > 0 ? string(abi.encodePacked(baseURI, tokenId.toString())) : \"\" */\n      swap4\n        /* \"Midas/Midas_main/src/LPToken.sol\":3654:3930  function tokenURI(uint256 tokenId) public view virtual override returns (string memory) {... */\n      swap3\n      pop\n      pop\n      pop\n      jump\t// out\n        /* \"Midas/Midas_main/src/LPToken.sol\":5244:5406  function isApprovedForAll(address owner, address operator) public view virtual override returns (bool) {... */\n    tag_83:\n      sub(shl(0xa0, 0x01), 0x01)\n        /* \"Midas/Midas_main/src/LPToken.sol\":5364:5389  _operatorApprovals[owner] */\n      swap2\n      dup3\n      and\n        /* \"Midas/Midas_main/src/LPToken.sol\":5341:5345  bool */\n      0x00\n        /* \"Midas/Midas_main/src/LPToken.sol\":5364:5389  _operatorApprovals[owner] */\n      swap1\n      dup2\n      mstore\n        /* \"Midas/Midas_main/src/LPToken.sol\":5364:5382  _operatorApprovals */\n      0x07\n        /* \"Midas/Midas_main/src/LPToken.sol\":5364:5389  _operatorApprovals[owner] */\n      0x20\n      swap1\n      dup2\n      mstore\n      0x40\n      dup1\n      dup4\n      keccak256\n        /* \"Midas/Midas_main/src/LPToken.sol\":5364:5399  _operatorApprovals[owner][operator] */\n      swap4\n      swap1\n      swap5\n      and\n      dup3\n      mstore\n      swap2\n      swap1\n      swap2\n      mstore\n      keccak256\n      sload\n      0xff\n      and\n      swap1\n        /* \"Midas/Midas_main/src/LPToken.sol\":5244:5406  function isApprovedForAll(address owner, address operator) public view virtual override returns (bool) {... */\n      jump\t// out\n        /* \"Midas/Midas_main/src/LPToken.sol\":14112:14246  function _requireMinted(uint256 tokenId) internal view virtual {... */\n    tag_99:\n        /* \"Midas/Midas_main/src/LPToken.sol\":14193:14209  _exists(tokenId) */\n      tag_183\n        /* \"Midas/Midas_main/src/LPToken.sol\":14201:14208  tokenId */\n      dup2\n        /* \"Midas/Midas_main/src/LPToken.sol\":14193:14200  _exists */\n      tag_184\n        /* \"Midas/Midas_main/src/LPToken.sol\":14193:14209  _exists(tokenId) */\n      jump\t// in\n    tag_183:\n        /* \"Midas/Midas_main/src/LPToken.sol\":14185:14239  require(_exists(tokenId), \"LPToken: invalid token ID\") */\n      tag_138\n      jumpi\n      mload(0x40)\n      shl(0xe5, 0x461bcd)\n      dup2\n      mstore\n      0x04\n      add\n      tag_103\n      swap1\n      tag_145\n      jump\t// in\n        /* \"Midas/Midas_main/src/LPToken.sol\":13442:13614  function _approve(address to, uint256 tokenId) internal virtual {... */\n    tag_114:\n        /* \"Midas/Midas_main/src/LPToken.sol\":13516:13540  _tokenApprovals[tokenId] */\n      0x00\n      dup2\n      dup2\n      mstore\n        /* \"Midas/Midas_main/src/LPToken.sol\":13516:13531  _tokenApprovals */\n      0x06\n        /* \"Midas/Midas_main/src/LPToken.sol\":13516:13540  _tokenApprovals[tokenId] */\n      0x20\n      mstore\n      0x40\n      swap1\n      keccak256\n        /* \"Midas/Midas_main/src/LPToken.sol\":13516:13545  _tokenApprovals[tokenId] = to */\n      dup1\n      sload\n      not(sub(shl(0xa0, 0x01), 0x01))\n      and\n      sub(shl(0xa0, 0x01), 0x01)\n      dup5\n      and\n      swap1\n      dup2\n      or\n      swap1\n      swap2\n      sstore\n        /* \"Midas/Midas_main/src/LPToken.sol\":13516:13540  _tokenApprovals[tokenId] */\n      dup2\n      swap1\n        /* \"Midas/Midas_main/src/LPToken.sol\":13569:13593  LPToken.ownerOf(tokenId) */\n      tag_189\n        /* \"Midas/Midas_main/src/LPToken.sol\":13516:13540  _tokenApprovals[tokenId] */\n      dup3\n        /* \"Midas/Midas_main/src/LPToken.sol\":13569:13584  LPToken.ownerOf */\n      tag_54\n        /* \"Midas/Midas_main/src/LPToken.sol\":13569:13593  LPToken.ownerOf(tokenId) */\n      jump\t// in\n    tag_189:\n      sub(shl(0xa0, 0x01), 0x01)\n        /* \"Midas/Midas_main/src/LPToken.sol\":13560:13607  Approval(LPToken.ownerOf(tokenId), to, tokenId) */\n      and\n      0x8c5be1e5ebec7d5bd14f71427d1e84f3dd0314c0f7b2291e5b200ac8c7c3b925\n      mload(0x40)\n      mload(0x40)\n      dup1\n      swap2\n      sub\n      swap1\n      log4\n        /* \"Midas/Midas_main/src/LPToken.sol\":13442:13614  function _approve(address to, uint256 tokenId) internal virtual {... */\n      pop\n      pop\n      jump\t// out\n        /* \"Midas/Midas_main/src/LPToken.sol\":8263:8525  function _isApprovedOrOwner(address spender, uint256 tokenId) internal view virtual returns (bool) {... */\n    tag_118:\n        /* \"Midas/Midas_main/src/LPToken.sol\":8356:8360  bool */\n      0x00\n        /* \"Midas/Midas_main/src/LPToken.sol\":8372:8385  address owner */\n      dup1\n        /* \"Midas/Midas_main/src/LPToken.sol\":8388:8412  LPToken.ownerOf(tokenId) */\n      tag_191\n        /* \"Midas/Midas_main/src/LPToken.sol\":8404:8411  tokenId */\n      dup4\n        /* \"Midas/Midas_main/src/LPToken.sol\":8388:8403  LPToken.ownerOf */\n      tag_54\n        /* \"Midas/Midas_main/src/LPToken.sol\":8388:8412  LPToken.ownerOf(tokenId) */\n      jump\t// in\n    tag_191:\n        /* \"Midas/Midas_main/src/LPToken.sol\":8372:8412  address owner = LPToken.ownerOf(tokenId) */\n      swap1\n      pop\n        /* \"Midas/Midas_main/src/LPToken.sol\":8441:8446  owner */\n      dup1\n      sub(shl(0xa0, 0x01), 0x01)\n        /* \"Midas/Midas_main/src/LPToken.sol\":8430:8446  spender == owner */\n      and\n        /* \"Midas/Midas_main/src/LPToken.sol\":8430:8437  spender */\n      dup5\n      sub(shl(0xa0, 0x01), 0x01)\n        /* \"Midas/Midas_main/src/LPToken.sol\":8430:8446  spender == owner */\n      and\n      eq\n        /* \"Midas/Midas_main/src/LPToken.sol\":8430:8482  spender == owner || isApprovedForAll(owner, spender) */\n      dup1\n      tag_193\n      jumpi\n      pop\n        /* \"Midas/Midas_main/src/LPToken.sol\":8450:8482  isApprovedForAll(owner, spender) */\n      tag_193\n        /* \"Midas/Midas_main/src/LPToken.sol\":8467:8472  owner */\n      dup2\n        /* \"Midas/Midas_main/src/LPToken.sol\":8474:8481  spender */\n      dup6\n        /* \"Midas/Midas_main/src/LPToken.sol\":8450:8466  isApprovedForAll */\n      tag_83\n        /* \"Midas/Midas_main/src/LPToken.sol\":8450:8482  isApprovedForAll(owner, spender) */\n      jump\t// in\n    tag_193:\n        /* \"Midas/Midas_main/src/LPToken.sol\":8430:8517  spender == owner || isApprovedForAll(owner, spender) || getApproved(tokenId) == spender */\n      dup1\n      tag_194\n      jumpi\n      pop\n        /* \"Midas/Midas_main/src/LPToken.sol\":8510:8517  spender */\n      dup4\n      sub(shl(0xa0, 0x01), 0x01)\n        /* \"Midas/Midas_main/src/LPToken.sol\":8486:8517  getApproved(tokenId) == spender */\n      and\n        /* \"Midas/Midas_main/src/LPToken.sol\":8486:8506  getApproved(tokenId) */\n      tag_195\n        /* \"Midas/Midas_main/src/LPToken.sol\":8498:8505  tokenId */\n      dup5\n        /* \"Midas/Midas_main/src/LPToken.sol\":8486:8497  getApproved */\n      tag_32\n        /* \"Midas/Midas_main/src/LPToken.sol\":8486:8506  getApproved(tokenId) */\n      jump\t// in\n    tag_195:\n      sub(shl(0xa0, 0x01), 0x01)\n        /* \"Midas/Midas_main/src/LPToken.sol\":8486:8517  getApproved(tokenId) == spender */\n      and\n      eq\n        /* \"Midas/Midas_main/src/LPToken.sol\":8430:8517  spender == owner || isApprovedForAll(owner, spender) || getApproved(tokenId) == spender */\n    tag_194:\n        /* \"Midas/Midas_main/src/LPToken.sol\":8422:8518  return (spender == owner || isApprovedForAll(owner, spender) || getApproved(tokenId) == spender) */\n      swap5\n        /* \"Midas/Midas_main/src/LPToken.sol\":8263:8525  function _isApprovedOrOwner(address spender, uint256 tokenId) internal view virtual returns (bool) {... */\n      swap4\n      pop\n      pop\n      pop\n      pop\n      jump\t// out\n        /* \"Midas/Midas_main/src/LPToken.sol\":12123:13330  function _transfer(address from, address to, uint256 tokenId) internal virtual {... */\n    tag_123:\n        /* \"Midas/Midas_main/src/LPToken.sol\":12248:12252  from */\n      dup3\n      sub(shl(0xa0, 0x01), 0x01)\n        /* \"Midas/Midas_main/src/LPToken.sol\":12220:12252  LPToken.ownerOf(tokenId) == from */\n      and\n        /* \"Midas/Midas_main/src/LPToken.sol\":12220:12244  LPToken.ownerOf(tokenId) */\n      tag_197\n        /* \"Midas/Midas_main/src/LPToken.sol\":12236:12243  tokenId */\n      dup3\n        /* \"Midas/Midas_main/src/LPToken.sol\":12220:12235  LPToken.ownerOf */\n      tag_54\n        /* \"Midas/Midas_main/src/LPToken.sol\":12220:12244  LPToken.ownerOf(tokenId) */\n      jump\t// in\n    tag_197:\n      sub(shl(0xa0, 0x01), 0x01)\n        /* \"Midas/Midas_main/src/LPToken.sol\":12220:12252  LPToken.ownerOf(tokenId) == from */\n      and\n      eq\n        /* \"Midas/Midas_main/src/LPToken.sol\":12212:12295  require(LPToken.ownerOf(tokenId) == from, \"LPToken: transfer from incorrect owner\") */\n      tag_198\n      jumpi\n      mload(0x40)\n      shl(0xe5, 0x461bcd)\n      dup2\n      mstore\n        /* \"#utility.yul\":7847:7849   */\n      0x20\n        /* \"Midas/Midas_main/src/LPToken.sol\":12212:12295  require(LPToken.ownerOf(tokenId) == from, \"LPToken: transfer from incorrect owner\") */\n      0x04\n      dup3\n      add\n        /* \"#utility.yul\":7829:7850   */\n      mstore\n        /* \"#utility.yul\":7886:7888   */\n      0x26\n        /* \"#utility.yul\":7866:7884   */\n      0x24\n      dup3\n      add\n        /* \"#utility.yul\":7859:7889   */\n      mstore\n        /* \"#utility.yul\":7925:7959   */\n      0x4c50546f6b656e3a207472616e736665722066726f6d20696e636f7272656374\n        /* \"#utility.yul\":7905:7923   */\n      0x44\n      dup3\n      add\n        /* \"#utility.yul\":7898:7960   */\n      mstore\n      shl(0xd1, 0x1037bbb732b9)\n        /* \"#utility.yul\":7976:7994   */\n      0x64\n      dup3\n      add\n        /* \"#utility.yul\":7969:8005   */\n      mstore\n        /* \"#utility.yul\":8022:8041   */\n      0x84\n      add\n        /* \"Midas/Midas_main/src/LPToken.sol\":12212:12295  require(LPToken.ownerOf(tokenId) == from, \"LPToken: transfer from incorrect owner\") */\n      tag_103\n        /* \"#utility.yul\":7645:8047   */\n      jump\n        /* \"Midas/Midas_main/src/LPToken.sol\":12212:12295  require(LPToken.ownerOf(tokenId) == from, \"LPToken: transfer from incorrect owner\") */\n    tag_198:\n      sub(shl(0xa0, 0x01), 0x01)\n        /* \"Midas/Midas_main/src/LPToken.sol\":12313:12329  to != address(0) */\n      dup3\n      and\n        /* \"Midas/Midas_main/src/LPToken.sol\":12305:12371  require(to != address(0), \"LPToken: transfer to the zero address\") */\n      tag_201\n      jumpi\n      mload(0x40)\n      shl(0xe5, 0x461bcd)\n      dup2\n      mstore\n        /* \"#utility.yul\":8254:8256   */\n      0x20\n        /* \"Midas/Midas_main/src/LPToken.sol\":12305:12371  require(to != address(0), \"LPToken: transfer to the zero address\") */\n      0x04\n      dup3\n      add\n        /* \"#utility.yul\":8236:8257   */\n      mstore\n        /* \"#utility.yul\":8293:8295   */\n      0x25\n        /* \"#utility.yul\":8273:8291   */\n      0x24\n      dup3\n      add\n        /* \"#utility.yul\":8266:8296   */\n      mstore\n        /* \"#utility.yul\":8332:8366   */\n      0x4c50546f6b656e3a207472616e7366657220746f20746865207a65726f206164\n        /* \"#utility.yul\":8312:8330   */\n      0x44\n      dup3\n      add\n        /* \"#utility.yul\":8305:8367   */\n      mstore\n      shl(0xd8, 0x6472657373)\n        /* \"#utility.yul\":8383:8401   */\n      0x64\n      dup3\n      add\n        /* \"#utility.yul\":8376:8411   */\n      mstore\n        /* \"#utility.yul\":8428:8447   */\n      0x84\n      add\n        /* \"Midas/Midas_main/src/LPToken.sol\":12305:12371  require(to != address(0), \"LPToken: transfer to the zero address\") */\n      tag_103\n        /* \"#utility.yul\":8052:8453   */\n      jump\n        /* \"Midas/Midas_main/src/LPToken.sol\":12305:12371  require(to != address(0), \"LPToken: transfer to the zero address\") */\n    tag_201:\n        /* \"Midas/Midas_main/src/LPToken.sol\":12382:12424  _beforeTokenTransfer(from, to, tokenId, 1) */\n      tag_204\n        /* \"Midas/Midas_main/src/LPToken.sol\":12403:12407  from */\n      dup4\n        /* \"Midas/Midas_main/src/LPToken.sol\":12409:12411  to */\n      dup4\n        /* \"Midas/Midas_main/src/LPToken.sol\":12413:12420  tokenId */\n      dup4\n        /* \"Midas/Midas_main/src/LPToken.sol\":12422:12423  1 */\n      0x01\n        /* \"Midas/Midas_main/src/LPToken.sol\":12382:12402  _beforeTokenTransfer */\n      tag_205\n        /* \"Midas/Midas_main/src/LPToken.sol\":12382:12424  _beforeTokenTransfer(from, to, tokenId, 1) */\n      jump\t// in\n    tag_204:\n        /* \"Midas/Midas_main/src/LPToken.sol\":12552:12556  from */\n      dup3\n      sub(shl(0xa0, 0x01), 0x01)\n        /* \"Midas/Midas_main/src/LPToken.sol\":12524:12556  LPToken.ownerOf(tokenId) == from */\n      and\n        /* \"Midas/Midas_main/src/LPToken.sol\":12524:12548  LPToken.ownerOf(tokenId) */\n      tag_206\n        /* \"Midas/Midas_main/src/LPToken.sol\":12540:12547  tokenId */\n      dup3\n        /* \"Midas/Midas_main/src/LPToken.sol\":12524:12539  LPToken.ownerOf */\n      tag_54\n        /* \"Midas/Midas_main/src/LPToken.sol\":12524:12548  LPToken.ownerOf(tokenId) */\n      jump\t// in\n    tag_206:\n      sub(shl(0xa0, 0x01), 0x01)\n        /* \"Midas/Midas_main/src/LPToken.sol\":12524:12556  LPToken.ownerOf(tokenId) == from */\n      and\n      eq\n        /* \"Midas/Midas_main/src/LPToken.sol\":12516:12598  require(LPToken.ownerOf(tokenId) == from, \"ERC721: transfer from incorrect owner\") */\n      tag_207\n      jumpi\n      mload(0x40)\n      shl(0xe5, 0x461bcd)\n      dup2\n      mstore\n        /* \"#utility.yul\":8660:8662   */\n      0x20\n        /* \"Midas/Midas_main/src/LPToken.sol\":12516:12598  require(LPToken.ownerOf(tokenId) == from, \"ERC721: transfer from incorrect owner\") */\n      0x04\n      dup3\n      add\n        /* \"#utility.yul\":8642:8663   */\n      mstore\n        /* \"#utility.yul\":8699:8701   */\n      0x25\n        /* \"#utility.yul\":8679:8697   */\n      0x24\n      dup3\n      add\n        /* \"#utility.yul\":8672:8702   */\n      mstore\n        /* \"#utility.yul\":8738:8772   */\n      0x4552433732313a207472616e736665722066726f6d20696e636f727265637420\n        /* \"#utility.yul\":8718:8736   */\n      0x44\n      dup3\n      add\n        /* \"#utility.yul\":8711:8773   */\n      mstore\n      shl(0xd9, 0x37bbb732b9)\n        /* \"#utility.yul\":8789:8807   */\n      0x64\n      dup3\n      add\n        /* \"#utility.yul\":8782:8817   */\n      mstore\n        /* \"#utility.yul\":8834:8853   */\n      0x84\n      add\n        /* \"Midas/Midas_main/src/LPToken.sol\":12516:12598  require(LPToken.ownerOf(tokenId) == from, \"ERC721: transfer from incorrect owner\") */\n      tag_103\n        /* \"#utility.yul\":8458:8859   */\n      jump\n        /* \"Midas/Midas_main/src/LPToken.sol\":12516:12598  require(LPToken.ownerOf(tokenId) == from, \"ERC721: transfer from incorrect owner\") */\n    tag_207:\n        /* \"Midas/Midas_main/src/LPToken.sol\":12667:12691  _tokenApprovals[tokenId] */\n      0x00\n      dup2\n      dup2\n      mstore\n        /* \"Midas/Midas_main/src/LPToken.sol\":12667:12682  _tokenApprovals */\n      0x06\n        /* \"Midas/Midas_main/src/LPToken.sol\":12667:12691  _tokenApprovals[tokenId] */\n      0x20\n      swap1\n      dup2\n      mstore\n      0x40\n      dup1\n      dup4\n      keccak256\n        /* \"Midas/Midas_main/src/LPToken.sol\":12660:12691  delete _tokenApprovals[tokenId] */\n      dup1\n      sload\n      not(sub(shl(0xa0, 0x01), 0x01))\n      swap1\n      dup2\n      and\n      swap1\n      swap2\n      sstore\n      sub(shl(0xa0, 0x01), 0x01)\n        /* \"Midas/Midas_main/src/LPToken.sol\":13135:13150  _balances[from] */\n      dup8\n      dup2\n      and\n      dup1\n      dup7\n      mstore\n        /* \"Midas/Midas_main/src/LPToken.sol\":13135:13144  _balances */\n      0x05\n        /* \"Midas/Midas_main/src/LPToken.sol\":13135:13150  _balances[from] */\n      dup6\n      mstore\n      dup4\n      dup7\n      keccak256\n        /* \"Midas/Midas_main/src/LPToken.sol\":13135:13155  _balances[from] -= 1 */\n      dup1\n      sload\n      not(0x00)\n      add\n      swap1\n      sstore\n        /* \"Midas/Midas_main/src/LPToken.sol\":13169:13182  _balances[to] */\n      swap1\n      dup8\n      and\n      dup1\n      dup7\n      mstore\n      dup4\n      dup7\n      keccak256\n        /* \"Midas/Midas_main/src/LPToken.sol\":13169:13187  _balances[to] += 1 */\n      dup1\n      sload\n        /* \"Midas/Midas_main/src/LPToken.sol\":12660:12691  delete _tokenApprovals[tokenId] */\n      0x01\n        /* \"Midas/Midas_main/src/LPToken.sol\":13169:13187  _balances[to] += 1 */\n      add\n      swap1\n      sstore\n        /* \"Midas/Midas_main/src/LPToken.sol\":13207:13223  _owners[tokenId] */\n      dup7\n      dup7\n      mstore\n        /* \"Midas/Midas_main/src/LPToken.sol\":13207:13214  _owners */\n      0x04\n        /* \"Midas/Midas_main/src/LPToken.sol\":13207:13223  _owners[tokenId] */\n      swap1\n      swap5\n      mstore\n      dup3\n      dup6\n      keccak256\n        /* \"Midas/Midas_main/src/LPToken.sol\":13207:13228  _owners[tokenId] = to */\n      dup1\n      sload\n      swap1\n      swap3\n      and\n      dup5\n      or\n      swap1\n      swap2\n      sstore\n        /* \"Midas/Midas_main/src/LPToken.sol\":13244:13271  Transfer(from, to, tokenId) */\n      swap1\n      mload\n        /* \"Midas/Midas_main/src/LPToken.sol\":12683:12690  tokenId */\n      dup5\n      swap4\n      0x00\n      dup1\n      mload\n      0x20\n      data_ada389e1fc24a8587c776340efb91b36e675792ab631816100d55df0b5cf3cbc\n      dup4\n      codecopy\n      dup2\n      mload\n      swap2\n      mstore\n        /* \"Midas/Midas_main/src/LPToken.sol\":13244:13271  Transfer(from, to, tokenId) */\n      swap2\n      log4\n        /* \"Midas/Midas_main/src/LPToken.sol\":4391:4730  {... */\n      pop\n        /* \"Midas/Midas_main/src/LPToken.sol\":4321:4730  function approve(address to, uint256 tokenId) public virtual override {... */\n      pop\n      pop\n      jump\t// out\n        /* \"Midas/Midas_main/src/LPToken.sol\":8855:8963  function _safeMint(address to, uint256 tokenId) internal virtual {... */\n    tag_128:\n        /* \"Midas/Midas_main/src/LPToken.sol\":8930:8956  _safeMint(to, tokenId, \"\") */\n      tag_127\n        /* \"Midas/Midas_main/src/LPToken.sol\":8940:8942  to */\n      dup3\n        /* \"Midas/Midas_main/src/LPToken.sol\":8944:8951  tokenId */\n      dup3\n        /* \"Midas/Midas_main/src/LPToken.sol\":8930:8956  _safeMint(to, tokenId, \"\") */\n      mload(0x40)\n      dup1\n      0x20\n      add\n      0x40\n      mstore\n      dup1\n      0x00\n      dup2\n      mstore\n      pop\n        /* \"Midas/Midas_main/src/LPToken.sol\":8930:8939  _safeMint */\n      tag_214\n        /* \"Midas/Midas_main/src/LPToken.sol\":8930:8956  _safeMint(to, tokenId, \"\") */\n      jump\t// in\n        /* \"Midas/Midas_main/src/LPToken.sol\":11035:11799  function _burn(uint256 tokenId) internal virtual {... */\n    tag_139:\n        /* \"Midas/Midas_main/src/LPToken.sol\":11094:11107  address owner */\n      0x00\n        /* \"Midas/Midas_main/src/LPToken.sol\":11110:11134  LPToken.ownerOf(tokenId) */\n      tag_216\n        /* \"Midas/Midas_main/src/LPToken.sol\":11126:11133  tokenId */\n      dup3\n        /* \"Midas/Midas_main/src/LPToken.sol\":11110:11125  LPToken.ownerOf */\n      tag_54\n        /* \"Midas/Midas_main/src/LPToken.sol\":11110:11134  LPToken.ownerOf(tokenId) */\n      jump\t// in\n    tag_216:\n        /* \"Midas/Midas_main/src/LPToken.sol\":11094:11134  address owner = LPToken.ownerOf(tokenId) */\n      swap1\n      pop\n        /* \"Midas/Midas_main/src/LPToken.sol\":11145:11196  _beforeTokenTransfer(owner, address(0), tokenId, 1) */\n      tag_217\n        /* \"Midas/Midas_main/src/LPToken.sol\":11166:11171  owner */\n      dup2\n        /* \"Midas/Midas_main/src/LPToken.sol\":11181:11182  0 */\n      0x00\n        /* \"Midas/Midas_main/src/LPToken.sol\":11185:11192  tokenId */\n      dup5\n        /* \"Midas/Midas_main/src/LPToken.sol\":11194:11195  1 */\n      0x01\n        /* \"Midas/Midas_main/src/LPToken.sol\":11145:11165  _beforeTokenTransfer */\n      tag_205\n        /* \"Midas/Midas_main/src/LPToken.sol\":11145:11196  _beforeTokenTransfer(owner, address(0), tokenId, 1) */\n      jump\t// in\n    tag_217:\n        /* \"Midas/Midas_main/src/LPToken.sol\":11306:11330  LPToken.ownerOf(tokenId) */\n      tag_218\n        /* \"Midas/Midas_main/src/LPToken.sol\":11322:11329  tokenId */\n      dup3\n        /* \"Midas/Midas_main/src/LPToken.sol\":11306:11321  LPToken.ownerOf */\n      tag_54\n        /* \"Midas/Midas_main/src/LPToken.sol\":11306:11330  LPToken.ownerOf(tokenId) */\n      jump\t// in\n    tag_218:\n        /* \"Midas/Midas_main/src/LPToken.sol\":11375:11399  _tokenApprovals[tokenId] */\n      0x00\n      dup4\n      dup2\n      mstore\n        /* \"Midas/Midas_main/src/LPToken.sol\":11375:11390  _tokenApprovals */\n      0x06\n        /* \"Midas/Midas_main/src/LPToken.sol\":11375:11399  _tokenApprovals[tokenId] */\n      0x20\n      swap1\n      dup2\n      mstore\n      0x40\n      dup1\n      dup4\n      keccak256\n        /* \"Midas/Midas_main/src/LPToken.sol\":11368:11399  delete _tokenApprovals[tokenId] */\n      dup1\n      sload\n      not(sub(shl(0xa0, 0x01), 0x01))\n      swap1\n      dup2\n      and\n      swap1\n      swap2\n      sstore\n      sub(shl(0xa0, 0x01), 0x01)\n        /* \"Midas/Midas_main/src/LPToken.sol\":11615:11631  _balances[owner] */\n      dup6\n      and\n      dup1\n      dup6\n      mstore\n        /* \"Midas/Midas_main/src/LPToken.sol\":11615:11624  _balances */\n      0x05\n        /* \"Midas/Midas_main/src/LPToken.sol\":11615:11631  _balances[owner] */\n      dup5\n      mstore\n      dup3\n      dup6\n      keccak256\n        /* \"Midas/Midas_main/src/LPToken.sol\":11615:11636  _balances[owner] -= 1 */\n      dup1\n      sload\n      not(0x00)\n      add\n      swap1\n      sstore\n        /* \"Midas/Midas_main/src/LPToken.sol\":11663:11679  _owners[tokenId] */\n      dup8\n      dup6\n      mstore\n        /* \"Midas/Midas_main/src/LPToken.sol\":11663:11670  _owners */\n      0x04\n        /* \"Midas/Midas_main/src/LPToken.sol\":11663:11679  _owners[tokenId] */\n      swap1\n      swap4\n      mstore\n      dup2\n      dup5\n      keccak256\n        /* \"Midas/Midas_main/src/LPToken.sol\":11656:11679  delete _owners[tokenId] */\n      dup1\n      sload\n      swap1\n      swap2\n      and\n      swap1\n      sstore\n        /* \"Midas/Midas_main/src/LPToken.sol\":11695:11731  Transfer(owner, address(0), tokenId) */\n      mload\n        /* \"Midas/Midas_main/src/LPToken.sol\":11298:11330  owner = LPToken.ownerOf(tokenId) */\n      swap3\n      swap4\n      pop\n        /* \"Midas/Midas_main/src/LPToken.sol\":11391:11398  tokenId */\n      dup5\n      swap3\n      0x00\n      dup1\n      mload\n      0x20\n      data_ada389e1fc24a8587c776340efb91b36e675792ab631816100d55df0b5cf3cbc\n      dup4\n      codecopy\n      dup2\n      mload\n      swap2\n      mstore\n        /* \"Midas/Midas_main/src/LPToken.sol\":11695:11731  Transfer(owner, address(0), tokenId) */\n      swap1\n        /* \"Midas/Midas_main/src/LPToken.sol\":11375:11399  _tokenApprovals[tokenId] */\n      dup4\n      swap1\n        /* \"Midas/Midas_main/src/LPToken.sol\":11695:11731  Transfer(owner, address(0), tokenId) */\n      log4\n        /* \"Midas/Midas_main/src/LPToken.sol\":2046:2152  function mint(address to, uint256 tokenId) public virtual onlyPair {... */\n      pop\n      pop\n      jump\t// out\n        /* \"Midas/Midas_main/src/LPToken.sol\":7561:7676  function _ownerOf(uint256 tokenId) internal view virtual returns (address) {... */\n    tag_142:\n        /* \"Midas/Midas_main/src/LPToken.sol\":7627:7634  address */\n      0x00\n        /* \"Midas/Midas_main/src/LPToken.sol\":7653:7669  _owners[tokenId] */\n      swap1\n      dup2\n      mstore\n        /* \"Midas/Midas_main/src/LPToken.sol\":7653:7660  _owners */\n      0x04\n        /* \"Midas/Midas_main/src/LPToken.sol\":7653:7669  _owners[tokenId] */\n      0x20\n      mstore\n      0x40\n      swap1\n      keccak256\n      sload\n      sub(shl(0xa0, 0x01), 0x01)\n      and\n      swap1\n        /* \"Midas/Midas_main/src/LPToken.sol\":7561:7676  function _ownerOf(uint256 tokenId) internal view virtual returns (address) {... */\n      jump\t// out\n        /* \"Midas/Midas_main/src/LPToken.sol\":13750:14028  function _setApprovalForAll(address owner, address operator, bool approved) internal virtual {... */\n    tag_159:\n        /* \"Midas/Midas_main/src/LPToken.sol\":13870:13878  operator */\n      dup2\n      sub(shl(0xa0, 0x01), 0x01)\n        /* \"Midas/Midas_main/src/LPToken.sol\":13861:13878  owner != operator */\n      and\n        /* \"Midas/Midas_main/src/LPToken.sol\":13861:13866  owner */\n      dup4\n      sub(shl(0xa0, 0x01), 0x01)\n        /* \"Midas/Midas_main/src/LPToken.sol\":13861:13878  owner != operator */\n      and\n      eq\n      iszero\n        /* \"Midas/Midas_main/src/LPToken.sol\":13853:13909  require(owner != operator, \"LPToken: approve to caller\") */\n      tag_222\n      jumpi\n      mload(0x40)\n      shl(0xe5, 0x461bcd)\n      dup2\n      mstore\n        /* \"#utility.yul\":9066:9068   */\n      0x20\n        /* \"Midas/Midas_main/src/LPToken.sol\":13853:13909  require(owner != operator, \"LPToken: approve to caller\") */\n      0x04\n      dup3\n      add\n        /* \"#utility.yul\":9048:9069   */\n      mstore\n        /* \"#utility.yul\":9105:9107   */\n      0x1a\n        /* \"#utility.yul\":9085:9103   */\n      0x24\n      dup3\n      add\n        /* \"#utility.yul\":9078:9108   */\n      mstore\n      shl(0x31, 0x26282a37b5b2b71d1030b8383937bb32903a379031b0b63632b9)\n        /* \"#utility.yul\":9124:9142   */\n      0x44\n      dup3\n      add\n        /* \"#utility.yul\":9117:9173   */\n      mstore\n        /* \"#utility.yul\":9190:9208   */\n      0x64\n      add\n        /* \"Midas/Midas_main/src/LPToken.sol\":13853:13909  require(owner != operator, \"LPToken: approve to caller\") */\n      tag_103\n        /* \"#utility.yul\":8864:9214   */\n      jump\n        /* \"Midas/Midas_main/src/LPToken.sol\":13853:13909  require(owner != operator, \"LPToken: approve to caller\") */\n    tag_222:\n      sub(shl(0xa0, 0x01), 0x01)\n        /* \"Midas/Midas_main/src/LPToken.sol\":13919:13944  _operatorApprovals[owner] */\n      dup4\n      dup2\n      and\n      0x00\n      dup2\n      dup2\n      mstore\n        /* \"Midas/Midas_main/src/LPToken.sol\":13919:13937  _operatorApprovals */\n      0x07\n        /* \"Midas/Midas_main/src/LPToken.sol\":13919:13944  _operatorApprovals[owner] */\n      0x20\n      swap1\n      dup2\n      mstore\n      0x40\n      dup1\n      dup4\n      keccak256\n        /* \"Midas/Midas_main/src/LPToken.sol\":13919:13954  _operatorApprovals[owner][operator] */\n      swap5\n      dup8\n      and\n      dup1\n      dup5\n      mstore\n      swap5\n      dup3\n      mstore\n      swap2\n      dup3\n      swap1\n      keccak256\n        /* \"Midas/Midas_main/src/LPToken.sol\":13919:13965  _operatorApprovals[owner][operator] = approved */\n      dup1\n      sload\n      not(0xff)\n      and\n      dup7\n      iszero\n      iszero\n      swap1\n      dup2\n      or\n      swap1\n      swap2\n      sstore\n        /* \"Midas/Midas_main/src/LPToken.sol\":13980:14021  ApprovalForAll(owner, operator, approved) */\n      swap2\n      mload\n        /* \"#utility.yul\":540:581   */\n      swap2\n      dup3\n      mstore\n        /* \"Midas/Midas_main/src/LPToken.sol\":13980:14021  ApprovalForAll(owner, operator, approved) */\n      0x17307eab39ab6107e8899845ad3d59bd9653f200f220920489ca2b5937696c31\n      swap2\n        /* \"#utility.yul\":513:531   */\n      add\n        /* \"Midas/Midas_main/src/LPToken.sol\":13980:14021  ApprovalForAll(owner, operator, approved) */\n      mload(0x40)\n      dup1\n      swap2\n      sub\n      swap1\n      log3\n        /* \"Midas/Midas_main/src/LPToken.sol\":13750:14028  function _setApprovalForAll(address owner, address operator, bool approved) internal virtual {... */\n      pop\n      pop\n      pop\n      jump\t// out\n        /* \"Midas/Midas_main/src/LPToken.sol\":7184:7452  function _safeTransfer(address from, address to, uint256 tokenId, bytes memory data) internal virtual {... */\n    tag_166:\n        /* \"Midas/Midas_main/src/LPToken.sol\":7296:7324  _transfer(from, to, tokenId) */\n      tag_227\n        /* \"Midas/Midas_main/src/LPToken.sol\":7306:7310  from */\n      dup5\n        /* \"Midas/Midas_main/src/LPToken.sol\":7312:7314  to */\n      dup5\n        /* \"Midas/Midas_main/src/LPToken.sol\":7316:7323  tokenId */\n      dup5\n        /* \"Midas/Midas_main/src/LPToken.sol\":7296:7305  _transfer */\n      tag_123\n        /* \"Midas/Midas_main/src/LPToken.sol\":7296:7324  _transfer(from, to, tokenId) */\n      jump\t// in\n    tag_227:\n        /* \"Midas/Midas_main/src/LPToken.sol\":7342:7389  _checkOnERC721Received(from, to, tokenId, data) */\n      tag_228\n        /* \"Midas/Midas_main/src/LPToken.sol\":7365:7369  from */\n      dup5\n        /* \"Midas/Midas_main/src/LPToken.sol\":7371:7373  to */\n      dup5\n        /* \"Midas/Midas_main/src/LPToken.sol\":7375:7382  tokenId */\n      dup5\n        /* \"Midas/Midas_main/src/LPToken.sol\":7384:7388  data */\n      dup5\n        /* \"Midas/Midas_main/src/LPToken.sol\":7342:7364  _checkOnERC721Received */\n      tag_229\n        /* \"Midas/Midas_main/src/LPToken.sol\":7342:7389  _checkOnERC721Received(from, to, tokenId, data) */\n      jump\t// in\n    tag_228:\n        /* \"Midas/Midas_main/src/LPToken.sol\":7334:7445  require(_checkOnERC721Received(from, to, tokenId, data), \"LPToken: transfer to non ERC721Receiver implementer\") */\n      tag_165\n      jumpi\n      mload(0x40)\n      shl(0xe5, 0x461bcd)\n      dup2\n      mstore\n      0x04\n      add\n      tag_103\n      swap1\n      tag_232\n      jump\t// in\n        /* \"@openzeppelin/contracts/utils/Strings.sol\":415:1111  function toString(uint256 value) internal pure returns (string memory) {... */\n    tag_177:\n        /* \"@openzeppelin/contracts/utils/Strings.sol\":471:484  string memory */\n      0x60\n        /* \"@openzeppelin/contracts/utils/Strings.sol\":520:534  uint256 length */\n      0x00\n        /* \"@openzeppelin/contracts/utils/Strings.sol\":537:554  Math.log10(value) */\n      tag_235\n        /* \"@openzeppelin/contracts/utils/Strings.sol\":548:553  value */\n      dup4\n        /* \"@openzeppelin/contracts/utils/Strings.sol\":537:547  Math.log10 */\n      tag_236\n        /* \"@openzeppelin/contracts/utils/Strings.sol\":537:554  Math.log10(value) */\n      jump\t// in\n    tag_235:\n        /* \"@openzeppelin/contracts/utils/Strings.sol\":557:558  1 */\n      0x01\n        /* \"@openzeppelin/contracts/utils/Strings.sol\":537:558  Math.log10(value) + 1 */\n      add\n        /* \"@openzeppelin/contracts/utils/Strings.sol\":520:558  uint256 length = Math.log10(value) + 1 */\n      swap1\n      pop\n        /* \"@openzeppelin/contracts/utils/Strings.sol\":572:592  string memory buffer */\n      0x00\n        /* \"@openzeppelin/contracts/utils/Strings.sol\":606:612  length */\n      dup2\n      sub(shl(0x40, 0x01), 0x01)\n        /* \"@openzeppelin/contracts/utils/Strings.sol\":595:613  new string(length) */\n      dup2\n      gt\n      iszero\n      tag_238\n      jumpi\n      tag_238\n      tag_239\n      jump\t// in\n    tag_238:\n      mload(0x40)\n      swap1\n      dup1\n      dup3\n      mstore\n      dup1\n      0x1f\n      add\n      not(0x1f)\n      and\n      0x20\n      add\n      dup3\n      add\n      0x40\n      mstore\n      dup1\n      iszero\n      tag_240\n      jumpi\n      0x20\n      dup3\n      add\n      dup2\n      dup1\n      calldatasize\n      dup4\n      calldatacopy\n      add\n      swap1\n      pop\n    tag_240:\n      pop\n        /* \"@openzeppelin/contracts/utils/Strings.sol\":572:613  string memory buffer = new string(length) */\n      swap1\n      pop\n        /* \"@openzeppelin/contracts/utils/Strings.sol\":733:761  add(buffer, add(32, length)) */\n      dup2\n      dup2\n      add\n        /* \"@openzeppelin/contracts/utils/Strings.sol\":749:751  32 */\n      0x20\n        /* \"@openzeppelin/contracts/utils/Strings.sol\":733:761  add(buffer, add(32, length)) */\n      add\n        /* \"@openzeppelin/contracts/utils/Strings.sol\":788:1068  while (true) {... */\n    tag_241:\n      not(0x00)\n        /* \"@openzeppelin/contracts/utils/Strings.sol\":819:824  ptr-- */\n      add\n      shl(0x81, 0x181899199a1a9b1b9c1cb0b131b232b3)\n        /* \"@openzeppelin/contracts/utils/Strings.sol\":953:955  10 */\n      0x0a\n        /* \"@openzeppelin/contracts/utils/Strings.sol\":942:956  mod(value, 10) */\n      dup7\n      mod\n        /* \"@openzeppelin/contracts/utils/Strings.sol\":937:967  byte(mod(value, 10), _SYMBOLS) */\n      byte\n        /* \"@openzeppelin/contracts/utils/Strings.sol\":819:824  ptr-- */\n      dup2\n        /* \"@openzeppelin/contracts/utils/Strings.sol\":924:968  mstore8(ptr, byte(mod(value, 10), _SYMBOLS)) */\n      mstore8\n        /* \"@openzeppelin/contracts/utils/Strings.sol\":1012:1014  10 */\n      0x0a\n        /* \"@openzeppelin/contracts/utils/Strings.sol\":1003:1014  value /= 10 */\n      dup6\n      div\n      swap5\n      pop\n        /* \"@openzeppelin/contracts/utils/Strings.sol\":1036:1046  value == 0 */\n      dup5\n        /* \"@openzeppelin/contracts/utils/Strings.sol\":1032:1053  if (value == 0) break */\n      tag_246\n      jumpi\n        /* \"@openzeppelin/contracts/utils/Strings.sol\":1048:1053  break */\n      jump(tag_242)\n        /* \"@openzeppelin/contracts/utils/Strings.sol\":1032:1053  if (value == 0) break */\n    tag_246:\n        /* \"@openzeppelin/contracts/utils/Strings.sol\":788:1068  while (true) {... */\n      jump(tag_241)\n    tag_242:\n      pop\n        /* \"@openzeppelin/contracts/utils/Strings.sol\":1088:1094  buffer */\n      swap4\n        /* \"@openzeppelin/contracts/utils/Strings.sol\":415:1111  function toString(uint256 value) internal pure returns (string memory) {... */\n      swap3\n      pop\n      pop\n      pop\n      jump\t// out\n        /* \"Midas/Midas_main/src/LPToken.sol\":7979:8105  function _exists(uint256 tokenId) internal view virtual returns (bool) {... */\n    tag_184:\n        /* \"Midas/Midas_main/src/LPToken.sol\":8044:8048  bool */\n      0x00\n      dup1\n        /* \"Midas/Midas_main/src/LPToken.sol\":8067:8084  _ownerOf(tokenId) */\n      tag_248\n        /* \"Midas/Midas_main/src/LPToken.sol\":8076:8083  tokenId */\n      dup4\n        /* \"Midas/Midas_main/src/LPToken.sol\":8067:8075  _ownerOf */\n      tag_142\n        /* \"Midas/Midas_main/src/LPToken.sol\":8067:8084  _ownerOf(tokenId) */\n      jump\t// in\n    tag_248:\n      sub(shl(0xa0, 0x01), 0x01)\n        /* \"Midas/Midas_main/src/LPToken.sol\":8067:8098  _ownerOf(tokenId) != address(0) */\n      and\n      eq\n      iszero\n      swap3\n        /* \"Midas/Midas_main/src/LPToken.sol\":7979:8105  function _exists(uint256 tokenId) internal view virtual returns (bool) {... */\n      swap2\n      pop\n      pop\n      jump\t// out\n        /* \"Midas/Midas_main/src/LPToken.sol\":16346:16742  function _beforeTokenTransfer(... */\n    tag_205:\n        /* \"Midas/Midas_main/src/LPToken.sol\":16530:16531  1 */\n      0x01\n        /* \"Midas/Midas_main/src/LPToken.sol\":16518:16527  batchSize */\n      dup2\n        /* \"Midas/Midas_main/src/LPToken.sol\":16518:16531  batchSize > 1 */\n      gt\n        /* \"Midas/Midas_main/src/LPToken.sol\":16514:16736  if (batchSize > 1) {... */\n      iszero\n      tag_165\n      jumpi\n      sub(shl(0xa0, 0x01), 0x01)\n        /* \"Midas/Midas_main/src/LPToken.sol\":16551:16569  from != address(0) */\n      dup5\n      and\n      iszero\n        /* \"Midas/Midas_main/src/LPToken.sol\":16547:16632  if (from != address(0)) {... */\n      tag_251\n      jumpi\n      sub(shl(0xa0, 0x01), 0x01)\n        /* \"Midas/Midas_main/src/LPToken.sol\":16589:16604  _balances[from] */\n      dup5\n      and\n      0x00\n      swap1\n      dup2\n      mstore\n        /* \"Midas/Midas_main/src/LPToken.sol\":16589:16598  _balances */\n      0x05\n        /* \"Midas/Midas_main/src/LPToken.sol\":16589:16604  _balances[from] */\n      0x20\n      mstore\n      0x40\n      dup2\n      keccak256\n        /* \"Midas/Midas_main/src/LPToken.sol\":16589:16617  _balances[from] -= batchSize */\n      dup1\n      sload\n        /* \"Midas/Midas_main/src/LPToken.sol\":16608:16617  batchSize */\n      dup4\n      swap3\n        /* \"Midas/Midas_main/src/LPToken.sol\":16589:16604  _balances[from] */\n      swap1\n        /* \"Midas/Midas_main/src/LPToken.sol\":16589:16617  _balances[from] -= batchSize */\n      tag_252\n      swap1\n        /* \"Midas/Midas_main/src/LPToken.sol\":16608:16617  batchSize */\n      dup5\n      swap1\n        /* \"Midas/Midas_main/src/LPToken.sol\":16589:16617  _balances[from] -= batchSize */\n      tag_253\n      jump\t// in\n    tag_252:\n      swap1\n      swap2\n      sstore\n      pop\n      pop\n        /* \"Midas/Midas_main/src/LPToken.sol\":16547:16632  if (from != address(0)) {... */\n    tag_251:\n      sub(shl(0xa0, 0x01), 0x01)\n        /* \"Midas/Midas_main/src/LPToken.sol\":16649:16665  to != address(0) */\n      dup4\n      and\n      iszero\n        /* \"Midas/Midas_main/src/LPToken.sol\":16645:16726  if (to != address(0)) {... */\n      tag_165\n      jumpi\n      sub(shl(0xa0, 0x01), 0x01)\n        /* \"Midas/Midas_main/src/LPToken.sol\":16685:16698  _balances[to] */\n      dup4\n      and\n      0x00\n      swap1\n      dup2\n      mstore\n        /* \"Midas/Midas_main/src/LPToken.sol\":16685:16694  _balances */\n      0x05\n        /* \"Midas/Midas_main/src/LPToken.sol\":16685:16698  _balances[to] */\n      0x20\n      mstore\n      0x40\n      dup2\n      keccak256\n        /* \"Midas/Midas_main/src/LPToken.sol\":16685:16711  _balances[to] += batchSize */\n      dup1\n      sload\n        /* \"Midas/Midas_main/src/LPToken.sol\":16702:16711  batchSize */\n      dup4\n      swap3\n        /* \"Midas/Midas_main/src/LPToken.sol\":16685:16698  _balances[to] */\n      swap1\n        /* \"Midas/Midas_main/src/LPToken.sol\":16685:16711  _balances[to] += batchSize */\n      tag_255\n      swap1\n        /* \"Midas/Midas_main/src/LPToken.sol\":16702:16711  batchSize */\n      dup5\n      swap1\n        /* \"Midas/Midas_main/src/LPToken.sol\":16685:16711  _balances[to] += batchSize */\n      tag_256\n      jump\t// in\n    tag_255:\n      swap1\n      swap2\n      sstore\n      pop\n      pop\n        /* \"Midas/Midas_main/src/LPToken.sol\":16346:16742  function _beforeTokenTransfer(... */\n      pop\n      pop\n      pop\n      pop\n      jump\t// out\n        /* \"Midas/Midas_main/src/LPToken.sol\":9184:9464  function _safeMint(address to, uint256 tokenId, bytes memory data) internal virtual {... */\n    tag_214:\n        /* \"Midas/Midas_main/src/LPToken.sol\":9278:9296  _mint(to, tokenId) */\n      tag_259\n        /* \"Midas/Midas_main/src/LPToken.sol\":9284:9286  to */\n      dup4\n        /* \"Midas/Midas_main/src/LPToken.sol\":9288:9295  tokenId */\n      dup4\n        /* \"Midas/Midas_main/src/LPToken.sol\":9278:9283  _mint */\n      tag_260\n        /* \"Midas/Midas_main/src/LPToken.sol\":9278:9296  _mint(to, tokenId) */\n      jump\t// in\n    tag_259:\n        /* \"Midas/Midas_main/src/LPToken.sol\":9327:9380  _checkOnERC721Received(address(0), to, tokenId, data) */\n      tag_261\n        /* \"Midas/Midas_main/src/LPToken.sol\":9358:9359  0 */\n      0x00\n        /* \"Midas/Midas_main/src/LPToken.sol\":9362:9364  to */\n      dup5\n        /* \"Midas/Midas_main/src/LPToken.sol\":9366:9373  tokenId */\n      dup5\n        /* \"Midas/Midas_main/src/LPToken.sol\":9375:9379  data */\n      dup5\n        /* \"Midas/Midas_main/src/LPToken.sol\":9327:9349  _checkOnERC721Received */\n      tag_229\n        /* \"Midas/Midas_main/src/LPToken.sol\":9327:9380  _checkOnERC721Received(address(0), to, tokenId, data) */\n      jump\t// in\n    tag_261:\n        /* \"Midas/Midas_main/src/LPToken.sol\":9306:9457  require(... */\n      tag_113\n      jumpi\n      mload(0x40)\n      shl(0xe5, 0x461bcd)\n      dup2\n      mstore\n      0x04\n      add\n      tag_103\n      swap1\n      tag_232\n      jump\t// in\n        /* \"Midas/Midas_main/src/LPToken.sol\":14798:15630  function _checkOnERC721Received(... */\n    tag_229:\n        /* \"Midas/Midas_main/src/LPToken.sol\":14947:14951  bool */\n      0x00\n      sub(shl(0xa0, 0x01), 0x01)\n        /* \"Midas/Midas_main/src/LPToken.sol\":14967:14980  to.isContract */\n      dup5\n      and\n        /* \"@openzeppelin/contracts/utils/Address.sol\":1465:1484  account.code.length */\n      extcodesize\n        /* \"@openzeppelin/contracts/utils/Address.sol\":1465:1488  account.code.length > 0 */\n      iszero\n        /* \"Midas/Midas_main/src/LPToken.sol\":14963:15624  if (to.isContract()) {... */\n      tag_267\n      jumpi\n        /* \"Midas/Midas_main/src/LPToken.sol\":15002:15073  IERC721Receiver(to).onERC721Received(_msgSender(), from, tokenId, data) */\n      mload(0x40)\n      shl(0xe1, 0x0a85bd01)\n      dup2\n      mstore\n      sub(shl(0xa0, 0x01), 0x01)\n        /* \"Midas/Midas_main/src/LPToken.sol\":15002:15038  IERC721Receiver(to).onERC721Received */\n      dup6\n      and\n      swap1\n      0x150b7a02\n      swap1\n        /* \"Midas/Midas_main/src/LPToken.sol\":15002:15073  IERC721Receiver(to).onERC721Received(_msgSender(), from, tokenId, data) */\n      tag_269\n      swap1\n        /* \"@openzeppelin/contracts/utils/Context.sol\":719:729  msg.sender */\n      caller\n      swap1\n        /* \"Midas/Midas_main/src/LPToken.sol\":15053:15057  from */\n      dup10\n      swap1\n        /* \"Midas/Midas_main/src/LPToken.sol\":15059:15066  tokenId */\n      dup9\n      swap1\n        /* \"Midas/Midas_main/src/LPToken.sol\":15068:15072  data */\n      dup9\n      swap1\n        /* \"Midas/Midas_main/src/LPToken.sol\":15002:15073  IERC721Receiver(to).onERC721Received(_msgSender(), from, tokenId, data) */\n      0x04\n      add\n      tag_270\n      jump\t// in\n    tag_269:\n      0x20\n      mload(0x40)\n      dup1\n      dup4\n      sub\n      dup2\n      0x00\n      dup8\n      gas\n      call\n      swap3\n      pop\n      pop\n      pop\n      dup1\n      iszero\n      tag_271\n      jumpi\n      pop\n      0x40\n      dup1\n      mload\n      0x1f\n      returndatasize\n      swap1\n      dup2\n      add\n      not(0x1f)\n      and\n      dup3\n      add\n      swap1\n      swap3\n      mstore\n      tag_272\n      swap2\n      dup2\n      add\n      swap1\n      tag_273\n      jump\t// in\n    tag_272:\n      0x01\n    tag_271:\n        /* \"Midas/Midas_main/src/LPToken.sol\":14998:15572  try IERC721Receiver(to).onERC721Received(_msgSender(), from, tokenId, data) returns (bytes4 retval) {... */\n      tag_274\n      jumpi\n      returndatasize\n      dup1\n      dup1\n      iszero\n      tag_279\n      jumpi\n      mload(0x40)\n      swap2\n      pop\n      and(add(returndatasize, 0x3f), not(0x1f))\n      dup3\n      add\n      0x40\n      mstore\n      returndatasize\n      dup3\n      mstore\n      returndatasize\n      0x00\n      0x20\n      dup5\n      add\n      returndatacopy\n      jump(tag_278)\n    tag_279:\n      0x60\n      swap2\n      pop\n    tag_278:\n      pop\n        /* \"Midas/Midas_main/src/LPToken.sol\":15240:15253  reason.length */\n      dup1\n      mload\n        /* \"Midas/Midas_main/src/LPToken.sol\":15236:15558  if (reason.length == 0) {... */\n      tag_280\n      jumpi\n        /* \"Midas/Midas_main/src/LPToken.sol\":15282:15343  revert(\"LPToken: transfer to non ERC721Receiver implementer\") */\n      mload(0x40)\n      shl(0xe5, 0x461bcd)\n      dup2\n      mstore\n      0x04\n      add\n      tag_103\n      swap1\n      tag_232\n      jump\t// in\n        /* \"Midas/Midas_main/src/LPToken.sol\":15236:15558  if (reason.length == 0) {... */\n    tag_280:\n        /* \"Midas/Midas_main/src/LPToken.sol\":15510:15516  reason */\n      dup1\n        /* \"Midas/Midas_main/src/LPToken.sol\":15504:15517  mload(reason) */\n      mload\n        /* \"Midas/Midas_main/src/LPToken.sol\":15495:15501  reason */\n      dup2\n        /* \"Midas/Midas_main/src/LPToken.sol\":15491:15493  32 */\n      0x20\n        /* \"Midas/Midas_main/src/LPToken.sol\":15487:15502  add(32, reason) */\n      add\n        /* \"Midas/Midas_main/src/LPToken.sol\":15480:15518  revert(add(32, reason), mload(reason)) */\n      revert\n        /* \"Midas/Midas_main/src/LPToken.sol\":14998:15572  try IERC721Receiver(to).onERC721Received(_msgSender(), from, tokenId, data) returns (bytes4 retval) {... */\n    tag_274:\n      not(sub(shl(0xe0, 0x01), 0x01))\n        /* \"Midas/Midas_main/src/LPToken.sol\":15123:15174  retval == IERC721Receiver.onERC721Received.selector */\n      and\n      shl(0xe1, 0x0a85bd01)\n      eq\n      swap1\n      pop\n        /* \"Midas/Midas_main/src/LPToken.sol\":15116:15174  return retval == IERC721Receiver.onERC721Received.selector */\n      jump(tag_194)\n        /* \"Midas/Midas_main/src/LPToken.sol\":14963:15624  if (to.isContract()) {... */\n    tag_267:\n      pop\n        /* \"Midas/Midas_main/src/LPToken.sol\":15609:15613  true */\n      0x01\n        /* \"Midas/Midas_main/src/LPToken.sol\":14798:15630  function _checkOnERC721Received(... */\n      swap5\n      swap4\n      pop\n      pop\n      pop\n      pop\n      jump\t// out\n        /* \"@openzeppelin/contracts/utils/math/Math.sol\":9889:10779  function log10(uint256 value) internal pure returns (uint256) {... */\n    tag_236:\n        /* \"@openzeppelin/contracts/utils/math/Math.sol\":9942:9949  uint256 */\n      0x00\n      dup1\n      shl(0x40, 0x184f03e93ff9f4daa797ed6e38ed64bf6a1f01)\n        /* \"@openzeppelin/contracts/utils/math/Math.sol\":10017:10032  value >= 10**64 */\n      dup4\n      lt\n        /* \"@openzeppelin/contracts/utils/math/Math.sol\":10013:10112  if (value >= 10**64) {... */\n      tag_286\n      jumpi\n      shl(0x40, 0x184f03e93ff9f4daa797ed6e38ed64bf6a1f01)\n        /* \"@openzeppelin/contracts/utils/math/Math.sol\":10052:10067  value /= 10**64 */\n      dup4\n      div\n      swap3\n      pop\n        /* \"@openzeppelin/contracts/utils/math/Math.sol\":10095:10097  64 */\n      0x40\n        /* \"@openzeppelin/contracts/utils/math/Math.sol\":10085:10097  result += 64 */\n      add\n        /* \"@openzeppelin/contracts/utils/math/Math.sol\":10013:10112  if (value >= 10**64) {... */\n    tag_286:\n      shl(0x20, 0x04ee2d6d415b85acef81)\n        /* \"@openzeppelin/contracts/utils/math/Math.sol\":10129:10134  value */\n      dup4\n        /* \"@openzeppelin/contracts/utils/math/Math.sol\":10129:10144  value >= 10**32 */\n      lt\n        /* \"@openzeppelin/contracts/utils/math/Math.sol\":10125:10224  if (value >= 10**32) {... */\n      tag_289\n      jumpi\n      shl(0x20, 0x04ee2d6d415b85acef81)\n        /* \"@openzeppelin/contracts/utils/math/Math.sol\":10164:10179  value /= 10**32 */\n      dup4\n      div\n      swap3\n      pop\n        /* \"@openzeppelin/contracts/utils/math/Math.sol\":10207:10209  32 */\n      0x20\n        /* \"@openzeppelin/contracts/utils/math/Math.sol\":10197:10209  result += 32 */\n      add\n        /* \"@openzeppelin/contracts/utils/math/Math.sol\":10125:10224  if (value >= 10**32) {... */\n    tag_289:\n        /* \"@openzeppelin/contracts/utils/math/Math.sol\":10250:10256  10**16 */\n      0x2386f26fc10000\n        /* \"@openzeppelin/contracts/utils/math/Math.sol\":10241:10246  value */\n      dup4\n        /* \"@openzeppelin/contracts/utils/math/Math.sol\":10241:10256  value >= 10**16 */\n      lt\n        /* \"@openzeppelin/contracts/utils/math/Math.sol\":10237:10336  if (value >= 10**16) {... */\n      tag_292\n      jumpi\n        /* \"@openzeppelin/contracts/utils/math/Math.sol\":10285:10291  10**16 */\n      0x2386f26fc10000\n        /* \"@openzeppelin/contracts/utils/math/Math.sol\":10276:10291  value /= 10**16 */\n      dup4\n      div\n      swap3\n      pop\n        /* \"@openzeppelin/contracts/utils/math/Math.sol\":10319:10321  16 */\n      0x10\n        /* \"@openzeppelin/contracts/utils/math/Math.sol\":10309:10321  result += 16 */\n      add\n        /* \"@openzeppelin/contracts/utils/math/Math.sol\":10237:10336  if (value >= 10**16) {... */\n    tag_292:\n        /* \"@openzeppelin/contracts/utils/math/Math.sol\":10362:10367  10**8 */\n      0x05f5e100\n        /* \"@openzeppelin/contracts/utils/math/Math.sol\":10353:10358  value */\n      dup4\n        /* \"@openzeppelin/contracts/utils/math/Math.sol\":10353:10367  value >= 10**8 */\n      lt\n        /* \"@openzeppelin/contracts/utils/math/Math.sol\":10349:10445  if (value >= 10**8) {... */\n      tag_295\n      jumpi\n        /* \"@openzeppelin/contracts/utils/math/Math.sol\":10396:10401  10**8 */\n      0x05f5e100\n        /* \"@openzeppelin/contracts/utils/math/Math.sol\":10387:10401  value /= 10**8 */\n      dup4\n      div\n      swap3\n      pop\n        /* \"@openzeppelin/contracts/utils/math/Math.sol\":10429:10430  8 */\n      0x08\n        /* \"@openzeppelin/contracts/utils/math/Math.sol\":10419:10430  result += 8 */\n      add\n        /* \"@openzeppelin/contracts/utils/math/Math.sol\":10349:10445  if (value >= 10**8) {... */\n    tag_295:\n        /* \"@openzeppelin/contracts/utils/math/Math.sol\":10471:10476  10**4 */\n      0x2710\n        /* \"@openzeppelin/contracts/utils/math/Math.sol\":10462:10467  value */\n      dup4\n        /* \"@openzeppelin/contracts/utils/math/Math.sol\":10462:10476  value >= 10**4 */\n      lt\n        /* \"@openzeppelin/contracts/utils/math/Math.sol\":10458:10554  if (value >= 10**4) {... */\n      tag_298\n      jumpi\n        /* \"@openzeppelin/contracts/utils/math/Math.sol\":10505:10510  10**4 */\n      0x2710\n        /* \"@openzeppelin/contracts/utils/math/Math.sol\":10496:10510  value /= 10**4 */\n      dup4\n      div\n      swap3\n      pop\n        /* \"@openzeppelin/contracts/utils/math/Math.sol\":10538:10539  4 */\n      0x04\n        /* \"@openzeppelin/contracts/utils/math/Math.sol\":10528:10539  result += 4 */\n      add\n        /* \"@openzeppelin/contracts/utils/math/Math.sol\":10458:10554  if (value >= 10**4) {... */\n    tag_298:\n        /* \"@openzeppelin/contracts/utils/math/Math.sol\":10580:10585  10**2 */\n      0x64\n        /* \"@openzeppelin/contracts/utils/math/Math.sol\":10571:10576  value */\n      dup4\n        /* \"@openzeppelin/contracts/utils/math/Math.sol\":10571:10585  value >= 10**2 */\n      lt\n        /* \"@openzeppelin/contracts/utils/math/Math.sol\":10567:10663  if (value >= 10**2) {... */\n      tag_301\n      jumpi\n        /* \"@openzeppelin/contracts/utils/math/Math.sol\":10614:10619  10**2 */\n      0x64\n        /* \"@openzeppelin/contracts/utils/math/Math.sol\":10605:10619  value /= 10**2 */\n      dup4\n      div\n      swap3\n      pop\n        /* \"@openzeppelin/contracts/utils/math/Math.sol\":10647:10648  2 */\n      0x02\n        /* \"@openzeppelin/contracts/utils/math/Math.sol\":10637:10648  result += 2 */\n      add\n        /* \"@openzeppelin/contracts/utils/math/Math.sol\":10567:10663  if (value >= 10**2) {... */\n    tag_301:\n        /* \"@openzeppelin/contracts/utils/math/Math.sol\":10689:10694  10**1 */\n      0x0a\n        /* \"@openzeppelin/contracts/utils/math/Math.sol\":10680:10685  value */\n      dup4\n        /* \"@openzeppelin/contracts/utils/math/Math.sol\":10680:10694  value >= 10**1 */\n      lt\n        /* \"@openzeppelin/contracts/utils/math/Math.sol\":10676:10740  if (value >= 10**1) {... */\n      tag_88\n      jumpi\n        /* \"@openzeppelin/contracts/utils/math/Math.sol\":10724:10725  1 */\n      0x01\n        /* \"@openzeppelin/contracts/utils/math/Math.sol\":10714:10725  result += 1 */\n      add\n        /* \"@openzeppelin/contracts/utils/math/Math.sol\":10766:10772  result */\n      swap3\n        /* \"@openzeppelin/contracts/utils/math/Math.sol\":9889:10779  function log10(uint256 value) internal pure returns (uint256) {... */\n      swap2\n      pop\n      pop\n      jump\t// out\n        /* \"Midas/Midas_main/src/LPToken.sol\":9786:10709  function _mint(address to, uint256 tokenId) internal virtual {... */\n    tag_260:\n      sub(shl(0xa0, 0x01), 0x01)\n        /* \"Midas/Midas_main/src/LPToken.sol\":9865:9881  to != address(0) */\n      dup3\n      and\n        /* \"Midas/Midas_main/src/LPToken.sol\":9857:9919  require(to != address(0), \"LPToken: mint to the zero address\") */\n      tag_306\n      jumpi\n      mload(0x40)\n      shl(0xe5, 0x461bcd)\n      dup2\n      mstore\n        /* \"#utility.yul\":11116:11118   */\n      0x20\n        /* \"Midas/Midas_main/src/LPToken.sol\":9857:9919  require(to != address(0), \"LPToken: mint to the zero address\") */\n      0x04\n      dup3\n      add\n        /* \"#utility.yul\":11098:11119   */\n      mstore\n        /* \"#utility.yul\":11155:11157   */\n      0x21\n        /* \"#utility.yul\":11135:11153   */\n      0x24\n      dup3\n      add\n        /* \"#utility.yul\":11128:11158   */\n      mstore\n        /* \"#utility.yul\":11194:11228   */\n      0x4c50546f6b656e3a206d696e7420746f20746865207a65726f20616464726573\n        /* \"#utility.yul\":11174:11192   */\n      0x44\n      dup3\n      add\n        /* \"#utility.yul\":11167:11229   */\n      mstore\n      shl(0xf8, 0x73)\n        /* \"#utility.yul\":11245:11263   */\n      0x64\n      dup3\n      add\n        /* \"#utility.yul\":11238:11269   */\n      mstore\n        /* \"#utility.yul\":11286:11305   */\n      0x84\n      add\n        /* \"Midas/Midas_main/src/LPToken.sol\":9857:9919  require(to != address(0), \"LPToken: mint to the zero address\") */\n      tag_103\n        /* \"#utility.yul\":10914:11311   */\n      jump\n        /* \"Midas/Midas_main/src/LPToken.sol\":9857:9919  require(to != address(0), \"LPToken: mint to the zero address\") */\n    tag_306:\n        /* \"Midas/Midas_main/src/LPToken.sol\":9938:9954  _exists(tokenId) */\n      tag_309\n        /* \"Midas/Midas_main/src/LPToken.sol\":9946:9953  tokenId */\n      dup2\n        /* \"Midas/Midas_main/src/LPToken.sol\":9938:9945  _exists */\n      tag_184\n        /* \"Midas/Midas_main/src/LPToken.sol\":9938:9954  _exists(tokenId) */\n      jump\t// in\n    tag_309:\n        /* \"Midas/Midas_main/src/LPToken.sol\":9937:9954  !_exists(tokenId) */\n      iszero\n        /* \"Midas/Midas_main/src/LPToken.sol\":9929:9988  require(!_exists(tokenId), \"LPToken: token already minted\") */\n      tag_310\n      jumpi\n      mload(0x40)\n      shl(0xe5, 0x461bcd)\n      dup2\n      mstore\n      0x04\n      add\n      tag_103\n      swap1\n      tag_312\n      jump\t// in\n    tag_310:\n        /* \"Midas/Midas_main/src/LPToken.sol\":9999:10047  _beforeTokenTransfer(address(0), to, tokenId, 1) */\n      tag_313\n        /* \"Midas/Midas_main/src/LPToken.sol\":10028:10029  0 */\n      0x00\n        /* \"Midas/Midas_main/src/LPToken.sol\":10032:10034  to */\n      dup4\n        /* \"Midas/Midas_main/src/LPToken.sol\":10036:10043  tokenId */\n      dup4\n        /* \"Midas/Midas_main/src/LPToken.sol\":10045:10046  1 */\n      0x01\n        /* \"Midas/Midas_main/src/LPToken.sol\":9999:10019  _beforeTokenTransfer */\n      tag_205\n        /* \"Midas/Midas_main/src/LPToken.sol\":9999:10047  _beforeTokenTransfer(address(0), to, tokenId, 1) */\n      jump\t// in\n    tag_313:\n        /* \"Midas/Midas_main/src/LPToken.sol\":10143:10159  _exists(tokenId) */\n      tag_314\n        /* \"Midas/Midas_main/src/LPToken.sol\":10151:10158  tokenId */\n      dup2\n        /* \"Midas/Midas_main/src/LPToken.sol\":10143:10150  _exists */\n      tag_184\n        /* \"Midas/Midas_main/src/LPToken.sol\":10143:10159  _exists(tokenId) */\n      jump\t// in\n    tag_314:\n        /* \"Midas/Midas_main/src/LPToken.sol\":10142:10159  !_exists(tokenId) */\n      iszero\n        /* \"Midas/Midas_main/src/LPToken.sol\":10134:10193  require(!_exists(tokenId), \"LPToken: token already minted\") */\n      tag_315\n      jumpi\n      mload(0x40)\n      shl(0xe5, 0x461bcd)\n      dup2\n      mstore\n      0x04\n      add\n      tag_103\n      swap1\n      tag_312\n      jump\t// in\n    tag_315:\n      sub(shl(0xa0, 0x01), 0x01)\n        /* \"Midas/Midas_main/src/LPToken.sol\":10535:10548  _balances[to] */\n      dup3\n      and\n      0x00\n      dup2\n      dup2\n      mstore\n        /* \"Midas/Midas_main/src/LPToken.sol\":10535:10544  _balances */\n      0x05\n        /* \"Midas/Midas_main/src/LPToken.sol\":10535:10548  _balances[to] */\n      0x20\n      swap1\n      dup2\n      mstore\n      0x40\n      dup1\n      dup4\n      keccak256\n        /* \"Midas/Midas_main/src/LPToken.sol\":10535:10553  _balances[to] += 1 */\n      dup1\n      sload\n        /* \"Midas/Midas_main/src/LPToken.sol\":10552:10553  1 */\n      0x01\n        /* \"Midas/Midas_main/src/LPToken.sol\":10535:10553  _balances[to] += 1 */\n      add\n      swap1\n      sstore\n        /* \"Midas/Midas_main/src/LPToken.sol\":10574:10590  _owners[tokenId] */\n      dup5\n      dup4\n      mstore\n        /* \"Midas/Midas_main/src/LPToken.sol\":10574:10581  _owners */\n      0x04\n        /* \"Midas/Midas_main/src/LPToken.sol\":10574:10590  _owners[tokenId] */\n      swap1\n      swap2\n      mstore\n      dup1\n      dup3\n      keccak256\n        /* \"Midas/Midas_main/src/LPToken.sol\":10574:10595  _owners[tokenId] = to */\n      dup1\n      sload\n      not(sub(shl(0xa0, 0x01), 0x01))\n      and\n      dup5\n      or\n      swap1\n      sstore\n        /* \"Midas/Midas_main/src/LPToken.sol\":10611:10644  Transfer(address(0), to, tokenId) */\n      mload\n        /* \"Midas/Midas_main/src/LPToken.sol\":10582:10589  tokenId */\n      dup4\n      swap3\n        /* \"Midas/Midas_main/src/LPToken.sol\":10535:10548  _balances[to] */\n      swap2\n      swap1\n      0x00\n      dup1\n      mload\n      0x20\n      data_ada389e1fc24a8587c776340efb91b36e675792ab631816100d55df0b5cf3cbc\n      dup4\n      codecopy\n      dup2\n      mload\n      swap2\n      mstore\n        /* \"Midas/Midas_main/src/LPToken.sol\":10611:10644  Transfer(address(0), to, tokenId) */\n      swap1\n        /* \"Midas/Midas_main/src/LPToken.sol\":10535:10548  _balances[to] */\n      dup3\n      swap1\n        /* \"Midas/Midas_main/src/LPToken.sol\":10611:10644  Transfer(address(0), to, tokenId) */\n      log4\n        /* \"Midas/Midas_main/src/LPToken.sol\":2046:2152  function mint(address to, uint256 tokenId) public virtual onlyPair {... */\n      pop\n      pop\n      jump\t// out\n        /* \"#utility.yul\":14:145   */\n    tag_319:\n      not(sub(shl(0xe0, 0x01), 0x01))\n        /* \"#utility.yul\":88:120   */\n      dup2\n      and\n        /* \"#utility.yul\":78:121   */\n      dup2\n      eq\n        /* \"#utility.yul\":68:139   */\n      tag_138\n      jumpi\n        /* \"#utility.yul\":135:136   */\n      0x00\n        /* \"#utility.yul\":132:133   */\n      dup1\n        /* \"#utility.yul\":125:137   */\n      revert\n        /* \"#utility.yul\":150:395   */\n    tag_21:\n        /* \"#utility.yul\":208:214   */\n      0x00\n        /* \"#utility.yul\":261:263   */\n      0x20\n        /* \"#utility.yul\":249:258   */\n      dup3\n        /* \"#utility.yul\":240:247   */\n      dup5\n        /* \"#utility.yul\":236:259   */\n      sub\n        /* \"#utility.yul\":232:264   */\n      slt\n        /* \"#utility.yul\":229:281   */\n      iszero\n      tag_328\n      jumpi\n        /* \"#utility.yul\":277:278   */\n      0x00\n        /* \"#utility.yul\":274:275   */\n      dup1\n        /* \"#utility.yul\":267:279   */\n      revert\n        /* \"#utility.yul\":229:281   */\n    tag_328:\n        /* \"#utility.yul\":316:325   */\n      dup2\n        /* \"#utility.yul\":303:326   */\n      calldataload\n        /* \"#utility.yul\":335:365   */\n      tag_175\n        /* \"#utility.yul\":359:364   */\n      dup2\n        /* \"#utility.yul\":335:365   */\n      tag_319\n      jump\t// in\n        /* \"#utility.yul\":592:850   */\n    tag_320:\n        /* \"#utility.yul\":664:665   */\n      0x00\n        /* \"#utility.yul\":674:787   */\n    tag_332:\n        /* \"#utility.yul\":688:694   */\n      dup4\n        /* \"#utility.yul\":685:686   */\n      dup2\n        /* \"#utility.yul\":682:695   */\n      lt\n        /* \"#utility.yul\":674:787   */\n      iszero\n      tag_334\n      jumpi\n        /* \"#utility.yul\":764:775   */\n      dup2\n      dup2\n      add\n        /* \"#utility.yul\":758:776   */\n      mload\n        /* \"#utility.yul\":745:756   */\n      dup4\n      dup3\n      add\n        /* \"#utility.yul\":738:777   */\n      mstore\n        /* \"#utility.yul\":710:712   */\n      0x20\n        /* \"#utility.yul\":703:713   */\n      add\n        /* \"#utility.yul\":674:787   */\n      jump(tag_332)\n    tag_334:\n        /* \"#utility.yul\":805:811   */\n      dup4\n        /* \"#utility.yul\":802:803   */\n      dup2\n        /* \"#utility.yul\":799:812   */\n      gt\n        /* \"#utility.yul\":796:844   */\n      iszero\n      tag_165\n      jumpi\n      pop\n      pop\n        /* \"#utility.yul\":840:841   */\n      0x00\n        /* \"#utility.yul\":822:838   */\n      swap2\n      add\n        /* \"#utility.yul\":815:842   */\n      mstore\n        /* \"#utility.yul\":592:850   */\n      jump\t// out\n        /* \"#utility.yul\":855:1113   */\n    tag_321:\n        /* \"#utility.yul\":897:900   */\n      0x00\n        /* \"#utility.yul\":935:940   */\n      dup2\n        /* \"#utility.yul\":929:941   */\n      mload\n        /* \"#utility.yul\":962:968   */\n      dup1\n        /* \"#utility.yul\":957:960   */\n      dup5\n        /* \"#utility.yul\":950:969   */\n      mstore\n        /* \"#utility.yul\":978:1041   */\n      tag_337\n        /* \"#utility.yul\":1034:1040   */\n      dup2\n        /* \"#utility.yul\":1027:1031   */\n      0x20\n        /* \"#utility.yul\":1022:1025   */\n      dup7\n        /* \"#utility.yul\":1018:1032   */\n      add\n        /* \"#utility.yul\":1011:1015   */\n      0x20\n        /* \"#utility.yul\":1004:1009   */\n      dup7\n        /* \"#utility.yul\":1000:1016   */\n      add\n        /* \"#utility.yul\":978:1041   */\n      tag_320\n      jump\t// in\n    tag_337:\n        /* \"#utility.yul\":1095:1097   */\n      0x1f\n        /* \"#utility.yul\":1074:1089   */\n      add\n      not(0x1f)\n        /* \"#utility.yul\":1070:1099   */\n      and\n        /* \"#utility.yul\":1061:1100   */\n      swap3\n      swap1\n      swap3\n      add\n        /* \"#utility.yul\":1102:1106   */\n      0x20\n        /* \"#utility.yul\":1057:1107   */\n      add\n      swap3\n        /* \"#utility.yul\":855:1113   */\n      swap2\n      pop\n      pop\n      jump\t// out\n        /* \"#utility.yul\":1118:1338   */\n    tag_28:\n        /* \"#utility.yul\":1267:1269   */\n      0x20\n        /* \"#utility.yul\":1256:1265   */\n      dup2\n        /* \"#utility.yul\":1249:1270   */\n      mstore\n        /* \"#utility.yul\":1230:1234   */\n      0x00\n        /* \"#utility.yul\":1287:1332   */\n      tag_175\n        /* \"#utility.yul\":1328:1330   */\n      0x20\n        /* \"#utility.yul\":1317:1326   */\n      dup4\n        /* \"#utility.yul\":1313:1331   */\n      add\n        /* \"#utility.yul\":1305:1311   */\n      dup5\n        /* \"#utility.yul\":1287:1332   */\n      tag_321\n      jump\t// in\n        /* \"#utility.yul\":1343:1523   */\n    tag_31:\n        /* \"#utility.yul\":1402:1408   */\n      0x00\n        /* \"#utility.yul\":1455:1457   */\n      0x20\n        /* \"#utility.yul\":1443:1452   */\n      dup3\n        /* \"#utility.yul\":1434:1441   */\n      dup5\n        /* \"#utility.yul\":1430:1453   */\n      sub\n        /* \"#utility.yul\":1426:1458   */\n      slt\n        /* \"#utility.yul\":1423:1475   */\n      iszero\n      tag_341\n      jumpi\n        /* \"#utility.yul\":1471:1472   */\n      0x00\n        /* \"#utility.yul\":1468:1469   */\n      dup1\n        /* \"#utility.yul\":1461:1473   */\n      revert\n        /* \"#utility.yul\":1423:1475   */\n    tag_341:\n      pop\n        /* \"#utility.yul\":1494:1517   */\n      calldataload\n      swap2\n        /* \"#utility.yul\":1343:1523   */\n      swap1\n      pop\n      jump\t// out\n        /* \"#utility.yul\":1736:1909   */\n    tag_322:\n        /* \"#utility.yul\":1804:1824   */\n      dup1\n      calldataload\n      sub(shl(0xa0, 0x01), 0x01)\n        /* \"#utility.yul\":1853:1884   */\n      dup2\n      and\n        /* \"#utility.yul\":1843:1885   */\n      dup2\n      eq\n        /* \"#utility.yul\":1833:1903   */\n      tag_344\n      jumpi\n        /* \"#utility.yul\":1899:1900   */\n      0x00\n        /* \"#utility.yul\":1896:1897   */\n      dup1\n        /* \"#utility.yul\":1889:1901   */\n      revert\n        /* \"#utility.yul\":1833:1903   */\n    tag_344:\n        /* \"#utility.yul\":1736:1909   */\n      swap2\n      swap1\n      pop\n      jump\t// out\n        /* \"#utility.yul\":1914:2168   */\n    tag_37:\n        /* \"#utility.yul\":1982:1988   */\n      0x00\n        /* \"#utility.yul\":1990:1996   */\n      dup1\n        /* \"#utility.yul\":2043:2045   */\n      0x40\n        /* \"#utility.yul\":2031:2040   */\n      dup4\n        /* \"#utility.yul\":2022:2029   */\n      dup6\n        /* \"#utility.yul\":2018:2041   */\n      sub\n        /* \"#utility.yul\":2014:2046   */\n      slt\n        /* \"#utility.yul\":2011:2063   */\n      iszero\n      tag_346\n      jumpi\n        /* \"#utility.yul\":2059:2060   */\n      0x00\n        /* \"#utility.yul\":2056:2057   */\n      dup1\n        /* \"#utility.yul\":2049:2061   */\n      revert\n        /* \"#utility.yul\":2011:2063   */\n    tag_346:\n        /* \"#utility.yul\":2082:2111   */\n      tag_347\n        /* \"#utility.yul\":2101:2110   */\n      dup4\n        /* \"#utility.yul\":2082:2111   */\n      tag_322\n      jump\t// in\n    tag_347:\n        /* \"#utility.yul\":2072:2111   */\n      swap5\n        /* \"#utility.yul\":2158:2160   */\n      0x20\n        /* \"#utility.yul\":2143:2161   */\n      swap4\n      swap1\n      swap4\n      add\n        /* \"#utility.yul\":2130:2162   */\n      calldataload\n      swap4\n      pop\n      pop\n      pop\n        /* \"#utility.yul\":1914:2168   */\n      jump\t// out\n        /* \"#utility.yul\":2173:2501   */\n    tag_41:\n        /* \"#utility.yul\":2250:2256   */\n      0x00\n        /* \"#utility.yul\":2258:2264   */\n      dup1\n        /* \"#utility.yul\":2266:2272   */\n      0x00\n        /* \"#utility.yul\":2319:2321   */\n      0x60\n        /* \"#utility.yul\":2307:2316   */\n      dup5\n        /* \"#utility.yul\":2298:2305   */\n      dup7\n        /* \"#utility.yul\":2294:2317   */\n      sub\n        /* \"#utility.yul\":2290:2322   */\n      slt\n        /* \"#utility.yul\":2287:2339   */\n      iszero\n      tag_349\n      jumpi\n        /* \"#utility.yul\":2335:2336   */\n      0x00\n        /* \"#utility.yul\":2332:2333   */\n      dup1\n        /* \"#utility.yul\":2325:2337   */\n      revert\n        /* \"#utility.yul\":2287:2339   */\n    tag_349:\n        /* \"#utility.yul\":2358:2387   */\n      tag_350\n        /* \"#utility.yul\":2377:2386   */\n      dup5\n        /* \"#utility.yul\":2358:2387   */\n      tag_322\n      jump\t// in\n    tag_350:\n        /* \"#utility.yul\":2348:2387   */\n      swap3\n      pop\n        /* \"#utility.yul\":2406:2444   */\n      tag_351\n        /* \"#utility.yul\":2440:2442   */\n      0x20\n        /* \"#utility.yul\":2429:2438   */\n      dup6\n        /* \"#utility.yul\":2425:2443   */\n      add\n        /* \"#utility.yul\":2406:2444   */\n      tag_322\n      jump\t// in\n    tag_351:\n        /* \"#utility.yul\":2396:2444   */\n      swap2\n      pop\n        /* \"#utility.yul\":2491:2493   */\n      0x40\n        /* \"#utility.yul\":2480:2489   */\n      dup5\n        /* \"#utility.yul\":2476:2494   */\n      add\n        /* \"#utility.yul\":2463:2495   */\n      calldataload\n        /* \"#utility.yul\":2453:2495   */\n      swap1\n      pop\n        /* \"#utility.yul\":2173:2501   */\n      swap3\n      pop\n      swap3\n      pop\n      swap3\n      jump\t// out\n        /* \"#utility.yul\":2506:2692   */\n    tag_58:\n        /* \"#utility.yul\":2565:2571   */\n      0x00\n        /* \"#utility.yul\":2618:2620   */\n      0x20\n        /* \"#utility.yul\":2606:2615   */\n      dup3\n        /* \"#utility.yul\":2597:2604   */\n      dup5\n        /* \"#utility.yul\":2593:2616   */\n      sub\n        /* \"#utility.yul\":2589:2621   */\n      slt\n        /* \"#utility.yul\":2586:2638   */\n      iszero\n      tag_353\n      jumpi\n        /* \"#utility.yul\":2634:2635   */\n      0x00\n        /* \"#utility.yul\":2631:2632   */\n      dup1\n        /* \"#utility.yul\":2624:2636   */\n      revert\n        /* \"#utility.yul\":2586:2638   */\n    tag_353:\n        /* \"#utility.yul\":2657:2686   */\n      tag_175\n        /* \"#utility.yul\":2676:2685   */\n      dup3\n        /* \"#utility.yul\":2657:2686   */\n      tag_322\n      jump\t// in\n        /* \"#utility.yul\":2879:3226   */\n    tag_67:\n        /* \"#utility.yul\":2944:2950   */\n      0x00\n        /* \"#utility.yul\":2952:2958   */\n      dup1\n        /* \"#utility.yul\":3005:3007   */\n      0x40\n        /* \"#utility.yul\":2993:3002   */\n      dup4\n        /* \"#utility.yul\":2984:2991   */\n      dup6\n        /* \"#utility.yul\":2980:3003   */\n      sub\n        /* \"#utility.yul\":2976:3008   */\n      slt\n        /* \"#utility.yul\":2973:3025   */\n      iszero\n      tag_357\n      jumpi\n        /* \"#utility.yul\":3021:3022   */\n      0x00\n        /* \"#utility.yul\":3018:3019   */\n      dup1\n        /* \"#utility.yul\":3011:3023   */\n      revert\n        /* \"#utility.yul\":2973:3025   */\n    tag_357:\n        /* \"#utility.yul\":3044:3073   */\n      tag_358\n        /* \"#utility.yul\":3063:3072   */\n      dup4\n        /* \"#utility.yul\":3044:3073   */\n      tag_322\n      jump\t// in\n    tag_358:\n        /* \"#utility.yul\":3034:3073   */\n      swap2\n      pop\n        /* \"#utility.yul\":3123:3125   */\n      0x20\n        /* \"#utility.yul\":3112:3121   */\n      dup4\n        /* \"#utility.yul\":3108:3126   */\n      add\n        /* \"#utility.yul\":3095:3127   */\n      calldataload\n        /* \"#utility.yul\":3170:3175   */\n      dup1\n        /* \"#utility.yul\":3163:3176   */\n      iszero\n        /* \"#utility.yul\":3156:3177   */\n      iszero\n        /* \"#utility.yul\":3149:3154   */\n      dup2\n        /* \"#utility.yul\":3146:3178   */\n      eq\n        /* \"#utility.yul\":3136:3196   */\n      tag_359\n      jumpi\n        /* \"#utility.yul\":3192:3193   */\n      0x00\n        /* \"#utility.yul\":3189:3190   */\n      dup1\n        /* \"#utility.yul\":3182:3194   */\n      revert\n        /* \"#utility.yul\":3136:3196   */\n    tag_359:\n        /* \"#utility.yul\":3215:3220   */\n      dup1\n        /* \"#utility.yul\":3205:3220   */\n      swap2\n      pop\n      pop\n        /* \"#utility.yul\":2879:3226   */\n      swap3\n      pop\n      swap3\n      swap1\n      pop\n      jump\t// out\n        /* \"#utility.yul\":3231:3358   */\n    tag_239:\n        /* \"#utility.yul\":3292:3302   */\n      0x4e487b71\n        /* \"#utility.yul\":3287:3290   */\n      0xe0\n        /* \"#utility.yul\":3283:3303   */\n      shl\n        /* \"#utility.yul\":3280:3281   */\n      0x00\n        /* \"#utility.yul\":3273:3304   */\n      mstore\n        /* \"#utility.yul\":3323:3327   */\n      0x41\n        /* \"#utility.yul\":3320:3321   */\n      0x04\n        /* \"#utility.yul\":3313:3328   */\n      mstore\n        /* \"#utility.yul\":3347:3351   */\n      0x24\n        /* \"#utility.yul\":3344:3345   */\n      0x00\n        /* \"#utility.yul\":3337:3352   */\n      revert\n        /* \"#utility.yul\":3363:4501   */\n    tag_71:\n        /* \"#utility.yul\":3458:3464   */\n      0x00\n        /* \"#utility.yul\":3466:3472   */\n      dup1\n        /* \"#utility.yul\":3474:3480   */\n      0x00\n        /* \"#utility.yul\":3482:3488   */\n      dup1\n        /* \"#utility.yul\":3535:3538   */\n      0x80\n        /* \"#utility.yul\":3523:3532   */\n      dup6\n        /* \"#utility.yul\":3514:3521   */\n      dup8\n        /* \"#utility.yul\":3510:3533   */\n      sub\n        /* \"#utility.yul\":3506:3539   */\n      slt\n        /* \"#utility.yul\":3503:3556   */\n      iszero\n      tag_362\n      jumpi\n        /* \"#utility.yul\":3552:3553   */\n      0x00\n        /* \"#utility.yul\":3549:3550   */\n      dup1\n        /* \"#utility.yul\":3542:3554   */\n      revert\n        /* \"#utility.yul\":3503:3556   */\n    tag_362:\n        /* \"#utility.yul\":3575:3604   */\n      tag_363\n        /* \"#utility.yul\":3594:3603   */\n      dup6\n        /* \"#utility.yul\":3575:3604   */\n      tag_322\n      jump\t// in\n    tag_363:\n        /* \"#utility.yul\":3565:3604   */\n      swap4\n      pop\n        /* \"#utility.yul\":3623:3661   */\n      tag_364\n        /* \"#utility.yul\":3657:3659   */\n      0x20\n        /* \"#utility.yul\":3646:3655   */\n      dup7\n        /* \"#utility.yul\":3642:3660   */\n      add\n        /* \"#utility.yul\":3623:3661   */\n      tag_322\n      jump\t// in\n    tag_364:\n        /* \"#utility.yul\":3613:3661   */\n      swap3\n      pop\n        /* \"#utility.yul\":3708:3710   */\n      0x40\n        /* \"#utility.yul\":3693:3711   */\n      dup6\n      add\n        /* \"#utility.yul\":3680:3712   */\n      calldataload\n      swap2\n      pop\n        /* \"#utility.yul\":3763:3765   */\n      0x60\n        /* \"#utility.yul\":3748:3766   */\n      dup6\n      add\n        /* \"#utility.yul\":3735:3767   */\n      calldataload\n      sub(shl(0x40, 0x01), 0x01)\n        /* \"#utility.yul\":3816:3830   */\n      dup1\n      dup3\n      gt\n        /* \"#utility.yul\":3813:3847   */\n      iszero\n      tag_365\n      jumpi\n        /* \"#utility.yul\":3843:3844   */\n      0x00\n        /* \"#utility.yul\":3840:3841   */\n      dup1\n        /* \"#utility.yul\":3833:3845   */\n      revert\n        /* \"#utility.yul\":3813:3847   */\n    tag_365:\n        /* \"#utility.yul\":3881:3887   */\n      dup2\n        /* \"#utility.yul\":3870:3879   */\n      dup8\n        /* \"#utility.yul\":3866:3888   */\n      add\n        /* \"#utility.yul\":3856:3888   */\n      swap2\n      pop\n        /* \"#utility.yul\":3926:3933   */\n      dup8\n        /* \"#utility.yul\":3919:3923   */\n      0x1f\n        /* \"#utility.yul\":3915:3917   */\n      dup4\n        /* \"#utility.yul\":3911:3924   */\n      add\n        /* \"#utility.yul\":3907:3934   */\n      slt\n        /* \"#utility.yul\":3897:3952   */\n      tag_366\n      jumpi\n        /* \"#utility.yul\":3948:3949   */\n      0x00\n        /* \"#utility.yul\":3945:3946   */\n      dup1\n        /* \"#utility.yul\":3938:3950   */\n      revert\n        /* \"#utility.yul\":3897:3952   */\n    tag_366:\n        /* \"#utility.yul\":3984:3986   */\n      dup2\n        /* \"#utility.yul\":3971:3987   */\n      calldataload\n        /* \"#utility.yul\":4006:4008   */\n      dup2\n        /* \"#utility.yul\":4002:4004   */\n      dup2\n        /* \"#utility.yul\":3999:4009   */\n      gt\n        /* \"#utility.yul\":3996:4032   */\n      iszero\n      tag_368\n      jumpi\n        /* \"#utility.yul\":4012:4030   */\n      tag_368\n      tag_239\n      jump\t// in\n    tag_368:\n        /* \"#utility.yul\":4087:4089   */\n      0x40\n        /* \"#utility.yul\":4081:4090   */\n      mload\n        /* \"#utility.yul\":4055:4057   */\n      0x1f\n        /* \"#utility.yul\":4141:4154   */\n      dup3\n      add\n      not(0x1f)\n        /* \"#utility.yul\":4137:4159   */\n      swap1\n      dup2\n      and\n        /* \"#utility.yul\":4161:4163   */\n      0x3f\n        /* \"#utility.yul\":4133:4164   */\n      add\n        /* \"#utility.yul\":4129:4169   */\n      and\n        /* \"#utility.yul\":4117:4170   */\n      dup2\n      add\n      swap1\n        /* \"#utility.yul\":4185:4203   */\n      dup4\n      dup3\n      gt\n        /* \"#utility.yul\":4205:4227   */\n      dup2\n      dup4\n      lt\n        /* \"#utility.yul\":4182:4228   */\n      or\n        /* \"#utility.yul\":4179:4251   */\n      iszero\n      tag_370\n      jumpi\n        /* \"#utility.yul\":4231:4249   */\n      tag_370\n      tag_239\n      jump\t// in\n    tag_370:\n        /* \"#utility.yul\":4271:4281   */\n      dup2\n        /* \"#utility.yul\":4267:4269   */\n      0x40\n        /* \"#utility.yul\":4260:4282   */\n      mstore\n        /* \"#utility.yul\":4306:4308   */\n      dup3\n        /* \"#utility.yul\":4298:4304   */\n      dup2\n        /* \"#utility.yul\":4291:4309   */\n      mstore\n        /* \"#utility.yul\":4346:4353   */\n      dup11\n        /* \"#utility.yul\":4341:4343   */\n      0x20\n        /* \"#utility.yul\":4336:4338   */\n      dup5\n        /* \"#utility.yul\":4332:4334   */\n      dup8\n        /* \"#utility.yul\":4328:4339   */\n      add\n        /* \"#utility.yul\":4324:4344   */\n      add\n        /* \"#utility.yul\":4321:4354   */\n      gt\n        /* \"#utility.yul\":4318:4371   */\n      iszero\n      tag_371\n      jumpi\n        /* \"#utility.yul\":4367:4368   */\n      0x00\n        /* \"#utility.yul\":4364:4365   */\n      dup1\n        /* \"#utility.yul\":4357:4369   */\n      revert\n        /* \"#utility.yul\":4318:4371   */\n    tag_371:\n        /* \"#utility.yul\":4423:4425   */\n      dup3\n        /* \"#utility.yul\":4418:4420   */\n      0x20\n        /* \"#utility.yul\":4414:4416   */\n      dup7\n        /* \"#utility.yul\":4410:4421   */\n      add\n        /* \"#utility.yul\":4405:4407   */\n      0x20\n        /* \"#utility.yul\":4397:4403   */\n      dup4\n        /* \"#utility.yul\":4393:4408   */\n      add\n        /* \"#utility.yul\":4380:4426   */\n      calldatacopy\n        /* \"#utility.yul\":4468:4469   */\n      0x00\n        /* \"#utility.yul\":4463:4465   */\n      0x20\n        /* \"#utility.yul\":4458:4460   */\n      dup5\n        /* \"#utility.yul\":4450:4456   */\n      dup4\n        /* \"#utility.yul\":4446:4461   */\n      add\n        /* \"#utility.yul\":4442:4466   */\n      add\n        /* \"#utility.yul\":4435:4470   */\n      mstore\n        /* \"#utility.yul\":4489:4495   */\n      dup1\n        /* \"#utility.yul\":4479:4495   */\n      swap6\n      pop\n      pop\n      pop\n      pop\n      pop\n      pop\n        /* \"#utility.yul\":3363:4501   */\n      swap3\n      swap6\n      swap2\n      swap5\n      pop\n      swap3\n      pop\n      jump\t// out\n        /* \"#utility.yul\":4506:4766   */\n    tag_82:\n        /* \"#utility.yul\":4574:4580   */\n      0x00\n        /* \"#utility.yul\":4582:4588   */\n      dup1\n        /* \"#utility.yul\":4635:4637   */\n      0x40\n        /* \"#utility.yul\":4623:4632   */\n      dup4\n        /* \"#utility.yul\":4614:4621   */\n      dup6\n        /* \"#utility.yul\":4610:4633   */\n      sub\n        /* \"#utility.yul\":4606:4638   */\n      slt\n        /* \"#utility.yul\":4603:4655   */\n      iszero\n      tag_373\n      jumpi\n        /* \"#utility.yul\":4651:4652   */\n      0x00\n        /* \"#utility.yul\":4648:4649   */\n      dup1\n        /* \"#utility.yul\":4641:4653   */\n      revert\n        /* \"#utility.yul\":4603:4655   */\n    tag_373:\n        /* \"#utility.yul\":4674:4703   */\n      tag_374\n        /* \"#utility.yul\":4693:4702   */\n      dup4\n        /* \"#utility.yul\":4674:4703   */\n      tag_322\n      jump\t// in\n    tag_374:\n        /* \"#utility.yul\":4664:4703   */\n      swap2\n      pop\n        /* \"#utility.yul\":4722:4760   */\n      tag_375\n        /* \"#utility.yul\":4756:4758   */\n      0x20\n        /* \"#utility.yul\":4745:4754   */\n      dup5\n        /* \"#utility.yul\":4741:4759   */\n      add\n        /* \"#utility.yul\":4722:4760   */\n      tag_322\n      jump\t// in\n    tag_375:\n        /* \"#utility.yul\":4712:4760   */\n      swap1\n      pop\n        /* \"#utility.yul\":4506:4766   */\n      swap3\n      pop\n      swap3\n      swap1\n      pop\n      jump\t// out\n        /* \"#utility.yul\":4771:5151   */\n    tag_92:\n        /* \"#utility.yul\":4850:4851   */\n      0x01\n        /* \"#utility.yul\":4846:4858   */\n      dup2\n      dup2\n      shr\n      swap1\n        /* \"#utility.yul\":4893:4905   */\n      dup3\n      and\n      dup1\n        /* \"#utility.yul\":4914:4975   */\n      tag_377\n      jumpi\n        /* \"#utility.yul\":4968:4972   */\n      0x7f\n        /* \"#utility.yul\":4960:4966   */\n      dup3\n        /* \"#utility.yul\":4956:4973   */\n      and\n        /* \"#utility.yul\":4946:4973   */\n      swap2\n      pop\n        /* \"#utility.yul\":4914:4975   */\n    tag_377:\n        /* \"#utility.yul\":5021:5023   */\n      0x20\n        /* \"#utility.yul\":5013:5019   */\n      dup3\n        /* \"#utility.yul\":5010:5024   */\n      lt\n        /* \"#utility.yul\":4990:5008   */\n      dup2\n        /* \"#utility.yul\":4987:5025   */\n      eq\n        /* \"#utility.yul\":4984:5145   */\n      iszero\n      tag_378\n      jumpi\n        /* \"#utility.yul\":5067:5077   */\n      0x4e487b71\n        /* \"#utility.yul\":5062:5065   */\n      0xe0\n        /* \"#utility.yul\":5058:5078   */\n      shl\n        /* \"#utility.yul\":5055:5056   */\n      0x00\n        /* \"#utility.yul\":5048:5079   */\n      mstore\n        /* \"#utility.yul\":5102:5106   */\n      0x22\n        /* \"#utility.yul\":5099:5100   */\n      0x04\n        /* \"#utility.yul\":5092:5107   */\n      mstore\n        /* \"#utility.yul\":5130:5134   */\n      0x24\n        /* \"#utility.yul\":5127:5128   */\n      0x00\n        /* \"#utility.yul\":5120:5135   */\n      revert\n        /* \"#utility.yul\":4984:5145   */\n    tag_378:\n      pop\n        /* \"#utility.yul\":4771:5151   */\n      swap2\n      swap1\n      pop\n      jump\t// out\n        /* \"#utility.yul\":5990:6400   */\n    tag_121:\n        /* \"#utility.yul\":6192:6194   */\n      0x20\n        /* \"#utility.yul\":6174:6195   */\n      dup1\n      dup3\n      mstore\n        /* \"#utility.yul\":6231:6233   */\n      0x2e\n        /* \"#utility.yul\":6211:6229   */\n      swap1\n      dup3\n      add\n        /* \"#utility.yul\":6204:6234   */\n      mstore\n        /* \"#utility.yul\":6270:6304   */\n      0x4c50546f6b656e3a2063616c6c6572206973206e6f7420746f6b656e206f776e\n        /* \"#utility.yul\":6265:6267   */\n      0x40\n        /* \"#utility.yul\":6250:6268   */\n      dup3\n      add\n        /* \"#utility.yul\":6243:6305   */\n      mstore\n      shl(0x92, 0x195c881bdc88185c1c1c9bdd9959)\n        /* \"#utility.yul\":6336:6338   */\n      0x60\n        /* \"#utility.yul\":6321:6339   */\n      dup3\n      add\n        /* \"#utility.yul\":6314:6358   */\n      mstore\n        /* \"#utility.yul\":6390:6393   */\n      0x80\n        /* \"#utility.yul\":6375:6394   */\n      add\n      swap1\n        /* \"#utility.yul\":5990:6400   */\n      jump\t// out\n        /* \"#utility.yul\":6405:6754   */\n    tag_145:\n        /* \"#utility.yul\":6607:6609   */\n      0x20\n        /* \"#utility.yul\":6589:6610   */\n      dup1\n      dup3\n      mstore\n        /* \"#utility.yul\":6646:6648   */\n      0x19\n        /* \"#utility.yul\":6626:6644   */\n      swap1\n      dup3\n      add\n        /* \"#utility.yul\":6619:6649   */\n      mstore\n      shl(0x3a, 0x1314151bdad95b8e881a5b9d985b1a59081d1bdad95b881251)\n        /* \"#utility.yul\":6680:6682   */\n      0x40\n        /* \"#utility.yul\":6665:6683   */\n      dup3\n      add\n        /* \"#utility.yul\":6658:6713   */\n      mstore\n        /* \"#utility.yul\":6745:6747   */\n      0x60\n        /* \"#utility.yul\":6730:6748   */\n      add\n      swap1\n        /* \"#utility.yul\":6405:6754   */\n      jump\t// out\n        /* \"#utility.yul\":7170:7640   */\n    tag_179:\n        /* \"#utility.yul\":7349:7352   */\n      0x00\n        /* \"#utility.yul\":7387:7393   */\n      dup4\n        /* \"#utility.yul\":7381:7394   */\n      mload\n        /* \"#utility.yul\":7403:7456   */\n      tag_385\n        /* \"#utility.yul\":7449:7455   */\n      dup2\n        /* \"#utility.yul\":7444:7447   */\n      dup5\n        /* \"#utility.yul\":7437:7441   */\n      0x20\n        /* \"#utility.yul\":7429:7435   */\n      dup9\n        /* \"#utility.yul\":7425:7442   */\n      add\n        /* \"#utility.yul\":7403:7456   */\n      tag_320\n      jump\t// in\n    tag_385:\n        /* \"#utility.yul\":7519:7532   */\n      dup4\n      mload\n        /* \"#utility.yul\":7478:7494   */\n      swap1\n      dup4\n      add\n      swap1\n        /* \"#utility.yul\":7541:7598   */\n      tag_386\n        /* \"#utility.yul\":7519:7532   */\n      dup2\n        /* \"#utility.yul\":7478:7494   */\n      dup4\n        /* \"#utility.yul\":7575:7579   */\n      0x20\n        /* \"#utility.yul\":7563:7580   */\n      dup9\n      add\n        /* \"#utility.yul\":7541:7598   */\n      tag_320\n      jump\t// in\n    tag_386:\n        /* \"#utility.yul\":7614:7634   */\n      add\n      swap5\n        /* \"#utility.yul\":7170:7640   */\n      swap4\n      pop\n      pop\n      pop\n      pop\n      jump\t// out\n        /* \"#utility.yul\":9219:9634   */\n    tag_232:\n        /* \"#utility.yul\":9421:9423   */\n      0x20\n        /* \"#utility.yul\":9403:9424   */\n      dup1\n      dup3\n      mstore\n        /* \"#utility.yul\":9460:9462   */\n      0x33\n        /* \"#utility.yul\":9440:9458   */\n      swap1\n      dup3\n      add\n        /* \"#utility.yul\":9433:9463   */\n      mstore\n        /* \"#utility.yul\":9499:9533   */\n      0x4c50546f6b656e3a207472616e7366657220746f206e6f6e2045524337323152\n        /* \"#utility.yul\":9494:9496   */\n      0x40\n        /* \"#utility.yul\":9479:9497   */\n      dup3\n      add\n        /* \"#utility.yul\":9472:9534   */\n      mstore\n      shl(0x69, 0x32b1b2b4bb32b91034b6b83632b6b2b73a32b9)\n        /* \"#utility.yul\":9565:9567   */\n      0x60\n        /* \"#utility.yul\":9550:9568   */\n      dup3\n      add\n        /* \"#utility.yul\":9543:9592   */\n      mstore\n        /* \"#utility.yul\":9624:9627   */\n      0x80\n        /* \"#utility.yul\":9609:9628   */\n      add\n      swap1\n        /* \"#utility.yul\":9219:9634   */\n      jump\t// out\n        /* \"#utility.yul\":9771:9898   */\n    tag_323:\n        /* \"#utility.yul\":9832:9842   */\n      0x4e487b71\n        /* \"#utility.yul\":9827:9830   */\n      0xe0\n        /* \"#utility.yul\":9823:9843   */\n      shl\n        /* \"#utility.yul\":9820:9821   */\n      0x00\n        /* \"#utility.yul\":9813:9844   */\n      mstore\n        /* \"#utility.yul\":9863:9867   */\n      0x11\n        /* \"#utility.yul\":9860:9861   */\n      0x04\n        /* \"#utility.yul\":9853:9868   */\n      mstore\n        /* \"#utility.yul\":9887:9891   */\n      0x24\n        /* \"#utility.yul\":9884:9885   */\n      0x00\n        /* \"#utility.yul\":9877:9892   */\n      revert\n        /* \"#utility.yul\":9903:10028   */\n    tag_253:\n        /* \"#utility.yul\":9943:9947   */\n      0x00\n        /* \"#utility.yul\":9971:9972   */\n      dup3\n        /* \"#utility.yul\":9968:9969   */\n      dup3\n        /* \"#utility.yul\":9965:9973   */\n      lt\n        /* \"#utility.yul\":9962:9996   */\n      iszero\n      tag_396\n      jumpi\n        /* \"#utility.yul\":9976:9994   */\n      tag_396\n      tag_323\n      jump\t// in\n    tag_396:\n      pop\n        /* \"#utility.yul\":10013:10022   */\n      sub\n      swap1\n        /* \"#utility.yul\":9903:10028   */\n      jump\t// out\n        /* \"#utility.yul\":10033:10161   */\n    tag_256:\n        /* \"#utility.yul\":10073:10076   */\n      0x00\n        /* \"#utility.yul\":10104:10105   */\n      dup3\n        /* \"#utility.yul\":10100:10106   */\n      not\n        /* \"#utility.yul\":10097:10098   */\n      dup3\n        /* \"#utility.yul\":10094:10107   */\n      gt\n        /* \"#utility.yul\":10091:10130   */\n      iszero\n      tag_399\n      jumpi\n        /* \"#utility.yul\":10110:10128   */\n      tag_399\n      tag_323\n      jump\t// in\n    tag_399:\n      pop\n        /* \"#utility.yul\":10146:10155   */\n      add\n      swap1\n        /* \"#utility.yul\":10033:10161   */\n      jump\t// out\n        /* \"#utility.yul\":10166:10655   */\n    tag_270:\n      sub(shl(0xa0, 0x01), 0x01)\n        /* \"#utility.yul\":10435:10450   */\n      dup6\n      dup2\n      and\n        /* \"#utility.yul\":10417:10451   */\n      dup3\n      mstore\n        /* \"#utility.yul\":10487:10502   */\n      dup5\n      and\n        /* \"#utility.yul\":10482:10484   */\n      0x20\n        /* \"#utility.yul\":10467:10485   */\n      dup3\n      add\n        /* \"#utility.yul\":10460:10503   */\n      mstore\n        /* \"#utility.yul\":10534:10536   */\n      0x40\n        /* \"#utility.yul\":10519:10537   */\n      dup2\n      add\n        /* \"#utility.yul\":10512:10546   */\n      dup4\n      swap1\n      mstore\n        /* \"#utility.yul\":10582:10585   */\n      0x80\n        /* \"#utility.yul\":10577:10579   */\n      0x60\n        /* \"#utility.yul\":10562:10580   */\n      dup3\n      add\n        /* \"#utility.yul\":10555:10586   */\n      dup2\n      swap1\n      mstore\n        /* \"#utility.yul\":10360:10364   */\n      0x00\n      swap1\n        /* \"#utility.yul\":10603:10649   */\n      tag_401\n      swap1\n        /* \"#utility.yul\":10629:10648   */\n      dup4\n      add\n        /* \"#utility.yul\":10621:10627   */\n      dup5\n        /* \"#utility.yul\":10603:10649   */\n      tag_321\n      jump\t// in\n    tag_401:\n        /* \"#utility.yul\":10595:10649   */\n      swap7\n        /* \"#utility.yul\":10166:10655   */\n      swap6\n      pop\n      pop\n      pop\n      pop\n      pop\n      pop\n      jump\t// out\n        /* \"#utility.yul\":10660:10909   */\n    tag_273:\n        /* \"#utility.yul\":10729:10735   */\n      0x00\n        /* \"#utility.yul\":10782:10784   */\n      0x20\n        /* \"#utility.yul\":10770:10779   */\n      dup3\n        /* \"#utility.yul\":10761:10768   */\n      dup5\n        /* \"#utility.yul\":10757:10780   */\n      sub\n        /* \"#utility.yul\":10753:10785   */\n      slt\n        /* \"#utility.yul\":10750:10802   */\n      iszero\n      tag_403\n      jumpi\n        /* \"#utility.yul\":10798:10799   */\n      0x00\n        /* \"#utility.yul\":10795:10796   */\n      dup1\n        /* \"#utility.yul\":10788:10800   */\n      revert\n        /* \"#utility.yul\":10750:10802   */\n    tag_403:\n        /* \"#utility.yul\":10830:10839   */\n      dup2\n        /* \"#utility.yul\":10824:10840   */\n      mload\n        /* \"#utility.yul\":10849:10879   */\n      tag_175\n        /* \"#utility.yul\":10873:10878   */\n      dup2\n        /* \"#utility.yul\":10849:10879   */\n      tag_319\n      jump\t// in\n        /* \"#utility.yul\":11316:11669   */\n    tag_312:\n        /* \"#utility.yul\":11518:11520   */\n      0x20\n        /* \"#utility.yul\":11500:11521   */\n      dup1\n      dup3\n      mstore\n        /* \"#utility.yul\":11557:11559   */\n      0x1d\n        /* \"#utility.yul\":11537:11555   */\n      swap1\n      dup3\n      add\n        /* \"#utility.yul\":11530:11560   */\n      mstore\n        /* \"#utility.yul\":11596:11627   */\n      0x4c50546f6b656e3a20746f6b656e20616c7265616479206d696e746564000000\n        /* \"#utility.yul\":11591:11593   */\n      0x40\n        /* \"#utility.yul\":11576:11594   */\n      dup3\n      add\n        /* \"#utility.yul\":11569:11628   */\n      mstore\n        /* \"#utility.yul\":11660:11662   */\n      0x60\n        /* \"#utility.yul\":11645:11663   */\n      add\n      swap1\n        /* \"#utility.yul\":11316:11669   */\n      jump\t// out\n    stop\n    data_ada389e1fc24a8587c776340efb91b36e675792ab631816100d55df0b5cf3cbc ddf252ad1be2c89b69c2b068fc378daa952ba7f163c4a11628f55a4df523b3ef\n\n    auxdata: 0xa2646970667358221220dcd4107ecdae1c68fc5ddb541ebfe4982a8137784f4f83acad9aad1b16295bee64736f6c634300080a0033\n}\n",
				"bytecode": {
					"linkReferences": {},
					"object": "60806040523480156200001157600080fd5b50604051620017e6380380620017e68339810160408190526200003491620001fc565b82516200004990600090602086019062000089565b5081516200005f90600190602085019062000089565b50600380546001600160a01b0319166001600160a01b039290921691909117905550620002c69050565b828054620000979062000289565b90600052602060002090601f016020900481019282620000bb576000855562000106565b82601f10620000d657805160ff191683800117855562000106565b8280016001018555821562000106579182015b8281111562000106578251825591602001919060010190620000e9565b506200011492915062000118565b5090565b5b8082111562000114576000815560010162000119565b634e487b7160e01b600052604160045260246000fd5b600082601f8301126200015757600080fd5b81516001600160401b03808211156200017457620001746200012f565b604051601f8301601f19908116603f011681019082821181831017156200019f576200019f6200012f565b81604052838152602092508683858801011115620001bc57600080fd5b600091505b83821015620001e05785820183015181830184015290820190620001c1565b83821115620001f25760008385830101525b9695505050505050565b6000806000606084860312156200021257600080fd5b83516001600160401b03808211156200022a57600080fd5b620002388783880162000145565b945060208601519150808211156200024f57600080fd5b506200025e8682870162000145565b604086015190935090506001600160a01b03811681146200027e57600080fd5b809150509250925092565b600181811c908216806200029e57607f821691505b60208210811415620002c057634e487b7160e01b600052602260045260246000fd5b50919050565b61151080620002d66000396000f3fe608060405234801561001057600080fd5b50600436106100d05760003560e01c806301ffc9a7146100d557806306fdde03146100fd578063081812fc14610112578063095ea7b31461013d57806323b872dd1461015257806340c10f191461016557806342842e0e1461017857806342966c681461018b5780636352211e1461019e57806370a08231146101b157806395d89b41146101d2578063a22cb465146101da578063b88d4fde146101ed578063c4d66de814610200578063c87b56dd14610213578063e985e9c514610226575b600080fd5b6100e86100e3366004611008565b610239565b60405190151581526020015b60405180910390f35b61010561028b565b6040516100f4919061107d565b610125610120366004611090565b61031d565b6040516001600160a01b0390911681526020016100f4565b61015061014b3660046110c5565b610344565b005b6101506101603660046110ef565b610460565b6101506101733660046110c5565b610492565b6101506101863660046110ef565b6104b7565b610150610199366004611090565b6104d2565b6101256101ac366004611090565b61051a565b6101c46101bf36600461112b565b61054e565b6040519081526020016100f4565b6101056105d5565b6101506101e8366004611146565b6105e4565b6101506101fb366004611198565b6105ef565b61015061020e36600461112b565b610627565b610105610221366004611090565b610660565b6100e8610234366004611273565b6106d4565b60006001600160e01b031982166380ac58cd60e01b148061026a57506001600160e01b03198216635b5e139f60e01b145b8061028557506301ffc9a760e01b6001600160e01b03198316145b92915050565b60606000805461029a906112a6565b80601f01602080910402602001604051908101604052809291908181526020018280546102c6906112a6565b80156103135780601f106102e857610100808354040283529160200191610313565b820191906000526020600020905b8154815290600101906020018083116102f657829003601f168201915b5050505050905090565b600061032882610702565b506000908152600660205260409020546001600160a01b031690565b600061034f8261051a565b9050806001600160a01b0316836001600160a01b031614156103c35760405162461bcd60e51b815260206004820152602260248201527f4c50546f6b656e3a20617070726f76616c20746f2063757272656e74206f776e60448201526132b960f11b60648201526084015b60405180910390fd5b336001600160a01b03821614806103df57506103df81336106d4565b6104515760405162461bcd60e51b815260206004820152603e60248201527f4c50546f6b656e3a20617070726f76652063616c6c6572206973206e6f74207460448201527f6f6b656e206f776e6572206f7220617070726f76656420666f7220616c6c000060648201526084016103ba565b61045b8383610727565b505050565b61046b335b82610795565b6104875760405162461bcd60e51b81526004016103ba906112e1565b61045b8383836107f4565b6002546001600160a01b031633146104a957600080fd5b6104b382826109d2565b5050565b61045b838383604051806020016040528060008152506105ef565b6002546001600160a01b031633146104e957600080fd5b6104f233610465565b61050e5760405162461bcd60e51b81526004016103ba906112e1565b610517816109ec565b50565b60008061052683610a7d565b90506001600160a01b0381166102855760405162461bcd60e51b81526004016103ba9061132f565b60006001600160a01b0382166105b95760405162461bcd60e51b815260206004820152602a60248201527f4c50546f6b656e3a2061646472657373207a65726f206973206e6f742061207660448201526930b634b21037bbb732b960b11b60648201526084016103ba565b506001600160a01b031660009081526005602052604090205490565b60606001805461029a906112a6565b6104b3338383610a98565b6105f93383610795565b6106155760405162461bcd60e51b81526004016103ba906112e1565b61062184848484610b64565b50505050565b6003546001600160a01b0316331461063e57600080fd5b600280546001600160a01b0319166001600160a01b0392909216919091179055565b606061066b82610702565b600061068260408051602081019091526000815290565b905060008151116106a257604051806020016040528060008152506106cd565b806106ac84610b97565b6040516020016106bd929190611362565b6040516020818303038152906040525b9392505050565b6001600160a01b03918216600090815260076020908152604080832093909416825291909152205460ff1690565b61070b81610c33565b6105175760405162461bcd60e51b81526004016103ba9061132f565b600081815260066020526040902080546001600160a01b0319166001600160a01b038416908117909155819061075c8261051a565b6001600160a01b03167f8c5be1e5ebec7d5bd14f71427d1e84f3dd0314c0f7b2291e5b200ac8c7c3b92560405160405180910390a45050565b6000806107a18361051a565b9050806001600160a01b0316846001600160a01b031614806107c857506107c881856106d4565b806107ec5750836001600160a01b03166107e18461031d565b6001600160a01b0316145b949350505050565b826001600160a01b03166108078261051a565b6001600160a01b03161461086c5760405162461bcd60e51b815260206004820152602660248201527f4c50546f6b656e3a207472616e736665722066726f6d20696e636f72726563746044820152651037bbb732b960d11b60648201526084016103ba565b6001600160a01b0382166108d05760405162461bcd60e51b815260206004820152602560248201527f4c50546f6b656e3a207472616e7366657220746f20746865207a65726f206164604482015264647265737360d81b60648201526084016103ba565b6108dd8383836001610c50565b826001600160a01b03166108f08261051a565b6001600160a01b0316146109545760405162461bcd60e51b815260206004820152602560248201527f4552433732313a207472616e736665722066726f6d20696e636f72726563742060448201526437bbb732b960d91b60648201526084016103ba565b600081815260066020908152604080832080546001600160a01b03199081169091556001600160a01b0387811680865260058552838620805460001901905590871680865283862080546001019055868652600490945282852080549092168417909155905184936000805160206114bb83398151915291a4505050565b6104b3828260405180602001604052806000815250610cd8565b60006109f78261051a565b9050610a07816000846001610c50565b610a108261051a565b600083815260066020908152604080832080546001600160a01b03199081169091556001600160a01b0385168085526005845282852080546000190190558785526004909352818420805490911690555192935084926000805160206114bb833981519152908390a45050565b6000908152600460205260409020546001600160a01b031690565b816001600160a01b0316836001600160a01b03161415610af75760405162461bcd60e51b815260206004820152601a60248201527926282a37b5b2b71d1030b8383937bb32903a379031b0b63632b960311b60448201526064016103ba565b6001600160a01b03838116600081815260076020908152604080832094871680845294825291829020805460ff191686151590811790915591519182527f17307eab39ab6107e8899845ad3d59bd9653f200f220920489ca2b5937696c31910160405180910390a3505050565b610b6f8484846107f4565b610b7b84848484610d0b565b6106215760405162461bcd60e51b81526004016103ba90611391565b60606000610ba483610e09565b60010190506000816001600160401b03811115610bc357610bc3611182565b6040519080825280601f01601f191660200182016040528015610bed576020820181803683370190505b5090508181016020015b600019016f181899199a1a9b1b9c1cb0b131b232b360811b600a86061a8153600a8504945084610c2657610c2b565b610bf7565b509392505050565b600080610c3f83610a7d565b6001600160a01b0316141592915050565b6001811115610621576001600160a01b03841615610c96576001600160a01b03841660009081526005602052604081208054839290610c909084906113fa565b90915550505b6001600160a01b03831615610621576001600160a01b03831660009081526005602052604081208054839290610ccd908490611411565b909155505050505050565b610ce28383610edf565b610cef6000848484610d0b565b61045b5760405162461bcd60e51b81526004016103ba90611391565b60006001600160a01b0384163b15610dfe57604051630a85bd0160e11b81526001600160a01b0385169063150b7a0290610d4f903390899088908890600401611429565b6020604051808303816000875af1925050508015610d8a575060408051601f3d908101601f19168201909252610d8791810190611466565b60015b610de4573d808015610db8576040519150601f19603f3d011682016040523d82523d6000602084013e610dbd565b606091505b508051610ddc5760405162461bcd60e51b81526004016103ba90611391565b805181602001fd5b6001600160e01b031916630a85bd0160e11b1490506107ec565b506001949350505050565b60008072184f03e93ff9f4daa797ed6e38ed64bf6a1f0160401b8310610e485772184f03e93ff9f4daa797ed6e38ed64bf6a1f0160401b830492506040015b6904ee2d6d415b85acef8160201b8310610e72576904ee2d6d415b85acef8160201b830492506020015b662386f26fc100008310610e9057662386f26fc10000830492506010015b6305f5e1008310610ea8576305f5e100830492506008015b6127108310610ebc57612710830492506004015b60648310610ece576064830492506002015b600a83106102855760010192915050565b6001600160a01b038216610f3f5760405162461bcd60e51b815260206004820152602160248201527f4c50546f6b656e3a206d696e7420746f20746865207a65726f206164647265736044820152607360f81b60648201526084016103ba565b610f4881610c33565b15610f655760405162461bcd60e51b81526004016103ba90611483565b610f73600083836001610c50565b610f7c81610c33565b15610f995760405162461bcd60e51b81526004016103ba90611483565b6001600160a01b038216600081815260056020908152604080832080546001019055848352600490915280822080546001600160a01b0319168417905551839291906000805160206114bb833981519152908290a45050565b6001600160e01b03198116811461051757600080fd5b60006020828403121561101a57600080fd5b81356106cd81610ff2565b60005b83811015611040578181015183820152602001611028565b838111156106215750506000910152565b60008151808452611069816020860160208601611025565b601f01601f19169290920160200192915050565b6020815260006106cd6020830184611051565b6000602082840312156110a257600080fd5b5035919050565b80356001600160a01b03811681146110c057600080fd5b919050565b600080604083850312156110d857600080fd5b6110e1836110a9565b946020939093013593505050565b60008060006060848603121561110457600080fd5b61110d846110a9565b925061111b602085016110a9565b9150604084013590509250925092565b60006020828403121561113d57600080fd5b6106cd826110a9565b6000806040838503121561115957600080fd5b611162836110a9565b91506020830135801515811461117757600080fd5b809150509250929050565b634e487b7160e01b600052604160045260246000fd5b600080600080608085870312156111ae57600080fd5b6111b7856110a9565b93506111c5602086016110a9565b92506040850135915060608501356001600160401b03808211156111e857600080fd5b818701915087601f8301126111fc57600080fd5b81358181111561120e5761120e611182565b604051601f8201601f19908116603f0116810190838211818310171561123657611236611182565b816040528281528a602084870101111561124f57600080fd5b82602086016020830137600060208483010152809550505050505092959194509250565b6000806040838503121561128657600080fd5b61128f836110a9565b915061129d602084016110a9565b90509250929050565b600181811c908216806112ba57607f821691505b602082108114156112db57634e487b7160e01b600052602260045260246000fd5b50919050565b6020808252602e908201527f4c50546f6b656e3a2063616c6c6572206973206e6f7420746f6b656e206f776e60408201526d195c881bdc88185c1c1c9bdd995960921b606082015260800190565b6020808252601990820152781314151bdad95b8e881a5b9d985b1a59081d1bdad95b881251603a1b604082015260600190565b60008351611374818460208801611025565b835190830190611388818360208801611025565b01949350505050565b60208082526033908201527f4c50546f6b656e3a207472616e7366657220746f206e6f6e204552433732315260408201527232b1b2b4bb32b91034b6b83632b6b2b73a32b960691b606082015260800190565b634e487b7160e01b600052601160045260246000fd5b60008282101561140c5761140c6113e4565b500390565b60008219821115611424576114246113e4565b500190565b6001600160a01b038581168252841660208201526040810183905260806060820181905260009061145c90830184611051565b9695505050505050565b60006020828403121561147857600080fd5b81516106cd81610ff2565b6020808252601d908201527f4c50546f6b656e3a20746f6b656e20616c7265616479206d696e74656400000060408201526060019056feddf252ad1be2c89b69c2b068fc378daa952ba7f163c4a11628f55a4df523b3efa2646970667358221220dcd4107ecdae1c68fc5ddb541ebfe4982a8137784f4f83acad9aad1b16295bee64736f6c634300080a0033",
					"opcodes": "PUSH1 0x80 PUSH1 0x40 MSTORE CALLVALUE DUP1 ISZERO PUSH3 0x11 JUMPI PUSH1 0x0 DUP1 REVERT JUMPDEST POP PUSH1 0x40 MLOAD PUSH3 0x17E6 CODESIZE SUB DUP1 PUSH3 0x17E6 DUP4 CODECOPY DUP2 ADD PUSH1 0x40 DUP2 SWAP1 MSTORE PUSH3 0x34 SWAP2 PUSH3 0x1FC JUMP JUMPDEST DUP3 MLOAD PUSH3 0x49 SWAP1 PUSH1 0x0 SWAP1 PUSH1 0x20 DUP7 ADD SWAP1 PUSH3 0x89 JUMP JUMPDEST POP DUP2 MLOAD PUSH3 0x5F SWAP1 PUSH1 0x1 SWAP1 PUSH1 0x20 DUP6 ADD SWAP1 PUSH3 0x89 JUMP JUMPDEST POP PUSH1 0x3 DUP1 SLOAD PUSH1 0x1 PUSH1 0x1 PUSH1 0xA0 SHL SUB NOT AND PUSH1 0x1 PUSH1 0x1 PUSH1 0xA0 SHL SUB SWAP3 SWAP1 SWAP3 AND SWAP2 SWAP1 SWAP2 OR SWAP1 SSTORE POP PUSH3 0x2C6 SWAP1 POP JUMP JUMPDEST DUP3 DUP1 SLOAD PUSH3 0x97 SWAP1 PUSH3 0x289 JUMP JUMPDEST SWAP1 PUSH1 0x0 MSTORE PUSH1 0x20 PUSH1 0x0 KECCAK256 SWAP1 PUSH1 0x1F ADD PUSH1 0x20 SWAP1 DIV DUP2 ADD SWAP3 DUP3 PUSH3 0xBB JUMPI PUSH1 0x0 DUP6 SSTORE PUSH3 0x106 JUMP JUMPDEST DUP3 PUSH1 0x1F LT PUSH3 0xD6 JUMPI DUP1 MLOAD PUSH1 0xFF NOT AND DUP4 DUP1 ADD OR DUP6 SSTORE PUSH3 0x106 JUMP JUMPDEST DUP3 DUP1 ADD PUSH1 0x1 ADD DUP6 SSTORE DUP3 ISZERO PUSH3 0x106 JUMPI SWAP2 DUP3 ADD JUMPDEST DUP3 DUP2 GT ISZERO PUSH3 0x106 JUMPI DUP3 MLOAD DUP3 SSTORE SWAP2 PUSH1 0x20 ADD SWAP2 SWAP1 PUSH1 0x1 ADD SWAP1 PUSH3 0xE9 JUMP JUMPDEST POP PUSH3 0x114 SWAP3 SWAP2 POP PUSH3 0x118 JUMP JUMPDEST POP SWAP1 JUMP JUMPDEST JUMPDEST DUP1 DUP3 GT ISZERO PUSH3 0x114 JUMPI PUSH1 0x0 DUP2 SSTORE PUSH1 0x1 ADD PUSH3 0x119 JUMP JUMPDEST PUSH4 0x4E487B71 PUSH1 0xE0 SHL PUSH1 0x0 MSTORE PUSH1 0x41 PUSH1 0x4 MSTORE PUSH1 0x24 PUSH1 0x0 REVERT JUMPDEST PUSH1 0x0 DUP3 PUSH1 0x1F DUP4 ADD SLT PUSH3 0x157 JUMPI PUSH1 0x0 DUP1 REVERT JUMPDEST DUP2 MLOAD PUSH1 0x1 PUSH1 0x1 PUSH1 0x40 SHL SUB DUP1 DUP3 GT ISZERO PUSH3 0x174 JUMPI PUSH3 0x174 PUSH3 0x12F JUMP JUMPDEST PUSH1 0x40 MLOAD PUSH1 0x1F DUP4 ADD PUSH1 0x1F NOT SWAP1 DUP2 AND PUSH1 0x3F ADD AND DUP2 ADD SWAP1 DUP3 DUP3 GT DUP2 DUP4 LT OR ISZERO PUSH3 0x19F JUMPI PUSH3 0x19F PUSH3 0x12F JUMP JUMPDEST DUP2 PUSH1 0x40 MSTORE DUP4 DUP2 MSTORE PUSH1 0x20 SWAP3 POP DUP7 DUP4 DUP6 DUP9 ADD ADD GT ISZERO PUSH3 0x1BC JUMPI PUSH1 0x0 DUP1 REVERT JUMPDEST PUSH1 0x0 SWAP2 POP JUMPDEST DUP4 DUP3 LT ISZERO PUSH3 0x1E0 JUMPI DUP6 DUP3 ADD DUP4 ADD MLOAD DUP2 DUP4 ADD DUP5 ADD MSTORE SWAP1 DUP3 ADD SWAP1 PUSH3 0x1C1 JUMP JUMPDEST DUP4 DUP3 GT ISZERO PUSH3 0x1F2 JUMPI PUSH1 0x0 DUP4 DUP6 DUP4 ADD ADD MSTORE JUMPDEST SWAP7 SWAP6 POP POP POP POP POP POP JUMP JUMPDEST PUSH1 0x0 DUP1 PUSH1 0x0 PUSH1 0x60 DUP5 DUP7 SUB SLT ISZERO PUSH3 0x212 JUMPI PUSH1 0x0 DUP1 REVERT JUMPDEST DUP4 MLOAD PUSH1 0x1 PUSH1 0x1 PUSH1 0x40 SHL SUB DUP1 DUP3 GT ISZERO PUSH3 0x22A JUMPI PUSH1 0x0 DUP1 REVERT JUMPDEST PUSH3 0x238 DUP8 DUP4 DUP9 ADD PUSH3 0x145 JUMP JUMPDEST SWAP5 POP PUSH1 0x20 DUP7 ADD MLOAD SWAP2 POP DUP1 DUP3 GT ISZERO PUSH3 0x24F JUMPI PUSH1 0x0 DUP1 REVERT JUMPDEST POP PUSH3 0x25E DUP7 DUP3 DUP8 ADD PUSH3 0x145 JUMP JUMPDEST PUSH1 0x40 DUP7 ADD MLOAD SWAP1 SWAP4 POP SWAP1 POP PUSH1 0x1 PUSH1 0x1 PUSH1 0xA0 SHL SUB DUP2 AND DUP2 EQ PUSH3 0x27E JUMPI PUSH1 0x0 DUP1 REVERT JUMPDEST DUP1 SWAP2 POP POP SWAP3 POP SWAP3 POP SWAP3 JUMP JUMPDEST PUSH1 0x1 DUP2 DUP2 SHR SWAP1 DUP3 AND DUP1 PUSH3 0x29E JUMPI PUSH1 0x7F DUP3 AND SWAP2 POP JUMPDEST PUSH1 0x20 DUP3 LT DUP2 EQ ISZERO PUSH3 0x2C0 JUMPI PUSH4 0x4E487B71 PUSH1 0xE0 SHL PUSH1 0x0 MSTORE PUSH1 0x22 PUSH1 0x4 MSTORE PUSH1 0x24 PUSH1 0x0 REVERT JUMPDEST POP SWAP2 SWAP1 POP JUMP JUMPDEST PUSH2 0x1510 DUP1 PUSH3 0x2D6 PUSH1 0x0 CODECOPY PUSH1 0x0 RETURN INVALID PUSH1 0x80 PUSH1 0x40 MSTORE CALLVALUE DUP1 ISZERO PUSH2 0x10 JUMPI PUSH1 0x0 DUP1 REVERT JUMPDEST POP PUSH1 0x4 CALLDATASIZE LT PUSH2 0xD0 JUMPI PUSH1 0x0 CALLDATALOAD PUSH1 0xE0 SHR DUP1 PUSH4 0x1FFC9A7 EQ PUSH2 0xD5 JUMPI DUP1 PUSH4 0x6FDDE03 EQ PUSH2 0xFD JUMPI DUP1 PUSH4 0x81812FC EQ PUSH2 0x112 JUMPI DUP1 PUSH4 0x95EA7B3 EQ PUSH2 0x13D JUMPI DUP1 PUSH4 0x23B872DD EQ PUSH2 0x152 JUMPI DUP1 PUSH4 0x40C10F19 EQ PUSH2 0x165 JUMPI DUP1 PUSH4 0x42842E0E EQ PUSH2 0x178 JUMPI DUP1 PUSH4 0x42966C68 EQ PUSH2 0x18B JUMPI DUP1 PUSH4 0x6352211E EQ PUSH2 0x19E JUMPI DUP1 PUSH4 0x70A08231 EQ PUSH2 0x1B1 JUMPI DUP1 PUSH4 0x95D89B41 EQ PUSH2 0x1D2 JUMPI DUP1 PUSH4 0xA22CB465 EQ PUSH2 0x1DA JUMPI DUP1 PUSH4 0xB88D4FDE EQ PUSH2 0x1ED JUMPI DUP1 PUSH4 0xC4D66DE8 EQ PUSH2 0x200 JUMPI DUP1 PUSH4 0xC87B56DD EQ PUSH2 0x213 JUMPI DUP1 PUSH4 0xE985E9C5 EQ PUSH2 0x226 JUMPI JUMPDEST PUSH1 0x0 DUP1 REVERT JUMPDEST PUSH2 0xE8 PUSH2 0xE3 CALLDATASIZE PUSH1 0x4 PUSH2 0x1008 JUMP JUMPDEST PUSH2 0x239 JUMP JUMPDEST PUSH1 0x40 MLOAD SWAP1 ISZERO ISZERO DUP2 MSTORE PUSH1 0x20 ADD JUMPDEST PUSH1 0x40 MLOAD DUP1 SWAP2 SUB SWAP1 RETURN JUMPDEST PUSH2 0x105 PUSH2 0x28B JUMP JUMPDEST PUSH1 0x40 MLOAD PUSH2 0xF4 SWAP2 SWAP1 PUSH2 0x107D JUMP JUMPDEST PUSH2 0x125 PUSH2 0x120 CALLDATASIZE PUSH1 0x4 PUSH2 0x1090 JUMP JUMPDEST PUSH2 0x31D JUMP JUMPDEST PUSH1 0x40 MLOAD PUSH1 0x1 PUSH1 0x1 PUSH1 0xA0 SHL SUB SWAP1 SWAP2 AND DUP2 MSTORE PUSH1 0x20 ADD PUSH2 0xF4 JUMP JUMPDEST PUSH2 0x150 PUSH2 0x14B CALLDATASIZE PUSH1 0x4 PUSH2 0x10C5 JUMP JUMPDEST PUSH2 0x344 JUMP JUMPDEST STOP JUMPDEST PUSH2 0x150 PUSH2 0x160 CALLDATASIZE PUSH1 0x4 PUSH2 0x10EF JUMP JUMPDEST PUSH2 0x460 JUMP JUMPDEST PUSH2 0x150 PUSH2 0x173 CALLDATASIZE PUSH1 0x4 PUSH2 0x10C5 JUMP JUMPDEST PUSH2 0x492 JUMP JUMPDEST PUSH2 0x150 PUSH2 0x186 CALLDATASIZE PUSH1 0x4 PUSH2 0x10EF JUMP JUMPDEST PUSH2 0x4B7 JUMP JUMPDEST PUSH2 0x150 PUSH2 0x199 CALLDATASIZE PUSH1 0x4 PUSH2 0x1090 JUMP JUMPDEST PUSH2 0x4D2 JUMP JUMPDEST PUSH2 0x125 PUSH2 0x1AC CALLDATASIZE PUSH1 0x4 PUSH2 0x1090 JUMP JUMPDEST PUSH2 0x51A JUMP JUMPDEST PUSH2 0x1C4 PUSH2 0x1BF CALLDATASIZE PUSH1 0x4 PUSH2 0x112B JUMP JUMPDEST PUSH2 0x54E JUMP JUMPDEST PUSH1 0x40 MLOAD SWAP1 DUP2 MSTORE PUSH1 0x20 ADD PUSH2 0xF4 JUMP JUMPDEST PUSH2 0x105 PUSH2 0x5D5 JUMP JUMPDEST PUSH2 0x150 PUSH2 0x1E8 CALLDATASIZE PUSH1 0x4 PUSH2 0x1146 JUMP JUMPDEST PUSH2 0x5E4 JUMP JUMPDEST PUSH2 0x150 PUSH2 0x1FB CALLDATASIZE PUSH1 0x4 PUSH2 0x1198 JUMP JUMPDEST PUSH2 0x5EF JUMP JUMPDEST PUSH2 0x150 PUSH2 0x20E CALLDATASIZE PUSH1 0x4 PUSH2 0x112B JUMP JUMPDEST PUSH2 0x627 JUMP JUMPDEST PUSH2 0x105 PUSH2 0x221 CALLDATASIZE PUSH1 0x4 PUSH2 0x1090 JUMP JUMPDEST PUSH2 0x660 JUMP JUMPDEST PUSH2 0xE8 PUSH2 0x234 CALLDATASIZE PUSH1 0x4 PUSH2 0x1273 JUMP JUMPDEST PUSH2 0x6D4 JUMP JUMPDEST PUSH1 0x0 PUSH1 0x1 PUSH1 0x1 PUSH1 0xE0 SHL SUB NOT DUP3 AND PUSH4 0x80AC58CD PUSH1 0xE0 SHL EQ DUP1 PUSH2 0x26A JUMPI POP PUSH1 0x1 PUSH1 0x1 PUSH1 0xE0 SHL SUB NOT DUP3 AND PUSH4 0x5B5E139F PUSH1 0xE0 SHL EQ JUMPDEST DUP1 PUSH2 0x285 JUMPI POP PUSH4 0x1FFC9A7 PUSH1 0xE0 SHL PUSH1 0x1 PUSH1 0x1 PUSH1 0xE0 SHL SUB NOT DUP4 AND EQ JUMPDEST SWAP3 SWAP2 POP POP JUMP JUMPDEST PUSH1 0x60 PUSH1 0x0 DUP1 SLOAD PUSH2 0x29A SWAP1 PUSH2 0x12A6 JUMP JUMPDEST DUP1 PUSH1 0x1F ADD PUSH1 0x20 DUP1 SWAP2 DIV MUL PUSH1 0x20 ADD PUSH1 0x40 MLOAD SWAP1 DUP2 ADD PUSH1 0x40 MSTORE DUP1 SWAP3 SWAP2 SWAP1 DUP2 DUP2 MSTORE PUSH1 0x20 ADD DUP3 DUP1 SLOAD PUSH2 0x2C6 SWAP1 PUSH2 0x12A6 JUMP JUMPDEST DUP1 ISZERO PUSH2 0x313 JUMPI DUP1 PUSH1 0x1F LT PUSH2 0x2E8 JUMPI PUSH2 0x100 DUP1 DUP4 SLOAD DIV MUL DUP4 MSTORE SWAP2 PUSH1 0x20 ADD SWAP2 PUSH2 0x313 JUMP JUMPDEST DUP3 ADD SWAP2 SWAP1 PUSH1 0x0 MSTORE PUSH1 0x20 PUSH1 0x0 KECCAK256 SWAP1 JUMPDEST DUP2 SLOAD DUP2 MSTORE SWAP1 PUSH1 0x1 ADD SWAP1 PUSH1 0x20 ADD DUP1 DUP4 GT PUSH2 0x2F6 JUMPI DUP3 SWAP1 SUB PUSH1 0x1F AND DUP3 ADD SWAP2 JUMPDEST POP POP POP POP POP SWAP1 POP SWAP1 JUMP JUMPDEST PUSH1 0x0 PUSH2 0x328 DUP3 PUSH2 0x702 JUMP JUMPDEST POP PUSH1 0x0 SWAP1 DUP2 MSTORE PUSH1 0x6 PUSH1 0x20 MSTORE PUSH1 0x40 SWAP1 KECCAK256 SLOAD PUSH1 0x1 PUSH1 0x1 PUSH1 0xA0 SHL SUB AND SWAP1 JUMP JUMPDEST PUSH1 0x0 PUSH2 0x34F DUP3 PUSH2 0x51A JUMP JUMPDEST SWAP1 POP DUP1 PUSH1 0x1 PUSH1 0x1 PUSH1 0xA0 SHL SUB AND DUP4 PUSH1 0x1 PUSH1 0x1 PUSH1 0xA0 SHL SUB AND EQ ISZERO PUSH2 0x3C3 JUMPI PUSH1 0x40 MLOAD PUSH3 0x461BCD PUSH1 0xE5 SHL DUP2 MSTORE PUSH1 0x20 PUSH1 0x4 DUP3 ADD MSTORE PUSH1 0x22 PUSH1 0x24 DUP3 ADD MSTORE PUSH32 0x4C50546F6B656E3A20617070726F76616C20746F2063757272656E74206F776E PUSH1 0x44 DUP3 ADD MSTORE PUSH2 0x32B9 PUSH1 0xF1 SHL PUSH1 0x64 DUP3 ADD MSTORE PUSH1 0x84 ADD JUMPDEST PUSH1 0x40 MLOAD DUP1 SWAP2 SUB SWAP1 REVERT JUMPDEST CALLER PUSH1 0x1 PUSH1 0x1 PUSH1 0xA0 SHL SUB DUP3 AND EQ DUP1 PUSH2 0x3DF JUMPI POP PUSH2 0x3DF DUP2 CALLER PUSH2 0x6D4 JUMP JUMPDEST PUSH2 0x451 JUMPI PUSH1 0x40 MLOAD PUSH3 0x461BCD PUSH1 0xE5 SHL DUP2 MSTORE PUSH1 0x20 PUSH1 0x4 DUP3 ADD MSTORE PUSH1 0x3E PUSH1 0x24 DUP3 ADD MSTORE PUSH32 0x4C50546F6B656E3A20617070726F76652063616C6C6572206973206E6F742074 PUSH1 0x44 DUP3 ADD MSTORE PUSH32 0x6F6B656E206F776E6572206F7220617070726F76656420666F7220616C6C0000 PUSH1 0x64 DUP3 ADD MSTORE PUSH1 0x84 ADD PUSH2 0x3BA JUMP JUMPDEST PUSH2 0x45B DUP4 DUP4 PUSH2 0x727 JUMP JUMPDEST POP POP POP JUMP JUMPDEST PUSH2 0x46B CALLER JUMPDEST DUP3 PUSH2 0x795 JUMP JUMPDEST PUSH2 0x487 JUMPI PUSH1 0x40 MLOAD PUSH3 0x461BCD PUSH1 0xE5 SHL DUP2 MSTORE PUSH1 0x4 ADD PUSH2 0x3BA SWAP1 PUSH2 0x12E1 JUMP JUMPDEST PUSH2 0x45B DUP4 DUP4 DUP4 PUSH2 0x7F4 JUMP JUMPDEST PUSH1 0x2 SLOAD PUSH1 0x1 PUSH1 0x1 PUSH1 0xA0 SHL SUB AND CALLER EQ PUSH2 0x4A9 JUMPI PUSH1 0x0 DUP1 REVERT JUMPDEST PUSH2 0x4B3 DUP3 DUP3 PUSH2 0x9D2 JUMP JUMPDEST POP POP JUMP JUMPDEST PUSH2 0x45B DUP4 DUP4 DUP4 PUSH1 0x40 MLOAD DUP1 PUSH1 0x20 ADD PUSH1 0x40 MSTORE DUP1 PUSH1 0x0 DUP2 MSTORE POP PUSH2 0x5EF JUMP JUMPDEST PUSH1 0x2 SLOAD PUSH1 0x1 PUSH1 0x1 PUSH1 0xA0 SHL SUB AND CALLER EQ PUSH2 0x4E9 JUMPI PUSH1 0x0 DUP1 REVERT JUMPDEST PUSH2 0x4F2 CALLER PUSH2 0x465 JUMP JUMPDEST PUSH2 0x50E JUMPI PUSH1 0x40 MLOAD PUSH3 0x461BCD PUSH1 0xE5 SHL DUP2 MSTORE PUSH1 0x4 ADD PUSH2 0x3BA SWAP1 PUSH2 0x12E1 JUMP JUMPDEST PUSH2 0x517 DUP2 PUSH2 0x9EC JUMP JUMPDEST POP JUMP JUMPDEST PUSH1 0x0 DUP1 PUSH2 0x526 DUP4 PUSH2 0xA7D JUMP JUMPDEST SWAP1 POP PUSH1 0x1 PUSH1 0x1 PUSH1 0xA0 SHL SUB DUP2 AND PUSH2 0x285 JUMPI PUSH1 0x40 MLOAD PUSH3 0x461BCD PUSH1 0xE5 SHL DUP2 MSTORE PUSH1 0x4 ADD PUSH2 0x3BA SWAP1 PUSH2 0x132F JUMP JUMPDEST PUSH1 0x0 PUSH1 0x1 PUSH1 0x1 PUSH1 0xA0 SHL SUB DUP3 AND PUSH2 0x5B9 JUMPI PUSH1 0x40 MLOAD PUSH3 0x461BCD PUSH1 0xE5 SHL DUP2 MSTORE PUSH1 0x20 PUSH1 0x4 DUP3 ADD MSTORE PUSH1 0x2A PUSH1 0x24 DUP3 ADD MSTORE PUSH32 0x4C50546F6B656E3A2061646472657373207A65726F206973206E6F7420612076 PUSH1 0x44 DUP3 ADD MSTORE PUSH10 0x30B634B21037BBB732B9 PUSH1 0xB1 SHL PUSH1 0x64 DUP3 ADD MSTORE PUSH1 0x84 ADD PUSH2 0x3BA JUMP JUMPDEST POP PUSH1 0x1 PUSH1 0x1 PUSH1 0xA0 SHL SUB AND PUSH1 0x0 SWAP1 DUP2 MSTORE PUSH1 0x5 PUSH1 0x20 MSTORE PUSH1 0x40 SWAP1 KECCAK256 SLOAD SWAP1 JUMP JUMPDEST PUSH1 0x60 PUSH1 0x1 DUP1 SLOAD PUSH2 0x29A SWAP1 PUSH2 0x12A6 JUMP JUMPDEST PUSH2 0x4B3 CALLER DUP4 DUP4 PUSH2 0xA98 JUMP JUMPDEST PUSH2 0x5F9 CALLER DUP4 PUSH2 0x795 JUMP JUMPDEST PUSH2 0x615 JUMPI PUSH1 0x40 MLOAD PUSH3 0x461BCD PUSH1 0xE5 SHL DUP2 MSTORE PUSH1 0x4 ADD PUSH2 0x3BA SWAP1 PUSH2 0x12E1 JUMP JUMPDEST PUSH2 0x621 DUP5 DUP5 DUP5 DUP5 PUSH2 0xB64 JUMP JUMPDEST POP POP POP POP JUMP JUMPDEST PUSH1 0x3 SLOAD PUSH1 0x1 PUSH1 0x1 PUSH1 0xA0 SHL SUB AND CALLER EQ PUSH2 0x63E JUMPI PUSH1 0x0 DUP1 REVERT JUMPDEST PUSH1 0x2 DUP1 SLOAD PUSH1 0x1 PUSH1 0x1 PUSH1 0xA0 SHL SUB NOT AND PUSH1 0x1 PUSH1 0x1 PUSH1 0xA0 SHL SUB SWAP3 SWAP1 SWAP3 AND SWAP2 SWAP1 SWAP2 OR SWAP1 SSTORE JUMP JUMPDEST PUSH1 0x60 PUSH2 0x66B DUP3 PUSH2 0x702 JUMP JUMPDEST PUSH1 0x0 PUSH2 0x682 PUSH1 0x40 DUP1 MLOAD PUSH1 0x20 DUP2 ADD SWAP1 SWAP2 MSTORE PUSH1 0x0 DUP2 MSTORE SWAP1 JUMP JUMPDEST SWAP1 POP PUSH1 0x0 DUP2 MLOAD GT PUSH2 0x6A2 JUMPI PUSH1 0x40 MLOAD DUP1 PUSH1 0x20 ADD PUSH1 0x40 MSTORE DUP1 PUSH1 0x0 DUP2 MSTORE POP PUSH2 0x6CD JUMP JUMPDEST DUP1 PUSH2 0x6AC DUP5 PUSH2 0xB97 JUMP JUMPDEST PUSH1 0x40 MLOAD PUSH1 0x20 ADD PUSH2 0x6BD SWAP3 SWAP2 SWAP1 PUSH2 0x1362 JUMP JUMPDEST PUSH1 0x40 MLOAD PUSH1 0x20 DUP2 DUP4 SUB SUB DUP2 MSTORE SWAP1 PUSH1 0x40 MSTORE JUMPDEST SWAP4 SWAP3 POP POP POP JUMP JUMPDEST PUSH1 0x1 PUSH1 0x1 PUSH1 0xA0 SHL SUB SWAP2 DUP3 AND PUSH1 0x0 SWAP1 DUP2 MSTORE PUSH1 0x7 PUSH1 0x20 SWAP1 DUP2 MSTORE PUSH1 0x40 DUP1 DUP4 KECCAK256 SWAP4 SWAP1 SWAP5 AND DUP3 MSTORE SWAP2 SWAP1 SWAP2 MSTORE KECCAK256 SLOAD PUSH1 0xFF AND SWAP1 JUMP JUMPDEST PUSH2 0x70B DUP2 PUSH2 0xC33 JUMP JUMPDEST PUSH2 0x517 JUMPI PUSH1 0x40 MLOAD PUSH3 0x461BCD PUSH1 0xE5 SHL DUP2 MSTORE PUSH1 0x4 ADD PUSH2 0x3BA SWAP1 PUSH2 0x132F JUMP JUMPDEST PUSH1 0x0 DUP2 DUP2 MSTORE PUSH1 0x6 PUSH1 0x20 MSTORE PUSH1 0x40 SWAP1 KECCAK256 DUP1 SLOAD PUSH1 0x1 PUSH1 0x1 PUSH1 0xA0 SHL SUB NOT AND PUSH1 0x1 PUSH1 0x1 PUSH1 0xA0 SHL SUB DUP5 AND SWAP1 DUP2 OR SWAP1 SWAP2 SSTORE DUP2 SWAP1 PUSH2 0x75C DUP3 PUSH2 0x51A JUMP JUMPDEST PUSH1 0x1 PUSH1 0x1 PUSH1 0xA0 SHL SUB AND PUSH32 0x8C5BE1E5EBEC7D5BD14F71427D1E84F3DD0314C0F7B2291E5B200AC8C7C3B925 PUSH1 0x40 MLOAD PUSH1 0x40 MLOAD DUP1 SWAP2 SUB SWAP1 LOG4 POP POP JUMP JUMPDEST PUSH1 0x0 DUP1 PUSH2 0x7A1 DUP4 PUSH2 0x51A JUMP JUMPDEST SWAP1 POP DUP1 PUSH1 0x1 PUSH1 0x1 PUSH1 0xA0 SHL SUB AND DUP5 PUSH1 0x1 PUSH1 0x1 PUSH1 0xA0 SHL SUB AND EQ DUP1 PUSH2 0x7C8 JUMPI POP PUSH2 0x7C8 DUP2 DUP6 PUSH2 0x6D4 JUMP JUMPDEST DUP1 PUSH2 0x7EC JUMPI POP DUP4 PUSH1 0x1 PUSH1 0x1 PUSH1 0xA0 SHL SUB AND PUSH2 0x7E1 DUP5 PUSH2 0x31D JUMP JUMPDEST PUSH1 0x1 PUSH1 0x1 PUSH1 0xA0 SHL SUB AND EQ JUMPDEST SWAP5 SWAP4 POP POP POP POP JUMP JUMPDEST DUP3 PUSH1 0x1 PUSH1 0x1 PUSH1 0xA0 SHL SUB AND PUSH2 0x807 DUP3 PUSH2 0x51A JUMP JUMPDEST PUSH1 0x1 PUSH1 0x1 PUSH1 0xA0 SHL SUB AND EQ PUSH2 0x86C JUMPI PUSH1 0x40 MLOAD PUSH3 0x461BCD PUSH1 0xE5 SHL DUP2 MSTORE PUSH1 0x20 PUSH1 0x4 DUP3 ADD MSTORE PUSH1 0x26 PUSH1 0x24 DUP3 ADD MSTORE PUSH32 0x4C50546F6B656E3A207472616E736665722066726F6D20696E636F7272656374 PUSH1 0x44 DUP3 ADD MSTORE PUSH6 0x1037BBB732B9 PUSH1 0xD1 SHL PUSH1 0x64 DUP3 ADD MSTORE PUSH1 0x84 ADD PUSH2 0x3BA JUMP JUMPDEST PUSH1 0x1 PUSH1 0x1 PUSH1 0xA0 SHL SUB DUP3 AND PUSH2 0x8D0 JUMPI PUSH1 0x40 MLOAD PUSH3 0x461BCD PUSH1 0xE5 SHL DUP2 MSTORE PUSH1 0x20 PUSH1 0x4 DUP3 ADD MSTORE PUSH1 0x25 PUSH1 0x24 DUP3 ADD MSTORE PUSH32 0x4C50546F6B656E3A207472616E7366657220746F20746865207A65726F206164 PUSH1 0x44 DUP3 ADD MSTORE PUSH5 0x6472657373 PUSH1 0xD8 SHL PUSH1 0x64 DUP3 ADD MSTORE PUSH1 0x84 ADD PUSH2 0x3BA JUMP JUMPDEST PUSH2 0x8DD DUP4 DUP4 DUP4 PUSH1 0x1 PUSH2 0xC50 JUMP JUMPDEST DUP3 PUSH1 0x1 PUSH1 0x1 PUSH1 0xA0 SHL SUB AND PUSH2 0x8F0 DUP3 PUSH2 0x51A JUMP JUMPDEST PUSH1 0x1 PUSH1 0x1 PUSH1 0xA0 SHL SUB AND EQ PUSH2 0x954 JUMPI PUSH1 0x40 MLOAD PUSH3 0x461BCD PUSH1 0xE5 SHL DUP2 MSTORE PUSH1 0x20 PUSH1 0x4 DUP3 ADD MSTORE PUSH1 0x25 PUSH1 0x24 DUP3 ADD MSTORE PUSH32 0x4552433732313A207472616E736665722066726F6D20696E636F727265637420 PUSH1 0x44 DUP3 ADD MSTORE PUSH5 0x37BBB732B9 PUSH1 0xD9 SHL PUSH1 0x64 DUP3 ADD MSTORE PUSH1 0x84 ADD PUSH2 0x3BA JUMP JUMPDEST PUSH1 0x0 DUP2 DUP2 MSTORE PUSH1 0x6 PUSH1 0x20 SWAP1 DUP2 MSTORE PUSH1 0x40 DUP1 DUP4 KECCAK256 DUP1 SLOAD PUSH1 0x1 PUSH1 0x1 PUSH1 0xA0 SHL SUB NOT SWAP1 DUP2 AND SWAP1 SWAP2 SSTORE PUSH1 0x1 PUSH1 0x1 PUSH1 0xA0 SHL SUB DUP8 DUP2 AND DUP1 DUP7 MSTORE PUSH1 0x5 DUP6 MSTORE DUP4 DUP7 KECCAK256 DUP1 SLOAD PUSH1 0x0 NOT ADD SWAP1 SSTORE SWAP1 DUP8 AND DUP1 DUP7 MSTORE DUP4 DUP7 KECCAK256 DUP1 SLOAD PUSH1 0x1 ADD SWAP1 SSTORE DUP7 DUP7 MSTORE PUSH1 0x4 SWAP1 SWAP5 MSTORE DUP3 DUP6 KECCAK256 DUP1 SLOAD SWAP1 SWAP3 AND DUP5 OR SWAP1 SWAP2 SSTORE SWAP1 MLOAD DUP5 SWAP4 PUSH1 0x0 DUP1 MLOAD PUSH1 0x20 PUSH2 0x14BB DUP4 CODECOPY DUP2 MLOAD SWAP2 MSTORE SWAP2 LOG4 POP POP POP JUMP JUMPDEST PUSH2 0x4B3 DUP3 DUP3 PUSH1 0x40 MLOAD DUP1 PUSH1 0x20 ADD PUSH1 0x40 MSTORE DUP1 PUSH1 0x0 DUP2 MSTORE POP PUSH2 0xCD8 JUMP JUMPDEST PUSH1 0x0 PUSH2 0x9F7 DUP3 PUSH2 0x51A JUMP JUMPDEST SWAP1 POP PUSH2 0xA07 DUP2 PUSH1 0x0 DUP5 PUSH1 0x1 PUSH2 0xC50 JUMP JUMPDEST PUSH2 0xA10 DUP3 PUSH2 0x51A JUMP JUMPDEST PUSH1 0x0 DUP4 DUP2 MSTORE PUSH1 0x6 PUSH1 0x20 SWAP1 DUP2 MSTORE PUSH1 0x40 DUP1 DUP4 KECCAK256 DUP1 SLOAD PUSH1 0x1 PUSH1 0x1 PUSH1 0xA0 SHL SUB NOT SWAP1 DUP2 AND SWAP1 SWAP2 SSTORE PUSH1 0x1 PUSH1 0x1 PUSH1 0xA0 SHL SUB DUP6 AND DUP1 DUP6 MSTORE PUSH1 0x5 DUP5 MSTORE DUP3 DUP6 KECCAK256 DUP1 SLOAD PUSH1 0x0 NOT ADD SWAP1 SSTORE DUP8 DUP6 MSTORE PUSH1 0x4 SWAP1 SWAP4 MSTORE DUP2 DUP5 KECCAK256 DUP1 SLOAD SWAP1 SWAP2 AND SWAP1 SSTORE MLOAD SWAP3 SWAP4 POP DUP5 SWAP3 PUSH1 0x0 DUP1 MLOAD PUSH1 0x20 PUSH2 0x14BB DUP4 CODECOPY DUP2 MLOAD SWAP2 MSTORE SWAP1 DUP4 SWAP1 LOG4 POP POP JUMP JUMPDEST PUSH1 0x0 SWAP1 DUP2 MSTORE PUSH1 0x4 PUSH1 0x20 MSTORE PUSH1 0x40 SWAP1 KECCAK256 SLOAD PUSH1 0x1 PUSH1 0x1 PUSH1 0xA0 SHL SUB AND SWAP1 JUMP JUMPDEST DUP2 PUSH1 0x1 PUSH1 0x1 PUSH1 0xA0 SHL SUB AND DUP4 PUSH1 0x1 PUSH1 0x1 PUSH1 0xA0 SHL SUB AND EQ ISZERO PUSH2 0xAF7 JUMPI PUSH1 0x40 MLOAD PUSH3 0x461BCD PUSH1 0xE5 SHL DUP2 MSTORE PUSH1 0x20 PUSH1 0x4 DUP3 ADD MSTORE PUSH1 0x1A PUSH1 0x24 DUP3 ADD MSTORE PUSH26 0x26282A37B5B2B71D1030B8383937BB32903A379031B0B63632B9 PUSH1 0x31 SHL PUSH1 0x44 DUP3 ADD MSTORE PUSH1 0x64 ADD PUSH2 0x3BA JUMP JUMPDEST PUSH1 0x1 PUSH1 0x1 PUSH1 0xA0 SHL SUB DUP4 DUP2 AND PUSH1 0x0 DUP2 DUP2 MSTORE PUSH1 0x7 PUSH1 0x20 SWAP1 DUP2 MSTORE PUSH1 0x40 DUP1 DUP4 KECCAK256 SWAP5 DUP8 AND DUP1 DUP5 MSTORE SWAP5 DUP3 MSTORE SWAP2 DUP3 SWAP1 KECCAK256 DUP1 SLOAD PUSH1 0xFF NOT AND DUP7 ISZERO ISZERO SWAP1 DUP2 OR SWAP1 SWAP2 SSTORE SWAP2 MLOAD SWAP2 DUP3 MSTORE PUSH32 0x17307EAB39AB6107E8899845AD3D59BD9653F200F220920489CA2B5937696C31 SWAP2 ADD PUSH1 0x40 MLOAD DUP1 SWAP2 SUB SWAP1 LOG3 POP POP POP JUMP JUMPDEST PUSH2 0xB6F DUP5 DUP5 DUP5 PUSH2 0x7F4 JUMP JUMPDEST PUSH2 0xB7B DUP5 DUP5 DUP5 DUP5 PUSH2 0xD0B JUMP JUMPDEST PUSH2 0x621 JUMPI PUSH1 0x40 MLOAD PUSH3 0x461BCD PUSH1 0xE5 SHL DUP2 MSTORE PUSH1 0x4 ADD PUSH2 0x3BA SWAP1 PUSH2 0x1391 JUMP JUMPDEST PUSH1 0x60 PUSH1 0x0 PUSH2 0xBA4 DUP4 PUSH2 0xE09 JUMP JUMPDEST PUSH1 0x1 ADD SWAP1 POP PUSH1 0x0 DUP2 PUSH1 0x1 PUSH1 0x1 PUSH1 0x40 SHL SUB DUP2 GT ISZERO PUSH2 0xBC3 JUMPI PUSH2 0xBC3 PUSH2 0x1182 JUMP JUMPDEST PUSH1 0x40 MLOAD SWAP1 DUP1 DUP3 MSTORE DUP1 PUSH1 0x1F ADD PUSH1 0x1F NOT AND PUSH1 0x20 ADD DUP3 ADD PUSH1 0x40 MSTORE DUP1 ISZERO PUSH2 0xBED JUMPI PUSH1 0x20 DUP3 ADD DUP2 DUP1 CALLDATASIZE DUP4 CALLDATACOPY ADD SWAP1 POP JUMPDEST POP SWAP1 POP DUP2 DUP2 ADD PUSH1 0x20 ADD JUMPDEST PUSH1 0x0 NOT ADD PUSH16 0x181899199A1A9B1B9C1CB0B131B232B3 PUSH1 0x81 SHL PUSH1 0xA DUP7 MOD BYTE DUP2 MSTORE8 PUSH1 0xA DUP6 DIV SWAP5 POP DUP5 PUSH2 0xC26 JUMPI PUSH2 0xC2B JUMP JUMPDEST PUSH2 0xBF7 JUMP JUMPDEST POP SWAP4 SWAP3 POP POP POP JUMP JUMPDEST PUSH1 0x0 DUP1 PUSH2 0xC3F DUP4 PUSH2 0xA7D JUMP JUMPDEST PUSH1 0x1 PUSH1 0x1 PUSH1 0xA0 SHL SUB AND EQ ISZERO SWAP3 SWAP2 POP POP JUMP JUMPDEST PUSH1 0x1 DUP2 GT ISZERO PUSH2 0x621 JUMPI PUSH1 0x1 PUSH1 0x1 PUSH1 0xA0 SHL SUB DUP5 AND ISZERO PUSH2 0xC96 JUMPI PUSH1 0x1 PUSH1 0x1 PUSH1 0xA0 SHL SUB DUP5 AND PUSH1 0x0 SWAP1 DUP2 MSTORE PUSH1 0x5 PUSH1 0x20 MSTORE PUSH1 0x40 DUP2 KECCAK256 DUP1 SLOAD DUP4 SWAP3 SWAP1 PUSH2 0xC90 SWAP1 DUP5 SWAP1 PUSH2 0x13FA JUMP JUMPDEST SWAP1 SWAP2 SSTORE POP POP JUMPDEST PUSH1 0x1 PUSH1 0x1 PUSH1 0xA0 SHL SUB DUP4 AND ISZERO PUSH2 0x621 JUMPI PUSH1 0x1 PUSH1 0x1 PUSH1 0xA0 SHL SUB DUP4 AND PUSH1 0x0 SWAP1 DUP2 MSTORE PUSH1 0x5 PUSH1 0x20 MSTORE PUSH1 0x40 DUP2 KECCAK256 DUP1 SLOAD DUP4 SWAP3 SWAP1 PUSH2 0xCCD SWAP1 DUP5 SWAP1 PUSH2 0x1411 JUMP JUMPDEST SWAP1 SWAP2 SSTORE POP POP POP POP POP POP JUMP JUMPDEST PUSH2 0xCE2 DUP4 DUP4 PUSH2 0xEDF JUMP JUMPDEST PUSH2 0xCEF PUSH1 0x0 DUP5 DUP5 DUP5 PUSH2 0xD0B JUMP JUMPDEST PUSH2 0x45B JUMPI PUSH1 0x40 MLOAD PUSH3 0x461BCD PUSH1 0xE5 SHL DUP2 MSTORE PUSH1 0x4 ADD PUSH2 0x3BA SWAP1 PUSH2 0x1391 JUMP JUMPDEST PUSH1 0x0 PUSH1 0x1 PUSH1 0x1 PUSH1 0xA0 SHL SUB DUP5 AND EXTCODESIZE ISZERO PUSH2 0xDFE JUMPI PUSH1 0x40 MLOAD PUSH4 0xA85BD01 PUSH1 0xE1 SHL DUP2 MSTORE PUSH1 0x1 PUSH1 0x1 PUSH1 0xA0 SHL SUB DUP6 AND SWAP1 PUSH4 0x150B7A02 SWAP1 PUSH2 0xD4F SWAP1 CALLER SWAP1 DUP10 SWAP1 DUP9 SWAP1 DUP9 SWAP1 PUSH1 0x4 ADD PUSH2 0x1429 JUMP JUMPDEST PUSH1 0x20 PUSH1 0x40 MLOAD DUP1 DUP4 SUB DUP2 PUSH1 0x0 DUP8 GAS CALL SWAP3 POP POP POP DUP1 ISZERO PUSH2 0xD8A JUMPI POP PUSH1 0x40 DUP1 MLOAD PUSH1 0x1F RETURNDATASIZE SWAP1 DUP2 ADD PUSH1 0x1F NOT AND DUP3 ADD SWAP1 SWAP3 MSTORE PUSH2 0xD87 SWAP2 DUP2 ADD SWAP1 PUSH2 0x1466 JUMP JUMPDEST PUSH1 0x1 JUMPDEST PUSH2 0xDE4 JUMPI RETURNDATASIZE DUP1 DUP1 ISZERO PUSH2 0xDB8 JUMPI PUSH1 0x40 MLOAD SWAP2 POP PUSH1 0x1F NOT PUSH1 0x3F RETURNDATASIZE ADD AND DUP3 ADD PUSH1 0x40 MSTORE RETURNDATASIZE DUP3 MSTORE RETURNDATASIZE PUSH1 0x0 PUSH1 0x20 DUP5 ADD RETURNDATACOPY PUSH2 0xDBD JUMP JUMPDEST PUSH1 0x60 SWAP2 POP JUMPDEST POP DUP1 MLOAD PUSH2 0xDDC JUMPI PUSH1 0x40 MLOAD PUSH3 0x461BCD PUSH1 0xE5 SHL DUP2 MSTORE PUSH1 0x4 ADD PUSH2 0x3BA SWAP1 PUSH2 0x1391 JUMP JUMPDEST DUP1 MLOAD DUP2 PUSH1 0x20 ADD REVERT JUMPDEST PUSH1 0x1 PUSH1 0x1 PUSH1 0xE0 SHL SUB NOT AND PUSH4 0xA85BD01 PUSH1 0xE1 SHL EQ SWAP1 POP PUSH2 0x7EC JUMP JUMPDEST POP PUSH1 0x1 SWAP5 SWAP4 POP POP POP POP JUMP JUMPDEST PUSH1 0x0 DUP1 PUSH19 0x184F03E93FF9F4DAA797ED6E38ED64BF6A1F01 PUSH1 0x40 SHL DUP4 LT PUSH2 0xE48 JUMPI PUSH19 0x184F03E93FF9F4DAA797ED6E38ED64BF6A1F01 PUSH1 0x40 SHL DUP4 DIV SWAP3 POP PUSH1 0x40 ADD JUMPDEST PUSH10 0x4EE2D6D415B85ACEF81 PUSH1 0x20 SHL DUP4 LT PUSH2 0xE72 JUMPI PUSH10 0x4EE2D6D415B85ACEF81 PUSH1 0x20 SHL DUP4 DIV SWAP3 POP PUSH1 0x20 ADD JUMPDEST PUSH7 0x2386F26FC10000 DUP4 LT PUSH2 0xE90 JUMPI PUSH7 0x2386F26FC10000 DUP4 DIV SWAP3 POP PUSH1 0x10 ADD JUMPDEST PUSH4 0x5F5E100 DUP4 LT PUSH2 0xEA8 JUMPI PUSH4 0x5F5E100 DUP4 DIV SWAP3 POP PUSH1 0x8 ADD JUMPDEST PUSH2 0x2710 DUP4 LT PUSH2 0xEBC JUMPI PUSH2 0x2710 DUP4 DIV SWAP3 POP PUSH1 0x4 ADD JUMPDEST PUSH1 0x64 DUP4 LT PUSH2 0xECE JUMPI PUSH1 0x64 DUP4 DIV SWAP3 POP PUSH1 0x2 ADD JUMPDEST PUSH1 0xA DUP4 LT PUSH2 0x285 JUMPI PUSH1 0x1 ADD SWAP3 SWAP2 POP POP JUMP JUMPDEST PUSH1 0x1 PUSH1 0x1 PUSH1 0xA0 SHL SUB DUP3 AND PUSH2 0xF3F JUMPI PUSH1 0x40 MLOAD PUSH3 0x461BCD PUSH1 0xE5 SHL DUP2 MSTORE PUSH1 0x20 PUSH1 0x4 DUP3 ADD MSTORE PUSH1 0x21 PUSH1 0x24 DUP3 ADD MSTORE PUSH32 0x4C50546F6B656E3A206D696E7420746F20746865207A65726F20616464726573 PUSH1 0x44 DUP3 ADD MSTORE PUSH1 0x73 PUSH1 0xF8 SHL PUSH1 0x64 DUP3 ADD MSTORE PUSH1 0x84 ADD PUSH2 0x3BA JUMP JUMPDEST PUSH2 0xF48 DUP2 PUSH2 0xC33 JUMP JUMPDEST ISZERO PUSH2 0xF65 JUMPI PUSH1 0x40 MLOAD PUSH3 0x461BCD PUSH1 0xE5 SHL DUP2 MSTORE PUSH1 0x4 ADD PUSH2 0x3BA SWAP1 PUSH2 0x1483 JUMP JUMPDEST PUSH2 0xF73 PUSH1 0x0 DUP4 DUP4 PUSH1 0x1 PUSH2 0xC50 JUMP JUMPDEST PUSH2 0xF7C DUP2 PUSH2 0xC33 JUMP JUMPDEST ISZERO PUSH2 0xF99 JUMPI PUSH1 0x40 MLOAD PUSH3 0x461BCD PUSH1 0xE5 SHL DUP2 MSTORE PUSH1 0x4 ADD PUSH2 0x3BA SWAP1 PUSH2 0x1483 JUMP JUMPDEST PUSH1 0x1 PUSH1 0x1 PUSH1 0xA0 SHL SUB DUP3 AND PUSH1 0x0 DUP2 DUP2 MSTORE PUSH1 0x5 PUSH1 0x20 SWAP1 DUP2 MSTORE PUSH1 0x40 DUP1 DUP4 KECCAK256 DUP1 SLOAD PUSH1 0x1 ADD SWAP1 SSTORE DUP5 DUP4 MSTORE PUSH1 0x4 SWAP1 SWAP2 MSTORE DUP1 DUP3 KECCAK256 DUP1 SLOAD PUSH1 0x1 PUSH1 0x1 PUSH1 0xA0 SHL SUB NOT AND DUP5 OR SWAP1 SSTORE MLOAD DUP4 SWAP3 SWAP2 SWAP1 PUSH1 0x0 DUP1 MLOAD PUSH1 0x20 PUSH2 0x14BB DUP4 CODECOPY DUP2 MLOAD SWAP2 MSTORE SWAP1 DUP3 SWAP1 LOG4 POP POP JUMP JUMPDEST PUSH1 0x1 PUSH1 0x1 PUSH1 0xE0 SHL SUB NOT DUP2 AND DUP2 EQ PUSH2 0x517 JUMPI PUSH1 0x0 DUP1 REVERT JUMPDEST PUSH1 0x0 PUSH1 0x20 DUP3 DUP5 SUB SLT ISZERO PUSH2 0x101A JUMPI PUSH1 0x0 DUP1 REVERT JUMPDEST DUP2 CALLDATALOAD PUSH2 0x6CD DUP2 PUSH2 0xFF2 JUMP JUMPDEST PUSH1 0x0 JUMPDEST DUP4 DUP2 LT ISZERO PUSH2 0x1040 JUMPI DUP2 DUP2 ADD MLOAD DUP4 DUP3 ADD MSTORE PUSH1 0x20 ADD PUSH2 0x1028 JUMP JUMPDEST DUP4 DUP2 GT ISZERO PUSH2 0x621 JUMPI POP POP PUSH1 0x0 SWAP2 ADD MSTORE JUMP JUMPDEST PUSH1 0x0 DUP2 MLOAD DUP1 DUP5 MSTORE PUSH2 0x1069 DUP2 PUSH1 0x20 DUP7 ADD PUSH1 0x20 DUP7 ADD PUSH2 0x1025 JUMP JUMPDEST PUSH1 0x1F ADD PUSH1 0x1F NOT AND SWAP3 SWAP1 SWAP3 ADD PUSH1 0x20 ADD SWAP3 SWAP2 POP POP JUMP JUMPDEST PUSH1 0x20 DUP2 MSTORE PUSH1 0x0 PUSH2 0x6CD PUSH1 0x20 DUP4 ADD DUP5 PUSH2 0x1051 JUMP JUMPDEST PUSH1 0x0 PUSH1 0x20 DUP3 DUP5 SUB SLT ISZERO PUSH2 0x10A2 JUMPI PUSH1 0x0 DUP1 REVERT JUMPDEST POP CALLDATALOAD SWAP2 SWAP1 POP JUMP JUMPDEST DUP1 CALLDATALOAD PUSH1 0x1 PUSH1 0x1 PUSH1 0xA0 SHL SUB DUP2 AND DUP2 EQ PUSH2 0x10C0 JUMPI PUSH1 0x0 DUP1 REVERT JUMPDEST SWAP2 SWAP1 POP JUMP JUMPDEST PUSH1 0x0 DUP1 PUSH1 0x40 DUP4 DUP6 SUB SLT ISZERO PUSH2 0x10D8 JUMPI PUSH1 0x0 DUP1 REVERT JUMPDEST PUSH2 0x10E1 DUP4 PUSH2 0x10A9 JUMP JUMPDEST SWAP5 PUSH1 0x20 SWAP4 SWAP1 SWAP4 ADD CALLDATALOAD SWAP4 POP POP POP JUMP JUMPDEST PUSH1 0x0 DUP1 PUSH1 0x0 PUSH1 0x60 DUP5 DUP7 SUB SLT ISZERO PUSH2 0x1104 JUMPI PUSH1 0x0 DUP1 REVERT JUMPDEST PUSH2 0x110D DUP5 PUSH2 0x10A9 JUMP JUMPDEST SWAP3 POP PUSH2 0x111B PUSH1 0x20 DUP6 ADD PUSH2 0x10A9 JUMP JUMPDEST SWAP2 POP PUSH1 0x40 DUP5 ADD CALLDATALOAD SWAP1 POP SWAP3 POP SWAP3 POP SWAP3 JUMP JUMPDEST PUSH1 0x0 PUSH1 0x20 DUP3 DUP5 SUB SLT ISZERO PUSH2 0x113D JUMPI PUSH1 0x0 DUP1 REVERT JUMPDEST PUSH2 0x6CD DUP3 PUSH2 0x10A9 JUMP JUMPDEST PUSH1 0x0 DUP1 PUSH1 0x40 DUP4 DUP6 SUB SLT ISZERO PUSH2 0x1159 JUMPI PUSH1 0x0 DUP1 REVERT JUMPDEST PUSH2 0x1162 DUP4 PUSH2 0x10A9 JUMP JUMPDEST SWAP2 POP PUSH1 0x20 DUP4 ADD CALLDATALOAD DUP1 ISZERO ISZERO DUP2 EQ PUSH2 0x1177 JUMPI PUSH1 0x0 DUP1 REVERT JUMPDEST DUP1 SWAP2 POP POP SWAP3 POP SWAP3 SWAP1 POP JUMP JUMPDEST PUSH4 0x4E487B71 PUSH1 0xE0 SHL PUSH1 0x0 MSTORE PUSH1 0x41 PUSH1 0x4 MSTORE PUSH1 0x24 PUSH1 0x0 REVERT JUMPDEST PUSH1 0x0 DUP1 PUSH1 0x0 DUP1 PUSH1 0x80 DUP6 DUP8 SUB SLT ISZERO PUSH2 0x11AE JUMPI PUSH1 0x0 DUP1 REVERT JUMPDEST PUSH2 0x11B7 DUP6 PUSH2 0x10A9 JUMP JUMPDEST SWAP4 POP PUSH2 0x11C5 PUSH1 0x20 DUP7 ADD PUSH2 0x10A9 JUMP JUMPDEST SWAP3 POP PUSH1 0x40 DUP6 ADD CALLDATALOAD SWAP2 POP PUSH1 0x60 DUP6 ADD CALLDATALOAD PUSH1 0x1 PUSH1 0x1 PUSH1 0x40 SHL SUB DUP1 DUP3 GT ISZERO PUSH2 0x11E8 JUMPI PUSH1 0x0 DUP1 REVERT JUMPDEST DUP2 DUP8 ADD SWAP2 POP DUP8 PUSH1 0x1F DUP4 ADD SLT PUSH2 0x11FC JUMPI PUSH1 0x0 DUP1 REVERT JUMPDEST DUP2 CALLDATALOAD DUP2 DUP2 GT ISZERO PUSH2 0x120E JUMPI PUSH2 0x120E PUSH2 0x1182 JUMP JUMPDEST PUSH1 0x40 MLOAD PUSH1 0x1F DUP3 ADD PUSH1 0x1F NOT SWAP1 DUP2 AND PUSH1 0x3F ADD AND DUP2 ADD SWAP1 DUP4 DUP3 GT DUP2 DUP4 LT OR ISZERO PUSH2 0x1236 JUMPI PUSH2 0x1236 PUSH2 0x1182 JUMP JUMPDEST DUP2 PUSH1 0x40 MSTORE DUP3 DUP2 MSTORE DUP11 PUSH1 0x20 DUP5 DUP8 ADD ADD GT ISZERO PUSH2 0x124F JUMPI PUSH1 0x0 DUP1 REVERT JUMPDEST DUP3 PUSH1 0x20 DUP7 ADD PUSH1 0x20 DUP4 ADD CALLDATACOPY PUSH1 0x0 PUSH1 0x20 DUP5 DUP4 ADD ADD MSTORE DUP1 SWAP6 POP POP POP POP POP POP SWAP3 SWAP6 SWAP2 SWAP5 POP SWAP3 POP JUMP JUMPDEST PUSH1 0x0 DUP1 PUSH1 0x40 DUP4 DUP6 SUB SLT ISZERO PUSH2 0x1286 JUMPI PUSH1 0x0 DUP1 REVERT JUMPDEST PUSH2 0x128F DUP4 PUSH2 0x10A9 JUMP JUMPDEST SWAP2 POP PUSH2 0x129D PUSH1 0x20 DUP5 ADD PUSH2 0x10A9 JUMP JUMPDEST SWAP1 POP SWAP3 POP SWAP3 SWAP1 POP JUMP JUMPDEST PUSH1 0x1 DUP2 DUP2 SHR SWAP1 DUP3 AND DUP1 PUSH2 0x12BA JUMPI PUSH1 0x7F DUP3 AND SWAP2 POP JUMPDEST PUSH1 0x20 DUP3 LT DUP2 EQ ISZERO PUSH2 0x12DB JUMPI PUSH4 0x4E487B71 PUSH1 0xE0 SHL PUSH1 0x0 MSTORE PUSH1 0x22 PUSH1 0x4 MSTORE PUSH1 0x24 PUSH1 0x0 REVERT JUMPDEST POP SWAP2 SWAP1 POP JUMP JUMPDEST PUSH1 0x20 DUP1 DUP3 MSTORE PUSH1 0x2E SWAP1 DUP3 ADD MSTORE PUSH32 0x4C50546F6B656E3A2063616C6C6572206973206E6F7420746F6B656E206F776E PUSH1 0x40 DUP3 ADD MSTORE PUSH14 0x195C881BDC88185C1C1C9BDD9959 PUSH1 0x92 SHL PUSH1 0x60 DUP3 ADD MSTORE PUSH1 0x80 ADD SWAP1 JUMP JUMPDEST PUSH1 0x20 DUP1 DUP3 MSTORE PUSH1 0x19 SWAP1 DUP3 ADD MSTORE PUSH25 0x1314151BDAD95B8E881A5B9D985B1A59081D1BDAD95B881251 PUSH1 0x3A SHL PUSH1 0x40 DUP3 ADD MSTORE PUSH1 0x60 ADD SWAP1 JUMP JUMPDEST PUSH1 0x0 DUP4 MLOAD PUSH2 0x1374 DUP2 DUP5 PUSH1 0x20 DUP9 ADD PUSH2 0x1025 JUMP JUMPDEST DUP4 MLOAD SWAP1 DUP4 ADD SWAP1 PUSH2 0x1388 DUP2 DUP4 PUSH1 0x20 DUP9 ADD PUSH2 0x1025 JUMP JUMPDEST ADD SWAP5 SWAP4 POP POP POP POP JUMP JUMPDEST PUSH1 0x20 DUP1 DUP3 MSTORE PUSH1 0x33 SWAP1 DUP3 ADD MSTORE PUSH32 0x4C50546F6B656E3A207472616E7366657220746F206E6F6E2045524337323152 PUSH1 0x40 DUP3 ADD MSTORE PUSH19 0x32B1B2B4BB32B91034B6B83632B6B2B73A32B9 PUSH1 0x69 SHL PUSH1 0x60 DUP3 ADD MSTORE PUSH1 0x80 ADD SWAP1 JUMP JUMPDEST PUSH4 0x4E487B71 PUSH1 0xE0 SHL PUSH1 0x0 MSTORE PUSH1 0x11 PUSH1 0x4 MSTORE PUSH1 0x24 PUSH1 0x0 REVERT JUMPDEST PUSH1 0x0 DUP3 DUP3 LT ISZERO PUSH2 0x140C JUMPI PUSH2 0x140C PUSH2 0x13E4 JUMP JUMPDEST POP SUB SWAP1 JUMP JUMPDEST PUSH1 0x0 DUP3 NOT DUP3 GT ISZERO PUSH2 0x1424 JUMPI PUSH2 0x1424 PUSH2 0x13E4 JUMP JUMPDEST POP ADD SWAP1 JUMP JUMPDEST PUSH1 0x1 PUSH1 0x1 PUSH1 0xA0 SHL SUB DUP6 DUP2 AND DUP3 MSTORE DUP5 AND PUSH1 0x20 DUP3 ADD MSTORE PUSH1 0x40 DUP2 ADD DUP4 SWAP1 MSTORE PUSH1 0x80 PUSH1 0x60 DUP3 ADD DUP2 SWAP1 MSTORE PUSH1 0x0 SWAP1 PUSH2 0x145C SWAP1 DUP4 ADD DUP5 PUSH2 0x1051 JUMP JUMPDEST SWAP7 SWAP6 POP POP POP POP POP POP JUMP JUMPDEST PUSH1 0x0 PUSH1 0x20 DUP3 DUP5 SUB SLT ISZERO PUSH2 0x1478 JUMPI PUSH1 0x0 DUP1 REVERT JUMPDEST DUP2 MLOAD PUSH2 0x6CD DUP2 PUSH2 0xFF2 JUMP JUMPDEST PUSH1 0x20 DUP1 DUP3 MSTORE PUSH1 0x1D SWAP1 DUP3 ADD MSTORE PUSH32 0x4C50546F6B656E3A20746F6B656E20616C7265616479206D696E746564000000 PUSH1 0x40 DUP3 ADD MSTORE PUSH1 0x60 ADD SWAP1 JUMP INVALID 0xDD CALLCODE MSTORE 0xAD SHL 0xE2 0xC8 SWAP12 PUSH10 0xC2B068FC378DAA952BA7 CALL PUSH4 0xC4A11628 CREATE2 GAS 0x4D CREATE2 0x23 0xB3 0xEF LOG2 PUSH5 0x6970667358 0x22 SLT KECCAK256 0xDC 0xD4 LT PUSH31 0xCDAE1C68FC5DDB541EBFE4982A8137784F4F83ACAD9AAD1B16295BEE64736F PUSH13 0x634300080A0033000000000000 "
				},
				"gasEstimates": {
					"creation": {
						"codeDepositCost": "1078400",
						"executionCost": "infinite",
						"totalCost": "infinite"
					},
					"external": {
						"approve(address,uint256)": "infinite",
						"balanceOf(address)": "2765",
						"burn(uint256)": "infinite",
						"getApproved(uint256)": "4843",
						"initialize(address)": "26975",
						"isApprovedForAll(address,address)": "infinite",
						"mint(address,uint256)": "infinite",
						"name()": "infinite",
						"ownerOf(uint256)": "2772",
						"safeTransferFrom(address,address,uint256)": "infinite",
						"safeTransferFrom(address,address,uint256,bytes)": "infinite",
						"setApprovalForAll(address,bool)": "26906",
						"supportsInterface(bytes4)": "488",
						"symbol()": "infinite",
						"tokenURI(uint256)": "infinite",
						"transferFrom(address,address,uint256)": "infinite"
					},
					"internal": {
						"_afterTokenTransfer(address,address,uint256,uint256)": "infinite",
						"_approve(address,uint256)": "infinite",
						"_baseURI()": "infinite",
						"_beforeTokenTransfer(address,address,uint256,uint256)": "48890",
						"_burn(uint256)": "infinite",
						"_checkOnERC721Received(address,address,uint256,bytes memory)": "infinite",
						"_exists(uint256)": "2272",
						"_isApprovedOrOwner(address,uint256)": "infinite",
						"_mint(address,uint256)": "infinite",
						"_ownerOf(uint256)": "2205",
						"_requireMinted(uint256)": "infinite",
						"_safeMint(address,uint256)": "infinite",
						"_safeMint(address,uint256,bytes memory)": "infinite",
						"_safeTransfer(address,address,uint256,bytes memory)": "infinite",
						"_setApprovalForAll(address,address,bool)": "infinite",
						"_transfer(address,address,uint256)": "infinite"
					}
				},
				"methodIdentifiers": {
					"approve(address,uint256)": "095ea7b3",
					"balanceOf(address)": "70a08231",
					"burn(uint256)": "42966c68",
					"getApproved(uint256)": "081812fc",
					"initialize(address)": "c4d66de8",
					"isApprovedForAll(address,address)": "e985e9c5",
					"mint(address,uint256)": "40c10f19",
					"name()": "06fdde03",
					"ownerOf(uint256)": "6352211e",
					"safeTransferFrom(address,address,uint256)": "42842e0e",
					"safeTransferFrom(address,address,uint256,bytes)": "b88d4fde",
					"setApprovalForAll(address,bool)": "a22cb465",
					"supportsInterface(bytes4)": "01ffc9a7",
					"symbol()": "95d89b41",
					"tokenURI(uint256)": "c87b56dd",
					"transferFrom(address,address,uint256)": "23b872dd"
				}
			},
			"storageLayout": {
				"storage": [
					{
						"astId": 1614,
						"contract": "Midas/Midas_main/src/LPToken.sol:LPToken",
						"label": "_name",
						"offset": 0,
						"slot": "0",
						"type": "t_string_storage"
					},
					{
						"astId": 1616,
						"contract": "Midas/Midas_main/src/LPToken.sol:LPToken",
						"label": "_symbol",
						"offset": 0,
						"slot": "1",
						"type": "t_string_storage"
					},
					{
						"astId": 1618,
						"contract": "Midas/Midas_main/src/LPToken.sol:LPToken",
						"label": "_pair",
						"offset": 0,
						"slot": "2",
						"type": "t_address"
					},
					{
						"astId": 1620,
						"contract": "Midas/Midas_main/src/LPToken.sol:LPToken",
						"label": "_factory",
						"offset": 0,
						"slot": "3",
						"type": "t_address"
					},
					{
						"astId": 1624,
						"contract": "Midas/Midas_main/src/LPToken.sol:LPToken",
						"label": "_owners",
						"offset": 0,
						"slot": "4",
						"type": "t_mapping(t_uint256,t_address)"
					},
					{
						"astId": 1628,
						"contract": "Midas/Midas_main/src/LPToken.sol:LPToken",
						"label": "_balances",
						"offset": 0,
						"slot": "5",
						"type": "t_mapping(t_address,t_uint256)"
					},
					{
						"astId": 1632,
						"contract": "Midas/Midas_main/src/LPToken.sol:LPToken",
						"label": "_tokenApprovals",
						"offset": 0,
						"slot": "6",
						"type": "t_mapping(t_uint256,t_address)"
					},
					{
						"astId": 1638,
						"contract": "Midas/Midas_main/src/LPToken.sol:LPToken",
						"label": "_operatorApprovals",
						"offset": 0,
						"slot": "7",
						"type": "t_mapping(t_address,t_mapping(t_address,t_bool))"
					}
				],
				"types": {
					"t_address": {
						"encoding": "inplace",
						"label": "address",
						"numberOfBytes": "20"
					},
					"t_bool": {
						"encoding": "inplace",
						"label": "bool",
						"numberOfBytes": "1"
					},
					"t_mapping(t_address,t_bool)": {
						"encoding": "mapping",
						"key": "t_address",
						"label": "mapping(address => bool)",
						"numberOfBytes": "32",
						"value": "t_bool"
					},
					"t_mapping(t_address,t_mapping(t_address,t_bool))": {
						"encoding": "mapping",
						"key": "t_address",
						"label": "mapping(address => mapping(address => bool))",
						"numberOfBytes": "32",
						"value": "t_mapping(t_address,t_bool)"
					},
					"t_mapping(t_address,t_uint256)": {
						"encoding": "mapping",
						"key": "t_address",
						"label": "mapping(address => uint256)",
						"numberOfBytes": "32",
						"value": "t_uint256"
					},
					"t_mapping(t_uint256,t_address)": {
						"encoding": "mapping",
						"key": "t_uint256",
						"label": "mapping(uint256 => address)",
						"numberOfBytes": "32",
						"value": "t_address"
					},
					"t_string_storage": {
						"encoding": "bytes",
						"label": "string",
						"numberOfBytes": "32"
					},
					"t_uint256": {
						"encoding": "inplace",
						"label": "uint256",
						"numberOfBytes": "32"
					}
				}
			},
			"userdoc": {
				"kind": "user",
				"methods": {},
				"notice": "LP token wrapped the Midaswap position information which provides interfaces to liquidity providers from Midaswap Pair.",
				"version": 1
			}
		}
	}
}