{
	"data": {
		"bytecode": {
			"linkReferences": {},
			"object": "608060405234801561001057600080fd5b50610483806100206000396000f3fe608060405234801561001057600080fd5b506004361061002b5760003560e01c80639d13c02f14610030575b600080fd5b61004361003e36600461020f565b610059565b60405161005091906102cc565b60405180910390f35b60606100748260006001855161006f9190610326565b610078565b5090565b818180821415610089575050505050565b6000856002610098878761033d565b6100a2919061037c565b6100ac90876103b8565b815181106100bc576100bc6103f9565b602002602001015190505b8183136101cb575b808684815181106100e2576100e26103f9565b6020026020010151111561010257826100fa8161040f565b9350506100cf565b858281518110610114576101146103f9565b6020026020010151811115610135578161012d8161042f565b925050610102565b8183136101c65785828151811061014e5761014e6103f9565b6020026020010151868481518110610168576101686103f9565b6020026020010151878581518110610182576101826103f9565b6020026020010188858151811061019b5761019b6103f9565b602090810291909101019190915252826101b48161040f565b93505081806101c29061042f565b9250505b6100c7565b818512156101de576101de868684610078565b838312156101f1576101f1868486610078565b505050505050565b634e487b7160e01b600052604160045260246000fd5b6000602080838503121561022257600080fd5b82356001600160401b038082111561023957600080fd5b818501915085601f83011261024d57600080fd5b81358181111561025f5761025f6101f9565b8060051b604051601f19603f83011681018181108582111715610284576102846101f9565b6040529182528482019250838101850191888311156102a257600080fd5b938501935b828510156102c0578435845293850193928501926102a7565b98975050505050505050565b6020808252825182820181905260009190848201906040850190845b81811015610304578351835292840192918401916001016102e8565b50909695505050505050565b634e487b7160e01b600052601160045260246000fd5b60008282101561033857610338610310565b500390565b60008083128015600160ff1b85018412161561035b5761035b610310565b6001600160ff1b038401831381161561037657610376610310565b50500390565b60008261039957634e487b7160e01b600052601260045260246000fd5b600160ff1b8214600019841416156103b3576103b3610310565b500590565b600080821280156001600160ff1b03849003851316156103da576103da610310565b600160ff1b83900384128116156103f3576103f3610310565b50500190565b634e487b7160e01b600052603260045260246000fd5b60006001600160ff1b0382141561042857610428610310565b5060010190565b6000600160ff1b82141561044557610445610310565b50600019019056fea26469706673582212207252fee9b95e810e56f2c44a76ccf7a11d717fb14d407381396e6882bd2da29064736f6c634300080a0033",
			"opcodes": "PUSH1 0x80 PUSH1 0x40 MSTORE CALLVALUE DUP1 ISZERO PUSH2 0x10 JUMPI PUSH1 0x0 DUP1 REVERT JUMPDEST POP PUSH2 0x483 DUP1 PUSH2 0x20 PUSH1 0x0 CODECOPY PUSH1 0x0 RETURN INVALID PUSH1 0x80 PUSH1 0x40 MSTORE CALLVALUE DUP1 ISZERO PUSH2 0x10 JUMPI PUSH1 0x0 DUP1 REVERT JUMPDEST POP PUSH1 0x4 CALLDATASIZE LT PUSH2 0x2B JUMPI PUSH1 0x0 CALLDATALOAD PUSH1 0xE0 SHR DUP1 PUSH4 0x9D13C02F EQ PUSH2 0x30 JUMPI JUMPDEST PUSH1 0x0 DUP1 REVERT JUMPDEST PUSH2 0x43 PUSH2 0x3E CALLDATASIZE PUSH1 0x4 PUSH2 0x20F JUMP JUMPDEST PUSH2 0x59 JUMP JUMPDEST PUSH1 0x40 MLOAD PUSH2 0x50 SWAP2 SWAP1 PUSH2 0x2CC JUMP JUMPDEST PUSH1 0x40 MLOAD DUP1 SWAP2 SUB SWAP1 RETURN JUMPDEST PUSH1 0x60 PUSH2 0x74 DUP3 PUSH1 0x0 PUSH1 0x1 DUP6 MLOAD PUSH2 0x6F SWAP2 SWAP1 PUSH2 0x326 JUMP JUMPDEST PUSH2 0x78 JUMP JUMPDEST POP SWAP1 JUMP JUMPDEST DUP2 DUP2 DUP1 DUP3 EQ ISZERO PUSH2 0x89 JUMPI POP POP POP POP POP JUMP JUMPDEST PUSH1 0x0 DUP6 PUSH1 0x2 PUSH2 0x98 DUP8 DUP8 PUSH2 0x33D JUMP JUMPDEST PUSH2 0xA2 SWAP2 SWAP1 PUSH2 0x37C JUMP JUMPDEST PUSH2 0xAC SWAP1 DUP8 PUSH2 0x3B8 JUMP JUMPDEST DUP2 MLOAD DUP2 LT PUSH2 0xBC JUMPI PUSH2 0xBC PUSH2 0x3F9 JUMP JUMPDEST PUSH1 0x20 MUL PUSH1 0x20 ADD ADD MLOAD SWAP1 POP JUMPDEST DUP2 DUP4 SGT PUSH2 0x1CB JUMPI JUMPDEST DUP1 DUP7 DUP5 DUP2 MLOAD DUP2 LT PUSH2 0xE2 JUMPI PUSH2 0xE2 PUSH2 0x3F9 JUMP JUMPDEST PUSH1 0x20 MUL PUSH1 0x20 ADD ADD MLOAD GT ISZERO PUSH2 0x102 JUMPI DUP3 PUSH2 0xFA DUP2 PUSH2 0x40F JUMP JUMPDEST SWAP4 POP POP PUSH2 0xCF JUMP JUMPDEST DUP6 DUP3 DUP2 MLOAD DUP2 LT PUSH2 0x114 JUMPI PUSH2 0x114 PUSH2 0x3F9 JUMP JUMPDEST PUSH1 0x20 MUL PUSH1 0x20 ADD ADD MLOAD DUP2 GT ISZERO PUSH2 0x135 JUMPI DUP2 PUSH2 0x12D DUP2 PUSH2 0x42F JUMP JUMPDEST SWAP3 POP POP PUSH2 0x102 JUMP JUMPDEST DUP2 DUP4 SGT PUSH2 0x1C6 JUMPI DUP6 DUP3 DUP2 MLOAD DUP2 LT PUSH2 0x14E JUMPI PUSH2 0x14E PUSH2 0x3F9 JUMP JUMPDEST PUSH1 0x20 MUL PUSH1 0x20 ADD ADD MLOAD DUP7 DUP5 DUP2 MLOAD DUP2 LT PUSH2 0x168 JUMPI PUSH2 0x168 PUSH2 0x3F9 JUMP JUMPDEST PUSH1 0x20 MUL PUSH1 0x20 ADD ADD MLOAD DUP8 DUP6 DUP2 MLOAD DUP2 LT PUSH2 0x182 JUMPI PUSH2 0x182 PUSH2 0x3F9 JUMP JUMPDEST PUSH1 0x20 MUL PUSH1 0x20 ADD ADD DUP9 DUP6 DUP2 MLOAD DUP2 LT PUSH2 0x19B JUMPI PUSH2 0x19B PUSH2 0x3F9 JUMP JUMPDEST PUSH1 0x20 SWAP1 DUP2 MUL SWAP2 SWAP1 SWAP2 ADD ADD SWAP2 SWAP1 SWAP2 MSTORE MSTORE DUP3 PUSH2 0x1B4 DUP2 PUSH2 0x40F JUMP JUMPDEST SWAP4 POP POP DUP2 DUP1 PUSH2 0x1C2 SWAP1 PUSH2 0x42F JUMP JUMPDEST SWAP3 POP POP JUMPDEST PUSH2 0xC7 JUMP JUMPDEST DUP2 DUP6 SLT ISZERO PUSH2 0x1DE JUMPI PUSH2 0x1DE DUP7 DUP7 DUP5 PUSH2 0x78 JUMP JUMPDEST DUP4 DUP4 SLT ISZERO PUSH2 0x1F1 JUMPI PUSH2 0x1F1 DUP7 DUP5 DUP7 PUSH2 0x78 JUMP JUMPDEST POP POP POP POP POP POP JUMP JUMPDEST PUSH4 0x4E487B71 PUSH1 0xE0 SHL PUSH1 0x0 MSTORE PUSH1 0x41 PUSH1 0x4 MSTORE PUSH1 0x24 PUSH1 0x0 REVERT JUMPDEST PUSH1 0x0 PUSH1 0x20 DUP1 DUP4 DUP6 SUB SLT ISZERO PUSH2 0x222 JUMPI PUSH1 0x0 DUP1 REVERT JUMPDEST DUP3 CALLDATALOAD PUSH1 0x1 PUSH1 0x1 PUSH1 0x40 SHL SUB DUP1 DUP3 GT ISZERO PUSH2 0x239 JUMPI PUSH1 0x0 DUP1 REVERT JUMPDEST DUP2 DUP6 ADD SWAP2 POP DUP6 PUSH1 0x1F DUP4 ADD SLT PUSH2 0x24D JUMPI PUSH1 0x0 DUP1 REVERT JUMPDEST DUP2 CALLDATALOAD DUP2 DUP2 GT ISZERO PUSH2 0x25F JUMPI PUSH2 0x25F PUSH2 0x1F9 JUMP JUMPDEST DUP1 PUSH1 0x5 SHL PUSH1 0x40 MLOAD PUSH1 0x1F NOT PUSH1 0x3F DUP4 ADD AND DUP2 ADD DUP2 DUP2 LT DUP6 DUP3 GT OR ISZERO PUSH2 0x284 JUMPI PUSH2 0x284 PUSH2 0x1F9 JUMP JUMPDEST PUSH1 0x40 MSTORE SWAP2 DUP3 MSTORE DUP5 DUP3 ADD SWAP3 POP DUP4 DUP2 ADD DUP6 ADD SWAP2 DUP9 DUP4 GT ISZERO PUSH2 0x2A2 JUMPI PUSH1 0x0 DUP1 REVERT JUMPDEST SWAP4 DUP6 ADD SWAP4 JUMPDEST DUP3 DUP6 LT ISZERO PUSH2 0x2C0 JUMPI DUP5 CALLDATALOAD DUP5 MSTORE SWAP4 DUP6 ADD SWAP4 SWAP3 DUP6 ADD SWAP3 PUSH2 0x2A7 JUMP JUMPDEST SWAP9 SWAP8 POP POP POP POP POP POP POP POP JUMP JUMPDEST PUSH1 0x20 DUP1 DUP3 MSTORE DUP3 MLOAD DUP3 DUP3 ADD DUP2 SWAP1 MSTORE PUSH1 0x0 SWAP2 SWAP1 DUP5 DUP3 ADD SWAP1 PUSH1 0x40 DUP6 ADD SWAP1 DUP5 JUMPDEST DUP2 DUP2 LT ISZERO PUSH2 0x304 JUMPI DUP4 MLOAD DUP4 MSTORE SWAP3 DUP5 ADD SWAP3 SWAP2 DUP5 ADD SWAP2 PUSH1 0x1 ADD PUSH2 0x2E8 JUMP JUMPDEST POP SWAP1 SWAP7 SWAP6 POP POP POP POP POP POP JUMP JUMPDEST PUSH4 0x4E487B71 PUSH1 0xE0 SHL PUSH1 0x0 MSTORE PUSH1 0x11 PUSH1 0x4 MSTORE PUSH1 0x24 PUSH1 0x0 REVERT JUMPDEST PUSH1 0x0 DUP3 DUP3 LT ISZERO PUSH2 0x338 JUMPI PUSH2 0x338 PUSH2 0x310 JUMP JUMPDEST POP SUB SWAP1 JUMP JUMPDEST PUSH1 0x0 DUP1 DUP4 SLT DUP1 ISZERO PUSH1 0x1 PUSH1 0xFF SHL DUP6 ADD DUP5 SLT AND ISZERO PUSH2 0x35B JUMPI PUSH2 0x35B PUSH2 0x310 JUMP JUMPDEST PUSH1 0x1 PUSH1 0x1 PUSH1 0xFF SHL SUB DUP5 ADD DUP4 SGT DUP2 AND ISZERO PUSH2 0x376 JUMPI PUSH2 0x376 PUSH2 0x310 JUMP JUMPDEST POP POP SUB SWAP1 JUMP JUMPDEST PUSH1 0x0 DUP3 PUSH2 0x399 JUMPI PUSH4 0x4E487B71 PUSH1 0xE0 SHL PUSH1 0x0 MSTORE PUSH1 0x12 PUSH1 0x4 MSTORE PUSH1 0x24 PUSH1 0x0 REVERT JUMPDEST PUSH1 0x1 PUSH1 0xFF SHL DUP3 EQ PUSH1 0x0 NOT DUP5 EQ AND ISZERO PUSH2 0x3B3 JUMPI PUSH2 0x3B3 PUSH2 0x310 JUMP JUMPDEST POP SDIV SWAP1 JUMP JUMPDEST PUSH1 0x0 DUP1 DUP3 SLT DUP1 ISZERO PUSH1 0x1 PUSH1 0x1 PUSH1 0xFF SHL SUB DUP5 SWAP1 SUB DUP6 SGT AND ISZERO PUSH2 0x3DA JUMPI PUSH2 0x3DA PUSH2 0x310 JUMP JUMPDEST PUSH1 0x1 PUSH1 0xFF SHL DUP4 SWAP1 SUB DUP5 SLT DUP2 AND ISZERO PUSH2 0x3F3 JUMPI PUSH2 0x3F3 PUSH2 0x310 JUMP JUMPDEST POP POP ADD SWAP1 JUMP JUMPDEST PUSH4 0x4E487B71 PUSH1 0xE0 SHL PUSH1 0x0 MSTORE PUSH1 0x32 PUSH1 0x4 MSTORE PUSH1 0x24 PUSH1 0x0 REVERT JUMPDEST PUSH1 0x0 PUSH1 0x1 PUSH1 0x1 PUSH1 0xFF SHL SUB DUP3 EQ ISZERO PUSH2 0x428 JUMPI PUSH2 0x428 PUSH2 0x310 JUMP JUMPDEST POP PUSH1 0x1 ADD SWAP1 JUMP JUMPDEST PUSH1 0x0 PUSH1 0x1 PUSH1 0xFF SHL DUP3 EQ ISZERO PUSH2 0x445 JUMPI PUSH2 0x445 PUSH2 0x310 JUMP JUMPDEST POP PUSH1 0x0 NOT ADD SWAP1 JUMP INVALID LOG2 PUSH5 0x6970667358 0x22 SLT KECCAK256 PUSH19 0x52FEE9B95E810E56F2C44A76CCF7A11D717FB1 0x4D BLOCKHASH PUSH20 0x81396E6882BD2DA29064736F6C634300080A0033 "
		},
		"gasEstimates": {
			"creation": {
				"codeDepositCost": "231000",
				"executionCost": "275",
				"totalCost": "231275"
			},
			"external": {
				"sortDesc(uint256[])": "infinite"
			},
			"internal": {
				"quicksort(uint256[] memory,int256,int256)": "infinite"
			}
		},
		"methodIdentifiers": {
			"sortDesc(uint256[])": "9d13c02f"
		}
	},
	"abi": [
		{
			"inputs": [
				{
					"internalType": "uint256[]",
					"name": "arr",
					"type": "uint256[]"
				}
			],
			"name": "sortDesc",
			"outputs": [
				{
					"internalType": "uint256[]",
					"name": "",
					"type": "uint256[]"
				}
			],
			"stateMutability": "pure",
			"type": "function"
		}
	]
}