{
	"joe-v2-main/src/LBFactory.sol": {
		"LBFactory": {
			"abi": [
				{
					"inputs": [
						{
							"internalType": "address",
							"name": "_feeRecipient",
							"type": "address"
						}
					],
					"stateMutability": "nonpayable",
					"type": "constructor"
				},
				{
					"inputs": [],
					"name": "BinHelper__IdOverflows",
					"type": "error"
				},
				{
					"inputs": [],
					"name": "LBFactory__AddressZero",
					"type": "error"
				},
				{
					"inputs": [],
					"name": "LBFactory__FactoryLockIsAlreadyInTheSameState",
					"type": "error"
				},
				{
					"inputs": [
						{
							"internalType": "address",
							"name": "user",
							"type": "address"
						}
					],
					"name": "LBFactory__FunctionIsLockedForUsers",
					"type": "error"
				},
				{
					"inputs": [
						{
							"internalType": "contract IERC20",
							"name": "token",
							"type": "address"
						}
					],
					"name": "LBFactory__IdenticalAddresses",
					"type": "error"
				},
				{
					"inputs": [],
					"name": "LBFactory__ImplementationNotSet",
					"type": "error"
				},
				{
					"inputs": [
						{
							"internalType": "contract IERC20",
							"name": "tokenX",
							"type": "address"
						},
						{
							"internalType": "contract IERC20",
							"name": "tokenY",
							"type": "address"
						},
						{
							"internalType": "uint256",
							"name": "_binStep",
							"type": "uint256"
						}
					],
					"name": "LBFactory__LBPairAlreadyExists",
					"type": "error"
				},
				{
					"inputs": [
						{
							"internalType": "address",
							"name": "LBPairImplementation",
							"type": "address"
						}
					],
					"name": "LBFactory__LBPairSafetyCheckFailed",
					"type": "error"
				},
				{
					"inputs": [
						{
							"internalType": "contract IERC20",
							"name": "quoteAsset",
							"type": "address"
						}
					],
					"name": "LBFactory__QuoteAssetAlreadyWhitelisted",
					"type": "error"
				},
				{
					"inputs": [
						{
							"internalType": "contract IERC20",
							"name": "quoteAsset",
							"type": "address"
						}
					],
					"name": "LBFactory__QuoteAssetNotWhitelisted",
					"type": "error"
				},
				{
					"inputs": [
						{
							"internalType": "address",
							"name": "feeRecipient",
							"type": "address"
						}
					],
					"name": "LBFactory__SameFeeRecipient",
					"type": "error"
				},
				{
					"inputs": [
						{
							"internalType": "address",
							"name": "LBPairImplementation",
							"type": "address"
						}
					],
					"name": "LBFactory__SameImplementation",
					"type": "error"
				},
				{
					"inputs": [
						{
							"internalType": "uint256",
							"name": "x",
							"type": "uint256"
						},
						{
							"internalType": "int256",
							"name": "y",
							"type": "int256"
						}
					],
					"name": "Math128x128__PowerUnderflow",
					"type": "error"
				},
				{
					"inputs": [],
					"name": "PendingOwnable__AddressZero",
					"type": "error"
				},
				{
					"inputs": [],
					"name": "PendingOwnable__NoPendingOwner",
					"type": "error"
				},
				{
					"inputs": [],
					"name": "PendingOwnable__NotOwner",
					"type": "error"
				},
				{
					"inputs": [],
					"name": "PendingOwnable__NotPendingOwner",
					"type": "error"
				},
				{
					"inputs": [],
					"name": "PendingOwnable__PendingOwnerAlreadySet",
					"type": "error"
				},
				{
					"anonymous": false,
					"inputs": [
						{
							"indexed": false,
							"internalType": "bool",
							"name": "unlocked",
							"type": "bool"
						}
					],
					"name": "FactoryLockedStatusUpdated",
					"type": "event"
				},
				{
					"anonymous": false,
					"inputs": [
						{
							"indexed": true,
							"internalType": "address",
							"name": "sender",
							"type": "address"
						},
						{
							"indexed": true,
							"internalType": "contract ILBPair",
							"name": "LBPair",
							"type": "address"
						},
						{
							"indexed": false,
							"internalType": "uint256",
							"name": "baseFactor",
							"type": "uint256"
						},
						{
							"indexed": false,
							"internalType": "uint256",
							"name": "filterPeriod",
							"type": "uint256"
						},
						{
							"indexed": false,
							"internalType": "uint256",
							"name": "decayPeriod",
							"type": "uint256"
						},
						{
							"indexed": false,
							"internalType": "uint256",
							"name": "reductionFactor",
							"type": "uint256"
						},
						{
							"indexed": false,
							"internalType": "uint256",
							"name": "variableFeeControl",
							"type": "uint256"
						},
						{
							"indexed": false,
							"internalType": "uint256",
							"name": "protocolShare",
							"type": "uint256"
						},
						{
							"indexed": false,
							"internalType": "uint256",
							"name": "maxVolatilityAccumulated",
							"type": "uint256"
						}
					],
					"name": "FeeParametersSet",
					"type": "event"
				},
				{
					"anonymous": false,
					"inputs": [
						{
							"indexed": false,
							"internalType": "address",
							"name": "oldRecipient",
							"type": "address"
						},
						{
							"indexed": false,
							"internalType": "address",
							"name": "newRecipient",
							"type": "address"
						}
					],
					"name": "FeeRecipientSet",
					"type": "event"
				},
				{
					"anonymous": false,
					"inputs": [
						{
							"indexed": false,
							"internalType": "uint256",
							"name": "oldFlashLoanFee",
							"type": "uint256"
						},
						{
							"indexed": false,
							"internalType": "uint256",
							"name": "newFlashLoanFee",
							"type": "uint256"
						}
					],
					"name": "FlashLoanFeeSet",
					"type": "event"
				},
				{
					"anonymous": false,
					"inputs": [
						{
							"indexed": true,
							"internalType": "contract IERC20",
							"name": "tokenX",
							"type": "address"
						},
						{
							"indexed": true,
							"internalType": "contract IERC20",
							"name": "tokenY",
							"type": "address"
						},
						{
							"indexed": false,
							"internalType": "contract ILBPair",
							"name": "LBPair",
							"type": "address"
						},
						{
							"indexed": false,
							"internalType": "uint256",
							"name": "pid",
							"type": "uint256"
						}
					],
					"name": "LBPairCreated",
					"type": "event"
				},
				{
					"anonymous": false,
					"inputs": [
						{
							"indexed": true,
							"internalType": "contract ILBPair",
							"name": "LBPair",
							"type": "address"
						},
						{
							"indexed": false,
							"internalType": "bool",
							"name": "ignored",
							"type": "bool"
						}
					],
					"name": "LBPairIgnoredStateChanged",
					"type": "event"
				},
				{
					"anonymous": false,
					"inputs": [
						{
							"indexed": false,
							"internalType": "address",
							"name": "oldLBPairImplementation",
							"type": "address"
						},
						{
							"indexed": false,
							"internalType": "address",
							"name": "LBPairImplementation",
							"type": "address"
						}
					],
					"name": "LBPairImplementationSet",
					"type": "event"
				},
				{
					"anonymous": false,
					"inputs": [
						{
							"indexed": true,
							"internalType": "address",
							"name": "previousOwner",
							"type": "address"
						},
						{
							"indexed": true,
							"internalType": "address",
							"name": "newOwner",
							"type": "address"
						}
					],
					"name": "OwnershipTransferred",
					"type": "event"
				},
				{
					"anonymous": false,
					"inputs": [
						{
							"indexed": true,
							"internalType": "address",
							"name": "pendingOwner",
							"type": "address"
						}
					],
					"name": "PendingOwnerSet",
					"type": "event"
				},
				{
					"anonymous": false,
					"inputs": [],
					"name": "PresetRemoved",
					"type": "event"
				},
				{
					"anonymous": false,
					"inputs": [
						{
							"indexed": false,
							"internalType": "uint256",
							"name": "baseFactor",
							"type": "uint256"
						},
						{
							"indexed": false,
							"internalType": "uint256",
							"name": "filterPeriod",
							"type": "uint256"
						},
						{
							"indexed": false,
							"internalType": "uint256",
							"name": "decayPeriod",
							"type": "uint256"
						},
						{
							"indexed": false,
							"internalType": "uint256",
							"name": "reductionFactor",
							"type": "uint256"
						},
						{
							"indexed": false,
							"internalType": "uint256",
							"name": "variableFeeControl",
							"type": "uint256"
						},
						{
							"indexed": false,
							"internalType": "uint256",
							"name": "protocolShare",
							"type": "uint256"
						},
						{
							"indexed": false,
							"internalType": "uint256",
							"name": "maxVolatilityAccumulated",
							"type": "uint256"
						},
						{
							"indexed": false,
							"internalType": "uint256",
							"name": "sampleLifetime",
							"type": "uint256"
						}
					],
					"name": "PresetSet",
					"type": "event"
				},
				{
					"anonymous": false,
					"inputs": [
						{
							"indexed": true,
							"internalType": "contract IERC20",
							"name": "quoteAsset",
							"type": "address"
						}
					],
					"name": "QuoteAssetAdded",
					"type": "event"
				},
				{
					"anonymous": false,
					"inputs": [
						{
							"indexed": true,
							"internalType": "contract IERC20",
							"name": "quoteAsset",
							"type": "address"
						}
					],
					"name": "QuoteAssetRemoved",
					"type": "event"
				},
				{
					"inputs": [],
					"name": "LBPairImplementation",
					"outputs": [
						{
							"internalType": "address",
							"name": "",
							"type": "address"
						}
					],
					"stateMutability": "view",
					"type": "function"
				},
				{
					"inputs": [],
					"name": "MAX_FEE",
					"outputs": [
						{
							"internalType": "uint256",
							"name": "",
							"type": "uint256"
						}
					],
					"stateMutability": "view",
					"type": "function"
				},
				{
					"inputs": [
						{
							"internalType": "contract IERC20",
							"name": "_quoteAsset",
							"type": "address"
						}
					],
					"name": "addQuoteAsset",
					"outputs": [],
					"stateMutability": "nonpayable",
					"type": "function"
				},
				{
					"inputs": [
						{
							"internalType": "uint256",
							"name": "",
							"type": "uint256"
						}
					],
					"name": "allLBPairs",
					"outputs": [
						{
							"internalType": "contract ILBPair",
							"name": "",
							"type": "address"
						}
					],
					"stateMutability": "view",
					"type": "function"
				},
				{
					"inputs": [],
					"name": "becomeOwner",
					"outputs": [],
					"stateMutability": "nonpayable",
					"type": "function"
				},
				{
					"inputs": [
						{
							"internalType": "contract IERC20",
							"name": "_tokenX",
							"type": "address"
						},
						{
							"internalType": "contract IERC20",
							"name": "_tokenY",
							"type": "address"
						},
						{
							"internalType": "uint24",
							"name": "_activeId",
							"type": "uint24"
						}
					],
					"name": "createLBPair",
					"outputs": [
						{
							"internalType": "contract ILBPair",
							"name": "_LBPair",
							"type": "address"
						}
					],
					"stateMutability": "nonpayable",
					"type": "function"
				},
				{
					"inputs": [],
					"name": "creationUnlocked",
					"outputs": [
						{
							"internalType": "bool",
							"name": "",
							"type": "bool"
						}
					],
					"stateMutability": "view",
					"type": "function"
				},
				{
					"inputs": [],
					"name": "feeRecipient",
					"outputs": [
						{
							"internalType": "address",
							"name": "",
							"type": "address"
						}
					],
					"stateMutability": "view",
					"type": "function"
				},
				{
					"inputs": [],
					"name": "flashLoanFee",
					"outputs": [
						{
							"internalType": "uint256",
							"name": "",
							"type": "uint256"
						}
					],
					"stateMutability": "view",
					"type": "function"
				},
				{
					"inputs": [
						{
							"internalType": "contract IERC20",
							"name": "_tokenA",
							"type": "address"
						},
						{
							"internalType": "contract IERC20",
							"name": "_tokenB",
							"type": "address"
						}
					],
					"name": "getLBPairInformation",
					"outputs": [
						{
							"components": [
								{
									"internalType": "contract ILBPair",
									"name": "LBPair",
									"type": "address"
								},
								{
									"internalType": "bool",
									"name": "createdByOwner",
									"type": "bool"
								}
							],
							"internalType": "struct ILBFactory.LBPairInformation",
							"name": "",
							"type": "tuple"
						}
					],
					"stateMutability": "view",
					"type": "function"
				},
				{
					"inputs": [],
					"name": "getNumberOfLBPairs",
					"outputs": [
						{
							"internalType": "uint256",
							"name": "",
							"type": "uint256"
						}
					],
					"stateMutability": "view",
					"type": "function"
				},
				{
					"inputs": [],
					"name": "getNumberOfQuoteAssets",
					"outputs": [
						{
							"internalType": "uint256",
							"name": "",
							"type": "uint256"
						}
					],
					"stateMutability": "view",
					"type": "function"
				},
				{
					"inputs": [
						{
							"internalType": "uint256",
							"name": "_index",
							"type": "uint256"
						}
					],
					"name": "getQuoteAsset",
					"outputs": [
						{
							"internalType": "contract IERC20",
							"name": "",
							"type": "address"
						}
					],
					"stateMutability": "view",
					"type": "function"
				},
				{
					"inputs": [
						{
							"internalType": "contract IERC20",
							"name": "_token",
							"type": "address"
						}
					],
					"name": "isQuoteAsset",
					"outputs": [
						{
							"internalType": "bool",
							"name": "",
							"type": "bool"
						}
					],
					"stateMutability": "view",
					"type": "function"
				},
				{
					"inputs": [],
					"name": "owner",
					"outputs": [
						{
							"internalType": "address",
							"name": "",
							"type": "address"
						}
					],
					"stateMutability": "view",
					"type": "function"
				},
				{
					"inputs": [],
					"name": "pendingOwner",
					"outputs": [
						{
							"internalType": "address",
							"name": "",
							"type": "address"
						}
					],
					"stateMutability": "view",
					"type": "function"
				},
				{
					"inputs": [
						{
							"internalType": "contract IERC20",
							"name": "_quoteAsset",
							"type": "address"
						}
					],
					"name": "removeQuoteAsset",
					"outputs": [],
					"stateMutability": "nonpayable",
					"type": "function"
				},
				{
					"inputs": [],
					"name": "renounceOwnership",
					"outputs": [],
					"stateMutability": "nonpayable",
					"type": "function"
				},
				{
					"inputs": [],
					"name": "revokePendingOwner",
					"outputs": [],
					"stateMutability": "nonpayable",
					"type": "function"
				},
				{
					"inputs": [
						{
							"internalType": "bool",
							"name": "_locked",
							"type": "bool"
						}
					],
					"name": "setFactoryLockedState",
					"outputs": [],
					"stateMutability": "nonpayable",
					"type": "function"
				},
				{
					"inputs": [
						{
							"internalType": "address",
							"name": "_feeRecipient",
							"type": "address"
						}
					],
					"name": "setFeeRecipient",
					"outputs": [],
					"stateMutability": "nonpayable",
					"type": "function"
				},
				{
					"inputs": [
						{
							"internalType": "address",
							"name": "_LBPairImplementation",
							"type": "address"
						}
					],
					"name": "setLBPairImplementation",
					"outputs": [],
					"stateMutability": "nonpayable",
					"type": "function"
				},
				{
					"inputs": [
						{
							"internalType": "address",
							"name": "pendingOwner_",
							"type": "address"
						}
					],
					"name": "setPendingOwner",
					"outputs": [],
					"stateMutability": "nonpayable",
					"type": "function"
				}
			],
			"devdoc": {
				"author": "Trader Joe",
				"kind": "dev",
				"methods": {
					"addQuoteAsset(address)": {
						"params": {
							"_quoteAsset": "The quote asset (e.g: AVAX, USDC...)"
						}
					},
					"constructor": {
						"params": {
							"_feeRecipient": "The address of the fee recipient"
						}
					},
					"createLBPair(address,address,uint24)": {
						"params": {
							"_activeId": "The active id of the pair",
							"_tokenX": "The address of the first token",
							"_tokenY": "The address of the second token"
						},
						"returns": {
							"_LBPair": "The address of the newly created LBPair"
						}
					},
					"getLBPairInformation(address,address)": {
						"params": {
							"_tokenA": "The address of the first token of the pair",
							"_tokenB": "The address of the second token of the pair"
						},
						"returns": {
							"_0": "The LBPairInformation"
						}
					},
					"getNumberOfLBPairs()": {
						"returns": {
							"_0": "The number of LBPair"
						}
					},
					"getNumberOfQuoteAssets()": {
						"returns": {
							"_0": "The number of quote assets"
						}
					},
					"getQuoteAsset(uint256)": {
						"params": {
							"_index": "The index"
						},
						"returns": {
							"_0": "The address of the _quoteAsset at index `index`"
						}
					},
					"isQuoteAsset(address)": {
						"params": {
							"_token": "The address of the asset"
						},
						"returns": {
							"_0": "Whether the token is a quote asset or not"
						}
					},
					"owner()": {
						"returns": {
							"_0": "The address of the current owner"
						}
					},
					"pendingOwner()": {
						"returns": {
							"_0": "The address of the current pending owner"
						}
					},
					"removeQuoteAsset(address)": {
						"params": {
							"_quoteAsset": "The quote asset (e.g: AVAX, USDC...)"
						}
					},
					"setFactoryLockedState(bool)": {
						"params": {
							"_locked": "If the creation is restricted (true) or not (false)"
						}
					},
					"setFeeRecipient(address)": {
						"params": {
							"_feeRecipient": "The address of the recipient"
						}
					},
					"setLBPairImplementation(address)": {
						"details": "Needs to be called by the owner",
						"params": {
							"_LBPairImplementation": "The address of the implementation"
						}
					}
				},
				"stateVariables": {
					"_LBPairsInfo": {
						"details": "Mapping from a (tokenA, tokenB, binStep) to a LBPair. The tokens are ordered to save gas, but they can be in the reverse order in the actual pair. Always query one of the 2 tokens of the pair to assert the order of the 2 tokens"
					},
					"_availablePresets": {
						"details": "Whether a preset was set or not, if the bit at `index` is 1, it means that the binStep `index` was set The max binStep set is 247. We use this method instead of an array to keep it ordered and to reduce gas"
					}
				},
				"title": "Liquidity Book Factory",
				"version": 1
			},
			"evm": {
				"assembly": "    /* \"joe-v2-main/src/LBFactory.sol\":712:10161  contract LBFactory is PendingOwnable, ILBFactory {... */\n  mstore(0x40, 0x80)\n    /* \"joe-v2-main/src/LBFactory.sol\":2126:2209  constructor(address _feeRecipient) {... */\n  callvalue\n  dup1\n  iszero\n  tag_1\n  jumpi\n  0x00\n  dup1\n  revert\ntag_1:\n  pop\n  mload(0x40)\n  sub(codesize, bytecodeSize)\n  dup1\n  bytecodeSize\n  dup4\n  codecopy\n  dup2\n  add\n  0x40\n  dup2\n  swap1\n  mstore\n  tag_2\n  swap2\n  tag_3\n  jump\t// in\ntag_2:\n    /* \"joe-v2-main/src/libraries/PendingOwnable.sol\":1652:1682  _transferOwnership(msg.sender) */\n  tag_7\n    /* \"joe-v2-main/src/libraries/PendingOwnable.sol\":1671:1681  msg.sender */\n  caller\n    /* \"joe-v2-main/src/libraries/PendingOwnable.sol\":1652:1670  _transferOwnership */\n  tag_8\n    /* \"joe-v2-main/src/libraries/PendingOwnable.sol\":1652:1682  _transferOwnership(msg.sender) */\n  jump\t// in\ntag_7:\n    /* \"joe-v2-main/src/LBFactory.sol\":2171:2202  _setFeeRecipient(_feeRecipient) */\n  tag_10\n    /* \"joe-v2-main/src/LBFactory.sol\":2188:2201  _feeRecipient */\n  dup2\n    /* \"joe-v2-main/src/LBFactory.sol\":2171:2187  _setFeeRecipient */\n  tag_11\n    /* \"joe-v2-main/src/LBFactory.sol\":2171:2202  _setFeeRecipient(_feeRecipient) */\n  jump\t// in\ntag_10:\n    /* \"joe-v2-main/src/LBFactory.sol\":2126:2209  constructor(address _feeRecipient) {... */\n  pop\n    /* \"joe-v2-main/src/LBFactory.sol\":712:10161  contract LBFactory is PendingOwnable, ILBFactory {... */\n  jump(tag_21)\n    /* \"joe-v2-main/src/libraries/PendingOwnable.sol\":3788:4016  function _transferOwnership(address _newOwner) internal virtual {... */\ntag_8:\n    /* \"joe-v2-main/src/libraries/PendingOwnable.sol\":3862:3879  address _oldOwner */\n  0x00\n    /* \"joe-v2-main/src/libraries/PendingOwnable.sol\":3882:3888  _owner */\n  dup1\n  sload\n  sub(shl(0xa0, 0x01), 0x01)\n    /* \"joe-v2-main/src/libraries/PendingOwnable.sol\":3898:3916  _owner = _newOwner */\n  dup4\n  dup2\n  and\n  not(sub(shl(0xa0, 0x01), 0x01))\n  dup1\n  dup5\n  and\n  dup3\n  or\n  dup6\n  sstore\n    /* \"joe-v2-main/src/libraries/PendingOwnable.sol\":3882:3888  _owner */\n  0x01\n    /* \"joe-v2-main/src/libraries/PendingOwnable.sol\":3926:3952  _pendingOwner = address(0) */\n  dup1\n  sload\n  swap1\n  swap2\n  and\n  swap1\n  sstore\n    /* \"joe-v2-main/src/libraries/PendingOwnable.sol\":3967:4009  OwnershipTransferred(_oldOwner, _newOwner) */\n  mload(0x40)\n    /* \"joe-v2-main/src/libraries/PendingOwnable.sol\":3882:3888  _owner */\n  swap2\n  swap1\n  swap3\n  and\n  swap3\n  dup4\n  swap2\n    /* \"joe-v2-main/src/libraries/PendingOwnable.sol\":3967:4009  OwnershipTransferred(_oldOwner, _newOwner) */\n  0x8be0079c531659141344cd1fd0a4f28419497f9722a3daafe3b4186f6b6457e0\n  swap2\n    /* \"joe-v2-main/src/libraries/PendingOwnable.sol\":3862:3879  address _oldOwner */\n  swap1\n    /* \"joe-v2-main/src/libraries/PendingOwnable.sol\":3967:4009  OwnershipTransferred(_oldOwner, _newOwner) */\n  log3\n    /* \"joe-v2-main/src/libraries/PendingOwnable.sol\":3852:4016  {... */\n  pop\n    /* \"joe-v2-main/src/libraries/PendingOwnable.sol\":3788:4016  function _transferOwnership(address _newOwner) internal virtual {... */\n  pop\n  jump\t// out\n    /* \"joe-v2-main/src/LBFactory.sol\":8764:9153  function _setFeeRecipient(address _feeRecipient) internal {... */\ntag_11:\n  sub(shl(0xa0, 0x01), 0x01)\n    /* \"joe-v2-main/src/LBFactory.sol\":8836:8863  _feeRecipient == address(0) */\n  dup2\n  and\n    /* \"joe-v2-main/src/LBFactory.sol\":8832:8896  if (_feeRecipient == address(0)) revert LBFactory__AddressZero() */\n  tag_15\n  jumpi\n    /* \"joe-v2-main/src/LBFactory.sol\":8872:8896  LBFactory__AddressZero() */\n  mload(0x40)\n  shl(0xe2, 0x2573cfb9)\n  dup2\n  mstore\n  0x04\n  add\n  mload(0x40)\n  dup1\n  swap2\n  sub\n  swap1\n  revert\n    /* \"joe-v2-main/src/LBFactory.sol\":8832:8896  if (_feeRecipient == address(0)) revert LBFactory__AddressZero() */\ntag_15:\n    /* \"joe-v2-main/src/LBFactory.sol\":8934:8946  feeRecipient */\n  sload(0x03)\n  sub(shl(0xa0, 0x01), 0x01)\n  swap1\n  dup2\n  and\n  swap1\n    /* \"joe-v2-main/src/LBFactory.sol\":8960:8993  _oldFeeRecipient == _feeRecipient */\n  dup3\n  and\n  dup2\n  eq\n    /* \"joe-v2-main/src/LBFactory.sol\":8956:9044  if (_oldFeeRecipient == _feeRecipient) revert LBFactory__SameFeeRecipient(_feeRecipient) */\n  iszero\n  tag_16\n  jumpi\n    /* \"joe-v2-main/src/LBFactory.sol\":9002:9044  LBFactory__SameFeeRecipient(_feeRecipient) */\n  mload(0x40)\n  shl(0xe0, 0x4fcea971)\n  dup2\n  mstore\n  sub(shl(0xa0, 0x01), 0x01)\n    /* \"#utility.yul\":473:505   */\n  dup4\n  and\n    /* \"joe-v2-main/src/LBFactory.sol\":9002:9044  LBFactory__SameFeeRecipient(_feeRecipient) */\n  0x04\n  dup3\n  add\n    /* \"#utility.yul\":455:506   */\n  mstore\n    /* \"#utility.yul\":428:446   */\n  0x24\n  add\n    /* \"joe-v2-main/src/LBFactory.sol\":9002:9044  LBFactory__SameFeeRecipient(_feeRecipient) */\n  mload(0x40)\n  dup1\n  swap2\n  sub\n  swap1\n  revert\n    /* \"joe-v2-main/src/LBFactory.sol\":8956:9044  if (_oldFeeRecipient == _feeRecipient) revert LBFactory__SameFeeRecipient(_feeRecipient) */\ntag_16:\n    /* \"joe-v2-main/src/LBFactory.sol\":9055:9067  feeRecipient */\n  0x03\n    /* \"joe-v2-main/src/LBFactory.sol\":9055:9083  feeRecipient = _feeRecipient */\n  dup1\n  sload\n  not(sub(shl(0xa0, 0x01), 0x01))\n  and\n  sub(shl(0xa0, 0x01), 0x01)\n  dup5\n  dup2\n  and\n  swap2\n  dup3\n  or\n  swap1\n  swap3\n  sstore\n    /* \"joe-v2-main/src/LBFactory.sol\":9098:9146  FeeRecipientSet(_oldFeeRecipient, _feeRecipient) */\n  0x40\n  dup1\n  mload\n    /* \"#utility.yul\":747:762   */\n  swap3\n  dup5\n  and\n    /* \"#utility.yul\":729:763   */\n  dup4\n  mstore\n    /* \"#utility.yul\":794:796   */\n  0x20\n    /* \"#utility.yul\":779:797   */\n  dup4\n  add\n    /* \"#utility.yul\":772:815   */\n  swap2\n  swap1\n  swap2\n  mstore\n    /* \"joe-v2-main/src/LBFactory.sol\":9098:9146  FeeRecipientSet(_oldFeeRecipient, _feeRecipient) */\n  0x15d80a013f22151bc7246e3bc132e12828cde19de98870475e3fa70840152721\n  swap2\n    /* \"#utility.yul\":664:682   */\n  add\n    /* \"joe-v2-main/src/LBFactory.sol\":9098:9146  FeeRecipientSet(_oldFeeRecipient, _feeRecipient) */\n  mload(0x40)\n  dup1\n  swap2\n  sub\n  swap1\n  log1\n    /* \"joe-v2-main/src/LBFactory.sol\":8822:9153  {... */\n  pop\n    /* \"joe-v2-main/src/LBFactory.sol\":8764:9153  function _setFeeRecipient(address _feeRecipient) internal {... */\n  pop\n  jump\t// out\n    /* \"#utility.yul\":14:304   */\ntag_3:\n    /* \"#utility.yul\":84:90   */\n  0x00\n    /* \"#utility.yul\":137:139   */\n  0x20\n    /* \"#utility.yul\":125:134   */\n  dup3\n    /* \"#utility.yul\":116:123   */\n  dup5\n    /* \"#utility.yul\":112:135   */\n  sub\n    /* \"#utility.yul\":108:140   */\n  slt\n    /* \"#utility.yul\":105:157   */\n  iszero\n  tag_23\n  jumpi\n    /* \"#utility.yul\":153:154   */\n  0x00\n    /* \"#utility.yul\":150:151   */\n  dup1\n    /* \"#utility.yul\":143:155   */\n  revert\n    /* \"#utility.yul\":105:157   */\ntag_23:\n    /* \"#utility.yul\":179:195   */\n  dup2\n  mload\n  sub(shl(0xa0, 0x01), 0x01)\n    /* \"#utility.yul\":224:255   */\n  dup2\n  and\n    /* \"#utility.yul\":214:256   */\n  dup2\n  eq\n    /* \"#utility.yul\":204:274   */\n  tag_24\n  jumpi\n    /* \"#utility.yul\":270:271   */\n  0x00\n    /* \"#utility.yul\":267:268   */\n  dup1\n    /* \"#utility.yul\":260:272   */\n  revert\n    /* \"#utility.yul\":204:274   */\ntag_24:\n    /* \"#utility.yul\":293:298   */\n  swap4\n    /* \"#utility.yul\":14:304   */\n  swap3\n  pop\n  pop\n  pop\n  jump\t// out\n    /* \"#utility.yul\":517:821   */\ntag_21:\n    /* \"joe-v2-main/src/LBFactory.sol\":712:10161  contract LBFactory is PendingOwnable, ILBFactory {... */\n  dataSize(sub_0)\n  dup1\n  dataOffset(sub_0)\n  0x00\n  codecopy\n  0x00\n  return\nstop\n\nsub_0: assembly {\n        /* \"joe-v2-main/src/LBFactory.sol\":712:10161  contract LBFactory is PendingOwnable, ILBFactory {... */\n      mstore(0x40, 0x80)\n      callvalue\n      dup1\n      iszero\n      tag_1\n      jumpi\n      0x00\n      dup1\n      revert\n    tag_1:\n      pop\n      jumpi(tag_2, lt(calldatasize, 0x04))\n      shr(0xe0, calldataload(0x00))\n      dup1\n      0x72e47b8c\n      gt\n      tag_26\n      jumpi\n      dup1\n      0xddbfd941\n      gt\n      tag_27\n      jumpi\n      dup1\n      0xeaec42a4\n      gt\n      tag_28\n      jumpi\n      dup1\n      0xeaec42a4\n      eq\n      tag_23\n      jumpi\n      dup1\n      0xf89a4cd5\n      eq\n      tag_24\n      jumpi\n      dup1\n      0xf9dca989\n      eq\n      tag_25\n      jumpi\n      0x00\n      dup1\n      revert\n    tag_28:\n      dup1\n      0xddbfd941\n      eq\n      tag_20\n      jumpi\n      dup1\n      0xe30c3978\n      eq\n      tag_21\n      jumpi\n      dup1\n      0xe74b981b\n      eq\n      tag_22\n      jumpi\n      0x00\n      dup1\n      revert\n    tag_27:\n      dup1\n      0xb0384781\n      gt\n      tag_29\n      jumpi\n      dup1\n      0xb0384781\n      eq\n      tag_17\n      jumpi\n      dup1\n      0xbc063e1a\n      eq\n      tag_18\n      jumpi\n      dup1\n      0xc42069ec\n      eq\n      tag_19\n      jumpi\n      0x00\n      dup1\n      revert\n    tag_29:\n      dup1\n      0x72e47b8c\n      eq\n      tag_14\n      jumpi\n      dup1\n      0x80c5061e\n      eq\n      tag_15\n      jumpi\n      dup1\n      0x8da5cb5b\n      eq\n      tag_16\n      jumpi\n      0x00\n      dup1\n      revert\n    tag_26:\n      dup1\n      0x4e937c3a\n      gt\n      tag_30\n      jumpi\n      dup1\n      0x5c779d6d\n      gt\n      tag_31\n      jumpi\n      dup1\n      0x5c779d6d\n      eq\n      tag_11\n      jumpi\n      dup1\n      0x67ab8a4e\n      eq\n      tag_12\n      jumpi\n      dup1\n      0x715018a6\n      eq\n      tag_13\n      jumpi\n      0x00\n      dup1\n      revert\n    tag_31:\n      dup1\n      0x4e937c3a\n      eq\n      tag_8\n      jumpi\n      dup1\n      0x509ceb90\n      eq\n      tag_9\n      jumpi\n      dup1\n      0x5a440923\n      eq\n      tag_10\n      jumpi\n      0x00\n      dup1\n      revert\n    tag_30:\n      dup1\n      0x27721842\n      gt\n      tag_32\n      jumpi\n      dup1\n      0x27721842\n      eq\n      tag_5\n      jumpi\n      dup1\n      0x46904840\n      eq\n      tag_6\n      jumpi\n      dup1\n      0x4847cdc8\n      eq\n      tag_7\n      jumpi\n      0x00\n      dup1\n      revert\n    tag_32:\n      dup1\n      0x02e48ce2\n      eq\n      tag_3\n      jumpi\n      dup1\n      0x22f3fe14\n      eq\n      tag_4\n      jumpi\n    tag_2:\n      0x00\n      dup1\n      revert\n        /* \"joe-v2-main/src/LBFactory.sol\":4945:7124  function createLBPair(... */\n    tag_3:\n      tag_33\n      tag_34\n      calldatasize\n      0x04\n      tag_35\n      jump\t// in\n    tag_34:\n      tag_36\n      jump\t// in\n    tag_33:\n      mload(0x40)\n      sub(shl(0xa0, 0x01), 0x01)\n        /* \"#utility.yul\":968:1023   */\n      swap1\n      swap2\n      and\n        /* \"#utility.yul\":950:1024   */\n      dup2\n      mstore\n        /* \"#utility.yul\":938:940   */\n      0x20\n        /* \"#utility.yul\":923:941   */\n      add\n        /* \"joe-v2-main/src/LBFactory.sol\":4945:7124  function createLBPair(... */\n    tag_37:\n      mload(0x40)\n      dup1\n      swap2\n      sub\n      swap1\n      return\n        /* \"joe-v2-main/src/LBFactory.sol\":7573:7837  function setFactoryLockedState(bool _locked) external override onlyOwner {... */\n    tag_4:\n      tag_39\n      tag_40\n      calldatasize\n      0x04\n      tag_41\n      jump\t// in\n    tag_40:\n      tag_42\n      jump\t// in\n    tag_39:\n      stop\n        /* \"joe-v2-main/src/LBFactory.sol\":3225:3370  function isQuoteAsset(IERC20 _token) external view override returns (bool) {... */\n    tag_5:\n      tag_43\n      tag_44\n      calldatasize\n      0x04\n      tag_45\n      jump\t// in\n    tag_44:\n      tag_46\n      jump\t// in\n    tag_43:\n      mload(0x40)\n        /* \"#utility.yul\":1752:1766   */\n      swap1\n      iszero\n        /* \"#utility.yul\":1745:1767   */\n      iszero\n        /* \"#utility.yul\":1727:1768   */\n      dup2\n      mstore\n        /* \"#utility.yul\":1715:1717   */\n      0x20\n        /* \"#utility.yul\":1700:1718   */\n      add\n        /* \"joe-v2-main/src/LBFactory.sol\":3225:3370  function isQuoteAsset(IERC20 _token) external view override returns (bool) {... */\n      tag_37\n        /* \"#utility.yul\":1587:1774   */\n      jump\n        /* \"joe-v2-main/src/LBFactory.sol\":999:1035  address public override feeRecipient */\n    tag_6:\n      sload(0x03)\n      tag_33\n      swap1\n      sub(shl(0xa0, 0x01), 0x01)\n      and\n      dup2\n      jump\n        /* \"joe-v2-main/src/LBFactory.sol\":1208:1244  uint256 public override flashLoanFee */\n    tag_7:\n      tag_53\n      sload(0x04)\n      dup2\n      jump\n    tag_53:\n      mload(0x40)\n        /* \"#utility.yul\":2156:2181   */\n      swap1\n      dup2\n      mstore\n        /* \"#utility.yul\":2144:2146   */\n      0x20\n        /* \"#utility.yul\":2129:2147   */\n      add\n        /* \"joe-v2-main/src/LBFactory.sol\":1208:1244  uint256 public override flashLoanFee */\n      tag_37\n        /* \"#utility.yul\":2010:2187   */\n      jump\n        /* \"joe-v2-main/src/LBFactory.sol\":2322:2434  function getNumberOfLBPairs() external view override returns (uint256) {... */\n    tag_8:\n        /* \"joe-v2-main/src/LBFactory.sol\":2410:2420  allLBPairs */\n      0x05\n        /* \"joe-v2-main/src/LBFactory.sol\":2410:2427  allLBPairs.length */\n      sload\n        /* \"joe-v2-main/src/LBFactory.sol\":2322:2434  function getNumberOfLBPairs() external view override returns (uint256) {... */\n      jump(tag_53)\n        /* \"joe-v2-main/src/LBFactory.sol\":948:992  address public override LBPairImplementation */\n    tag_9:\n      sload(0x02)\n      tag_33\n      swap1\n      sub(shl(0xa0, 0x01), 0x01)\n      and\n      dup2\n      jump\n        /* \"joe-v2-main/src/LBFactory.sol\":7981:8237  function addQuoteAsset(IERC20 _quoteAsset) external override onlyOwner {... */\n    tag_10:\n      tag_39\n      tag_64\n      calldatasize\n      0x04\n      tag_45\n      jump\t// in\n    tag_64:\n      tag_65\n      jump\t// in\n        /* \"joe-v2-main/src/LBFactory.sol\":1164:1201  bool public override creationUnlocked */\n    tag_11:\n      sload(0x03)\n      tag_43\n      swap1\n      shl(0xa0, 0x01)\n      swap1\n      div\n      0xff\n      and\n      dup2\n      jump\n        /* \"joe-v2-main/src/libraries/PendingOwnable.sol\":2741:2924  function revokePendingOwner() public override onlyOwner {... */\n    tag_12:\n      tag_39\n      tag_70\n      jump\t// in\n        /* \"joe-v2-main/src/libraries/PendingOwnable.sol\":3489:3591  function renounceOwnership() public override onlyOwner {... */\n    tag_13:\n      tag_39\n      tag_72\n      jump\t// in\n        /* \"joe-v2-main/src/LBFactory.sol\":1251:1287  ILBPair[] public override allLBPairs */\n    tag_14:\n      tag_33\n      tag_74\n      calldatasize\n      0x04\n      tag_75\n      jump\t// in\n    tag_74:\n      tag_76\n      jump\t// in\n        /* \"joe-v2-main/src/LBFactory.sol\":2562:2690  function getNumberOfQuoteAssets() external view override returns (uint256) {... */\n    tag_15:\n      tag_53\n      tag_79\n      jump\t// in\n        /* \"joe-v2-main/src/libraries/PendingOwnable.sol\":1801:1887  function owner() public view override returns (address) {... */\n    tag_16:\n        /* \"joe-v2-main/src/libraries/PendingOwnable.sol\":1848:1855  address */\n      0x00\n        /* \"joe-v2-main/src/libraries/PendingOwnable.sol\":1874:1880  _owner */\n      sload\n      sub(shl(0xa0, 0x01), 0x01)\n      and\n        /* \"joe-v2-main/src/libraries/PendingOwnable.sol\":1801:1887  function owner() public view override returns (address) {... */\n      jump(tag_33)\n        /* \"joe-v2-main/src/LBFactory.sol\":4061:4645  function setLBPairImplementation(address _LBPairImplementation) external override onlyOwner {... */\n    tag_17:\n      tag_39\n      tag_85\n      calldatasize\n      0x04\n      tag_45\n      jump\t// in\n    tag_85:\n      tag_87\n      jump\t// in\n        /* \"joe-v2-main/src/LBFactory.sol\":885:934  uint256 public constant override MAX_FEE = 0.1e18 */\n    tag_18:\n      tag_53\n        /* \"joe-v2-main/src/LBFactory.sol\":928:934  0.1e18 */\n      0x016345785d8a0000\n        /* \"joe-v2-main/src/LBFactory.sol\":885:934  uint256 public constant override MAX_FEE = 0.1e18 */\n      dup2\n      jump\n        /* \"joe-v2-main/src/libraries/PendingOwnable.sol\":2265:2556  function setPendingOwner(address pendingOwner_) public override onlyOwner {... */\n    tag_19:\n      tag_39\n      tag_92\n      calldatasize\n      0x04\n      tag_45\n      jump\t// in\n    tag_92:\n      tag_93\n      jump\t// in\n        /* \"joe-v2-main/src/LBFactory.sol\":8386:8634  function removeQuoteAsset(IERC20 _quoteAsset) external override onlyOwner {... */\n    tag_20:\n      tag_39\n      tag_95\n      calldatasize\n      0x04\n      tag_45\n      jump\t// in\n    tag_95:\n      tag_96\n      jump\t// in\n        /* \"joe-v2-main/src/libraries/PendingOwnable.sol\":2015:2115  function pendingOwner() public view override returns (address) {... */\n    tag_21:\n        /* \"joe-v2-main/src/libraries/PendingOwnable.sol\":2095:2108  _pendingOwner */\n      and(sub(shl(0xa0, 0x01), 0x01), sload(0x01))\n        /* \"joe-v2-main/src/libraries/PendingOwnable.sol\":2015:2115  function pendingOwner() public view override returns (address) {... */\n      jump(tag_33)\n        /* \"joe-v2-main/src/LBFactory.sol\":7295:7419  function setFeeRecipient(address _feeRecipient) external override onlyOwner {... */\n    tag_22:\n      tag_39\n      tag_101\n      calldatasize\n      0x04\n      tag_45\n      jump\t// in\n    tag_101:\n      tag_102\n      jump\t// in\n        /* \"joe-v2-main/src/LBFactory.sol\":3680:3885  function getLBPairInformation(... */\n    tag_23:\n      tag_103\n      tag_104\n      calldatasize\n      0x04\n      tag_105\n      jump\t// in\n    tag_104:\n      tag_106\n      jump\t// in\n    tag_103:\n      0x40\n      dup1\n      mload\n        /* \"#utility.yul\":3312:3325   */\n      dup3\n      mload\n      sub(shl(0xa0, 0x01), 0x01)\n        /* \"#utility.yul\":3308:3370   */\n      and\n        /* \"#utility.yul\":3290:3371   */\n      dup2\n      mstore\n        /* \"#utility.yul\":3441:3445   */\n      0x20\n        /* \"#utility.yul\":3429:3446   */\n      swap3\n      dup4\n      add\n        /* \"#utility.yul\":3423:3447   */\n      mload\n        /* \"#utility.yul\":3416:3448   */\n      iszero\n        /* \"#utility.yul\":3409:3449   */\n      iszero\n        /* \"#utility.yul\":3387:3407   */\n      swap3\n      dup2\n      add\n        /* \"#utility.yul\":3380:3450   */\n      swap3\n      swap1\n      swap3\n      mstore\n        /* \"#utility.yul\":3263:3281   */\n      add\n        /* \"joe-v2-main/src/LBFactory.sol\":3680:3885  function getLBPairInformation(... */\n      tag_37\n        /* \"#utility.yul\":3074:3456   */\n      jump\n        /* \"joe-v2-main/src/LBFactory.sol\":2877:3019  function getQuoteAsset(uint256 _index) external view override returns (IERC20) {... */\n    tag_24:\n      tag_33\n      tag_110\n      calldatasize\n      0x04\n      tag_75\n      jump\t// in\n    tag_110:\n      tag_111\n      jump\t// in\n        /* \"joe-v2-main/src/libraries/PendingOwnable.sol\":3052:3155  function becomeOwner() public override onlyPendingOwner {... */\n    tag_25:\n      tag_39\n      tag_115\n      jump\t// in\n        /* \"joe-v2-main/src/LBFactory.sol\":4945:7124  function createLBPair(... */\n    tag_36:\n        /* \"joe-v2-main/src/LBFactory.sol\":5074:5089  ILBPair _LBPair */\n      0x00\n        /* \"joe-v2-main/src/LBFactory.sol\":5101:5115  address _owner */\n      dup1\n        /* \"joe-v2-main/src/LBFactory.sol\":5118:5125  owner() */\n      tag_117\n        /* \"joe-v2-main/src/libraries/PendingOwnable.sol\":1848:1855  address */\n      0x00\n        /* \"joe-v2-main/src/libraries/PendingOwnable.sol\":1874:1880  _owner */\n      sload\n      sub(shl(0xa0, 0x01), 0x01)\n      and\n      swap1\n        /* \"joe-v2-main/src/libraries/PendingOwnable.sol\":1801:1887  function owner() public view override returns (address) {... */\n      jump\n        /* \"joe-v2-main/src/LBFactory.sol\":5118:5125  owner() */\n    tag_117:\n        /* \"joe-v2-main/src/LBFactory.sol\":5140:5156  creationUnlocked */\n      sload(0x03)\n        /* \"joe-v2-main/src/LBFactory.sol\":5101:5125  address _owner = owner() */\n      swap1\n      swap2\n      pop\n      shl(0xa0, 0x01)\n        /* \"joe-v2-main/src/LBFactory.sol\":5140:5156  creationUnlocked */\n      swap1\n      div\n      0xff\n      and\n        /* \"joe-v2-main/src/LBFactory.sol\":5139:5156  !creationUnlocked */\n      iszero\n        /* \"joe-v2-main/src/LBFactory.sol\":5139:5180  !creationUnlocked && msg.sender != _owner */\n      dup1\n      iszero\n      tag_118\n      jumpi\n      pop\n        /* \"joe-v2-main/src/LBFactory.sol\":5160:5170  msg.sender */\n      caller\n      sub(shl(0xa0, 0x01), 0x01)\n        /* \"joe-v2-main/src/LBFactory.sol\":5160:5180  msg.sender != _owner */\n      dup3\n      and\n      eq\n      iszero\n        /* \"joe-v2-main/src/LBFactory.sol\":5139:5180  !creationUnlocked && msg.sender != _owner */\n    tag_118:\n        /* \"joe-v2-main/src/LBFactory.sol\":5135:5236  if (!creationUnlocked && msg.sender != _owner) revert LBFactory__FunctionIsLockedForUsers(msg.sender) */\n      iszero\n      tag_119\n      jumpi\n        /* \"joe-v2-main/src/LBFactory.sol\":5189:5236  LBFactory__FunctionIsLockedForUsers(msg.sender) */\n      mload(0x40)\n      0x3a43e98000000000000000000000000000000000000000000000000000000000\n      dup2\n      mstore\n        /* \"joe-v2-main/src/LBFactory.sol\":5225:5235  msg.sender */\n      caller\n        /* \"joe-v2-main/src/LBFactory.sol\":5189:5236  LBFactory__FunctionIsLockedForUsers(msg.sender) */\n      0x04\n      dup3\n      add\n        /* \"#utility.yul\":950:1024   */\n      mstore\n        /* \"#utility.yul\":923:941   */\n      0x24\n      add\n        /* \"joe-v2-main/src/LBFactory.sol\":5189:5236  LBFactory__FunctionIsLockedForUsers(msg.sender) */\n    tag_120:\n      mload(0x40)\n      dup1\n      swap2\n      sub\n      swap1\n      revert\n        /* \"joe-v2-main/src/LBFactory.sol\":5135:5236  if (!creationUnlocked && msg.sender != _owner) revert LBFactory__FunctionIsLockedForUsers(msg.sender) */\n    tag_119:\n        /* \"joe-v2-main/src/LBFactory.sol\":5279:5299  LBPairImplementation */\n      and(sub(shl(0xa0, 0x01), 0x01), sload(0x02))\n        /* \"joe-v2-main/src/LBFactory.sol\":5314:5349  _LBPairImplementation == address(0) */\n      dup1\n        /* \"joe-v2-main/src/LBFactory.sol\":5310:5391  if (_LBPairImplementation == address(0)) revert LBFactory__ImplementationNotSet() */\n      tag_121\n      jumpi\n        /* \"joe-v2-main/src/LBFactory.sol\":5358:5391  LBFactory__ImplementationNotSet() */\n      mload(0x40)\n      0xa2d3f3e400000000000000000000000000000000000000000000000000000000\n      dup2\n      mstore\n      0x04\n      add\n      mload(0x40)\n      dup1\n      swap2\n      sub\n      swap1\n      revert\n        /* \"joe-v2-main/src/LBFactory.sol\":5310:5391  if (_LBPairImplementation == address(0)) revert LBFactory__ImplementationNotSet() */\n    tag_121:\n        /* \"joe-v2-main/src/LBFactory.sol\":5407:5454  _quoteAssetWhitelist.contains(address(_tokenY)) */\n      tag_122\n        /* \"joe-v2-main/src/LBFactory.sol\":5407:5427  _quoteAssetWhitelist */\n      0x09\n        /* \"joe-v2-main/src/LBFactory.sol\":5445:5452  _tokenY */\n      dup7\n        /* \"joe-v2-main/src/LBFactory.sol\":5407:5436  _quoteAssetWhitelist.contains */\n      tag_123\n        /* \"joe-v2-main/src/LBFactory.sol\":5407:5454  _quoteAssetWhitelist.contains(address(_tokenY)) */\n      jump\t// in\n    tag_122:\n        /* \"joe-v2-main/src/LBFactory.sol\":5402:5507  if (!_quoteAssetWhitelist.contains(address(_tokenY))) revert LBFactory__QuoteAssetNotWhitelisted(_tokenY) */\n      tag_124\n      jumpi\n        /* \"joe-v2-main/src/LBFactory.sol\":5463:5507  LBFactory__QuoteAssetNotWhitelisted(_tokenY) */\n      mload(0x40)\n      shl(0xe0, 0x8e888ef3)\n      dup2\n      mstore\n      sub(shl(0xa0, 0x01), 0x01)\n        /* \"#utility.yul\":968:1023   */\n      dup7\n      and\n        /* \"joe-v2-main/src/LBFactory.sol\":5463:5507  LBFactory__QuoteAssetNotWhitelisted(_tokenY) */\n      0x04\n      dup3\n      add\n        /* \"#utility.yul\":950:1024   */\n      mstore\n        /* \"#utility.yul\":923:941   */\n      0x24\n      add\n        /* \"joe-v2-main/src/LBFactory.sol\":5463:5507  LBFactory__QuoteAssetNotWhitelisted(_tokenY) */\n      tag_120\n        /* \"#utility.yul\":788:1030   */\n      jump\n        /* \"joe-v2-main/src/LBFactory.sol\":5402:5507  if (!_quoteAssetWhitelist.contains(address(_tokenY))) revert LBFactory__QuoteAssetNotWhitelisted(_tokenY) */\n    tag_124:\n        /* \"joe-v2-main/src/LBFactory.sol\":5533:5540  _tokenY */\n      dup5\n      sub(shl(0xa0, 0x01), 0x01)\n        /* \"joe-v2-main/src/LBFactory.sol\":5522:5540  _tokenX == _tokenY */\n      and\n        /* \"joe-v2-main/src/LBFactory.sol\":5522:5529  _tokenX */\n      dup7\n      sub(shl(0xa0, 0x01), 0x01)\n        /* \"joe-v2-main/src/LBFactory.sol\":5522:5540  _tokenX == _tokenY */\n      and\n      eq\n        /* \"joe-v2-main/src/LBFactory.sol\":5518:5587  if (_tokenX == _tokenY) revert LBFactory__IdenticalAddresses(_tokenX) */\n      iszero\n      tag_126\n      jumpi\n        /* \"joe-v2-main/src/LBFactory.sol\":5549:5587  LBFactory__IdenticalAddresses(_tokenX) */\n      mload(0x40)\n      0x2f9b185300000000000000000000000000000000000000000000000000000000\n      dup2\n      mstore\n      sub(shl(0xa0, 0x01), 0x01)\n        /* \"#utility.yul\":968:1023   */\n      dup8\n      and\n        /* \"joe-v2-main/src/LBFactory.sol\":5549:5587  LBFactory__IdenticalAddresses(_tokenX) */\n      0x04\n      dup3\n      add\n        /* \"#utility.yul\":950:1024   */\n      mstore\n        /* \"#utility.yul\":923:941   */\n      0x24\n      add\n        /* \"joe-v2-main/src/LBFactory.sol\":5549:5587  LBFactory__IdenticalAddresses(_tokenX) */\n      tag_120\n        /* \"#utility.yul\":788:1030   */\n      jump\n        /* \"joe-v2-main/src/LBFactory.sol\":5518:5587  if (_tokenX == _tokenY) revert LBFactory__IdenticalAddresses(_tokenX) */\n    tag_126:\n        /* \"joe-v2-main/src/LBFactory.sol\":5668:5703  BinHelper.getPriceFromId(_activeId) */\n      tag_128\n        /* \"joe-v2-main/src/LBFactory.sol\":5693:5702  _activeId */\n      dup5\n        /* \"joe-v2-main/src/LBFactory.sol\":5668:5703  BinHelper.getPriceFromId(_activeId) */\n      0xffffff\n      and\n        /* \"joe-v2-main/src/LBFactory.sol\":5668:5692  BinHelper.getPriceFromId */\n      tag_129\n        /* \"joe-v2-main/src/LBFactory.sol\":5668:5703  BinHelper.getPriceFromId(_activeId) */\n      jump\t// in\n    tag_128:\n      pop\n        /* \"joe-v2-main/src/LBFactory.sol\":5822:5836  IERC20 _tokenA */\n      0x00\n        /* \"joe-v2-main/src/LBFactory.sol\":5838:5852  IERC20 _tokenB */\n      dup1\n        /* \"joe-v2-main/src/LBFactory.sol\":5856:5885  _sortTokens(_tokenX, _tokenY) */\n      tag_130\n        /* \"joe-v2-main/src/LBFactory.sol\":5868:5875  _tokenX */\n      dup9\n        /* \"joe-v2-main/src/LBFactory.sol\":5877:5884  _tokenY */\n      dup9\n        /* \"joe-v2-main/src/LBFactory.sol\":5856:5867  _sortTokens */\n      tag_131\n        /* \"joe-v2-main/src/LBFactory.sol\":5856:5885  _sortTokens(_tokenX, _tokenY) */\n      jump\t// in\n    tag_130:\n        /* \"joe-v2-main/src/LBFactory.sol\":5821:5885  (IERC20 _tokenA, IERC20 _tokenB) = _sortTokens(_tokenX, _tokenY) */\n      swap1\n      swap3\n      pop\n      swap1\n      pop\n      sub(shl(0xa0, 0x01), 0x01)\n        /* \"joe-v2-main/src/LBFactory.sol\":5937:5967  address(_tokenA) == address(0) */\n      dup3\n      and\n        /* \"joe-v2-main/src/LBFactory.sol\":5933:6000  if (address(_tokenA) == address(0)) revert LBFactory__AddressZero() */\n      tag_132\n      jumpi\n        /* \"joe-v2-main/src/LBFactory.sol\":5976:6000  LBFactory__AddressZero() */\n      mload(0x40)\n      shl(0xe2, 0x2573cfb9)\n      dup2\n      mstore\n      0x04\n      add\n      mload(0x40)\n      dup1\n      swap2\n      sub\n      swap1\n      revert\n        /* \"joe-v2-main/src/LBFactory.sol\":5933:6000  if (address(_tokenA) == address(0)) revert LBFactory__AddressZero() */\n    tag_132:\n      sub(shl(0xa0, 0x01), 0x01)\n        /* \"joe-v2-main/src/LBFactory.sol\":6022:6043  _LBPairsInfo[_tokenA] */\n      dup3\n      dup2\n      and\n        /* \"joe-v2-main/src/LBFactory.sol\":6072:6073  0 */\n      0x00\n        /* \"joe-v2-main/src/LBFactory.sol\":6022:6043  _LBPairsInfo[_tokenA] */\n      swap1\n      dup2\n      mstore\n        /* \"joe-v2-main/src/LBFactory.sol\":6022:6034  _LBPairsInfo */\n      0x06\n        /* \"joe-v2-main/src/LBFactory.sol\":6022:6043  _LBPairsInfo[_tokenA] */\n      0x20\n      swap1\n      dup2\n      mstore\n      0x40\n      dup1\n      dup4\n      keccak256\n        /* \"joe-v2-main/src/LBFactory.sol\":6022:6052  _LBPairsInfo[_tokenA][_tokenB] */\n      dup6\n      dup6\n      and\n      dup5\n      mstore\n      swap1\n      swap2\n      mstore\n      swap1\n      keccak256\n        /* \"joe-v2-main/src/LBFactory.sol\":6022:6059  _LBPairsInfo[_tokenA][_tokenB].LBPair */\n      sload\n      and\n        /* \"joe-v2-main/src/LBFactory.sol\":6014:6074  address(_LBPairsInfo[_tokenA][_tokenB].LBPair) != address(0) */\n      iszero\n        /* \"joe-v2-main/src/LBFactory.sol\":6010:6146  if (address(_LBPairsInfo[_tokenA][_tokenB].LBPair) != address(0))... */\n      tag_133\n      jumpi\n        /* \"joe-v2-main/src/LBFactory.sol\":6095:6146  LBFactory__LBPairAlreadyExists(_tokenX, _tokenY, 1) */\n      mload(0x40)\n      0xcb27a43500000000000000000000000000000000000000000000000000000000\n      dup2\n      mstore\n      sub(shl(0xa0, 0x01), 0x01)\n        /* \"#utility.yul\":4023:4038   */\n      dup1\n      dup11\n      and\n        /* \"joe-v2-main/src/LBFactory.sol\":6095:6146  LBFactory__LBPairAlreadyExists(_tokenX, _tokenY, 1) */\n      0x04\n      dup4\n      add\n        /* \"#utility.yul\":4005:4039   */\n      mstore\n        /* \"#utility.yul\":4075:4090   */\n      dup9\n      and\n        /* \"#utility.yul\":4055:4073   */\n      0x24\n      dup3\n      add\n        /* \"#utility.yul\":4048:4091   */\n      mstore\n        /* \"joe-v2-main/src/LBFactory.sol\":6144:6145  1 */\n      0x01\n        /* \"#utility.yul\":4107:4125   */\n      0x44\n      dup3\n      add\n        /* \"#utility.yul\":4100:4134   */\n      mstore\n        /* \"#utility.yul\":3917:3935   */\n      0x64\n      add\n        /* \"joe-v2-main/src/LBFactory.sol\":6095:6146  LBFactory__LBPairAlreadyExists(_tokenX, _tokenY, 1) */\n      tag_120\n        /* \"#utility.yul\":3706:4140   */\n      jump\n        /* \"joe-v2-main/src/LBFactory.sol\":6010:6146  if (address(_LBPairsInfo[_tokenA][_tokenB].LBPair) != address(0))... */\n    tag_133:\n        /* \"joe-v2-main/src/LBFactory.sol\":6183:6211  abi.encode(_tokenA, _tokenB) */\n      0x40\n      dup1\n      mload\n      sub(shl(0xa0, 0x01), 0x01)\n        /* \"#utility.yul\":4426:4441   */\n      dup5\n      dup2\n      and\n        /* \"joe-v2-main/src/LBFactory.sol\":6183:6211  abi.encode(_tokenA, _tokenB) */\n      0x20\n      dup1\n      dup5\n      add\n        /* \"#utility.yul\":4408:4442   */\n      swap2\n      swap1\n      swap2\n      mstore\n        /* \"#utility.yul\":4478:4493   */\n      swap1\n      dup5\n      and\n        /* \"#utility.yul\":4458:4476   */\n      dup3\n      dup5\n      add\n        /* \"#utility.yul\":4451:4494   */\n      mstore\n        /* \"joe-v2-main/src/LBFactory.sol\":6183:6211  abi.encode(_tokenA, _tokenB) */\n      dup3\n      mload\n      dup1\n      dup4\n      sub\n      dup5\n      add\n      dup2\n      mstore\n        /* \"#utility.yul\":4320:4338   */\n      0x60\n      swap1\n      swap3\n      add\n        /* \"joe-v2-main/src/LBFactory.sol\":6183:6211  abi.encode(_tokenA, _tokenB) */\n      swap1\n      swap3\n      mstore\n        /* \"joe-v2-main/src/LBFactory.sol\":6173:6212  keccak256(abi.encode(_tokenA, _tokenB)) */\n      dup1\n      mload\n      swap2\n      add\n      keccak256\n        /* \"joe-v2-main/src/LBFactory.sol\":6240:6295  Clones.cloneDeterministic(_LBPairImplementation, _salt) */\n      tag_138\n        /* \"joe-v2-main/src/LBFactory.sol\":6266:6287  _LBPairImplementation */\n      dup5\n        /* \"joe-v2-main/src/LBFactory.sol\":6173:6212  keccak256(abi.encode(_tokenA, _tokenB)) */\n      dup3\n        /* \"joe-v2-main/src/LBFactory.sol\":6240:6265  Clones.cloneDeterministic */\n      tag_139\n        /* \"joe-v2-main/src/LBFactory.sol\":6240:6295  Clones.cloneDeterministic(_LBPairImplementation, _salt) */\n      jump\t// in\n    tag_138:\n        /* \"joe-v2-main/src/LBFactory.sol\":6307:6354  _LBPair.initialize(_tokenX, _tokenY, _activeId) */\n      mload(0x40)\n      0x336c8d7000000000000000000000000000000000000000000000000000000000\n      dup2\n      mstore\n      sub(shl(0xa0, 0x01), 0x01)\n        /* \"#utility.yul\":4812:4827   */\n      dup12\n      dup2\n      and\n        /* \"joe-v2-main/src/LBFactory.sol\":6307:6354  _LBPair.initialize(_tokenX, _tokenY, _activeId) */\n      0x04\n      dup4\n      add\n        /* \"#utility.yul\":4794:4828   */\n      mstore\n        /* \"#utility.yul\":4864:4879   */\n      dup11\n      dup2\n      and\n        /* \"#utility.yul\":4844:4862   */\n      0x24\n      dup4\n      add\n        /* \"#utility.yul\":4837:4880   */\n      mstore\n        /* \"#utility.yul\":4928:4936   */\n      0xffffff\n        /* \"#utility.yul\":4916:4937   */\n      dup11\n      and\n        /* \"#utility.yul\":4896:4914   */\n      0x44\n      dup4\n      add\n        /* \"#utility.yul\":4889:4938   */\n      mstore\n        /* \"joe-v2-main/src/LBFactory.sol\":6222:6296  _LBPair = ILBPair(Clones.cloneDeterministic(_LBPairImplementation, _salt)) */\n      swap2\n      swap8\n      pop\n        /* \"joe-v2-main/src/LBFactory.sol\":6307:6325  _LBPair.initialize */\n      swap1\n      dup8\n      and\n      swap1\n      0x336c8d70\n      swap1\n        /* \"#utility.yul\":4706:4724   */\n      0x64\n      add\n        /* \"joe-v2-main/src/LBFactory.sol\":6307:6354  _LBPair.initialize(_tokenX, _tokenY, _activeId) */\n      0x00\n      mload(0x40)\n      dup1\n      dup4\n      sub\n      dup2\n      0x00\n      dup8\n      dup1\n      extcodesize\n      iszero\n      dup1\n      iszero\n      tag_142\n      jumpi\n      0x00\n      dup1\n      revert\n    tag_142:\n      pop\n      gas\n      call\n      iszero\n      dup1\n      iszero\n      tag_144\n      jumpi\n      returndatasize\n      0x00\n      dup1\n      returndatacopy\n      revert(0x00, returndatasize)\n    tag_144:\n      pop\n      pop\n        /* \"joe-v2-main/src/LBFactory.sol\":6398:6506  LBPairInformation({... */\n      0x40\n      dup1\n      mload\n      dup1\n      dup3\n      add\n      dup3\n      mstore\n      sub(shl(0xa0, 0x01), 0x01)\n      dup1\n      dup12\n      and\n      dup1\n      dup4\n      mstore\n        /* \"joe-v2-main/src/LBFactory.sol\":6475:6485  msg.sender */\n      caller\n        /* \"joe-v2-main/src/LBFactory.sol\":6475:6495  msg.sender == _owner */\n      dup12\n      dup4\n      and\n      eq\n        /* \"joe-v2-main/src/LBFactory.sol\":6398:6506  LBPairInformation({... */\n      0x20\n      dup1\n      dup6\n      add\n      swap2\n      dup3\n      mstore\n        /* \"joe-v2-main/src/LBFactory.sol\":6365:6386  _LBPairsInfo[_tokenA] */\n      dup11\n      dup5\n      and\n      0x00\n      swap1\n      dup2\n      mstore\n        /* \"joe-v2-main/src/LBFactory.sol\":6365:6377  _LBPairsInfo */\n      0x06\n        /* \"joe-v2-main/src/LBFactory.sol\":6365:6386  _LBPairsInfo[_tokenA] */\n      dup3\n      mstore\n      dup7\n      dup2\n      keccak256\n        /* \"joe-v2-main/src/LBFactory.sol\":6365:6395  _LBPairsInfo[_tokenA][_tokenB] */\n      dup12\n      dup7\n      and\n      dup3\n      mstore\n      swap1\n      swap2\n      mstore\n      swap5\n      dup6\n      keccak256\n        /* \"joe-v2-main/src/LBFactory.sol\":6365:6506  _LBPairsInfo[_tokenA][_tokenB] = LBPairInformation({... */\n      swap4\n      mload\n      dup5\n      sload\n      swap2\n      mload\n      iszero\n      iszero\n      shl(0xa0, 0x01)\n      mul\n      0xffffffffffffffffffffff000000000000000000000000000000000000000000\n      swap1\n      swap3\n      and\n      swap1\n      dup5\n      and\n      or\n      or\n      swap1\n      swap3\n      sstore\n        /* \"joe-v2-main/src/LBFactory.sol\":6517:6527  allLBPairs */\n      0x05\n        /* \"joe-v2-main/src/LBFactory.sol\":6517:6541  allLBPairs.push(_LBPair) */\n      dup1\n      sload\n        /* \"joe-v2-main/src/LBFactory.sol\":6365:6506  _LBPairsInfo[_tokenA][_tokenB] = LBPairInformation({... */\n      0x01\n        /* \"joe-v2-main/src/LBFactory.sol\":6517:6541  allLBPairs.push(_LBPair) */\n      dup2\n      dup2\n      add\n      dup4\n      sstore\n      swap5\n      dup3\n      swap1\n      mstore\n      0x036b6384b5eca791c62761152d0c79bb0604c104a5fb6f4eb0703f3154bb3db0\n      add\n      dup1\n      sload\n      not(sub(shl(0xa0, 0x01), 0x01))\n      and\n      swap1\n      swap4\n      or\n      swap1\n      swap3\n      sstore\n        /* \"joe-v2-main/src/LBFactory.sol\":6598:6615  allLBPairs.length */\n      swap1\n      sload\n        /* \"joe-v2-main/src/LBFactory.sol\":6557:6620  LBPairCreated(_tokenX, _tokenY, _LBPair, allLBPairs.length - 1) */\n      dup13\n      dup3\n      and\n      swap5\n      pop\n      swap1\n      dup14\n      and\n      swap3\n      pop\n      0x612fdd9b533d1ca33088dcbca9ad3186eeadc9893e63715b8a783040d729cd6a\n      swap2\n        /* \"joe-v2-main/src/LBFactory.sol\":6438:6445  _LBPair */\n      dup11\n      swap2\n        /* \"joe-v2-main/src/LBFactory.sol\":6598:6619  allLBPairs.length - 1 */\n      tag_146\n      swap2\n        /* \"joe-v2-main/src/LBFactory.sol\":6365:6506  _LBPairsInfo[_tokenA][_tokenB] = LBPairInformation({... */\n      swap1\n        /* \"joe-v2-main/src/LBFactory.sol\":6598:6619  allLBPairs.length - 1 */\n      tag_147\n      jump\t// in\n    tag_146:\n        /* \"joe-v2-main/src/LBFactory.sol\":6557:6620  LBPairCreated(_tokenX, _tokenY, _LBPair, allLBPairs.length - 1) */\n      0x40\n      dup1\n      mload\n      sub(shl(0xa0, 0x01), 0x01)\n        /* \"#utility.yul\":5441:5496   */\n      swap1\n      swap4\n      and\n        /* \"#utility.yul\":5423:5497   */\n      dup4\n      mstore\n        /* \"#utility.yul\":5528:5530   */\n      0x20\n        /* \"#utility.yul\":5513:5531   */\n      dup4\n      add\n        /* \"#utility.yul\":5506:5540   */\n      swap2\n      swap1\n      swap2\n      mstore\n        /* \"#utility.yul\":5396:5414   */\n      add\n        /* \"joe-v2-main/src/LBFactory.sol\":6557:6620  LBPairCreated(_tokenX, _tokenY, _LBPair, allLBPairs.length - 1) */\n      mload(0x40)\n      dup1\n      swap2\n      sub\n      swap1\n      log3\n        /* \"joe-v2-main/src/LBFactory.sol\":5091:7124  {... */\n      pop\n      pop\n      pop\n      pop\n      pop\n        /* \"joe-v2-main/src/LBFactory.sol\":4945:7124  function createLBPair(... */\n      swap4\n      swap3\n      pop\n      pop\n      pop\n      jump\t// out\n        /* \"joe-v2-main/src/LBFactory.sol\":7573:7837  function setFactoryLockedState(bool _locked) external override onlyOwner {... */\n    tag_42:\n        /* \"joe-v2-main/src/libraries/PendingOwnable.sol\":1239:1245  _owner */\n      and(sub(shl(0xa0, 0x01), 0x01), sload(0x00))\n        /* \"joe-v2-main/src/libraries/PendingOwnable.sol\":1225:1235  msg.sender */\n      caller\n        /* \"joe-v2-main/src/libraries/PendingOwnable.sol\":1225:1245  msg.sender != _owner */\n      eq\n        /* \"joe-v2-main/src/libraries/PendingOwnable.sol\":1221:1280  if (msg.sender != _owner) revert PendingOwnable__NotOwner() */\n      tag_151\n      jumpi\n        /* \"joe-v2-main/src/libraries/PendingOwnable.sol\":1254:1280  PendingOwnable__NotOwner() */\n      mload(0x40)\n      shl(0xe0, 0x9f216c13)\n      dup2\n      mstore\n      0x04\n      add\n      mload(0x40)\n      dup1\n      swap2\n      sub\n      swap1\n      revert\n        /* \"joe-v2-main/src/libraries/PendingOwnable.sol\":1221:1280  if (msg.sender != _owner) revert PendingOwnable__NotOwner() */\n    tag_151:\n        /* \"joe-v2-main/src/LBFactory.sol\":7660:7676  creationUnlocked */\n      sload(0x03)\n      0xff\n      shl(0xa0, 0x01)\n      swap1\n      swap2\n      div\n      and\n        /* \"joe-v2-main/src/LBFactory.sol\":7660:7687  creationUnlocked != _locked */\n      iszero\n      iszero\n      dup2\n      iszero\n      iszero\n      eq\n        /* \"joe-v2-main/src/LBFactory.sol\":7656:7743  if (creationUnlocked != _locked) revert LBFactory__FactoryLockIsAlreadyInTheSameState() */\n      tag_153\n      jumpi\n        /* \"joe-v2-main/src/LBFactory.sol\":7696:7743  LBFactory__FactoryLockIsAlreadyInTheSameState() */\n      mload(0x40)\n      0x0b6ef29400000000000000000000000000000000000000000000000000000000\n      dup2\n      mstore\n      0x04\n      add\n      mload(0x40)\n      dup1\n      swap2\n      sub\n      swap1\n      revert\n        /* \"joe-v2-main/src/LBFactory.sol\":7656:7743  if (creationUnlocked != _locked) revert LBFactory__FactoryLockIsAlreadyInTheSameState() */\n    tag_153:\n        /* \"joe-v2-main/src/LBFactory.sol\":7753:7769  creationUnlocked */\n      0x03\n        /* \"joe-v2-main/src/LBFactory.sol\":7753:7780  creationUnlocked = !_locked */\n      dup1\n      sload\n      shl(0xa0, 0x01)\n        /* \"joe-v2-main/src/LBFactory.sol\":7772:7780  !_locked */\n      dup4\n      iszero\n        /* \"joe-v2-main/src/LBFactory.sol\":7753:7780  creationUnlocked = !_locked */\n      mul\n      0xffffffffffffffffffffff00ffffffffffffffffffffffffffffffffffffffff\n      swap1\n      swap2\n      and\n      or\n      swap1\n      sstore\n        /* \"joe-v2-main/src/LBFactory.sol\":7795:7830  FactoryLockedStatusUpdated(_locked) */\n      mload(0x40)\n      0xcdee7bf87b7a743b4cbe1d2d534c5248621b76f58460337e7fda92d5d23f4124\n      swap1\n      tag_154\n      swap1\n        /* \"joe-v2-main/src/LBFactory.sol\":7773:7780  _locked */\n      dup4\n        /* \"#utility.yul\":1752:1766   */\n      iszero\n        /* \"#utility.yul\":1745:1767   */\n      iszero\n        /* \"#utility.yul\":1727:1768   */\n      dup2\n      mstore\n        /* \"#utility.yul\":1715:1717   */\n      0x20\n        /* \"#utility.yul\":1700:1718   */\n      add\n      swap1\n        /* \"#utility.yul\":1587:1774   */\n      jump\n        /* \"joe-v2-main/src/LBFactory.sol\":7795:7830  FactoryLockedStatusUpdated(_locked) */\n    tag_154:\n      mload(0x40)\n      dup1\n      swap2\n      sub\n      swap1\n      log1\n        /* \"joe-v2-main/src/LBFactory.sol\":7573:7837  function setFactoryLockedState(bool _locked) external override onlyOwner {... */\n      pop\n      jump\t// out\n        /* \"joe-v2-main/src/LBFactory.sol\":3225:3370  function isQuoteAsset(IERC20 _token) external view override returns (bool) {... */\n    tag_46:\n        /* \"joe-v2-main/src/LBFactory.sol\":3294:3298  bool */\n      0x00\n        /* \"joe-v2-main/src/LBFactory.sol\":3317:3363  _quoteAssetWhitelist.contains(address(_token)) */\n      tag_156\n        /* \"joe-v2-main/src/LBFactory.sol\":3317:3337  _quoteAssetWhitelist */\n      0x09\n        /* \"joe-v2-main/src/LBFactory.sol\":3355:3361  _token */\n      dup4\n        /* \"joe-v2-main/src/LBFactory.sol\":3317:3346  _quoteAssetWhitelist.contains */\n      tag_123\n        /* \"joe-v2-main/src/LBFactory.sol\":3317:3363  _quoteAssetWhitelist.contains(address(_token)) */\n      jump\t// in\n    tag_156:\n        /* \"joe-v2-main/src/LBFactory.sol\":3310:3363  return _quoteAssetWhitelist.contains(address(_token)) */\n      swap3\n        /* \"joe-v2-main/src/LBFactory.sol\":3225:3370  function isQuoteAsset(IERC20 _token) external view override returns (bool) {... */\n      swap2\n      pop\n      pop\n      jump\t// out\n        /* \"joe-v2-main/src/LBFactory.sol\":7981:8237  function addQuoteAsset(IERC20 _quoteAsset) external override onlyOwner {... */\n    tag_65:\n        /* \"joe-v2-main/src/libraries/PendingOwnable.sol\":1239:1245  _owner */\n      and(sub(shl(0xa0, 0x01), 0x01), sload(0x00))\n        /* \"joe-v2-main/src/libraries/PendingOwnable.sol\":1225:1235  msg.sender */\n      caller\n        /* \"joe-v2-main/src/libraries/PendingOwnable.sol\":1225:1245  msg.sender != _owner */\n      eq\n        /* \"joe-v2-main/src/libraries/PendingOwnable.sol\":1221:1280  if (msg.sender != _owner) revert PendingOwnable__NotOwner() */\n      tag_159\n      jumpi\n        /* \"joe-v2-main/src/libraries/PendingOwnable.sol\":1254:1280  PendingOwnable__NotOwner() */\n      mload(0x40)\n      shl(0xe0, 0x9f216c13)\n      dup2\n      mstore\n      0x04\n      add\n      mload(0x40)\n      dup1\n      swap2\n      sub\n      swap1\n      revert\n        /* \"joe-v2-main/src/libraries/PendingOwnable.sol\":1221:1280  if (msg.sender != _owner) revert PendingOwnable__NotOwner() */\n    tag_159:\n        /* \"joe-v2-main/src/LBFactory.sol\":8067:8113  _quoteAssetWhitelist.add(address(_quoteAsset)) */\n      tag_161\n        /* \"joe-v2-main/src/LBFactory.sol\":8067:8087  _quoteAssetWhitelist */\n      0x09\n        /* \"joe-v2-main/src/LBFactory.sol\":8100:8111  _quoteAsset */\n      dup3\n        /* \"joe-v2-main/src/LBFactory.sol\":8067:8091  _quoteAssetWhitelist.add */\n      tag_162\n        /* \"joe-v2-main/src/LBFactory.sol\":8067:8113  _quoteAssetWhitelist.add(address(_quoteAsset)) */\n      jump\t// in\n    tag_161:\n        /* \"joe-v2-main/src/LBFactory.sol\":8062:8186  if (!_quoteAssetWhitelist.add(address(_quoteAsset)))... */\n      tag_163\n      jumpi\n        /* \"joe-v2-main/src/LBFactory.sol\":8134:8186  LBFactory__QuoteAssetAlreadyWhitelisted(_quoteAsset) */\n      mload(0x40)\n      0x03ce0ad900000000000000000000000000000000000000000000000000000000\n      dup2\n      mstore\n      sub(shl(0xa0, 0x01), 0x01)\n        /* \"#utility.yul\":968:1023   */\n      dup3\n      and\n        /* \"joe-v2-main/src/LBFactory.sol\":8134:8186  LBFactory__QuoteAssetAlreadyWhitelisted(_quoteAsset) */\n      0x04\n      dup3\n      add\n        /* \"#utility.yul\":950:1024   */\n      mstore\n        /* \"#utility.yul\":923:941   */\n      0x24\n      add\n        /* \"joe-v2-main/src/LBFactory.sol\":8134:8186  LBFactory__QuoteAssetAlreadyWhitelisted(_quoteAsset) */\n      tag_120\n        /* \"#utility.yul\":788:1030   */\n      jump\n        /* \"joe-v2-main/src/LBFactory.sol\":8062:8186  if (!_quoteAssetWhitelist.add(address(_quoteAsset)))... */\n    tag_163:\n        /* \"joe-v2-main/src/LBFactory.sol\":8202:8230  QuoteAssetAdded(_quoteAsset) */\n      mload(0x40)\n      sub(shl(0xa0, 0x01), 0x01)\n      dup3\n      and\n      swap1\n      0x84cc2115995684dcb0cd3d3a9565e3d32f075de81db70c8dc3a719b2a47af67e\n      swap1\n      0x00\n      swap1\n      log2\n        /* \"joe-v2-main/src/LBFactory.sol\":7981:8237  function addQuoteAsset(IERC20 _quoteAsset) external override onlyOwner {... */\n      pop\n      jump\t// out\n        /* \"joe-v2-main/src/libraries/PendingOwnable.sol\":2741:2924  function revokePendingOwner() public override onlyOwner {... */\n    tag_70:\n        /* \"joe-v2-main/src/libraries/PendingOwnable.sol\":1239:1245  _owner */\n      and(sub(shl(0xa0, 0x01), 0x01), sload(0x00))\n        /* \"joe-v2-main/src/libraries/PendingOwnable.sol\":1225:1235  msg.sender */\n      caller\n        /* \"joe-v2-main/src/libraries/PendingOwnable.sol\":1225:1245  msg.sender != _owner */\n      eq\n        /* \"joe-v2-main/src/libraries/PendingOwnable.sol\":1221:1280  if (msg.sender != _owner) revert PendingOwnable__NotOwner() */\n      tag_166\n      jumpi\n        /* \"joe-v2-main/src/libraries/PendingOwnable.sol\":1254:1280  PendingOwnable__NotOwner() */\n      mload(0x40)\n      shl(0xe0, 0x9f216c13)\n      dup2\n      mstore\n      0x04\n      add\n      mload(0x40)\n      dup1\n      swap2\n      sub\n      swap1\n      revert\n        /* \"joe-v2-main/src/libraries/PendingOwnable.sol\":1221:1280  if (msg.sender != _owner) revert PendingOwnable__NotOwner() */\n    tag_166:\n        /* \"joe-v2-main/src/libraries/PendingOwnable.sol\":2811:2824  _pendingOwner */\n      and(sub(shl(0xa0, 0x01), 0x01), sload(0x01))\n        /* \"joe-v2-main/src/libraries/PendingOwnable.sol\":2807:2879  if (_pendingOwner == address(0)) revert PendingOwnable__NoPendingOwner() */\n      tag_168\n      jumpi\n        /* \"joe-v2-main/src/libraries/PendingOwnable.sol\":2847:2879  PendingOwnable__NoPendingOwner() */\n      mload(0x40)\n      0xecfad6bf00000000000000000000000000000000000000000000000000000000\n      dup2\n      mstore\n      0x04\n      add\n      mload(0x40)\n      dup1\n      swap2\n      sub\n      swap1\n      revert\n        /* \"joe-v2-main/src/libraries/PendingOwnable.sol\":2807:2879  if (_pendingOwner == address(0)) revert PendingOwnable__NoPendingOwner() */\n    tag_168:\n        /* \"joe-v2-main/src/libraries/PendingOwnable.sol\":2889:2917  _setPendingOwner(address(0)) */\n      tag_169\n        /* \"joe-v2-main/src/libraries/PendingOwnable.sol\":2914:2915  0 */\n      0x00\n        /* \"joe-v2-main/src/libraries/PendingOwnable.sol\":2889:2905  _setPendingOwner */\n      tag_170\n        /* \"joe-v2-main/src/libraries/PendingOwnable.sol\":2889:2917  _setPendingOwner(address(0)) */\n      jump\t// in\n    tag_169:\n        /* \"joe-v2-main/src/libraries/PendingOwnable.sol\":2741:2924  function revokePendingOwner() public override onlyOwner {... */\n      jump\t// out\n        /* \"joe-v2-main/src/libraries/PendingOwnable.sol\":3489:3591  function renounceOwnership() public override onlyOwner {... */\n    tag_72:\n        /* \"joe-v2-main/src/libraries/PendingOwnable.sol\":1239:1245  _owner */\n      and(sub(shl(0xa0, 0x01), 0x01), sload(0x00))\n        /* \"joe-v2-main/src/libraries/PendingOwnable.sol\":1225:1235  msg.sender */\n      caller\n        /* \"joe-v2-main/src/libraries/PendingOwnable.sol\":1225:1245  msg.sender != _owner */\n      eq\n        /* \"joe-v2-main/src/libraries/PendingOwnable.sol\":1221:1280  if (msg.sender != _owner) revert PendingOwnable__NotOwner() */\n      tag_172\n      jumpi\n        /* \"joe-v2-main/src/libraries/PendingOwnable.sol\":1254:1280  PendingOwnable__NotOwner() */\n      mload(0x40)\n      shl(0xe0, 0x9f216c13)\n      dup2\n      mstore\n      0x04\n      add\n      mload(0x40)\n      dup1\n      swap2\n      sub\n      swap1\n      revert\n        /* \"joe-v2-main/src/libraries/PendingOwnable.sol\":1221:1280  if (msg.sender != _owner) revert PendingOwnable__NotOwner() */\n    tag_172:\n        /* \"joe-v2-main/src/libraries/PendingOwnable.sol\":3554:3584  _transferOwnership(address(0)) */\n      tag_169\n        /* \"joe-v2-main/src/libraries/PendingOwnable.sol\":3581:3582  0 */\n      0x00\n        /* \"joe-v2-main/src/libraries/PendingOwnable.sol\":3554:3572  _transferOwnership */\n      tag_175\n        /* \"joe-v2-main/src/libraries/PendingOwnable.sol\":3554:3584  _transferOwnership(address(0)) */\n      jump\t// in\n        /* \"joe-v2-main/src/LBFactory.sol\":1251:1287  ILBPair[] public override allLBPairs */\n    tag_76:\n      0x05\n      dup2\n      dup2\n      sload\n      dup2\n      lt\n      tag_176\n      jumpi\n      0x00\n      dup1\n      revert\n    tag_176:\n      0x00\n      swap2\n      dup3\n      mstore\n      0x20\n      swap1\n      swap2\n      keccak256\n      add\n      sload\n      sub(shl(0xa0, 0x01), 0x01)\n      and\n      swap1\n      pop\n      dup2\n      jump\t// out\n        /* \"joe-v2-main/src/LBFactory.sol\":2562:2690  function getNumberOfQuoteAssets() external view override returns (uint256) {... */\n    tag_79:\n        /* \"joe-v2-main/src/LBFactory.sol\":2628:2635  uint256 */\n      0x00\n        /* \"joe-v2-main/src/LBFactory.sol\":2654:2683  _quoteAssetWhitelist.length() */\n      tag_179\n        /* \"joe-v2-main/src/LBFactory.sol\":2654:2674  _quoteAssetWhitelist */\n      0x09\n        /* \"joe-v2-main/src/LBFactory.sol\":2654:2681  _quoteAssetWhitelist.length */\n      tag_180\n        /* \"joe-v2-main/src/LBFactory.sol\":2654:2683  _quoteAssetWhitelist.length() */\n      jump\t// in\n    tag_179:\n        /* \"joe-v2-main/src/LBFactory.sol\":2647:2683  return _quoteAssetWhitelist.length() */\n      swap1\n      pop\n        /* \"joe-v2-main/src/LBFactory.sol\":2562:2690  function getNumberOfQuoteAssets() external view override returns (uint256) {... */\n      swap1\n      jump\t// out\n        /* \"joe-v2-main/src/LBFactory.sol\":4061:4645  function setLBPairImplementation(address _LBPairImplementation) external override onlyOwner {... */\n    tag_87:\n        /* \"joe-v2-main/src/libraries/PendingOwnable.sol\":1239:1245  _owner */\n      and(sub(shl(0xa0, 0x01), 0x01), sload(0x00))\n        /* \"joe-v2-main/src/libraries/PendingOwnable.sol\":1225:1235  msg.sender */\n      caller\n        /* \"joe-v2-main/src/libraries/PendingOwnable.sol\":1225:1245  msg.sender != _owner */\n      eq\n        /* \"joe-v2-main/src/libraries/PendingOwnable.sol\":1221:1280  if (msg.sender != _owner) revert PendingOwnable__NotOwner() */\n      tag_183\n      jumpi\n        /* \"joe-v2-main/src/libraries/PendingOwnable.sol\":1254:1280  PendingOwnable__NotOwner() */\n      mload(0x40)\n      shl(0xe0, 0x9f216c13)\n      dup2\n      mstore\n      0x04\n      add\n      mload(0x40)\n      dup1\n      swap2\n      sub\n      swap1\n      revert\n        /* \"joe-v2-main/src/libraries/PendingOwnable.sol\":1221:1280  if (msg.sender != _owner) revert PendingOwnable__NotOwner() */\n    tag_183:\n        /* \"joe-v2-main/src/LBFactory.sol\":4211:4215  this */\n      address\n      sub(shl(0xa0, 0x01), 0x01)\n        /* \"joe-v2-main/src/LBFactory.sol\":4167:4215  ILBPair(_LBPairImplementation).factory() != this */\n      and\n        /* \"joe-v2-main/src/LBFactory.sol\":4175:4196  _LBPairImplementation */\n      dup2\n      sub(shl(0xa0, 0x01), 0x01)\n        /* \"joe-v2-main/src/LBFactory.sol\":4167:4205  ILBPair(_LBPairImplementation).factory */\n      and\n      0xc45a0155\n        /* \"joe-v2-main/src/LBFactory.sol\":4167:4207  ILBPair(_LBPairImplementation).factory() */\n      mload(0x40)\n      dup2\n      0xffffffff\n      and\n      0xe0\n      shl\n      dup2\n      mstore\n      0x04\n      add\n      0x20\n      mload(0x40)\n      dup1\n      dup4\n      sub\n      dup2\n      dup7\n      gas\n      staticcall\n      iszero\n      dup1\n      iszero\n      tag_186\n      jumpi\n      returndatasize\n      0x00\n      dup1\n      returndatacopy\n      revert(0x00, returndatasize)\n    tag_186:\n      pop\n      pop\n      pop\n      pop\n      mload(0x40)\n      returndatasize\n      not(0x1f)\n      0x1f\n      dup3\n      add\n      and\n      dup3\n      add\n      dup1\n      0x40\n      mstore\n      pop\n      dup2\n      add\n      swap1\n      tag_187\n      swap2\n      swap1\n      tag_188\n      jump\t// in\n    tag_187:\n      sub(shl(0xa0, 0x01), 0x01)\n        /* \"joe-v2-main/src/LBFactory.sol\":4167:4215  ILBPair(_LBPairImplementation).factory() != this */\n      and\n      eq\n        /* \"joe-v2-main/src/LBFactory.sol\":4163:4293  if (ILBPair(_LBPairImplementation).factory() != this)... */\n      tag_189\n      jumpi\n        /* \"joe-v2-main/src/LBFactory.sol\":4236:4293  LBFactory__LBPairSafetyCheckFailed(_LBPairImplementation) */\n      mload(0x40)\n      0x147ce15e00000000000000000000000000000000000000000000000000000000\n      dup2\n      mstore\n      sub(shl(0xa0, 0x01), 0x01)\n        /* \"#utility.yul\":968:1023   */\n      dup3\n      and\n        /* \"joe-v2-main/src/LBFactory.sol\":4236:4293  LBFactory__LBPairSafetyCheckFailed(_LBPairImplementation) */\n      0x04\n      dup3\n      add\n        /* \"#utility.yul\":950:1024   */\n      mstore\n        /* \"#utility.yul\":923:941   */\n      0x24\n      add\n        /* \"joe-v2-main/src/LBFactory.sol\":4236:4293  LBFactory__LBPairSafetyCheckFailed(_LBPairImplementation) */\n      tag_120\n        /* \"#utility.yul\":788:1030   */\n      jump\n        /* \"joe-v2-main/src/LBFactory.sol\":4163:4293  if (ILBPair(_LBPairImplementation).factory() != this)... */\n    tag_189:\n        /* \"joe-v2-main/src/LBFactory.sol\":4339:4359  LBPairImplementation */\n      sload(0x02)\n      sub(shl(0xa0, 0x01), 0x01)\n      swap1\n      dup2\n      and\n      swap1\n        /* \"joe-v2-main/src/LBFactory.sol\":4373:4422  _oldLBPairImplementation == _LBPairImplementation */\n      dup3\n      and\n      dup2\n      eq\n        /* \"joe-v2-main/src/LBFactory.sol\":4369:4495  if (_oldLBPairImplementation == _LBPairImplementation)... */\n      iszero\n      tag_191\n      jumpi\n        /* \"joe-v2-main/src/LBFactory.sol\":4443:4495  LBFactory__SameImplementation(_LBPairImplementation) */\n      mload(0x40)\n      0x6f69dca800000000000000000000000000000000000000000000000000000000\n      dup2\n      mstore\n      sub(shl(0xa0, 0x01), 0x01)\n        /* \"#utility.yul\":968:1023   */\n      dup4\n      and\n        /* \"joe-v2-main/src/LBFactory.sol\":4443:4495  LBFactory__SameImplementation(_LBPairImplementation) */\n      0x04\n      dup3\n      add\n        /* \"#utility.yul\":950:1024   */\n      mstore\n        /* \"#utility.yul\":923:941   */\n      0x24\n      add\n        /* \"joe-v2-main/src/LBFactory.sol\":4443:4495  LBFactory__SameImplementation(_LBPairImplementation) */\n      tag_120\n        /* \"#utility.yul\":788:1030   */\n      jump\n        /* \"joe-v2-main/src/LBFactory.sol\":4369:4495  if (_oldLBPairImplementation == _LBPairImplementation)... */\n    tag_191:\n        /* \"joe-v2-main/src/LBFactory.sol\":4506:4526  LBPairImplementation */\n      0x02\n        /* \"joe-v2-main/src/LBFactory.sol\":4506:4550  LBPairImplementation = _LBPairImplementation */\n      dup1\n      sload\n      not(sub(shl(0xa0, 0x01), 0x01))\n      and\n      sub(shl(0xa0, 0x01), 0x01)\n      dup5\n      dup2\n      and\n      swap2\n      dup3\n      or\n      swap1\n      swap3\n      sstore\n        /* \"joe-v2-main/src/LBFactory.sol\":4566:4638  LBPairImplementationSet(_oldLBPairImplementation, _LBPairImplementation) */\n      0x40\n      dup1\n      mload\n        /* \"#utility.yul\":4426:4441   */\n      swap3\n      dup5\n      and\n        /* \"#utility.yul\":4408:4442   */\n      dup4\n      mstore\n        /* \"#utility.yul\":4473:4475   */\n      0x20\n        /* \"#utility.yul\":4458:4476   */\n      dup4\n      add\n        /* \"#utility.yul\":4451:4494   */\n      swap2\n      swap1\n      swap2\n      mstore\n        /* \"joe-v2-main/src/LBFactory.sol\":4566:4638  LBPairImplementationSet(_oldLBPairImplementation, _LBPairImplementation) */\n      0x900d0e3d359f50e4f923ecdc06b401e07dbb9f485e17b07bcfc91a13000b277e\n      swap2\n        /* \"#utility.yul\":4320:4338   */\n      add\n        /* \"joe-v2-main/src/LBFactory.sol\":4566:4638  LBPairImplementationSet(_oldLBPairImplementation, _LBPairImplementation) */\n    tag_193:\n      mload(0x40)\n      dup1\n      swap2\n      sub\n      swap1\n      log1\n        /* \"joe-v2-main/src/LBFactory.sol\":4153:4645  {... */\n      pop\n        /* \"joe-v2-main/src/LBFactory.sol\":4061:4645  function setLBPairImplementation(address _LBPairImplementation) external override onlyOwner {... */\n      pop\n      jump\t// out\n        /* \"joe-v2-main/src/libraries/PendingOwnable.sol\":2265:2556  function setPendingOwner(address pendingOwner_) public override onlyOwner {... */\n    tag_93:\n        /* \"joe-v2-main/src/libraries/PendingOwnable.sol\":1239:1245  _owner */\n      and(sub(shl(0xa0, 0x01), 0x01), sload(0x00))\n        /* \"joe-v2-main/src/libraries/PendingOwnable.sol\":1225:1235  msg.sender */\n      caller\n        /* \"joe-v2-main/src/libraries/PendingOwnable.sol\":1225:1245  msg.sender != _owner */\n      eq\n        /* \"joe-v2-main/src/libraries/PendingOwnable.sol\":1221:1280  if (msg.sender != _owner) revert PendingOwnable__NotOwner() */\n      tag_196\n      jumpi\n        /* \"joe-v2-main/src/libraries/PendingOwnable.sol\":1254:1280  PendingOwnable__NotOwner() */\n      mload(0x40)\n      shl(0xe0, 0x9f216c13)\n      dup2\n      mstore\n      0x04\n      add\n      mload(0x40)\n      dup1\n      swap2\n      sub\n      swap1\n      revert\n        /* \"joe-v2-main/src/libraries/PendingOwnable.sol\":1221:1280  if (msg.sender != _owner) revert PendingOwnable__NotOwner() */\n    tag_196:\n      sub(shl(0xa0, 0x01), 0x01)\n        /* \"joe-v2-main/src/libraries/PendingOwnable.sol\":2353:2380  pendingOwner_ == address(0) */\n      dup2\n      and\n        /* \"joe-v2-main/src/libraries/PendingOwnable.sol\":2349:2418  if (pendingOwner_ == address(0)) revert PendingOwnable__AddressZero() */\n      tag_198\n      jumpi\n        /* \"joe-v2-main/src/libraries/PendingOwnable.sol\":2389:2418  PendingOwnable__AddressZero() */\n      mload(0x40)\n      0x91f3851500000000000000000000000000000000000000000000000000000000\n      dup2\n      mstore\n      0x04\n      add\n      mload(0x40)\n      dup1\n      swap2\n      sub\n      swap1\n      revert\n        /* \"joe-v2-main/src/libraries/PendingOwnable.sol\":2349:2418  if (pendingOwner_ == address(0)) revert PendingOwnable__AddressZero() */\n    tag_198:\n        /* \"joe-v2-main/src/libraries/PendingOwnable.sol\":2432:2445  _pendingOwner */\n      and(sub(shl(0xa0, 0x01), 0x01), sload(0x01))\n        /* \"joe-v2-main/src/libraries/PendingOwnable.sol\":2432:2459  _pendingOwner != address(0) */\n      iszero\n        /* \"joe-v2-main/src/libraries/PendingOwnable.sol\":2428:2508  if (_pendingOwner != address(0)) revert PendingOwnable__PendingOwnerAlreadySet() */\n      tag_199\n      jumpi\n        /* \"joe-v2-main/src/libraries/PendingOwnable.sol\":2468:2508  PendingOwnable__PendingOwnerAlreadySet() */\n      mload(0x40)\n      0x716b1fbf00000000000000000000000000000000000000000000000000000000\n      dup2\n      mstore\n      0x04\n      add\n      mload(0x40)\n      dup1\n      swap2\n      sub\n      swap1\n      revert\n        /* \"joe-v2-main/src/libraries/PendingOwnable.sol\":2428:2508  if (_pendingOwner != address(0)) revert PendingOwnable__PendingOwnerAlreadySet() */\n    tag_199:\n        /* \"joe-v2-main/src/libraries/PendingOwnable.sol\":2518:2549  _setPendingOwner(pendingOwner_) */\n      tag_200\n        /* \"joe-v2-main/src/libraries/PendingOwnable.sol\":2535:2548  pendingOwner_ */\n      dup2\n        /* \"joe-v2-main/src/libraries/PendingOwnable.sol\":2518:2534  _setPendingOwner */\n      tag_170\n        /* \"joe-v2-main/src/libraries/PendingOwnable.sol\":2518:2549  _setPendingOwner(pendingOwner_) */\n      jump\t// in\n    tag_200:\n        /* \"joe-v2-main/src/libraries/PendingOwnable.sol\":2265:2556  function setPendingOwner(address pendingOwner_) public override onlyOwner {... */\n      pop\n      jump\t// out\n        /* \"joe-v2-main/src/LBFactory.sol\":8386:8634  function removeQuoteAsset(IERC20 _quoteAsset) external override onlyOwner {... */\n    tag_96:\n        /* \"joe-v2-main/src/libraries/PendingOwnable.sol\":1239:1245  _owner */\n      and(sub(shl(0xa0, 0x01), 0x01), sload(0x00))\n        /* \"joe-v2-main/src/libraries/PendingOwnable.sol\":1225:1235  msg.sender */\n      caller\n        /* \"joe-v2-main/src/libraries/PendingOwnable.sol\":1225:1245  msg.sender != _owner */\n      eq\n        /* \"joe-v2-main/src/libraries/PendingOwnable.sol\":1221:1280  if (msg.sender != _owner) revert PendingOwnable__NotOwner() */\n      tag_202\n      jumpi\n        /* \"joe-v2-main/src/libraries/PendingOwnable.sol\":1254:1280  PendingOwnable__NotOwner() */\n      mload(0x40)\n      shl(0xe0, 0x9f216c13)\n      dup2\n      mstore\n      0x04\n      add\n      mload(0x40)\n      dup1\n      swap2\n      sub\n      swap1\n      revert\n        /* \"joe-v2-main/src/libraries/PendingOwnable.sol\":1221:1280  if (msg.sender != _owner) revert PendingOwnable__NotOwner() */\n    tag_202:\n        /* \"joe-v2-main/src/LBFactory.sol\":8475:8524  _quoteAssetWhitelist.remove(address(_quoteAsset)) */\n      tag_204\n        /* \"joe-v2-main/src/LBFactory.sol\":8475:8495  _quoteAssetWhitelist */\n      0x09\n        /* \"joe-v2-main/src/LBFactory.sol\":8511:8522  _quoteAsset */\n      dup3\n        /* \"joe-v2-main/src/LBFactory.sol\":8475:8502  _quoteAssetWhitelist.remove */\n      tag_205\n        /* \"joe-v2-main/src/LBFactory.sol\":8475:8524  _quoteAssetWhitelist.remove(address(_quoteAsset)) */\n      jump\t// in\n    tag_204:\n        /* \"joe-v2-main/src/LBFactory.sol\":8470:8581  if (!_quoteAssetWhitelist.remove(address(_quoteAsset))) revert LBFactory__QuoteAssetNotWhitelisted(_quoteAsset) */\n      tag_206\n      jumpi\n        /* \"joe-v2-main/src/LBFactory.sol\":8533:8581  LBFactory__QuoteAssetNotWhitelisted(_quoteAsset) */\n      mload(0x40)\n      shl(0xe0, 0x8e888ef3)\n      dup2\n      mstore\n      sub(shl(0xa0, 0x01), 0x01)\n        /* \"#utility.yul\":968:1023   */\n      dup3\n      and\n        /* \"joe-v2-main/src/LBFactory.sol\":8533:8581  LBFactory__QuoteAssetNotWhitelisted(_quoteAsset) */\n      0x04\n      dup3\n      add\n        /* \"#utility.yul\":950:1024   */\n      mstore\n        /* \"#utility.yul\":923:941   */\n      0x24\n      add\n        /* \"joe-v2-main/src/LBFactory.sol\":8533:8581  LBFactory__QuoteAssetNotWhitelisted(_quoteAsset) */\n      tag_120\n        /* \"#utility.yul\":788:1030   */\n      jump\n        /* \"joe-v2-main/src/LBFactory.sol\":8470:8581  if (!_quoteAssetWhitelist.remove(address(_quoteAsset))) revert LBFactory__QuoteAssetNotWhitelisted(_quoteAsset) */\n    tag_206:\n        /* \"joe-v2-main/src/LBFactory.sol\":8597:8627  QuoteAssetRemoved(_quoteAsset) */\n      mload(0x40)\n      sub(shl(0xa0, 0x01), 0x01)\n      dup3\n      and\n      swap1\n      0x0b767739217755d8af5a2ba75b181a19fa1750f8bb701f09311cb19a90140cb3\n      swap1\n      0x00\n      swap1\n      log2\n        /* \"joe-v2-main/src/LBFactory.sol\":8386:8634  function removeQuoteAsset(IERC20 _quoteAsset) external override onlyOwner {... */\n      pop\n      jump\t// out\n        /* \"joe-v2-main/src/LBFactory.sol\":7295:7419  function setFeeRecipient(address _feeRecipient) external override onlyOwner {... */\n    tag_102:\n        /* \"joe-v2-main/src/libraries/PendingOwnable.sol\":1239:1245  _owner */\n      and(sub(shl(0xa0, 0x01), 0x01), sload(0x00))\n        /* \"joe-v2-main/src/libraries/PendingOwnable.sol\":1225:1235  msg.sender */\n      caller\n        /* \"joe-v2-main/src/libraries/PendingOwnable.sol\":1225:1245  msg.sender != _owner */\n      eq\n        /* \"joe-v2-main/src/libraries/PendingOwnable.sol\":1221:1280  if (msg.sender != _owner) revert PendingOwnable__NotOwner() */\n      tag_210\n      jumpi\n        /* \"joe-v2-main/src/libraries/PendingOwnable.sol\":1254:1280  PendingOwnable__NotOwner() */\n      mload(0x40)\n      shl(0xe0, 0x9f216c13)\n      dup2\n      mstore\n      0x04\n      add\n      mload(0x40)\n      dup1\n      swap2\n      sub\n      swap1\n      revert\n        /* \"joe-v2-main/src/libraries/PendingOwnable.sol\":1221:1280  if (msg.sender != _owner) revert PendingOwnable__NotOwner() */\n    tag_210:\n        /* \"joe-v2-main/src/LBFactory.sol\":7381:7412  _setFeeRecipient(_feeRecipient) */\n      tag_200\n        /* \"joe-v2-main/src/LBFactory.sol\":7398:7411  _feeRecipient */\n      dup2\n        /* \"joe-v2-main/src/LBFactory.sol\":7381:7397  _setFeeRecipient */\n      tag_213\n        /* \"joe-v2-main/src/LBFactory.sol\":7381:7412  _setFeeRecipient(_feeRecipient) */\n      jump\t// in\n        /* \"joe-v2-main/src/LBFactory.sol\":3680:3885  function getLBPairInformation(... */\n    tag_106:\n      0x40\n      dup1\n      mload\n      dup1\n      dup3\n      add\n      swap1\n      swap2\n      mstore\n      0x00\n      dup1\n      dup3\n      mstore\n      0x20\n      dup3\n      add\n      mstore\n        /* \"joe-v2-main/src/LBFactory.sol\":3839:3878  _getLBPairInformation(_tokenA, _tokenB) */\n      tag_217\n        /* \"joe-v2-main/src/LBFactory.sol\":3861:3868  _tokenA */\n      dup4\n        /* \"joe-v2-main/src/LBFactory.sol\":3870:3877  _tokenB */\n      dup4\n        /* \"joe-v2-main/src/LBFactory.sol\":3839:3860  _getLBPairInformation */\n      tag_218\n        /* \"joe-v2-main/src/LBFactory.sol\":3839:3878  _getLBPairInformation(_tokenA, _tokenB) */\n      jump\t// in\n    tag_217:\n        /* \"joe-v2-main/src/LBFactory.sol\":3832:3878  return _getLBPairInformation(_tokenA, _tokenB) */\n      swap4\n        /* \"joe-v2-main/src/LBFactory.sol\":3680:3885  function getLBPairInformation(... */\n      swap3\n      pop\n      pop\n      pop\n      jump\t// out\n        /* \"joe-v2-main/src/LBFactory.sol\":2877:3019  function getQuoteAsset(uint256 _index) external view override returns (IERC20) {... */\n    tag_111:\n        /* \"joe-v2-main/src/LBFactory.sol\":2948:2954  IERC20 */\n      0x00\n        /* \"joe-v2-main/src/LBFactory.sol\":2980:3011  _quoteAssetWhitelist.at(_index) */\n      tag_156\n        /* \"joe-v2-main/src/LBFactory.sol\":2980:3000  _quoteAssetWhitelist */\n      0x09\n        /* \"joe-v2-main/src/LBFactory.sol\":3004:3010  _index */\n      dup4\n        /* \"joe-v2-main/src/LBFactory.sol\":2980:3003  _quoteAssetWhitelist.at */\n      tag_221\n        /* \"joe-v2-main/src/LBFactory.sol\":2980:3011  _quoteAssetWhitelist.at(_index) */\n      jump\t// in\n        /* \"joe-v2-main/src/libraries/PendingOwnable.sol\":3052:3155  function becomeOwner() public override onlyPendingOwner {... */\n    tag_115:\n        /* \"joe-v2-main/src/libraries/PendingOwnable.sol\":1438:1451  _pendingOwner */\n      and(sub(shl(0xa0, 0x01), 0x01), sload(0x01))\n        /* \"joe-v2-main/src/libraries/PendingOwnable.sol\":1424:1434  msg.sender */\n      caller\n        /* \"joe-v2-main/src/libraries/PendingOwnable.sol\":1424:1451  msg.sender != _pendingOwner */\n      eq\n      iszero\n      dup1\n        /* \"joe-v2-main/src/libraries/PendingOwnable.sol\":1424:1479  msg.sender != _pendingOwner || msg.sender == address(0) */\n      tag_223\n      jumpi\n      pop\n        /* \"joe-v2-main/src/libraries/PendingOwnable.sol\":1455:1465  msg.sender */\n      caller\n        /* \"joe-v2-main/src/libraries/PendingOwnable.sol\":1455:1479  msg.sender == address(0) */\n      iszero\n        /* \"joe-v2-main/src/libraries/PendingOwnable.sol\":1424:1479  msg.sender != _pendingOwner || msg.sender == address(0) */\n    tag_223:\n        /* \"joe-v2-main/src/libraries/PendingOwnable.sol\":1420:1521  if (msg.sender != _pendingOwner || msg.sender == address(0)) revert PendingOwnable__NotPendingOwner() */\n      iszero\n      tag_224\n      jumpi\n        /* \"joe-v2-main/src/libraries/PendingOwnable.sol\":1488:1521  PendingOwnable__NotPendingOwner() */\n      mload(0x40)\n      0x7304d01200000000000000000000000000000000000000000000000000000000\n      dup2\n      mstore\n      0x04\n      add\n      mload(0x40)\n      dup1\n      swap2\n      sub\n      swap1\n      revert\n        /* \"joe-v2-main/src/libraries/PendingOwnable.sol\":1420:1521  if (msg.sender != _pendingOwner || msg.sender == address(0)) revert PendingOwnable__NotPendingOwner() */\n    tag_224:\n        /* \"joe-v2-main/src/libraries/PendingOwnable.sol\":3118:3148  _transferOwnership(msg.sender) */\n      tag_169\n        /* \"joe-v2-main/src/libraries/PendingOwnable.sol\":3137:3147  msg.sender */\n      caller\n        /* \"joe-v2-main/src/libraries/PendingOwnable.sol\":3118:3136  _transferOwnership */\n      tag_175\n        /* \"joe-v2-main/src/libraries/PendingOwnable.sol\":3118:3148  _transferOwnership(msg.sender) */\n      jump\t// in\n        /* \"@openzeppelin/contracts/utils/structs/EnumerableSet.sol\":8852:9017  function contains(AddressSet storage set, address value) internal view returns (bool) {... */\n    tag_123:\n      sub(shl(0xa0, 0x01), 0x01)\n        /* \"@openzeppelin/contracts/utils/structs/EnumerableSet.sol\":8985:9008  uint256(uint160(value)) */\n      dup2\n      and\n        /* \"@openzeppelin/contracts/utils/structs/EnumerableSet.sol\":8932:8936  bool */\n      0x00\n        /* \"@openzeppelin/contracts/utils/structs/EnumerableSet.sol\":4343:4362  set._indexes[value] */\n      swap1\n      dup2\n      mstore\n        /* \"@openzeppelin/contracts/utils/structs/EnumerableSet.sol\":4343:4355  set._indexes */\n      0x01\n      dup4\n      add\n        /* \"@openzeppelin/contracts/utils/structs/EnumerableSet.sol\":4343:4362  set._indexes[value] */\n      0x20\n      mstore\n      0x40\n      dup2\n      keccak256\n      sload\n        /* \"@openzeppelin/contracts/utils/structs/EnumerableSet.sol\":4343:4367  set._indexes[value] != 0 */\n      iszero\n      iszero\n        /* \"@openzeppelin/contracts/utils/structs/EnumerableSet.sol\":8955:9010  _contains(set._inner, bytes32(uint256(uint160(value)))) */\n      tag_217\n        /* \"@openzeppelin/contracts/utils/structs/EnumerableSet.sol\":4247:4374  function _contains(Set storage set, bytes32 value) private view returns (bool) {... */\n      jump\n        /* \"joe-v2-main/src/libraries/BinHelper.sol\":1462:1754  function getPriceFromId(uint256 _id) internal pure returns (uint256) {... */\n    tag_129:\n        /* \"joe-v2-main/src/libraries/BinHelper.sol\":1522:1529  uint256 */\n      0x00\n        /* \"joe-v2-main/src/libraries/BinHelper.sol\":1559:1575  type(uint24).max */\n      0xffffff\n        /* \"joe-v2-main/src/libraries/BinHelper.sol\":1545:1576  _id > uint256(type(uint24).max) */\n      dup3\n      gt\n        /* \"joe-v2-main/src/libraries/BinHelper.sol\":1541:1609  if (_id > uint256(type(uint24).max)) revert BinHelper__IdOverflows() */\n      iszero\n      tag_231\n      jumpi\n        /* \"joe-v2-main/src/libraries/BinHelper.sol\":1585:1609  BinHelper__IdOverflows() */\n      mload(0x40)\n      0x58f62eac00000000000000000000000000000000000000000000000000000000\n      dup2\n      mstore\n      0x04\n      add\n      mload(0x40)\n      dup1\n      swap2\n      sub\n      swap1\n      revert\n        /* \"joe-v2-main/src/libraries/BinHelper.sol\":1541:1609  if (_id > uint256(type(uint24).max)) revert BinHelper__IdOverflows() */\n    tag_231:\n      not(0x7fffff)\n        /* \"joe-v2-main/src/libraries/BinHelper.sol\":1660:1687  int256(_id) - REAL_ID_SHIFT */\n      dup3\n      add\n        /* \"joe-v2-main/src/libraries/BinHelper.sol\":1709:1737  _getBPValue().power(_realId) */\n      tag_217\n        /* \"joe-v2-main/src/libraries/BinHelper.sol\":2108:2183  Constants.SCALE + (1 << Constants.SCALE_OFFSET) / Constants.BASIS_POINT_MAX */\n      0x0100068db8bac710cb295e9e1b089a0275\n        /* \"joe-v2-main/src/libraries/BinHelper.sol\":1660:1687  int256(_id) - REAL_ID_SHIFT */\n      dup3\n        /* \"joe-v2-main/src/libraries/BinHelper.sol\":1709:1728  _getBPValue().power */\n      tag_235\n        /* \"joe-v2-main/src/libraries/BinHelper.sol\":1709:1737  _getBPValue().power(_realId) */\n      jump\t// in\n        /* \"joe-v2-main/src/LBFactory.sol\":9954:10159  function _sortTokens(IERC20 _tokenA, IERC20 _tokenB) private pure returns (IERC20, IERC20) {... */\n    tag_131:\n        /* \"joe-v2-main/src/LBFactory.sol\":10029:10035  IERC20 */\n      0x00\n        /* \"joe-v2-main/src/LBFactory.sol\":10037:10043  IERC20 */\n      dup1\n        /* \"joe-v2-main/src/LBFactory.sol\":10069:10076  _tokenB */\n      dup3\n      sub(shl(0xa0, 0x01), 0x01)\n        /* \"joe-v2-main/src/LBFactory.sol\":10059:10076  _tokenA > _tokenB */\n      and\n        /* \"joe-v2-main/src/LBFactory.sol\":10059:10066  _tokenA */\n      dup5\n      sub(shl(0xa0, 0x01), 0x01)\n        /* \"joe-v2-main/src/LBFactory.sol\":10059:10076  _tokenA > _tokenB */\n      and\n      gt\n        /* \"joe-v2-main/src/LBFactory.sol\":10055:10117  if (_tokenA > _tokenB) (_tokenA, _tokenB) = (_tokenB, _tokenA) */\n      iszero\n      tag_237\n      jumpi\n        /* \"joe-v2-main/src/LBFactory.sol\":10100:10107  _tokenB */\n      swap2\n      swap3\n        /* \"joe-v2-main/src/LBFactory.sol\":10109:10116  _tokenA */\n      swap2\n        /* \"joe-v2-main/src/LBFactory.sol\":10055:10117  if (_tokenA > _tokenB) (_tokenA, _tokenB) = (_tokenB, _tokenA) */\n    tag_237:\n      pop\n        /* \"joe-v2-main/src/LBFactory.sol\":10135:10142  _tokenA */\n      swap2\n      swap3\n        /* \"joe-v2-main/src/LBFactory.sol\":10144:10151  _tokenB */\n      swap1\n      swap2\n      pop\n        /* \"joe-v2-main/src/LBFactory.sol\":9954:10159  function _sortTokens(IERC20 _tokenA, IERC20 _tokenB) private pure returns (IERC20, IERC20) {... */\n      jump\t// out\n        /* \"@openzeppelin/contracts/proxy/Clones.sol\":2107:2901  function cloneDeterministic(address implementation, bytes32 salt) internal returns (address instance) {... */\n    tag_139:\n        /* \"@openzeppelin/contracts/proxy/Clones.sol\":2191:2207  address instance */\n      0x00\n        /* \"@openzeppelin/contracts/proxy/Clones.sol\":2523:2571  0x3d602d80600a3d3981f3363d3d373d3d3d363d73000000 */\n      0x3d602d80600a3d3981f3363d3d373d3d3d363d73000000\n        /* \"@openzeppelin/contracts/proxy/Clones.sol\":2505:2519  implementation */\n      dup4\n        /* \"@openzeppelin/contracts/proxy/Clones.sol\":2499:2503  0x60 */\n      0x60\n        /* \"@openzeppelin/contracts/proxy/Clones.sol\":2495:2520  shl(0x60, implementation) */\n      shl\n        /* \"@openzeppelin/contracts/proxy/Clones.sol\":2489:2493  0xe8 */\n      0xe8\n        /* \"@openzeppelin/contracts/proxy/Clones.sol\":2485:2521  shr(0xe8, shl(0x60, implementation)) */\n      shr\n        /* \"@openzeppelin/contracts/proxy/Clones.sol\":2482:2572  or(shr(0xe8, shl(0x60, implementation)), 0x3d602d80600a3d3981f3363d3d373d3d3d363d73000000) */\n      or\n        /* \"@openzeppelin/contracts/proxy/Clones.sol\":2476:2480  0x00 */\n      0x00\n        /* \"@openzeppelin/contracts/proxy/Clones.sol\":2469:2573  mstore(0x00, or(shr(0xe8, shl(0x60, implementation)), 0x3d602d80600a3d3981f3363d3d373d3d3d363d73000000)) */\n      mstore\n        /* \"@openzeppelin/contracts/proxy/Clones.sol\":2730:2762  0x5af43d82803e903d91602b57fd5bf3 */\n      0x5af43d82803e903d91602b57fd5bf3\n        /* \"@openzeppelin/contracts/proxy/Clones.sol\":2713:2727  implementation */\n      dup4\n        /* \"@openzeppelin/contracts/proxy/Clones.sol\":2707:2711  0x78 */\n      0x78\n        /* \"@openzeppelin/contracts/proxy/Clones.sol\":2703:2728  shl(0x78, implementation) */\n      shl\n        /* \"@openzeppelin/contracts/proxy/Clones.sol\":2700:2763  or(shl(0x78, implementation), 0x5af43d82803e903d91602b57fd5bf3) */\n      or\n        /* \"@openzeppelin/contracts/proxy/Clones.sol\":2694:2698  0x20 */\n      0x20\n        /* \"@openzeppelin/contracts/proxy/Clones.sol\":2687:2764  mstore(0x20, or(shl(0x78, implementation), 0x5af43d82803e903d91602b57fd5bf3)) */\n      mstore\n        /* \"@openzeppelin/contracts/proxy/Clones.sol\":2812:2816  salt */\n      dup2\n        /* \"@openzeppelin/contracts/proxy/Clones.sol\":2806:2810  0x37 */\n      0x37\n        /* \"@openzeppelin/contracts/proxy/Clones.sol\":2800:2804  0x09 */\n      0x09\n        /* \"@openzeppelin/contracts/proxy/Clones.sol\":2797:2798  0 */\n      0x00\n        /* \"@openzeppelin/contracts/proxy/Clones.sol\":2789:2817  create2(0, 0x09, 0x37, salt) */\n      create2\n        /* \"@openzeppelin/contracts/proxy/Clones.sol\":2777:2817  instance := create2(0, 0x09, 0x37, salt) */\n      swap1\n      pop\n      sub(shl(0xa0, 0x01), 0x01)\n        /* \"@openzeppelin/contracts/proxy/Clones.sol\":2844:2866  instance != address(0) */\n      dup2\n      and\n        /* \"@openzeppelin/contracts/proxy/Clones.sol\":2836:2894  require(instance != address(0), \"ERC1167: create2 failed\") */\n      tag_156\n      jumpi\n      mload(0x40)\n      0x08c379a000000000000000000000000000000000000000000000000000000000\n      dup2\n      mstore\n        /* \"#utility.yul\":6368:6370   */\n      0x20\n        /* \"@openzeppelin/contracts/proxy/Clones.sol\":2836:2894  require(instance != address(0), \"ERC1167: create2 failed\") */\n      0x04\n      dup3\n      add\n        /* \"#utility.yul\":6350:6371   */\n      mstore\n        /* \"#utility.yul\":6407:6409   */\n      0x17\n        /* \"#utility.yul\":6387:6405   */\n      0x24\n      dup3\n      add\n        /* \"#utility.yul\":6380:6410   */\n      mstore\n        /* \"#utility.yul\":6446:6471   */\n      0x455243313136373a2063726561746532206661696c6564000000000000000000\n        /* \"#utility.yul\":6426:6444   */\n      0x44\n      dup3\n      add\n        /* \"#utility.yul\":6419:6472   */\n      mstore\n        /* \"#utility.yul\":6489:6507   */\n      0x64\n      add\n        /* \"@openzeppelin/contracts/proxy/Clones.sol\":2836:2894  require(instance != address(0), \"ERC1167: create2 failed\") */\n      tag_120\n        /* \"#utility.yul\":6166:6513   */\n      jump\n        /* \"@openzeppelin/contracts/utils/structs/EnumerableSet.sol\":8297:8447  function add(AddressSet storage set, address value) internal returns (bool) {... */\n    tag_162:\n        /* \"@openzeppelin/contracts/utils/structs/EnumerableSet.sol\":8367:8371  bool */\n      0x00\n        /* \"@openzeppelin/contracts/utils/structs/EnumerableSet.sol\":8390:8440  _add(set._inner, bytes32(uint256(uint160(value)))) */\n      tag_217\n        /* \"@openzeppelin/contracts/utils/structs/EnumerableSet.sol\":8395:8398  set */\n      dup4\n      sub(shl(0xa0, 0x01), 0x01)\n        /* \"@openzeppelin/contracts/utils/structs/EnumerableSet.sol\":8415:8438  uint256(uint160(value)) */\n      dup5\n      and\n        /* \"@openzeppelin/contracts/utils/structs/EnumerableSet.sol\":8390:8394  _add */\n      tag_244\n        /* \"@openzeppelin/contracts/utils/structs/EnumerableSet.sol\":8390:8440  _add(set._inner, bytes32(uint256(uint160(value)))) */\n      jump\t// in\n        /* \"joe-v2-main/src/libraries/PendingOwnable.sol\":4217:4374  function _setPendingOwner(address pendingOwner_) internal virtual {... */\n    tag_170:\n        /* \"joe-v2-main/src/libraries/PendingOwnable.sol\":4293:4306  _pendingOwner */\n      0x01\n        /* \"joe-v2-main/src/libraries/PendingOwnable.sol\":4293:4322  _pendingOwner = pendingOwner_ */\n      dup1\n      sload\n      not(sub(shl(0xa0, 0x01), 0x01))\n      and\n      sub(shl(0xa0, 0x01), 0x01)\n      dup4\n      and\n      swap1\n      dup2\n      or\n      swap1\n      swap2\n      sstore\n        /* \"joe-v2-main/src/libraries/PendingOwnable.sol\":4337:4367  PendingOwnerSet(pendingOwner_) */\n      mload(0x40)\n      0x68f49b346b94582a8b5f9d10e3fe3365318fe8f191ff8dce7c59c6cad06b02f5\n      swap1\n      0x00\n      swap1\n      log2\n        /* \"joe-v2-main/src/libraries/PendingOwnable.sol\":4217:4374  function _setPendingOwner(address pendingOwner_) internal virtual {... */\n      pop\n      jump\t// out\n        /* \"joe-v2-main/src/libraries/PendingOwnable.sol\":3788:4016  function _transferOwnership(address _newOwner) internal virtual {... */\n    tag_175:\n        /* \"joe-v2-main/src/libraries/PendingOwnable.sol\":3862:3879  address _oldOwner */\n      0x00\n        /* \"joe-v2-main/src/libraries/PendingOwnable.sol\":3882:3888  _owner */\n      dup1\n      sload\n      sub(shl(0xa0, 0x01), 0x01)\n        /* \"joe-v2-main/src/libraries/PendingOwnable.sol\":3898:3916  _owner = _newOwner */\n      dup4\n      dup2\n      and\n      not(sub(shl(0xa0, 0x01), 0x01))\n      dup1\n      dup5\n      and\n      dup3\n      or\n      dup6\n      sstore\n        /* \"joe-v2-main/src/libraries/PendingOwnable.sol\":3882:3888  _owner */\n      0x01\n        /* \"joe-v2-main/src/libraries/PendingOwnable.sol\":3926:3952  _pendingOwner = address(0) */\n      dup1\n      sload\n      swap1\n      swap2\n      and\n      swap1\n      sstore\n        /* \"joe-v2-main/src/libraries/PendingOwnable.sol\":3967:4009  OwnershipTransferred(_oldOwner, _newOwner) */\n      mload(0x40)\n        /* \"joe-v2-main/src/libraries/PendingOwnable.sol\":3882:3888  _owner */\n      swap2\n      swap1\n      swap3\n      and\n      swap3\n      dup4\n      swap2\n        /* \"joe-v2-main/src/libraries/PendingOwnable.sol\":3967:4009  OwnershipTransferred(_oldOwner, _newOwner) */\n      0x8be0079c531659141344cd1fd0a4f28419497f9722a3daafe3b4186f6b6457e0\n      swap2\n        /* \"joe-v2-main/src/libraries/PendingOwnable.sol\":3862:3879  address _oldOwner */\n      swap1\n        /* \"joe-v2-main/src/libraries/PendingOwnable.sol\":3967:4009  OwnershipTransferred(_oldOwner, _newOwner) */\n      log3\n        /* \"joe-v2-main/src/libraries/PendingOwnable.sol\":3852:4016  {... */\n      pop\n        /* \"joe-v2-main/src/libraries/PendingOwnable.sol\":3788:4016  function _transferOwnership(address _newOwner) internal virtual {... */\n      pop\n      jump\t// out\n        /* \"@openzeppelin/contracts/utils/structs/EnumerableSet.sol\":9098:9213  function length(AddressSet storage set) internal view returns (uint256) {... */\n    tag_180:\n        /* \"@openzeppelin/contracts/utils/structs/EnumerableSet.sol\":9161:9168  uint256 */\n      0x00\n        /* \"@openzeppelin/contracts/utils/structs/EnumerableSet.sol\":9187:9206  _length(set._inner) */\n      tag_156\n        /* \"@openzeppelin/contracts/utils/structs/EnumerableSet.sol\":9195:9198  set */\n      dup3\n        /* \"@openzeppelin/contracts/utils/structs/EnumerableSet.sol\":4537:4555  set._values.length */\n      sload\n      swap1\n        /* \"@openzeppelin/contracts/utils/structs/EnumerableSet.sol\":4455:4562  function _length(Set storage set) private view returns (uint256) {... */\n      jump\n        /* \"@openzeppelin/contracts/utils/structs/EnumerableSet.sol\":8615:8771  function remove(AddressSet storage set, address value) internal returns (bool) {... */\n    tag_205:\n        /* \"@openzeppelin/contracts/utils/structs/EnumerableSet.sol\":8688:8692  bool */\n      0x00\n        /* \"@openzeppelin/contracts/utils/structs/EnumerableSet.sol\":8711:8764  _remove(set._inner, bytes32(uint256(uint160(value)))) */\n      tag_217\n        /* \"@openzeppelin/contracts/utils/structs/EnumerableSet.sol\":8719:8722  set */\n      dup4\n      sub(shl(0xa0, 0x01), 0x01)\n        /* \"@openzeppelin/contracts/utils/structs/EnumerableSet.sol\":8739:8762  uint256(uint160(value)) */\n      dup5\n      and\n        /* \"@openzeppelin/contracts/utils/structs/EnumerableSet.sol\":8711:8718  _remove */\n      tag_252\n        /* \"@openzeppelin/contracts/utils/structs/EnumerableSet.sol\":8711:8764  _remove(set._inner, bytes32(uint256(uint160(value)))) */\n      jump\t// in\n        /* \"joe-v2-main/src/LBFactory.sol\":8764:9153  function _setFeeRecipient(address _feeRecipient) internal {... */\n    tag_213:\n      sub(shl(0xa0, 0x01), 0x01)\n        /* \"joe-v2-main/src/LBFactory.sol\":8836:8863  _feeRecipient == address(0) */\n      dup2\n      and\n        /* \"joe-v2-main/src/LBFactory.sol\":8832:8896  if (_feeRecipient == address(0)) revert LBFactory__AddressZero() */\n      tag_254\n      jumpi\n        /* \"joe-v2-main/src/LBFactory.sol\":8872:8896  LBFactory__AddressZero() */\n      mload(0x40)\n      shl(0xe2, 0x2573cfb9)\n      dup2\n      mstore\n      0x04\n      add\n      mload(0x40)\n      dup1\n      swap2\n      sub\n      swap1\n      revert\n        /* \"joe-v2-main/src/LBFactory.sol\":8832:8896  if (_feeRecipient == address(0)) revert LBFactory__AddressZero() */\n    tag_254:\n        /* \"joe-v2-main/src/LBFactory.sol\":8934:8946  feeRecipient */\n      sload(0x03)\n      sub(shl(0xa0, 0x01), 0x01)\n      swap1\n      dup2\n      and\n      swap1\n        /* \"joe-v2-main/src/LBFactory.sol\":8960:8993  _oldFeeRecipient == _feeRecipient */\n      dup3\n      and\n      dup2\n      eq\n        /* \"joe-v2-main/src/LBFactory.sol\":8956:9044  if (_oldFeeRecipient == _feeRecipient) revert LBFactory__SameFeeRecipient(_feeRecipient) */\n      iszero\n      tag_255\n      jumpi\n        /* \"joe-v2-main/src/LBFactory.sol\":9002:9044  LBFactory__SameFeeRecipient(_feeRecipient) */\n      mload(0x40)\n      0x4fcea97100000000000000000000000000000000000000000000000000000000\n      dup2\n      mstore\n      sub(shl(0xa0, 0x01), 0x01)\n        /* \"#utility.yul\":968:1023   */\n      dup4\n      and\n        /* \"joe-v2-main/src/LBFactory.sol\":9002:9044  LBFactory__SameFeeRecipient(_feeRecipient) */\n      0x04\n      dup3\n      add\n        /* \"#utility.yul\":950:1024   */\n      mstore\n        /* \"#utility.yul\":923:941   */\n      0x24\n      add\n        /* \"joe-v2-main/src/LBFactory.sol\":9002:9044  LBFactory__SameFeeRecipient(_feeRecipient) */\n      tag_120\n        /* \"#utility.yul\":788:1030   */\n      jump\n        /* \"joe-v2-main/src/LBFactory.sol\":8956:9044  if (_oldFeeRecipient == _feeRecipient) revert LBFactory__SameFeeRecipient(_feeRecipient) */\n    tag_255:\n        /* \"joe-v2-main/src/LBFactory.sol\":9055:9067  feeRecipient */\n      0x03\n        /* \"joe-v2-main/src/LBFactory.sol\":9055:9083  feeRecipient = _feeRecipient */\n      dup1\n      sload\n      not(sub(shl(0xa0, 0x01), 0x01))\n      and\n      sub(shl(0xa0, 0x01), 0x01)\n      dup5\n      dup2\n      and\n      swap2\n      dup3\n      or\n      swap1\n      swap3\n      sstore\n        /* \"joe-v2-main/src/LBFactory.sol\":9098:9146  FeeRecipientSet(_oldFeeRecipient, _feeRecipient) */\n      0x40\n      dup1\n      mload\n        /* \"#utility.yul\":4426:4441   */\n      swap3\n      dup5\n      and\n        /* \"#utility.yul\":4408:4442   */\n      dup4\n      mstore\n        /* \"#utility.yul\":4473:4475   */\n      0x20\n        /* \"#utility.yul\":4458:4476   */\n      dup4\n      add\n        /* \"#utility.yul\":4451:4494   */\n      swap2\n      swap1\n      swap2\n      mstore\n        /* \"joe-v2-main/src/LBFactory.sol\":9098:9146  FeeRecipientSet(_oldFeeRecipient, _feeRecipient) */\n      0x15d80a013f22151bc7246e3bc132e12828cde19de98870475e3fa70840152721\n      swap2\n        /* \"#utility.yul\":4320:4338   */\n      add\n        /* \"joe-v2-main/src/LBFactory.sol\":9098:9146  FeeRecipientSet(_oldFeeRecipient, _feeRecipient) */\n      tag_193\n        /* \"#utility.yul\":4145:4500   */\n      jump\n        /* \"joe-v2-main/src/LBFactory.sol\":9469:9716  function _getLBPairInformation(... */\n    tag_218:\n      0x40\n      dup1\n      mload\n      dup1\n      dup3\n      add\n      swap1\n      swap2\n      mstore\n      0x00\n      dup1\n      dup3\n      mstore\n      0x20\n      dup3\n      add\n      mstore\n        /* \"joe-v2-main/src/LBFactory.sol\":9633:9662  _sortTokens(_tokenA, _tokenB) */\n      tag_260\n        /* \"joe-v2-main/src/LBFactory.sol\":9645:9652  _tokenA */\n      dup4\n        /* \"joe-v2-main/src/LBFactory.sol\":9654:9661  _tokenB */\n      dup4\n        /* \"joe-v2-main/src/LBFactory.sol\":9633:9644  _sortTokens */\n      tag_131\n        /* \"joe-v2-main/src/LBFactory.sol\":9633:9662  _sortTokens(_tokenA, _tokenB) */\n      jump\t// in\n    tag_260:\n      sub(shl(0xa0, 0x01), 0x01)\n        /* \"joe-v2-main/src/LBFactory.sol\":9679:9700  _LBPairsInfo[_tokenA] */\n      swap2\n      dup3\n      and\n      0x00\n      swap1\n      dup2\n      mstore\n        /* \"joe-v2-main/src/LBFactory.sol\":9679:9691  _LBPairsInfo */\n      0x06\n        /* \"joe-v2-main/src/LBFactory.sol\":9679:9700  _LBPairsInfo[_tokenA] */\n      0x20\n      swap1\n      dup2\n      mstore\n      0x40\n      dup1\n      dup4\n      keccak256\n        /* \"joe-v2-main/src/LBFactory.sol\":9679:9709  _LBPairsInfo[_tokenA][_tokenB] */\n      swap4\n      dup6\n      and\n      dup4\n      mstore\n      swap3\n      dup2\n      mstore\n      swap1\n      dup3\n      swap1\n      keccak256\n        /* \"joe-v2-main/src/LBFactory.sol\":9672:9709  return _LBPairsInfo[_tokenA][_tokenB] */\n      dup3\n      mload\n      dup1\n      dup5\n      add\n      swap1\n      swap4\n      mstore\n      sload\n      swap3\n      dup4\n      and\n      dup3\n      mstore\n      shl(0xa0, 0x01)\n      swap1\n      swap3\n      div\n      0xff\n      and\n      iszero\n      iszero\n      swap2\n      dup2\n      add\n      swap2\n      swap1\n      swap2\n      mstore\n      swap4\n        /* \"joe-v2-main/src/LBFactory.sol\":9469:9716  function _getLBPairInformation(... */\n      swap3\n      pop\n      pop\n      pop\n      jump\t// out\n        /* \"@openzeppelin/contracts/utils/structs/EnumerableSet.sol\":9555:9711  function at(AddressSet storage set, uint256 index) internal view returns (address) {... */\n    tag_221:\n        /* \"@openzeppelin/contracts/utils/structs/EnumerableSet.sol\":9629:9636  address */\n      0x00\n        /* \"@openzeppelin/contracts/utils/structs/EnumerableSet.sol\":9679:9701  _at(set._inner, index) */\n      tag_217\n        /* \"@openzeppelin/contracts/utils/structs/EnumerableSet.sol\":9683:9686  set */\n      dup4\n        /* \"@openzeppelin/contracts/utils/structs/EnumerableSet.sol\":9695:9700  index */\n      dup4\n        /* \"@openzeppelin/contracts/utils/structs/EnumerableSet.sol\":9679:9682  _at */\n      tag_263\n        /* \"@openzeppelin/contracts/utils/structs/EnumerableSet.sol\":9679:9701  _at(set._inner, index) */\n      jump\t// in\n        /* \"joe-v2-main/src/libraries/Math128x128.sol\":4094:8094  function power(uint256 x, int256 y) internal pure returns (uint256 result) {... */\n    tag_235:\n        /* \"joe-v2-main/src/libraries/Math128x128.sol\":4153:4167  uint256 result */\n      0x00\n      dup1\n      dup1\n        /* \"joe-v2-main/src/libraries/Math128x128.sol\":4227:4233  y == 0 */\n      dup4\n        /* \"joe-v2-main/src/libraries/Math128x128.sol\":4223:4257  if (y == 0) return Constants.SCALE */\n      tag_270\n      jumpi\n      pop\n        /* \"joe-v2-main/src/libraries/Constants.sol\":291:308  1 << SCALE_OFFSET */\n      0x0100000000000000000000000000000000\n      swap2\n      pop\n        /* \"joe-v2-main/src/libraries/Math128x128.sol\":4235:4257  return Constants.SCALE */\n      tag_156\n      swap1\n      pop\n      jump\n        /* \"joe-v2-main/src/libraries/Math128x128.sol\":4223:4257  if (y == 0) return Constants.SCALE */\n    tag_270:\n      pop\n        /* \"joe-v2-main/src/libraries/Math128x128.sol\":4299:4300  y */\n      dup3\n        /* \"joe-v2-main/src/libraries/Math128x128.sol\":4326:4327  0 */\n      0x00\n        /* \"joe-v2-main/src/libraries/Math128x128.sol\":4316:4328  slt(absY, 0) */\n      dup2\n      slt\n        /* \"joe-v2-main/src/libraries/Math128x128.sol\":4313:4422  if slt(absY, 0) {... */\n      iszero\n      tag_271\n      jumpi\n        /* \"joe-v2-main/src/libraries/Math128x128.sol\":4394:4408  iszero(invert) */\n      swap1\n      iszero\n      swap1\n        /* \"joe-v2-main/src/libraries/Math128x128.sol\":4359:4360  0 */\n      0x00\n        /* \"joe-v2-main/src/libraries/Math128x128.sol\":4355:4367  sub(0, absY) */\n      sub\n        /* \"joe-v2-main/src/libraries/Math128x128.sol\":4313:4422  if slt(absY, 0) {... */\n    tag_271:\n        /* \"joe-v2-main/src/libraries/Math128x128.sol\":4453:4461  0x100000 */\n      0x100000\n        /* \"joe-v2-main/src/libraries/Math128x128.sol\":4446:4450  absY */\n      dup2\n        /* \"joe-v2-main/src/libraries/Math128x128.sol\":4446:4461  absY < 0x100000 */\n      lt\n        /* \"joe-v2-main/src/libraries/Math128x128.sol\":4442:7902  if (absY < 0x100000) {... */\n      iszero\n      tag_272\n      jumpi\n        /* \"joe-v2-main/src/libraries/Constants.sol\":291:308  1 << SCALE_OFFSET */\n      0x0100000000000000000000000000000000\n      swap3\n      pop\n        /* \"joe-v2-main/src/libraries/Math128x128.sol\":4553:4554  x */\n      dup5\n        /* \"joe-v2-main/src/libraries/Math128x128.sol\":4580:4614  0xffffffffffffffffffffffffffffffff */\n      0xffffffffffffffffffffffffffffffff\n        /* \"joe-v2-main/src/libraries/Math128x128.sol\":4574:4615  gt(x, 0xffffffffffffffffffffffffffffffff) */\n      dup2\n      gt\n        /* \"joe-v2-main/src/libraries/Math128x128.sol\":4571:4724  if gt(x, 0xffffffffffffffffffffffffffffffff) {... */\n      iszero\n      tag_273\n      jumpi\n        /* \"joe-v2-main/src/libraries/Math128x128.sol\":4692:4706  iszero(invert) */\n      swap2\n      iszero\n      swap2\n      not(0x00)\n        /* \"joe-v2-main/src/libraries/Math128x128.sol\":4645:4661  div(not(0), pow) */\n      div\n        /* \"joe-v2-main/src/libraries/Math128x128.sol\":4571:4724  if gt(x, 0xffffffffffffffffffffffffffffffff) {... */\n    tag_273:\n        /* \"joe-v2-main/src/libraries/Math128x128.sol\":4755:4758  0x1 */\n      0x01\n        /* \"joe-v2-main/src/libraries/Math128x128.sol\":4749:4753  absY */\n      dup3\n        /* \"joe-v2-main/src/libraries/Math128x128.sol\":4745:4759  and(absY, 0x1) */\n      and\n        /* \"joe-v2-main/src/libraries/Math128x128.sol\":4742:4836  if and(absY, 0x1) {... */\n      iszero\n      tag_274\n      jumpi\n        /* \"joe-v2-main/src/libraries/Math128x128.sol\":4801:4817  mul(result, pow) */\n      swap3\n      dup4\n      mul\n        /* \"joe-v2-main/src/libraries/Math128x128.sol\":4796:4799  128 */\n      0x80\n        /* \"joe-v2-main/src/libraries/Math128x128.sol\":4792:4818  shr(128, mul(result, pow)) */\n      shr\n      swap3\n        /* \"joe-v2-main/src/libraries/Math128x128.sol\":4742:4836  if and(absY, 0x1) {... */\n    tag_274:\n        /* \"joe-v2-main/src/libraries/Math128x128.sol\":4869:4882  mul(pow, pow) */\n      dup1\n      mul\n        /* \"joe-v2-main/src/libraries/Math128x128.sol\":4864:4867  128 */\n      0x80\n        /* \"joe-v2-main/src/libraries/Math128x128.sol\":4860:4883  shr(128, mul(pow, pow)) */\n      shr\n        /* \"joe-v2-main/src/libraries/Math128x128.sol\":4913:4916  0x2 */\n      0x02\n        /* \"joe-v2-main/src/libraries/Math128x128.sol\":4903:4917  and(absY, 0x2) */\n      dup3\n      and\n        /* \"joe-v2-main/src/libraries/Math128x128.sol\":4900:4994  if and(absY, 0x2) {... */\n      iszero\n      tag_275\n      jumpi\n        /* \"joe-v2-main/src/libraries/Math128x128.sol\":4959:4975  mul(result, pow) */\n      swap3\n      dup4\n      mul\n        /* \"joe-v2-main/src/libraries/Math128x128.sol\":4954:4957  128 */\n      0x80\n        /* \"joe-v2-main/src/libraries/Math128x128.sol\":4950:4976  shr(128, mul(result, pow)) */\n      shr\n      swap3\n        /* \"joe-v2-main/src/libraries/Math128x128.sol\":4900:4994  if and(absY, 0x2) {... */\n    tag_275:\n        /* \"joe-v2-main/src/libraries/Math128x128.sol\":5027:5040  mul(pow, pow) */\n      dup1\n      mul\n        /* \"joe-v2-main/src/libraries/Math128x128.sol\":5022:5025  128 */\n      0x80\n        /* \"joe-v2-main/src/libraries/Math128x128.sol\":5018:5041  shr(128, mul(pow, pow)) */\n      shr\n        /* \"joe-v2-main/src/libraries/Math128x128.sol\":5071:5074  0x4 */\n      0x04\n        /* \"joe-v2-main/src/libraries/Math128x128.sol\":5061:5075  and(absY, 0x4) */\n      dup3\n      and\n        /* \"joe-v2-main/src/libraries/Math128x128.sol\":5058:5152  if and(absY, 0x4) {... */\n      iszero\n      tag_276\n      jumpi\n        /* \"joe-v2-main/src/libraries/Math128x128.sol\":5117:5133  mul(result, pow) */\n      swap3\n      dup4\n      mul\n        /* \"joe-v2-main/src/libraries/Math128x128.sol\":5112:5115  128 */\n      0x80\n        /* \"joe-v2-main/src/libraries/Math128x128.sol\":5108:5134  shr(128, mul(result, pow)) */\n      shr\n      swap3\n        /* \"joe-v2-main/src/libraries/Math128x128.sol\":5058:5152  if and(absY, 0x4) {... */\n    tag_276:\n        /* \"joe-v2-main/src/libraries/Math128x128.sol\":5185:5198  mul(pow, pow) */\n      dup1\n      mul\n        /* \"joe-v2-main/src/libraries/Math128x128.sol\":5180:5183  128 */\n      0x80\n        /* \"joe-v2-main/src/libraries/Math128x128.sol\":5176:5199  shr(128, mul(pow, pow)) */\n      shr\n        /* \"joe-v2-main/src/libraries/Math128x128.sol\":5229:5232  0x8 */\n      0x08\n        /* \"joe-v2-main/src/libraries/Math128x128.sol\":5219:5233  and(absY, 0x8) */\n      dup3\n      and\n        /* \"joe-v2-main/src/libraries/Math128x128.sol\":5216:5310  if and(absY, 0x8) {... */\n      iszero\n      tag_277\n      jumpi\n        /* \"joe-v2-main/src/libraries/Math128x128.sol\":5275:5291  mul(result, pow) */\n      swap3\n      dup4\n      mul\n        /* \"joe-v2-main/src/libraries/Math128x128.sol\":5270:5273  128 */\n      0x80\n        /* \"joe-v2-main/src/libraries/Math128x128.sol\":5266:5292  shr(128, mul(result, pow)) */\n      shr\n      swap3\n        /* \"joe-v2-main/src/libraries/Math128x128.sol\":5216:5310  if and(absY, 0x8) {... */\n    tag_277:\n        /* \"joe-v2-main/src/libraries/Math128x128.sol\":5343:5356  mul(pow, pow) */\n      dup1\n      mul\n        /* \"joe-v2-main/src/libraries/Math128x128.sol\":5338:5341  128 */\n      0x80\n        /* \"joe-v2-main/src/libraries/Math128x128.sol\":5334:5357  shr(128, mul(pow, pow)) */\n      shr\n        /* \"joe-v2-main/src/libraries/Math128x128.sol\":5387:5391  0x10 */\n      0x10\n        /* \"joe-v2-main/src/libraries/Math128x128.sol\":5377:5392  and(absY, 0x10) */\n      dup3\n      and\n        /* \"joe-v2-main/src/libraries/Math128x128.sol\":5374:5469  if and(absY, 0x10) {... */\n      iszero\n      tag_278\n      jumpi\n        /* \"joe-v2-main/src/libraries/Math128x128.sol\":5434:5450  mul(result, pow) */\n      swap3\n      dup4\n      mul\n        /* \"joe-v2-main/src/libraries/Math128x128.sol\":5429:5432  128 */\n      0x80\n        /* \"joe-v2-main/src/libraries/Math128x128.sol\":5425:5451  shr(128, mul(result, pow)) */\n      shr\n      swap3\n        /* \"joe-v2-main/src/libraries/Math128x128.sol\":5374:5469  if and(absY, 0x10) {... */\n    tag_278:\n        /* \"joe-v2-main/src/libraries/Math128x128.sol\":5502:5515  mul(pow, pow) */\n      dup1\n      mul\n        /* \"joe-v2-main/src/libraries/Math128x128.sol\":5497:5500  128 */\n      0x80\n        /* \"joe-v2-main/src/libraries/Math128x128.sol\":5493:5516  shr(128, mul(pow, pow)) */\n      shr\n        /* \"joe-v2-main/src/libraries/Math128x128.sol\":5546:5550  0x20 */\n      0x20\n        /* \"joe-v2-main/src/libraries/Math128x128.sol\":5536:5551  and(absY, 0x20) */\n      dup3\n      and\n        /* \"joe-v2-main/src/libraries/Math128x128.sol\":5533:5628  if and(absY, 0x20) {... */\n      iszero\n      tag_279\n      jumpi\n        /* \"joe-v2-main/src/libraries/Math128x128.sol\":5593:5609  mul(result, pow) */\n      swap3\n      dup4\n      mul\n        /* \"joe-v2-main/src/libraries/Math128x128.sol\":5588:5591  128 */\n      0x80\n        /* \"joe-v2-main/src/libraries/Math128x128.sol\":5584:5610  shr(128, mul(result, pow)) */\n      shr\n      swap3\n        /* \"joe-v2-main/src/libraries/Math128x128.sol\":5533:5628  if and(absY, 0x20) {... */\n    tag_279:\n        /* \"joe-v2-main/src/libraries/Math128x128.sol\":5661:5674  mul(pow, pow) */\n      dup1\n      mul\n        /* \"joe-v2-main/src/libraries/Math128x128.sol\":5656:5659  128 */\n      0x80\n        /* \"joe-v2-main/src/libraries/Math128x128.sol\":5652:5675  shr(128, mul(pow, pow)) */\n      shr\n        /* \"joe-v2-main/src/libraries/Math128x128.sol\":5705:5709  0x40 */\n      0x40\n        /* \"joe-v2-main/src/libraries/Math128x128.sol\":5695:5710  and(absY, 0x40) */\n      dup3\n      and\n        /* \"joe-v2-main/src/libraries/Math128x128.sol\":5692:5787  if and(absY, 0x40) {... */\n      iszero\n      tag_280\n      jumpi\n        /* \"joe-v2-main/src/libraries/Math128x128.sol\":5752:5768  mul(result, pow) */\n      swap3\n      dup4\n      mul\n        /* \"joe-v2-main/src/libraries/Math128x128.sol\":5747:5750  128 */\n      0x80\n        /* \"joe-v2-main/src/libraries/Math128x128.sol\":5743:5769  shr(128, mul(result, pow)) */\n      shr\n      swap3\n        /* \"joe-v2-main/src/libraries/Math128x128.sol\":5692:5787  if and(absY, 0x40) {... */\n    tag_280:\n        /* \"joe-v2-main/src/libraries/Math128x128.sol\":5820:5833  mul(pow, pow) */\n      dup1\n      mul\n        /* \"joe-v2-main/src/libraries/Math128x128.sol\":5815:5818  128 */\n      0x80\n        /* \"joe-v2-main/src/libraries/Math128x128.sol\":5811:5834  shr(128, mul(pow, pow)) */\n      swap1\n      dup2\n      shr\n      swap1\n        /* \"joe-v2-main/src/libraries/Math128x128.sol\":5854:5869  and(absY, 0x80) */\n      dup3\n      and\n        /* \"joe-v2-main/src/libraries/Math128x128.sol\":5851:5946  if and(absY, 0x80) {... */\n      iszero\n      tag_281\n      jumpi\n        /* \"joe-v2-main/src/libraries/Math128x128.sol\":5911:5927  mul(result, pow) */\n      swap3\n      dup4\n      mul\n        /* \"joe-v2-main/src/libraries/Math128x128.sol\":5906:5909  128 */\n      0x80\n        /* \"joe-v2-main/src/libraries/Math128x128.sol\":5902:5928  shr(128, mul(result, pow)) */\n      shr\n      swap3\n        /* \"joe-v2-main/src/libraries/Math128x128.sol\":5851:5946  if and(absY, 0x80) {... */\n    tag_281:\n        /* \"joe-v2-main/src/libraries/Math128x128.sol\":5979:5992  mul(pow, pow) */\n      dup1\n      mul\n        /* \"joe-v2-main/src/libraries/Math128x128.sol\":5974:5977  128 */\n      0x80\n        /* \"joe-v2-main/src/libraries/Math128x128.sol\":5970:5993  shr(128, mul(pow, pow)) */\n      shr\n        /* \"joe-v2-main/src/libraries/Math128x128.sol\":6023:6028  0x100 */\n      0x0100\n        /* \"joe-v2-main/src/libraries/Math128x128.sol\":6013:6029  and(absY, 0x100) */\n      dup3\n      and\n        /* \"joe-v2-main/src/libraries/Math128x128.sol\":6010:6106  if and(absY, 0x100) {... */\n      iszero\n      tag_282\n      jumpi\n        /* \"joe-v2-main/src/libraries/Math128x128.sol\":6071:6087  mul(result, pow) */\n      swap3\n      dup4\n      mul\n        /* \"joe-v2-main/src/libraries/Math128x128.sol\":6066:6069  128 */\n      0x80\n        /* \"joe-v2-main/src/libraries/Math128x128.sol\":6062:6088  shr(128, mul(result, pow)) */\n      shr\n      swap3\n        /* \"joe-v2-main/src/libraries/Math128x128.sol\":6010:6106  if and(absY, 0x100) {... */\n    tag_282:\n        /* \"joe-v2-main/src/libraries/Math128x128.sol\":6139:6152  mul(pow, pow) */\n      dup1\n      mul\n        /* \"joe-v2-main/src/libraries/Math128x128.sol\":6134:6137  128 */\n      0x80\n        /* \"joe-v2-main/src/libraries/Math128x128.sol\":6130:6153  shr(128, mul(pow, pow)) */\n      shr\n        /* \"joe-v2-main/src/libraries/Math128x128.sol\":6183:6188  0x200 */\n      0x0200\n        /* \"joe-v2-main/src/libraries/Math128x128.sol\":6173:6189  and(absY, 0x200) */\n      dup3\n      and\n        /* \"joe-v2-main/src/libraries/Math128x128.sol\":6170:6266  if and(absY, 0x200) {... */\n      iszero\n      tag_283\n      jumpi\n        /* \"joe-v2-main/src/libraries/Math128x128.sol\":6231:6247  mul(result, pow) */\n      swap3\n      dup4\n      mul\n        /* \"joe-v2-main/src/libraries/Math128x128.sol\":6226:6229  128 */\n      0x80\n        /* \"joe-v2-main/src/libraries/Math128x128.sol\":6222:6248  shr(128, mul(result, pow)) */\n      shr\n      swap3\n        /* \"joe-v2-main/src/libraries/Math128x128.sol\":6170:6266  if and(absY, 0x200) {... */\n    tag_283:\n        /* \"joe-v2-main/src/libraries/Math128x128.sol\":6299:6312  mul(pow, pow) */\n      dup1\n      mul\n        /* \"joe-v2-main/src/libraries/Math128x128.sol\":6294:6297  128 */\n      0x80\n        /* \"joe-v2-main/src/libraries/Math128x128.sol\":6290:6313  shr(128, mul(pow, pow)) */\n      shr\n        /* \"joe-v2-main/src/libraries/Math128x128.sol\":6343:6348  0x400 */\n      0x0400\n        /* \"joe-v2-main/src/libraries/Math128x128.sol\":6333:6349  and(absY, 0x400) */\n      dup3\n      and\n        /* \"joe-v2-main/src/libraries/Math128x128.sol\":6330:6426  if and(absY, 0x400) {... */\n      iszero\n      tag_284\n      jumpi\n        /* \"joe-v2-main/src/libraries/Math128x128.sol\":6391:6407  mul(result, pow) */\n      swap3\n      dup4\n      mul\n        /* \"joe-v2-main/src/libraries/Math128x128.sol\":6386:6389  128 */\n      0x80\n        /* \"joe-v2-main/src/libraries/Math128x128.sol\":6382:6408  shr(128, mul(result, pow)) */\n      shr\n      swap3\n        /* \"joe-v2-main/src/libraries/Math128x128.sol\":6330:6426  if and(absY, 0x400) {... */\n    tag_284:\n        /* \"joe-v2-main/src/libraries/Math128x128.sol\":6459:6472  mul(pow, pow) */\n      dup1\n      mul\n        /* \"joe-v2-main/src/libraries/Math128x128.sol\":6454:6457  128 */\n      0x80\n        /* \"joe-v2-main/src/libraries/Math128x128.sol\":6450:6473  shr(128, mul(pow, pow)) */\n      shr\n        /* \"joe-v2-main/src/libraries/Math128x128.sol\":6503:6508  0x800 */\n      0x0800\n        /* \"joe-v2-main/src/libraries/Math128x128.sol\":6493:6509  and(absY, 0x800) */\n      dup3\n      and\n        /* \"joe-v2-main/src/libraries/Math128x128.sol\":6490:6586  if and(absY, 0x800) {... */\n      iszero\n      tag_285\n      jumpi\n        /* \"joe-v2-main/src/libraries/Math128x128.sol\":6551:6567  mul(result, pow) */\n      swap3\n      dup4\n      mul\n        /* \"joe-v2-main/src/libraries/Math128x128.sol\":6546:6549  128 */\n      0x80\n        /* \"joe-v2-main/src/libraries/Math128x128.sol\":6542:6568  shr(128, mul(result, pow)) */\n      shr\n      swap3\n        /* \"joe-v2-main/src/libraries/Math128x128.sol\":6490:6586  if and(absY, 0x800) {... */\n    tag_285:\n        /* \"joe-v2-main/src/libraries/Math128x128.sol\":6619:6632  mul(pow, pow) */\n      dup1\n      mul\n        /* \"joe-v2-main/src/libraries/Math128x128.sol\":6614:6617  128 */\n      0x80\n        /* \"joe-v2-main/src/libraries/Math128x128.sol\":6610:6633  shr(128, mul(pow, pow)) */\n      shr\n        /* \"joe-v2-main/src/libraries/Math128x128.sol\":6663:6669  0x1000 */\n      0x1000\n        /* \"joe-v2-main/src/libraries/Math128x128.sol\":6653:6670  and(absY, 0x1000) */\n      dup3\n      and\n        /* \"joe-v2-main/src/libraries/Math128x128.sol\":6650:6747  if and(absY, 0x1000) {... */\n      iszero\n      tag_286\n      jumpi\n        /* \"joe-v2-main/src/libraries/Math128x128.sol\":6712:6728  mul(result, pow) */\n      swap3\n      dup4\n      mul\n        /* \"joe-v2-main/src/libraries/Math128x128.sol\":6707:6710  128 */\n      0x80\n        /* \"joe-v2-main/src/libraries/Math128x128.sol\":6703:6729  shr(128, mul(result, pow)) */\n      shr\n      swap3\n        /* \"joe-v2-main/src/libraries/Math128x128.sol\":6650:6747  if and(absY, 0x1000) {... */\n    tag_286:\n        /* \"joe-v2-main/src/libraries/Math128x128.sol\":6780:6793  mul(pow, pow) */\n      dup1\n      mul\n        /* \"joe-v2-main/src/libraries/Math128x128.sol\":6775:6778  128 */\n      0x80\n        /* \"joe-v2-main/src/libraries/Math128x128.sol\":6771:6794  shr(128, mul(pow, pow)) */\n      shr\n        /* \"joe-v2-main/src/libraries/Math128x128.sol\":6824:6830  0x2000 */\n      0x2000\n        /* \"joe-v2-main/src/libraries/Math128x128.sol\":6814:6831  and(absY, 0x2000) */\n      dup3\n      and\n        /* \"joe-v2-main/src/libraries/Math128x128.sol\":6811:6908  if and(absY, 0x2000) {... */\n      iszero\n      tag_287\n      jumpi\n        /* \"joe-v2-main/src/libraries/Math128x128.sol\":6873:6889  mul(result, pow) */\n      swap3\n      dup4\n      mul\n        /* \"joe-v2-main/src/libraries/Math128x128.sol\":6868:6871  128 */\n      0x80\n        /* \"joe-v2-main/src/libraries/Math128x128.sol\":6864:6890  shr(128, mul(result, pow)) */\n      shr\n      swap3\n        /* \"joe-v2-main/src/libraries/Math128x128.sol\":6811:6908  if and(absY, 0x2000) {... */\n    tag_287:\n        /* \"joe-v2-main/src/libraries/Math128x128.sol\":6941:6954  mul(pow, pow) */\n      dup1\n      mul\n        /* \"joe-v2-main/src/libraries/Math128x128.sol\":6936:6939  128 */\n      0x80\n        /* \"joe-v2-main/src/libraries/Math128x128.sol\":6932:6955  shr(128, mul(pow, pow)) */\n      shr\n        /* \"joe-v2-main/src/libraries/Math128x128.sol\":6985:6991  0x4000 */\n      0x4000\n        /* \"joe-v2-main/src/libraries/Math128x128.sol\":6975:6992  and(absY, 0x4000) */\n      dup3\n      and\n        /* \"joe-v2-main/src/libraries/Math128x128.sol\":6972:7069  if and(absY, 0x4000) {... */\n      iszero\n      tag_288\n      jumpi\n        /* \"joe-v2-main/src/libraries/Math128x128.sol\":7034:7050  mul(result, pow) */\n      swap3\n      dup4\n      mul\n        /* \"joe-v2-main/src/libraries/Math128x128.sol\":7029:7032  128 */\n      0x80\n        /* \"joe-v2-main/src/libraries/Math128x128.sol\":7025:7051  shr(128, mul(result, pow)) */\n      shr\n      swap3\n        /* \"joe-v2-main/src/libraries/Math128x128.sol\":6972:7069  if and(absY, 0x4000) {... */\n    tag_288:\n        /* \"joe-v2-main/src/libraries/Math128x128.sol\":7102:7115  mul(pow, pow) */\n      dup1\n      mul\n        /* \"joe-v2-main/src/libraries/Math128x128.sol\":7097:7100  128 */\n      0x80\n        /* \"joe-v2-main/src/libraries/Math128x128.sol\":7093:7116  shr(128, mul(pow, pow)) */\n      shr\n        /* \"joe-v2-main/src/libraries/Math128x128.sol\":7146:7152  0x8000 */\n      0x8000\n        /* \"joe-v2-main/src/libraries/Math128x128.sol\":7136:7153  and(absY, 0x8000) */\n      dup3\n      and\n        /* \"joe-v2-main/src/libraries/Math128x128.sol\":7133:7230  if and(absY, 0x8000) {... */\n      iszero\n      tag_289\n      jumpi\n        /* \"joe-v2-main/src/libraries/Math128x128.sol\":7195:7211  mul(result, pow) */\n      swap3\n      dup4\n      mul\n        /* \"joe-v2-main/src/libraries/Math128x128.sol\":7190:7193  128 */\n      0x80\n        /* \"joe-v2-main/src/libraries/Math128x128.sol\":7186:7212  shr(128, mul(result, pow)) */\n      shr\n      swap3\n        /* \"joe-v2-main/src/libraries/Math128x128.sol\":7133:7230  if and(absY, 0x8000) {... */\n    tag_289:\n        /* \"joe-v2-main/src/libraries/Math128x128.sol\":7263:7276  mul(pow, pow) */\n      dup1\n      mul\n        /* \"joe-v2-main/src/libraries/Math128x128.sol\":7258:7261  128 */\n      0x80\n        /* \"joe-v2-main/src/libraries/Math128x128.sol\":7254:7277  shr(128, mul(pow, pow)) */\n      shr\n        /* \"joe-v2-main/src/libraries/Math128x128.sol\":7307:7314  0x10000 */\n      0x010000\n        /* \"joe-v2-main/src/libraries/Math128x128.sol\":7297:7315  and(absY, 0x10000) */\n      dup3\n      and\n        /* \"joe-v2-main/src/libraries/Math128x128.sol\":7294:7392  if and(absY, 0x10000) {... */\n      iszero\n      tag_290\n      jumpi\n        /* \"joe-v2-main/src/libraries/Math128x128.sol\":7357:7373  mul(result, pow) */\n      swap3\n      dup4\n      mul\n        /* \"joe-v2-main/src/libraries/Math128x128.sol\":7352:7355  128 */\n      0x80\n        /* \"joe-v2-main/src/libraries/Math128x128.sol\":7348:7374  shr(128, mul(result, pow)) */\n      shr\n      swap3\n        /* \"joe-v2-main/src/libraries/Math128x128.sol\":7294:7392  if and(absY, 0x10000) {... */\n    tag_290:\n        /* \"joe-v2-main/src/libraries/Math128x128.sol\":7425:7438  mul(pow, pow) */\n      dup1\n      mul\n        /* \"joe-v2-main/src/libraries/Math128x128.sol\":7420:7423  128 */\n      0x80\n        /* \"joe-v2-main/src/libraries/Math128x128.sol\":7416:7439  shr(128, mul(pow, pow)) */\n      shr\n        /* \"joe-v2-main/src/libraries/Math128x128.sol\":7469:7476  0x20000 */\n      0x020000\n        /* \"joe-v2-main/src/libraries/Math128x128.sol\":7459:7477  and(absY, 0x20000) */\n      dup3\n      and\n        /* \"joe-v2-main/src/libraries/Math128x128.sol\":7456:7554  if and(absY, 0x20000) {... */\n      iszero\n      tag_291\n      jumpi\n        /* \"joe-v2-main/src/libraries/Math128x128.sol\":7519:7535  mul(result, pow) */\n      swap3\n      dup4\n      mul\n        /* \"joe-v2-main/src/libraries/Math128x128.sol\":7514:7517  128 */\n      0x80\n        /* \"joe-v2-main/src/libraries/Math128x128.sol\":7510:7536  shr(128, mul(result, pow)) */\n      shr\n      swap3\n        /* \"joe-v2-main/src/libraries/Math128x128.sol\":7456:7554  if and(absY, 0x20000) {... */\n    tag_291:\n        /* \"joe-v2-main/src/libraries/Math128x128.sol\":7587:7600  mul(pow, pow) */\n      dup1\n      mul\n        /* \"joe-v2-main/src/libraries/Math128x128.sol\":7582:7585  128 */\n      0x80\n        /* \"joe-v2-main/src/libraries/Math128x128.sol\":7578:7601  shr(128, mul(pow, pow)) */\n      shr\n        /* \"joe-v2-main/src/libraries/Math128x128.sol\":7631:7638  0x40000 */\n      0x040000\n        /* \"joe-v2-main/src/libraries/Math128x128.sol\":7621:7639  and(absY, 0x40000) */\n      dup3\n      and\n        /* \"joe-v2-main/src/libraries/Math128x128.sol\":7618:7716  if and(absY, 0x40000) {... */\n      iszero\n      tag_292\n      jumpi\n        /* \"joe-v2-main/src/libraries/Math128x128.sol\":7681:7697  mul(result, pow) */\n      swap3\n      dup4\n      mul\n        /* \"joe-v2-main/src/libraries/Math128x128.sol\":7676:7679  128 */\n      0x80\n        /* \"joe-v2-main/src/libraries/Math128x128.sol\":7672:7698  shr(128, mul(result, pow)) */\n      shr\n      swap3\n        /* \"joe-v2-main/src/libraries/Math128x128.sol\":7618:7716  if and(absY, 0x40000) {... */\n    tag_292:\n        /* \"joe-v2-main/src/libraries/Math128x128.sol\":7749:7762  mul(pow, pow) */\n      dup1\n      mul\n        /* \"joe-v2-main/src/libraries/Math128x128.sol\":7744:7747  128 */\n      0x80\n        /* \"joe-v2-main/src/libraries/Math128x128.sol\":7740:7763  shr(128, mul(pow, pow)) */\n      shr\n        /* \"joe-v2-main/src/libraries/Math128x128.sol\":7793:7800  0x80000 */\n      0x080000\n        /* \"joe-v2-main/src/libraries/Math128x128.sol\":7783:7801  and(absY, 0x80000) */\n      dup3\n      and\n        /* \"joe-v2-main/src/libraries/Math128x128.sol\":7780:7878  if and(absY, 0x80000) {... */\n      iszero\n      tag_293\n      jumpi\n        /* \"joe-v2-main/src/libraries/Math128x128.sol\":7843:7859  mul(result, pow) */\n      swap3\n      dup4\n      mul\n        /* \"joe-v2-main/src/libraries/Math128x128.sol\":7838:7841  128 */\n      0x80\n        /* \"joe-v2-main/src/libraries/Math128x128.sol\":7834:7860  shr(128, mul(result, pow)) */\n      shr\n      swap3\n        /* \"joe-v2-main/src/libraries/Math128x128.sol\":7780:7878  if and(absY, 0x80000) {... */\n    tag_293:\n      pop\n        /* \"joe-v2-main/src/libraries/Math128x128.sol\":4442:7902  if (absY < 0x100000) {... */\n    tag_272:\n        /* \"joe-v2-main/src/libraries/Math128x128.sol\":7972:7983  result == 0 */\n      dup3\n        /* \"joe-v2-main/src/libraries/Math128x128.sol\":7968:8025  if (result == 0) revert Math128x128__PowerUnderflow(x, y) */\n      tag_294\n      jumpi\n        /* \"joe-v2-main/src/libraries/Math128x128.sol\":7992:8025  Math128x128__PowerUnderflow(x, y) */\n      mload(0x40)\n      0x74e3eb0800000000000000000000000000000000000000000000000000000000\n      dup2\n      mstore\n      0x04\n      dup2\n      add\n        /* \"#utility.yul\":6879:6904   */\n      dup7\n      swap1\n      mstore\n        /* \"#utility.yul\":6920:6938   */\n      0x24\n      dup2\n      add\n        /* \"#utility.yul\":6913:6947   */\n      dup6\n      swap1\n      mstore\n        /* \"#utility.yul\":6852:6870   */\n      0x44\n      add\n        /* \"joe-v2-main/src/libraries/Math128x128.sol\":7992:8025  Math128x128__PowerUnderflow(x, y) */\n      tag_120\n        /* \"#utility.yul\":6707:6953   */\n      jump\n        /* \"joe-v2-main/src/libraries/Math128x128.sol\":7968:8025  if (result == 0) revert Math128x128__PowerUnderflow(x, y) */\n    tag_294:\n        /* \"joe-v2-main/src/libraries/Math128x128.sol\":8043:8049  invert */\n      dup2\n        /* \"joe-v2-main/src/libraries/Math128x128.sol\":8043:8087  invert ? type(uint256).max / result : result */\n      tag_297\n      jumpi\n        /* \"joe-v2-main/src/libraries/Math128x128.sol\":8081:8087  result */\n      dup3\n        /* \"joe-v2-main/src/libraries/Math128x128.sol\":8043:8087  invert ? type(uint256).max / result : result */\n      jump(tag_299)\n    tag_297:\n        /* \"joe-v2-main/src/libraries/Math128x128.sol\":8052:8078  type(uint256).max / result */\n      tag_299\n        /* \"joe-v2-main/src/libraries/Math128x128.sol\":8072:8078  result */\n      dup4\n      not(0x00)\n        /* \"joe-v2-main/src/libraries/Math128x128.sol\":8052:8078  type(uint256).max / result */\n      tag_300\n      jump\t// in\n    tag_299:\n        /* \"joe-v2-main/src/libraries/Math128x128.sol\":8036:8087  return invert ? type(uint256).max / result : result */\n      swap6\n        /* \"joe-v2-main/src/libraries/Math128x128.sol\":4094:8094  function power(uint256 x, int256 y) internal pure returns (uint256 result) {... */\n      swap5\n      pop\n      pop\n      pop\n      pop\n      pop\n      jump\t// out\n        /* \"@openzeppelin/contracts/utils/structs/EnumerableSet.sol\":2206:2610  function _add(Set storage set, bytes32 value) private returns (bool) {... */\n    tag_244:\n        /* \"@openzeppelin/contracts/utils/structs/EnumerableSet.sol\":2269:2273  bool */\n      0x00\n        /* \"@openzeppelin/contracts/utils/structs/EnumerableSet.sol\":4343:4362  set._indexes[value] */\n      dup2\n      dup2\n      mstore\n        /* \"@openzeppelin/contracts/utils/structs/EnumerableSet.sol\":4343:4355  set._indexes */\n      0x01\n      dup4\n      add\n        /* \"@openzeppelin/contracts/utils/structs/EnumerableSet.sol\":4343:4362  set._indexes[value] */\n      0x20\n      mstore\n      0x40\n      dup2\n      keccak256\n      sload\n        /* \"@openzeppelin/contracts/utils/structs/EnumerableSet.sol\":2285:2604  if (!_contains(set, value)) {... */\n      tag_303\n      jumpi\n      pop\n        /* \"@openzeppelin/contracts/utils/structs/EnumerableSet.sol\":2327:2350  set._values.push(value) */\n      dup2\n      sload\n      0x01\n      dup2\n      dup2\n      add\n      dup5\n      sstore\n        /* \"@openzeppelin/contracts/utils/structs/EnumerableSet.sol\":2327:2338  set._values */\n      0x00\n        /* \"@openzeppelin/contracts/utils/structs/EnumerableSet.sol\":2327:2350  set._values.push(value) */\n      dup5\n      dup2\n      mstore\n      0x20\n      dup1\n      dup3\n      keccak256\n      swap1\n      swap4\n      add\n      dup5\n      swap1\n      sstore\n        /* \"@openzeppelin/contracts/utils/structs/EnumerableSet.sol\":2507:2525  set._values.length */\n      dup5\n      sload\n        /* \"@openzeppelin/contracts/utils/structs/EnumerableSet.sol\":2485:2504  set._indexes[value] */\n      dup5\n      dup3\n      mstore\n        /* \"@openzeppelin/contracts/utils/structs/EnumerableSet.sol\":2485:2497  set._indexes */\n      dup3\n      dup7\n      add\n        /* \"@openzeppelin/contracts/utils/structs/EnumerableSet.sol\":2485:2504  set._indexes[value] */\n      swap1\n      swap4\n      mstore\n      0x40\n      swap1\n      keccak256\n        /* \"@openzeppelin/contracts/utils/structs/EnumerableSet.sol\":2485:2525  set._indexes[value] = set._values.length */\n      swap2\n      swap1\n      swap2\n      sstore\n        /* \"@openzeppelin/contracts/utils/structs/EnumerableSet.sol\":2539:2550  return true */\n      jump(tag_156)\n        /* \"@openzeppelin/contracts/utils/structs/EnumerableSet.sol\":2285:2604  if (!_contains(set, value)) {... */\n    tag_303:\n      pop\n        /* \"@openzeppelin/contracts/utils/structs/EnumerableSet.sol\":2588:2593  false */\n      0x00\n        /* \"@openzeppelin/contracts/utils/structs/EnumerableSet.sol\":2581:2593  return false */\n      jump(tag_156)\n        /* \"@openzeppelin/contracts/utils/structs/EnumerableSet.sol\":2778:4166  function _remove(Set storage set, bytes32 value) private returns (bool) {... */\n    tag_252:\n        /* \"@openzeppelin/contracts/utils/structs/EnumerableSet.sol\":2844:2848  bool */\n      0x00\n        /* \"@openzeppelin/contracts/utils/structs/EnumerableSet.sol\":2981:3000  set._indexes[value] */\n      dup2\n      dup2\n      mstore\n        /* \"@openzeppelin/contracts/utils/structs/EnumerableSet.sol\":2981:2993  set._indexes */\n      0x01\n      dup4\n      add\n        /* \"@openzeppelin/contracts/utils/structs/EnumerableSet.sol\":2981:3000  set._indexes[value] */\n      0x20\n      mstore\n      0x40\n      dup2\n      keccak256\n      sload\n        /* \"@openzeppelin/contracts/utils/structs/EnumerableSet.sol\":3015:3030  valueIndex != 0 */\n      dup1\n      iszero\n        /* \"@openzeppelin/contracts/utils/structs/EnumerableSet.sol\":3011:4160  if (valueIndex != 0) {... */\n      tag_308\n      jumpi\n        /* \"@openzeppelin/contracts/utils/structs/EnumerableSet.sol\":3384:3405  uint256 toDeleteIndex */\n      0x00\n        /* \"@openzeppelin/contracts/utils/structs/EnumerableSet.sol\":3408:3422  valueIndex - 1 */\n      tag_309\n        /* \"@openzeppelin/contracts/utils/structs/EnumerableSet.sol\":3421:3422  1 */\n      0x01\n        /* \"@openzeppelin/contracts/utils/structs/EnumerableSet.sol\":3408:3418  valueIndex */\n      dup4\n        /* \"@openzeppelin/contracts/utils/structs/EnumerableSet.sol\":3408:3422  valueIndex - 1 */\n      tag_147\n      jump\t// in\n    tag_309:\n        /* \"@openzeppelin/contracts/utils/structs/EnumerableSet.sol\":3456:3474  set._values.length */\n      dup6\n      sload\n        /* \"@openzeppelin/contracts/utils/structs/EnumerableSet.sol\":3384:3422  uint256 toDeleteIndex = valueIndex - 1 */\n      swap1\n      swap2\n      pop\n        /* \"@openzeppelin/contracts/utils/structs/EnumerableSet.sol\":3436:3453  uint256 lastIndex */\n      0x00\n      swap1\n        /* \"@openzeppelin/contracts/utils/structs/EnumerableSet.sol\":3456:3478  set._values.length - 1 */\n      tag_310\n      swap1\n        /* \"@openzeppelin/contracts/utils/structs/EnumerableSet.sol\":3477:3478  1 */\n      0x01\n      swap1\n        /* \"@openzeppelin/contracts/utils/structs/EnumerableSet.sol\":3456:3478  set._values.length - 1 */\n      tag_147\n      jump\t// in\n    tag_310:\n        /* \"@openzeppelin/contracts/utils/structs/EnumerableSet.sol\":3436:3478  uint256 lastIndex = set._values.length - 1 */\n      swap1\n      pop\n        /* \"@openzeppelin/contracts/utils/structs/EnumerableSet.sol\":3510:3523  toDeleteIndex */\n      dup2\n        /* \"@openzeppelin/contracts/utils/structs/EnumerableSet.sol\":3497:3506  lastIndex */\n      dup2\n        /* \"@openzeppelin/contracts/utils/structs/EnumerableSet.sol\":3497:3523  lastIndex != toDeleteIndex */\n      eq\n        /* \"@openzeppelin/contracts/utils/structs/EnumerableSet.sol\":3493:3891  if (lastIndex != toDeleteIndex) {... */\n      tag_311\n      jumpi\n        /* \"@openzeppelin/contracts/utils/structs/EnumerableSet.sol\":3543:3560  bytes32 lastValue */\n      0x00\n        /* \"@openzeppelin/contracts/utils/structs/EnumerableSet.sol\":3563:3566  set */\n      dup7\n        /* \"@openzeppelin/contracts/utils/structs/EnumerableSet.sol\":3563:3574  set._values */\n      0x00\n      add\n        /* \"@openzeppelin/contracts/utils/structs/EnumerableSet.sol\":3575:3584  lastIndex */\n      dup3\n        /* \"@openzeppelin/contracts/utils/structs/EnumerableSet.sol\":3563:3585  set._values[lastIndex] */\n      dup2\n      sload\n      dup2\n      lt\n      tag_313\n      jumpi\n      tag_313\n      tag_314\n      jump\t// in\n    tag_313:\n      swap1\n      0x00\n      mstore\n      keccak256(0x00, 0x20)\n      add\n      sload\n        /* \"@openzeppelin/contracts/utils/structs/EnumerableSet.sol\":3543:3585  bytes32 lastValue = set._values[lastIndex] */\n      swap1\n      pop\n        /* \"@openzeppelin/contracts/utils/structs/EnumerableSet.sol\":3714:3723  lastValue */\n      dup1\n        /* \"@openzeppelin/contracts/utils/structs/EnumerableSet.sol\":3685:3688  set */\n      dup8\n        /* \"@openzeppelin/contracts/utils/structs/EnumerableSet.sol\":3685:3696  set._values */\n      0x00\n      add\n        /* \"@openzeppelin/contracts/utils/structs/EnumerableSet.sol\":3697:3710  toDeleteIndex */\n      dup5\n        /* \"@openzeppelin/contracts/utils/structs/EnumerableSet.sol\":3685:3711  set._values[toDeleteIndex] */\n      dup2\n      sload\n      dup2\n      lt\n      tag_317\n      jumpi\n      tag_317\n      tag_314\n      jump\t// in\n    tag_317:\n      0x00\n      swap2\n      dup3\n      mstore\n      0x20\n      dup1\n      dup4\n      keccak256\n      swap1\n      swap2\n      add\n        /* \"@openzeppelin/contracts/utils/structs/EnumerableSet.sol\":3685:3723  set._values[toDeleteIndex] = lastValue */\n      swap3\n      swap1\n      swap3\n      sstore\n        /* \"@openzeppelin/contracts/utils/structs/EnumerableSet.sol\":3797:3820  set._indexes[lastValue] */\n      swap2\n      dup3\n      mstore\n        /* \"@openzeppelin/contracts/utils/structs/EnumerableSet.sol\":3797:3809  set._indexes */\n      0x01\n      dup9\n      add\n        /* \"@openzeppelin/contracts/utils/structs/EnumerableSet.sol\":3797:3820  set._indexes[lastValue] */\n      swap1\n      mstore\n      0x40\n      swap1\n      keccak256\n        /* \"@openzeppelin/contracts/utils/structs/EnumerableSet.sol\":3797:3833  set._indexes[lastValue] = valueIndex */\n      dup4\n      swap1\n      sstore\n        /* \"@openzeppelin/contracts/utils/structs/EnumerableSet.sol\":3493:3891  if (lastIndex != toDeleteIndex) {... */\n    tag_311:\n        /* \"@openzeppelin/contracts/utils/structs/EnumerableSet.sol\":3969:3986  set._values.pop() */\n      dup6\n      sload\n        /* \"@openzeppelin/contracts/utils/structs/EnumerableSet.sol\":3969:3972  set */\n      dup7\n      swap1\n        /* \"@openzeppelin/contracts/utils/structs/EnumerableSet.sol\":3969:3986  set._values.pop() */\n      dup1\n      tag_320\n      jumpi\n      tag_320\n      tag_321\n      jump\t// in\n    tag_320:\n      0x01\n      swap1\n      sub\n      dup2\n      dup2\n      swap1\n      0x00\n      mstore\n      keccak256(0x00, 0x20)\n      add\n      0x00\n      swap1\n      sstore\n      swap1\n      sstore\n        /* \"@openzeppelin/contracts/utils/structs/EnumerableSet.sol\":4061:4064  set */\n      dup6\n        /* \"@openzeppelin/contracts/utils/structs/EnumerableSet.sol\":4061:4073  set._indexes */\n      0x01\n      add\n        /* \"@openzeppelin/contracts/utils/structs/EnumerableSet.sol\":4061:4080  set._indexes[value] */\n      0x00\n        /* \"@openzeppelin/contracts/utils/structs/EnumerableSet.sol\":4074:4079  value */\n      dup7\n        /* \"@openzeppelin/contracts/utils/structs/EnumerableSet.sol\":4061:4080  set._indexes[value] */\n      dup2\n      mstore\n      0x20\n      add\n      swap1\n      dup2\n      mstore\n      0x20\n      add\n      0x00\n      keccak256\n        /* \"@openzeppelin/contracts/utils/structs/EnumerableSet.sol\":4054:4080  delete set._indexes[value] */\n      0x00\n      swap1\n      sstore\n        /* \"@openzeppelin/contracts/utils/structs/EnumerableSet.sol\":4102:4106  true */\n      0x01\n        /* \"@openzeppelin/contracts/utils/structs/EnumerableSet.sol\":4095:4106  return true */\n      swap4\n      pop\n      pop\n      pop\n      pop\n      jump(tag_156)\n        /* \"@openzeppelin/contracts/utils/structs/EnumerableSet.sol\":3011:4160  if (valueIndex != 0) {... */\n    tag_308:\n        /* \"@openzeppelin/contracts/utils/structs/EnumerableSet.sol\":4144:4149  false */\n      0x00\n        /* \"@openzeppelin/contracts/utils/structs/EnumerableSet.sol\":4137:4149  return false */\n      swap2\n      pop\n      pop\n      jump(tag_156)\n        /* \"@openzeppelin/contracts/utils/structs/EnumerableSet.sol\":4904:5022  function _at(Set storage set, uint256 index) private view returns (bytes32) {... */\n    tag_263:\n        /* \"@openzeppelin/contracts/utils/structs/EnumerableSet.sol\":4971:4978  bytes32 */\n      0x00\n        /* \"@openzeppelin/contracts/utils/structs/EnumerableSet.sol\":4997:5000  set */\n      dup3\n        /* \"@openzeppelin/contracts/utils/structs/EnumerableSet.sol\":4997:5008  set._values */\n      0x00\n      add\n        /* \"@openzeppelin/contracts/utils/structs/EnumerableSet.sol\":5009:5014  index */\n      dup3\n        /* \"@openzeppelin/contracts/utils/structs/EnumerableSet.sol\":4997:5015  set._values[index] */\n      dup2\n      sload\n      dup2\n      lt\n      tag_326\n      jumpi\n      tag_326\n      tag_314\n      jump\t// in\n    tag_326:\n      swap1\n      0x00\n      mstore\n      keccak256(0x00, 0x20)\n      add\n      sload\n        /* \"@openzeppelin/contracts/utils/structs/EnumerableSet.sol\":4990:5015  return set._values[index] */\n      swap1\n      pop\n        /* \"@openzeppelin/contracts/utils/structs/EnumerableSet.sol\":4904:5022  function _at(Set storage set, uint256 index) private view returns (bytes32) {... */\n      swap3\n      swap2\n      pop\n      pop\n      jump\t// out\n        /* \"#utility.yul\":14:176   */\n    tag_328:\n      sub(shl(0xa0, 0x01), 0x01)\n        /* \"#utility.yul\":101:106   */\n      dup2\n        /* \"#utility.yul\":97:151   */\n      and\n        /* \"#utility.yul\":90:95   */\n      dup2\n        /* \"#utility.yul\":87:152   */\n      eq\n        /* \"#utility.yul\":77:170   */\n      tag_200\n      jumpi\n        /* \"#utility.yul\":166:167   */\n      0x00\n        /* \"#utility.yul\":163:164   */\n      dup1\n        /* \"#utility.yul\":156:168   */\n      revert\n        /* \"#utility.yul\":181:783   */\n    tag_35:\n        /* \"#utility.yul\":285:291   */\n      0x00\n        /* \"#utility.yul\":293:299   */\n      dup1\n        /* \"#utility.yul\":301:307   */\n      0x00\n        /* \"#utility.yul\":354:356   */\n      0x60\n        /* \"#utility.yul\":342:351   */\n      dup5\n        /* \"#utility.yul\":333:340   */\n      dup7\n        /* \"#utility.yul\":329:352   */\n      sub\n        /* \"#utility.yul\":325:357   */\n      slt\n        /* \"#utility.yul\":322:374   */\n      iszero\n      tag_333\n      jumpi\n        /* \"#utility.yul\":370:371   */\n      0x00\n        /* \"#utility.yul\":367:368   */\n      dup1\n        /* \"#utility.yul\":360:372   */\n      revert\n        /* \"#utility.yul\":322:374   */\n    tag_333:\n        /* \"#utility.yul\":409:418   */\n      dup4\n        /* \"#utility.yul\":396:419   */\n      calldataload\n        /* \"#utility.yul\":428:467   */\n      tag_334\n        /* \"#utility.yul\":461:466   */\n      dup2\n        /* \"#utility.yul\":428:467   */\n      tag_328\n      jump\t// in\n    tag_334:\n        /* \"#utility.yul\":486:491   */\n      swap3\n      pop\n        /* \"#utility.yul\":543:545   */\n      0x20\n        /* \"#utility.yul\":528:546   */\n      dup5\n      add\n        /* \"#utility.yul\":515:547   */\n      calldataload\n        /* \"#utility.yul\":556:597   */\n      tag_335\n        /* \"#utility.yul\":515:547   */\n      dup2\n        /* \"#utility.yul\":556:597   */\n      tag_328\n      jump\t// in\n    tag_335:\n        /* \"#utility.yul\":616:623   */\n      swap2\n      pop\n        /* \"#utility.yul\":675:677   */\n      0x40\n        /* \"#utility.yul\":660:678   */\n      dup5\n      add\n        /* \"#utility.yul\":647:679   */\n      calldataload\n        /* \"#utility.yul\":723:731   */\n      0xffffff\n        /* \"#utility.yul\":710:732   */\n      dup2\n      and\n        /* \"#utility.yul\":698:733   */\n      dup2\n      eq\n        /* \"#utility.yul\":688:751   */\n      tag_336\n      jumpi\n        /* \"#utility.yul\":747:748   */\n      0x00\n        /* \"#utility.yul\":744:745   */\n      dup1\n        /* \"#utility.yul\":737:749   */\n      revert\n        /* \"#utility.yul\":688:751   */\n    tag_336:\n        /* \"#utility.yul\":770:777   */\n      dup1\n        /* \"#utility.yul\":760:777   */\n      swap2\n      pop\n      pop\n        /* \"#utility.yul\":181:783   */\n      swap3\n      pop\n      swap3\n      pop\n      swap3\n      jump\t// out\n        /* \"#utility.yul\":1035:1308   */\n    tag_41:\n        /* \"#utility.yul\":1091:1097   */\n      0x00\n        /* \"#utility.yul\":1144:1146   */\n      0x20\n        /* \"#utility.yul\":1132:1141   */\n      dup3\n        /* \"#utility.yul\":1123:1130   */\n      dup5\n        /* \"#utility.yul\":1119:1142   */\n      sub\n        /* \"#utility.yul\":1115:1147   */\n      slt\n        /* \"#utility.yul\":1112:1164   */\n      iszero\n      tag_339\n      jumpi\n        /* \"#utility.yul\":1160:1161   */\n      0x00\n        /* \"#utility.yul\":1157:1158   */\n      dup1\n        /* \"#utility.yul\":1150:1162   */\n      revert\n        /* \"#utility.yul\":1112:1164   */\n    tag_339:\n        /* \"#utility.yul\":1199:1208   */\n      dup2\n        /* \"#utility.yul\":1186:1209   */\n      calldataload\n        /* \"#utility.yul\":1252:1257   */\n      dup1\n        /* \"#utility.yul\":1245:1258   */\n      iszero\n        /* \"#utility.yul\":1238:1259   */\n      iszero\n        /* \"#utility.yul\":1231:1236   */\n      dup2\n        /* \"#utility.yul\":1228:1260   */\n      eq\n        /* \"#utility.yul\":1218:1278   */\n      tag_217\n      jumpi\n        /* \"#utility.yul\":1274:1275   */\n      0x00\n        /* \"#utility.yul\":1271:1272   */\n      dup1\n        /* \"#utility.yul\":1264:1276   */\n      revert\n        /* \"#utility.yul\":1313:1582   */\n    tag_45:\n        /* \"#utility.yul\":1386:1392   */\n      0x00\n        /* \"#utility.yul\":1439:1441   */\n      0x20\n        /* \"#utility.yul\":1427:1436   */\n      dup3\n        /* \"#utility.yul\":1418:1425   */\n      dup5\n        /* \"#utility.yul\":1414:1437   */\n      sub\n        /* \"#utility.yul\":1410:1442   */\n      slt\n        /* \"#utility.yul\":1407:1459   */\n      iszero\n      tag_342\n      jumpi\n        /* \"#utility.yul\":1455:1456   */\n      0x00\n        /* \"#utility.yul\":1452:1453   */\n      dup1\n        /* \"#utility.yul\":1445:1457   */\n      revert\n        /* \"#utility.yul\":1407:1459   */\n    tag_342:\n        /* \"#utility.yul\":1494:1503   */\n      dup2\n        /* \"#utility.yul\":1481:1504   */\n      calldataload\n        /* \"#utility.yul\":1513:1552   */\n      tag_217\n        /* \"#utility.yul\":1546:1551   */\n      dup2\n        /* \"#utility.yul\":1513:1552   */\n      tag_328\n      jump\t// in\n        /* \"#utility.yul\":2192:2372   */\n    tag_75:\n        /* \"#utility.yul\":2251:2257   */\n      0x00\n        /* \"#utility.yul\":2304:2306   */\n      0x20\n        /* \"#utility.yul\":2292:2301   */\n      dup3\n        /* \"#utility.yul\":2283:2290   */\n      dup5\n        /* \"#utility.yul\":2279:2302   */\n      sub\n        /* \"#utility.yul\":2275:2307   */\n      slt\n        /* \"#utility.yul\":2272:2324   */\n      iszero\n      tag_348\n      jumpi\n        /* \"#utility.yul\":2320:2321   */\n      0x00\n        /* \"#utility.yul\":2317:2318   */\n      dup1\n        /* \"#utility.yul\":2310:2322   */\n      revert\n        /* \"#utility.yul\":2272:2324   */\n    tag_348:\n      pop\n        /* \"#utility.yul\":2343:2366   */\n      calldataload\n      swap2\n        /* \"#utility.yul\":2192:2372   */\n      swap1\n      pop\n      jump\t// out\n        /* \"#utility.yul\":2637:3069   */\n    tag_105:\n        /* \"#utility.yul\":2733:2739   */\n      0x00\n        /* \"#utility.yul\":2741:2747   */\n      dup1\n        /* \"#utility.yul\":2794:2796   */\n      0x40\n        /* \"#utility.yul\":2782:2791   */\n      dup4\n        /* \"#utility.yul\":2773:2780   */\n      dup6\n        /* \"#utility.yul\":2769:2792   */\n      sub\n        /* \"#utility.yul\":2765:2797   */\n      slt\n        /* \"#utility.yul\":2762:2814   */\n      iszero\n      tag_353\n      jumpi\n        /* \"#utility.yul\":2810:2811   */\n      0x00\n        /* \"#utility.yul\":2807:2808   */\n      dup1\n        /* \"#utility.yul\":2800:2812   */\n      revert\n        /* \"#utility.yul\":2762:2814   */\n    tag_353:\n        /* \"#utility.yul\":2849:2858   */\n      dup3\n        /* \"#utility.yul\":2836:2859   */\n      calldataload\n        /* \"#utility.yul\":2868:2907   */\n      tag_354\n        /* \"#utility.yul\":2901:2906   */\n      dup2\n        /* \"#utility.yul\":2868:2907   */\n      tag_328\n      jump\t// in\n    tag_354:\n        /* \"#utility.yul\":2926:2931   */\n      swap2\n      pop\n        /* \"#utility.yul\":2983:2985   */\n      0x20\n        /* \"#utility.yul\":2968:2986   */\n      dup4\n      add\n        /* \"#utility.yul\":2955:2987   */\n      calldataload\n        /* \"#utility.yul\":2996:3037   */\n      tag_355\n        /* \"#utility.yul\":2955:2987   */\n      dup2\n        /* \"#utility.yul\":2996:3037   */\n      tag_328\n      jump\t// in\n    tag_355:\n        /* \"#utility.yul\":3056:3063   */\n      dup1\n        /* \"#utility.yul\":3046:3063   */\n      swap2\n      pop\n      pop\n        /* \"#utility.yul\":2637:3069   */\n      swap3\n      pop\n      swap3\n      swap1\n      pop\n      jump\t// out\n        /* \"#utility.yul\":4949:5228   */\n    tag_147:\n        /* \"#utility.yul\":4989:4993   */\n      0x00\n        /* \"#utility.yul\":5017:5018   */\n      dup3\n        /* \"#utility.yul\":5014:5015   */\n      dup3\n        /* \"#utility.yul\":5011:5019   */\n      lt\n        /* \"#utility.yul\":5008:5196   */\n      iszero\n      tag_362\n      jumpi\n      shl(0xe0, 0x4e487b71)\n        /* \"#utility.yul\":5049:5050   */\n      0x00\n        /* \"#utility.yul\":5042:5130   */\n      mstore\n        /* \"#utility.yul\":5153:5157   */\n      0x11\n        /* \"#utility.yul\":5150:5151   */\n      0x04\n        /* \"#utility.yul\":5143:5158   */\n      mstore\n        /* \"#utility.yul\":5181:5185   */\n      0x24\n        /* \"#utility.yul\":5178:5179   */\n      0x00\n        /* \"#utility.yul\":5171:5186   */\n      revert\n        /* \"#utility.yul\":5008:5196   */\n    tag_362:\n      pop\n        /* \"#utility.yul\":5213:5222   */\n      sub\n      swap1\n        /* \"#utility.yul\":4949:5228   */\n      jump\t// out\n        /* \"#utility.yul\":5551:5829   */\n    tag_188:\n        /* \"#utility.yul\":5640:5646   */\n      0x00\n        /* \"#utility.yul\":5693:5695   */\n      0x20\n        /* \"#utility.yul\":5681:5690   */\n      dup3\n        /* \"#utility.yul\":5672:5679   */\n      dup5\n        /* \"#utility.yul\":5668:5691   */\n      sub\n        /* \"#utility.yul\":5664:5696   */\n      slt\n        /* \"#utility.yul\":5661:5713   */\n      iszero\n      tag_365\n      jumpi\n        /* \"#utility.yul\":5709:5710   */\n      0x00\n        /* \"#utility.yul\":5706:5707   */\n      dup1\n        /* \"#utility.yul\":5699:5711   */\n      revert\n        /* \"#utility.yul\":5661:5713   */\n    tag_365:\n        /* \"#utility.yul\":5741:5750   */\n      dup2\n        /* \"#utility.yul\":5735:5751   */\n      mload\n        /* \"#utility.yul\":5760:5799   */\n      tag_217\n        /* \"#utility.yul\":5793:5798   */\n      dup2\n        /* \"#utility.yul\":5760:5799   */\n      tag_328\n      jump\t// in\n        /* \"#utility.yul\":6958:7232   */\n    tag_300:\n        /* \"#utility.yul\":6998:6999   */\n      0x00\n        /* \"#utility.yul\":7024:7025   */\n      dup3\n        /* \"#utility.yul\":7014:7203   */\n      tag_372\n      jumpi\n      shl(0xe0, 0x4e487b71)\n        /* \"#utility.yul\":7056:7057   */\n      0x00\n        /* \"#utility.yul\":7049:7137   */\n      mstore\n        /* \"#utility.yul\":7160:7164   */\n      0x12\n        /* \"#utility.yul\":7157:7158   */\n      0x04\n        /* \"#utility.yul\":7150:7165   */\n      mstore\n        /* \"#utility.yul\":7188:7192   */\n      0x24\n        /* \"#utility.yul\":7185:7186   */\n      0x00\n        /* \"#utility.yul\":7178:7193   */\n      revert\n        /* \"#utility.yul\":7014:7203   */\n    tag_372:\n      pop\n        /* \"#utility.yul\":7217:7226   */\n      div\n      swap1\n        /* \"#utility.yul\":6958:7232   */\n      jump\t// out\n        /* \"#utility.yul\":7237:7421   */\n    tag_314:\n      shl(0xe0, 0x4e487b71)\n        /* \"#utility.yul\":7286:7287   */\n      0x00\n        /* \"#utility.yul\":7279:7367   */\n      mstore\n        /* \"#utility.yul\":7386:7390   */\n      0x32\n        /* \"#utility.yul\":7383:7384   */\n      0x04\n        /* \"#utility.yul\":7376:7391   */\n      mstore\n        /* \"#utility.yul\":7410:7414   */\n      0x24\n        /* \"#utility.yul\":7407:7408   */\n      0x00\n        /* \"#utility.yul\":7400:7415   */\n      revert\n        /* \"#utility.yul\":7426:7610   */\n    tag_321:\n      shl(0xe0, 0x4e487b71)\n        /* \"#utility.yul\":7475:7476   */\n      0x00\n        /* \"#utility.yul\":7468:7556   */\n      mstore\n        /* \"#utility.yul\":7575:7579   */\n      0x31\n        /* \"#utility.yul\":7572:7573   */\n      0x04\n        /* \"#utility.yul\":7565:7580   */\n      mstore\n        /* \"#utility.yul\":7599:7603   */\n      0x24\n        /* \"#utility.yul\":7596:7597   */\n      0x00\n        /* \"#utility.yul\":7589:7604   */\n      revert\n\n    auxdata: 0xa2646970667358221220f1ba58ea2026871bea689b9f7f7c0100b6684e25fd3198e01c522f6e3e9d71ff64736f6c634300080a0033\n}\n",
				"bytecode": {
					"linkReferences": {},
					"object": "60806040523480156200001157600080fd5b506040516200189138038062001891833981016040819052620000349162000173565b6200003f3362000051565b6200004a81620000ab565b50620001a5565b600080546001600160a01b038381166001600160a01b031980841682178555600180549091169055604051919092169283917f8be0079c531659141344cd1fd0a4f28419497f9722a3daafe3b4186f6b6457e09190a35050565b6001600160a01b038116620000d357604051632573cfb960e21b815260040160405180910390fd5b6003546001600160a01b039081169082168114156200011457604051634fcea97160e01b81526001600160a01b038316600482015260240160405180910390fd5b600380546001600160a01b0319166001600160a01b0384811691821790925560408051928416835260208301919091527f15d80a013f22151bc7246e3bc132e12828cde19de98870475e3fa70840152721910160405180910390a15050565b6000602082840312156200018657600080fd5b81516001600160a01b03811681146200019e57600080fd5b9392505050565b6116dc80620001b56000396000f3fe608060405234801561001057600080fd5b506004361061018d5760003560e01c806372e47b8c116100e3578063ddbfd9411161008c578063eaec42a411610066578063eaec42a41461030e578063f89a4cd514610347578063f9dca9891461035a57600080fd5b8063ddbfd941146102d7578063e30c3978146102ea578063e74b981b146102fb57600080fd5b8063b0384781116100bd578063b0384781146102a2578063bc063e1a146102b5578063c42069ec146102c457600080fd5b806372e47b8c1461027657806380c5061e146102895780638da5cb5b1461029157600080fd5b80634e937c3a116101455780635c779d6d1161011f5780635c779d6d1461025257806367ab8a4e14610266578063715018a61461026e57600080fd5b80634e937c3a14610224578063509ceb901461022c5780635a4409231461023f57600080fd5b8063277218421161017657806327721842146101d757806346904840146101fa5780634847cdc81461020d57600080fd5b806302e48ce21461019257806322f3fe14146101c2575b600080fd5b6101a56101a0366004611532565b610362565b6040516001600160a01b0390911681526020015b60405180910390f35b6101d56101d0366004611585565b610754565b005b6101ea6101e53660046115a7565b61083b565b60405190151581526020016101b9565b6003546101a5906001600160a01b031681565b61021660045481565b6040519081526020016101b9565b600554610216565b6002546101a5906001600160a01b031681565b6101d561024d3660046115a7565b61084e565b6003546101ea90600160a01b900460ff1681565b6101d56108fc565b6101d5610975565b6101a56102843660046115c4565b6109aa565b6102166109d4565b6000546001600160a01b03166101a5565b6101d56102b03660046115a7565b6109e5565b61021667016345785d8a000081565b6101d56102d23660046115a7565b610b7c565b6101d56102e53660046115a7565b610c36565b6001546001600160a01b03166101a5565b6101d56103093660046115a7565b610ccb565b61032161031c3660046115dd565b610cff565b6040805182516001600160a01b03168152602092830151151592810192909252016101b9565b6101a56103553660046115c4565b610d24565b6101d5610d31565b6000806103776000546001600160a01b031690565b600354909150600160a01b900460ff1615801561039d5750336001600160a01b03821614155b156103db576040517f3a43e9800000000000000000000000000000000000000000000000000000000081523360048201526024015b60405180910390fd5b6002546001600160a01b03168061041e576040517fa2d3f3e400000000000000000000000000000000000000000000000000000000815260040160405180910390fd5b610429600986610d89565b61045157604051638e888ef360e01b81526001600160a01b03861660048201526024016103d2565b846001600160a01b0316866001600160a01b031614156104a8576040517f2f9b18530000000000000000000000000000000000000000000000000000000081526001600160a01b03871660048201526024016103d2565b6104b68462ffffff16610dab565b506000806104c48888610e0c565b90925090506001600160a01b0382166104f057604051632573cfb960e21b815260040160405180910390fd5b6001600160a01b03828116600090815260066020908152604080832085851684529091529020541615610569576040517fcb27a4350000000000000000000000000000000000000000000000000000000081526001600160a01b03808a16600483015288166024820152600160448201526064016103d2565b604080516001600160a01b0384811660208084019190915290841682840152825180830384018152606090920190925280519101206105a88482610e35565b6040517f336c8d700000000000000000000000000000000000000000000000000000000081526001600160a01b038b811660048301528a8116602483015262ffffff8a1660448301529197509087169063336c8d7090606401600060405180830381600087803b15801561061b57600080fd5b505af115801561062f573d6000803e3d6000fd5b50506040805180820182526001600160a01b03808b16808352338b83161460208085019182528a84166000908152600682528681208b861682529091529485209351845491511515600160a01b027fffffffffffffffffffffff00000000000000000000000000000000000000000090921690841617179092556005805460018181018355948290527f036b6384b5eca791c62761152d0c79bb0604c104a5fb6f4eb0703f3154bb3db00180546001600160a01b03191690931790925590548c82169450908d1692507f612fdd9b533d1ca33088dcbca9ad3186eeadc9893e63715b8a783040d729cd6a918a916107269190611616565b604080516001600160a01b03909316835260208301919091520160405180910390a350505050509392505050565b6000546001600160a01b0316331461077f57604051639f216c1360e01b815260040160405180910390fd5b60035460ff600160a01b909104161515811515146107c9576040517f0b6ef29400000000000000000000000000000000000000000000000000000000815260040160405180910390fd5b60038054600160a01b8315027fffffffffffffffffffffff00ffffffffffffffffffffffffffffffffffffffff9091161790556040517fcdee7bf87b7a743b4cbe1d2d534c5248621b76f58460337e7fda92d5d23f41249061083090831515815260200190565b60405180910390a150565b6000610848600983610d89565b92915050565b6000546001600160a01b0316331461087957604051639f216c1360e01b815260040160405180910390fd5b610884600982610eec565b6108c5576040517f03ce0ad90000000000000000000000000000000000000000000000000000000081526001600160a01b03821660048201526024016103d2565b6040516001600160a01b038216907f84cc2115995684dcb0cd3d3a9565e3d32f075de81db70c8dc3a719b2a47af67e90600090a250565b6000546001600160a01b0316331461092757604051639f216c1360e01b815260040160405180910390fd5b6001546001600160a01b0316610969576040517fecfad6bf00000000000000000000000000000000000000000000000000000000815260040160405180910390fd5b6109736000610f01565b565b6000546001600160a01b031633146109a057604051639f216c1360e01b815260040160405180910390fd5b6109736000610f4b565b600581815481106109ba57600080fd5b6000918252602090912001546001600160a01b0316905081565b60006109e06009610fa5565b905090565b6000546001600160a01b03163314610a1057604051639f216c1360e01b815260040160405180910390fd5b306001600160a01b0316816001600160a01b031663c45a01556040518163ffffffff1660e01b8152600401602060405180830381865afa158015610a58573d6000803e3d6000fd5b505050506040513d601f19601f82011682018060405250810190610a7c919061163b565b6001600160a01b031614610ac7576040517f147ce15e0000000000000000000000000000000000000000000000000000000081526001600160a01b03821660048201526024016103d2565b6002546001600160a01b03908116908216811415610b1c576040517f6f69dca80000000000000000000000000000000000000000000000000000000081526001600160a01b03831660048201526024016103d2565b600280546001600160a01b0319166001600160a01b0384811691821790925560408051928416835260208301919091527f900d0e3d359f50e4f923ecdc06b401e07dbb9f485e17b07bcfc91a13000b277e91015b60405180910390a15050565b6000546001600160a01b03163314610ba757604051639f216c1360e01b815260040160405180910390fd5b6001600160a01b038116610be7576040517f91f3851500000000000000000000000000000000000000000000000000000000815260040160405180910390fd5b6001546001600160a01b031615610c2a576040517f716b1fbf00000000000000000000000000000000000000000000000000000000815260040160405180910390fd5b610c3381610f01565b50565b6000546001600160a01b03163314610c6157604051639f216c1360e01b815260040160405180910390fd5b610c6c600982610faf565b610c9457604051638e888ef360e01b81526001600160a01b03821660048201526024016103d2565b6040516001600160a01b038216907f0b767739217755d8af5a2ba75b181a19fa1750f8bb701f09311cb19a90140cb390600090a250565b6000546001600160a01b03163314610cf657604051639f216c1360e01b815260040160405180910390fd5b610c3381610fc4565b6040805180820190915260008082526020820152610d1d8383611098565b9392505050565b6000610848600983611107565b6001546001600160a01b031633141580610d49575033155b15610d80576040517f7304d01200000000000000000000000000000000000000000000000000000000815260040160405180910390fd5b61097333610f4b565b6001600160a01b03811660009081526001830160205260408120541515610d1d565b600062ffffff821115610dea576040517f58f62eac00000000000000000000000000000000000000000000000000000000815260040160405180910390fd5b627fffff198201610d1d700100068db8bac710cb295e9e1b089a027582611113565b600080826001600160a01b0316846001600160a01b03161115610e2d579192915b509192909150565b6000763d602d80600a3d3981f3363d3d373d3d3d363d730000008360601b60e81c176000526e5af43d82803e903d91602b57fd5bf38360781b1760205281603760096000f590506001600160a01b038116610848576040517f08c379a000000000000000000000000000000000000000000000000000000000815260206004820152601760248201527f455243313136373a2063726561746532206661696c656400000000000000000060448201526064016103d2565b6000610d1d836001600160a01b0384166113b1565b600180546001600160a01b0319166001600160a01b0383169081179091556040517f68f49b346b94582a8b5f9d10e3fe3365318fe8f191ff8dce7c59c6cad06b02f590600090a250565b600080546001600160a01b038381166001600160a01b031980841682178555600180549091169055604051919092169283917f8be0079c531659141344cd1fd0a4f28419497f9722a3daafe3b4186f6b6457e09190a35050565b6000610848825490565b6000610d1d836001600160a01b038416611400565b6001600160a01b038116610feb57604051632573cfb960e21b815260040160405180910390fd5b6003546001600160a01b03908116908216811415611040576040517f4fcea9710000000000000000000000000000000000000000000000000000000081526001600160a01b03831660048201526024016103d2565b600380546001600160a01b0319166001600160a01b0384811691821790925560408051928416835260208301919091527f15d80a013f22151bc7246e3bc132e12828cde19de98870475e3fa708401527219101610b70565b60408051808201909152600080825260208201526110b68383610e0c565b6001600160a01b0391821660009081526006602090815260408083209385168352928152908290208251808401909352549283168252600160a01b90920460ff161515918101919091529392505050565b6000610d1d83836114f3565b6000808083611138575070010000000000000000000000000000000091506108489050565b5082600081121561114a579015906000035b62100000811015611350577001000000000000000000000000000000009250846fffffffffffffffffffffffffffffffff81111561118a57911591600019045b600182161561119b5792830260801c925b800260801c60028216156111b15792830260801c925b800260801c60048216156111c75792830260801c925b800260801c60088216156111dd5792830260801c925b800260801c60108216156111f35792830260801c925b800260801c60208216156112095792830260801c925b800260801c604082161561121f5792830260801c925b8002608090811c908216156112365792830260801c925b800260801c61010082161561124d5792830260801c925b800260801c6102008216156112645792830260801c925b800260801c61040082161561127b5792830260801c925b800260801c6108008216156112925792830260801c925b800260801c6110008216156112a95792830260801c925b800260801c6120008216156112c05792830260801c925b800260801c6140008216156112d75792830260801c925b800260801c6180008216156112ee5792830260801c925b800260801c620100008216156113065792830260801c925b800260801c6202000082161561131e5792830260801c925b800260801c620400008216156113365792830260801c925b800260801c6208000082161561134e5792830260801c925b505b82611391576040517f74e3eb0800000000000000000000000000000000000000000000000000000000815260048101869052602481018590526044016103d2565b8161139c57826113a8565b6113a883600019611658565b95945050505050565b60008181526001830160205260408120546113f857508154600181810184556000848152602080822090930184905584548482528286019093526040902091909155610848565b506000610848565b600081815260018301602052604081205480156114e9576000611424600183611616565b855490915060009061143890600190611616565b905081811461149d5760008660000182815481106114585761145861167a565b906000526020600020015490508087600001848154811061147b5761147b61167a565b6000918252602080832090910192909255918252600188019052604090208390555b85548690806114ae576114ae611690565b600190038181906000526020600020016000905590558560010160008681526020019081526020016000206000905560019350505050610848565b6000915050610848565b600082600001828154811061150a5761150a61167a565b9060005260206000200154905092915050565b6001600160a01b0381168114610c3357600080fd5b60008060006060848603121561154757600080fd5b83356115528161151d565b925060208401356115628161151d565b9150604084013562ffffff8116811461157a57600080fd5b809150509250925092565b60006020828403121561159757600080fd5b81358015158114610d1d57600080fd5b6000602082840312156115b957600080fd5b8135610d1d8161151d565b6000602082840312156115d657600080fd5b5035919050565b600080604083850312156115f057600080fd5b82356115fb8161151d565b9150602083013561160b8161151d565b809150509250929050565b60008282101561163657634e487b7160e01b600052601160045260246000fd5b500390565b60006020828403121561164d57600080fd5b8151610d1d8161151d565b60008261167557634e487b7160e01b600052601260045260246000fd5b500490565b634e487b7160e01b600052603260045260246000fd5b634e487b7160e01b600052603160045260246000fdfea2646970667358221220f1ba58ea2026871bea689b9f7f7c0100b6684e25fd3198e01c522f6e3e9d71ff64736f6c634300080a0033",
					"opcodes": "PUSH1 0x80 PUSH1 0x40 MSTORE CALLVALUE DUP1 ISZERO PUSH3 0x11 JUMPI PUSH1 0x0 DUP1 REVERT JUMPDEST POP PUSH1 0x40 MLOAD PUSH3 0x1891 CODESIZE SUB DUP1 PUSH3 0x1891 DUP4 CODECOPY DUP2 ADD PUSH1 0x40 DUP2 SWAP1 MSTORE PUSH3 0x34 SWAP2 PUSH3 0x173 JUMP JUMPDEST PUSH3 0x3F CALLER PUSH3 0x51 JUMP JUMPDEST PUSH3 0x4A DUP2 PUSH3 0xAB JUMP JUMPDEST POP PUSH3 0x1A5 JUMP JUMPDEST PUSH1 0x0 DUP1 SLOAD PUSH1 0x1 PUSH1 0x1 PUSH1 0xA0 SHL SUB DUP4 DUP2 AND PUSH1 0x1 PUSH1 0x1 PUSH1 0xA0 SHL SUB NOT DUP1 DUP5 AND DUP3 OR DUP6 SSTORE PUSH1 0x1 DUP1 SLOAD SWAP1 SWAP2 AND SWAP1 SSTORE PUSH1 0x40 MLOAD SWAP2 SWAP1 SWAP3 AND SWAP3 DUP4 SWAP2 PUSH32 0x8BE0079C531659141344CD1FD0A4F28419497F9722A3DAAFE3B4186F6B6457E0 SWAP2 SWAP1 LOG3 POP POP JUMP JUMPDEST PUSH1 0x1 PUSH1 0x1 PUSH1 0xA0 SHL SUB DUP2 AND PUSH3 0xD3 JUMPI PUSH1 0x40 MLOAD PUSH4 0x2573CFB9 PUSH1 0xE2 SHL DUP2 MSTORE PUSH1 0x4 ADD PUSH1 0x40 MLOAD DUP1 SWAP2 SUB SWAP1 REVERT JUMPDEST PUSH1 0x3 SLOAD PUSH1 0x1 PUSH1 0x1 PUSH1 0xA0 SHL SUB SWAP1 DUP2 AND SWAP1 DUP3 AND DUP2 EQ ISZERO PUSH3 0x114 JUMPI PUSH1 0x40 MLOAD PUSH4 0x4FCEA971 PUSH1 0xE0 SHL DUP2 MSTORE PUSH1 0x1 PUSH1 0x1 PUSH1 0xA0 SHL SUB DUP4 AND PUSH1 0x4 DUP3 ADD MSTORE PUSH1 0x24 ADD PUSH1 0x40 MLOAD DUP1 SWAP2 SUB SWAP1 REVERT JUMPDEST PUSH1 0x3 DUP1 SLOAD PUSH1 0x1 PUSH1 0x1 PUSH1 0xA0 SHL SUB NOT AND PUSH1 0x1 PUSH1 0x1 PUSH1 0xA0 SHL SUB DUP5 DUP2 AND SWAP2 DUP3 OR SWAP1 SWAP3 SSTORE PUSH1 0x40 DUP1 MLOAD SWAP3 DUP5 AND DUP4 MSTORE PUSH1 0x20 DUP4 ADD SWAP2 SWAP1 SWAP2 MSTORE PUSH32 0x15D80A013F22151BC7246E3BC132E12828CDE19DE98870475E3FA70840152721 SWAP2 ADD PUSH1 0x40 MLOAD DUP1 SWAP2 SUB SWAP1 LOG1 POP POP JUMP JUMPDEST PUSH1 0x0 PUSH1 0x20 DUP3 DUP5 SUB SLT ISZERO PUSH3 0x186 JUMPI PUSH1 0x0 DUP1 REVERT JUMPDEST DUP2 MLOAD PUSH1 0x1 PUSH1 0x1 PUSH1 0xA0 SHL SUB DUP2 AND DUP2 EQ PUSH3 0x19E JUMPI PUSH1 0x0 DUP1 REVERT JUMPDEST SWAP4 SWAP3 POP POP POP JUMP JUMPDEST PUSH2 0x16DC DUP1 PUSH3 0x1B5 PUSH1 0x0 CODECOPY PUSH1 0x0 RETURN INVALID PUSH1 0x80 PUSH1 0x40 MSTORE CALLVALUE DUP1 ISZERO PUSH2 0x10 JUMPI PUSH1 0x0 DUP1 REVERT JUMPDEST POP PUSH1 0x4 CALLDATASIZE LT PUSH2 0x18D JUMPI PUSH1 0x0 CALLDATALOAD PUSH1 0xE0 SHR DUP1 PUSH4 0x72E47B8C GT PUSH2 0xE3 JUMPI DUP1 PUSH4 0xDDBFD941 GT PUSH2 0x8C JUMPI DUP1 PUSH4 0xEAEC42A4 GT PUSH2 0x66 JUMPI DUP1 PUSH4 0xEAEC42A4 EQ PUSH2 0x30E JUMPI DUP1 PUSH4 0xF89A4CD5 EQ PUSH2 0x347 JUMPI DUP1 PUSH4 0xF9DCA989 EQ PUSH2 0x35A JUMPI PUSH1 0x0 DUP1 REVERT JUMPDEST DUP1 PUSH4 0xDDBFD941 EQ PUSH2 0x2D7 JUMPI DUP1 PUSH4 0xE30C3978 EQ PUSH2 0x2EA JUMPI DUP1 PUSH4 0xE74B981B EQ PUSH2 0x2FB JUMPI PUSH1 0x0 DUP1 REVERT JUMPDEST DUP1 PUSH4 0xB0384781 GT PUSH2 0xBD JUMPI DUP1 PUSH4 0xB0384781 EQ PUSH2 0x2A2 JUMPI DUP1 PUSH4 0xBC063E1A EQ PUSH2 0x2B5 JUMPI DUP1 PUSH4 0xC42069EC EQ PUSH2 0x2C4 JUMPI PUSH1 0x0 DUP1 REVERT JUMPDEST DUP1 PUSH4 0x72E47B8C EQ PUSH2 0x276 JUMPI DUP1 PUSH4 0x80C5061E EQ PUSH2 0x289 JUMPI DUP1 PUSH4 0x8DA5CB5B EQ PUSH2 0x291 JUMPI PUSH1 0x0 DUP1 REVERT JUMPDEST DUP1 PUSH4 0x4E937C3A GT PUSH2 0x145 JUMPI DUP1 PUSH4 0x5C779D6D GT PUSH2 0x11F JUMPI DUP1 PUSH4 0x5C779D6D EQ PUSH2 0x252 JUMPI DUP1 PUSH4 0x67AB8A4E EQ PUSH2 0x266 JUMPI DUP1 PUSH4 0x715018A6 EQ PUSH2 0x26E JUMPI PUSH1 0x0 DUP1 REVERT JUMPDEST DUP1 PUSH4 0x4E937C3A EQ PUSH2 0x224 JUMPI DUP1 PUSH4 0x509CEB90 EQ PUSH2 0x22C JUMPI DUP1 PUSH4 0x5A440923 EQ PUSH2 0x23F JUMPI PUSH1 0x0 DUP1 REVERT JUMPDEST DUP1 PUSH4 0x27721842 GT PUSH2 0x176 JUMPI DUP1 PUSH4 0x27721842 EQ PUSH2 0x1D7 JUMPI DUP1 PUSH4 0x46904840 EQ PUSH2 0x1FA JUMPI DUP1 PUSH4 0x4847CDC8 EQ PUSH2 0x20D JUMPI PUSH1 0x0 DUP1 REVERT JUMPDEST DUP1 PUSH4 0x2E48CE2 EQ PUSH2 0x192 JUMPI DUP1 PUSH4 0x22F3FE14 EQ PUSH2 0x1C2 JUMPI JUMPDEST PUSH1 0x0 DUP1 REVERT JUMPDEST PUSH2 0x1A5 PUSH2 0x1A0 CALLDATASIZE PUSH1 0x4 PUSH2 0x1532 JUMP JUMPDEST PUSH2 0x362 JUMP JUMPDEST PUSH1 0x40 MLOAD PUSH1 0x1 PUSH1 0x1 PUSH1 0xA0 SHL SUB SWAP1 SWAP2 AND DUP2 MSTORE PUSH1 0x20 ADD JUMPDEST PUSH1 0x40 MLOAD DUP1 SWAP2 SUB SWAP1 RETURN JUMPDEST PUSH2 0x1D5 PUSH2 0x1D0 CALLDATASIZE PUSH1 0x4 PUSH2 0x1585 JUMP JUMPDEST PUSH2 0x754 JUMP JUMPDEST STOP JUMPDEST PUSH2 0x1EA PUSH2 0x1E5 CALLDATASIZE PUSH1 0x4 PUSH2 0x15A7 JUMP JUMPDEST PUSH2 0x83B JUMP JUMPDEST PUSH1 0x40 MLOAD SWAP1 ISZERO ISZERO DUP2 MSTORE PUSH1 0x20 ADD PUSH2 0x1B9 JUMP JUMPDEST PUSH1 0x3 SLOAD PUSH2 0x1A5 SWAP1 PUSH1 0x1 PUSH1 0x1 PUSH1 0xA0 SHL SUB AND DUP2 JUMP JUMPDEST PUSH2 0x216 PUSH1 0x4 SLOAD DUP2 JUMP JUMPDEST PUSH1 0x40 MLOAD SWAP1 DUP2 MSTORE PUSH1 0x20 ADD PUSH2 0x1B9 JUMP JUMPDEST PUSH1 0x5 SLOAD PUSH2 0x216 JUMP JUMPDEST PUSH1 0x2 SLOAD PUSH2 0x1A5 SWAP1 PUSH1 0x1 PUSH1 0x1 PUSH1 0xA0 SHL SUB AND DUP2 JUMP JUMPDEST PUSH2 0x1D5 PUSH2 0x24D CALLDATASIZE PUSH1 0x4 PUSH2 0x15A7 JUMP JUMPDEST PUSH2 0x84E JUMP JUMPDEST PUSH1 0x3 SLOAD PUSH2 0x1EA SWAP1 PUSH1 0x1 PUSH1 0xA0 SHL SWAP1 DIV PUSH1 0xFF AND DUP2 JUMP JUMPDEST PUSH2 0x1D5 PUSH2 0x8FC JUMP JUMPDEST PUSH2 0x1D5 PUSH2 0x975 JUMP JUMPDEST PUSH2 0x1A5 PUSH2 0x284 CALLDATASIZE PUSH1 0x4 PUSH2 0x15C4 JUMP JUMPDEST PUSH2 0x9AA JUMP JUMPDEST PUSH2 0x216 PUSH2 0x9D4 JUMP JUMPDEST PUSH1 0x0 SLOAD PUSH1 0x1 PUSH1 0x1 PUSH1 0xA0 SHL SUB AND PUSH2 0x1A5 JUMP JUMPDEST PUSH2 0x1D5 PUSH2 0x2B0 CALLDATASIZE PUSH1 0x4 PUSH2 0x15A7 JUMP JUMPDEST PUSH2 0x9E5 JUMP JUMPDEST PUSH2 0x216 PUSH8 0x16345785D8A0000 DUP2 JUMP JUMPDEST PUSH2 0x1D5 PUSH2 0x2D2 CALLDATASIZE PUSH1 0x4 PUSH2 0x15A7 JUMP JUMPDEST PUSH2 0xB7C JUMP JUMPDEST PUSH2 0x1D5 PUSH2 0x2E5 CALLDATASIZE PUSH1 0x4 PUSH2 0x15A7 JUMP JUMPDEST PUSH2 0xC36 JUMP JUMPDEST PUSH1 0x1 SLOAD PUSH1 0x1 PUSH1 0x1 PUSH1 0xA0 SHL SUB AND PUSH2 0x1A5 JUMP JUMPDEST PUSH2 0x1D5 PUSH2 0x309 CALLDATASIZE PUSH1 0x4 PUSH2 0x15A7 JUMP JUMPDEST PUSH2 0xCCB JUMP JUMPDEST PUSH2 0x321 PUSH2 0x31C CALLDATASIZE PUSH1 0x4 PUSH2 0x15DD JUMP JUMPDEST PUSH2 0xCFF JUMP JUMPDEST PUSH1 0x40 DUP1 MLOAD DUP3 MLOAD PUSH1 0x1 PUSH1 0x1 PUSH1 0xA0 SHL SUB AND DUP2 MSTORE PUSH1 0x20 SWAP3 DUP4 ADD MLOAD ISZERO ISZERO SWAP3 DUP2 ADD SWAP3 SWAP1 SWAP3 MSTORE ADD PUSH2 0x1B9 JUMP JUMPDEST PUSH2 0x1A5 PUSH2 0x355 CALLDATASIZE PUSH1 0x4 PUSH2 0x15C4 JUMP JUMPDEST PUSH2 0xD24 JUMP JUMPDEST PUSH2 0x1D5 PUSH2 0xD31 JUMP JUMPDEST PUSH1 0x0 DUP1 PUSH2 0x377 PUSH1 0x0 SLOAD PUSH1 0x1 PUSH1 0x1 PUSH1 0xA0 SHL SUB AND SWAP1 JUMP JUMPDEST PUSH1 0x3 SLOAD SWAP1 SWAP2 POP PUSH1 0x1 PUSH1 0xA0 SHL SWAP1 DIV PUSH1 0xFF AND ISZERO DUP1 ISZERO PUSH2 0x39D JUMPI POP CALLER PUSH1 0x1 PUSH1 0x1 PUSH1 0xA0 SHL SUB DUP3 AND EQ ISZERO JUMPDEST ISZERO PUSH2 0x3DB JUMPI PUSH1 0x40 MLOAD PUSH32 0x3A43E98000000000000000000000000000000000000000000000000000000000 DUP2 MSTORE CALLER PUSH1 0x4 DUP3 ADD MSTORE PUSH1 0x24 ADD JUMPDEST PUSH1 0x40 MLOAD DUP1 SWAP2 SUB SWAP1 REVERT JUMPDEST PUSH1 0x2 SLOAD PUSH1 0x1 PUSH1 0x1 PUSH1 0xA0 SHL SUB AND DUP1 PUSH2 0x41E JUMPI PUSH1 0x40 MLOAD PUSH32 0xA2D3F3E400000000000000000000000000000000000000000000000000000000 DUP2 MSTORE PUSH1 0x4 ADD PUSH1 0x40 MLOAD DUP1 SWAP2 SUB SWAP1 REVERT JUMPDEST PUSH2 0x429 PUSH1 0x9 DUP7 PUSH2 0xD89 JUMP JUMPDEST PUSH2 0x451 JUMPI PUSH1 0x40 MLOAD PUSH4 0x8E888EF3 PUSH1 0xE0 SHL DUP2 MSTORE PUSH1 0x1 PUSH1 0x1 PUSH1 0xA0 SHL SUB DUP7 AND PUSH1 0x4 DUP3 ADD MSTORE PUSH1 0x24 ADD PUSH2 0x3D2 JUMP JUMPDEST DUP5 PUSH1 0x1 PUSH1 0x1 PUSH1 0xA0 SHL SUB AND DUP7 PUSH1 0x1 PUSH1 0x1 PUSH1 0xA0 SHL SUB AND EQ ISZERO PUSH2 0x4A8 JUMPI PUSH1 0x40 MLOAD PUSH32 0x2F9B185300000000000000000000000000000000000000000000000000000000 DUP2 MSTORE PUSH1 0x1 PUSH1 0x1 PUSH1 0xA0 SHL SUB DUP8 AND PUSH1 0x4 DUP3 ADD MSTORE PUSH1 0x24 ADD PUSH2 0x3D2 JUMP JUMPDEST PUSH2 0x4B6 DUP5 PUSH3 0xFFFFFF AND PUSH2 0xDAB JUMP JUMPDEST POP PUSH1 0x0 DUP1 PUSH2 0x4C4 DUP9 DUP9 PUSH2 0xE0C JUMP JUMPDEST SWAP1 SWAP3 POP SWAP1 POP PUSH1 0x1 PUSH1 0x1 PUSH1 0xA0 SHL SUB DUP3 AND PUSH2 0x4F0 JUMPI PUSH1 0x40 MLOAD PUSH4 0x2573CFB9 PUSH1 0xE2 SHL DUP2 MSTORE PUSH1 0x4 ADD PUSH1 0x40 MLOAD DUP1 SWAP2 SUB SWAP1 REVERT JUMPDEST PUSH1 0x1 PUSH1 0x1 PUSH1 0xA0 SHL SUB DUP3 DUP2 AND PUSH1 0x0 SWAP1 DUP2 MSTORE PUSH1 0x6 PUSH1 0x20 SWAP1 DUP2 MSTORE PUSH1 0x40 DUP1 DUP4 KECCAK256 DUP6 DUP6 AND DUP5 MSTORE SWAP1 SWAP2 MSTORE SWAP1 KECCAK256 SLOAD AND ISZERO PUSH2 0x569 JUMPI PUSH1 0x40 MLOAD PUSH32 0xCB27A43500000000000000000000000000000000000000000000000000000000 DUP2 MSTORE PUSH1 0x1 PUSH1 0x1 PUSH1 0xA0 SHL SUB DUP1 DUP11 AND PUSH1 0x4 DUP4 ADD MSTORE DUP9 AND PUSH1 0x24 DUP3 ADD MSTORE PUSH1 0x1 PUSH1 0x44 DUP3 ADD MSTORE PUSH1 0x64 ADD PUSH2 0x3D2 JUMP JUMPDEST PUSH1 0x40 DUP1 MLOAD PUSH1 0x1 PUSH1 0x1 PUSH1 0xA0 SHL SUB DUP5 DUP2 AND PUSH1 0x20 DUP1 DUP5 ADD SWAP2 SWAP1 SWAP2 MSTORE SWAP1 DUP5 AND DUP3 DUP5 ADD MSTORE DUP3 MLOAD DUP1 DUP4 SUB DUP5 ADD DUP2 MSTORE PUSH1 0x60 SWAP1 SWAP3 ADD SWAP1 SWAP3 MSTORE DUP1 MLOAD SWAP2 ADD KECCAK256 PUSH2 0x5A8 DUP5 DUP3 PUSH2 0xE35 JUMP JUMPDEST PUSH1 0x40 MLOAD PUSH32 0x336C8D7000000000000000000000000000000000000000000000000000000000 DUP2 MSTORE PUSH1 0x1 PUSH1 0x1 PUSH1 0xA0 SHL SUB DUP12 DUP2 AND PUSH1 0x4 DUP4 ADD MSTORE DUP11 DUP2 AND PUSH1 0x24 DUP4 ADD MSTORE PUSH3 0xFFFFFF DUP11 AND PUSH1 0x44 DUP4 ADD MSTORE SWAP2 SWAP8 POP SWAP1 DUP8 AND SWAP1 PUSH4 0x336C8D70 SWAP1 PUSH1 0x64 ADD PUSH1 0x0 PUSH1 0x40 MLOAD DUP1 DUP4 SUB DUP2 PUSH1 0x0 DUP8 DUP1 EXTCODESIZE ISZERO DUP1 ISZERO PUSH2 0x61B JUMPI PUSH1 0x0 DUP1 REVERT JUMPDEST POP GAS CALL ISZERO DUP1 ISZERO PUSH2 0x62F JUMPI RETURNDATASIZE PUSH1 0x0 DUP1 RETURNDATACOPY RETURNDATASIZE PUSH1 0x0 REVERT JUMPDEST POP POP PUSH1 0x40 DUP1 MLOAD DUP1 DUP3 ADD DUP3 MSTORE PUSH1 0x1 PUSH1 0x1 PUSH1 0xA0 SHL SUB DUP1 DUP12 AND DUP1 DUP4 MSTORE CALLER DUP12 DUP4 AND EQ PUSH1 0x20 DUP1 DUP6 ADD SWAP2 DUP3 MSTORE DUP11 DUP5 AND PUSH1 0x0 SWAP1 DUP2 MSTORE PUSH1 0x6 DUP3 MSTORE DUP7 DUP2 KECCAK256 DUP12 DUP7 AND DUP3 MSTORE SWAP1 SWAP2 MSTORE SWAP5 DUP6 KECCAK256 SWAP4 MLOAD DUP5 SLOAD SWAP2 MLOAD ISZERO ISZERO PUSH1 0x1 PUSH1 0xA0 SHL MUL PUSH32 0xFFFFFFFFFFFFFFFFFFFFFF000000000000000000000000000000000000000000 SWAP1 SWAP3 AND SWAP1 DUP5 AND OR OR SWAP1 SWAP3 SSTORE PUSH1 0x5 DUP1 SLOAD PUSH1 0x1 DUP2 DUP2 ADD DUP4 SSTORE SWAP5 DUP3 SWAP1 MSTORE PUSH32 0x36B6384B5ECA791C62761152D0C79BB0604C104A5FB6F4EB0703F3154BB3DB0 ADD DUP1 SLOAD PUSH1 0x1 PUSH1 0x1 PUSH1 0xA0 SHL SUB NOT AND SWAP1 SWAP4 OR SWAP1 SWAP3 SSTORE SWAP1 SLOAD DUP13 DUP3 AND SWAP5 POP SWAP1 DUP14 AND SWAP3 POP PUSH32 0x612FDD9B533D1CA33088DCBCA9AD3186EEADC9893E63715B8A783040D729CD6A SWAP2 DUP11 SWAP2 PUSH2 0x726 SWAP2 SWAP1 PUSH2 0x1616 JUMP JUMPDEST PUSH1 0x40 DUP1 MLOAD PUSH1 0x1 PUSH1 0x1 PUSH1 0xA0 SHL SUB SWAP1 SWAP4 AND DUP4 MSTORE PUSH1 0x20 DUP4 ADD SWAP2 SWAP1 SWAP2 MSTORE ADD PUSH1 0x40 MLOAD DUP1 SWAP2 SUB SWAP1 LOG3 POP POP POP POP POP SWAP4 SWAP3 POP POP POP JUMP JUMPDEST PUSH1 0x0 SLOAD PUSH1 0x1 PUSH1 0x1 PUSH1 0xA0 SHL SUB AND CALLER EQ PUSH2 0x77F JUMPI PUSH1 0x40 MLOAD PUSH4 0x9F216C13 PUSH1 0xE0 SHL DUP2 MSTORE PUSH1 0x4 ADD PUSH1 0x40 MLOAD DUP1 SWAP2 SUB SWAP1 REVERT JUMPDEST PUSH1 0x3 SLOAD PUSH1 0xFF PUSH1 0x1 PUSH1 0xA0 SHL SWAP1 SWAP2 DIV AND ISZERO ISZERO DUP2 ISZERO ISZERO EQ PUSH2 0x7C9 JUMPI PUSH1 0x40 MLOAD PUSH32 0xB6EF29400000000000000000000000000000000000000000000000000000000 DUP2 MSTORE PUSH1 0x4 ADD PUSH1 0x40 MLOAD DUP1 SWAP2 SUB SWAP1 REVERT JUMPDEST PUSH1 0x3 DUP1 SLOAD PUSH1 0x1 PUSH1 0xA0 SHL DUP4 ISZERO MUL PUSH32 0xFFFFFFFFFFFFFFFFFFFFFF00FFFFFFFFFFFFFFFFFFFFFFFFFFFFFFFFFFFFFFFF SWAP1 SWAP2 AND OR SWAP1 SSTORE PUSH1 0x40 MLOAD PUSH32 0xCDEE7BF87B7A743B4CBE1D2D534C5248621B76F58460337E7FDA92D5D23F4124 SWAP1 PUSH2 0x830 SWAP1 DUP4 ISZERO ISZERO DUP2 MSTORE PUSH1 0x20 ADD SWAP1 JUMP JUMPDEST PUSH1 0x40 MLOAD DUP1 SWAP2 SUB SWAP1 LOG1 POP JUMP JUMPDEST PUSH1 0x0 PUSH2 0x848 PUSH1 0x9 DUP4 PUSH2 0xD89 JUMP JUMPDEST SWAP3 SWAP2 POP POP JUMP JUMPDEST PUSH1 0x0 SLOAD PUSH1 0x1 PUSH1 0x1 PUSH1 0xA0 SHL SUB AND CALLER EQ PUSH2 0x879 JUMPI PUSH1 0x40 MLOAD PUSH4 0x9F216C13 PUSH1 0xE0 SHL DUP2 MSTORE PUSH1 0x4 ADD PUSH1 0x40 MLOAD DUP1 SWAP2 SUB SWAP1 REVERT JUMPDEST PUSH2 0x884 PUSH1 0x9 DUP3 PUSH2 0xEEC JUMP JUMPDEST PUSH2 0x8C5 JUMPI PUSH1 0x40 MLOAD PUSH32 0x3CE0AD900000000000000000000000000000000000000000000000000000000 DUP2 MSTORE PUSH1 0x1 PUSH1 0x1 PUSH1 0xA0 SHL SUB DUP3 AND PUSH1 0x4 DUP3 ADD MSTORE PUSH1 0x24 ADD PUSH2 0x3D2 JUMP JUMPDEST PUSH1 0x40 MLOAD PUSH1 0x1 PUSH1 0x1 PUSH1 0xA0 SHL SUB DUP3 AND SWAP1 PUSH32 0x84CC2115995684DCB0CD3D3A9565E3D32F075DE81DB70C8DC3A719B2A47AF67E SWAP1 PUSH1 0x0 SWAP1 LOG2 POP JUMP JUMPDEST PUSH1 0x0 SLOAD PUSH1 0x1 PUSH1 0x1 PUSH1 0xA0 SHL SUB AND CALLER EQ PUSH2 0x927 JUMPI PUSH1 0x40 MLOAD PUSH4 0x9F216C13 PUSH1 0xE0 SHL DUP2 MSTORE PUSH1 0x4 ADD PUSH1 0x40 MLOAD DUP1 SWAP2 SUB SWAP1 REVERT JUMPDEST PUSH1 0x1 SLOAD PUSH1 0x1 PUSH1 0x1 PUSH1 0xA0 SHL SUB AND PUSH2 0x969 JUMPI PUSH1 0x40 MLOAD PUSH32 0xECFAD6BF00000000000000000000000000000000000000000000000000000000 DUP2 MSTORE PUSH1 0x4 ADD PUSH1 0x40 MLOAD DUP1 SWAP2 SUB SWAP1 REVERT JUMPDEST PUSH2 0x973 PUSH1 0x0 PUSH2 0xF01 JUMP JUMPDEST JUMP JUMPDEST PUSH1 0x0 SLOAD PUSH1 0x1 PUSH1 0x1 PUSH1 0xA0 SHL SUB AND CALLER EQ PUSH2 0x9A0 JUMPI PUSH1 0x40 MLOAD PUSH4 0x9F216C13 PUSH1 0xE0 SHL DUP2 MSTORE PUSH1 0x4 ADD PUSH1 0x40 MLOAD DUP1 SWAP2 SUB SWAP1 REVERT JUMPDEST PUSH2 0x973 PUSH1 0x0 PUSH2 0xF4B JUMP JUMPDEST PUSH1 0x5 DUP2 DUP2 SLOAD DUP2 LT PUSH2 0x9BA JUMPI PUSH1 0x0 DUP1 REVERT JUMPDEST PUSH1 0x0 SWAP2 DUP3 MSTORE PUSH1 0x20 SWAP1 SWAP2 KECCAK256 ADD SLOAD PUSH1 0x1 PUSH1 0x1 PUSH1 0xA0 SHL SUB AND SWAP1 POP DUP2 JUMP JUMPDEST PUSH1 0x0 PUSH2 0x9E0 PUSH1 0x9 PUSH2 0xFA5 JUMP JUMPDEST SWAP1 POP SWAP1 JUMP JUMPDEST PUSH1 0x0 SLOAD PUSH1 0x1 PUSH1 0x1 PUSH1 0xA0 SHL SUB AND CALLER EQ PUSH2 0xA10 JUMPI PUSH1 0x40 MLOAD PUSH4 0x9F216C13 PUSH1 0xE0 SHL DUP2 MSTORE PUSH1 0x4 ADD PUSH1 0x40 MLOAD DUP1 SWAP2 SUB SWAP1 REVERT JUMPDEST ADDRESS PUSH1 0x1 PUSH1 0x1 PUSH1 0xA0 SHL SUB AND DUP2 PUSH1 0x1 PUSH1 0x1 PUSH1 0xA0 SHL SUB AND PUSH4 0xC45A0155 PUSH1 0x40 MLOAD DUP2 PUSH4 0xFFFFFFFF AND PUSH1 0xE0 SHL DUP2 MSTORE PUSH1 0x4 ADD PUSH1 0x20 PUSH1 0x40 MLOAD DUP1 DUP4 SUB DUP2 DUP7 GAS STATICCALL ISZERO DUP1 ISZERO PUSH2 0xA58 JUMPI RETURNDATASIZE PUSH1 0x0 DUP1 RETURNDATACOPY RETURNDATASIZE PUSH1 0x0 REVERT JUMPDEST POP POP POP POP PUSH1 0x40 MLOAD RETURNDATASIZE PUSH1 0x1F NOT PUSH1 0x1F DUP3 ADD AND DUP3 ADD DUP1 PUSH1 0x40 MSTORE POP DUP2 ADD SWAP1 PUSH2 0xA7C SWAP2 SWAP1 PUSH2 0x163B JUMP JUMPDEST PUSH1 0x1 PUSH1 0x1 PUSH1 0xA0 SHL SUB AND EQ PUSH2 0xAC7 JUMPI PUSH1 0x40 MLOAD PUSH32 0x147CE15E00000000000000000000000000000000000000000000000000000000 DUP2 MSTORE PUSH1 0x1 PUSH1 0x1 PUSH1 0xA0 SHL SUB DUP3 AND PUSH1 0x4 DUP3 ADD MSTORE PUSH1 0x24 ADD PUSH2 0x3D2 JUMP JUMPDEST PUSH1 0x2 SLOAD PUSH1 0x1 PUSH1 0x1 PUSH1 0xA0 SHL SUB SWAP1 DUP2 AND SWAP1 DUP3 AND DUP2 EQ ISZERO PUSH2 0xB1C JUMPI PUSH1 0x40 MLOAD PUSH32 0x6F69DCA800000000000000000000000000000000000000000000000000000000 DUP2 MSTORE PUSH1 0x1 PUSH1 0x1 PUSH1 0xA0 SHL SUB DUP4 AND PUSH1 0x4 DUP3 ADD MSTORE PUSH1 0x24 ADD PUSH2 0x3D2 JUMP JUMPDEST PUSH1 0x2 DUP1 SLOAD PUSH1 0x1 PUSH1 0x1 PUSH1 0xA0 SHL SUB NOT AND PUSH1 0x1 PUSH1 0x1 PUSH1 0xA0 SHL SUB DUP5 DUP2 AND SWAP2 DUP3 OR SWAP1 SWAP3 SSTORE PUSH1 0x40 DUP1 MLOAD SWAP3 DUP5 AND DUP4 MSTORE PUSH1 0x20 DUP4 ADD SWAP2 SWAP1 SWAP2 MSTORE PUSH32 0x900D0E3D359F50E4F923ECDC06B401E07DBB9F485E17B07BCFC91A13000B277E SWAP2 ADD JUMPDEST PUSH1 0x40 MLOAD DUP1 SWAP2 SUB SWAP1 LOG1 POP POP JUMP JUMPDEST PUSH1 0x0 SLOAD PUSH1 0x1 PUSH1 0x1 PUSH1 0xA0 SHL SUB AND CALLER EQ PUSH2 0xBA7 JUMPI PUSH1 0x40 MLOAD PUSH4 0x9F216C13 PUSH1 0xE0 SHL DUP2 MSTORE PUSH1 0x4 ADD PUSH1 0x40 MLOAD DUP1 SWAP2 SUB SWAP1 REVERT JUMPDEST PUSH1 0x1 PUSH1 0x1 PUSH1 0xA0 SHL SUB DUP2 AND PUSH2 0xBE7 JUMPI PUSH1 0x40 MLOAD PUSH32 0x91F3851500000000000000000000000000000000000000000000000000000000 DUP2 MSTORE PUSH1 0x4 ADD PUSH1 0x40 MLOAD DUP1 SWAP2 SUB SWAP1 REVERT JUMPDEST PUSH1 0x1 SLOAD PUSH1 0x1 PUSH1 0x1 PUSH1 0xA0 SHL SUB AND ISZERO PUSH2 0xC2A JUMPI PUSH1 0x40 MLOAD PUSH32 0x716B1FBF00000000000000000000000000000000000000000000000000000000 DUP2 MSTORE PUSH1 0x4 ADD PUSH1 0x40 MLOAD DUP1 SWAP2 SUB SWAP1 REVERT JUMPDEST PUSH2 0xC33 DUP2 PUSH2 0xF01 JUMP JUMPDEST POP JUMP JUMPDEST PUSH1 0x0 SLOAD PUSH1 0x1 PUSH1 0x1 PUSH1 0xA0 SHL SUB AND CALLER EQ PUSH2 0xC61 JUMPI PUSH1 0x40 MLOAD PUSH4 0x9F216C13 PUSH1 0xE0 SHL DUP2 MSTORE PUSH1 0x4 ADD PUSH1 0x40 MLOAD DUP1 SWAP2 SUB SWAP1 REVERT JUMPDEST PUSH2 0xC6C PUSH1 0x9 DUP3 PUSH2 0xFAF JUMP JUMPDEST PUSH2 0xC94 JUMPI PUSH1 0x40 MLOAD PUSH4 0x8E888EF3 PUSH1 0xE0 SHL DUP2 MSTORE PUSH1 0x1 PUSH1 0x1 PUSH1 0xA0 SHL SUB DUP3 AND PUSH1 0x4 DUP3 ADD MSTORE PUSH1 0x24 ADD PUSH2 0x3D2 JUMP JUMPDEST PUSH1 0x40 MLOAD PUSH1 0x1 PUSH1 0x1 PUSH1 0xA0 SHL SUB DUP3 AND SWAP1 PUSH32 0xB767739217755D8AF5A2BA75B181A19FA1750F8BB701F09311CB19A90140CB3 SWAP1 PUSH1 0x0 SWAP1 LOG2 POP JUMP JUMPDEST PUSH1 0x0 SLOAD PUSH1 0x1 PUSH1 0x1 PUSH1 0xA0 SHL SUB AND CALLER EQ PUSH2 0xCF6 JUMPI PUSH1 0x40 MLOAD PUSH4 0x9F216C13 PUSH1 0xE0 SHL DUP2 MSTORE PUSH1 0x4 ADD PUSH1 0x40 MLOAD DUP1 SWAP2 SUB SWAP1 REVERT JUMPDEST PUSH2 0xC33 DUP2 PUSH2 0xFC4 JUMP JUMPDEST PUSH1 0x40 DUP1 MLOAD DUP1 DUP3 ADD SWAP1 SWAP2 MSTORE PUSH1 0x0 DUP1 DUP3 MSTORE PUSH1 0x20 DUP3 ADD MSTORE PUSH2 0xD1D DUP4 DUP4 PUSH2 0x1098 JUMP JUMPDEST SWAP4 SWAP3 POP POP POP JUMP JUMPDEST PUSH1 0x0 PUSH2 0x848 PUSH1 0x9 DUP4 PUSH2 0x1107 JUMP JUMPDEST PUSH1 0x1 SLOAD PUSH1 0x1 PUSH1 0x1 PUSH1 0xA0 SHL SUB AND CALLER EQ ISZERO DUP1 PUSH2 0xD49 JUMPI POP CALLER ISZERO JUMPDEST ISZERO PUSH2 0xD80 JUMPI PUSH1 0x40 MLOAD PUSH32 0x7304D01200000000000000000000000000000000000000000000000000000000 DUP2 MSTORE PUSH1 0x4 ADD PUSH1 0x40 MLOAD DUP1 SWAP2 SUB SWAP1 REVERT JUMPDEST PUSH2 0x973 CALLER PUSH2 0xF4B JUMP JUMPDEST PUSH1 0x1 PUSH1 0x1 PUSH1 0xA0 SHL SUB DUP2 AND PUSH1 0x0 SWAP1 DUP2 MSTORE PUSH1 0x1 DUP4 ADD PUSH1 0x20 MSTORE PUSH1 0x40 DUP2 KECCAK256 SLOAD ISZERO ISZERO PUSH2 0xD1D JUMP JUMPDEST PUSH1 0x0 PUSH3 0xFFFFFF DUP3 GT ISZERO PUSH2 0xDEA JUMPI PUSH1 0x40 MLOAD PUSH32 0x58F62EAC00000000000000000000000000000000000000000000000000000000 DUP2 MSTORE PUSH1 0x4 ADD PUSH1 0x40 MLOAD DUP1 SWAP2 SUB SWAP1 REVERT JUMPDEST PUSH3 0x7FFFFF NOT DUP3 ADD PUSH2 0xD1D PUSH17 0x100068DB8BAC710CB295E9E1B089A0275 DUP3 PUSH2 0x1113 JUMP JUMPDEST PUSH1 0x0 DUP1 DUP3 PUSH1 0x1 PUSH1 0x1 PUSH1 0xA0 SHL SUB AND DUP5 PUSH1 0x1 PUSH1 0x1 PUSH1 0xA0 SHL SUB AND GT ISZERO PUSH2 0xE2D JUMPI SWAP2 SWAP3 SWAP2 JUMPDEST POP SWAP2 SWAP3 SWAP1 SWAP2 POP JUMP JUMPDEST PUSH1 0x0 PUSH23 0x3D602D80600A3D3981F3363D3D373D3D3D363D73000000 DUP4 PUSH1 0x60 SHL PUSH1 0xE8 SHR OR PUSH1 0x0 MSTORE PUSH15 0x5AF43D82803E903D91602B57FD5BF3 DUP4 PUSH1 0x78 SHL OR PUSH1 0x20 MSTORE DUP2 PUSH1 0x37 PUSH1 0x9 PUSH1 0x0 CREATE2 SWAP1 POP PUSH1 0x1 PUSH1 0x1 PUSH1 0xA0 SHL SUB DUP2 AND PUSH2 0x848 JUMPI PUSH1 0x40 MLOAD PUSH32 0x8C379A000000000000000000000000000000000000000000000000000000000 DUP2 MSTORE PUSH1 0x20 PUSH1 0x4 DUP3 ADD MSTORE PUSH1 0x17 PUSH1 0x24 DUP3 ADD MSTORE PUSH32 0x455243313136373A2063726561746532206661696C6564000000000000000000 PUSH1 0x44 DUP3 ADD MSTORE PUSH1 0x64 ADD PUSH2 0x3D2 JUMP JUMPDEST PUSH1 0x0 PUSH2 0xD1D DUP4 PUSH1 0x1 PUSH1 0x1 PUSH1 0xA0 SHL SUB DUP5 AND PUSH2 0x13B1 JUMP JUMPDEST PUSH1 0x1 DUP1 SLOAD PUSH1 0x1 PUSH1 0x1 PUSH1 0xA0 SHL SUB NOT AND PUSH1 0x1 PUSH1 0x1 PUSH1 0xA0 SHL SUB DUP4 AND SWAP1 DUP2 OR SWAP1 SWAP2 SSTORE PUSH1 0x40 MLOAD PUSH32 0x68F49B346B94582A8B5F9D10E3FE3365318FE8F191FF8DCE7C59C6CAD06B02F5 SWAP1 PUSH1 0x0 SWAP1 LOG2 POP JUMP JUMPDEST PUSH1 0x0 DUP1 SLOAD PUSH1 0x1 PUSH1 0x1 PUSH1 0xA0 SHL SUB DUP4 DUP2 AND PUSH1 0x1 PUSH1 0x1 PUSH1 0xA0 SHL SUB NOT DUP1 DUP5 AND DUP3 OR DUP6 SSTORE PUSH1 0x1 DUP1 SLOAD SWAP1 SWAP2 AND SWAP1 SSTORE PUSH1 0x40 MLOAD SWAP2 SWAP1 SWAP3 AND SWAP3 DUP4 SWAP2 PUSH32 0x8BE0079C531659141344CD1FD0A4F28419497F9722A3DAAFE3B4186F6B6457E0 SWAP2 SWAP1 LOG3 POP POP JUMP JUMPDEST PUSH1 0x0 PUSH2 0x848 DUP3 SLOAD SWAP1 JUMP JUMPDEST PUSH1 0x0 PUSH2 0xD1D DUP4 PUSH1 0x1 PUSH1 0x1 PUSH1 0xA0 SHL SUB DUP5 AND PUSH2 0x1400 JUMP JUMPDEST PUSH1 0x1 PUSH1 0x1 PUSH1 0xA0 SHL SUB DUP2 AND PUSH2 0xFEB JUMPI PUSH1 0x40 MLOAD PUSH4 0x2573CFB9 PUSH1 0xE2 SHL DUP2 MSTORE PUSH1 0x4 ADD PUSH1 0x40 MLOAD DUP1 SWAP2 SUB SWAP1 REVERT JUMPDEST PUSH1 0x3 SLOAD PUSH1 0x1 PUSH1 0x1 PUSH1 0xA0 SHL SUB SWAP1 DUP2 AND SWAP1 DUP3 AND DUP2 EQ ISZERO PUSH2 0x1040 JUMPI PUSH1 0x40 MLOAD PUSH32 0x4FCEA97100000000000000000000000000000000000000000000000000000000 DUP2 MSTORE PUSH1 0x1 PUSH1 0x1 PUSH1 0xA0 SHL SUB DUP4 AND PUSH1 0x4 DUP3 ADD MSTORE PUSH1 0x24 ADD PUSH2 0x3D2 JUMP JUMPDEST PUSH1 0x3 DUP1 SLOAD PUSH1 0x1 PUSH1 0x1 PUSH1 0xA0 SHL SUB NOT AND PUSH1 0x1 PUSH1 0x1 PUSH1 0xA0 SHL SUB DUP5 DUP2 AND SWAP2 DUP3 OR SWAP1 SWAP3 SSTORE PUSH1 0x40 DUP1 MLOAD SWAP3 DUP5 AND DUP4 MSTORE PUSH1 0x20 DUP4 ADD SWAP2 SWAP1 SWAP2 MSTORE PUSH32 0x15D80A013F22151BC7246E3BC132E12828CDE19DE98870475E3FA70840152721 SWAP2 ADD PUSH2 0xB70 JUMP JUMPDEST PUSH1 0x40 DUP1 MLOAD DUP1 DUP3 ADD SWAP1 SWAP2 MSTORE PUSH1 0x0 DUP1 DUP3 MSTORE PUSH1 0x20 DUP3 ADD MSTORE PUSH2 0x10B6 DUP4 DUP4 PUSH2 0xE0C JUMP JUMPDEST PUSH1 0x1 PUSH1 0x1 PUSH1 0xA0 SHL SUB SWAP2 DUP3 AND PUSH1 0x0 SWAP1 DUP2 MSTORE PUSH1 0x6 PUSH1 0x20 SWAP1 DUP2 MSTORE PUSH1 0x40 DUP1 DUP4 KECCAK256 SWAP4 DUP6 AND DUP4 MSTORE SWAP3 DUP2 MSTORE SWAP1 DUP3 SWAP1 KECCAK256 DUP3 MLOAD DUP1 DUP5 ADD SWAP1 SWAP4 MSTORE SLOAD SWAP3 DUP4 AND DUP3 MSTORE PUSH1 0x1 PUSH1 0xA0 SHL SWAP1 SWAP3 DIV PUSH1 0xFF AND ISZERO ISZERO SWAP2 DUP2 ADD SWAP2 SWAP1 SWAP2 MSTORE SWAP4 SWAP3 POP POP POP JUMP JUMPDEST PUSH1 0x0 PUSH2 0xD1D DUP4 DUP4 PUSH2 0x14F3 JUMP JUMPDEST PUSH1 0x0 DUP1 DUP1 DUP4 PUSH2 0x1138 JUMPI POP PUSH17 0x100000000000000000000000000000000 SWAP2 POP PUSH2 0x848 SWAP1 POP JUMP JUMPDEST POP DUP3 PUSH1 0x0 DUP2 SLT ISZERO PUSH2 0x114A JUMPI SWAP1 ISZERO SWAP1 PUSH1 0x0 SUB JUMPDEST PUSH3 0x100000 DUP2 LT ISZERO PUSH2 0x1350 JUMPI PUSH17 0x100000000000000000000000000000000 SWAP3 POP DUP5 PUSH16 0xFFFFFFFFFFFFFFFFFFFFFFFFFFFFFFFF DUP2 GT ISZERO PUSH2 0x118A JUMPI SWAP2 ISZERO SWAP2 PUSH1 0x0 NOT DIV JUMPDEST PUSH1 0x1 DUP3 AND ISZERO PUSH2 0x119B JUMPI SWAP3 DUP4 MUL PUSH1 0x80 SHR SWAP3 JUMPDEST DUP1 MUL PUSH1 0x80 SHR PUSH1 0x2 DUP3 AND ISZERO PUSH2 0x11B1 JUMPI SWAP3 DUP4 MUL PUSH1 0x80 SHR SWAP3 JUMPDEST DUP1 MUL PUSH1 0x80 SHR PUSH1 0x4 DUP3 AND ISZERO PUSH2 0x11C7 JUMPI SWAP3 DUP4 MUL PUSH1 0x80 SHR SWAP3 JUMPDEST DUP1 MUL PUSH1 0x80 SHR PUSH1 0x8 DUP3 AND ISZERO PUSH2 0x11DD JUMPI SWAP3 DUP4 MUL PUSH1 0x80 SHR SWAP3 JUMPDEST DUP1 MUL PUSH1 0x80 SHR PUSH1 0x10 DUP3 AND ISZERO PUSH2 0x11F3 JUMPI SWAP3 DUP4 MUL PUSH1 0x80 SHR SWAP3 JUMPDEST DUP1 MUL PUSH1 0x80 SHR PUSH1 0x20 DUP3 AND ISZERO PUSH2 0x1209 JUMPI SWAP3 DUP4 MUL PUSH1 0x80 SHR SWAP3 JUMPDEST DUP1 MUL PUSH1 0x80 SHR PUSH1 0x40 DUP3 AND ISZERO PUSH2 0x121F JUMPI SWAP3 DUP4 MUL PUSH1 0x80 SHR SWAP3 JUMPDEST DUP1 MUL PUSH1 0x80 SWAP1 DUP2 SHR SWAP1 DUP3 AND ISZERO PUSH2 0x1236 JUMPI SWAP3 DUP4 MUL PUSH1 0x80 SHR SWAP3 JUMPDEST DUP1 MUL PUSH1 0x80 SHR PUSH2 0x100 DUP3 AND ISZERO PUSH2 0x124D JUMPI SWAP3 DUP4 MUL PUSH1 0x80 SHR SWAP3 JUMPDEST DUP1 MUL PUSH1 0x80 SHR PUSH2 0x200 DUP3 AND ISZERO PUSH2 0x1264 JUMPI SWAP3 DUP4 MUL PUSH1 0x80 SHR SWAP3 JUMPDEST DUP1 MUL PUSH1 0x80 SHR PUSH2 0x400 DUP3 AND ISZERO PUSH2 0x127B JUMPI SWAP3 DUP4 MUL PUSH1 0x80 SHR SWAP3 JUMPDEST DUP1 MUL PUSH1 0x80 SHR PUSH2 0x800 DUP3 AND ISZERO PUSH2 0x1292 JUMPI SWAP3 DUP4 MUL PUSH1 0x80 SHR SWAP3 JUMPDEST DUP1 MUL PUSH1 0x80 SHR PUSH2 0x1000 DUP3 AND ISZERO PUSH2 0x12A9 JUMPI SWAP3 DUP4 MUL PUSH1 0x80 SHR SWAP3 JUMPDEST DUP1 MUL PUSH1 0x80 SHR PUSH2 0x2000 DUP3 AND ISZERO PUSH2 0x12C0 JUMPI SWAP3 DUP4 MUL PUSH1 0x80 SHR SWAP3 JUMPDEST DUP1 MUL PUSH1 0x80 SHR PUSH2 0x4000 DUP3 AND ISZERO PUSH2 0x12D7 JUMPI SWAP3 DUP4 MUL PUSH1 0x80 SHR SWAP3 JUMPDEST DUP1 MUL PUSH1 0x80 SHR PUSH2 0x8000 DUP3 AND ISZERO PUSH2 0x12EE JUMPI SWAP3 DUP4 MUL PUSH1 0x80 SHR SWAP3 JUMPDEST DUP1 MUL PUSH1 0x80 SHR PUSH3 0x10000 DUP3 AND ISZERO PUSH2 0x1306 JUMPI SWAP3 DUP4 MUL PUSH1 0x80 SHR SWAP3 JUMPDEST DUP1 MUL PUSH1 0x80 SHR PUSH3 0x20000 DUP3 AND ISZERO PUSH2 0x131E JUMPI SWAP3 DUP4 MUL PUSH1 0x80 SHR SWAP3 JUMPDEST DUP1 MUL PUSH1 0x80 SHR PUSH3 0x40000 DUP3 AND ISZERO PUSH2 0x1336 JUMPI SWAP3 DUP4 MUL PUSH1 0x80 SHR SWAP3 JUMPDEST DUP1 MUL PUSH1 0x80 SHR PUSH3 0x80000 DUP3 AND ISZERO PUSH2 0x134E JUMPI SWAP3 DUP4 MUL PUSH1 0x80 SHR SWAP3 JUMPDEST POP JUMPDEST DUP3 PUSH2 0x1391 JUMPI PUSH1 0x40 MLOAD PUSH32 0x74E3EB0800000000000000000000000000000000000000000000000000000000 DUP2 MSTORE PUSH1 0x4 DUP2 ADD DUP7 SWAP1 MSTORE PUSH1 0x24 DUP2 ADD DUP6 SWAP1 MSTORE PUSH1 0x44 ADD PUSH2 0x3D2 JUMP JUMPDEST DUP2 PUSH2 0x139C JUMPI DUP3 PUSH2 0x13A8 JUMP JUMPDEST PUSH2 0x13A8 DUP4 PUSH1 0x0 NOT PUSH2 0x1658 JUMP JUMPDEST SWAP6 SWAP5 POP POP POP POP POP JUMP JUMPDEST PUSH1 0x0 DUP2 DUP2 MSTORE PUSH1 0x1 DUP4 ADD PUSH1 0x20 MSTORE PUSH1 0x40 DUP2 KECCAK256 SLOAD PUSH2 0x13F8 JUMPI POP DUP2 SLOAD PUSH1 0x1 DUP2 DUP2 ADD DUP5 SSTORE PUSH1 0x0 DUP5 DUP2 MSTORE PUSH1 0x20 DUP1 DUP3 KECCAK256 SWAP1 SWAP4 ADD DUP5 SWAP1 SSTORE DUP5 SLOAD DUP5 DUP3 MSTORE DUP3 DUP7 ADD SWAP1 SWAP4 MSTORE PUSH1 0x40 SWAP1 KECCAK256 SWAP2 SWAP1 SWAP2 SSTORE PUSH2 0x848 JUMP JUMPDEST POP PUSH1 0x0 PUSH2 0x848 JUMP JUMPDEST PUSH1 0x0 DUP2 DUP2 MSTORE PUSH1 0x1 DUP4 ADD PUSH1 0x20 MSTORE PUSH1 0x40 DUP2 KECCAK256 SLOAD DUP1 ISZERO PUSH2 0x14E9 JUMPI PUSH1 0x0 PUSH2 0x1424 PUSH1 0x1 DUP4 PUSH2 0x1616 JUMP JUMPDEST DUP6 SLOAD SWAP1 SWAP2 POP PUSH1 0x0 SWAP1 PUSH2 0x1438 SWAP1 PUSH1 0x1 SWAP1 PUSH2 0x1616 JUMP JUMPDEST SWAP1 POP DUP2 DUP2 EQ PUSH2 0x149D JUMPI PUSH1 0x0 DUP7 PUSH1 0x0 ADD DUP3 DUP2 SLOAD DUP2 LT PUSH2 0x1458 JUMPI PUSH2 0x1458 PUSH2 0x167A JUMP JUMPDEST SWAP1 PUSH1 0x0 MSTORE PUSH1 0x20 PUSH1 0x0 KECCAK256 ADD SLOAD SWAP1 POP DUP1 DUP8 PUSH1 0x0 ADD DUP5 DUP2 SLOAD DUP2 LT PUSH2 0x147B JUMPI PUSH2 0x147B PUSH2 0x167A JUMP JUMPDEST PUSH1 0x0 SWAP2 DUP3 MSTORE PUSH1 0x20 DUP1 DUP4 KECCAK256 SWAP1 SWAP2 ADD SWAP3 SWAP1 SWAP3 SSTORE SWAP2 DUP3 MSTORE PUSH1 0x1 DUP9 ADD SWAP1 MSTORE PUSH1 0x40 SWAP1 KECCAK256 DUP4 SWAP1 SSTORE JUMPDEST DUP6 SLOAD DUP7 SWAP1 DUP1 PUSH2 0x14AE JUMPI PUSH2 0x14AE PUSH2 0x1690 JUMP JUMPDEST PUSH1 0x1 SWAP1 SUB DUP2 DUP2 SWAP1 PUSH1 0x0 MSTORE PUSH1 0x20 PUSH1 0x0 KECCAK256 ADD PUSH1 0x0 SWAP1 SSTORE SWAP1 SSTORE DUP6 PUSH1 0x1 ADD PUSH1 0x0 DUP7 DUP2 MSTORE PUSH1 0x20 ADD SWAP1 DUP2 MSTORE PUSH1 0x20 ADD PUSH1 0x0 KECCAK256 PUSH1 0x0 SWAP1 SSTORE PUSH1 0x1 SWAP4 POP POP POP POP PUSH2 0x848 JUMP JUMPDEST PUSH1 0x0 SWAP2 POP POP PUSH2 0x848 JUMP JUMPDEST PUSH1 0x0 DUP3 PUSH1 0x0 ADD DUP3 DUP2 SLOAD DUP2 LT PUSH2 0x150A JUMPI PUSH2 0x150A PUSH2 0x167A JUMP JUMPDEST SWAP1 PUSH1 0x0 MSTORE PUSH1 0x20 PUSH1 0x0 KECCAK256 ADD SLOAD SWAP1 POP SWAP3 SWAP2 POP POP JUMP JUMPDEST PUSH1 0x1 PUSH1 0x1 PUSH1 0xA0 SHL SUB DUP2 AND DUP2 EQ PUSH2 0xC33 JUMPI PUSH1 0x0 DUP1 REVERT JUMPDEST PUSH1 0x0 DUP1 PUSH1 0x0 PUSH1 0x60 DUP5 DUP7 SUB SLT ISZERO PUSH2 0x1547 JUMPI PUSH1 0x0 DUP1 REVERT JUMPDEST DUP4 CALLDATALOAD PUSH2 0x1552 DUP2 PUSH2 0x151D JUMP JUMPDEST SWAP3 POP PUSH1 0x20 DUP5 ADD CALLDATALOAD PUSH2 0x1562 DUP2 PUSH2 0x151D JUMP JUMPDEST SWAP2 POP PUSH1 0x40 DUP5 ADD CALLDATALOAD PUSH3 0xFFFFFF DUP2 AND DUP2 EQ PUSH2 0x157A JUMPI PUSH1 0x0 DUP1 REVERT JUMPDEST DUP1 SWAP2 POP POP SWAP3 POP SWAP3 POP SWAP3 JUMP JUMPDEST PUSH1 0x0 PUSH1 0x20 DUP3 DUP5 SUB SLT ISZERO PUSH2 0x1597 JUMPI PUSH1 0x0 DUP1 REVERT JUMPDEST DUP2 CALLDATALOAD DUP1 ISZERO ISZERO DUP2 EQ PUSH2 0xD1D JUMPI PUSH1 0x0 DUP1 REVERT JUMPDEST PUSH1 0x0 PUSH1 0x20 DUP3 DUP5 SUB SLT ISZERO PUSH2 0x15B9 JUMPI PUSH1 0x0 DUP1 REVERT JUMPDEST DUP2 CALLDATALOAD PUSH2 0xD1D DUP2 PUSH2 0x151D JUMP JUMPDEST PUSH1 0x0 PUSH1 0x20 DUP3 DUP5 SUB SLT ISZERO PUSH2 0x15D6 JUMPI PUSH1 0x0 DUP1 REVERT JUMPDEST POP CALLDATALOAD SWAP2 SWAP1 POP JUMP JUMPDEST PUSH1 0x0 DUP1 PUSH1 0x40 DUP4 DUP6 SUB SLT ISZERO PUSH2 0x15F0 JUMPI PUSH1 0x0 DUP1 REVERT JUMPDEST DUP3 CALLDATALOAD PUSH2 0x15FB DUP2 PUSH2 0x151D JUMP JUMPDEST SWAP2 POP PUSH1 0x20 DUP4 ADD CALLDATALOAD PUSH2 0x160B DUP2 PUSH2 0x151D JUMP JUMPDEST DUP1 SWAP2 POP POP SWAP3 POP SWAP3 SWAP1 POP JUMP JUMPDEST PUSH1 0x0 DUP3 DUP3 LT ISZERO PUSH2 0x1636 JUMPI PUSH4 0x4E487B71 PUSH1 0xE0 SHL PUSH1 0x0 MSTORE PUSH1 0x11 PUSH1 0x4 MSTORE PUSH1 0x24 PUSH1 0x0 REVERT JUMPDEST POP SUB SWAP1 JUMP JUMPDEST PUSH1 0x0 PUSH1 0x20 DUP3 DUP5 SUB SLT ISZERO PUSH2 0x164D JUMPI PUSH1 0x0 DUP1 REVERT JUMPDEST DUP2 MLOAD PUSH2 0xD1D DUP2 PUSH2 0x151D JUMP JUMPDEST PUSH1 0x0 DUP3 PUSH2 0x1675 JUMPI PUSH4 0x4E487B71 PUSH1 0xE0 SHL PUSH1 0x0 MSTORE PUSH1 0x12 PUSH1 0x4 MSTORE PUSH1 0x24 PUSH1 0x0 REVERT JUMPDEST POP DIV SWAP1 JUMP JUMPDEST PUSH4 0x4E487B71 PUSH1 0xE0 SHL PUSH1 0x0 MSTORE PUSH1 0x32 PUSH1 0x4 MSTORE PUSH1 0x24 PUSH1 0x0 REVERT JUMPDEST PUSH4 0x4E487B71 PUSH1 0xE0 SHL PUSH1 0x0 MSTORE PUSH1 0x31 PUSH1 0x4 MSTORE PUSH1 0x24 PUSH1 0x0 REVERT INVALID LOG2 PUSH5 0x6970667358 0x22 SLT KECCAK256 CALL 0xBA PC 0xEA KECCAK256 0x26 DUP8 SHL 0xEA PUSH9 0x9B9F7F7C0100B6684E 0x25 REVERT BALANCE SWAP9 0xE0 SHR MSTORE 0x2F PUSH15 0x3E9D71FF64736F6C634300080A0033 "
				},
				"gasEstimates": {
					"creation": {
						"codeDepositCost": "1170400",
						"executionCost": "infinite",
						"totalCost": "infinite"
					},
					"external": {
						"LBPairImplementation()": "2394",
						"MAX_FEE()": "262",
						"addQuoteAsset(address)": "infinite",
						"allLBPairs(uint256)": "4649",
						"becomeOwner()": "52452",
						"createLBPair(address,address,uint24)": "infinite",
						"creationUnlocked()": "2372",
						"feeRecipient()": "2394",
						"flashLoanFee()": "2385",
						"getLBPairInformation(address,address)": "infinite",
						"getNumberOfLBPairs()": "2338",
						"getNumberOfQuoteAssets()": "2438",
						"getQuoteAsset(uint256)": "4749",
						"isQuoteAsset(address)": "infinite",
						"owner()": "2410",
						"pendingOwner()": "2387",
						"removeQuoteAsset(address)": "infinite",
						"renounceOwnership()": "52424",
						"revokePendingOwner()": "29921",
						"setFactoryLockedState(bool)": "29952",
						"setFeeRecipient(address)": "infinite",
						"setLBPairImplementation(address)": "infinite",
						"setPendingOwner(address)": "infinite"
					},
					"internal": {
						"_getLBPairInformation(contract IERC20,contract IERC20)": "infinite",
						"_setFeeRecipient(address)": "infinite",
						"_sortTokens(contract IERC20,contract IERC20)": "102"
					}
				},
				"methodIdentifiers": {
					"LBPairImplementation()": "509ceb90",
					"MAX_FEE()": "bc063e1a",
					"addQuoteAsset(address)": "5a440923",
					"allLBPairs(uint256)": "72e47b8c",
					"becomeOwner()": "f9dca989",
					"createLBPair(address,address,uint24)": "02e48ce2",
					"creationUnlocked()": "5c779d6d",
					"feeRecipient()": "46904840",
					"flashLoanFee()": "4847cdc8",
					"getLBPairInformation(address,address)": "eaec42a4",
					"getNumberOfLBPairs()": "4e937c3a",
					"getNumberOfQuoteAssets()": "80c5061e",
					"getQuoteAsset(uint256)": "f89a4cd5",
					"isQuoteAsset(address)": "27721842",
					"owner()": "8da5cb5b",
					"pendingOwner()": "e30c3978",
					"removeQuoteAsset(address)": "ddbfd941",
					"renounceOwnership()": "715018a6",
					"revokePendingOwner()": "67ab8a4e",
					"setFactoryLockedState(bool)": "22f3fe14",
					"setFeeRecipient(address)": "e74b981b",
					"setLBPairImplementation(address)": "b0384781",
					"setPendingOwner(address)": "c42069ec"
				}
			},
			"storageLayout": {
				"storage": [
					{
						"astId": 3719,
						"contract": "joe-v2-main/src/LBFactory.sol:LBFactory",
						"label": "_owner",
						"offset": 0,
						"slot": "0",
						"type": "t_address"
					},
					{
						"astId": 3721,
						"contract": "joe-v2-main/src/LBFactory.sol:LBFactory",
						"label": "_pendingOwner",
						"offset": 0,
						"slot": "1",
						"type": "t_address"
					},
					{
						"astId": 1346,
						"contract": "joe-v2-main/src/LBFactory.sol:LBFactory",
						"label": "LBPairImplementation",
						"offset": 0,
						"slot": "2",
						"type": "t_address"
					},
					{
						"astId": 1349,
						"contract": "joe-v2-main/src/LBFactory.sol:LBFactory",
						"label": "feeRecipient",
						"offset": 0,
						"slot": "3",
						"type": "t_address"
					},
					{
						"astId": 1353,
						"contract": "joe-v2-main/src/LBFactory.sol:LBFactory",
						"label": "creationUnlocked",
						"offset": 20,
						"slot": "3",
						"type": "t_bool"
					},
					{
						"astId": 1356,
						"contract": "joe-v2-main/src/LBFactory.sol:LBFactory",
						"label": "flashLoanFee",
						"offset": 0,
						"slot": "4",
						"type": "t_uint256"
					},
					{
						"astId": 1361,
						"contract": "joe-v2-main/src/LBFactory.sol:LBFactory",
						"label": "allLBPairs",
						"offset": 0,
						"slot": "5",
						"type": "t_array(t_contract(ILBPair)2398)dyn_storage"
					},
					{
						"astId": 1371,
						"contract": "joe-v2-main/src/LBFactory.sol:LBFactory",
						"label": "_LBPairsInfo",
						"offset": 0,
						"slot": "6",
						"type": "t_mapping(t_contract(IERC20)157,t_mapping(t_contract(IERC20)157,t_struct(LBPairInformation)1905_storage))"
					},
					{
						"astId": 1374,
						"contract": "joe-v2-main/src/LBFactory.sol:LBFactory",
						"label": "_availablePresets",
						"offset": 0,
						"slot": "7",
						"type": "t_bytes32"
					},
					{
						"astId": 1378,
						"contract": "joe-v2-main/src/LBFactory.sol:LBFactory",
						"label": "_presets",
						"offset": 0,
						"slot": "8",
						"type": "t_mapping(t_uint256,t_bytes32)"
					},
					{
						"astId": 1381,
						"contract": "joe-v2-main/src/LBFactory.sol:LBFactory",
						"label": "_quoteAssetWhitelist",
						"offset": 0,
						"slot": "9",
						"type": "t_struct(AddressSet)483_storage"
					}
				],
				"types": {
					"t_address": {
						"encoding": "inplace",
						"label": "address",
						"numberOfBytes": "20"
					},
					"t_array(t_bytes32)dyn_storage": {
						"base": "t_bytes32",
						"encoding": "dynamic_array",
						"label": "bytes32[]",
						"numberOfBytes": "32"
					},
					"t_array(t_contract(ILBPair)2398)dyn_storage": {
						"base": "t_contract(ILBPair)2398",
						"encoding": "dynamic_array",
						"label": "contract ILBPair[]",
						"numberOfBytes": "32"
					},
					"t_bool": {
						"encoding": "inplace",
						"label": "bool",
						"numberOfBytes": "1"
					},
					"t_bytes32": {
						"encoding": "inplace",
						"label": "bytes32",
						"numberOfBytes": "32"
					},
					"t_contract(IERC20)157": {
						"encoding": "inplace",
						"label": "contract IERC20",
						"numberOfBytes": "20"
					},
					"t_contract(ILBPair)2398": {
						"encoding": "inplace",
						"label": "contract ILBPair",
						"numberOfBytes": "20"
					},
					"t_mapping(t_bytes32,t_uint256)": {
						"encoding": "mapping",
						"key": "t_bytes32",
						"label": "mapping(bytes32 => uint256)",
						"numberOfBytes": "32",
						"value": "t_uint256"
					},
					"t_mapping(t_contract(IERC20)157,t_mapping(t_contract(IERC20)157,t_struct(LBPairInformation)1905_storage))": {
						"encoding": "mapping",
						"key": "t_contract(IERC20)157",
						"label": "mapping(contract IERC20 => mapping(contract IERC20 => struct ILBFactory.LBPairInformation))",
						"numberOfBytes": "32",
						"value": "t_mapping(t_contract(IERC20)157,t_struct(LBPairInformation)1905_storage)"
					},
					"t_mapping(t_contract(IERC20)157,t_struct(LBPairInformation)1905_storage)": {
						"encoding": "mapping",
						"key": "t_contract(IERC20)157",
						"label": "mapping(contract IERC20 => struct ILBFactory.LBPairInformation)",
						"numberOfBytes": "32",
						"value": "t_struct(LBPairInformation)1905_storage"
					},
					"t_mapping(t_uint256,t_bytes32)": {
						"encoding": "mapping",
						"key": "t_uint256",
						"label": "mapping(uint256 => bytes32)",
						"numberOfBytes": "32",
						"value": "t_bytes32"
					},
					"t_struct(AddressSet)483_storage": {
						"encoding": "inplace",
						"label": "struct EnumerableSet.AddressSet",
						"members": [
							{
								"astId": 482,
								"contract": "joe-v2-main/src/LBFactory.sol:LBFactory",
								"label": "_inner",
								"offset": 0,
								"slot": "0",
								"type": "t_struct(Set)168_storage"
							}
						],
						"numberOfBytes": "64"
					},
					"t_struct(LBPairInformation)1905_storage": {
						"encoding": "inplace",
						"label": "struct ILBFactory.LBPairInformation",
						"members": [
							{
								"astId": 1902,
								"contract": "joe-v2-main/src/LBFactory.sol:LBFactory",
								"label": "LBPair",
								"offset": 0,
								"slot": "0",
								"type": "t_contract(ILBPair)2398"
							},
							{
								"astId": 1904,
								"contract": "joe-v2-main/src/LBFactory.sol:LBFactory",
								"label": "createdByOwner",
								"offset": 20,
								"slot": "0",
								"type": "t_bool"
							}
						],
						"numberOfBytes": "32"
					},
					"t_struct(Set)168_storage": {
						"encoding": "inplace",
						"label": "struct EnumerableSet.Set",
						"members": [
							{
								"astId": 163,
								"contract": "joe-v2-main/src/LBFactory.sol:LBFactory",
								"label": "_values",
								"offset": 0,
								"slot": "0",
								"type": "t_array(t_bytes32)dyn_storage"
							},
							{
								"astId": 167,
								"contract": "joe-v2-main/src/LBFactory.sol:LBFactory",
								"label": "_indexes",
								"offset": 0,
								"slot": "1",
								"type": "t_mapping(t_bytes32,t_uint256)"
							}
						],
						"numberOfBytes": "64"
					},
					"t_uint256": {
						"encoding": "inplace",
						"label": "uint256",
						"numberOfBytes": "32"
					}
				}
			},
			"userdoc": {
				"errors": {
					"LBFactory__IdenticalAddresses(address)": [
						{
							"notice": "LBFactory errors "
						}
					],
					"Math128x128__PowerUnderflow(uint256,int256)": [
						{
							"notice": "Math128x128 errors "
						}
					],
					"PendingOwnable__NotOwner()": [
						{
							"notice": "PendingOwnable errors "
						}
					]
				},
				"kind": "user",
				"methods": {
					"addQuoteAsset(address)": {
						"notice": "Function to add an asset to the whitelist of quote assets"
					},
					"becomeOwner()": {
						"notice": "Transfers the ownership to the new owner (`pendingOwner). Can only be called by the pending owner"
					},
					"constructor": {
						"notice": "Constructor"
					},
					"createLBPair(address,address,uint24)": {
						"notice": "Create a liquidity bin LBPair for _tokenX and _tokenY"
					},
					"creationUnlocked()": {
						"notice": "Whether the createLBPair function is unlocked and can be called by anyone (true) or only by owner (false)"
					},
					"getLBPairInformation(address,address)": {
						"notice": "Returns the LBPairInformation if it exists, if not, then the address 0 is returned. The order doesn't matter"
					},
					"getNumberOfLBPairs()": {
						"notice": "View function to return the number of LBPairs created"
					},
					"getNumberOfQuoteAssets()": {
						"notice": "View function to return the number of quote assets whitelisted"
					},
					"getQuoteAsset(uint256)": {
						"notice": "View function to return the quote asset whitelisted at index `index`"
					},
					"isQuoteAsset(address)": {
						"notice": "View function to return whether a token is a quotedAsset (true) or not (false)"
					},
					"owner()": {
						"notice": "Returns the address of the current owner"
					},
					"pendingOwner()": {
						"notice": "Returns the address of the current pending owner"
					},
					"removeQuoteAsset(address)": {
						"notice": "Function to remove an asset from the whitelist of quote assets"
					},
					"renounceOwnership()": {
						"notice": "Leaves the contract without owner. It will not be possible to call `onlyOwner` functions anymore. Can only be called by the current owner. NOTE: Renouncing ownership will leave the contract without an owner, thereby removing any functionality that is only available to the owner."
					},
					"revokePendingOwner()": {
						"notice": "Revoke the pending owner address. This address will not be able to call {becomeOwner} to become the owner anymore. Can only be called by the owner"
					},
					"setFactoryLockedState(bool)": {
						"notice": "Function to set the creation restriction of the Factory"
					},
					"setFeeRecipient(address)": {
						"notice": "Function to set the recipient of the fees. This address needs to be able to receive ERC20s"
					},
					"setLBPairImplementation(address)": {
						"notice": "Set the LBPair implementation address"
					},
					"setPendingOwner(address)": {
						"notice": "Sets the pending owner address. This address will be able to become the owner of this contract by calling {becomeOwner}"
					}
				},
				"notice": "Contract used to deploy and register new LBPairs. Enables setting fee parameters, flashloan fees and LBPair implementation. Unless the `creationUnlocked` is `true`, only the owner of the factory can create pairs.",
				"version": 1
			}
		}
	}
}