{
	"joe-v2-main/src/libraries/PendingOwnable.sol": {
		"PendingOwnable": {
			"abi": [
				{
					"inputs": [],
					"stateMutability": "nonpayable",
					"type": "constructor"
				},
				{
					"inputs": [],
					"name": "PendingOwnable__AddressZero",
					"type": "error"
				},
				{
					"inputs": [],
					"name": "PendingOwnable__NoPendingOwner",
					"type": "error"
				},
				{
					"inputs": [],
					"name": "PendingOwnable__NotOwner",
					"type": "error"
				},
				{
					"inputs": [],
					"name": "PendingOwnable__NotPendingOwner",
					"type": "error"
				},
				{
					"inputs": [],
					"name": "PendingOwnable__PendingOwnerAlreadySet",
					"type": "error"
				},
				{
					"anonymous": false,
					"inputs": [
						{
							"indexed": true,
							"internalType": "address",
							"name": "previousOwner",
							"type": "address"
						},
						{
							"indexed": true,
							"internalType": "address",
							"name": "newOwner",
							"type": "address"
						}
					],
					"name": "OwnershipTransferred",
					"type": "event"
				},
				{
					"anonymous": false,
					"inputs": [
						{
							"indexed": true,
							"internalType": "address",
							"name": "pendingOwner",
							"type": "address"
						}
					],
					"name": "PendingOwnerSet",
					"type": "event"
				},
				{
					"inputs": [],
					"name": "becomeOwner",
					"outputs": [],
					"stateMutability": "nonpayable",
					"type": "function"
				},
				{
					"inputs": [],
					"name": "owner",
					"outputs": [
						{
							"internalType": "address",
							"name": "",
							"type": "address"
						}
					],
					"stateMutability": "view",
					"type": "function"
				},
				{
					"inputs": [],
					"name": "pendingOwner",
					"outputs": [
						{
							"internalType": "address",
							"name": "",
							"type": "address"
						}
					],
					"stateMutability": "view",
					"type": "function"
				},
				{
					"inputs": [],
					"name": "renounceOwnership",
					"outputs": [],
					"stateMutability": "nonpayable",
					"type": "function"
				},
				{
					"inputs": [],
					"name": "revokePendingOwner",
					"outputs": [],
					"stateMutability": "nonpayable",
					"type": "function"
				},
				{
					"inputs": [
						{
							"internalType": "address",
							"name": "pendingOwner_",
							"type": "address"
						}
					],
					"name": "setPendingOwner",
					"outputs": [],
					"stateMutability": "nonpayable",
					"type": "function"
				}
			],
			"devdoc": {
				"author": "Trader Joe",
				"kind": "dev",
				"methods": {
					"owner()": {
						"returns": {
							"_0": "The address of the current owner"
						}
					},
					"pendingOwner()": {
						"returns": {
							"_0": "The address of the current pending owner"
						}
					}
				},
				"title": "Pending Ownable",
				"version": 1
			},
			"evm": {
				"assembly": "    /* \"joe-v2-main/src/libraries/PendingOwnable.sol\":1007:4376  contract PendingOwnable is IPendingOwnable {... */\n  mstore(0x40, 0x80)\n    /* \"joe-v2-main/src/libraries/PendingOwnable.sol\":1628:1689  constructor() {... */\n  callvalue\n  dup1\n  iszero\n  tag_1\n  jumpi\n  0x00\n  dup1\n  revert\ntag_1:\n  pop\n    /* \"joe-v2-main/src/libraries/PendingOwnable.sol\":1652:1682  _transferOwnership(msg.sender) */\n  tag_4\n    /* \"joe-v2-main/src/libraries/PendingOwnable.sol\":1671:1681  msg.sender */\n  caller\n    /* \"joe-v2-main/src/libraries/PendingOwnable.sol\":1652:1670  _transferOwnership */\n  tag_5\n    /* \"joe-v2-main/src/libraries/PendingOwnable.sol\":1652:1682  _transferOwnership(msg.sender) */\n  jump\t// in\ntag_4:\n    /* \"joe-v2-main/src/libraries/PendingOwnable.sol\":1007:4376  contract PendingOwnable is IPendingOwnable {... */\n  jump(tag_6)\n    /* \"joe-v2-main/src/libraries/PendingOwnable.sol\":3788:4016  function _transferOwnership(address _newOwner) internal virtual {... */\ntag_5:\n    /* \"joe-v2-main/src/libraries/PendingOwnable.sol\":3862:3879  address _oldOwner */\n  0x00\n    /* \"joe-v2-main/src/libraries/PendingOwnable.sol\":3882:3888  _owner */\n  dup1\n  sload\n  sub(shl(0xa0, 0x01), 0x01)\n    /* \"joe-v2-main/src/libraries/PendingOwnable.sol\":3898:3916  _owner = _newOwner */\n  dup4\n  dup2\n  and\n  not(sub(shl(0xa0, 0x01), 0x01))\n  dup1\n  dup5\n  and\n  dup3\n  or\n  dup6\n  sstore\n    /* \"joe-v2-main/src/libraries/PendingOwnable.sol\":3882:3888  _owner */\n  0x01\n    /* \"joe-v2-main/src/libraries/PendingOwnable.sol\":3926:3952  _pendingOwner = address(0) */\n  dup1\n  sload\n  swap1\n  swap2\n  and\n  swap1\n  sstore\n    /* \"joe-v2-main/src/libraries/PendingOwnable.sol\":3967:4009  OwnershipTransferred(_oldOwner, _newOwner) */\n  mload(0x40)\n    /* \"joe-v2-main/src/libraries/PendingOwnable.sol\":3882:3888  _owner */\n  swap2\n  swap1\n  swap3\n  and\n  swap3\n  dup4\n  swap2\n    /* \"joe-v2-main/src/libraries/PendingOwnable.sol\":3967:4009  OwnershipTransferred(_oldOwner, _newOwner) */\n  0x8be0079c531659141344cd1fd0a4f28419497f9722a3daafe3b4186f6b6457e0\n  swap2\n    /* \"joe-v2-main/src/libraries/PendingOwnable.sol\":3862:3879  address _oldOwner */\n  swap1\n    /* \"joe-v2-main/src/libraries/PendingOwnable.sol\":3967:4009  OwnershipTransferred(_oldOwner, _newOwner) */\n  log3\n    /* \"joe-v2-main/src/libraries/PendingOwnable.sol\":3852:4016  {... */\n  pop\n    /* \"joe-v2-main/src/libraries/PendingOwnable.sol\":3788:4016  function _transferOwnership(address _newOwner) internal virtual {... */\n  pop\n  jump\t// out\n    /* \"joe-v2-main/src/libraries/PendingOwnable.sol\":1007:4376  contract PendingOwnable is IPendingOwnable {... */\ntag_6:\n  dataSize(sub_0)\n  dup1\n  dataOffset(sub_0)\n  0x00\n  codecopy\n  0x00\n  return\nstop\n\nsub_0: assembly {\n        /* \"joe-v2-main/src/libraries/PendingOwnable.sol\":1007:4376  contract PendingOwnable is IPendingOwnable {... */\n      mstore(0x40, 0x80)\n      callvalue\n      dup1\n      iszero\n      tag_1\n      jumpi\n      0x00\n      dup1\n      revert\n    tag_1:\n      pop\n      jumpi(tag_2, lt(calldatasize, 0x04))\n      shr(0xe0, calldataload(0x00))\n      dup1\n      0xc42069ec\n      gt\n      tag_9\n      jumpi\n      dup1\n      0xc42069ec\n      eq\n      tag_6\n      jumpi\n      dup1\n      0xe30c3978\n      eq\n      tag_7\n      jumpi\n      dup1\n      0xf9dca989\n      eq\n      tag_8\n      jumpi\n      0x00\n      dup1\n      revert\n    tag_9:\n      dup1\n      0x67ab8a4e\n      eq\n      tag_3\n      jumpi\n      dup1\n      0x715018a6\n      eq\n      tag_4\n      jumpi\n      dup1\n      0x8da5cb5b\n      eq\n      tag_5\n      jumpi\n    tag_2:\n      0x00\n      dup1\n      revert\n        /* \"joe-v2-main/src/libraries/PendingOwnable.sol\":2741:2924  function revokePendingOwner() public override onlyOwner {... */\n    tag_3:\n      tag_10\n      tag_11\n      jump\t// in\n    tag_10:\n      stop\n        /* \"joe-v2-main/src/libraries/PendingOwnable.sol\":3489:3591  function renounceOwnership() public override onlyOwner {... */\n    tag_4:\n      tag_10\n      tag_13\n      jump\t// in\n        /* \"joe-v2-main/src/libraries/PendingOwnable.sol\":1801:1887  function owner() public view override returns (address) {... */\n    tag_5:\n        /* \"joe-v2-main/src/libraries/PendingOwnable.sol\":1848:1855  address */\n      0x00\n        /* \"joe-v2-main/src/libraries/PendingOwnable.sol\":1874:1880  _owner */\n      sload\n      sub(shl(0xa0, 0x01), 0x01)\n      and\n        /* \"joe-v2-main/src/libraries/PendingOwnable.sol\":1801:1887  function owner() public view override returns (address) {... */\n    tag_14:\n      mload(0x40)\n      sub(shl(0xa0, 0x01), 0x01)\n        /* \"#utility.yul\":178:233   */\n      swap1\n      swap2\n      and\n        /* \"#utility.yul\":160:234   */\n      dup2\n      mstore\n        /* \"#utility.yul\":148:150   */\n      0x20\n        /* \"#utility.yul\":133:151   */\n      add\n        /* \"joe-v2-main/src/libraries/PendingOwnable.sol\":1801:1887  function owner() public view override returns (address) {... */\n      mload(0x40)\n      dup1\n      swap2\n      sub\n      swap1\n      return\n        /* \"joe-v2-main/src/libraries/PendingOwnable.sol\":2265:2556  function setPendingOwner(address pendingOwner_) public override onlyOwner {... */\n    tag_6:\n      tag_10\n      tag_19\n      calldatasize\n      0x04\n      tag_20\n      jump\t// in\n    tag_19:\n      tag_21\n      jump\t// in\n        /* \"joe-v2-main/src/libraries/PendingOwnable.sol\":2015:2115  function pendingOwner() public view override returns (address) {... */\n    tag_7:\n        /* \"joe-v2-main/src/libraries/PendingOwnable.sol\":2095:2108  _pendingOwner */\n      and(sub(shl(0xa0, 0x01), 0x01), sload(0x01))\n        /* \"joe-v2-main/src/libraries/PendingOwnable.sol\":2015:2115  function pendingOwner() public view override returns (address) {... */\n      jump(tag_14)\n        /* \"joe-v2-main/src/libraries/PendingOwnable.sol\":3052:3155  function becomeOwner() public override onlyPendingOwner {... */\n    tag_8:\n      tag_10\n      tag_26\n      jump\t// in\n        /* \"joe-v2-main/src/libraries/PendingOwnable.sol\":2741:2924  function revokePendingOwner() public override onlyOwner {... */\n    tag_11:\n        /* \"joe-v2-main/src/libraries/PendingOwnable.sol\":1239:1245  _owner */\n      and(sub(shl(0xa0, 0x01), 0x01), sload(0x00))\n        /* \"joe-v2-main/src/libraries/PendingOwnable.sol\":1225:1235  msg.sender */\n      caller\n        /* \"joe-v2-main/src/libraries/PendingOwnable.sol\":1225:1245  msg.sender != _owner */\n      eq\n        /* \"joe-v2-main/src/libraries/PendingOwnable.sol\":1221:1280  if (msg.sender != _owner) revert PendingOwnable__NotOwner() */\n      tag_28\n      jumpi\n        /* \"joe-v2-main/src/libraries/PendingOwnable.sol\":1254:1280  PendingOwnable__NotOwner() */\n      mload(0x40)\n      shl(0xe0, 0x9f216c13)\n      dup2\n      mstore\n      0x04\n      add\n      mload(0x40)\n      dup1\n      swap2\n      sub\n      swap1\n      revert\n        /* \"joe-v2-main/src/libraries/PendingOwnable.sol\":1221:1280  if (msg.sender != _owner) revert PendingOwnable__NotOwner() */\n    tag_28:\n        /* \"joe-v2-main/src/libraries/PendingOwnable.sol\":2811:2824  _pendingOwner */\n      and(sub(shl(0xa0, 0x01), 0x01), sload(0x01))\n        /* \"joe-v2-main/src/libraries/PendingOwnable.sol\":2807:2879  if (_pendingOwner == address(0)) revert PendingOwnable__NoPendingOwner() */\n      tag_30\n      jumpi\n        /* \"joe-v2-main/src/libraries/PendingOwnable.sol\":2847:2879  PendingOwnable__NoPendingOwner() */\n      mload(0x40)\n      0xecfad6bf00000000000000000000000000000000000000000000000000000000\n      dup2\n      mstore\n      0x04\n      add\n      mload(0x40)\n      dup1\n      swap2\n      sub\n      swap1\n      revert\n        /* \"joe-v2-main/src/libraries/PendingOwnable.sol\":2807:2879  if (_pendingOwner == address(0)) revert PendingOwnable__NoPendingOwner() */\n    tag_30:\n        /* \"joe-v2-main/src/libraries/PendingOwnable.sol\":2889:2917  _setPendingOwner(address(0)) */\n      tag_31\n        /* \"joe-v2-main/src/libraries/PendingOwnable.sol\":2914:2915  0 */\n      0x00\n        /* \"joe-v2-main/src/libraries/PendingOwnable.sol\":2889:2905  _setPendingOwner */\n      tag_32\n        /* \"joe-v2-main/src/libraries/PendingOwnable.sol\":2889:2917  _setPendingOwner(address(0)) */\n      jump\t// in\n    tag_31:\n        /* \"joe-v2-main/src/libraries/PendingOwnable.sol\":2741:2924  function revokePendingOwner() public override onlyOwner {... */\n      jump\t// out\n        /* \"joe-v2-main/src/libraries/PendingOwnable.sol\":3489:3591  function renounceOwnership() public override onlyOwner {... */\n    tag_13:\n        /* \"joe-v2-main/src/libraries/PendingOwnable.sol\":1239:1245  _owner */\n      and(sub(shl(0xa0, 0x01), 0x01), sload(0x00))\n        /* \"joe-v2-main/src/libraries/PendingOwnable.sol\":1225:1235  msg.sender */\n      caller\n        /* \"joe-v2-main/src/libraries/PendingOwnable.sol\":1225:1245  msg.sender != _owner */\n      eq\n        /* \"joe-v2-main/src/libraries/PendingOwnable.sol\":1221:1280  if (msg.sender != _owner) revert PendingOwnable__NotOwner() */\n      tag_34\n      jumpi\n        /* \"joe-v2-main/src/libraries/PendingOwnable.sol\":1254:1280  PendingOwnable__NotOwner() */\n      mload(0x40)\n      shl(0xe0, 0x9f216c13)\n      dup2\n      mstore\n      0x04\n      add\n      mload(0x40)\n      dup1\n      swap2\n      sub\n      swap1\n      revert\n        /* \"joe-v2-main/src/libraries/PendingOwnable.sol\":1221:1280  if (msg.sender != _owner) revert PendingOwnable__NotOwner() */\n    tag_34:\n        /* \"joe-v2-main/src/libraries/PendingOwnable.sol\":3554:3584  _transferOwnership(address(0)) */\n      tag_31\n        /* \"joe-v2-main/src/libraries/PendingOwnable.sol\":3581:3582  0 */\n      0x00\n        /* \"joe-v2-main/src/libraries/PendingOwnable.sol\":3554:3572  _transferOwnership */\n      tag_37\n        /* \"joe-v2-main/src/libraries/PendingOwnable.sol\":3554:3584  _transferOwnership(address(0)) */\n      jump\t// in\n        /* \"joe-v2-main/src/libraries/PendingOwnable.sol\":2265:2556  function setPendingOwner(address pendingOwner_) public override onlyOwner {... */\n    tag_21:\n        /* \"joe-v2-main/src/libraries/PendingOwnable.sol\":1239:1245  _owner */\n      and(sub(shl(0xa0, 0x01), 0x01), sload(0x00))\n        /* \"joe-v2-main/src/libraries/PendingOwnable.sol\":1225:1235  msg.sender */\n      caller\n        /* \"joe-v2-main/src/libraries/PendingOwnable.sol\":1225:1245  msg.sender != _owner */\n      eq\n        /* \"joe-v2-main/src/libraries/PendingOwnable.sol\":1221:1280  if (msg.sender != _owner) revert PendingOwnable__NotOwner() */\n      tag_40\n      jumpi\n        /* \"joe-v2-main/src/libraries/PendingOwnable.sol\":1254:1280  PendingOwnable__NotOwner() */\n      mload(0x40)\n      shl(0xe0, 0x9f216c13)\n      dup2\n      mstore\n      0x04\n      add\n      mload(0x40)\n      dup1\n      swap2\n      sub\n      swap1\n      revert\n        /* \"joe-v2-main/src/libraries/PendingOwnable.sol\":1221:1280  if (msg.sender != _owner) revert PendingOwnable__NotOwner() */\n    tag_40:\n      sub(shl(0xa0, 0x01), 0x01)\n        /* \"joe-v2-main/src/libraries/PendingOwnable.sol\":2353:2380  pendingOwner_ == address(0) */\n      dup2\n      and\n        /* \"joe-v2-main/src/libraries/PendingOwnable.sol\":2349:2418  if (pendingOwner_ == address(0)) revert PendingOwnable__AddressZero() */\n      tag_42\n      jumpi\n        /* \"joe-v2-main/src/libraries/PendingOwnable.sol\":2389:2418  PendingOwnable__AddressZero() */\n      mload(0x40)\n      0x91f3851500000000000000000000000000000000000000000000000000000000\n      dup2\n      mstore\n      0x04\n      add\n      mload(0x40)\n      dup1\n      swap2\n      sub\n      swap1\n      revert\n        /* \"joe-v2-main/src/libraries/PendingOwnable.sol\":2349:2418  if (pendingOwner_ == address(0)) revert PendingOwnable__AddressZero() */\n    tag_42:\n        /* \"joe-v2-main/src/libraries/PendingOwnable.sol\":2432:2445  _pendingOwner */\n      and(sub(shl(0xa0, 0x01), 0x01), sload(0x01))\n        /* \"joe-v2-main/src/libraries/PendingOwnable.sol\":2432:2459  _pendingOwner != address(0) */\n      iszero\n        /* \"joe-v2-main/src/libraries/PendingOwnable.sol\":2428:2508  if (_pendingOwner != address(0)) revert PendingOwnable__PendingOwnerAlreadySet() */\n      tag_43\n      jumpi\n        /* \"joe-v2-main/src/libraries/PendingOwnable.sol\":2468:2508  PendingOwnable__PendingOwnerAlreadySet() */\n      mload(0x40)\n      0x716b1fbf00000000000000000000000000000000000000000000000000000000\n      dup2\n      mstore\n      0x04\n      add\n      mload(0x40)\n      dup1\n      swap2\n      sub\n      swap1\n      revert\n        /* \"joe-v2-main/src/libraries/PendingOwnable.sol\":2428:2508  if (_pendingOwner != address(0)) revert PendingOwnable__PendingOwnerAlreadySet() */\n    tag_43:\n        /* \"joe-v2-main/src/libraries/PendingOwnable.sol\":2518:2549  _setPendingOwner(pendingOwner_) */\n      tag_44\n        /* \"joe-v2-main/src/libraries/PendingOwnable.sol\":2535:2548  pendingOwner_ */\n      dup2\n        /* \"joe-v2-main/src/libraries/PendingOwnable.sol\":2518:2534  _setPendingOwner */\n      tag_32\n        /* \"joe-v2-main/src/libraries/PendingOwnable.sol\":2518:2549  _setPendingOwner(pendingOwner_) */\n      jump\t// in\n    tag_44:\n        /* \"joe-v2-main/src/libraries/PendingOwnable.sol\":2265:2556  function setPendingOwner(address pendingOwner_) public override onlyOwner {... */\n      pop\n      jump\t// out\n        /* \"joe-v2-main/src/libraries/PendingOwnable.sol\":3052:3155  function becomeOwner() public override onlyPendingOwner {... */\n    tag_26:\n        /* \"joe-v2-main/src/libraries/PendingOwnable.sol\":1438:1451  _pendingOwner */\n      and(sub(shl(0xa0, 0x01), 0x01), sload(0x01))\n        /* \"joe-v2-main/src/libraries/PendingOwnable.sol\":1424:1434  msg.sender */\n      caller\n        /* \"joe-v2-main/src/libraries/PendingOwnable.sol\":1424:1451  msg.sender != _pendingOwner */\n      eq\n      iszero\n      dup1\n        /* \"joe-v2-main/src/libraries/PendingOwnable.sol\":1424:1479  msg.sender != _pendingOwner || msg.sender == address(0) */\n      tag_47\n      jumpi\n      pop\n        /* \"joe-v2-main/src/libraries/PendingOwnable.sol\":1455:1465  msg.sender */\n      caller\n        /* \"joe-v2-main/src/libraries/PendingOwnable.sol\":1455:1479  msg.sender == address(0) */\n      iszero\n        /* \"joe-v2-main/src/libraries/PendingOwnable.sol\":1424:1479  msg.sender != _pendingOwner || msg.sender == address(0) */\n    tag_47:\n        /* \"joe-v2-main/src/libraries/PendingOwnable.sol\":1420:1521  if (msg.sender != _pendingOwner || msg.sender == address(0)) revert PendingOwnable__NotPendingOwner() */\n      iszero\n      tag_48\n      jumpi\n        /* \"joe-v2-main/src/libraries/PendingOwnable.sol\":1488:1521  PendingOwnable__NotPendingOwner() */\n      mload(0x40)\n      0x7304d01200000000000000000000000000000000000000000000000000000000\n      dup2\n      mstore\n      0x04\n      add\n      mload(0x40)\n      dup1\n      swap2\n      sub\n      swap1\n      revert\n        /* \"joe-v2-main/src/libraries/PendingOwnable.sol\":1420:1521  if (msg.sender != _pendingOwner || msg.sender == address(0)) revert PendingOwnable__NotPendingOwner() */\n    tag_48:\n        /* \"joe-v2-main/src/libraries/PendingOwnable.sol\":3118:3148  _transferOwnership(msg.sender) */\n      tag_31\n        /* \"joe-v2-main/src/libraries/PendingOwnable.sol\":3137:3147  msg.sender */\n      caller\n        /* \"joe-v2-main/src/libraries/PendingOwnable.sol\":3118:3136  _transferOwnership */\n      tag_37\n        /* \"joe-v2-main/src/libraries/PendingOwnable.sol\":3118:3148  _transferOwnership(msg.sender) */\n      jump\t// in\n        /* \"joe-v2-main/src/libraries/PendingOwnable.sol\":4217:4374  function _setPendingOwner(address pendingOwner_) internal virtual {... */\n    tag_32:\n        /* \"joe-v2-main/src/libraries/PendingOwnable.sol\":4293:4306  _pendingOwner */\n      0x01\n        /* \"joe-v2-main/src/libraries/PendingOwnable.sol\":4293:4322  _pendingOwner = pendingOwner_ */\n      dup1\n      sload\n      not(0xffffffffffffffffffffffffffffffffffffffff)\n      and\n      sub(shl(0xa0, 0x01), 0x01)\n      dup4\n      and\n      swap1\n      dup2\n      or\n      swap1\n      swap2\n      sstore\n        /* \"joe-v2-main/src/libraries/PendingOwnable.sol\":4337:4367  PendingOwnerSet(pendingOwner_) */\n      mload(0x40)\n      0x68f49b346b94582a8b5f9d10e3fe3365318fe8f191ff8dce7c59c6cad06b02f5\n      swap1\n      0x00\n      swap1\n      log2\n        /* \"joe-v2-main/src/libraries/PendingOwnable.sol\":4217:4374  function _setPendingOwner(address pendingOwner_) internal virtual {... */\n      pop\n      jump\t// out\n        /* \"joe-v2-main/src/libraries/PendingOwnable.sol\":3788:4016  function _transferOwnership(address _newOwner) internal virtual {... */\n    tag_37:\n        /* \"joe-v2-main/src/libraries/PendingOwnable.sol\":3862:3879  address _oldOwner */\n      0x00\n        /* \"joe-v2-main/src/libraries/PendingOwnable.sol\":3882:3888  _owner */\n      dup1\n      sload\n      sub(shl(0xa0, 0x01), 0x01)\n        /* \"joe-v2-main/src/libraries/PendingOwnable.sol\":3898:3916  _owner = _newOwner */\n      dup4\n      dup2\n      and\n      not(0xffffffffffffffffffffffffffffffffffffffff)\n      dup1\n      dup5\n      and\n      dup3\n      or\n      dup6\n      sstore\n        /* \"joe-v2-main/src/libraries/PendingOwnable.sol\":3882:3888  _owner */\n      0x01\n        /* \"joe-v2-main/src/libraries/PendingOwnable.sol\":3926:3952  _pendingOwner = address(0) */\n      dup1\n      sload\n      swap1\n      swap2\n      and\n      swap1\n      sstore\n        /* \"joe-v2-main/src/libraries/PendingOwnable.sol\":3967:4009  OwnershipTransferred(_oldOwner, _newOwner) */\n      mload(0x40)\n        /* \"joe-v2-main/src/libraries/PendingOwnable.sol\":3882:3888  _owner */\n      swap2\n      swap1\n      swap3\n      and\n      swap3\n      dup4\n      swap2\n        /* \"joe-v2-main/src/libraries/PendingOwnable.sol\":3967:4009  OwnershipTransferred(_oldOwner, _newOwner) */\n      0x8be0079c531659141344cd1fd0a4f28419497f9722a3daafe3b4186f6b6457e0\n      swap2\n        /* \"joe-v2-main/src/libraries/PendingOwnable.sol\":3862:3879  address _oldOwner */\n      swap1\n        /* \"joe-v2-main/src/libraries/PendingOwnable.sol\":3967:4009  OwnershipTransferred(_oldOwner, _newOwner) */\n      log3\n        /* \"joe-v2-main/src/libraries/PendingOwnable.sol\":3852:4016  {... */\n      pop\n        /* \"joe-v2-main/src/libraries/PendingOwnable.sol\":3788:4016  function _transferOwnership(address _newOwner) internal virtual {... */\n      pop\n      jump\t// out\n        /* \"#utility.yul\":245:554   */\n    tag_20:\n        /* \"#utility.yul\":304:310   */\n      0x00\n        /* \"#utility.yul\":357:359   */\n      0x20\n        /* \"#utility.yul\":345:354   */\n      dup3\n        /* \"#utility.yul\":336:343   */\n      dup5\n        /* \"#utility.yul\":332:355   */\n      sub\n        /* \"#utility.yul\":328:360   */\n      slt\n        /* \"#utility.yul\":325:377   */\n      iszero\n      tag_56\n      jumpi\n        /* \"#utility.yul\":373:374   */\n      0x00\n        /* \"#utility.yul\":370:371   */\n      dup1\n        /* \"#utility.yul\":363:375   */\n      revert\n        /* \"#utility.yul\":325:377   */\n    tag_56:\n        /* \"#utility.yul\":412:421   */\n      dup2\n        /* \"#utility.yul\":399:422   */\n      calldataload\n      sub(shl(0xa0, 0x01), 0x01)\n        /* \"#utility.yul\":455:460   */\n      dup2\n        /* \"#utility.yul\":451:505   */\n      and\n        /* \"#utility.yul\":444:449   */\n      dup2\n        /* \"#utility.yul\":441:506   */\n      eq\n        /* \"#utility.yul\":431:524   */\n      tag_57\n      jumpi\n        /* \"#utility.yul\":520:521   */\n      0x00\n        /* \"#utility.yul\":517:518   */\n      dup1\n        /* \"#utility.yul\":510:522   */\n      revert\n        /* \"#utility.yul\":431:524   */\n    tag_57:\n        /* \"#utility.yul\":543:548   */\n      swap4\n        /* \"#utility.yul\":245:554   */\n      swap3\n      pop\n      pop\n      pop\n      jump\t// out\n\n    auxdata: 0xa26469706673582212205234a4230249e973941d33a7587ee673bfcae54b0a0ba18f01b5d128209d47f664736f6c634300080a0033\n}\n",
				"bytecode": {
					"linkReferences": {},
					"object": "608060405234801561001057600080fd5b5061001a3361001f565b610079565b600080546001600160a01b038381166001600160a01b031980841682178555600180549091169055604051919092169283917f8be0079c531659141344cd1fd0a4f28419497f9722a3daafe3b4186f6b6457e09190a35050565b6103c2806100886000396000f3fe608060405234801561001057600080fd5b50600436106100725760003560e01c8063c42069ec11610050578063c42069ec146100b2578063e30c3978146100c5578063f9dca989146100d657600080fd5b806367ab8a4e14610077578063715018a6146100815780638da5cb5b14610089575b600080fd5b61007f6100de565b005b61007f610157565b6000546001600160a01b03165b6040516001600160a01b03909116815260200160405180910390f35b61007f6100c036600461035c565b61018c565b6001546001600160a01b0316610096565b61007f610246565b6000546001600160a01b0316331461010957604051639f216c1360e01b815260040160405180910390fd5b6001546001600160a01b031661014b576040517fecfad6bf00000000000000000000000000000000000000000000000000000000815260040160405180910390fd5b610155600061029e565b565b6000546001600160a01b0316331461018257604051639f216c1360e01b815260040160405180910390fd5b61015560006102f5565b6000546001600160a01b031633146101b757604051639f216c1360e01b815260040160405180910390fd5b6001600160a01b0381166101f7576040517f91f3851500000000000000000000000000000000000000000000000000000000815260040160405180910390fd5b6001546001600160a01b03161561023a576040517f716b1fbf00000000000000000000000000000000000000000000000000000000815260040160405180910390fd5b6102438161029e565b50565b6001546001600160a01b03163314158061025e575033155b15610295576040517f7304d01200000000000000000000000000000000000000000000000000000000815260040160405180910390fd5b610155336102f5565b6001805473ffffffffffffffffffffffffffffffffffffffff19166001600160a01b0383169081179091556040517f68f49b346b94582a8b5f9d10e3fe3365318fe8f191ff8dce7c59c6cad06b02f590600090a250565b600080546001600160a01b0383811673ffffffffffffffffffffffffffffffffffffffff1980841682178555600180549091169055604051919092169283917f8be0079c531659141344cd1fd0a4f28419497f9722a3daafe3b4186f6b6457e09190a35050565b60006020828403121561036e57600080fd5b81356001600160a01b038116811461038557600080fd5b939250505056fea26469706673582212205234a4230249e973941d33a7587ee673bfcae54b0a0ba18f01b5d128209d47f664736f6c634300080a0033",
					"opcodes": "PUSH1 0x80 PUSH1 0x40 MSTORE CALLVALUE DUP1 ISZERO PUSH2 0x10 JUMPI PUSH1 0x0 DUP1 REVERT JUMPDEST POP PUSH2 0x1A CALLER PUSH2 0x1F JUMP JUMPDEST PUSH2 0x79 JUMP JUMPDEST PUSH1 0x0 DUP1 SLOAD PUSH1 0x1 PUSH1 0x1 PUSH1 0xA0 SHL SUB DUP4 DUP2 AND PUSH1 0x1 PUSH1 0x1 PUSH1 0xA0 SHL SUB NOT DUP1 DUP5 AND DUP3 OR DUP6 SSTORE PUSH1 0x1 DUP1 SLOAD SWAP1 SWAP2 AND SWAP1 SSTORE PUSH1 0x40 MLOAD SWAP2 SWAP1 SWAP3 AND SWAP3 DUP4 SWAP2 PUSH32 0x8BE0079C531659141344CD1FD0A4F28419497F9722A3DAAFE3B4186F6B6457E0 SWAP2 SWAP1 LOG3 POP POP JUMP JUMPDEST PUSH2 0x3C2 DUP1 PUSH2 0x88 PUSH1 0x0 CODECOPY PUSH1 0x0 RETURN INVALID PUSH1 0x80 PUSH1 0x40 MSTORE CALLVALUE DUP1 ISZERO PUSH2 0x10 JUMPI PUSH1 0x0 DUP1 REVERT JUMPDEST POP PUSH1 0x4 CALLDATASIZE LT PUSH2 0x72 JUMPI PUSH1 0x0 CALLDATALOAD PUSH1 0xE0 SHR DUP1 PUSH4 0xC42069EC GT PUSH2 0x50 JUMPI DUP1 PUSH4 0xC42069EC EQ PUSH2 0xB2 JUMPI DUP1 PUSH4 0xE30C3978 EQ PUSH2 0xC5 JUMPI DUP1 PUSH4 0xF9DCA989 EQ PUSH2 0xD6 JUMPI PUSH1 0x0 DUP1 REVERT JUMPDEST DUP1 PUSH4 0x67AB8A4E EQ PUSH2 0x77 JUMPI DUP1 PUSH4 0x715018A6 EQ PUSH2 0x81 JUMPI DUP1 PUSH4 0x8DA5CB5B EQ PUSH2 0x89 JUMPI JUMPDEST PUSH1 0x0 DUP1 REVERT JUMPDEST PUSH2 0x7F PUSH2 0xDE JUMP JUMPDEST STOP JUMPDEST PUSH2 0x7F PUSH2 0x157 JUMP JUMPDEST PUSH1 0x0 SLOAD PUSH1 0x1 PUSH1 0x1 PUSH1 0xA0 SHL SUB AND JUMPDEST PUSH1 0x40 MLOAD PUSH1 0x1 PUSH1 0x1 PUSH1 0xA0 SHL SUB SWAP1 SWAP2 AND DUP2 MSTORE PUSH1 0x20 ADD PUSH1 0x40 MLOAD DUP1 SWAP2 SUB SWAP1 RETURN JUMPDEST PUSH2 0x7F PUSH2 0xC0 CALLDATASIZE PUSH1 0x4 PUSH2 0x35C JUMP JUMPDEST PUSH2 0x18C JUMP JUMPDEST PUSH1 0x1 SLOAD PUSH1 0x1 PUSH1 0x1 PUSH1 0xA0 SHL SUB AND PUSH2 0x96 JUMP JUMPDEST PUSH2 0x7F PUSH2 0x246 JUMP JUMPDEST PUSH1 0x0 SLOAD PUSH1 0x1 PUSH1 0x1 PUSH1 0xA0 SHL SUB AND CALLER EQ PUSH2 0x109 JUMPI PUSH1 0x40 MLOAD PUSH4 0x9F216C13 PUSH1 0xE0 SHL DUP2 MSTORE PUSH1 0x4 ADD PUSH1 0x40 MLOAD DUP1 SWAP2 SUB SWAP1 REVERT JUMPDEST PUSH1 0x1 SLOAD PUSH1 0x1 PUSH1 0x1 PUSH1 0xA0 SHL SUB AND PUSH2 0x14B JUMPI PUSH1 0x40 MLOAD PUSH32 0xECFAD6BF00000000000000000000000000000000000000000000000000000000 DUP2 MSTORE PUSH1 0x4 ADD PUSH1 0x40 MLOAD DUP1 SWAP2 SUB SWAP1 REVERT JUMPDEST PUSH2 0x155 PUSH1 0x0 PUSH2 0x29E JUMP JUMPDEST JUMP JUMPDEST PUSH1 0x0 SLOAD PUSH1 0x1 PUSH1 0x1 PUSH1 0xA0 SHL SUB AND CALLER EQ PUSH2 0x182 JUMPI PUSH1 0x40 MLOAD PUSH4 0x9F216C13 PUSH1 0xE0 SHL DUP2 MSTORE PUSH1 0x4 ADD PUSH1 0x40 MLOAD DUP1 SWAP2 SUB SWAP1 REVERT JUMPDEST PUSH2 0x155 PUSH1 0x0 PUSH2 0x2F5 JUMP JUMPDEST PUSH1 0x0 SLOAD PUSH1 0x1 PUSH1 0x1 PUSH1 0xA0 SHL SUB AND CALLER EQ PUSH2 0x1B7 JUMPI PUSH1 0x40 MLOAD PUSH4 0x9F216C13 PUSH1 0xE0 SHL DUP2 MSTORE PUSH1 0x4 ADD PUSH1 0x40 MLOAD DUP1 SWAP2 SUB SWAP1 REVERT JUMPDEST PUSH1 0x1 PUSH1 0x1 PUSH1 0xA0 SHL SUB DUP2 AND PUSH2 0x1F7 JUMPI PUSH1 0x40 MLOAD PUSH32 0x91F3851500000000000000000000000000000000000000000000000000000000 DUP2 MSTORE PUSH1 0x4 ADD PUSH1 0x40 MLOAD DUP1 SWAP2 SUB SWAP1 REVERT JUMPDEST PUSH1 0x1 SLOAD PUSH1 0x1 PUSH1 0x1 PUSH1 0xA0 SHL SUB AND ISZERO PUSH2 0x23A JUMPI PUSH1 0x40 MLOAD PUSH32 0x716B1FBF00000000000000000000000000000000000000000000000000000000 DUP2 MSTORE PUSH1 0x4 ADD PUSH1 0x40 MLOAD DUP1 SWAP2 SUB SWAP1 REVERT JUMPDEST PUSH2 0x243 DUP2 PUSH2 0x29E JUMP JUMPDEST POP JUMP JUMPDEST PUSH1 0x1 SLOAD PUSH1 0x1 PUSH1 0x1 PUSH1 0xA0 SHL SUB AND CALLER EQ ISZERO DUP1 PUSH2 0x25E JUMPI POP CALLER ISZERO JUMPDEST ISZERO PUSH2 0x295 JUMPI PUSH1 0x40 MLOAD PUSH32 0x7304D01200000000000000000000000000000000000000000000000000000000 DUP2 MSTORE PUSH1 0x4 ADD PUSH1 0x40 MLOAD DUP1 SWAP2 SUB SWAP1 REVERT JUMPDEST PUSH2 0x155 CALLER PUSH2 0x2F5 JUMP JUMPDEST PUSH1 0x1 DUP1 SLOAD PUSH20 0xFFFFFFFFFFFFFFFFFFFFFFFFFFFFFFFFFFFFFFFF NOT AND PUSH1 0x1 PUSH1 0x1 PUSH1 0xA0 SHL SUB DUP4 AND SWAP1 DUP2 OR SWAP1 SWAP2 SSTORE PUSH1 0x40 MLOAD PUSH32 0x68F49B346B94582A8B5F9D10E3FE3365318FE8F191FF8DCE7C59C6CAD06B02F5 SWAP1 PUSH1 0x0 SWAP1 LOG2 POP JUMP JUMPDEST PUSH1 0x0 DUP1 SLOAD PUSH1 0x1 PUSH1 0x1 PUSH1 0xA0 SHL SUB DUP4 DUP2 AND PUSH20 0xFFFFFFFFFFFFFFFFFFFFFFFFFFFFFFFFFFFFFFFF NOT DUP1 DUP5 AND DUP3 OR DUP6 SSTORE PUSH1 0x1 DUP1 SLOAD SWAP1 SWAP2 AND SWAP1 SSTORE PUSH1 0x40 MLOAD SWAP2 SWAP1 SWAP3 AND SWAP3 DUP4 SWAP2 PUSH32 0x8BE0079C531659141344CD1FD0A4F28419497F9722A3DAAFE3B4186F6B6457E0 SWAP2 SWAP1 LOG3 POP POP JUMP JUMPDEST PUSH1 0x0 PUSH1 0x20 DUP3 DUP5 SUB SLT ISZERO PUSH2 0x36E JUMPI PUSH1 0x0 DUP1 REVERT JUMPDEST DUP2 CALLDATALOAD PUSH1 0x1 PUSH1 0x1 PUSH1 0xA0 SHL SUB DUP2 AND DUP2 EQ PUSH2 0x385 JUMPI PUSH1 0x0 DUP1 REVERT JUMPDEST SWAP4 SWAP3 POP POP POP JUMP INVALID LOG2 PUSH5 0x6970667358 0x22 SLT KECCAK256 MSTORE CALLVALUE LOG4 0x23 MUL 0x49 0xE9 PUSH20 0x941D33A7587EE673BFCAE54B0A0BA18F01B5D128 KECCAK256 SWAP14 SELFBALANCE 0xF6 PUSH5 0x736F6C6343 STOP ADDMOD EXP STOP CALLER "
				},
				"gasEstimates": {
					"creation": {
						"codeDepositCost": "192400",
						"executionCost": "50300",
						"totalCost": "242700"
					},
					"external": {
						"becomeOwner()": "52396",
						"owner()": "2353",
						"pendingOwner()": "2341",
						"renounceOwnership()": "52346",
						"revokePendingOwner()": "29843",
						"setPendingOwner(address)": "30005"
					},
					"internal": {
						"_setPendingOwner(address)": "25414",
						"_transferOwnership(address)": "50030"
					}
				},
				"methodIdentifiers": {
					"becomeOwner()": "f9dca989",
					"owner()": "8da5cb5b",
					"pendingOwner()": "e30c3978",
					"renounceOwnership()": "715018a6",
					"revokePendingOwner()": "67ab8a4e",
					"setPendingOwner(address)": "c42069ec"
				}
			},
			"storageLayout": {
				"storage": [
					{
						"astId": 3719,
						"contract": "joe-v2-main/src/libraries/PendingOwnable.sol:PendingOwnable",
						"label": "_owner",
						"offset": 0,
						"slot": "0",
						"type": "t_address"
					},
					{
						"astId": 3721,
						"contract": "joe-v2-main/src/libraries/PendingOwnable.sol:PendingOwnable",
						"label": "_pendingOwner",
						"offset": 0,
						"slot": "1",
						"type": "t_address"
					}
				],
				"types": {
					"t_address": {
						"encoding": "inplace",
						"label": "address",
						"numberOfBytes": "20"
					}
				}
			},
			"userdoc": {
				"errors": {
					"PendingOwnable__NotOwner()": [
						{
							"notice": "PendingOwnable errors "
						}
					]
				},
				"kind": "user",
				"methods": {
					"becomeOwner()": {
						"notice": "Transfers the ownership to the new owner (`pendingOwner). Can only be called by the pending owner"
					},
					"constructor": {
						"notice": "Initializes the contract setting the deployer as the initial owner"
					},
					"owner()": {
						"notice": "Returns the address of the current owner"
					},
					"pendingOwner()": {
						"notice": "Returns the address of the current pending owner"
					},
					"renounceOwnership()": {
						"notice": "Leaves the contract without owner. It will not be possible to call `onlyOwner` functions anymore. Can only be called by the current owner. NOTE: Renouncing ownership will leave the contract without an owner, thereby removing any functionality that is only available to the owner."
					},
					"revokePendingOwner()": {
						"notice": "Revoke the pending owner address. This address will not be able to call {becomeOwner} to become the owner anymore. Can only be called by the owner"
					},
					"setPendingOwner(address)": {
						"notice": "Sets the pending owner address. This address will be able to become the owner of this contract by calling {becomeOwner}"
					}
				},
				"notice": "Contract module which provides a basic access control mechanism, where there is an account (an owner) that can be granted exclusive access to specific functions. The ownership of this contract is transferred using the push and pull pattern, the current owner set a `pendingOwner` using {setPendingOwner} and that address can then call {becomeOwner} to become the owner of that contract. The main logic and comments comes from OpenZeppelin's Ownable contract. By default, the owner account will be the one that deploys the contract. This can later be changed with {setPendingOwner} and {becomeOwner}. This module is used through inheritance. It will make available the modifier `onlyOwner`, which can be applied to your functions to restrict their use to the owner",
				"version": 1
			}
		}
	}
}