{
	"Midas/joe-v2-main/src/libraries/PendingOwnable.sol": {
		"PendingOwnable": {
			"abi": [
				{
					"inputs": [],
					"stateMutability": "nonpayable",
					"type": "constructor"
				},
				{
					"inputs": [],
					"name": "PendingOwnable__AddressZero",
					"type": "error"
				},
				{
					"inputs": [],
					"name": "PendingOwnable__NoPendingOwner",
					"type": "error"
				},
				{
					"inputs": [],
					"name": "PendingOwnable__NotOwner",
					"type": "error"
				},
				{
					"inputs": [],
					"name": "PendingOwnable__NotPendingOwner",
					"type": "error"
				},
				{
					"inputs": [],
					"name": "PendingOwnable__PendingOwnerAlreadySet",
					"type": "error"
				},
				{
					"anonymous": false,
					"inputs": [
						{
							"indexed": true,
							"internalType": "address",
							"name": "previousOwner",
							"type": "address"
						},
						{
							"indexed": true,
							"internalType": "address",
							"name": "newOwner",
							"type": "address"
						}
					],
					"name": "OwnershipTransferred",
					"type": "event"
				},
				{
					"anonymous": false,
					"inputs": [
						{
							"indexed": true,
							"internalType": "address",
							"name": "pendingOwner",
							"type": "address"
						}
					],
					"name": "PendingOwnerSet",
					"type": "event"
				},
				{
					"inputs": [],
					"name": "becomeOwner",
					"outputs": [],
					"stateMutability": "nonpayable",
					"type": "function"
				},
				{
					"inputs": [],
					"name": "owner",
					"outputs": [
						{
							"internalType": "address",
							"name": "",
							"type": "address"
						}
					],
					"stateMutability": "view",
					"type": "function"
				},
				{
					"inputs": [],
					"name": "pendingOwner",
					"outputs": [
						{
							"internalType": "address",
							"name": "",
							"type": "address"
						}
					],
					"stateMutability": "view",
					"type": "function"
				},
				{
					"inputs": [],
					"name": "renounceOwnership",
					"outputs": [],
					"stateMutability": "nonpayable",
					"type": "function"
				},
				{
					"inputs": [],
					"name": "revokePendingOwner",
					"outputs": [],
					"stateMutability": "nonpayable",
					"type": "function"
				},
				{
					"inputs": [
						{
							"internalType": "address",
							"name": "pendingOwner_",
							"type": "address"
						}
					],
					"name": "setPendingOwner",
					"outputs": [],
					"stateMutability": "nonpayable",
					"type": "function"
				}
			],
			"devdoc": {
				"author": "Trader Joe",
				"kind": "dev",
				"methods": {
					"owner()": {
						"returns": {
							"_0": "The address of the current owner"
						}
					},
					"pendingOwner()": {
						"returns": {
							"_0": "The address of the current pending owner"
						}
					}
				},
				"title": "Pending Ownable",
				"version": 1
			},
			"evm": {
				"assembly": "    /* \"Midas/joe-v2-main/src/libraries/PendingOwnable.sol\":1007:4376  contract PendingOwnable is IPendingOwnable {... */\n  mstore(0x40, 0x80)\n    /* \"Midas/joe-v2-main/src/libraries/PendingOwnable.sol\":1628:1689  constructor() {... */\n  callvalue\n  dup1\n  iszero\n  tag_1\n  jumpi\n  0x00\n  dup1\n  revert\ntag_1:\n  pop\n    /* \"Midas/joe-v2-main/src/libraries/PendingOwnable.sol\":1652:1682  _transferOwnership(msg.sender) */\n  tag_4\n    /* \"Midas/joe-v2-main/src/libraries/PendingOwnable.sol\":1671:1681  msg.sender */\n  caller\n    /* \"Midas/joe-v2-main/src/libraries/PendingOwnable.sol\":1652:1670  _transferOwnership */\n  shl(0x20, tag_5)\n    /* \"Midas/joe-v2-main/src/libraries/PendingOwnable.sol\":1652:1682  _transferOwnership(msg.sender) */\n  0x20\n  shr\n  jump\t// in\ntag_4:\n    /* \"Midas/joe-v2-main/src/libraries/PendingOwnable.sol\":1007:4376  contract PendingOwnable is IPendingOwnable {... */\n  jump(tag_6)\n    /* \"Midas/joe-v2-main/src/libraries/PendingOwnable.sol\":3788:4016  function _transferOwnership(address _newOwner) internal virtual {... */\ntag_5:\n    /* \"Midas/joe-v2-main/src/libraries/PendingOwnable.sol\":3862:3879  address _oldOwner */\n  0x00\n    /* \"Midas/joe-v2-main/src/libraries/PendingOwnable.sol\":3882:3888  _owner */\n  dup1\n  0x00\n  swap1\n  sload\n  swap1\n  0x0100\n  exp\n  swap1\n  div\n  0xffffffffffffffffffffffffffffffffffffffff\n  and\n    /* \"Midas/joe-v2-main/src/libraries/PendingOwnable.sol\":3862:3888  address _oldOwner = _owner */\n  swap1\n  pop\n    /* \"Midas/joe-v2-main/src/libraries/PendingOwnable.sol\":3907:3916  _newOwner */\n  dup2\n    /* \"Midas/joe-v2-main/src/libraries/PendingOwnable.sol\":3898:3904  _owner */\n  0x00\n  dup1\n    /* \"Midas/joe-v2-main/src/libraries/PendingOwnable.sol\":3898:3916  _owner = _newOwner */\n  0x0100\n  exp\n  dup2\n  sload\n  dup2\n  0xffffffffffffffffffffffffffffffffffffffff\n  mul\n  not\n  and\n  swap1\n  dup4\n  0xffffffffffffffffffffffffffffffffffffffff\n  and\n  mul\n  or\n  swap1\n  sstore\n  pop\n    /* \"Midas/joe-v2-main/src/libraries/PendingOwnable.sol\":3950:3951  0 */\n  0x00\n    /* \"Midas/joe-v2-main/src/libraries/PendingOwnable.sol\":3926:3939  _pendingOwner */\n  0x01\n  0x00\n    /* \"Midas/joe-v2-main/src/libraries/PendingOwnable.sol\":3926:3952  _pendingOwner = address(0) */\n  0x0100\n  exp\n  dup2\n  sload\n  dup2\n  0xffffffffffffffffffffffffffffffffffffffff\n  mul\n  not\n  and\n  swap1\n  dup4\n  0xffffffffffffffffffffffffffffffffffffffff\n  and\n  mul\n  or\n  swap1\n  sstore\n  pop\n    /* \"Midas/joe-v2-main/src/libraries/PendingOwnable.sol\":3999:4008  _newOwner */\n  dup2\n    /* \"Midas/joe-v2-main/src/libraries/PendingOwnable.sol\":3967:4009  OwnershipTransferred(_oldOwner, _newOwner) */\n  0xffffffffffffffffffffffffffffffffffffffff\n  and\n    /* \"Midas/joe-v2-main/src/libraries/PendingOwnable.sol\":3988:3997  _oldOwner */\n  dup2\n    /* \"Midas/joe-v2-main/src/libraries/PendingOwnable.sol\":3967:4009  OwnershipTransferred(_oldOwner, _newOwner) */\n  0xffffffffffffffffffffffffffffffffffffffff\n  and\n  0x8be0079c531659141344cd1fd0a4f28419497f9722a3daafe3b4186f6b6457e0\n  mload(0x40)\n  mload(0x40)\n  dup1\n  swap2\n  sub\n  swap1\n  log3\n    /* \"Midas/joe-v2-main/src/libraries/PendingOwnable.sol\":3852:4016  {... */\n  pop\n    /* \"Midas/joe-v2-main/src/libraries/PendingOwnable.sol\":3788:4016  function _transferOwnership(address _newOwner) internal virtual {... */\n  pop\n  jump\t// out\n    /* \"Midas/joe-v2-main/src/libraries/PendingOwnable.sol\":1007:4376  contract PendingOwnable is IPendingOwnable {... */\ntag_6:\n  dataSize(sub_0)\n  dup1\n  dataOffset(sub_0)\n  0x00\n  codecopy\n  0x00\n  return\nstop\n\nsub_0: assembly {\n        /* \"Midas/joe-v2-main/src/libraries/PendingOwnable.sol\":1007:4376  contract PendingOwnable is IPendingOwnable {... */\n      mstore(0x40, 0x80)\n      callvalue\n      dup1\n      iszero\n      tag_1\n      jumpi\n      0x00\n      dup1\n      revert\n    tag_1:\n      pop\n      jumpi(tag_2, lt(calldatasize, 0x04))\n      shr(0xe0, calldataload(0x00))\n      dup1\n      0x67ab8a4e\n      eq\n      tag_3\n      jumpi\n      dup1\n      0x715018a6\n      eq\n      tag_4\n      jumpi\n      dup1\n      0x8da5cb5b\n      eq\n      tag_5\n      jumpi\n      dup1\n      0xc42069ec\n      eq\n      tag_6\n      jumpi\n      dup1\n      0xe30c3978\n      eq\n      tag_7\n      jumpi\n      dup1\n      0xf9dca989\n      eq\n      tag_8\n      jumpi\n    tag_2:\n      0x00\n      dup1\n      revert\n        /* \"Midas/joe-v2-main/src/libraries/PendingOwnable.sol\":2741:2924  function revokePendingOwner() public override onlyOwner {... */\n    tag_3:\n      tag_9\n      tag_10\n      jump\t// in\n    tag_9:\n      stop\n        /* \"Midas/joe-v2-main/src/libraries/PendingOwnable.sol\":3489:3591  function renounceOwnership() public override onlyOwner {... */\n    tag_4:\n      tag_11\n      tag_12\n      jump\t// in\n    tag_11:\n      stop\n        /* \"Midas/joe-v2-main/src/libraries/PendingOwnable.sol\":1801:1887  function owner() public view override returns (address) {... */\n    tag_5:\n      tag_13\n      tag_14\n      jump\t// in\n    tag_13:\n      mload(0x40)\n      tag_15\n      swap2\n      swap1\n      tag_16\n      jump\t// in\n    tag_15:\n      mload(0x40)\n      dup1\n      swap2\n      sub\n      swap1\n      return\n        /* \"Midas/joe-v2-main/src/libraries/PendingOwnable.sol\":2265:2556  function setPendingOwner(address pendingOwner_) public override onlyOwner {... */\n    tag_6:\n      tag_17\n      0x04\n      dup1\n      calldatasize\n      sub\n      dup2\n      add\n      swap1\n      tag_18\n      swap2\n      swap1\n      tag_19\n      jump\t// in\n    tag_18:\n      tag_20\n      jump\t// in\n    tag_17:\n      stop\n        /* \"Midas/joe-v2-main/src/libraries/PendingOwnable.sol\":2015:2115  function pendingOwner() public view override returns (address) {... */\n    tag_7:\n      tag_21\n      tag_22\n      jump\t// in\n    tag_21:\n      mload(0x40)\n      tag_23\n      swap2\n      swap1\n      tag_16\n      jump\t// in\n    tag_23:\n      mload(0x40)\n      dup1\n      swap2\n      sub\n      swap1\n      return\n        /* \"Midas/joe-v2-main/src/libraries/PendingOwnable.sol\":3052:3155  function becomeOwner() public override onlyPendingOwner {... */\n    tag_8:\n      tag_24\n      tag_25\n      jump\t// in\n    tag_24:\n      stop\n        /* \"Midas/joe-v2-main/src/libraries/PendingOwnable.sol\":2741:2924  function revokePendingOwner() public override onlyOwner {... */\n    tag_10:\n        /* \"Midas/joe-v2-main/src/libraries/PendingOwnable.sol\":1239:1245  _owner */\n      0x00\n      dup1\n      sload\n      swap1\n      0x0100\n      exp\n      swap1\n      div\n      0xffffffffffffffffffffffffffffffffffffffff\n      and\n        /* \"Midas/joe-v2-main/src/libraries/PendingOwnable.sol\":1225:1245  msg.sender != _owner */\n      0xffffffffffffffffffffffffffffffffffffffff\n      and\n        /* \"Midas/joe-v2-main/src/libraries/PendingOwnable.sol\":1225:1235  msg.sender */\n      caller\n        /* \"Midas/joe-v2-main/src/libraries/PendingOwnable.sol\":1225:1245  msg.sender != _owner */\n      0xffffffffffffffffffffffffffffffffffffffff\n      and\n      eq\n        /* \"Midas/joe-v2-main/src/libraries/PendingOwnable.sol\":1221:1280  if (msg.sender != _owner) revert PendingOwnable__NotOwner() */\n      tag_27\n      jumpi\n        /* \"Midas/joe-v2-main/src/libraries/PendingOwnable.sol\":1254:1280  PendingOwnable__NotOwner() */\n      mload(0x40)\n      0x9f216c1300000000000000000000000000000000000000000000000000000000\n      dup2\n      mstore\n      0x04\n      add\n      mload(0x40)\n      dup1\n      swap2\n      sub\n      swap1\n      revert\n        /* \"Midas/joe-v2-main/src/libraries/PendingOwnable.sol\":1221:1280  if (msg.sender != _owner) revert PendingOwnable__NotOwner() */\n    tag_27:\n        /* \"Midas/joe-v2-main/src/libraries/PendingOwnable.sol\":2836:2837  0 */\n      0x00\n        /* \"Midas/joe-v2-main/src/libraries/PendingOwnable.sol\":2811:2838  _pendingOwner == address(0) */\n      0xffffffffffffffffffffffffffffffffffffffff\n      and\n        /* \"Midas/joe-v2-main/src/libraries/PendingOwnable.sol\":2811:2824  _pendingOwner */\n      0x01\n      0x00\n      swap1\n      sload\n      swap1\n      0x0100\n      exp\n      swap1\n      div\n      0xffffffffffffffffffffffffffffffffffffffff\n      and\n        /* \"Midas/joe-v2-main/src/libraries/PendingOwnable.sol\":2811:2838  _pendingOwner == address(0) */\n      0xffffffffffffffffffffffffffffffffffffffff\n      and\n      eq\n        /* \"Midas/joe-v2-main/src/libraries/PendingOwnable.sol\":2807:2879  if (_pendingOwner == address(0)) revert PendingOwnable__NoPendingOwner() */\n      iszero\n      tag_29\n      jumpi\n        /* \"Midas/joe-v2-main/src/libraries/PendingOwnable.sol\":2847:2879  PendingOwnable__NoPendingOwner() */\n      mload(0x40)\n      0xecfad6bf00000000000000000000000000000000000000000000000000000000\n      dup2\n      mstore\n      0x04\n      add\n      mload(0x40)\n      dup1\n      swap2\n      sub\n      swap1\n      revert\n        /* \"Midas/joe-v2-main/src/libraries/PendingOwnable.sol\":2807:2879  if (_pendingOwner == address(0)) revert PendingOwnable__NoPendingOwner() */\n    tag_29:\n        /* \"Midas/joe-v2-main/src/libraries/PendingOwnable.sol\":2889:2917  _setPendingOwner(address(0)) */\n      tag_30\n        /* \"Midas/joe-v2-main/src/libraries/PendingOwnable.sol\":2914:2915  0 */\n      0x00\n        /* \"Midas/joe-v2-main/src/libraries/PendingOwnable.sol\":2889:2905  _setPendingOwner */\n      tag_31\n        /* \"Midas/joe-v2-main/src/libraries/PendingOwnable.sol\":2889:2917  _setPendingOwner(address(0)) */\n      jump\t// in\n    tag_30:\n        /* \"Midas/joe-v2-main/src/libraries/PendingOwnable.sol\":2741:2924  function revokePendingOwner() public override onlyOwner {... */\n      jump\t// out\n        /* \"Midas/joe-v2-main/src/libraries/PendingOwnable.sol\":3489:3591  function renounceOwnership() public override onlyOwner {... */\n    tag_12:\n        /* \"Midas/joe-v2-main/src/libraries/PendingOwnable.sol\":1239:1245  _owner */\n      0x00\n      dup1\n      sload\n      swap1\n      0x0100\n      exp\n      swap1\n      div\n      0xffffffffffffffffffffffffffffffffffffffff\n      and\n        /* \"Midas/joe-v2-main/src/libraries/PendingOwnable.sol\":1225:1245  msg.sender != _owner */\n      0xffffffffffffffffffffffffffffffffffffffff\n      and\n        /* \"Midas/joe-v2-main/src/libraries/PendingOwnable.sol\":1225:1235  msg.sender */\n      caller\n        /* \"Midas/joe-v2-main/src/libraries/PendingOwnable.sol\":1225:1245  msg.sender != _owner */\n      0xffffffffffffffffffffffffffffffffffffffff\n      and\n      eq\n        /* \"Midas/joe-v2-main/src/libraries/PendingOwnable.sol\":1221:1280  if (msg.sender != _owner) revert PendingOwnable__NotOwner() */\n      tag_33\n      jumpi\n        /* \"Midas/joe-v2-main/src/libraries/PendingOwnable.sol\":1254:1280  PendingOwnable__NotOwner() */\n      mload(0x40)\n      0x9f216c1300000000000000000000000000000000000000000000000000000000\n      dup2\n      mstore\n      0x04\n      add\n      mload(0x40)\n      dup1\n      swap2\n      sub\n      swap1\n      revert\n        /* \"Midas/joe-v2-main/src/libraries/PendingOwnable.sol\":1221:1280  if (msg.sender != _owner) revert PendingOwnable__NotOwner() */\n    tag_33:\n        /* \"Midas/joe-v2-main/src/libraries/PendingOwnable.sol\":3554:3584  _transferOwnership(address(0)) */\n      tag_35\n        /* \"Midas/joe-v2-main/src/libraries/PendingOwnable.sol\":3581:3582  0 */\n      0x00\n        /* \"Midas/joe-v2-main/src/libraries/PendingOwnable.sol\":3554:3572  _transferOwnership */\n      tag_36\n        /* \"Midas/joe-v2-main/src/libraries/PendingOwnable.sol\":3554:3584  _transferOwnership(address(0)) */\n      jump\t// in\n    tag_35:\n        /* \"Midas/joe-v2-main/src/libraries/PendingOwnable.sol\":3489:3591  function renounceOwnership() public override onlyOwner {... */\n      jump\t// out\n        /* \"Midas/joe-v2-main/src/libraries/PendingOwnable.sol\":1801:1887  function owner() public view override returns (address) {... */\n    tag_14:\n        /* \"Midas/joe-v2-main/src/libraries/PendingOwnable.sol\":1848:1855  address */\n      0x00\n        /* \"Midas/joe-v2-main/src/libraries/PendingOwnable.sol\":1874:1880  _owner */\n      dup1\n      0x00\n      swap1\n      sload\n      swap1\n      0x0100\n      exp\n      swap1\n      div\n      0xffffffffffffffffffffffffffffffffffffffff\n      and\n        /* \"Midas/joe-v2-main/src/libraries/PendingOwnable.sol\":1867:1880  return _owner */\n      swap1\n      pop\n        /* \"Midas/joe-v2-main/src/libraries/PendingOwnable.sol\":1801:1887  function owner() public view override returns (address) {... */\n      swap1\n      jump\t// out\n        /* \"Midas/joe-v2-main/src/libraries/PendingOwnable.sol\":2265:2556  function setPendingOwner(address pendingOwner_) public override onlyOwner {... */\n    tag_20:\n        /* \"Midas/joe-v2-main/src/libraries/PendingOwnable.sol\":1239:1245  _owner */\n      0x00\n      dup1\n      sload\n      swap1\n      0x0100\n      exp\n      swap1\n      div\n      0xffffffffffffffffffffffffffffffffffffffff\n      and\n        /* \"Midas/joe-v2-main/src/libraries/PendingOwnable.sol\":1225:1245  msg.sender != _owner */\n      0xffffffffffffffffffffffffffffffffffffffff\n      and\n        /* \"Midas/joe-v2-main/src/libraries/PendingOwnable.sol\":1225:1235  msg.sender */\n      caller\n        /* \"Midas/joe-v2-main/src/libraries/PendingOwnable.sol\":1225:1245  msg.sender != _owner */\n      0xffffffffffffffffffffffffffffffffffffffff\n      and\n      eq\n        /* \"Midas/joe-v2-main/src/libraries/PendingOwnable.sol\":1221:1280  if (msg.sender != _owner) revert PendingOwnable__NotOwner() */\n      tag_39\n      jumpi\n        /* \"Midas/joe-v2-main/src/libraries/PendingOwnable.sol\":1254:1280  PendingOwnable__NotOwner() */\n      mload(0x40)\n      0x9f216c1300000000000000000000000000000000000000000000000000000000\n      dup2\n      mstore\n      0x04\n      add\n      mload(0x40)\n      dup1\n      swap2\n      sub\n      swap1\n      revert\n        /* \"Midas/joe-v2-main/src/libraries/PendingOwnable.sol\":1221:1280  if (msg.sender != _owner) revert PendingOwnable__NotOwner() */\n    tag_39:\n        /* \"Midas/joe-v2-main/src/libraries/PendingOwnable.sol\":2378:2379  0 */\n      0x00\n        /* \"Midas/joe-v2-main/src/libraries/PendingOwnable.sol\":2353:2380  pendingOwner_ == address(0) */\n      0xffffffffffffffffffffffffffffffffffffffff\n      and\n        /* \"Midas/joe-v2-main/src/libraries/PendingOwnable.sol\":2353:2366  pendingOwner_ */\n      dup2\n        /* \"Midas/joe-v2-main/src/libraries/PendingOwnable.sol\":2353:2380  pendingOwner_ == address(0) */\n      0xffffffffffffffffffffffffffffffffffffffff\n      and\n      eq\n        /* \"Midas/joe-v2-main/src/libraries/PendingOwnable.sol\":2349:2418  if (pendingOwner_ == address(0)) revert PendingOwnable__AddressZero() */\n      iszero\n      tag_41\n      jumpi\n        /* \"Midas/joe-v2-main/src/libraries/PendingOwnable.sol\":2389:2418  PendingOwnable__AddressZero() */\n      mload(0x40)\n      0x91f3851500000000000000000000000000000000000000000000000000000000\n      dup2\n      mstore\n      0x04\n      add\n      mload(0x40)\n      dup1\n      swap2\n      sub\n      swap1\n      revert\n        /* \"Midas/joe-v2-main/src/libraries/PendingOwnable.sol\":2349:2418  if (pendingOwner_ == address(0)) revert PendingOwnable__AddressZero() */\n    tag_41:\n        /* \"Midas/joe-v2-main/src/libraries/PendingOwnable.sol\":2457:2458  0 */\n      0x00\n        /* \"Midas/joe-v2-main/src/libraries/PendingOwnable.sol\":2432:2459  _pendingOwner != address(0) */\n      0xffffffffffffffffffffffffffffffffffffffff\n      and\n        /* \"Midas/joe-v2-main/src/libraries/PendingOwnable.sol\":2432:2445  _pendingOwner */\n      0x01\n      0x00\n      swap1\n      sload\n      swap1\n      0x0100\n      exp\n      swap1\n      div\n      0xffffffffffffffffffffffffffffffffffffffff\n      and\n        /* \"Midas/joe-v2-main/src/libraries/PendingOwnable.sol\":2432:2459  _pendingOwner != address(0) */\n      0xffffffffffffffffffffffffffffffffffffffff\n      and\n      eq\n        /* \"Midas/joe-v2-main/src/libraries/PendingOwnable.sol\":2428:2508  if (_pendingOwner != address(0)) revert PendingOwnable__PendingOwnerAlreadySet() */\n      tag_42\n      jumpi\n        /* \"Midas/joe-v2-main/src/libraries/PendingOwnable.sol\":2468:2508  PendingOwnable__PendingOwnerAlreadySet() */\n      mload(0x40)\n      0x716b1fbf00000000000000000000000000000000000000000000000000000000\n      dup2\n      mstore\n      0x04\n      add\n      mload(0x40)\n      dup1\n      swap2\n      sub\n      swap1\n      revert\n        /* \"Midas/joe-v2-main/src/libraries/PendingOwnable.sol\":2428:2508  if (_pendingOwner != address(0)) revert PendingOwnable__PendingOwnerAlreadySet() */\n    tag_42:\n        /* \"Midas/joe-v2-main/src/libraries/PendingOwnable.sol\":2518:2549  _setPendingOwner(pendingOwner_) */\n      tag_43\n        /* \"Midas/joe-v2-main/src/libraries/PendingOwnable.sol\":2535:2548  pendingOwner_ */\n      dup2\n        /* \"Midas/joe-v2-main/src/libraries/PendingOwnable.sol\":2518:2534  _setPendingOwner */\n      tag_31\n        /* \"Midas/joe-v2-main/src/libraries/PendingOwnable.sol\":2518:2549  _setPendingOwner(pendingOwner_) */\n      jump\t// in\n    tag_43:\n        /* \"Midas/joe-v2-main/src/libraries/PendingOwnable.sol\":2265:2556  function setPendingOwner(address pendingOwner_) public override onlyOwner {... */\n      pop\n      jump\t// out\n        /* \"Midas/joe-v2-main/src/libraries/PendingOwnable.sol\":2015:2115  function pendingOwner() public view override returns (address) {... */\n    tag_22:\n        /* \"Midas/joe-v2-main/src/libraries/PendingOwnable.sol\":2069:2076  address */\n      0x00\n        /* \"Midas/joe-v2-main/src/libraries/PendingOwnable.sol\":2095:2108  _pendingOwner */\n      0x01\n      0x00\n      swap1\n      sload\n      swap1\n      0x0100\n      exp\n      swap1\n      div\n      0xffffffffffffffffffffffffffffffffffffffff\n      and\n        /* \"Midas/joe-v2-main/src/libraries/PendingOwnable.sol\":2088:2108  return _pendingOwner */\n      swap1\n      pop\n        /* \"Midas/joe-v2-main/src/libraries/PendingOwnable.sol\":2015:2115  function pendingOwner() public view override returns (address) {... */\n      swap1\n      jump\t// out\n        /* \"Midas/joe-v2-main/src/libraries/PendingOwnable.sol\":3052:3155  function becomeOwner() public override onlyPendingOwner {... */\n    tag_25:\n        /* \"Midas/joe-v2-main/src/libraries/PendingOwnable.sol\":1438:1451  _pendingOwner */\n      0x01\n      0x00\n      swap1\n      sload\n      swap1\n      0x0100\n      exp\n      swap1\n      div\n      0xffffffffffffffffffffffffffffffffffffffff\n      and\n        /* \"Midas/joe-v2-main/src/libraries/PendingOwnable.sol\":1424:1451  msg.sender != _pendingOwner */\n      0xffffffffffffffffffffffffffffffffffffffff\n      and\n        /* \"Midas/joe-v2-main/src/libraries/PendingOwnable.sol\":1424:1434  msg.sender */\n      caller\n        /* \"Midas/joe-v2-main/src/libraries/PendingOwnable.sol\":1424:1451  msg.sender != _pendingOwner */\n      0xffffffffffffffffffffffffffffffffffffffff\n      and\n      eq\n      iszero\n        /* \"Midas/joe-v2-main/src/libraries/PendingOwnable.sol\":1424:1479  msg.sender != _pendingOwner || msg.sender == address(0) */\n      dup1\n      tag_46\n      jumpi\n      pop\n        /* \"Midas/joe-v2-main/src/libraries/PendingOwnable.sol\":1477:1478  0 */\n      0x00\n        /* \"Midas/joe-v2-main/src/libraries/PendingOwnable.sol\":1455:1479  msg.sender == address(0) */\n      0xffffffffffffffffffffffffffffffffffffffff\n      and\n        /* \"Midas/joe-v2-main/src/libraries/PendingOwnable.sol\":1455:1465  msg.sender */\n      caller\n        /* \"Midas/joe-v2-main/src/libraries/PendingOwnable.sol\":1455:1479  msg.sender == address(0) */\n      0xffffffffffffffffffffffffffffffffffffffff\n      and\n      eq\n        /* \"Midas/joe-v2-main/src/libraries/PendingOwnable.sol\":1424:1479  msg.sender != _pendingOwner || msg.sender == address(0) */\n    tag_46:\n        /* \"Midas/joe-v2-main/src/libraries/PendingOwnable.sol\":1420:1521  if (msg.sender != _pendingOwner || msg.sender == address(0)) revert PendingOwnable__NotPendingOwner() */\n      iszero\n      tag_47\n      jumpi\n        /* \"Midas/joe-v2-main/src/libraries/PendingOwnable.sol\":1488:1521  PendingOwnable__NotPendingOwner() */\n      mload(0x40)\n      0x7304d01200000000000000000000000000000000000000000000000000000000\n      dup2\n      mstore\n      0x04\n      add\n      mload(0x40)\n      dup1\n      swap2\n      sub\n      swap1\n      revert\n        /* \"Midas/joe-v2-main/src/libraries/PendingOwnable.sol\":1420:1521  if (msg.sender != _pendingOwner || msg.sender == address(0)) revert PendingOwnable__NotPendingOwner() */\n    tag_47:\n        /* \"Midas/joe-v2-main/src/libraries/PendingOwnable.sol\":3118:3148  _transferOwnership(msg.sender) */\n      tag_49\n        /* \"Midas/joe-v2-main/src/libraries/PendingOwnable.sol\":3137:3147  msg.sender */\n      caller\n        /* \"Midas/joe-v2-main/src/libraries/PendingOwnable.sol\":3118:3136  _transferOwnership */\n      tag_36\n        /* \"Midas/joe-v2-main/src/libraries/PendingOwnable.sol\":3118:3148  _transferOwnership(msg.sender) */\n      jump\t// in\n    tag_49:\n        /* \"Midas/joe-v2-main/src/libraries/PendingOwnable.sol\":3052:3155  function becomeOwner() public override onlyPendingOwner {... */\n      jump\t// out\n        /* \"Midas/joe-v2-main/src/libraries/PendingOwnable.sol\":4217:4374  function _setPendingOwner(address pendingOwner_) internal virtual {... */\n    tag_31:\n        /* \"Midas/joe-v2-main/src/libraries/PendingOwnable.sol\":4309:4322  pendingOwner_ */\n      dup1\n        /* \"Midas/joe-v2-main/src/libraries/PendingOwnable.sol\":4293:4306  _pendingOwner */\n      0x01\n      0x00\n        /* \"Midas/joe-v2-main/src/libraries/PendingOwnable.sol\":4293:4322  _pendingOwner = pendingOwner_ */\n      0x0100\n      exp\n      dup2\n      sload\n      dup2\n      0xffffffffffffffffffffffffffffffffffffffff\n      mul\n      not\n      and\n      swap1\n      dup4\n      0xffffffffffffffffffffffffffffffffffffffff\n      and\n      mul\n      or\n      swap1\n      sstore\n      pop\n        /* \"Midas/joe-v2-main/src/libraries/PendingOwnable.sol\":4353:4366  pendingOwner_ */\n      dup1\n        /* \"Midas/joe-v2-main/src/libraries/PendingOwnable.sol\":4337:4367  PendingOwnerSet(pendingOwner_) */\n      0xffffffffffffffffffffffffffffffffffffffff\n      and\n      0x68f49b346b94582a8b5f9d10e3fe3365318fe8f191ff8dce7c59c6cad06b02f5\n      mload(0x40)\n      mload(0x40)\n      dup1\n      swap2\n      sub\n      swap1\n      log2\n        /* \"Midas/joe-v2-main/src/libraries/PendingOwnable.sol\":4217:4374  function _setPendingOwner(address pendingOwner_) internal virtual {... */\n      pop\n      jump\t// out\n        /* \"Midas/joe-v2-main/src/libraries/PendingOwnable.sol\":3788:4016  function _transferOwnership(address _newOwner) internal virtual {... */\n    tag_36:\n        /* \"Midas/joe-v2-main/src/libraries/PendingOwnable.sol\":3862:3879  address _oldOwner */\n      0x00\n        /* \"Midas/joe-v2-main/src/libraries/PendingOwnable.sol\":3882:3888  _owner */\n      dup1\n      0x00\n      swap1\n      sload\n      swap1\n      0x0100\n      exp\n      swap1\n      div\n      0xffffffffffffffffffffffffffffffffffffffff\n      and\n        /* \"Midas/joe-v2-main/src/libraries/PendingOwnable.sol\":3862:3888  address _oldOwner = _owner */\n      swap1\n      pop\n        /* \"Midas/joe-v2-main/src/libraries/PendingOwnable.sol\":3907:3916  _newOwner */\n      dup2\n        /* \"Midas/joe-v2-main/src/libraries/PendingOwnable.sol\":3898:3904  _owner */\n      0x00\n      dup1\n        /* \"Midas/joe-v2-main/src/libraries/PendingOwnable.sol\":3898:3916  _owner = _newOwner */\n      0x0100\n      exp\n      dup2\n      sload\n      dup2\n      0xffffffffffffffffffffffffffffffffffffffff\n      mul\n      not\n      and\n      swap1\n      dup4\n      0xffffffffffffffffffffffffffffffffffffffff\n      and\n      mul\n      or\n      swap1\n      sstore\n      pop\n        /* \"Midas/joe-v2-main/src/libraries/PendingOwnable.sol\":3950:3951  0 */\n      0x00\n        /* \"Midas/joe-v2-main/src/libraries/PendingOwnable.sol\":3926:3939  _pendingOwner */\n      0x01\n      0x00\n        /* \"Midas/joe-v2-main/src/libraries/PendingOwnable.sol\":3926:3952  _pendingOwner = address(0) */\n      0x0100\n      exp\n      dup2\n      sload\n      dup2\n      0xffffffffffffffffffffffffffffffffffffffff\n      mul\n      not\n      and\n      swap1\n      dup4\n      0xffffffffffffffffffffffffffffffffffffffff\n      and\n      mul\n      or\n      swap1\n      sstore\n      pop\n        /* \"Midas/joe-v2-main/src/libraries/PendingOwnable.sol\":3999:4008  _newOwner */\n      dup2\n        /* \"Midas/joe-v2-main/src/libraries/PendingOwnable.sol\":3967:4009  OwnershipTransferred(_oldOwner, _newOwner) */\n      0xffffffffffffffffffffffffffffffffffffffff\n      and\n        /* \"Midas/joe-v2-main/src/libraries/PendingOwnable.sol\":3988:3997  _oldOwner */\n      dup2\n        /* \"Midas/joe-v2-main/src/libraries/PendingOwnable.sol\":3967:4009  OwnershipTransferred(_oldOwner, _newOwner) */\n      0xffffffffffffffffffffffffffffffffffffffff\n      and\n      0x8be0079c531659141344cd1fd0a4f28419497f9722a3daafe3b4186f6b6457e0\n      mload(0x40)\n      mload(0x40)\n      dup1\n      swap2\n      sub\n      swap1\n      log3\n        /* \"Midas/joe-v2-main/src/libraries/PendingOwnable.sol\":3852:4016  {... */\n      pop\n        /* \"Midas/joe-v2-main/src/libraries/PendingOwnable.sol\":3788:4016  function _transferOwnership(address _newOwner) internal virtual {... */\n      pop\n      jump\t// out\n        /* \"#utility.yul\":7:133   */\n    tag_52:\n        /* \"#utility.yul\":44:51   */\n      0x00\n        /* \"#utility.yul\":84:126   */\n      0xffffffffffffffffffffffffffffffffffffffff\n        /* \"#utility.yul\":77:82   */\n      dup3\n        /* \"#utility.yul\":73:127   */\n      and\n        /* \"#utility.yul\":62:127   */\n      swap1\n      pop\n        /* \"#utility.yul\":7:133   */\n      swap2\n      swap1\n      pop\n      jump\t// out\n        /* \"#utility.yul\":139:235   */\n    tag_53:\n        /* \"#utility.yul\":176:183   */\n      0x00\n        /* \"#utility.yul\":205:229   */\n      tag_63\n        /* \"#utility.yul\":223:228   */\n      dup3\n        /* \"#utility.yul\":205:229   */\n      tag_52\n      jump\t// in\n    tag_63:\n        /* \"#utility.yul\":194:229   */\n      swap1\n      pop\n        /* \"#utility.yul\":139:235   */\n      swap2\n      swap1\n      pop\n      jump\t// out\n        /* \"#utility.yul\":241:359   */\n    tag_54:\n        /* \"#utility.yul\":328:352   */\n      tag_65\n        /* \"#utility.yul\":346:351   */\n      dup2\n        /* \"#utility.yul\":328:352   */\n      tag_53\n      jump\t// in\n    tag_65:\n        /* \"#utility.yul\":323:326   */\n      dup3\n        /* \"#utility.yul\":316:353   */\n      mstore\n        /* \"#utility.yul\":241:359   */\n      pop\n      pop\n      jump\t// out\n        /* \"#utility.yul\":365:587   */\n    tag_16:\n        /* \"#utility.yul\":458:462   */\n      0x00\n        /* \"#utility.yul\":496:498   */\n      0x20\n        /* \"#utility.yul\":485:494   */\n      dup3\n        /* \"#utility.yul\":481:499   */\n      add\n        /* \"#utility.yul\":473:499   */\n      swap1\n      pop\n        /* \"#utility.yul\":509:580   */\n      tag_67\n        /* \"#utility.yul\":577:578   */\n      0x00\n        /* \"#utility.yul\":566:575   */\n      dup4\n        /* \"#utility.yul\":562:579   */\n      add\n        /* \"#utility.yul\":553:559   */\n      dup5\n        /* \"#utility.yul\":509:580   */\n      tag_54\n      jump\t// in\n    tag_67:\n        /* \"#utility.yul\":365:587   */\n      swap3\n      swap2\n      pop\n      pop\n      jump\t// out\n        /* \"#utility.yul\":674:791   */\n    tag_56:\n        /* \"#utility.yul\":783:784   */\n      0x00\n        /* \"#utility.yul\":780:781   */\n      dup1\n        /* \"#utility.yul\":773:785   */\n      revert\n        /* \"#utility.yul\":920:1042   */\n    tag_58:\n        /* \"#utility.yul\":993:1017   */\n      tag_72\n        /* \"#utility.yul\":1011:1016   */\n      dup2\n        /* \"#utility.yul\":993:1017   */\n      tag_53\n      jump\t// in\n    tag_72:\n        /* \"#utility.yul\":986:991   */\n      dup2\n        /* \"#utility.yul\":983:1018   */\n      eq\n        /* \"#utility.yul\":973:1036   */\n      tag_73\n      jumpi\n        /* \"#utility.yul\":1032:1033   */\n      0x00\n        /* \"#utility.yul\":1029:1030   */\n      dup1\n        /* \"#utility.yul\":1022:1034   */\n      revert\n        /* \"#utility.yul\":973:1036   */\n    tag_73:\n        /* \"#utility.yul\":920:1042   */\n      pop\n      jump\t// out\n        /* \"#utility.yul\":1048:1187   */\n    tag_59:\n        /* \"#utility.yul\":1094:1099   */\n      0x00\n        /* \"#utility.yul\":1132:1138   */\n      dup2\n        /* \"#utility.yul\":1119:1139   */\n      calldataload\n        /* \"#utility.yul\":1110:1139   */\n      swap1\n      pop\n        /* \"#utility.yul\":1148:1181   */\n      tag_75\n        /* \"#utility.yul\":1175:1180   */\n      dup2\n        /* \"#utility.yul\":1148:1181   */\n      tag_58\n      jump\t// in\n    tag_75:\n        /* \"#utility.yul\":1048:1187   */\n      swap3\n      swap2\n      pop\n      pop\n      jump\t// out\n        /* \"#utility.yul\":1193:1522   */\n    tag_19:\n        /* \"#utility.yul\":1252:1258   */\n      0x00\n        /* \"#utility.yul\":1301:1303   */\n      0x20\n        /* \"#utility.yul\":1289:1298   */\n      dup3\n        /* \"#utility.yul\":1280:1287   */\n      dup5\n        /* \"#utility.yul\":1276:1299   */\n      sub\n        /* \"#utility.yul\":1272:1304   */\n      slt\n        /* \"#utility.yul\":1269:1388   */\n      iszero\n      tag_77\n      jumpi\n        /* \"#utility.yul\":1307:1386   */\n      tag_78\n      tag_56\n      jump\t// in\n    tag_78:\n        /* \"#utility.yul\":1269:1388   */\n    tag_77:\n        /* \"#utility.yul\":1427:1428   */\n      0x00\n        /* \"#utility.yul\":1452:1505   */\n      tag_79\n        /* \"#utility.yul\":1497:1504   */\n      dup5\n        /* \"#utility.yul\":1488:1494   */\n      dup3\n        /* \"#utility.yul\":1477:1486   */\n      dup6\n        /* \"#utility.yul\":1473:1495   */\n      add\n        /* \"#utility.yul\":1452:1505   */\n      tag_59\n      jump\t// in\n    tag_79:\n        /* \"#utility.yul\":1442:1505   */\n      swap2\n      pop\n        /* \"#utility.yul\":1398:1515   */\n      pop\n        /* \"#utility.yul\":1193:1522   */\n      swap3\n      swap2\n      pop\n      pop\n      jump\t// out\n\n    auxdata: 0xa264697066735822122021c895fcf496167c7dc0d872168b19fa2bd3518baa55f9c6a9251b1d15de034f64736f6c634300080a0033\n}\n",
				"bytecode": {
					"linkReferences": {},
					"object": "608060405234801561001057600080fd5b506100203361002560201b60201c565b61012b565b60008060009054906101000a900473ffffffffffffffffffffffffffffffffffffffff169050816000806101000a81548173ffffffffffffffffffffffffffffffffffffffff021916908373ffffffffffffffffffffffffffffffffffffffff1602179055506000600160006101000a81548173ffffffffffffffffffffffffffffffffffffffff021916908373ffffffffffffffffffffffffffffffffffffffff1602179055508173ffffffffffffffffffffffffffffffffffffffff168173ffffffffffffffffffffffffffffffffffffffff167f8be0079c531659141344cd1fd0a4f28419497f9722a3daafe3b4186f6b6457e060405160405180910390a35050565b6107a38061013a6000396000f3fe608060405234801561001057600080fd5b50600436106100625760003560e01c806367ab8a4e14610067578063715018a6146100715780638da5cb5b1461007b578063c42069ec14610099578063e30c3978146100b5578063f9dca989146100d3575b600080fd5b61006f6100dd565b005b6100796101f7565b005b610083610288565b60405161009091906106f4565b60405180910390f35b6100b360048036038101906100ae9190610740565b6102b1565b005b6100bd610431565b6040516100ca91906106f4565b60405180910390f35b6100db61045b565b005b60008054906101000a900473ffffffffffffffffffffffffffffffffffffffff1673ffffffffffffffffffffffffffffffffffffffff163373ffffffffffffffffffffffffffffffffffffffff1614610162576040517f9f216c1300000000000000000000000000000000000000000000000000000000815260040160405180910390fd5b600073ffffffffffffffffffffffffffffffffffffffff16600160009054906101000a900473ffffffffffffffffffffffffffffffffffffffff1673ffffffffffffffffffffffffffffffffffffffff1614156101eb576040517fecfad6bf00000000000000000000000000000000000000000000000000000000815260040160405180910390fd5b6101f56000610526565b565b60008054906101000a900473ffffffffffffffffffffffffffffffffffffffff1673ffffffffffffffffffffffffffffffffffffffff163373ffffffffffffffffffffffffffffffffffffffff161461027c576040517f9f216c1300000000000000000000000000000000000000000000000000000000815260040160405180910390fd5b61028660006105ad565b565b60008060009054906101000a900473ffffffffffffffffffffffffffffffffffffffff16905090565b60008054906101000a900473ffffffffffffffffffffffffffffffffffffffff1673ffffffffffffffffffffffffffffffffffffffff163373ffffffffffffffffffffffffffffffffffffffff1614610336576040517f9f216c1300000000000000000000000000000000000000000000000000000000815260040160405180910390fd5b600073ffffffffffffffffffffffffffffffffffffffff168173ffffffffffffffffffffffffffffffffffffffff16141561039d576040517f91f3851500000000000000000000000000000000000000000000000000000000815260040160405180910390fd5b600073ffffffffffffffffffffffffffffffffffffffff16600160009054906101000a900473ffffffffffffffffffffffffffffffffffffffff1673ffffffffffffffffffffffffffffffffffffffff1614610425576040517f716b1fbf00000000000000000000000000000000000000000000000000000000815260040160405180910390fd5b61042e81610526565b50565b6000600160009054906101000a900473ffffffffffffffffffffffffffffffffffffffff16905090565b600160009054906101000a900473ffffffffffffffffffffffffffffffffffffffff1673ffffffffffffffffffffffffffffffffffffffff163373ffffffffffffffffffffffffffffffffffffffff161415806104e45750600073ffffffffffffffffffffffffffffffffffffffff163373ffffffffffffffffffffffffffffffffffffffff16145b1561051b576040517f7304d01200000000000000000000000000000000000000000000000000000000815260040160405180910390fd5b610524336105ad565b565b80600160006101000a81548173ffffffffffffffffffffffffffffffffffffffff021916908373ffffffffffffffffffffffffffffffffffffffff1602179055508073ffffffffffffffffffffffffffffffffffffffff167f68f49b346b94582a8b5f9d10e3fe3365318fe8f191ff8dce7c59c6cad06b02f560405160405180910390a250565b60008060009054906101000a900473ffffffffffffffffffffffffffffffffffffffff169050816000806101000a81548173ffffffffffffffffffffffffffffffffffffffff021916908373ffffffffffffffffffffffffffffffffffffffff1602179055506000600160006101000a81548173ffffffffffffffffffffffffffffffffffffffff021916908373ffffffffffffffffffffffffffffffffffffffff1602179055508173ffffffffffffffffffffffffffffffffffffffff168173ffffffffffffffffffffffffffffffffffffffff167f8be0079c531659141344cd1fd0a4f28419497f9722a3daafe3b4186f6b6457e060405160405180910390a35050565b600073ffffffffffffffffffffffffffffffffffffffff82169050919050565b60006106de826106b3565b9050919050565b6106ee816106d3565b82525050565b600060208201905061070960008301846106e5565b92915050565b600080fd5b61071d816106d3565b811461072857600080fd5b50565b60008135905061073a81610714565b92915050565b6000602082840312156107565761075561070f565b5b60006107648482850161072b565b9150509291505056fea264697066735822122021c895fcf496167c7dc0d872168b19fa2bd3518baa55f9c6a9251b1d15de034f64736f6c634300080a0033",
					"opcodes": "PUSH1 0x80 PUSH1 0x40 MSTORE CALLVALUE DUP1 ISZERO PUSH2 0x10 JUMPI PUSH1 0x0 DUP1 REVERT JUMPDEST POP PUSH2 0x20 CALLER PUSH2 0x25 PUSH1 0x20 SHL PUSH1 0x20 SHR JUMP JUMPDEST PUSH2 0x12B JUMP JUMPDEST PUSH1 0x0 DUP1 PUSH1 0x0 SWAP1 SLOAD SWAP1 PUSH2 0x100 EXP SWAP1 DIV PUSH20 0xFFFFFFFFFFFFFFFFFFFFFFFFFFFFFFFFFFFFFFFF AND SWAP1 POP DUP2 PUSH1 0x0 DUP1 PUSH2 0x100 EXP DUP2 SLOAD DUP2 PUSH20 0xFFFFFFFFFFFFFFFFFFFFFFFFFFFFFFFFFFFFFFFF MUL NOT AND SWAP1 DUP4 PUSH20 0xFFFFFFFFFFFFFFFFFFFFFFFFFFFFFFFFFFFFFFFF AND MUL OR SWAP1 SSTORE POP PUSH1 0x0 PUSH1 0x1 PUSH1 0x0 PUSH2 0x100 EXP DUP2 SLOAD DUP2 PUSH20 0xFFFFFFFFFFFFFFFFFFFFFFFFFFFFFFFFFFFFFFFF MUL NOT AND SWAP1 DUP4 PUSH20 0xFFFFFFFFFFFFFFFFFFFFFFFFFFFFFFFFFFFFFFFF AND MUL OR SWAP1 SSTORE POP DUP2 PUSH20 0xFFFFFFFFFFFFFFFFFFFFFFFFFFFFFFFFFFFFFFFF AND DUP2 PUSH20 0xFFFFFFFFFFFFFFFFFFFFFFFFFFFFFFFFFFFFFFFF AND PUSH32 0x8BE0079C531659141344CD1FD0A4F28419497F9722A3DAAFE3B4186F6B6457E0 PUSH1 0x40 MLOAD PUSH1 0x40 MLOAD DUP1 SWAP2 SUB SWAP1 LOG3 POP POP JUMP JUMPDEST PUSH2 0x7A3 DUP1 PUSH2 0x13A PUSH1 0x0 CODECOPY PUSH1 0x0 RETURN INVALID PUSH1 0x80 PUSH1 0x40 MSTORE CALLVALUE DUP1 ISZERO PUSH2 0x10 JUMPI PUSH1 0x0 DUP1 REVERT JUMPDEST POP PUSH1 0x4 CALLDATASIZE LT PUSH2 0x62 JUMPI PUSH1 0x0 CALLDATALOAD PUSH1 0xE0 SHR DUP1 PUSH4 0x67AB8A4E EQ PUSH2 0x67 JUMPI DUP1 PUSH4 0x715018A6 EQ PUSH2 0x71 JUMPI DUP1 PUSH4 0x8DA5CB5B EQ PUSH2 0x7B JUMPI DUP1 PUSH4 0xC42069EC EQ PUSH2 0x99 JUMPI DUP1 PUSH4 0xE30C3978 EQ PUSH2 0xB5 JUMPI DUP1 PUSH4 0xF9DCA989 EQ PUSH2 0xD3 JUMPI JUMPDEST PUSH1 0x0 DUP1 REVERT JUMPDEST PUSH2 0x6F PUSH2 0xDD JUMP JUMPDEST STOP JUMPDEST PUSH2 0x79 PUSH2 0x1F7 JUMP JUMPDEST STOP JUMPDEST PUSH2 0x83 PUSH2 0x288 JUMP JUMPDEST PUSH1 0x40 MLOAD PUSH2 0x90 SWAP2 SWAP1 PUSH2 0x6F4 JUMP JUMPDEST PUSH1 0x40 MLOAD DUP1 SWAP2 SUB SWAP1 RETURN JUMPDEST PUSH2 0xB3 PUSH1 0x4 DUP1 CALLDATASIZE SUB DUP2 ADD SWAP1 PUSH2 0xAE SWAP2 SWAP1 PUSH2 0x740 JUMP JUMPDEST PUSH2 0x2B1 JUMP JUMPDEST STOP JUMPDEST PUSH2 0xBD PUSH2 0x431 JUMP JUMPDEST PUSH1 0x40 MLOAD PUSH2 0xCA SWAP2 SWAP1 PUSH2 0x6F4 JUMP JUMPDEST PUSH1 0x40 MLOAD DUP1 SWAP2 SUB SWAP1 RETURN JUMPDEST PUSH2 0xDB PUSH2 0x45B JUMP JUMPDEST STOP JUMPDEST PUSH1 0x0 DUP1 SLOAD SWAP1 PUSH2 0x100 EXP SWAP1 DIV PUSH20 0xFFFFFFFFFFFFFFFFFFFFFFFFFFFFFFFFFFFFFFFF AND PUSH20 0xFFFFFFFFFFFFFFFFFFFFFFFFFFFFFFFFFFFFFFFF AND CALLER PUSH20 0xFFFFFFFFFFFFFFFFFFFFFFFFFFFFFFFFFFFFFFFF AND EQ PUSH2 0x162 JUMPI PUSH1 0x40 MLOAD PUSH32 0x9F216C1300000000000000000000000000000000000000000000000000000000 DUP2 MSTORE PUSH1 0x4 ADD PUSH1 0x40 MLOAD DUP1 SWAP2 SUB SWAP1 REVERT JUMPDEST PUSH1 0x0 PUSH20 0xFFFFFFFFFFFFFFFFFFFFFFFFFFFFFFFFFFFFFFFF AND PUSH1 0x1 PUSH1 0x0 SWAP1 SLOAD SWAP1 PUSH2 0x100 EXP SWAP1 DIV PUSH20 0xFFFFFFFFFFFFFFFFFFFFFFFFFFFFFFFFFFFFFFFF AND PUSH20 0xFFFFFFFFFFFFFFFFFFFFFFFFFFFFFFFFFFFFFFFF AND EQ ISZERO PUSH2 0x1EB JUMPI PUSH1 0x40 MLOAD PUSH32 0xECFAD6BF00000000000000000000000000000000000000000000000000000000 DUP2 MSTORE PUSH1 0x4 ADD PUSH1 0x40 MLOAD DUP1 SWAP2 SUB SWAP1 REVERT JUMPDEST PUSH2 0x1F5 PUSH1 0x0 PUSH2 0x526 JUMP JUMPDEST JUMP JUMPDEST PUSH1 0x0 DUP1 SLOAD SWAP1 PUSH2 0x100 EXP SWAP1 DIV PUSH20 0xFFFFFFFFFFFFFFFFFFFFFFFFFFFFFFFFFFFFFFFF AND PUSH20 0xFFFFFFFFFFFFFFFFFFFFFFFFFFFFFFFFFFFFFFFF AND CALLER PUSH20 0xFFFFFFFFFFFFFFFFFFFFFFFFFFFFFFFFFFFFFFFF AND EQ PUSH2 0x27C JUMPI PUSH1 0x40 MLOAD PUSH32 0x9F216C1300000000000000000000000000000000000000000000000000000000 DUP2 MSTORE PUSH1 0x4 ADD PUSH1 0x40 MLOAD DUP1 SWAP2 SUB SWAP1 REVERT JUMPDEST PUSH2 0x286 PUSH1 0x0 PUSH2 0x5AD JUMP JUMPDEST JUMP JUMPDEST PUSH1 0x0 DUP1 PUSH1 0x0 SWAP1 SLOAD SWAP1 PUSH2 0x100 EXP SWAP1 DIV PUSH20 0xFFFFFFFFFFFFFFFFFFFFFFFFFFFFFFFFFFFFFFFF AND SWAP1 POP SWAP1 JUMP JUMPDEST PUSH1 0x0 DUP1 SLOAD SWAP1 PUSH2 0x100 EXP SWAP1 DIV PUSH20 0xFFFFFFFFFFFFFFFFFFFFFFFFFFFFFFFFFFFFFFFF AND PUSH20 0xFFFFFFFFFFFFFFFFFFFFFFFFFFFFFFFFFFFFFFFF AND CALLER PUSH20 0xFFFFFFFFFFFFFFFFFFFFFFFFFFFFFFFFFFFFFFFF AND EQ PUSH2 0x336 JUMPI PUSH1 0x40 MLOAD PUSH32 0x9F216C1300000000000000000000000000000000000000000000000000000000 DUP2 MSTORE PUSH1 0x4 ADD PUSH1 0x40 MLOAD DUP1 SWAP2 SUB SWAP1 REVERT JUMPDEST PUSH1 0x0 PUSH20 0xFFFFFFFFFFFFFFFFFFFFFFFFFFFFFFFFFFFFFFFF AND DUP2 PUSH20 0xFFFFFFFFFFFFFFFFFFFFFFFFFFFFFFFFFFFFFFFF AND EQ ISZERO PUSH2 0x39D JUMPI PUSH1 0x40 MLOAD PUSH32 0x91F3851500000000000000000000000000000000000000000000000000000000 DUP2 MSTORE PUSH1 0x4 ADD PUSH1 0x40 MLOAD DUP1 SWAP2 SUB SWAP1 REVERT JUMPDEST PUSH1 0x0 PUSH20 0xFFFFFFFFFFFFFFFFFFFFFFFFFFFFFFFFFFFFFFFF AND PUSH1 0x1 PUSH1 0x0 SWAP1 SLOAD SWAP1 PUSH2 0x100 EXP SWAP1 DIV PUSH20 0xFFFFFFFFFFFFFFFFFFFFFFFFFFFFFFFFFFFFFFFF AND PUSH20 0xFFFFFFFFFFFFFFFFFFFFFFFFFFFFFFFFFFFFFFFF AND EQ PUSH2 0x425 JUMPI PUSH1 0x40 MLOAD PUSH32 0x716B1FBF00000000000000000000000000000000000000000000000000000000 DUP2 MSTORE PUSH1 0x4 ADD PUSH1 0x40 MLOAD DUP1 SWAP2 SUB SWAP1 REVERT JUMPDEST PUSH2 0x42E DUP2 PUSH2 0x526 JUMP JUMPDEST POP JUMP JUMPDEST PUSH1 0x0 PUSH1 0x1 PUSH1 0x0 SWAP1 SLOAD SWAP1 PUSH2 0x100 EXP SWAP1 DIV PUSH20 0xFFFFFFFFFFFFFFFFFFFFFFFFFFFFFFFFFFFFFFFF AND SWAP1 POP SWAP1 JUMP JUMPDEST PUSH1 0x1 PUSH1 0x0 SWAP1 SLOAD SWAP1 PUSH2 0x100 EXP SWAP1 DIV PUSH20 0xFFFFFFFFFFFFFFFFFFFFFFFFFFFFFFFFFFFFFFFF AND PUSH20 0xFFFFFFFFFFFFFFFFFFFFFFFFFFFFFFFFFFFFFFFF AND CALLER PUSH20 0xFFFFFFFFFFFFFFFFFFFFFFFFFFFFFFFFFFFFFFFF AND EQ ISZERO DUP1 PUSH2 0x4E4 JUMPI POP PUSH1 0x0 PUSH20 0xFFFFFFFFFFFFFFFFFFFFFFFFFFFFFFFFFFFFFFFF AND CALLER PUSH20 0xFFFFFFFFFFFFFFFFFFFFFFFFFFFFFFFFFFFFFFFF AND EQ JUMPDEST ISZERO PUSH2 0x51B JUMPI PUSH1 0x40 MLOAD PUSH32 0x7304D01200000000000000000000000000000000000000000000000000000000 DUP2 MSTORE PUSH1 0x4 ADD PUSH1 0x40 MLOAD DUP1 SWAP2 SUB SWAP1 REVERT JUMPDEST PUSH2 0x524 CALLER PUSH2 0x5AD JUMP JUMPDEST JUMP JUMPDEST DUP1 PUSH1 0x1 PUSH1 0x0 PUSH2 0x100 EXP DUP2 SLOAD DUP2 PUSH20 0xFFFFFFFFFFFFFFFFFFFFFFFFFFFFFFFFFFFFFFFF MUL NOT AND SWAP1 DUP4 PUSH20 0xFFFFFFFFFFFFFFFFFFFFFFFFFFFFFFFFFFFFFFFF AND MUL OR SWAP1 SSTORE POP DUP1 PUSH20 0xFFFFFFFFFFFFFFFFFFFFFFFFFFFFFFFFFFFFFFFF AND PUSH32 0x68F49B346B94582A8B5F9D10E3FE3365318FE8F191FF8DCE7C59C6CAD06B02F5 PUSH1 0x40 MLOAD PUSH1 0x40 MLOAD DUP1 SWAP2 SUB SWAP1 LOG2 POP JUMP JUMPDEST PUSH1 0x0 DUP1 PUSH1 0x0 SWAP1 SLOAD SWAP1 PUSH2 0x100 EXP SWAP1 DIV PUSH20 0xFFFFFFFFFFFFFFFFFFFFFFFFFFFFFFFFFFFFFFFF AND SWAP1 POP DUP2 PUSH1 0x0 DUP1 PUSH2 0x100 EXP DUP2 SLOAD DUP2 PUSH20 0xFFFFFFFFFFFFFFFFFFFFFFFFFFFFFFFFFFFFFFFF MUL NOT AND SWAP1 DUP4 PUSH20 0xFFFFFFFFFFFFFFFFFFFFFFFFFFFFFFFFFFFFFFFF AND MUL OR SWAP1 SSTORE POP PUSH1 0x0 PUSH1 0x1 PUSH1 0x0 PUSH2 0x100 EXP DUP2 SLOAD DUP2 PUSH20 0xFFFFFFFFFFFFFFFFFFFFFFFFFFFFFFFFFFFFFFFF MUL NOT AND SWAP1 DUP4 PUSH20 0xFFFFFFFFFFFFFFFFFFFFFFFFFFFFFFFFFFFFFFFF AND MUL OR SWAP1 SSTORE POP DUP2 PUSH20 0xFFFFFFFFFFFFFFFFFFFFFFFFFFFFFFFFFFFFFFFF AND DUP2 PUSH20 0xFFFFFFFFFFFFFFFFFFFFFFFFFFFFFFFFFFFFFFFF AND PUSH32 0x8BE0079C531659141344CD1FD0A4F28419497F9722A3DAAFE3B4186F6B6457E0 PUSH1 0x40 MLOAD PUSH1 0x40 MLOAD DUP1 SWAP2 SUB SWAP1 LOG3 POP POP JUMP JUMPDEST PUSH1 0x0 PUSH20 0xFFFFFFFFFFFFFFFFFFFFFFFFFFFFFFFFFFFFFFFF DUP3 AND SWAP1 POP SWAP2 SWAP1 POP JUMP JUMPDEST PUSH1 0x0 PUSH2 0x6DE DUP3 PUSH2 0x6B3 JUMP JUMPDEST SWAP1 POP SWAP2 SWAP1 POP JUMP JUMPDEST PUSH2 0x6EE DUP2 PUSH2 0x6D3 JUMP JUMPDEST DUP3 MSTORE POP POP JUMP JUMPDEST PUSH1 0x0 PUSH1 0x20 DUP3 ADD SWAP1 POP PUSH2 0x709 PUSH1 0x0 DUP4 ADD DUP5 PUSH2 0x6E5 JUMP JUMPDEST SWAP3 SWAP2 POP POP JUMP JUMPDEST PUSH1 0x0 DUP1 REVERT JUMPDEST PUSH2 0x71D DUP2 PUSH2 0x6D3 JUMP JUMPDEST DUP2 EQ PUSH2 0x728 JUMPI PUSH1 0x0 DUP1 REVERT JUMPDEST POP JUMP JUMPDEST PUSH1 0x0 DUP2 CALLDATALOAD SWAP1 POP PUSH2 0x73A DUP2 PUSH2 0x714 JUMP JUMPDEST SWAP3 SWAP2 POP POP JUMP JUMPDEST PUSH1 0x0 PUSH1 0x20 DUP3 DUP5 SUB SLT ISZERO PUSH2 0x756 JUMPI PUSH2 0x755 PUSH2 0x70F JUMP JUMPDEST JUMPDEST PUSH1 0x0 PUSH2 0x764 DUP5 DUP3 DUP6 ADD PUSH2 0x72B JUMP JUMPDEST SWAP2 POP POP SWAP3 SWAP2 POP POP JUMP INVALID LOG2 PUSH5 0x6970667358 0x22 SLT KECCAK256 0x21 0xC8 SWAP6 0xFC DELEGATECALL SWAP7 AND PUSH29 0x7DC0D872168B19FA2BD3518BAA55F9C6A9251B1D15DE034F64736F6C63 NUMBER STOP ADDMOD EXP STOP CALLER "
				},
				"gasEstimates": {
					"creation": {
						"codeDepositCost": "391000",
						"executionCost": "infinite",
						"totalCost": "infinite"
					},
					"external": {
						"becomeOwner()": "54703",
						"owner()": "2544",
						"pendingOwner()": "2588",
						"renounceOwnership()": "54568",
						"revokePendingOwner()": "29920",
						"setPendingOwner(address)": "30332"
					},
					"internal": {
						"_setPendingOwner(address)": "25448",
						"_transferOwnership(address)": "52248"
					}
				},
				"methodIdentifiers": {
					"becomeOwner()": "f9dca989",
					"owner()": "8da5cb5b",
					"pendingOwner()": "e30c3978",
					"renounceOwnership()": "715018a6",
					"revokePendingOwner()": "67ab8a4e",
					"setPendingOwner(address)": "c42069ec"
				}
			},
			"storageLayout": {
				"storage": [
					{
						"astId": 3726,
						"contract": "Midas/joe-v2-main/src/libraries/PendingOwnable.sol:PendingOwnable",
						"label": "_owner",
						"offset": 0,
						"slot": "0",
						"type": "t_address"
					},
					{
						"astId": 3728,
						"contract": "Midas/joe-v2-main/src/libraries/PendingOwnable.sol:PendingOwnable",
						"label": "_pendingOwner",
						"offset": 0,
						"slot": "1",
						"type": "t_address"
					}
				],
				"types": {
					"t_address": {
						"encoding": "inplace",
						"label": "address",
						"numberOfBytes": "20"
					}
				}
			},
			"userdoc": {
				"errors": {
					"PendingOwnable__NotOwner()": [
						{
							"notice": "PendingOwnable errors "
						}
					]
				},
				"kind": "user",
				"methods": {
					"becomeOwner()": {
						"notice": "Transfers the ownership to the new owner (`pendingOwner). Can only be called by the pending owner"
					},
					"constructor": {
						"notice": "Initializes the contract setting the deployer as the initial owner"
					},
					"owner()": {
						"notice": "Returns the address of the current owner"
					},
					"pendingOwner()": {
						"notice": "Returns the address of the current pending owner"
					},
					"renounceOwnership()": {
						"notice": "Leaves the contract without owner. It will not be possible to call `onlyOwner` functions anymore. Can only be called by the current owner. NOTE: Renouncing ownership will leave the contract without an owner, thereby removing any functionality that is only available to the owner."
					},
					"revokePendingOwner()": {
						"notice": "Revoke the pending owner address. This address will not be able to call {becomeOwner} to become the owner anymore. Can only be called by the owner"
					},
					"setPendingOwner(address)": {
						"notice": "Sets the pending owner address. This address will be able to become the owner of this contract by calling {becomeOwner}"
					}
				},
				"notice": "Contract module which provides a basic access control mechanism, where there is an account (an owner) that can be granted exclusive access to specific functions. The ownership of this contract is transferred using the push and pull pattern, the current owner set a `pendingOwner` using {setPendingOwner} and that address can then call {becomeOwner} to become the owner of that contract. The main logic and comments comes from OpenZeppelin's Ownable contract. By default, the owner account will be the one that deploys the contract. This can later be changed with {setPendingOwner} and {becomeOwner}. This module is used through inheritance. It will make available the modifier `onlyOwner`, which can be applied to your functions to restrict their use to the owner",
				"version": 1
			}
		}
	}
}