{
	"Midas/joe-v2-main/src/LBFactory.sol": {
		"LBFactory": {
			"abi": [
				{
					"inputs": [
						{
							"internalType": "address",
							"name": "_feeRecipient",
							"type": "address"
						}
					],
					"stateMutability": "nonpayable",
					"type": "constructor"
				},
				{
					"inputs": [],
					"name": "BinHelper__IdOverflows",
					"type": "error"
				},
				{
					"inputs": [],
					"name": "LBFactory__AddressZero",
					"type": "error"
				},
				{
					"inputs": [],
					"name": "LBFactory__FactoryLockIsAlreadyInTheSameState",
					"type": "error"
				},
				{
					"inputs": [
						{
							"internalType": "address",
							"name": "user",
							"type": "address"
						}
					],
					"name": "LBFactory__FunctionIsLockedForUsers",
					"type": "error"
				},
				{
					"inputs": [
						{
							"internalType": "contract IERC20",
							"name": "token",
							"type": "address"
						}
					],
					"name": "LBFactory__IdenticalAddresses",
					"type": "error"
				},
				{
					"inputs": [],
					"name": "LBFactory__ImplementationNotSet",
					"type": "error"
				},
				{
					"inputs": [
						{
							"internalType": "contract IERC20",
							"name": "tokenX",
							"type": "address"
						},
						{
							"internalType": "contract IERC20",
							"name": "tokenY",
							"type": "address"
						},
						{
							"internalType": "uint256",
							"name": "_binStep",
							"type": "uint256"
						}
					],
					"name": "LBFactory__LBPairAlreadyExists",
					"type": "error"
				},
				{
					"inputs": [
						{
							"internalType": "address",
							"name": "LBPairImplementation",
							"type": "address"
						}
					],
					"name": "LBFactory__LBPairSafetyCheckFailed",
					"type": "error"
				},
				{
					"inputs": [
						{
							"internalType": "contract IERC20",
							"name": "quoteAsset",
							"type": "address"
						}
					],
					"name": "LBFactory__QuoteAssetAlreadyWhitelisted",
					"type": "error"
				},
				{
					"inputs": [
						{
							"internalType": "contract IERC20",
							"name": "quoteAsset",
							"type": "address"
						}
					],
					"name": "LBFactory__QuoteAssetNotWhitelisted",
					"type": "error"
				},
				{
					"inputs": [
						{
							"internalType": "address",
							"name": "feeRecipient",
							"type": "address"
						}
					],
					"name": "LBFactory__SameFeeRecipient",
					"type": "error"
				},
				{
					"inputs": [
						{
							"internalType": "address",
							"name": "LBPairImplementation",
							"type": "address"
						}
					],
					"name": "LBFactory__SameImplementation",
					"type": "error"
				},
				{
					"inputs": [
						{
							"internalType": "uint256",
							"name": "x",
							"type": "uint256"
						},
						{
							"internalType": "int256",
							"name": "y",
							"type": "int256"
						}
					],
					"name": "Math128x128__PowerUnderflow",
					"type": "error"
				},
				{
					"inputs": [],
					"name": "PendingOwnable__AddressZero",
					"type": "error"
				},
				{
					"inputs": [],
					"name": "PendingOwnable__NoPendingOwner",
					"type": "error"
				},
				{
					"inputs": [],
					"name": "PendingOwnable__NotOwner",
					"type": "error"
				},
				{
					"inputs": [],
					"name": "PendingOwnable__NotPendingOwner",
					"type": "error"
				},
				{
					"inputs": [],
					"name": "PendingOwnable__PendingOwnerAlreadySet",
					"type": "error"
				},
				{
					"anonymous": false,
					"inputs": [
						{
							"indexed": false,
							"internalType": "bool",
							"name": "unlocked",
							"type": "bool"
						}
					],
					"name": "FactoryLockedStatusUpdated",
					"type": "event"
				},
				{
					"anonymous": false,
					"inputs": [
						{
							"indexed": true,
							"internalType": "address",
							"name": "sender",
							"type": "address"
						},
						{
							"indexed": true,
							"internalType": "contract ILBPair",
							"name": "LBPair",
							"type": "address"
						},
						{
							"indexed": false,
							"internalType": "uint256",
							"name": "baseFactor",
							"type": "uint256"
						},
						{
							"indexed": false,
							"internalType": "uint256",
							"name": "filterPeriod",
							"type": "uint256"
						},
						{
							"indexed": false,
							"internalType": "uint256",
							"name": "decayPeriod",
							"type": "uint256"
						},
						{
							"indexed": false,
							"internalType": "uint256",
							"name": "reductionFactor",
							"type": "uint256"
						},
						{
							"indexed": false,
							"internalType": "uint256",
							"name": "variableFeeControl",
							"type": "uint256"
						},
						{
							"indexed": false,
							"internalType": "uint256",
							"name": "protocolShare",
							"type": "uint256"
						},
						{
							"indexed": false,
							"internalType": "uint256",
							"name": "maxVolatilityAccumulated",
							"type": "uint256"
						}
					],
					"name": "FeeParametersSet",
					"type": "event"
				},
				{
					"anonymous": false,
					"inputs": [
						{
							"indexed": false,
							"internalType": "address",
							"name": "oldRecipient",
							"type": "address"
						},
						{
							"indexed": false,
							"internalType": "address",
							"name": "newRecipient",
							"type": "address"
						}
					],
					"name": "FeeRecipientSet",
					"type": "event"
				},
				{
					"anonymous": false,
					"inputs": [
						{
							"indexed": false,
							"internalType": "uint256",
							"name": "oldFlashLoanFee",
							"type": "uint256"
						},
						{
							"indexed": false,
							"internalType": "uint256",
							"name": "newFlashLoanFee",
							"type": "uint256"
						}
					],
					"name": "FlashLoanFeeSet",
					"type": "event"
				},
				{
					"anonymous": false,
					"inputs": [
						{
							"indexed": true,
							"internalType": "contract IERC20",
							"name": "tokenX",
							"type": "address"
						},
						{
							"indexed": true,
							"internalType": "contract IERC20",
							"name": "tokenY",
							"type": "address"
						},
						{
							"indexed": false,
							"internalType": "contract ILBPair",
							"name": "LBPair",
							"type": "address"
						},
						{
							"indexed": false,
							"internalType": "uint256",
							"name": "pid",
							"type": "uint256"
						}
					],
					"name": "LBPairCreated",
					"type": "event"
				},
				{
					"anonymous": false,
					"inputs": [
						{
							"indexed": true,
							"internalType": "contract ILBPair",
							"name": "LBPair",
							"type": "address"
						},
						{
							"indexed": false,
							"internalType": "bool",
							"name": "ignored",
							"type": "bool"
						}
					],
					"name": "LBPairIgnoredStateChanged",
					"type": "event"
				},
				{
					"anonymous": false,
					"inputs": [
						{
							"indexed": false,
							"internalType": "address",
							"name": "oldLBPairImplementation",
							"type": "address"
						},
						{
							"indexed": false,
							"internalType": "address",
							"name": "LBPairImplementation",
							"type": "address"
						}
					],
					"name": "LBPairImplementationSet",
					"type": "event"
				},
				{
					"anonymous": false,
					"inputs": [
						{
							"indexed": true,
							"internalType": "address",
							"name": "previousOwner",
							"type": "address"
						},
						{
							"indexed": true,
							"internalType": "address",
							"name": "newOwner",
							"type": "address"
						}
					],
					"name": "OwnershipTransferred",
					"type": "event"
				},
				{
					"anonymous": false,
					"inputs": [
						{
							"indexed": true,
							"internalType": "address",
							"name": "pendingOwner",
							"type": "address"
						}
					],
					"name": "PendingOwnerSet",
					"type": "event"
				},
				{
					"anonymous": false,
					"inputs": [],
					"name": "PresetRemoved",
					"type": "event"
				},
				{
					"anonymous": false,
					"inputs": [
						{
							"indexed": false,
							"internalType": "uint256",
							"name": "baseFactor",
							"type": "uint256"
						},
						{
							"indexed": false,
							"internalType": "uint256",
							"name": "filterPeriod",
							"type": "uint256"
						},
						{
							"indexed": false,
							"internalType": "uint256",
							"name": "decayPeriod",
							"type": "uint256"
						},
						{
							"indexed": false,
							"internalType": "uint256",
							"name": "reductionFactor",
							"type": "uint256"
						},
						{
							"indexed": false,
							"internalType": "uint256",
							"name": "variableFeeControl",
							"type": "uint256"
						},
						{
							"indexed": false,
							"internalType": "uint256",
							"name": "protocolShare",
							"type": "uint256"
						},
						{
							"indexed": false,
							"internalType": "uint256",
							"name": "maxVolatilityAccumulated",
							"type": "uint256"
						},
						{
							"indexed": false,
							"internalType": "uint256",
							"name": "sampleLifetime",
							"type": "uint256"
						}
					],
					"name": "PresetSet",
					"type": "event"
				},
				{
					"anonymous": false,
					"inputs": [
						{
							"indexed": true,
							"internalType": "contract IERC20",
							"name": "quoteAsset",
							"type": "address"
						}
					],
					"name": "QuoteAssetAdded",
					"type": "event"
				},
				{
					"anonymous": false,
					"inputs": [
						{
							"indexed": true,
							"internalType": "contract IERC20",
							"name": "quoteAsset",
							"type": "address"
						}
					],
					"name": "QuoteAssetRemoved",
					"type": "event"
				},
				{
					"inputs": [],
					"name": "LBPairImplementation",
					"outputs": [
						{
							"internalType": "address",
							"name": "",
							"type": "address"
						}
					],
					"stateMutability": "view",
					"type": "function"
				},
				{
					"inputs": [],
					"name": "MAX_FEE",
					"outputs": [
						{
							"internalType": "uint256",
							"name": "",
							"type": "uint256"
						}
					],
					"stateMutability": "view",
					"type": "function"
				},
				{
					"inputs": [
						{
							"internalType": "contract IERC20",
							"name": "_quoteAsset",
							"type": "address"
						}
					],
					"name": "addQuoteAsset",
					"outputs": [],
					"stateMutability": "nonpayable",
					"type": "function"
				},
				{
					"inputs": [
						{
							"internalType": "uint256",
							"name": "",
							"type": "uint256"
						}
					],
					"name": "allLBPairs",
					"outputs": [
						{
							"internalType": "contract ILBPair",
							"name": "",
							"type": "address"
						}
					],
					"stateMutability": "view",
					"type": "function"
				},
				{
					"inputs": [],
					"name": "becomeOwner",
					"outputs": [],
					"stateMutability": "nonpayable",
					"type": "function"
				},
				{
					"inputs": [
						{
							"internalType": "contract IERC20",
							"name": "_tokenX",
							"type": "address"
						},
						{
							"internalType": "contract IERC20",
							"name": "_tokenY",
							"type": "address"
						},
						{
							"internalType": "uint24",
							"name": "_activeId",
							"type": "uint24"
						},
						{
							"internalType": "bool",
							"name": "_vtokenFactional",
							"type": "bool"
						}
					],
					"name": "createLBPair",
					"outputs": [
						{
							"internalType": "contract ILBPair",
							"name": "_LBPair",
							"type": "address"
						}
					],
					"stateMutability": "nonpayable",
					"type": "function"
				},
				{
					"inputs": [],
					"name": "creationUnlocked",
					"outputs": [
						{
							"internalType": "bool",
							"name": "",
							"type": "bool"
						}
					],
					"stateMutability": "view",
					"type": "function"
				},
				{
					"inputs": [],
					"name": "feeRecipient",
					"outputs": [
						{
							"internalType": "address",
							"name": "",
							"type": "address"
						}
					],
					"stateMutability": "view",
					"type": "function"
				},
				{
					"inputs": [],
					"name": "flashLoanFee",
					"outputs": [
						{
							"internalType": "uint256",
							"name": "",
							"type": "uint256"
						}
					],
					"stateMutability": "view",
					"type": "function"
				},
				{
					"inputs": [
						{
							"internalType": "contract IERC20",
							"name": "_tokenA",
							"type": "address"
						},
						{
							"internalType": "contract IERC20",
							"name": "_tokenB",
							"type": "address"
						}
					],
					"name": "getLBPairInformation",
					"outputs": [
						{
							"components": [
								{
									"internalType": "contract ILBPair",
									"name": "LBPair",
									"type": "address"
								},
								{
									"internalType": "bool",
									"name": "createdByOwner",
									"type": "bool"
								}
							],
							"internalType": "struct ILBFactory.LBPairInformation",
							"name": "",
							"type": "tuple"
						}
					],
					"stateMutability": "view",
					"type": "function"
				},
				{
					"inputs": [],
					"name": "getNumberOfLBPairs",
					"outputs": [
						{
							"internalType": "uint256",
							"name": "",
							"type": "uint256"
						}
					],
					"stateMutability": "view",
					"type": "function"
				},
				{
					"inputs": [],
					"name": "getNumberOfQuoteAssets",
					"outputs": [
						{
							"internalType": "uint256",
							"name": "",
							"type": "uint256"
						}
					],
					"stateMutability": "view",
					"type": "function"
				},
				{
					"inputs": [
						{
							"internalType": "uint256",
							"name": "_index",
							"type": "uint256"
						}
					],
					"name": "getQuoteAsset",
					"outputs": [
						{
							"internalType": "contract IERC20",
							"name": "",
							"type": "address"
						}
					],
					"stateMutability": "view",
					"type": "function"
				},
				{
					"inputs": [
						{
							"internalType": "contract IERC20",
							"name": "_token",
							"type": "address"
						}
					],
					"name": "isQuoteAsset",
					"outputs": [
						{
							"internalType": "bool",
							"name": "",
							"type": "bool"
						}
					],
					"stateMutability": "view",
					"type": "function"
				},
				{
					"inputs": [],
					"name": "owner",
					"outputs": [
						{
							"internalType": "address",
							"name": "",
							"type": "address"
						}
					],
					"stateMutability": "view",
					"type": "function"
				},
				{
					"inputs": [],
					"name": "pendingOwner",
					"outputs": [
						{
							"internalType": "address",
							"name": "",
							"type": "address"
						}
					],
					"stateMutability": "view",
					"type": "function"
				},
				{
					"inputs": [
						{
							"internalType": "contract IERC20",
							"name": "_quoteAsset",
							"type": "address"
						}
					],
					"name": "removeQuoteAsset",
					"outputs": [],
					"stateMutability": "nonpayable",
					"type": "function"
				},
				{
					"inputs": [],
					"name": "renounceOwnership",
					"outputs": [],
					"stateMutability": "nonpayable",
					"type": "function"
				},
				{
					"inputs": [],
					"name": "revokePendingOwner",
					"outputs": [],
					"stateMutability": "nonpayable",
					"type": "function"
				},
				{
					"inputs": [
						{
							"internalType": "bool",
							"name": "_locked",
							"type": "bool"
						}
					],
					"name": "setFactoryLockedState",
					"outputs": [],
					"stateMutability": "nonpayable",
					"type": "function"
				},
				{
					"inputs": [
						{
							"internalType": "address",
							"name": "_feeRecipient",
							"type": "address"
						}
					],
					"name": "setFeeRecipient",
					"outputs": [],
					"stateMutability": "nonpayable",
					"type": "function"
				},
				{
					"inputs": [
						{
							"internalType": "address",
							"name": "_LBPairImplementation",
							"type": "address"
						}
					],
					"name": "setLBPairImplementation",
					"outputs": [],
					"stateMutability": "nonpayable",
					"type": "function"
				},
				{
					"inputs": [
						{
							"internalType": "address",
							"name": "pendingOwner_",
							"type": "address"
						}
					],
					"name": "setPendingOwner",
					"outputs": [],
					"stateMutability": "nonpayable",
					"type": "function"
				}
			],
			"devdoc": {
				"author": "Trader Joe",
				"kind": "dev",
				"methods": {
					"addQuoteAsset(address)": {
						"params": {
							"_quoteAsset": "The quote asset (e.g: AVAX, USDC...)"
						}
					},
					"constructor": {
						"params": {
							"_feeRecipient": "The address of the fee recipient"
						}
					},
					"createLBPair(address,address,uint24,bool)": {
						"params": {
							"_activeId": "The active id of the pair",
							"_tokenX": "The address of the first token",
							"_tokenY": "The address of the second token"
						},
						"returns": {
							"_LBPair": "The address of the newly created LBPair"
						}
					},
					"getLBPairInformation(address,address)": {
						"params": {
							"_tokenA": "The address of the first token of the pair",
							"_tokenB": "The address of the second token of the pair"
						},
						"returns": {
							"_0": "The LBPairInformation"
						}
					},
					"getNumberOfLBPairs()": {
						"returns": {
							"_0": "The number of LBPair"
						}
					},
					"getNumberOfQuoteAssets()": {
						"returns": {
							"_0": "The number of quote assets"
						}
					},
					"getQuoteAsset(uint256)": {
						"params": {
							"_index": "The index"
						},
						"returns": {
							"_0": "The address of the _quoteAsset at index `index`"
						}
					},
					"isQuoteAsset(address)": {
						"params": {
							"_token": "The address of the asset"
						},
						"returns": {
							"_0": "Whether the token is a quote asset or not"
						}
					},
					"owner()": {
						"returns": {
							"_0": "The address of the current owner"
						}
					},
					"pendingOwner()": {
						"returns": {
							"_0": "The address of the current pending owner"
						}
					},
					"removeQuoteAsset(address)": {
						"params": {
							"_quoteAsset": "The quote asset (e.g: AVAX, USDC...)"
						}
					},
					"setFactoryLockedState(bool)": {
						"params": {
							"_locked": "If the creation is restricted (true) or not (false)"
						}
					},
					"setFeeRecipient(address)": {
						"params": {
							"_feeRecipient": "The address of the recipient"
						}
					},
					"setLBPairImplementation(address)": {
						"details": "Needs to be called by the owner",
						"params": {
							"_LBPairImplementation": "The address of the implementation"
						}
					}
				},
				"stateVariables": {
					"_LBPairsInfo": {
						"details": "Mapping from a (tokenA, tokenB, binStep) to a LBPair. The tokens are ordered to save gas, but they can be in the reverse order in the actual pair. Always query one of the 2 tokens of the pair to assert the order of the 2 tokens"
					},
					"_availablePresets": {
						"details": "Whether a preset was set or not, if the bit at `index` is 1, it means that the binStep `index` was set The max binStep set is 247. We use this method instead of an array to keep it ordered and to reduce gas"
					}
				},
				"title": "Liquidity Book Factory",
				"version": 1
			},
			"evm": {
				"assembly": "    /* \"Midas/joe-v2-main/src/LBFactory.sol\":712:10210  contract LBFactory is PendingOwnable, ILBFactory {... */\n  mstore(0x40, 0x80)\n    /* \"Midas/joe-v2-main/src/LBFactory.sol\":2126:2209  constructor(address _feeRecipient) {... */\n  callvalue\n  dup1\n  iszero\n  tag_1\n  jumpi\n  0x00\n  dup1\n  revert\ntag_1:\n  pop\n  mload(0x40)\n  sub(codesize, bytecodeSize)\n  dup1\n  bytecodeSize\n  dup4\n  codecopy\n  dup2\n  dup2\n  add\n  0x40\n  mstore\n  dup2\n  add\n  swap1\n  tag_2\n  swap2\n  swap1\n  tag_3\n  jump\t// in\ntag_2:\n    /* \"Midas/joe-v2-main/src/libraries/PendingOwnable.sol\":1652:1682  _transferOwnership(msg.sender) */\n  tag_7\n    /* \"Midas/joe-v2-main/src/libraries/PendingOwnable.sol\":1671:1681  msg.sender */\n  caller\n    /* \"Midas/joe-v2-main/src/libraries/PendingOwnable.sol\":1652:1670  _transferOwnership */\n  shl(0x20, tag_8)\n    /* \"Midas/joe-v2-main/src/libraries/PendingOwnable.sol\":1652:1682  _transferOwnership(msg.sender) */\n  0x20\n  shr\n  jump\t// in\ntag_7:\n    /* \"Midas/joe-v2-main/src/LBFactory.sol\":2171:2202  _setFeeRecipient(_feeRecipient) */\n  tag_10\n    /* \"Midas/joe-v2-main/src/LBFactory.sol\":2188:2201  _feeRecipient */\n  dup2\n    /* \"Midas/joe-v2-main/src/LBFactory.sol\":2171:2187  _setFeeRecipient */\n  shl(0x20, tag_11)\n    /* \"Midas/joe-v2-main/src/LBFactory.sol\":2171:2202  _setFeeRecipient(_feeRecipient) */\n  0x20\n  shr\n  jump\t// in\ntag_10:\n    /* \"Midas/joe-v2-main/src/LBFactory.sol\":2126:2209  constructor(address _feeRecipient) {... */\n  pop\n    /* \"Midas/joe-v2-main/src/LBFactory.sol\":712:10210  contract LBFactory is PendingOwnable, ILBFactory {... */\n  jump(tag_12)\n    /* \"Midas/joe-v2-main/src/libraries/PendingOwnable.sol\":3788:4016  function _transferOwnership(address _newOwner) internal virtual {... */\ntag_8:\n    /* \"Midas/joe-v2-main/src/libraries/PendingOwnable.sol\":3862:3879  address _oldOwner */\n  0x00\n    /* \"Midas/joe-v2-main/src/libraries/PendingOwnable.sol\":3882:3888  _owner */\n  dup1\n  0x00\n  swap1\n  sload\n  swap1\n  0x0100\n  exp\n  swap1\n  div\n  0xffffffffffffffffffffffffffffffffffffffff\n  and\n    /* \"Midas/joe-v2-main/src/libraries/PendingOwnable.sol\":3862:3888  address _oldOwner = _owner */\n  swap1\n  pop\n    /* \"Midas/joe-v2-main/src/libraries/PendingOwnable.sol\":3907:3916  _newOwner */\n  dup2\n    /* \"Midas/joe-v2-main/src/libraries/PendingOwnable.sol\":3898:3904  _owner */\n  0x00\n  dup1\n    /* \"Midas/joe-v2-main/src/libraries/PendingOwnable.sol\":3898:3916  _owner = _newOwner */\n  0x0100\n  exp\n  dup2\n  sload\n  dup2\n  0xffffffffffffffffffffffffffffffffffffffff\n  mul\n  not\n  and\n  swap1\n  dup4\n  0xffffffffffffffffffffffffffffffffffffffff\n  and\n  mul\n  or\n  swap1\n  sstore\n  pop\n    /* \"Midas/joe-v2-main/src/libraries/PendingOwnable.sol\":3950:3951  0 */\n  0x00\n    /* \"Midas/joe-v2-main/src/libraries/PendingOwnable.sol\":3926:3939  _pendingOwner */\n  0x01\n  0x00\n    /* \"Midas/joe-v2-main/src/libraries/PendingOwnable.sol\":3926:3952  _pendingOwner = address(0) */\n  0x0100\n  exp\n  dup2\n  sload\n  dup2\n  0xffffffffffffffffffffffffffffffffffffffff\n  mul\n  not\n  and\n  swap1\n  dup4\n  0xffffffffffffffffffffffffffffffffffffffff\n  and\n  mul\n  or\n  swap1\n  sstore\n  pop\n    /* \"Midas/joe-v2-main/src/libraries/PendingOwnable.sol\":3999:4008  _newOwner */\n  dup2\n    /* \"Midas/joe-v2-main/src/libraries/PendingOwnable.sol\":3967:4009  OwnershipTransferred(_oldOwner, _newOwner) */\n  0xffffffffffffffffffffffffffffffffffffffff\n  and\n    /* \"Midas/joe-v2-main/src/libraries/PendingOwnable.sol\":3988:3997  _oldOwner */\n  dup2\n    /* \"Midas/joe-v2-main/src/libraries/PendingOwnable.sol\":3967:4009  OwnershipTransferred(_oldOwner, _newOwner) */\n  0xffffffffffffffffffffffffffffffffffffffff\n  and\n  0x8be0079c531659141344cd1fd0a4f28419497f9722a3daafe3b4186f6b6457e0\n  mload(0x40)\n  mload(0x40)\n  dup1\n  swap2\n  sub\n  swap1\n  log3\n    /* \"Midas/joe-v2-main/src/libraries/PendingOwnable.sol\":3852:4016  {... */\n  pop\n    /* \"Midas/joe-v2-main/src/libraries/PendingOwnable.sol\":3788:4016  function _transferOwnership(address _newOwner) internal virtual {... */\n  pop\n  jump\t// out\n    /* \"Midas/joe-v2-main/src/LBFactory.sol\":8813:9202  function _setFeeRecipient(address _feeRecipient) internal {... */\ntag_11:\n    /* \"Midas/joe-v2-main/src/LBFactory.sol\":8910:8911  0 */\n  0x00\n    /* \"Midas/joe-v2-main/src/LBFactory.sol\":8885:8912  _feeRecipient == address(0) */\n  0xffffffffffffffffffffffffffffffffffffffff\n  and\n    /* \"Midas/joe-v2-main/src/LBFactory.sol\":8885:8898  _feeRecipient */\n  dup2\n    /* \"Midas/joe-v2-main/src/LBFactory.sol\":8885:8912  _feeRecipient == address(0) */\n  0xffffffffffffffffffffffffffffffffffffffff\n  and\n  eq\n    /* \"Midas/joe-v2-main/src/LBFactory.sol\":8881:8945  if (_feeRecipient == address(0)) revert LBFactory__AddressZero() */\n  iszero\n  tag_15\n  jumpi\n    /* \"Midas/joe-v2-main/src/LBFactory.sol\":8921:8945  LBFactory__AddressZero() */\n  mload(0x40)\n  0x95cf3ee400000000000000000000000000000000000000000000000000000000\n  dup2\n  mstore\n  0x04\n  add\n  mload(0x40)\n  dup1\n  swap2\n  sub\n  swap1\n  revert\n    /* \"Midas/joe-v2-main/src/LBFactory.sol\":8881:8945  if (_feeRecipient == address(0)) revert LBFactory__AddressZero() */\ntag_15:\n    /* \"Midas/joe-v2-main/src/LBFactory.sol\":8956:8980  address _oldFeeRecipient */\n  0x00\n    /* \"Midas/joe-v2-main/src/LBFactory.sol\":8983:8995  feeRecipient */\n  0x03\n  0x00\n  swap1\n  sload\n  swap1\n  0x0100\n  exp\n  swap1\n  div\n  0xffffffffffffffffffffffffffffffffffffffff\n  and\n    /* \"Midas/joe-v2-main/src/LBFactory.sol\":8956:8995  address _oldFeeRecipient = feeRecipient */\n  swap1\n  pop\n    /* \"Midas/joe-v2-main/src/LBFactory.sol\":9029:9042  _feeRecipient */\n  dup2\n    /* \"Midas/joe-v2-main/src/LBFactory.sol\":9009:9042  _oldFeeRecipient == _feeRecipient */\n  0xffffffffffffffffffffffffffffffffffffffff\n  and\n    /* \"Midas/joe-v2-main/src/LBFactory.sol\":9009:9025  _oldFeeRecipient */\n  dup2\n    /* \"Midas/joe-v2-main/src/LBFactory.sol\":9009:9042  _oldFeeRecipient == _feeRecipient */\n  0xffffffffffffffffffffffffffffffffffffffff\n  and\n  eq\n    /* \"Midas/joe-v2-main/src/LBFactory.sol\":9005:9093  if (_oldFeeRecipient == _feeRecipient) revert LBFactory__SameFeeRecipient(_feeRecipient) */\n  iszero\n  tag_16\n  jumpi\n    /* \"Midas/joe-v2-main/src/LBFactory.sol\":9079:9092  _feeRecipient */\n  dup2\n    /* \"Midas/joe-v2-main/src/LBFactory.sol\":9051:9093  LBFactory__SameFeeRecipient(_feeRecipient) */\n  mload(0x40)\n  0x4fcea97100000000000000000000000000000000000000000000000000000000\n  dup2\n  mstore\n  0x04\n  add\n  tag_17\n  swap2\n  swap1\n  tag_18\n  jump\t// in\ntag_17:\n  mload(0x40)\n  dup1\n  swap2\n  sub\n  swap1\n  revert\n    /* \"Midas/joe-v2-main/src/LBFactory.sol\":9005:9093  if (_oldFeeRecipient == _feeRecipient) revert LBFactory__SameFeeRecipient(_feeRecipient) */\ntag_16:\n    /* \"Midas/joe-v2-main/src/LBFactory.sol\":9119:9132  _feeRecipient */\n  dup2\n    /* \"Midas/joe-v2-main/src/LBFactory.sol\":9104:9116  feeRecipient */\n  0x03\n  0x00\n    /* \"Midas/joe-v2-main/src/LBFactory.sol\":9104:9132  feeRecipient = _feeRecipient */\n  0x0100\n  exp\n  dup2\n  sload\n  dup2\n  0xffffffffffffffffffffffffffffffffffffffff\n  mul\n  not\n  and\n  swap1\n  dup4\n  0xffffffffffffffffffffffffffffffffffffffff\n  and\n  mul\n  or\n  swap1\n  sstore\n  pop\n    /* \"Midas/joe-v2-main/src/LBFactory.sol\":9147:9195  FeeRecipientSet(_oldFeeRecipient, _feeRecipient) */\n  0x15d80a013f22151bc7246e3bc132e12828cde19de98870475e3fa70840152721\n    /* \"Midas/joe-v2-main/src/LBFactory.sol\":9163:9179  _oldFeeRecipient */\n  dup2\n    /* \"Midas/joe-v2-main/src/LBFactory.sol\":9181:9194  _feeRecipient */\n  dup4\n    /* \"Midas/joe-v2-main/src/LBFactory.sol\":9147:9195  FeeRecipientSet(_oldFeeRecipient, _feeRecipient) */\n  mload(0x40)\n  tag_19\n  swap3\n  swap2\n  swap1\n  tag_20\n  jump\t// in\ntag_19:\n  mload(0x40)\n  dup1\n  swap2\n  sub\n  swap1\n  log1\n    /* \"Midas/joe-v2-main/src/LBFactory.sol\":8871:9202  {... */\n  pop\n    /* \"Midas/joe-v2-main/src/LBFactory.sol\":8813:9202  function _setFeeRecipient(address _feeRecipient) internal {... */\n  pop\n  jump\t// out\n    /* \"#utility.yul\":88:205   */\ntag_22:\n    /* \"#utility.yul\":197:198   */\n  0x00\n    /* \"#utility.yul\":194:195   */\n  dup1\n    /* \"#utility.yul\":187:199   */\n  revert\n    /* \"#utility.yul\":334:460   */\ntag_24:\n    /* \"#utility.yul\":371:378   */\n  0x00\n    /* \"#utility.yul\":411:453   */\n  0xffffffffffffffffffffffffffffffffffffffff\n    /* \"#utility.yul\":404:409   */\n  dup3\n    /* \"#utility.yul\":400:454   */\n  and\n    /* \"#utility.yul\":389:454   */\n  swap1\n  pop\n    /* \"#utility.yul\":334:460   */\n  swap2\n  swap1\n  pop\n  jump\t// out\n    /* \"#utility.yul\":466:562   */\ntag_25:\n    /* \"#utility.yul\":503:510   */\n  0x00\n    /* \"#utility.yul\":532:556   */\n  tag_35\n    /* \"#utility.yul\":550:555   */\n  dup3\n    /* \"#utility.yul\":532:556   */\n  tag_24\n  jump\t// in\ntag_35:\n    /* \"#utility.yul\":521:556   */\n  swap1\n  pop\n    /* \"#utility.yul\":466:562   */\n  swap2\n  swap1\n  pop\n  jump\t// out\n    /* \"#utility.yul\":568:690   */\ntag_26:\n    /* \"#utility.yul\":641:665   */\n  tag_37\n    /* \"#utility.yul\":659:664   */\n  dup2\n    /* \"#utility.yul\":641:665   */\n  tag_25\n  jump\t// in\ntag_37:\n    /* \"#utility.yul\":634:639   */\n  dup2\n    /* \"#utility.yul\":631:666   */\n  eq\n    /* \"#utility.yul\":621:684   */\n  tag_38\n  jumpi\n    /* \"#utility.yul\":680:681   */\n  0x00\n    /* \"#utility.yul\":677:678   */\n  dup1\n    /* \"#utility.yul\":670:682   */\n  revert\n    /* \"#utility.yul\":621:684   */\ntag_38:\n    /* \"#utility.yul\":568:690   */\n  pop\n  jump\t// out\n    /* \"#utility.yul\":696:839   */\ntag_27:\n    /* \"#utility.yul\":753:758   */\n  0x00\n    /* \"#utility.yul\":784:790   */\n  dup2\n    /* \"#utility.yul\":778:791   */\n  mload\n    /* \"#utility.yul\":769:791   */\n  swap1\n  pop\n    /* \"#utility.yul\":800:833   */\n  tag_40\n    /* \"#utility.yul\":827:832   */\n  dup2\n    /* \"#utility.yul\":800:833   */\n  tag_26\n  jump\t// in\ntag_40:\n    /* \"#utility.yul\":696:839   */\n  swap3\n  swap2\n  pop\n  pop\n  jump\t// out\n    /* \"#utility.yul\":845:1196   */\ntag_3:\n    /* \"#utility.yul\":915:921   */\n  0x00\n    /* \"#utility.yul\":964:966   */\n  0x20\n    /* \"#utility.yul\":952:961   */\n  dup3\n    /* \"#utility.yul\":943:950   */\n  dup5\n    /* \"#utility.yul\":939:962   */\n  sub\n    /* \"#utility.yul\":935:967   */\n  slt\n    /* \"#utility.yul\":932:1051   */\n  iszero\n  tag_42\n  jumpi\n    /* \"#utility.yul\":970:1049   */\n  tag_43\n  tag_22\n  jump\t// in\ntag_43:\n    /* \"#utility.yul\":932:1051   */\ntag_42:\n    /* \"#utility.yul\":1090:1091   */\n  0x00\n    /* \"#utility.yul\":1115:1179   */\n  tag_44\n    /* \"#utility.yul\":1171:1178   */\n  dup5\n    /* \"#utility.yul\":1162:1168   */\n  dup3\n    /* \"#utility.yul\":1151:1160   */\n  dup6\n    /* \"#utility.yul\":1147:1169   */\n  add\n    /* \"#utility.yul\":1115:1179   */\n  tag_27\n  jump\t// in\ntag_44:\n    /* \"#utility.yul\":1105:1179   */\n  swap2\n  pop\n    /* \"#utility.yul\":1061:1189   */\n  pop\n    /* \"#utility.yul\":845:1196   */\n  swap3\n  swap2\n  pop\n  pop\n  jump\t// out\n    /* \"#utility.yul\":1202:1320   */\ntag_28:\n    /* \"#utility.yul\":1289:1313   */\n  tag_46\n    /* \"#utility.yul\":1307:1312   */\n  dup2\n    /* \"#utility.yul\":1289:1313   */\n  tag_25\n  jump\t// in\ntag_46:\n    /* \"#utility.yul\":1284:1287   */\n  dup3\n    /* \"#utility.yul\":1277:1314   */\n  mstore\n    /* \"#utility.yul\":1202:1320   */\n  pop\n  pop\n  jump\t// out\n    /* \"#utility.yul\":1326:1548   */\ntag_18:\n    /* \"#utility.yul\":1419:1423   */\n  0x00\n    /* \"#utility.yul\":1457:1459   */\n  0x20\n    /* \"#utility.yul\":1446:1455   */\n  dup3\n    /* \"#utility.yul\":1442:1460   */\n  add\n    /* \"#utility.yul\":1434:1460   */\n  swap1\n  pop\n    /* \"#utility.yul\":1470:1541   */\n  tag_48\n    /* \"#utility.yul\":1538:1539   */\n  0x00\n    /* \"#utility.yul\":1527:1536   */\n  dup4\n    /* \"#utility.yul\":1523:1540   */\n  add\n    /* \"#utility.yul\":1514:1520   */\n  dup5\n    /* \"#utility.yul\":1470:1541   */\n  tag_28\n  jump\t// in\ntag_48:\n    /* \"#utility.yul\":1326:1548   */\n  swap3\n  swap2\n  pop\n  pop\n  jump\t// out\n    /* \"#utility.yul\":1554:1886   */\ntag_20:\n    /* \"#utility.yul\":1675:1679   */\n  0x00\n    /* \"#utility.yul\":1713:1715   */\n  0x40\n    /* \"#utility.yul\":1702:1711   */\n  dup3\n    /* \"#utility.yul\":1698:1716   */\n  add\n    /* \"#utility.yul\":1690:1716   */\n  swap1\n  pop\n    /* \"#utility.yul\":1726:1797   */\n  tag_50\n    /* \"#utility.yul\":1794:1795   */\n  0x00\n    /* \"#utility.yul\":1783:1792   */\n  dup4\n    /* \"#utility.yul\":1779:1796   */\n  add\n    /* \"#utility.yul\":1770:1776   */\n  dup6\n    /* \"#utility.yul\":1726:1797   */\n  tag_28\n  jump\t// in\ntag_50:\n    /* \"#utility.yul\":1807:1879   */\n  tag_51\n    /* \"#utility.yul\":1875:1877   */\n  0x20\n    /* \"#utility.yul\":1864:1873   */\n  dup4\n    /* \"#utility.yul\":1860:1878   */\n  add\n    /* \"#utility.yul\":1851:1857   */\n  dup5\n    /* \"#utility.yul\":1807:1879   */\n  tag_28\n  jump\t// in\ntag_51:\n    /* \"#utility.yul\":1554:1886   */\n  swap4\n  swap3\n  pop\n  pop\n  pop\n  jump\t// out\n    /* \"Midas/joe-v2-main/src/LBFactory.sol\":712:10210  contract LBFactory is PendingOwnable, ILBFactory {... */\ntag_12:\n  dataSize(sub_0)\n  dup1\n  dataOffset(sub_0)\n  0x00\n  codecopy\n  0x00\n  return\nstop\n\nsub_0: assembly {\n        /* \"Midas/joe-v2-main/src/LBFactory.sol\":712:10210  contract LBFactory is PendingOwnable, ILBFactory {... */\n      mstore(0x40, 0x80)\n      callvalue\n      dup1\n      iszero\n      tag_1\n      jumpi\n      0x00\n      dup1\n      revert\n    tag_1:\n      pop\n      jumpi(tag_2, lt(calldatasize, 0x04))\n      shr(0xe0, calldataload(0x00))\n      dup1\n      0x72e47b8c\n      gt\n      tag_26\n      jumpi\n      dup1\n      0xddbfd941\n      gt\n      tag_27\n      jumpi\n      dup1\n      0xddbfd941\n      eq\n      tag_20\n      jumpi\n      dup1\n      0xe30c3978\n      eq\n      tag_21\n      jumpi\n      dup1\n      0xe74b981b\n      eq\n      tag_22\n      jumpi\n      dup1\n      0xeaec42a4\n      eq\n      tag_23\n      jumpi\n      dup1\n      0xf89a4cd5\n      eq\n      tag_24\n      jumpi\n      dup1\n      0xf9dca989\n      eq\n      tag_25\n      jumpi\n      jump(tag_2)\n    tag_27:\n      dup1\n      0x72e47b8c\n      eq\n      tag_14\n      jumpi\n      dup1\n      0x80c5061e\n      eq\n      tag_15\n      jumpi\n      dup1\n      0x8da5cb5b\n      eq\n      tag_16\n      jumpi\n      dup1\n      0xb0384781\n      eq\n      tag_17\n      jumpi\n      dup1\n      0xbc063e1a\n      eq\n      tag_18\n      jumpi\n      dup1\n      0xc42069ec\n      eq\n      tag_19\n      jumpi\n      jump(tag_2)\n    tag_26:\n      dup1\n      0x509ceb90\n      gt\n      tag_28\n      jumpi\n      dup1\n      0x509ceb90\n      eq\n      tag_8\n      jumpi\n      dup1\n      0x52e2cf8e\n      eq\n      tag_9\n      jumpi\n      dup1\n      0x5a440923\n      eq\n      tag_10\n      jumpi\n      dup1\n      0x5c779d6d\n      eq\n      tag_11\n      jumpi\n      dup1\n      0x67ab8a4e\n      eq\n      tag_12\n      jumpi\n      dup1\n      0x715018a6\n      eq\n      tag_13\n      jumpi\n      jump(tag_2)\n    tag_28:\n      dup1\n      0x22f3fe14\n      eq\n      tag_3\n      jumpi\n      dup1\n      0x27721842\n      eq\n      tag_4\n      jumpi\n      dup1\n      0x46904840\n      eq\n      tag_5\n      jumpi\n      dup1\n      0x4847cdc8\n      eq\n      tag_6\n      jumpi\n      dup1\n      0x4e937c3a\n      eq\n      tag_7\n      jumpi\n    tag_2:\n      0x00\n      dup1\n      revert\n        /* \"Midas/joe-v2-main/src/LBFactory.sol\":7622:7886  function setFactoryLockedState(bool _locked) external override onlyOwner {... */\n    tag_3:\n      tag_29\n      0x04\n      dup1\n      calldatasize\n      sub\n      dup2\n      add\n      swap1\n      tag_30\n      swap2\n      swap1\n      tag_31\n      jump\t// in\n    tag_30:\n      tag_32\n      jump\t// in\n    tag_29:\n      stop\n        /* \"Midas/joe-v2-main/src/LBFactory.sol\":3225:3370  function isQuoteAsset(IERC20 _token) external view override returns (bool) {... */\n    tag_4:\n      tag_33\n      0x04\n      dup1\n      calldatasize\n      sub\n      dup2\n      add\n      swap1\n      tag_34\n      swap2\n      swap1\n      tag_35\n      jump\t// in\n    tag_34:\n      tag_36\n      jump\t// in\n    tag_33:\n      mload(0x40)\n      tag_37\n      swap2\n      swap1\n      tag_38\n      jump\t// in\n    tag_37:\n      mload(0x40)\n      dup1\n      swap2\n      sub\n      swap1\n      return\n        /* \"Midas/joe-v2-main/src/LBFactory.sol\":999:1035  address public override feeRecipient */\n    tag_5:\n      tag_39\n      tag_40\n      jump\t// in\n    tag_39:\n      mload(0x40)\n      tag_41\n      swap2\n      swap1\n      tag_42\n      jump\t// in\n    tag_41:\n      mload(0x40)\n      dup1\n      swap2\n      sub\n      swap1\n      return\n        /* \"Midas/joe-v2-main/src/LBFactory.sol\":1208:1244  uint256 public override flashLoanFee */\n    tag_6:\n      tag_43\n      tag_44\n      jump\t// in\n    tag_43:\n      mload(0x40)\n      tag_45\n      swap2\n      swap1\n      tag_46\n      jump\t// in\n    tag_45:\n      mload(0x40)\n      dup1\n      swap2\n      sub\n      swap1\n      return\n        /* \"Midas/joe-v2-main/src/LBFactory.sol\":2322:2434  function getNumberOfLBPairs() external view override returns (uint256) {... */\n    tag_7:\n      tag_47\n      tag_48\n      jump\t// in\n    tag_47:\n      mload(0x40)\n      tag_49\n      swap2\n      swap1\n      tag_46\n      jump\t// in\n    tag_49:\n      mload(0x40)\n      dup1\n      swap2\n      sub\n      swap1\n      return\n        /* \"Midas/joe-v2-main/src/LBFactory.sol\":948:992  address public override LBPairImplementation */\n    tag_8:\n      tag_50\n      tag_51\n      jump\t// in\n    tag_50:\n      mload(0x40)\n      tag_52\n      swap2\n      swap1\n      tag_42\n      jump\t// in\n    tag_52:\n      mload(0x40)\n      dup1\n      swap2\n      sub\n      swap1\n      return\n        /* \"Midas/joe-v2-main/src/LBFactory.sol\":4945:7173  function createLBPair(... */\n    tag_9:\n      tag_53\n      0x04\n      dup1\n      calldatasize\n      sub\n      dup2\n      add\n      swap1\n      tag_54\n      swap2\n      swap1\n      tag_55\n      jump\t// in\n    tag_54:\n      tag_56\n      jump\t// in\n    tag_53:\n      mload(0x40)\n      tag_57\n      swap2\n      swap1\n      tag_58\n      jump\t// in\n    tag_57:\n      mload(0x40)\n      dup1\n      swap2\n      sub\n      swap1\n      return\n        /* \"Midas/joe-v2-main/src/LBFactory.sol\":8030:8286  function addQuoteAsset(IERC20 _quoteAsset) external override onlyOwner {... */\n    tag_10:\n      tag_59\n      0x04\n      dup1\n      calldatasize\n      sub\n      dup2\n      add\n      swap1\n      tag_60\n      swap2\n      swap1\n      tag_35\n      jump\t// in\n    tag_60:\n      tag_61\n      jump\t// in\n    tag_59:\n      stop\n        /* \"Midas/joe-v2-main/src/LBFactory.sol\":1164:1201  bool public override creationUnlocked */\n    tag_11:\n      tag_62\n      tag_63\n      jump\t// in\n    tag_62:\n      mload(0x40)\n      tag_64\n      swap2\n      swap1\n      tag_38\n      jump\t// in\n    tag_64:\n      mload(0x40)\n      dup1\n      swap2\n      sub\n      swap1\n      return\n        /* \"Midas/joe-v2-main/src/libraries/PendingOwnable.sol\":2741:2924  function revokePendingOwner() public override onlyOwner {... */\n    tag_12:\n      tag_65\n      tag_66\n      jump\t// in\n    tag_65:\n      stop\n        /* \"Midas/joe-v2-main/src/libraries/PendingOwnable.sol\":3489:3591  function renounceOwnership() public override onlyOwner {... */\n    tag_13:\n      tag_67\n      tag_68\n      jump\t// in\n    tag_67:\n      stop\n        /* \"Midas/joe-v2-main/src/LBFactory.sol\":1251:1287  ILBPair[] public override allLBPairs */\n    tag_14:\n      tag_69\n      0x04\n      dup1\n      calldatasize\n      sub\n      dup2\n      add\n      swap1\n      tag_70\n      swap2\n      swap1\n      tag_71\n      jump\t// in\n    tag_70:\n      tag_72\n      jump\t// in\n    tag_69:\n      mload(0x40)\n      tag_73\n      swap2\n      swap1\n      tag_58\n      jump\t// in\n    tag_73:\n      mload(0x40)\n      dup1\n      swap2\n      sub\n      swap1\n      return\n        /* \"Midas/joe-v2-main/src/LBFactory.sol\":2562:2690  function getNumberOfQuoteAssets() external view override returns (uint256) {... */\n    tag_15:\n      tag_74\n      tag_75\n      jump\t// in\n    tag_74:\n      mload(0x40)\n      tag_76\n      swap2\n      swap1\n      tag_46\n      jump\t// in\n    tag_76:\n      mload(0x40)\n      dup1\n      swap2\n      sub\n      swap1\n      return\n        /* \"Midas/joe-v2-main/src/libraries/PendingOwnable.sol\":1801:1887  function owner() public view override returns (address) {... */\n    tag_16:\n      tag_77\n      tag_78\n      jump\t// in\n    tag_77:\n      mload(0x40)\n      tag_79\n      swap2\n      swap1\n      tag_42\n      jump\t// in\n    tag_79:\n      mload(0x40)\n      dup1\n      swap2\n      sub\n      swap1\n      return\n        /* \"Midas/joe-v2-main/src/LBFactory.sol\":4061:4645  function setLBPairImplementation(address _LBPairImplementation) external override onlyOwner {... */\n    tag_17:\n      tag_80\n      0x04\n      dup1\n      calldatasize\n      sub\n      dup2\n      add\n      swap1\n      tag_81\n      swap2\n      swap1\n      tag_82\n      jump\t// in\n    tag_81:\n      tag_83\n      jump\t// in\n    tag_80:\n      stop\n        /* \"Midas/joe-v2-main/src/LBFactory.sol\":885:934  uint256 public constant override MAX_FEE = 0.1e18 */\n    tag_18:\n      tag_84\n      tag_85\n      jump\t// in\n    tag_84:\n      mload(0x40)\n      tag_86\n      swap2\n      swap1\n      tag_46\n      jump\t// in\n    tag_86:\n      mload(0x40)\n      dup1\n      swap2\n      sub\n      swap1\n      return\n        /* \"Midas/joe-v2-main/src/libraries/PendingOwnable.sol\":2265:2556  function setPendingOwner(address pendingOwner_) public override onlyOwner {... */\n    tag_19:\n      tag_87\n      0x04\n      dup1\n      calldatasize\n      sub\n      dup2\n      add\n      swap1\n      tag_88\n      swap2\n      swap1\n      tag_82\n      jump\t// in\n    tag_88:\n      tag_89\n      jump\t// in\n    tag_87:\n      stop\n        /* \"Midas/joe-v2-main/src/LBFactory.sol\":8435:8683  function removeQuoteAsset(IERC20 _quoteAsset) external override onlyOwner {... */\n    tag_20:\n      tag_90\n      0x04\n      dup1\n      calldatasize\n      sub\n      dup2\n      add\n      swap1\n      tag_91\n      swap2\n      swap1\n      tag_35\n      jump\t// in\n    tag_91:\n      tag_92\n      jump\t// in\n    tag_90:\n      stop\n        /* \"Midas/joe-v2-main/src/libraries/PendingOwnable.sol\":2015:2115  function pendingOwner() public view override returns (address) {... */\n    tag_21:\n      tag_93\n      tag_94\n      jump\t// in\n    tag_93:\n      mload(0x40)\n      tag_95\n      swap2\n      swap1\n      tag_42\n      jump\t// in\n    tag_95:\n      mload(0x40)\n      dup1\n      swap2\n      sub\n      swap1\n      return\n        /* \"Midas/joe-v2-main/src/LBFactory.sol\":7344:7468  function setFeeRecipient(address _feeRecipient) external override onlyOwner {... */\n    tag_22:\n      tag_96\n      0x04\n      dup1\n      calldatasize\n      sub\n      dup2\n      add\n      swap1\n      tag_97\n      swap2\n      swap1\n      tag_82\n      jump\t// in\n    tag_97:\n      tag_98\n      jump\t// in\n    tag_96:\n      stop\n        /* \"Midas/joe-v2-main/src/LBFactory.sol\":3680:3885  function getLBPairInformation(... */\n    tag_23:\n      tag_99\n      0x04\n      dup1\n      calldatasize\n      sub\n      dup2\n      add\n      swap1\n      tag_100\n      swap2\n      swap1\n      tag_101\n      jump\t// in\n    tag_100:\n      tag_102\n      jump\t// in\n    tag_99:\n      mload(0x40)\n      tag_103\n      swap2\n      swap1\n      tag_104\n      jump\t// in\n    tag_103:\n      mload(0x40)\n      dup1\n      swap2\n      sub\n      swap1\n      return\n        /* \"Midas/joe-v2-main/src/LBFactory.sol\":2877:3019  function getQuoteAsset(uint256 _index) external view override returns (IERC20) {... */\n    tag_24:\n      tag_105\n      0x04\n      dup1\n      calldatasize\n      sub\n      dup2\n      add\n      swap1\n      tag_106\n      swap2\n      swap1\n      tag_71\n      jump\t// in\n    tag_106:\n      tag_107\n      jump\t// in\n    tag_105:\n      mload(0x40)\n      tag_108\n      swap2\n      swap1\n      tag_109\n      jump\t// in\n    tag_108:\n      mload(0x40)\n      dup1\n      swap2\n      sub\n      swap1\n      return\n        /* \"Midas/joe-v2-main/src/libraries/PendingOwnable.sol\":3052:3155  function becomeOwner() public override onlyPendingOwner {... */\n    tag_25:\n      tag_110\n      tag_111\n      jump\t// in\n    tag_110:\n      stop\n        /* \"Midas/joe-v2-main/src/LBFactory.sol\":7622:7886  function setFactoryLockedState(bool _locked) external override onlyOwner {... */\n    tag_32:\n        /* \"Midas/joe-v2-main/src/libraries/PendingOwnable.sol\":1239:1245  _owner */\n      0x00\n      dup1\n      sload\n      swap1\n      0x0100\n      exp\n      swap1\n      div\n      0xffffffffffffffffffffffffffffffffffffffff\n      and\n        /* \"Midas/joe-v2-main/src/libraries/PendingOwnable.sol\":1225:1245  msg.sender != _owner */\n      0xffffffffffffffffffffffffffffffffffffffff\n      and\n        /* \"Midas/joe-v2-main/src/libraries/PendingOwnable.sol\":1225:1235  msg.sender */\n      caller\n        /* \"Midas/joe-v2-main/src/libraries/PendingOwnable.sol\":1225:1245  msg.sender != _owner */\n      0xffffffffffffffffffffffffffffffffffffffff\n      and\n      eq\n        /* \"Midas/joe-v2-main/src/libraries/PendingOwnable.sol\":1221:1280  if (msg.sender != _owner) revert PendingOwnable__NotOwner() */\n      tag_113\n      jumpi\n        /* \"Midas/joe-v2-main/src/libraries/PendingOwnable.sol\":1254:1280  PendingOwnable__NotOwner() */\n      mload(0x40)\n      0x9f216c1300000000000000000000000000000000000000000000000000000000\n      dup2\n      mstore\n      0x04\n      add\n      mload(0x40)\n      dup1\n      swap2\n      sub\n      swap1\n      revert\n        /* \"Midas/joe-v2-main/src/libraries/PendingOwnable.sol\":1221:1280  if (msg.sender != _owner) revert PendingOwnable__NotOwner() */\n    tag_113:\n        /* \"Midas/joe-v2-main/src/LBFactory.sol\":7729:7736  _locked */\n      dup1\n        /* \"Midas/joe-v2-main/src/LBFactory.sol\":7709:7736  creationUnlocked != _locked */\n      iszero\n      iszero\n        /* \"Midas/joe-v2-main/src/LBFactory.sol\":7709:7725  creationUnlocked */\n      0x03\n      0x14\n      swap1\n      sload\n      swap1\n      0x0100\n      exp\n      swap1\n      div\n      0xff\n      and\n        /* \"Midas/joe-v2-main/src/LBFactory.sol\":7709:7736  creationUnlocked != _locked */\n      iszero\n      iszero\n      eq\n        /* \"Midas/joe-v2-main/src/LBFactory.sol\":7705:7792  if (creationUnlocked != _locked) revert LBFactory__FactoryLockIsAlreadyInTheSameState() */\n      tag_115\n      jumpi\n        /* \"Midas/joe-v2-main/src/LBFactory.sol\":7745:7792  LBFactory__FactoryLockIsAlreadyInTheSameState() */\n      mload(0x40)\n      0x0b6ef29400000000000000000000000000000000000000000000000000000000\n      dup2\n      mstore\n      0x04\n      add\n      mload(0x40)\n      dup1\n      swap2\n      sub\n      swap1\n      revert\n        /* \"Midas/joe-v2-main/src/LBFactory.sol\":7705:7792  if (creationUnlocked != _locked) revert LBFactory__FactoryLockIsAlreadyInTheSameState() */\n    tag_115:\n        /* \"Midas/joe-v2-main/src/LBFactory.sol\":7822:7829  _locked */\n      dup1\n        /* \"Midas/joe-v2-main/src/LBFactory.sol\":7821:7829  !_locked */\n      iszero\n        /* \"Midas/joe-v2-main/src/LBFactory.sol\":7802:7818  creationUnlocked */\n      0x03\n      0x14\n        /* \"Midas/joe-v2-main/src/LBFactory.sol\":7802:7829  creationUnlocked = !_locked */\n      0x0100\n      exp\n      dup2\n      sload\n      dup2\n      0xff\n      mul\n      not\n      and\n      swap1\n      dup4\n      iszero\n      iszero\n      mul\n      or\n      swap1\n      sstore\n      pop\n        /* \"Midas/joe-v2-main/src/LBFactory.sol\":7844:7879  FactoryLockedStatusUpdated(_locked) */\n      0xcdee7bf87b7a743b4cbe1d2d534c5248621b76f58460337e7fda92d5d23f4124\n        /* \"Midas/joe-v2-main/src/LBFactory.sol\":7871:7878  _locked */\n      dup2\n        /* \"Midas/joe-v2-main/src/LBFactory.sol\":7844:7879  FactoryLockedStatusUpdated(_locked) */\n      mload(0x40)\n      tag_116\n      swap2\n      swap1\n      tag_38\n      jump\t// in\n    tag_116:\n      mload(0x40)\n      dup1\n      swap2\n      sub\n      swap1\n      log1\n        /* \"Midas/joe-v2-main/src/LBFactory.sol\":7622:7886  function setFactoryLockedState(bool _locked) external override onlyOwner {... */\n      pop\n      jump\t// out\n        /* \"Midas/joe-v2-main/src/LBFactory.sol\":3225:3370  function isQuoteAsset(IERC20 _token) external view override returns (bool) {... */\n    tag_36:\n        /* \"Midas/joe-v2-main/src/LBFactory.sol\":3294:3298  bool */\n      0x00\n        /* \"Midas/joe-v2-main/src/LBFactory.sol\":3317:3363  _quoteAssetWhitelist.contains(address(_token)) */\n      tag_118\n        /* \"Midas/joe-v2-main/src/LBFactory.sol\":3355:3361  _token */\n      dup3\n        /* \"Midas/joe-v2-main/src/LBFactory.sol\":3317:3337  _quoteAssetWhitelist */\n      0x09\n        /* \"Midas/joe-v2-main/src/LBFactory.sol\":3317:3346  _quoteAssetWhitelist.contains */\n      tag_119\n      swap1\n        /* \"Midas/joe-v2-main/src/LBFactory.sol\":3317:3363  _quoteAssetWhitelist.contains(address(_token)) */\n      swap2\n      swap1\n      0xffffffff\n      and\n      jump\t// in\n    tag_118:\n        /* \"Midas/joe-v2-main/src/LBFactory.sol\":3310:3363  return _quoteAssetWhitelist.contains(address(_token)) */\n      swap1\n      pop\n        /* \"Midas/joe-v2-main/src/LBFactory.sol\":3225:3370  function isQuoteAsset(IERC20 _token) external view override returns (bool) {... */\n      swap2\n      swap1\n      pop\n      jump\t// out\n        /* \"Midas/joe-v2-main/src/LBFactory.sol\":999:1035  address public override feeRecipient */\n    tag_40:\n      0x03\n      0x00\n      swap1\n      sload\n      swap1\n      0x0100\n      exp\n      swap1\n      div\n      0xffffffffffffffffffffffffffffffffffffffff\n      and\n      dup2\n      jump\t// out\n        /* \"Midas/joe-v2-main/src/LBFactory.sol\":1208:1244  uint256 public override flashLoanFee */\n    tag_44:\n      sload(0x04)\n      dup2\n      jump\t// out\n        /* \"Midas/joe-v2-main/src/LBFactory.sol\":2322:2434  function getNumberOfLBPairs() external view override returns (uint256) {... */\n    tag_48:\n        /* \"Midas/joe-v2-main/src/LBFactory.sol\":2384:2391  uint256 */\n      0x00\n        /* \"Midas/joe-v2-main/src/LBFactory.sol\":2410:2420  allLBPairs */\n      0x05\n        /* \"Midas/joe-v2-main/src/LBFactory.sol\":2410:2427  allLBPairs.length */\n      dup1\n      sload\n      swap1\n      pop\n        /* \"Midas/joe-v2-main/src/LBFactory.sol\":2403:2427  return allLBPairs.length */\n      swap1\n      pop\n        /* \"Midas/joe-v2-main/src/LBFactory.sol\":2322:2434  function getNumberOfLBPairs() external view override returns (uint256) {... */\n      swap1\n      jump\t// out\n        /* \"Midas/joe-v2-main/src/LBFactory.sol\":948:992  address public override LBPairImplementation */\n    tag_51:\n      0x02\n      0x00\n      swap1\n      sload\n      swap1\n      0x0100\n      exp\n      swap1\n      div\n      0xffffffffffffffffffffffffffffffffffffffff\n      and\n      dup2\n      jump\t// out\n        /* \"Midas/joe-v2-main/src/LBFactory.sol\":4945:7173  function createLBPair(... */\n    tag_56:\n        /* \"Midas/joe-v2-main/src/LBFactory.sol\":5105:5120  ILBPair _LBPair */\n      0x00\n        /* \"Midas/joe-v2-main/src/LBFactory.sol\":5132:5146  address _owner */\n      dup1\n        /* \"Midas/joe-v2-main/src/LBFactory.sol\":5149:5156  owner() */\n      tag_122\n        /* \"Midas/joe-v2-main/src/LBFactory.sol\":5149:5154  owner */\n      tag_78\n        /* \"Midas/joe-v2-main/src/LBFactory.sol\":5149:5156  owner() */\n      jump\t// in\n    tag_122:\n        /* \"Midas/joe-v2-main/src/LBFactory.sol\":5132:5156  address _owner = owner() */\n      swap1\n      pop\n        /* \"Midas/joe-v2-main/src/LBFactory.sol\":5171:5187  creationUnlocked */\n      0x03\n      0x14\n      swap1\n      sload\n      swap1\n      0x0100\n      exp\n      swap1\n      div\n      0xff\n      and\n        /* \"Midas/joe-v2-main/src/LBFactory.sol\":5170:5187  !creationUnlocked */\n      iszero\n        /* \"Midas/joe-v2-main/src/LBFactory.sol\":5170:5211  !creationUnlocked && msg.sender != _owner */\n      dup1\n      iszero\n      tag_123\n      jumpi\n      pop\n        /* \"Midas/joe-v2-main/src/LBFactory.sol\":5205:5211  _owner */\n      dup1\n        /* \"Midas/joe-v2-main/src/LBFactory.sol\":5191:5211  msg.sender != _owner */\n      0xffffffffffffffffffffffffffffffffffffffff\n      and\n        /* \"Midas/joe-v2-main/src/LBFactory.sol\":5191:5201  msg.sender */\n      caller\n        /* \"Midas/joe-v2-main/src/LBFactory.sol\":5191:5211  msg.sender != _owner */\n      0xffffffffffffffffffffffffffffffffffffffff\n      and\n      eq\n      iszero\n        /* \"Midas/joe-v2-main/src/LBFactory.sol\":5170:5211  !creationUnlocked && msg.sender != _owner */\n    tag_123:\n        /* \"Midas/joe-v2-main/src/LBFactory.sol\":5166:5267  if (!creationUnlocked && msg.sender != _owner) revert LBFactory__FunctionIsLockedForUsers(msg.sender) */\n      iszero\n      tag_124\n      jumpi\n        /* \"Midas/joe-v2-main/src/LBFactory.sol\":5256:5266  msg.sender */\n      caller\n        /* \"Midas/joe-v2-main/src/LBFactory.sol\":5220:5267  LBFactory__FunctionIsLockedForUsers(msg.sender) */\n      mload(0x40)\n      0x3a43e98000000000000000000000000000000000000000000000000000000000\n      dup2\n      mstore\n      0x04\n      add\n      tag_125\n      swap2\n      swap1\n      tag_42\n      jump\t// in\n    tag_125:\n      mload(0x40)\n      dup1\n      swap2\n      sub\n      swap1\n      revert\n        /* \"Midas/joe-v2-main/src/LBFactory.sol\":5166:5267  if (!creationUnlocked && msg.sender != _owner) revert LBFactory__FunctionIsLockedForUsers(msg.sender) */\n    tag_124:\n        /* \"Midas/joe-v2-main/src/LBFactory.sol\":5278:5307  address _LBPairImplementation */\n      0x00\n        /* \"Midas/joe-v2-main/src/LBFactory.sol\":5310:5330  LBPairImplementation */\n      0x02\n      0x00\n      swap1\n      sload\n      swap1\n      0x0100\n      exp\n      swap1\n      div\n      0xffffffffffffffffffffffffffffffffffffffff\n      and\n        /* \"Midas/joe-v2-main/src/LBFactory.sol\":5278:5330  address _LBPairImplementation = LBPairImplementation */\n      swap1\n      pop\n        /* \"Midas/joe-v2-main/src/LBFactory.sol\":5378:5379  0 */\n      0x00\n        /* \"Midas/joe-v2-main/src/LBFactory.sol\":5345:5380  _LBPairImplementation == address(0) */\n      0xffffffffffffffffffffffffffffffffffffffff\n      and\n        /* \"Midas/joe-v2-main/src/LBFactory.sol\":5345:5366  _LBPairImplementation */\n      dup2\n        /* \"Midas/joe-v2-main/src/LBFactory.sol\":5345:5380  _LBPairImplementation == address(0) */\n      0xffffffffffffffffffffffffffffffffffffffff\n      and\n      eq\n        /* \"Midas/joe-v2-main/src/LBFactory.sol\":5341:5422  if (_LBPairImplementation == address(0)) revert LBFactory__ImplementationNotSet() */\n      iszero\n      tag_126\n      jumpi\n        /* \"Midas/joe-v2-main/src/LBFactory.sol\":5389:5422  LBFactory__ImplementationNotSet() */\n      mload(0x40)\n      0xa2d3f3e400000000000000000000000000000000000000000000000000000000\n      dup2\n      mstore\n      0x04\n      add\n      mload(0x40)\n      dup1\n      swap2\n      sub\n      swap1\n      revert\n        /* \"Midas/joe-v2-main/src/LBFactory.sol\":5341:5422  if (_LBPairImplementation == address(0)) revert LBFactory__ImplementationNotSet() */\n    tag_126:\n        /* \"Midas/joe-v2-main/src/LBFactory.sol\":5438:5485  _quoteAssetWhitelist.contains(address(_tokenY)) */\n      tag_127\n        /* \"Midas/joe-v2-main/src/LBFactory.sol\":5476:5483  _tokenY */\n      dup7\n        /* \"Midas/joe-v2-main/src/LBFactory.sol\":5438:5458  _quoteAssetWhitelist */\n      0x09\n        /* \"Midas/joe-v2-main/src/LBFactory.sol\":5438:5467  _quoteAssetWhitelist.contains */\n      tag_119\n      swap1\n        /* \"Midas/joe-v2-main/src/LBFactory.sol\":5438:5485  _quoteAssetWhitelist.contains(address(_tokenY)) */\n      swap2\n      swap1\n      0xffffffff\n      and\n      jump\t// in\n    tag_127:\n        /* \"Midas/joe-v2-main/src/LBFactory.sol\":5433:5538  if (!_quoteAssetWhitelist.contains(address(_tokenY))) revert LBFactory__QuoteAssetNotWhitelisted(_tokenY) */\n      tag_128\n      jumpi\n        /* \"Midas/joe-v2-main/src/LBFactory.sol\":5530:5537  _tokenY */\n      dup6\n        /* \"Midas/joe-v2-main/src/LBFactory.sol\":5494:5538  LBFactory__QuoteAssetNotWhitelisted(_tokenY) */\n      mload(0x40)\n      0x8e888ef300000000000000000000000000000000000000000000000000000000\n      dup2\n      mstore\n      0x04\n      add\n      tag_129\n      swap2\n      swap1\n      tag_109\n      jump\t// in\n    tag_129:\n      mload(0x40)\n      dup1\n      swap2\n      sub\n      swap1\n      revert\n        /* \"Midas/joe-v2-main/src/LBFactory.sol\":5433:5538  if (!_quoteAssetWhitelist.contains(address(_tokenY))) revert LBFactory__QuoteAssetNotWhitelisted(_tokenY) */\n    tag_128:\n        /* \"Midas/joe-v2-main/src/LBFactory.sol\":5564:5571  _tokenY */\n      dup6\n        /* \"Midas/joe-v2-main/src/LBFactory.sol\":5553:5571  _tokenX == _tokenY */\n      0xffffffffffffffffffffffffffffffffffffffff\n      and\n        /* \"Midas/joe-v2-main/src/LBFactory.sol\":5553:5560  _tokenX */\n      dup8\n        /* \"Midas/joe-v2-main/src/LBFactory.sol\":5553:5571  _tokenX == _tokenY */\n      0xffffffffffffffffffffffffffffffffffffffff\n      and\n      eq\n        /* \"Midas/joe-v2-main/src/LBFactory.sol\":5549:5618  if (_tokenX == _tokenY) revert LBFactory__IdenticalAddresses(_tokenX) */\n      iszero\n      tag_130\n      jumpi\n        /* \"Midas/joe-v2-main/src/LBFactory.sol\":5610:5617  _tokenX */\n      dup7\n        /* \"Midas/joe-v2-main/src/LBFactory.sol\":5580:5618  LBFactory__IdenticalAddresses(_tokenX) */\n      mload(0x40)\n      0x2f9b185300000000000000000000000000000000000000000000000000000000\n      dup2\n      mstore\n      0x04\n      add\n      tag_131\n      swap2\n      swap1\n      tag_109\n      jump\t// in\n    tag_131:\n      mload(0x40)\n      dup1\n      swap2\n      sub\n      swap1\n      revert\n        /* \"Midas/joe-v2-main/src/LBFactory.sol\":5549:5618  if (_tokenX == _tokenY) revert LBFactory__IdenticalAddresses(_tokenX) */\n    tag_130:\n        /* \"Midas/joe-v2-main/src/LBFactory.sol\":5699:5734  BinHelper.getPriceFromId(_activeId) */\n      tag_132\n        /* \"Midas/joe-v2-main/src/LBFactory.sol\":5724:5733  _activeId */\n      dup6\n        /* \"Midas/joe-v2-main/src/LBFactory.sol\":5699:5734  BinHelper.getPriceFromId(_activeId) */\n      0xffffff\n      and\n        /* \"Midas/joe-v2-main/src/LBFactory.sol\":5699:5723  BinHelper.getPriceFromId */\n      tag_133\n        /* \"Midas/joe-v2-main/src/LBFactory.sol\":5699:5734  BinHelper.getPriceFromId(_activeId) */\n      jump\t// in\n    tag_132:\n      pop\n        /* \"Midas/joe-v2-main/src/LBFactory.sol\":5853:5867  IERC20 _tokenA */\n      0x00\n        /* \"Midas/joe-v2-main/src/LBFactory.sol\":5869:5883  IERC20 _tokenB */\n      dup1\n        /* \"Midas/joe-v2-main/src/LBFactory.sol\":5887:5916  _sortTokens(_tokenX, _tokenY) */\n      tag_134\n        /* \"Midas/joe-v2-main/src/LBFactory.sol\":5899:5906  _tokenX */\n      dup10\n        /* \"Midas/joe-v2-main/src/LBFactory.sol\":5908:5915  _tokenY */\n      dup10\n        /* \"Midas/joe-v2-main/src/LBFactory.sol\":5887:5898  _sortTokens */\n      tag_135\n        /* \"Midas/joe-v2-main/src/LBFactory.sol\":5887:5916  _sortTokens(_tokenX, _tokenY) */\n      jump\t// in\n    tag_134:\n        /* \"Midas/joe-v2-main/src/LBFactory.sol\":5852:5916  (IERC20 _tokenA, IERC20 _tokenB) = _sortTokens(_tokenX, _tokenY) */\n      swap2\n      pop\n      swap2\n      pop\n        /* \"Midas/joe-v2-main/src/LBFactory.sol\":5996:5997  0 */\n      0x00\n        /* \"Midas/joe-v2-main/src/LBFactory.sol\":5968:5998  address(_tokenA) == address(0) */\n      0xffffffffffffffffffffffffffffffffffffffff\n      and\n        /* \"Midas/joe-v2-main/src/LBFactory.sol\":5976:5983  _tokenA */\n      dup3\n        /* \"Midas/joe-v2-main/src/LBFactory.sol\":5968:5998  address(_tokenA) == address(0) */\n      0xffffffffffffffffffffffffffffffffffffffff\n      and\n      eq\n        /* \"Midas/joe-v2-main/src/LBFactory.sol\":5964:6031  if (address(_tokenA) == address(0)) revert LBFactory__AddressZero() */\n      iszero\n      tag_136\n      jumpi\n        /* \"Midas/joe-v2-main/src/LBFactory.sol\":6007:6031  LBFactory__AddressZero() */\n      mload(0x40)\n      0x95cf3ee400000000000000000000000000000000000000000000000000000000\n      dup2\n      mstore\n      0x04\n      add\n      mload(0x40)\n      dup1\n      swap2\n      sub\n      swap1\n      revert\n        /* \"Midas/joe-v2-main/src/LBFactory.sol\":5964:6031  if (address(_tokenA) == address(0)) revert LBFactory__AddressZero() */\n    tag_136:\n        /* \"Midas/joe-v2-main/src/LBFactory.sol\":6103:6104  0 */\n      0x00\n        /* \"Midas/joe-v2-main/src/LBFactory.sol\":6045:6105  address(_LBPairsInfo[_tokenA][_tokenB].LBPair) != address(0) */\n      0xffffffffffffffffffffffffffffffffffffffff\n      and\n        /* \"Midas/joe-v2-main/src/LBFactory.sol\":6053:6065  _LBPairsInfo */\n      0x06\n        /* \"Midas/joe-v2-main/src/LBFactory.sol\":6053:6074  _LBPairsInfo[_tokenA] */\n      0x00\n        /* \"Midas/joe-v2-main/src/LBFactory.sol\":6066:6073  _tokenA */\n      dup5\n        /* \"Midas/joe-v2-main/src/LBFactory.sol\":6053:6074  _LBPairsInfo[_tokenA] */\n      0xffffffffffffffffffffffffffffffffffffffff\n      and\n      0xffffffffffffffffffffffffffffffffffffffff\n      and\n      dup2\n      mstore\n      0x20\n      add\n      swap1\n      dup2\n      mstore\n      0x20\n      add\n      0x00\n      keccak256\n        /* \"Midas/joe-v2-main/src/LBFactory.sol\":6053:6083  _LBPairsInfo[_tokenA][_tokenB] */\n      0x00\n        /* \"Midas/joe-v2-main/src/LBFactory.sol\":6075:6082  _tokenB */\n      dup4\n        /* \"Midas/joe-v2-main/src/LBFactory.sol\":6053:6083  _LBPairsInfo[_tokenA][_tokenB] */\n      0xffffffffffffffffffffffffffffffffffffffff\n      and\n      0xffffffffffffffffffffffffffffffffffffffff\n      and\n      dup2\n      mstore\n      0x20\n      add\n      swap1\n      dup2\n      mstore\n      0x20\n      add\n      0x00\n      keccak256\n        /* \"Midas/joe-v2-main/src/LBFactory.sol\":6053:6090  _LBPairsInfo[_tokenA][_tokenB].LBPair */\n      0x00\n      add\n      0x00\n      swap1\n      sload\n      swap1\n      0x0100\n      exp\n      swap1\n      div\n      0xffffffffffffffffffffffffffffffffffffffff\n      and\n        /* \"Midas/joe-v2-main/src/LBFactory.sol\":6045:6105  address(_LBPairsInfo[_tokenA][_tokenB].LBPair) != address(0) */\n      0xffffffffffffffffffffffffffffffffffffffff\n      and\n      eq\n        /* \"Midas/joe-v2-main/src/LBFactory.sol\":6041:6177  if (address(_LBPairsInfo[_tokenA][_tokenB].LBPair) != address(0))... */\n      tag_137\n      jumpi\n        /* \"Midas/joe-v2-main/src/LBFactory.sol\":6157:6164  _tokenX */\n      dup9\n        /* \"Midas/joe-v2-main/src/LBFactory.sol\":6166:6173  _tokenY */\n      dup9\n        /* \"Midas/joe-v2-main/src/LBFactory.sol\":6175:6176  1 */\n      0x01\n        /* \"Midas/joe-v2-main/src/LBFactory.sol\":6126:6177  LBFactory__LBPairAlreadyExists(_tokenX, _tokenY, 1) */\n      mload(0x40)\n      0xcb27a43500000000000000000000000000000000000000000000000000000000\n      dup2\n      mstore\n      0x04\n      add\n      tag_138\n      swap4\n      swap3\n      swap2\n      swap1\n      tag_139\n      jump\t// in\n    tag_138:\n      mload(0x40)\n      dup1\n      swap2\n      sub\n      swap1\n      revert\n        /* \"Midas/joe-v2-main/src/LBFactory.sol\":6041:6177  if (address(_LBPairsInfo[_tokenA][_tokenB].LBPair) != address(0))... */\n    tag_137:\n        /* \"Midas/joe-v2-main/src/LBFactory.sol\":6188:6201  bytes32 _salt */\n      0x00\n        /* \"Midas/joe-v2-main/src/LBFactory.sol\":6225:6232  _tokenA */\n      dup3\n        /* \"Midas/joe-v2-main/src/LBFactory.sol\":6234:6241  _tokenB */\n      dup3\n        /* \"Midas/joe-v2-main/src/LBFactory.sol\":6214:6242  abi.encode(_tokenA, _tokenB) */\n      add(0x20, mload(0x40))\n      tag_140\n      swap3\n      swap2\n      swap1\n      tag_141\n      jump\t// in\n    tag_140:\n      mload(0x40)\n      0x20\n      dup2\n      dup4\n      sub\n      sub\n      dup2\n      mstore\n      swap1\n      0x40\n      mstore\n        /* \"Midas/joe-v2-main/src/LBFactory.sol\":6204:6243  keccak256(abi.encode(_tokenA, _tokenB)) */\n      dup1\n      mload\n      swap1\n      0x20\n      add\n      keccak256\n        /* \"Midas/joe-v2-main/src/LBFactory.sol\":6188:6243  bytes32 _salt = keccak256(abi.encode(_tokenA, _tokenB)) */\n      swap1\n      pop\n        /* \"Midas/joe-v2-main/src/LBFactory.sol\":6271:6326  Clones.cloneDeterministic(_LBPairImplementation, _salt) */\n      tag_142\n        /* \"Midas/joe-v2-main/src/LBFactory.sol\":6297:6318  _LBPairImplementation */\n      dup5\n        /* \"Midas/joe-v2-main/src/LBFactory.sol\":6320:6325  _salt */\n      dup3\n        /* \"Midas/joe-v2-main/src/LBFactory.sol\":6271:6296  Clones.cloneDeterministic */\n      tag_143\n        /* \"Midas/joe-v2-main/src/LBFactory.sol\":6271:6326  Clones.cloneDeterministic(_LBPairImplementation, _salt) */\n      jump\t// in\n    tag_142:\n        /* \"Midas/joe-v2-main/src/LBFactory.sol\":6253:6327  _LBPair = ILBPair(Clones.cloneDeterministic(_LBPairImplementation, _salt)) */\n      swap6\n      pop\n        /* \"Midas/joe-v2-main/src/LBFactory.sol\":6338:6345  _LBPair */\n      dup6\n        /* \"Midas/joe-v2-main/src/LBFactory.sol\":6338:6356  _LBPair.initialize */\n      0xffffffffffffffffffffffffffffffffffffffff\n      and\n      0x8c6abc0f\n        /* \"Midas/joe-v2-main/src/LBFactory.sol\":6357:6364  _tokenX */\n      dup12\n        /* \"Midas/joe-v2-main/src/LBFactory.sol\":6366:6373  _tokenY */\n      dup12\n        /* \"Midas/joe-v2-main/src/LBFactory.sol\":6375:6384  _activeId */\n      dup12\n        /* \"Midas/joe-v2-main/src/LBFactory.sol\":6386:6402  _vtokenFactional */\n      dup12\n        /* \"Midas/joe-v2-main/src/LBFactory.sol\":6338:6403  _LBPair.initialize(_tokenX, _tokenY, _activeId, _vtokenFactional) */\n      mload(0x40)\n      dup6\n      0xffffffff\n      and\n      0xe0\n      shl\n      dup2\n      mstore\n      0x04\n      add\n      tag_144\n      swap5\n      swap4\n      swap3\n      swap2\n      swap1\n      tag_145\n      jump\t// in\n    tag_144:\n      0x00\n      mload(0x40)\n      dup1\n      dup4\n      sub\n      dup2\n      0x00\n      dup8\n      dup1\n      extcodesize\n      iszero\n      dup1\n      iszero\n      tag_146\n      jumpi\n      0x00\n      dup1\n      revert\n    tag_146:\n      pop\n      gas\n      call\n      iszero\n      dup1\n      iszero\n      tag_148\n      jumpi\n      returndatasize\n      0x00\n      dup1\n      returndatacopy\n      revert(0x00, returndatasize)\n    tag_148:\n      pop\n      pop\n      pop\n      pop\n        /* \"Midas/joe-v2-main/src/LBFactory.sol\":6447:6555  LBPairInformation({... */\n      mload(0x40)\n      dup1\n      0x40\n      add\n      0x40\n      mstore\n      dup1\n        /* \"Midas/joe-v2-main/src/LBFactory.sol\":6487:6494  _LBPair */\n      dup8\n        /* \"Midas/joe-v2-main/src/LBFactory.sol\":6447:6555  LBPairInformation({... */\n      0xffffffffffffffffffffffffffffffffffffffff\n      and\n      dup2\n      mstore\n      0x20\n      add\n        /* \"Midas/joe-v2-main/src/LBFactory.sol\":6538:6544  _owner */\n      dup7\n        /* \"Midas/joe-v2-main/src/LBFactory.sol\":6524:6544  msg.sender == _owner */\n      0xffffffffffffffffffffffffffffffffffffffff\n      and\n        /* \"Midas/joe-v2-main/src/LBFactory.sol\":6524:6534  msg.sender */\n      caller\n        /* \"Midas/joe-v2-main/src/LBFactory.sol\":6524:6544  msg.sender == _owner */\n      0xffffffffffffffffffffffffffffffffffffffff\n      and\n      eq\n        /* \"Midas/joe-v2-main/src/LBFactory.sol\":6447:6555  LBPairInformation({... */\n      iszero\n      iszero\n      dup2\n      mstore\n      pop\n        /* \"Midas/joe-v2-main/src/LBFactory.sol\":6414:6426  _LBPairsInfo */\n      0x06\n        /* \"Midas/joe-v2-main/src/LBFactory.sol\":6414:6435  _LBPairsInfo[_tokenA] */\n      0x00\n        /* \"Midas/joe-v2-main/src/LBFactory.sol\":6427:6434  _tokenA */\n      dup6\n        /* \"Midas/joe-v2-main/src/LBFactory.sol\":6414:6435  _LBPairsInfo[_tokenA] */\n      0xffffffffffffffffffffffffffffffffffffffff\n      and\n      0xffffffffffffffffffffffffffffffffffffffff\n      and\n      dup2\n      mstore\n      0x20\n      add\n      swap1\n      dup2\n      mstore\n      0x20\n      add\n      0x00\n      keccak256\n        /* \"Midas/joe-v2-main/src/LBFactory.sol\":6414:6444  _LBPairsInfo[_tokenA][_tokenB] */\n      0x00\n        /* \"Midas/joe-v2-main/src/LBFactory.sol\":6436:6443  _tokenB */\n      dup5\n        /* \"Midas/joe-v2-main/src/LBFactory.sol\":6414:6444  _LBPairsInfo[_tokenA][_tokenB] */\n      0xffffffffffffffffffffffffffffffffffffffff\n      and\n      0xffffffffffffffffffffffffffffffffffffffff\n      and\n      dup2\n      mstore\n      0x20\n      add\n      swap1\n      dup2\n      mstore\n      0x20\n      add\n      0x00\n      keccak256\n        /* \"Midas/joe-v2-main/src/LBFactory.sol\":6414:6555  _LBPairsInfo[_tokenA][_tokenB] = LBPairInformation({... */\n      0x00\n      dup3\n      add\n      mload\n      dup2\n      0x00\n      add\n      exp(0x0100, 0x00)\n      dup2\n      sload\n      dup2\n      0xffffffffffffffffffffffffffffffffffffffff\n      mul\n      not\n      and\n      swap1\n      dup4\n      0xffffffffffffffffffffffffffffffffffffffff\n      and\n      mul\n      or\n      swap1\n      sstore\n      pop\n      0x20\n      dup3\n      add\n      mload\n      dup2\n      0x00\n      add\n      exp(0x0100, 0x14)\n      dup2\n      sload\n      dup2\n      0xff\n      mul\n      not\n      and\n      swap1\n      dup4\n      iszero\n      iszero\n      mul\n      or\n      swap1\n      sstore\n      pop\n      swap1\n      pop\n      pop\n        /* \"Midas/joe-v2-main/src/LBFactory.sol\":6566:6576  allLBPairs */\n      0x05\n        /* \"Midas/joe-v2-main/src/LBFactory.sol\":6582:6589  _LBPair */\n      dup7\n        /* \"Midas/joe-v2-main/src/LBFactory.sol\":6566:6590  allLBPairs.push(_LBPair) */\n      swap1\n      dup1\n      0x01\n      dup2\n      sload\n      add\n      dup1\n      dup3\n      sstore\n      dup1\n      swap2\n      pop\n      pop\n      0x01\n      swap1\n      sub\n      swap1\n      0x00\n      mstore\n      keccak256(0x00, 0x20)\n      add\n      0x00\n      swap1\n      swap2\n      swap1\n      swap2\n      swap1\n      swap2\n      0x0100\n      exp\n      dup2\n      sload\n      dup2\n      0xffffffffffffffffffffffffffffffffffffffff\n      mul\n      not\n      and\n      swap1\n      dup4\n      0xffffffffffffffffffffffffffffffffffffffff\n      and\n      mul\n      or\n      swap1\n      sstore\n      pop\n        /* \"Midas/joe-v2-main/src/LBFactory.sol\":6629:6636  _tokenY */\n      dup9\n        /* \"Midas/joe-v2-main/src/LBFactory.sol\":6606:6669  LBPairCreated(_tokenX, _tokenY, _LBPair, allLBPairs.length - 1) */\n      0xffffffffffffffffffffffffffffffffffffffff\n      and\n        /* \"Midas/joe-v2-main/src/LBFactory.sol\":6620:6627  _tokenX */\n      dup11\n        /* \"Midas/joe-v2-main/src/LBFactory.sol\":6606:6669  LBPairCreated(_tokenX, _tokenY, _LBPair, allLBPairs.length - 1) */\n      0xffffffffffffffffffffffffffffffffffffffff\n      and\n      0x612fdd9b533d1ca33088dcbca9ad3186eeadc9893e63715b8a783040d729cd6a\n        /* \"Midas/joe-v2-main/src/LBFactory.sol\":6638:6645  _LBPair */\n      dup9\n        /* \"Midas/joe-v2-main/src/LBFactory.sol\":6667:6668  1 */\n      0x01\n        /* \"Midas/joe-v2-main/src/LBFactory.sol\":6647:6657  allLBPairs */\n      0x05\n        /* \"Midas/joe-v2-main/src/LBFactory.sol\":6647:6664  allLBPairs.length */\n      dup1\n      sload\n      swap1\n      pop\n        /* \"Midas/joe-v2-main/src/LBFactory.sol\":6647:6668  allLBPairs.length - 1 */\n      tag_150\n      swap2\n      swap1\n      tag_151\n      jump\t// in\n    tag_150:\n        /* \"Midas/joe-v2-main/src/LBFactory.sol\":6606:6669  LBPairCreated(_tokenX, _tokenY, _LBPair, allLBPairs.length - 1) */\n      mload(0x40)\n      tag_152\n      swap3\n      swap2\n      swap1\n      tag_153\n      jump\t// in\n    tag_152:\n      mload(0x40)\n      dup1\n      swap2\n      sub\n      swap1\n      log3\n        /* \"Midas/joe-v2-main/src/LBFactory.sol\":5122:7173  {... */\n      pop\n      pop\n      pop\n      pop\n      pop\n        /* \"Midas/joe-v2-main/src/LBFactory.sol\":4945:7173  function createLBPair(... */\n      swap5\n      swap4\n      pop\n      pop\n      pop\n      pop\n      jump\t// out\n        /* \"Midas/joe-v2-main/src/LBFactory.sol\":8030:8286  function addQuoteAsset(IERC20 _quoteAsset) external override onlyOwner {... */\n    tag_61:\n        /* \"Midas/joe-v2-main/src/libraries/PendingOwnable.sol\":1239:1245  _owner */\n      0x00\n      dup1\n      sload\n      swap1\n      0x0100\n      exp\n      swap1\n      div\n      0xffffffffffffffffffffffffffffffffffffffff\n      and\n        /* \"Midas/joe-v2-main/src/libraries/PendingOwnable.sol\":1225:1245  msg.sender != _owner */\n      0xffffffffffffffffffffffffffffffffffffffff\n      and\n        /* \"Midas/joe-v2-main/src/libraries/PendingOwnable.sol\":1225:1235  msg.sender */\n      caller\n        /* \"Midas/joe-v2-main/src/libraries/PendingOwnable.sol\":1225:1245  msg.sender != _owner */\n      0xffffffffffffffffffffffffffffffffffffffff\n      and\n      eq\n        /* \"Midas/joe-v2-main/src/libraries/PendingOwnable.sol\":1221:1280  if (msg.sender != _owner) revert PendingOwnable__NotOwner() */\n      tag_155\n      jumpi\n        /* \"Midas/joe-v2-main/src/libraries/PendingOwnable.sol\":1254:1280  PendingOwnable__NotOwner() */\n      mload(0x40)\n      0x9f216c1300000000000000000000000000000000000000000000000000000000\n      dup2\n      mstore\n      0x04\n      add\n      mload(0x40)\n      dup1\n      swap2\n      sub\n      swap1\n      revert\n        /* \"Midas/joe-v2-main/src/libraries/PendingOwnable.sol\":1221:1280  if (msg.sender != _owner) revert PendingOwnable__NotOwner() */\n    tag_155:\n        /* \"Midas/joe-v2-main/src/LBFactory.sol\":8116:8162  _quoteAssetWhitelist.add(address(_quoteAsset)) */\n      tag_157\n        /* \"Midas/joe-v2-main/src/LBFactory.sol\":8149:8160  _quoteAsset */\n      dup2\n        /* \"Midas/joe-v2-main/src/LBFactory.sol\":8116:8136  _quoteAssetWhitelist */\n      0x09\n        /* \"Midas/joe-v2-main/src/LBFactory.sol\":8116:8140  _quoteAssetWhitelist.add */\n      tag_158\n      swap1\n        /* \"Midas/joe-v2-main/src/LBFactory.sol\":8116:8162  _quoteAssetWhitelist.add(address(_quoteAsset)) */\n      swap2\n      swap1\n      0xffffffff\n      and\n      jump\t// in\n    tag_157:\n        /* \"Midas/joe-v2-main/src/LBFactory.sol\":8111:8235  if (!_quoteAssetWhitelist.add(address(_quoteAsset)))... */\n      tag_159\n      jumpi\n        /* \"Midas/joe-v2-main/src/LBFactory.sol\":8223:8234  _quoteAsset */\n      dup1\n        /* \"Midas/joe-v2-main/src/LBFactory.sol\":8183:8235  LBFactory__QuoteAssetAlreadyWhitelisted(_quoteAsset) */\n      mload(0x40)\n      0x03ce0ad900000000000000000000000000000000000000000000000000000000\n      dup2\n      mstore\n      0x04\n      add\n      tag_160\n      swap2\n      swap1\n      tag_109\n      jump\t// in\n    tag_160:\n      mload(0x40)\n      dup1\n      swap2\n      sub\n      swap1\n      revert\n        /* \"Midas/joe-v2-main/src/LBFactory.sol\":8111:8235  if (!_quoteAssetWhitelist.add(address(_quoteAsset)))... */\n    tag_159:\n        /* \"Midas/joe-v2-main/src/LBFactory.sol\":8267:8278  _quoteAsset */\n      dup1\n        /* \"Midas/joe-v2-main/src/LBFactory.sol\":8251:8279  QuoteAssetAdded(_quoteAsset) */\n      0xffffffffffffffffffffffffffffffffffffffff\n      and\n      0x84cc2115995684dcb0cd3d3a9565e3d32f075de81db70c8dc3a719b2a47af67e\n      mload(0x40)\n      mload(0x40)\n      dup1\n      swap2\n      sub\n      swap1\n      log2\n        /* \"Midas/joe-v2-main/src/LBFactory.sol\":8030:8286  function addQuoteAsset(IERC20 _quoteAsset) external override onlyOwner {... */\n      pop\n      jump\t// out\n        /* \"Midas/joe-v2-main/src/LBFactory.sol\":1164:1201  bool public override creationUnlocked */\n    tag_63:\n      0x03\n      0x14\n      swap1\n      sload\n      swap1\n      0x0100\n      exp\n      swap1\n      div\n      0xff\n      and\n      dup2\n      jump\t// out\n        /* \"Midas/joe-v2-main/src/libraries/PendingOwnable.sol\":2741:2924  function revokePendingOwner() public override onlyOwner {... */\n    tag_66:\n        /* \"Midas/joe-v2-main/src/libraries/PendingOwnable.sol\":1239:1245  _owner */\n      0x00\n      dup1\n      sload\n      swap1\n      0x0100\n      exp\n      swap1\n      div\n      0xffffffffffffffffffffffffffffffffffffffff\n      and\n        /* \"Midas/joe-v2-main/src/libraries/PendingOwnable.sol\":1225:1245  msg.sender != _owner */\n      0xffffffffffffffffffffffffffffffffffffffff\n      and\n        /* \"Midas/joe-v2-main/src/libraries/PendingOwnable.sol\":1225:1235  msg.sender */\n      caller\n        /* \"Midas/joe-v2-main/src/libraries/PendingOwnable.sol\":1225:1245  msg.sender != _owner */\n      0xffffffffffffffffffffffffffffffffffffffff\n      and\n      eq\n        /* \"Midas/joe-v2-main/src/libraries/PendingOwnable.sol\":1221:1280  if (msg.sender != _owner) revert PendingOwnable__NotOwner() */\n      tag_162\n      jumpi\n        /* \"Midas/joe-v2-main/src/libraries/PendingOwnable.sol\":1254:1280  PendingOwnable__NotOwner() */\n      mload(0x40)\n      0x9f216c1300000000000000000000000000000000000000000000000000000000\n      dup2\n      mstore\n      0x04\n      add\n      mload(0x40)\n      dup1\n      swap2\n      sub\n      swap1\n      revert\n        /* \"Midas/joe-v2-main/src/libraries/PendingOwnable.sol\":1221:1280  if (msg.sender != _owner) revert PendingOwnable__NotOwner() */\n    tag_162:\n        /* \"Midas/joe-v2-main/src/libraries/PendingOwnable.sol\":2836:2837  0 */\n      0x00\n        /* \"Midas/joe-v2-main/src/libraries/PendingOwnable.sol\":2811:2838  _pendingOwner == address(0) */\n      0xffffffffffffffffffffffffffffffffffffffff\n      and\n        /* \"Midas/joe-v2-main/src/libraries/PendingOwnable.sol\":2811:2824  _pendingOwner */\n      0x01\n      0x00\n      swap1\n      sload\n      swap1\n      0x0100\n      exp\n      swap1\n      div\n      0xffffffffffffffffffffffffffffffffffffffff\n      and\n        /* \"Midas/joe-v2-main/src/libraries/PendingOwnable.sol\":2811:2838  _pendingOwner == address(0) */\n      0xffffffffffffffffffffffffffffffffffffffff\n      and\n      eq\n        /* \"Midas/joe-v2-main/src/libraries/PendingOwnable.sol\":2807:2879  if (_pendingOwner == address(0)) revert PendingOwnable__NoPendingOwner() */\n      iszero\n      tag_164\n      jumpi\n        /* \"Midas/joe-v2-main/src/libraries/PendingOwnable.sol\":2847:2879  PendingOwnable__NoPendingOwner() */\n      mload(0x40)\n      0xecfad6bf00000000000000000000000000000000000000000000000000000000\n      dup2\n      mstore\n      0x04\n      add\n      mload(0x40)\n      dup1\n      swap2\n      sub\n      swap1\n      revert\n        /* \"Midas/joe-v2-main/src/libraries/PendingOwnable.sol\":2807:2879  if (_pendingOwner == address(0)) revert PendingOwnable__NoPendingOwner() */\n    tag_164:\n        /* \"Midas/joe-v2-main/src/libraries/PendingOwnable.sol\":2889:2917  _setPendingOwner(address(0)) */\n      tag_165\n        /* \"Midas/joe-v2-main/src/libraries/PendingOwnable.sol\":2914:2915  0 */\n      0x00\n        /* \"Midas/joe-v2-main/src/libraries/PendingOwnable.sol\":2889:2905  _setPendingOwner */\n      tag_166\n        /* \"Midas/joe-v2-main/src/libraries/PendingOwnable.sol\":2889:2917  _setPendingOwner(address(0)) */\n      jump\t// in\n    tag_165:\n        /* \"Midas/joe-v2-main/src/libraries/PendingOwnable.sol\":2741:2924  function revokePendingOwner() public override onlyOwner {... */\n      jump\t// out\n        /* \"Midas/joe-v2-main/src/libraries/PendingOwnable.sol\":3489:3591  function renounceOwnership() public override onlyOwner {... */\n    tag_68:\n        /* \"Midas/joe-v2-main/src/libraries/PendingOwnable.sol\":1239:1245  _owner */\n      0x00\n      dup1\n      sload\n      swap1\n      0x0100\n      exp\n      swap1\n      div\n      0xffffffffffffffffffffffffffffffffffffffff\n      and\n        /* \"Midas/joe-v2-main/src/libraries/PendingOwnable.sol\":1225:1245  msg.sender != _owner */\n      0xffffffffffffffffffffffffffffffffffffffff\n      and\n        /* \"Midas/joe-v2-main/src/libraries/PendingOwnable.sol\":1225:1235  msg.sender */\n      caller\n        /* \"Midas/joe-v2-main/src/libraries/PendingOwnable.sol\":1225:1245  msg.sender != _owner */\n      0xffffffffffffffffffffffffffffffffffffffff\n      and\n      eq\n        /* \"Midas/joe-v2-main/src/libraries/PendingOwnable.sol\":1221:1280  if (msg.sender != _owner) revert PendingOwnable__NotOwner() */\n      tag_168\n      jumpi\n        /* \"Midas/joe-v2-main/src/libraries/PendingOwnable.sol\":1254:1280  PendingOwnable__NotOwner() */\n      mload(0x40)\n      0x9f216c1300000000000000000000000000000000000000000000000000000000\n      dup2\n      mstore\n      0x04\n      add\n      mload(0x40)\n      dup1\n      swap2\n      sub\n      swap1\n      revert\n        /* \"Midas/joe-v2-main/src/libraries/PendingOwnable.sol\":1221:1280  if (msg.sender != _owner) revert PendingOwnable__NotOwner() */\n    tag_168:\n        /* \"Midas/joe-v2-main/src/libraries/PendingOwnable.sol\":3554:3584  _transferOwnership(address(0)) */\n      tag_170\n        /* \"Midas/joe-v2-main/src/libraries/PendingOwnable.sol\":3581:3582  0 */\n      0x00\n        /* \"Midas/joe-v2-main/src/libraries/PendingOwnable.sol\":3554:3572  _transferOwnership */\n      tag_171\n        /* \"Midas/joe-v2-main/src/libraries/PendingOwnable.sol\":3554:3584  _transferOwnership(address(0)) */\n      jump\t// in\n    tag_170:\n        /* \"Midas/joe-v2-main/src/libraries/PendingOwnable.sol\":3489:3591  function renounceOwnership() public override onlyOwner {... */\n      jump\t// out\n        /* \"Midas/joe-v2-main/src/LBFactory.sol\":1251:1287  ILBPair[] public override allLBPairs */\n    tag_72:\n      0x05\n      dup2\n      dup2\n      sload\n      dup2\n      lt\n      tag_172\n      jumpi\n      0x00\n      dup1\n      revert\n    tag_172:\n      swap1\n      0x00\n      mstore\n      keccak256(0x00, 0x20)\n      add\n      0x00\n      swap2\n      pop\n      sload\n      swap1\n      0x0100\n      exp\n      swap1\n      div\n      0xffffffffffffffffffffffffffffffffffffffff\n      and\n      dup2\n      jump\t// out\n        /* \"Midas/joe-v2-main/src/LBFactory.sol\":2562:2690  function getNumberOfQuoteAssets() external view override returns (uint256) {... */\n    tag_75:\n        /* \"Midas/joe-v2-main/src/LBFactory.sol\":2628:2635  uint256 */\n      0x00\n        /* \"Midas/joe-v2-main/src/LBFactory.sol\":2654:2683  _quoteAssetWhitelist.length() */\n      tag_175\n        /* \"Midas/joe-v2-main/src/LBFactory.sol\":2654:2674  _quoteAssetWhitelist */\n      0x09\n        /* \"Midas/joe-v2-main/src/LBFactory.sol\":2654:2681  _quoteAssetWhitelist.length */\n      tag_176\n        /* \"Midas/joe-v2-main/src/LBFactory.sol\":2654:2683  _quoteAssetWhitelist.length() */\n      jump\t// in\n    tag_175:\n        /* \"Midas/joe-v2-main/src/LBFactory.sol\":2647:2683  return _quoteAssetWhitelist.length() */\n      swap1\n      pop\n        /* \"Midas/joe-v2-main/src/LBFactory.sol\":2562:2690  function getNumberOfQuoteAssets() external view override returns (uint256) {... */\n      swap1\n      jump\t// out\n        /* \"Midas/joe-v2-main/src/libraries/PendingOwnable.sol\":1801:1887  function owner() public view override returns (address) {... */\n    tag_78:\n        /* \"Midas/joe-v2-main/src/libraries/PendingOwnable.sol\":1848:1855  address */\n      0x00\n        /* \"Midas/joe-v2-main/src/libraries/PendingOwnable.sol\":1874:1880  _owner */\n      dup1\n      0x00\n      swap1\n      sload\n      swap1\n      0x0100\n      exp\n      swap1\n      div\n      0xffffffffffffffffffffffffffffffffffffffff\n      and\n        /* \"Midas/joe-v2-main/src/libraries/PendingOwnable.sol\":1867:1880  return _owner */\n      swap1\n      pop\n        /* \"Midas/joe-v2-main/src/libraries/PendingOwnable.sol\":1801:1887  function owner() public view override returns (address) {... */\n      swap1\n      jump\t// out\n        /* \"Midas/joe-v2-main/src/LBFactory.sol\":4061:4645  function setLBPairImplementation(address _LBPairImplementation) external override onlyOwner {... */\n    tag_83:\n        /* \"Midas/joe-v2-main/src/libraries/PendingOwnable.sol\":1239:1245  _owner */\n      0x00\n      dup1\n      sload\n      swap1\n      0x0100\n      exp\n      swap1\n      div\n      0xffffffffffffffffffffffffffffffffffffffff\n      and\n        /* \"Midas/joe-v2-main/src/libraries/PendingOwnable.sol\":1225:1245  msg.sender != _owner */\n      0xffffffffffffffffffffffffffffffffffffffff\n      and\n        /* \"Midas/joe-v2-main/src/libraries/PendingOwnable.sol\":1225:1235  msg.sender */\n      caller\n        /* \"Midas/joe-v2-main/src/libraries/PendingOwnable.sol\":1225:1245  msg.sender != _owner */\n      0xffffffffffffffffffffffffffffffffffffffff\n      and\n      eq\n        /* \"Midas/joe-v2-main/src/libraries/PendingOwnable.sol\":1221:1280  if (msg.sender != _owner) revert PendingOwnable__NotOwner() */\n      tag_179\n      jumpi\n        /* \"Midas/joe-v2-main/src/libraries/PendingOwnable.sol\":1254:1280  PendingOwnable__NotOwner() */\n      mload(0x40)\n      0x9f216c1300000000000000000000000000000000000000000000000000000000\n      dup2\n      mstore\n      0x04\n      add\n      mload(0x40)\n      dup1\n      swap2\n      sub\n      swap1\n      revert\n        /* \"Midas/joe-v2-main/src/libraries/PendingOwnable.sol\":1221:1280  if (msg.sender != _owner) revert PendingOwnable__NotOwner() */\n    tag_179:\n        /* \"Midas/joe-v2-main/src/LBFactory.sol\":4211:4215  this */\n      address\n        /* \"Midas/joe-v2-main/src/LBFactory.sol\":4167:4215  ILBPair(_LBPairImplementation).factory() != this */\n      0xffffffffffffffffffffffffffffffffffffffff\n      and\n        /* \"Midas/joe-v2-main/src/LBFactory.sol\":4175:4196  _LBPairImplementation */\n      dup2\n        /* \"Midas/joe-v2-main/src/LBFactory.sol\":4167:4205  ILBPair(_LBPairImplementation).factory */\n      0xffffffffffffffffffffffffffffffffffffffff\n      and\n      0xc45a0155\n        /* \"Midas/joe-v2-main/src/LBFactory.sol\":4167:4207  ILBPair(_LBPairImplementation).factory() */\n      mload(0x40)\n      dup2\n      0xffffffff\n      and\n      0xe0\n      shl\n      dup2\n      mstore\n      0x04\n      add\n      0x20\n      mload(0x40)\n      dup1\n      dup4\n      sub\n      dup2\n      dup7\n      gas\n      staticcall\n      iszero\n      dup1\n      iszero\n      tag_182\n      jumpi\n      returndatasize\n      0x00\n      dup1\n      returndatacopy\n      revert(0x00, returndatasize)\n    tag_182:\n      pop\n      pop\n      pop\n      pop\n      mload(0x40)\n      returndatasize\n      not(0x1f)\n      0x1f\n      dup3\n      add\n      and\n      dup3\n      add\n      dup1\n      0x40\n      mstore\n      pop\n      dup2\n      add\n      swap1\n      tag_183\n      swap2\n      swap1\n      tag_184\n      jump\t// in\n    tag_183:\n        /* \"Midas/joe-v2-main/src/LBFactory.sol\":4167:4215  ILBPair(_LBPairImplementation).factory() != this */\n      0xffffffffffffffffffffffffffffffffffffffff\n      and\n      eq\n        /* \"Midas/joe-v2-main/src/LBFactory.sol\":4163:4293  if (ILBPair(_LBPairImplementation).factory() != this)... */\n      tag_185\n      jumpi\n        /* \"Midas/joe-v2-main/src/LBFactory.sol\":4271:4292  _LBPairImplementation */\n      dup1\n        /* \"Midas/joe-v2-main/src/LBFactory.sol\":4236:4293  LBFactory__LBPairSafetyCheckFailed(_LBPairImplementation) */\n      mload(0x40)\n      0x147ce15e00000000000000000000000000000000000000000000000000000000\n      dup2\n      mstore\n      0x04\n      add\n      tag_186\n      swap2\n      swap1\n      tag_42\n      jump\t// in\n    tag_186:\n      mload(0x40)\n      dup1\n      swap2\n      sub\n      swap1\n      revert\n        /* \"Midas/joe-v2-main/src/LBFactory.sol\":4163:4293  if (ILBPair(_LBPairImplementation).factory() != this)... */\n    tag_185:\n        /* \"Midas/joe-v2-main/src/LBFactory.sol\":4304:4336  address _oldLBPairImplementation */\n      0x00\n        /* \"Midas/joe-v2-main/src/LBFactory.sol\":4339:4359  LBPairImplementation */\n      0x02\n      0x00\n      swap1\n      sload\n      swap1\n      0x0100\n      exp\n      swap1\n      div\n      0xffffffffffffffffffffffffffffffffffffffff\n      and\n        /* \"Midas/joe-v2-main/src/LBFactory.sol\":4304:4359  address _oldLBPairImplementation = LBPairImplementation */\n      swap1\n      pop\n        /* \"Midas/joe-v2-main/src/LBFactory.sol\":4401:4422  _LBPairImplementation */\n      dup2\n        /* \"Midas/joe-v2-main/src/LBFactory.sol\":4373:4422  _oldLBPairImplementation == _LBPairImplementation */\n      0xffffffffffffffffffffffffffffffffffffffff\n      and\n        /* \"Midas/joe-v2-main/src/LBFactory.sol\":4373:4397  _oldLBPairImplementation */\n      dup2\n        /* \"Midas/joe-v2-main/src/LBFactory.sol\":4373:4422  _oldLBPairImplementation == _LBPairImplementation */\n      0xffffffffffffffffffffffffffffffffffffffff\n      and\n      eq\n        /* \"Midas/joe-v2-main/src/LBFactory.sol\":4369:4495  if (_oldLBPairImplementation == _LBPairImplementation)... */\n      iszero\n      tag_187\n      jumpi\n        /* \"Midas/joe-v2-main/src/LBFactory.sol\":4473:4494  _LBPairImplementation */\n      dup2\n        /* \"Midas/joe-v2-main/src/LBFactory.sol\":4443:4495  LBFactory__SameImplementation(_LBPairImplementation) */\n      mload(0x40)\n      0x6f69dca800000000000000000000000000000000000000000000000000000000\n      dup2\n      mstore\n      0x04\n      add\n      tag_188\n      swap2\n      swap1\n      tag_42\n      jump\t// in\n    tag_188:\n      mload(0x40)\n      dup1\n      swap2\n      sub\n      swap1\n      revert\n        /* \"Midas/joe-v2-main/src/LBFactory.sol\":4369:4495  if (_oldLBPairImplementation == _LBPairImplementation)... */\n    tag_187:\n        /* \"Midas/joe-v2-main/src/LBFactory.sol\":4529:4550  _LBPairImplementation */\n      dup2\n        /* \"Midas/joe-v2-main/src/LBFactory.sol\":4506:4526  LBPairImplementation */\n      0x02\n      0x00\n        /* \"Midas/joe-v2-main/src/LBFactory.sol\":4506:4550  LBPairImplementation = _LBPairImplementation */\n      0x0100\n      exp\n      dup2\n      sload\n      dup2\n      0xffffffffffffffffffffffffffffffffffffffff\n      mul\n      not\n      and\n      swap1\n      dup4\n      0xffffffffffffffffffffffffffffffffffffffff\n      and\n      mul\n      or\n      swap1\n      sstore\n      pop\n        /* \"Midas/joe-v2-main/src/LBFactory.sol\":4566:4638  LBPairImplementationSet(_oldLBPairImplementation, _LBPairImplementation) */\n      0x900d0e3d359f50e4f923ecdc06b401e07dbb9f485e17b07bcfc91a13000b277e\n        /* \"Midas/joe-v2-main/src/LBFactory.sol\":4590:4614  _oldLBPairImplementation */\n      dup2\n        /* \"Midas/joe-v2-main/src/LBFactory.sol\":4616:4637  _LBPairImplementation */\n      dup4\n        /* \"Midas/joe-v2-main/src/LBFactory.sol\":4566:4638  LBPairImplementationSet(_oldLBPairImplementation, _LBPairImplementation) */\n      mload(0x40)\n      tag_189\n      swap3\n      swap2\n      swap1\n      tag_190\n      jump\t// in\n    tag_189:\n      mload(0x40)\n      dup1\n      swap2\n      sub\n      swap1\n      log1\n        /* \"Midas/joe-v2-main/src/LBFactory.sol\":4153:4645  {... */\n      pop\n        /* \"Midas/joe-v2-main/src/LBFactory.sol\":4061:4645  function setLBPairImplementation(address _LBPairImplementation) external override onlyOwner {... */\n      pop\n      jump\t// out\n        /* \"Midas/joe-v2-main/src/LBFactory.sol\":885:934  uint256 public constant override MAX_FEE = 0.1e18 */\n    tag_85:\n        /* \"Midas/joe-v2-main/src/LBFactory.sol\":928:934  0.1e18 */\n      0x016345785d8a0000\n        /* \"Midas/joe-v2-main/src/LBFactory.sol\":885:934  uint256 public constant override MAX_FEE = 0.1e18 */\n      dup2\n      jump\t// out\n        /* \"Midas/joe-v2-main/src/libraries/PendingOwnable.sol\":2265:2556  function setPendingOwner(address pendingOwner_) public override onlyOwner {... */\n    tag_89:\n        /* \"Midas/joe-v2-main/src/libraries/PendingOwnable.sol\":1239:1245  _owner */\n      0x00\n      dup1\n      sload\n      swap1\n      0x0100\n      exp\n      swap1\n      div\n      0xffffffffffffffffffffffffffffffffffffffff\n      and\n        /* \"Midas/joe-v2-main/src/libraries/PendingOwnable.sol\":1225:1245  msg.sender != _owner */\n      0xffffffffffffffffffffffffffffffffffffffff\n      and\n        /* \"Midas/joe-v2-main/src/libraries/PendingOwnable.sol\":1225:1235  msg.sender */\n      caller\n        /* \"Midas/joe-v2-main/src/libraries/PendingOwnable.sol\":1225:1245  msg.sender != _owner */\n      0xffffffffffffffffffffffffffffffffffffffff\n      and\n      eq\n        /* \"Midas/joe-v2-main/src/libraries/PendingOwnable.sol\":1221:1280  if (msg.sender != _owner) revert PendingOwnable__NotOwner() */\n      tag_192\n      jumpi\n        /* \"Midas/joe-v2-main/src/libraries/PendingOwnable.sol\":1254:1280  PendingOwnable__NotOwner() */\n      mload(0x40)\n      0x9f216c1300000000000000000000000000000000000000000000000000000000\n      dup2\n      mstore\n      0x04\n      add\n      mload(0x40)\n      dup1\n      swap2\n      sub\n      swap1\n      revert\n        /* \"Midas/joe-v2-main/src/libraries/PendingOwnable.sol\":1221:1280  if (msg.sender != _owner) revert PendingOwnable__NotOwner() */\n    tag_192:\n        /* \"Midas/joe-v2-main/src/libraries/PendingOwnable.sol\":2378:2379  0 */\n      0x00\n        /* \"Midas/joe-v2-main/src/libraries/PendingOwnable.sol\":2353:2380  pendingOwner_ == address(0) */\n      0xffffffffffffffffffffffffffffffffffffffff\n      and\n        /* \"Midas/joe-v2-main/src/libraries/PendingOwnable.sol\":2353:2366  pendingOwner_ */\n      dup2\n        /* \"Midas/joe-v2-main/src/libraries/PendingOwnable.sol\":2353:2380  pendingOwner_ == address(0) */\n      0xffffffffffffffffffffffffffffffffffffffff\n      and\n      eq\n        /* \"Midas/joe-v2-main/src/libraries/PendingOwnable.sol\":2349:2418  if (pendingOwner_ == address(0)) revert PendingOwnable__AddressZero() */\n      iszero\n      tag_194\n      jumpi\n        /* \"Midas/joe-v2-main/src/libraries/PendingOwnable.sol\":2389:2418  PendingOwnable__AddressZero() */\n      mload(0x40)\n      0x91f3851500000000000000000000000000000000000000000000000000000000\n      dup2\n      mstore\n      0x04\n      add\n      mload(0x40)\n      dup1\n      swap2\n      sub\n      swap1\n      revert\n        /* \"Midas/joe-v2-main/src/libraries/PendingOwnable.sol\":2349:2418  if (pendingOwner_ == address(0)) revert PendingOwnable__AddressZero() */\n    tag_194:\n        /* \"Midas/joe-v2-main/src/libraries/PendingOwnable.sol\":2457:2458  0 */\n      0x00\n        /* \"Midas/joe-v2-main/src/libraries/PendingOwnable.sol\":2432:2459  _pendingOwner != address(0) */\n      0xffffffffffffffffffffffffffffffffffffffff\n      and\n        /* \"Midas/joe-v2-main/src/libraries/PendingOwnable.sol\":2432:2445  _pendingOwner */\n      0x01\n      0x00\n      swap1\n      sload\n      swap1\n      0x0100\n      exp\n      swap1\n      div\n      0xffffffffffffffffffffffffffffffffffffffff\n      and\n        /* \"Midas/joe-v2-main/src/libraries/PendingOwnable.sol\":2432:2459  _pendingOwner != address(0) */\n      0xffffffffffffffffffffffffffffffffffffffff\n      and\n      eq\n        /* \"Midas/joe-v2-main/src/libraries/PendingOwnable.sol\":2428:2508  if (_pendingOwner != address(0)) revert PendingOwnable__PendingOwnerAlreadySet() */\n      tag_195\n      jumpi\n        /* \"Midas/joe-v2-main/src/libraries/PendingOwnable.sol\":2468:2508  PendingOwnable__PendingOwnerAlreadySet() */\n      mload(0x40)\n      0x716b1fbf00000000000000000000000000000000000000000000000000000000\n      dup2\n      mstore\n      0x04\n      add\n      mload(0x40)\n      dup1\n      swap2\n      sub\n      swap1\n      revert\n        /* \"Midas/joe-v2-main/src/libraries/PendingOwnable.sol\":2428:2508  if (_pendingOwner != address(0)) revert PendingOwnable__PendingOwnerAlreadySet() */\n    tag_195:\n        /* \"Midas/joe-v2-main/src/libraries/PendingOwnable.sol\":2518:2549  _setPendingOwner(pendingOwner_) */\n      tag_196\n        /* \"Midas/joe-v2-main/src/libraries/PendingOwnable.sol\":2535:2548  pendingOwner_ */\n      dup2\n        /* \"Midas/joe-v2-main/src/libraries/PendingOwnable.sol\":2518:2534  _setPendingOwner */\n      tag_166\n        /* \"Midas/joe-v2-main/src/libraries/PendingOwnable.sol\":2518:2549  _setPendingOwner(pendingOwner_) */\n      jump\t// in\n    tag_196:\n        /* \"Midas/joe-v2-main/src/libraries/PendingOwnable.sol\":2265:2556  function setPendingOwner(address pendingOwner_) public override onlyOwner {... */\n      pop\n      jump\t// out\n        /* \"Midas/joe-v2-main/src/LBFactory.sol\":8435:8683  function removeQuoteAsset(IERC20 _quoteAsset) external override onlyOwner {... */\n    tag_92:\n        /* \"Midas/joe-v2-main/src/libraries/PendingOwnable.sol\":1239:1245  _owner */\n      0x00\n      dup1\n      sload\n      swap1\n      0x0100\n      exp\n      swap1\n      div\n      0xffffffffffffffffffffffffffffffffffffffff\n      and\n        /* \"Midas/joe-v2-main/src/libraries/PendingOwnable.sol\":1225:1245  msg.sender != _owner */\n      0xffffffffffffffffffffffffffffffffffffffff\n      and\n        /* \"Midas/joe-v2-main/src/libraries/PendingOwnable.sol\":1225:1235  msg.sender */\n      caller\n        /* \"Midas/joe-v2-main/src/libraries/PendingOwnable.sol\":1225:1245  msg.sender != _owner */\n      0xffffffffffffffffffffffffffffffffffffffff\n      and\n      eq\n        /* \"Midas/joe-v2-main/src/libraries/PendingOwnable.sol\":1221:1280  if (msg.sender != _owner) revert PendingOwnable__NotOwner() */\n      tag_198\n      jumpi\n        /* \"Midas/joe-v2-main/src/libraries/PendingOwnable.sol\":1254:1280  PendingOwnable__NotOwner() */\n      mload(0x40)\n      0x9f216c1300000000000000000000000000000000000000000000000000000000\n      dup2\n      mstore\n      0x04\n      add\n      mload(0x40)\n      dup1\n      swap2\n      sub\n      swap1\n      revert\n        /* \"Midas/joe-v2-main/src/libraries/PendingOwnable.sol\":1221:1280  if (msg.sender != _owner) revert PendingOwnable__NotOwner() */\n    tag_198:\n        /* \"Midas/joe-v2-main/src/LBFactory.sol\":8524:8573  _quoteAssetWhitelist.remove(address(_quoteAsset)) */\n      tag_200\n        /* \"Midas/joe-v2-main/src/LBFactory.sol\":8560:8571  _quoteAsset */\n      dup2\n        /* \"Midas/joe-v2-main/src/LBFactory.sol\":8524:8544  _quoteAssetWhitelist */\n      0x09\n        /* \"Midas/joe-v2-main/src/LBFactory.sol\":8524:8551  _quoteAssetWhitelist.remove */\n      tag_201\n      swap1\n        /* \"Midas/joe-v2-main/src/LBFactory.sol\":8524:8573  _quoteAssetWhitelist.remove(address(_quoteAsset)) */\n      swap2\n      swap1\n      0xffffffff\n      and\n      jump\t// in\n    tag_200:\n        /* \"Midas/joe-v2-main/src/LBFactory.sol\":8519:8630  if (!_quoteAssetWhitelist.remove(address(_quoteAsset))) revert LBFactory__QuoteAssetNotWhitelisted(_quoteAsset) */\n      tag_202\n      jumpi\n        /* \"Midas/joe-v2-main/src/LBFactory.sol\":8618:8629  _quoteAsset */\n      dup1\n        /* \"Midas/joe-v2-main/src/LBFactory.sol\":8582:8630  LBFactory__QuoteAssetNotWhitelisted(_quoteAsset) */\n      mload(0x40)\n      0x8e888ef300000000000000000000000000000000000000000000000000000000\n      dup2\n      mstore\n      0x04\n      add\n      tag_203\n      swap2\n      swap1\n      tag_109\n      jump\t// in\n    tag_203:\n      mload(0x40)\n      dup1\n      swap2\n      sub\n      swap1\n      revert\n        /* \"Midas/joe-v2-main/src/LBFactory.sol\":8519:8630  if (!_quoteAssetWhitelist.remove(address(_quoteAsset))) revert LBFactory__QuoteAssetNotWhitelisted(_quoteAsset) */\n    tag_202:\n        /* \"Midas/joe-v2-main/src/LBFactory.sol\":8664:8675  _quoteAsset */\n      dup1\n        /* \"Midas/joe-v2-main/src/LBFactory.sol\":8646:8676  QuoteAssetRemoved(_quoteAsset) */\n      0xffffffffffffffffffffffffffffffffffffffff\n      and\n      0x0b767739217755d8af5a2ba75b181a19fa1750f8bb701f09311cb19a90140cb3\n      mload(0x40)\n      mload(0x40)\n      dup1\n      swap2\n      sub\n      swap1\n      log2\n        /* \"Midas/joe-v2-main/src/LBFactory.sol\":8435:8683  function removeQuoteAsset(IERC20 _quoteAsset) external override onlyOwner {... */\n      pop\n      jump\t// out\n        /* \"Midas/joe-v2-main/src/libraries/PendingOwnable.sol\":2015:2115  function pendingOwner() public view override returns (address) {... */\n    tag_94:\n        /* \"Midas/joe-v2-main/src/libraries/PendingOwnable.sol\":2069:2076  address */\n      0x00\n        /* \"Midas/joe-v2-main/src/libraries/PendingOwnable.sol\":2095:2108  _pendingOwner */\n      0x01\n      0x00\n      swap1\n      sload\n      swap1\n      0x0100\n      exp\n      swap1\n      div\n      0xffffffffffffffffffffffffffffffffffffffff\n      and\n        /* \"Midas/joe-v2-main/src/libraries/PendingOwnable.sol\":2088:2108  return _pendingOwner */\n      swap1\n      pop\n        /* \"Midas/joe-v2-main/src/libraries/PendingOwnable.sol\":2015:2115  function pendingOwner() public view override returns (address) {... */\n      swap1\n      jump\t// out\n        /* \"Midas/joe-v2-main/src/LBFactory.sol\":7344:7468  function setFeeRecipient(address _feeRecipient) external override onlyOwner {... */\n    tag_98:\n        /* \"Midas/joe-v2-main/src/libraries/PendingOwnable.sol\":1239:1245  _owner */\n      0x00\n      dup1\n      sload\n      swap1\n      0x0100\n      exp\n      swap1\n      div\n      0xffffffffffffffffffffffffffffffffffffffff\n      and\n        /* \"Midas/joe-v2-main/src/libraries/PendingOwnable.sol\":1225:1245  msg.sender != _owner */\n      0xffffffffffffffffffffffffffffffffffffffff\n      and\n        /* \"Midas/joe-v2-main/src/libraries/PendingOwnable.sol\":1225:1235  msg.sender */\n      caller\n        /* \"Midas/joe-v2-main/src/libraries/PendingOwnable.sol\":1225:1245  msg.sender != _owner */\n      0xffffffffffffffffffffffffffffffffffffffff\n      and\n      eq\n        /* \"Midas/joe-v2-main/src/libraries/PendingOwnable.sol\":1221:1280  if (msg.sender != _owner) revert PendingOwnable__NotOwner() */\n      tag_206\n      jumpi\n        /* \"Midas/joe-v2-main/src/libraries/PendingOwnable.sol\":1254:1280  PendingOwnable__NotOwner() */\n      mload(0x40)\n      0x9f216c1300000000000000000000000000000000000000000000000000000000\n      dup2\n      mstore\n      0x04\n      add\n      mload(0x40)\n      dup1\n      swap2\n      sub\n      swap1\n      revert\n        /* \"Midas/joe-v2-main/src/libraries/PendingOwnable.sol\":1221:1280  if (msg.sender != _owner) revert PendingOwnable__NotOwner() */\n    tag_206:\n        /* \"Midas/joe-v2-main/src/LBFactory.sol\":7430:7461  _setFeeRecipient(_feeRecipient) */\n      tag_208\n        /* \"Midas/joe-v2-main/src/LBFactory.sol\":7447:7460  _feeRecipient */\n      dup2\n        /* \"Midas/joe-v2-main/src/LBFactory.sol\":7430:7446  _setFeeRecipient */\n      tag_209\n        /* \"Midas/joe-v2-main/src/LBFactory.sol\":7430:7461  _setFeeRecipient(_feeRecipient) */\n      jump\t// in\n    tag_208:\n        /* \"Midas/joe-v2-main/src/LBFactory.sol\":7344:7468  function setFeeRecipient(address _feeRecipient) external override onlyOwner {... */\n      pop\n      jump\t// out\n        /* \"Midas/joe-v2-main/src/LBFactory.sol\":3680:3885  function getLBPairInformation(... */\n    tag_102:\n        /* \"Midas/joe-v2-main/src/LBFactory.sol\":3796:3820  LBPairInformation memory */\n      tag_210\n      tag_211\n      jump\t// in\n    tag_210:\n        /* \"Midas/joe-v2-main/src/LBFactory.sol\":3839:3878  _getLBPairInformation(_tokenA, _tokenB) */\n      tag_213\n        /* \"Midas/joe-v2-main/src/LBFactory.sol\":3861:3868  _tokenA */\n      dup4\n        /* \"Midas/joe-v2-main/src/LBFactory.sol\":3870:3877  _tokenB */\n      dup4\n        /* \"Midas/joe-v2-main/src/LBFactory.sol\":3839:3860  _getLBPairInformation */\n      tag_214\n        /* \"Midas/joe-v2-main/src/LBFactory.sol\":3839:3878  _getLBPairInformation(_tokenA, _tokenB) */\n      jump\t// in\n    tag_213:\n        /* \"Midas/joe-v2-main/src/LBFactory.sol\":3832:3878  return _getLBPairInformation(_tokenA, _tokenB) */\n      swap1\n      pop\n        /* \"Midas/joe-v2-main/src/LBFactory.sol\":3680:3885  function getLBPairInformation(... */\n      swap3\n      swap2\n      pop\n      pop\n      jump\t// out\n        /* \"Midas/joe-v2-main/src/LBFactory.sol\":2877:3019  function getQuoteAsset(uint256 _index) external view override returns (IERC20) {... */\n    tag_107:\n        /* \"Midas/joe-v2-main/src/LBFactory.sol\":2948:2954  IERC20 */\n      0x00\n        /* \"Midas/joe-v2-main/src/LBFactory.sol\":2980:3011  _quoteAssetWhitelist.at(_index) */\n      tag_216\n        /* \"Midas/joe-v2-main/src/LBFactory.sol\":3004:3010  _index */\n      dup3\n        /* \"Midas/joe-v2-main/src/LBFactory.sol\":2980:3000  _quoteAssetWhitelist */\n      0x09\n        /* \"Midas/joe-v2-main/src/LBFactory.sol\":2980:3003  _quoteAssetWhitelist.at */\n      tag_217\n      swap1\n        /* \"Midas/joe-v2-main/src/LBFactory.sol\":2980:3011  _quoteAssetWhitelist.at(_index) */\n      swap2\n      swap1\n      0xffffffff\n      and\n      jump\t// in\n    tag_216:\n        /* \"Midas/joe-v2-main/src/LBFactory.sol\":2966:3012  return IERC20(_quoteAssetWhitelist.at(_index)) */\n      swap1\n      pop\n        /* \"Midas/joe-v2-main/src/LBFactory.sol\":2877:3019  function getQuoteAsset(uint256 _index) external view override returns (IERC20) {... */\n      swap2\n      swap1\n      pop\n      jump\t// out\n        /* \"Midas/joe-v2-main/src/libraries/PendingOwnable.sol\":3052:3155  function becomeOwner() public override onlyPendingOwner {... */\n    tag_111:\n        /* \"Midas/joe-v2-main/src/libraries/PendingOwnable.sol\":1438:1451  _pendingOwner */\n      0x01\n      0x00\n      swap1\n      sload\n      swap1\n      0x0100\n      exp\n      swap1\n      div\n      0xffffffffffffffffffffffffffffffffffffffff\n      and\n        /* \"Midas/joe-v2-main/src/libraries/PendingOwnable.sol\":1424:1451  msg.sender != _pendingOwner */\n      0xffffffffffffffffffffffffffffffffffffffff\n      and\n        /* \"Midas/joe-v2-main/src/libraries/PendingOwnable.sol\":1424:1434  msg.sender */\n      caller\n        /* \"Midas/joe-v2-main/src/libraries/PendingOwnable.sol\":1424:1451  msg.sender != _pendingOwner */\n      0xffffffffffffffffffffffffffffffffffffffff\n      and\n      eq\n      iszero\n        /* \"Midas/joe-v2-main/src/libraries/PendingOwnable.sol\":1424:1479  msg.sender != _pendingOwner || msg.sender == address(0) */\n      dup1\n      tag_219\n      jumpi\n      pop\n        /* \"Midas/joe-v2-main/src/libraries/PendingOwnable.sol\":1477:1478  0 */\n      0x00\n        /* \"Midas/joe-v2-main/src/libraries/PendingOwnable.sol\":1455:1479  msg.sender == address(0) */\n      0xffffffffffffffffffffffffffffffffffffffff\n      and\n        /* \"Midas/joe-v2-main/src/libraries/PendingOwnable.sol\":1455:1465  msg.sender */\n      caller\n        /* \"Midas/joe-v2-main/src/libraries/PendingOwnable.sol\":1455:1479  msg.sender == address(0) */\n      0xffffffffffffffffffffffffffffffffffffffff\n      and\n      eq\n        /* \"Midas/joe-v2-main/src/libraries/PendingOwnable.sol\":1424:1479  msg.sender != _pendingOwner || msg.sender == address(0) */\n    tag_219:\n        /* \"Midas/joe-v2-main/src/libraries/PendingOwnable.sol\":1420:1521  if (msg.sender != _pendingOwner || msg.sender == address(0)) revert PendingOwnable__NotPendingOwner() */\n      iszero\n      tag_220\n      jumpi\n        /* \"Midas/joe-v2-main/src/libraries/PendingOwnable.sol\":1488:1521  PendingOwnable__NotPendingOwner() */\n      mload(0x40)\n      0x7304d01200000000000000000000000000000000000000000000000000000000\n      dup2\n      mstore\n      0x04\n      add\n      mload(0x40)\n      dup1\n      swap2\n      sub\n      swap1\n      revert\n        /* \"Midas/joe-v2-main/src/libraries/PendingOwnable.sol\":1420:1521  if (msg.sender != _pendingOwner || msg.sender == address(0)) revert PendingOwnable__NotPendingOwner() */\n    tag_220:\n        /* \"Midas/joe-v2-main/src/libraries/PendingOwnable.sol\":3118:3148  _transferOwnership(msg.sender) */\n      tag_222\n        /* \"Midas/joe-v2-main/src/libraries/PendingOwnable.sol\":3137:3147  msg.sender */\n      caller\n        /* \"Midas/joe-v2-main/src/libraries/PendingOwnable.sol\":3118:3136  _transferOwnership */\n      tag_171\n        /* \"Midas/joe-v2-main/src/libraries/PendingOwnable.sol\":3118:3148  _transferOwnership(msg.sender) */\n      jump\t// in\n    tag_222:\n        /* \"Midas/joe-v2-main/src/libraries/PendingOwnable.sol\":3052:3155  function becomeOwner() public override onlyPendingOwner {... */\n      jump\t// out\n        /* \"@openzeppelin/contracts/utils/structs/EnumerableSet.sol\":8852:9017  function contains(AddressSet storage set, address value) internal view returns (bool) {... */\n    tag_119:\n        /* \"@openzeppelin/contracts/utils/structs/EnumerableSet.sol\":8932:8936  bool */\n      0x00\n        /* \"@openzeppelin/contracts/utils/structs/EnumerableSet.sol\":8955:9010  _contains(set._inner, bytes32(uint256(uint160(value)))) */\n      tag_224\n        /* \"@openzeppelin/contracts/utils/structs/EnumerableSet.sol\":8965:8968  set */\n      dup4\n        /* \"@openzeppelin/contracts/utils/structs/EnumerableSet.sol\":8965:8975  set._inner */\n      0x00\n      add\n        /* \"@openzeppelin/contracts/utils/structs/EnumerableSet.sol\":9001:9006  value */\n      dup4\n        /* \"@openzeppelin/contracts/utils/structs/EnumerableSet.sol\":8985:9008  uint256(uint160(value)) */\n      0xffffffffffffffffffffffffffffffffffffffff\n      and\n        /* \"@openzeppelin/contracts/utils/structs/EnumerableSet.sol\":8977:9009  bytes32(uint256(uint160(value))) */\n      0x00\n      shl\n        /* \"@openzeppelin/contracts/utils/structs/EnumerableSet.sol\":8955:8964  _contains */\n      tag_225\n        /* \"@openzeppelin/contracts/utils/structs/EnumerableSet.sol\":8955:9010  _contains(set._inner, bytes32(uint256(uint160(value)))) */\n      jump\t// in\n    tag_224:\n        /* \"@openzeppelin/contracts/utils/structs/EnumerableSet.sol\":8948:9010  return _contains(set._inner, bytes32(uint256(uint160(value)))) */\n      swap1\n      pop\n        /* \"@openzeppelin/contracts/utils/structs/EnumerableSet.sol\":8852:9017  function contains(AddressSet storage set, address value) internal view returns (bool) {... */\n      swap3\n      swap2\n      pop\n      pop\n      jump\t// out\n        /* \"Midas/joe-v2-main/src/libraries/BinHelper.sol\":1462:1754  function getPriceFromId(uint256 _id) internal pure returns (uint256) {... */\n    tag_133:\n        /* \"Midas/joe-v2-main/src/libraries/BinHelper.sol\":1522:1529  uint256 */\n      0x00\n        /* \"Midas/joe-v2-main/src/libraries/BinHelper.sol\":1559:1575  type(uint24).max */\n      0xffffff\n        /* \"Midas/joe-v2-main/src/libraries/BinHelper.sol\":1551:1576  uint256(type(uint24).max) */\n      dup1\n      and\n        /* \"Midas/joe-v2-main/src/libraries/BinHelper.sol\":1545:1548  _id */\n      dup3\n        /* \"Midas/joe-v2-main/src/libraries/BinHelper.sol\":1545:1576  _id > uint256(type(uint24).max) */\n      gt\n        /* \"Midas/joe-v2-main/src/libraries/BinHelper.sol\":1541:1609  if (_id > uint256(type(uint24).max)) revert BinHelper__IdOverflows() */\n      iszero\n      tag_227\n      jumpi\n        /* \"Midas/joe-v2-main/src/libraries/BinHelper.sol\":1585:1609  BinHelper__IdOverflows() */\n      mload(0x40)\n      0x58f62eac00000000000000000000000000000000000000000000000000000000\n      dup2\n      mstore\n      0x04\n      add\n      mload(0x40)\n      dup1\n      swap2\n      sub\n      swap1\n      revert\n        /* \"Midas/joe-v2-main/src/libraries/BinHelper.sol\":1541:1609  if (_id > uint256(type(uint24).max)) revert BinHelper__IdOverflows() */\n    tag_227:\n        /* \"Midas/joe-v2-main/src/libraries/BinHelper.sol\":1643:1657  int256 _realId */\n      0x00\n        /* \"Midas/joe-v2-main/src/libraries/BinHelper.sol\":343:350  1 << 23 */\n      0x800000\n        /* \"Midas/joe-v2-main/src/libraries/BinHelper.sol\":1667:1670  _id */\n      dup4\n        /* \"Midas/joe-v2-main/src/libraries/BinHelper.sol\":1660:1687  int256(_id) - REAL_ID_SHIFT */\n      sub\n        /* \"Midas/joe-v2-main/src/libraries/BinHelper.sol\":1643:1687  int256 _realId = int256(_id) - REAL_ID_SHIFT */\n      swap1\n      pop\n        /* \"Midas/joe-v2-main/src/libraries/BinHelper.sol\":1709:1737  _getBPValue().power(_realId) */\n      tag_228\n        /* \"Midas/joe-v2-main/src/libraries/BinHelper.sol\":1729:1736  _realId */\n      dup2\n        /* \"Midas/joe-v2-main/src/libraries/BinHelper.sol\":1709:1722  _getBPValue() */\n      tag_229\n        /* \"Midas/joe-v2-main/src/libraries/BinHelper.sol\":1709:1720  _getBPValue */\n      tag_230\n        /* \"Midas/joe-v2-main/src/libraries/BinHelper.sol\":1709:1722  _getBPValue() */\n      jump\t// in\n    tag_229:\n        /* \"Midas/joe-v2-main/src/libraries/BinHelper.sol\":1709:1728  _getBPValue().power */\n      tag_231\n      swap1\n        /* \"Midas/joe-v2-main/src/libraries/BinHelper.sol\":1709:1737  _getBPValue().power(_realId) */\n      swap2\n      swap1\n      0xffffffff\n      and\n      jump\t// in\n    tag_228:\n        /* \"Midas/joe-v2-main/src/libraries/BinHelper.sol\":1702:1737  return _getBPValue().power(_realId) */\n      swap2\n      pop\n      pop\n        /* \"Midas/joe-v2-main/src/libraries/BinHelper.sol\":1462:1754  function getPriceFromId(uint256 _id) internal pure returns (uint256) {... */\n      swap2\n      swap1\n      pop\n      jump\t// out\n        /* \"Midas/joe-v2-main/src/LBFactory.sol\":10003:10208  function _sortTokens(IERC20 _tokenA, IERC20 _tokenB) private pure returns (IERC20, IERC20) {... */\n    tag_135:\n        /* \"Midas/joe-v2-main/src/LBFactory.sol\":10078:10084  IERC20 */\n      0x00\n        /* \"Midas/joe-v2-main/src/LBFactory.sol\":10086:10092  IERC20 */\n      dup1\n        /* \"Midas/joe-v2-main/src/LBFactory.sol\":10118:10125  _tokenB */\n      dup3\n        /* \"Midas/joe-v2-main/src/LBFactory.sol\":10108:10125  _tokenA > _tokenB */\n      0xffffffffffffffffffffffffffffffffffffffff\n      and\n        /* \"Midas/joe-v2-main/src/LBFactory.sol\":10108:10115  _tokenA */\n      dup5\n        /* \"Midas/joe-v2-main/src/LBFactory.sol\":10108:10125  _tokenA > _tokenB */\n      0xffffffffffffffffffffffffffffffffffffffff\n      and\n      gt\n        /* \"Midas/joe-v2-main/src/LBFactory.sol\":10104:10166  if (_tokenA > _tokenB) (_tokenA, _tokenB) = (_tokenB, _tokenA) */\n      iszero\n      tag_233\n      jumpi\n        /* \"Midas/joe-v2-main/src/LBFactory.sol\":10149:10156  _tokenB */\n      dup3\n        /* \"Midas/joe-v2-main/src/LBFactory.sol\":10158:10165  _tokenA */\n      dup5\n        /* \"Midas/joe-v2-main/src/LBFactory.sol\":10127:10166  (_tokenA, _tokenB) = (_tokenB, _tokenA) */\n      dup1\n      swap5\n      pop\n      dup2\n      swap6\n      pop\n      pop\n      pop\n        /* \"Midas/joe-v2-main/src/LBFactory.sol\":10104:10166  if (_tokenA > _tokenB) (_tokenA, _tokenB) = (_tokenB, _tokenA) */\n    tag_233:\n        /* \"Midas/joe-v2-main/src/LBFactory.sol\":10184:10191  _tokenA */\n      dup4\n        /* \"Midas/joe-v2-main/src/LBFactory.sol\":10193:10200  _tokenB */\n      dup4\n        /* \"Midas/joe-v2-main/src/LBFactory.sol\":10176:10201  return (_tokenA, _tokenB) */\n      swap2\n      pop\n      swap2\n      pop\n        /* \"Midas/joe-v2-main/src/LBFactory.sol\":10003:10208  function _sortTokens(IERC20 _tokenA, IERC20 _tokenB) private pure returns (IERC20, IERC20) {... */\n      swap3\n      pop\n      swap3\n      swap1\n      pop\n      jump\t// out\n        /* \"@openzeppelin/contracts/proxy/Clones.sol\":2107:2901  function cloneDeterministic(address implementation, bytes32 salt) internal returns (address instance) {... */\n    tag_143:\n        /* \"@openzeppelin/contracts/proxy/Clones.sol\":2191:2207  address instance */\n      0x00\n        /* \"@openzeppelin/contracts/proxy/Clones.sol\":2523:2571  0x3d602d80600a3d3981f3363d3d373d3d3d363d73000000 */\n      0x3d602d80600a3d3981f3363d3d373d3d3d363d73000000\n        /* \"@openzeppelin/contracts/proxy/Clones.sol\":2505:2519  implementation */\n      dup4\n        /* \"@openzeppelin/contracts/proxy/Clones.sol\":2499:2503  0x60 */\n      0x60\n        /* \"@openzeppelin/contracts/proxy/Clones.sol\":2495:2520  shl(0x60, implementation) */\n      shl\n        /* \"@openzeppelin/contracts/proxy/Clones.sol\":2489:2493  0xe8 */\n      0xe8\n        /* \"@openzeppelin/contracts/proxy/Clones.sol\":2485:2521  shr(0xe8, shl(0x60, implementation)) */\n      shr\n        /* \"@openzeppelin/contracts/proxy/Clones.sol\":2482:2572  or(shr(0xe8, shl(0x60, implementation)), 0x3d602d80600a3d3981f3363d3d373d3d3d363d73000000) */\n      or\n        /* \"@openzeppelin/contracts/proxy/Clones.sol\":2476:2480  0x00 */\n      0x00\n        /* \"@openzeppelin/contracts/proxy/Clones.sol\":2469:2573  mstore(0x00, or(shr(0xe8, shl(0x60, implementation)), 0x3d602d80600a3d3981f3363d3d373d3d3d363d73000000)) */\n      mstore\n        /* \"@openzeppelin/contracts/proxy/Clones.sol\":2730:2762  0x5af43d82803e903d91602b57fd5bf3 */\n      0x5af43d82803e903d91602b57fd5bf3\n        /* \"@openzeppelin/contracts/proxy/Clones.sol\":2713:2727  implementation */\n      dup4\n        /* \"@openzeppelin/contracts/proxy/Clones.sol\":2707:2711  0x78 */\n      0x78\n        /* \"@openzeppelin/contracts/proxy/Clones.sol\":2703:2728  shl(0x78, implementation) */\n      shl\n        /* \"@openzeppelin/contracts/proxy/Clones.sol\":2700:2763  or(shl(0x78, implementation), 0x5af43d82803e903d91602b57fd5bf3) */\n      or\n        /* \"@openzeppelin/contracts/proxy/Clones.sol\":2694:2698  0x20 */\n      0x20\n        /* \"@openzeppelin/contracts/proxy/Clones.sol\":2687:2764  mstore(0x20, or(shl(0x78, implementation), 0x5af43d82803e903d91602b57fd5bf3)) */\n      mstore\n        /* \"@openzeppelin/contracts/proxy/Clones.sol\":2812:2816  salt */\n      dup2\n        /* \"@openzeppelin/contracts/proxy/Clones.sol\":2806:2810  0x37 */\n      0x37\n        /* \"@openzeppelin/contracts/proxy/Clones.sol\":2800:2804  0x09 */\n      0x09\n        /* \"@openzeppelin/contracts/proxy/Clones.sol\":2797:2798  0 */\n      0x00\n        /* \"@openzeppelin/contracts/proxy/Clones.sol\":2789:2817  create2(0, 0x09, 0x37, salt) */\n      create2\n        /* \"@openzeppelin/contracts/proxy/Clones.sol\":2777:2817  instance := create2(0, 0x09, 0x37, salt) */\n      swap1\n      pop\n        /* \"@openzeppelin/contracts/proxy/Clones.sol\":2864:2865  0 */\n      0x00\n        /* \"@openzeppelin/contracts/proxy/Clones.sol\":2844:2866  instance != address(0) */\n      0xffffffffffffffffffffffffffffffffffffffff\n      and\n        /* \"@openzeppelin/contracts/proxy/Clones.sol\":2844:2852  instance */\n      dup2\n        /* \"@openzeppelin/contracts/proxy/Clones.sol\":2844:2866  instance != address(0) */\n      0xffffffffffffffffffffffffffffffffffffffff\n      and\n      eq\n      iszero\n        /* \"@openzeppelin/contracts/proxy/Clones.sol\":2836:2894  require(instance != address(0), \"ERC1167: create2 failed\") */\n      tag_235\n      jumpi\n      mload(0x40)\n      0x08c379a000000000000000000000000000000000000000000000000000000000\n      dup2\n      mstore\n      0x04\n      add\n      tag_236\n      swap1\n      tag_237\n      jump\t// in\n    tag_236:\n      mload(0x40)\n      dup1\n      swap2\n      sub\n      swap1\n      revert\n    tag_235:\n        /* \"@openzeppelin/contracts/proxy/Clones.sol\":2107:2901  function cloneDeterministic(address implementation, bytes32 salt) internal returns (address instance) {... */\n      swap3\n      swap2\n      pop\n      pop\n      jump\t// out\n        /* \"@openzeppelin/contracts/utils/structs/EnumerableSet.sol\":8297:8447  function add(AddressSet storage set, address value) internal returns (bool) {... */\n    tag_158:\n        /* \"@openzeppelin/contracts/utils/structs/EnumerableSet.sol\":8367:8371  bool */\n      0x00\n        /* \"@openzeppelin/contracts/utils/structs/EnumerableSet.sol\":8390:8440  _add(set._inner, bytes32(uint256(uint160(value)))) */\n      tag_239\n        /* \"@openzeppelin/contracts/utils/structs/EnumerableSet.sol\":8395:8398  set */\n      dup4\n        /* \"@openzeppelin/contracts/utils/structs/EnumerableSet.sol\":8395:8405  set._inner */\n      0x00\n      add\n        /* \"@openzeppelin/contracts/utils/structs/EnumerableSet.sol\":8431:8436  value */\n      dup4\n        /* \"@openzeppelin/contracts/utils/structs/EnumerableSet.sol\":8415:8438  uint256(uint160(value)) */\n      0xffffffffffffffffffffffffffffffffffffffff\n      and\n        /* \"@openzeppelin/contracts/utils/structs/EnumerableSet.sol\":8407:8439  bytes32(uint256(uint160(value))) */\n      0x00\n      shl\n        /* \"@openzeppelin/contracts/utils/structs/EnumerableSet.sol\":8390:8394  _add */\n      tag_240\n        /* \"@openzeppelin/contracts/utils/structs/EnumerableSet.sol\":8390:8440  _add(set._inner, bytes32(uint256(uint160(value)))) */\n      jump\t// in\n    tag_239:\n        /* \"@openzeppelin/contracts/utils/structs/EnumerableSet.sol\":8383:8440  return _add(set._inner, bytes32(uint256(uint160(value)))) */\n      swap1\n      pop\n        /* \"@openzeppelin/contracts/utils/structs/EnumerableSet.sol\":8297:8447  function add(AddressSet storage set, address value) internal returns (bool) {... */\n      swap3\n      swap2\n      pop\n      pop\n      jump\t// out\n        /* \"Midas/joe-v2-main/src/libraries/PendingOwnable.sol\":4217:4374  function _setPendingOwner(address pendingOwner_) internal virtual {... */\n    tag_166:\n        /* \"Midas/joe-v2-main/src/libraries/PendingOwnable.sol\":4309:4322  pendingOwner_ */\n      dup1\n        /* \"Midas/joe-v2-main/src/libraries/PendingOwnable.sol\":4293:4306  _pendingOwner */\n      0x01\n      0x00\n        /* \"Midas/joe-v2-main/src/libraries/PendingOwnable.sol\":4293:4322  _pendingOwner = pendingOwner_ */\n      0x0100\n      exp\n      dup2\n      sload\n      dup2\n      0xffffffffffffffffffffffffffffffffffffffff\n      mul\n      not\n      and\n      swap1\n      dup4\n      0xffffffffffffffffffffffffffffffffffffffff\n      and\n      mul\n      or\n      swap1\n      sstore\n      pop\n        /* \"Midas/joe-v2-main/src/libraries/PendingOwnable.sol\":4353:4366  pendingOwner_ */\n      dup1\n        /* \"Midas/joe-v2-main/src/libraries/PendingOwnable.sol\":4337:4367  PendingOwnerSet(pendingOwner_) */\n      0xffffffffffffffffffffffffffffffffffffffff\n      and\n      0x68f49b346b94582a8b5f9d10e3fe3365318fe8f191ff8dce7c59c6cad06b02f5\n      mload(0x40)\n      mload(0x40)\n      dup1\n      swap2\n      sub\n      swap1\n      log2\n        /* \"Midas/joe-v2-main/src/libraries/PendingOwnable.sol\":4217:4374  function _setPendingOwner(address pendingOwner_) internal virtual {... */\n      pop\n      jump\t// out\n        /* \"Midas/joe-v2-main/src/libraries/PendingOwnable.sol\":3788:4016  function _transferOwnership(address _newOwner) internal virtual {... */\n    tag_171:\n        /* \"Midas/joe-v2-main/src/libraries/PendingOwnable.sol\":3862:3879  address _oldOwner */\n      0x00\n        /* \"Midas/joe-v2-main/src/libraries/PendingOwnable.sol\":3882:3888  _owner */\n      dup1\n      0x00\n      swap1\n      sload\n      swap1\n      0x0100\n      exp\n      swap1\n      div\n      0xffffffffffffffffffffffffffffffffffffffff\n      and\n        /* \"Midas/joe-v2-main/src/libraries/PendingOwnable.sol\":3862:3888  address _oldOwner = _owner */\n      swap1\n      pop\n        /* \"Midas/joe-v2-main/src/libraries/PendingOwnable.sol\":3907:3916  _newOwner */\n      dup2\n        /* \"Midas/joe-v2-main/src/libraries/PendingOwnable.sol\":3898:3904  _owner */\n      0x00\n      dup1\n        /* \"Midas/joe-v2-main/src/libraries/PendingOwnable.sol\":3898:3916  _owner = _newOwner */\n      0x0100\n      exp\n      dup2\n      sload\n      dup2\n      0xffffffffffffffffffffffffffffffffffffffff\n      mul\n      not\n      and\n      swap1\n      dup4\n      0xffffffffffffffffffffffffffffffffffffffff\n      and\n      mul\n      or\n      swap1\n      sstore\n      pop\n        /* \"Midas/joe-v2-main/src/libraries/PendingOwnable.sol\":3950:3951  0 */\n      0x00\n        /* \"Midas/joe-v2-main/src/libraries/PendingOwnable.sol\":3926:3939  _pendingOwner */\n      0x01\n      0x00\n        /* \"Midas/joe-v2-main/src/libraries/PendingOwnable.sol\":3926:3952  _pendingOwner = address(0) */\n      0x0100\n      exp\n      dup2\n      sload\n      dup2\n      0xffffffffffffffffffffffffffffffffffffffff\n      mul\n      not\n      and\n      swap1\n      dup4\n      0xffffffffffffffffffffffffffffffffffffffff\n      and\n      mul\n      or\n      swap1\n      sstore\n      pop\n        /* \"Midas/joe-v2-main/src/libraries/PendingOwnable.sol\":3999:4008  _newOwner */\n      dup2\n        /* \"Midas/joe-v2-main/src/libraries/PendingOwnable.sol\":3967:4009  OwnershipTransferred(_oldOwner, _newOwner) */\n      0xffffffffffffffffffffffffffffffffffffffff\n      and\n        /* \"Midas/joe-v2-main/src/libraries/PendingOwnable.sol\":3988:3997  _oldOwner */\n      dup2\n        /* \"Midas/joe-v2-main/src/libraries/PendingOwnable.sol\":3967:4009  OwnershipTransferred(_oldOwner, _newOwner) */\n      0xffffffffffffffffffffffffffffffffffffffff\n      and\n      0x8be0079c531659141344cd1fd0a4f28419497f9722a3daafe3b4186f6b6457e0\n      mload(0x40)\n      mload(0x40)\n      dup1\n      swap2\n      sub\n      swap1\n      log3\n        /* \"Midas/joe-v2-main/src/libraries/PendingOwnable.sol\":3852:4016  {... */\n      pop\n        /* \"Midas/joe-v2-main/src/libraries/PendingOwnable.sol\":3788:4016  function _transferOwnership(address _newOwner) internal virtual {... */\n      pop\n      jump\t// out\n        /* \"@openzeppelin/contracts/utils/structs/EnumerableSet.sol\":9098:9213  function length(AddressSet storage set) internal view returns (uint256) {... */\n    tag_176:\n        /* \"@openzeppelin/contracts/utils/structs/EnumerableSet.sol\":9161:9168  uint256 */\n      0x00\n        /* \"@openzeppelin/contracts/utils/structs/EnumerableSet.sol\":9187:9206  _length(set._inner) */\n      tag_244\n        /* \"@openzeppelin/contracts/utils/structs/EnumerableSet.sol\":9195:9198  set */\n      dup3\n        /* \"@openzeppelin/contracts/utils/structs/EnumerableSet.sol\":9195:9205  set._inner */\n      0x00\n      add\n        /* \"@openzeppelin/contracts/utils/structs/EnumerableSet.sol\":9187:9194  _length */\n      tag_245\n        /* \"@openzeppelin/contracts/utils/structs/EnumerableSet.sol\":9187:9206  _length(set._inner) */\n      jump\t// in\n    tag_244:\n        /* \"@openzeppelin/contracts/utils/structs/EnumerableSet.sol\":9180:9206  return _length(set._inner) */\n      swap1\n      pop\n        /* \"@openzeppelin/contracts/utils/structs/EnumerableSet.sol\":9098:9213  function length(AddressSet storage set) internal view returns (uint256) {... */\n      swap2\n      swap1\n      pop\n      jump\t// out\n        /* \"@openzeppelin/contracts/utils/structs/EnumerableSet.sol\":8615:8771  function remove(AddressSet storage set, address value) internal returns (bool) {... */\n    tag_201:\n        /* \"@openzeppelin/contracts/utils/structs/EnumerableSet.sol\":8688:8692  bool */\n      0x00\n        /* \"@openzeppelin/contracts/utils/structs/EnumerableSet.sol\":8711:8764  _remove(set._inner, bytes32(uint256(uint160(value)))) */\n      tag_247\n        /* \"@openzeppelin/contracts/utils/structs/EnumerableSet.sol\":8719:8722  set */\n      dup4\n        /* \"@openzeppelin/contracts/utils/structs/EnumerableSet.sol\":8719:8729  set._inner */\n      0x00\n      add\n        /* \"@openzeppelin/contracts/utils/structs/EnumerableSet.sol\":8755:8760  value */\n      dup4\n        /* \"@openzeppelin/contracts/utils/structs/EnumerableSet.sol\":8739:8762  uint256(uint160(value)) */\n      0xffffffffffffffffffffffffffffffffffffffff\n      and\n        /* \"@openzeppelin/contracts/utils/structs/EnumerableSet.sol\":8731:8763  bytes32(uint256(uint160(value))) */\n      0x00\n      shl\n        /* \"@openzeppelin/contracts/utils/structs/EnumerableSet.sol\":8711:8718  _remove */\n      tag_248\n        /* \"@openzeppelin/contracts/utils/structs/EnumerableSet.sol\":8711:8764  _remove(set._inner, bytes32(uint256(uint160(value)))) */\n      jump\t// in\n    tag_247:\n        /* \"@openzeppelin/contracts/utils/structs/EnumerableSet.sol\":8704:8764  return _remove(set._inner, bytes32(uint256(uint160(value)))) */\n      swap1\n      pop\n        /* \"@openzeppelin/contracts/utils/structs/EnumerableSet.sol\":8615:8771  function remove(AddressSet storage set, address value) internal returns (bool) {... */\n      swap3\n      swap2\n      pop\n      pop\n      jump\t// out\n        /* \"Midas/joe-v2-main/src/LBFactory.sol\":8813:9202  function _setFeeRecipient(address _feeRecipient) internal {... */\n    tag_209:\n        /* \"Midas/joe-v2-main/src/LBFactory.sol\":8910:8911  0 */\n      0x00\n        /* \"Midas/joe-v2-main/src/LBFactory.sol\":8885:8912  _feeRecipient == address(0) */\n      0xffffffffffffffffffffffffffffffffffffffff\n      and\n        /* \"Midas/joe-v2-main/src/LBFactory.sol\":8885:8898  _feeRecipient */\n      dup2\n        /* \"Midas/joe-v2-main/src/LBFactory.sol\":8885:8912  _feeRecipient == address(0) */\n      0xffffffffffffffffffffffffffffffffffffffff\n      and\n      eq\n        /* \"Midas/joe-v2-main/src/LBFactory.sol\":8881:8945  if (_feeRecipient == address(0)) revert LBFactory__AddressZero() */\n      iszero\n      tag_250\n      jumpi\n        /* \"Midas/joe-v2-main/src/LBFactory.sol\":8921:8945  LBFactory__AddressZero() */\n      mload(0x40)\n      0x95cf3ee400000000000000000000000000000000000000000000000000000000\n      dup2\n      mstore\n      0x04\n      add\n      mload(0x40)\n      dup1\n      swap2\n      sub\n      swap1\n      revert\n        /* \"Midas/joe-v2-main/src/LBFactory.sol\":8881:8945  if (_feeRecipient == address(0)) revert LBFactory__AddressZero() */\n    tag_250:\n        /* \"Midas/joe-v2-main/src/LBFactory.sol\":8956:8980  address _oldFeeRecipient */\n      0x00\n        /* \"Midas/joe-v2-main/src/LBFactory.sol\":8983:8995  feeRecipient */\n      0x03\n      0x00\n      swap1\n      sload\n      swap1\n      0x0100\n      exp\n      swap1\n      div\n      0xffffffffffffffffffffffffffffffffffffffff\n      and\n        /* \"Midas/joe-v2-main/src/LBFactory.sol\":8956:8995  address _oldFeeRecipient = feeRecipient */\n      swap1\n      pop\n        /* \"Midas/joe-v2-main/src/LBFactory.sol\":9029:9042  _feeRecipient */\n      dup2\n        /* \"Midas/joe-v2-main/src/LBFactory.sol\":9009:9042  _oldFeeRecipient == _feeRecipient */\n      0xffffffffffffffffffffffffffffffffffffffff\n      and\n        /* \"Midas/joe-v2-main/src/LBFactory.sol\":9009:9025  _oldFeeRecipient */\n      dup2\n        /* \"Midas/joe-v2-main/src/LBFactory.sol\":9009:9042  _oldFeeRecipient == _feeRecipient */\n      0xffffffffffffffffffffffffffffffffffffffff\n      and\n      eq\n        /* \"Midas/joe-v2-main/src/LBFactory.sol\":9005:9093  if (_oldFeeRecipient == _feeRecipient) revert LBFactory__SameFeeRecipient(_feeRecipient) */\n      iszero\n      tag_251\n      jumpi\n        /* \"Midas/joe-v2-main/src/LBFactory.sol\":9079:9092  _feeRecipient */\n      dup2\n        /* \"Midas/joe-v2-main/src/LBFactory.sol\":9051:9093  LBFactory__SameFeeRecipient(_feeRecipient) */\n      mload(0x40)\n      0x4fcea97100000000000000000000000000000000000000000000000000000000\n      dup2\n      mstore\n      0x04\n      add\n      tag_252\n      swap2\n      swap1\n      tag_42\n      jump\t// in\n    tag_252:\n      mload(0x40)\n      dup1\n      swap2\n      sub\n      swap1\n      revert\n        /* \"Midas/joe-v2-main/src/LBFactory.sol\":9005:9093  if (_oldFeeRecipient == _feeRecipient) revert LBFactory__SameFeeRecipient(_feeRecipient) */\n    tag_251:\n        /* \"Midas/joe-v2-main/src/LBFactory.sol\":9119:9132  _feeRecipient */\n      dup2\n        /* \"Midas/joe-v2-main/src/LBFactory.sol\":9104:9116  feeRecipient */\n      0x03\n      0x00\n        /* \"Midas/joe-v2-main/src/LBFactory.sol\":9104:9132  feeRecipient = _feeRecipient */\n      0x0100\n      exp\n      dup2\n      sload\n      dup2\n      0xffffffffffffffffffffffffffffffffffffffff\n      mul\n      not\n      and\n      swap1\n      dup4\n      0xffffffffffffffffffffffffffffffffffffffff\n      and\n      mul\n      or\n      swap1\n      sstore\n      pop\n        /* \"Midas/joe-v2-main/src/LBFactory.sol\":9147:9195  FeeRecipientSet(_oldFeeRecipient, _feeRecipient) */\n      0x15d80a013f22151bc7246e3bc132e12828cde19de98870475e3fa70840152721\n        /* \"Midas/joe-v2-main/src/LBFactory.sol\":9163:9179  _oldFeeRecipient */\n      dup2\n        /* \"Midas/joe-v2-main/src/LBFactory.sol\":9181:9194  _feeRecipient */\n      dup4\n        /* \"Midas/joe-v2-main/src/LBFactory.sol\":9147:9195  FeeRecipientSet(_oldFeeRecipient, _feeRecipient) */\n      mload(0x40)\n      tag_253\n      swap3\n      swap2\n      swap1\n      tag_190\n      jump\t// in\n    tag_253:\n      mload(0x40)\n      dup1\n      swap2\n      sub\n      swap1\n      log1\n        /* \"Midas/joe-v2-main/src/LBFactory.sol\":8871:9202  {... */\n      pop\n        /* \"Midas/joe-v2-main/src/LBFactory.sol\":8813:9202  function _setFeeRecipient(address _feeRecipient) internal {... */\n      pop\n      jump\t// out\n        /* \"Midas/joe-v2-main/src/LBFactory.sol\":9518:9765  function _getLBPairInformation(... */\n    tag_214:\n        /* \"Midas/joe-v2-main/src/LBFactory.sol\":9625:9649  LBPairInformation memory */\n      tag_254\n      tag_211\n      jump\t// in\n    tag_254:\n        /* \"Midas/joe-v2-main/src/LBFactory.sol\":9682:9711  _sortTokens(_tokenA, _tokenB) */\n      tag_256\n        /* \"Midas/joe-v2-main/src/LBFactory.sol\":9694:9701  _tokenA */\n      dup4\n        /* \"Midas/joe-v2-main/src/LBFactory.sol\":9703:9710  _tokenB */\n      dup4\n        /* \"Midas/joe-v2-main/src/LBFactory.sol\":9682:9693  _sortTokens */\n      tag_135\n        /* \"Midas/joe-v2-main/src/LBFactory.sol\":9682:9711  _sortTokens(_tokenA, _tokenB) */\n      jump\t// in\n    tag_256:\n        /* \"Midas/joe-v2-main/src/LBFactory.sol\":9661:9711  (_tokenA, _tokenB) = _sortTokens(_tokenA, _tokenB) */\n      dup1\n      swap4\n      pop\n      dup2\n      swap5\n      pop\n      pop\n      pop\n        /* \"Midas/joe-v2-main/src/LBFactory.sol\":9728:9740  _LBPairsInfo */\n      0x06\n        /* \"Midas/joe-v2-main/src/LBFactory.sol\":9728:9749  _LBPairsInfo[_tokenA] */\n      0x00\n        /* \"Midas/joe-v2-main/src/LBFactory.sol\":9741:9748  _tokenA */\n      dup5\n        /* \"Midas/joe-v2-main/src/LBFactory.sol\":9728:9749  _LBPairsInfo[_tokenA] */\n      0xffffffffffffffffffffffffffffffffffffffff\n      and\n      0xffffffffffffffffffffffffffffffffffffffff\n      and\n      dup2\n      mstore\n      0x20\n      add\n      swap1\n      dup2\n      mstore\n      0x20\n      add\n      0x00\n      keccak256\n        /* \"Midas/joe-v2-main/src/LBFactory.sol\":9728:9758  _LBPairsInfo[_tokenA][_tokenB] */\n      0x00\n        /* \"Midas/joe-v2-main/src/LBFactory.sol\":9750:9757  _tokenB */\n      dup4\n        /* \"Midas/joe-v2-main/src/LBFactory.sol\":9728:9758  _LBPairsInfo[_tokenA][_tokenB] */\n      0xffffffffffffffffffffffffffffffffffffffff\n      and\n      0xffffffffffffffffffffffffffffffffffffffff\n      and\n      dup2\n      mstore\n      0x20\n      add\n      swap1\n      dup2\n      mstore\n      0x20\n      add\n      0x00\n      keccak256\n        /* \"Midas/joe-v2-main/src/LBFactory.sol\":9721:9758  return _LBPairsInfo[_tokenA][_tokenB] */\n      mload(0x40)\n      dup1\n      0x40\n      add\n      0x40\n      mstore\n      swap1\n      dup2\n      0x00\n      dup3\n      add\n      0x00\n      swap1\n      sload\n      swap1\n      0x0100\n      exp\n      swap1\n      div\n      0xffffffffffffffffffffffffffffffffffffffff\n      and\n      0xffffffffffffffffffffffffffffffffffffffff\n      and\n      0xffffffffffffffffffffffffffffffffffffffff\n      and\n      dup2\n      mstore\n      0x20\n      add\n      0x00\n      dup3\n      add\n      0x14\n      swap1\n      sload\n      swap1\n      0x0100\n      exp\n      swap1\n      div\n      0xff\n      and\n      iszero\n      iszero\n      iszero\n      iszero\n      dup2\n      mstore\n      pop\n      pop\n      swap1\n      pop\n        /* \"Midas/joe-v2-main/src/LBFactory.sol\":9518:9765  function _getLBPairInformation(... */\n      swap3\n      swap2\n      pop\n      pop\n      jump\t// out\n        /* \"@openzeppelin/contracts/utils/structs/EnumerableSet.sol\":9555:9711  function at(AddressSet storage set, uint256 index) internal view returns (address) {... */\n    tag_217:\n        /* \"@openzeppelin/contracts/utils/structs/EnumerableSet.sol\":9629:9636  address */\n      0x00\n        /* \"@openzeppelin/contracts/utils/structs/EnumerableSet.sol\":9679:9701  _at(set._inner, index) */\n      tag_258\n        /* \"@openzeppelin/contracts/utils/structs/EnumerableSet.sol\":9683:9686  set */\n      dup4\n        /* \"@openzeppelin/contracts/utils/structs/EnumerableSet.sol\":9683:9693  set._inner */\n      0x00\n      add\n        /* \"@openzeppelin/contracts/utils/structs/EnumerableSet.sol\":9695:9700  index */\n      dup4\n        /* \"@openzeppelin/contracts/utils/structs/EnumerableSet.sol\":9679:9682  _at */\n      tag_259\n        /* \"@openzeppelin/contracts/utils/structs/EnumerableSet.sol\":9679:9701  _at(set._inner, index) */\n      jump\t// in\n    tag_258:\n        /* \"@openzeppelin/contracts/utils/structs/EnumerableSet.sol\":9671:9702  uint256(_at(set._inner, index)) */\n      0x00\n      shr\n        /* \"@openzeppelin/contracts/utils/structs/EnumerableSet.sol\":9648:9704  return address(uint160(uint256(_at(set._inner, index)))) */\n      swap1\n      pop\n        /* \"@openzeppelin/contracts/utils/structs/EnumerableSet.sol\":9555:9711  function at(AddressSet storage set, uint256 index) internal view returns (address) {... */\n      swap3\n      swap2\n      pop\n      pop\n      jump\t// out\n        /* \"@openzeppelin/contracts/utils/structs/EnumerableSet.sol\":4247:4374  function _contains(Set storage set, bytes32 value) private view returns (bool) {... */\n    tag_225:\n        /* \"@openzeppelin/contracts/utils/structs/EnumerableSet.sol\":4320:4324  bool */\n      0x00\n        /* \"@openzeppelin/contracts/utils/structs/EnumerableSet.sol\":4366:4367  0 */\n      dup1\n        /* \"@openzeppelin/contracts/utils/structs/EnumerableSet.sol\":4343:4346  set */\n      dup4\n        /* \"@openzeppelin/contracts/utils/structs/EnumerableSet.sol\":4343:4355  set._indexes */\n      0x01\n      add\n        /* \"@openzeppelin/contracts/utils/structs/EnumerableSet.sol\":4343:4362  set._indexes[value] */\n      0x00\n        /* \"@openzeppelin/contracts/utils/structs/EnumerableSet.sol\":4356:4361  value */\n      dup5\n        /* \"@openzeppelin/contracts/utils/structs/EnumerableSet.sol\":4343:4362  set._indexes[value] */\n      dup2\n      mstore\n      0x20\n      add\n      swap1\n      dup2\n      mstore\n      0x20\n      add\n      0x00\n      keccak256\n      sload\n        /* \"@openzeppelin/contracts/utils/structs/EnumerableSet.sol\":4343:4367  set._indexes[value] != 0 */\n      eq\n      iszero\n        /* \"@openzeppelin/contracts/utils/structs/EnumerableSet.sol\":4336:4367  return set._indexes[value] != 0 */\n      swap1\n      pop\n        /* \"@openzeppelin/contracts/utils/structs/EnumerableSet.sol\":4247:4374  function _contains(Set storage set, bytes32 value) private view returns (bool) {... */\n      swap3\n      swap2\n      pop\n      pop\n      jump\t// out\n        /* \"Midas/joe-v2-main/src/libraries/BinHelper.sol\":1916:2200  function _getBPValue() internal pure returns (uint256) {... */\n    tag_230:\n        /* \"Midas/joe-v2-main/src/libraries/BinHelper.sol\":1962:1969  uint256 */\n      0x00\n        /* \"Midas/joe-v2-main/src/libraries/Constants.sol\":407:413  10_000 */\n      0x2710\n        /* \"Midas/joe-v2-main/src/libraries/Constants.sol\":248:251  128 */\n      0x80\n        /* \"Midas/joe-v2-main/src/libraries/BinHelper.sol\":2127:2128  1 */\n      0x01\n        /* \"Midas/joe-v2-main/src/libraries/BinHelper.sol\":2127:2154  1 << Constants.SCALE_OFFSET */\n      swap1\n      shl\n        /* \"Midas/joe-v2-main/src/libraries/BinHelper.sol\":2126:2183  (1 << Constants.SCALE_OFFSET) / Constants.BASIS_POINT_MAX */\n      dup2\n      tag_262\n      jumpi\n      tag_263\n      tag_264\n      jump\t// in\n    tag_263:\n    tag_262:\n      div\n        /* \"Midas/joe-v2-main/src/libraries/Constants.sol\":248:251  128 */\n      0x80\n        /* \"Midas/joe-v2-main/src/libraries/Constants.sol\":291:292  1 */\n      0x01\n        /* \"Midas/joe-v2-main/src/libraries/Constants.sol\":291:308  1 << SCALE_OFFSET */\n      swap1\n      shl\n        /* \"Midas/joe-v2-main/src/libraries/BinHelper.sol\":2108:2183  Constants.SCALE + (1 << Constants.SCALE_OFFSET) / Constants.BASIS_POINT_MAX */\n      add\n        /* \"Midas/joe-v2-main/src/libraries/BinHelper.sol\":2101:2183  return Constants.SCALE + (1 << Constants.SCALE_OFFSET) / Constants.BASIS_POINT_MAX */\n      swap1\n      pop\n        /* \"Midas/joe-v2-main/src/libraries/BinHelper.sol\":1916:2200  function _getBPValue() internal pure returns (uint256) {... */\n      swap1\n      jump\t// out\n        /* \"Midas/joe-v2-main/src/libraries/Math128x128.sol\":4094:8094  function power(uint256 x, int256 y) internal pure returns (uint256 result) {... */\n    tag_231:\n        /* \"Midas/joe-v2-main/src/libraries/Math128x128.sol\":4153:4167  uint256 result */\n      0x00\n        /* \"Midas/joe-v2-main/src/libraries/Math128x128.sol\":4179:4190  bool invert */\n      dup1\n        /* \"Midas/joe-v2-main/src/libraries/Math128x128.sol\":4200:4212  uint256 absY */\n      0x00\n        /* \"Midas/joe-v2-main/src/libraries/Math128x128.sol\":4232:4233  0 */\n      dup1\n        /* \"Midas/joe-v2-main/src/libraries/Math128x128.sol\":4227:4228  y */\n      dup5\n        /* \"Midas/joe-v2-main/src/libraries/Math128x128.sol\":4227:4233  y == 0 */\n      eq\n        /* \"Midas/joe-v2-main/src/libraries/Math128x128.sol\":4223:4257  if (y == 0) return Constants.SCALE */\n      iszero\n      tag_266\n      jumpi\n        /* \"Midas/joe-v2-main/src/libraries/Constants.sol\":248:251  128 */\n      0x80\n        /* \"Midas/joe-v2-main/src/libraries/Constants.sol\":291:292  1 */\n      0x01\n        /* \"Midas/joe-v2-main/src/libraries/Constants.sol\":291:308  1 << SCALE_OFFSET */\n      swap1\n      shl\n        /* \"Midas/joe-v2-main/src/libraries/Math128x128.sol\":4235:4257  return Constants.SCALE */\n      swap3\n      pop\n      pop\n      pop\n      jump(tag_265)\n        /* \"Midas/joe-v2-main/src/libraries/Math128x128.sol\":4223:4257  if (y == 0) return Constants.SCALE */\n    tag_266:\n        /* \"Midas/joe-v2-main/src/libraries/Math128x128.sol\":4299:4300  y */\n      dup4\n        /* \"Midas/joe-v2-main/src/libraries/Math128x128.sol\":4291:4300  absY := y */\n      swap1\n      pop\n        /* \"Midas/joe-v2-main/src/libraries/Math128x128.sol\":4326:4327  0 */\n      0x00\n        /* \"Midas/joe-v2-main/src/libraries/Math128x128.sol\":4320:4324  absY */\n      dup2\n        /* \"Midas/joe-v2-main/src/libraries/Math128x128.sol\":4316:4328  slt(absY, 0) */\n      slt\n        /* \"Midas/joe-v2-main/src/libraries/Math128x128.sol\":4313:4422  if slt(absY, 0) {... */\n      iszero\n      tag_267\n      jumpi\n        /* \"Midas/joe-v2-main/src/libraries/Math128x128.sol\":4362:4366  absY */\n      dup1\n        /* \"Midas/joe-v2-main/src/libraries/Math128x128.sol\":4359:4360  0 */\n      0x00\n        /* \"Midas/joe-v2-main/src/libraries/Math128x128.sol\":4355:4367  sub(0, absY) */\n      sub\n        /* \"Midas/joe-v2-main/src/libraries/Math128x128.sol\":4347:4367  absY := sub(0, absY) */\n      swap1\n      pop\n        /* \"Midas/joe-v2-main/src/libraries/Math128x128.sol\":4401:4407  invert */\n      dup2\n        /* \"Midas/joe-v2-main/src/libraries/Math128x128.sol\":4394:4408  iszero(invert) */\n      iszero\n        /* \"Midas/joe-v2-main/src/libraries/Math128x128.sol\":4384:4408  invert := iszero(invert) */\n      swap2\n      pop\n        /* \"Midas/joe-v2-main/src/libraries/Math128x128.sol\":4313:4422  if slt(absY, 0) {... */\n    tag_267:\n        /* \"Midas/joe-v2-main/src/libraries/Math128x128.sol\":4453:4461  0x100000 */\n      0x100000\n        /* \"Midas/joe-v2-main/src/libraries/Math128x128.sol\":4446:4450  absY */\n      dup2\n        /* \"Midas/joe-v2-main/src/libraries/Math128x128.sol\":4446:4461  absY < 0x100000 */\n      lt\n        /* \"Midas/joe-v2-main/src/libraries/Math128x128.sol\":4442:7902  if (absY < 0x100000) {... */\n      iszero\n      tag_268\n      jumpi\n        /* \"Midas/joe-v2-main/src/libraries/Constants.sol\":248:251  128 */\n      0x80\n        /* \"Midas/joe-v2-main/src/libraries/Constants.sol\":291:292  1 */\n      0x01\n        /* \"Midas/joe-v2-main/src/libraries/Constants.sol\":291:308  1 << SCALE_OFFSET */\n      swap1\n      shl\n        /* \"Midas/joe-v2-main/src/libraries/Math128x128.sol\":4477:4501  result = Constants.SCALE */\n      swap3\n      pop\n        /* \"Midas/joe-v2-main/src/libraries/Math128x128.sol\":4553:4554  x */\n      dup5\n        /* \"Midas/joe-v2-main/src/libraries/Math128x128.sol\":4580:4614  0xffffffffffffffffffffffffffffffff */\n      0xffffffffffffffffffffffffffffffff\n        /* \"Midas/joe-v2-main/src/libraries/Math128x128.sol\":4577:4578  x */\n      dup7\n        /* \"Midas/joe-v2-main/src/libraries/Math128x128.sol\":4574:4615  gt(x, 0xffffffffffffffffffffffffffffffff) */\n      gt\n        /* \"Midas/joe-v2-main/src/libraries/Math128x128.sol\":4571:4724  if gt(x, 0xffffffffffffffffffffffffffffffff) {... */\n      iszero\n      tag_269\n      jumpi\n        /* \"Midas/joe-v2-main/src/libraries/Math128x128.sol\":4657:4660  pow */\n      dup1\n        /* \"Midas/joe-v2-main/src/libraries/Math128x128.sol\":4653:4654  0 */\n      0x00\n        /* \"Midas/joe-v2-main/src/libraries/Math128x128.sol\":4649:4655  not(0) */\n      not\n        /* \"Midas/joe-v2-main/src/libraries/Math128x128.sol\":4645:4661  div(not(0), pow) */\n      div\n        /* \"Midas/joe-v2-main/src/libraries/Math128x128.sol\":4638:4661  pow := div(not(0), pow) */\n      swap1\n      pop\n        /* \"Midas/joe-v2-main/src/libraries/Math128x128.sol\":4699:4705  invert */\n      dup3\n        /* \"Midas/joe-v2-main/src/libraries/Math128x128.sol\":4692:4706  iszero(invert) */\n      iszero\n        /* \"Midas/joe-v2-main/src/libraries/Math128x128.sol\":4682:4706  invert := iszero(invert) */\n      swap3\n      pop\n        /* \"Midas/joe-v2-main/src/libraries/Math128x128.sol\":4571:4724  if gt(x, 0xffffffffffffffffffffffffffffffff) {... */\n    tag_269:\n        /* \"Midas/joe-v2-main/src/libraries/Math128x128.sol\":4755:4758  0x1 */\n      0x01\n        /* \"Midas/joe-v2-main/src/libraries/Math128x128.sol\":4749:4753  absY */\n      dup3\n        /* \"Midas/joe-v2-main/src/libraries/Math128x128.sol\":4745:4759  and(absY, 0x1) */\n      and\n        /* \"Midas/joe-v2-main/src/libraries/Math128x128.sol\":4742:4836  if and(absY, 0x1) {... */\n      iszero\n      tag_270\n      jumpi\n        /* \"Midas/joe-v2-main/src/libraries/Math128x128.sol\":4813:4816  pow */\n      dup1\n        /* \"Midas/joe-v2-main/src/libraries/Math128x128.sol\":4805:4811  result */\n      dup5\n        /* \"Midas/joe-v2-main/src/libraries/Math128x128.sol\":4801:4817  mul(result, pow) */\n      mul\n        /* \"Midas/joe-v2-main/src/libraries/Math128x128.sol\":4796:4799  128 */\n      0x80\n        /* \"Midas/joe-v2-main/src/libraries/Math128x128.sol\":4792:4818  shr(128, mul(result, pow)) */\n      shr\n        /* \"Midas/joe-v2-main/src/libraries/Math128x128.sol\":4782:4818  result := shr(128, mul(result, pow)) */\n      swap4\n      pop\n        /* \"Midas/joe-v2-main/src/libraries/Math128x128.sol\":4742:4836  if and(absY, 0x1) {... */\n    tag_270:\n        /* \"Midas/joe-v2-main/src/libraries/Math128x128.sol\":4878:4881  pow */\n      dup1\n        /* \"Midas/joe-v2-main/src/libraries/Math128x128.sol\":4873:4876  pow */\n      dup2\n        /* \"Midas/joe-v2-main/src/libraries/Math128x128.sol\":4869:4882  mul(pow, pow) */\n      mul\n        /* \"Midas/joe-v2-main/src/libraries/Math128x128.sol\":4864:4867  128 */\n      0x80\n        /* \"Midas/joe-v2-main/src/libraries/Math128x128.sol\":4860:4883  shr(128, mul(pow, pow)) */\n      shr\n        /* \"Midas/joe-v2-main/src/libraries/Math128x128.sol\":4853:4883  pow := shr(128, mul(pow, pow)) */\n      swap1\n      pop\n        /* \"Midas/joe-v2-main/src/libraries/Math128x128.sol\":4913:4916  0x2 */\n      0x02\n        /* \"Midas/joe-v2-main/src/libraries/Math128x128.sol\":4907:4911  absY */\n      dup3\n        /* \"Midas/joe-v2-main/src/libraries/Math128x128.sol\":4903:4917  and(absY, 0x2) */\n      and\n        /* \"Midas/joe-v2-main/src/libraries/Math128x128.sol\":4900:4994  if and(absY, 0x2) {... */\n      iszero\n      tag_271\n      jumpi\n        /* \"Midas/joe-v2-main/src/libraries/Math128x128.sol\":4971:4974  pow */\n      dup1\n        /* \"Midas/joe-v2-main/src/libraries/Math128x128.sol\":4963:4969  result */\n      dup5\n        /* \"Midas/joe-v2-main/src/libraries/Math128x128.sol\":4959:4975  mul(result, pow) */\n      mul\n        /* \"Midas/joe-v2-main/src/libraries/Math128x128.sol\":4954:4957  128 */\n      0x80\n        /* \"Midas/joe-v2-main/src/libraries/Math128x128.sol\":4950:4976  shr(128, mul(result, pow)) */\n      shr\n        /* \"Midas/joe-v2-main/src/libraries/Math128x128.sol\":4940:4976  result := shr(128, mul(result, pow)) */\n      swap4\n      pop\n        /* \"Midas/joe-v2-main/src/libraries/Math128x128.sol\":4900:4994  if and(absY, 0x2) {... */\n    tag_271:\n        /* \"Midas/joe-v2-main/src/libraries/Math128x128.sol\":5036:5039  pow */\n      dup1\n        /* \"Midas/joe-v2-main/src/libraries/Math128x128.sol\":5031:5034  pow */\n      dup2\n        /* \"Midas/joe-v2-main/src/libraries/Math128x128.sol\":5027:5040  mul(pow, pow) */\n      mul\n        /* \"Midas/joe-v2-main/src/libraries/Math128x128.sol\":5022:5025  128 */\n      0x80\n        /* \"Midas/joe-v2-main/src/libraries/Math128x128.sol\":5018:5041  shr(128, mul(pow, pow)) */\n      shr\n        /* \"Midas/joe-v2-main/src/libraries/Math128x128.sol\":5011:5041  pow := shr(128, mul(pow, pow)) */\n      swap1\n      pop\n        /* \"Midas/joe-v2-main/src/libraries/Math128x128.sol\":5071:5074  0x4 */\n      0x04\n        /* \"Midas/joe-v2-main/src/libraries/Math128x128.sol\":5065:5069  absY */\n      dup3\n        /* \"Midas/joe-v2-main/src/libraries/Math128x128.sol\":5061:5075  and(absY, 0x4) */\n      and\n        /* \"Midas/joe-v2-main/src/libraries/Math128x128.sol\":5058:5152  if and(absY, 0x4) {... */\n      iszero\n      tag_272\n      jumpi\n        /* \"Midas/joe-v2-main/src/libraries/Math128x128.sol\":5129:5132  pow */\n      dup1\n        /* \"Midas/joe-v2-main/src/libraries/Math128x128.sol\":5121:5127  result */\n      dup5\n        /* \"Midas/joe-v2-main/src/libraries/Math128x128.sol\":5117:5133  mul(result, pow) */\n      mul\n        /* \"Midas/joe-v2-main/src/libraries/Math128x128.sol\":5112:5115  128 */\n      0x80\n        /* \"Midas/joe-v2-main/src/libraries/Math128x128.sol\":5108:5134  shr(128, mul(result, pow)) */\n      shr\n        /* \"Midas/joe-v2-main/src/libraries/Math128x128.sol\":5098:5134  result := shr(128, mul(result, pow)) */\n      swap4\n      pop\n        /* \"Midas/joe-v2-main/src/libraries/Math128x128.sol\":5058:5152  if and(absY, 0x4) {... */\n    tag_272:\n        /* \"Midas/joe-v2-main/src/libraries/Math128x128.sol\":5194:5197  pow */\n      dup1\n        /* \"Midas/joe-v2-main/src/libraries/Math128x128.sol\":5189:5192  pow */\n      dup2\n        /* \"Midas/joe-v2-main/src/libraries/Math128x128.sol\":5185:5198  mul(pow, pow) */\n      mul\n        /* \"Midas/joe-v2-main/src/libraries/Math128x128.sol\":5180:5183  128 */\n      0x80\n        /* \"Midas/joe-v2-main/src/libraries/Math128x128.sol\":5176:5199  shr(128, mul(pow, pow)) */\n      shr\n        /* \"Midas/joe-v2-main/src/libraries/Math128x128.sol\":5169:5199  pow := shr(128, mul(pow, pow)) */\n      swap1\n      pop\n        /* \"Midas/joe-v2-main/src/libraries/Math128x128.sol\":5229:5232  0x8 */\n      0x08\n        /* \"Midas/joe-v2-main/src/libraries/Math128x128.sol\":5223:5227  absY */\n      dup3\n        /* \"Midas/joe-v2-main/src/libraries/Math128x128.sol\":5219:5233  and(absY, 0x8) */\n      and\n        /* \"Midas/joe-v2-main/src/libraries/Math128x128.sol\":5216:5310  if and(absY, 0x8) {... */\n      iszero\n      tag_273\n      jumpi\n        /* \"Midas/joe-v2-main/src/libraries/Math128x128.sol\":5287:5290  pow */\n      dup1\n        /* \"Midas/joe-v2-main/src/libraries/Math128x128.sol\":5279:5285  result */\n      dup5\n        /* \"Midas/joe-v2-main/src/libraries/Math128x128.sol\":5275:5291  mul(result, pow) */\n      mul\n        /* \"Midas/joe-v2-main/src/libraries/Math128x128.sol\":5270:5273  128 */\n      0x80\n        /* \"Midas/joe-v2-main/src/libraries/Math128x128.sol\":5266:5292  shr(128, mul(result, pow)) */\n      shr\n        /* \"Midas/joe-v2-main/src/libraries/Math128x128.sol\":5256:5292  result := shr(128, mul(result, pow)) */\n      swap4\n      pop\n        /* \"Midas/joe-v2-main/src/libraries/Math128x128.sol\":5216:5310  if and(absY, 0x8) {... */\n    tag_273:\n        /* \"Midas/joe-v2-main/src/libraries/Math128x128.sol\":5352:5355  pow */\n      dup1\n        /* \"Midas/joe-v2-main/src/libraries/Math128x128.sol\":5347:5350  pow */\n      dup2\n        /* \"Midas/joe-v2-main/src/libraries/Math128x128.sol\":5343:5356  mul(pow, pow) */\n      mul\n        /* \"Midas/joe-v2-main/src/libraries/Math128x128.sol\":5338:5341  128 */\n      0x80\n        /* \"Midas/joe-v2-main/src/libraries/Math128x128.sol\":5334:5357  shr(128, mul(pow, pow)) */\n      shr\n        /* \"Midas/joe-v2-main/src/libraries/Math128x128.sol\":5327:5357  pow := shr(128, mul(pow, pow)) */\n      swap1\n      pop\n        /* \"Midas/joe-v2-main/src/libraries/Math128x128.sol\":5387:5391  0x10 */\n      0x10\n        /* \"Midas/joe-v2-main/src/libraries/Math128x128.sol\":5381:5385  absY */\n      dup3\n        /* \"Midas/joe-v2-main/src/libraries/Math128x128.sol\":5377:5392  and(absY, 0x10) */\n      and\n        /* \"Midas/joe-v2-main/src/libraries/Math128x128.sol\":5374:5469  if and(absY, 0x10) {... */\n      iszero\n      tag_274\n      jumpi\n        /* \"Midas/joe-v2-main/src/libraries/Math128x128.sol\":5446:5449  pow */\n      dup1\n        /* \"Midas/joe-v2-main/src/libraries/Math128x128.sol\":5438:5444  result */\n      dup5\n        /* \"Midas/joe-v2-main/src/libraries/Math128x128.sol\":5434:5450  mul(result, pow) */\n      mul\n        /* \"Midas/joe-v2-main/src/libraries/Math128x128.sol\":5429:5432  128 */\n      0x80\n        /* \"Midas/joe-v2-main/src/libraries/Math128x128.sol\":5425:5451  shr(128, mul(result, pow)) */\n      shr\n        /* \"Midas/joe-v2-main/src/libraries/Math128x128.sol\":5415:5451  result := shr(128, mul(result, pow)) */\n      swap4\n      pop\n        /* \"Midas/joe-v2-main/src/libraries/Math128x128.sol\":5374:5469  if and(absY, 0x10) {... */\n    tag_274:\n        /* \"Midas/joe-v2-main/src/libraries/Math128x128.sol\":5511:5514  pow */\n      dup1\n        /* \"Midas/joe-v2-main/src/libraries/Math128x128.sol\":5506:5509  pow */\n      dup2\n        /* \"Midas/joe-v2-main/src/libraries/Math128x128.sol\":5502:5515  mul(pow, pow) */\n      mul\n        /* \"Midas/joe-v2-main/src/libraries/Math128x128.sol\":5497:5500  128 */\n      0x80\n        /* \"Midas/joe-v2-main/src/libraries/Math128x128.sol\":5493:5516  shr(128, mul(pow, pow)) */\n      shr\n        /* \"Midas/joe-v2-main/src/libraries/Math128x128.sol\":5486:5516  pow := shr(128, mul(pow, pow)) */\n      swap1\n      pop\n        /* \"Midas/joe-v2-main/src/libraries/Math128x128.sol\":5546:5550  0x20 */\n      0x20\n        /* \"Midas/joe-v2-main/src/libraries/Math128x128.sol\":5540:5544  absY */\n      dup3\n        /* \"Midas/joe-v2-main/src/libraries/Math128x128.sol\":5536:5551  and(absY, 0x20) */\n      and\n        /* \"Midas/joe-v2-main/src/libraries/Math128x128.sol\":5533:5628  if and(absY, 0x20) {... */\n      iszero\n      tag_275\n      jumpi\n        /* \"Midas/joe-v2-main/src/libraries/Math128x128.sol\":5605:5608  pow */\n      dup1\n        /* \"Midas/joe-v2-main/src/libraries/Math128x128.sol\":5597:5603  result */\n      dup5\n        /* \"Midas/joe-v2-main/src/libraries/Math128x128.sol\":5593:5609  mul(result, pow) */\n      mul\n        /* \"Midas/joe-v2-main/src/libraries/Math128x128.sol\":5588:5591  128 */\n      0x80\n        /* \"Midas/joe-v2-main/src/libraries/Math128x128.sol\":5584:5610  shr(128, mul(result, pow)) */\n      shr\n        /* \"Midas/joe-v2-main/src/libraries/Math128x128.sol\":5574:5610  result := shr(128, mul(result, pow)) */\n      swap4\n      pop\n        /* \"Midas/joe-v2-main/src/libraries/Math128x128.sol\":5533:5628  if and(absY, 0x20) {... */\n    tag_275:\n        /* \"Midas/joe-v2-main/src/libraries/Math128x128.sol\":5670:5673  pow */\n      dup1\n        /* \"Midas/joe-v2-main/src/libraries/Math128x128.sol\":5665:5668  pow */\n      dup2\n        /* \"Midas/joe-v2-main/src/libraries/Math128x128.sol\":5661:5674  mul(pow, pow) */\n      mul\n        /* \"Midas/joe-v2-main/src/libraries/Math128x128.sol\":5656:5659  128 */\n      0x80\n        /* \"Midas/joe-v2-main/src/libraries/Math128x128.sol\":5652:5675  shr(128, mul(pow, pow)) */\n      shr\n        /* \"Midas/joe-v2-main/src/libraries/Math128x128.sol\":5645:5675  pow := shr(128, mul(pow, pow)) */\n      swap1\n      pop\n        /* \"Midas/joe-v2-main/src/libraries/Math128x128.sol\":5705:5709  0x40 */\n      0x40\n        /* \"Midas/joe-v2-main/src/libraries/Math128x128.sol\":5699:5703  absY */\n      dup3\n        /* \"Midas/joe-v2-main/src/libraries/Math128x128.sol\":5695:5710  and(absY, 0x40) */\n      and\n        /* \"Midas/joe-v2-main/src/libraries/Math128x128.sol\":5692:5787  if and(absY, 0x40) {... */\n      iszero\n      tag_276\n      jumpi\n        /* \"Midas/joe-v2-main/src/libraries/Math128x128.sol\":5764:5767  pow */\n      dup1\n        /* \"Midas/joe-v2-main/src/libraries/Math128x128.sol\":5756:5762  result */\n      dup5\n        /* \"Midas/joe-v2-main/src/libraries/Math128x128.sol\":5752:5768  mul(result, pow) */\n      mul\n        /* \"Midas/joe-v2-main/src/libraries/Math128x128.sol\":5747:5750  128 */\n      0x80\n        /* \"Midas/joe-v2-main/src/libraries/Math128x128.sol\":5743:5769  shr(128, mul(result, pow)) */\n      shr\n        /* \"Midas/joe-v2-main/src/libraries/Math128x128.sol\":5733:5769  result := shr(128, mul(result, pow)) */\n      swap4\n      pop\n        /* \"Midas/joe-v2-main/src/libraries/Math128x128.sol\":5692:5787  if and(absY, 0x40) {... */\n    tag_276:\n        /* \"Midas/joe-v2-main/src/libraries/Math128x128.sol\":5829:5832  pow */\n      dup1\n        /* \"Midas/joe-v2-main/src/libraries/Math128x128.sol\":5824:5827  pow */\n      dup2\n        /* \"Midas/joe-v2-main/src/libraries/Math128x128.sol\":5820:5833  mul(pow, pow) */\n      mul\n        /* \"Midas/joe-v2-main/src/libraries/Math128x128.sol\":5815:5818  128 */\n      0x80\n        /* \"Midas/joe-v2-main/src/libraries/Math128x128.sol\":5811:5834  shr(128, mul(pow, pow)) */\n      shr\n        /* \"Midas/joe-v2-main/src/libraries/Math128x128.sol\":5804:5834  pow := shr(128, mul(pow, pow)) */\n      swap1\n      pop\n        /* \"Midas/joe-v2-main/src/libraries/Math128x128.sol\":5864:5868  0x80 */\n      0x80\n        /* \"Midas/joe-v2-main/src/libraries/Math128x128.sol\":5858:5862  absY */\n      dup3\n        /* \"Midas/joe-v2-main/src/libraries/Math128x128.sol\":5854:5869  and(absY, 0x80) */\n      and\n        /* \"Midas/joe-v2-main/src/libraries/Math128x128.sol\":5851:5946  if and(absY, 0x80) {... */\n      iszero\n      tag_277\n      jumpi\n        /* \"Midas/joe-v2-main/src/libraries/Math128x128.sol\":5923:5926  pow */\n      dup1\n        /* \"Midas/joe-v2-main/src/libraries/Math128x128.sol\":5915:5921  result */\n      dup5\n        /* \"Midas/joe-v2-main/src/libraries/Math128x128.sol\":5911:5927  mul(result, pow) */\n      mul\n        /* \"Midas/joe-v2-main/src/libraries/Math128x128.sol\":5906:5909  128 */\n      0x80\n        /* \"Midas/joe-v2-main/src/libraries/Math128x128.sol\":5902:5928  shr(128, mul(result, pow)) */\n      shr\n        /* \"Midas/joe-v2-main/src/libraries/Math128x128.sol\":5892:5928  result := shr(128, mul(result, pow)) */\n      swap4\n      pop\n        /* \"Midas/joe-v2-main/src/libraries/Math128x128.sol\":5851:5946  if and(absY, 0x80) {... */\n    tag_277:\n        /* \"Midas/joe-v2-main/src/libraries/Math128x128.sol\":5988:5991  pow */\n      dup1\n        /* \"Midas/joe-v2-main/src/libraries/Math128x128.sol\":5983:5986  pow */\n      dup2\n        /* \"Midas/joe-v2-main/src/libraries/Math128x128.sol\":5979:5992  mul(pow, pow) */\n      mul\n        /* \"Midas/joe-v2-main/src/libraries/Math128x128.sol\":5974:5977  128 */\n      0x80\n        /* \"Midas/joe-v2-main/src/libraries/Math128x128.sol\":5970:5993  shr(128, mul(pow, pow)) */\n      shr\n        /* \"Midas/joe-v2-main/src/libraries/Math128x128.sol\":5963:5993  pow := shr(128, mul(pow, pow)) */\n      swap1\n      pop\n        /* \"Midas/joe-v2-main/src/libraries/Math128x128.sol\":6023:6028  0x100 */\n      0x0100\n        /* \"Midas/joe-v2-main/src/libraries/Math128x128.sol\":6017:6021  absY */\n      dup3\n        /* \"Midas/joe-v2-main/src/libraries/Math128x128.sol\":6013:6029  and(absY, 0x100) */\n      and\n        /* \"Midas/joe-v2-main/src/libraries/Math128x128.sol\":6010:6106  if and(absY, 0x100) {... */\n      iszero\n      tag_278\n      jumpi\n        /* \"Midas/joe-v2-main/src/libraries/Math128x128.sol\":6083:6086  pow */\n      dup1\n        /* \"Midas/joe-v2-main/src/libraries/Math128x128.sol\":6075:6081  result */\n      dup5\n        /* \"Midas/joe-v2-main/src/libraries/Math128x128.sol\":6071:6087  mul(result, pow) */\n      mul\n        /* \"Midas/joe-v2-main/src/libraries/Math128x128.sol\":6066:6069  128 */\n      0x80\n        /* \"Midas/joe-v2-main/src/libraries/Math128x128.sol\":6062:6088  shr(128, mul(result, pow)) */\n      shr\n        /* \"Midas/joe-v2-main/src/libraries/Math128x128.sol\":6052:6088  result := shr(128, mul(result, pow)) */\n      swap4\n      pop\n        /* \"Midas/joe-v2-main/src/libraries/Math128x128.sol\":6010:6106  if and(absY, 0x100) {... */\n    tag_278:\n        /* \"Midas/joe-v2-main/src/libraries/Math128x128.sol\":6148:6151  pow */\n      dup1\n        /* \"Midas/joe-v2-main/src/libraries/Math128x128.sol\":6143:6146  pow */\n      dup2\n        /* \"Midas/joe-v2-main/src/libraries/Math128x128.sol\":6139:6152  mul(pow, pow) */\n      mul\n        /* \"Midas/joe-v2-main/src/libraries/Math128x128.sol\":6134:6137  128 */\n      0x80\n        /* \"Midas/joe-v2-main/src/libraries/Math128x128.sol\":6130:6153  shr(128, mul(pow, pow)) */\n      shr\n        /* \"Midas/joe-v2-main/src/libraries/Math128x128.sol\":6123:6153  pow := shr(128, mul(pow, pow)) */\n      swap1\n      pop\n        /* \"Midas/joe-v2-main/src/libraries/Math128x128.sol\":6183:6188  0x200 */\n      0x0200\n        /* \"Midas/joe-v2-main/src/libraries/Math128x128.sol\":6177:6181  absY */\n      dup3\n        /* \"Midas/joe-v2-main/src/libraries/Math128x128.sol\":6173:6189  and(absY, 0x200) */\n      and\n        /* \"Midas/joe-v2-main/src/libraries/Math128x128.sol\":6170:6266  if and(absY, 0x200) {... */\n      iszero\n      tag_279\n      jumpi\n        /* \"Midas/joe-v2-main/src/libraries/Math128x128.sol\":6243:6246  pow */\n      dup1\n        /* \"Midas/joe-v2-main/src/libraries/Math128x128.sol\":6235:6241  result */\n      dup5\n        /* \"Midas/joe-v2-main/src/libraries/Math128x128.sol\":6231:6247  mul(result, pow) */\n      mul\n        /* \"Midas/joe-v2-main/src/libraries/Math128x128.sol\":6226:6229  128 */\n      0x80\n        /* \"Midas/joe-v2-main/src/libraries/Math128x128.sol\":6222:6248  shr(128, mul(result, pow)) */\n      shr\n        /* \"Midas/joe-v2-main/src/libraries/Math128x128.sol\":6212:6248  result := shr(128, mul(result, pow)) */\n      swap4\n      pop\n        /* \"Midas/joe-v2-main/src/libraries/Math128x128.sol\":6170:6266  if and(absY, 0x200) {... */\n    tag_279:\n        /* \"Midas/joe-v2-main/src/libraries/Math128x128.sol\":6308:6311  pow */\n      dup1\n        /* \"Midas/joe-v2-main/src/libraries/Math128x128.sol\":6303:6306  pow */\n      dup2\n        /* \"Midas/joe-v2-main/src/libraries/Math128x128.sol\":6299:6312  mul(pow, pow) */\n      mul\n        /* \"Midas/joe-v2-main/src/libraries/Math128x128.sol\":6294:6297  128 */\n      0x80\n        /* \"Midas/joe-v2-main/src/libraries/Math128x128.sol\":6290:6313  shr(128, mul(pow, pow)) */\n      shr\n        /* \"Midas/joe-v2-main/src/libraries/Math128x128.sol\":6283:6313  pow := shr(128, mul(pow, pow)) */\n      swap1\n      pop\n        /* \"Midas/joe-v2-main/src/libraries/Math128x128.sol\":6343:6348  0x400 */\n      0x0400\n        /* \"Midas/joe-v2-main/src/libraries/Math128x128.sol\":6337:6341  absY */\n      dup3\n        /* \"Midas/joe-v2-main/src/libraries/Math128x128.sol\":6333:6349  and(absY, 0x400) */\n      and\n        /* \"Midas/joe-v2-main/src/libraries/Math128x128.sol\":6330:6426  if and(absY, 0x400) {... */\n      iszero\n      tag_280\n      jumpi\n        /* \"Midas/joe-v2-main/src/libraries/Math128x128.sol\":6403:6406  pow */\n      dup1\n        /* \"Midas/joe-v2-main/src/libraries/Math128x128.sol\":6395:6401  result */\n      dup5\n        /* \"Midas/joe-v2-main/src/libraries/Math128x128.sol\":6391:6407  mul(result, pow) */\n      mul\n        /* \"Midas/joe-v2-main/src/libraries/Math128x128.sol\":6386:6389  128 */\n      0x80\n        /* \"Midas/joe-v2-main/src/libraries/Math128x128.sol\":6382:6408  shr(128, mul(result, pow)) */\n      shr\n        /* \"Midas/joe-v2-main/src/libraries/Math128x128.sol\":6372:6408  result := shr(128, mul(result, pow)) */\n      swap4\n      pop\n        /* \"Midas/joe-v2-main/src/libraries/Math128x128.sol\":6330:6426  if and(absY, 0x400) {... */\n    tag_280:\n        /* \"Midas/joe-v2-main/src/libraries/Math128x128.sol\":6468:6471  pow */\n      dup1\n        /* \"Midas/joe-v2-main/src/libraries/Math128x128.sol\":6463:6466  pow */\n      dup2\n        /* \"Midas/joe-v2-main/src/libraries/Math128x128.sol\":6459:6472  mul(pow, pow) */\n      mul\n        /* \"Midas/joe-v2-main/src/libraries/Math128x128.sol\":6454:6457  128 */\n      0x80\n        /* \"Midas/joe-v2-main/src/libraries/Math128x128.sol\":6450:6473  shr(128, mul(pow, pow)) */\n      shr\n        /* \"Midas/joe-v2-main/src/libraries/Math128x128.sol\":6443:6473  pow := shr(128, mul(pow, pow)) */\n      swap1\n      pop\n        /* \"Midas/joe-v2-main/src/libraries/Math128x128.sol\":6503:6508  0x800 */\n      0x0800\n        /* \"Midas/joe-v2-main/src/libraries/Math128x128.sol\":6497:6501  absY */\n      dup3\n        /* \"Midas/joe-v2-main/src/libraries/Math128x128.sol\":6493:6509  and(absY, 0x800) */\n      and\n        /* \"Midas/joe-v2-main/src/libraries/Math128x128.sol\":6490:6586  if and(absY, 0x800) {... */\n      iszero\n      tag_281\n      jumpi\n        /* \"Midas/joe-v2-main/src/libraries/Math128x128.sol\":6563:6566  pow */\n      dup1\n        /* \"Midas/joe-v2-main/src/libraries/Math128x128.sol\":6555:6561  result */\n      dup5\n        /* \"Midas/joe-v2-main/src/libraries/Math128x128.sol\":6551:6567  mul(result, pow) */\n      mul\n        /* \"Midas/joe-v2-main/src/libraries/Math128x128.sol\":6546:6549  128 */\n      0x80\n        /* \"Midas/joe-v2-main/src/libraries/Math128x128.sol\":6542:6568  shr(128, mul(result, pow)) */\n      shr\n        /* \"Midas/joe-v2-main/src/libraries/Math128x128.sol\":6532:6568  result := shr(128, mul(result, pow)) */\n      swap4\n      pop\n        /* \"Midas/joe-v2-main/src/libraries/Math128x128.sol\":6490:6586  if and(absY, 0x800) {... */\n    tag_281:\n        /* \"Midas/joe-v2-main/src/libraries/Math128x128.sol\":6628:6631  pow */\n      dup1\n        /* \"Midas/joe-v2-main/src/libraries/Math128x128.sol\":6623:6626  pow */\n      dup2\n        /* \"Midas/joe-v2-main/src/libraries/Math128x128.sol\":6619:6632  mul(pow, pow) */\n      mul\n        /* \"Midas/joe-v2-main/src/libraries/Math128x128.sol\":6614:6617  128 */\n      0x80\n        /* \"Midas/joe-v2-main/src/libraries/Math128x128.sol\":6610:6633  shr(128, mul(pow, pow)) */\n      shr\n        /* \"Midas/joe-v2-main/src/libraries/Math128x128.sol\":6603:6633  pow := shr(128, mul(pow, pow)) */\n      swap1\n      pop\n        /* \"Midas/joe-v2-main/src/libraries/Math128x128.sol\":6663:6669  0x1000 */\n      0x1000\n        /* \"Midas/joe-v2-main/src/libraries/Math128x128.sol\":6657:6661  absY */\n      dup3\n        /* \"Midas/joe-v2-main/src/libraries/Math128x128.sol\":6653:6670  and(absY, 0x1000) */\n      and\n        /* \"Midas/joe-v2-main/src/libraries/Math128x128.sol\":6650:6747  if and(absY, 0x1000) {... */\n      iszero\n      tag_282\n      jumpi\n        /* \"Midas/joe-v2-main/src/libraries/Math128x128.sol\":6724:6727  pow */\n      dup1\n        /* \"Midas/joe-v2-main/src/libraries/Math128x128.sol\":6716:6722  result */\n      dup5\n        /* \"Midas/joe-v2-main/src/libraries/Math128x128.sol\":6712:6728  mul(result, pow) */\n      mul\n        /* \"Midas/joe-v2-main/src/libraries/Math128x128.sol\":6707:6710  128 */\n      0x80\n        /* \"Midas/joe-v2-main/src/libraries/Math128x128.sol\":6703:6729  shr(128, mul(result, pow)) */\n      shr\n        /* \"Midas/joe-v2-main/src/libraries/Math128x128.sol\":6693:6729  result := shr(128, mul(result, pow)) */\n      swap4\n      pop\n        /* \"Midas/joe-v2-main/src/libraries/Math128x128.sol\":6650:6747  if and(absY, 0x1000) {... */\n    tag_282:\n        /* \"Midas/joe-v2-main/src/libraries/Math128x128.sol\":6789:6792  pow */\n      dup1\n        /* \"Midas/joe-v2-main/src/libraries/Math128x128.sol\":6784:6787  pow */\n      dup2\n        /* \"Midas/joe-v2-main/src/libraries/Math128x128.sol\":6780:6793  mul(pow, pow) */\n      mul\n        /* \"Midas/joe-v2-main/src/libraries/Math128x128.sol\":6775:6778  128 */\n      0x80\n        /* \"Midas/joe-v2-main/src/libraries/Math128x128.sol\":6771:6794  shr(128, mul(pow, pow)) */\n      shr\n        /* \"Midas/joe-v2-main/src/libraries/Math128x128.sol\":6764:6794  pow := shr(128, mul(pow, pow)) */\n      swap1\n      pop\n        /* \"Midas/joe-v2-main/src/libraries/Math128x128.sol\":6824:6830  0x2000 */\n      0x2000\n        /* \"Midas/joe-v2-main/src/libraries/Math128x128.sol\":6818:6822  absY */\n      dup3\n        /* \"Midas/joe-v2-main/src/libraries/Math128x128.sol\":6814:6831  and(absY, 0x2000) */\n      and\n        /* \"Midas/joe-v2-main/src/libraries/Math128x128.sol\":6811:6908  if and(absY, 0x2000) {... */\n      iszero\n      tag_283\n      jumpi\n        /* \"Midas/joe-v2-main/src/libraries/Math128x128.sol\":6885:6888  pow */\n      dup1\n        /* \"Midas/joe-v2-main/src/libraries/Math128x128.sol\":6877:6883  result */\n      dup5\n        /* \"Midas/joe-v2-main/src/libraries/Math128x128.sol\":6873:6889  mul(result, pow) */\n      mul\n        /* \"Midas/joe-v2-main/src/libraries/Math128x128.sol\":6868:6871  128 */\n      0x80\n        /* \"Midas/joe-v2-main/src/libraries/Math128x128.sol\":6864:6890  shr(128, mul(result, pow)) */\n      shr\n        /* \"Midas/joe-v2-main/src/libraries/Math128x128.sol\":6854:6890  result := shr(128, mul(result, pow)) */\n      swap4\n      pop\n        /* \"Midas/joe-v2-main/src/libraries/Math128x128.sol\":6811:6908  if and(absY, 0x2000) {... */\n    tag_283:\n        /* \"Midas/joe-v2-main/src/libraries/Math128x128.sol\":6950:6953  pow */\n      dup1\n        /* \"Midas/joe-v2-main/src/libraries/Math128x128.sol\":6945:6948  pow */\n      dup2\n        /* \"Midas/joe-v2-main/src/libraries/Math128x128.sol\":6941:6954  mul(pow, pow) */\n      mul\n        /* \"Midas/joe-v2-main/src/libraries/Math128x128.sol\":6936:6939  128 */\n      0x80\n        /* \"Midas/joe-v2-main/src/libraries/Math128x128.sol\":6932:6955  shr(128, mul(pow, pow)) */\n      shr\n        /* \"Midas/joe-v2-main/src/libraries/Math128x128.sol\":6925:6955  pow := shr(128, mul(pow, pow)) */\n      swap1\n      pop\n        /* \"Midas/joe-v2-main/src/libraries/Math128x128.sol\":6985:6991  0x4000 */\n      0x4000\n        /* \"Midas/joe-v2-main/src/libraries/Math128x128.sol\":6979:6983  absY */\n      dup3\n        /* \"Midas/joe-v2-main/src/libraries/Math128x128.sol\":6975:6992  and(absY, 0x4000) */\n      and\n        /* \"Midas/joe-v2-main/src/libraries/Math128x128.sol\":6972:7069  if and(absY, 0x4000) {... */\n      iszero\n      tag_284\n      jumpi\n        /* \"Midas/joe-v2-main/src/libraries/Math128x128.sol\":7046:7049  pow */\n      dup1\n        /* \"Midas/joe-v2-main/src/libraries/Math128x128.sol\":7038:7044  result */\n      dup5\n        /* \"Midas/joe-v2-main/src/libraries/Math128x128.sol\":7034:7050  mul(result, pow) */\n      mul\n        /* \"Midas/joe-v2-main/src/libraries/Math128x128.sol\":7029:7032  128 */\n      0x80\n        /* \"Midas/joe-v2-main/src/libraries/Math128x128.sol\":7025:7051  shr(128, mul(result, pow)) */\n      shr\n        /* \"Midas/joe-v2-main/src/libraries/Math128x128.sol\":7015:7051  result := shr(128, mul(result, pow)) */\n      swap4\n      pop\n        /* \"Midas/joe-v2-main/src/libraries/Math128x128.sol\":6972:7069  if and(absY, 0x4000) {... */\n    tag_284:\n        /* \"Midas/joe-v2-main/src/libraries/Math128x128.sol\":7111:7114  pow */\n      dup1\n        /* \"Midas/joe-v2-main/src/libraries/Math128x128.sol\":7106:7109  pow */\n      dup2\n        /* \"Midas/joe-v2-main/src/libraries/Math128x128.sol\":7102:7115  mul(pow, pow) */\n      mul\n        /* \"Midas/joe-v2-main/src/libraries/Math128x128.sol\":7097:7100  128 */\n      0x80\n        /* \"Midas/joe-v2-main/src/libraries/Math128x128.sol\":7093:7116  shr(128, mul(pow, pow)) */\n      shr\n        /* \"Midas/joe-v2-main/src/libraries/Math128x128.sol\":7086:7116  pow := shr(128, mul(pow, pow)) */\n      swap1\n      pop\n        /* \"Midas/joe-v2-main/src/libraries/Math128x128.sol\":7146:7152  0x8000 */\n      0x8000\n        /* \"Midas/joe-v2-main/src/libraries/Math128x128.sol\":7140:7144  absY */\n      dup3\n        /* \"Midas/joe-v2-main/src/libraries/Math128x128.sol\":7136:7153  and(absY, 0x8000) */\n      and\n        /* \"Midas/joe-v2-main/src/libraries/Math128x128.sol\":7133:7230  if and(absY, 0x8000) {... */\n      iszero\n      tag_285\n      jumpi\n        /* \"Midas/joe-v2-main/src/libraries/Math128x128.sol\":7207:7210  pow */\n      dup1\n        /* \"Midas/joe-v2-main/src/libraries/Math128x128.sol\":7199:7205  result */\n      dup5\n        /* \"Midas/joe-v2-main/src/libraries/Math128x128.sol\":7195:7211  mul(result, pow) */\n      mul\n        /* \"Midas/joe-v2-main/src/libraries/Math128x128.sol\":7190:7193  128 */\n      0x80\n        /* \"Midas/joe-v2-main/src/libraries/Math128x128.sol\":7186:7212  shr(128, mul(result, pow)) */\n      shr\n        /* \"Midas/joe-v2-main/src/libraries/Math128x128.sol\":7176:7212  result := shr(128, mul(result, pow)) */\n      swap4\n      pop\n        /* \"Midas/joe-v2-main/src/libraries/Math128x128.sol\":7133:7230  if and(absY, 0x8000) {... */\n    tag_285:\n        /* \"Midas/joe-v2-main/src/libraries/Math128x128.sol\":7272:7275  pow */\n      dup1\n        /* \"Midas/joe-v2-main/src/libraries/Math128x128.sol\":7267:7270  pow */\n      dup2\n        /* \"Midas/joe-v2-main/src/libraries/Math128x128.sol\":7263:7276  mul(pow, pow) */\n      mul\n        /* \"Midas/joe-v2-main/src/libraries/Math128x128.sol\":7258:7261  128 */\n      0x80\n        /* \"Midas/joe-v2-main/src/libraries/Math128x128.sol\":7254:7277  shr(128, mul(pow, pow)) */\n      shr\n        /* \"Midas/joe-v2-main/src/libraries/Math128x128.sol\":7247:7277  pow := shr(128, mul(pow, pow)) */\n      swap1\n      pop\n        /* \"Midas/joe-v2-main/src/libraries/Math128x128.sol\":7307:7314  0x10000 */\n      0x010000\n        /* \"Midas/joe-v2-main/src/libraries/Math128x128.sol\":7301:7305  absY */\n      dup3\n        /* \"Midas/joe-v2-main/src/libraries/Math128x128.sol\":7297:7315  and(absY, 0x10000) */\n      and\n        /* \"Midas/joe-v2-main/src/libraries/Math128x128.sol\":7294:7392  if and(absY, 0x10000) {... */\n      iszero\n      tag_286\n      jumpi\n        /* \"Midas/joe-v2-main/src/libraries/Math128x128.sol\":7369:7372  pow */\n      dup1\n        /* \"Midas/joe-v2-main/src/libraries/Math128x128.sol\":7361:7367  result */\n      dup5\n        /* \"Midas/joe-v2-main/src/libraries/Math128x128.sol\":7357:7373  mul(result, pow) */\n      mul\n        /* \"Midas/joe-v2-main/src/libraries/Math128x128.sol\":7352:7355  128 */\n      0x80\n        /* \"Midas/joe-v2-main/src/libraries/Math128x128.sol\":7348:7374  shr(128, mul(result, pow)) */\n      shr\n        /* \"Midas/joe-v2-main/src/libraries/Math128x128.sol\":7338:7374  result := shr(128, mul(result, pow)) */\n      swap4\n      pop\n        /* \"Midas/joe-v2-main/src/libraries/Math128x128.sol\":7294:7392  if and(absY, 0x10000) {... */\n    tag_286:\n        /* \"Midas/joe-v2-main/src/libraries/Math128x128.sol\":7434:7437  pow */\n      dup1\n        /* \"Midas/joe-v2-main/src/libraries/Math128x128.sol\":7429:7432  pow */\n      dup2\n        /* \"Midas/joe-v2-main/src/libraries/Math128x128.sol\":7425:7438  mul(pow, pow) */\n      mul\n        /* \"Midas/joe-v2-main/src/libraries/Math128x128.sol\":7420:7423  128 */\n      0x80\n        /* \"Midas/joe-v2-main/src/libraries/Math128x128.sol\":7416:7439  shr(128, mul(pow, pow)) */\n      shr\n        /* \"Midas/joe-v2-main/src/libraries/Math128x128.sol\":7409:7439  pow := shr(128, mul(pow, pow)) */\n      swap1\n      pop\n        /* \"Midas/joe-v2-main/src/libraries/Math128x128.sol\":7469:7476  0x20000 */\n      0x020000\n        /* \"Midas/joe-v2-main/src/libraries/Math128x128.sol\":7463:7467  absY */\n      dup3\n        /* \"Midas/joe-v2-main/src/libraries/Math128x128.sol\":7459:7477  and(absY, 0x20000) */\n      and\n        /* \"Midas/joe-v2-main/src/libraries/Math128x128.sol\":7456:7554  if and(absY, 0x20000) {... */\n      iszero\n      tag_287\n      jumpi\n        /* \"Midas/joe-v2-main/src/libraries/Math128x128.sol\":7531:7534  pow */\n      dup1\n        /* \"Midas/joe-v2-main/src/libraries/Math128x128.sol\":7523:7529  result */\n      dup5\n        /* \"Midas/joe-v2-main/src/libraries/Math128x128.sol\":7519:7535  mul(result, pow) */\n      mul\n        /* \"Midas/joe-v2-main/src/libraries/Math128x128.sol\":7514:7517  128 */\n      0x80\n        /* \"Midas/joe-v2-main/src/libraries/Math128x128.sol\":7510:7536  shr(128, mul(result, pow)) */\n      shr\n        /* \"Midas/joe-v2-main/src/libraries/Math128x128.sol\":7500:7536  result := shr(128, mul(result, pow)) */\n      swap4\n      pop\n        /* \"Midas/joe-v2-main/src/libraries/Math128x128.sol\":7456:7554  if and(absY, 0x20000) {... */\n    tag_287:\n        /* \"Midas/joe-v2-main/src/libraries/Math128x128.sol\":7596:7599  pow */\n      dup1\n        /* \"Midas/joe-v2-main/src/libraries/Math128x128.sol\":7591:7594  pow */\n      dup2\n        /* \"Midas/joe-v2-main/src/libraries/Math128x128.sol\":7587:7600  mul(pow, pow) */\n      mul\n        /* \"Midas/joe-v2-main/src/libraries/Math128x128.sol\":7582:7585  128 */\n      0x80\n        /* \"Midas/joe-v2-main/src/libraries/Math128x128.sol\":7578:7601  shr(128, mul(pow, pow)) */\n      shr\n        /* \"Midas/joe-v2-main/src/libraries/Math128x128.sol\":7571:7601  pow := shr(128, mul(pow, pow)) */\n      swap1\n      pop\n        /* \"Midas/joe-v2-main/src/libraries/Math128x128.sol\":7631:7638  0x40000 */\n      0x040000\n        /* \"Midas/joe-v2-main/src/libraries/Math128x128.sol\":7625:7629  absY */\n      dup3\n        /* \"Midas/joe-v2-main/src/libraries/Math128x128.sol\":7621:7639  and(absY, 0x40000) */\n      and\n        /* \"Midas/joe-v2-main/src/libraries/Math128x128.sol\":7618:7716  if and(absY, 0x40000) {... */\n      iszero\n      tag_288\n      jumpi\n        /* \"Midas/joe-v2-main/src/libraries/Math128x128.sol\":7693:7696  pow */\n      dup1\n        /* \"Midas/joe-v2-main/src/libraries/Math128x128.sol\":7685:7691  result */\n      dup5\n        /* \"Midas/joe-v2-main/src/libraries/Math128x128.sol\":7681:7697  mul(result, pow) */\n      mul\n        /* \"Midas/joe-v2-main/src/libraries/Math128x128.sol\":7676:7679  128 */\n      0x80\n        /* \"Midas/joe-v2-main/src/libraries/Math128x128.sol\":7672:7698  shr(128, mul(result, pow)) */\n      shr\n        /* \"Midas/joe-v2-main/src/libraries/Math128x128.sol\":7662:7698  result := shr(128, mul(result, pow)) */\n      swap4\n      pop\n        /* \"Midas/joe-v2-main/src/libraries/Math128x128.sol\":7618:7716  if and(absY, 0x40000) {... */\n    tag_288:\n        /* \"Midas/joe-v2-main/src/libraries/Math128x128.sol\":7758:7761  pow */\n      dup1\n        /* \"Midas/joe-v2-main/src/libraries/Math128x128.sol\":7753:7756  pow */\n      dup2\n        /* \"Midas/joe-v2-main/src/libraries/Math128x128.sol\":7749:7762  mul(pow, pow) */\n      mul\n        /* \"Midas/joe-v2-main/src/libraries/Math128x128.sol\":7744:7747  128 */\n      0x80\n        /* \"Midas/joe-v2-main/src/libraries/Math128x128.sol\":7740:7763  shr(128, mul(pow, pow)) */\n      shr\n        /* \"Midas/joe-v2-main/src/libraries/Math128x128.sol\":7733:7763  pow := shr(128, mul(pow, pow)) */\n      swap1\n      pop\n        /* \"Midas/joe-v2-main/src/libraries/Math128x128.sol\":7793:7800  0x80000 */\n      0x080000\n        /* \"Midas/joe-v2-main/src/libraries/Math128x128.sol\":7787:7791  absY */\n      dup3\n        /* \"Midas/joe-v2-main/src/libraries/Math128x128.sol\":7783:7801  and(absY, 0x80000) */\n      and\n        /* \"Midas/joe-v2-main/src/libraries/Math128x128.sol\":7780:7878  if and(absY, 0x80000) {... */\n      iszero\n      tag_289\n      jumpi\n        /* \"Midas/joe-v2-main/src/libraries/Math128x128.sol\":7855:7858  pow */\n      dup1\n        /* \"Midas/joe-v2-main/src/libraries/Math128x128.sol\":7847:7853  result */\n      dup5\n        /* \"Midas/joe-v2-main/src/libraries/Math128x128.sol\":7843:7859  mul(result, pow) */\n      mul\n        /* \"Midas/joe-v2-main/src/libraries/Math128x128.sol\":7838:7841  128 */\n      0x80\n        /* \"Midas/joe-v2-main/src/libraries/Math128x128.sol\":7834:7860  shr(128, mul(result, pow)) */\n      shr\n        /* \"Midas/joe-v2-main/src/libraries/Math128x128.sol\":7824:7860  result := shr(128, mul(result, pow)) */\n      swap4\n      pop\n        /* \"Midas/joe-v2-main/src/libraries/Math128x128.sol\":7780:7878  if and(absY, 0x80000) {... */\n    tag_289:\n        /* \"Midas/joe-v2-main/src/libraries/Math128x128.sol\":4524:7892  {... */\n      pop\n        /* \"Midas/joe-v2-main/src/libraries/Math128x128.sol\":4442:7902  if (absY < 0x100000) {... */\n    tag_268:\n        /* \"Midas/joe-v2-main/src/libraries/Math128x128.sol\":7982:7983  0 */\n      0x00\n        /* \"Midas/joe-v2-main/src/libraries/Math128x128.sol\":7972:7978  result */\n      dup4\n        /* \"Midas/joe-v2-main/src/libraries/Math128x128.sol\":7972:7983  result == 0 */\n      eq\n        /* \"Midas/joe-v2-main/src/libraries/Math128x128.sol\":7968:8025  if (result == 0) revert Math128x128__PowerUnderflow(x, y) */\n      iszero\n      tag_290\n      jumpi\n        /* \"Midas/joe-v2-main/src/libraries/Math128x128.sol\":8020:8021  x */\n      dup5\n        /* \"Midas/joe-v2-main/src/libraries/Math128x128.sol\":8023:8024  y */\n      dup5\n        /* \"Midas/joe-v2-main/src/libraries/Math128x128.sol\":7992:8025  Math128x128__PowerUnderflow(x, y) */\n      mload(0x40)\n      0x74e3eb0800000000000000000000000000000000000000000000000000000000\n      dup2\n      mstore\n      0x04\n      add\n      tag_291\n      swap3\n      swap2\n      swap1\n      tag_292\n      jump\t// in\n    tag_291:\n      mload(0x40)\n      dup1\n      swap2\n      sub\n      swap1\n      revert\n        /* \"Midas/joe-v2-main/src/libraries/Math128x128.sol\":7968:8025  if (result == 0) revert Math128x128__PowerUnderflow(x, y) */\n    tag_290:\n        /* \"Midas/joe-v2-main/src/libraries/Math128x128.sol\":8043:8049  invert */\n      dup2\n        /* \"Midas/joe-v2-main/src/libraries/Math128x128.sol\":8043:8087  invert ? type(uint256).max / result : result */\n      tag_293\n      jumpi\n        /* \"Midas/joe-v2-main/src/libraries/Math128x128.sol\":8081:8087  result */\n      dup3\n        /* \"Midas/joe-v2-main/src/libraries/Math128x128.sol\":8043:8087  invert ? type(uint256).max / result : result */\n      jump(tag_294)\n    tag_293:\n        /* \"Midas/joe-v2-main/src/libraries/Math128x128.sol\":8072:8078  result */\n      dup3\n        /* \"Midas/joe-v2-main/src/libraries/Math128x128.sol\":8052:8069  type(uint256).max */\n      0xffffffffffffffffffffffffffffffffffffffffffffffffffffffffffffffff\n        /* \"Midas/joe-v2-main/src/libraries/Math128x128.sol\":8052:8078  type(uint256).max / result */\n      tag_295\n      swap2\n      swap1\n      tag_296\n      jump\t// in\n    tag_295:\n        /* \"Midas/joe-v2-main/src/libraries/Math128x128.sol\":8043:8087  invert ? type(uint256).max / result : result */\n    tag_294:\n        /* \"Midas/joe-v2-main/src/libraries/Math128x128.sol\":8036:8087  return invert ? type(uint256).max / result : result */\n      swap3\n      pop\n      pop\n      pop\n        /* \"Midas/joe-v2-main/src/libraries/Math128x128.sol\":4094:8094  function power(uint256 x, int256 y) internal pure returns (uint256 result) {... */\n    tag_265:\n      swap3\n      swap2\n      pop\n      pop\n      jump\t// out\n        /* \"@openzeppelin/contracts/utils/structs/EnumerableSet.sol\":2206:2610  function _add(Set storage set, bytes32 value) private returns (bool) {... */\n    tag_240:\n        /* \"@openzeppelin/contracts/utils/structs/EnumerableSet.sol\":2269:2273  bool */\n      0x00\n        /* \"@openzeppelin/contracts/utils/structs/EnumerableSet.sol\":2290:2311  _contains(set, value) */\n      tag_298\n        /* \"@openzeppelin/contracts/utils/structs/EnumerableSet.sol\":2300:2303  set */\n      dup4\n        /* \"@openzeppelin/contracts/utils/structs/EnumerableSet.sol\":2305:2310  value */\n      dup4\n        /* \"@openzeppelin/contracts/utils/structs/EnumerableSet.sol\":2290:2299  _contains */\n      tag_225\n        /* \"@openzeppelin/contracts/utils/structs/EnumerableSet.sol\":2290:2311  _contains(set, value) */\n      jump\t// in\n    tag_298:\n        /* \"@openzeppelin/contracts/utils/structs/EnumerableSet.sol\":2285:2604  if (!_contains(set, value)) {... */\n      tag_299\n      jumpi\n        /* \"@openzeppelin/contracts/utils/structs/EnumerableSet.sol\":2327:2330  set */\n      dup3\n        /* \"@openzeppelin/contracts/utils/structs/EnumerableSet.sol\":2327:2338  set._values */\n      0x00\n      add\n        /* \"@openzeppelin/contracts/utils/structs/EnumerableSet.sol\":2344:2349  value */\n      dup3\n        /* \"@openzeppelin/contracts/utils/structs/EnumerableSet.sol\":2327:2350  set._values.push(value) */\n      swap1\n      dup1\n      0x01\n      dup2\n      sload\n      add\n      dup1\n      dup3\n      sstore\n      dup1\n      swap2\n      pop\n      pop\n      0x01\n      swap1\n      sub\n      swap1\n      0x00\n      mstore\n      keccak256(0x00, 0x20)\n      add\n      0x00\n      swap1\n      swap2\n      swap1\n      swap2\n      swap1\n      swap2\n      pop\n      sstore\n        /* \"@openzeppelin/contracts/utils/structs/EnumerableSet.sol\":2507:2510  set */\n      dup3\n        /* \"@openzeppelin/contracts/utils/structs/EnumerableSet.sol\":2507:2518  set._values */\n      0x00\n      add\n        /* \"@openzeppelin/contracts/utils/structs/EnumerableSet.sol\":2507:2525  set._values.length */\n      dup1\n      sload\n      swap1\n      pop\n        /* \"@openzeppelin/contracts/utils/structs/EnumerableSet.sol\":2485:2488  set */\n      dup4\n        /* \"@openzeppelin/contracts/utils/structs/EnumerableSet.sol\":2485:2497  set._indexes */\n      0x01\n      add\n        /* \"@openzeppelin/contracts/utils/structs/EnumerableSet.sol\":2485:2504  set._indexes[value] */\n      0x00\n        /* \"@openzeppelin/contracts/utils/structs/EnumerableSet.sol\":2498:2503  value */\n      dup5\n        /* \"@openzeppelin/contracts/utils/structs/EnumerableSet.sol\":2485:2504  set._indexes[value] */\n      dup2\n      mstore\n      0x20\n      add\n      swap1\n      dup2\n      mstore\n      0x20\n      add\n      0x00\n      keccak256\n        /* \"@openzeppelin/contracts/utils/structs/EnumerableSet.sol\":2485:2525  set._indexes[value] = set._values.length */\n      dup2\n      swap1\n      sstore\n      pop\n        /* \"@openzeppelin/contracts/utils/structs/EnumerableSet.sol\":2546:2550  true */\n      0x01\n        /* \"@openzeppelin/contracts/utils/structs/EnumerableSet.sol\":2539:2550  return true */\n      swap1\n      pop\n      jump(tag_297)\n        /* \"@openzeppelin/contracts/utils/structs/EnumerableSet.sol\":2285:2604  if (!_contains(set, value)) {... */\n    tag_299:\n        /* \"@openzeppelin/contracts/utils/structs/EnumerableSet.sol\":2588:2593  false */\n      0x00\n        /* \"@openzeppelin/contracts/utils/structs/EnumerableSet.sol\":2581:2593  return false */\n      swap1\n      pop\n        /* \"@openzeppelin/contracts/utils/structs/EnumerableSet.sol\":2206:2610  function _add(Set storage set, bytes32 value) private returns (bool) {... */\n    tag_297:\n      swap3\n      swap2\n      pop\n      pop\n      jump\t// out\n        /* \"@openzeppelin/contracts/utils/structs/EnumerableSet.sol\":4455:4562  function _length(Set storage set) private view returns (uint256) {... */\n    tag_245:\n        /* \"@openzeppelin/contracts/utils/structs/EnumerableSet.sol\":4511:4518  uint256 */\n      0x00\n        /* \"@openzeppelin/contracts/utils/structs/EnumerableSet.sol\":4537:4540  set */\n      dup2\n        /* \"@openzeppelin/contracts/utils/structs/EnumerableSet.sol\":4537:4548  set._values */\n      0x00\n      add\n        /* \"@openzeppelin/contracts/utils/structs/EnumerableSet.sol\":4537:4555  set._values.length */\n      dup1\n      sload\n      swap1\n      pop\n        /* \"@openzeppelin/contracts/utils/structs/EnumerableSet.sol\":4530:4555  return set._values.length */\n      swap1\n      pop\n        /* \"@openzeppelin/contracts/utils/structs/EnumerableSet.sol\":4455:4562  function _length(Set storage set) private view returns (uint256) {... */\n      swap2\n      swap1\n      pop\n      jump\t// out\n        /* \"@openzeppelin/contracts/utils/structs/EnumerableSet.sol\":2778:4166  function _remove(Set storage set, bytes32 value) private returns (bool) {... */\n    tag_248:\n        /* \"@openzeppelin/contracts/utils/structs/EnumerableSet.sol\":2844:2848  bool */\n      0x00\n        /* \"@openzeppelin/contracts/utils/structs/EnumerableSet.sol\":2960:2978  uint256 valueIndex */\n      dup1\n        /* \"@openzeppelin/contracts/utils/structs/EnumerableSet.sol\":2981:2984  set */\n      dup4\n        /* \"@openzeppelin/contracts/utils/structs/EnumerableSet.sol\":2981:2993  set._indexes */\n      0x01\n      add\n        /* \"@openzeppelin/contracts/utils/structs/EnumerableSet.sol\":2981:3000  set._indexes[value] */\n      0x00\n        /* \"@openzeppelin/contracts/utils/structs/EnumerableSet.sol\":2994:2999  value */\n      dup5\n        /* \"@openzeppelin/contracts/utils/structs/EnumerableSet.sol\":2981:3000  set._indexes[value] */\n      dup2\n      mstore\n      0x20\n      add\n      swap1\n      dup2\n      mstore\n      0x20\n      add\n      0x00\n      keccak256\n      sload\n        /* \"@openzeppelin/contracts/utils/structs/EnumerableSet.sol\":2960:3000  uint256 valueIndex = set._indexes[value] */\n      swap1\n      pop\n        /* \"@openzeppelin/contracts/utils/structs/EnumerableSet.sol\":3029:3030  0 */\n      0x00\n        /* \"@openzeppelin/contracts/utils/structs/EnumerableSet.sol\":3015:3025  valueIndex */\n      dup2\n        /* \"@openzeppelin/contracts/utils/structs/EnumerableSet.sol\":3015:3030  valueIndex != 0 */\n      eq\n        /* \"@openzeppelin/contracts/utils/structs/EnumerableSet.sol\":3011:4160  if (valueIndex != 0) {... */\n      tag_304\n      jumpi\n        /* \"@openzeppelin/contracts/utils/structs/EnumerableSet.sol\":3384:3405  uint256 toDeleteIndex */\n      0x00\n        /* \"@openzeppelin/contracts/utils/structs/EnumerableSet.sol\":3421:3422  1 */\n      0x01\n        /* \"@openzeppelin/contracts/utils/structs/EnumerableSet.sol\":3408:3418  valueIndex */\n      dup3\n        /* \"@openzeppelin/contracts/utils/structs/EnumerableSet.sol\":3408:3422  valueIndex - 1 */\n      tag_305\n      swap2\n      swap1\n      tag_151\n      jump\t// in\n    tag_305:\n        /* \"@openzeppelin/contracts/utils/structs/EnumerableSet.sol\":3384:3422  uint256 toDeleteIndex = valueIndex - 1 */\n      swap1\n      pop\n        /* \"@openzeppelin/contracts/utils/structs/EnumerableSet.sol\":3436:3453  uint256 lastIndex */\n      0x00\n        /* \"@openzeppelin/contracts/utils/structs/EnumerableSet.sol\":3477:3478  1 */\n      0x01\n        /* \"@openzeppelin/contracts/utils/structs/EnumerableSet.sol\":3456:3459  set */\n      dup7\n        /* \"@openzeppelin/contracts/utils/structs/EnumerableSet.sol\":3456:3467  set._values */\n      0x00\n      add\n        /* \"@openzeppelin/contracts/utils/structs/EnumerableSet.sol\":3456:3474  set._values.length */\n      dup1\n      sload\n      swap1\n      pop\n        /* \"@openzeppelin/contracts/utils/structs/EnumerableSet.sol\":3456:3478  set._values.length - 1 */\n      tag_306\n      swap2\n      swap1\n      tag_151\n      jump\t// in\n    tag_306:\n        /* \"@openzeppelin/contracts/utils/structs/EnumerableSet.sol\":3436:3478  uint256 lastIndex = set._values.length - 1 */\n      swap1\n      pop\n        /* \"@openzeppelin/contracts/utils/structs/EnumerableSet.sol\":3510:3523  toDeleteIndex */\n      dup2\n        /* \"@openzeppelin/contracts/utils/structs/EnumerableSet.sol\":3497:3506  lastIndex */\n      dup2\n        /* \"@openzeppelin/contracts/utils/structs/EnumerableSet.sol\":3497:3523  lastIndex != toDeleteIndex */\n      eq\n        /* \"@openzeppelin/contracts/utils/structs/EnumerableSet.sol\":3493:3891  if (lastIndex != toDeleteIndex) {... */\n      tag_307\n      jumpi\n        /* \"@openzeppelin/contracts/utils/structs/EnumerableSet.sol\":3543:3560  bytes32 lastValue */\n      0x00\n        /* \"@openzeppelin/contracts/utils/structs/EnumerableSet.sol\":3563:3566  set */\n      dup7\n        /* \"@openzeppelin/contracts/utils/structs/EnumerableSet.sol\":3563:3574  set._values */\n      0x00\n      add\n        /* \"@openzeppelin/contracts/utils/structs/EnumerableSet.sol\":3575:3584  lastIndex */\n      dup3\n        /* \"@openzeppelin/contracts/utils/structs/EnumerableSet.sol\":3563:3585  set._values[lastIndex] */\n      dup2\n      sload\n      dup2\n      lt\n      tag_308\n      jumpi\n      tag_309\n      tag_310\n      jump\t// in\n    tag_309:\n    tag_308:\n      swap1\n      0x00\n      mstore\n      keccak256(0x00, 0x20)\n      add\n      sload\n        /* \"@openzeppelin/contracts/utils/structs/EnumerableSet.sol\":3543:3585  bytes32 lastValue = set._values[lastIndex] */\n      swap1\n      pop\n        /* \"@openzeppelin/contracts/utils/structs/EnumerableSet.sol\":3714:3723  lastValue */\n      dup1\n        /* \"@openzeppelin/contracts/utils/structs/EnumerableSet.sol\":3685:3688  set */\n      dup8\n        /* \"@openzeppelin/contracts/utils/structs/EnumerableSet.sol\":3685:3696  set._values */\n      0x00\n      add\n        /* \"@openzeppelin/contracts/utils/structs/EnumerableSet.sol\":3697:3710  toDeleteIndex */\n      dup5\n        /* \"@openzeppelin/contracts/utils/structs/EnumerableSet.sol\":3685:3711  set._values[toDeleteIndex] */\n      dup2\n      sload\n      dup2\n      lt\n      tag_312\n      jumpi\n      tag_313\n      tag_310\n      jump\t// in\n    tag_313:\n    tag_312:\n      swap1\n      0x00\n      mstore\n      keccak256(0x00, 0x20)\n      add\n        /* \"@openzeppelin/contracts/utils/structs/EnumerableSet.sol\":3685:3723  set._values[toDeleteIndex] = lastValue */\n      dup2\n      swap1\n      sstore\n      pop\n        /* \"@openzeppelin/contracts/utils/structs/EnumerableSet.sol\":3823:3833  valueIndex */\n      dup4\n        /* \"@openzeppelin/contracts/utils/structs/EnumerableSet.sol\":3797:3800  set */\n      dup8\n        /* \"@openzeppelin/contracts/utils/structs/EnumerableSet.sol\":3797:3809  set._indexes */\n      0x01\n      add\n        /* \"@openzeppelin/contracts/utils/structs/EnumerableSet.sol\":3797:3820  set._indexes[lastValue] */\n      0x00\n        /* \"@openzeppelin/contracts/utils/structs/EnumerableSet.sol\":3810:3819  lastValue */\n      dup4\n        /* \"@openzeppelin/contracts/utils/structs/EnumerableSet.sol\":3797:3820  set._indexes[lastValue] */\n      dup2\n      mstore\n      0x20\n      add\n      swap1\n      dup2\n      mstore\n      0x20\n      add\n      0x00\n      keccak256\n        /* \"@openzeppelin/contracts/utils/structs/EnumerableSet.sol\":3797:3833  set._indexes[lastValue] = valueIndex */\n      dup2\n      swap1\n      sstore\n      pop\n        /* \"@openzeppelin/contracts/utils/structs/EnumerableSet.sol\":3525:3891  {... */\n      pop\n        /* \"@openzeppelin/contracts/utils/structs/EnumerableSet.sol\":3493:3891  if (lastIndex != toDeleteIndex) {... */\n    tag_307:\n        /* \"@openzeppelin/contracts/utils/structs/EnumerableSet.sol\":3969:3972  set */\n      dup6\n        /* \"@openzeppelin/contracts/utils/structs/EnumerableSet.sol\":3969:3980  set._values */\n      0x00\n      add\n        /* \"@openzeppelin/contracts/utils/structs/EnumerableSet.sol\":3969:3986  set._values.pop() */\n      dup1\n      sload\n      dup1\n      tag_315\n      jumpi\n      tag_316\n      tag_317\n      jump\t// in\n    tag_316:\n    tag_315:\n      0x01\n      swap1\n      sub\n      dup2\n      dup2\n      swap1\n      0x00\n      mstore\n      keccak256(0x00, 0x20)\n      add\n      0x00\n      swap1\n      sstore\n      swap1\n      sstore\n        /* \"@openzeppelin/contracts/utils/structs/EnumerableSet.sol\":4061:4064  set */\n      dup6\n        /* \"@openzeppelin/contracts/utils/structs/EnumerableSet.sol\":4061:4073  set._indexes */\n      0x01\n      add\n        /* \"@openzeppelin/contracts/utils/structs/EnumerableSet.sol\":4061:4080  set._indexes[value] */\n      0x00\n        /* \"@openzeppelin/contracts/utils/structs/EnumerableSet.sol\":4074:4079  value */\n      dup7\n        /* \"@openzeppelin/contracts/utils/structs/EnumerableSet.sol\":4061:4080  set._indexes[value] */\n      dup2\n      mstore\n      0x20\n      add\n      swap1\n      dup2\n      mstore\n      0x20\n      add\n      0x00\n      keccak256\n        /* \"@openzeppelin/contracts/utils/structs/EnumerableSet.sol\":4054:4080  delete set._indexes[value] */\n      0x00\n      swap1\n      sstore\n        /* \"@openzeppelin/contracts/utils/structs/EnumerableSet.sol\":4102:4106  true */\n      0x01\n        /* \"@openzeppelin/contracts/utils/structs/EnumerableSet.sol\":4095:4106  return true */\n      swap4\n      pop\n      pop\n      pop\n      pop\n      jump(tag_303)\n        /* \"@openzeppelin/contracts/utils/structs/EnumerableSet.sol\":3011:4160  if (valueIndex != 0) {... */\n    tag_304:\n        /* \"@openzeppelin/contracts/utils/structs/EnumerableSet.sol\":4144:4149  false */\n      0x00\n        /* \"@openzeppelin/contracts/utils/structs/EnumerableSet.sol\":4137:4149  return false */\n      swap2\n      pop\n      pop\n        /* \"@openzeppelin/contracts/utils/structs/EnumerableSet.sol\":2778:4166  function _remove(Set storage set, bytes32 value) private returns (bool) {... */\n    tag_303:\n      swap3\n      swap2\n      pop\n      pop\n      jump\t// out\n        /* \"@openzeppelin/contracts/utils/structs/EnumerableSet.sol\":4904:5022  function _at(Set storage set, uint256 index) private view returns (bytes32) {... */\n    tag_259:\n        /* \"@openzeppelin/contracts/utils/structs/EnumerableSet.sol\":4971:4978  bytes32 */\n      0x00\n        /* \"@openzeppelin/contracts/utils/structs/EnumerableSet.sol\":4997:5000  set */\n      dup3\n        /* \"@openzeppelin/contracts/utils/structs/EnumerableSet.sol\":4997:5008  set._values */\n      0x00\n      add\n        /* \"@openzeppelin/contracts/utils/structs/EnumerableSet.sol\":5009:5014  index */\n      dup3\n        /* \"@openzeppelin/contracts/utils/structs/EnumerableSet.sol\":4997:5015  set._values[index] */\n      dup2\n      sload\n      dup2\n      lt\n      tag_321\n      jumpi\n      tag_322\n      tag_310\n      jump\t// in\n    tag_322:\n    tag_321:\n      swap1\n      0x00\n      mstore\n      keccak256(0x00, 0x20)\n      add\n      sload\n        /* \"@openzeppelin/contracts/utils/structs/EnumerableSet.sol\":4990:5015  return set._values[index] */\n      swap1\n      pop\n        /* \"@openzeppelin/contracts/utils/structs/EnumerableSet.sol\":4904:5022  function _at(Set storage set, uint256 index) private view returns (bytes32) {... */\n      swap3\n      swap2\n      pop\n      pop\n      jump\t// out\n    tag_211:\n      mload(0x40)\n      dup1\n      0x40\n      add\n      0x40\n      mstore\n      dup1\n      and(0xffffffffffffffffffffffffffffffffffffffff, 0x00)\n      dup2\n      mstore\n      0x20\n      add\n      iszero(iszero(0x00))\n      dup2\n      mstore\n      pop\n      swap1\n      jump\t// out\n        /* \"#utility.yul\":88:205   */\n    tag_325:\n        /* \"#utility.yul\":197:198   */\n      0x00\n        /* \"#utility.yul\":194:195   */\n      dup1\n        /* \"#utility.yul\":187:199   */\n      revert\n        /* \"#utility.yul\":334:424   */\n    tag_327:\n        /* \"#utility.yul\":368:375   */\n      0x00\n        /* \"#utility.yul\":411:416   */\n      dup2\n        /* \"#utility.yul\":404:417   */\n      iszero\n        /* \"#utility.yul\":397:418   */\n      iszero\n        /* \"#utility.yul\":386:418   */\n      swap1\n      pop\n        /* \"#utility.yul\":334:424   */\n      swap2\n      swap1\n      pop\n      jump\t// out\n        /* \"#utility.yul\":430:546   */\n    tag_328:\n        /* \"#utility.yul\":500:521   */\n      tag_375\n        /* \"#utility.yul\":515:520   */\n      dup2\n        /* \"#utility.yul\":500:521   */\n      tag_327\n      jump\t// in\n    tag_375:\n        /* \"#utility.yul\":493:498   */\n      dup2\n        /* \"#utility.yul\":490:522   */\n      eq\n        /* \"#utility.yul\":480:540   */\n      tag_376\n      jumpi\n        /* \"#utility.yul\":536:537   */\n      0x00\n        /* \"#utility.yul\":533:534   */\n      dup1\n        /* \"#utility.yul\":526:538   */\n      revert\n        /* \"#utility.yul\":480:540   */\n    tag_376:\n        /* \"#utility.yul\":430:546   */\n      pop\n      jump\t// out\n        /* \"#utility.yul\":552:685   */\n    tag_329:\n        /* \"#utility.yul\":595:600   */\n      0x00\n        /* \"#utility.yul\":633:639   */\n      dup2\n        /* \"#utility.yul\":620:640   */\n      calldataload\n        /* \"#utility.yul\":611:640   */\n      swap1\n      pop\n        /* \"#utility.yul\":649:679   */\n      tag_378\n        /* \"#utility.yul\":673:678   */\n      dup2\n        /* \"#utility.yul\":649:679   */\n      tag_328\n      jump\t// in\n    tag_378:\n        /* \"#utility.yul\":552:685   */\n      swap3\n      swap2\n      pop\n      pop\n      jump\t// out\n        /* \"#utility.yul\":691:1014   */\n    tag_31:\n        /* \"#utility.yul\":747:753   */\n      0x00\n        /* \"#utility.yul\":796:798   */\n      0x20\n        /* \"#utility.yul\":784:793   */\n      dup3\n        /* \"#utility.yul\":775:782   */\n      dup5\n        /* \"#utility.yul\":771:794   */\n      sub\n        /* \"#utility.yul\":767:799   */\n      slt\n        /* \"#utility.yul\":764:883   */\n      iszero\n      tag_380\n      jumpi\n        /* \"#utility.yul\":802:881   */\n      tag_381\n      tag_325\n      jump\t// in\n    tag_381:\n        /* \"#utility.yul\":764:883   */\n    tag_380:\n        /* \"#utility.yul\":922:923   */\n      0x00\n        /* \"#utility.yul\":947:997   */\n      tag_382\n        /* \"#utility.yul\":989:996   */\n      dup5\n        /* \"#utility.yul\":980:986   */\n      dup3\n        /* \"#utility.yul\":969:978   */\n      dup6\n        /* \"#utility.yul\":965:987   */\n      add\n        /* \"#utility.yul\":947:997   */\n      tag_329\n      jump\t// in\n    tag_382:\n        /* \"#utility.yul\":937:997   */\n      swap2\n      pop\n        /* \"#utility.yul\":893:1007   */\n      pop\n        /* \"#utility.yul\":691:1014   */\n      swap3\n      swap2\n      pop\n      pop\n      jump\t// out\n        /* \"#utility.yul\":1020:1146   */\n    tag_330:\n        /* \"#utility.yul\":1057:1064   */\n      0x00\n        /* \"#utility.yul\":1097:1139   */\n      0xffffffffffffffffffffffffffffffffffffffff\n        /* \"#utility.yul\":1090:1095   */\n      dup3\n        /* \"#utility.yul\":1086:1140   */\n      and\n        /* \"#utility.yul\":1075:1140   */\n      swap1\n      pop\n        /* \"#utility.yul\":1020:1146   */\n      swap2\n      swap1\n      pop\n      jump\t// out\n        /* \"#utility.yul\":1152:1248   */\n    tag_331:\n        /* \"#utility.yul\":1189:1196   */\n      0x00\n        /* \"#utility.yul\":1218:1242   */\n      tag_385\n        /* \"#utility.yul\":1236:1241   */\n      dup3\n        /* \"#utility.yul\":1218:1242   */\n      tag_330\n      jump\t// in\n    tag_385:\n        /* \"#utility.yul\":1207:1242   */\n      swap1\n      pop\n        /* \"#utility.yul\":1152:1248   */\n      swap2\n      swap1\n      pop\n      jump\t// out\n        /* \"#utility.yul\":1254:1364   */\n    tag_332:\n        /* \"#utility.yul\":1305:1312   */\n      0x00\n        /* \"#utility.yul\":1334:1358   */\n      tag_387\n        /* \"#utility.yul\":1352:1357   */\n      dup3\n        /* \"#utility.yul\":1334:1358   */\n      tag_331\n      jump\t// in\n    tag_387:\n        /* \"#utility.yul\":1323:1358   */\n      swap1\n      pop\n        /* \"#utility.yul\":1254:1364   */\n      swap2\n      swap1\n      pop\n      jump\t// out\n        /* \"#utility.yul\":1370:1520   */\n    tag_333:\n        /* \"#utility.yul\":1457:1495   */\n      tag_389\n        /* \"#utility.yul\":1489:1494   */\n      dup2\n        /* \"#utility.yul\":1457:1495   */\n      tag_332\n      jump\t// in\n    tag_389:\n        /* \"#utility.yul\":1450:1455   */\n      dup2\n        /* \"#utility.yul\":1447:1496   */\n      eq\n        /* \"#utility.yul\":1437:1514   */\n      tag_390\n      jumpi\n        /* \"#utility.yul\":1510:1511   */\n      0x00\n        /* \"#utility.yul\":1507:1508   */\n      dup1\n        /* \"#utility.yul\":1500:1512   */\n      revert\n        /* \"#utility.yul\":1437:1514   */\n    tag_390:\n        /* \"#utility.yul\":1370:1520   */\n      pop\n      jump\t// out\n        /* \"#utility.yul\":1526:1693   */\n    tag_334:\n        /* \"#utility.yul\":1586:1591   */\n      0x00\n        /* \"#utility.yul\":1624:1630   */\n      dup2\n        /* \"#utility.yul\":1611:1631   */\n      calldataload\n        /* \"#utility.yul\":1602:1631   */\n      swap1\n      pop\n        /* \"#utility.yul\":1640:1687   */\n      tag_392\n        /* \"#utility.yul\":1681:1686   */\n      dup2\n        /* \"#utility.yul\":1640:1687   */\n      tag_333\n      jump\t// in\n    tag_392:\n        /* \"#utility.yul\":1526:1693   */\n      swap3\n      swap2\n      pop\n      pop\n      jump\t// out\n        /* \"#utility.yul\":1699:2056   */\n    tag_35:\n        /* \"#utility.yul\":1772:1778   */\n      0x00\n        /* \"#utility.yul\":1821:1823   */\n      0x20\n        /* \"#utility.yul\":1809:1818   */\n      dup3\n        /* \"#utility.yul\":1800:1807   */\n      dup5\n        /* \"#utility.yul\":1796:1819   */\n      sub\n        /* \"#utility.yul\":1792:1824   */\n      slt\n        /* \"#utility.yul\":1789:1908   */\n      iszero\n      tag_394\n      jumpi\n        /* \"#utility.yul\":1827:1906   */\n      tag_395\n      tag_325\n      jump\t// in\n    tag_395:\n        /* \"#utility.yul\":1789:1908   */\n    tag_394:\n        /* \"#utility.yul\":1947:1948   */\n      0x00\n        /* \"#utility.yul\":1972:2039   */\n      tag_396\n        /* \"#utility.yul\":2031:2038   */\n      dup5\n        /* \"#utility.yul\":2022:2028   */\n      dup3\n        /* \"#utility.yul\":2011:2020   */\n      dup6\n        /* \"#utility.yul\":2007:2029   */\n      add\n        /* \"#utility.yul\":1972:2039   */\n      tag_334\n      jump\t// in\n    tag_396:\n        /* \"#utility.yul\":1962:2039   */\n      swap2\n      pop\n        /* \"#utility.yul\":1918:2049   */\n      pop\n        /* \"#utility.yul\":1699:2056   */\n      swap3\n      swap2\n      pop\n      pop\n      jump\t// out\n        /* \"#utility.yul\":2062:2171   */\n    tag_335:\n        /* \"#utility.yul\":2143:2164   */\n      tag_398\n        /* \"#utility.yul\":2158:2163   */\n      dup2\n        /* \"#utility.yul\":2143:2164   */\n      tag_327\n      jump\t// in\n    tag_398:\n        /* \"#utility.yul\":2138:2141   */\n      dup3\n        /* \"#utility.yul\":2131:2165   */\n      mstore\n        /* \"#utility.yul\":2062:2171   */\n      pop\n      pop\n      jump\t// out\n        /* \"#utility.yul\":2177:2387   */\n    tag_38:\n        /* \"#utility.yul\":2264:2268   */\n      0x00\n        /* \"#utility.yul\":2302:2304   */\n      0x20\n        /* \"#utility.yul\":2291:2300   */\n      dup3\n        /* \"#utility.yul\":2287:2305   */\n      add\n        /* \"#utility.yul\":2279:2305   */\n      swap1\n      pop\n        /* \"#utility.yul\":2315:2380   */\n      tag_400\n        /* \"#utility.yul\":2377:2378   */\n      0x00\n        /* \"#utility.yul\":2366:2375   */\n      dup4\n        /* \"#utility.yul\":2362:2379   */\n      add\n        /* \"#utility.yul\":2353:2359   */\n      dup5\n        /* \"#utility.yul\":2315:2380   */\n      tag_335\n      jump\t// in\n    tag_400:\n        /* \"#utility.yul\":2177:2387   */\n      swap3\n      swap2\n      pop\n      pop\n      jump\t// out\n        /* \"#utility.yul\":2393:2511   */\n    tag_336:\n        /* \"#utility.yul\":2480:2504   */\n      tag_402\n        /* \"#utility.yul\":2498:2503   */\n      dup2\n        /* \"#utility.yul\":2480:2504   */\n      tag_331\n      jump\t// in\n    tag_402:\n        /* \"#utility.yul\":2475:2478   */\n      dup3\n        /* \"#utility.yul\":2468:2505   */\n      mstore\n        /* \"#utility.yul\":2393:2511   */\n      pop\n      pop\n      jump\t// out\n        /* \"#utility.yul\":2517:2739   */\n    tag_42:\n        /* \"#utility.yul\":2610:2614   */\n      0x00\n        /* \"#utility.yul\":2648:2650   */\n      0x20\n        /* \"#utility.yul\":2637:2646   */\n      dup3\n        /* \"#utility.yul\":2633:2651   */\n      add\n        /* \"#utility.yul\":2625:2651   */\n      swap1\n      pop\n        /* \"#utility.yul\":2661:2732   */\n      tag_404\n        /* \"#utility.yul\":2729:2730   */\n      0x00\n        /* \"#utility.yul\":2718:2727   */\n      dup4\n        /* \"#utility.yul\":2714:2731   */\n      add\n        /* \"#utility.yul\":2705:2711   */\n      dup5\n        /* \"#utility.yul\":2661:2732   */\n      tag_336\n      jump\t// in\n    tag_404:\n        /* \"#utility.yul\":2517:2739   */\n      swap3\n      swap2\n      pop\n      pop\n      jump\t// out\n        /* \"#utility.yul\":2745:2822   */\n    tag_337:\n        /* \"#utility.yul\":2782:2789   */\n      0x00\n        /* \"#utility.yul\":2811:2816   */\n      dup2\n        /* \"#utility.yul\":2800:2816   */\n      swap1\n      pop\n        /* \"#utility.yul\":2745:2822   */\n      swap2\n      swap1\n      pop\n      jump\t// out\n        /* \"#utility.yul\":2828:2946   */\n    tag_338:\n        /* \"#utility.yul\":2915:2939   */\n      tag_407\n        /* \"#utility.yul\":2933:2938   */\n      dup2\n        /* \"#utility.yul\":2915:2939   */\n      tag_337\n      jump\t// in\n    tag_407:\n        /* \"#utility.yul\":2910:2913   */\n      dup3\n        /* \"#utility.yul\":2903:2940   */\n      mstore\n        /* \"#utility.yul\":2828:2946   */\n      pop\n      pop\n      jump\t// out\n        /* \"#utility.yul\":2952:3174   */\n    tag_46:\n        /* \"#utility.yul\":3045:3049   */\n      0x00\n        /* \"#utility.yul\":3083:3085   */\n      0x20\n        /* \"#utility.yul\":3072:3081   */\n      dup3\n        /* \"#utility.yul\":3068:3086   */\n      add\n        /* \"#utility.yul\":3060:3086   */\n      swap1\n      pop\n        /* \"#utility.yul\":3096:3167   */\n      tag_409\n        /* \"#utility.yul\":3164:3165   */\n      0x00\n        /* \"#utility.yul\":3153:3162   */\n      dup4\n        /* \"#utility.yul\":3149:3166   */\n      add\n        /* \"#utility.yul\":3140:3146   */\n      dup5\n        /* \"#utility.yul\":3096:3167   */\n      tag_338\n      jump\t// in\n    tag_409:\n        /* \"#utility.yul\":2952:3174   */\n      swap3\n      swap2\n      pop\n      pop\n      jump\t// out\n        /* \"#utility.yul\":3180:3271   */\n    tag_339:\n        /* \"#utility.yul\":3216:3223   */\n      0x00\n        /* \"#utility.yul\":3256:3264   */\n      0xffffff\n        /* \"#utility.yul\":3249:3254   */\n      dup3\n        /* \"#utility.yul\":3245:3265   */\n      and\n        /* \"#utility.yul\":3234:3265   */\n      swap1\n      pop\n        /* \"#utility.yul\":3180:3271   */\n      swap2\n      swap1\n      pop\n      jump\t// out\n        /* \"#utility.yul\":3277:3397   */\n    tag_340:\n        /* \"#utility.yul\":3349:3372   */\n      tag_412\n        /* \"#utility.yul\":3366:3371   */\n      dup2\n        /* \"#utility.yul\":3349:3372   */\n      tag_339\n      jump\t// in\n    tag_412:\n        /* \"#utility.yul\":3342:3347   */\n      dup2\n        /* \"#utility.yul\":3339:3373   */\n      eq\n        /* \"#utility.yul\":3329:3391   */\n      tag_413\n      jumpi\n        /* \"#utility.yul\":3387:3388   */\n      0x00\n        /* \"#utility.yul\":3384:3385   */\n      dup1\n        /* \"#utility.yul\":3377:3389   */\n      revert\n        /* \"#utility.yul\":3329:3391   */\n    tag_413:\n        /* \"#utility.yul\":3277:3397   */\n      pop\n      jump\t// out\n        /* \"#utility.yul\":3403:3540   */\n    tag_341:\n        /* \"#utility.yul\":3448:3453   */\n      0x00\n        /* \"#utility.yul\":3486:3492   */\n      dup2\n        /* \"#utility.yul\":3473:3493   */\n      calldataload\n        /* \"#utility.yul\":3464:3493   */\n      swap1\n      pop\n        /* \"#utility.yul\":3502:3534   */\n      tag_415\n        /* \"#utility.yul\":3528:3533   */\n      dup2\n        /* \"#utility.yul\":3502:3534   */\n      tag_340\n      jump\t// in\n    tag_415:\n        /* \"#utility.yul\":3403:3540   */\n      swap3\n      swap2\n      pop\n      pop\n      jump\t// out\n        /* \"#utility.yul\":3546:4359   */\n    tag_55:\n        /* \"#utility.yul\":3656:3662   */\n      0x00\n        /* \"#utility.yul\":3664:3670   */\n      dup1\n        /* \"#utility.yul\":3672:3678   */\n      0x00\n        /* \"#utility.yul\":3680:3686   */\n      dup1\n        /* \"#utility.yul\":3729:3732   */\n      0x80\n        /* \"#utility.yul\":3717:3726   */\n      dup6\n        /* \"#utility.yul\":3708:3715   */\n      dup8\n        /* \"#utility.yul\":3704:3727   */\n      sub\n        /* \"#utility.yul\":3700:3733   */\n      slt\n        /* \"#utility.yul\":3697:3817   */\n      iszero\n      tag_417\n      jumpi\n        /* \"#utility.yul\":3736:3815   */\n      tag_418\n      tag_325\n      jump\t// in\n    tag_418:\n        /* \"#utility.yul\":3697:3817   */\n    tag_417:\n        /* \"#utility.yul\":3856:3857   */\n      0x00\n        /* \"#utility.yul\":3881:3948   */\n      tag_419\n        /* \"#utility.yul\":3940:3947   */\n      dup8\n        /* \"#utility.yul\":3931:3937   */\n      dup3\n        /* \"#utility.yul\":3920:3929   */\n      dup9\n        /* \"#utility.yul\":3916:3938   */\n      add\n        /* \"#utility.yul\":3881:3948   */\n      tag_334\n      jump\t// in\n    tag_419:\n        /* \"#utility.yul\":3871:3948   */\n      swap5\n      pop\n        /* \"#utility.yul\":3827:3958   */\n      pop\n        /* \"#utility.yul\":3997:3999   */\n      0x20\n        /* \"#utility.yul\":4023:4090   */\n      tag_420\n        /* \"#utility.yul\":4082:4089   */\n      dup8\n        /* \"#utility.yul\":4073:4079   */\n      dup3\n        /* \"#utility.yul\":4062:4071   */\n      dup9\n        /* \"#utility.yul\":4058:4080   */\n      add\n        /* \"#utility.yul\":4023:4090   */\n      tag_334\n      jump\t// in\n    tag_420:\n        /* \"#utility.yul\":4013:4090   */\n      swap4\n      pop\n        /* \"#utility.yul\":3968:4100   */\n      pop\n        /* \"#utility.yul\":4139:4141   */\n      0x40\n        /* \"#utility.yul\":4165:4217   */\n      tag_421\n        /* \"#utility.yul\":4209:4216   */\n      dup8\n        /* \"#utility.yul\":4200:4206   */\n      dup3\n        /* \"#utility.yul\":4189:4198   */\n      dup9\n        /* \"#utility.yul\":4185:4207   */\n      add\n        /* \"#utility.yul\":4165:4217   */\n      tag_341\n      jump\t// in\n    tag_421:\n        /* \"#utility.yul\":4155:4217   */\n      swap3\n      pop\n        /* \"#utility.yul\":4110:4227   */\n      pop\n        /* \"#utility.yul\":4266:4268   */\n      0x60\n        /* \"#utility.yul\":4292:4342   */\n      tag_422\n        /* \"#utility.yul\":4334:4341   */\n      dup8\n        /* \"#utility.yul\":4325:4331   */\n      dup3\n        /* \"#utility.yul\":4314:4323   */\n      dup9\n        /* \"#utility.yul\":4310:4332   */\n      add\n        /* \"#utility.yul\":4292:4342   */\n      tag_329\n      jump\t// in\n    tag_422:\n        /* \"#utility.yul\":4282:4342   */\n      swap2\n      pop\n        /* \"#utility.yul\":4237:4352   */\n      pop\n        /* \"#utility.yul\":3546:4359   */\n      swap3\n      swap6\n      swap2\n      swap5\n      pop\n      swap3\n      pop\n      jump\t// out\n        /* \"#utility.yul\":4365:4425   */\n    tag_342:\n        /* \"#utility.yul\":4393:4396   */\n      0x00\n        /* \"#utility.yul\":4414:4419   */\n      dup2\n        /* \"#utility.yul\":4407:4419   */\n      swap1\n      pop\n        /* \"#utility.yul\":4365:4425   */\n      swap2\n      swap1\n      pop\n      jump\t// out\n        /* \"#utility.yul\":4431:4573   */\n    tag_343:\n        /* \"#utility.yul\":4481:4490   */\n      0x00\n        /* \"#utility.yul\":4514:4567   */\n      tag_425\n        /* \"#utility.yul\":4532:4566   */\n      tag_426\n        /* \"#utility.yul\":4541:4565   */\n      tag_427\n        /* \"#utility.yul\":4559:4564   */\n      dup5\n        /* \"#utility.yul\":4541:4565   */\n      tag_330\n      jump\t// in\n    tag_427:\n        /* \"#utility.yul\":4532:4566   */\n      tag_342\n      jump\t// in\n    tag_426:\n        /* \"#utility.yul\":4514:4567   */\n      tag_330\n      jump\t// in\n    tag_425:\n        /* \"#utility.yul\":4501:4567   */\n      swap1\n      pop\n        /* \"#utility.yul\":4431:4573   */\n      swap2\n      swap1\n      pop\n      jump\t// out\n        /* \"#utility.yul\":4579:4705   */\n    tag_344:\n        /* \"#utility.yul\":4629:4638   */\n      0x00\n        /* \"#utility.yul\":4662:4699   */\n      tag_429\n        /* \"#utility.yul\":4693:4698   */\n      dup3\n        /* \"#utility.yul\":4662:4699   */\n      tag_343\n      jump\t// in\n    tag_429:\n        /* \"#utility.yul\":4649:4699   */\n      swap1\n      pop\n        /* \"#utility.yul\":4579:4705   */\n      swap2\n      swap1\n      pop\n      jump\t// out\n        /* \"#utility.yul\":4711:4853   */\n    tag_345:\n        /* \"#utility.yul\":4777:4786   */\n      0x00\n        /* \"#utility.yul\":4810:4847   */\n      tag_431\n        /* \"#utility.yul\":4841:4846   */\n      dup3\n        /* \"#utility.yul\":4810:4847   */\n      tag_344\n      jump\t// in\n    tag_431:\n        /* \"#utility.yul\":4797:4847   */\n      swap1\n      pop\n        /* \"#utility.yul\":4711:4853   */\n      swap2\n      swap1\n      pop\n      jump\t// out\n        /* \"#utility.yul\":4859:5022   */\n    tag_346:\n        /* \"#utility.yul\":4962:5015   */\n      tag_433\n        /* \"#utility.yul\":5009:5014   */\n      dup2\n        /* \"#utility.yul\":4962:5015   */\n      tag_345\n      jump\t// in\n    tag_433:\n        /* \"#utility.yul\":4957:4960   */\n      dup3\n        /* \"#utility.yul\":4950:5016   */\n      mstore\n        /* \"#utility.yul\":4859:5022   */\n      pop\n      pop\n      jump\t// out\n        /* \"#utility.yul\":5028:5282   */\n    tag_58:\n        /* \"#utility.yul\":5137:5141   */\n      0x00\n        /* \"#utility.yul\":5175:5177   */\n      0x20\n        /* \"#utility.yul\":5164:5173   */\n      dup3\n        /* \"#utility.yul\":5160:5178   */\n      add\n        /* \"#utility.yul\":5152:5178   */\n      swap1\n      pop\n        /* \"#utility.yul\":5188:5275   */\n      tag_435\n        /* \"#utility.yul\":5272:5273   */\n      0x00\n        /* \"#utility.yul\":5261:5270   */\n      dup4\n        /* \"#utility.yul\":5257:5274   */\n      add\n        /* \"#utility.yul\":5248:5254   */\n      dup5\n        /* \"#utility.yul\":5188:5275   */\n      tag_346\n      jump\t// in\n    tag_435:\n        /* \"#utility.yul\":5028:5282   */\n      swap3\n      swap2\n      pop\n      pop\n      jump\t// out\n        /* \"#utility.yul\":5288:5410   */\n    tag_347:\n        /* \"#utility.yul\":5361:5385   */\n      tag_437\n        /* \"#utility.yul\":5379:5384   */\n      dup2\n        /* \"#utility.yul\":5361:5385   */\n      tag_337\n      jump\t// in\n    tag_437:\n        /* \"#utility.yul\":5354:5359   */\n      dup2\n        /* \"#utility.yul\":5351:5386   */\n      eq\n        /* \"#utility.yul\":5341:5404   */\n      tag_438\n      jumpi\n        /* \"#utility.yul\":5400:5401   */\n      0x00\n        /* \"#utility.yul\":5397:5398   */\n      dup1\n        /* \"#utility.yul\":5390:5402   */\n      revert\n        /* \"#utility.yul\":5341:5404   */\n    tag_438:\n        /* \"#utility.yul\":5288:5410   */\n      pop\n      jump\t// out\n        /* \"#utility.yul\":5416:5555   */\n    tag_348:\n        /* \"#utility.yul\":5462:5467   */\n      0x00\n        /* \"#utility.yul\":5500:5506   */\n      dup2\n        /* \"#utility.yul\":5487:5507   */\n      calldataload\n        /* \"#utility.yul\":5478:5507   */\n      swap1\n      pop\n        /* \"#utility.yul\":5516:5549   */\n      tag_440\n        /* \"#utility.yul\":5543:5548   */\n      dup2\n        /* \"#utility.yul\":5516:5549   */\n      tag_347\n      jump\t// in\n    tag_440:\n        /* \"#utility.yul\":5416:5555   */\n      swap3\n      swap2\n      pop\n      pop\n      jump\t// out\n        /* \"#utility.yul\":5561:5890   */\n    tag_71:\n        /* \"#utility.yul\":5620:5626   */\n      0x00\n        /* \"#utility.yul\":5669:5671   */\n      0x20\n        /* \"#utility.yul\":5657:5666   */\n      dup3\n        /* \"#utility.yul\":5648:5655   */\n      dup5\n        /* \"#utility.yul\":5644:5667   */\n      sub\n        /* \"#utility.yul\":5640:5672   */\n      slt\n        /* \"#utility.yul\":5637:5756   */\n      iszero\n      tag_442\n      jumpi\n        /* \"#utility.yul\":5675:5754   */\n      tag_443\n      tag_325\n      jump\t// in\n    tag_443:\n        /* \"#utility.yul\":5637:5756   */\n    tag_442:\n        /* \"#utility.yul\":5795:5796   */\n      0x00\n        /* \"#utility.yul\":5820:5873   */\n      tag_444\n        /* \"#utility.yul\":5865:5872   */\n      dup5\n        /* \"#utility.yul\":5856:5862   */\n      dup3\n        /* \"#utility.yul\":5845:5854   */\n      dup6\n        /* \"#utility.yul\":5841:5863   */\n      add\n        /* \"#utility.yul\":5820:5873   */\n      tag_348\n      jump\t// in\n    tag_444:\n        /* \"#utility.yul\":5810:5873   */\n      swap2\n      pop\n        /* \"#utility.yul\":5766:5883   */\n      pop\n        /* \"#utility.yul\":5561:5890   */\n      swap3\n      swap2\n      pop\n      pop\n      jump\t// out\n        /* \"#utility.yul\":5896:6018   */\n    tag_349:\n        /* \"#utility.yul\":5969:5993   */\n      tag_446\n        /* \"#utility.yul\":5987:5992   */\n      dup2\n        /* \"#utility.yul\":5969:5993   */\n      tag_331\n      jump\t// in\n    tag_446:\n        /* \"#utility.yul\":5962:5967   */\n      dup2\n        /* \"#utility.yul\":5959:5994   */\n      eq\n        /* \"#utility.yul\":5949:6012   */\n      tag_447\n      jumpi\n        /* \"#utility.yul\":6008:6009   */\n      0x00\n        /* \"#utility.yul\":6005:6006   */\n      dup1\n        /* \"#utility.yul\":5998:6010   */\n      revert\n        /* \"#utility.yul\":5949:6012   */\n    tag_447:\n        /* \"#utility.yul\":5896:6018   */\n      pop\n      jump\t// out\n        /* \"#utility.yul\":6024:6163   */\n    tag_350:\n        /* \"#utility.yul\":6070:6075   */\n      0x00\n        /* \"#utility.yul\":6108:6114   */\n      dup2\n        /* \"#utility.yul\":6095:6115   */\n      calldataload\n        /* \"#utility.yul\":6086:6115   */\n      swap1\n      pop\n        /* \"#utility.yul\":6124:6157   */\n      tag_449\n        /* \"#utility.yul\":6151:6156   */\n      dup2\n        /* \"#utility.yul\":6124:6157   */\n      tag_349\n      jump\t// in\n    tag_449:\n        /* \"#utility.yul\":6024:6163   */\n      swap3\n      swap2\n      pop\n      pop\n      jump\t// out\n        /* \"#utility.yul\":6169:6498   */\n    tag_82:\n        /* \"#utility.yul\":6228:6234   */\n      0x00\n        /* \"#utility.yul\":6277:6279   */\n      0x20\n        /* \"#utility.yul\":6265:6274   */\n      dup3\n        /* \"#utility.yul\":6256:6263   */\n      dup5\n        /* \"#utility.yul\":6252:6275   */\n      sub\n        /* \"#utility.yul\":6248:6280   */\n      slt\n        /* \"#utility.yul\":6245:6364   */\n      iszero\n      tag_451\n      jumpi\n        /* \"#utility.yul\":6283:6362   */\n      tag_452\n      tag_325\n      jump\t// in\n    tag_452:\n        /* \"#utility.yul\":6245:6364   */\n    tag_451:\n        /* \"#utility.yul\":6403:6404   */\n      0x00\n        /* \"#utility.yul\":6428:6481   */\n      tag_453\n        /* \"#utility.yul\":6473:6480   */\n      dup5\n        /* \"#utility.yul\":6464:6470   */\n      dup3\n        /* \"#utility.yul\":6453:6462   */\n      dup6\n        /* \"#utility.yul\":6449:6471   */\n      add\n        /* \"#utility.yul\":6428:6481   */\n      tag_350\n      jump\t// in\n    tag_453:\n        /* \"#utility.yul\":6418:6481   */\n      swap2\n      pop\n        /* \"#utility.yul\":6374:6491   */\n      pop\n        /* \"#utility.yul\":6169:6498   */\n      swap3\n      swap2\n      pop\n      pop\n      jump\t// out\n        /* \"#utility.yul\":6504:7034   */\n    tag_101:\n        /* \"#utility.yul\":6600:6606   */\n      0x00\n        /* \"#utility.yul\":6608:6614   */\n      dup1\n        /* \"#utility.yul\":6657:6659   */\n      0x40\n        /* \"#utility.yul\":6645:6654   */\n      dup4\n        /* \"#utility.yul\":6636:6643   */\n      dup6\n        /* \"#utility.yul\":6632:6655   */\n      sub\n        /* \"#utility.yul\":6628:6660   */\n      slt\n        /* \"#utility.yul\":6625:6744   */\n      iszero\n      tag_455\n      jumpi\n        /* \"#utility.yul\":6663:6742   */\n      tag_456\n      tag_325\n      jump\t// in\n    tag_456:\n        /* \"#utility.yul\":6625:6744   */\n    tag_455:\n        /* \"#utility.yul\":6783:6784   */\n      0x00\n        /* \"#utility.yul\":6808:6875   */\n      tag_457\n        /* \"#utility.yul\":6867:6874   */\n      dup6\n        /* \"#utility.yul\":6858:6864   */\n      dup3\n        /* \"#utility.yul\":6847:6856   */\n      dup7\n        /* \"#utility.yul\":6843:6865   */\n      add\n        /* \"#utility.yul\":6808:6875   */\n      tag_334\n      jump\t// in\n    tag_457:\n        /* \"#utility.yul\":6798:6875   */\n      swap3\n      pop\n        /* \"#utility.yul\":6754:6885   */\n      pop\n        /* \"#utility.yul\":6924:6926   */\n      0x20\n        /* \"#utility.yul\":6950:7017   */\n      tag_458\n        /* \"#utility.yul\":7009:7016   */\n      dup6\n        /* \"#utility.yul\":7000:7006   */\n      dup3\n        /* \"#utility.yul\":6989:6998   */\n      dup7\n        /* \"#utility.yul\":6985:7007   */\n      add\n        /* \"#utility.yul\":6950:7017   */\n      tag_334\n      jump\t// in\n    tag_458:\n        /* \"#utility.yul\":6940:7017   */\n      swap2\n      pop\n        /* \"#utility.yul\":6895:7027   */\n      pop\n        /* \"#utility.yul\":6504:7034   */\n      swap3\n      pop\n      swap3\n      swap1\n      pop\n      jump\t// out\n        /* \"#utility.yul\":7040:7193   */\n    tag_351:\n        /* \"#utility.yul\":7133:7186   */\n      tag_460\n        /* \"#utility.yul\":7180:7185   */\n      dup2\n        /* \"#utility.yul\":7133:7186   */\n      tag_345\n      jump\t// in\n    tag_460:\n        /* \"#utility.yul\":7128:7131   */\n      dup3\n        /* \"#utility.yul\":7121:7187   */\n      mstore\n        /* \"#utility.yul\":7040:7193   */\n      pop\n      pop\n      jump\t// out\n        /* \"#utility.yul\":7199:7298   */\n    tag_352:\n        /* \"#utility.yul\":7270:7291   */\n      tag_462\n        /* \"#utility.yul\":7285:7290   */\n      dup2\n        /* \"#utility.yul\":7270:7291   */\n      tag_327\n      jump\t// in\n    tag_462:\n        /* \"#utility.yul\":7265:7268   */\n      dup3\n        /* \"#utility.yul\":7258:7292   */\n      mstore\n        /* \"#utility.yul\":7199:7298   */\n      pop\n      pop\n      jump\t// out\n        /* \"#utility.yul\":7386:7935   */\n    tag_353:\n        /* \"#utility.yul\":7553:7557   */\n      0x40\n        /* \"#utility.yul\":7548:7551   */\n      dup3\n        /* \"#utility.yul\":7544:7558   */\n      add\n        /* \"#utility.yul\":7642:7646   */\n      0x00\n        /* \"#utility.yul\":7635:7640   */\n      dup3\n        /* \"#utility.yul\":7631:7647   */\n      add\n        /* \"#utility.yul\":7625:7648   */\n      mload\n        /* \"#utility.yul\":7661:7740   */\n      tag_464\n        /* \"#utility.yul\":7734:7738   */\n      0x00\n        /* \"#utility.yul\":7729:7732   */\n      dup6\n        /* \"#utility.yul\":7725:7739   */\n      add\n        /* \"#utility.yul\":7711:7723   */\n      dup3\n        /* \"#utility.yul\":7661:7740   */\n      tag_351\n      jump\t// in\n    tag_464:\n        /* \"#utility.yul\":7568:7750   */\n      pop\n        /* \"#utility.yul\":7842:7846   */\n      0x20\n        /* \"#utility.yul\":7835:7840   */\n      dup3\n        /* \"#utility.yul\":7831:7847   */\n      add\n        /* \"#utility.yul\":7825:7848   */\n      mload\n        /* \"#utility.yul\":7861:7918   */\n      tag_465\n        /* \"#utility.yul\":7912:7916   */\n      0x20\n        /* \"#utility.yul\":7907:7910   */\n      dup6\n        /* \"#utility.yul\":7903:7917   */\n      add\n        /* \"#utility.yul\":7889:7901   */\n      dup3\n        /* \"#utility.yul\":7861:7918   */\n      tag_352\n      jump\t// in\n    tag_465:\n        /* \"#utility.yul\":7760:7928   */\n      pop\n        /* \"#utility.yul\":7522:7935   */\n      pop\n        /* \"#utility.yul\":7386:7935   */\n      pop\n      pop\n      jump\t// out\n        /* \"#utility.yul\":7941:8303   */\n    tag_104:\n        /* \"#utility.yul\":8104:8108   */\n      0x00\n        /* \"#utility.yul\":8142:8144   */\n      0x40\n        /* \"#utility.yul\":8131:8140   */\n      dup3\n        /* \"#utility.yul\":8127:8145   */\n      add\n        /* \"#utility.yul\":8119:8145   */\n      swap1\n      pop\n        /* \"#utility.yul\":8155:8296   */\n      tag_467\n        /* \"#utility.yul\":8293:8294   */\n      0x00\n        /* \"#utility.yul\":8282:8291   */\n      dup4\n        /* \"#utility.yul\":8278:8295   */\n      add\n        /* \"#utility.yul\":8269:8275   */\n      dup5\n        /* \"#utility.yul\":8155:8296   */\n      tag_353\n      jump\t// in\n    tag_467:\n        /* \"#utility.yul\":7941:8303   */\n      swap3\n      swap2\n      pop\n      pop\n      jump\t// out\n        /* \"#utility.yul\":8309:8449   */\n    tag_354:\n        /* \"#utility.yul\":8373:8382   */\n      0x00\n        /* \"#utility.yul\":8406:8443   */\n      tag_469\n        /* \"#utility.yul\":8437:8442   */\n      dup3\n        /* \"#utility.yul\":8406:8443   */\n      tag_344\n      jump\t// in\n    tag_469:\n        /* \"#utility.yul\":8393:8443   */\n      swap1\n      pop\n        /* \"#utility.yul\":8309:8449   */\n      swap2\n      swap1\n      pop\n      jump\t// out\n        /* \"#utility.yul\":8455:8614   */\n    tag_355:\n        /* \"#utility.yul\":8556:8607   */\n      tag_471\n        /* \"#utility.yul\":8601:8606   */\n      dup2\n        /* \"#utility.yul\":8556:8607   */\n      tag_354\n      jump\t// in\n    tag_471:\n        /* \"#utility.yul\":8551:8554   */\n      dup3\n        /* \"#utility.yul\":8544:8608   */\n      mstore\n        /* \"#utility.yul\":8455:8614   */\n      pop\n      pop\n      jump\t// out\n        /* \"#utility.yul\":8620:8870   */\n    tag_109:\n        /* \"#utility.yul\":8727:8731   */\n      0x00\n        /* \"#utility.yul\":8765:8767   */\n      0x20\n        /* \"#utility.yul\":8754:8763   */\n      dup3\n        /* \"#utility.yul\":8750:8768   */\n      add\n        /* \"#utility.yul\":8742:8768   */\n      swap1\n      pop\n        /* \"#utility.yul\":8778:8863   */\n      tag_473\n        /* \"#utility.yul\":8860:8861   */\n      0x00\n        /* \"#utility.yul\":8849:8858   */\n      dup4\n        /* \"#utility.yul\":8845:8862   */\n      add\n        /* \"#utility.yul\":8836:8842   */\n      dup5\n        /* \"#utility.yul\":8778:8863   */\n      tag_355\n      jump\t// in\n    tag_473:\n        /* \"#utility.yul\":8620:8870   */\n      swap3\n      swap2\n      pop\n      pop\n      jump\t// out\n        /* \"#utility.yul\":8876:8961   */\n    tag_356:\n        /* \"#utility.yul\":8921:8928   */\n      0x00\n        /* \"#utility.yul\":8950:8955   */\n      dup2\n        /* \"#utility.yul\":8939:8955   */\n      swap1\n      pop\n        /* \"#utility.yul\":8876:8961   */\n      swap2\n      swap1\n      pop\n      jump\t// out\n        /* \"#utility.yul\":8967:9125   */\n    tag_357:\n        /* \"#utility.yul\":9025:9034   */\n      0x00\n        /* \"#utility.yul\":9058:9119   */\n      tag_476\n        /* \"#utility.yul\":9076:9118   */\n      tag_477\n        /* \"#utility.yul\":9085:9117   */\n      tag_478\n        /* \"#utility.yul\":9111:9116   */\n      dup5\n        /* \"#utility.yul\":9085:9117   */\n      tag_356\n      jump\t// in\n    tag_478:\n        /* \"#utility.yul\":9076:9118   */\n      tag_342\n      jump\t// in\n    tag_477:\n        /* \"#utility.yul\":9058:9119   */\n      tag_337\n      jump\t// in\n    tag_476:\n        /* \"#utility.yul\":9045:9119   */\n      swap1\n      pop\n        /* \"#utility.yul\":8967:9125   */\n      swap2\n      swap1\n      pop\n      jump\t// out\n        /* \"#utility.yul\":9131:9278   */\n    tag_358:\n        /* \"#utility.yul\":9226:9271   */\n      tag_480\n        /* \"#utility.yul\":9265:9270   */\n      dup2\n        /* \"#utility.yul\":9226:9271   */\n      tag_357\n      jump\t// in\n    tag_480:\n        /* \"#utility.yul\":9221:9224   */\n      dup3\n        /* \"#utility.yul\":9214:9272   */\n      mstore\n        /* \"#utility.yul\":9131:9278   */\n      pop\n      pop\n      jump\t// out\n        /* \"#utility.yul\":9284:9798   */\n    tag_139:\n        /* \"#utility.yul\":9469:9473   */\n      0x00\n        /* \"#utility.yul\":9507:9509   */\n      0x60\n        /* \"#utility.yul\":9496:9505   */\n      dup3\n        /* \"#utility.yul\":9492:9510   */\n      add\n        /* \"#utility.yul\":9484:9510   */\n      swap1\n      pop\n        /* \"#utility.yul\":9520:9605   */\n      tag_482\n        /* \"#utility.yul\":9602:9603   */\n      0x00\n        /* \"#utility.yul\":9591:9600   */\n      dup4\n        /* \"#utility.yul\":9587:9604   */\n      add\n        /* \"#utility.yul\":9578:9584   */\n      dup7\n        /* \"#utility.yul\":9520:9605   */\n      tag_355\n      jump\t// in\n    tag_482:\n        /* \"#utility.yul\":9615:9701   */\n      tag_483\n        /* \"#utility.yul\":9697:9699   */\n      0x20\n        /* \"#utility.yul\":9686:9695   */\n      dup4\n        /* \"#utility.yul\":9682:9700   */\n      add\n        /* \"#utility.yul\":9673:9679   */\n      dup6\n        /* \"#utility.yul\":9615:9701   */\n      tag_355\n      jump\t// in\n    tag_483:\n        /* \"#utility.yul\":9711:9791   */\n      tag_484\n        /* \"#utility.yul\":9787:9789   */\n      0x40\n        /* \"#utility.yul\":9776:9785   */\n      dup4\n        /* \"#utility.yul\":9772:9790   */\n      add\n        /* \"#utility.yul\":9763:9769   */\n      dup5\n        /* \"#utility.yul\":9711:9791   */\n      tag_358\n      jump\t// in\n    tag_484:\n        /* \"#utility.yul\":9284:9798   */\n      swap5\n      swap4\n      pop\n      pop\n      pop\n      pop\n      jump\t// out\n        /* \"#utility.yul\":9804:10192   */\n    tag_141:\n        /* \"#utility.yul\":9953:9957   */\n      0x00\n        /* \"#utility.yul\":9991:9993   */\n      0x40\n        /* \"#utility.yul\":9980:9989   */\n      dup3\n        /* \"#utility.yul\":9976:9994   */\n      add\n        /* \"#utility.yul\":9968:9994   */\n      swap1\n      pop\n        /* \"#utility.yul\":10004:10089   */\n      tag_486\n        /* \"#utility.yul\":10086:10087   */\n      0x00\n        /* \"#utility.yul\":10075:10084   */\n      dup4\n        /* \"#utility.yul\":10071:10088   */\n      add\n        /* \"#utility.yul\":10062:10068   */\n      dup6\n        /* \"#utility.yul\":10004:10089   */\n      tag_355\n      jump\t// in\n    tag_486:\n        /* \"#utility.yul\":10099:10185   */\n      tag_487\n        /* \"#utility.yul\":10181:10183   */\n      0x20\n        /* \"#utility.yul\":10170:10179   */\n      dup4\n        /* \"#utility.yul\":10166:10184   */\n      add\n        /* \"#utility.yul\":10157:10163   */\n      dup5\n        /* \"#utility.yul\":10099:10185   */\n      tag_355\n      jump\t// in\n    tag_487:\n        /* \"#utility.yul\":9804:10192   */\n      swap4\n      swap3\n      pop\n      pop\n      pop\n      jump\t// out\n        /* \"#utility.yul\":10198:10313   */\n    tag_359:\n        /* \"#utility.yul\":10283:10306   */\n      tag_489\n        /* \"#utility.yul\":10300:10305   */\n      dup2\n        /* \"#utility.yul\":10283:10306   */\n      tag_339\n      jump\t// in\n    tag_489:\n        /* \"#utility.yul\":10278:10281   */\n      dup3\n        /* \"#utility.yul\":10271:10307   */\n      mstore\n        /* \"#utility.yul\":10198:10313   */\n      pop\n      pop\n      jump\t// out\n        /* \"#utility.yul\":10319:10912   */\n    tag_145:\n        /* \"#utility.yul\":10516:10520   */\n      0x00\n        /* \"#utility.yul\":10554:10557   */\n      0x80\n        /* \"#utility.yul\":10543:10552   */\n      dup3\n        /* \"#utility.yul\":10539:10558   */\n      add\n        /* \"#utility.yul\":10531:10558   */\n      swap1\n      pop\n        /* \"#utility.yul\":10568:10653   */\n      tag_491\n        /* \"#utility.yul\":10650:10651   */\n      0x00\n        /* \"#utility.yul\":10639:10648   */\n      dup4\n        /* \"#utility.yul\":10635:10652   */\n      add\n        /* \"#utility.yul\":10626:10632   */\n      dup8\n        /* \"#utility.yul\":10568:10653   */\n      tag_355\n      jump\t// in\n    tag_491:\n        /* \"#utility.yul\":10663:10749   */\n      tag_492\n        /* \"#utility.yul\":10745:10747   */\n      0x20\n        /* \"#utility.yul\":10734:10743   */\n      dup4\n        /* \"#utility.yul\":10730:10748   */\n      add\n        /* \"#utility.yul\":10721:10727   */\n      dup7\n        /* \"#utility.yul\":10663:10749   */\n      tag_355\n      jump\t// in\n    tag_492:\n        /* \"#utility.yul\":10759:10829   */\n      tag_493\n        /* \"#utility.yul\":10825:10827   */\n      0x40\n        /* \"#utility.yul\":10814:10823   */\n      dup4\n        /* \"#utility.yul\":10810:10828   */\n      add\n        /* \"#utility.yul\":10801:10807   */\n      dup6\n        /* \"#utility.yul\":10759:10829   */\n      tag_359\n      jump\t// in\n    tag_493:\n        /* \"#utility.yul\":10839:10905   */\n      tag_494\n        /* \"#utility.yul\":10901:10903   */\n      0x60\n        /* \"#utility.yul\":10890:10899   */\n      dup4\n        /* \"#utility.yul\":10886:10904   */\n      add\n        /* \"#utility.yul\":10877:10883   */\n      dup5\n        /* \"#utility.yul\":10839:10905   */\n      tag_335\n      jump\t// in\n    tag_494:\n        /* \"#utility.yul\":10319:10912   */\n      swap6\n      swap5\n      pop\n      pop\n      pop\n      pop\n      pop\n      jump\t// out\n        /* \"#utility.yul\":10918:11098   */\n    tag_360:\n        /* \"#utility.yul\":10966:11043   */\n      0x4e487b7100000000000000000000000000000000000000000000000000000000\n        /* \"#utility.yul\":10963:10964   */\n      0x00\n        /* \"#utility.yul\":10956:11044   */\n      mstore\n        /* \"#utility.yul\":11063:11067   */\n      0x11\n        /* \"#utility.yul\":11060:11061   */\n      0x04\n        /* \"#utility.yul\":11053:11068   */\n      mstore\n        /* \"#utility.yul\":11087:11091   */\n      0x24\n        /* \"#utility.yul\":11084:11085   */\n      0x00\n        /* \"#utility.yul\":11077:11092   */\n      revert\n        /* \"#utility.yul\":11104:11295   */\n    tag_151:\n        /* \"#utility.yul\":11144:11148   */\n      0x00\n        /* \"#utility.yul\":11164:11184   */\n      tag_497\n        /* \"#utility.yul\":11182:11183   */\n      dup3\n        /* \"#utility.yul\":11164:11184   */\n      tag_337\n      jump\t// in\n    tag_497:\n        /* \"#utility.yul\":11159:11184   */\n      swap2\n      pop\n        /* \"#utility.yul\":11198:11218   */\n      tag_498\n        /* \"#utility.yul\":11216:11217   */\n      dup4\n        /* \"#utility.yul\":11198:11218   */\n      tag_337\n      jump\t// in\n    tag_498:\n        /* \"#utility.yul\":11193:11218   */\n      swap3\n      pop\n        /* \"#utility.yul\":11237:11238   */\n      dup3\n        /* \"#utility.yul\":11234:11235   */\n      dup3\n        /* \"#utility.yul\":11231:11239   */\n      lt\n        /* \"#utility.yul\":11228:11262   */\n      iszero\n      tag_499\n      jumpi\n        /* \"#utility.yul\":11242:11260   */\n      tag_500\n      tag_360\n      jump\t// in\n    tag_500:\n        /* \"#utility.yul\":11228:11262   */\n    tag_499:\n        /* \"#utility.yul\":11287:11288   */\n      dup3\n        /* \"#utility.yul\":11284:11285   */\n      dup3\n        /* \"#utility.yul\":11280:11289   */\n      sub\n        /* \"#utility.yul\":11272:11289   */\n      swap1\n      pop\n        /* \"#utility.yul\":11104:11295   */\n      swap3\n      swap2\n      pop\n      pop\n      jump\t// out\n        /* \"#utility.yul\":11301:11665   */\n    tag_153:\n        /* \"#utility.yul\":11438:11442   */\n      0x00\n        /* \"#utility.yul\":11476:11478   */\n      0x40\n        /* \"#utility.yul\":11465:11474   */\n      dup3\n        /* \"#utility.yul\":11461:11479   */\n      add\n        /* \"#utility.yul\":11453:11479   */\n      swap1\n      pop\n        /* \"#utility.yul\":11489:11576   */\n      tag_502\n        /* \"#utility.yul\":11573:11574   */\n      0x00\n        /* \"#utility.yul\":11562:11571   */\n      dup4\n        /* \"#utility.yul\":11558:11575   */\n      add\n        /* \"#utility.yul\":11549:11555   */\n      dup6\n        /* \"#utility.yul\":11489:11576   */\n      tag_346\n      jump\t// in\n    tag_502:\n        /* \"#utility.yul\":11586:11658   */\n      tag_503\n        /* \"#utility.yul\":11654:11656   */\n      0x20\n        /* \"#utility.yul\":11643:11652   */\n      dup4\n        /* \"#utility.yul\":11639:11657   */\n      add\n        /* \"#utility.yul\":11630:11636   */\n      dup5\n        /* \"#utility.yul\":11586:11658   */\n      tag_338\n      jump\t// in\n    tag_503:\n        /* \"#utility.yul\":11301:11665   */\n      swap4\n      swap3\n      pop\n      pop\n      pop\n      jump\t// out\n        /* \"#utility.yul\":11671:11786   */\n    tag_361:\n        /* \"#utility.yul\":11727:11734   */\n      0x00\n        /* \"#utility.yul\":11756:11780   */\n      tag_505\n        /* \"#utility.yul\":11774:11779   */\n      dup3\n        /* \"#utility.yul\":11756:11780   */\n      tag_331\n      jump\t// in\n    tag_505:\n        /* \"#utility.yul\":11745:11780   */\n      swap1\n      pop\n        /* \"#utility.yul\":11671:11786   */\n      swap2\n      swap1\n      pop\n      jump\t// out\n        /* \"#utility.yul\":11792:11952   */\n    tag_362:\n        /* \"#utility.yul\":11884:11927   */\n      tag_507\n        /* \"#utility.yul\":11921:11926   */\n      dup2\n        /* \"#utility.yul\":11884:11927   */\n      tag_361\n      jump\t// in\n    tag_507:\n        /* \"#utility.yul\":11877:11882   */\n      dup2\n        /* \"#utility.yul\":11874:11928   */\n      eq\n        /* \"#utility.yul\":11864:11946   */\n      tag_508\n      jumpi\n        /* \"#utility.yul\":11942:11943   */\n      0x00\n        /* \"#utility.yul\":11939:11940   */\n      dup1\n        /* \"#utility.yul\":11932:11944   */\n      revert\n        /* \"#utility.yul\":11864:11946   */\n    tag_508:\n        /* \"#utility.yul\":11792:11952   */\n      pop\n      jump\t// out\n        /* \"#utility.yul\":11958:12139   */\n    tag_363:\n        /* \"#utility.yul\":12034:12039   */\n      0x00\n        /* \"#utility.yul\":12065:12071   */\n      dup2\n        /* \"#utility.yul\":12059:12072   */\n      mload\n        /* \"#utility.yul\":12050:12072   */\n      swap1\n      pop\n        /* \"#utility.yul\":12081:12133   */\n      tag_510\n        /* \"#utility.yul\":12127:12132   */\n      dup2\n        /* \"#utility.yul\":12081:12133   */\n      tag_362\n      jump\t// in\n    tag_510:\n        /* \"#utility.yul\":11958:12139   */\n      swap3\n      swap2\n      pop\n      pop\n      jump\t// out\n        /* \"#utility.yul\":12145:12534   */\n    tag_184:\n        /* \"#utility.yul\":12234:12240   */\n      0x00\n        /* \"#utility.yul\":12283:12285   */\n      0x20\n        /* \"#utility.yul\":12271:12280   */\n      dup3\n        /* \"#utility.yul\":12262:12269   */\n      dup5\n        /* \"#utility.yul\":12258:12281   */\n      sub\n        /* \"#utility.yul\":12254:12286   */\n      slt\n        /* \"#utility.yul\":12251:12370   */\n      iszero\n      tag_512\n      jumpi\n        /* \"#utility.yul\":12289:12368   */\n      tag_513\n      tag_325\n      jump\t// in\n    tag_513:\n        /* \"#utility.yul\":12251:12370   */\n    tag_512:\n        /* \"#utility.yul\":12409:12410   */\n      0x00\n        /* \"#utility.yul\":12434:12517   */\n      tag_514\n        /* \"#utility.yul\":12509:12516   */\n      dup5\n        /* \"#utility.yul\":12500:12506   */\n      dup3\n        /* \"#utility.yul\":12489:12498   */\n      dup6\n        /* \"#utility.yul\":12485:12507   */\n      add\n        /* \"#utility.yul\":12434:12517   */\n      tag_363\n      jump\t// in\n    tag_514:\n        /* \"#utility.yul\":12424:12517   */\n      swap2\n      pop\n        /* \"#utility.yul\":12380:12527   */\n      pop\n        /* \"#utility.yul\":12145:12534   */\n      swap3\n      swap2\n      pop\n      pop\n      jump\t// out\n        /* \"#utility.yul\":12540:12872   */\n    tag_190:\n        /* \"#utility.yul\":12661:12665   */\n      0x00\n        /* \"#utility.yul\":12699:12701   */\n      0x40\n        /* \"#utility.yul\":12688:12697   */\n      dup3\n        /* \"#utility.yul\":12684:12702   */\n      add\n        /* \"#utility.yul\":12676:12702   */\n      swap1\n      pop\n        /* \"#utility.yul\":12712:12783   */\n      tag_516\n        /* \"#utility.yul\":12780:12781   */\n      0x00\n        /* \"#utility.yul\":12769:12778   */\n      dup4\n        /* \"#utility.yul\":12765:12782   */\n      add\n        /* \"#utility.yul\":12756:12762   */\n      dup6\n        /* \"#utility.yul\":12712:12783   */\n      tag_336\n      jump\t// in\n    tag_516:\n        /* \"#utility.yul\":12793:12865   */\n      tag_517\n        /* \"#utility.yul\":12861:12863   */\n      0x20\n        /* \"#utility.yul\":12850:12859   */\n      dup4\n        /* \"#utility.yul\":12846:12864   */\n      add\n        /* \"#utility.yul\":12837:12843   */\n      dup5\n        /* \"#utility.yul\":12793:12865   */\n      tag_336\n      jump\t// in\n    tag_517:\n        /* \"#utility.yul\":12540:12872   */\n      swap4\n      swap3\n      pop\n      pop\n      pop\n      jump\t// out\n        /* \"#utility.yul\":12878:13047   */\n    tag_364:\n        /* \"#utility.yul\":12962:12973   */\n      0x00\n        /* \"#utility.yul\":12996:13002   */\n      dup3\n        /* \"#utility.yul\":12991:12994   */\n      dup3\n        /* \"#utility.yul\":12984:13003   */\n      mstore\n        /* \"#utility.yul\":13036:13040   */\n      0x20\n        /* \"#utility.yul\":13031:13034   */\n      dup3\n        /* \"#utility.yul\":13027:13041   */\n      add\n        /* \"#utility.yul\":13012:13041   */\n      swap1\n      pop\n        /* \"#utility.yul\":12878:13047   */\n      swap3\n      swap2\n      pop\n      pop\n      jump\t// out\n        /* \"#utility.yul\":13053:13226   */\n    tag_365:\n        /* \"#utility.yul\":13193:13218   */\n      0x455243313136373a2063726561746532206661696c6564000000000000000000\n        /* \"#utility.yul\":13189:13190   */\n      0x00\n        /* \"#utility.yul\":13181:13187   */\n      dup3\n        /* \"#utility.yul\":13177:13191   */\n      add\n        /* \"#utility.yul\":13170:13219   */\n      mstore\n        /* \"#utility.yul\":13053:13226   */\n      pop\n      jump\t// out\n        /* \"#utility.yul\":13232:13598   */\n    tag_366:\n        /* \"#utility.yul\":13374:13377   */\n      0x00\n        /* \"#utility.yul\":13395:13462   */\n      tag_521\n        /* \"#utility.yul\":13459:13461   */\n      0x17\n        /* \"#utility.yul\":13454:13457   */\n      dup4\n        /* \"#utility.yul\":13395:13462   */\n      tag_364\n      jump\t// in\n    tag_521:\n        /* \"#utility.yul\":13388:13462   */\n      swap2\n      pop\n        /* \"#utility.yul\":13471:13564   */\n      tag_522\n        /* \"#utility.yul\":13560:13563   */\n      dup3\n        /* \"#utility.yul\":13471:13564   */\n      tag_365\n      jump\t// in\n    tag_522:\n        /* \"#utility.yul\":13589:13591   */\n      0x20\n        /* \"#utility.yul\":13584:13587   */\n      dup3\n        /* \"#utility.yul\":13580:13592   */\n      add\n        /* \"#utility.yul\":13573:13592   */\n      swap1\n      pop\n        /* \"#utility.yul\":13232:13598   */\n      swap2\n      swap1\n      pop\n      jump\t// out\n        /* \"#utility.yul\":13604:14023   */\n    tag_237:\n        /* \"#utility.yul\":13770:13774   */\n      0x00\n        /* \"#utility.yul\":13808:13810   */\n      0x20\n        /* \"#utility.yul\":13797:13806   */\n      dup3\n        /* \"#utility.yul\":13793:13811   */\n      add\n        /* \"#utility.yul\":13785:13811   */\n      swap1\n      pop\n        /* \"#utility.yul\":13857:13866   */\n      dup2\n        /* \"#utility.yul\":13851:13855   */\n      dup2\n        /* \"#utility.yul\":13847:13867   */\n      sub\n        /* \"#utility.yul\":13843:13844   */\n      0x00\n        /* \"#utility.yul\":13832:13841   */\n      dup4\n        /* \"#utility.yul\":13828:13845   */\n      add\n        /* \"#utility.yul\":13821:13868   */\n      mstore\n        /* \"#utility.yul\":13885:14016   */\n      tag_524\n        /* \"#utility.yul\":14011:14015   */\n      dup2\n        /* \"#utility.yul\":13885:14016   */\n      tag_366\n      jump\t// in\n    tag_524:\n        /* \"#utility.yul\":13877:14016   */\n      swap1\n      pop\n        /* \"#utility.yul\":13604:14023   */\n      swap2\n      swap1\n      pop\n      jump\t// out\n        /* \"#utility.yul\":14029:14209   */\n    tag_264:\n        /* \"#utility.yul\":14077:14154   */\n      0x4e487b7100000000000000000000000000000000000000000000000000000000\n        /* \"#utility.yul\":14074:14075   */\n      0x00\n        /* \"#utility.yul\":14067:14155   */\n      mstore\n        /* \"#utility.yul\":14174:14178   */\n      0x12\n        /* \"#utility.yul\":14171:14172   */\n      0x04\n        /* \"#utility.yul\":14164:14179   */\n      mstore\n        /* \"#utility.yul\":14198:14202   */\n      0x24\n        /* \"#utility.yul\":14195:14196   */\n      0x00\n        /* \"#utility.yul\":14188:14203   */\n      revert\n        /* \"#utility.yul\":14215:14291   */\n    tag_367:\n        /* \"#utility.yul\":14251:14258   */\n      0x00\n        /* \"#utility.yul\":14280:14285   */\n      dup2\n        /* \"#utility.yul\":14269:14285   */\n      swap1\n      pop\n        /* \"#utility.yul\":14215:14291   */\n      swap2\n      swap1\n      pop\n      jump\t// out\n        /* \"#utility.yul\":14297:14412   */\n    tag_368:\n        /* \"#utility.yul\":14382:14405   */\n      tag_528\n        /* \"#utility.yul\":14399:14404   */\n      dup2\n        /* \"#utility.yul\":14382:14405   */\n      tag_367\n      jump\t// in\n    tag_528:\n        /* \"#utility.yul\":14377:14380   */\n      dup3\n        /* \"#utility.yul\":14370:14406   */\n      mstore\n        /* \"#utility.yul\":14297:14412   */\n      pop\n      pop\n      jump\t// out\n        /* \"#utility.yul\":14418:14746   */\n    tag_292:\n        /* \"#utility.yul\":14537:14541   */\n      0x00\n        /* \"#utility.yul\":14575:14577   */\n      0x40\n        /* \"#utility.yul\":14564:14573   */\n      dup3\n        /* \"#utility.yul\":14560:14578   */\n      add\n        /* \"#utility.yul\":14552:14578   */\n      swap1\n      pop\n        /* \"#utility.yul\":14588:14659   */\n      tag_530\n        /* \"#utility.yul\":14656:14657   */\n      0x00\n        /* \"#utility.yul\":14645:14654   */\n      dup4\n        /* \"#utility.yul\":14641:14658   */\n      add\n        /* \"#utility.yul\":14632:14638   */\n      dup6\n        /* \"#utility.yul\":14588:14659   */\n      tag_338\n      jump\t// in\n    tag_530:\n        /* \"#utility.yul\":14669:14739   */\n      tag_531\n        /* \"#utility.yul\":14735:14737   */\n      0x20\n        /* \"#utility.yul\":14724:14733   */\n      dup4\n        /* \"#utility.yul\":14720:14738   */\n      add\n        /* \"#utility.yul\":14711:14717   */\n      dup5\n        /* \"#utility.yul\":14669:14739   */\n      tag_368\n      jump\t// in\n    tag_531:\n        /* \"#utility.yul\":14418:14746   */\n      swap4\n      swap3\n      pop\n      pop\n      pop\n      jump\t// out\n        /* \"#utility.yul\":14752:14937   */\n    tag_296:\n        /* \"#utility.yul\":14792:14793   */\n      0x00\n        /* \"#utility.yul\":14809:14829   */\n      tag_533\n        /* \"#utility.yul\":14827:14828   */\n      dup3\n        /* \"#utility.yul\":14809:14829   */\n      tag_337\n      jump\t// in\n    tag_533:\n        /* \"#utility.yul\":14804:14829   */\n      swap2\n      pop\n        /* \"#utility.yul\":14843:14863   */\n      tag_534\n        /* \"#utility.yul\":14861:14862   */\n      dup4\n        /* \"#utility.yul\":14843:14863   */\n      tag_337\n      jump\t// in\n    tag_534:\n        /* \"#utility.yul\":14838:14863   */\n      swap3\n      pop\n        /* \"#utility.yul\":14882:14883   */\n      dup3\n        /* \"#utility.yul\":14872:14907   */\n      tag_535\n      jumpi\n        /* \"#utility.yul\":14887:14905   */\n      tag_536\n      tag_264\n      jump\t// in\n    tag_536:\n        /* \"#utility.yul\":14872:14907   */\n    tag_535:\n        /* \"#utility.yul\":14929:14930   */\n      dup3\n        /* \"#utility.yul\":14926:14927   */\n      dup3\n        /* \"#utility.yul\":14922:14931   */\n      div\n        /* \"#utility.yul\":14917:14931   */\n      swap1\n      pop\n        /* \"#utility.yul\":14752:14937   */\n      swap3\n      swap2\n      pop\n      pop\n      jump\t// out\n        /* \"#utility.yul\":14943:15123   */\n    tag_310:\n        /* \"#utility.yul\":14991:15068   */\n      0x4e487b7100000000000000000000000000000000000000000000000000000000\n        /* \"#utility.yul\":14988:14989   */\n      0x00\n        /* \"#utility.yul\":14981:15069   */\n      mstore\n        /* \"#utility.yul\":15088:15092   */\n      0x32\n        /* \"#utility.yul\":15085:15086   */\n      0x04\n        /* \"#utility.yul\":15078:15093   */\n      mstore\n        /* \"#utility.yul\":15112:15116   */\n      0x24\n        /* \"#utility.yul\":15109:15110   */\n      0x00\n        /* \"#utility.yul\":15102:15117   */\n      revert\n        /* \"#utility.yul\":15129:15309   */\n    tag_317:\n        /* \"#utility.yul\":15177:15254   */\n      0x4e487b7100000000000000000000000000000000000000000000000000000000\n        /* \"#utility.yul\":15174:15175   */\n      0x00\n        /* \"#utility.yul\":15167:15255   */\n      mstore\n        /* \"#utility.yul\":15274:15278   */\n      0x31\n        /* \"#utility.yul\":15271:15272   */\n      0x04\n        /* \"#utility.yul\":15264:15279   */\n      mstore\n        /* \"#utility.yul\":15298:15302   */\n      0x24\n        /* \"#utility.yul\":15295:15296   */\n      0x00\n        /* \"#utility.yul\":15288:15303   */\n      revert\n\n    auxdata: 0xa264697066735822122089a482ed4b00096cbc56209c8331012820edb9aabbdd3182c27842667815eedc64736f6c634300080a0033\n}\n",
				"bytecode": {
					"linkReferences": {},
					"object": "60806040523480156200001157600080fd5b5060405162002dde38038062002dde833981810160405281019062000037919062000353565b62000048336200006060201b60201c565b62000059816200016660201b60201c565b50620003e0565b60008060009054906101000a900473ffffffffffffffffffffffffffffffffffffffff169050816000806101000a81548173ffffffffffffffffffffffffffffffffffffffff021916908373ffffffffffffffffffffffffffffffffffffffff1602179055506000600160006101000a81548173ffffffffffffffffffffffffffffffffffffffff021916908373ffffffffffffffffffffffffffffffffffffffff1602179055508173ffffffffffffffffffffffffffffffffffffffff168173ffffffffffffffffffffffffffffffffffffffff167f8be0079c531659141344cd1fd0a4f28419497f9722a3daafe3b4186f6b6457e060405160405180910390a35050565b600073ffffffffffffffffffffffffffffffffffffffff168173ffffffffffffffffffffffffffffffffffffffff161415620001ce576040517f95cf3ee400000000000000000000000000000000000000000000000000000000815260040160405180910390fd5b6000600360009054906101000a900473ffffffffffffffffffffffffffffffffffffffff1690508173ffffffffffffffffffffffffffffffffffffffff168173ffffffffffffffffffffffffffffffffffffffff1614156200026957816040517f4fcea97100000000000000000000000000000000000000000000000000000000815260040162000260919062000396565b60405180910390fd5b81600360006101000a81548173ffffffffffffffffffffffffffffffffffffffff021916908373ffffffffffffffffffffffffffffffffffffffff1602179055507f15d80a013f22151bc7246e3bc132e12828cde19de98870475e3fa708401527218183604051620002dd929190620003b3565b60405180910390a15050565b600080fd5b600073ffffffffffffffffffffffffffffffffffffffff82169050919050565b60006200031b82620002ee565b9050919050565b6200032d816200030e565b81146200033957600080fd5b50565b6000815190506200034d8162000322565b92915050565b6000602082840312156200036c576200036b620002e9565b5b60006200037c848285016200033c565b91505092915050565b62000390816200030e565b82525050565b6000602082019050620003ad600083018462000385565b92915050565b6000604082019050620003ca600083018562000385565b620003d9602083018462000385565b9392505050565b6129ee80620003f06000396000f3fe608060405234801561001057600080fd5b506004361061014d5760003560e01c806372e47b8c116100c3578063ddbfd9411161007c578063ddbfd94114610356578063e30c397814610372578063e74b981b14610390578063eaec42a4146103ac578063f89a4cd5146103dc578063f9dca9891461040c5761014d565b806372e47b8c1461029457806380c5061e146102c45780638da5cb5b146102e2578063b038478114610300578063bc063e1a1461031c578063c42069ec1461033a5761014d565b8063509ceb9011610115578063509ceb90146101f857806352e2cf8e146102165780635a440923146102465780635c779d6d1461026257806367ab8a4e14610280578063715018a61461028a5761014d565b806322f3fe1414610152578063277218421461016e578063469048401461019e5780634847cdc8146101bc5780634e937c3a146101da575b600080fd5b61016c60048036038101906101679190612228565b610416565b005b610188600480360381019061018391906122c5565b61053c565b6040516101959190612301565b60405180910390f35b6101a6610559565b6040516101b3919061232b565b60405180910390f35b6101c461057f565b6040516101d1919061235f565b60405180910390f35b6101e2610585565b6040516101ef919061235f565b60405180910390f35b610200610592565b60405161020d919061232b565b60405180910390f35b610230600480360381019061022b91906123b5565b6105b8565b60405161023d919061247b565b60405180910390f35b610260600480360381019061025b91906122c5565b610c13565b005b61026a610d33565b6040516102779190612301565b60405180910390f35b610288610d46565b005b610292610e60565b005b6102ae60048036038101906102a991906124c2565b610ef1565b6040516102bb919061247b565b60405180910390f35b6102cc610f30565b6040516102d9919061235f565b60405180910390f35b6102ea610f41565b6040516102f7919061232b565b60405180910390f35b61031a6004803603810190610315919061251b565b610f6a565b005b6103246111e3565b604051610331919061235f565b60405180910390f35b610354600480360381019061034f919061251b565b6111ef565b005b610370600480360381019061036b91906122c5565b61136f565b005b61037a61148f565b604051610387919061232b565b60405180910390f35b6103aa60048036038101906103a5919061251b565b6114b9565b005b6103c660048036038101906103c19190612548565b61154a565b6040516103d391906125d5565b60405180910390f35b6103f660048036038101906103f191906124c2565b611564565b6040516104039190612611565b60405180910390f35b610414611581565b005b60008054906101000a900473ffffffffffffffffffffffffffffffffffffffff1673ffffffffffffffffffffffffffffffffffffffff163373ffffffffffffffffffffffffffffffffffffffff161461049b576040517f9f216c1300000000000000000000000000000000000000000000000000000000815260040160405180910390fd5b801515600360149054906101000a900460ff161515146104e7576040517f0b6ef29400000000000000000000000000000000000000000000000000000000815260040160405180910390fd5b8015600360146101000a81548160ff0219169083151502179055507fcdee7bf87b7a743b4cbe1d2d534c5248621b76f58460337e7fda92d5d23f4124816040516105319190612301565b60405180910390a150565b600061055282600961164c90919063ffffffff16565b9050919050565b600360009054906101000a900473ffffffffffffffffffffffffffffffffffffffff1681565b60045481565b6000600580549050905090565b600260009054906101000a900473ffffffffffffffffffffffffffffffffffffffff1681565b6000806105c3610f41565b9050600360149054906101000a900460ff1615801561060e57508073ffffffffffffffffffffffffffffffffffffffff163373ffffffffffffffffffffffffffffffffffffffff1614155b1561065057336040517f3a43e980000000000000000000000000000000000000000000000000000000008152600401610647919061232b565b60405180910390fd5b6000600260009054906101000a900473ffffffffffffffffffffffffffffffffffffffff169050600073ffffffffffffffffffffffffffffffffffffffff168173ffffffffffffffffffffffffffffffffffffffff1614156106de576040517fa2d3f3e400000000000000000000000000000000000000000000000000000000815260040160405180910390fd5b6106f286600961164c90919063ffffffff16565b61073357856040517f8e888ef300000000000000000000000000000000000000000000000000000000815260040161072a9190612611565b60405180910390fd5b8573ffffffffffffffffffffffffffffffffffffffff168773ffffffffffffffffffffffffffffffffffffffff1614156107a457866040517f2f9b185300000000000000000000000000000000000000000000000000000000815260040161079b9190612611565b60405180910390fd5b6107b28562ffffff1661167c565b506000806107c089896116e9565b91509150600073ffffffffffffffffffffffffffffffffffffffff168273ffffffffffffffffffffffffffffffffffffffff16141561082b576040517f95cf3ee400000000000000000000000000000000000000000000000000000000815260040160405180910390fd5b600073ffffffffffffffffffffffffffffffffffffffff16600660008473ffffffffffffffffffffffffffffffffffffffff1673ffffffffffffffffffffffffffffffffffffffff16815260200190815260200160002060008373ffffffffffffffffffffffffffffffffffffffff1673ffffffffffffffffffffffffffffffffffffffff16815260200190815260200160002060000160009054906101000a900473ffffffffffffffffffffffffffffffffffffffff1673ffffffffffffffffffffffffffffffffffffffff161461094057888860016040517fcb27a43500000000000000000000000000000000000000000000000000000000815260040161093793929190612667565b60405180910390fd5b6000828260405160200161095592919061269e565b6040516020818303038152906040528051906020012090506109778482611738565b95508573ffffffffffffffffffffffffffffffffffffffff16638c6abc0f8b8b8b8b6040518563ffffffff1660e01b81526004016109b894939291906126d6565b600060405180830381600087803b1580156109d257600080fd5b505af11580156109e6573d6000803e3d6000fd5b5050505060405180604001604052808773ffffffffffffffffffffffffffffffffffffffff1681526020018673ffffffffffffffffffffffffffffffffffffffff163373ffffffffffffffffffffffffffffffffffffffff16141515815250600660008573ffffffffffffffffffffffffffffffffffffffff1673ffffffffffffffffffffffffffffffffffffffff16815260200190815260200160002060008473ffffffffffffffffffffffffffffffffffffffff1673ffffffffffffffffffffffffffffffffffffffff16815260200190815260200160002060008201518160000160006101000a81548173ffffffffffffffffffffffffffffffffffffffff021916908373ffffffffffffffffffffffffffffffffffffffff16021790555060208201518160000160146101000a81548160ff0219169083151502179055509050506005869080600181540180825580915050600190039060005260206000200160009091909190916101000a81548173ffffffffffffffffffffffffffffffffffffffff021916908373ffffffffffffffffffffffffffffffffffffffff1602179055508873ffffffffffffffffffffffffffffffffffffffff168a73ffffffffffffffffffffffffffffffffffffffff167f612fdd9b533d1ca33088dcbca9ad3186eeadc9893e63715b8a783040d729cd6a886001600580549050610bf0919061274a565b604051610bfe92919061277e565b60405180910390a35050505050949350505050565b60008054906101000a900473ffffffffffffffffffffffffffffffffffffffff1673ffffffffffffffffffffffffffffffffffffffff163373ffffffffffffffffffffffffffffffffffffffff1614610c98576040517f9f216c1300000000000000000000000000000000000000000000000000000000815260040160405180910390fd5b610cac8160096117f590919063ffffffff16565b610ced57806040517f03ce0ad9000000000000000000000000000000000000000000000000000000008152600401610ce49190612611565b60405180910390fd5b8073ffffffffffffffffffffffffffffffffffffffff167f84cc2115995684dcb0cd3d3a9565e3d32f075de81db70c8dc3a719b2a47af67e60405160405180910390a250565b600360149054906101000a900460ff1681565b60008054906101000a900473ffffffffffffffffffffffffffffffffffffffff1673ffffffffffffffffffffffffffffffffffffffff163373ffffffffffffffffffffffffffffffffffffffff1614610dcb576040517f9f216c1300000000000000000000000000000000000000000000000000000000815260040160405180910390fd5b600073ffffffffffffffffffffffffffffffffffffffff16600160009054906101000a900473ffffffffffffffffffffffffffffffffffffffff1673ffffffffffffffffffffffffffffffffffffffff161415610e54576040517fecfad6bf00000000000000000000000000000000000000000000000000000000815260040160405180910390fd5b610e5e6000611825565b565b60008054906101000a900473ffffffffffffffffffffffffffffffffffffffff1673ffffffffffffffffffffffffffffffffffffffff163373ffffffffffffffffffffffffffffffffffffffff1614610ee5576040517f9f216c1300000000000000000000000000000000000000000000000000000000815260040160405180910390fd5b610eef60006118ac565b565b60058181548110610f0157600080fd5b906000526020600020016000915054906101000a900473ffffffffffffffffffffffffffffffffffffffff1681565b6000610f3c60096119b2565b905090565b60008060009054906101000a900473ffffffffffffffffffffffffffffffffffffffff16905090565b60008054906101000a900473ffffffffffffffffffffffffffffffffffffffff1673ffffffffffffffffffffffffffffffffffffffff163373ffffffffffffffffffffffffffffffffffffffff1614610fef576040517f9f216c1300000000000000000000000000000000000000000000000000000000815260040160405180910390fd5b3073ffffffffffffffffffffffffffffffffffffffff168173ffffffffffffffffffffffffffffffffffffffff1663c45a01556040518163ffffffff1660e01b8152600401602060405180830381865afa158015611051573d6000803e3d6000fd5b505050506040513d601f19601f8201168201806040525081019061107591906127e5565b73ffffffffffffffffffffffffffffffffffffffff16146110cd57806040517f147ce15e0000000000000000000000000000000000000000000000000000000081526004016110c4919061232b565b60405180910390fd5b6000600260009054906101000a900473ffffffffffffffffffffffffffffffffffffffff1690508173ffffffffffffffffffffffffffffffffffffffff168173ffffffffffffffffffffffffffffffffffffffff16141561116557816040517f6f69dca800000000000000000000000000000000000000000000000000000000815260040161115c919061232b565b60405180910390fd5b81600260006101000a81548173ffffffffffffffffffffffffffffffffffffffff021916908373ffffffffffffffffffffffffffffffffffffffff1602179055507f900d0e3d359f50e4f923ecdc06b401e07dbb9f485e17b07bcfc91a13000b277e81836040516111d7929190612812565b60405180910390a15050565b67016345785d8a000081565b60008054906101000a900473ffffffffffffffffffffffffffffffffffffffff1673ffffffffffffffffffffffffffffffffffffffff163373ffffffffffffffffffffffffffffffffffffffff1614611274576040517f9f216c1300000000000000000000000000000000000000000000000000000000815260040160405180910390fd5b600073ffffffffffffffffffffffffffffffffffffffff168173ffffffffffffffffffffffffffffffffffffffff1614156112db576040517f91f3851500000000000000000000000000000000000000000000000000000000815260040160405180910390fd5b600073ffffffffffffffffffffffffffffffffffffffff16600160009054906101000a900473ffffffffffffffffffffffffffffffffffffffff1673ffffffffffffffffffffffffffffffffffffffff1614611363576040517f716b1fbf00000000000000000000000000000000000000000000000000000000815260040160405180910390fd5b61136c81611825565b50565b60008054906101000a900473ffffffffffffffffffffffffffffffffffffffff1673ffffffffffffffffffffffffffffffffffffffff163373ffffffffffffffffffffffffffffffffffffffff16146113f4576040517f9f216c1300000000000000000000000000000000000000000000000000000000815260040160405180910390fd5b6114088160096119c790919063ffffffff16565b61144957806040517f8e888ef30000000000000000000000000000000000000000000000000000000081526004016114409190612611565b60405180910390fd5b8073ffffffffffffffffffffffffffffffffffffffff167f0b767739217755d8af5a2ba75b181a19fa1750f8bb701f09311cb19a90140cb360405160405180910390a250565b6000600160009054906101000a900473ffffffffffffffffffffffffffffffffffffffff16905090565b60008054906101000a900473ffffffffffffffffffffffffffffffffffffffff1673ffffffffffffffffffffffffffffffffffffffff163373ffffffffffffffffffffffffffffffffffffffff161461153e576040517f9f216c1300000000000000000000000000000000000000000000000000000000815260040160405180910390fd5b611547816119f7565b50565b6115526121b9565b61155c8383611b74565b905092915050565b600061157a826009611c8e90919063ffffffff16565b9050919050565b600160009054906101000a900473ffffffffffffffffffffffffffffffffffffffff1673ffffffffffffffffffffffffffffffffffffffff163373ffffffffffffffffffffffffffffffffffffffff1614158061160a5750600073ffffffffffffffffffffffffffffffffffffffff163373ffffffffffffffffffffffffffffffffffffffff16145b15611641576040517f7304d01200000000000000000000000000000000000000000000000000000000815260040160405180910390fd5b61164a336118ac565b565b6000611674836000018373ffffffffffffffffffffffffffffffffffffffff1660001b611ca8565b905092915050565b600062ffffff80168211156116bd576040517f58f62eac00000000000000000000000000000000000000000000000000000000815260040160405180910390fd5b600062800000830390506116e1816116d3611ccb565b611cf190919063ffffffff16565b915050919050565b6000808273ffffffffffffffffffffffffffffffffffffffff168473ffffffffffffffffffffffffffffffffffffffff16111561172b57828480945081955050505b8383915091509250929050565b6000763d602d80600a3d3981f3363d3d373d3d3d363d730000008360601b60e81c176000526e5af43d82803e903d91602b57fd5bf38360781b1760205281603760096000f59050600073ffffffffffffffffffffffffffffffffffffffff168173ffffffffffffffffffffffffffffffffffffffff1614156117ef576040517f08c379a00000000000000000000000000000000000000000000000000000000081526004016117e690612898565b60405180910390fd5b92915050565b600061181d836000018373ffffffffffffffffffffffffffffffffffffffff1660001b611ff9565b905092915050565b80600160006101000a81548173ffffffffffffffffffffffffffffffffffffffff021916908373ffffffffffffffffffffffffffffffffffffffff1602179055508073ffffffffffffffffffffffffffffffffffffffff167f68f49b346b94582a8b5f9d10e3fe3365318fe8f191ff8dce7c59c6cad06b02f560405160405180910390a250565b60008060009054906101000a900473ffffffffffffffffffffffffffffffffffffffff169050816000806101000a81548173ffffffffffffffffffffffffffffffffffffffff021916908373ffffffffffffffffffffffffffffffffffffffff1602179055506000600160006101000a81548173ffffffffffffffffffffffffffffffffffffffff021916908373ffffffffffffffffffffffffffffffffffffffff1602179055508173ffffffffffffffffffffffffffffffffffffffff168173ffffffffffffffffffffffffffffffffffffffff167f8be0079c531659141344cd1fd0a4f28419497f9722a3daafe3b4186f6b6457e060405160405180910390a35050565b60006119c082600001612069565b9050919050565b60006119ef836000018373ffffffffffffffffffffffffffffffffffffffff1660001b61207a565b905092915050565b600073ffffffffffffffffffffffffffffffffffffffff168173ffffffffffffffffffffffffffffffffffffffff161415611a5e576040517f95cf3ee400000000000000000000000000000000000000000000000000000000815260040160405180910390fd5b6000600360009054906101000a900473ffffffffffffffffffffffffffffffffffffffff1690508173ffffffffffffffffffffffffffffffffffffffff168173ffffffffffffffffffffffffffffffffffffffff161415611af657816040517f4fcea971000000000000000000000000000000000000000000000000000000008152600401611aed919061232b565b60405180910390fd5b81600360006101000a81548173ffffffffffffffffffffffffffffffffffffffff021916908373ffffffffffffffffffffffffffffffffffffffff1602179055507f15d80a013f22151bc7246e3bc132e12828cde19de98870475e3fa708401527218183604051611b68929190612812565b60405180910390a15050565b611b7c6121b9565b611b8683836116e9565b8093508194505050600660008473ffffffffffffffffffffffffffffffffffffffff1673ffffffffffffffffffffffffffffffffffffffff16815260200190815260200160002060008373ffffffffffffffffffffffffffffffffffffffff1673ffffffffffffffffffffffffffffffffffffffff1681526020019081526020016000206040518060400160405290816000820160009054906101000a900473ffffffffffffffffffffffffffffffffffffffff1673ffffffffffffffffffffffffffffffffffffffff1673ffffffffffffffffffffffffffffffffffffffff1681526020016000820160149054906101000a900460ff161515151581525050905092915050565b6000611c9d836000018361218e565b60001c905092915050565b600080836001016000848152602001908152602001600020541415905092915050565b600061271060806001901b81611ce457611ce36128b8565b5b0460806001901b01905090565b600080600080841415611d0d5760806001901b92505050611ff3565b8390506000811215611d2457806000039050811591505b62100000811015611f6e5760806001901b9250846fffffffffffffffffffffffffffffffff861115611d5c5780600019049050821592505b6001821615611d6e5780840260801c93505b80810260801c90506002821615611d885780840260801c93505b80810260801c90506004821615611da25780840260801c93505b80810260801c90506008821615611dbc5780840260801c93505b80810260801c90506010821615611dd65780840260801c93505b80810260801c90506020821615611df05780840260801c93505b80810260801c90506040821615611e0a5780840260801c93505b80810260801c90506080821615611e245780840260801c93505b80810260801c9050610100821615611e3f5780840260801c93505b80810260801c9050610200821615611e5a5780840260801c93505b80810260801c9050610400821615611e755780840260801c93505b80810260801c9050610800821615611e905780840260801c93505b80810260801c9050611000821615611eab5780840260801c93505b80810260801c9050612000821615611ec65780840260801c93505b80810260801c9050614000821615611ee15780840260801c93505b80810260801c9050618000821615611efc5780840260801c93505b80810260801c905062010000821615611f185780840260801c93505b80810260801c905062020000821615611f345780840260801c93505b80810260801c905062040000821615611f505780840260801c93505b80810260801c905062080000821615611f6c5780840260801c93505b505b6000831415611fb65784846040517f74e3eb08000000000000000000000000000000000000000000000000000000008152600401611fad929190612900565b60405180910390fd5b81611fc15782611fee565b827fffffffffffffffffffffffffffffffffffffffffffffffffffffffffffffffff611fed9190612929565b5b925050505b92915050565b60006120058383611ca8565b61205e578260000182908060018154018082558091505060019003906000526020600020016000909190919091505582600001805490508360010160008481526020019081526020016000208190555060019050612063565b600090505b92915050565b600081600001805490509050919050565b600080836001016000848152602001908152602001600020549050600081146121825760006001826120ac919061274a565b90506000600186600001805490506120c4919061274a565b90508181146121335760008660000182815481106120e5576120e461295a565b5b90600052602060002001549050808760000184815481106121095761210861295a565b5b90600052602060002001819055508387600101600083815260200190815260200160002081905550505b8560000180548061214757612146612989565b5b600190038181906000526020600020016000905590558560010160008681526020019081526020016000206000905560019350505050612188565b60009150505b92915050565b60008260000182815481106121a6576121a561295a565b5b9060005260206000200154905092915050565b6040518060400160405280600073ffffffffffffffffffffffffffffffffffffffff1681526020016000151581525090565b600080fd5b60008115159050919050565b612205816121f0565b811461221057600080fd5b50565b600081359050612222816121fc565b92915050565b60006020828403121561223e5761223d6121eb565b5b600061224c84828501612213565b91505092915050565b600073ffffffffffffffffffffffffffffffffffffffff82169050919050565b600061228082612255565b9050919050565b600061229282612275565b9050919050565b6122a281612287565b81146122ad57600080fd5b50565b6000813590506122bf81612299565b92915050565b6000602082840312156122db576122da6121eb565b5b60006122e9848285016122b0565b91505092915050565b6122fb816121f0565b82525050565b600060208201905061231660008301846122f2565b92915050565b61232581612275565b82525050565b6000602082019050612340600083018461231c565b92915050565b6000819050919050565b61235981612346565b82525050565b60006020820190506123746000830184612350565b92915050565b600062ffffff82169050919050565b6123928161237a565b811461239d57600080fd5b50565b6000813590506123af81612389565b92915050565b600080600080608085870312156123cf576123ce6121eb565b5b60006123dd878288016122b0565b94505060206123ee878288016122b0565b93505060406123ff878288016123a0565b925050606061241087828801612213565b91505092959194509250565b6000819050919050565b600061244161243c61243784612255565b61241c565b612255565b9050919050565b600061245382612426565b9050919050565b600061246582612448565b9050919050565b6124758161245a565b82525050565b6000602082019050612490600083018461246c565b92915050565b61249f81612346565b81146124aa57600080fd5b50565b6000813590506124bc81612496565b92915050565b6000602082840312156124d8576124d76121eb565b5b60006124e6848285016124ad565b91505092915050565b6124f881612275565b811461250357600080fd5b50565b600081359050612515816124ef565b92915050565b600060208284031215612531576125306121eb565b5b600061253f84828501612506565b91505092915050565b6000806040838503121561255f5761255e6121eb565b5b600061256d858286016122b0565b925050602061257e858286016122b0565b9150509250929050565b6125918161245a565b82525050565b6125a0816121f0565b82525050565b6040820160008201516125bc6000850182612588565b5060208201516125cf6020850182612597565b50505050565b60006040820190506125ea60008301846125a6565b92915050565b60006125fb82612448565b9050919050565b61260b816125f0565b82525050565b60006020820190506126266000830184612602565b92915050565b6000819050919050565b600061265161264c6126478461262c565b61241c565b612346565b9050919050565b61266181612636565b82525050565b600060608201905061267c6000830186612602565b6126896020830185612602565b6126966040830184612658565b949350505050565b60006040820190506126b36000830185612602565b6126c06020830184612602565b9392505050565b6126d08161237a565b82525050565b60006080820190506126eb6000830187612602565b6126f86020830186612602565b61270560408301856126c7565b61271260608301846122f2565b95945050505050565b7f4e487b7100000000000000000000000000000000000000000000000000000000600052601160045260246000fd5b600061275582612346565b915061276083612346565b9250828210156127735761277261271b565b5b828203905092915050565b6000604082019050612793600083018561246c565b6127a06020830184612350565b9392505050565b60006127b282612275565b9050919050565b6127c2816127a7565b81146127cd57600080fd5b50565b6000815190506127df816127b9565b92915050565b6000602082840312156127fb576127fa6121eb565b5b6000612809848285016127d0565b91505092915050565b6000604082019050612827600083018561231c565b612834602083018461231c565b9392505050565b600082825260208201905092915050565b7f455243313136373a2063726561746532206661696c6564000000000000000000600082015250565b600061288260178361283b565b915061288d8261284c565b602082019050919050565b600060208201905081810360008301526128b181612875565b9050919050565b7f4e487b7100000000000000000000000000000000000000000000000000000000600052601260045260246000fd5b6000819050919050565b6128fa816128e7565b82525050565b60006040820190506129156000830185612350565b61292260208301846128f1565b9392505050565b600061293482612346565b915061293f83612346565b92508261294f5761294e6128b8565b5b828204905092915050565b7f4e487b7100000000000000000000000000000000000000000000000000000000600052603260045260246000fd5b7f4e487b7100000000000000000000000000000000000000000000000000000000600052603160045260246000fdfea264697066735822122089a482ed4b00096cbc56209c8331012820edb9aabbdd3182c27842667815eedc64736f6c634300080a0033",
					"opcodes": "PUSH1 0x80 PUSH1 0x40 MSTORE CALLVALUE DUP1 ISZERO PUSH3 0x11 JUMPI PUSH1 0x0 DUP1 REVERT JUMPDEST POP PUSH1 0x40 MLOAD PUSH3 0x2DDE CODESIZE SUB DUP1 PUSH3 0x2DDE DUP4 CODECOPY DUP2 DUP2 ADD PUSH1 0x40 MSTORE DUP2 ADD SWAP1 PUSH3 0x37 SWAP2 SWAP1 PUSH3 0x353 JUMP JUMPDEST PUSH3 0x48 CALLER PUSH3 0x60 PUSH1 0x20 SHL PUSH1 0x20 SHR JUMP JUMPDEST PUSH3 0x59 DUP2 PUSH3 0x166 PUSH1 0x20 SHL PUSH1 0x20 SHR JUMP JUMPDEST POP PUSH3 0x3E0 JUMP JUMPDEST PUSH1 0x0 DUP1 PUSH1 0x0 SWAP1 SLOAD SWAP1 PUSH2 0x100 EXP SWAP1 DIV PUSH20 0xFFFFFFFFFFFFFFFFFFFFFFFFFFFFFFFFFFFFFFFF AND SWAP1 POP DUP2 PUSH1 0x0 DUP1 PUSH2 0x100 EXP DUP2 SLOAD DUP2 PUSH20 0xFFFFFFFFFFFFFFFFFFFFFFFFFFFFFFFFFFFFFFFF MUL NOT AND SWAP1 DUP4 PUSH20 0xFFFFFFFFFFFFFFFFFFFFFFFFFFFFFFFFFFFFFFFF AND MUL OR SWAP1 SSTORE POP PUSH1 0x0 PUSH1 0x1 PUSH1 0x0 PUSH2 0x100 EXP DUP2 SLOAD DUP2 PUSH20 0xFFFFFFFFFFFFFFFFFFFFFFFFFFFFFFFFFFFFFFFF MUL NOT AND SWAP1 DUP4 PUSH20 0xFFFFFFFFFFFFFFFFFFFFFFFFFFFFFFFFFFFFFFFF AND MUL OR SWAP1 SSTORE POP DUP2 PUSH20 0xFFFFFFFFFFFFFFFFFFFFFFFFFFFFFFFFFFFFFFFF AND DUP2 PUSH20 0xFFFFFFFFFFFFFFFFFFFFFFFFFFFFFFFFFFFFFFFF AND PUSH32 0x8BE0079C531659141344CD1FD0A4F28419497F9722A3DAAFE3B4186F6B6457E0 PUSH1 0x40 MLOAD PUSH1 0x40 MLOAD DUP1 SWAP2 SUB SWAP1 LOG3 POP POP JUMP JUMPDEST PUSH1 0x0 PUSH20 0xFFFFFFFFFFFFFFFFFFFFFFFFFFFFFFFFFFFFFFFF AND DUP2 PUSH20 0xFFFFFFFFFFFFFFFFFFFFFFFFFFFFFFFFFFFFFFFF AND EQ ISZERO PUSH3 0x1CE JUMPI PUSH1 0x40 MLOAD PUSH32 0x95CF3EE400000000000000000000000000000000000000000000000000000000 DUP2 MSTORE PUSH1 0x4 ADD PUSH1 0x40 MLOAD DUP1 SWAP2 SUB SWAP1 REVERT JUMPDEST PUSH1 0x0 PUSH1 0x3 PUSH1 0x0 SWAP1 SLOAD SWAP1 PUSH2 0x100 EXP SWAP1 DIV PUSH20 0xFFFFFFFFFFFFFFFFFFFFFFFFFFFFFFFFFFFFFFFF AND SWAP1 POP DUP2 PUSH20 0xFFFFFFFFFFFFFFFFFFFFFFFFFFFFFFFFFFFFFFFF AND DUP2 PUSH20 0xFFFFFFFFFFFFFFFFFFFFFFFFFFFFFFFFFFFFFFFF AND EQ ISZERO PUSH3 0x269 JUMPI DUP2 PUSH1 0x40 MLOAD PUSH32 0x4FCEA97100000000000000000000000000000000000000000000000000000000 DUP2 MSTORE PUSH1 0x4 ADD PUSH3 0x260 SWAP2 SWAP1 PUSH3 0x396 JUMP JUMPDEST PUSH1 0x40 MLOAD DUP1 SWAP2 SUB SWAP1 REVERT JUMPDEST DUP2 PUSH1 0x3 PUSH1 0x0 PUSH2 0x100 EXP DUP2 SLOAD DUP2 PUSH20 0xFFFFFFFFFFFFFFFFFFFFFFFFFFFFFFFFFFFFFFFF MUL NOT AND SWAP1 DUP4 PUSH20 0xFFFFFFFFFFFFFFFFFFFFFFFFFFFFFFFFFFFFFFFF AND MUL OR SWAP1 SSTORE POP PUSH32 0x15D80A013F22151BC7246E3BC132E12828CDE19DE98870475E3FA70840152721 DUP2 DUP4 PUSH1 0x40 MLOAD PUSH3 0x2DD SWAP3 SWAP2 SWAP1 PUSH3 0x3B3 JUMP JUMPDEST PUSH1 0x40 MLOAD DUP1 SWAP2 SUB SWAP1 LOG1 POP POP JUMP JUMPDEST PUSH1 0x0 DUP1 REVERT JUMPDEST PUSH1 0x0 PUSH20 0xFFFFFFFFFFFFFFFFFFFFFFFFFFFFFFFFFFFFFFFF DUP3 AND SWAP1 POP SWAP2 SWAP1 POP JUMP JUMPDEST PUSH1 0x0 PUSH3 0x31B DUP3 PUSH3 0x2EE JUMP JUMPDEST SWAP1 POP SWAP2 SWAP1 POP JUMP JUMPDEST PUSH3 0x32D DUP2 PUSH3 0x30E JUMP JUMPDEST DUP2 EQ PUSH3 0x339 JUMPI PUSH1 0x0 DUP1 REVERT JUMPDEST POP JUMP JUMPDEST PUSH1 0x0 DUP2 MLOAD SWAP1 POP PUSH3 0x34D DUP2 PUSH3 0x322 JUMP JUMPDEST SWAP3 SWAP2 POP POP JUMP JUMPDEST PUSH1 0x0 PUSH1 0x20 DUP3 DUP5 SUB SLT ISZERO PUSH3 0x36C JUMPI PUSH3 0x36B PUSH3 0x2E9 JUMP JUMPDEST JUMPDEST PUSH1 0x0 PUSH3 0x37C DUP5 DUP3 DUP6 ADD PUSH3 0x33C JUMP JUMPDEST SWAP2 POP POP SWAP3 SWAP2 POP POP JUMP JUMPDEST PUSH3 0x390 DUP2 PUSH3 0x30E JUMP JUMPDEST DUP3 MSTORE POP POP JUMP JUMPDEST PUSH1 0x0 PUSH1 0x20 DUP3 ADD SWAP1 POP PUSH3 0x3AD PUSH1 0x0 DUP4 ADD DUP5 PUSH3 0x385 JUMP JUMPDEST SWAP3 SWAP2 POP POP JUMP JUMPDEST PUSH1 0x0 PUSH1 0x40 DUP3 ADD SWAP1 POP PUSH3 0x3CA PUSH1 0x0 DUP4 ADD DUP6 PUSH3 0x385 JUMP JUMPDEST PUSH3 0x3D9 PUSH1 0x20 DUP4 ADD DUP5 PUSH3 0x385 JUMP JUMPDEST SWAP4 SWAP3 POP POP POP JUMP JUMPDEST PUSH2 0x29EE DUP1 PUSH3 0x3F0 PUSH1 0x0 CODECOPY PUSH1 0x0 RETURN INVALID PUSH1 0x80 PUSH1 0x40 MSTORE CALLVALUE DUP1 ISZERO PUSH2 0x10 JUMPI PUSH1 0x0 DUP1 REVERT JUMPDEST POP PUSH1 0x4 CALLDATASIZE LT PUSH2 0x14D JUMPI PUSH1 0x0 CALLDATALOAD PUSH1 0xE0 SHR DUP1 PUSH4 0x72E47B8C GT PUSH2 0xC3 JUMPI DUP1 PUSH4 0xDDBFD941 GT PUSH2 0x7C JUMPI DUP1 PUSH4 0xDDBFD941 EQ PUSH2 0x356 JUMPI DUP1 PUSH4 0xE30C3978 EQ PUSH2 0x372 JUMPI DUP1 PUSH4 0xE74B981B EQ PUSH2 0x390 JUMPI DUP1 PUSH4 0xEAEC42A4 EQ PUSH2 0x3AC JUMPI DUP1 PUSH4 0xF89A4CD5 EQ PUSH2 0x3DC JUMPI DUP1 PUSH4 0xF9DCA989 EQ PUSH2 0x40C JUMPI PUSH2 0x14D JUMP JUMPDEST DUP1 PUSH4 0x72E47B8C EQ PUSH2 0x294 JUMPI DUP1 PUSH4 0x80C5061E EQ PUSH2 0x2C4 JUMPI DUP1 PUSH4 0x8DA5CB5B EQ PUSH2 0x2E2 JUMPI DUP1 PUSH4 0xB0384781 EQ PUSH2 0x300 JUMPI DUP1 PUSH4 0xBC063E1A EQ PUSH2 0x31C JUMPI DUP1 PUSH4 0xC42069EC EQ PUSH2 0x33A JUMPI PUSH2 0x14D JUMP JUMPDEST DUP1 PUSH4 0x509CEB90 GT PUSH2 0x115 JUMPI DUP1 PUSH4 0x509CEB90 EQ PUSH2 0x1F8 JUMPI DUP1 PUSH4 0x52E2CF8E EQ PUSH2 0x216 JUMPI DUP1 PUSH4 0x5A440923 EQ PUSH2 0x246 JUMPI DUP1 PUSH4 0x5C779D6D EQ PUSH2 0x262 JUMPI DUP1 PUSH4 0x67AB8A4E EQ PUSH2 0x280 JUMPI DUP1 PUSH4 0x715018A6 EQ PUSH2 0x28A JUMPI PUSH2 0x14D JUMP JUMPDEST DUP1 PUSH4 0x22F3FE14 EQ PUSH2 0x152 JUMPI DUP1 PUSH4 0x27721842 EQ PUSH2 0x16E JUMPI DUP1 PUSH4 0x46904840 EQ PUSH2 0x19E JUMPI DUP1 PUSH4 0x4847CDC8 EQ PUSH2 0x1BC JUMPI DUP1 PUSH4 0x4E937C3A EQ PUSH2 0x1DA JUMPI JUMPDEST PUSH1 0x0 DUP1 REVERT JUMPDEST PUSH2 0x16C PUSH1 0x4 DUP1 CALLDATASIZE SUB DUP2 ADD SWAP1 PUSH2 0x167 SWAP2 SWAP1 PUSH2 0x2228 JUMP JUMPDEST PUSH2 0x416 JUMP JUMPDEST STOP JUMPDEST PUSH2 0x188 PUSH1 0x4 DUP1 CALLDATASIZE SUB DUP2 ADD SWAP1 PUSH2 0x183 SWAP2 SWAP1 PUSH2 0x22C5 JUMP JUMPDEST PUSH2 0x53C JUMP JUMPDEST PUSH1 0x40 MLOAD PUSH2 0x195 SWAP2 SWAP1 PUSH2 0x2301 JUMP JUMPDEST PUSH1 0x40 MLOAD DUP1 SWAP2 SUB SWAP1 RETURN JUMPDEST PUSH2 0x1A6 PUSH2 0x559 JUMP JUMPDEST PUSH1 0x40 MLOAD PUSH2 0x1B3 SWAP2 SWAP1 PUSH2 0x232B JUMP JUMPDEST PUSH1 0x40 MLOAD DUP1 SWAP2 SUB SWAP1 RETURN JUMPDEST PUSH2 0x1C4 PUSH2 0x57F JUMP JUMPDEST PUSH1 0x40 MLOAD PUSH2 0x1D1 SWAP2 SWAP1 PUSH2 0x235F JUMP JUMPDEST PUSH1 0x40 MLOAD DUP1 SWAP2 SUB SWAP1 RETURN JUMPDEST PUSH2 0x1E2 PUSH2 0x585 JUMP JUMPDEST PUSH1 0x40 MLOAD PUSH2 0x1EF SWAP2 SWAP1 PUSH2 0x235F JUMP JUMPDEST PUSH1 0x40 MLOAD DUP1 SWAP2 SUB SWAP1 RETURN JUMPDEST PUSH2 0x200 PUSH2 0x592 JUMP JUMPDEST PUSH1 0x40 MLOAD PUSH2 0x20D SWAP2 SWAP1 PUSH2 0x232B JUMP JUMPDEST PUSH1 0x40 MLOAD DUP1 SWAP2 SUB SWAP1 RETURN JUMPDEST PUSH2 0x230 PUSH1 0x4 DUP1 CALLDATASIZE SUB DUP2 ADD SWAP1 PUSH2 0x22B SWAP2 SWAP1 PUSH2 0x23B5 JUMP JUMPDEST PUSH2 0x5B8 JUMP JUMPDEST PUSH1 0x40 MLOAD PUSH2 0x23D SWAP2 SWAP1 PUSH2 0x247B JUMP JUMPDEST PUSH1 0x40 MLOAD DUP1 SWAP2 SUB SWAP1 RETURN JUMPDEST PUSH2 0x260 PUSH1 0x4 DUP1 CALLDATASIZE SUB DUP2 ADD SWAP1 PUSH2 0x25B SWAP2 SWAP1 PUSH2 0x22C5 JUMP JUMPDEST PUSH2 0xC13 JUMP JUMPDEST STOP JUMPDEST PUSH2 0x26A PUSH2 0xD33 JUMP JUMPDEST PUSH1 0x40 MLOAD PUSH2 0x277 SWAP2 SWAP1 PUSH2 0x2301 JUMP JUMPDEST PUSH1 0x40 MLOAD DUP1 SWAP2 SUB SWAP1 RETURN JUMPDEST PUSH2 0x288 PUSH2 0xD46 JUMP JUMPDEST STOP JUMPDEST PUSH2 0x292 PUSH2 0xE60 JUMP JUMPDEST STOP JUMPDEST PUSH2 0x2AE PUSH1 0x4 DUP1 CALLDATASIZE SUB DUP2 ADD SWAP1 PUSH2 0x2A9 SWAP2 SWAP1 PUSH2 0x24C2 JUMP JUMPDEST PUSH2 0xEF1 JUMP JUMPDEST PUSH1 0x40 MLOAD PUSH2 0x2BB SWAP2 SWAP1 PUSH2 0x247B JUMP JUMPDEST PUSH1 0x40 MLOAD DUP1 SWAP2 SUB SWAP1 RETURN JUMPDEST PUSH2 0x2CC PUSH2 0xF30 JUMP JUMPDEST PUSH1 0x40 MLOAD PUSH2 0x2D9 SWAP2 SWAP1 PUSH2 0x235F JUMP JUMPDEST PUSH1 0x40 MLOAD DUP1 SWAP2 SUB SWAP1 RETURN JUMPDEST PUSH2 0x2EA PUSH2 0xF41 JUMP JUMPDEST PUSH1 0x40 MLOAD PUSH2 0x2F7 SWAP2 SWAP1 PUSH2 0x232B JUMP JUMPDEST PUSH1 0x40 MLOAD DUP1 SWAP2 SUB SWAP1 RETURN JUMPDEST PUSH2 0x31A PUSH1 0x4 DUP1 CALLDATASIZE SUB DUP2 ADD SWAP1 PUSH2 0x315 SWAP2 SWAP1 PUSH2 0x251B JUMP JUMPDEST PUSH2 0xF6A JUMP JUMPDEST STOP JUMPDEST PUSH2 0x324 PUSH2 0x11E3 JUMP JUMPDEST PUSH1 0x40 MLOAD PUSH2 0x331 SWAP2 SWAP1 PUSH2 0x235F JUMP JUMPDEST PUSH1 0x40 MLOAD DUP1 SWAP2 SUB SWAP1 RETURN JUMPDEST PUSH2 0x354 PUSH1 0x4 DUP1 CALLDATASIZE SUB DUP2 ADD SWAP1 PUSH2 0x34F SWAP2 SWAP1 PUSH2 0x251B JUMP JUMPDEST PUSH2 0x11EF JUMP JUMPDEST STOP JUMPDEST PUSH2 0x370 PUSH1 0x4 DUP1 CALLDATASIZE SUB DUP2 ADD SWAP1 PUSH2 0x36B SWAP2 SWAP1 PUSH2 0x22C5 JUMP JUMPDEST PUSH2 0x136F JUMP JUMPDEST STOP JUMPDEST PUSH2 0x37A PUSH2 0x148F JUMP JUMPDEST PUSH1 0x40 MLOAD PUSH2 0x387 SWAP2 SWAP1 PUSH2 0x232B JUMP JUMPDEST PUSH1 0x40 MLOAD DUP1 SWAP2 SUB SWAP1 RETURN JUMPDEST PUSH2 0x3AA PUSH1 0x4 DUP1 CALLDATASIZE SUB DUP2 ADD SWAP1 PUSH2 0x3A5 SWAP2 SWAP1 PUSH2 0x251B JUMP JUMPDEST PUSH2 0x14B9 JUMP JUMPDEST STOP JUMPDEST PUSH2 0x3C6 PUSH1 0x4 DUP1 CALLDATASIZE SUB DUP2 ADD SWAP1 PUSH2 0x3C1 SWAP2 SWAP1 PUSH2 0x2548 JUMP JUMPDEST PUSH2 0x154A JUMP JUMPDEST PUSH1 0x40 MLOAD PUSH2 0x3D3 SWAP2 SWAP1 PUSH2 0x25D5 JUMP JUMPDEST PUSH1 0x40 MLOAD DUP1 SWAP2 SUB SWAP1 RETURN JUMPDEST PUSH2 0x3F6 PUSH1 0x4 DUP1 CALLDATASIZE SUB DUP2 ADD SWAP1 PUSH2 0x3F1 SWAP2 SWAP1 PUSH2 0x24C2 JUMP JUMPDEST PUSH2 0x1564 JUMP JUMPDEST PUSH1 0x40 MLOAD PUSH2 0x403 SWAP2 SWAP1 PUSH2 0x2611 JUMP JUMPDEST PUSH1 0x40 MLOAD DUP1 SWAP2 SUB SWAP1 RETURN JUMPDEST PUSH2 0x414 PUSH2 0x1581 JUMP JUMPDEST STOP JUMPDEST PUSH1 0x0 DUP1 SLOAD SWAP1 PUSH2 0x100 EXP SWAP1 DIV PUSH20 0xFFFFFFFFFFFFFFFFFFFFFFFFFFFFFFFFFFFFFFFF AND PUSH20 0xFFFFFFFFFFFFFFFFFFFFFFFFFFFFFFFFFFFFFFFF AND CALLER PUSH20 0xFFFFFFFFFFFFFFFFFFFFFFFFFFFFFFFFFFFFFFFF AND EQ PUSH2 0x49B JUMPI PUSH1 0x40 MLOAD PUSH32 0x9F216C1300000000000000000000000000000000000000000000000000000000 DUP2 MSTORE PUSH1 0x4 ADD PUSH1 0x40 MLOAD DUP1 SWAP2 SUB SWAP1 REVERT JUMPDEST DUP1 ISZERO ISZERO PUSH1 0x3 PUSH1 0x14 SWAP1 SLOAD SWAP1 PUSH2 0x100 EXP SWAP1 DIV PUSH1 0xFF AND ISZERO ISZERO EQ PUSH2 0x4E7 JUMPI PUSH1 0x40 MLOAD PUSH32 0xB6EF29400000000000000000000000000000000000000000000000000000000 DUP2 MSTORE PUSH1 0x4 ADD PUSH1 0x40 MLOAD DUP1 SWAP2 SUB SWAP1 REVERT JUMPDEST DUP1 ISZERO PUSH1 0x3 PUSH1 0x14 PUSH2 0x100 EXP DUP2 SLOAD DUP2 PUSH1 0xFF MUL NOT AND SWAP1 DUP4 ISZERO ISZERO MUL OR SWAP1 SSTORE POP PUSH32 0xCDEE7BF87B7A743B4CBE1D2D534C5248621B76F58460337E7FDA92D5D23F4124 DUP2 PUSH1 0x40 MLOAD PUSH2 0x531 SWAP2 SWAP1 PUSH2 0x2301 JUMP JUMPDEST PUSH1 0x40 MLOAD DUP1 SWAP2 SUB SWAP1 LOG1 POP JUMP JUMPDEST PUSH1 0x0 PUSH2 0x552 DUP3 PUSH1 0x9 PUSH2 0x164C SWAP1 SWAP2 SWAP1 PUSH4 0xFFFFFFFF AND JUMP JUMPDEST SWAP1 POP SWAP2 SWAP1 POP JUMP JUMPDEST PUSH1 0x3 PUSH1 0x0 SWAP1 SLOAD SWAP1 PUSH2 0x100 EXP SWAP1 DIV PUSH20 0xFFFFFFFFFFFFFFFFFFFFFFFFFFFFFFFFFFFFFFFF AND DUP2 JUMP JUMPDEST PUSH1 0x4 SLOAD DUP2 JUMP JUMPDEST PUSH1 0x0 PUSH1 0x5 DUP1 SLOAD SWAP1 POP SWAP1 POP SWAP1 JUMP JUMPDEST PUSH1 0x2 PUSH1 0x0 SWAP1 SLOAD SWAP1 PUSH2 0x100 EXP SWAP1 DIV PUSH20 0xFFFFFFFFFFFFFFFFFFFFFFFFFFFFFFFFFFFFFFFF AND DUP2 JUMP JUMPDEST PUSH1 0x0 DUP1 PUSH2 0x5C3 PUSH2 0xF41 JUMP JUMPDEST SWAP1 POP PUSH1 0x3 PUSH1 0x14 SWAP1 SLOAD SWAP1 PUSH2 0x100 EXP SWAP1 DIV PUSH1 0xFF AND ISZERO DUP1 ISZERO PUSH2 0x60E JUMPI POP DUP1 PUSH20 0xFFFFFFFFFFFFFFFFFFFFFFFFFFFFFFFFFFFFFFFF AND CALLER PUSH20 0xFFFFFFFFFFFFFFFFFFFFFFFFFFFFFFFFFFFFFFFF AND EQ ISZERO JUMPDEST ISZERO PUSH2 0x650 JUMPI CALLER PUSH1 0x40 MLOAD PUSH32 0x3A43E98000000000000000000000000000000000000000000000000000000000 DUP2 MSTORE PUSH1 0x4 ADD PUSH2 0x647 SWAP2 SWAP1 PUSH2 0x232B JUMP JUMPDEST PUSH1 0x40 MLOAD DUP1 SWAP2 SUB SWAP1 REVERT JUMPDEST PUSH1 0x0 PUSH1 0x2 PUSH1 0x0 SWAP1 SLOAD SWAP1 PUSH2 0x100 EXP SWAP1 DIV PUSH20 0xFFFFFFFFFFFFFFFFFFFFFFFFFFFFFFFFFFFFFFFF AND SWAP1 POP PUSH1 0x0 PUSH20 0xFFFFFFFFFFFFFFFFFFFFFFFFFFFFFFFFFFFFFFFF AND DUP2 PUSH20 0xFFFFFFFFFFFFFFFFFFFFFFFFFFFFFFFFFFFFFFFF AND EQ ISZERO PUSH2 0x6DE JUMPI PUSH1 0x40 MLOAD PUSH32 0xA2D3F3E400000000000000000000000000000000000000000000000000000000 DUP2 MSTORE PUSH1 0x4 ADD PUSH1 0x40 MLOAD DUP1 SWAP2 SUB SWAP1 REVERT JUMPDEST PUSH2 0x6F2 DUP7 PUSH1 0x9 PUSH2 0x164C SWAP1 SWAP2 SWAP1 PUSH4 0xFFFFFFFF AND JUMP JUMPDEST PUSH2 0x733 JUMPI DUP6 PUSH1 0x40 MLOAD PUSH32 0x8E888EF300000000000000000000000000000000000000000000000000000000 DUP2 MSTORE PUSH1 0x4 ADD PUSH2 0x72A SWAP2 SWAP1 PUSH2 0x2611 JUMP JUMPDEST PUSH1 0x40 MLOAD DUP1 SWAP2 SUB SWAP1 REVERT JUMPDEST DUP6 PUSH20 0xFFFFFFFFFFFFFFFFFFFFFFFFFFFFFFFFFFFFFFFF AND DUP8 PUSH20 0xFFFFFFFFFFFFFFFFFFFFFFFFFFFFFFFFFFFFFFFF AND EQ ISZERO PUSH2 0x7A4 JUMPI DUP7 PUSH1 0x40 MLOAD PUSH32 0x2F9B185300000000000000000000000000000000000000000000000000000000 DUP2 MSTORE PUSH1 0x4 ADD PUSH2 0x79B SWAP2 SWAP1 PUSH2 0x2611 JUMP JUMPDEST PUSH1 0x40 MLOAD DUP1 SWAP2 SUB SWAP1 REVERT JUMPDEST PUSH2 0x7B2 DUP6 PUSH3 0xFFFFFF AND PUSH2 0x167C JUMP JUMPDEST POP PUSH1 0x0 DUP1 PUSH2 0x7C0 DUP10 DUP10 PUSH2 0x16E9 JUMP JUMPDEST SWAP2 POP SWAP2 POP PUSH1 0x0 PUSH20 0xFFFFFFFFFFFFFFFFFFFFFFFFFFFFFFFFFFFFFFFF AND DUP3 PUSH20 0xFFFFFFFFFFFFFFFFFFFFFFFFFFFFFFFFFFFFFFFF AND EQ ISZERO PUSH2 0x82B JUMPI PUSH1 0x40 MLOAD PUSH32 0x95CF3EE400000000000000000000000000000000000000000000000000000000 DUP2 MSTORE PUSH1 0x4 ADD PUSH1 0x40 MLOAD DUP1 SWAP2 SUB SWAP1 REVERT JUMPDEST PUSH1 0x0 PUSH20 0xFFFFFFFFFFFFFFFFFFFFFFFFFFFFFFFFFFFFFFFF AND PUSH1 0x6 PUSH1 0x0 DUP5 PUSH20 0xFFFFFFFFFFFFFFFFFFFFFFFFFFFFFFFFFFFFFFFF AND PUSH20 0xFFFFFFFFFFFFFFFFFFFFFFFFFFFFFFFFFFFFFFFF AND DUP2 MSTORE PUSH1 0x20 ADD SWAP1 DUP2 MSTORE PUSH1 0x20 ADD PUSH1 0x0 KECCAK256 PUSH1 0x0 DUP4 PUSH20 0xFFFFFFFFFFFFFFFFFFFFFFFFFFFFFFFFFFFFFFFF AND PUSH20 0xFFFFFFFFFFFFFFFFFFFFFFFFFFFFFFFFFFFFFFFF AND DUP2 MSTORE PUSH1 0x20 ADD SWAP1 DUP2 MSTORE PUSH1 0x20 ADD PUSH1 0x0 KECCAK256 PUSH1 0x0 ADD PUSH1 0x0 SWAP1 SLOAD SWAP1 PUSH2 0x100 EXP SWAP1 DIV PUSH20 0xFFFFFFFFFFFFFFFFFFFFFFFFFFFFFFFFFFFFFFFF AND PUSH20 0xFFFFFFFFFFFFFFFFFFFFFFFFFFFFFFFFFFFFFFFF AND EQ PUSH2 0x940 JUMPI DUP9 DUP9 PUSH1 0x1 PUSH1 0x40 MLOAD PUSH32 0xCB27A43500000000000000000000000000000000000000000000000000000000 DUP2 MSTORE PUSH1 0x4 ADD PUSH2 0x937 SWAP4 SWAP3 SWAP2 SWAP1 PUSH2 0x2667 JUMP JUMPDEST PUSH1 0x40 MLOAD DUP1 SWAP2 SUB SWAP1 REVERT JUMPDEST PUSH1 0x0 DUP3 DUP3 PUSH1 0x40 MLOAD PUSH1 0x20 ADD PUSH2 0x955 SWAP3 SWAP2 SWAP1 PUSH2 0x269E JUMP JUMPDEST PUSH1 0x40 MLOAD PUSH1 0x20 DUP2 DUP4 SUB SUB DUP2 MSTORE SWAP1 PUSH1 0x40 MSTORE DUP1 MLOAD SWAP1 PUSH1 0x20 ADD KECCAK256 SWAP1 POP PUSH2 0x977 DUP5 DUP3 PUSH2 0x1738 JUMP JUMPDEST SWAP6 POP DUP6 PUSH20 0xFFFFFFFFFFFFFFFFFFFFFFFFFFFFFFFFFFFFFFFF AND PUSH4 0x8C6ABC0F DUP12 DUP12 DUP12 DUP12 PUSH1 0x40 MLOAD DUP6 PUSH4 0xFFFFFFFF AND PUSH1 0xE0 SHL DUP2 MSTORE PUSH1 0x4 ADD PUSH2 0x9B8 SWAP5 SWAP4 SWAP3 SWAP2 SWAP1 PUSH2 0x26D6 JUMP JUMPDEST PUSH1 0x0 PUSH1 0x40 MLOAD DUP1 DUP4 SUB DUP2 PUSH1 0x0 DUP8 DUP1 EXTCODESIZE ISZERO DUP1 ISZERO PUSH2 0x9D2 JUMPI PUSH1 0x0 DUP1 REVERT JUMPDEST POP GAS CALL ISZERO DUP1 ISZERO PUSH2 0x9E6 JUMPI RETURNDATASIZE PUSH1 0x0 DUP1 RETURNDATACOPY RETURNDATASIZE PUSH1 0x0 REVERT JUMPDEST POP POP POP POP PUSH1 0x40 MLOAD DUP1 PUSH1 0x40 ADD PUSH1 0x40 MSTORE DUP1 DUP8 PUSH20 0xFFFFFFFFFFFFFFFFFFFFFFFFFFFFFFFFFFFFFFFF AND DUP2 MSTORE PUSH1 0x20 ADD DUP7 PUSH20 0xFFFFFFFFFFFFFFFFFFFFFFFFFFFFFFFFFFFFFFFF AND CALLER PUSH20 0xFFFFFFFFFFFFFFFFFFFFFFFFFFFFFFFFFFFFFFFF AND EQ ISZERO ISZERO DUP2 MSTORE POP PUSH1 0x6 PUSH1 0x0 DUP6 PUSH20 0xFFFFFFFFFFFFFFFFFFFFFFFFFFFFFFFFFFFFFFFF AND PUSH20 0xFFFFFFFFFFFFFFFFFFFFFFFFFFFFFFFFFFFFFFFF AND DUP2 MSTORE PUSH1 0x20 ADD SWAP1 DUP2 MSTORE PUSH1 0x20 ADD PUSH1 0x0 KECCAK256 PUSH1 0x0 DUP5 PUSH20 0xFFFFFFFFFFFFFFFFFFFFFFFFFFFFFFFFFFFFFFFF AND PUSH20 0xFFFFFFFFFFFFFFFFFFFFFFFFFFFFFFFFFFFFFFFF AND DUP2 MSTORE PUSH1 0x20 ADD SWAP1 DUP2 MSTORE PUSH1 0x20 ADD PUSH1 0x0 KECCAK256 PUSH1 0x0 DUP3 ADD MLOAD DUP2 PUSH1 0x0 ADD PUSH1 0x0 PUSH2 0x100 EXP DUP2 SLOAD DUP2 PUSH20 0xFFFFFFFFFFFFFFFFFFFFFFFFFFFFFFFFFFFFFFFF MUL NOT AND SWAP1 DUP4 PUSH20 0xFFFFFFFFFFFFFFFFFFFFFFFFFFFFFFFFFFFFFFFF AND MUL OR SWAP1 SSTORE POP PUSH1 0x20 DUP3 ADD MLOAD DUP2 PUSH1 0x0 ADD PUSH1 0x14 PUSH2 0x100 EXP DUP2 SLOAD DUP2 PUSH1 0xFF MUL NOT AND SWAP1 DUP4 ISZERO ISZERO MUL OR SWAP1 SSTORE POP SWAP1 POP POP PUSH1 0x5 DUP7 SWAP1 DUP1 PUSH1 0x1 DUP2 SLOAD ADD DUP1 DUP3 SSTORE DUP1 SWAP2 POP POP PUSH1 0x1 SWAP1 SUB SWAP1 PUSH1 0x0 MSTORE PUSH1 0x20 PUSH1 0x0 KECCAK256 ADD PUSH1 0x0 SWAP1 SWAP2 SWAP1 SWAP2 SWAP1 SWAP2 PUSH2 0x100 EXP DUP2 SLOAD DUP2 PUSH20 0xFFFFFFFFFFFFFFFFFFFFFFFFFFFFFFFFFFFFFFFF MUL NOT AND SWAP1 DUP4 PUSH20 0xFFFFFFFFFFFFFFFFFFFFFFFFFFFFFFFFFFFFFFFF AND MUL OR SWAP1 SSTORE POP DUP9 PUSH20 0xFFFFFFFFFFFFFFFFFFFFFFFFFFFFFFFFFFFFFFFF AND DUP11 PUSH20 0xFFFFFFFFFFFFFFFFFFFFFFFFFFFFFFFFFFFFFFFF AND PUSH32 0x612FDD9B533D1CA33088DCBCA9AD3186EEADC9893E63715B8A783040D729CD6A DUP9 PUSH1 0x1 PUSH1 0x5 DUP1 SLOAD SWAP1 POP PUSH2 0xBF0 SWAP2 SWAP1 PUSH2 0x274A JUMP JUMPDEST PUSH1 0x40 MLOAD PUSH2 0xBFE SWAP3 SWAP2 SWAP1 PUSH2 0x277E JUMP JUMPDEST PUSH1 0x40 MLOAD DUP1 SWAP2 SUB SWAP1 LOG3 POP POP POP POP POP SWAP5 SWAP4 POP POP POP POP JUMP JUMPDEST PUSH1 0x0 DUP1 SLOAD SWAP1 PUSH2 0x100 EXP SWAP1 DIV PUSH20 0xFFFFFFFFFFFFFFFFFFFFFFFFFFFFFFFFFFFFFFFF AND PUSH20 0xFFFFFFFFFFFFFFFFFFFFFFFFFFFFFFFFFFFFFFFF AND CALLER PUSH20 0xFFFFFFFFFFFFFFFFFFFFFFFFFFFFFFFFFFFFFFFF AND EQ PUSH2 0xC98 JUMPI PUSH1 0x40 MLOAD PUSH32 0x9F216C1300000000000000000000000000000000000000000000000000000000 DUP2 MSTORE PUSH1 0x4 ADD PUSH1 0x40 MLOAD DUP1 SWAP2 SUB SWAP1 REVERT JUMPDEST PUSH2 0xCAC DUP2 PUSH1 0x9 PUSH2 0x17F5 SWAP1 SWAP2 SWAP1 PUSH4 0xFFFFFFFF AND JUMP JUMPDEST PUSH2 0xCED JUMPI DUP1 PUSH1 0x40 MLOAD PUSH32 0x3CE0AD900000000000000000000000000000000000000000000000000000000 DUP2 MSTORE PUSH1 0x4 ADD PUSH2 0xCE4 SWAP2 SWAP1 PUSH2 0x2611 JUMP JUMPDEST PUSH1 0x40 MLOAD DUP1 SWAP2 SUB SWAP1 REVERT JUMPDEST DUP1 PUSH20 0xFFFFFFFFFFFFFFFFFFFFFFFFFFFFFFFFFFFFFFFF AND PUSH32 0x84CC2115995684DCB0CD3D3A9565E3D32F075DE81DB70C8DC3A719B2A47AF67E PUSH1 0x40 MLOAD PUSH1 0x40 MLOAD DUP1 SWAP2 SUB SWAP1 LOG2 POP JUMP JUMPDEST PUSH1 0x3 PUSH1 0x14 SWAP1 SLOAD SWAP1 PUSH2 0x100 EXP SWAP1 DIV PUSH1 0xFF AND DUP2 JUMP JUMPDEST PUSH1 0x0 DUP1 SLOAD SWAP1 PUSH2 0x100 EXP SWAP1 DIV PUSH20 0xFFFFFFFFFFFFFFFFFFFFFFFFFFFFFFFFFFFFFFFF AND PUSH20 0xFFFFFFFFFFFFFFFFFFFFFFFFFFFFFFFFFFFFFFFF AND CALLER PUSH20 0xFFFFFFFFFFFFFFFFFFFFFFFFFFFFFFFFFFFFFFFF AND EQ PUSH2 0xDCB JUMPI PUSH1 0x40 MLOAD PUSH32 0x9F216C1300000000000000000000000000000000000000000000000000000000 DUP2 MSTORE PUSH1 0x4 ADD PUSH1 0x40 MLOAD DUP1 SWAP2 SUB SWAP1 REVERT JUMPDEST PUSH1 0x0 PUSH20 0xFFFFFFFFFFFFFFFFFFFFFFFFFFFFFFFFFFFFFFFF AND PUSH1 0x1 PUSH1 0x0 SWAP1 SLOAD SWAP1 PUSH2 0x100 EXP SWAP1 DIV PUSH20 0xFFFFFFFFFFFFFFFFFFFFFFFFFFFFFFFFFFFFFFFF AND PUSH20 0xFFFFFFFFFFFFFFFFFFFFFFFFFFFFFFFFFFFFFFFF AND EQ ISZERO PUSH2 0xE54 JUMPI PUSH1 0x40 MLOAD PUSH32 0xECFAD6BF00000000000000000000000000000000000000000000000000000000 DUP2 MSTORE PUSH1 0x4 ADD PUSH1 0x40 MLOAD DUP1 SWAP2 SUB SWAP1 REVERT JUMPDEST PUSH2 0xE5E PUSH1 0x0 PUSH2 0x1825 JUMP JUMPDEST JUMP JUMPDEST PUSH1 0x0 DUP1 SLOAD SWAP1 PUSH2 0x100 EXP SWAP1 DIV PUSH20 0xFFFFFFFFFFFFFFFFFFFFFFFFFFFFFFFFFFFFFFFF AND PUSH20 0xFFFFFFFFFFFFFFFFFFFFFFFFFFFFFFFFFFFFFFFF AND CALLER PUSH20 0xFFFFFFFFFFFFFFFFFFFFFFFFFFFFFFFFFFFFFFFF AND EQ PUSH2 0xEE5 JUMPI PUSH1 0x40 MLOAD PUSH32 0x9F216C1300000000000000000000000000000000000000000000000000000000 DUP2 MSTORE PUSH1 0x4 ADD PUSH1 0x40 MLOAD DUP1 SWAP2 SUB SWAP1 REVERT JUMPDEST PUSH2 0xEEF PUSH1 0x0 PUSH2 0x18AC JUMP JUMPDEST JUMP JUMPDEST PUSH1 0x5 DUP2 DUP2 SLOAD DUP2 LT PUSH2 0xF01 JUMPI PUSH1 0x0 DUP1 REVERT JUMPDEST SWAP1 PUSH1 0x0 MSTORE PUSH1 0x20 PUSH1 0x0 KECCAK256 ADD PUSH1 0x0 SWAP2 POP SLOAD SWAP1 PUSH2 0x100 EXP SWAP1 DIV PUSH20 0xFFFFFFFFFFFFFFFFFFFFFFFFFFFFFFFFFFFFFFFF AND DUP2 JUMP JUMPDEST PUSH1 0x0 PUSH2 0xF3C PUSH1 0x9 PUSH2 0x19B2 JUMP JUMPDEST SWAP1 POP SWAP1 JUMP JUMPDEST PUSH1 0x0 DUP1 PUSH1 0x0 SWAP1 SLOAD SWAP1 PUSH2 0x100 EXP SWAP1 DIV PUSH20 0xFFFFFFFFFFFFFFFFFFFFFFFFFFFFFFFFFFFFFFFF AND SWAP1 POP SWAP1 JUMP JUMPDEST PUSH1 0x0 DUP1 SLOAD SWAP1 PUSH2 0x100 EXP SWAP1 DIV PUSH20 0xFFFFFFFFFFFFFFFFFFFFFFFFFFFFFFFFFFFFFFFF AND PUSH20 0xFFFFFFFFFFFFFFFFFFFFFFFFFFFFFFFFFFFFFFFF AND CALLER PUSH20 0xFFFFFFFFFFFFFFFFFFFFFFFFFFFFFFFFFFFFFFFF AND EQ PUSH2 0xFEF JUMPI PUSH1 0x40 MLOAD PUSH32 0x9F216C1300000000000000000000000000000000000000000000000000000000 DUP2 MSTORE PUSH1 0x4 ADD PUSH1 0x40 MLOAD DUP1 SWAP2 SUB SWAP1 REVERT JUMPDEST ADDRESS PUSH20 0xFFFFFFFFFFFFFFFFFFFFFFFFFFFFFFFFFFFFFFFF AND DUP2 PUSH20 0xFFFFFFFFFFFFFFFFFFFFFFFFFFFFFFFFFFFFFFFF AND PUSH4 0xC45A0155 PUSH1 0x40 MLOAD DUP2 PUSH4 0xFFFFFFFF AND PUSH1 0xE0 SHL DUP2 MSTORE PUSH1 0x4 ADD PUSH1 0x20 PUSH1 0x40 MLOAD DUP1 DUP4 SUB DUP2 DUP7 GAS STATICCALL ISZERO DUP1 ISZERO PUSH2 0x1051 JUMPI RETURNDATASIZE PUSH1 0x0 DUP1 RETURNDATACOPY RETURNDATASIZE PUSH1 0x0 REVERT JUMPDEST POP POP POP POP PUSH1 0x40 MLOAD RETURNDATASIZE PUSH1 0x1F NOT PUSH1 0x1F DUP3 ADD AND DUP3 ADD DUP1 PUSH1 0x40 MSTORE POP DUP2 ADD SWAP1 PUSH2 0x1075 SWAP2 SWAP1 PUSH2 0x27E5 JUMP JUMPDEST PUSH20 0xFFFFFFFFFFFFFFFFFFFFFFFFFFFFFFFFFFFFFFFF AND EQ PUSH2 0x10CD JUMPI DUP1 PUSH1 0x40 MLOAD PUSH32 0x147CE15E00000000000000000000000000000000000000000000000000000000 DUP2 MSTORE PUSH1 0x4 ADD PUSH2 0x10C4 SWAP2 SWAP1 PUSH2 0x232B JUMP JUMPDEST PUSH1 0x40 MLOAD DUP1 SWAP2 SUB SWAP1 REVERT JUMPDEST PUSH1 0x0 PUSH1 0x2 PUSH1 0x0 SWAP1 SLOAD SWAP1 PUSH2 0x100 EXP SWAP1 DIV PUSH20 0xFFFFFFFFFFFFFFFFFFFFFFFFFFFFFFFFFFFFFFFF AND SWAP1 POP DUP2 PUSH20 0xFFFFFFFFFFFFFFFFFFFFFFFFFFFFFFFFFFFFFFFF AND DUP2 PUSH20 0xFFFFFFFFFFFFFFFFFFFFFFFFFFFFFFFFFFFFFFFF AND EQ ISZERO PUSH2 0x1165 JUMPI DUP2 PUSH1 0x40 MLOAD PUSH32 0x6F69DCA800000000000000000000000000000000000000000000000000000000 DUP2 MSTORE PUSH1 0x4 ADD PUSH2 0x115C SWAP2 SWAP1 PUSH2 0x232B JUMP JUMPDEST PUSH1 0x40 MLOAD DUP1 SWAP2 SUB SWAP1 REVERT JUMPDEST DUP2 PUSH1 0x2 PUSH1 0x0 PUSH2 0x100 EXP DUP2 SLOAD DUP2 PUSH20 0xFFFFFFFFFFFFFFFFFFFFFFFFFFFFFFFFFFFFFFFF MUL NOT AND SWAP1 DUP4 PUSH20 0xFFFFFFFFFFFFFFFFFFFFFFFFFFFFFFFFFFFFFFFF AND MUL OR SWAP1 SSTORE POP PUSH32 0x900D0E3D359F50E4F923ECDC06B401E07DBB9F485E17B07BCFC91A13000B277E DUP2 DUP4 PUSH1 0x40 MLOAD PUSH2 0x11D7 SWAP3 SWAP2 SWAP1 PUSH2 0x2812 JUMP JUMPDEST PUSH1 0x40 MLOAD DUP1 SWAP2 SUB SWAP1 LOG1 POP POP JUMP JUMPDEST PUSH8 0x16345785D8A0000 DUP2 JUMP JUMPDEST PUSH1 0x0 DUP1 SLOAD SWAP1 PUSH2 0x100 EXP SWAP1 DIV PUSH20 0xFFFFFFFFFFFFFFFFFFFFFFFFFFFFFFFFFFFFFFFF AND PUSH20 0xFFFFFFFFFFFFFFFFFFFFFFFFFFFFFFFFFFFFFFFF AND CALLER PUSH20 0xFFFFFFFFFFFFFFFFFFFFFFFFFFFFFFFFFFFFFFFF AND EQ PUSH2 0x1274 JUMPI PUSH1 0x40 MLOAD PUSH32 0x9F216C1300000000000000000000000000000000000000000000000000000000 DUP2 MSTORE PUSH1 0x4 ADD PUSH1 0x40 MLOAD DUP1 SWAP2 SUB SWAP1 REVERT JUMPDEST PUSH1 0x0 PUSH20 0xFFFFFFFFFFFFFFFFFFFFFFFFFFFFFFFFFFFFFFFF AND DUP2 PUSH20 0xFFFFFFFFFFFFFFFFFFFFFFFFFFFFFFFFFFFFFFFF AND EQ ISZERO PUSH2 0x12DB JUMPI PUSH1 0x40 MLOAD PUSH32 0x91F3851500000000000000000000000000000000000000000000000000000000 DUP2 MSTORE PUSH1 0x4 ADD PUSH1 0x40 MLOAD DUP1 SWAP2 SUB SWAP1 REVERT JUMPDEST PUSH1 0x0 PUSH20 0xFFFFFFFFFFFFFFFFFFFFFFFFFFFFFFFFFFFFFFFF AND PUSH1 0x1 PUSH1 0x0 SWAP1 SLOAD SWAP1 PUSH2 0x100 EXP SWAP1 DIV PUSH20 0xFFFFFFFFFFFFFFFFFFFFFFFFFFFFFFFFFFFFFFFF AND PUSH20 0xFFFFFFFFFFFFFFFFFFFFFFFFFFFFFFFFFFFFFFFF AND EQ PUSH2 0x1363 JUMPI PUSH1 0x40 MLOAD PUSH32 0x716B1FBF00000000000000000000000000000000000000000000000000000000 DUP2 MSTORE PUSH1 0x4 ADD PUSH1 0x40 MLOAD DUP1 SWAP2 SUB SWAP1 REVERT JUMPDEST PUSH2 0x136C DUP2 PUSH2 0x1825 JUMP JUMPDEST POP JUMP JUMPDEST PUSH1 0x0 DUP1 SLOAD SWAP1 PUSH2 0x100 EXP SWAP1 DIV PUSH20 0xFFFFFFFFFFFFFFFFFFFFFFFFFFFFFFFFFFFFFFFF AND PUSH20 0xFFFFFFFFFFFFFFFFFFFFFFFFFFFFFFFFFFFFFFFF AND CALLER PUSH20 0xFFFFFFFFFFFFFFFFFFFFFFFFFFFFFFFFFFFFFFFF AND EQ PUSH2 0x13F4 JUMPI PUSH1 0x40 MLOAD PUSH32 0x9F216C1300000000000000000000000000000000000000000000000000000000 DUP2 MSTORE PUSH1 0x4 ADD PUSH1 0x40 MLOAD DUP1 SWAP2 SUB SWAP1 REVERT JUMPDEST PUSH2 0x1408 DUP2 PUSH1 0x9 PUSH2 0x19C7 SWAP1 SWAP2 SWAP1 PUSH4 0xFFFFFFFF AND JUMP JUMPDEST PUSH2 0x1449 JUMPI DUP1 PUSH1 0x40 MLOAD PUSH32 0x8E888EF300000000000000000000000000000000000000000000000000000000 DUP2 MSTORE PUSH1 0x4 ADD PUSH2 0x1440 SWAP2 SWAP1 PUSH2 0x2611 JUMP JUMPDEST PUSH1 0x40 MLOAD DUP1 SWAP2 SUB SWAP1 REVERT JUMPDEST DUP1 PUSH20 0xFFFFFFFFFFFFFFFFFFFFFFFFFFFFFFFFFFFFFFFF AND PUSH32 0xB767739217755D8AF5A2BA75B181A19FA1750F8BB701F09311CB19A90140CB3 PUSH1 0x40 MLOAD PUSH1 0x40 MLOAD DUP1 SWAP2 SUB SWAP1 LOG2 POP JUMP JUMPDEST PUSH1 0x0 PUSH1 0x1 PUSH1 0x0 SWAP1 SLOAD SWAP1 PUSH2 0x100 EXP SWAP1 DIV PUSH20 0xFFFFFFFFFFFFFFFFFFFFFFFFFFFFFFFFFFFFFFFF AND SWAP1 POP SWAP1 JUMP JUMPDEST PUSH1 0x0 DUP1 SLOAD SWAP1 PUSH2 0x100 EXP SWAP1 DIV PUSH20 0xFFFFFFFFFFFFFFFFFFFFFFFFFFFFFFFFFFFFFFFF AND PUSH20 0xFFFFFFFFFFFFFFFFFFFFFFFFFFFFFFFFFFFFFFFF AND CALLER PUSH20 0xFFFFFFFFFFFFFFFFFFFFFFFFFFFFFFFFFFFFFFFF AND EQ PUSH2 0x153E JUMPI PUSH1 0x40 MLOAD PUSH32 0x9F216C1300000000000000000000000000000000000000000000000000000000 DUP2 MSTORE PUSH1 0x4 ADD PUSH1 0x40 MLOAD DUP1 SWAP2 SUB SWAP1 REVERT JUMPDEST PUSH2 0x1547 DUP2 PUSH2 0x19F7 JUMP JUMPDEST POP JUMP JUMPDEST PUSH2 0x1552 PUSH2 0x21B9 JUMP JUMPDEST PUSH2 0x155C DUP4 DUP4 PUSH2 0x1B74 JUMP JUMPDEST SWAP1 POP SWAP3 SWAP2 POP POP JUMP JUMPDEST PUSH1 0x0 PUSH2 0x157A DUP3 PUSH1 0x9 PUSH2 0x1C8E SWAP1 SWAP2 SWAP1 PUSH4 0xFFFFFFFF AND JUMP JUMPDEST SWAP1 POP SWAP2 SWAP1 POP JUMP JUMPDEST PUSH1 0x1 PUSH1 0x0 SWAP1 SLOAD SWAP1 PUSH2 0x100 EXP SWAP1 DIV PUSH20 0xFFFFFFFFFFFFFFFFFFFFFFFFFFFFFFFFFFFFFFFF AND PUSH20 0xFFFFFFFFFFFFFFFFFFFFFFFFFFFFFFFFFFFFFFFF AND CALLER PUSH20 0xFFFFFFFFFFFFFFFFFFFFFFFFFFFFFFFFFFFFFFFF AND EQ ISZERO DUP1 PUSH2 0x160A JUMPI POP PUSH1 0x0 PUSH20 0xFFFFFFFFFFFFFFFFFFFFFFFFFFFFFFFFFFFFFFFF AND CALLER PUSH20 0xFFFFFFFFFFFFFFFFFFFFFFFFFFFFFFFFFFFFFFFF AND EQ JUMPDEST ISZERO PUSH2 0x1641 JUMPI PUSH1 0x40 MLOAD PUSH32 0x7304D01200000000000000000000000000000000000000000000000000000000 DUP2 MSTORE PUSH1 0x4 ADD PUSH1 0x40 MLOAD DUP1 SWAP2 SUB SWAP1 REVERT JUMPDEST PUSH2 0x164A CALLER PUSH2 0x18AC JUMP JUMPDEST JUMP JUMPDEST PUSH1 0x0 PUSH2 0x1674 DUP4 PUSH1 0x0 ADD DUP4 PUSH20 0xFFFFFFFFFFFFFFFFFFFFFFFFFFFFFFFFFFFFFFFF AND PUSH1 0x0 SHL PUSH2 0x1CA8 JUMP JUMPDEST SWAP1 POP SWAP3 SWAP2 POP POP JUMP JUMPDEST PUSH1 0x0 PUSH3 0xFFFFFF DUP1 AND DUP3 GT ISZERO PUSH2 0x16BD JUMPI PUSH1 0x40 MLOAD PUSH32 0x58F62EAC00000000000000000000000000000000000000000000000000000000 DUP2 MSTORE PUSH1 0x4 ADD PUSH1 0x40 MLOAD DUP1 SWAP2 SUB SWAP1 REVERT JUMPDEST PUSH1 0x0 PUSH3 0x800000 DUP4 SUB SWAP1 POP PUSH2 0x16E1 DUP2 PUSH2 0x16D3 PUSH2 0x1CCB JUMP JUMPDEST PUSH2 0x1CF1 SWAP1 SWAP2 SWAP1 PUSH4 0xFFFFFFFF AND JUMP JUMPDEST SWAP2 POP POP SWAP2 SWAP1 POP JUMP JUMPDEST PUSH1 0x0 DUP1 DUP3 PUSH20 0xFFFFFFFFFFFFFFFFFFFFFFFFFFFFFFFFFFFFFFFF AND DUP5 PUSH20 0xFFFFFFFFFFFFFFFFFFFFFFFFFFFFFFFFFFFFFFFF AND GT ISZERO PUSH2 0x172B JUMPI DUP3 DUP5 DUP1 SWAP5 POP DUP2 SWAP6 POP POP POP JUMPDEST DUP4 DUP4 SWAP2 POP SWAP2 POP SWAP3 POP SWAP3 SWAP1 POP JUMP JUMPDEST PUSH1 0x0 PUSH23 0x3D602D80600A3D3981F3363D3D373D3D3D363D73000000 DUP4 PUSH1 0x60 SHL PUSH1 0xE8 SHR OR PUSH1 0x0 MSTORE PUSH15 0x5AF43D82803E903D91602B57FD5BF3 DUP4 PUSH1 0x78 SHL OR PUSH1 0x20 MSTORE DUP2 PUSH1 0x37 PUSH1 0x9 PUSH1 0x0 CREATE2 SWAP1 POP PUSH1 0x0 PUSH20 0xFFFFFFFFFFFFFFFFFFFFFFFFFFFFFFFFFFFFFFFF AND DUP2 PUSH20 0xFFFFFFFFFFFFFFFFFFFFFFFFFFFFFFFFFFFFFFFF AND EQ ISZERO PUSH2 0x17EF JUMPI PUSH1 0x40 MLOAD PUSH32 0x8C379A000000000000000000000000000000000000000000000000000000000 DUP2 MSTORE PUSH1 0x4 ADD PUSH2 0x17E6 SWAP1 PUSH2 0x2898 JUMP JUMPDEST PUSH1 0x40 MLOAD DUP1 SWAP2 SUB SWAP1 REVERT JUMPDEST SWAP3 SWAP2 POP POP JUMP JUMPDEST PUSH1 0x0 PUSH2 0x181D DUP4 PUSH1 0x0 ADD DUP4 PUSH20 0xFFFFFFFFFFFFFFFFFFFFFFFFFFFFFFFFFFFFFFFF AND PUSH1 0x0 SHL PUSH2 0x1FF9 JUMP JUMPDEST SWAP1 POP SWAP3 SWAP2 POP POP JUMP JUMPDEST DUP1 PUSH1 0x1 PUSH1 0x0 PUSH2 0x100 EXP DUP2 SLOAD DUP2 PUSH20 0xFFFFFFFFFFFFFFFFFFFFFFFFFFFFFFFFFFFFFFFF MUL NOT AND SWAP1 DUP4 PUSH20 0xFFFFFFFFFFFFFFFFFFFFFFFFFFFFFFFFFFFFFFFF AND MUL OR SWAP1 SSTORE POP DUP1 PUSH20 0xFFFFFFFFFFFFFFFFFFFFFFFFFFFFFFFFFFFFFFFF AND PUSH32 0x68F49B346B94582A8B5F9D10E3FE3365318FE8F191FF8DCE7C59C6CAD06B02F5 PUSH1 0x40 MLOAD PUSH1 0x40 MLOAD DUP1 SWAP2 SUB SWAP1 LOG2 POP JUMP JUMPDEST PUSH1 0x0 DUP1 PUSH1 0x0 SWAP1 SLOAD SWAP1 PUSH2 0x100 EXP SWAP1 DIV PUSH20 0xFFFFFFFFFFFFFFFFFFFFFFFFFFFFFFFFFFFFFFFF AND SWAP1 POP DUP2 PUSH1 0x0 DUP1 PUSH2 0x100 EXP DUP2 SLOAD DUP2 PUSH20 0xFFFFFFFFFFFFFFFFFFFFFFFFFFFFFFFFFFFFFFFF MUL NOT AND SWAP1 DUP4 PUSH20 0xFFFFFFFFFFFFFFFFFFFFFFFFFFFFFFFFFFFFFFFF AND MUL OR SWAP1 SSTORE POP PUSH1 0x0 PUSH1 0x1 PUSH1 0x0 PUSH2 0x100 EXP DUP2 SLOAD DUP2 PUSH20 0xFFFFFFFFFFFFFFFFFFFFFFFFFFFFFFFFFFFFFFFF MUL NOT AND SWAP1 DUP4 PUSH20 0xFFFFFFFFFFFFFFFFFFFFFFFFFFFFFFFFFFFFFFFF AND MUL OR SWAP1 SSTORE POP DUP2 PUSH20 0xFFFFFFFFFFFFFFFFFFFFFFFFFFFFFFFFFFFFFFFF AND DUP2 PUSH20 0xFFFFFFFFFFFFFFFFFFFFFFFFFFFFFFFFFFFFFFFF AND PUSH32 0x8BE0079C531659141344CD1FD0A4F28419497F9722A3DAAFE3B4186F6B6457E0 PUSH1 0x40 MLOAD PUSH1 0x40 MLOAD DUP1 SWAP2 SUB SWAP1 LOG3 POP POP JUMP JUMPDEST PUSH1 0x0 PUSH2 0x19C0 DUP3 PUSH1 0x0 ADD PUSH2 0x2069 JUMP JUMPDEST SWAP1 POP SWAP2 SWAP1 POP JUMP JUMPDEST PUSH1 0x0 PUSH2 0x19EF DUP4 PUSH1 0x0 ADD DUP4 PUSH20 0xFFFFFFFFFFFFFFFFFFFFFFFFFFFFFFFFFFFFFFFF AND PUSH1 0x0 SHL PUSH2 0x207A JUMP JUMPDEST SWAP1 POP SWAP3 SWAP2 POP POP JUMP JUMPDEST PUSH1 0x0 PUSH20 0xFFFFFFFFFFFFFFFFFFFFFFFFFFFFFFFFFFFFFFFF AND DUP2 PUSH20 0xFFFFFFFFFFFFFFFFFFFFFFFFFFFFFFFFFFFFFFFF AND EQ ISZERO PUSH2 0x1A5E JUMPI PUSH1 0x40 MLOAD PUSH32 0x95CF3EE400000000000000000000000000000000000000000000000000000000 DUP2 MSTORE PUSH1 0x4 ADD PUSH1 0x40 MLOAD DUP1 SWAP2 SUB SWAP1 REVERT JUMPDEST PUSH1 0x0 PUSH1 0x3 PUSH1 0x0 SWAP1 SLOAD SWAP1 PUSH2 0x100 EXP SWAP1 DIV PUSH20 0xFFFFFFFFFFFFFFFFFFFFFFFFFFFFFFFFFFFFFFFF AND SWAP1 POP DUP2 PUSH20 0xFFFFFFFFFFFFFFFFFFFFFFFFFFFFFFFFFFFFFFFF AND DUP2 PUSH20 0xFFFFFFFFFFFFFFFFFFFFFFFFFFFFFFFFFFFFFFFF AND EQ ISZERO PUSH2 0x1AF6 JUMPI DUP2 PUSH1 0x40 MLOAD PUSH32 0x4FCEA97100000000000000000000000000000000000000000000000000000000 DUP2 MSTORE PUSH1 0x4 ADD PUSH2 0x1AED SWAP2 SWAP1 PUSH2 0x232B JUMP JUMPDEST PUSH1 0x40 MLOAD DUP1 SWAP2 SUB SWAP1 REVERT JUMPDEST DUP2 PUSH1 0x3 PUSH1 0x0 PUSH2 0x100 EXP DUP2 SLOAD DUP2 PUSH20 0xFFFFFFFFFFFFFFFFFFFFFFFFFFFFFFFFFFFFFFFF MUL NOT AND SWAP1 DUP4 PUSH20 0xFFFFFFFFFFFFFFFFFFFFFFFFFFFFFFFFFFFFFFFF AND MUL OR SWAP1 SSTORE POP PUSH32 0x15D80A013F22151BC7246E3BC132E12828CDE19DE98870475E3FA70840152721 DUP2 DUP4 PUSH1 0x40 MLOAD PUSH2 0x1B68 SWAP3 SWAP2 SWAP1 PUSH2 0x2812 JUMP JUMPDEST PUSH1 0x40 MLOAD DUP1 SWAP2 SUB SWAP1 LOG1 POP POP JUMP JUMPDEST PUSH2 0x1B7C PUSH2 0x21B9 JUMP JUMPDEST PUSH2 0x1B86 DUP4 DUP4 PUSH2 0x16E9 JUMP JUMPDEST DUP1 SWAP4 POP DUP2 SWAP5 POP POP POP PUSH1 0x6 PUSH1 0x0 DUP5 PUSH20 0xFFFFFFFFFFFFFFFFFFFFFFFFFFFFFFFFFFFFFFFF AND PUSH20 0xFFFFFFFFFFFFFFFFFFFFFFFFFFFFFFFFFFFFFFFF AND DUP2 MSTORE PUSH1 0x20 ADD SWAP1 DUP2 MSTORE PUSH1 0x20 ADD PUSH1 0x0 KECCAK256 PUSH1 0x0 DUP4 PUSH20 0xFFFFFFFFFFFFFFFFFFFFFFFFFFFFFFFFFFFFFFFF AND PUSH20 0xFFFFFFFFFFFFFFFFFFFFFFFFFFFFFFFFFFFFFFFF AND DUP2 MSTORE PUSH1 0x20 ADD SWAP1 DUP2 MSTORE PUSH1 0x20 ADD PUSH1 0x0 KECCAK256 PUSH1 0x40 MLOAD DUP1 PUSH1 0x40 ADD PUSH1 0x40 MSTORE SWAP1 DUP2 PUSH1 0x0 DUP3 ADD PUSH1 0x0 SWAP1 SLOAD SWAP1 PUSH2 0x100 EXP SWAP1 DIV PUSH20 0xFFFFFFFFFFFFFFFFFFFFFFFFFFFFFFFFFFFFFFFF AND PUSH20 0xFFFFFFFFFFFFFFFFFFFFFFFFFFFFFFFFFFFFFFFF AND PUSH20 0xFFFFFFFFFFFFFFFFFFFFFFFFFFFFFFFFFFFFFFFF AND DUP2 MSTORE PUSH1 0x20 ADD PUSH1 0x0 DUP3 ADD PUSH1 0x14 SWAP1 SLOAD SWAP1 PUSH2 0x100 EXP SWAP1 DIV PUSH1 0xFF AND ISZERO ISZERO ISZERO ISZERO DUP2 MSTORE POP POP SWAP1 POP SWAP3 SWAP2 POP POP JUMP JUMPDEST PUSH1 0x0 PUSH2 0x1C9D DUP4 PUSH1 0x0 ADD DUP4 PUSH2 0x218E JUMP JUMPDEST PUSH1 0x0 SHR SWAP1 POP SWAP3 SWAP2 POP POP JUMP JUMPDEST PUSH1 0x0 DUP1 DUP4 PUSH1 0x1 ADD PUSH1 0x0 DUP5 DUP2 MSTORE PUSH1 0x20 ADD SWAP1 DUP2 MSTORE PUSH1 0x20 ADD PUSH1 0x0 KECCAK256 SLOAD EQ ISZERO SWAP1 POP SWAP3 SWAP2 POP POP JUMP JUMPDEST PUSH1 0x0 PUSH2 0x2710 PUSH1 0x80 PUSH1 0x1 SWAP1 SHL DUP2 PUSH2 0x1CE4 JUMPI PUSH2 0x1CE3 PUSH2 0x28B8 JUMP JUMPDEST JUMPDEST DIV PUSH1 0x80 PUSH1 0x1 SWAP1 SHL ADD SWAP1 POP SWAP1 JUMP JUMPDEST PUSH1 0x0 DUP1 PUSH1 0x0 DUP1 DUP5 EQ ISZERO PUSH2 0x1D0D JUMPI PUSH1 0x80 PUSH1 0x1 SWAP1 SHL SWAP3 POP POP POP PUSH2 0x1FF3 JUMP JUMPDEST DUP4 SWAP1 POP PUSH1 0x0 DUP2 SLT ISZERO PUSH2 0x1D24 JUMPI DUP1 PUSH1 0x0 SUB SWAP1 POP DUP2 ISZERO SWAP2 POP JUMPDEST PUSH3 0x100000 DUP2 LT ISZERO PUSH2 0x1F6E JUMPI PUSH1 0x80 PUSH1 0x1 SWAP1 SHL SWAP3 POP DUP5 PUSH16 0xFFFFFFFFFFFFFFFFFFFFFFFFFFFFFFFF DUP7 GT ISZERO PUSH2 0x1D5C JUMPI DUP1 PUSH1 0x0 NOT DIV SWAP1 POP DUP3 ISZERO SWAP3 POP JUMPDEST PUSH1 0x1 DUP3 AND ISZERO PUSH2 0x1D6E JUMPI DUP1 DUP5 MUL PUSH1 0x80 SHR SWAP4 POP JUMPDEST DUP1 DUP2 MUL PUSH1 0x80 SHR SWAP1 POP PUSH1 0x2 DUP3 AND ISZERO PUSH2 0x1D88 JUMPI DUP1 DUP5 MUL PUSH1 0x80 SHR SWAP4 POP JUMPDEST DUP1 DUP2 MUL PUSH1 0x80 SHR SWAP1 POP PUSH1 0x4 DUP3 AND ISZERO PUSH2 0x1DA2 JUMPI DUP1 DUP5 MUL PUSH1 0x80 SHR SWAP4 POP JUMPDEST DUP1 DUP2 MUL PUSH1 0x80 SHR SWAP1 POP PUSH1 0x8 DUP3 AND ISZERO PUSH2 0x1DBC JUMPI DUP1 DUP5 MUL PUSH1 0x80 SHR SWAP4 POP JUMPDEST DUP1 DUP2 MUL PUSH1 0x80 SHR SWAP1 POP PUSH1 0x10 DUP3 AND ISZERO PUSH2 0x1DD6 JUMPI DUP1 DUP5 MUL PUSH1 0x80 SHR SWAP4 POP JUMPDEST DUP1 DUP2 MUL PUSH1 0x80 SHR SWAP1 POP PUSH1 0x20 DUP3 AND ISZERO PUSH2 0x1DF0 JUMPI DUP1 DUP5 MUL PUSH1 0x80 SHR SWAP4 POP JUMPDEST DUP1 DUP2 MUL PUSH1 0x80 SHR SWAP1 POP PUSH1 0x40 DUP3 AND ISZERO PUSH2 0x1E0A JUMPI DUP1 DUP5 MUL PUSH1 0x80 SHR SWAP4 POP JUMPDEST DUP1 DUP2 MUL PUSH1 0x80 SHR SWAP1 POP PUSH1 0x80 DUP3 AND ISZERO PUSH2 0x1E24 JUMPI DUP1 DUP5 MUL PUSH1 0x80 SHR SWAP4 POP JUMPDEST DUP1 DUP2 MUL PUSH1 0x80 SHR SWAP1 POP PUSH2 0x100 DUP3 AND ISZERO PUSH2 0x1E3F JUMPI DUP1 DUP5 MUL PUSH1 0x80 SHR SWAP4 POP JUMPDEST DUP1 DUP2 MUL PUSH1 0x80 SHR SWAP1 POP PUSH2 0x200 DUP3 AND ISZERO PUSH2 0x1E5A JUMPI DUP1 DUP5 MUL PUSH1 0x80 SHR SWAP4 POP JUMPDEST DUP1 DUP2 MUL PUSH1 0x80 SHR SWAP1 POP PUSH2 0x400 DUP3 AND ISZERO PUSH2 0x1E75 JUMPI DUP1 DUP5 MUL PUSH1 0x80 SHR SWAP4 POP JUMPDEST DUP1 DUP2 MUL PUSH1 0x80 SHR SWAP1 POP PUSH2 0x800 DUP3 AND ISZERO PUSH2 0x1E90 JUMPI DUP1 DUP5 MUL PUSH1 0x80 SHR SWAP4 POP JUMPDEST DUP1 DUP2 MUL PUSH1 0x80 SHR SWAP1 POP PUSH2 0x1000 DUP3 AND ISZERO PUSH2 0x1EAB JUMPI DUP1 DUP5 MUL PUSH1 0x80 SHR SWAP4 POP JUMPDEST DUP1 DUP2 MUL PUSH1 0x80 SHR SWAP1 POP PUSH2 0x2000 DUP3 AND ISZERO PUSH2 0x1EC6 JUMPI DUP1 DUP5 MUL PUSH1 0x80 SHR SWAP4 POP JUMPDEST DUP1 DUP2 MUL PUSH1 0x80 SHR SWAP1 POP PUSH2 0x4000 DUP3 AND ISZERO PUSH2 0x1EE1 JUMPI DUP1 DUP5 MUL PUSH1 0x80 SHR SWAP4 POP JUMPDEST DUP1 DUP2 MUL PUSH1 0x80 SHR SWAP1 POP PUSH2 0x8000 DUP3 AND ISZERO PUSH2 0x1EFC JUMPI DUP1 DUP5 MUL PUSH1 0x80 SHR SWAP4 POP JUMPDEST DUP1 DUP2 MUL PUSH1 0x80 SHR SWAP1 POP PUSH3 0x10000 DUP3 AND ISZERO PUSH2 0x1F18 JUMPI DUP1 DUP5 MUL PUSH1 0x80 SHR SWAP4 POP JUMPDEST DUP1 DUP2 MUL PUSH1 0x80 SHR SWAP1 POP PUSH3 0x20000 DUP3 AND ISZERO PUSH2 0x1F34 JUMPI DUP1 DUP5 MUL PUSH1 0x80 SHR SWAP4 POP JUMPDEST DUP1 DUP2 MUL PUSH1 0x80 SHR SWAP1 POP PUSH3 0x40000 DUP3 AND ISZERO PUSH2 0x1F50 JUMPI DUP1 DUP5 MUL PUSH1 0x80 SHR SWAP4 POP JUMPDEST DUP1 DUP2 MUL PUSH1 0x80 SHR SWAP1 POP PUSH3 0x80000 DUP3 AND ISZERO PUSH2 0x1F6C JUMPI DUP1 DUP5 MUL PUSH1 0x80 SHR SWAP4 POP JUMPDEST POP JUMPDEST PUSH1 0x0 DUP4 EQ ISZERO PUSH2 0x1FB6 JUMPI DUP5 DUP5 PUSH1 0x40 MLOAD PUSH32 0x74E3EB0800000000000000000000000000000000000000000000000000000000 DUP2 MSTORE PUSH1 0x4 ADD PUSH2 0x1FAD SWAP3 SWAP2 SWAP1 PUSH2 0x2900 JUMP JUMPDEST PUSH1 0x40 MLOAD DUP1 SWAP2 SUB SWAP1 REVERT JUMPDEST DUP2 PUSH2 0x1FC1 JUMPI DUP3 PUSH2 0x1FEE JUMP JUMPDEST DUP3 PUSH32 0xFFFFFFFFFFFFFFFFFFFFFFFFFFFFFFFFFFFFFFFFFFFFFFFFFFFFFFFFFFFFFFFF PUSH2 0x1FED SWAP2 SWAP1 PUSH2 0x2929 JUMP JUMPDEST JUMPDEST SWAP3 POP POP POP JUMPDEST SWAP3 SWAP2 POP POP JUMP JUMPDEST PUSH1 0x0 PUSH2 0x2005 DUP4 DUP4 PUSH2 0x1CA8 JUMP JUMPDEST PUSH2 0x205E JUMPI DUP3 PUSH1 0x0 ADD DUP3 SWAP1 DUP1 PUSH1 0x1 DUP2 SLOAD ADD DUP1 DUP3 SSTORE DUP1 SWAP2 POP POP PUSH1 0x1 SWAP1 SUB SWAP1 PUSH1 0x0 MSTORE PUSH1 0x20 PUSH1 0x0 KECCAK256 ADD PUSH1 0x0 SWAP1 SWAP2 SWAP1 SWAP2 SWAP1 SWAP2 POP SSTORE DUP3 PUSH1 0x0 ADD DUP1 SLOAD SWAP1 POP DUP4 PUSH1 0x1 ADD PUSH1 0x0 DUP5 DUP2 MSTORE PUSH1 0x20 ADD SWAP1 DUP2 MSTORE PUSH1 0x20 ADD PUSH1 0x0 KECCAK256 DUP2 SWAP1 SSTORE POP PUSH1 0x1 SWAP1 POP PUSH2 0x2063 JUMP JUMPDEST PUSH1 0x0 SWAP1 POP JUMPDEST SWAP3 SWAP2 POP POP JUMP JUMPDEST PUSH1 0x0 DUP2 PUSH1 0x0 ADD DUP1 SLOAD SWAP1 POP SWAP1 POP SWAP2 SWAP1 POP JUMP JUMPDEST PUSH1 0x0 DUP1 DUP4 PUSH1 0x1 ADD PUSH1 0x0 DUP5 DUP2 MSTORE PUSH1 0x20 ADD SWAP1 DUP2 MSTORE PUSH1 0x20 ADD PUSH1 0x0 KECCAK256 SLOAD SWAP1 POP PUSH1 0x0 DUP2 EQ PUSH2 0x2182 JUMPI PUSH1 0x0 PUSH1 0x1 DUP3 PUSH2 0x20AC SWAP2 SWAP1 PUSH2 0x274A JUMP JUMPDEST SWAP1 POP PUSH1 0x0 PUSH1 0x1 DUP7 PUSH1 0x0 ADD DUP1 SLOAD SWAP1 POP PUSH2 0x20C4 SWAP2 SWAP1 PUSH2 0x274A JUMP JUMPDEST SWAP1 POP DUP2 DUP2 EQ PUSH2 0x2133 JUMPI PUSH1 0x0 DUP7 PUSH1 0x0 ADD DUP3 DUP2 SLOAD DUP2 LT PUSH2 0x20E5 JUMPI PUSH2 0x20E4 PUSH2 0x295A JUMP JUMPDEST JUMPDEST SWAP1 PUSH1 0x0 MSTORE PUSH1 0x20 PUSH1 0x0 KECCAK256 ADD SLOAD SWAP1 POP DUP1 DUP8 PUSH1 0x0 ADD DUP5 DUP2 SLOAD DUP2 LT PUSH2 0x2109 JUMPI PUSH2 0x2108 PUSH2 0x295A JUMP JUMPDEST JUMPDEST SWAP1 PUSH1 0x0 MSTORE PUSH1 0x20 PUSH1 0x0 KECCAK256 ADD DUP2 SWAP1 SSTORE POP DUP4 DUP8 PUSH1 0x1 ADD PUSH1 0x0 DUP4 DUP2 MSTORE PUSH1 0x20 ADD SWAP1 DUP2 MSTORE PUSH1 0x20 ADD PUSH1 0x0 KECCAK256 DUP2 SWAP1 SSTORE POP POP JUMPDEST DUP6 PUSH1 0x0 ADD DUP1 SLOAD DUP1 PUSH2 0x2147 JUMPI PUSH2 0x2146 PUSH2 0x2989 JUMP JUMPDEST JUMPDEST PUSH1 0x1 SWAP1 SUB DUP2 DUP2 SWAP1 PUSH1 0x0 MSTORE PUSH1 0x20 PUSH1 0x0 KECCAK256 ADD PUSH1 0x0 SWAP1 SSTORE SWAP1 SSTORE DUP6 PUSH1 0x1 ADD PUSH1 0x0 DUP7 DUP2 MSTORE PUSH1 0x20 ADD SWAP1 DUP2 MSTORE PUSH1 0x20 ADD PUSH1 0x0 KECCAK256 PUSH1 0x0 SWAP1 SSTORE PUSH1 0x1 SWAP4 POP POP POP POP PUSH2 0x2188 JUMP JUMPDEST PUSH1 0x0 SWAP2 POP POP JUMPDEST SWAP3 SWAP2 POP POP JUMP JUMPDEST PUSH1 0x0 DUP3 PUSH1 0x0 ADD DUP3 DUP2 SLOAD DUP2 LT PUSH2 0x21A6 JUMPI PUSH2 0x21A5 PUSH2 0x295A JUMP JUMPDEST JUMPDEST SWAP1 PUSH1 0x0 MSTORE PUSH1 0x20 PUSH1 0x0 KECCAK256 ADD SLOAD SWAP1 POP SWAP3 SWAP2 POP POP JUMP JUMPDEST PUSH1 0x40 MLOAD DUP1 PUSH1 0x40 ADD PUSH1 0x40 MSTORE DUP1 PUSH1 0x0 PUSH20 0xFFFFFFFFFFFFFFFFFFFFFFFFFFFFFFFFFFFFFFFF AND DUP2 MSTORE PUSH1 0x20 ADD PUSH1 0x0 ISZERO ISZERO DUP2 MSTORE POP SWAP1 JUMP JUMPDEST PUSH1 0x0 DUP1 REVERT JUMPDEST PUSH1 0x0 DUP2 ISZERO ISZERO SWAP1 POP SWAP2 SWAP1 POP JUMP JUMPDEST PUSH2 0x2205 DUP2 PUSH2 0x21F0 JUMP JUMPDEST DUP2 EQ PUSH2 0x2210 JUMPI PUSH1 0x0 DUP1 REVERT JUMPDEST POP JUMP JUMPDEST PUSH1 0x0 DUP2 CALLDATALOAD SWAP1 POP PUSH2 0x2222 DUP2 PUSH2 0x21FC JUMP JUMPDEST SWAP3 SWAP2 POP POP JUMP JUMPDEST PUSH1 0x0 PUSH1 0x20 DUP3 DUP5 SUB SLT ISZERO PUSH2 0x223E JUMPI PUSH2 0x223D PUSH2 0x21EB JUMP JUMPDEST JUMPDEST PUSH1 0x0 PUSH2 0x224C DUP5 DUP3 DUP6 ADD PUSH2 0x2213 JUMP JUMPDEST SWAP2 POP POP SWAP3 SWAP2 POP POP JUMP JUMPDEST PUSH1 0x0 PUSH20 0xFFFFFFFFFFFFFFFFFFFFFFFFFFFFFFFFFFFFFFFF DUP3 AND SWAP1 POP SWAP2 SWAP1 POP JUMP JUMPDEST PUSH1 0x0 PUSH2 0x2280 DUP3 PUSH2 0x2255 JUMP JUMPDEST SWAP1 POP SWAP2 SWAP1 POP JUMP JUMPDEST PUSH1 0x0 PUSH2 0x2292 DUP3 PUSH2 0x2275 JUMP JUMPDEST SWAP1 POP SWAP2 SWAP1 POP JUMP JUMPDEST PUSH2 0x22A2 DUP2 PUSH2 0x2287 JUMP JUMPDEST DUP2 EQ PUSH2 0x22AD JUMPI PUSH1 0x0 DUP1 REVERT JUMPDEST POP JUMP JUMPDEST PUSH1 0x0 DUP2 CALLDATALOAD SWAP1 POP PUSH2 0x22BF DUP2 PUSH2 0x2299 JUMP JUMPDEST SWAP3 SWAP2 POP POP JUMP JUMPDEST PUSH1 0x0 PUSH1 0x20 DUP3 DUP5 SUB SLT ISZERO PUSH2 0x22DB JUMPI PUSH2 0x22DA PUSH2 0x21EB JUMP JUMPDEST JUMPDEST PUSH1 0x0 PUSH2 0x22E9 DUP5 DUP3 DUP6 ADD PUSH2 0x22B0 JUMP JUMPDEST SWAP2 POP POP SWAP3 SWAP2 POP POP JUMP JUMPDEST PUSH2 0x22FB DUP2 PUSH2 0x21F0 JUMP JUMPDEST DUP3 MSTORE POP POP JUMP JUMPDEST PUSH1 0x0 PUSH1 0x20 DUP3 ADD SWAP1 POP PUSH2 0x2316 PUSH1 0x0 DUP4 ADD DUP5 PUSH2 0x22F2 JUMP JUMPDEST SWAP3 SWAP2 POP POP JUMP JUMPDEST PUSH2 0x2325 DUP2 PUSH2 0x2275 JUMP JUMPDEST DUP3 MSTORE POP POP JUMP JUMPDEST PUSH1 0x0 PUSH1 0x20 DUP3 ADD SWAP1 POP PUSH2 0x2340 PUSH1 0x0 DUP4 ADD DUP5 PUSH2 0x231C JUMP JUMPDEST SWAP3 SWAP2 POP POP JUMP JUMPDEST PUSH1 0x0 DUP2 SWAP1 POP SWAP2 SWAP1 POP JUMP JUMPDEST PUSH2 0x2359 DUP2 PUSH2 0x2346 JUMP JUMPDEST DUP3 MSTORE POP POP JUMP JUMPDEST PUSH1 0x0 PUSH1 0x20 DUP3 ADD SWAP1 POP PUSH2 0x2374 PUSH1 0x0 DUP4 ADD DUP5 PUSH2 0x2350 JUMP JUMPDEST SWAP3 SWAP2 POP POP JUMP JUMPDEST PUSH1 0x0 PUSH3 0xFFFFFF DUP3 AND SWAP1 POP SWAP2 SWAP1 POP JUMP JUMPDEST PUSH2 0x2392 DUP2 PUSH2 0x237A JUMP JUMPDEST DUP2 EQ PUSH2 0x239D JUMPI PUSH1 0x0 DUP1 REVERT JUMPDEST POP JUMP JUMPDEST PUSH1 0x0 DUP2 CALLDATALOAD SWAP1 POP PUSH2 0x23AF DUP2 PUSH2 0x2389 JUMP JUMPDEST SWAP3 SWAP2 POP POP JUMP JUMPDEST PUSH1 0x0 DUP1 PUSH1 0x0 DUP1 PUSH1 0x80 DUP6 DUP8 SUB SLT ISZERO PUSH2 0x23CF JUMPI PUSH2 0x23CE PUSH2 0x21EB JUMP JUMPDEST JUMPDEST PUSH1 0x0 PUSH2 0x23DD DUP8 DUP3 DUP9 ADD PUSH2 0x22B0 JUMP JUMPDEST SWAP5 POP POP PUSH1 0x20 PUSH2 0x23EE DUP8 DUP3 DUP9 ADD PUSH2 0x22B0 JUMP JUMPDEST SWAP4 POP POP PUSH1 0x40 PUSH2 0x23FF DUP8 DUP3 DUP9 ADD PUSH2 0x23A0 JUMP JUMPDEST SWAP3 POP POP PUSH1 0x60 PUSH2 0x2410 DUP8 DUP3 DUP9 ADD PUSH2 0x2213 JUMP JUMPDEST SWAP2 POP POP SWAP3 SWAP6 SWAP2 SWAP5 POP SWAP3 POP JUMP JUMPDEST PUSH1 0x0 DUP2 SWAP1 POP SWAP2 SWAP1 POP JUMP JUMPDEST PUSH1 0x0 PUSH2 0x2441 PUSH2 0x243C PUSH2 0x2437 DUP5 PUSH2 0x2255 JUMP JUMPDEST PUSH2 0x241C JUMP JUMPDEST PUSH2 0x2255 JUMP JUMPDEST SWAP1 POP SWAP2 SWAP1 POP JUMP JUMPDEST PUSH1 0x0 PUSH2 0x2453 DUP3 PUSH2 0x2426 JUMP JUMPDEST SWAP1 POP SWAP2 SWAP1 POP JUMP JUMPDEST PUSH1 0x0 PUSH2 0x2465 DUP3 PUSH2 0x2448 JUMP JUMPDEST SWAP1 POP SWAP2 SWAP1 POP JUMP JUMPDEST PUSH2 0x2475 DUP2 PUSH2 0x245A JUMP JUMPDEST DUP3 MSTORE POP POP JUMP JUMPDEST PUSH1 0x0 PUSH1 0x20 DUP3 ADD SWAP1 POP PUSH2 0x2490 PUSH1 0x0 DUP4 ADD DUP5 PUSH2 0x246C JUMP JUMPDEST SWAP3 SWAP2 POP POP JUMP JUMPDEST PUSH2 0x249F DUP2 PUSH2 0x2346 JUMP JUMPDEST DUP2 EQ PUSH2 0x24AA JUMPI PUSH1 0x0 DUP1 REVERT JUMPDEST POP JUMP JUMPDEST PUSH1 0x0 DUP2 CALLDATALOAD SWAP1 POP PUSH2 0x24BC DUP2 PUSH2 0x2496 JUMP JUMPDEST SWAP3 SWAP2 POP POP JUMP JUMPDEST PUSH1 0x0 PUSH1 0x20 DUP3 DUP5 SUB SLT ISZERO PUSH2 0x24D8 JUMPI PUSH2 0x24D7 PUSH2 0x21EB JUMP JUMPDEST JUMPDEST PUSH1 0x0 PUSH2 0x24E6 DUP5 DUP3 DUP6 ADD PUSH2 0x24AD JUMP JUMPDEST SWAP2 POP POP SWAP3 SWAP2 POP POP JUMP JUMPDEST PUSH2 0x24F8 DUP2 PUSH2 0x2275 JUMP JUMPDEST DUP2 EQ PUSH2 0x2503 JUMPI PUSH1 0x0 DUP1 REVERT JUMPDEST POP JUMP JUMPDEST PUSH1 0x0 DUP2 CALLDATALOAD SWAP1 POP PUSH2 0x2515 DUP2 PUSH2 0x24EF JUMP JUMPDEST SWAP3 SWAP2 POP POP JUMP JUMPDEST PUSH1 0x0 PUSH1 0x20 DUP3 DUP5 SUB SLT ISZERO PUSH2 0x2531 JUMPI PUSH2 0x2530 PUSH2 0x21EB JUMP JUMPDEST JUMPDEST PUSH1 0x0 PUSH2 0x253F DUP5 DUP3 DUP6 ADD PUSH2 0x2506 JUMP JUMPDEST SWAP2 POP POP SWAP3 SWAP2 POP POP JUMP JUMPDEST PUSH1 0x0 DUP1 PUSH1 0x40 DUP4 DUP6 SUB SLT ISZERO PUSH2 0x255F JUMPI PUSH2 0x255E PUSH2 0x21EB JUMP JUMPDEST JUMPDEST PUSH1 0x0 PUSH2 0x256D DUP6 DUP3 DUP7 ADD PUSH2 0x22B0 JUMP JUMPDEST SWAP3 POP POP PUSH1 0x20 PUSH2 0x257E DUP6 DUP3 DUP7 ADD PUSH2 0x22B0 JUMP JUMPDEST SWAP2 POP POP SWAP3 POP SWAP3 SWAP1 POP JUMP JUMPDEST PUSH2 0x2591 DUP2 PUSH2 0x245A JUMP JUMPDEST DUP3 MSTORE POP POP JUMP JUMPDEST PUSH2 0x25A0 DUP2 PUSH2 0x21F0 JUMP JUMPDEST DUP3 MSTORE POP POP JUMP JUMPDEST PUSH1 0x40 DUP3 ADD PUSH1 0x0 DUP3 ADD MLOAD PUSH2 0x25BC PUSH1 0x0 DUP6 ADD DUP3 PUSH2 0x2588 JUMP JUMPDEST POP PUSH1 0x20 DUP3 ADD MLOAD PUSH2 0x25CF PUSH1 0x20 DUP6 ADD DUP3 PUSH2 0x2597 JUMP JUMPDEST POP POP POP POP JUMP JUMPDEST PUSH1 0x0 PUSH1 0x40 DUP3 ADD SWAP1 POP PUSH2 0x25EA PUSH1 0x0 DUP4 ADD DUP5 PUSH2 0x25A6 JUMP JUMPDEST SWAP3 SWAP2 POP POP JUMP JUMPDEST PUSH1 0x0 PUSH2 0x25FB DUP3 PUSH2 0x2448 JUMP JUMPDEST SWAP1 POP SWAP2 SWAP1 POP JUMP JUMPDEST PUSH2 0x260B DUP2 PUSH2 0x25F0 JUMP JUMPDEST DUP3 MSTORE POP POP JUMP JUMPDEST PUSH1 0x0 PUSH1 0x20 DUP3 ADD SWAP1 POP PUSH2 0x2626 PUSH1 0x0 DUP4 ADD DUP5 PUSH2 0x2602 JUMP JUMPDEST SWAP3 SWAP2 POP POP JUMP JUMPDEST PUSH1 0x0 DUP2 SWAP1 POP SWAP2 SWAP1 POP JUMP JUMPDEST PUSH1 0x0 PUSH2 0x2651 PUSH2 0x264C PUSH2 0x2647 DUP5 PUSH2 0x262C JUMP JUMPDEST PUSH2 0x241C JUMP JUMPDEST PUSH2 0x2346 JUMP JUMPDEST SWAP1 POP SWAP2 SWAP1 POP JUMP JUMPDEST PUSH2 0x2661 DUP2 PUSH2 0x2636 JUMP JUMPDEST DUP3 MSTORE POP POP JUMP JUMPDEST PUSH1 0x0 PUSH1 0x60 DUP3 ADD SWAP1 POP PUSH2 0x267C PUSH1 0x0 DUP4 ADD DUP7 PUSH2 0x2602 JUMP JUMPDEST PUSH2 0x2689 PUSH1 0x20 DUP4 ADD DUP6 PUSH2 0x2602 JUMP JUMPDEST PUSH2 0x2696 PUSH1 0x40 DUP4 ADD DUP5 PUSH2 0x2658 JUMP JUMPDEST SWAP5 SWAP4 POP POP POP POP JUMP JUMPDEST PUSH1 0x0 PUSH1 0x40 DUP3 ADD SWAP1 POP PUSH2 0x26B3 PUSH1 0x0 DUP4 ADD DUP6 PUSH2 0x2602 JUMP JUMPDEST PUSH2 0x26C0 PUSH1 0x20 DUP4 ADD DUP5 PUSH2 0x2602 JUMP JUMPDEST SWAP4 SWAP3 POP POP POP JUMP JUMPDEST PUSH2 0x26D0 DUP2 PUSH2 0x237A JUMP JUMPDEST DUP3 MSTORE POP POP JUMP JUMPDEST PUSH1 0x0 PUSH1 0x80 DUP3 ADD SWAP1 POP PUSH2 0x26EB PUSH1 0x0 DUP4 ADD DUP8 PUSH2 0x2602 JUMP JUMPDEST PUSH2 0x26F8 PUSH1 0x20 DUP4 ADD DUP7 PUSH2 0x2602 JUMP JUMPDEST PUSH2 0x2705 PUSH1 0x40 DUP4 ADD DUP6 PUSH2 0x26C7 JUMP JUMPDEST PUSH2 0x2712 PUSH1 0x60 DUP4 ADD DUP5 PUSH2 0x22F2 JUMP JUMPDEST SWAP6 SWAP5 POP POP POP POP POP JUMP JUMPDEST PUSH32 0x4E487B7100000000000000000000000000000000000000000000000000000000 PUSH1 0x0 MSTORE PUSH1 0x11 PUSH1 0x4 MSTORE PUSH1 0x24 PUSH1 0x0 REVERT JUMPDEST PUSH1 0x0 PUSH2 0x2755 DUP3 PUSH2 0x2346 JUMP JUMPDEST SWAP2 POP PUSH2 0x2760 DUP4 PUSH2 0x2346 JUMP JUMPDEST SWAP3 POP DUP3 DUP3 LT ISZERO PUSH2 0x2773 JUMPI PUSH2 0x2772 PUSH2 0x271B JUMP JUMPDEST JUMPDEST DUP3 DUP3 SUB SWAP1 POP SWAP3 SWAP2 POP POP JUMP JUMPDEST PUSH1 0x0 PUSH1 0x40 DUP3 ADD SWAP1 POP PUSH2 0x2793 PUSH1 0x0 DUP4 ADD DUP6 PUSH2 0x246C JUMP JUMPDEST PUSH2 0x27A0 PUSH1 0x20 DUP4 ADD DUP5 PUSH2 0x2350 JUMP JUMPDEST SWAP4 SWAP3 POP POP POP JUMP JUMPDEST PUSH1 0x0 PUSH2 0x27B2 DUP3 PUSH2 0x2275 JUMP JUMPDEST SWAP1 POP SWAP2 SWAP1 POP JUMP JUMPDEST PUSH2 0x27C2 DUP2 PUSH2 0x27A7 JUMP JUMPDEST DUP2 EQ PUSH2 0x27CD JUMPI PUSH1 0x0 DUP1 REVERT JUMPDEST POP JUMP JUMPDEST PUSH1 0x0 DUP2 MLOAD SWAP1 POP PUSH2 0x27DF DUP2 PUSH2 0x27B9 JUMP JUMPDEST SWAP3 SWAP2 POP POP JUMP JUMPDEST PUSH1 0x0 PUSH1 0x20 DUP3 DUP5 SUB SLT ISZERO PUSH2 0x27FB JUMPI PUSH2 0x27FA PUSH2 0x21EB JUMP JUMPDEST JUMPDEST PUSH1 0x0 PUSH2 0x2809 DUP5 DUP3 DUP6 ADD PUSH2 0x27D0 JUMP JUMPDEST SWAP2 POP POP SWAP3 SWAP2 POP POP JUMP JUMPDEST PUSH1 0x0 PUSH1 0x40 DUP3 ADD SWAP1 POP PUSH2 0x2827 PUSH1 0x0 DUP4 ADD DUP6 PUSH2 0x231C JUMP JUMPDEST PUSH2 0x2834 PUSH1 0x20 DUP4 ADD DUP5 PUSH2 0x231C JUMP JUMPDEST SWAP4 SWAP3 POP POP POP JUMP JUMPDEST PUSH1 0x0 DUP3 DUP3 MSTORE PUSH1 0x20 DUP3 ADD SWAP1 POP SWAP3 SWAP2 POP POP JUMP JUMPDEST PUSH32 0x455243313136373A2063726561746532206661696C6564000000000000000000 PUSH1 0x0 DUP3 ADD MSTORE POP JUMP JUMPDEST PUSH1 0x0 PUSH2 0x2882 PUSH1 0x17 DUP4 PUSH2 0x283B JUMP JUMPDEST SWAP2 POP PUSH2 0x288D DUP3 PUSH2 0x284C JUMP JUMPDEST PUSH1 0x20 DUP3 ADD SWAP1 POP SWAP2 SWAP1 POP JUMP JUMPDEST PUSH1 0x0 PUSH1 0x20 DUP3 ADD SWAP1 POP DUP2 DUP2 SUB PUSH1 0x0 DUP4 ADD MSTORE PUSH2 0x28B1 DUP2 PUSH2 0x2875 JUMP JUMPDEST SWAP1 POP SWAP2 SWAP1 POP JUMP JUMPDEST PUSH32 0x4E487B7100000000000000000000000000000000000000000000000000000000 PUSH1 0x0 MSTORE PUSH1 0x12 PUSH1 0x4 MSTORE PUSH1 0x24 PUSH1 0x0 REVERT JUMPDEST PUSH1 0x0 DUP2 SWAP1 POP SWAP2 SWAP1 POP JUMP JUMPDEST PUSH2 0x28FA DUP2 PUSH2 0x28E7 JUMP JUMPDEST DUP3 MSTORE POP POP JUMP JUMPDEST PUSH1 0x0 PUSH1 0x40 DUP3 ADD SWAP1 POP PUSH2 0x2915 PUSH1 0x0 DUP4 ADD DUP6 PUSH2 0x2350 JUMP JUMPDEST PUSH2 0x2922 PUSH1 0x20 DUP4 ADD DUP5 PUSH2 0x28F1 JUMP JUMPDEST SWAP4 SWAP3 POP POP POP JUMP JUMPDEST PUSH1 0x0 PUSH2 0x2934 DUP3 PUSH2 0x2346 JUMP JUMPDEST SWAP2 POP PUSH2 0x293F DUP4 PUSH2 0x2346 JUMP JUMPDEST SWAP3 POP DUP3 PUSH2 0x294F JUMPI PUSH2 0x294E PUSH2 0x28B8 JUMP JUMPDEST JUMPDEST DUP3 DUP3 DIV SWAP1 POP SWAP3 SWAP2 POP POP JUMP JUMPDEST PUSH32 0x4E487B7100000000000000000000000000000000000000000000000000000000 PUSH1 0x0 MSTORE PUSH1 0x32 PUSH1 0x4 MSTORE PUSH1 0x24 PUSH1 0x0 REVERT JUMPDEST PUSH32 0x4E487B7100000000000000000000000000000000000000000000000000000000 PUSH1 0x0 MSTORE PUSH1 0x31 PUSH1 0x4 MSTORE PUSH1 0x24 PUSH1 0x0 REVERT INVALID LOG2 PUSH5 0x6970667358 0x22 SLT KECCAK256 DUP10 LOG4 DUP3 0xED 0x4B STOP MULMOD PUSH13 0xBC56209C8331012820EDB9AABB 0xDD BALANCE DUP3 0xC2 PUSH25 0x42667815EEDC64736F6C634300080A00330000000000000000 "
				},
				"gasEstimates": {
					"creation": {
						"codeDepositCost": "2146800",
						"executionCost": "infinite",
						"totalCost": "infinite"
					},
					"external": {
						"LBPairImplementation()": "2537",
						"MAX_FEE()": "440",
						"addQuoteAsset(address)": "infinite",
						"allLBPairs(uint256)": "infinite",
						"becomeOwner()": "54747",
						"createLBPair(address,address,uint24,bool)": "infinite",
						"creationUnlocked()": "2610",
						"feeRecipient()": "2582",
						"flashLoanFee()": "2519",
						"getLBPairInformation(address,address)": "infinite",
						"getNumberOfLBPairs()": "2557",
						"getNumberOfQuoteAssets()": "2588",
						"getQuoteAsset(uint256)": "infinite",
						"isQuoteAsset(address)": "infinite",
						"owner()": "2589",
						"pendingOwner()": "2566",
						"removeQuoteAsset(address)": "infinite",
						"renounceOwnership()": "54701",
						"revokePendingOwner()": "30053",
						"setFactoryLockedState(bool)": "infinite",
						"setFeeRecipient(address)": "infinite",
						"setLBPairImplementation(address)": "infinite",
						"setPendingOwner(address)": "30421"
					},
					"internal": {
						"_getLBPairInformation(contract IERC20,contract IERC20)": "infinite",
						"_setFeeRecipient(address)": "infinite",
						"_sortTokens(contract IERC20,contract IERC20)": "108"
					}
				},
				"methodIdentifiers": {
					"LBPairImplementation()": "509ceb90",
					"MAX_FEE()": "bc063e1a",
					"addQuoteAsset(address)": "5a440923",
					"allLBPairs(uint256)": "72e47b8c",
					"becomeOwner()": "f9dca989",
					"createLBPair(address,address,uint24,bool)": "52e2cf8e",
					"creationUnlocked()": "5c779d6d",
					"feeRecipient()": "46904840",
					"flashLoanFee()": "4847cdc8",
					"getLBPairInformation(address,address)": "eaec42a4",
					"getNumberOfLBPairs()": "4e937c3a",
					"getNumberOfQuoteAssets()": "80c5061e",
					"getQuoteAsset(uint256)": "f89a4cd5",
					"isQuoteAsset(address)": "27721842",
					"owner()": "8da5cb5b",
					"pendingOwner()": "e30c3978",
					"removeQuoteAsset(address)": "ddbfd941",
					"renounceOwnership()": "715018a6",
					"revokePendingOwner()": "67ab8a4e",
					"setFactoryLockedState(bool)": "22f3fe14",
					"setFeeRecipient(address)": "e74b981b",
					"setLBPairImplementation(address)": "b0384781",
					"setPendingOwner(address)": "c42069ec"
				}
			},
			"storageLayout": {
				"storage": [
					{
						"astId": 3726,
						"contract": "Midas/joe-v2-main/src/LBFactory.sol:LBFactory",
						"label": "_owner",
						"offset": 0,
						"slot": "0",
						"type": "t_address"
					},
					{
						"astId": 3728,
						"contract": "Midas/joe-v2-main/src/LBFactory.sol:LBFactory",
						"label": "_pendingOwner",
						"offset": 0,
						"slot": "1",
						"type": "t_address"
					},
					{
						"astId": 1346,
						"contract": "Midas/joe-v2-main/src/LBFactory.sol:LBFactory",
						"label": "LBPairImplementation",
						"offset": 0,
						"slot": "2",
						"type": "t_address"
					},
					{
						"astId": 1349,
						"contract": "Midas/joe-v2-main/src/LBFactory.sol:LBFactory",
						"label": "feeRecipient",
						"offset": 0,
						"slot": "3",
						"type": "t_address"
					},
					{
						"astId": 1353,
						"contract": "Midas/joe-v2-main/src/LBFactory.sol:LBFactory",
						"label": "creationUnlocked",
						"offset": 20,
						"slot": "3",
						"type": "t_bool"
					},
					{
						"astId": 1356,
						"contract": "Midas/joe-v2-main/src/LBFactory.sol:LBFactory",
						"label": "flashLoanFee",
						"offset": 0,
						"slot": "4",
						"type": "t_uint256"
					},
					{
						"astId": 1361,
						"contract": "Midas/joe-v2-main/src/LBFactory.sol:LBFactory",
						"label": "allLBPairs",
						"offset": 0,
						"slot": "5",
						"type": "t_array(t_contract(ILBPair)2405)dyn_storage"
					},
					{
						"astId": 1371,
						"contract": "Midas/joe-v2-main/src/LBFactory.sol:LBFactory",
						"label": "_LBPairsInfo",
						"offset": 0,
						"slot": "6",
						"type": "t_mapping(t_contract(IERC20)157,t_mapping(t_contract(IERC20)157,t_struct(LBPairInformation)1908_storage))"
					},
					{
						"astId": 1374,
						"contract": "Midas/joe-v2-main/src/LBFactory.sol:LBFactory",
						"label": "_availablePresets",
						"offset": 0,
						"slot": "7",
						"type": "t_bytes32"
					},
					{
						"astId": 1378,
						"contract": "Midas/joe-v2-main/src/LBFactory.sol:LBFactory",
						"label": "_presets",
						"offset": 0,
						"slot": "8",
						"type": "t_mapping(t_uint256,t_bytes32)"
					},
					{
						"astId": 1381,
						"contract": "Midas/joe-v2-main/src/LBFactory.sol:LBFactory",
						"label": "_quoteAssetWhitelist",
						"offset": 0,
						"slot": "9",
						"type": "t_struct(AddressSet)483_storage"
					}
				],
				"types": {
					"t_address": {
						"encoding": "inplace",
						"label": "address",
						"numberOfBytes": "20"
					},
					"t_array(t_bytes32)dyn_storage": {
						"base": "t_bytes32",
						"encoding": "dynamic_array",
						"label": "bytes32[]",
						"numberOfBytes": "32"
					},
					"t_array(t_contract(ILBPair)2405)dyn_storage": {
						"base": "t_contract(ILBPair)2405",
						"encoding": "dynamic_array",
						"label": "contract ILBPair[]",
						"numberOfBytes": "32"
					},
					"t_bool": {
						"encoding": "inplace",
						"label": "bool",
						"numberOfBytes": "1"
					},
					"t_bytes32": {
						"encoding": "inplace",
						"label": "bytes32",
						"numberOfBytes": "32"
					},
					"t_contract(IERC20)157": {
						"encoding": "inplace",
						"label": "contract IERC20",
						"numberOfBytes": "20"
					},
					"t_contract(ILBPair)2405": {
						"encoding": "inplace",
						"label": "contract ILBPair",
						"numberOfBytes": "20"
					},
					"t_mapping(t_bytes32,t_uint256)": {
						"encoding": "mapping",
						"key": "t_bytes32",
						"label": "mapping(bytes32 => uint256)",
						"numberOfBytes": "32",
						"value": "t_uint256"
					},
					"t_mapping(t_contract(IERC20)157,t_mapping(t_contract(IERC20)157,t_struct(LBPairInformation)1908_storage))": {
						"encoding": "mapping",
						"key": "t_contract(IERC20)157",
						"label": "mapping(contract IERC20 => mapping(contract IERC20 => struct ILBFactory.LBPairInformation))",
						"numberOfBytes": "32",
						"value": "t_mapping(t_contract(IERC20)157,t_struct(LBPairInformation)1908_storage)"
					},
					"t_mapping(t_contract(IERC20)157,t_struct(LBPairInformation)1908_storage)": {
						"encoding": "mapping",
						"key": "t_contract(IERC20)157",
						"label": "mapping(contract IERC20 => struct ILBFactory.LBPairInformation)",
						"numberOfBytes": "32",
						"value": "t_struct(LBPairInformation)1908_storage"
					},
					"t_mapping(t_uint256,t_bytes32)": {
						"encoding": "mapping",
						"key": "t_uint256",
						"label": "mapping(uint256 => bytes32)",
						"numberOfBytes": "32",
						"value": "t_bytes32"
					},
					"t_struct(AddressSet)483_storage": {
						"encoding": "inplace",
						"label": "struct EnumerableSet.AddressSet",
						"members": [
							{
								"astId": 482,
								"contract": "Midas/joe-v2-main/src/LBFactory.sol:LBFactory",
								"label": "_inner",
								"offset": 0,
								"slot": "0",
								"type": "t_struct(Set)168_storage"
							}
						],
						"numberOfBytes": "64"
					},
					"t_struct(LBPairInformation)1908_storage": {
						"encoding": "inplace",
						"label": "struct ILBFactory.LBPairInformation",
						"members": [
							{
								"astId": 1905,
								"contract": "Midas/joe-v2-main/src/LBFactory.sol:LBFactory",
								"label": "LBPair",
								"offset": 0,
								"slot": "0",
								"type": "t_contract(ILBPair)2405"
							},
							{
								"astId": 1907,
								"contract": "Midas/joe-v2-main/src/LBFactory.sol:LBFactory",
								"label": "createdByOwner",
								"offset": 20,
								"slot": "0",
								"type": "t_bool"
							}
						],
						"numberOfBytes": "32"
					},
					"t_struct(Set)168_storage": {
						"encoding": "inplace",
						"label": "struct EnumerableSet.Set",
						"members": [
							{
								"astId": 163,
								"contract": "Midas/joe-v2-main/src/LBFactory.sol:LBFactory",
								"label": "_values",
								"offset": 0,
								"slot": "0",
								"type": "t_array(t_bytes32)dyn_storage"
							},
							{
								"astId": 167,
								"contract": "Midas/joe-v2-main/src/LBFactory.sol:LBFactory",
								"label": "_indexes",
								"offset": 0,
								"slot": "1",
								"type": "t_mapping(t_bytes32,t_uint256)"
							}
						],
						"numberOfBytes": "64"
					},
					"t_uint256": {
						"encoding": "inplace",
						"label": "uint256",
						"numberOfBytes": "32"
					}
				}
			},
			"userdoc": {
				"errors": {
					"LBFactory__IdenticalAddresses(address)": [
						{
							"notice": "LBFactory errors "
						}
					],
					"Math128x128__PowerUnderflow(uint256,int256)": [
						{
							"notice": "Math128x128 errors "
						}
					],
					"PendingOwnable__NotOwner()": [
						{
							"notice": "PendingOwnable errors "
						}
					]
				},
				"kind": "user",
				"methods": {
					"addQuoteAsset(address)": {
						"notice": "Function to add an asset to the whitelist of quote assets"
					},
					"becomeOwner()": {
						"notice": "Transfers the ownership to the new owner (`pendingOwner). Can only be called by the pending owner"
					},
					"constructor": {
						"notice": "Constructor"
					},
					"createLBPair(address,address,uint24,bool)": {
						"notice": "Create a liquidity bin LBPair for _tokenX and _tokenY"
					},
					"creationUnlocked()": {
						"notice": "Whether the createLBPair function is unlocked and can be called by anyone (true) or only by owner (false)"
					},
					"getLBPairInformation(address,address)": {
						"notice": "Returns the LBPairInformation if it exists, if not, then the address 0 is returned. The order doesn't matter"
					},
					"getNumberOfLBPairs()": {
						"notice": "View function to return the number of LBPairs created"
					},
					"getNumberOfQuoteAssets()": {
						"notice": "View function to return the number of quote assets whitelisted"
					},
					"getQuoteAsset(uint256)": {
						"notice": "View function to return the quote asset whitelisted at index `index`"
					},
					"isQuoteAsset(address)": {
						"notice": "View function to return whether a token is a quotedAsset (true) or not (false)"
					},
					"owner()": {
						"notice": "Returns the address of the current owner"
					},
					"pendingOwner()": {
						"notice": "Returns the address of the current pending owner"
					},
					"removeQuoteAsset(address)": {
						"notice": "Function to remove an asset from the whitelist of quote assets"
					},
					"renounceOwnership()": {
						"notice": "Leaves the contract without owner. It will not be possible to call `onlyOwner` functions anymore. Can only be called by the current owner. NOTE: Renouncing ownership will leave the contract without an owner, thereby removing any functionality that is only available to the owner."
					},
					"revokePendingOwner()": {
						"notice": "Revoke the pending owner address. This address will not be able to call {becomeOwner} to become the owner anymore. Can only be called by the owner"
					},
					"setFactoryLockedState(bool)": {
						"notice": "Function to set the creation restriction of the Factory"
					},
					"setFeeRecipient(address)": {
						"notice": "Function to set the recipient of the fees. This address needs to be able to receive ERC20s"
					},
					"setLBPairImplementation(address)": {
						"notice": "Set the LBPair implementation address"
					},
					"setPendingOwner(address)": {
						"notice": "Sets the pending owner address. This address will be able to become the owner of this contract by calling {becomeOwner}"
					}
				},
				"notice": "Contract used to deploy and register new LBPairs. Enables setting fee parameters, flashloan fees and LBPair implementation. Unless the `creationUnlocked` is `true`, only the owner of the factory can create pairs.",
				"version": 1
			}
		}
	}
}