{
	"data": {
		"bytecode": {
			"linkReferences": {},
			"object": "60a06040523480156200001157600080fd5b5060405162003be938038062003be983398101604081905262000034916200006e565b6001600160a01b0381166200005c576040516317be04b760e01b815260040160405180910390fd5b6001600160a01b0316608052620000a0565b6000602082840312156200008157600080fd5b81516001600160a01b03811681146200009957600080fd5b9392505050565b608051613b1f620000ca6000396000818161043e01528181610b4101526118b30152613b1f6000f3fe608060405234801561001057600080fd5b50600436106101725760003560e01c8063714c8592116100de578063a582cdaa11610097578063c45a015511610071578063c45a015514610439578063e985e9c514610460578063f7cff1f814610473578063fba0ee641461048657600080fd5b8063a582cdaa146103de578063b7d19fc414610406578063bd85b0391461041957600080fd5b8063714c8592146102f05780638f919a831461031257806395d89b411461033957806398c7adf314610358578063a1af5b9a146103ab578063a22cb465146103cb57600080fd5b806316dc165b1161013057806316dc165b146102495780631b05b83e14610274578063225b20b914610297578063336c8d70146102aa5780634e1273f4146102bd57806353c059a0146102dd57600080fd5b8062fdd58e1461017757806301ffc9a71461019d57806306fdde03146101c05780630abe9688146101f95780630acd451d146102215780630febdd4914610234575b600080fd5b61018a6101853660046132f1565b610499565b6040519081526020015b60405180910390f35b6101b06101ab36600461331d565b6104c1565b6040519015158152602001610194565b6040805180820190915260148152732634b8bab4b234ba3c902137b7b5902a37b5b2b760611b60208201525b6040516101949190613373565b61020c6102073660046133b9565b6104ec565b60408051928352602083019190915201610194565b61020c61022f366004613420565b610501565b6102476102423660046134a4565b6107cb565b005b60045461025c906001600160a01b031681565b6040516001600160a01b039091168152602001610194565b61027c6108ef565b60408051938452602084019290925290820152606001610194565b61018a6102a53660046134ea565b610925565b6102476102b836600461353f565b610b36565b6102d06102cb366004613586565b610c41565b604051610194919061362d565b61020c6102eb36600461364e565b610d37565b6103036102fe366004613687565b611166565b60405161019493929190613735565b610325610320366004613754565b61186d565b60405162ffffff9091168152602001610194565b60408051808201909152600381526213109560ea1b60208201526101ec565b6040805180820182526000808252602091820152815180830183526009546001600160801b03808216808452600160801b9092048116928401928352845191825291519091169181019190915201610194565b6103b3611882565b6040516001600160801b039091168152602001610194565b6102476103d9366004613780565b611a62565b6103e6611a71565b604080516001600160801b03938416815292909116602083015201610194565b60055461025c906001600160a01b031681565b61018a61042736600461379e565b60009081526002602052604090205490565b61025c7f000000000000000000000000000000000000000000000000000000000000000081565b6101b061046e3660046137b7565b611a9a565b61018a6104813660046134ea565b611aa6565b6102476104943660046137d5565b611bde565b6000818152602081815260408083206001600160a01b03861684529091529020545b92915050565b60006104cc82611d6f565b806104bb57506001600160e01b03198216635497611160e11b1492915050565b6000806104f883611da5565b91509150915091565b6000806001600354146105275760405163802d9bf160e01b815260040160405180910390fd5b60026003558515806105395750858414155b15610557576040516306fed5ff60e01b815260040160405180910390fd5b60008060006105826006546007546001600160881b036301000000830481169391169162ffffff1690565b92509250925060005b8981101561073b5760006105b68c8c848181106105aa576105aa61386a565b90506020020135611def565b905060008a8a848181106105cc576105cc61386a565b905060200201359050806000141561060357604051636715a79f60e11b815262ffffff831660048201526024015b60405180910390fd5b60008061060f84611da5565b9150915060006106308562ffffff1660009081526002602052604090205490565b9050600080888762ffffff161161065d5761064c868585611e1d565b9b8c019b998a900399938490039390505b888762ffffff161061068557610674868685611e1d565b9c8d019c9a8b90039a948590039491505b84158015610691575083155b156106a6576106a6600b62ffffff8916611e47565b6000878152600a60205260409020607085901b860190556106cd3062ffffff891688611eca565b8662ffffff168e6001600160a01b0316336001600160a01b03167fda5e7177dface55f5e0eff7dfc67420a1db4243ddfcf0ecc84ed93e034dd8cc28585604051610721929190918252602082015260400190565b60405180910390a45050505050505080600101905061058b565b506006805473ffffffffffffffffffffffffffffffffff000000191663010000006001600160881b038681169190910291909117909155600780546001600160881b0319169184169190911790556004546107a0906001600160a01b03168787611fcf565b6005546107b7906001600160a01b03168786611fcf565b505060016003555090969095509350505050565b83836001600160a01b03821615806107ea57506001600160a01b038116155b156108085760405163020d233960e51b815260040160405180910390fd5b806001600160a01b0316826001600160a01b0316141561083b57604051638696f16760e01b815260040160405180910390fd5b8533610847828261206f565b6108775760405163548f773d60e01b81526001600160a01b038084166004830152821660248201526044016105fa565b33610884898989896120bb565b876001600160a01b0316896001600160a01b0316826001600160a01b03167fc3d58168c5ae7397731d063d5bbf3d657854427343f4c083240f7aacaa2d0f628a8a6040516108dc929190918252602082015260400190565b60405180910390a4505050505050505050565b600080600061091a6006546007546001600160881b036301000000830481169391169162ffffff1690565b925092509250909192565b600060016003541461094a5760405163802d9bf160e01b815260040160405180910390fd5b60026003556001600160a01b038416158061096d57506001600160a01b03841630145b1561098b5760405163bdfe054560e01b815260040160405180910390fd5b506001600160a01b0383166000908152600e6020526040812080546001600160801b031981169091556001600160801b0316905b82811015610a825760008484838181106109db576109db61386a565b90506020020135905060006109f08783610499565b90508015610a78576000828152600a60209081526040808320815160808101835281546001600160701b038082168352600160701b909104169381019390935260018101549183019190915260020154606082015290610a52828a868661215b565b6001600160801b03169050610a69828a86866121a5565b610a738187613896565b955050505b50506001016109bf565b508015610acc5760088054829190600090610aa79084906001600160801b03166138ae565b92506101000a8154816001600160801b0302191690836001600160801b031602179055505b600554610ae3906001600160a01b03168583611fcf565b6040805160008152602081018390526001600160a01b0386169133917f28a87b6059180e46de5fb9ab35eb043e8fe00ab45afcc7789e3934ecbbcde3ea910160405180910390a360016003559392505050565b336001600160a01b037f00000000000000000000000000000000000000000000000000000000000000001614610b7f57604051632486085360e01b815260040160405180910390fd5b6001600160a01b0383161580610b9c57506001600160a01b038216155b15610bba576040516317be04b760e01b815260040160405180910390fd5b6004546001600160a01b031615610be4576040516359e270a560e01b815260040160405180910390fd5b610bec6121e8565b600480546001600160a01b03199081166001600160a01b03958616179091556005805490911692909316919091179091556006805462ffffff191662ffffff9092169190911790556611c37937e08000600955565b60608382808214610c6f57604051639c802a7560e01b815260048101839052602481018290526044016105fa565b8567ffffffffffffffff811115610c8857610c886138d6565b604051908082528060200260200182016040528015610cb1578160200160208202803683370190505b50925060005b86811015610d2c57610d07888883818110610cd457610cd461386a565b9050602002016020810190610ce991906138ec565b878784818110610cfb57610cfb61386a565b90506020020135610499565b848281518110610d1957610d1961386a565b6020908102919091010152600101610cb7565b505050949350505050565b600080600160035414610d5d5760405163802d9bf160e01b815260040160405180910390fd5b60026003556040805160808101825260065462ffffff811682526001600160881b03630100000090910481166020808401919091526007549091168284015282518084019093526008546001600160801b038082168552600160801b90910416908301526060810191909152600085610e0d576040820151606083015151600554610e08926001600160a01b03909116916001600160881b03909116906001600160801b03166121f2565b610e35565b6020820151600454610e35916001600160a01b03909116906001600160881b031660006121f2565b905080610e555760405163256111db60e21b815260040160405180910390fd5b604080518082019091526009546001600160801b038082168352600160801b90910416602082015260005b835162ffffff166000908152600a6020908152604091829020825160808101845281546001600160701b038082168352600160701b9091041692810192909252600181015492820192909252600290910154606082015288158015610eee575080516001600160701b031615155b80610f0d5750888015610f0d575060208101516001600160701b031615155b1561106b57845160009081908190610f2f908590889062ffffff168f8b612276565b925092509250610f66886060015182610f5d8b6000015162ffffff1660009081526002602052604090205490565b879291906123bf565b610f87888d610f7486612416565b610f7d86612416565b8893929190612443565b8b15610fc057610f978388613909565b8151909750610faf906001600160801b031683613909565b610fb99086613896565b9450610fee565b8051610fd5906001600160801b031684613896565b610fdf9088613909565b9650610feb8286613896565b94505b875162ffffff166000908152600a602090815260409182902086518154928801516001600160701b03908116600160701b026001600160e01b0319909416911617919091178155908501516001820155606085015160029091015587518151611067918d918f90879087906001600160801b03166124fc565b5050505b831561108c57845161108090600b908b612562565b62ffffff168552611092565b50611098565b50610e80565b8351600680546020808801516001600160881b039081166301000000026001600160a01b031990931662ffffff9095169490941791909117909155604086015160078054919093166001600160881b031990911617909155606085015180519101516001600160801b03908116600160801b029116176008558715611138576005549094508490611133906001600160a01b03168883611fcf565b611154565b6004549095508590611154906001600160a01b03168883611fcf565b50506001600355509194909350915050565b600080606060016003541461118e5760405163802d9bf160e01b815260040160405180910390fd5b60026003558815806111a05750888714155b806111ab5750888514155b156111c9576040516306fed5ff60e01b815260040160405180910390fd5b604080516080808201835260065462ffffff811683526001600160881b036301000000909104811660208085019190915260075490911683850152835180850185526008546001600160801b038082168352600160801b9091041681830152606080850191909152845160e0810186526000808252928101839052948501829052840181905290830181905260a0830181905260c08301529060208201516004546112919161128c916001600160a01b0316906001600160881b031660006121f2565b612416565b6001600160701b0316815260408201516060830151516005546112d89261128c926001600160a01b03909216916001600160881b03909116906001600160801b03166121f2565b6001600160701b031660208201528a67ffffffffffffffff8111156112ff576112ff6138d6565b604051908082528060200260200182016040528015611328578160200160208202803683370190505b50925060005b8b8110156117325761134b8d8d838181106105aa576105aa61386a565b62ffffff1660808084018290526000918252600a60209081526040928390208351928301845280546001600160701b03808216808652600160701b90920416928401929092526001810154938301939093526002909201546060820152901580156113c1575060208101516001600160701b0316155b15611446576080830151600881901c6000818152600d602090815260408083208054600160ff80891682901b90921790925560109690961c808552600c845291842080549690951681901b909517909355908052600b90527fdf7de25b7f1fd6d0b5205f0e18f1f35bd7b8d84cce336588d184533ce43a6f7680549290911b90911790555b8b8b838181106114585761145861386a565b602002919091013560a0850152508989838181106114785761147861386a565b602002919091013560c08501525060a083015161149e90670de0b6b3a764000090613936565b156114c4578260800151604051632262d0a160e21b81526004016105fa91815260200190565b60006114d38460800151612718565b9050846000015162ffffff1684608001511061153357846000015162ffffff16846080015114156115035761155e565b60c08401511561152e578360800151604051632262d0a160e21b81526004016105fa91815260200190565b61155e565b60a08401511561155e578360800151604051632262d0a160e21b81526004016105fa91815260200190565b60008460c0015161157f8660a001516080856127609092919063ffffffff16565b6115899190613896565b9050806115b157846080015160405163b42cd28760e01b81526004016105fa91815260200190565b808785815181106115c4576115c461386a565b602090810291909101015260a0850151835184906115e390839061394a565b6001600160701b031690525060c085015160208401805161160590839061394a565b6001600160701b0390811690915260a0870180516020808b0180516001600160881b03938616018316905260c08a0180516040808e0180519288169290920190941690529251828b018051909101905291516060808b01805190920190915260808a0180516000908152600a855283902089518154958b01518716600160701b026001600160e01b0319909616961695909517939093178455908701516001840155860151600290920191909155516116c191508b90836127ec565b84608001518a6001600160a01b0316336001600160a01b03167f4216cc3bd0c40a90259d92f800c06ede5c47765f41a488072b7e7104a1f958418860a001518960c0015160405161171c929190918252602082015260400190565b60405180910390a483600101935050505061132e565b5080516040820151118061174d575080602001518160600151115b1561176b5760405163eee8ff2760e01b815260040160405180910390fd5b8151600680546020808601516001600160881b039081166301000000026001600160a01b031990931662ffffff909516949094179190911790915560408085015160078054919094166001600160881b031990911617909255606084015180519101516001600160801b03908116600160801b02911617600855810151815111156118135760408101518151600454611813926001600160a01b039091169189919003611fcf565b8060600151816020015111156118495760608101516020820151600554611849926001600160a01b039091169189919003611fcf565b60408101516060909101516001600355909c909b5091995090975050505050505050565b600061187b600b8484612562565b9392505050565b60006001600354146118a75760405163802d9bf160e01b815260040160405180910390fd5b600260038190555060007f00000000000000000000000000000000000000000000000000000000000000006001600160a01b031663469048406040518163ffffffff1660e01b8152600401602060405180830381865afa15801561190f573d6000803e3d6000fd5b505050506040513d601f19601f820116820180604052508101906119339190613975565b9050336001600160a01b0382161461196f57604051631ed01e0560e31b81526001600160a01b03821660048201523360248201526044016105fa565b6000806119906008546001600160801b0380821692600160801b9092041690565b915091506001816001600160801b03161115611a08576119b16001826138ae565b93506119bd84836138ae565b604080518082019091526001600160801b038083168083526001602090930192909252600160801b909117600855600554919350611a08916001600160a01b03169085908716611fcf565b60408051600081526001600160801b03861660208201526001600160a01b0385169133917f26b782206d6b531bf95d487110cfefdc443291f176f1977e94abcb7e67bd1b79910160405180910390a3505060016003555090565b611a6d3383836128aa565b5050565b600080611a926008546001600160801b0380821692600160801b9092041690565b915091509091565b600061187b838361206f565b60006001600160a01b038416301480611ac657506001600160a01b038416155b15611ad35750600061187b565b506001600160a01b0383166000908152600e60205260408120546001600160801b031690805b83811015611bd5576000858583818110611b1557611b1561386a565b905060200201359050808310158015611b2d57508115155b15611b4b57604051630e15c23b60e31b815260040160405180910390fd5b6000611b578883610499565b90508015611bca576000828152600a60209081526040808320815160808101835281546001600160701b038082168352600160701b909104169381019390935260018101549183019190915260020154606082015290611bb9828b868661215b565b6001600160801b0316969096019550505b509150600101611af9565b50509392505050565b8281808214611c0a57604051639c802a7560e01b815260048101839052602481018290526044016105fa565b87876001600160a01b0382161580611c2957506001600160a01b038116155b15611c475760405163020d233960e51b815260040160405180910390fd5b806001600160a01b0316826001600160a01b03161415611c7a57604051638696f16760e01b815260040160405180910390fd5b8933611c86828261206f565b611cb65760405163548f773d60e01b81526001600160a01b038084166004830152821660248201526044016105fa565b60005b89811015611d0557611cfd8d8d8d8d85818110611cd857611cd861386a565b905060200201358c8c86818110611cf157611cf161386a565b905060200201356120bb565b600101611cb9565b508a6001600160a01b03168c6001600160a01b0316336001600160a01b03167f4a39dc06d4c0dbc64b70af90fd698a233a518aa5d07e595d983b8c0526c8f7fb8d8d8d8d604051611d5994939291906139c8565b60405180910390a4505050505050505050505050565b60006001600160e01b031982166337eb4f6360e21b14806104bb57506001600160e01b031982166301ffc9a760e01b1492915050565b6000818152600a60205260409020546001600160701b0381811691607081901c91611dcf84612416565b611dd884612416565b6001600160701b0391821697911695509350505050565b8062ffffff81168114611e1857604051631da527cf60e21b8152600481018390526024016105fa565b919050565b6000806000611e2c8686612955565b91509150611e3d8686868585612974565b9695505050505050565b600881901c600081815260028401602052604090208054600160ff85161b60001918169081905580611ec45750601082901c600081815260018581016020526040909120805460ff85169290921b60001918909116908190559081611ec257600080805260208690526040902080546001831b600019181690555b505b50505050565b6001600160a01b038316611ef157604051631306fc5960e11b815260040160405180910390fd5b6000828152602081815260408083206001600160a01b038716845290915290205481811015611f4b57604051625b387760e31b81526001600160a01b038516600482015260248101849052604481018390526064016105fa565b611f588460008585612a27565b6000838152602081815260408083206001600160a01b0388168085529083528184208686039055868452600283528184208054879003905581518781529283018690529133917fc3d58168c5ae7397731d063d5bbf3d657854427343f4c083240f7aacaa2d0f62910160405180910390a450505050565b801561206a57604080516001600160a01b038416602482015260448082018490528251808303909101815260649091019091526020810180516001600160e01b031663a9059cbb60e01b17905260006120288583612b29565b90506000815111801561204c57508080602001905181019061204a91906139fa565b155b15611ec25760405163197138bd60e11b815260040160405180910390fd5b505050565b6000816001600160a01b0316836001600160a01b0316148061187b5750506001600160a01b03918216600090815260016020908152604080832093909416825291909152205460ff1690565b6000828152602081815260408083206001600160a01b038816845290915290205481811015612116576040516358b4690f60e01b81526001600160a01b038616600482015260248101849052604481018390526064016105fa565b61212285858585612a27565b6000928352602083815260408085206001600160a01b039788168652909152808420918390039091559290931681522080549091019055565b6001600160a01b0383166000908152600f602090815260408083208584529091528120546060860151611e3d90829061219690866080612760565b6121a09190613909565b612bfc565b60608401516000906121b990836080612760565b6001600160a01b039094166000908152600f602090815260408083209583529490529290922092909255505050565b6121f0612c29565b565b6040516370a0823160e01b81523060048201526000908284019081906001600160a01b038716906370a0823190602401602060405180830381865afa15801561223f573d6000803e3d6000fd5b505050506040513d601f19601f820116820180604052508101906122639190613a17565b61226d9190613909565b95945050505050565b60408051808201909152600080825260208201819052908190600061229a87612718565b9050600080871561231d5760208b01516001600160701b031691506122c182608085612c51565b90506122d76122d08b84612c83565b8b90612cd2565b93508681116122eb5780955081945061230c565b8695506122fa83876080612760565b94506123096122d08b87612c83565b93505b81851115612318578194505b6123b1565b8a516001600160701b0316915061233683836080612d1d565b90506123456122d08b83612d4f565b8051909450879061235f906001600160801b031683613896565b1161236f578095508194506123a5565b61237c6122d08b89612c83565b8051909450612394906001600160801b031688613909565b95506123a286608085612da7565b94505b818511156123b1578194505b505050955095509592505050565b8151835184906123d0908390613a30565b6001600160801b0390811690915260208085015190860180519091019091169052506123fc8282612dea565b8460600181815161240d9190613896565b90525050505050565b806001600160701b0381168114611e1857604051631ce5dcf760e01b8152600481018390526024016105fa565b82156124a257818560000181815161245b919061394a565b6001600160701b03908116909152602087810180518590038316905286018051858316016001600160881b0390811690915260408701805192851690920316905250611ec2565b81856020018181516124b4919061394a565b6001600160701b039081169091528651839003811687526020860180516001600160881b03858416909103811690915260408701805192861692909201169052505050505050565b604080518515158152602081018590529081018390526060810182905262ffffff8616906001600160a01b0388169033907fecf99d2deda7530f80e6274a4ce988d363c20555709028becd02de276eea97969060800160405180910390a4505050505050565b61ffff600883901c1691600090819060ff1683801561258057508015155b8061259557508315801561259557508060ff14155b156125e05762ffffff8516600090815260028701602052604090205491506125be828286612e23565b905060001981146125e05763ffffff00600886901b1681015b9250505061187b565b5061ffff600885901c169360ff168380156125fa57508015155b8061260f57508315801561260f57508060ff14155b1561268c5762ffffff851660009081526001870160205260409020549150612638828286612e23565b9050600019811461268c5762ffffff60089590951b63ffffff00168101948516600090815260028701602052604090205491506125d7856126798487612e52565b60ff1660089190911b63ffffff00160190565b60008080526020879052604090205491506126a8828686612e23565b90506000198114156126cd576040516310d6486160e01b815260040160405180910390fd5b600081815260018701602052604090205491506126ee816126798487612e52565b945085600262ffffff87166000908152910160205260409020549150611e3d856126798487612e52565b600062ffffff82111561273e5760405163163d8bab60e21b815260040160405180910390fd5b627fffff19820161187b700100068db8bac710cb295e9e1b089a027582612e70565b600060ff82111561278757604051630b72ecf560e41b8152600481018390526024016105fa565b6000806127948686612955565b91509150816000146127a65781841c92505b8015611bd5576001841b81106127d957604051633d90990f60e01b815260048101829052602481018590526044016105fa565b610100939093039290921b019392505050565b6001600160a01b03831661281357604051632a97acbf60e11b815260040160405180910390fd5b6128206000848484612a27565b6000828152600260205260408120805483929061283e908490613896565b90915550506000828152602081815260408083206001600160a01b0387168085529083528184208054860190558151868152928301859052929133917fc3d58168c5ae7397731d063d5bbf3d657854427343f4c083240f7aacaa2d0f62910160405180910390a4505050565b816001600160a01b0316836001600160a01b031614156128e85760405163782ee70760e01b81526001600160a01b03841660048201526024016105fa565b6001600160a01b03838116600081815260016020908152604080832094871680845294825291829020805460ff191686151590811790915591519182527f17307eab39ab6107e8899845ad3d59bd9653f200f220920489ca2b5937696c31910160405180910390a3505050565b6000806000198385098385029250828110838203039150509250929050565b6000816129925783838161298a5761298a613920565b04905061226d565b8382106129bc5760405163656b542b60e11b815260048101839052602481018590526044016105fa565b600084868809600186198101871660008190038190049091018683119095039490940294038390049390931760029290940460038102831880820284030280820284030280820284030280820284030280820284030290810290920390910292909202949350505050565b826001600160a01b0316846001600160a01b031614611ec4576000828152600a6020908152604091829020825160808101845281546001600160701b038082168352600160701b909104169281019290925260018101549282019290925260029091015460608201526001600160a01b03851615801590612ab157506001600160a01b0385163014155b15612adc576000612ac28685610499565b9050612ada82878684612ad58882613909565b6130c9565b505b6001600160a01b03841615801590612afd57506001600160a01b0384163014155b15611ec2576000612b0e8585610499565b9050612b2182868684612ad58882613896565b505050505050565b6060600080846001600160a01b031684604051612b469190613a52565b6000604051808303816000865af19150503d8060008114612b83576040519150601f19603f3d011682016040523d82523d6000602084013e612b88565b606091505b50915091508115612bcd578051158015612baa57506001600160a01b0385163b155b15612bc857604051635d97df8960e01b815260040160405180910390fd5b612bf4565b8051612bec57604051632407429160e01b815260040160405180910390fd5b805181602001fd5b949350505050565b806001600160801b0381168114611e185760405163089f6cfb60e21b8152600481018390526024016105fa565b60035415612c4a5760405163d80075c160e01b815260040160405180910390fd5b6001600355565b6000612c5e848484612da7565b90508180612c6e57612c6e613920565b6001841b85091561187b576001019392505050565b6000670de0b6b3a76400006001670de0b6b3a7640000612caa86516001600160801b031690565b612cb49086613a6e565b612cbe9190613896565b612cc89190613909565b61187b9190613a8d565b6040805180820190915260008082526020820152612cef82612bfc565b6001600160801b039081168252602084015161271091168302046001600160801b0316602082015292915050565b6000612d2a848484612760565b90506001821b80612d3d57612d3d613920565b8385091561187b576001019392505050565b600080612d6384516001600160801b031690565b90506000612d7982670de0b6b3a7640000613909565b905080600181612d898588613a6e565b612d939190613896565b612d9d9190613909565b61226d9190613a8d565b600060ff831115612dce57604051630b72ecf560e41b8152600481018490526024016105fa565b83831b61010084900385901c611e3d866001871b868585612974565b600081608084602001516001600160801b031685600001516001600160801b031603901b81612e1b57612e1b613920565b049392505050565b600081612e3e57612bc884612e39856001613aa1565b613150565b612bf484612e4d600186613ac6565b61317e565b600081612e6757612e62836131af565b61187b565b61187b83613245565b6000808083612e885750600160801b91506104bb9050565b50826000811215612e9a579015906000035b6210000081101561308a57600160801b9250846001600160801b03811115612ec457911591600019045b6001821615612ed55792830260801c925b800260801c6002821615612eeb5792830260801c925b800260801c6004821615612f015792830260801c925b800260801c6008821615612f175792830260801c925b800260801c6010821615612f2d5792830260801c925b800260801c6020821615612f435792830260801c925b800260801c6040821615612f595792830260801c925b8002608090811c90821615612f705792830260801c925b800260801c610100821615612f875792830260801c925b800260801c610200821615612f9e5792830260801c925b800260801c610400821615612fb55792830260801c925b800260801c610800821615612fcc5792830260801c925b800260801c611000821615612fe35792830260801c925b800260801c612000821615612ffa5792830260801c925b800260801c6140008216156130115792830260801c925b800260801c6180008216156130285792830260801c925b800260801c620100008216156130405792830260801c925b800260801c620200008216156130585792830260801c925b800260801c620400008216156130705792830260801c925b800260801c620800008216156130885792830260801c925b505b826130b257604051630e9c7d6160e31b815260048101869052602481018590526044016105fa565b816130bd578261226d565b61226d83600019613a8d565b6001600160a01b0384166000908152600e60205260408120546001600160801b0316906130f88787878761215b565b9050613106878787866121a5565b6131108183613a30565b6001600160a01b03969096166000908152600e6020526040902080546001600160801b0319166001600160801b0390971696909617909555505050505050565b60ff81169190911c9060008215613174578161316b846131af565b0160ff1661187b565b5060001992915050565b60ff8181031691821b9160009083156131a4578061319b85613245565b60ff1603612bf4565b600019949350505050565b6000608082901b156131c35750608090811b905b604082901b156131d557604091821b91015b602082901b156131e757602091821b91015b601082901b156131f957601091821b91015b600882901b1561320b57600891821b91015b600482901b1561321d57600491821b91015b600282901b1561322f57600291821b91015b600182901b1561323d576001015b60ff03919050565b6000600160801b821061325a5750608090811c905b68010000000000000000821061327257604091821c91015b640100000000821061328657602091821c91015b62010000821061329857601091821c91015b61010082106132a957600891821c91015b601082106132b957600491821c91015b600482106132c957600291821c91015b60028210611e1857600101919050565b6001600160a01b03811681146132ee57600080fd5b50565b6000806040838503121561330457600080fd5b823561330f816132d9565b946020939093013593505050565b60006020828403121561332f57600080fd5b81356001600160e01b03198116811461187b57600080fd5b60005b8381101561336257818101518382015260200161334a565b83811115611ec45750506000910152565b6020815260008251806020840152613392816040850160208701613347565b601f01601f19169190910160400192915050565b803562ffffff81168114611e1857600080fd5b6000602082840312156133cb57600080fd5b61187b826133a6565b60008083601f8401126133e657600080fd5b50813567ffffffffffffffff8111156133fe57600080fd5b6020830191508360208260051b850101111561341957600080fd5b9250929050565b60008060008060006060868803121561343857600080fd5b853567ffffffffffffffff8082111561345057600080fd5b61345c89838a016133d4565b9097509550602088013591508082111561347557600080fd5b50613482888289016133d4565b9094509250506040860135613496816132d9565b809150509295509295909350565b600080600080608085870312156134ba57600080fd5b84356134c5816132d9565b935060208501356134d5816132d9565b93969395505050506040820135916060013590565b6000806000604084860312156134ff57600080fd5b833561350a816132d9565b9250602084013567ffffffffffffffff81111561352657600080fd5b613532868287016133d4565b9497909650939450505050565b60008060006060848603121561355457600080fd5b833561355f816132d9565b9250602084013561356f816132d9565b915061357d604085016133a6565b90509250925092565b6000806000806040858703121561359c57600080fd5b843567ffffffffffffffff808211156135b457600080fd5b6135c0888389016133d4565b909650945060208701359150808211156135d957600080fd5b506135e6878288016133d4565b95989497509550505050565b600081518084526020808501945080840160005b8381101561362257815187529582019590820190600101613606565b509495945050505050565b60208152600061187b60208301846135f2565b80151581146132ee57600080fd5b6000806040838503121561366157600080fd5b823561366c81613640565b9150602083013561367c816132d9565b809150509250929050565b60008060008060008060006080888a0312156136a257600080fd5b873567ffffffffffffffff808211156136ba57600080fd5b6136c68b838c016133d4565b909950975060208a01359150808211156136df57600080fd5b6136eb8b838c016133d4565b909750955060408a013591508082111561370457600080fd5b506137118a828b016133d4565b9094509250506060880135613725816132d9565b8091505092959891949750929550565b83815282602082015260606040820152600061226d60608301846135f2565b6000806040838503121561376757600080fd5b613770836133a6565b9150602083013561367c81613640565b6000806040838503121561379357600080fd5b8235613770816132d9565b6000602082840312156137b057600080fd5b5035919050565b600080604083850312156137ca57600080fd5b823561366c816132d9565b600080600080600080608087890312156137ee57600080fd5b86356137f9816132d9565b95506020870135613809816132d9565b9450604087013567ffffffffffffffff8082111561382657600080fd5b6138328a838b016133d4565b9096509450606089013591508082111561384b57600080fd5b5061385889828a016133d4565b979a9699509497509295939492505050565b634e487b7160e01b600052603260045260246000fd5b634e487b7160e01b600052601160045260246000fd5b600082198211156138a9576138a9613880565b500190565b60006001600160801b03838116908316818110156138ce576138ce613880565b039392505050565b634e487b7160e01b600052604160045260246000fd5b6000602082840312156138fe57600080fd5b813561187b816132d9565b60008282101561391b5761391b613880565b500390565b634e487b7160e01b600052601260045260246000fd5b60008261394557613945613920565b500690565b60006001600160701b0380831681851680830382111561396c5761396c613880565b01949350505050565b60006020828403121561398757600080fd5b815161187b816132d9565b81835260006001600160fb1b038311156139ab57600080fd5b8260051b8083602087013760009401602001938452509192915050565b6040815260006139dc604083018688613992565b82810360208401526139ef818587613992565b979650505050505050565b600060208284031215613a0c57600080fd5b815161187b81613640565b600060208284031215613a2957600080fd5b5051919050565b60006001600160801b0380831681851680830382111561396c5761396c613880565b60008251613a64818460208701613347565b9190910192915050565b6000816000190483118215151615613a8857613a88613880565b500290565b600082613a9c57613a9c613920565b500490565b600060ff821660ff84168060ff03821115613abe57613abe613880565b019392505050565b600060ff821660ff841680821015613ae057613ae0613880565b9003939250505056fea26469706673582212205fd6f20e7c96e926009cc3cec60364b98a1c6593478b8b55b9151e6460a0cfbd64736f6c634300080a0033",
			"opcodes": "PUSH1 0xA0 PUSH1 0x40 MSTORE CALLVALUE DUP1 ISZERO PUSH3 0x11 JUMPI PUSH1 0x0 DUP1 REVERT JUMPDEST POP PUSH1 0x40 MLOAD PUSH3 0x3BE9 CODESIZE SUB DUP1 PUSH3 0x3BE9 DUP4 CODECOPY DUP2 ADD PUSH1 0x40 DUP2 SWAP1 MSTORE PUSH3 0x34 SWAP2 PUSH3 0x6E JUMP JUMPDEST PUSH1 0x1 PUSH1 0x1 PUSH1 0xA0 SHL SUB DUP2 AND PUSH3 0x5C JUMPI PUSH1 0x40 MLOAD PUSH4 0x17BE04B7 PUSH1 0xE0 SHL DUP2 MSTORE PUSH1 0x4 ADD PUSH1 0x40 MLOAD DUP1 SWAP2 SUB SWAP1 REVERT JUMPDEST PUSH1 0x1 PUSH1 0x1 PUSH1 0xA0 SHL SUB AND PUSH1 0x80 MSTORE PUSH3 0xA0 JUMP JUMPDEST PUSH1 0x0 PUSH1 0x20 DUP3 DUP5 SUB SLT ISZERO PUSH3 0x81 JUMPI PUSH1 0x0 DUP1 REVERT JUMPDEST DUP2 MLOAD PUSH1 0x1 PUSH1 0x1 PUSH1 0xA0 SHL SUB DUP2 AND DUP2 EQ PUSH3 0x99 JUMPI PUSH1 0x0 DUP1 REVERT JUMPDEST SWAP4 SWAP3 POP POP POP JUMP JUMPDEST PUSH1 0x80 MLOAD PUSH2 0x3B1F PUSH3 0xCA PUSH1 0x0 CODECOPY PUSH1 0x0 DUP2 DUP2 PUSH2 0x43E ADD MSTORE DUP2 DUP2 PUSH2 0xB41 ADD MSTORE PUSH2 0x18B3 ADD MSTORE PUSH2 0x3B1F PUSH1 0x0 RETURN INVALID PUSH1 0x80 PUSH1 0x40 MSTORE CALLVALUE DUP1 ISZERO PUSH2 0x10 JUMPI PUSH1 0x0 DUP1 REVERT JUMPDEST POP PUSH1 0x4 CALLDATASIZE LT PUSH2 0x172 JUMPI PUSH1 0x0 CALLDATALOAD PUSH1 0xE0 SHR DUP1 PUSH4 0x714C8592 GT PUSH2 0xDE JUMPI DUP1 PUSH4 0xA582CDAA GT PUSH2 0x97 JUMPI DUP1 PUSH4 0xC45A0155 GT PUSH2 0x71 JUMPI DUP1 PUSH4 0xC45A0155 EQ PUSH2 0x439 JUMPI DUP1 PUSH4 0xE985E9C5 EQ PUSH2 0x460 JUMPI DUP1 PUSH4 0xF7CFF1F8 EQ PUSH2 0x473 JUMPI DUP1 PUSH4 0xFBA0EE64 EQ PUSH2 0x486 JUMPI PUSH1 0x0 DUP1 REVERT JUMPDEST DUP1 PUSH4 0xA582CDAA EQ PUSH2 0x3DE JUMPI DUP1 PUSH4 0xB7D19FC4 EQ PUSH2 0x406 JUMPI DUP1 PUSH4 0xBD85B039 EQ PUSH2 0x419 JUMPI PUSH1 0x0 DUP1 REVERT JUMPDEST DUP1 PUSH4 0x714C8592 EQ PUSH2 0x2F0 JUMPI DUP1 PUSH4 0x8F919A83 EQ PUSH2 0x312 JUMPI DUP1 PUSH4 0x95D89B41 EQ PUSH2 0x339 JUMPI DUP1 PUSH4 0x98C7ADF3 EQ PUSH2 0x358 JUMPI DUP1 PUSH4 0xA1AF5B9A EQ PUSH2 0x3AB JUMPI DUP1 PUSH4 0xA22CB465 EQ PUSH2 0x3CB JUMPI PUSH1 0x0 DUP1 REVERT JUMPDEST DUP1 PUSH4 0x16DC165B GT PUSH2 0x130 JUMPI DUP1 PUSH4 0x16DC165B EQ PUSH2 0x249 JUMPI DUP1 PUSH4 0x1B05B83E EQ PUSH2 0x274 JUMPI DUP1 PUSH4 0x225B20B9 EQ PUSH2 0x297 JUMPI DUP1 PUSH4 0x336C8D70 EQ PUSH2 0x2AA JUMPI DUP1 PUSH4 0x4E1273F4 EQ PUSH2 0x2BD JUMPI DUP1 PUSH4 0x53C059A0 EQ PUSH2 0x2DD JUMPI PUSH1 0x0 DUP1 REVERT JUMPDEST DUP1 PUSH3 0xFDD58E EQ PUSH2 0x177 JUMPI DUP1 PUSH4 0x1FFC9A7 EQ PUSH2 0x19D JUMPI DUP1 PUSH4 0x6FDDE03 EQ PUSH2 0x1C0 JUMPI DUP1 PUSH4 0xABE9688 EQ PUSH2 0x1F9 JUMPI DUP1 PUSH4 0xACD451D EQ PUSH2 0x221 JUMPI DUP1 PUSH4 0xFEBDD49 EQ PUSH2 0x234 JUMPI JUMPDEST PUSH1 0x0 DUP1 REVERT JUMPDEST PUSH2 0x18A PUSH2 0x185 CALLDATASIZE PUSH1 0x4 PUSH2 0x32F1 JUMP JUMPDEST PUSH2 0x499 JUMP JUMPDEST PUSH1 0x40 MLOAD SWAP1 DUP2 MSTORE PUSH1 0x20 ADD JUMPDEST PUSH1 0x40 MLOAD DUP1 SWAP2 SUB SWAP1 RETURN JUMPDEST PUSH2 0x1B0 PUSH2 0x1AB CALLDATASIZE PUSH1 0x4 PUSH2 0x331D JUMP JUMPDEST PUSH2 0x4C1 JUMP JUMPDEST PUSH1 0x40 MLOAD SWAP1 ISZERO ISZERO DUP2 MSTORE PUSH1 0x20 ADD PUSH2 0x194 JUMP JUMPDEST PUSH1 0x40 DUP1 MLOAD DUP1 DUP3 ADD SWAP1 SWAP2 MSTORE PUSH1 0x14 DUP2 MSTORE PUSH20 0x2634B8BAB4B234BA3C902137B7B5902A37B5B2B7 PUSH1 0x61 SHL PUSH1 0x20 DUP3 ADD MSTORE JUMPDEST PUSH1 0x40 MLOAD PUSH2 0x194 SWAP2 SWAP1 PUSH2 0x3373 JUMP JUMPDEST PUSH2 0x20C PUSH2 0x207 CALLDATASIZE PUSH1 0x4 PUSH2 0x33B9 JUMP JUMPDEST PUSH2 0x4EC JUMP JUMPDEST PUSH1 0x40 DUP1 MLOAD SWAP3 DUP4 MSTORE PUSH1 0x20 DUP4 ADD SWAP2 SWAP1 SWAP2 MSTORE ADD PUSH2 0x194 JUMP JUMPDEST PUSH2 0x20C PUSH2 0x22F CALLDATASIZE PUSH1 0x4 PUSH2 0x3420 JUMP JUMPDEST PUSH2 0x501 JUMP JUMPDEST PUSH2 0x247 PUSH2 0x242 CALLDATASIZE PUSH1 0x4 PUSH2 0x34A4 JUMP JUMPDEST PUSH2 0x7CB JUMP JUMPDEST STOP JUMPDEST PUSH1 0x4 SLOAD PUSH2 0x25C SWAP1 PUSH1 0x1 PUSH1 0x1 PUSH1 0xA0 SHL SUB AND DUP2 JUMP JUMPDEST PUSH1 0x40 MLOAD PUSH1 0x1 PUSH1 0x1 PUSH1 0xA0 SHL SUB SWAP1 SWAP2 AND DUP2 MSTORE PUSH1 0x20 ADD PUSH2 0x194 JUMP JUMPDEST PUSH2 0x27C PUSH2 0x8EF JUMP JUMPDEST PUSH1 0x40 DUP1 MLOAD SWAP4 DUP5 MSTORE PUSH1 0x20 DUP5 ADD SWAP3 SWAP1 SWAP3 MSTORE SWAP1 DUP3 ADD MSTORE PUSH1 0x60 ADD PUSH2 0x194 JUMP JUMPDEST PUSH2 0x18A PUSH2 0x2A5 CALLDATASIZE PUSH1 0x4 PUSH2 0x34EA JUMP JUMPDEST PUSH2 0x925 JUMP JUMPDEST PUSH2 0x247 PUSH2 0x2B8 CALLDATASIZE PUSH1 0x4 PUSH2 0x353F JUMP JUMPDEST PUSH2 0xB36 JUMP JUMPDEST PUSH2 0x2D0 PUSH2 0x2CB CALLDATASIZE PUSH1 0x4 PUSH2 0x3586 JUMP JUMPDEST PUSH2 0xC41 JUMP JUMPDEST PUSH1 0x40 MLOAD PUSH2 0x194 SWAP2 SWAP1 PUSH2 0x362D JUMP JUMPDEST PUSH2 0x20C PUSH2 0x2EB CALLDATASIZE PUSH1 0x4 PUSH2 0x364E JUMP JUMPDEST PUSH2 0xD37 JUMP JUMPDEST PUSH2 0x303 PUSH2 0x2FE CALLDATASIZE PUSH1 0x4 PUSH2 0x3687 JUMP JUMPDEST PUSH2 0x1166 JUMP JUMPDEST PUSH1 0x40 MLOAD PUSH2 0x194 SWAP4 SWAP3 SWAP2 SWAP1 PUSH2 0x3735 JUMP JUMPDEST PUSH2 0x325 PUSH2 0x320 CALLDATASIZE PUSH1 0x4 PUSH2 0x3754 JUMP JUMPDEST PUSH2 0x186D JUMP JUMPDEST PUSH1 0x40 MLOAD PUSH3 0xFFFFFF SWAP1 SWAP2 AND DUP2 MSTORE PUSH1 0x20 ADD PUSH2 0x194 JUMP JUMPDEST PUSH1 0x40 DUP1 MLOAD DUP1 DUP3 ADD SWAP1 SWAP2 MSTORE PUSH1 0x3 DUP2 MSTORE PUSH3 0x131095 PUSH1 0xEA SHL PUSH1 0x20 DUP3 ADD MSTORE PUSH2 0x1EC JUMP JUMPDEST PUSH1 0x40 DUP1 MLOAD DUP1 DUP3 ADD DUP3 MSTORE PUSH1 0x0 DUP1 DUP3 MSTORE PUSH1 0x20 SWAP2 DUP3 ADD MSTORE DUP2 MLOAD DUP1 DUP4 ADD DUP4 MSTORE PUSH1 0x9 SLOAD PUSH1 0x1 PUSH1 0x1 PUSH1 0x80 SHL SUB DUP1 DUP3 AND DUP1 DUP5 MSTORE PUSH1 0x1 PUSH1 0x80 SHL SWAP1 SWAP3 DIV DUP2 AND SWAP3 DUP5 ADD SWAP3 DUP4 MSTORE DUP5 MLOAD SWAP2 DUP3 MSTORE SWAP2 MLOAD SWAP1 SWAP2 AND SWAP2 DUP2 ADD SWAP2 SWAP1 SWAP2 MSTORE ADD PUSH2 0x194 JUMP JUMPDEST PUSH2 0x3B3 PUSH2 0x1882 JUMP JUMPDEST PUSH1 0x40 MLOAD PUSH1 0x1 PUSH1 0x1 PUSH1 0x80 SHL SUB SWAP1 SWAP2 AND DUP2 MSTORE PUSH1 0x20 ADD PUSH2 0x194 JUMP JUMPDEST PUSH2 0x247 PUSH2 0x3D9 CALLDATASIZE PUSH1 0x4 PUSH2 0x3780 JUMP JUMPDEST PUSH2 0x1A62 JUMP JUMPDEST PUSH2 0x3E6 PUSH2 0x1A71 JUMP JUMPDEST PUSH1 0x40 DUP1 MLOAD PUSH1 0x1 PUSH1 0x1 PUSH1 0x80 SHL SUB SWAP4 DUP5 AND DUP2 MSTORE SWAP3 SWAP1 SWAP2 AND PUSH1 0x20 DUP4 ADD MSTORE ADD PUSH2 0x194 JUMP JUMPDEST PUSH1 0x5 SLOAD PUSH2 0x25C SWAP1 PUSH1 0x1 PUSH1 0x1 PUSH1 0xA0 SHL SUB AND DUP2 JUMP JUMPDEST PUSH2 0x18A PUSH2 0x427 CALLDATASIZE PUSH1 0x4 PUSH2 0x379E JUMP JUMPDEST PUSH1 0x0 SWAP1 DUP2 MSTORE PUSH1 0x2 PUSH1 0x20 MSTORE PUSH1 0x40 SWAP1 KECCAK256 SLOAD SWAP1 JUMP JUMPDEST PUSH2 0x25C PUSH32 0x0 DUP2 JUMP JUMPDEST PUSH2 0x1B0 PUSH2 0x46E CALLDATASIZE PUSH1 0x4 PUSH2 0x37B7 JUMP JUMPDEST PUSH2 0x1A9A JUMP JUMPDEST PUSH2 0x18A PUSH2 0x481 CALLDATASIZE PUSH1 0x4 PUSH2 0x34EA JUMP JUMPDEST PUSH2 0x1AA6 JUMP JUMPDEST PUSH2 0x247 PUSH2 0x494 CALLDATASIZE PUSH1 0x4 PUSH2 0x37D5 JUMP JUMPDEST PUSH2 0x1BDE JUMP JUMPDEST PUSH1 0x0 DUP2 DUP2 MSTORE PUSH1 0x20 DUP2 DUP2 MSTORE PUSH1 0x40 DUP1 DUP4 KECCAK256 PUSH1 0x1 PUSH1 0x1 PUSH1 0xA0 SHL SUB DUP7 AND DUP5 MSTORE SWAP1 SWAP2 MSTORE SWAP1 KECCAK256 SLOAD JUMPDEST SWAP3 SWAP2 POP POP JUMP JUMPDEST PUSH1 0x0 PUSH2 0x4CC DUP3 PUSH2 0x1D6F JUMP JUMPDEST DUP1 PUSH2 0x4BB JUMPI POP PUSH1 0x1 PUSH1 0x1 PUSH1 0xE0 SHL SUB NOT DUP3 AND PUSH4 0x54976111 PUSH1 0xE1 SHL EQ SWAP3 SWAP2 POP POP JUMP JUMPDEST PUSH1 0x0 DUP1 PUSH2 0x4F8 DUP4 PUSH2 0x1DA5 JUMP JUMPDEST SWAP2 POP SWAP2 POP SWAP2 POP SWAP2 JUMP JUMPDEST PUSH1 0x0 DUP1 PUSH1 0x1 PUSH1 0x3 SLOAD EQ PUSH2 0x527 JUMPI PUSH1 0x40 MLOAD PUSH4 0x802D9BF1 PUSH1 0xE0 SHL DUP2 MSTORE PUSH1 0x4 ADD PUSH1 0x40 MLOAD DUP1 SWAP2 SUB SWAP1 REVERT JUMPDEST PUSH1 0x2 PUSH1 0x3 SSTORE DUP6 ISZERO DUP1 PUSH2 0x539 JUMPI POP DUP6 DUP5 EQ ISZERO JUMPDEST ISZERO PUSH2 0x557 JUMPI PUSH1 0x40 MLOAD PUSH4 0x6FED5FF PUSH1 0xE0 SHL DUP2 MSTORE PUSH1 0x4 ADD PUSH1 0x40 MLOAD DUP1 SWAP2 SUB SWAP1 REVERT JUMPDEST PUSH1 0x0 DUP1 PUSH1 0x0 PUSH2 0x582 PUSH1 0x6 SLOAD PUSH1 0x7 SLOAD PUSH1 0x1 PUSH1 0x1 PUSH1 0x88 SHL SUB PUSH4 0x1000000 DUP4 DIV DUP2 AND SWAP4 SWAP2 AND SWAP2 PUSH3 0xFFFFFF AND SWAP1 JUMP JUMPDEST SWAP3 POP SWAP3 POP SWAP3 POP PUSH1 0x0 JUMPDEST DUP10 DUP2 LT ISZERO PUSH2 0x73B JUMPI PUSH1 0x0 PUSH2 0x5B6 DUP13 DUP13 DUP5 DUP2 DUP2 LT PUSH2 0x5AA JUMPI PUSH2 0x5AA PUSH2 0x386A JUMP JUMPDEST SWAP1 POP PUSH1 0x20 MUL ADD CALLDATALOAD PUSH2 0x1DEF JUMP JUMPDEST SWAP1 POP PUSH1 0x0 DUP11 DUP11 DUP5 DUP2 DUP2 LT PUSH2 0x5CC JUMPI PUSH2 0x5CC PUSH2 0x386A JUMP JUMPDEST SWAP1 POP PUSH1 0x20 MUL ADD CALLDATALOAD SWAP1 POP DUP1 PUSH1 0x0 EQ ISZERO PUSH2 0x603 JUMPI PUSH1 0x40 MLOAD PUSH4 0x6715A79F PUSH1 0xE1 SHL DUP2 MSTORE PUSH3 0xFFFFFF DUP4 AND PUSH1 0x4 DUP3 ADD MSTORE PUSH1 0x24 ADD JUMPDEST PUSH1 0x40 MLOAD DUP1 SWAP2 SUB SWAP1 REVERT JUMPDEST PUSH1 0x0 DUP1 PUSH2 0x60F DUP5 PUSH2 0x1DA5 JUMP JUMPDEST SWAP2 POP SWAP2 POP PUSH1 0x0 PUSH2 0x630 DUP6 PUSH3 0xFFFFFF AND PUSH1 0x0 SWAP1 DUP2 MSTORE PUSH1 0x2 PUSH1 0x20 MSTORE PUSH1 0x40 SWAP1 KECCAK256 SLOAD SWAP1 JUMP JUMPDEST SWAP1 POP PUSH1 0x0 DUP1 DUP9 DUP8 PUSH3 0xFFFFFF AND GT PUSH2 0x65D JUMPI PUSH2 0x64C DUP7 DUP6 DUP6 PUSH2 0x1E1D JUMP JUMPDEST SWAP12 DUP13 ADD SWAP12 SWAP10 DUP11 SWAP1 SUB SWAP10 SWAP4 DUP5 SWAP1 SUB SWAP4 SWAP1 POP JUMPDEST DUP9 DUP8 PUSH3 0xFFFFFF AND LT PUSH2 0x685 JUMPI PUSH2 0x674 DUP7 DUP7 DUP6 PUSH2 0x1E1D JUMP JUMPDEST SWAP13 DUP14 ADD SWAP13 SWAP11 DUP12 SWAP1 SUB SWAP11 SWAP5 DUP6 SWAP1 SUB SWAP5 SWAP2 POP JUMPDEST DUP5 ISZERO DUP1 ISZERO PUSH2 0x691 JUMPI POP DUP4 ISZERO JUMPDEST ISZERO PUSH2 0x6A6 JUMPI PUSH2 0x6A6 PUSH1 0xB PUSH3 0xFFFFFF DUP10 AND PUSH2 0x1E47 JUMP JUMPDEST PUSH1 0x0 DUP8 DUP2 MSTORE PUSH1 0xA PUSH1 0x20 MSTORE PUSH1 0x40 SWAP1 KECCAK256 PUSH1 0x70 DUP6 SWAP1 SHL DUP7 ADD SWAP1 SSTORE PUSH2 0x6CD ADDRESS PUSH3 0xFFFFFF DUP10 AND DUP9 PUSH2 0x1ECA JUMP JUMPDEST DUP7 PUSH3 0xFFFFFF AND DUP15 PUSH1 0x1 PUSH1 0x1 PUSH1 0xA0 SHL SUB AND CALLER PUSH1 0x1 PUSH1 0x1 PUSH1 0xA0 SHL SUB AND PUSH32 0xDA5E7177DFACE55F5E0EFF7DFC67420A1DB4243DDFCF0ECC84ED93E034DD8CC2 DUP6 DUP6 PUSH1 0x40 MLOAD PUSH2 0x721 SWAP3 SWAP2 SWAP1 SWAP2 DUP3 MSTORE PUSH1 0x20 DUP3 ADD MSTORE PUSH1 0x40 ADD SWAP1 JUMP JUMPDEST PUSH1 0x40 MLOAD DUP1 SWAP2 SUB SWAP1 LOG4 POP POP POP POP POP POP POP DUP1 PUSH1 0x1 ADD SWAP1 POP PUSH2 0x58B JUMP JUMPDEST POP PUSH1 0x6 DUP1 SLOAD PUSH20 0xFFFFFFFFFFFFFFFFFFFFFFFFFFFFFFFFFF000000 NOT AND PUSH4 0x1000000 PUSH1 0x1 PUSH1 0x1 PUSH1 0x88 SHL SUB DUP7 DUP2 AND SWAP2 SWAP1 SWAP2 MUL SWAP2 SWAP1 SWAP2 OR SWAP1 SWAP2 SSTORE PUSH1 0x7 DUP1 SLOAD PUSH1 0x1 PUSH1 0x1 PUSH1 0x88 SHL SUB NOT AND SWAP2 DUP5 AND SWAP2 SWAP1 SWAP2 OR SWAP1 SSTORE PUSH1 0x4 SLOAD PUSH2 0x7A0 SWAP1 PUSH1 0x1 PUSH1 0x1 PUSH1 0xA0 SHL SUB AND DUP8 DUP8 PUSH2 0x1FCF JUMP JUMPDEST PUSH1 0x5 SLOAD PUSH2 0x7B7 SWAP1 PUSH1 0x1 PUSH1 0x1 PUSH1 0xA0 SHL SUB AND DUP8 DUP7 PUSH2 0x1FCF JUMP JUMPDEST POP POP PUSH1 0x1 PUSH1 0x3 SSTORE POP SWAP1 SWAP7 SWAP1 SWAP6 POP SWAP4 POP POP POP POP JUMP JUMPDEST DUP4 DUP4 PUSH1 0x1 PUSH1 0x1 PUSH1 0xA0 SHL SUB DUP3 AND ISZERO DUP1 PUSH2 0x7EA JUMPI POP PUSH1 0x1 PUSH1 0x1 PUSH1 0xA0 SHL SUB DUP2 AND ISZERO JUMPDEST ISZERO PUSH2 0x808 JUMPI PUSH1 0x40 MLOAD PUSH4 0x20D2339 PUSH1 0xE5 SHL DUP2 MSTORE PUSH1 0x4 ADD PUSH1 0x40 MLOAD DUP1 SWAP2 SUB SWAP1 REVERT JUMPDEST DUP1 PUSH1 0x1 PUSH1 0x1 PUSH1 0xA0 SHL SUB AND DUP3 PUSH1 0x1 PUSH1 0x1 PUSH1 0xA0 SHL SUB AND EQ ISZERO PUSH2 0x83B JUMPI PUSH1 0x40 MLOAD PUSH4 0x8696F167 PUSH1 0xE0 SHL DUP2 MSTORE PUSH1 0x4 ADD PUSH1 0x40 MLOAD DUP1 SWAP2 SUB SWAP1 REVERT JUMPDEST DUP6 CALLER PUSH2 0x847 DUP3 DUP3 PUSH2 0x206F JUMP JUMPDEST PUSH2 0x877 JUMPI PUSH1 0x40 MLOAD PUSH4 0x548F773D PUSH1 0xE0 SHL DUP2 MSTORE PUSH1 0x1 PUSH1 0x1 PUSH1 0xA0 SHL SUB DUP1 DUP5 AND PUSH1 0x4 DUP4 ADD MSTORE DUP3 AND PUSH1 0x24 DUP3 ADD MSTORE PUSH1 0x44 ADD PUSH2 0x5FA JUMP JUMPDEST CALLER PUSH2 0x884 DUP10 DUP10 DUP10 DUP10 PUSH2 0x20BB JUMP JUMPDEST DUP8 PUSH1 0x1 PUSH1 0x1 PUSH1 0xA0 SHL SUB AND DUP10 PUSH1 0x1 PUSH1 0x1 PUSH1 0xA0 SHL SUB AND DUP3 PUSH1 0x1 PUSH1 0x1 PUSH1 0xA0 SHL SUB AND PUSH32 0xC3D58168C5AE7397731D063D5BBF3D657854427343F4C083240F7AACAA2D0F62 DUP11 DUP11 PUSH1 0x40 MLOAD PUSH2 0x8DC SWAP3 SWAP2 SWAP1 SWAP2 DUP3 MSTORE PUSH1 0x20 DUP3 ADD MSTORE PUSH1 0x40 ADD SWAP1 JUMP JUMPDEST PUSH1 0x40 MLOAD DUP1 SWAP2 SUB SWAP1 LOG4 POP POP POP POP POP POP POP POP POP JUMP JUMPDEST PUSH1 0x0 DUP1 PUSH1 0x0 PUSH2 0x91A PUSH1 0x6 SLOAD PUSH1 0x7 SLOAD PUSH1 0x1 PUSH1 0x1 PUSH1 0x88 SHL SUB PUSH4 0x1000000 DUP4 DIV DUP2 AND SWAP4 SWAP2 AND SWAP2 PUSH3 0xFFFFFF AND SWAP1 JUMP JUMPDEST SWAP3 POP SWAP3 POP SWAP3 POP SWAP1 SWAP2 SWAP3 JUMP JUMPDEST PUSH1 0x0 PUSH1 0x1 PUSH1 0x3 SLOAD EQ PUSH2 0x94A JUMPI PUSH1 0x40 MLOAD PUSH4 0x802D9BF1 PUSH1 0xE0 SHL DUP2 MSTORE PUSH1 0x4 ADD PUSH1 0x40 MLOAD DUP1 SWAP2 SUB SWAP1 REVERT JUMPDEST PUSH1 0x2 PUSH1 0x3 SSTORE PUSH1 0x1 PUSH1 0x1 PUSH1 0xA0 SHL SUB DUP5 AND ISZERO DUP1 PUSH2 0x96D JUMPI POP PUSH1 0x1 PUSH1 0x1 PUSH1 0xA0 SHL SUB DUP5 AND ADDRESS EQ JUMPDEST ISZERO PUSH2 0x98B JUMPI PUSH1 0x40 MLOAD PUSH4 0xBDFE0545 PUSH1 0xE0 SHL DUP2 MSTORE PUSH1 0x4 ADD PUSH1 0x40 MLOAD DUP1 SWAP2 SUB SWAP1 REVERT JUMPDEST POP PUSH1 0x1 PUSH1 0x1 PUSH1 0xA0 SHL SUB DUP4 AND PUSH1 0x0 SWAP1 DUP2 MSTORE PUSH1 0xE PUSH1 0x20 MSTORE PUSH1 0x40 DUP2 KECCAK256 DUP1 SLOAD PUSH1 0x1 PUSH1 0x1 PUSH1 0x80 SHL SUB NOT DUP2 AND SWAP1 SWAP2 SSTORE PUSH1 0x1 PUSH1 0x1 PUSH1 0x80 SHL SUB AND SWAP1 JUMPDEST DUP3 DUP2 LT ISZERO PUSH2 0xA82 JUMPI PUSH1 0x0 DUP5 DUP5 DUP4 DUP2 DUP2 LT PUSH2 0x9DB JUMPI PUSH2 0x9DB PUSH2 0x386A JUMP JUMPDEST SWAP1 POP PUSH1 0x20 MUL ADD CALLDATALOAD SWAP1 POP PUSH1 0x0 PUSH2 0x9F0 DUP8 DUP4 PUSH2 0x499 JUMP JUMPDEST SWAP1 POP DUP1 ISZERO PUSH2 0xA78 JUMPI PUSH1 0x0 DUP3 DUP2 MSTORE PUSH1 0xA PUSH1 0x20 SWAP1 DUP2 MSTORE PUSH1 0x40 DUP1 DUP4 KECCAK256 DUP2 MLOAD PUSH1 0x80 DUP2 ADD DUP4 MSTORE DUP2 SLOAD PUSH1 0x1 PUSH1 0x1 PUSH1 0x70 SHL SUB DUP1 DUP3 AND DUP4 MSTORE PUSH1 0x1 PUSH1 0x70 SHL SWAP1 SWAP2 DIV AND SWAP4 DUP2 ADD SWAP4 SWAP1 SWAP4 MSTORE PUSH1 0x1 DUP2 ADD SLOAD SWAP2 DUP4 ADD SWAP2 SWAP1 SWAP2 MSTORE PUSH1 0x2 ADD SLOAD PUSH1 0x60 DUP3 ADD MSTORE SWAP1 PUSH2 0xA52 DUP3 DUP11 DUP7 DUP7 PUSH2 0x215B JUMP JUMPDEST PUSH1 0x1 PUSH1 0x1 PUSH1 0x80 SHL SUB AND SWAP1 POP PUSH2 0xA69 DUP3 DUP11 DUP7 DUP7 PUSH2 0x21A5 JUMP JUMPDEST PUSH2 0xA73 DUP2 DUP8 PUSH2 0x3896 JUMP JUMPDEST SWAP6 POP POP POP JUMPDEST POP POP PUSH1 0x1 ADD PUSH2 0x9BF JUMP JUMPDEST POP DUP1 ISZERO PUSH2 0xACC JUMPI PUSH1 0x8 DUP1 SLOAD DUP3 SWAP2 SWAP1 PUSH1 0x0 SWAP1 PUSH2 0xAA7 SWAP1 DUP5 SWAP1 PUSH1 0x1 PUSH1 0x1 PUSH1 0x80 SHL SUB AND PUSH2 0x38AE JUMP JUMPDEST SWAP3 POP PUSH2 0x100 EXP DUP2 SLOAD DUP2 PUSH1 0x1 PUSH1 0x1 PUSH1 0x80 SHL SUB MUL NOT AND SWAP1 DUP4 PUSH1 0x1 PUSH1 0x1 PUSH1 0x80 SHL SUB AND MUL OR SWAP1 SSTORE POP JUMPDEST PUSH1 0x5 SLOAD PUSH2 0xAE3 SWAP1 PUSH1 0x1 PUSH1 0x1 PUSH1 0xA0 SHL SUB AND DUP6 DUP4 PUSH2 0x1FCF JUMP JUMPDEST PUSH1 0x40 DUP1 MLOAD PUSH1 0x0 DUP2 MSTORE PUSH1 0x20 DUP2 ADD DUP4 SWAP1 MSTORE PUSH1 0x1 PUSH1 0x1 PUSH1 0xA0 SHL SUB DUP7 AND SWAP2 CALLER SWAP2 PUSH32 0x28A87B6059180E46DE5FB9AB35EB043E8FE00AB45AFCC7789E3934ECBBCDE3EA SWAP2 ADD PUSH1 0x40 MLOAD DUP1 SWAP2 SUB SWAP1 LOG3 PUSH1 0x1 PUSH1 0x3 SSTORE SWAP4 SWAP3 POP POP POP JUMP JUMPDEST CALLER PUSH1 0x1 PUSH1 0x1 PUSH1 0xA0 SHL SUB PUSH32 0x0 AND EQ PUSH2 0xB7F JUMPI PUSH1 0x40 MLOAD PUSH4 0x24860853 PUSH1 0xE0 SHL DUP2 MSTORE PUSH1 0x4 ADD PUSH1 0x40 MLOAD DUP1 SWAP2 SUB SWAP1 REVERT JUMPDEST PUSH1 0x1 PUSH1 0x1 PUSH1 0xA0 SHL SUB DUP4 AND ISZERO DUP1 PUSH2 0xB9C JUMPI POP PUSH1 0x1 PUSH1 0x1 PUSH1 0xA0 SHL SUB DUP3 AND ISZERO JUMPDEST ISZERO PUSH2 0xBBA JUMPI PUSH1 0x40 MLOAD PUSH4 0x17BE04B7 PUSH1 0xE0 SHL DUP2 MSTORE PUSH1 0x4 ADD PUSH1 0x40 MLOAD DUP1 SWAP2 SUB SWAP1 REVERT JUMPDEST PUSH1 0x4 SLOAD PUSH1 0x1 PUSH1 0x1 PUSH1 0xA0 SHL SUB AND ISZERO PUSH2 0xBE4 JUMPI PUSH1 0x40 MLOAD PUSH4 0x59E270A5 PUSH1 0xE0 SHL DUP2 MSTORE PUSH1 0x4 ADD PUSH1 0x40 MLOAD DUP1 SWAP2 SUB SWAP1 REVERT JUMPDEST PUSH2 0xBEC PUSH2 0x21E8 JUMP JUMPDEST PUSH1 0x4 DUP1 SLOAD PUSH1 0x1 PUSH1 0x1 PUSH1 0xA0 SHL SUB NOT SWAP1 DUP2 AND PUSH1 0x1 PUSH1 0x1 PUSH1 0xA0 SHL SUB SWAP6 DUP7 AND OR SWAP1 SWAP2 SSTORE PUSH1 0x5 DUP1 SLOAD SWAP1 SWAP2 AND SWAP3 SWAP1 SWAP4 AND SWAP2 SWAP1 SWAP2 OR SWAP1 SWAP2 SSTORE PUSH1 0x6 DUP1 SLOAD PUSH3 0xFFFFFF NOT AND PUSH3 0xFFFFFF SWAP1 SWAP3 AND SWAP2 SWAP1 SWAP2 OR SWAP1 SSTORE PUSH7 0x11C37937E08000 PUSH1 0x9 SSTORE JUMP JUMPDEST PUSH1 0x60 DUP4 DUP3 DUP1 DUP3 EQ PUSH2 0xC6F JUMPI PUSH1 0x40 MLOAD PUSH4 0x9C802A75 PUSH1 0xE0 SHL DUP2 MSTORE PUSH1 0x4 DUP2 ADD DUP4 SWAP1 MSTORE PUSH1 0x24 DUP2 ADD DUP3 SWAP1 MSTORE PUSH1 0x44 ADD PUSH2 0x5FA JUMP JUMPDEST DUP6 PUSH8 0xFFFFFFFFFFFFFFFF DUP2 GT ISZERO PUSH2 0xC88 JUMPI PUSH2 0xC88 PUSH2 0x38D6 JUMP JUMPDEST PUSH1 0x40 MLOAD SWAP1 DUP1 DUP3 MSTORE DUP1 PUSH1 0x20 MUL PUSH1 0x20 ADD DUP3 ADD PUSH1 0x40 MSTORE DUP1 ISZERO PUSH2 0xCB1 JUMPI DUP2 PUSH1 0x20 ADD PUSH1 0x20 DUP3 MUL DUP1 CALLDATASIZE DUP4 CALLDATACOPY ADD SWAP1 POP JUMPDEST POP SWAP3 POP PUSH1 0x0 JUMPDEST DUP7 DUP2 LT ISZERO PUSH2 0xD2C JUMPI PUSH2 0xD07 DUP9 DUP9 DUP4 DUP2 DUP2 LT PUSH2 0xCD4 JUMPI PUSH2 0xCD4 PUSH2 0x386A JUMP JUMPDEST SWAP1 POP PUSH1 0x20 MUL ADD PUSH1 0x20 DUP2 ADD SWAP1 PUSH2 0xCE9 SWAP2 SWAP1 PUSH2 0x38EC JUMP JUMPDEST DUP8 DUP8 DUP5 DUP2 DUP2 LT PUSH2 0xCFB JUMPI PUSH2 0xCFB PUSH2 0x386A JUMP JUMPDEST SWAP1 POP PUSH1 0x20 MUL ADD CALLDATALOAD PUSH2 0x499 JUMP JUMPDEST DUP5 DUP3 DUP2 MLOAD DUP2 LT PUSH2 0xD19 JUMPI PUSH2 0xD19 PUSH2 0x386A JUMP JUMPDEST PUSH1 0x20 SWAP1 DUP2 MUL SWAP2 SWAP1 SWAP2 ADD ADD MSTORE PUSH1 0x1 ADD PUSH2 0xCB7 JUMP JUMPDEST POP POP POP SWAP5 SWAP4 POP POP POP POP JUMP JUMPDEST PUSH1 0x0 DUP1 PUSH1 0x1 PUSH1 0x3 SLOAD EQ PUSH2 0xD5D JUMPI PUSH1 0x40 MLOAD PUSH4 0x802D9BF1 PUSH1 0xE0 SHL DUP2 MSTORE PUSH1 0x4 ADD PUSH1 0x40 MLOAD DUP1 SWAP2 SUB SWAP1 REVERT JUMPDEST PUSH1 0x2 PUSH1 0x3 SSTORE PUSH1 0x40 DUP1 MLOAD PUSH1 0x80 DUP2 ADD DUP3 MSTORE PUSH1 0x6 SLOAD PUSH3 0xFFFFFF DUP2 AND DUP3 MSTORE PUSH1 0x1 PUSH1 0x1 PUSH1 0x88 SHL SUB PUSH4 0x1000000 SWAP1 SWAP2 DIV DUP2 AND PUSH1 0x20 DUP1 DUP5 ADD SWAP2 SWAP1 SWAP2 MSTORE PUSH1 0x7 SLOAD SWAP1 SWAP2 AND DUP3 DUP5 ADD MSTORE DUP3 MLOAD DUP1 DUP5 ADD SWAP1 SWAP4 MSTORE PUSH1 0x8 SLOAD PUSH1 0x1 PUSH1 0x1 PUSH1 0x80 SHL SUB DUP1 DUP3 AND DUP6 MSTORE PUSH1 0x1 PUSH1 0x80 SHL SWAP1 SWAP2 DIV AND SWAP1 DUP4 ADD MSTORE PUSH1 0x60 DUP2 ADD SWAP2 SWAP1 SWAP2 MSTORE PUSH1 0x0 DUP6 PUSH2 0xE0D JUMPI PUSH1 0x40 DUP3 ADD MLOAD PUSH1 0x60 DUP4 ADD MLOAD MLOAD PUSH1 0x5 SLOAD PUSH2 0xE08 SWAP3 PUSH1 0x1 PUSH1 0x1 PUSH1 0xA0 SHL SUB SWAP1 SWAP2 AND SWAP2 PUSH1 0x1 PUSH1 0x1 PUSH1 0x88 SHL SUB SWAP1 SWAP2 AND SWAP1 PUSH1 0x1 PUSH1 0x1 PUSH1 0x80 SHL SUB AND PUSH2 0x21F2 JUMP JUMPDEST PUSH2 0xE35 JUMP JUMPDEST PUSH1 0x20 DUP3 ADD MLOAD PUSH1 0x4 SLOAD PUSH2 0xE35 SWAP2 PUSH1 0x1 PUSH1 0x1 PUSH1 0xA0 SHL SUB SWAP1 SWAP2 AND SWAP1 PUSH1 0x1 PUSH1 0x1 PUSH1 0x88 SHL SUB AND PUSH1 0x0 PUSH2 0x21F2 JUMP JUMPDEST SWAP1 POP DUP1 PUSH2 0xE55 JUMPI PUSH1 0x40 MLOAD PUSH4 0x256111DB PUSH1 0xE2 SHL DUP2 MSTORE PUSH1 0x4 ADD PUSH1 0x40 MLOAD DUP1 SWAP2 SUB SWAP1 REVERT JUMPDEST PUSH1 0x40 DUP1 MLOAD DUP1 DUP3 ADD SWAP1 SWAP2 MSTORE PUSH1 0x9 SLOAD PUSH1 0x1 PUSH1 0x1 PUSH1 0x80 SHL SUB DUP1 DUP3 AND DUP4 MSTORE PUSH1 0x1 PUSH1 0x80 SHL SWAP1 SWAP2 DIV AND PUSH1 0x20 DUP3 ADD MSTORE PUSH1 0x0 JUMPDEST DUP4 MLOAD PUSH3 0xFFFFFF AND PUSH1 0x0 SWAP1 DUP2 MSTORE PUSH1 0xA PUSH1 0x20 SWAP1 DUP2 MSTORE PUSH1 0x40 SWAP2 DUP3 SWAP1 KECCAK256 DUP3 MLOAD PUSH1 0x80 DUP2 ADD DUP5 MSTORE DUP2 SLOAD PUSH1 0x1 PUSH1 0x1 PUSH1 0x70 SHL SUB DUP1 DUP3 AND DUP4 MSTORE PUSH1 0x1 PUSH1 0x70 SHL SWAP1 SWAP2 DIV AND SWAP3 DUP2 ADD SWAP3 SWAP1 SWAP3 MSTORE PUSH1 0x1 DUP2 ADD SLOAD SWAP3 DUP3 ADD SWAP3 SWAP1 SWAP3 MSTORE PUSH1 0x2 SWAP1 SWAP2 ADD SLOAD PUSH1 0x60 DUP3 ADD MSTORE DUP9 ISZERO DUP1 ISZERO PUSH2 0xEEE JUMPI POP DUP1 MLOAD PUSH1 0x1 PUSH1 0x1 PUSH1 0x70 SHL SUB AND ISZERO ISZERO JUMPDEST DUP1 PUSH2 0xF0D JUMPI POP DUP9 DUP1 ISZERO PUSH2 0xF0D JUMPI POP PUSH1 0x20 DUP2 ADD MLOAD PUSH1 0x1 PUSH1 0x1 PUSH1 0x70 SHL SUB AND ISZERO ISZERO JUMPDEST ISZERO PUSH2 0x106B JUMPI DUP5 MLOAD PUSH1 0x0 SWAP1 DUP2 SWAP1 DUP2 SWAP1 PUSH2 0xF2F SWAP1 DUP6 SWAP1 DUP9 SWAP1 PUSH3 0xFFFFFF AND DUP16 DUP12 PUSH2 0x2276 JUMP JUMPDEST SWAP3 POP SWAP3 POP SWAP3 POP PUSH2 0xF66 DUP9 PUSH1 0x60 ADD MLOAD DUP3 PUSH2 0xF5D DUP12 PUSH1 0x0 ADD MLOAD PUSH3 0xFFFFFF AND PUSH1 0x0 SWAP1 DUP2 MSTORE PUSH1 0x2 PUSH1 0x20 MSTORE PUSH1 0x40 SWAP1 KECCAK256 SLOAD SWAP1 JUMP JUMPDEST DUP8 SWAP3 SWAP2 SWAP1 PUSH2 0x23BF JUMP JUMPDEST PUSH2 0xF87 DUP9 DUP14 PUSH2 0xF74 DUP7 PUSH2 0x2416 JUMP JUMPDEST PUSH2 0xF7D DUP7 PUSH2 0x2416 JUMP JUMPDEST DUP9 SWAP4 SWAP3 SWAP2 SWAP1 PUSH2 0x2443 JUMP JUMPDEST DUP12 ISZERO PUSH2 0xFC0 JUMPI PUSH2 0xF97 DUP4 DUP9 PUSH2 0x3909 JUMP JUMPDEST DUP2 MLOAD SWAP1 SWAP8 POP PUSH2 0xFAF SWAP1 PUSH1 0x1 PUSH1 0x1 PUSH1 0x80 SHL SUB AND DUP4 PUSH2 0x3909 JUMP JUMPDEST PUSH2 0xFB9 SWAP1 DUP7 PUSH2 0x3896 JUMP JUMPDEST SWAP5 POP PUSH2 0xFEE JUMP JUMPDEST DUP1 MLOAD PUSH2 0xFD5 SWAP1 PUSH1 0x1 PUSH1 0x1 PUSH1 0x80 SHL SUB AND DUP5 PUSH2 0x3896 JUMP JUMPDEST PUSH2 0xFDF SWAP1 DUP9 PUSH2 0x3909 JUMP JUMPDEST SWAP7 POP PUSH2 0xFEB DUP3 DUP7 PUSH2 0x3896 JUMP JUMPDEST SWAP5 POP JUMPDEST DUP8 MLOAD PUSH3 0xFFFFFF AND PUSH1 0x0 SWAP1 DUP2 MSTORE PUSH1 0xA PUSH1 0x20 SWAP1 DUP2 MSTORE PUSH1 0x40 SWAP2 DUP3 SWAP1 KECCAK256 DUP7 MLOAD DUP2 SLOAD SWAP3 DUP9 ADD MLOAD PUSH1 0x1 PUSH1 0x1 PUSH1 0x70 SHL SUB SWAP1 DUP2 AND PUSH1 0x1 PUSH1 0x70 SHL MUL PUSH1 0x1 PUSH1 0x1 PUSH1 0xE0 SHL SUB NOT SWAP1 SWAP5 AND SWAP2 AND OR SWAP2 SWAP1 SWAP2 OR DUP2 SSTORE SWAP1 DUP6 ADD MLOAD PUSH1 0x1 DUP3 ADD SSTORE PUSH1 0x60 DUP6 ADD MLOAD PUSH1 0x2 SWAP1 SWAP2 ADD SSTORE DUP8 MLOAD DUP2 MLOAD PUSH2 0x1067 SWAP2 DUP14 SWAP2 DUP16 SWAP1 DUP8 SWAP1 DUP8 SWAP1 PUSH1 0x1 PUSH1 0x1 PUSH1 0x80 SHL SUB AND PUSH2 0x24FC JUMP JUMPDEST POP POP POP JUMPDEST DUP4 ISZERO PUSH2 0x108C JUMPI DUP5 MLOAD PUSH2 0x1080 SWAP1 PUSH1 0xB SWAP1 DUP12 PUSH2 0x2562 JUMP JUMPDEST PUSH3 0xFFFFFF AND DUP6 MSTORE PUSH2 0x1092 JUMP JUMPDEST POP PUSH2 0x1098 JUMP JUMPDEST POP PUSH2 0xE80 JUMP JUMPDEST DUP4 MLOAD PUSH1 0x6 DUP1 SLOAD PUSH1 0x20 DUP1 DUP9 ADD MLOAD PUSH1 0x1 PUSH1 0x1 PUSH1 0x88 SHL SUB SWAP1 DUP2 AND PUSH4 0x1000000 MUL PUSH1 0x1 PUSH1 0x1 PUSH1 0xA0 SHL SUB NOT SWAP1 SWAP4 AND PUSH3 0xFFFFFF SWAP1 SWAP6 AND SWAP5 SWAP1 SWAP5 OR SWAP2 SWAP1 SWAP2 OR SWAP1 SWAP2 SSTORE PUSH1 0x40 DUP7 ADD MLOAD PUSH1 0x7 DUP1 SLOAD SWAP2 SWAP1 SWAP4 AND PUSH1 0x1 PUSH1 0x1 PUSH1 0x88 SHL SUB NOT SWAP1 SWAP2 AND OR SWAP1 SWAP2 SSTORE PUSH1 0x60 DUP6 ADD MLOAD DUP1 MLOAD SWAP2 ADD MLOAD PUSH1 0x1 PUSH1 0x1 PUSH1 0x80 SHL SUB SWAP1 DUP2 AND PUSH1 0x1 PUSH1 0x80 SHL MUL SWAP2 AND OR PUSH1 0x8 SSTORE DUP8 ISZERO PUSH2 0x1138 JUMPI PUSH1 0x5 SLOAD SWAP1 SWAP5 POP DUP5 SWAP1 PUSH2 0x1133 SWAP1 PUSH1 0x1 PUSH1 0x1 PUSH1 0xA0 SHL SUB AND DUP9 DUP4 PUSH2 0x1FCF JUMP JUMPDEST PUSH2 0x1154 JUMP JUMPDEST PUSH1 0x4 SLOAD SWAP1 SWAP6 POP DUP6 SWAP1 PUSH2 0x1154 SWAP1 PUSH1 0x1 PUSH1 0x1 PUSH1 0xA0 SHL SUB AND DUP9 DUP4 PUSH2 0x1FCF JUMP JUMPDEST POP POP PUSH1 0x1 PUSH1 0x3 SSTORE POP SWAP2 SWAP5 SWAP1 SWAP4 POP SWAP2 POP POP JUMP JUMPDEST PUSH1 0x0 DUP1 PUSH1 0x60 PUSH1 0x1 PUSH1 0x3 SLOAD EQ PUSH2 0x118E JUMPI PUSH1 0x40 MLOAD PUSH4 0x802D9BF1 PUSH1 0xE0 SHL DUP2 MSTORE PUSH1 0x4 ADD PUSH1 0x40 MLOAD DUP1 SWAP2 SUB SWAP1 REVERT JUMPDEST PUSH1 0x2 PUSH1 0x3 SSTORE DUP9 ISZERO DUP1 PUSH2 0x11A0 JUMPI POP DUP9 DUP8 EQ ISZERO JUMPDEST DUP1 PUSH2 0x11AB JUMPI POP DUP9 DUP6 EQ ISZERO JUMPDEST ISZERO PUSH2 0x11C9 JUMPI PUSH1 0x40 MLOAD PUSH4 0x6FED5FF PUSH1 0xE0 SHL DUP2 MSTORE PUSH1 0x4 ADD PUSH1 0x40 MLOAD DUP1 SWAP2 SUB SWAP1 REVERT JUMPDEST PUSH1 0x40 DUP1 MLOAD PUSH1 0x80 DUP1 DUP3 ADD DUP4 MSTORE PUSH1 0x6 SLOAD PUSH3 0xFFFFFF DUP2 AND DUP4 MSTORE PUSH1 0x1 PUSH1 0x1 PUSH1 0x88 SHL SUB PUSH4 0x1000000 SWAP1 SWAP2 DIV DUP2 AND PUSH1 0x20 DUP1 DUP6 ADD SWAP2 SWAP1 SWAP2 MSTORE PUSH1 0x7 SLOAD SWAP1 SWAP2 AND DUP4 DUP6 ADD MSTORE DUP4 MLOAD DUP1 DUP6 ADD DUP6 MSTORE PUSH1 0x8 SLOAD PUSH1 0x1 PUSH1 0x1 PUSH1 0x80 SHL SUB DUP1 DUP3 AND DUP4 MSTORE PUSH1 0x1 PUSH1 0x80 SHL SWAP1 SWAP2 DIV AND DUP2 DUP4 ADD MSTORE PUSH1 0x60 DUP1 DUP6 ADD SWAP2 SWAP1 SWAP2 MSTORE DUP5 MLOAD PUSH1 0xE0 DUP2 ADD DUP7 MSTORE PUSH1 0x0 DUP1 DUP3 MSTORE SWAP3 DUP2 ADD DUP4 SWAP1 MSTORE SWAP5 DUP6 ADD DUP3 SWAP1 MSTORE DUP5 ADD DUP2 SWAP1 MSTORE SWAP1 DUP4 ADD DUP2 SWAP1 MSTORE PUSH1 0xA0 DUP4 ADD DUP2 SWAP1 MSTORE PUSH1 0xC0 DUP4 ADD MSTORE SWAP1 PUSH1 0x20 DUP3 ADD MLOAD PUSH1 0x4 SLOAD PUSH2 0x1291 SWAP2 PUSH2 0x128C SWAP2 PUSH1 0x1 PUSH1 0x1 PUSH1 0xA0 SHL SUB AND SWAP1 PUSH1 0x1 PUSH1 0x1 PUSH1 0x88 SHL SUB AND PUSH1 0x0 PUSH2 0x21F2 JUMP JUMPDEST PUSH2 0x2416 JUMP JUMPDEST PUSH1 0x1 PUSH1 0x1 PUSH1 0x70 SHL SUB AND DUP2 MSTORE PUSH1 0x40 DUP3 ADD MLOAD PUSH1 0x60 DUP4 ADD MLOAD MLOAD PUSH1 0x5 SLOAD PUSH2 0x12D8 SWAP3 PUSH2 0x128C SWAP3 PUSH1 0x1 PUSH1 0x1 PUSH1 0xA0 SHL SUB SWAP1 SWAP3 AND SWAP2 PUSH1 0x1 PUSH1 0x1 PUSH1 0x88 SHL SUB SWAP1 SWAP2 AND SWAP1 PUSH1 0x1 PUSH1 0x1 PUSH1 0x80 SHL SUB AND PUSH2 0x21F2 JUMP JUMPDEST PUSH1 0x1 PUSH1 0x1 PUSH1 0x70 SHL SUB AND PUSH1 0x20 DUP3 ADD MSTORE DUP11 PUSH8 0xFFFFFFFFFFFFFFFF DUP2 GT ISZERO PUSH2 0x12FF JUMPI PUSH2 0x12FF PUSH2 0x38D6 JUMP JUMPDEST PUSH1 0x40 MLOAD SWAP1 DUP1 DUP3 MSTORE DUP1 PUSH1 0x20 MUL PUSH1 0x20 ADD DUP3 ADD PUSH1 0x40 MSTORE DUP1 ISZERO PUSH2 0x1328 JUMPI DUP2 PUSH1 0x20 ADD PUSH1 0x20 DUP3 MUL DUP1 CALLDATASIZE DUP4 CALLDATACOPY ADD SWAP1 POP JUMPDEST POP SWAP3 POP PUSH1 0x0 JUMPDEST DUP12 DUP2 LT ISZERO PUSH2 0x1732 JUMPI PUSH2 0x134B DUP14 DUP14 DUP4 DUP2 DUP2 LT PUSH2 0x5AA JUMPI PUSH2 0x5AA PUSH2 0x386A JUMP JUMPDEST PUSH3 0xFFFFFF AND PUSH1 0x80 DUP1 DUP5 ADD DUP3 SWAP1 MSTORE PUSH1 0x0 SWAP2 DUP3 MSTORE PUSH1 0xA PUSH1 0x20 SWAP1 DUP2 MSTORE PUSH1 0x40 SWAP3 DUP4 SWAP1 KECCAK256 DUP4 MLOAD SWAP3 DUP4 ADD DUP5 MSTORE DUP1 SLOAD PUSH1 0x1 PUSH1 0x1 PUSH1 0x70 SHL SUB DUP1 DUP3 AND DUP1 DUP7 MSTORE PUSH1 0x1 PUSH1 0x70 SHL SWAP1 SWAP3 DIV AND SWAP3 DUP5 ADD SWAP3 SWAP1 SWAP3 MSTORE PUSH1 0x1 DUP2 ADD SLOAD SWAP4 DUP4 ADD SWAP4 SWAP1 SWAP4 MSTORE PUSH1 0x2 SWAP1 SWAP3 ADD SLOAD PUSH1 0x60 DUP3 ADD MSTORE SWAP1 ISZERO DUP1 ISZERO PUSH2 0x13C1 JUMPI POP PUSH1 0x20 DUP2 ADD MLOAD PUSH1 0x1 PUSH1 0x1 PUSH1 0x70 SHL SUB AND ISZERO JUMPDEST ISZERO PUSH2 0x1446 JUMPI PUSH1 0x80 DUP4 ADD MLOAD PUSH1 0x8 DUP2 SWAP1 SHR PUSH1 0x0 DUP2 DUP2 MSTORE PUSH1 0xD PUSH1 0x20 SWAP1 DUP2 MSTORE PUSH1 0x40 DUP1 DUP4 KECCAK256 DUP1 SLOAD PUSH1 0x1 PUSH1 0xFF DUP1 DUP10 AND DUP3 SWAP1 SHL SWAP1 SWAP3 OR SWAP1 SWAP3 SSTORE PUSH1 0x10 SWAP7 SWAP1 SWAP7 SHR DUP1 DUP6 MSTORE PUSH1 0xC DUP5 MSTORE SWAP2 DUP5 KECCAK256 DUP1 SLOAD SWAP7 SWAP1 SWAP6 AND DUP2 SWAP1 SHL SWAP1 SWAP6 OR SWAP1 SWAP4 SSTORE SWAP1 DUP1 MSTORE PUSH1 0xB SWAP1 MSTORE PUSH32 0xDF7DE25B7F1FD6D0B5205F0E18F1F35BD7B8D84CCE336588D184533CE43A6F76 DUP1 SLOAD SWAP3 SWAP1 SWAP2 SHL SWAP1 SWAP2 OR SWAP1 SSTORE JUMPDEST DUP12 DUP12 DUP4 DUP2 DUP2 LT PUSH2 0x1458 JUMPI PUSH2 0x1458 PUSH2 0x386A JUMP JUMPDEST PUSH1 0x20 MUL SWAP2 SWAP1 SWAP2 ADD CALLDATALOAD PUSH1 0xA0 DUP6 ADD MSTORE POP DUP10 DUP10 DUP4 DUP2 DUP2 LT PUSH2 0x1478 JUMPI PUSH2 0x1478 PUSH2 0x386A JUMP JUMPDEST PUSH1 0x20 MUL SWAP2 SWAP1 SWAP2 ADD CALLDATALOAD PUSH1 0xC0 DUP6 ADD MSTORE POP PUSH1 0xA0 DUP4 ADD MLOAD PUSH2 0x149E SWAP1 PUSH8 0xDE0B6B3A7640000 SWAP1 PUSH2 0x3936 JUMP JUMPDEST ISZERO PUSH2 0x14C4 JUMPI DUP3 PUSH1 0x80 ADD MLOAD PUSH1 0x40 MLOAD PUSH4 0x2262D0A1 PUSH1 0xE2 SHL DUP2 MSTORE PUSH1 0x4 ADD PUSH2 0x5FA SWAP2 DUP2 MSTORE PUSH1 0x20 ADD SWAP1 JUMP JUMPDEST PUSH1 0x0 PUSH2 0x14D3 DUP5 PUSH1 0x80 ADD MLOAD PUSH2 0x2718 JUMP JUMPDEST SWAP1 POP DUP5 PUSH1 0x0 ADD MLOAD PUSH3 0xFFFFFF AND DUP5 PUSH1 0x80 ADD MLOAD LT PUSH2 0x1533 JUMPI DUP5 PUSH1 0x0 ADD MLOAD PUSH3 0xFFFFFF AND DUP5 PUSH1 0x80 ADD MLOAD EQ ISZERO PUSH2 0x1503 JUMPI PUSH2 0x155E JUMP JUMPDEST PUSH1 0xC0 DUP5 ADD MLOAD ISZERO PUSH2 0x152E JUMPI DUP4 PUSH1 0x80 ADD MLOAD PUSH1 0x40 MLOAD PUSH4 0x2262D0A1 PUSH1 0xE2 SHL DUP2 MSTORE PUSH1 0x4 ADD PUSH2 0x5FA SWAP2 DUP2 MSTORE PUSH1 0x20 ADD SWAP1 JUMP JUMPDEST PUSH2 0x155E JUMP JUMPDEST PUSH1 0xA0 DUP5 ADD MLOAD ISZERO PUSH2 0x155E JUMPI DUP4 PUSH1 0x80 ADD MLOAD PUSH1 0x40 MLOAD PUSH4 0x2262D0A1 PUSH1 0xE2 SHL DUP2 MSTORE PUSH1 0x4 ADD PUSH2 0x5FA SWAP2 DUP2 MSTORE PUSH1 0x20 ADD SWAP1 JUMP JUMPDEST PUSH1 0x0 DUP5 PUSH1 0xC0 ADD MLOAD PUSH2 0x157F DUP7 PUSH1 0xA0 ADD MLOAD PUSH1 0x80 DUP6 PUSH2 0x2760 SWAP1 SWAP3 SWAP2 SWAP1 PUSH4 0xFFFFFFFF AND JUMP JUMPDEST PUSH2 0x1589 SWAP2 SWAP1 PUSH2 0x3896 JUMP JUMPDEST SWAP1 POP DUP1 PUSH2 0x15B1 JUMPI DUP5 PUSH1 0x80 ADD MLOAD PUSH1 0x40 MLOAD PUSH4 0xB42CD287 PUSH1 0xE0 SHL DUP2 MSTORE PUSH1 0x4 ADD PUSH2 0x5FA SWAP2 DUP2 MSTORE PUSH1 0x20 ADD SWAP1 JUMP JUMPDEST DUP1 DUP8 DUP6 DUP2 MLOAD DUP2 LT PUSH2 0x15C4 JUMPI PUSH2 0x15C4 PUSH2 0x386A JUMP JUMPDEST PUSH1 0x20 SWAP1 DUP2 MUL SWAP2 SWAP1 SWAP2 ADD ADD MSTORE PUSH1 0xA0 DUP6 ADD MLOAD DUP4 MLOAD DUP5 SWAP1 PUSH2 0x15E3 SWAP1 DUP4 SWAP1 PUSH2 0x394A JUMP JUMPDEST PUSH1 0x1 PUSH1 0x1 PUSH1 0x70 SHL SUB AND SWAP1 MSTORE POP PUSH1 0xC0 DUP6 ADD MLOAD PUSH1 0x20 DUP5 ADD DUP1 MLOAD PUSH2 0x1605 SWAP1 DUP4 SWAP1 PUSH2 0x394A JUMP JUMPDEST PUSH1 0x1 PUSH1 0x1 PUSH1 0x70 SHL SUB SWAP1 DUP2 AND SWAP1 SWAP2 MSTORE PUSH1 0xA0 DUP8 ADD DUP1 MLOAD PUSH1 0x20 DUP1 DUP12 ADD DUP1 MLOAD PUSH1 0x1 PUSH1 0x1 PUSH1 0x88 SHL SUB SWAP4 DUP7 AND ADD DUP4 AND SWAP1 MSTORE PUSH1 0xC0 DUP11 ADD DUP1 MLOAD PUSH1 0x40 DUP1 DUP15 ADD DUP1 MLOAD SWAP3 DUP9 AND SWAP3 SWAP1 SWAP3 ADD SWAP1 SWAP5 AND SWAP1 MSTORE SWAP3 MLOAD DUP3 DUP12 ADD DUP1 MLOAD SWAP1 SWAP2 ADD SWAP1 MSTORE SWAP2 MLOAD PUSH1 0x60 DUP1 DUP12 ADD DUP1 MLOAD SWAP1 SWAP3 ADD SWAP1 SWAP2 MSTORE PUSH1 0x80 DUP11 ADD DUP1 MLOAD PUSH1 0x0 SWAP1 DUP2 MSTORE PUSH1 0xA DUP6 MSTORE DUP4 SWAP1 KECCAK256 DUP10 MLOAD DUP2 SLOAD SWAP6 DUP12 ADD MLOAD DUP8 AND PUSH1 0x1 PUSH1 0x70 SHL MUL PUSH1 0x1 PUSH1 0x1 PUSH1 0xE0 SHL SUB NOT SWAP1 SWAP7 AND SWAP7 AND SWAP6 SWAP1 SWAP6 OR SWAP4 SWAP1 SWAP4 OR DUP5 SSTORE SWAP1 DUP8 ADD MLOAD PUSH1 0x1 DUP5 ADD SSTORE DUP7 ADD MLOAD PUSH1 0x2 SWAP1 SWAP3 ADD SWAP2 SWAP1 SWAP2 SSTORE MLOAD PUSH2 0x16C1 SWAP2 POP DUP12 SWAP1 DUP4 PUSH2 0x27EC JUMP JUMPDEST DUP5 PUSH1 0x80 ADD MLOAD DUP11 PUSH1 0x1 PUSH1 0x1 PUSH1 0xA0 SHL SUB AND CALLER PUSH1 0x1 PUSH1 0x1 PUSH1 0xA0 SHL SUB AND PUSH32 0x4216CC3BD0C40A90259D92F800C06EDE5C47765F41A488072B7E7104A1F95841 DUP9 PUSH1 0xA0 ADD MLOAD DUP10 PUSH1 0xC0 ADD MLOAD PUSH1 0x40 MLOAD PUSH2 0x171C SWAP3 SWAP2 SWAP1 SWAP2 DUP3 MSTORE PUSH1 0x20 DUP3 ADD MSTORE PUSH1 0x40 ADD SWAP1 JUMP JUMPDEST PUSH1 0x40 MLOAD DUP1 SWAP2 SUB SWAP1 LOG4 DUP4 PUSH1 0x1 ADD SWAP4 POP POP POP POP PUSH2 0x132E JUMP JUMPDEST POP DUP1 MLOAD PUSH1 0x40 DUP3 ADD MLOAD GT DUP1 PUSH2 0x174D JUMPI POP DUP1 PUSH1 0x20 ADD MLOAD DUP2 PUSH1 0x60 ADD MLOAD GT JUMPDEST ISZERO PUSH2 0x176B JUMPI PUSH1 0x40 MLOAD PUSH4 0xEEE8FF27 PUSH1 0xE0 SHL DUP2 MSTORE PUSH1 0x4 ADD PUSH1 0x40 MLOAD DUP1 SWAP2 SUB SWAP1 REVERT JUMPDEST DUP2 MLOAD PUSH1 0x6 DUP1 SLOAD PUSH1 0x20 DUP1 DUP7 ADD MLOAD PUSH1 0x1 PUSH1 0x1 PUSH1 0x88 SHL SUB SWAP1 DUP2 AND PUSH4 0x1000000 MUL PUSH1 0x1 PUSH1 0x1 PUSH1 0xA0 SHL SUB NOT SWAP1 SWAP4 AND PUSH3 0xFFFFFF SWAP1 SWAP6 AND SWAP5 SWAP1 SWAP5 OR SWAP2 SWAP1 SWAP2 OR SWAP1 SWAP2 SSTORE PUSH1 0x40 DUP1 DUP6 ADD MLOAD PUSH1 0x7 DUP1 SLOAD SWAP2 SWAP1 SWAP5 AND PUSH1 0x1 PUSH1 0x1 PUSH1 0x88 SHL SUB NOT SWAP1 SWAP2 AND OR SWAP1 SWAP3 SSTORE PUSH1 0x60 DUP5 ADD MLOAD DUP1 MLOAD SWAP2 ADD MLOAD PUSH1 0x1 PUSH1 0x1 PUSH1 0x80 SHL SUB SWAP1 DUP2 AND PUSH1 0x1 PUSH1 0x80 SHL MUL SWAP2 AND OR PUSH1 0x8 SSTORE DUP2 ADD MLOAD DUP2 MLOAD GT ISZERO PUSH2 0x1813 JUMPI PUSH1 0x40 DUP2 ADD MLOAD DUP2 MLOAD PUSH1 0x4 SLOAD PUSH2 0x1813 SWAP3 PUSH1 0x1 PUSH1 0x1 PUSH1 0xA0 SHL SUB SWAP1 SWAP2 AND SWAP2 DUP10 SWAP2 SWAP1 SUB PUSH2 0x1FCF JUMP JUMPDEST DUP1 PUSH1 0x60 ADD MLOAD DUP2 PUSH1 0x20 ADD MLOAD GT ISZERO PUSH2 0x1849 JUMPI PUSH1 0x60 DUP2 ADD MLOAD PUSH1 0x20 DUP3 ADD MLOAD PUSH1 0x5 SLOAD PUSH2 0x1849 SWAP3 PUSH1 0x1 PUSH1 0x1 PUSH1 0xA0 SHL SUB SWAP1 SWAP2 AND SWAP2 DUP10 SWAP2 SWAP1 SUB PUSH2 0x1FCF JUMP JUMPDEST PUSH1 0x40 DUP2 ADD MLOAD PUSH1 0x60 SWAP1 SWAP2 ADD MLOAD PUSH1 0x1 PUSH1 0x3 SSTORE SWAP1 SWAP13 SWAP1 SWAP12 POP SWAP2 SWAP10 POP SWAP1 SWAP8 POP POP POP POP POP POP POP POP JUMP JUMPDEST PUSH1 0x0 PUSH2 0x187B PUSH1 0xB DUP5 DUP5 PUSH2 0x2562 JUMP JUMPDEST SWAP4 SWAP3 POP POP POP JUMP JUMPDEST PUSH1 0x0 PUSH1 0x1 PUSH1 0x3 SLOAD EQ PUSH2 0x18A7 JUMPI PUSH1 0x40 MLOAD PUSH4 0x802D9BF1 PUSH1 0xE0 SHL DUP2 MSTORE PUSH1 0x4 ADD PUSH1 0x40 MLOAD DUP1 SWAP2 SUB SWAP1 REVERT JUMPDEST PUSH1 0x2 PUSH1 0x3 DUP2 SWAP1 SSTORE POP PUSH1 0x0 PUSH32 0x0 PUSH1 0x1 PUSH1 0x1 PUSH1 0xA0 SHL SUB AND PUSH4 0x46904840 PUSH1 0x40 MLOAD DUP2 PUSH4 0xFFFFFFFF AND PUSH1 0xE0 SHL DUP2 MSTORE PUSH1 0x4 ADD PUSH1 0x20 PUSH1 0x40 MLOAD DUP1 DUP4 SUB DUP2 DUP7 GAS STATICCALL ISZERO DUP1 ISZERO PUSH2 0x190F JUMPI RETURNDATASIZE PUSH1 0x0 DUP1 RETURNDATACOPY RETURNDATASIZE PUSH1 0x0 REVERT JUMPDEST POP POP POP POP PUSH1 0x40 MLOAD RETURNDATASIZE PUSH1 0x1F NOT PUSH1 0x1F DUP3 ADD AND DUP3 ADD DUP1 PUSH1 0x40 MSTORE POP DUP2 ADD SWAP1 PUSH2 0x1933 SWAP2 SWAP1 PUSH2 0x3975 JUMP JUMPDEST SWAP1 POP CALLER PUSH1 0x1 PUSH1 0x1 PUSH1 0xA0 SHL SUB DUP3 AND EQ PUSH2 0x196F JUMPI PUSH1 0x40 MLOAD PUSH4 0x1ED01E05 PUSH1 0xE3 SHL DUP2 MSTORE PUSH1 0x1 PUSH1 0x1 PUSH1 0xA0 SHL SUB DUP3 AND PUSH1 0x4 DUP3 ADD MSTORE CALLER PUSH1 0x24 DUP3 ADD MSTORE PUSH1 0x44 ADD PUSH2 0x5FA JUMP JUMPDEST PUSH1 0x0 DUP1 PUSH2 0x1990 PUSH1 0x8 SLOAD PUSH1 0x1 PUSH1 0x1 PUSH1 0x80 SHL SUB DUP1 DUP3 AND SWAP3 PUSH1 0x1 PUSH1 0x80 SHL SWAP1 SWAP3 DIV AND SWAP1 JUMP JUMPDEST SWAP2 POP SWAP2 POP PUSH1 0x1 DUP2 PUSH1 0x1 PUSH1 0x1 PUSH1 0x80 SHL SUB AND GT ISZERO PUSH2 0x1A08 JUMPI PUSH2 0x19B1 PUSH1 0x1 DUP3 PUSH2 0x38AE JUMP JUMPDEST SWAP4 POP PUSH2 0x19BD DUP5 DUP4 PUSH2 0x38AE JUMP JUMPDEST PUSH1 0x40 DUP1 MLOAD DUP1 DUP3 ADD SWAP1 SWAP2 MSTORE PUSH1 0x1 PUSH1 0x1 PUSH1 0x80 SHL SUB DUP1 DUP4 AND DUP1 DUP4 MSTORE PUSH1 0x1 PUSH1 0x20 SWAP1 SWAP4 ADD SWAP3 SWAP1 SWAP3 MSTORE PUSH1 0x1 PUSH1 0x80 SHL SWAP1 SWAP2 OR PUSH1 0x8 SSTORE PUSH1 0x5 SLOAD SWAP2 SWAP4 POP PUSH2 0x1A08 SWAP2 PUSH1 0x1 PUSH1 0x1 PUSH1 0xA0 SHL SUB AND SWAP1 DUP6 SWAP1 DUP8 AND PUSH2 0x1FCF JUMP JUMPDEST PUSH1 0x40 DUP1 MLOAD PUSH1 0x0 DUP2 MSTORE PUSH1 0x1 PUSH1 0x1 PUSH1 0x80 SHL SUB DUP7 AND PUSH1 0x20 DUP3 ADD MSTORE PUSH1 0x1 PUSH1 0x1 PUSH1 0xA0 SHL SUB DUP6 AND SWAP2 CALLER SWAP2 PUSH32 0x26B782206D6B531BF95D487110CFEFDC443291F176F1977E94ABCB7E67BD1B79 SWAP2 ADD PUSH1 0x40 MLOAD DUP1 SWAP2 SUB SWAP1 LOG3 POP POP PUSH1 0x1 PUSH1 0x3 SSTORE POP SWAP1 JUMP JUMPDEST PUSH2 0x1A6D CALLER DUP4 DUP4 PUSH2 0x28AA JUMP JUMPDEST POP POP JUMP JUMPDEST PUSH1 0x0 DUP1 PUSH2 0x1A92 PUSH1 0x8 SLOAD PUSH1 0x1 PUSH1 0x1 PUSH1 0x80 SHL SUB DUP1 DUP3 AND SWAP3 PUSH1 0x1 PUSH1 0x80 SHL SWAP1 SWAP3 DIV AND SWAP1 JUMP JUMPDEST SWAP2 POP SWAP2 POP SWAP1 SWAP2 JUMP JUMPDEST PUSH1 0x0 PUSH2 0x187B DUP4 DUP4 PUSH2 0x206F JUMP JUMPDEST PUSH1 0x0 PUSH1 0x1 PUSH1 0x1 PUSH1 0xA0 SHL SUB DUP5 AND ADDRESS EQ DUP1 PUSH2 0x1AC6 JUMPI POP PUSH1 0x1 PUSH1 0x1 PUSH1 0xA0 SHL SUB DUP5 AND ISZERO JUMPDEST ISZERO PUSH2 0x1AD3 JUMPI POP PUSH1 0x0 PUSH2 0x187B JUMP JUMPDEST POP PUSH1 0x1 PUSH1 0x1 PUSH1 0xA0 SHL SUB DUP4 AND PUSH1 0x0 SWAP1 DUP2 MSTORE PUSH1 0xE PUSH1 0x20 MSTORE PUSH1 0x40 DUP2 KECCAK256 SLOAD PUSH1 0x1 PUSH1 0x1 PUSH1 0x80 SHL SUB AND SWAP1 DUP1 JUMPDEST DUP4 DUP2 LT ISZERO PUSH2 0x1BD5 JUMPI PUSH1 0x0 DUP6 DUP6 DUP4 DUP2 DUP2 LT PUSH2 0x1B15 JUMPI PUSH2 0x1B15 PUSH2 0x386A JUMP JUMPDEST SWAP1 POP PUSH1 0x20 MUL ADD CALLDATALOAD SWAP1 POP DUP1 DUP4 LT ISZERO DUP1 ISZERO PUSH2 0x1B2D JUMPI POP DUP2 ISZERO ISZERO JUMPDEST ISZERO PUSH2 0x1B4B JUMPI PUSH1 0x40 MLOAD PUSH4 0xE15C23B PUSH1 0xE3 SHL DUP2 MSTORE PUSH1 0x4 ADD PUSH1 0x40 MLOAD DUP1 SWAP2 SUB SWAP1 REVERT JUMPDEST PUSH1 0x0 PUSH2 0x1B57 DUP9 DUP4 PUSH2 0x499 JUMP JUMPDEST SWAP1 POP DUP1 ISZERO PUSH2 0x1BCA JUMPI PUSH1 0x0 DUP3 DUP2 MSTORE PUSH1 0xA PUSH1 0x20 SWAP1 DUP2 MSTORE PUSH1 0x40 DUP1 DUP4 KECCAK256 DUP2 MLOAD PUSH1 0x80 DUP2 ADD DUP4 MSTORE DUP2 SLOAD PUSH1 0x1 PUSH1 0x1 PUSH1 0x70 SHL SUB DUP1 DUP3 AND DUP4 MSTORE PUSH1 0x1 PUSH1 0x70 SHL SWAP1 SWAP2 DIV AND SWAP4 DUP2 ADD SWAP4 SWAP1 SWAP4 MSTORE PUSH1 0x1 DUP2 ADD SLOAD SWAP2 DUP4 ADD SWAP2 SWAP1 SWAP2 MSTORE PUSH1 0x2 ADD SLOAD PUSH1 0x60 DUP3 ADD MSTORE SWAP1 PUSH2 0x1BB9 DUP3 DUP12 DUP7 DUP7 PUSH2 0x215B JUMP JUMPDEST PUSH1 0x1 PUSH1 0x1 PUSH1 0x80 SHL SUB AND SWAP7 SWAP1 SWAP7 ADD SWAP6 POP POP JUMPDEST POP SWAP2 POP PUSH1 0x1 ADD PUSH2 0x1AF9 JUMP JUMPDEST POP POP SWAP4 SWAP3 POP POP POP JUMP JUMPDEST DUP3 DUP2 DUP1 DUP3 EQ PUSH2 0x1C0A JUMPI PUSH1 0x40 MLOAD PUSH4 0x9C802A75 PUSH1 0xE0 SHL DUP2 MSTORE PUSH1 0x4 DUP2 ADD DUP4 SWAP1 MSTORE PUSH1 0x24 DUP2 ADD DUP3 SWAP1 MSTORE PUSH1 0x44 ADD PUSH2 0x5FA JUMP JUMPDEST DUP8 DUP8 PUSH1 0x1 PUSH1 0x1 PUSH1 0xA0 SHL SUB DUP3 AND ISZERO DUP1 PUSH2 0x1C29 JUMPI POP PUSH1 0x1 PUSH1 0x1 PUSH1 0xA0 SHL SUB DUP2 AND ISZERO JUMPDEST ISZERO PUSH2 0x1C47 JUMPI PUSH1 0x40 MLOAD PUSH4 0x20D2339 PUSH1 0xE5 SHL DUP2 MSTORE PUSH1 0x4 ADD PUSH1 0x40 MLOAD DUP1 SWAP2 SUB SWAP1 REVERT JUMPDEST DUP1 PUSH1 0x1 PUSH1 0x1 PUSH1 0xA0 SHL SUB AND DUP3 PUSH1 0x1 PUSH1 0x1 PUSH1 0xA0 SHL SUB AND EQ ISZERO PUSH2 0x1C7A JUMPI PUSH1 0x40 MLOAD PUSH4 0x8696F167 PUSH1 0xE0 SHL DUP2 MSTORE PUSH1 0x4 ADD PUSH1 0x40 MLOAD DUP1 SWAP2 SUB SWAP1 REVERT JUMPDEST DUP10 CALLER PUSH2 0x1C86 DUP3 DUP3 PUSH2 0x206F JUMP JUMPDEST PUSH2 0x1CB6 JUMPI PUSH1 0x40 MLOAD PUSH4 0x548F773D PUSH1 0xE0 SHL DUP2 MSTORE PUSH1 0x1 PUSH1 0x1 PUSH1 0xA0 SHL SUB DUP1 DUP5 AND PUSH1 0x4 DUP4 ADD MSTORE DUP3 AND PUSH1 0x24 DUP3 ADD MSTORE PUSH1 0x44 ADD PUSH2 0x5FA JUMP JUMPDEST PUSH1 0x0 JUMPDEST DUP10 DUP2 LT ISZERO PUSH2 0x1D05 JUMPI PUSH2 0x1CFD DUP14 DUP14 DUP14 DUP14 DUP6 DUP2 DUP2 LT PUSH2 0x1CD8 JUMPI PUSH2 0x1CD8 PUSH2 0x386A JUMP JUMPDEST SWAP1 POP PUSH1 0x20 MUL ADD CALLDATALOAD DUP13 DUP13 DUP7 DUP2 DUP2 LT PUSH2 0x1CF1 JUMPI PUSH2 0x1CF1 PUSH2 0x386A JUMP JUMPDEST SWAP1 POP PUSH1 0x20 MUL ADD CALLDATALOAD PUSH2 0x20BB JUMP JUMPDEST PUSH1 0x1 ADD PUSH2 0x1CB9 JUMP JUMPDEST POP DUP11 PUSH1 0x1 PUSH1 0x1 PUSH1 0xA0 SHL SUB AND DUP13 PUSH1 0x1 PUSH1 0x1 PUSH1 0xA0 SHL SUB AND CALLER PUSH1 0x1 PUSH1 0x1 PUSH1 0xA0 SHL SUB AND PUSH32 0x4A39DC06D4C0DBC64B70AF90FD698A233A518AA5D07E595D983B8C0526C8F7FB DUP14 DUP14 DUP14 DUP14 PUSH1 0x40 MLOAD PUSH2 0x1D59 SWAP5 SWAP4 SWAP3 SWAP2 SWAP1 PUSH2 0x39C8 JUMP JUMPDEST PUSH1 0x40 MLOAD DUP1 SWAP2 SUB SWAP1 LOG4 POP POP POP POP POP POP POP POP POP POP POP POP JUMP JUMPDEST PUSH1 0x0 PUSH1 0x1 PUSH1 0x1 PUSH1 0xE0 SHL SUB NOT DUP3 AND PUSH4 0x37EB4F63 PUSH1 0xE2 SHL EQ DUP1 PUSH2 0x4BB JUMPI POP PUSH1 0x1 PUSH1 0x1 PUSH1 0xE0 SHL SUB NOT DUP3 AND PUSH4 0x1FFC9A7 PUSH1 0xE0 SHL EQ SWAP3 SWAP2 POP POP JUMP JUMPDEST PUSH1 0x0 DUP2 DUP2 MSTORE PUSH1 0xA PUSH1 0x20 MSTORE PUSH1 0x40 SWAP1 KECCAK256 SLOAD PUSH1 0x1 PUSH1 0x1 PUSH1 0x70 SHL SUB DUP2 DUP2 AND SWAP2 PUSH1 0x70 DUP2 SWAP1 SHR SWAP2 PUSH2 0x1DCF DUP5 PUSH2 0x2416 JUMP JUMPDEST PUSH2 0x1DD8 DUP5 PUSH2 0x2416 JUMP JUMPDEST PUSH1 0x1 PUSH1 0x1 PUSH1 0x70 SHL SUB SWAP2 DUP3 AND SWAP8 SWAP2 AND SWAP6 POP SWAP4 POP POP POP POP JUMP JUMPDEST DUP1 PUSH3 0xFFFFFF DUP2 AND DUP2 EQ PUSH2 0x1E18 JUMPI PUSH1 0x40 MLOAD PUSH4 0x1DA527CF PUSH1 0xE2 SHL DUP2 MSTORE PUSH1 0x4 DUP2 ADD DUP4 SWAP1 MSTORE PUSH1 0x24 ADD PUSH2 0x5FA JUMP JUMPDEST SWAP2 SWAP1 POP JUMP JUMPDEST PUSH1 0x0 DUP1 PUSH1 0x0 PUSH2 0x1E2C DUP7 DUP7 PUSH2 0x2955 JUMP JUMPDEST SWAP2 POP SWAP2 POP PUSH2 0x1E3D DUP7 DUP7 DUP7 DUP6 DUP6 PUSH2 0x2974 JUMP JUMPDEST SWAP7 SWAP6 POP POP POP POP POP POP JUMP JUMPDEST PUSH1 0x8 DUP2 SWAP1 SHR PUSH1 0x0 DUP2 DUP2 MSTORE PUSH1 0x2 DUP5 ADD PUSH1 0x20 MSTORE PUSH1 0x40 SWAP1 KECCAK256 DUP1 SLOAD PUSH1 0x1 PUSH1 0xFF DUP6 AND SHL PUSH1 0x0 NOT XOR AND SWAP1 DUP2 SWAP1 SSTORE DUP1 PUSH2 0x1EC4 JUMPI POP PUSH1 0x10 DUP3 SWAP1 SHR PUSH1 0x0 DUP2 DUP2 MSTORE PUSH1 0x1 DUP6 DUP2 ADD PUSH1 0x20 MSTORE PUSH1 0x40 SWAP1 SWAP2 KECCAK256 DUP1 SLOAD PUSH1 0xFF DUP6 AND SWAP3 SWAP1 SWAP3 SHL PUSH1 0x0 NOT XOR SWAP1 SWAP2 AND SWAP1 DUP2 SWAP1 SSTORE SWAP1 DUP2 PUSH2 0x1EC2 JUMPI PUSH1 0x0 DUP1 DUP1 MSTORE PUSH1 0x20 DUP7 SWAP1 MSTORE PUSH1 0x40 SWAP1 KECCAK256 DUP1 SLOAD PUSH1 0x1 DUP4 SHL PUSH1 0x0 NOT XOR AND SWAP1 SSTORE JUMPDEST POP JUMPDEST POP POP POP POP JUMP JUMPDEST PUSH1 0x1 PUSH1 0x1 PUSH1 0xA0 SHL SUB DUP4 AND PUSH2 0x1EF1 JUMPI PUSH1 0x40 MLOAD PUSH4 0x1306FC59 PUSH1 0xE1 SHL DUP2 MSTORE PUSH1 0x4 ADD PUSH1 0x40 MLOAD DUP1 SWAP2 SUB SWAP1 REVERT JUMPDEST PUSH1 0x0 DUP3 DUP2 MSTORE PUSH1 0x20 DUP2 DUP2 MSTORE PUSH1 0x40 DUP1 DUP4 KECCAK256 PUSH1 0x1 PUSH1 0x1 PUSH1 0xA0 SHL SUB DUP8 AND DUP5 MSTORE SWAP1 SWAP2 MSTORE SWAP1 KECCAK256 SLOAD DUP2 DUP2 LT ISZERO PUSH2 0x1F4B JUMPI PUSH1 0x40 MLOAD PUSH3 0x5B3877 PUSH1 0xE3 SHL DUP2 MSTORE PUSH1 0x1 PUSH1 0x1 PUSH1 0xA0 SHL SUB DUP6 AND PUSH1 0x4 DUP3 ADD MSTORE PUSH1 0x24 DUP2 ADD DUP5 SWAP1 MSTORE PUSH1 0x44 DUP2 ADD DUP4 SWAP1 MSTORE PUSH1 0x64 ADD PUSH2 0x5FA JUMP JUMPDEST PUSH2 0x1F58 DUP5 PUSH1 0x0 DUP6 DUP6 PUSH2 0x2A27 JUMP JUMPDEST PUSH1 0x0 DUP4 DUP2 MSTORE PUSH1 0x20 DUP2 DUP2 MSTORE PUSH1 0x40 DUP1 DUP4 KECCAK256 PUSH1 0x1 PUSH1 0x1 PUSH1 0xA0 SHL SUB DUP9 AND DUP1 DUP6 MSTORE SWAP1 DUP4 MSTORE DUP2 DUP5 KECCAK256 DUP7 DUP7 SUB SWAP1 SSTORE DUP7 DUP5 MSTORE PUSH1 0x2 DUP4 MSTORE DUP2 DUP5 KECCAK256 DUP1 SLOAD DUP8 SWAP1 SUB SWAP1 SSTORE DUP2 MLOAD DUP8 DUP2 MSTORE SWAP3 DUP4 ADD DUP7 SWAP1 MSTORE SWAP2 CALLER SWAP2 PUSH32 0xC3D58168C5AE7397731D063D5BBF3D657854427343F4C083240F7AACAA2D0F62 SWAP2 ADD PUSH1 0x40 MLOAD DUP1 SWAP2 SUB SWAP1 LOG4 POP POP POP POP JUMP JUMPDEST DUP1 ISZERO PUSH2 0x206A JUMPI PUSH1 0x40 DUP1 MLOAD PUSH1 0x1 PUSH1 0x1 PUSH1 0xA0 SHL SUB DUP5 AND PUSH1 0x24 DUP3 ADD MSTORE PUSH1 0x44 DUP1 DUP3 ADD DUP5 SWAP1 MSTORE DUP3 MLOAD DUP1 DUP4 SUB SWAP1 SWAP2 ADD DUP2 MSTORE PUSH1 0x64 SWAP1 SWAP2 ADD SWAP1 SWAP2 MSTORE PUSH1 0x20 DUP2 ADD DUP1 MLOAD PUSH1 0x1 PUSH1 0x1 PUSH1 0xE0 SHL SUB AND PUSH4 0xA9059CBB PUSH1 0xE0 SHL OR SWAP1 MSTORE PUSH1 0x0 PUSH2 0x2028 DUP6 DUP4 PUSH2 0x2B29 JUMP JUMPDEST SWAP1 POP PUSH1 0x0 DUP2 MLOAD GT DUP1 ISZERO PUSH2 0x204C JUMPI POP DUP1 DUP1 PUSH1 0x20 ADD SWAP1 MLOAD DUP2 ADD SWAP1 PUSH2 0x204A SWAP2 SWAP1 PUSH2 0x39FA JUMP JUMPDEST ISZERO JUMPDEST ISZERO PUSH2 0x1EC2 JUMPI PUSH1 0x40 MLOAD PUSH4 0x197138BD PUSH1 0xE1 SHL DUP2 MSTORE PUSH1 0x4 ADD PUSH1 0x40 MLOAD DUP1 SWAP2 SUB SWAP1 REVERT JUMPDEST POP POP POP JUMP JUMPDEST PUSH1 0x0 DUP2 PUSH1 0x1 PUSH1 0x1 PUSH1 0xA0 SHL SUB AND DUP4 PUSH1 0x1 PUSH1 0x1 PUSH1 0xA0 SHL SUB AND EQ DUP1 PUSH2 0x187B JUMPI POP POP PUSH1 0x1 PUSH1 0x1 PUSH1 0xA0 SHL SUB SWAP2 DUP3 AND PUSH1 0x0 SWAP1 DUP2 MSTORE PUSH1 0x1 PUSH1 0x20 SWAP1 DUP2 MSTORE PUSH1 0x40 DUP1 DUP4 KECCAK256 SWAP4 SWAP1 SWAP5 AND DUP3 MSTORE SWAP2 SWAP1 SWAP2 MSTORE KECCAK256 SLOAD PUSH1 0xFF AND SWAP1 JUMP JUMPDEST PUSH1 0x0 DUP3 DUP2 MSTORE PUSH1 0x20 DUP2 DUP2 MSTORE PUSH1 0x40 DUP1 DUP4 KECCAK256 PUSH1 0x1 PUSH1 0x1 PUSH1 0xA0 SHL SUB DUP9 AND DUP5 MSTORE SWAP1 SWAP2 MSTORE SWAP1 KECCAK256 SLOAD DUP2 DUP2 LT ISZERO PUSH2 0x2116 JUMPI PUSH1 0x40 MLOAD PUSH4 0x58B4690F PUSH1 0xE0 SHL DUP2 MSTORE PUSH1 0x1 PUSH1 0x1 PUSH1 0xA0 SHL SUB DUP7 AND PUSH1 0x4 DUP3 ADD MSTORE PUSH1 0x24 DUP2 ADD DUP5 SWAP1 MSTORE PUSH1 0x44 DUP2 ADD DUP4 SWAP1 MSTORE PUSH1 0x64 ADD PUSH2 0x5FA JUMP JUMPDEST PUSH2 0x2122 DUP6 DUP6 DUP6 DUP6 PUSH2 0x2A27 JUMP JUMPDEST PUSH1 0x0 SWAP3 DUP4 MSTORE PUSH1 0x20 DUP4 DUP2 MSTORE PUSH1 0x40 DUP1 DUP6 KECCAK256 PUSH1 0x1 PUSH1 0x1 PUSH1 0xA0 SHL SUB SWAP8 DUP9 AND DUP7 MSTORE SWAP1 SWAP2 MSTORE DUP1 DUP5 KECCAK256 SWAP2 DUP4 SWAP1 SUB SWAP1 SWAP2 SSTORE SWAP3 SWAP1 SWAP4 AND DUP2 MSTORE KECCAK256 DUP1 SLOAD SWAP1 SWAP2 ADD SWAP1 SSTORE JUMP JUMPDEST PUSH1 0x1 PUSH1 0x1 PUSH1 0xA0 SHL SUB DUP4 AND PUSH1 0x0 SWAP1 DUP2 MSTORE PUSH1 0xF PUSH1 0x20 SWAP1 DUP2 MSTORE PUSH1 0x40 DUP1 DUP4 KECCAK256 DUP6 DUP5 MSTORE SWAP1 SWAP2 MSTORE DUP2 KECCAK256 SLOAD PUSH1 0x60 DUP7 ADD MLOAD PUSH2 0x1E3D SWAP1 DUP3 SWAP1 PUSH2 0x2196 SWAP1 DUP7 PUSH1 0x80 PUSH2 0x2760 JUMP JUMPDEST PUSH2 0x21A0 SWAP2 SWAP1 PUSH2 0x3909 JUMP JUMPDEST PUSH2 0x2BFC JUMP JUMPDEST PUSH1 0x60 DUP5 ADD MLOAD PUSH1 0x0 SWAP1 PUSH2 0x21B9 SWAP1 DUP4 PUSH1 0x80 PUSH2 0x2760 JUMP JUMPDEST PUSH1 0x1 PUSH1 0x1 PUSH1 0xA0 SHL SUB SWAP1 SWAP5 AND PUSH1 0x0 SWAP1 DUP2 MSTORE PUSH1 0xF PUSH1 0x20 SWAP1 DUP2 MSTORE PUSH1 0x40 DUP1 DUP4 KECCAK256 SWAP6 DUP4 MSTORE SWAP5 SWAP1 MSTORE SWAP3 SWAP1 SWAP3 KECCAK256 SWAP3 SWAP1 SWAP3 SSTORE POP POP POP JUMP JUMPDEST PUSH2 0x21F0 PUSH2 0x2C29 JUMP JUMPDEST JUMP JUMPDEST PUSH1 0x40 MLOAD PUSH4 0x70A08231 PUSH1 0xE0 SHL DUP2 MSTORE ADDRESS PUSH1 0x4 DUP3 ADD MSTORE PUSH1 0x0 SWAP1 DUP3 DUP5 ADD SWAP1 DUP2 SWAP1 PUSH1 0x1 PUSH1 0x1 PUSH1 0xA0 SHL SUB DUP8 AND SWAP1 PUSH4 0x70A08231 SWAP1 PUSH1 0x24 ADD PUSH1 0x20 PUSH1 0x40 MLOAD DUP1 DUP4 SUB DUP2 DUP7 GAS STATICCALL ISZERO DUP1 ISZERO PUSH2 0x223F JUMPI RETURNDATASIZE PUSH1 0x0 DUP1 RETURNDATACOPY RETURNDATASIZE PUSH1 0x0 REVERT JUMPDEST POP POP POP POP PUSH1 0x40 MLOAD RETURNDATASIZE PUSH1 0x1F NOT PUSH1 0x1F DUP3 ADD AND DUP3 ADD DUP1 PUSH1 0x40 MSTORE POP DUP2 ADD SWAP1 PUSH2 0x2263 SWAP2 SWAP1 PUSH2 0x3A17 JUMP JUMPDEST PUSH2 0x226D SWAP2 SWAP1 PUSH2 0x3909 JUMP JUMPDEST SWAP6 SWAP5 POP POP POP POP POP JUMP JUMPDEST PUSH1 0x40 DUP1 MLOAD DUP1 DUP3 ADD SWAP1 SWAP2 MSTORE PUSH1 0x0 DUP1 DUP3 MSTORE PUSH1 0x20 DUP3 ADD DUP2 SWAP1 MSTORE SWAP1 DUP2 SWAP1 PUSH1 0x0 PUSH2 0x229A DUP8 PUSH2 0x2718 JUMP JUMPDEST SWAP1 POP PUSH1 0x0 DUP1 DUP8 ISZERO PUSH2 0x231D JUMPI PUSH1 0x20 DUP12 ADD MLOAD PUSH1 0x1 PUSH1 0x1 PUSH1 0x70 SHL SUB AND SWAP2 POP PUSH2 0x22C1 DUP3 PUSH1 0x80 DUP6 PUSH2 0x2C51 JUMP JUMPDEST SWAP1 POP PUSH2 0x22D7 PUSH2 0x22D0 DUP12 DUP5 PUSH2 0x2C83 JUMP JUMPDEST DUP12 SWAP1 PUSH2 0x2CD2 JUMP JUMPDEST SWAP4 POP DUP7 DUP2 GT PUSH2 0x22EB JUMPI DUP1 SWAP6 POP DUP2 SWAP5 POP PUSH2 0x230C JUMP JUMPDEST DUP7 SWAP6 POP PUSH2 0x22FA DUP4 DUP8 PUSH1 0x80 PUSH2 0x2760 JUMP JUMPDEST SWAP5 POP PUSH2 0x2309 PUSH2 0x22D0 DUP12 DUP8 PUSH2 0x2C83 JUMP JUMPDEST SWAP4 POP JUMPDEST DUP2 DUP6 GT ISZERO PUSH2 0x2318 JUMPI DUP2 SWAP5 POP JUMPDEST PUSH2 0x23B1 JUMP JUMPDEST DUP11 MLOAD PUSH1 0x1 PUSH1 0x1 PUSH1 0x70 SHL SUB AND SWAP2 POP PUSH2 0x2336 DUP4 DUP4 PUSH1 0x80 PUSH2 0x2D1D JUMP JUMPDEST SWAP1 POP PUSH2 0x2345 PUSH2 0x22D0 DUP12 DUP4 PUSH2 0x2D4F JUMP JUMPDEST DUP1 MLOAD SWAP1 SWAP5 POP DUP8 SWAP1 PUSH2 0x235F SWAP1 PUSH1 0x1 PUSH1 0x1 PUSH1 0x80 SHL SUB AND DUP4 PUSH2 0x3896 JUMP JUMPDEST GT PUSH2 0x236F JUMPI DUP1 SWAP6 POP DUP2 SWAP5 POP PUSH2 0x23A5 JUMP JUMPDEST PUSH2 0x237C PUSH2 0x22D0 DUP12 DUP10 PUSH2 0x2C83 JUMP JUMPDEST DUP1 MLOAD SWAP1 SWAP5 POP PUSH2 0x2394 SWAP1 PUSH1 0x1 PUSH1 0x1 PUSH1 0x80 SHL SUB AND DUP9 PUSH2 0x3909 JUMP JUMPDEST SWAP6 POP PUSH2 0x23A2 DUP7 PUSH1 0x80 DUP6 PUSH2 0x2DA7 JUMP JUMPDEST SWAP5 POP JUMPDEST DUP2 DUP6 GT ISZERO PUSH2 0x23B1 JUMPI DUP2 SWAP5 POP JUMPDEST POP POP POP SWAP6 POP SWAP6 POP SWAP6 SWAP3 POP POP POP JUMP JUMPDEST DUP2 MLOAD DUP4 MLOAD DUP5 SWAP1 PUSH2 0x23D0 SWAP1 DUP4 SWAP1 PUSH2 0x3A30 JUMP JUMPDEST PUSH1 0x1 PUSH1 0x1 PUSH1 0x80 SHL SUB SWAP1 DUP2 AND SWAP1 SWAP2 MSTORE PUSH1 0x20 DUP1 DUP6 ADD MLOAD SWAP1 DUP7 ADD DUP1 MLOAD SWAP1 SWAP2 ADD SWAP1 SWAP2 AND SWAP1 MSTORE POP PUSH2 0x23FC DUP3 DUP3 PUSH2 0x2DEA JUMP JUMPDEST DUP5 PUSH1 0x60 ADD DUP2 DUP2 MLOAD PUSH2 0x240D SWAP2 SWAP1 PUSH2 0x3896 JUMP JUMPDEST SWAP1 MSTORE POP POP POP POP POP JUMP JUMPDEST DUP1 PUSH1 0x1 PUSH1 0x1 PUSH1 0x70 SHL SUB DUP2 AND DUP2 EQ PUSH2 0x1E18 JUMPI PUSH1 0x40 MLOAD PUSH4 0x1CE5DCF7 PUSH1 0xE0 SHL DUP2 MSTORE PUSH1 0x4 DUP2 ADD DUP4 SWAP1 MSTORE PUSH1 0x24 ADD PUSH2 0x5FA JUMP JUMPDEST DUP3 ISZERO PUSH2 0x24A2 JUMPI DUP2 DUP6 PUSH1 0x0 ADD DUP2 DUP2 MLOAD PUSH2 0x245B SWAP2 SWAP1 PUSH2 0x394A JUMP JUMPDEST PUSH1 0x1 PUSH1 0x1 PUSH1 0x70 SHL SUB SWAP1 DUP2 AND SWAP1 SWAP2 MSTORE PUSH1 0x20 DUP8 DUP2 ADD DUP1 MLOAD DUP6 SWAP1 SUB DUP4 AND SWAP1 MSTORE DUP7 ADD DUP1 MLOAD DUP6 DUP4 AND ADD PUSH1 0x1 PUSH1 0x1 PUSH1 0x88 SHL SUB SWAP1 DUP2 AND SWAP1 SWAP2 MSTORE PUSH1 0x40 DUP8 ADD DUP1 MLOAD SWAP3 DUP6 AND SWAP1 SWAP3 SUB AND SWAP1 MSTORE POP PUSH2 0x1EC2 JUMP JUMPDEST DUP2 DUP6 PUSH1 0x20 ADD DUP2 DUP2 MLOAD PUSH2 0x24B4 SWAP2 SWAP1 PUSH2 0x394A JUMP JUMPDEST PUSH1 0x1 PUSH1 0x1 PUSH1 0x70 SHL SUB SWAP1 DUP2 AND SWAP1 SWAP2 MSTORE DUP7 MLOAD DUP4 SWAP1 SUB DUP2 AND DUP8 MSTORE PUSH1 0x20 DUP7 ADD DUP1 MLOAD PUSH1 0x1 PUSH1 0x1 PUSH1 0x88 SHL SUB DUP6 DUP5 AND SWAP1 SWAP2 SUB DUP2 AND SWAP1 SWAP2 MSTORE PUSH1 0x40 DUP8 ADD DUP1 MLOAD SWAP3 DUP7 AND SWAP3 SWAP1 SWAP3 ADD AND SWAP1 MSTORE POP POP POP POP POP POP JUMP JUMPDEST PUSH1 0x40 DUP1 MLOAD DUP6 ISZERO ISZERO DUP2 MSTORE PUSH1 0x20 DUP2 ADD DUP6 SWAP1 MSTORE SWAP1 DUP2 ADD DUP4 SWAP1 MSTORE PUSH1 0x60 DUP2 ADD DUP3 SWAP1 MSTORE PUSH3 0xFFFFFF DUP7 AND SWAP1 PUSH1 0x1 PUSH1 0x1 PUSH1 0xA0 SHL SUB DUP9 AND SWAP1 CALLER SWAP1 PUSH32 0xECF99D2DEDA7530F80E6274A4CE988D363C20555709028BECD02DE276EEA9796 SWAP1 PUSH1 0x80 ADD PUSH1 0x40 MLOAD DUP1 SWAP2 SUB SWAP1 LOG4 POP POP POP POP POP POP JUMP JUMPDEST PUSH2 0xFFFF PUSH1 0x8 DUP4 SWAP1 SHR AND SWAP2 PUSH1 0x0 SWAP1 DUP2 SWAP1 PUSH1 0xFF AND DUP4 DUP1 ISZERO PUSH2 0x2580 JUMPI POP DUP1 ISZERO ISZERO JUMPDEST DUP1 PUSH2 0x2595 JUMPI POP DUP4 ISZERO DUP1 ISZERO PUSH2 0x2595 JUMPI POP DUP1 PUSH1 0xFF EQ ISZERO JUMPDEST ISZERO PUSH2 0x25E0 JUMPI PUSH3 0xFFFFFF DUP6 AND PUSH1 0x0 SWAP1 DUP2 MSTORE PUSH1 0x2 DUP8 ADD PUSH1 0x20 MSTORE PUSH1 0x40 SWAP1 KECCAK256 SLOAD SWAP2 POP PUSH2 0x25BE DUP3 DUP3 DUP7 PUSH2 0x2E23 JUMP JUMPDEST SWAP1 POP PUSH1 0x0 NOT DUP2 EQ PUSH2 0x25E0 JUMPI PUSH4 0xFFFFFF00 PUSH1 0x8 DUP7 SWAP1 SHL AND DUP2 ADD JUMPDEST SWAP3 POP POP POP PUSH2 0x187B JUMP JUMPDEST POP PUSH2 0xFFFF PUSH1 0x8 DUP6 SWAP1 SHR AND SWAP4 PUSH1 0xFF AND DUP4 DUP1 ISZERO PUSH2 0x25FA JUMPI POP DUP1 ISZERO ISZERO JUMPDEST DUP1 PUSH2 0x260F JUMPI POP DUP4 ISZERO DUP1 ISZERO PUSH2 0x260F JUMPI POP DUP1 PUSH1 0xFF EQ ISZERO JUMPDEST ISZERO PUSH2 0x268C JUMPI PUSH3 0xFFFFFF DUP6 AND PUSH1 0x0 SWAP1 DUP2 MSTORE PUSH1 0x1 DUP8 ADD PUSH1 0x20 MSTORE PUSH1 0x40 SWAP1 KECCAK256 SLOAD SWAP2 POP PUSH2 0x2638 DUP3 DUP3 DUP7 PUSH2 0x2E23 JUMP JUMPDEST SWAP1 POP PUSH1 0x0 NOT DUP2 EQ PUSH2 0x268C JUMPI PUSH3 0xFFFFFF PUSH1 0x8 SWAP6 SWAP1 SWAP6 SHL PUSH4 0xFFFFFF00 AND DUP2 ADD SWAP5 DUP6 AND PUSH1 0x0 SWAP1 DUP2 MSTORE PUSH1 0x2 DUP8 ADD PUSH1 0x20 MSTORE PUSH1 0x40 SWAP1 KECCAK256 SLOAD SWAP2 POP PUSH2 0x25D7 DUP6 PUSH2 0x2679 DUP5 DUP8 PUSH2 0x2E52 JUMP JUMPDEST PUSH1 0xFF AND PUSH1 0x8 SWAP2 SWAP1 SWAP2 SHL PUSH4 0xFFFFFF00 AND ADD SWAP1 JUMP JUMPDEST PUSH1 0x0 DUP1 DUP1 MSTORE PUSH1 0x20 DUP8 SWAP1 MSTORE PUSH1 0x40 SWAP1 KECCAK256 SLOAD SWAP2 POP PUSH2 0x26A8 DUP3 DUP7 DUP7 PUSH2 0x2E23 JUMP JUMPDEST SWAP1 POP PUSH1 0x0 NOT DUP2 EQ ISZERO PUSH2 0x26CD JUMPI PUSH1 0x40 MLOAD PUSH4 0x10D64861 PUSH1 0xE0 SHL DUP2 MSTORE PUSH1 0x4 ADD PUSH1 0x40 MLOAD DUP1 SWAP2 SUB SWAP1 REVERT JUMPDEST PUSH1 0x0 DUP2 DUP2 MSTORE PUSH1 0x1 DUP8 ADD PUSH1 0x20 MSTORE PUSH1 0x40 SWAP1 KECCAK256 SLOAD SWAP2 POP PUSH2 0x26EE DUP2 PUSH2 0x2679 DUP5 DUP8 PUSH2 0x2E52 JUMP JUMPDEST SWAP5 POP DUP6 PUSH1 0x2 PUSH3 0xFFFFFF DUP8 AND PUSH1 0x0 SWAP1 DUP2 MSTORE SWAP2 ADD PUSH1 0x20 MSTORE PUSH1 0x40 SWAP1 KECCAK256 SLOAD SWAP2 POP PUSH2 0x1E3D DUP6 PUSH2 0x2679 DUP5 DUP8 PUSH2 0x2E52 JUMP JUMPDEST PUSH1 0x0 PUSH3 0xFFFFFF DUP3 GT ISZERO PUSH2 0x273E JUMPI PUSH1 0x40 MLOAD PUSH4 0x163D8BAB PUSH1 0xE2 SHL DUP2 MSTORE PUSH1 0x4 ADD PUSH1 0x40 MLOAD DUP1 SWAP2 SUB SWAP1 REVERT JUMPDEST PUSH3 0x7FFFFF NOT DUP3 ADD PUSH2 0x187B PUSH17 0x100068DB8BAC710CB295E9E1B089A0275 DUP3 PUSH2 0x2E70 JUMP JUMPDEST PUSH1 0x0 PUSH1 0xFF DUP3 GT ISZERO PUSH2 0x2787 JUMPI PUSH1 0x40 MLOAD PUSH4 0xB72ECF5 PUSH1 0xE4 SHL DUP2 MSTORE PUSH1 0x4 DUP2 ADD DUP4 SWAP1 MSTORE PUSH1 0x24 ADD PUSH2 0x5FA JUMP JUMPDEST PUSH1 0x0 DUP1 PUSH2 0x2794 DUP7 DUP7 PUSH2 0x2955 JUMP JUMPDEST SWAP2 POP SWAP2 POP DUP2 PUSH1 0x0 EQ PUSH2 0x27A6 JUMPI DUP2 DUP5 SHR SWAP3 POP JUMPDEST DUP1 ISZERO PUSH2 0x1BD5 JUMPI PUSH1 0x1 DUP5 SHL DUP2 LT PUSH2 0x27D9 JUMPI PUSH1 0x40 MLOAD PUSH4 0x3D90990F PUSH1 0xE0 SHL DUP2 MSTORE PUSH1 0x4 DUP2 ADD DUP3 SWAP1 MSTORE PUSH1 0x24 DUP2 ADD DUP6 SWAP1 MSTORE PUSH1 0x44 ADD PUSH2 0x5FA JUMP JUMPDEST PUSH2 0x100 SWAP4 SWAP1 SWAP4 SUB SWAP3 SWAP1 SWAP3 SHL ADD SWAP4 SWAP3 POP POP POP JUMP JUMPDEST PUSH1 0x1 PUSH1 0x1 PUSH1 0xA0 SHL SUB DUP4 AND PUSH2 0x2813 JUMPI PUSH1 0x40 MLOAD PUSH4 0x2A97ACBF PUSH1 0xE1 SHL DUP2 MSTORE PUSH1 0x4 ADD PUSH1 0x40 MLOAD DUP1 SWAP2 SUB SWAP1 REVERT JUMPDEST PUSH2 0x2820 PUSH1 0x0 DUP5 DUP5 DUP5 PUSH2 0x2A27 JUMP JUMPDEST PUSH1 0x0 DUP3 DUP2 MSTORE PUSH1 0x2 PUSH1 0x20 MSTORE PUSH1 0x40 DUP2 KECCAK256 DUP1 SLOAD DUP4 SWAP3 SWAP1 PUSH2 0x283E SWAP1 DUP5 SWAP1 PUSH2 0x3896 JUMP JUMPDEST SWAP1 SWAP2 SSTORE POP POP PUSH1 0x0 DUP3 DUP2 MSTORE PUSH1 0x20 DUP2 DUP2 MSTORE PUSH1 0x40 DUP1 DUP4 KECCAK256 PUSH1 0x1 PUSH1 0x1 PUSH1 0xA0 SHL SUB DUP8 AND DUP1 DUP6 MSTORE SWAP1 DUP4 MSTORE DUP2 DUP5 KECCAK256 DUP1 SLOAD DUP7 ADD SWAP1 SSTORE DUP2 MLOAD DUP7 DUP2 MSTORE SWAP3 DUP4 ADD DUP6 SWAP1 MSTORE SWAP3 SWAP2 CALLER SWAP2 PUSH32 0xC3D58168C5AE7397731D063D5BBF3D657854427343F4C083240F7AACAA2D0F62 SWAP2 ADD PUSH1 0x40 MLOAD DUP1 SWAP2 SUB SWAP1 LOG4 POP POP POP JUMP JUMPDEST DUP2 PUSH1 0x1 PUSH1 0x1 PUSH1 0xA0 SHL SUB AND DUP4 PUSH1 0x1 PUSH1 0x1 PUSH1 0xA0 SHL SUB AND EQ ISZERO PUSH2 0x28E8 JUMPI PUSH1 0x40 MLOAD PUSH4 0x782EE707 PUSH1 0xE0 SHL DUP2 MSTORE PUSH1 0x1 PUSH1 0x1 PUSH1 0xA0 SHL SUB DUP5 AND PUSH1 0x4 DUP3 ADD MSTORE PUSH1 0x24 ADD PUSH2 0x5FA JUMP JUMPDEST PUSH1 0x1 PUSH1 0x1 PUSH1 0xA0 SHL SUB DUP4 DUP2 AND PUSH1 0x0 DUP2 DUP2 MSTORE PUSH1 0x1 PUSH1 0x20 SWAP1 DUP2 MSTORE PUSH1 0x40 DUP1 DUP4 KECCAK256 SWAP5 DUP8 AND DUP1 DUP5 MSTORE SWAP5 DUP3 MSTORE SWAP2 DUP3 SWAP1 KECCAK256 DUP1 SLOAD PUSH1 0xFF NOT AND DUP7 ISZERO ISZERO SWAP1 DUP2 OR SWAP1 SWAP2 SSTORE SWAP2 MLOAD SWAP2 DUP3 MSTORE PUSH32 0x17307EAB39AB6107E8899845AD3D59BD9653F200F220920489CA2B5937696C31 SWAP2 ADD PUSH1 0x40 MLOAD DUP1 SWAP2 SUB SWAP1 LOG3 POP POP POP JUMP JUMPDEST PUSH1 0x0 DUP1 PUSH1 0x0 NOT DUP4 DUP6 MULMOD DUP4 DUP6 MUL SWAP3 POP DUP3 DUP2 LT DUP4 DUP3 SUB SUB SWAP2 POP POP SWAP3 POP SWAP3 SWAP1 POP JUMP JUMPDEST PUSH1 0x0 DUP2 PUSH2 0x2992 JUMPI DUP4 DUP4 DUP2 PUSH2 0x298A JUMPI PUSH2 0x298A PUSH2 0x3920 JUMP JUMPDEST DIV SWAP1 POP PUSH2 0x226D JUMP JUMPDEST DUP4 DUP3 LT PUSH2 0x29BC JUMPI PUSH1 0x40 MLOAD PUSH4 0x656B542B PUSH1 0xE1 SHL DUP2 MSTORE PUSH1 0x4 DUP2 ADD DUP4 SWAP1 MSTORE PUSH1 0x24 DUP2 ADD DUP6 SWAP1 MSTORE PUSH1 0x44 ADD PUSH2 0x5FA JUMP JUMPDEST PUSH1 0x0 DUP5 DUP7 DUP9 MULMOD PUSH1 0x1 DUP7 NOT DUP2 ADD DUP8 AND PUSH1 0x0 DUP2 SWAP1 SUB DUP2 SWAP1 DIV SWAP1 SWAP2 ADD DUP7 DUP4 GT SWAP1 SWAP6 SUB SWAP5 SWAP1 SWAP5 MUL SWAP5 SUB DUP4 SWAP1 DIV SWAP4 SWAP1 SWAP4 OR PUSH1 0x2 SWAP3 SWAP1 SWAP5 DIV PUSH1 0x3 DUP2 MUL DUP4 XOR DUP1 DUP3 MUL DUP5 SUB MUL DUP1 DUP3 MUL DUP5 SUB MUL DUP1 DUP3 MUL DUP5 SUB MUL DUP1 DUP3 MUL DUP5 SUB MUL DUP1 DUP3 MUL DUP5 SUB MUL SWAP1 DUP2 MUL SWAP1 SWAP3 SUB SWAP1 SWAP2 MUL SWAP3 SWAP1 SWAP3 MUL SWAP5 SWAP4 POP POP POP POP JUMP JUMPDEST DUP3 PUSH1 0x1 PUSH1 0x1 PUSH1 0xA0 SHL SUB AND DUP5 PUSH1 0x1 PUSH1 0x1 PUSH1 0xA0 SHL SUB AND EQ PUSH2 0x1EC4 JUMPI PUSH1 0x0 DUP3 DUP2 MSTORE PUSH1 0xA PUSH1 0x20 SWAP1 DUP2 MSTORE PUSH1 0x40 SWAP2 DUP3 SWAP1 KECCAK256 DUP3 MLOAD PUSH1 0x80 DUP2 ADD DUP5 MSTORE DUP2 SLOAD PUSH1 0x1 PUSH1 0x1 PUSH1 0x70 SHL SUB DUP1 DUP3 AND DUP4 MSTORE PUSH1 0x1 PUSH1 0x70 SHL SWAP1 SWAP2 DIV AND SWAP3 DUP2 ADD SWAP3 SWAP1 SWAP3 MSTORE PUSH1 0x1 DUP2 ADD SLOAD SWAP3 DUP3 ADD SWAP3 SWAP1 SWAP3 MSTORE PUSH1 0x2 SWAP1 SWAP2 ADD SLOAD PUSH1 0x60 DUP3 ADD MSTORE PUSH1 0x1 PUSH1 0x1 PUSH1 0xA0 SHL SUB DUP6 AND ISZERO DUP1 ISZERO SWAP1 PUSH2 0x2AB1 JUMPI POP PUSH1 0x1 PUSH1 0x1 PUSH1 0xA0 SHL SUB DUP6 AND ADDRESS EQ ISZERO JUMPDEST ISZERO PUSH2 0x2ADC JUMPI PUSH1 0x0 PUSH2 0x2AC2 DUP7 DUP6 PUSH2 0x499 JUMP JUMPDEST SWAP1 POP PUSH2 0x2ADA DUP3 DUP8 DUP7 DUP5 PUSH2 0x2AD5 DUP9 DUP3 PUSH2 0x3909 JUMP JUMPDEST PUSH2 0x30C9 JUMP JUMPDEST POP JUMPDEST PUSH1 0x1 PUSH1 0x1 PUSH1 0xA0 SHL SUB DUP5 AND ISZERO DUP1 ISZERO SWAP1 PUSH2 0x2AFD JUMPI POP PUSH1 0x1 PUSH1 0x1 PUSH1 0xA0 SHL SUB DUP5 AND ADDRESS EQ ISZERO JUMPDEST ISZERO PUSH2 0x1EC2 JUMPI PUSH1 0x0 PUSH2 0x2B0E DUP6 DUP6 PUSH2 0x499 JUMP JUMPDEST SWAP1 POP PUSH2 0x2B21 DUP3 DUP7 DUP7 DUP5 PUSH2 0x2AD5 DUP9 DUP3 PUSH2 0x3896 JUMP JUMPDEST POP POP POP POP POP POP JUMP JUMPDEST PUSH1 0x60 PUSH1 0x0 DUP1 DUP5 PUSH1 0x1 PUSH1 0x1 PUSH1 0xA0 SHL SUB AND DUP5 PUSH1 0x40 MLOAD PUSH2 0x2B46 SWAP2 SWAP1 PUSH2 0x3A52 JUMP JUMPDEST PUSH1 0x0 PUSH1 0x40 MLOAD DUP1 DUP4 SUB DUP2 PUSH1 0x0 DUP7 GAS CALL SWAP2 POP POP RETURNDATASIZE DUP1 PUSH1 0x0 DUP2 EQ PUSH2 0x2B83 JUMPI PUSH1 0x40 MLOAD SWAP2 POP PUSH1 0x1F NOT PUSH1 0x3F RETURNDATASIZE ADD AND DUP3 ADD PUSH1 0x40 MSTORE RETURNDATASIZE DUP3 MSTORE RETURNDATASIZE PUSH1 0x0 PUSH1 0x20 DUP5 ADD RETURNDATACOPY PUSH2 0x2B88 JUMP JUMPDEST PUSH1 0x60 SWAP2 POP JUMPDEST POP SWAP2 POP SWAP2 POP DUP2 ISZERO PUSH2 0x2BCD JUMPI DUP1 MLOAD ISZERO DUP1 ISZERO PUSH2 0x2BAA JUMPI POP PUSH1 0x1 PUSH1 0x1 PUSH1 0xA0 SHL SUB DUP6 AND EXTCODESIZE ISZERO JUMPDEST ISZERO PUSH2 0x2BC8 JUMPI PUSH1 0x40 MLOAD PUSH4 0x5D97DF89 PUSH1 0xE0 SHL DUP2 MSTORE PUSH1 0x4 ADD PUSH1 0x40 MLOAD DUP1 SWAP2 SUB SWAP1 REVERT JUMPDEST PUSH2 0x2BF4 JUMP JUMPDEST DUP1 MLOAD PUSH2 0x2BEC JUMPI PUSH1 0x40 MLOAD PUSH4 0x24074291 PUSH1 0xE0 SHL DUP2 MSTORE PUSH1 0x4 ADD PUSH1 0x40 MLOAD DUP1 SWAP2 SUB SWAP1 REVERT JUMPDEST DUP1 MLOAD DUP2 PUSH1 0x20 ADD REVERT JUMPDEST SWAP5 SWAP4 POP POP POP POP JUMP JUMPDEST DUP1 PUSH1 0x1 PUSH1 0x1 PUSH1 0x80 SHL SUB DUP2 AND DUP2 EQ PUSH2 0x1E18 JUMPI PUSH1 0x40 MLOAD PUSH4 0x89F6CFB PUSH1 0xE2 SHL DUP2 MSTORE PUSH1 0x4 DUP2 ADD DUP4 SWAP1 MSTORE PUSH1 0x24 ADD PUSH2 0x5FA JUMP JUMPDEST PUSH1 0x3 SLOAD ISZERO PUSH2 0x2C4A JUMPI PUSH1 0x40 MLOAD PUSH4 0xD80075C1 PUSH1 0xE0 SHL DUP2 MSTORE PUSH1 0x4 ADD PUSH1 0x40 MLOAD DUP1 SWAP2 SUB SWAP1 REVERT JUMPDEST PUSH1 0x1 PUSH1 0x3 SSTORE JUMP JUMPDEST PUSH1 0x0 PUSH2 0x2C5E DUP5 DUP5 DUP5 PUSH2 0x2DA7 JUMP JUMPDEST SWAP1 POP DUP2 DUP1 PUSH2 0x2C6E JUMPI PUSH2 0x2C6E PUSH2 0x3920 JUMP JUMPDEST PUSH1 0x1 DUP5 SHL DUP6 MULMOD ISZERO PUSH2 0x187B JUMPI PUSH1 0x1 ADD SWAP4 SWAP3 POP POP POP JUMP JUMPDEST PUSH1 0x0 PUSH8 0xDE0B6B3A7640000 PUSH1 0x1 PUSH8 0xDE0B6B3A7640000 PUSH2 0x2CAA DUP7 MLOAD PUSH1 0x1 PUSH1 0x1 PUSH1 0x80 SHL SUB AND SWAP1 JUMP JUMPDEST PUSH2 0x2CB4 SWAP1 DUP7 PUSH2 0x3A6E JUMP JUMPDEST PUSH2 0x2CBE SWAP2 SWAP1 PUSH2 0x3896 JUMP JUMPDEST PUSH2 0x2CC8 SWAP2 SWAP1 PUSH2 0x3909 JUMP JUMPDEST PUSH2 0x187B SWAP2 SWAP1 PUSH2 0x3A8D JUMP JUMPDEST PUSH1 0x40 DUP1 MLOAD DUP1 DUP3 ADD SWAP1 SWAP2 MSTORE PUSH1 0x0 DUP1 DUP3 MSTORE PUSH1 0x20 DUP3 ADD MSTORE PUSH2 0x2CEF DUP3 PUSH2 0x2BFC JUMP JUMPDEST PUSH1 0x1 PUSH1 0x1 PUSH1 0x80 SHL SUB SWAP1 DUP2 AND DUP3 MSTORE PUSH1 0x20 DUP5 ADD MLOAD PUSH2 0x2710 SWAP2 AND DUP4 MUL DIV PUSH1 0x1 PUSH1 0x1 PUSH1 0x80 SHL SUB AND PUSH1 0x20 DUP3 ADD MSTORE SWAP3 SWAP2 POP POP JUMP JUMPDEST PUSH1 0x0 PUSH2 0x2D2A DUP5 DUP5 DUP5 PUSH2 0x2760 JUMP JUMPDEST SWAP1 POP PUSH1 0x1 DUP3 SHL DUP1 PUSH2 0x2D3D JUMPI PUSH2 0x2D3D PUSH2 0x3920 JUMP JUMPDEST DUP4 DUP6 MULMOD ISZERO PUSH2 0x187B JUMPI PUSH1 0x1 ADD SWAP4 SWAP3 POP POP POP JUMP JUMPDEST PUSH1 0x0 DUP1 PUSH2 0x2D63 DUP5 MLOAD PUSH1 0x1 PUSH1 0x1 PUSH1 0x80 SHL SUB AND SWAP1 JUMP JUMPDEST SWAP1 POP PUSH1 0x0 PUSH2 0x2D79 DUP3 PUSH8 0xDE0B6B3A7640000 PUSH2 0x3909 JUMP JUMPDEST SWAP1 POP DUP1 PUSH1 0x1 DUP2 PUSH2 0x2D89 DUP6 DUP9 PUSH2 0x3A6E JUMP JUMPDEST PUSH2 0x2D93 SWAP2 SWAP1 PUSH2 0x3896 JUMP JUMPDEST PUSH2 0x2D9D SWAP2 SWAP1 PUSH2 0x3909 JUMP JUMPDEST PUSH2 0x226D SWAP2 SWAP1 PUSH2 0x3A8D JUMP JUMPDEST PUSH1 0x0 PUSH1 0xFF DUP4 GT ISZERO PUSH2 0x2DCE JUMPI PUSH1 0x40 MLOAD PUSH4 0xB72ECF5 PUSH1 0xE4 SHL DUP2 MSTORE PUSH1 0x4 DUP2 ADD DUP5 SWAP1 MSTORE PUSH1 0x24 ADD PUSH2 0x5FA JUMP JUMPDEST DUP4 DUP4 SHL PUSH2 0x100 DUP5 SWAP1 SUB DUP6 SWAP1 SHR PUSH2 0x1E3D DUP7 PUSH1 0x1 DUP8 SHL DUP7 DUP6 DUP6 PUSH2 0x2974 JUMP JUMPDEST PUSH1 0x0 DUP2 PUSH1 0x80 DUP5 PUSH1 0x20 ADD MLOAD PUSH1 0x1 PUSH1 0x1 PUSH1 0x80 SHL SUB AND DUP6 PUSH1 0x0 ADD MLOAD PUSH1 0x1 PUSH1 0x1 PUSH1 0x80 SHL SUB AND SUB SWAP1 SHL DUP2 PUSH2 0x2E1B JUMPI PUSH2 0x2E1B PUSH2 0x3920 JUMP JUMPDEST DIV SWAP4 SWAP3 POP POP POP JUMP JUMPDEST PUSH1 0x0 DUP2 PUSH2 0x2E3E JUMPI PUSH2 0x2BC8 DUP5 PUSH2 0x2E39 DUP6 PUSH1 0x1 PUSH2 0x3AA1 JUMP JUMPDEST PUSH2 0x3150 JUMP JUMPDEST PUSH2 0x2BF4 DUP5 PUSH2 0x2E4D PUSH1 0x1 DUP7 PUSH2 0x3AC6 JUMP JUMPDEST PUSH2 0x317E JUMP JUMPDEST PUSH1 0x0 DUP2 PUSH2 0x2E67 JUMPI PUSH2 0x2E62 DUP4 PUSH2 0x31AF JUMP JUMPDEST PUSH2 0x187B JUMP JUMPDEST PUSH2 0x187B DUP4 PUSH2 0x3245 JUMP JUMPDEST PUSH1 0x0 DUP1 DUP1 DUP4 PUSH2 0x2E88 JUMPI POP PUSH1 0x1 PUSH1 0x80 SHL SWAP2 POP PUSH2 0x4BB SWAP1 POP JUMP JUMPDEST POP DUP3 PUSH1 0x0 DUP2 SLT ISZERO PUSH2 0x2E9A JUMPI SWAP1 ISZERO SWAP1 PUSH1 0x0 SUB JUMPDEST PUSH3 0x100000 DUP2 LT ISZERO PUSH2 0x308A JUMPI PUSH1 0x1 PUSH1 0x80 SHL SWAP3 POP DUP5 PUSH1 0x1 PUSH1 0x1 PUSH1 0x80 SHL SUB DUP2 GT ISZERO PUSH2 0x2EC4 JUMPI SWAP2 ISZERO SWAP2 PUSH1 0x0 NOT DIV JUMPDEST PUSH1 0x1 DUP3 AND ISZERO PUSH2 0x2ED5 JUMPI SWAP3 DUP4 MUL PUSH1 0x80 SHR SWAP3 JUMPDEST DUP1 MUL PUSH1 0x80 SHR PUSH1 0x2 DUP3 AND ISZERO PUSH2 0x2EEB JUMPI SWAP3 DUP4 MUL PUSH1 0x80 SHR SWAP3 JUMPDEST DUP1 MUL PUSH1 0x80 SHR PUSH1 0x4 DUP3 AND ISZERO PUSH2 0x2F01 JUMPI SWAP3 DUP4 MUL PUSH1 0x80 SHR SWAP3 JUMPDEST DUP1 MUL PUSH1 0x80 SHR PUSH1 0x8 DUP3 AND ISZERO PUSH2 0x2F17 JUMPI SWAP3 DUP4 MUL PUSH1 0x80 SHR SWAP3 JUMPDEST DUP1 MUL PUSH1 0x80 SHR PUSH1 0x10 DUP3 AND ISZERO PUSH2 0x2F2D JUMPI SWAP3 DUP4 MUL PUSH1 0x80 SHR SWAP3 JUMPDEST DUP1 MUL PUSH1 0x80 SHR PUSH1 0x20 DUP3 AND ISZERO PUSH2 0x2F43 JUMPI SWAP3 DUP4 MUL PUSH1 0x80 SHR SWAP3 JUMPDEST DUP1 MUL PUSH1 0x80 SHR PUSH1 0x40 DUP3 AND ISZERO PUSH2 0x2F59 JUMPI SWAP3 DUP4 MUL PUSH1 0x80 SHR SWAP3 JUMPDEST DUP1 MUL PUSH1 0x80 SWAP1 DUP2 SHR SWAP1 DUP3 AND ISZERO PUSH2 0x2F70 JUMPI SWAP3 DUP4 MUL PUSH1 0x80 SHR SWAP3 JUMPDEST DUP1 MUL PUSH1 0x80 SHR PUSH2 0x100 DUP3 AND ISZERO PUSH2 0x2F87 JUMPI SWAP3 DUP4 MUL PUSH1 0x80 SHR SWAP3 JUMPDEST DUP1 MUL PUSH1 0x80 SHR PUSH2 0x200 DUP3 AND ISZERO PUSH2 0x2F9E JUMPI SWAP3 DUP4 MUL PUSH1 0x80 SHR SWAP3 JUMPDEST DUP1 MUL PUSH1 0x80 SHR PUSH2 0x400 DUP3 AND ISZERO PUSH2 0x2FB5 JUMPI SWAP3 DUP4 MUL PUSH1 0x80 SHR SWAP3 JUMPDEST DUP1 MUL PUSH1 0x80 SHR PUSH2 0x800 DUP3 AND ISZERO PUSH2 0x2FCC JUMPI SWAP3 DUP4 MUL PUSH1 0x80 SHR SWAP3 JUMPDEST DUP1 MUL PUSH1 0x80 SHR PUSH2 0x1000 DUP3 AND ISZERO PUSH2 0x2FE3 JUMPI SWAP3 DUP4 MUL PUSH1 0x80 SHR SWAP3 JUMPDEST DUP1 MUL PUSH1 0x80 SHR PUSH2 0x2000 DUP3 AND ISZERO PUSH2 0x2FFA JUMPI SWAP3 DUP4 MUL PUSH1 0x80 SHR SWAP3 JUMPDEST DUP1 MUL PUSH1 0x80 SHR PUSH2 0x4000 DUP3 AND ISZERO PUSH2 0x3011 JUMPI SWAP3 DUP4 MUL PUSH1 0x80 SHR SWAP3 JUMPDEST DUP1 MUL PUSH1 0x80 SHR PUSH2 0x8000 DUP3 AND ISZERO PUSH2 0x3028 JUMPI SWAP3 DUP4 MUL PUSH1 0x80 SHR SWAP3 JUMPDEST DUP1 MUL PUSH1 0x80 SHR PUSH3 0x10000 DUP3 AND ISZERO PUSH2 0x3040 JUMPI SWAP3 DUP4 MUL PUSH1 0x80 SHR SWAP3 JUMPDEST DUP1 MUL PUSH1 0x80 SHR PUSH3 0x20000 DUP3 AND ISZERO PUSH2 0x3058 JUMPI SWAP3 DUP4 MUL PUSH1 0x80 SHR SWAP3 JUMPDEST DUP1 MUL PUSH1 0x80 SHR PUSH3 0x40000 DUP3 AND ISZERO PUSH2 0x3070 JUMPI SWAP3 DUP4 MUL PUSH1 0x80 SHR SWAP3 JUMPDEST DUP1 MUL PUSH1 0x80 SHR PUSH3 0x80000 DUP3 AND ISZERO PUSH2 0x3088 JUMPI SWAP3 DUP4 MUL PUSH1 0x80 SHR SWAP3 JUMPDEST POP JUMPDEST DUP3 PUSH2 0x30B2 JUMPI PUSH1 0x40 MLOAD PUSH4 0xE9C7D61 PUSH1 0xE3 SHL DUP2 MSTORE PUSH1 0x4 DUP2 ADD DUP7 SWAP1 MSTORE PUSH1 0x24 DUP2 ADD DUP6 SWAP1 MSTORE PUSH1 0x44 ADD PUSH2 0x5FA JUMP JUMPDEST DUP2 PUSH2 0x30BD JUMPI DUP3 PUSH2 0x226D JUMP JUMPDEST PUSH2 0x226D DUP4 PUSH1 0x0 NOT PUSH2 0x3A8D JUMP JUMPDEST PUSH1 0x1 PUSH1 0x1 PUSH1 0xA0 SHL SUB DUP5 AND PUSH1 0x0 SWAP1 DUP2 MSTORE PUSH1 0xE PUSH1 0x20 MSTORE PUSH1 0x40 DUP2 KECCAK256 SLOAD PUSH1 0x1 PUSH1 0x1 PUSH1 0x80 SHL SUB AND SWAP1 PUSH2 0x30F8 DUP8 DUP8 DUP8 DUP8 PUSH2 0x215B JUMP JUMPDEST SWAP1 POP PUSH2 0x3106 DUP8 DUP8 DUP8 DUP7 PUSH2 0x21A5 JUMP JUMPDEST PUSH2 0x3110 DUP2 DUP4 PUSH2 0x3A30 JUMP JUMPDEST PUSH1 0x1 PUSH1 0x1 PUSH1 0xA0 SHL SUB SWAP7 SWAP1 SWAP7 AND PUSH1 0x0 SWAP1 DUP2 MSTORE PUSH1 0xE PUSH1 0x20 MSTORE PUSH1 0x40 SWAP1 KECCAK256 DUP1 SLOAD PUSH1 0x1 PUSH1 0x1 PUSH1 0x80 SHL SUB NOT AND PUSH1 0x1 PUSH1 0x1 PUSH1 0x80 SHL SUB SWAP1 SWAP8 AND SWAP7 SWAP1 SWAP7 OR SWAP1 SWAP6 SSTORE POP POP POP POP POP POP JUMP JUMPDEST PUSH1 0xFF DUP2 AND SWAP2 SWAP1 SWAP2 SHR SWAP1 PUSH1 0x0 DUP3 ISZERO PUSH2 0x3174 JUMPI DUP2 PUSH2 0x316B DUP5 PUSH2 0x31AF JUMP JUMPDEST ADD PUSH1 0xFF AND PUSH2 0x187B JUMP JUMPDEST POP PUSH1 0x0 NOT SWAP3 SWAP2 POP POP JUMP JUMPDEST PUSH1 0xFF DUP2 DUP2 SUB AND SWAP2 DUP3 SHL SWAP2 PUSH1 0x0 SWAP1 DUP4 ISZERO PUSH2 0x31A4 JUMPI DUP1 PUSH2 0x319B DUP6 PUSH2 0x3245 JUMP JUMPDEST PUSH1 0xFF AND SUB PUSH2 0x2BF4 JUMP JUMPDEST PUSH1 0x0 NOT SWAP5 SWAP4 POP POP POP POP JUMP JUMPDEST PUSH1 0x0 PUSH1 0x80 DUP3 SWAP1 SHL ISZERO PUSH2 0x31C3 JUMPI POP PUSH1 0x80 SWAP1 DUP2 SHL SWAP1 JUMPDEST PUSH1 0x40 DUP3 SWAP1 SHL ISZERO PUSH2 0x31D5 JUMPI PUSH1 0x40 SWAP2 DUP3 SHL SWAP2 ADD JUMPDEST PUSH1 0x20 DUP3 SWAP1 SHL ISZERO PUSH2 0x31E7 JUMPI PUSH1 0x20 SWAP2 DUP3 SHL SWAP2 ADD JUMPDEST PUSH1 0x10 DUP3 SWAP1 SHL ISZERO PUSH2 0x31F9 JUMPI PUSH1 0x10 SWAP2 DUP3 SHL SWAP2 ADD JUMPDEST PUSH1 0x8 DUP3 SWAP1 SHL ISZERO PUSH2 0x320B JUMPI PUSH1 0x8 SWAP2 DUP3 SHL SWAP2 ADD JUMPDEST PUSH1 0x4 DUP3 SWAP1 SHL ISZERO PUSH2 0x321D JUMPI PUSH1 0x4 SWAP2 DUP3 SHL SWAP2 ADD JUMPDEST PUSH1 0x2 DUP3 SWAP1 SHL ISZERO PUSH2 0x322F JUMPI PUSH1 0x2 SWAP2 DUP3 SHL SWAP2 ADD JUMPDEST PUSH1 0x1 DUP3 SWAP1 SHL ISZERO PUSH2 0x323D JUMPI PUSH1 0x1 ADD JUMPDEST PUSH1 0xFF SUB SWAP2 SWAP1 POP JUMP JUMPDEST PUSH1 0x0 PUSH1 0x1 PUSH1 0x80 SHL DUP3 LT PUSH2 0x325A JUMPI POP PUSH1 0x80 SWAP1 DUP2 SHR SWAP1 JUMPDEST PUSH9 0x10000000000000000 DUP3 LT PUSH2 0x3272 JUMPI PUSH1 0x40 SWAP2 DUP3 SHR SWAP2 ADD JUMPDEST PUSH5 0x100000000 DUP3 LT PUSH2 0x3286 JUMPI PUSH1 0x20 SWAP2 DUP3 SHR SWAP2 ADD JUMPDEST PUSH3 0x10000 DUP3 LT PUSH2 0x3298 JUMPI PUSH1 0x10 SWAP2 DUP3 SHR SWAP2 ADD JUMPDEST PUSH2 0x100 DUP3 LT PUSH2 0x32A9 JUMPI PUSH1 0x8 SWAP2 DUP3 SHR SWAP2 ADD JUMPDEST PUSH1 0x10 DUP3 LT PUSH2 0x32B9 JUMPI PUSH1 0x4 SWAP2 DUP3 SHR SWAP2 ADD JUMPDEST PUSH1 0x4 DUP3 LT PUSH2 0x32C9 JUMPI PUSH1 0x2 SWAP2 DUP3 SHR SWAP2 ADD JUMPDEST PUSH1 0x2 DUP3 LT PUSH2 0x1E18 JUMPI PUSH1 0x1 ADD SWAP2 SWAP1 POP JUMP JUMPDEST PUSH1 0x1 PUSH1 0x1 PUSH1 0xA0 SHL SUB DUP2 AND DUP2 EQ PUSH2 0x32EE JUMPI PUSH1 0x0 DUP1 REVERT JUMPDEST POP JUMP JUMPDEST PUSH1 0x0 DUP1 PUSH1 0x40 DUP4 DUP6 SUB SLT ISZERO PUSH2 0x3304 JUMPI PUSH1 0x0 DUP1 REVERT JUMPDEST DUP3 CALLDATALOAD PUSH2 0x330F DUP2 PUSH2 0x32D9 JUMP JUMPDEST SWAP5 PUSH1 0x20 SWAP4 SWAP1 SWAP4 ADD CALLDATALOAD SWAP4 POP POP POP JUMP JUMPDEST PUSH1 0x0 PUSH1 0x20 DUP3 DUP5 SUB SLT ISZERO PUSH2 0x332F JUMPI PUSH1 0x0 DUP1 REVERT JUMPDEST DUP2 CALLDATALOAD PUSH1 0x1 PUSH1 0x1 PUSH1 0xE0 SHL SUB NOT DUP2 AND DUP2 EQ PUSH2 0x187B JUMPI PUSH1 0x0 DUP1 REVERT JUMPDEST PUSH1 0x0 JUMPDEST DUP4 DUP2 LT ISZERO PUSH2 0x3362 JUMPI DUP2 DUP2 ADD MLOAD DUP4 DUP3 ADD MSTORE PUSH1 0x20 ADD PUSH2 0x334A JUMP JUMPDEST DUP4 DUP2 GT ISZERO PUSH2 0x1EC4 JUMPI POP POP PUSH1 0x0 SWAP2 ADD MSTORE JUMP JUMPDEST PUSH1 0x20 DUP2 MSTORE PUSH1 0x0 DUP3 MLOAD DUP1 PUSH1 0x20 DUP5 ADD MSTORE PUSH2 0x3392 DUP2 PUSH1 0x40 DUP6 ADD PUSH1 0x20 DUP8 ADD PUSH2 0x3347 JUMP JUMPDEST PUSH1 0x1F ADD PUSH1 0x1F NOT AND SWAP2 SWAP1 SWAP2 ADD PUSH1 0x40 ADD SWAP3 SWAP2 POP POP JUMP JUMPDEST DUP1 CALLDATALOAD PUSH3 0xFFFFFF DUP2 AND DUP2 EQ PUSH2 0x1E18 JUMPI PUSH1 0x0 DUP1 REVERT JUMPDEST PUSH1 0x0 PUSH1 0x20 DUP3 DUP5 SUB SLT ISZERO PUSH2 0x33CB JUMPI PUSH1 0x0 DUP1 REVERT JUMPDEST PUSH2 0x187B DUP3 PUSH2 0x33A6 JUMP JUMPDEST PUSH1 0x0 DUP1 DUP4 PUSH1 0x1F DUP5 ADD SLT PUSH2 0x33E6 JUMPI PUSH1 0x0 DUP1 REVERT JUMPDEST POP DUP2 CALLDATALOAD PUSH8 0xFFFFFFFFFFFFFFFF DUP2 GT ISZERO PUSH2 0x33FE JUMPI PUSH1 0x0 DUP1 REVERT JUMPDEST PUSH1 0x20 DUP4 ADD SWAP2 POP DUP4 PUSH1 0x20 DUP3 PUSH1 0x5 SHL DUP6 ADD ADD GT ISZERO PUSH2 0x3419 JUMPI PUSH1 0x0 DUP1 REVERT JUMPDEST SWAP3 POP SWAP3 SWAP1 POP JUMP JUMPDEST PUSH1 0x0 DUP1 PUSH1 0x0 DUP1 PUSH1 0x0 PUSH1 0x60 DUP7 DUP9 SUB SLT ISZERO PUSH2 0x3438 JUMPI PUSH1 0x0 DUP1 REVERT JUMPDEST DUP6 CALLDATALOAD PUSH8 0xFFFFFFFFFFFFFFFF DUP1 DUP3 GT ISZERO PUSH2 0x3450 JUMPI PUSH1 0x0 DUP1 REVERT JUMPDEST PUSH2 0x345C DUP10 DUP4 DUP11 ADD PUSH2 0x33D4 JUMP JUMPDEST SWAP1 SWAP8 POP SWAP6 POP PUSH1 0x20 DUP9 ADD CALLDATALOAD SWAP2 POP DUP1 DUP3 GT ISZERO PUSH2 0x3475 JUMPI PUSH1 0x0 DUP1 REVERT JUMPDEST POP PUSH2 0x3482 DUP9 DUP3 DUP10 ADD PUSH2 0x33D4 JUMP JUMPDEST SWAP1 SWAP5 POP SWAP3 POP POP PUSH1 0x40 DUP7 ADD CALLDATALOAD PUSH2 0x3496 DUP2 PUSH2 0x32D9 JUMP JUMPDEST DUP1 SWAP2 POP POP SWAP3 SWAP6 POP SWAP3 SWAP6 SWAP1 SWAP4 POP JUMP JUMPDEST PUSH1 0x0 DUP1 PUSH1 0x0 DUP1 PUSH1 0x80 DUP6 DUP8 SUB SLT ISZERO PUSH2 0x34BA JUMPI PUSH1 0x0 DUP1 REVERT JUMPDEST DUP5 CALLDATALOAD PUSH2 0x34C5 DUP2 PUSH2 0x32D9 JUMP JUMPDEST SWAP4 POP PUSH1 0x20 DUP6 ADD CALLDATALOAD PUSH2 0x34D5 DUP2 PUSH2 0x32D9 JUMP JUMPDEST SWAP4 SWAP7 SWAP4 SWAP6 POP POP POP POP PUSH1 0x40 DUP3 ADD CALLDATALOAD SWAP2 PUSH1 0x60 ADD CALLDATALOAD SWAP1 JUMP JUMPDEST PUSH1 0x0 DUP1 PUSH1 0x0 PUSH1 0x40 DUP5 DUP7 SUB SLT ISZERO PUSH2 0x34FF JUMPI PUSH1 0x0 DUP1 REVERT JUMPDEST DUP4 CALLDATALOAD PUSH2 0x350A DUP2 PUSH2 0x32D9 JUMP JUMPDEST SWAP3 POP PUSH1 0x20 DUP5 ADD CALLDATALOAD PUSH8 0xFFFFFFFFFFFFFFFF DUP2 GT ISZERO PUSH2 0x3526 JUMPI PUSH1 0x0 DUP1 REVERT JUMPDEST PUSH2 0x3532 DUP7 DUP3 DUP8 ADD PUSH2 0x33D4 JUMP JUMPDEST SWAP5 SWAP8 SWAP1 SWAP7 POP SWAP4 SWAP5 POP POP POP POP JUMP JUMPDEST PUSH1 0x0 DUP1 PUSH1 0x0 PUSH1 0x60 DUP5 DUP7 SUB SLT ISZERO PUSH2 0x3554 JUMPI PUSH1 0x0 DUP1 REVERT JUMPDEST DUP4 CALLDATALOAD PUSH2 0x355F DUP2 PUSH2 0x32D9 JUMP JUMPDEST SWAP3 POP PUSH1 0x20 DUP5 ADD CALLDATALOAD PUSH2 0x356F DUP2 PUSH2 0x32D9 JUMP JUMPDEST SWAP2 POP PUSH2 0x357D PUSH1 0x40 DUP6 ADD PUSH2 0x33A6 JUMP JUMPDEST SWAP1 POP SWAP3 POP SWAP3 POP SWAP3 JUMP JUMPDEST PUSH1 0x0 DUP1 PUSH1 0x0 DUP1 PUSH1 0x40 DUP6 DUP8 SUB SLT ISZERO PUSH2 0x359C JUMPI PUSH1 0x0 DUP1 REVERT JUMPDEST DUP5 CALLDATALOAD PUSH8 0xFFFFFFFFFFFFFFFF DUP1 DUP3 GT ISZERO PUSH2 0x35B4 JUMPI PUSH1 0x0 DUP1 REVERT JUMPDEST PUSH2 0x35C0 DUP9 DUP4 DUP10 ADD PUSH2 0x33D4 JUMP JUMPDEST SWAP1 SWAP7 POP SWAP5 POP PUSH1 0x20 DUP8 ADD CALLDATALOAD SWAP2 POP DUP1 DUP3 GT ISZERO PUSH2 0x35D9 JUMPI PUSH1 0x0 DUP1 REVERT JUMPDEST POP PUSH2 0x35E6 DUP8 DUP3 DUP9 ADD PUSH2 0x33D4 JUMP JUMPDEST SWAP6 SWAP9 SWAP5 SWAP8 POP SWAP6 POP POP POP POP JUMP JUMPDEST PUSH1 0x0 DUP2 MLOAD DUP1 DUP5 MSTORE PUSH1 0x20 DUP1 DUP6 ADD SWAP5 POP DUP1 DUP5 ADD PUSH1 0x0 JUMPDEST DUP4 DUP2 LT ISZERO PUSH2 0x3622 JUMPI DUP2 MLOAD DUP8 MSTORE SWAP6 DUP3 ADD SWAP6 SWAP1 DUP3 ADD SWAP1 PUSH1 0x1 ADD PUSH2 0x3606 JUMP JUMPDEST POP SWAP5 SWAP6 SWAP5 POP POP POP POP POP JUMP JUMPDEST PUSH1 0x20 DUP2 MSTORE PUSH1 0x0 PUSH2 0x187B PUSH1 0x20 DUP4 ADD DUP5 PUSH2 0x35F2 JUMP JUMPDEST DUP1 ISZERO ISZERO DUP2 EQ PUSH2 0x32EE JUMPI PUSH1 0x0 DUP1 REVERT JUMPDEST PUSH1 0x0 DUP1 PUSH1 0x40 DUP4 DUP6 SUB SLT ISZERO PUSH2 0x3661 JUMPI PUSH1 0x0 DUP1 REVERT JUMPDEST DUP3 CALLDATALOAD PUSH2 0x366C DUP2 PUSH2 0x3640 JUMP JUMPDEST SWAP2 POP PUSH1 0x20 DUP4 ADD CALLDATALOAD PUSH2 0x367C DUP2 PUSH2 0x32D9 JUMP JUMPDEST DUP1 SWAP2 POP POP SWAP3 POP SWAP3 SWAP1 POP JUMP JUMPDEST PUSH1 0x0 DUP1 PUSH1 0x0 DUP1 PUSH1 0x0 DUP1 PUSH1 0x0 PUSH1 0x80 DUP9 DUP11 SUB SLT ISZERO PUSH2 0x36A2 JUMPI PUSH1 0x0 DUP1 REVERT JUMPDEST DUP8 CALLDATALOAD PUSH8 0xFFFFFFFFFFFFFFFF DUP1 DUP3 GT ISZERO PUSH2 0x36BA JUMPI PUSH1 0x0 DUP1 REVERT JUMPDEST PUSH2 0x36C6 DUP12 DUP4 DUP13 ADD PUSH2 0x33D4 JUMP JUMPDEST SWAP1 SWAP10 POP SWAP8 POP PUSH1 0x20 DUP11 ADD CALLDATALOAD SWAP2 POP DUP1 DUP3 GT ISZERO PUSH2 0x36DF JUMPI PUSH1 0x0 DUP1 REVERT JUMPDEST PUSH2 0x36EB DUP12 DUP4 DUP13 ADD PUSH2 0x33D4 JUMP JUMPDEST SWAP1 SWAP8 POP SWAP6 POP PUSH1 0x40 DUP11 ADD CALLDATALOAD SWAP2 POP DUP1 DUP3 GT ISZERO PUSH2 0x3704 JUMPI PUSH1 0x0 DUP1 REVERT JUMPDEST POP PUSH2 0x3711 DUP11 DUP3 DUP12 ADD PUSH2 0x33D4 JUMP JUMPDEST SWAP1 SWAP5 POP SWAP3 POP POP PUSH1 0x60 DUP9 ADD CALLDATALOAD PUSH2 0x3725 DUP2 PUSH2 0x32D9 JUMP JUMPDEST DUP1 SWAP2 POP POP SWAP3 SWAP6 SWAP9 SWAP2 SWAP5 SWAP8 POP SWAP3 SWAP6 POP JUMP JUMPDEST DUP4 DUP2 MSTORE DUP3 PUSH1 0x20 DUP3 ADD MSTORE PUSH1 0x60 PUSH1 0x40 DUP3 ADD MSTORE PUSH1 0x0 PUSH2 0x226D PUSH1 0x60 DUP4 ADD DUP5 PUSH2 0x35F2 JUMP JUMPDEST PUSH1 0x0 DUP1 PUSH1 0x40 DUP4 DUP6 SUB SLT ISZERO PUSH2 0x3767 JUMPI PUSH1 0x0 DUP1 REVERT JUMPDEST PUSH2 0x3770 DUP4 PUSH2 0x33A6 JUMP JUMPDEST SWAP2 POP PUSH1 0x20 DUP4 ADD CALLDATALOAD PUSH2 0x367C DUP2 PUSH2 0x3640 JUMP JUMPDEST PUSH1 0x0 DUP1 PUSH1 0x40 DUP4 DUP6 SUB SLT ISZERO PUSH2 0x3793 JUMPI PUSH1 0x0 DUP1 REVERT JUMPDEST DUP3 CALLDATALOAD PUSH2 0x3770 DUP2 PUSH2 0x32D9 JUMP JUMPDEST PUSH1 0x0 PUSH1 0x20 DUP3 DUP5 SUB SLT ISZERO PUSH2 0x37B0 JUMPI PUSH1 0x0 DUP1 REVERT JUMPDEST POP CALLDATALOAD SWAP2 SWAP1 POP JUMP JUMPDEST PUSH1 0x0 DUP1 PUSH1 0x40 DUP4 DUP6 SUB SLT ISZERO PUSH2 0x37CA JUMPI PUSH1 0x0 DUP1 REVERT JUMPDEST DUP3 CALLDATALOAD PUSH2 0x366C DUP2 PUSH2 0x32D9 JUMP JUMPDEST PUSH1 0x0 DUP1 PUSH1 0x0 DUP1 PUSH1 0x0 DUP1 PUSH1 0x80 DUP8 DUP10 SUB SLT ISZERO PUSH2 0x37EE JUMPI PUSH1 0x0 DUP1 REVERT JUMPDEST DUP7 CALLDATALOAD PUSH2 0x37F9 DUP2 PUSH2 0x32D9 JUMP JUMPDEST SWAP6 POP PUSH1 0x20 DUP8 ADD CALLDATALOAD PUSH2 0x3809 DUP2 PUSH2 0x32D9 JUMP JUMPDEST SWAP5 POP PUSH1 0x40 DUP8 ADD CALLDATALOAD PUSH8 0xFFFFFFFFFFFFFFFF DUP1 DUP3 GT ISZERO PUSH2 0x3826 JUMPI PUSH1 0x0 DUP1 REVERT JUMPDEST PUSH2 0x3832 DUP11 DUP4 DUP12 ADD PUSH2 0x33D4 JUMP JUMPDEST SWAP1 SWAP7 POP SWAP5 POP PUSH1 0x60 DUP10 ADD CALLDATALOAD SWAP2 POP DUP1 DUP3 GT ISZERO PUSH2 0x384B JUMPI PUSH1 0x0 DUP1 REVERT JUMPDEST POP PUSH2 0x3858 DUP10 DUP3 DUP11 ADD PUSH2 0x33D4 JUMP JUMPDEST SWAP8 SWAP11 SWAP7 SWAP10 POP SWAP5 SWAP8 POP SWAP3 SWAP6 SWAP4 SWAP5 SWAP3 POP POP POP JUMP JUMPDEST PUSH4 0x4E487B71 PUSH1 0xE0 SHL PUSH1 0x0 MSTORE PUSH1 0x32 PUSH1 0x4 MSTORE PUSH1 0x24 PUSH1 0x0 REVERT JUMPDEST PUSH4 0x4E487B71 PUSH1 0xE0 SHL PUSH1 0x0 MSTORE PUSH1 0x11 PUSH1 0x4 MSTORE PUSH1 0x24 PUSH1 0x0 REVERT JUMPDEST PUSH1 0x0 DUP3 NOT DUP3 GT ISZERO PUSH2 0x38A9 JUMPI PUSH2 0x38A9 PUSH2 0x3880 JUMP JUMPDEST POP ADD SWAP1 JUMP JUMPDEST PUSH1 0x0 PUSH1 0x1 PUSH1 0x1 PUSH1 0x80 SHL SUB DUP4 DUP2 AND SWAP1 DUP4 AND DUP2 DUP2 LT ISZERO PUSH2 0x38CE JUMPI PUSH2 0x38CE PUSH2 0x3880 JUMP JUMPDEST SUB SWAP4 SWAP3 POP POP POP JUMP JUMPDEST PUSH4 0x4E487B71 PUSH1 0xE0 SHL PUSH1 0x0 MSTORE PUSH1 0x41 PUSH1 0x4 MSTORE PUSH1 0x24 PUSH1 0x0 REVERT JUMPDEST PUSH1 0x0 PUSH1 0x20 DUP3 DUP5 SUB SLT ISZERO PUSH2 0x38FE JUMPI PUSH1 0x0 DUP1 REVERT JUMPDEST DUP2 CALLDATALOAD PUSH2 0x187B DUP2 PUSH2 0x32D9 JUMP JUMPDEST PUSH1 0x0 DUP3 DUP3 LT ISZERO PUSH2 0x391B JUMPI PUSH2 0x391B PUSH2 0x3880 JUMP JUMPDEST POP SUB SWAP1 JUMP JUMPDEST PUSH4 0x4E487B71 PUSH1 0xE0 SHL PUSH1 0x0 MSTORE PUSH1 0x12 PUSH1 0x4 MSTORE PUSH1 0x24 PUSH1 0x0 REVERT JUMPDEST PUSH1 0x0 DUP3 PUSH2 0x3945 JUMPI PUSH2 0x3945 PUSH2 0x3920 JUMP JUMPDEST POP MOD SWAP1 JUMP JUMPDEST PUSH1 0x0 PUSH1 0x1 PUSH1 0x1 PUSH1 0x70 SHL SUB DUP1 DUP4 AND DUP2 DUP6 AND DUP1 DUP4 SUB DUP3 GT ISZERO PUSH2 0x396C JUMPI PUSH2 0x396C PUSH2 0x3880 JUMP JUMPDEST ADD SWAP5 SWAP4 POP POP POP POP JUMP JUMPDEST PUSH1 0x0 PUSH1 0x20 DUP3 DUP5 SUB SLT ISZERO PUSH2 0x3987 JUMPI PUSH1 0x0 DUP1 REVERT JUMPDEST DUP2 MLOAD PUSH2 0x187B DUP2 PUSH2 0x32D9 JUMP JUMPDEST DUP2 DUP4 MSTORE PUSH1 0x0 PUSH1 0x1 PUSH1 0x1 PUSH1 0xFB SHL SUB DUP4 GT ISZERO PUSH2 0x39AB JUMPI PUSH1 0x0 DUP1 REVERT JUMPDEST DUP3 PUSH1 0x5 SHL DUP1 DUP4 PUSH1 0x20 DUP8 ADD CALLDATACOPY PUSH1 0x0 SWAP5 ADD PUSH1 0x20 ADD SWAP4 DUP5 MSTORE POP SWAP2 SWAP3 SWAP2 POP POP JUMP JUMPDEST PUSH1 0x40 DUP2 MSTORE PUSH1 0x0 PUSH2 0x39DC PUSH1 0x40 DUP4 ADD DUP7 DUP9 PUSH2 0x3992 JUMP JUMPDEST DUP3 DUP2 SUB PUSH1 0x20 DUP5 ADD MSTORE PUSH2 0x39EF DUP2 DUP6 DUP8 PUSH2 0x3992 JUMP JUMPDEST SWAP8 SWAP7 POP POP POP POP POP POP POP JUMP JUMPDEST PUSH1 0x0 PUSH1 0x20 DUP3 DUP5 SUB SLT ISZERO PUSH2 0x3A0C JUMPI PUSH1 0x0 DUP1 REVERT JUMPDEST DUP2 MLOAD PUSH2 0x187B DUP2 PUSH2 0x3640 JUMP JUMPDEST PUSH1 0x0 PUSH1 0x20 DUP3 DUP5 SUB SLT ISZERO PUSH2 0x3A29 JUMPI PUSH1 0x0 DUP1 REVERT JUMPDEST POP MLOAD SWAP2 SWAP1 POP JUMP JUMPDEST PUSH1 0x0 PUSH1 0x1 PUSH1 0x1 PUSH1 0x80 SHL SUB DUP1 DUP4 AND DUP2 DUP6 AND DUP1 DUP4 SUB DUP3 GT ISZERO PUSH2 0x396C JUMPI PUSH2 0x396C PUSH2 0x3880 JUMP JUMPDEST PUSH1 0x0 DUP3 MLOAD PUSH2 0x3A64 DUP2 DUP5 PUSH1 0x20 DUP8 ADD PUSH2 0x3347 JUMP JUMPDEST SWAP2 SWAP1 SWAP2 ADD SWAP3 SWAP2 POP POP JUMP JUMPDEST PUSH1 0x0 DUP2 PUSH1 0x0 NOT DIV DUP4 GT DUP3 ISZERO ISZERO AND ISZERO PUSH2 0x3A88 JUMPI PUSH2 0x3A88 PUSH2 0x3880 JUMP JUMPDEST POP MUL SWAP1 JUMP JUMPDEST PUSH1 0x0 DUP3 PUSH2 0x3A9C JUMPI PUSH2 0x3A9C PUSH2 0x3920 JUMP JUMPDEST POP DIV SWAP1 JUMP JUMPDEST PUSH1 0x0 PUSH1 0xFF DUP3 AND PUSH1 0xFF DUP5 AND DUP1 PUSH1 0xFF SUB DUP3 GT ISZERO PUSH2 0x3ABE JUMPI PUSH2 0x3ABE PUSH2 0x3880 JUMP JUMPDEST ADD SWAP4 SWAP3 POP POP POP JUMP JUMPDEST PUSH1 0x0 PUSH1 0xFF DUP3 AND PUSH1 0xFF DUP5 AND DUP1 DUP3 LT ISZERO PUSH2 0x3AE0 JUMPI PUSH2 0x3AE0 PUSH2 0x3880 JUMP JUMPDEST SWAP1 SUB SWAP4 SWAP3 POP POP POP JUMP INVALID LOG2 PUSH5 0x6970667358 0x22 SLT KECCAK256 0x5F 0xD6 CALLCODE 0xE PUSH29 0x96E926009CC3CEC60364B98A1C6593478B8B55B9151E6460A0CFBD6473 PUSH16 0x6C634300080A00330000000000000000 "
		},
		"gasEstimates": {
			"creation": {
				"codeDepositCost": "3027000",
				"executionCost": "infinite",
				"totalCost": "infinite"
			},
			"external": {
				"balanceOf(address,uint256)": "2654",
				"balanceOfBatch(address[],uint256[])": "infinite",
				"burn(uint256[],uint256[],address)": "infinite",
				"collectFees(address,uint256[])": "infinite",
				"collectProtocolFees()": "infinite",
				"factory()": "infinite",
				"feeParameters()": "2566",
				"findFirstNonEmptyBinId(uint24,bool)": "infinite",
				"getBin(uint24)": "infinite",
				"getGlobalFees()": "2484",
				"getReservesAndId()": "4592",
				"initialize(address,address,uint24)": "infinite",
				"isApprovedForAll(address,address)": "infinite",
				"mint(uint256[],uint256[],uint256[],address)": "infinite",
				"name()": "infinite",
				"pendingFees(address,uint256[])": "infinite",
				"safeBatchTransferFrom(address,address,uint256[],uint256[])": "infinite",
				"safeTransferFrom(address,address,uint256,uint256)": "infinite",
				"setApprovalForAll(address,bool)": "infinite",
				"supportsInterface(bytes4)": "576",
				"swap(bool,address)": "infinite",
				"symbol()": "infinite",
				"tokenX()": "2360",
				"tokenY()": "2404",
				"totalSupply(uint256)": "2516"
			},
			"internal": {
				"_beforeTokenTransfer(address,address,uint256,uint256)": "infinite",
				"_cacheFees(struct ILBPair.Bin memory,address,uint256,uint256,uint256)": "infinite",
				"_emitSwap(address,uint24,bool,uint256,uint256,uint256)": "infinite",
				"_getBin(uint24)": "infinite",
				"_getGlobalFees()": "infinite",
				"_getPendingFees(struct ILBPair.Bin memory,address,uint256,uint256)": "infinite",
				"_getReservesAndId()": "infinite",
				"_updateUserDebts(struct ILBPair.Bin memory,address,uint256,uint256)": "infinite"
			}
		},
		"methodIdentifiers": {
			"balanceOf(address,uint256)": "00fdd58e",
			"balanceOfBatch(address[],uint256[])": "4e1273f4",
			"burn(uint256[],uint256[],address)": "0acd451d",
			"collectFees(address,uint256[])": "225b20b9",
			"collectProtocolFees()": "a1af5b9a",
			"factory()": "c45a0155",
			"feeParameters()": "98c7adf3",
			"findFirstNonEmptyBinId(uint24,bool)": "8f919a83",
			"getBin(uint24)": "0abe9688",
			"getGlobalFees()": "a582cdaa",
			"getReservesAndId()": "1b05b83e",
			"initialize(address,address,uint24)": "336c8d70",
			"isApprovedForAll(address,address)": "e985e9c5",
			"mint(uint256[],uint256[],uint256[],address)": "714c8592",
			"name()": "06fdde03",
			"pendingFees(address,uint256[])": "f7cff1f8",
			"safeBatchTransferFrom(address,address,uint256[],uint256[])": "fba0ee64",
			"safeTransferFrom(address,address,uint256,uint256)": "0febdd49",
			"setApprovalForAll(address,bool)": "a22cb465",
			"supportsInterface(bytes4)": "01ffc9a7",
			"swap(bool,address)": "53c059a0",
			"symbol()": "95d89b41",
			"tokenX()": "16dc165b",
			"tokenY()": "b7d19fc4",
			"totalSupply(uint256)": "bd85b039"
		}
	},
	"abi": [
		{
			"inputs": [
				{
					"internalType": "contract ILBFactory",
					"name": "_factory",
					"type": "address"
				}
			],
			"stateMutability": "nonpayable",
			"type": "constructor"
		},
		{
			"inputs": [],
			"name": "BinHelper__IdOverflows",
			"type": "error"
		},
		{
			"inputs": [],
			"name": "LBPair__AddressZero",
			"type": "error"
		},
		{
			"inputs": [],
			"name": "LBPair__AddressZeroOrThis",
			"type": "error"
		},
		{
			"inputs": [],
			"name": "LBPair__AlreadyInitialized",
			"type": "error"
		},
		{
			"inputs": [
				{
					"internalType": "uint256",
					"name": "id",
					"type": "uint256"
				}
			],
			"name": "LBPair__CompositionFactorFlawed",
			"type": "error"
		},
		{
			"inputs": [],
			"name": "LBPair__DistributionsOverflow",
			"type": "error"
		},
		{
			"inputs": [],
			"name": "LBPair__InsufficientAmounts",
			"type": "error"
		},
		{
			"inputs": [
				{
					"internalType": "uint256",
					"name": "id",
					"type": "uint256"
				}
			],
			"name": "LBPair__InsufficientLiquidityBurned",
			"type": "error"
		},
		{
			"inputs": [
				{
					"internalType": "uint256",
					"name": "id",
					"type": "uint256"
				}
			],
			"name": "LBPair__InsufficientLiquidityMinted",
			"type": "error"
		},
		{
			"inputs": [],
			"name": "LBPair__OnlyFactory",
			"type": "error"
		},
		{
			"inputs": [
				{
					"internalType": "address",
					"name": "feeRecipient",
					"type": "address"
				},
				{
					"internalType": "address",
					"name": "sender",
					"type": "address"
				}
			],
			"name": "LBPair__OnlyFeeRecipient",
			"type": "error"
		},
		{
			"inputs": [],
			"name": "LBPair__OnlyStrictlyIncreasingId",
			"type": "error"
		},
		{
			"inputs": [],
			"name": "LBPair__WrongLengths",
			"type": "error"
		},
		{
			"inputs": [
				{
					"internalType": "address",
					"name": "from",
					"type": "address"
				},
				{
					"internalType": "uint256",
					"name": "id",
					"type": "uint256"
				},
				{
					"internalType": "uint256",
					"name": "amount",
					"type": "uint256"
				}
			],
			"name": "LBToken__BurnExceedsBalance",
			"type": "error"
		},
		{
			"inputs": [],
			"name": "LBToken__BurnFromAddress0",
			"type": "error"
		},
		{
			"inputs": [
				{
					"internalType": "uint256",
					"name": "accountsLength",
					"type": "uint256"
				},
				{
					"internalType": "uint256",
					"name": "idsLength",
					"type": "uint256"
				}
			],
			"name": "LBToken__LengthMismatch",
			"type": "error"
		},
		{
			"inputs": [],
			"name": "LBToken__MintToAddress0",
			"type": "error"
		},
		{
			"inputs": [
				{
					"internalType": "address",
					"name": "owner",
					"type": "address"
				}
			],
			"name": "LBToken__SelfApproval",
			"type": "error"
		},
		{
			"inputs": [
				{
					"internalType": "address",
					"name": "owner",
					"type": "address"
				},
				{
					"internalType": "address",
					"name": "spender",
					"type": "address"
				}
			],
			"name": "LBToken__SpenderNotApproved",
			"type": "error"
		},
		{
			"inputs": [
				{
					"internalType": "address",
					"name": "from",
					"type": "address"
				},
				{
					"internalType": "uint256",
					"name": "id",
					"type": "uint256"
				},
				{
					"internalType": "uint256",
					"name": "amount",
					"type": "uint256"
				}
			],
			"name": "LBToken__TransferExceedsBalance",
			"type": "error"
		},
		{
			"inputs": [],
			"name": "LBToken__TransferFromOrToAddress0",
			"type": "error"
		},
		{
			"inputs": [],
			"name": "LBToken__TransferToSelf",
			"type": "error"
		},
		{
			"inputs": [
				{
					"internalType": "uint256",
					"name": "x",
					"type": "uint256"
				},
				{
					"internalType": "int256",
					"name": "y",
					"type": "int256"
				}
			],
			"name": "Math128x128__PowerUnderflow",
			"type": "error"
		},
		{
			"inputs": [
				{
					"internalType": "uint256",
					"name": "prod1",
					"type": "uint256"
				},
				{
					"internalType": "uint256",
					"name": "denominator",
					"type": "uint256"
				}
			],
			"name": "Math512Bits__MulDivOverflow",
			"type": "error"
		},
		{
			"inputs": [
				{
					"internalType": "uint256",
					"name": "prod1",
					"type": "uint256"
				},
				{
					"internalType": "uint256",
					"name": "offset",
					"type": "uint256"
				}
			],
			"name": "Math512Bits__MulShiftOverflow",
			"type": "error"
		},
		{
			"inputs": [
				{
					"internalType": "uint256",
					"name": "offset",
					"type": "uint256"
				}
			],
			"name": "Math512Bits__OffsetOverflows",
			"type": "error"
		},
		{
			"inputs": [],
			"name": "ReentrancyGuardUpgradeable__AlreadyInitialized",
			"type": "error"
		},
		{
			"inputs": [],
			"name": "ReentrancyGuardUpgradeable__ReentrantCall",
			"type": "error"
		},
		{
			"inputs": [
				{
					"internalType": "uint256",
					"name": "x",
					"type": "uint256"
				}
			],
			"name": "SafeCast__Exceeds112Bits",
			"type": "error"
		},
		{
			"inputs": [
				{
					"internalType": "uint256",
					"name": "x",
					"type": "uint256"
				}
			],
			"name": "SafeCast__Exceeds128Bits",
			"type": "error"
		},
		{
			"inputs": [
				{
					"internalType": "uint256",
					"name": "x",
					"type": "uint256"
				}
			],
			"name": "SafeCast__Exceeds24Bits",
			"type": "error"
		},
		{
			"inputs": [],
			"name": "TokenHelper__CallFailed",
			"type": "error"
		},
		{
			"inputs": [],
			"name": "TokenHelper__NonContract",
			"type": "error"
		},
		{
			"inputs": [],
			"name": "TokenHelper__TransferFailed",
			"type": "error"
		},
		{
			"inputs": [],
			"name": "TreeMath__ErrorDepthSearch",
			"type": "error"
		},
		{
			"anonymous": false,
			"inputs": [
				{
					"indexed": true,
					"internalType": "address",
					"name": "account",
					"type": "address"
				},
				{
					"indexed": true,
					"internalType": "address",
					"name": "sender",
					"type": "address"
				},
				{
					"indexed": false,
					"internalType": "bool",
					"name": "approved",
					"type": "bool"
				}
			],
			"name": "ApprovalForAll",
			"type": "event"
		},
		{
			"anonymous": false,
			"inputs": [
				{
					"indexed": true,
					"internalType": "address",
					"name": "sender",
					"type": "address"
				},
				{
					"indexed": true,
					"internalType": "address",
					"name": "recipient",
					"type": "address"
				},
				{
					"indexed": true,
					"internalType": "uint256",
					"name": "id",
					"type": "uint256"
				},
				{
					"indexed": false,
					"internalType": "uint256",
					"name": "feesX",
					"type": "uint256"
				},
				{
					"indexed": false,
					"internalType": "uint256",
					"name": "feesY",
					"type": "uint256"
				}
			],
			"name": "CompositionFee",
			"type": "event"
		},
		{
			"anonymous": false,
			"inputs": [
				{
					"indexed": true,
					"internalType": "address",
					"name": "sender",
					"type": "address"
				},
				{
					"indexed": true,
					"internalType": "address",
					"name": "recipient",
					"type": "address"
				},
				{
					"indexed": true,
					"internalType": "uint256",
					"name": "id",
					"type": "uint256"
				},
				{
					"indexed": false,
					"internalType": "uint256",
					"name": "amountX",
					"type": "uint256"
				},
				{
					"indexed": false,
					"internalType": "uint256",
					"name": "amountY",
					"type": "uint256"
				}
			],
			"name": "DepositedToBin",
			"type": "event"
		},
		{
			"anonymous": false,
			"inputs": [
				{
					"indexed": true,
					"internalType": "address",
					"name": "sender",
					"type": "address"
				},
				{
					"indexed": true,
					"internalType": "address",
					"name": "recipient",
					"type": "address"
				},
				{
					"indexed": false,
					"internalType": "uint256",
					"name": "amountX",
					"type": "uint256"
				},
				{
					"indexed": false,
					"internalType": "uint256",
					"name": "amountY",
					"type": "uint256"
				}
			],
			"name": "FeesCollected",
			"type": "event"
		},
		{
			"anonymous": false,
			"inputs": [
				{
					"indexed": false,
					"internalType": "uint256",
					"name": "previousSize",
					"type": "uint256"
				},
				{
					"indexed": false,
					"internalType": "uint256",
					"name": "newSize",
					"type": "uint256"
				}
			],
			"name": "OracleSizeIncreased",
			"type": "event"
		},
		{
			"anonymous": false,
			"inputs": [
				{
					"indexed": true,
					"internalType": "address",
					"name": "sender",
					"type": "address"
				},
				{
					"indexed": true,
					"internalType": "address",
					"name": "recipient",
					"type": "address"
				},
				{
					"indexed": false,
					"internalType": "uint256",
					"name": "amountX",
					"type": "uint256"
				},
				{
					"indexed": false,
					"internalType": "uint256",
					"name": "amountY",
					"type": "uint256"
				}
			],
			"name": "ProtocolFeesCollected",
			"type": "event"
		},
		{
			"anonymous": false,
			"inputs": [
				{
					"indexed": true,
					"internalType": "address",
					"name": "sender",
					"type": "address"
				},
				{
					"indexed": true,
					"internalType": "address",
					"name": "recipient",
					"type": "address"
				},
				{
					"indexed": true,
					"internalType": "uint256",
					"name": "id",
					"type": "uint256"
				},
				{
					"indexed": false,
					"internalType": "bool",
					"name": "swapForY",
					"type": "bool"
				},
				{
					"indexed": false,
					"internalType": "uint256",
					"name": "amountIn",
					"type": "uint256"
				},
				{
					"indexed": false,
					"internalType": "uint256",
					"name": "amountOut",
					"type": "uint256"
				},
				{
					"indexed": false,
					"internalType": "uint256",
					"name": "fees",
					"type": "uint256"
				}
			],
			"name": "Swap",
			"type": "event"
		},
		{
			"anonymous": false,
			"inputs": [
				{
					"indexed": true,
					"internalType": "address",
					"name": "sender",
					"type": "address"
				},
				{
					"indexed": true,
					"internalType": "address",
					"name": "from",
					"type": "address"
				},
				{
					"indexed": true,
					"internalType": "address",
					"name": "to",
					"type": "address"
				},
				{
					"indexed": false,
					"internalType": "uint256[]",
					"name": "ids",
					"type": "uint256[]"
				},
				{
					"indexed": false,
					"internalType": "uint256[]",
					"name": "amounts",
					"type": "uint256[]"
				}
			],
			"name": "TransferBatch",
			"type": "event"
		},
		{
			"anonymous": false,
			"inputs": [
				{
					"indexed": true,
					"internalType": "address",
					"name": "sender",
					"type": "address"
				},
				{
					"indexed": true,
					"internalType": "address",
					"name": "from",
					"type": "address"
				},
				{
					"indexed": true,
					"internalType": "address",
					"name": "to",
					"type": "address"
				},
				{
					"indexed": false,
					"internalType": "uint256",
					"name": "id",
					"type": "uint256"
				},
				{
					"indexed": false,
					"internalType": "uint256",
					"name": "amount",
					"type": "uint256"
				}
			],
			"name": "TransferSingle",
			"type": "event"
		},
		{
			"anonymous": false,
			"inputs": [
				{
					"indexed": true,
					"internalType": "address",
					"name": "sender",
					"type": "address"
				},
				{
					"indexed": true,
					"internalType": "address",
					"name": "recipient",
					"type": "address"
				},
				{
					"indexed": true,
					"internalType": "uint256",
					"name": "id",
					"type": "uint256"
				},
				{
					"indexed": false,
					"internalType": "uint256",
					"name": "amountX",
					"type": "uint256"
				},
				{
					"indexed": false,
					"internalType": "uint256",
					"name": "amountY",
					"type": "uint256"
				}
			],
			"name": "WithdrawnFromBin",
			"type": "event"
		},
		{
			"inputs": [
				{
					"internalType": "address",
					"name": "_account",
					"type": "address"
				},
				{
					"internalType": "uint256",
					"name": "_id",
					"type": "uint256"
				}
			],
			"name": "balanceOf",
			"outputs": [
				{
					"internalType": "uint256",
					"name": "",
					"type": "uint256"
				}
			],
			"stateMutability": "view",
			"type": "function"
		},
		{
			"inputs": [
				{
					"internalType": "address[]",
					"name": "_accounts",
					"type": "address[]"
				},
				{
					"internalType": "uint256[]",
					"name": "_ids",
					"type": "uint256[]"
				}
			],
			"name": "balanceOfBatch",
			"outputs": [
				{
					"internalType": "uint256[]",
					"name": "batchBalances",
					"type": "uint256[]"
				}
			],
			"stateMutability": "view",
			"type": "function"
		},
		{
			"inputs": [
				{
					"internalType": "uint256[]",
					"name": "_ids",
					"type": "uint256[]"
				},
				{
					"internalType": "uint256[]",
					"name": "_amounts",
					"type": "uint256[]"
				},
				{
					"internalType": "address",
					"name": "_to",
					"type": "address"
				}
			],
			"name": "burn",
			"outputs": [
				{
					"internalType": "uint256",
					"name": "amountX",
					"type": "uint256"
				},
				{
					"internalType": "uint256",
					"name": "amountY",
					"type": "uint256"
				}
			],
			"stateMutability": "nonpayable",
			"type": "function"
		},
		{
			"inputs": [
				{
					"internalType": "address",
					"name": "_account",
					"type": "address"
				},
				{
					"internalType": "uint256[]",
					"name": "_ids",
					"type": "uint256[]"
				}
			],
			"name": "collectFees",
			"outputs": [
				{
					"internalType": "uint256",
					"name": "amountY",
					"type": "uint256"
				}
			],
			"stateMutability": "nonpayable",
			"type": "function"
		},
		{
			"inputs": [],
			"name": "collectProtocolFees",
			"outputs": [
				{
					"internalType": "uint128",
					"name": "amountY",
					"type": "uint128"
				}
			],
			"stateMutability": "nonpayable",
			"type": "function"
		},
		{
			"inputs": [],
			"name": "factory",
			"outputs": [
				{
					"internalType": "contract ILBFactory",
					"name": "",
					"type": "address"
				}
			],
			"stateMutability": "view",
			"type": "function"
		},
		{
			"inputs": [],
			"name": "feeParameters",
			"outputs": [
				{
					"components": [
						{
							"internalType": "uint128",
							"name": "rate",
							"type": "uint128"
						},
						{
							"internalType": "uint128",
							"name": "protocolShare",
							"type": "uint128"
						}
					],
					"internalType": "struct FeeHelper.FeeParameters",
					"name": "",
					"type": "tuple"
				}
			],
			"stateMutability": "view",
			"type": "function"
		},
		{
			"inputs": [
				{
					"internalType": "uint24",
					"name": "_id",
					"type": "uint24"
				},
				{
					"internalType": "bool",
					"name": "_swapForY",
					"type": "bool"
				}
			],
			"name": "findFirstNonEmptyBinId",
			"outputs": [
				{
					"internalType": "uint24",
					"name": "",
					"type": "uint24"
				}
			],
			"stateMutability": "view",
			"type": "function"
		},
		{
			"inputs": [
				{
					"internalType": "uint24",
					"name": "_id",
					"type": "uint24"
				}
			],
			"name": "getBin",
			"outputs": [
				{
					"internalType": "uint256",
					"name": "reserveX",
					"type": "uint256"
				},
				{
					"internalType": "uint256",
					"name": "reserveY",
					"type": "uint256"
				}
			],
			"stateMutability": "view",
			"type": "function"
		},
		{
			"inputs": [],
			"name": "getGlobalFees",
			"outputs": [
				{
					"internalType": "uint128",
					"name": "feesYTotal",
					"type": "uint128"
				},
				{
					"internalType": "uint128",
					"name": "feesYProtocol",
					"type": "uint128"
				}
			],
			"stateMutability": "view",
			"type": "function"
		},
		{
			"inputs": [],
			"name": "getReservesAndId",
			"outputs": [
				{
					"internalType": "uint256",
					"name": "reserveX",
					"type": "uint256"
				},
				{
					"internalType": "uint256",
					"name": "reserveY",
					"type": "uint256"
				},
				{
					"internalType": "uint256",
					"name": "activeId",
					"type": "uint256"
				}
			],
			"stateMutability": "view",
			"type": "function"
		},
		{
			"inputs": [
				{
					"internalType": "contract IERC20",
					"name": "_tokenX",
					"type": "address"
				},
				{
					"internalType": "contract IERC20",
					"name": "_tokenY",
					"type": "address"
				},
				{
					"internalType": "uint24",
					"name": "_activeId",
					"type": "uint24"
				}
			],
			"name": "initialize",
			"outputs": [],
			"stateMutability": "nonpayable",
			"type": "function"
		},
		{
			"inputs": [
				{
					"internalType": "address",
					"name": "_owner",
					"type": "address"
				},
				{
					"internalType": "address",
					"name": "_spender",
					"type": "address"
				}
			],
			"name": "isApprovedForAll",
			"outputs": [
				{
					"internalType": "bool",
					"name": "",
					"type": "bool"
				}
			],
			"stateMutability": "view",
			"type": "function"
		},
		{
			"inputs": [
				{
					"internalType": "uint256[]",
					"name": "_ids",
					"type": "uint256[]"
				},
				{
					"internalType": "uint256[]",
					"name": "_amountX",
					"type": "uint256[]"
				},
				{
					"internalType": "uint256[]",
					"name": "_amountY",
					"type": "uint256[]"
				},
				{
					"internalType": "address",
					"name": "_to",
					"type": "address"
				}
			],
			"name": "mint",
			"outputs": [
				{
					"internalType": "uint256",
					"name": "",
					"type": "uint256"
				},
				{
					"internalType": "uint256",
					"name": "",
					"type": "uint256"
				},
				{
					"internalType": "uint256[]",
					"name": "liquidityMinted",
					"type": "uint256[]"
				}
			],
			"stateMutability": "nonpayable",
			"type": "function"
		},
		{
			"inputs": [],
			"name": "name",
			"outputs": [
				{
					"internalType": "string",
					"name": "",
					"type": "string"
				}
			],
			"stateMutability": "pure",
			"type": "function"
		},
		{
			"inputs": [
				{
					"internalType": "address",
					"name": "_account",
					"type": "address"
				},
				{
					"internalType": "uint256[]",
					"name": "_ids",
					"type": "uint256[]"
				}
			],
			"name": "pendingFees",
			"outputs": [
				{
					"internalType": "uint256",
					"name": "amountY",
					"type": "uint256"
				}
			],
			"stateMutability": "view",
			"type": "function"
		},
		{
			"inputs": [
				{
					"internalType": "address",
					"name": "_from",
					"type": "address"
				},
				{
					"internalType": "address",
					"name": "_to",
					"type": "address"
				},
				{
					"internalType": "uint256[]",
					"name": "_ids",
					"type": "uint256[]"
				},
				{
					"internalType": "uint256[]",
					"name": "_amounts",
					"type": "uint256[]"
				}
			],
			"name": "safeBatchTransferFrom",
			"outputs": [],
			"stateMutability": "nonpayable",
			"type": "function"
		},
		{
			"inputs": [
				{
					"internalType": "address",
					"name": "_from",
					"type": "address"
				},
				{
					"internalType": "address",
					"name": "_to",
					"type": "address"
				},
				{
					"internalType": "uint256",
					"name": "_id",
					"type": "uint256"
				},
				{
					"internalType": "uint256",
					"name": "_amount",
					"type": "uint256"
				}
			],
			"name": "safeTransferFrom",
			"outputs": [],
			"stateMutability": "nonpayable",
			"type": "function"
		},
		{
			"inputs": [
				{
					"internalType": "address",
					"name": "_spender",
					"type": "address"
				},
				{
					"internalType": "bool",
					"name": "_approved",
					"type": "bool"
				}
			],
			"name": "setApprovalForAll",
			"outputs": [],
			"stateMutability": "nonpayable",
			"type": "function"
		},
		{
			"inputs": [
				{
					"internalType": "bytes4",
					"name": "_interfaceId",
					"type": "bytes4"
				}
			],
			"name": "supportsInterface",
			"outputs": [
				{
					"internalType": "bool",
					"name": "",
					"type": "bool"
				}
			],
			"stateMutability": "view",
			"type": "function"
		},
		{
			"inputs": [
				{
					"internalType": "bool",
					"name": "_swapForY",
					"type": "bool"
				},
				{
					"internalType": "address",
					"name": "_to",
					"type": "address"
				}
			],
			"name": "swap",
			"outputs": [
				{
					"internalType": "uint256",
					"name": "amountXOut",
					"type": "uint256"
				},
				{
					"internalType": "uint256",
					"name": "amountYOut",
					"type": "uint256"
				}
			],
			"stateMutability": "nonpayable",
			"type": "function"
		},
		{
			"inputs": [],
			"name": "symbol",
			"outputs": [
				{
					"internalType": "string",
					"name": "",
					"type": "string"
				}
			],
			"stateMutability": "pure",
			"type": "function"
		},
		{
			"inputs": [],
			"name": "tokenX",
			"outputs": [
				{
					"internalType": "contract IERC20",
					"name": "",
					"type": "address"
				}
			],
			"stateMutability": "view",
			"type": "function"
		},
		{
			"inputs": [],
			"name": "tokenY",
			"outputs": [
				{
					"internalType": "contract IERC20",
					"name": "",
					"type": "address"
				}
			],
			"stateMutability": "view",
			"type": "function"
		},
		{
			"inputs": [
				{
					"internalType": "uint256",
					"name": "_id",
					"type": "uint256"
				}
			],
			"name": "totalSupply",
			"outputs": [
				{
					"internalType": "uint256",
					"name": "",
					"type": "uint256"
				}
			],
			"stateMutability": "view",
			"type": "function"
		}
	]
}