{
	"data": {
		"bytecode": {
			"linkReferences": {},
			"object": "60a06040523480156200001157600080fd5b50604051620063c9380380620063c98339818101604052810190620000379190620003cf565b600073ffffffffffffffffffffffffffffffffffffffff168573ffffffffffffffffffffffffffffffffffffffff1614156200009f576040517f17be04b700000000000000000000000000000000000000000000000000000000815260040160405180910390fd5b8473ffffffffffffffffffffffffffffffffffffffff1660808173ffffffffffffffffffffffffffffffffffffffff168152505083600160006101000a81548173ffffffffffffffffffffffffffffffffffffffff021916908373ffffffffffffffffffffffffffffffffffffffff16021790555082600260006101000a81548173ffffffffffffffffffffffffffffffffffffffff021916908373ffffffffffffffffffffffffffffffffffffffff16021790555081601260006101000a81548173ffffffffffffffffffffffffffffffffffffffff021916908373ffffffffffffffffffffffffffffffffffffffff160217905550620001a6620001f160201b60201c565b806fffffffffffffffffffffffffffffffff16600f81905550600a81620001ce919062000486565b6fffffffffffffffffffffffffffffffff166010819055505050505050620004be565b620002016200020360201b60201c565b565b60008054146200023f576040517fd80075c100000000000000000000000000000000000000000000000000000000815260040160405180910390fd5b6001600081905550565b600080fd5b600073ffffffffffffffffffffffffffffffffffffffff82169050919050565b60006200027b826200024e565b9050919050565b60006200028f826200026e565b9050919050565b620002a18162000282565b8114620002ad57600080fd5b50565b600081519050620002c18162000296565b92915050565b6000620002d4826200026e565b9050919050565b620002e681620002c7565b8114620002f257600080fd5b50565b6000815190506200030681620002db565b92915050565b600062000319826200026e565b9050919050565b6200032b816200030c565b81146200033757600080fd5b50565b6000815190506200034b8162000320565b92915050565b6200035c816200026e565b81146200036857600080fd5b50565b6000815190506200037c8162000351565b92915050565b60006fffffffffffffffffffffffffffffffff82169050919050565b620003a98162000382565b8114620003b557600080fd5b50565b600081519050620003c9816200039e565b92915050565b600080600080600060a08688031215620003ee57620003ed62000249565b5b6000620003fe88828901620002b0565b95505060206200041188828901620002f5565b945050604062000424888289016200033a565b935050606062000437888289016200036b565b92505060806200044a88828901620003b8565b9150509295509295909350565b7f4e487b7100000000000000000000000000000000000000000000000000000000600052601260045260246000fd5b6000620004938262000382565b9150620004a08362000382565b925082620004b357620004b262000457565b5b828204905092915050565b608051615ee8620004e160003960008181610eed01526118b70152615ee86000f3fe608060405234801561001057600080fd5b506004361061014d5760003560e01c806398c7adf3116100c3578063c67b321d1161007c578063c67b321d146103fc578063d1ad1fae1461042c578063d8db47a71461045d578063fcd3533c14610479578063fcee45f4146104aa578063fd31c4ab146104da5761014d565b806398c7adf314610333578063a1af5b9a14610352578063a3d055a714610370578063a582cdaa146103a1578063b7d19fc4146103c0578063c45a0155146103de5761014d565b80635b9c5c02116101155780635b9c5c02146102225780635d6aeb2a146102525780635fcbd285146102825780637eb695d7146102a0578063902f905d146102d0578063906c7779146103035761014d565b80630abe968814610152578063150b7a021461018357806316dc165b146101b35780631b05b83e146101d15780635728ad49146101f2575b600080fd5b61016c600480360381019061016791906150d4565b61050a565b60405161017a92919061511a565b60405180910390f35b61019d60048036038101906101989190615313565b610570565b6040516101aa91906153d1565b60405180910390f35b6101bb610584565b6040516101c8919061544b565b60405180910390f35b6101d96105aa565b6040516101e99493929190615466565b60405180910390f35b61020c600480360381019061020791906154ab565b61065e565b60405161021991906154eb565b60405180910390f35b61023c60048036038101906102379190615506565b610d46565b60405161024991906154eb565b60405180910390f35b61026c60048036038101906102679190615533565b610d5e565b60405161027991906154eb565b60405180910390f35b61028a610d8f565b6040516102979190615594565b60405180910390f35b6102ba60048036038101906102b59190615506565b610db5565b6040516102c791906154eb565b60405180910390f35b6102ea60048036038101906102e59190615506565b610e04565b6040516102fa94939291906155be565b60405180910390f35b61031d60048036038101906103189190615533565b610e61565b60405161032a91906154eb565b60405180910390f35b61033b610e92565b60405161034992919061511a565b60405180910390f35b61035a610ea3565b60405161036791906154eb565b60405180910390f35b61038a60048036038101906103859190615663565b61108d565b60405161039892919061511a565b60405180910390f35b6103a9611879565b6040516103b792919061511a565b60405180910390f35b6103c861188f565b6040516103d591906156e4565b60405180910390f35b6103e66118b5565b6040516103f39190615720565b60405180910390f35b6104166004803603810190610411919061573b565b6118d9565b60405161042391906154eb565b60405180910390f35b61044660048036038101906104419190615809565b61190a565b60405161045492919061511a565b60405180910390f35b610477600480360381019061047291906154ab565b612304565b005b610493600480360381019061048e91906154ab565b612aa9565b6040516104a192919061511a565b60405180910390f35b6104c460048036038101906104bf9190615506565b6134b0565b6040516104d191906154eb565b60405180910390f35b6104f460048036038101906104ef91906150d4565b6134cd565b60405161050191906154eb565b60405180910390f35b600080600760008462ffffff168152602001908152602001600020600060028110610538576105376158b0565b5b0154600760008562ffffff168152602001908152602001600020600160028110610565576105646158b0565b5b015491509150915091565b600063150b7a0260e01b9050949350505050565b600160009054906101000a900473ffffffffffffffffffffffffffffffffffffffff1681565b600080600080600360000160069054906101000a900470ffffffffffffffffffffffffffffffffff1670ffffffffffffffffffffffffffffffffff169350600360010160009054906101000a900470ffffffffffffffffffffffffffffffffff1670ffffffffffffffffffffffffffffffffff169250600360000160009054906101000a900462ffffff1662ffffff169150600360000160039054906101000a900462ffffff1662ffffff16905090919293565b600060016000541461069c576040517f802d9bf100000000000000000000000000000000000000000000000000000000815260040160405180910390fd5b6002600081905550600060036040518060c00160405290816000820160009054906101000a900462ffffff1662ffffff1662ffffff1681526020016000820160039054906101000a900462ffffff1662ffffff1662ffffff1681526020016000820160069054906101000a900470ffffffffffffffffffffffffffffffffff1670ffffffffffffffffffffffffffffffffff1670ffffffffffffffffffffffffffffffffff1681526020016001820160009054906101000a900470ffffffffffffffffffffffffffffffffff1670ffffffffffffffffffffffffffffffffff1670ffffffffffffffffffffffffffffffffff168152602001600282015481526020016003820154815250509050600060076000836000015162ffffff1681526020019081526020016000206002806020026040519081016040528092919082600280156107fe576020028201915b8154815260200190600101908083116107ea575b50505050509050600082600001519050600082600160028110610824576108236158b0565b5b6020020151141561086c57806040517fb42cd2870000000000000000000000000000000000000000000000000000000081526004016108639190615910565b60405180910390fd5b600061087c8262ffffff166134df565b9050600061089e670de0b6b3a764000060808461354c9092919063ffffffff16565b90506000806108cc6108bb84600f5461361c90919063ffffffff16565b60105461366490919063ffffffff16565b915091506000610946601760008862ffffff1662ffffff16815260200190815260200160002080548060200260200160405190810160405280929190818152602001828054801561093c57602002820191906000526020600020905b815481526020019060010190808311610928575b5050505050613688565b90506000601660008862ffffff1662ffffff1681526020019081526020016000208281548110610979576109786158b0565b5b90600052602060002001549050600160009054906101000a900473ffffffffffffffffffffffffffffffffffffffff1673ffffffffffffffffffffffffffffffffffffffff166342842e0e8c308f6040518463ffffffff1660e01b81526004016109e59392919061593a565b600060405180830381600087803b1580156109ff57600080fd5b505af1158015610a13573d6000803e3d6000fd5b50505050610a2c8188670de0b6b3a7640000600161372a565b50601360008281526020019081526020016000208c90806001815401808255809150506001900390600052602060002001600090919091909150556014600082815260200190815260200160002060000160069054906101000a900462ffffff166014600083815260200190815260200160002060000160038282829054906101000a900462ffffff16610ac091906159a0565b92506101000a81548162ffffff021916908362ffffff1602179055508284610ae891906159d4565b600e60008381526020019081526020016000206000828254610b0a9190615a08565b92505081905550600088600060028110610b2757610b266158b0565b5b60200201511415610b4c57610b4b8762ffffff16600b61386690919063ffffffff16565b5b610b5789858561392c565b610b89896001610b6e670de0b6b3a764000061395a565b610b778961395a565b8c6139b890949392919063ffffffff16565b8385610b9591906159d4565b9950610bae600b8a6008613bcd9092919063ffffffff16565b8a6000018b6020018262ffffff1662ffffff168152508262ffffff1662ffffff16815250505087600760008962ffffff168152602001908152602001600020906002610bfb929190614f6d565b5088600360008201518160000160006101000a81548162ffffff021916908362ffffff16021790555060208201518160000160036101000a81548162ffffff021916908362ffffff16021790555060408201518160000160066101000a81548170ffffffffffffffffffffffffffffffffff021916908370ffffffffffffffffffffffffffffffffff16021790555060608201518160010160006101000a81548170ffffffffffffffffffffffffffffffffff021916908370ffffffffffffffffffffffffffffffffff1602179055506080820151816002015560a08201518160030155905050610d2f8b8b600260009054906101000a900473ffffffffffffffffffffffffffffffffffffffff1673ffffffffffffffffffffffffffffffffffffffff16613c6a9092919063ffffffff16565b505050505050505050600160008190555092915050565b60156020528060005260406000206000915090505481565b60176020528160005260406000208181548110610d7a57600080fd5b90600052602060002001600091509150505481565b601260009054906101000a900473ffffffffffffffffffffffffffffffffffffffff1681565b60008060156000848152602001908152602001600020549050610dfc6014600083815260200190815260200160002060000160039054906101000a900462ffffff16613d5d565b915050919050565b60146020528060005260406000206000915090508060000160009054906101000a900462ffffff16908060000160039054906101000a900462ffffff16908060000160069054906101000a900462ffffff16908060010154905084565b60166020528160005260406000208181548110610e7d57600080fd5b90600052602060002001600091509150505481565b600080600f54601054915091509091565b6000600160005414610ee1576040517f802d9bf100000000000000000000000000000000000000000000000000000000815260040160405180910390fd5b600260008190555060007f000000000000000000000000000000000000000000000000000000000000000073ffffffffffffffffffffffffffffffffffffffff1663469048406040518163ffffffff1660e01b8152600401602060405180830381865afa158015610f56573d6000803e3d6000fd5b505050506040513d601f19601f82011682018060405250810190610f7a9190615a73565b90508073ffffffffffffffffffffffffffffffffffffffff163373ffffffffffffffffffffffffffffffffffffffff1614610fee5780336040517ff680f028000000000000000000000000000000000000000000000000000000008152600401610fe5929190615aa0565b60405180910390fd5b6003800154915060018211156110815760018261100b91906159d4565b9150816003600201600082825461102291906159d4565b92505081905550600160038001819055506110808183600260009054906101000a900473ffffffffffffffffffffffffffffffffffffffff1673ffffffffffffffffffffffffffffffffffffffff16613c6a9092919063ffffffff16565b5b50600160008190555090565b6000806001600054146110cc576040517f802d9bf100000000000000000000000000000000000000000000000000000000815260040160405180910390fd5b6002600081905550600060036040518060c00160405290816000820160009054906101000a900462ffffff1662ffffff1662ffffff1681526020016000820160039054906101000a900462ffffff1662ffffff1662ffffff1681526020016000820160069054906101000a900470ffffffffffffffffffffffffffffffffff1670ffffffffffffffffffffffffffffffffff1670ffffffffffffffffffffffffffffffffff1681526020016001820160009054906101000a900470ffffffffffffffffffffffffffffffffff1670ffffffffffffffffffffffffffffffffff1670ffffffffffffffffffffffffffffffffff16815260200160028201548152602001600382015481525050905060008060006002601160008282546111f19190615a08565b9250508190555060006011549050601260009054906101000a900473ffffffffffffffffffffffffffffffffffffffff1673ffffffffffffffffffffffffffffffffffffffff166340c10f1989836040518363ffffffff1660e01b815260040161125c929190615ac9565b600060405180830381600087803b15801561127657600080fd5b505af115801561128a573d6000803e3d6000fd5b505050506112d88a8a80806020026020016040519081016040528093929190818152602001838360200280828437600081840152601f19601f82011690508083019250505050505050613d94565b6112e157600080fd5b60005b8a8a90508110156113e057601660008c8c84818110611306576113056158b0565b5b905060200201602081019061131b91906150d4565b62ffffff1662ffffff168152602001908152602001600020829080600181540180825580915050600190039060005260206000200160009091909190915055601760008c8c84818110611371576113706158b0565b5b905060200201602081019061138691906150d4565b62ffffff1662ffffff168152602001908152602001600020670de0b6b3a7640000908060018154018082558091505060019003906000526020600020016000909190919091505580806113d890615af2565b9150506112e4565b50611449856060015170ffffffffffffffffffffffffffffffffff168660800151600260009054906101000a900473ffffffffffffffffffffffffffffffffffffffff1673ffffffffffffffffffffffffffffffffffffffff16613e9d9092919063ffffffff16565b9350846020015162ffffff168a8a60018d8d905061146791906159d4565b818110611477576114766158b0565b5b905060200201602081019061148c91906150d4565b62ffffff161180156114a857506000856020015162ffffff1614155b1561152057898960018c8c90506114bf91906159d4565b8181106114cf576114ce6158b0565b5b90506020020160208101906114e491906150d4565b6040517fb42cd2870000000000000000000000000000000000000000000000000000000081526004016115179190615910565b60405180910390fd5b60005b8a8a9050811015611700578a8a82818110611541576115406158b0565b5b905060200201602081019061155691906150d4565b93506000600760008662ffffff1681526020019081526020016000206002806020026040519081016040528092919082600280156115a9576020028201915b815481526020019060010190808311611595575b505050505090506000816000600281106115c6576115c56158b0565b5b60200201511480156115f057506000816001600281106115e9576115e86158b0565b5b6020020151145b1561160f5761160e8562ffffff16600861386690919063ffffffff16565b5b600061161f8662ffffff166134df565b905061163f670de0b6b3a764000060808361354c9092919063ffffffff16565b9050806dffffffffffffffffffffffffffff1682600160028110611666576116656158b0565b5b602002018181516116779190615a08565b91508181525050806dffffffffffffffffffffffffffff16886060018181510191509070ffffffffffffffffffffffffffffffffff16908170ffffffffffffffffffffffffffffffffff1681525050808501945081600760008862ffffff1681526020019081526020016000209060026116f2929190614f6d565b508260010192505050611523565b508382111561173b576040517feee8ff2700000000000000000000000000000000000000000000000000000000815260040160405180910390fd5b611752600b866008613bcd9092919063ffffffff16565b86600001876020018262ffffff1662ffffff168152508262ffffff1662ffffff16815250505084600360008201518160000160006101000a81548162ffffff021916908362ffffff16021790555060208201518160000160036101000a81548162ffffff021916908362ffffff16021790555060408201518160000160066101000a81548170ffffffffffffffffffffffffffffffffff021916908370ffffffffffffffffffffffffffffffffff16021790555060608201518160010160006101000a81548170ffffffffffffffffffffffffffffffffff021916908370ffffffffffffffffffffffffffffffffff1602179055506080820151816002015560a0820151816003015590505081819650965050505050506001600081905550935093915050565b6000806003600201549150600380015490509091565b600260009054906101000a900473ffffffffffffffffffffffffffffffffffffffff1681565b7f000000000000000000000000000000000000000000000000000000000000000081565b601360205281600052604060002081815481106118f557600080fd5b90600052602060002001600091509150505481565b600080600160005414611949576040517f802d9bf100000000000000000000000000000000000000000000000000000000815260040160405180910390fd5b600260008190555060008888905014806119695750858590508888905014155b156119a0576040517f06fed5ff00000000000000000000000000000000000000000000000000000000815260040160405180910390fd5b600060036040518060c00160405290816000820160009054906101000a900462ffffff1662ffffff1662ffffff1681526020016000820160039054906101000a900462ffffff1662ffffff1662ffffff1681526020016000820160069054906101000a900470ffffffffffffffffffffffffffffffffff1670ffffffffffffffffffffffffffffffffff1670ffffffffffffffffffffffffffffffffff1681526020016001820160009054906101000a900470ffffffffffffffffffffffffffffffffff1670ffffffffffffffffffffffffffffffffff1670ffffffffffffffffffffffffffffffffff16815260200160028201548152602001600382015481525050905083151560006002601154611ab99190615b6a565b14151514611adf57600260116000828254611ad49190615a08565b925050819055611af9565b600160116000828254611af29190615a08565b9250508190555b5060006011549050601260009054906101000a900473ffffffffffffffffffffffffffffffffffffffff1673ffffffffffffffffffffffffffffffffffffffff166340c10f1987836040518363ffffffff1660e01b8152600401611b5e929190615ac9565b600060405180830381600087803b158015611b7857600080fd5b505af1158015611b8c573d6000803e3d6000fd5b50505050611bda8a8a80806020026020016040519081016040528093929190818152602001838360200280828437600081840152601f19601f82011690508083019250505050505050613d94565b611be357600080fd5b89896000818110611bf757611bf66158b0565b5b9050602002016020810190611c0c91906150d4565b6014600083815260200190815260200160002060000160006101000a81548162ffffff021916908362ffffff16021790555089896000818110611c5257611c516158b0565b5b9050602002016020810190611c6791906150d4565b6014600083815260200190815260200160002060000160036101000a81548162ffffff021916908362ffffff160217905550611ce38a8a80806020026020016040519081016040528093929190818152602001838360200280828437600081840152601f19601f82011690508083019250505050505050613f34565b6014600083815260200190815260200160002060000160066101000a81548162ffffff021916908362ffffff16021790555089899050601460008381526020019081526020016000206001018190555060005b88889050811015611f0657600160009054906101000a900473ffffffffffffffffffffffffffffffffffffffff1673ffffffffffffffffffffffffffffffffffffffff166342842e0e88308c8c86818110611d9457611d936158b0565b5b905060200201356040518463ffffffff1660e01b8152600401611db99392919061593a565b600060405180830381600087803b158015611dd357600080fd5b505af1158015611de7573d6000803e3d6000fd5b5050505081601560008b8b85818110611e0357611e026158b0565b5b90506020020135815260200190815260200160002081905550601660008c8c84818110611e3357611e326158b0565b5b9050602002016020810190611e4891906150d4565b62ffffff1662ffffff168152602001908152602001600020829080600181540180825580915050600190039060005260206000200160009091909190915055601760008c8c84818110611e9e57611e9d6158b0565b5b9050602002016020810190611eb391906150d4565b62ffffff1662ffffff168152602001908152602001600020600090806001815401808255809150506001900390600052602060002001600090919091909150558080611efe90615af2565b915050611d36565b508787601360008481526020019081526020016000209190611f29929190614fad565b50816000015162ffffff168a8a6000818110611f4857611f476158b0565b5b9050602002016020810190611f5d91906150d4565b62ffffff161015611fcd5789896000818110611f7c57611f7b6158b0565b5b9050602002016020810190611f9191906150d4565b6040517fb42cd287000000000000000000000000000000000000000000000000000000008152600401611fc49190615910565b60405180910390fd5b6000805b8b8b90508110156121c1578b8b82818110611fef57611fee6158b0565b5b905060200201602081019061200491906150d4565b91506000600760008462ffffff168152602001908152602001600020600280602002604051908101604052809291908260028015612057576020028201915b815481526020019060010190808311612043575b50505050509050600081600060028110612074576120736158b0565b5b602002015114801561209e5750600081600160028110612097576120966158b0565b5b6020020151145b156120bd576120bc8362ffffff16600861386690919063ffffffff16565b5b6000816000600281106120d3576120d26158b0565b5b602002015114156120f8576120f78362ffffff16600b61386690919063ffffffff16565b5b670de0b6b3a76400006dffffffffffffffffffffffffffff1681600060028110612125576121246158b0565b5b602002018181516121369190615a08565b91508181525050670de0b6b3a76400006dffffffffffffffffffffffffffff16856040018181510191509070ffffffffffffffffffffffffffffffffff16908170ffffffffffffffffffffffffffffffffff168152505080600760008562ffffff1681526020019081526020016000209060026121b4929190614f6d565b5081600101915050611fd1565b506121d9600b846008613bcd9092919063ffffffff16565b84600001856020018262ffffff1662ffffff168152508262ffffff1662ffffff16815250505082600360008201518160000160006101000a81548162ffffff021916908362ffffff16021790555060208201518160000160036101000a81548162ffffff021916908362ffffff16021790555060408201518160000160066101000a81548170ffffffffffffffffffffffffffffffffff021916908370ffffffffffffffffffffffffffffffffff16021790555060608201518160010160006101000a81548170ffffffffffffffffffffffffffffffffff021916908370ffffffffffffffffffffffffffffffffff1602179055506080820151816002015560a082015181600301559050508a8a905082945094505050506001600081905550965096945050505050565b600160005414612340576040517f802d9bf100000000000000000000000000000000000000000000000000000000815260040160405180910390fd5b6002600081905550600060036040518060c00160405290816000820160009054906101000a900462ffffff1662ffffff1662ffffff1681526020016000820160039054906101000a900462ffffff1662ffffff1662ffffff1681526020016000820160069054906101000a900470ffffffffffffffffffffffffffffffffff1670ffffffffffffffffffffffffffffffffff1670ffffffffffffffffffffffffffffffffff1681526020016001820160009054906101000a900470ffffffffffffffffffffffffffffffffff1670ffffffffffffffffffffffffffffffffff1670ffffffffffffffffffffffffffffffffff1681526020016002820154815260200160038201548152505090506000601560008581526020019081526020016000205490506000601360008381526020019081526020016000208054806020026020016040519081016040528092919081815260200182805480156124c457602002820191906000526020600020905b8154815260200190600101908083116124b0575b5050505050905060006014600084815260200190815260200160002060000160039054906101000a900462ffffff169050600160009054906101000a900473ffffffffffffffffffffffffffffffffffffffff1673ffffffffffffffffffffffffffffffffffffffff166342842e0e3087896040518463ffffffff1660e01b81526004016125549392919061593a565b600060405180830381600087803b15801561256e57600080fd5b505af1158015612582573d6000803e3d6000fd5b505050506014600084815260200190815260200160002060000160069054906101000a900462ffffff166014600085815260200190815260200160002060000160038282829054906101000a900462ffffff166125df9190615b9b565b92506101000a81548162ffffff021916908362ffffff1602179055506000600160028561260c9190615b6a565b1490508061262b576126298483670de0b6b3a7640000600061372a565b505b60006126378489613f93565b9050612643848261400d565b601360008781526020019081526020016000209080519060200190612669929190614ffa565b5060156000898152602001908152602001600020600090556000600760008562ffffff1681526020019081526020016000206002806020026040519081016040528092919082600280156126d2576020028201915b8154815260200190600101908083116126be575b5050505050905060006126e98562ffffff166134df565b9050600061270b670de0b6b3a764000060808461354c9092919063ffffffff16565b905060008061273961272884600f546140e590919063ffffffff16565b60105461366490919063ffffffff16565b915091506000828461274b9190615a08565b9050871561278d5784600e60008d815260200190815260200160002060008282546127769190615a08565b925050819055506127888c848561392c565b6127ce565b818361279991906159d4565b600e60008d815260200190815260200160002060008282546127bb9190615a08565b925050819055506127cd8c848461392c565b5b6128008c60006127dd8761395a565b6127ee670de0b6b3a764000061395a565b8a6139b890949392919063ffffffff16565b600086600060028110612816576128156158b0565b5b6020020151141561283b5761283a8962ffffff16600b61413590919063ffffffff16565b5b600086600060028110612851576128506158b0565b5b602002015114801561287b5750600086600160028110612874576128736158b0565b5b6020020151145b1561289a576128998962ffffff16600861413590919063ffffffff16565b5b6129028c6060015170ffffffffffffffffffffffffffffffffff168d60800151600260009054906101000a900473ffffffffffffffffffffffffffffffffffffffff1673ffffffffffffffffffffffffffffffffffffffff16613e9d9092919063ffffffff16565b81111561294657886040517fb42cd28700000000000000000000000000000000000000000000000000000000815260040161293d9190615910565b60405180910390fd5b61295d600b8d6008613bcd9092919063ffffffff16565b8d6000018e6020018262ffffff1662ffffff168152508262ffffff1662ffffff16815250505085600760008b62ffffff1681526020019081526020016000209060026129aa929190614f6d565b508b600360008201518160000160006101000a81548162ffffff021916908362ffffff16021790555060208201518160000160036101000a81548162ffffff021916908362ffffff16021790555060408201518160000160066101000a81548170ffffffffffffffffffffffffffffffffff021916908370ffffffffffffffffffffffffffffffffff16021790555060608201518160010160006101000a81548170ffffffffffffffffffffffffffffffffff021916908370ffffffffffffffffffffffffffffffffff1602179055506080820151816002015560a0820151816003015590505050505050505050505050505060016000819055505050565b600080600160005414612ae8576040517f802d9bf100000000000000000000000000000000000000000000000000000000815260040160405180910390fd5b6002600081905550600060036040518060c00160405290816000820160009054906101000a900462ffffff1662ffffff1662ffffff1681526020016000820160039054906101000a900462ffffff1662ffffff1662ffffff1681526020016000820160069054906101000a900470ffffffffffffffffffffffffffffffffff1670ffffffffffffffffffffffffffffffffff1670ffffffffffffffffffffffffffffffffff1681526020016001820160009054906101000a900470ffffffffffffffffffffffffffffffffff1670ffffffffffffffffffffffffffffffffff1670ffffffffffffffffffffffffffffffffff168152602001600282015481526020016003820154815250509050606080600060136000898152602001908152602001600020805480602002602001604051908101604052809291908181526020018280548015612c5757602002820191906000526020600020905b815481526020019060010190808311612c43575b5050505050905060005b8151811015612d5957600160009054906101000a900473ffffffffffffffffffffffffffffffffffffffff1673ffffffffffffffffffffffffffffffffffffffff166342842e0e308a858581518110612cbd57612cbc6158b0565b5b60200260200101516040518463ffffffff1660e01b8152600401612ce39392919061593a565b600060405180830381600087803b158015612cfd57600080fd5b505af1158015612d11573d6000803e3d6000fd5b5050505060156000838381518110612d2c57612d2b6158b0565b5b60200260200101518152602001908152602001600020600090558080612d5190615af2565b915050612c61565b506000601460008a81526020019081526020016000206001015490506000601460008b815260200190815260200160002060000160009054906101000a900462ffffff1690506000601460008c815260200190815260200160002060000160069054906101000a900462ffffff1690506000845184612dd891906159d4565b905060005b848162ffffff161015612eb45760008382612df89190615bd4565b85612e039190615b9b565b905080898a5181518110612e1a57612e196158b0565b5b602002602001019062ffffff16908162ffffff1681525050612e3c8e826142bc565b50828262ffffff161015612e7757600088895181518110612e6057612e5f6158b0565b5b602002602001019015159081151581525050612ea0565b600188895181518110612e8d57612e8c6158b0565b5b6020026020010190151590811515815250505b508080612eac90615c11565b915050612ddd565b50601360008d81526020019081526020016000206000612ed49190615047565b601460008d8152602001908152602001600020600080820160006101000a81549062ffffff02191690556000820160036101000a81549062ffffff02191690556000820160066101000a81549062ffffff02191690556001820160009055505060005b87518110156131f9576000888281518110612f5557612f546158b0565b5b602002602001015190506000600760008362ffffff168152602001908152602001600020600280602002604051908101604052809291908260028015612fb0576020028201915b815481526020019060010190808311612f9c575b50505050509050888381518110612fca57612fc96158b0565b5b6020026020010151156130b057670de0b6b3a76400008d019c50612ff5670de0b6b3a764000061395a565b6dffffffffffffffffffffffffffff1681600060028110613019576130186158b0565b5b602002018181510391508181525050613039670de0b6b3a764000061448d565b8b6040018181510391509070ffffffffffffffffffffffffffffffffff16908170ffffffffffffffffffffffffffffffffff1681525050600081600060028110613086576130856158b0565b5b602002015114156130ab576130aa8262ffffff16600b61413590919063ffffffff16565b5b613165565b60006130c08362ffffff166134df565b90506130e0670de0b6b3a764000060808361354c9092919063ffffffff16565b9050808d019c506130f08161395a565b6dffffffffffffffffffffffffffff1682600160028110613114576131136158b0565b5b60200201818151039150818152505061312c8161448d565b8c6060018181510391509070ffffffffffffffffffffffffffffffffff16908170ffffffffffffffffffffffffffffffffff1681525050505b60008160006002811061317b5761317a6158b0565b5b60200201511480156131a5575060008160016002811061319e5761319d6158b0565b5b6020020151145b156131c4576131c38262ffffff16600861413590919063ffffffff16565b5b80600760008462ffffff1681526020019081526020016000209060026131eb929190614f6d565b505050806001019050612f37565b50613211600b896008613bcd9092919063ffffffff16565b896000018a6020018262ffffff1662ffffff168152508262ffffff1662ffffff16815250505087600360008201518160000160006101000a81548162ffffff021916908362ffffff16021790555060208201518160000160036101000a81548162ffffff021916908362ffffff16021790555060408201518160000160066101000a81548170ffffffffffffffffffffffffffffffffff021916908370ffffffffffffffffffffffffffffffffff16021790555060608201518160010160006101000a81548170ffffffffffffffffffffffffffffffffff021916908370ffffffffffffffffffffffffffffffffff1602179055506080820151816002015560a082015181600301559050506000600e60008e8152602001908152602001600020549050600081146133be57600e60008e815260200190815260200160002060009055806003600201600082825461336991906159d4565b925050819055506133bd8c82600260009054906101000a900473ffffffffffffffffffffffffffffffffffffffff1673ffffffffffffffffffffffffffffffffffffffff16613c6a9092919063ffffffff16565b5b61340b8c8b600260009054906101000a900473ffffffffffffffffffffffffffffffffffffffff1673ffffffffffffffffffffffffffffffffffffffff16613c6a9092919063ffffffff16565b601260009054906101000a900473ffffffffffffffffffffffffffffffffffffffff1673ffffffffffffffffffffffffffffffffffffffff166342966c688e6040518263ffffffff1660e01b815260040161346691906154eb565b600060405180830381600087803b15801561348057600080fd5b505af1158015613494573d6000803e3d6000fd5b5050505050505050505050505060016000819055509250929050565b6000600e6000838152602001908152602001600020549050919050565b60006134d882613d5d565b9050919050565b600062ffffff8016821115613520576040517f58f62eac00000000000000000000000000000000000000000000000000000000815260040160405180910390fd5b60006280000083039050613544816135366144ee565b61451490919063ffffffff16565b915050919050565b600060ff82111561359457816040517fb72ecf5000000000000000000000000000000000000000000000000000000000815260040161358b91906154eb565b60405180910390fd5b6000806135a1868661481c565b91509150600082146135b4578382901c92505b6000811461361357836001901b81106136065780846040517f3d90990f0000000000000000000000000000000000000000000000000000000081526004016135fd92919061511a565b60405180910390fd5b836101000381901b830192505b50509392505050565b6000670de0b6b3a76400006001670de0b6b3a7640000858561363e9190615c3d565b6136489190615a08565b61365291906159d4565b61365c9190615c97565b905092915050565b6000808291506127108484028161367e5761367d615b3b565b5b0490509250929050565b600080600090505b82518110156137005760008382815181106136ae576136ad6158b0565b5b6020026020010151141580156136df575060018382815181106136d4576136d36158b0565b5b602002602001015110155b156136ed5780915050613725565b80806136f890615af2565b915050613690565b507fffffffffffffffffffffffffffffffffffffffffffffffffffffffffffffffff90505b919050565b6000806137a2601660008762ffffff1662ffffff16815260200190815260200160002080548060200260200160405190810160405280929190818152602001828054801561379757602002820191906000526020600020905b815481526020019060010190808311613783575b505050505087613f93565b90506000601760008762ffffff1662ffffff16815260200190815260200160002082815481106137d5576137d46158b0565b5b906000526020600020015490506001151584151514156138025784816137fb9190615a08565b925061381e565b8481101561380f57600080fd5b848161381b91906159d4565b92505b82601760008862ffffff1662ffffff168152602001908152602001600020838154811061384e5761384d6158b0565b5b90600052602060002001819055505050949350505050565b6000600882901c90506000601083901c905060ff83166001901b84600260038110613894576138936158b0565b5b0160008481526020019081526020016000206000828254179250508190555060ff82166001901b846001600381106138cf576138ce6158b0565b5b01600083815260200190815260200160002060008282541792505081905550806001901b84600060038110613907576139066158b0565b5b0160008081526020019081526020016000206000828254179250508190555050505050565b818360800181815161393e9190615a08565b91508181525050808360a0018181510191508181525050505050565b600081829150816dffffffffffffffffffffffffffff16146139b357816040517f1ce5dcf70000000000000000000000000000000000000000000000000000000081526004016139aa91906154eb565b60405180910390fd5b919050565b8215613ac457816dffffffffffffffffffffffffffff16856000600281106139e3576139e26158b0565b5b602002018181516139f49190615a08565b91508181525050806dffffffffffffffffffffffffffff1685600160028110613a2057613a1f6158b0565b5b602002018181510391508181525050816dffffffffffffffffffffffffffff16846040018181510191509070ffffffffffffffffffffffffffffffffff16908170ffffffffffffffffffffffffffffffffff1681525050806dffffffffffffffffffffffffffff16846060018181510391509070ffffffffffffffffffffffffffffffffff16908170ffffffffffffffffffffffffffffffffff1681525050613bc6565b816dffffffffffffffffffffffffffff1685600160028110613ae957613ae86158b0565b5b60200201818151613afa9190615a08565b91508181525050806dffffffffffffffffffffffffffff1685600060028110613b2657613b256158b0565b5b602002018181510391508181525050806dffffffffffffffffffffffffffff16846040018181510391509070ffffffffffffffffffffffffffffffffff16908170ffffffffffffffffffffffffffffffffff1681525050816dffffffffffffffffffffffffffff16846060018181510191509070ffffffffffffffffffffffffffffffffff16908170ffffffffffffffffffffffffffffffffff16815250505b5050505050565b6000806000836040015170ffffffffffffffffffffffffffffffffff1614613c3057613bfb8460008061483b565b90506000836060015170ffffffffffffffffffffffffffffffffff1614613c2b57613c288582600161483b565b91505b613c62565b6000836060015170ffffffffffffffffffffffffffffffffff1614613c6157613c5e8562ffffff600161483b565b91505b5b935093915050565b60008114613d5857600063a9059cbb60e01b8383604051602401613c8f929190615ac9565b604051602081830303815290604052907bffffffffffffffffffffffffffffffffffffffffffffffffffffffff19166020820180517bffffffffffffffffffffffffffffffffffffffffffffffffffffffff838183161783525050505090506000613cfa8583614b50565b905060008151118015613d1e575080806020019051810190613d1c9190615cdd565b155b15613d55576040517f32e2717a00000000000000000000000000000000000000000000000000000000815260040160405180910390fd5b50505b505050565b6000613d6d8262ffffff166134df565b9050613d8d670de0b6b3a764000060808361354c9092919063ffffffff16565b9050919050565b6000600282511015613da95760019050613e98565b600082600081518110613dbf57613dbe6158b0565b5b602002602001015183600181518110613ddb57613dda6158b0565b5b6020026020010151613ded91906159a0565b905060008162ffffff161015613e07576000915050613e98565b6000600290505b8351811015613e91578162ffffff1684600183613e2b91906159d4565b81518110613e3c57613e3b6158b0565b5b6020026020010151858381518110613e5757613e566158b0565b5b6020026020010151613e6991906159a0565b62ffffff1614613e7e57600092505050613e98565b8080613e8990615af2565b915050613e0e565b5060019150505b919050565b6000808284019050808573ffffffffffffffffffffffffffffffffffffffff166370a08231306040518263ffffffff1660e01b8152600401613edf9190615d0a565b602060405180830381865afa158015613efc573d6000803e3d6000fd5b505050506040513d601f19601f82011682018060405250810190613f209190615d3a565b613f2a91906159d4565b9150509392505050565b6000600282511015613f495760009050613f8e565b81600081518110613f5d57613f5c6158b0565b5b602002602001015182600181518110613f7957613f786158b0565b5b6020026020010151613f8b91906159a0565b90505b919050565b600080600090505b8351811015613fe25782848281518110613fb857613fb76158b0565b5b60200260200101511415613fcf5780915050614007565b8080613fda90615af2565b915050613f9b565b507fffffffffffffffffffffffffffffffffffffffffffffffffffffffffffffffff90505b92915050565b606060006001845161401f91906159d4565b67ffffffffffffffff811115614038576140376151e8565b5b6040519080825280602002602001820160405280156140665781602001602082028036833780820191505090505b5090506000805b85518110156140d9578481146140c6578581815181106140905761408f6158b0565b5b60200260200101518383815181106140ab576140aa6158b0565b5b60200260200101818152505081806140c290615af2565b9250505b80806140d190615af2565b91505061406d565b50819250505092915050565b60008083670de0b6b3a76400006140fc91906159d4565b905080600182868661410e9190615c3d565b6141189190615a08565b61412291906159d4565b61412c9190615c97565b91505092915050565b6000600882901c9050600060ff83166001901b7fffffffffffffffffffffffffffffffffffffffffffffffffffffffffffffffff188460026003811061417e5761417d6158b0565b5b0160008481526020019081526020016000205416905080846002600381106141a9576141a86158b0565b5b0160008481526020019081526020016000208190555060008114156142b6576000601084901c905060ff83166001901b7fffffffffffffffffffffffffffffffffffffffffffffffffffffffffffffffff188560016003811061420f5761420e6158b0565b5b01600083815260200190815260200160002054169150818560016003811061423a576142396158b0565b5b0160008381526020019081526020016000208190555060008214156142b457806001901b7fffffffffffffffffffffffffffffffffffffffffffffffffffffffffffffffff1885600060038110614294576142936158b0565b5b016000808152602001908152602001600020600082825416925050819055505b505b50505050565b600080614334601660008562ffffff1662ffffff16815260200190815260200160002080548060200260200160405190810160405280929190818152602001828054801561432957602002820191906000526020600020905b815481526020019060010190808311614315575b505050505085613f93565b90506143ab601660008562ffffff1662ffffff1681526020019081526020016000208054806020026020016040519081016040528092919081815260200182805480156143a057602002820191906000526020600020905b81548152602001906001019080831161438c575b50505050508261400d565b601660008562ffffff1662ffffff16815260200190815260200160002090805190602001906143db929190614ffa565b50614451601760008562ffffff1662ffffff16815260200190815260200160002080548060200260200160405190810160405280929190818152602001828054801561444657602002820191906000526020600020905b815481526020019060010190808311614432575b50505050508261400d565b601760008562ffffff1662ffffff1681526020019081526020016000209080519060200190614481929190614ffa565b50600191505092915050565b6000818291508170ffffffffffffffffffffffffffffffffff16146144e957816040517fbdba3c9f0000000000000000000000000000000000000000000000000000000081526004016144e091906154eb565b60405180910390fd5b919050565b600061271060806001901b8161450757614506615b3b565b5b0460806001901b01905090565b6000806000808414156145305760806001901b92505050614816565b839050600081121561454757806000039050811591505b621000008110156147915760806001901b9250846fffffffffffffffffffffffffffffffff86111561457f5780600019049050821592505b60018216156145915780840260801c93505b80810260801c905060028216156145ab5780840260801c93505b80810260801c905060048216156145c55780840260801c93505b80810260801c905060088216156145df5780840260801c93505b80810260801c905060108216156145f95780840260801c93505b80810260801c905060208216156146135780840260801c93505b80810260801c9050604082161561462d5780840260801c93505b80810260801c905060808216156146475780840260801c93505b80810260801c90506101008216156146625780840260801c93505b80810260801c905061020082161561467d5780840260801c93505b80810260801c90506104008216156146985780840260801c93505b80810260801c90506108008216156146b35780840260801c93505b80810260801c90506110008216156146ce5780840260801c93505b80810260801c90506120008216156146e95780840260801c93505b80810260801c90506140008216156147045780840260801c93505b80810260801c905061800082161561471f5780840260801c93505b80810260801c90506201000082161561473b5780840260801c93505b80810260801c9050620200008216156147575780840260801c93505b80810260801c9050620400008216156147735780840260801c93505b80810260801c90506208000082161561478f5780840260801c93505b505b60008314156147d95784846040517f74e3eb080000000000000000000000000000000000000000000000000000000081526004016147d0929190615d80565b60405180910390fd5b816147e45782614811565b827fffffffffffffffffffffffffffffffffffffffffffffffffffffffffffffffff6148109190615c97565b5b925050505b92915050565b6000806000198385098385029250828110838203039150509250929050565b600080600061484985614c69565b8062ffffff1690508092508196505050838015614867575060008114155b8061487d57508315801561487c575060ff8114155b5b156149025785600260038110614896576148956158b0565b5b0160008662ffffff1681526020019081526020016000205491506148c5818584614c839092919063ffffffff16565b90507fffffffffffffffffffffffffffffffffffffffffffffffffffffffffffffffff8114614901576148f88582614cc5565b92505050614b49565b5b61490b85614c69565b8062ffffff1690508092508196505050838015614929575060008114155b8061493f57508315801561493e575060ff8114155b5b15614a135785600160038110614958576149576158b0565b5b0160008662ffffff168152602001908152602001600020549150614987818584614c839092919063ffffffff16565b90507fffffffffffffffffffffffffffffffffffffffffffffffffffffffffffffffff8114614a12576149ba8582614cc5565b9450856002600381106149d0576149cf6158b0565b5b0160008662ffffff168152602001908152602001600020549150614a0985614a018685614cdb90919063ffffffff16565b60ff16614cc5565b92505050614b49565b5b85600060038110614a2757614a266158b0565b5b016000808152602001908152602001600020549150614a51858584614c839092919063ffffffff16565b90507fffffffffffffffffffffffffffffffffffffffffffffffffffffffffffffffff811415614aad576040517f10d6486100000000000000000000000000000000000000000000000000000000815260040160405180910390fd5b85600160038110614ac157614ac06158b0565b5b016000828152602001908152602001600020549150614af581614aed8685614cdb90919063ffffffff16565b60ff16614cc5565b945085600260038110614b0b57614b0a6158b0565b5b0160008662ffffff168152602001908152602001600020549150614b4485614b3c8685614cdb90919063ffffffff16565b60ff16614cc5565b925050505b9392505050565b60606000808473ffffffffffffffffffffffffffffffffffffffff1684604051614b7a9190615e23565b6000604051808303816000865af19150503d8060008114614bb7576040519150601f19603f3d011682016040523d82523d6000602084013e614bbc565b606091505b50915091508115614c1a5760008151148015614bde5750614bdc85614d02565b155b15614c15576040517f5d97df8900000000000000000000000000000000000000000000000000000000815260040160405180910390fd5b614c5e565b600081511415614c56576040517f2407429100000000000000000000000000000000000000000000000000000000815260040160405180910390fd5b805181602001fd5b809250505092915050565b60008060088362ffffff16901c60ff841691509150915091565b600081614ca557614ca084600185614c9b9190615e47565b614d25565b614cbc565b614cbb84600185614cb69190615e7e565b614d75565b5b90509392505050565b60008160088462ffffff16901b01905092915050565b600081614cf057614ceb83614dcd565b614cfa565b614cf983614ea0565b5b905092915050565b6000808273ffffffffffffffffffffffffffffffffffffffff163b119050919050565b60008160ff1683901c925060008314614d4b5781614d4284614dcd565b0160ff16614d6d565b7fffffffffffffffffffffffffffffffffffffffffffffffffffffffffffffffff5b905092915050565b6000808260ff0360ff1690508084901b935060008414614da25780614d9985614ea0565b60ff1603614dc4565b7fffffffffffffffffffffffffffffffffffffffffffffffffffffffffffffffff5b91505092915050565b600080608083901b14614de657608082901b9150608090505b6000604083901b14614e0057604082901b91506040810190505b6000602083901b14614e1a57602082901b91506020810190505b6000601083901b14614e3457601082901b91506010810190505b6000600883901b14614e4e57600882901b91506008810190505b6000600483901b14614e6857600482901b91506004810190505b6000600283901b14614e8257600282901b91506002810190505b6000600183901b14614e95576001810190505b8060ff039050919050565b60007001000000000000000000000000000000008210614ec657608082901c9150608090505b680100000000000000008210614ee457604082901c91506040810190505b6401000000008210614efe57602082901c91506020810190505b620100008210614f1657601082901c91506010810190505b6101008210614f2d57600882901c91506008810190505b60108210614f4357600482901c91506004810190505b60048210614f5957600282901c91506002810190505b60028210614f68576001810190505b919050565b8260028101928215614f9c579160200282015b82811115614f9b578251825591602001919060010190614f80565b5b509050614fa99190615068565b5090565b828054828255906000526020600020908101928215614fe9579160200282015b82811115614fe8578235825591602001919060010190614fcd565b5b509050614ff69190615068565b5090565b828054828255906000526020600020908101928215615036579160200282015b8281111561503557825182559160200191906001019061501a565b5b5090506150439190615068565b5090565b50805460008255906000526020600020908101906150659190615068565b50565b5b80821115615081576000816000905550600101615069565b5090565b6000604051905090565b600080fd5b600080fd5b600062ffffff82169050919050565b6150b181615099565b81146150bc57600080fd5b50565b6000813590506150ce816150a8565b92915050565b6000602082840312156150ea576150e961508f565b5b60006150f8848285016150bf565b91505092915050565b6000819050919050565b61511481615101565b82525050565b600060408201905061512f600083018561510b565b61513c602083018461510b565b9392505050565b600073ffffffffffffffffffffffffffffffffffffffff82169050919050565b600061516e82615143565b9050919050565b61517e81615163565b811461518957600080fd5b50565b60008135905061519b81615175565b92915050565b6151aa81615101565b81146151b557600080fd5b50565b6000813590506151c7816151a1565b92915050565b600080fd5b600080fd5b6000601f19601f8301169050919050565b7f4e487b7100000000000000000000000000000000000000000000000000000000600052604160045260246000fd5b615220826151d7565b810181811067ffffffffffffffff8211171561523f5761523e6151e8565b5b80604052505050565b6000615252615085565b905061525e8282615217565b919050565b600067ffffffffffffffff82111561527e5761527d6151e8565b5b615287826151d7565b9050602081019050919050565b82818337600083830152505050565b60006152b66152b184615263565b615248565b9050828152602081018484840111156152d2576152d16151d2565b5b6152dd848285615294565b509392505050565b600082601f8301126152fa576152f96151cd565b5b813561530a8482602086016152a3565b91505092915050565b6000806000806080858703121561532d5761532c61508f565b5b600061533b8782880161518c565b945050602061534c8782880161518c565b935050604061535d878288016151b8565b925050606085013567ffffffffffffffff81111561537e5761537d615094565b5b61538a878288016152e5565b91505092959194509250565b60007fffffffff0000000000000000000000000000000000000000000000000000000082169050919050565b6153cb81615396565b82525050565b60006020820190506153e660008301846153c2565b92915050565b6000819050919050565b600061541161540c61540784615143565b6153ec565b615143565b9050919050565b6000615423826153f6565b9050919050565b600061543582615418565b9050919050565b6154458161542a565b82525050565b6000602082019050615460600083018461543c565b92915050565b600060808201905061547b600083018761510b565b615488602083018661510b565b615495604083018561510b565b6154a2606083018461510b565b95945050505050565b600080604083850312156154c2576154c161508f565b5b60006154d0858286016151b8565b92505060206154e18582860161518c565b9150509250929050565b6000602082019050615500600083018461510b565b92915050565b60006020828403121561551c5761551b61508f565b5b600061552a848285016151b8565b91505092915050565b6000806040838503121561554a5761554961508f565b5b6000615558858286016150bf565b9250506020615569858286016151b8565b9150509250929050565b600061557e82615418565b9050919050565b61558e81615573565b82525050565b60006020820190506155a96000830184615585565b92915050565b6155b881615099565b82525050565b60006080820190506155d360008301876155af565b6155e060208301866155af565b6155ed60408301856155af565b6155fa606083018461510b565b95945050505050565b600080fd5b600080fd5b60008083601f840112615623576156226151cd565b5b8235905067ffffffffffffffff8111156156405761563f615603565b5b60208301915083602082028301111561565c5761565b615608565b5b9250929050565b60008060006040848603121561567c5761567b61508f565b5b600084013567ffffffffffffffff81111561569a57615699615094565b5b6156a68682870161560d565b935093505060206156b98682870161518c565b9150509250925092565b60006156ce82615418565b9050919050565b6156de816156c3565b82525050565b60006020820190506156f960008301846156d5565b92915050565b600061570a82615418565b9050919050565b61571a816156ff565b82525050565b60006020820190506157356000830184615711565b92915050565b600080604083850312156157525761575161508f565b5b6000615760858286016151b8565b9250506020615771858286016151b8565b9150509250929050565b60008083601f840112615791576157906151cd565b5b8235905067ffffffffffffffff8111156157ae576157ad615603565b5b6020830191508360208202830111156157ca576157c9615608565b5b9250929050565b60008115159050919050565b6157e6816157d1565b81146157f157600080fd5b50565b600081359050615803816157dd565b92915050565b600080600080600080608087890312156158265761582561508f565b5b600087013567ffffffffffffffff81111561584457615843615094565b5b61585089828a0161560d565b9650965050602087013567ffffffffffffffff81111561587357615872615094565b5b61587f89828a0161577b565b9450945050604061589289828a0161518c565b92505060606158a389828a016157f4565b9150509295509295509295565b7f4e487b7100000000000000000000000000000000000000000000000000000000600052603260045260246000fd5b60006158fa6158f56158f084615099565b6153ec565b615101565b9050919050565b61590a816158df565b82525050565b60006020820190506159256000830184615901565b92915050565b61593481615163565b82525050565b600060608201905061594f600083018661592b565b61595c602083018561592b565b615969604083018461510b565b949350505050565b7f4e487b7100000000000000000000000000000000000000000000000000000000600052601160045260246000fd5b60006159ab82615099565b91506159b683615099565b9250828210156159c9576159c8615971565b5b828203905092915050565b60006159df82615101565b91506159ea83615101565b9250828210156159fd576159fc615971565b5b828203905092915050565b6000615a1382615101565b9150615a1e83615101565b9250827fffffffffffffffffffffffffffffffffffffffffffffffffffffffffffffffff03821115615a5357615a52615971565b5b828201905092915050565b600081519050615a6d81615175565b92915050565b600060208284031215615a8957615a8861508f565b5b6000615a9784828501615a5e565b91505092915050565b6000604082019050615ab5600083018561592b565b615ac2602083018461592b565b9392505050565b6000604082019050615ade600083018561592b565b615aeb602083018461510b565b9392505050565b6000615afd82615101565b91507fffffffffffffffffffffffffffffffffffffffffffffffffffffffffffffffff821415615b3057615b2f615971565b5b600182019050919050565b7f4e487b7100000000000000000000000000000000000000000000000000000000600052601260045260246000fd5b6000615b7582615101565b9150615b8083615101565b925082615b9057615b8f615b3b565b5b828206905092915050565b6000615ba682615099565b9150615bb183615099565b92508262ffffff03821115615bc957615bc8615971565b5b828201905092915050565b6000615bdf82615099565b9150615bea83615099565b92508162ffffff0483118215151615615c0657615c05615971565b5b828202905092915050565b6000615c1c82615099565b915062ffffff821415615c3257615c31615971565b5b600182019050919050565b6000615c4882615101565b9150615c5383615101565b9250817fffffffffffffffffffffffffffffffffffffffffffffffffffffffffffffffff0483118215151615615c8c57615c8b615971565b5b828202905092915050565b6000615ca282615101565b9150615cad83615101565b925082615cbd57615cbc615b3b565b5b828204905092915050565b600081519050615cd7816157dd565b92915050565b600060208284031215615cf357615cf261508f565b5b6000615d0184828501615cc8565b91505092915050565b6000602082019050615d1f600083018461592b565b92915050565b600081519050615d34816151a1565b92915050565b600060208284031215615d5057615d4f61508f565b5b6000615d5e84828501615d25565b91505092915050565b6000819050919050565b615d7a81615d67565b82525050565b6000604082019050615d95600083018561510b565b615da26020830184615d71565b9392505050565b600081519050919050565b600081905092915050565b60005b83811015615ddd578082015181840152602081019050615dc2565b83811115615dec576000848401525b50505050565b6000615dfd82615da9565b615e078185615db4565b9350615e17818560208601615dbf565b80840191505092915050565b6000615e2f8284615df2565b915081905092915050565b600060ff82169050919050565b6000615e5282615e3a565b9150615e5d83615e3a565b92508260ff03821115615e7357615e72615971565b5b828201905092915050565b6000615e8982615e3a565b9150615e9483615e3a565b925082821015615ea757615ea6615971565b5b82820390509291505056fea2646970667358221220f49e14be725aa018336ad958985ca6424d8bc1b796cfeea38cc425a0703eb25264736f6c634300080a0033",
			"opcodes": "PUSH1 0xA0 PUSH1 0x40 MSTORE CALLVALUE DUP1 ISZERO PUSH3 0x11 JUMPI PUSH1 0x0 DUP1 REVERT JUMPDEST POP PUSH1 0x40 MLOAD PUSH3 0x63C9 CODESIZE SUB DUP1 PUSH3 0x63C9 DUP4 CODECOPY DUP2 DUP2 ADD PUSH1 0x40 MSTORE DUP2 ADD SWAP1 PUSH3 0x37 SWAP2 SWAP1 PUSH3 0x3CF JUMP JUMPDEST PUSH1 0x0 PUSH20 0xFFFFFFFFFFFFFFFFFFFFFFFFFFFFFFFFFFFFFFFF AND DUP6 PUSH20 0xFFFFFFFFFFFFFFFFFFFFFFFFFFFFFFFFFFFFFFFF AND EQ ISZERO PUSH3 0x9F JUMPI PUSH1 0x40 MLOAD PUSH32 0x17BE04B700000000000000000000000000000000000000000000000000000000 DUP2 MSTORE PUSH1 0x4 ADD PUSH1 0x40 MLOAD DUP1 SWAP2 SUB SWAP1 REVERT JUMPDEST DUP5 PUSH20 0xFFFFFFFFFFFFFFFFFFFFFFFFFFFFFFFFFFFFFFFF AND PUSH1 0x80 DUP2 PUSH20 0xFFFFFFFFFFFFFFFFFFFFFFFFFFFFFFFFFFFFFFFF AND DUP2 MSTORE POP POP DUP4 PUSH1 0x1 PUSH1 0x0 PUSH2 0x100 EXP DUP2 SLOAD DUP2 PUSH20 0xFFFFFFFFFFFFFFFFFFFFFFFFFFFFFFFFFFFFFFFF MUL NOT AND SWAP1 DUP4 PUSH20 0xFFFFFFFFFFFFFFFFFFFFFFFFFFFFFFFFFFFFFFFF AND MUL OR SWAP1 SSTORE POP DUP3 PUSH1 0x2 PUSH1 0x0 PUSH2 0x100 EXP DUP2 SLOAD DUP2 PUSH20 0xFFFFFFFFFFFFFFFFFFFFFFFFFFFFFFFFFFFFFFFF MUL NOT AND SWAP1 DUP4 PUSH20 0xFFFFFFFFFFFFFFFFFFFFFFFFFFFFFFFFFFFFFFFF AND MUL OR SWAP1 SSTORE POP DUP2 PUSH1 0x12 PUSH1 0x0 PUSH2 0x100 EXP DUP2 SLOAD DUP2 PUSH20 0xFFFFFFFFFFFFFFFFFFFFFFFFFFFFFFFFFFFFFFFF MUL NOT AND SWAP1 DUP4 PUSH20 0xFFFFFFFFFFFFFFFFFFFFFFFFFFFFFFFFFFFFFFFF AND MUL OR SWAP1 SSTORE POP PUSH3 0x1A6 PUSH3 0x1F1 PUSH1 0x20 SHL PUSH1 0x20 SHR JUMP JUMPDEST DUP1 PUSH16 0xFFFFFFFFFFFFFFFFFFFFFFFFFFFFFFFF AND PUSH1 0xF DUP2 SWAP1 SSTORE POP PUSH1 0xA DUP2 PUSH3 0x1CE SWAP2 SWAP1 PUSH3 0x486 JUMP JUMPDEST PUSH16 0xFFFFFFFFFFFFFFFFFFFFFFFFFFFFFFFF AND PUSH1 0x10 DUP2 SWAP1 SSTORE POP POP POP POP POP POP PUSH3 0x4BE JUMP JUMPDEST PUSH3 0x201 PUSH3 0x203 PUSH1 0x20 SHL PUSH1 0x20 SHR JUMP JUMPDEST JUMP JUMPDEST PUSH1 0x0 DUP1 SLOAD EQ PUSH3 0x23F JUMPI PUSH1 0x40 MLOAD PUSH32 0xD80075C100000000000000000000000000000000000000000000000000000000 DUP2 MSTORE PUSH1 0x4 ADD PUSH1 0x40 MLOAD DUP1 SWAP2 SUB SWAP1 REVERT JUMPDEST PUSH1 0x1 PUSH1 0x0 DUP2 SWAP1 SSTORE POP JUMP JUMPDEST PUSH1 0x0 DUP1 REVERT JUMPDEST PUSH1 0x0 PUSH20 0xFFFFFFFFFFFFFFFFFFFFFFFFFFFFFFFFFFFFFFFF DUP3 AND SWAP1 POP SWAP2 SWAP1 POP JUMP JUMPDEST PUSH1 0x0 PUSH3 0x27B DUP3 PUSH3 0x24E JUMP JUMPDEST SWAP1 POP SWAP2 SWAP1 POP JUMP JUMPDEST PUSH1 0x0 PUSH3 0x28F DUP3 PUSH3 0x26E JUMP JUMPDEST SWAP1 POP SWAP2 SWAP1 POP JUMP JUMPDEST PUSH3 0x2A1 DUP2 PUSH3 0x282 JUMP JUMPDEST DUP2 EQ PUSH3 0x2AD JUMPI PUSH1 0x0 DUP1 REVERT JUMPDEST POP JUMP JUMPDEST PUSH1 0x0 DUP2 MLOAD SWAP1 POP PUSH3 0x2C1 DUP2 PUSH3 0x296 JUMP JUMPDEST SWAP3 SWAP2 POP POP JUMP JUMPDEST PUSH1 0x0 PUSH3 0x2D4 DUP3 PUSH3 0x26E JUMP JUMPDEST SWAP1 POP SWAP2 SWAP1 POP JUMP JUMPDEST PUSH3 0x2E6 DUP2 PUSH3 0x2C7 JUMP JUMPDEST DUP2 EQ PUSH3 0x2F2 JUMPI PUSH1 0x0 DUP1 REVERT JUMPDEST POP JUMP JUMPDEST PUSH1 0x0 DUP2 MLOAD SWAP1 POP PUSH3 0x306 DUP2 PUSH3 0x2DB JUMP JUMPDEST SWAP3 SWAP2 POP POP JUMP JUMPDEST PUSH1 0x0 PUSH3 0x319 DUP3 PUSH3 0x26E JUMP JUMPDEST SWAP1 POP SWAP2 SWAP1 POP JUMP JUMPDEST PUSH3 0x32B DUP2 PUSH3 0x30C JUMP JUMPDEST DUP2 EQ PUSH3 0x337 JUMPI PUSH1 0x0 DUP1 REVERT JUMPDEST POP JUMP JUMPDEST PUSH1 0x0 DUP2 MLOAD SWAP1 POP PUSH3 0x34B DUP2 PUSH3 0x320 JUMP JUMPDEST SWAP3 SWAP2 POP POP JUMP JUMPDEST PUSH3 0x35C DUP2 PUSH3 0x26E JUMP JUMPDEST DUP2 EQ PUSH3 0x368 JUMPI PUSH1 0x0 DUP1 REVERT JUMPDEST POP JUMP JUMPDEST PUSH1 0x0 DUP2 MLOAD SWAP1 POP PUSH3 0x37C DUP2 PUSH3 0x351 JUMP JUMPDEST SWAP3 SWAP2 POP POP JUMP JUMPDEST PUSH1 0x0 PUSH16 0xFFFFFFFFFFFFFFFFFFFFFFFFFFFFFFFF DUP3 AND SWAP1 POP SWAP2 SWAP1 POP JUMP JUMPDEST PUSH3 0x3A9 DUP2 PUSH3 0x382 JUMP JUMPDEST DUP2 EQ PUSH3 0x3B5 JUMPI PUSH1 0x0 DUP1 REVERT JUMPDEST POP JUMP JUMPDEST PUSH1 0x0 DUP2 MLOAD SWAP1 POP PUSH3 0x3C9 DUP2 PUSH3 0x39E JUMP JUMPDEST SWAP3 SWAP2 POP POP JUMP JUMPDEST PUSH1 0x0 DUP1 PUSH1 0x0 DUP1 PUSH1 0x0 PUSH1 0xA0 DUP7 DUP9 SUB SLT ISZERO PUSH3 0x3EE JUMPI PUSH3 0x3ED PUSH3 0x249 JUMP JUMPDEST JUMPDEST PUSH1 0x0 PUSH3 0x3FE DUP9 DUP3 DUP10 ADD PUSH3 0x2B0 JUMP JUMPDEST SWAP6 POP POP PUSH1 0x20 PUSH3 0x411 DUP9 DUP3 DUP10 ADD PUSH3 0x2F5 JUMP JUMPDEST SWAP5 POP POP PUSH1 0x40 PUSH3 0x424 DUP9 DUP3 DUP10 ADD PUSH3 0x33A JUMP JUMPDEST SWAP4 POP POP PUSH1 0x60 PUSH3 0x437 DUP9 DUP3 DUP10 ADD PUSH3 0x36B JUMP JUMPDEST SWAP3 POP POP PUSH1 0x80 PUSH3 0x44A DUP9 DUP3 DUP10 ADD PUSH3 0x3B8 JUMP JUMPDEST SWAP2 POP POP SWAP3 SWAP6 POP SWAP3 SWAP6 SWAP1 SWAP4 POP JUMP JUMPDEST PUSH32 0x4E487B7100000000000000000000000000000000000000000000000000000000 PUSH1 0x0 MSTORE PUSH1 0x12 PUSH1 0x4 MSTORE PUSH1 0x24 PUSH1 0x0 REVERT JUMPDEST PUSH1 0x0 PUSH3 0x493 DUP3 PUSH3 0x382 JUMP JUMPDEST SWAP2 POP PUSH3 0x4A0 DUP4 PUSH3 0x382 JUMP JUMPDEST SWAP3 POP DUP3 PUSH3 0x4B3 JUMPI PUSH3 0x4B2 PUSH3 0x457 JUMP JUMPDEST JUMPDEST DUP3 DUP3 DIV SWAP1 POP SWAP3 SWAP2 POP POP JUMP JUMPDEST PUSH1 0x80 MLOAD PUSH2 0x5EE8 PUSH3 0x4E1 PUSH1 0x0 CODECOPY PUSH1 0x0 DUP2 DUP2 PUSH2 0xEED ADD MSTORE PUSH2 0x18B7 ADD MSTORE PUSH2 0x5EE8 PUSH1 0x0 RETURN INVALID PUSH1 0x80 PUSH1 0x40 MSTORE CALLVALUE DUP1 ISZERO PUSH2 0x10 JUMPI PUSH1 0x0 DUP1 REVERT JUMPDEST POP PUSH1 0x4 CALLDATASIZE LT PUSH2 0x14D JUMPI PUSH1 0x0 CALLDATALOAD PUSH1 0xE0 SHR DUP1 PUSH4 0x98C7ADF3 GT PUSH2 0xC3 JUMPI DUP1 PUSH4 0xC67B321D GT PUSH2 0x7C JUMPI DUP1 PUSH4 0xC67B321D EQ PUSH2 0x3FC JUMPI DUP1 PUSH4 0xD1AD1FAE EQ PUSH2 0x42C JUMPI DUP1 PUSH4 0xD8DB47A7 EQ PUSH2 0x45D JUMPI DUP1 PUSH4 0xFCD3533C EQ PUSH2 0x479 JUMPI DUP1 PUSH4 0xFCEE45F4 EQ PUSH2 0x4AA JUMPI DUP1 PUSH4 0xFD31C4AB EQ PUSH2 0x4DA JUMPI PUSH2 0x14D JUMP JUMPDEST DUP1 PUSH4 0x98C7ADF3 EQ PUSH2 0x333 JUMPI DUP1 PUSH4 0xA1AF5B9A EQ PUSH2 0x352 JUMPI DUP1 PUSH4 0xA3D055A7 EQ PUSH2 0x370 JUMPI DUP1 PUSH4 0xA582CDAA EQ PUSH2 0x3A1 JUMPI DUP1 PUSH4 0xB7D19FC4 EQ PUSH2 0x3C0 JUMPI DUP1 PUSH4 0xC45A0155 EQ PUSH2 0x3DE JUMPI PUSH2 0x14D JUMP JUMPDEST DUP1 PUSH4 0x5B9C5C02 GT PUSH2 0x115 JUMPI DUP1 PUSH4 0x5B9C5C02 EQ PUSH2 0x222 JUMPI DUP1 PUSH4 0x5D6AEB2A EQ PUSH2 0x252 JUMPI DUP1 PUSH4 0x5FCBD285 EQ PUSH2 0x282 JUMPI DUP1 PUSH4 0x7EB695D7 EQ PUSH2 0x2A0 JUMPI DUP1 PUSH4 0x902F905D EQ PUSH2 0x2D0 JUMPI DUP1 PUSH4 0x906C7779 EQ PUSH2 0x303 JUMPI PUSH2 0x14D JUMP JUMPDEST DUP1 PUSH4 0xABE9688 EQ PUSH2 0x152 JUMPI DUP1 PUSH4 0x150B7A02 EQ PUSH2 0x183 JUMPI DUP1 PUSH4 0x16DC165B EQ PUSH2 0x1B3 JUMPI DUP1 PUSH4 0x1B05B83E EQ PUSH2 0x1D1 JUMPI DUP1 PUSH4 0x5728AD49 EQ PUSH2 0x1F2 JUMPI JUMPDEST PUSH1 0x0 DUP1 REVERT JUMPDEST PUSH2 0x16C PUSH1 0x4 DUP1 CALLDATASIZE SUB DUP2 ADD SWAP1 PUSH2 0x167 SWAP2 SWAP1 PUSH2 0x50D4 JUMP JUMPDEST PUSH2 0x50A JUMP JUMPDEST PUSH1 0x40 MLOAD PUSH2 0x17A SWAP3 SWAP2 SWAP1 PUSH2 0x511A JUMP JUMPDEST PUSH1 0x40 MLOAD DUP1 SWAP2 SUB SWAP1 RETURN JUMPDEST PUSH2 0x19D PUSH1 0x4 DUP1 CALLDATASIZE SUB DUP2 ADD SWAP1 PUSH2 0x198 SWAP2 SWAP1 PUSH2 0x5313 JUMP JUMPDEST PUSH2 0x570 JUMP JUMPDEST PUSH1 0x40 MLOAD PUSH2 0x1AA SWAP2 SWAP1 PUSH2 0x53D1 JUMP JUMPDEST PUSH1 0x40 MLOAD DUP1 SWAP2 SUB SWAP1 RETURN JUMPDEST PUSH2 0x1BB PUSH2 0x584 JUMP JUMPDEST PUSH1 0x40 MLOAD PUSH2 0x1C8 SWAP2 SWAP1 PUSH2 0x544B JUMP JUMPDEST PUSH1 0x40 MLOAD DUP1 SWAP2 SUB SWAP1 RETURN JUMPDEST PUSH2 0x1D9 PUSH2 0x5AA JUMP JUMPDEST PUSH1 0x40 MLOAD PUSH2 0x1E9 SWAP5 SWAP4 SWAP3 SWAP2 SWAP1 PUSH2 0x5466 JUMP JUMPDEST PUSH1 0x40 MLOAD DUP1 SWAP2 SUB SWAP1 RETURN JUMPDEST PUSH2 0x20C PUSH1 0x4 DUP1 CALLDATASIZE SUB DUP2 ADD SWAP1 PUSH2 0x207 SWAP2 SWAP1 PUSH2 0x54AB JUMP JUMPDEST PUSH2 0x65E JUMP JUMPDEST PUSH1 0x40 MLOAD PUSH2 0x219 SWAP2 SWAP1 PUSH2 0x54EB JUMP JUMPDEST PUSH1 0x40 MLOAD DUP1 SWAP2 SUB SWAP1 RETURN JUMPDEST PUSH2 0x23C PUSH1 0x4 DUP1 CALLDATASIZE SUB DUP2 ADD SWAP1 PUSH2 0x237 SWAP2 SWAP1 PUSH2 0x5506 JUMP JUMPDEST PUSH2 0xD46 JUMP JUMPDEST PUSH1 0x40 MLOAD PUSH2 0x249 SWAP2 SWAP1 PUSH2 0x54EB JUMP JUMPDEST PUSH1 0x40 MLOAD DUP1 SWAP2 SUB SWAP1 RETURN JUMPDEST PUSH2 0x26C PUSH1 0x4 DUP1 CALLDATASIZE SUB DUP2 ADD SWAP1 PUSH2 0x267 SWAP2 SWAP1 PUSH2 0x5533 JUMP JUMPDEST PUSH2 0xD5E JUMP JUMPDEST PUSH1 0x40 MLOAD PUSH2 0x279 SWAP2 SWAP1 PUSH2 0x54EB JUMP JUMPDEST PUSH1 0x40 MLOAD DUP1 SWAP2 SUB SWAP1 RETURN JUMPDEST PUSH2 0x28A PUSH2 0xD8F JUMP JUMPDEST PUSH1 0x40 MLOAD PUSH2 0x297 SWAP2 SWAP1 PUSH2 0x5594 JUMP JUMPDEST PUSH1 0x40 MLOAD DUP1 SWAP2 SUB SWAP1 RETURN JUMPDEST PUSH2 0x2BA PUSH1 0x4 DUP1 CALLDATASIZE SUB DUP2 ADD SWAP1 PUSH2 0x2B5 SWAP2 SWAP1 PUSH2 0x5506 JUMP JUMPDEST PUSH2 0xDB5 JUMP JUMPDEST PUSH1 0x40 MLOAD PUSH2 0x2C7 SWAP2 SWAP1 PUSH2 0x54EB JUMP JUMPDEST PUSH1 0x40 MLOAD DUP1 SWAP2 SUB SWAP1 RETURN JUMPDEST PUSH2 0x2EA PUSH1 0x4 DUP1 CALLDATASIZE SUB DUP2 ADD SWAP1 PUSH2 0x2E5 SWAP2 SWAP1 PUSH2 0x5506 JUMP JUMPDEST PUSH2 0xE04 JUMP JUMPDEST PUSH1 0x40 MLOAD PUSH2 0x2FA SWAP5 SWAP4 SWAP3 SWAP2 SWAP1 PUSH2 0x55BE JUMP JUMPDEST PUSH1 0x40 MLOAD DUP1 SWAP2 SUB SWAP1 RETURN JUMPDEST PUSH2 0x31D PUSH1 0x4 DUP1 CALLDATASIZE SUB DUP2 ADD SWAP1 PUSH2 0x318 SWAP2 SWAP1 PUSH2 0x5533 JUMP JUMPDEST PUSH2 0xE61 JUMP JUMPDEST PUSH1 0x40 MLOAD PUSH2 0x32A SWAP2 SWAP1 PUSH2 0x54EB JUMP JUMPDEST PUSH1 0x40 MLOAD DUP1 SWAP2 SUB SWAP1 RETURN JUMPDEST PUSH2 0x33B PUSH2 0xE92 JUMP JUMPDEST PUSH1 0x40 MLOAD PUSH2 0x349 SWAP3 SWAP2 SWAP1 PUSH2 0x511A JUMP JUMPDEST PUSH1 0x40 MLOAD DUP1 SWAP2 SUB SWAP1 RETURN JUMPDEST PUSH2 0x35A PUSH2 0xEA3 JUMP JUMPDEST PUSH1 0x40 MLOAD PUSH2 0x367 SWAP2 SWAP1 PUSH2 0x54EB JUMP JUMPDEST PUSH1 0x40 MLOAD DUP1 SWAP2 SUB SWAP1 RETURN JUMPDEST PUSH2 0x38A PUSH1 0x4 DUP1 CALLDATASIZE SUB DUP2 ADD SWAP1 PUSH2 0x385 SWAP2 SWAP1 PUSH2 0x5663 JUMP JUMPDEST PUSH2 0x108D JUMP JUMPDEST PUSH1 0x40 MLOAD PUSH2 0x398 SWAP3 SWAP2 SWAP1 PUSH2 0x511A JUMP JUMPDEST PUSH1 0x40 MLOAD DUP1 SWAP2 SUB SWAP1 RETURN JUMPDEST PUSH2 0x3A9 PUSH2 0x1879 JUMP JUMPDEST PUSH1 0x40 MLOAD PUSH2 0x3B7 SWAP3 SWAP2 SWAP1 PUSH2 0x511A JUMP JUMPDEST PUSH1 0x40 MLOAD DUP1 SWAP2 SUB SWAP1 RETURN JUMPDEST PUSH2 0x3C8 PUSH2 0x188F JUMP JUMPDEST PUSH1 0x40 MLOAD PUSH2 0x3D5 SWAP2 SWAP1 PUSH2 0x56E4 JUMP JUMPDEST PUSH1 0x40 MLOAD DUP1 SWAP2 SUB SWAP1 RETURN JUMPDEST PUSH2 0x3E6 PUSH2 0x18B5 JUMP JUMPDEST PUSH1 0x40 MLOAD PUSH2 0x3F3 SWAP2 SWAP1 PUSH2 0x5720 JUMP JUMPDEST PUSH1 0x40 MLOAD DUP1 SWAP2 SUB SWAP1 RETURN JUMPDEST PUSH2 0x416 PUSH1 0x4 DUP1 CALLDATASIZE SUB DUP2 ADD SWAP1 PUSH2 0x411 SWAP2 SWAP1 PUSH2 0x573B JUMP JUMPDEST PUSH2 0x18D9 JUMP JUMPDEST PUSH1 0x40 MLOAD PUSH2 0x423 SWAP2 SWAP1 PUSH2 0x54EB JUMP JUMPDEST PUSH1 0x40 MLOAD DUP1 SWAP2 SUB SWAP1 RETURN JUMPDEST PUSH2 0x446 PUSH1 0x4 DUP1 CALLDATASIZE SUB DUP2 ADD SWAP1 PUSH2 0x441 SWAP2 SWAP1 PUSH2 0x5809 JUMP JUMPDEST PUSH2 0x190A JUMP JUMPDEST PUSH1 0x40 MLOAD PUSH2 0x454 SWAP3 SWAP2 SWAP1 PUSH2 0x511A JUMP JUMPDEST PUSH1 0x40 MLOAD DUP1 SWAP2 SUB SWAP1 RETURN JUMPDEST PUSH2 0x477 PUSH1 0x4 DUP1 CALLDATASIZE SUB DUP2 ADD SWAP1 PUSH2 0x472 SWAP2 SWAP1 PUSH2 0x54AB JUMP JUMPDEST PUSH2 0x2304 JUMP JUMPDEST STOP JUMPDEST PUSH2 0x493 PUSH1 0x4 DUP1 CALLDATASIZE SUB DUP2 ADD SWAP1 PUSH2 0x48E SWAP2 SWAP1 PUSH2 0x54AB JUMP JUMPDEST PUSH2 0x2AA9 JUMP JUMPDEST PUSH1 0x40 MLOAD PUSH2 0x4A1 SWAP3 SWAP2 SWAP1 PUSH2 0x511A JUMP JUMPDEST PUSH1 0x40 MLOAD DUP1 SWAP2 SUB SWAP1 RETURN JUMPDEST PUSH2 0x4C4 PUSH1 0x4 DUP1 CALLDATASIZE SUB DUP2 ADD SWAP1 PUSH2 0x4BF SWAP2 SWAP1 PUSH2 0x5506 JUMP JUMPDEST PUSH2 0x34B0 JUMP JUMPDEST PUSH1 0x40 MLOAD PUSH2 0x4D1 SWAP2 SWAP1 PUSH2 0x54EB JUMP JUMPDEST PUSH1 0x40 MLOAD DUP1 SWAP2 SUB SWAP1 RETURN JUMPDEST PUSH2 0x4F4 PUSH1 0x4 DUP1 CALLDATASIZE SUB DUP2 ADD SWAP1 PUSH2 0x4EF SWAP2 SWAP1 PUSH2 0x50D4 JUMP JUMPDEST PUSH2 0x34CD JUMP JUMPDEST PUSH1 0x40 MLOAD PUSH2 0x501 SWAP2 SWAP1 PUSH2 0x54EB JUMP JUMPDEST PUSH1 0x40 MLOAD DUP1 SWAP2 SUB SWAP1 RETURN JUMPDEST PUSH1 0x0 DUP1 PUSH1 0x7 PUSH1 0x0 DUP5 PUSH3 0xFFFFFF AND DUP2 MSTORE PUSH1 0x20 ADD SWAP1 DUP2 MSTORE PUSH1 0x20 ADD PUSH1 0x0 KECCAK256 PUSH1 0x0 PUSH1 0x2 DUP2 LT PUSH2 0x538 JUMPI PUSH2 0x537 PUSH2 0x58B0 JUMP JUMPDEST JUMPDEST ADD SLOAD PUSH1 0x7 PUSH1 0x0 DUP6 PUSH3 0xFFFFFF AND DUP2 MSTORE PUSH1 0x20 ADD SWAP1 DUP2 MSTORE PUSH1 0x20 ADD PUSH1 0x0 KECCAK256 PUSH1 0x1 PUSH1 0x2 DUP2 LT PUSH2 0x565 JUMPI PUSH2 0x564 PUSH2 0x58B0 JUMP JUMPDEST JUMPDEST ADD SLOAD SWAP2 POP SWAP2 POP SWAP2 POP SWAP2 JUMP JUMPDEST PUSH1 0x0 PUSH4 0x150B7A02 PUSH1 0xE0 SHL SWAP1 POP SWAP5 SWAP4 POP POP POP POP JUMP JUMPDEST PUSH1 0x1 PUSH1 0x0 SWAP1 SLOAD SWAP1 PUSH2 0x100 EXP SWAP1 DIV PUSH20 0xFFFFFFFFFFFFFFFFFFFFFFFFFFFFFFFFFFFFFFFF AND DUP2 JUMP JUMPDEST PUSH1 0x0 DUP1 PUSH1 0x0 DUP1 PUSH1 0x3 PUSH1 0x0 ADD PUSH1 0x6 SWAP1 SLOAD SWAP1 PUSH2 0x100 EXP SWAP1 DIV PUSH17 0xFFFFFFFFFFFFFFFFFFFFFFFFFFFFFFFFFF AND PUSH17 0xFFFFFFFFFFFFFFFFFFFFFFFFFFFFFFFFFF AND SWAP4 POP PUSH1 0x3 PUSH1 0x1 ADD PUSH1 0x0 SWAP1 SLOAD SWAP1 PUSH2 0x100 EXP SWAP1 DIV PUSH17 0xFFFFFFFFFFFFFFFFFFFFFFFFFFFFFFFFFF AND PUSH17 0xFFFFFFFFFFFFFFFFFFFFFFFFFFFFFFFFFF AND SWAP3 POP PUSH1 0x3 PUSH1 0x0 ADD PUSH1 0x0 SWAP1 SLOAD SWAP1 PUSH2 0x100 EXP SWAP1 DIV PUSH3 0xFFFFFF AND PUSH3 0xFFFFFF AND SWAP2 POP PUSH1 0x3 PUSH1 0x0 ADD PUSH1 0x3 SWAP1 SLOAD SWAP1 PUSH2 0x100 EXP SWAP1 DIV PUSH3 0xFFFFFF AND PUSH3 0xFFFFFF AND SWAP1 POP SWAP1 SWAP2 SWAP3 SWAP4 JUMP JUMPDEST PUSH1 0x0 PUSH1 0x1 PUSH1 0x0 SLOAD EQ PUSH2 0x69C JUMPI PUSH1 0x40 MLOAD PUSH32 0x802D9BF100000000000000000000000000000000000000000000000000000000 DUP2 MSTORE PUSH1 0x4 ADD PUSH1 0x40 MLOAD DUP1 SWAP2 SUB SWAP1 REVERT JUMPDEST PUSH1 0x2 PUSH1 0x0 DUP2 SWAP1 SSTORE POP PUSH1 0x0 PUSH1 0x3 PUSH1 0x40 MLOAD DUP1 PUSH1 0xC0 ADD PUSH1 0x40 MSTORE SWAP1 DUP2 PUSH1 0x0 DUP3 ADD PUSH1 0x0 SWAP1 SLOAD SWAP1 PUSH2 0x100 EXP SWAP1 DIV PUSH3 0xFFFFFF AND PUSH3 0xFFFFFF AND PUSH3 0xFFFFFF AND DUP2 MSTORE PUSH1 0x20 ADD PUSH1 0x0 DUP3 ADD PUSH1 0x3 SWAP1 SLOAD SWAP1 PUSH2 0x100 EXP SWAP1 DIV PUSH3 0xFFFFFF AND PUSH3 0xFFFFFF AND PUSH3 0xFFFFFF AND DUP2 MSTORE PUSH1 0x20 ADD PUSH1 0x0 DUP3 ADD PUSH1 0x6 SWAP1 SLOAD SWAP1 PUSH2 0x100 EXP SWAP1 DIV PUSH17 0xFFFFFFFFFFFFFFFFFFFFFFFFFFFFFFFFFF AND PUSH17 0xFFFFFFFFFFFFFFFFFFFFFFFFFFFFFFFFFF AND PUSH17 0xFFFFFFFFFFFFFFFFFFFFFFFFFFFFFFFFFF AND DUP2 MSTORE PUSH1 0x20 ADD PUSH1 0x1 DUP3 ADD PUSH1 0x0 SWAP1 SLOAD SWAP1 PUSH2 0x100 EXP SWAP1 DIV PUSH17 0xFFFFFFFFFFFFFFFFFFFFFFFFFFFFFFFFFF AND PUSH17 0xFFFFFFFFFFFFFFFFFFFFFFFFFFFFFFFFFF AND PUSH17 0xFFFFFFFFFFFFFFFFFFFFFFFFFFFFFFFFFF AND DUP2 MSTORE PUSH1 0x20 ADD PUSH1 0x2 DUP3 ADD SLOAD DUP2 MSTORE PUSH1 0x20 ADD PUSH1 0x3 DUP3 ADD SLOAD DUP2 MSTORE POP POP SWAP1 POP PUSH1 0x0 PUSH1 0x7 PUSH1 0x0 DUP4 PUSH1 0x0 ADD MLOAD PUSH3 0xFFFFFF AND DUP2 MSTORE PUSH1 0x20 ADD SWAP1 DUP2 MSTORE PUSH1 0x20 ADD PUSH1 0x0 KECCAK256 PUSH1 0x2 DUP1 PUSH1 0x20 MUL PUSH1 0x40 MLOAD SWAP1 DUP2 ADD PUSH1 0x40 MSTORE DUP1 SWAP3 SWAP2 SWAP1 DUP3 PUSH1 0x2 DUP1 ISZERO PUSH2 0x7FE JUMPI PUSH1 0x20 MUL DUP3 ADD SWAP2 JUMPDEST DUP2 SLOAD DUP2 MSTORE PUSH1 0x20 ADD SWAP1 PUSH1 0x1 ADD SWAP1 DUP1 DUP4 GT PUSH2 0x7EA JUMPI JUMPDEST POP POP POP POP POP SWAP1 POP PUSH1 0x0 DUP3 PUSH1 0x0 ADD MLOAD SWAP1 POP PUSH1 0x0 DUP3 PUSH1 0x1 PUSH1 0x2 DUP2 LT PUSH2 0x824 JUMPI PUSH2 0x823 PUSH2 0x58B0 JUMP JUMPDEST JUMPDEST PUSH1 0x20 MUL ADD MLOAD EQ ISZERO PUSH2 0x86C JUMPI DUP1 PUSH1 0x40 MLOAD PUSH32 0xB42CD28700000000000000000000000000000000000000000000000000000000 DUP2 MSTORE PUSH1 0x4 ADD PUSH2 0x863 SWAP2 SWAP1 PUSH2 0x5910 JUMP JUMPDEST PUSH1 0x40 MLOAD DUP1 SWAP2 SUB SWAP1 REVERT JUMPDEST PUSH1 0x0 PUSH2 0x87C DUP3 PUSH3 0xFFFFFF AND PUSH2 0x34DF JUMP JUMPDEST SWAP1 POP PUSH1 0x0 PUSH2 0x89E PUSH8 0xDE0B6B3A7640000 PUSH1 0x80 DUP5 PUSH2 0x354C SWAP1 SWAP3 SWAP2 SWAP1 PUSH4 0xFFFFFFFF AND JUMP JUMPDEST SWAP1 POP PUSH1 0x0 DUP1 PUSH2 0x8CC PUSH2 0x8BB DUP5 PUSH1 0xF SLOAD PUSH2 0x361C SWAP1 SWAP2 SWAP1 PUSH4 0xFFFFFFFF AND JUMP JUMPDEST PUSH1 0x10 SLOAD PUSH2 0x3664 SWAP1 SWAP2 SWAP1 PUSH4 0xFFFFFFFF AND JUMP JUMPDEST SWAP2 POP SWAP2 POP PUSH1 0x0 PUSH2 0x946 PUSH1 0x17 PUSH1 0x0 DUP9 PUSH3 0xFFFFFF AND PUSH3 0xFFFFFF AND DUP2 MSTORE PUSH1 0x20 ADD SWAP1 DUP2 MSTORE PUSH1 0x20 ADD PUSH1 0x0 KECCAK256 DUP1 SLOAD DUP1 PUSH1 0x20 MUL PUSH1 0x20 ADD PUSH1 0x40 MLOAD SWAP1 DUP2 ADD PUSH1 0x40 MSTORE DUP1 SWAP3 SWAP2 SWAP1 DUP2 DUP2 MSTORE PUSH1 0x20 ADD DUP3 DUP1 SLOAD DUP1 ISZERO PUSH2 0x93C JUMPI PUSH1 0x20 MUL DUP3 ADD SWAP2 SWAP1 PUSH1 0x0 MSTORE PUSH1 0x20 PUSH1 0x0 KECCAK256 SWAP1 JUMPDEST DUP2 SLOAD DUP2 MSTORE PUSH1 0x20 ADD SWAP1 PUSH1 0x1 ADD SWAP1 DUP1 DUP4 GT PUSH2 0x928 JUMPI JUMPDEST POP POP POP POP POP PUSH2 0x3688 JUMP JUMPDEST SWAP1 POP PUSH1 0x0 PUSH1 0x16 PUSH1 0x0 DUP9 PUSH3 0xFFFFFF AND PUSH3 0xFFFFFF AND DUP2 MSTORE PUSH1 0x20 ADD SWAP1 DUP2 MSTORE PUSH1 0x20 ADD PUSH1 0x0 KECCAK256 DUP3 DUP2 SLOAD DUP2 LT PUSH2 0x979 JUMPI PUSH2 0x978 PUSH2 0x58B0 JUMP JUMPDEST JUMPDEST SWAP1 PUSH1 0x0 MSTORE PUSH1 0x20 PUSH1 0x0 KECCAK256 ADD SLOAD SWAP1 POP PUSH1 0x1 PUSH1 0x0 SWAP1 SLOAD SWAP1 PUSH2 0x100 EXP SWAP1 DIV PUSH20 0xFFFFFFFFFFFFFFFFFFFFFFFFFFFFFFFFFFFFFFFF AND PUSH20 0xFFFFFFFFFFFFFFFFFFFFFFFFFFFFFFFFFFFFFFFF AND PUSH4 0x42842E0E DUP13 ADDRESS DUP16 PUSH1 0x40 MLOAD DUP5 PUSH4 0xFFFFFFFF AND PUSH1 0xE0 SHL DUP2 MSTORE PUSH1 0x4 ADD PUSH2 0x9E5 SWAP4 SWAP3 SWAP2 SWAP1 PUSH2 0x593A JUMP JUMPDEST PUSH1 0x0 PUSH1 0x40 MLOAD DUP1 DUP4 SUB DUP2 PUSH1 0x0 DUP8 DUP1 EXTCODESIZE ISZERO DUP1 ISZERO PUSH2 0x9FF JUMPI PUSH1 0x0 DUP1 REVERT JUMPDEST POP GAS CALL ISZERO DUP1 ISZERO PUSH2 0xA13 JUMPI RETURNDATASIZE PUSH1 0x0 DUP1 RETURNDATACOPY RETURNDATASIZE PUSH1 0x0 REVERT JUMPDEST POP POP POP POP PUSH2 0xA2C DUP2 DUP9 PUSH8 0xDE0B6B3A7640000 PUSH1 0x1 PUSH2 0x372A JUMP JUMPDEST POP PUSH1 0x13 PUSH1 0x0 DUP3 DUP2 MSTORE PUSH1 0x20 ADD SWAP1 DUP2 MSTORE PUSH1 0x20 ADD PUSH1 0x0 KECCAK256 DUP13 SWAP1 DUP1 PUSH1 0x1 DUP2 SLOAD ADD DUP1 DUP3 SSTORE DUP1 SWAP2 POP POP PUSH1 0x1 SWAP1 SUB SWAP1 PUSH1 0x0 MSTORE PUSH1 0x20 PUSH1 0x0 KECCAK256 ADD PUSH1 0x0 SWAP1 SWAP2 SWAP1 SWAP2 SWAP1 SWAP2 POP SSTORE PUSH1 0x14 PUSH1 0x0 DUP3 DUP2 MSTORE PUSH1 0x20 ADD SWAP1 DUP2 MSTORE PUSH1 0x20 ADD PUSH1 0x0 KECCAK256 PUSH1 0x0 ADD PUSH1 0x6 SWAP1 SLOAD SWAP1 PUSH2 0x100 EXP SWAP1 DIV PUSH3 0xFFFFFF AND PUSH1 0x14 PUSH1 0x0 DUP4 DUP2 MSTORE PUSH1 0x20 ADD SWAP1 DUP2 MSTORE PUSH1 0x20 ADD PUSH1 0x0 KECCAK256 PUSH1 0x0 ADD PUSH1 0x3 DUP3 DUP3 DUP3 SWAP1 SLOAD SWAP1 PUSH2 0x100 EXP SWAP1 DIV PUSH3 0xFFFFFF AND PUSH2 0xAC0 SWAP2 SWAP1 PUSH2 0x59A0 JUMP JUMPDEST SWAP3 POP PUSH2 0x100 EXP DUP2 SLOAD DUP2 PUSH3 0xFFFFFF MUL NOT AND SWAP1 DUP4 PUSH3 0xFFFFFF AND MUL OR SWAP1 SSTORE POP DUP3 DUP5 PUSH2 0xAE8 SWAP2 SWAP1 PUSH2 0x59D4 JUMP JUMPDEST PUSH1 0xE PUSH1 0x0 DUP4 DUP2 MSTORE PUSH1 0x20 ADD SWAP1 DUP2 MSTORE PUSH1 0x20 ADD PUSH1 0x0 KECCAK256 PUSH1 0x0 DUP3 DUP3 SLOAD PUSH2 0xB0A SWAP2 SWAP1 PUSH2 0x5A08 JUMP JUMPDEST SWAP3 POP POP DUP2 SWAP1 SSTORE POP PUSH1 0x0 DUP9 PUSH1 0x0 PUSH1 0x2 DUP2 LT PUSH2 0xB27 JUMPI PUSH2 0xB26 PUSH2 0x58B0 JUMP JUMPDEST JUMPDEST PUSH1 0x20 MUL ADD MLOAD EQ ISZERO PUSH2 0xB4C JUMPI PUSH2 0xB4B DUP8 PUSH3 0xFFFFFF AND PUSH1 0xB PUSH2 0x3866 SWAP1 SWAP2 SWAP1 PUSH4 0xFFFFFFFF AND JUMP JUMPDEST JUMPDEST PUSH2 0xB57 DUP10 DUP6 DUP6 PUSH2 0x392C JUMP JUMPDEST PUSH2 0xB89 DUP10 PUSH1 0x1 PUSH2 0xB6E PUSH8 0xDE0B6B3A7640000 PUSH2 0x395A JUMP JUMPDEST PUSH2 0xB77 DUP10 PUSH2 0x395A JUMP JUMPDEST DUP13 PUSH2 0x39B8 SWAP1 SWAP5 SWAP4 SWAP3 SWAP2 SWAP1 PUSH4 0xFFFFFFFF AND JUMP JUMPDEST DUP4 DUP6 PUSH2 0xB95 SWAP2 SWAP1 PUSH2 0x59D4 JUMP JUMPDEST SWAP10 POP PUSH2 0xBAE PUSH1 0xB DUP11 PUSH1 0x8 PUSH2 0x3BCD SWAP1 SWAP3 SWAP2 SWAP1 PUSH4 0xFFFFFFFF AND JUMP JUMPDEST DUP11 PUSH1 0x0 ADD DUP12 PUSH1 0x20 ADD DUP3 PUSH3 0xFFFFFF AND PUSH3 0xFFFFFF AND DUP2 MSTORE POP DUP3 PUSH3 0xFFFFFF AND PUSH3 0xFFFFFF AND DUP2 MSTORE POP POP POP DUP8 PUSH1 0x7 PUSH1 0x0 DUP10 PUSH3 0xFFFFFF AND DUP2 MSTORE PUSH1 0x20 ADD SWAP1 DUP2 MSTORE PUSH1 0x20 ADD PUSH1 0x0 KECCAK256 SWAP1 PUSH1 0x2 PUSH2 0xBFB SWAP3 SWAP2 SWAP1 PUSH2 0x4F6D JUMP JUMPDEST POP DUP9 PUSH1 0x3 PUSH1 0x0 DUP3 ADD MLOAD DUP2 PUSH1 0x0 ADD PUSH1 0x0 PUSH2 0x100 EXP DUP2 SLOAD DUP2 PUSH3 0xFFFFFF MUL NOT AND SWAP1 DUP4 PUSH3 0xFFFFFF AND MUL OR SWAP1 SSTORE POP PUSH1 0x20 DUP3 ADD MLOAD DUP2 PUSH1 0x0 ADD PUSH1 0x3 PUSH2 0x100 EXP DUP2 SLOAD DUP2 PUSH3 0xFFFFFF MUL NOT AND SWAP1 DUP4 PUSH3 0xFFFFFF AND MUL OR SWAP1 SSTORE POP PUSH1 0x40 DUP3 ADD MLOAD DUP2 PUSH1 0x0 ADD PUSH1 0x6 PUSH2 0x100 EXP DUP2 SLOAD DUP2 PUSH17 0xFFFFFFFFFFFFFFFFFFFFFFFFFFFFFFFFFF MUL NOT AND SWAP1 DUP4 PUSH17 0xFFFFFFFFFFFFFFFFFFFFFFFFFFFFFFFFFF AND MUL OR SWAP1 SSTORE POP PUSH1 0x60 DUP3 ADD MLOAD DUP2 PUSH1 0x1 ADD PUSH1 0x0 PUSH2 0x100 EXP DUP2 SLOAD DUP2 PUSH17 0xFFFFFFFFFFFFFFFFFFFFFFFFFFFFFFFFFF MUL NOT AND SWAP1 DUP4 PUSH17 0xFFFFFFFFFFFFFFFFFFFFFFFFFFFFFFFFFF AND MUL OR SWAP1 SSTORE POP PUSH1 0x80 DUP3 ADD MLOAD DUP2 PUSH1 0x2 ADD SSTORE PUSH1 0xA0 DUP3 ADD MLOAD DUP2 PUSH1 0x3 ADD SSTORE SWAP1 POP POP PUSH2 0xD2F DUP12 DUP12 PUSH1 0x2 PUSH1 0x0 SWAP1 SLOAD SWAP1 PUSH2 0x100 EXP SWAP1 DIV PUSH20 0xFFFFFFFFFFFFFFFFFFFFFFFFFFFFFFFFFFFFFFFF AND PUSH20 0xFFFFFFFFFFFFFFFFFFFFFFFFFFFFFFFFFFFFFFFF AND PUSH2 0x3C6A SWAP1 SWAP3 SWAP2 SWAP1 PUSH4 0xFFFFFFFF AND JUMP JUMPDEST POP POP POP POP POP POP POP POP POP PUSH1 0x1 PUSH1 0x0 DUP2 SWAP1 SSTORE POP SWAP3 SWAP2 POP POP JUMP JUMPDEST PUSH1 0x15 PUSH1 0x20 MSTORE DUP1 PUSH1 0x0 MSTORE PUSH1 0x40 PUSH1 0x0 KECCAK256 PUSH1 0x0 SWAP2 POP SWAP1 POP SLOAD DUP2 JUMP JUMPDEST PUSH1 0x17 PUSH1 0x20 MSTORE DUP2 PUSH1 0x0 MSTORE PUSH1 0x40 PUSH1 0x0 KECCAK256 DUP2 DUP2 SLOAD DUP2 LT PUSH2 0xD7A JUMPI PUSH1 0x0 DUP1 REVERT JUMPDEST SWAP1 PUSH1 0x0 MSTORE PUSH1 0x20 PUSH1 0x0 KECCAK256 ADD PUSH1 0x0 SWAP2 POP SWAP2 POP POP SLOAD DUP2 JUMP JUMPDEST PUSH1 0x12 PUSH1 0x0 SWAP1 SLOAD SWAP1 PUSH2 0x100 EXP SWAP1 DIV PUSH20 0xFFFFFFFFFFFFFFFFFFFFFFFFFFFFFFFFFFFFFFFF AND DUP2 JUMP JUMPDEST PUSH1 0x0 DUP1 PUSH1 0x15 PUSH1 0x0 DUP5 DUP2 MSTORE PUSH1 0x20 ADD SWAP1 DUP2 MSTORE PUSH1 0x20 ADD PUSH1 0x0 KECCAK256 SLOAD SWAP1 POP PUSH2 0xDFC PUSH1 0x14 PUSH1 0x0 DUP4 DUP2 MSTORE PUSH1 0x20 ADD SWAP1 DUP2 MSTORE PUSH1 0x20 ADD PUSH1 0x0 KECCAK256 PUSH1 0x0 ADD PUSH1 0x3 SWAP1 SLOAD SWAP1 PUSH2 0x100 EXP SWAP1 DIV PUSH3 0xFFFFFF AND PUSH2 0x3D5D JUMP JUMPDEST SWAP2 POP POP SWAP2 SWAP1 POP JUMP JUMPDEST PUSH1 0x14 PUSH1 0x20 MSTORE DUP1 PUSH1 0x0 MSTORE PUSH1 0x40 PUSH1 0x0 KECCAK256 PUSH1 0x0 SWAP2 POP SWAP1 POP DUP1 PUSH1 0x0 ADD PUSH1 0x0 SWAP1 SLOAD SWAP1 PUSH2 0x100 EXP SWAP1 DIV PUSH3 0xFFFFFF AND SWAP1 DUP1 PUSH1 0x0 ADD PUSH1 0x3 SWAP1 SLOAD SWAP1 PUSH2 0x100 EXP SWAP1 DIV PUSH3 0xFFFFFF AND SWAP1 DUP1 PUSH1 0x0 ADD PUSH1 0x6 SWAP1 SLOAD SWAP1 PUSH2 0x100 EXP SWAP1 DIV PUSH3 0xFFFFFF AND SWAP1 DUP1 PUSH1 0x1 ADD SLOAD SWAP1 POP DUP5 JUMP JUMPDEST PUSH1 0x16 PUSH1 0x20 MSTORE DUP2 PUSH1 0x0 MSTORE PUSH1 0x40 PUSH1 0x0 KECCAK256 DUP2 DUP2 SLOAD DUP2 LT PUSH2 0xE7D JUMPI PUSH1 0x0 DUP1 REVERT JUMPDEST SWAP1 PUSH1 0x0 MSTORE PUSH1 0x20 PUSH1 0x0 KECCAK256 ADD PUSH1 0x0 SWAP2 POP SWAP2 POP POP SLOAD DUP2 JUMP JUMPDEST PUSH1 0x0 DUP1 PUSH1 0xF SLOAD PUSH1 0x10 SLOAD SWAP2 POP SWAP2 POP SWAP1 SWAP2 JUMP JUMPDEST PUSH1 0x0 PUSH1 0x1 PUSH1 0x0 SLOAD EQ PUSH2 0xEE1 JUMPI PUSH1 0x40 MLOAD PUSH32 0x802D9BF100000000000000000000000000000000000000000000000000000000 DUP2 MSTORE PUSH1 0x4 ADD PUSH1 0x40 MLOAD DUP1 SWAP2 SUB SWAP1 REVERT JUMPDEST PUSH1 0x2 PUSH1 0x0 DUP2 SWAP1 SSTORE POP PUSH1 0x0 PUSH32 0x0 PUSH20 0xFFFFFFFFFFFFFFFFFFFFFFFFFFFFFFFFFFFFFFFF AND PUSH4 0x46904840 PUSH1 0x40 MLOAD DUP2 PUSH4 0xFFFFFFFF AND PUSH1 0xE0 SHL DUP2 MSTORE PUSH1 0x4 ADD PUSH1 0x20 PUSH1 0x40 MLOAD DUP1 DUP4 SUB DUP2 DUP7 GAS STATICCALL ISZERO DUP1 ISZERO PUSH2 0xF56 JUMPI RETURNDATASIZE PUSH1 0x0 DUP1 RETURNDATACOPY RETURNDATASIZE PUSH1 0x0 REVERT JUMPDEST POP POP POP POP PUSH1 0x40 MLOAD RETURNDATASIZE PUSH1 0x1F NOT PUSH1 0x1F DUP3 ADD AND DUP3 ADD DUP1 PUSH1 0x40 MSTORE POP DUP2 ADD SWAP1 PUSH2 0xF7A SWAP2 SWAP1 PUSH2 0x5A73 JUMP JUMPDEST SWAP1 POP DUP1 PUSH20 0xFFFFFFFFFFFFFFFFFFFFFFFFFFFFFFFFFFFFFFFF AND CALLER PUSH20 0xFFFFFFFFFFFFFFFFFFFFFFFFFFFFFFFFFFFFFFFF AND EQ PUSH2 0xFEE JUMPI DUP1 CALLER PUSH1 0x40 MLOAD PUSH32 0xF680F02800000000000000000000000000000000000000000000000000000000 DUP2 MSTORE PUSH1 0x4 ADD PUSH2 0xFE5 SWAP3 SWAP2 SWAP1 PUSH2 0x5AA0 JUMP JUMPDEST PUSH1 0x40 MLOAD DUP1 SWAP2 SUB SWAP1 REVERT JUMPDEST PUSH1 0x3 DUP1 ADD SLOAD SWAP2 POP PUSH1 0x1 DUP3 GT ISZERO PUSH2 0x1081 JUMPI PUSH1 0x1 DUP3 PUSH2 0x100B SWAP2 SWAP1 PUSH2 0x59D4 JUMP JUMPDEST SWAP2 POP DUP2 PUSH1 0x3 PUSH1 0x2 ADD PUSH1 0x0 DUP3 DUP3 SLOAD PUSH2 0x1022 SWAP2 SWAP1 PUSH2 0x59D4 JUMP JUMPDEST SWAP3 POP POP DUP2 SWAP1 SSTORE POP PUSH1 0x1 PUSH1 0x3 DUP1 ADD DUP2 SWAP1 SSTORE POP PUSH2 0x1080 DUP2 DUP4 PUSH1 0x2 PUSH1 0x0 SWAP1 SLOAD SWAP1 PUSH2 0x100 EXP SWAP1 DIV PUSH20 0xFFFFFFFFFFFFFFFFFFFFFFFFFFFFFFFFFFFFFFFF AND PUSH20 0xFFFFFFFFFFFFFFFFFFFFFFFFFFFFFFFFFFFFFFFF AND PUSH2 0x3C6A SWAP1 SWAP3 SWAP2 SWAP1 PUSH4 0xFFFFFFFF AND JUMP JUMPDEST JUMPDEST POP PUSH1 0x1 PUSH1 0x0 DUP2 SWAP1 SSTORE POP SWAP1 JUMP JUMPDEST PUSH1 0x0 DUP1 PUSH1 0x1 PUSH1 0x0 SLOAD EQ PUSH2 0x10CC JUMPI PUSH1 0x40 MLOAD PUSH32 0x802D9BF100000000000000000000000000000000000000000000000000000000 DUP2 MSTORE PUSH1 0x4 ADD PUSH1 0x40 MLOAD DUP1 SWAP2 SUB SWAP1 REVERT JUMPDEST PUSH1 0x2 PUSH1 0x0 DUP2 SWAP1 SSTORE POP PUSH1 0x0 PUSH1 0x3 PUSH1 0x40 MLOAD DUP1 PUSH1 0xC0 ADD PUSH1 0x40 MSTORE SWAP1 DUP2 PUSH1 0x0 DUP3 ADD PUSH1 0x0 SWAP1 SLOAD SWAP1 PUSH2 0x100 EXP SWAP1 DIV PUSH3 0xFFFFFF AND PUSH3 0xFFFFFF AND PUSH3 0xFFFFFF AND DUP2 MSTORE PUSH1 0x20 ADD PUSH1 0x0 DUP3 ADD PUSH1 0x3 SWAP1 SLOAD SWAP1 PUSH2 0x100 EXP SWAP1 DIV PUSH3 0xFFFFFF AND PUSH3 0xFFFFFF AND PUSH3 0xFFFFFF AND DUP2 MSTORE PUSH1 0x20 ADD PUSH1 0x0 DUP3 ADD PUSH1 0x6 SWAP1 SLOAD SWAP1 PUSH2 0x100 EXP SWAP1 DIV PUSH17 0xFFFFFFFFFFFFFFFFFFFFFFFFFFFFFFFFFF AND PUSH17 0xFFFFFFFFFFFFFFFFFFFFFFFFFFFFFFFFFF AND PUSH17 0xFFFFFFFFFFFFFFFFFFFFFFFFFFFFFFFFFF AND DUP2 MSTORE PUSH1 0x20 ADD PUSH1 0x1 DUP3 ADD PUSH1 0x0 SWAP1 SLOAD SWAP1 PUSH2 0x100 EXP SWAP1 DIV PUSH17 0xFFFFFFFFFFFFFFFFFFFFFFFFFFFFFFFFFF AND PUSH17 0xFFFFFFFFFFFFFFFFFFFFFFFFFFFFFFFFFF AND PUSH17 0xFFFFFFFFFFFFFFFFFFFFFFFFFFFFFFFFFF AND DUP2 MSTORE PUSH1 0x20 ADD PUSH1 0x2 DUP3 ADD SLOAD DUP2 MSTORE PUSH1 0x20 ADD PUSH1 0x3 DUP3 ADD SLOAD DUP2 MSTORE POP POP SWAP1 POP PUSH1 0x0 DUP1 PUSH1 0x0 PUSH1 0x2 PUSH1 0x11 PUSH1 0x0 DUP3 DUP3 SLOAD PUSH2 0x11F1 SWAP2 SWAP1 PUSH2 0x5A08 JUMP JUMPDEST SWAP3 POP POP DUP2 SWAP1 SSTORE POP PUSH1 0x0 PUSH1 0x11 SLOAD SWAP1 POP PUSH1 0x12 PUSH1 0x0 SWAP1 SLOAD SWAP1 PUSH2 0x100 EXP SWAP1 DIV PUSH20 0xFFFFFFFFFFFFFFFFFFFFFFFFFFFFFFFFFFFFFFFF AND PUSH20 0xFFFFFFFFFFFFFFFFFFFFFFFFFFFFFFFFFFFFFFFF AND PUSH4 0x40C10F19 DUP10 DUP4 PUSH1 0x40 MLOAD DUP4 PUSH4 0xFFFFFFFF AND PUSH1 0xE0 SHL DUP2 MSTORE PUSH1 0x4 ADD PUSH2 0x125C SWAP3 SWAP2 SWAP1 PUSH2 0x5AC9 JUMP JUMPDEST PUSH1 0x0 PUSH1 0x40 MLOAD DUP1 DUP4 SUB DUP2 PUSH1 0x0 DUP8 DUP1 EXTCODESIZE ISZERO DUP1 ISZERO PUSH2 0x1276 JUMPI PUSH1 0x0 DUP1 REVERT JUMPDEST POP GAS CALL ISZERO DUP1 ISZERO PUSH2 0x128A JUMPI RETURNDATASIZE PUSH1 0x0 DUP1 RETURNDATACOPY RETURNDATASIZE PUSH1 0x0 REVERT JUMPDEST POP POP POP POP PUSH2 0x12D8 DUP11 DUP11 DUP1 DUP1 PUSH1 0x20 MUL PUSH1 0x20 ADD PUSH1 0x40 MLOAD SWAP1 DUP2 ADD PUSH1 0x40 MSTORE DUP1 SWAP4 SWAP3 SWAP2 SWAP1 DUP2 DUP2 MSTORE PUSH1 0x20 ADD DUP4 DUP4 PUSH1 0x20 MUL DUP1 DUP3 DUP5 CALLDATACOPY PUSH1 0x0 DUP2 DUP5 ADD MSTORE PUSH1 0x1F NOT PUSH1 0x1F DUP3 ADD AND SWAP1 POP DUP1 DUP4 ADD SWAP3 POP POP POP POP POP POP POP PUSH2 0x3D94 JUMP JUMPDEST PUSH2 0x12E1 JUMPI PUSH1 0x0 DUP1 REVERT JUMPDEST PUSH1 0x0 JUMPDEST DUP11 DUP11 SWAP1 POP DUP2 LT ISZERO PUSH2 0x13E0 JUMPI PUSH1 0x16 PUSH1 0x0 DUP13 DUP13 DUP5 DUP2 DUP2 LT PUSH2 0x1306 JUMPI PUSH2 0x1305 PUSH2 0x58B0 JUMP JUMPDEST JUMPDEST SWAP1 POP PUSH1 0x20 MUL ADD PUSH1 0x20 DUP2 ADD SWAP1 PUSH2 0x131B SWAP2 SWAP1 PUSH2 0x50D4 JUMP JUMPDEST PUSH3 0xFFFFFF AND PUSH3 0xFFFFFF AND DUP2 MSTORE PUSH1 0x20 ADD SWAP1 DUP2 MSTORE PUSH1 0x20 ADD PUSH1 0x0 KECCAK256 DUP3 SWAP1 DUP1 PUSH1 0x1 DUP2 SLOAD ADD DUP1 DUP3 SSTORE DUP1 SWAP2 POP POP PUSH1 0x1 SWAP1 SUB SWAP1 PUSH1 0x0 MSTORE PUSH1 0x20 PUSH1 0x0 KECCAK256 ADD PUSH1 0x0 SWAP1 SWAP2 SWAP1 SWAP2 SWAP1 SWAP2 POP SSTORE PUSH1 0x17 PUSH1 0x0 DUP13 DUP13 DUP5 DUP2 DUP2 LT PUSH2 0x1371 JUMPI PUSH2 0x1370 PUSH2 0x58B0 JUMP JUMPDEST JUMPDEST SWAP1 POP PUSH1 0x20 MUL ADD PUSH1 0x20 DUP2 ADD SWAP1 PUSH2 0x1386 SWAP2 SWAP1 PUSH2 0x50D4 JUMP JUMPDEST PUSH3 0xFFFFFF AND PUSH3 0xFFFFFF AND DUP2 MSTORE PUSH1 0x20 ADD SWAP1 DUP2 MSTORE PUSH1 0x20 ADD PUSH1 0x0 KECCAK256 PUSH8 0xDE0B6B3A7640000 SWAP1 DUP1 PUSH1 0x1 DUP2 SLOAD ADD DUP1 DUP3 SSTORE DUP1 SWAP2 POP POP PUSH1 0x1 SWAP1 SUB SWAP1 PUSH1 0x0 MSTORE PUSH1 0x20 PUSH1 0x0 KECCAK256 ADD PUSH1 0x0 SWAP1 SWAP2 SWAP1 SWAP2 SWAP1 SWAP2 POP SSTORE DUP1 DUP1 PUSH2 0x13D8 SWAP1 PUSH2 0x5AF2 JUMP JUMPDEST SWAP2 POP POP PUSH2 0x12E4 JUMP JUMPDEST POP PUSH2 0x1449 DUP6 PUSH1 0x60 ADD MLOAD PUSH17 0xFFFFFFFFFFFFFFFFFFFFFFFFFFFFFFFFFF AND DUP7 PUSH1 0x80 ADD MLOAD PUSH1 0x2 PUSH1 0x0 SWAP1 SLOAD SWAP1 PUSH2 0x100 EXP SWAP1 DIV PUSH20 0xFFFFFFFFFFFFFFFFFFFFFFFFFFFFFFFFFFFFFFFF AND PUSH20 0xFFFFFFFFFFFFFFFFFFFFFFFFFFFFFFFFFFFFFFFF AND PUSH2 0x3E9D SWAP1 SWAP3 SWAP2 SWAP1 PUSH4 0xFFFFFFFF AND JUMP JUMPDEST SWAP4 POP DUP5 PUSH1 0x20 ADD MLOAD PUSH3 0xFFFFFF AND DUP11 DUP11 PUSH1 0x1 DUP14 DUP14 SWAP1 POP PUSH2 0x1467 SWAP2 SWAP1 PUSH2 0x59D4 JUMP JUMPDEST DUP2 DUP2 LT PUSH2 0x1477 JUMPI PUSH2 0x1476 PUSH2 0x58B0 JUMP JUMPDEST JUMPDEST SWAP1 POP PUSH1 0x20 MUL ADD PUSH1 0x20 DUP2 ADD SWAP1 PUSH2 0x148C SWAP2 SWAP1 PUSH2 0x50D4 JUMP JUMPDEST PUSH3 0xFFFFFF AND GT DUP1 ISZERO PUSH2 0x14A8 JUMPI POP PUSH1 0x0 DUP6 PUSH1 0x20 ADD MLOAD PUSH3 0xFFFFFF AND EQ ISZERO JUMPDEST ISZERO PUSH2 0x1520 JUMPI DUP10 DUP10 PUSH1 0x1 DUP13 DUP13 SWAP1 POP PUSH2 0x14BF SWAP2 SWAP1 PUSH2 0x59D4 JUMP JUMPDEST DUP2 DUP2 LT PUSH2 0x14CF JUMPI PUSH2 0x14CE PUSH2 0x58B0 JUMP JUMPDEST JUMPDEST SWAP1 POP PUSH1 0x20 MUL ADD PUSH1 0x20 DUP2 ADD SWAP1 PUSH2 0x14E4 SWAP2 SWAP1 PUSH2 0x50D4 JUMP JUMPDEST PUSH1 0x40 MLOAD PUSH32 0xB42CD28700000000000000000000000000000000000000000000000000000000 DUP2 MSTORE PUSH1 0x4 ADD PUSH2 0x1517 SWAP2 SWAP1 PUSH2 0x5910 JUMP JUMPDEST PUSH1 0x40 MLOAD DUP1 SWAP2 SUB SWAP1 REVERT JUMPDEST PUSH1 0x0 JUMPDEST DUP11 DUP11 SWAP1 POP DUP2 LT ISZERO PUSH2 0x1700 JUMPI DUP11 DUP11 DUP3 DUP2 DUP2 LT PUSH2 0x1541 JUMPI PUSH2 0x1540 PUSH2 0x58B0 JUMP JUMPDEST JUMPDEST SWAP1 POP PUSH1 0x20 MUL ADD PUSH1 0x20 DUP2 ADD SWAP1 PUSH2 0x1556 SWAP2 SWAP1 PUSH2 0x50D4 JUMP JUMPDEST SWAP4 POP PUSH1 0x0 PUSH1 0x7 PUSH1 0x0 DUP7 PUSH3 0xFFFFFF AND DUP2 MSTORE PUSH1 0x20 ADD SWAP1 DUP2 MSTORE PUSH1 0x20 ADD PUSH1 0x0 KECCAK256 PUSH1 0x2 DUP1 PUSH1 0x20 MUL PUSH1 0x40 MLOAD SWAP1 DUP2 ADD PUSH1 0x40 MSTORE DUP1 SWAP3 SWAP2 SWAP1 DUP3 PUSH1 0x2 DUP1 ISZERO PUSH2 0x15A9 JUMPI PUSH1 0x20 MUL DUP3 ADD SWAP2 JUMPDEST DUP2 SLOAD DUP2 MSTORE PUSH1 0x20 ADD SWAP1 PUSH1 0x1 ADD SWAP1 DUP1 DUP4 GT PUSH2 0x1595 JUMPI JUMPDEST POP POP POP POP POP SWAP1 POP PUSH1 0x0 DUP2 PUSH1 0x0 PUSH1 0x2 DUP2 LT PUSH2 0x15C6 JUMPI PUSH2 0x15C5 PUSH2 0x58B0 JUMP JUMPDEST JUMPDEST PUSH1 0x20 MUL ADD MLOAD EQ DUP1 ISZERO PUSH2 0x15F0 JUMPI POP PUSH1 0x0 DUP2 PUSH1 0x1 PUSH1 0x2 DUP2 LT PUSH2 0x15E9 JUMPI PUSH2 0x15E8 PUSH2 0x58B0 JUMP JUMPDEST JUMPDEST PUSH1 0x20 MUL ADD MLOAD EQ JUMPDEST ISZERO PUSH2 0x160F JUMPI PUSH2 0x160E DUP6 PUSH3 0xFFFFFF AND PUSH1 0x8 PUSH2 0x3866 SWAP1 SWAP2 SWAP1 PUSH4 0xFFFFFFFF AND JUMP JUMPDEST JUMPDEST PUSH1 0x0 PUSH2 0x161F DUP7 PUSH3 0xFFFFFF AND PUSH2 0x34DF JUMP JUMPDEST SWAP1 POP PUSH2 0x163F PUSH8 0xDE0B6B3A7640000 PUSH1 0x80 DUP4 PUSH2 0x354C SWAP1 SWAP3 SWAP2 SWAP1 PUSH4 0xFFFFFFFF AND JUMP JUMPDEST SWAP1 POP DUP1 PUSH14 0xFFFFFFFFFFFFFFFFFFFFFFFFFFFF AND DUP3 PUSH1 0x1 PUSH1 0x2 DUP2 LT PUSH2 0x1666 JUMPI PUSH2 0x1665 PUSH2 0x58B0 JUMP JUMPDEST JUMPDEST PUSH1 0x20 MUL ADD DUP2 DUP2 MLOAD PUSH2 0x1677 SWAP2 SWAP1 PUSH2 0x5A08 JUMP JUMPDEST SWAP2 POP DUP2 DUP2 MSTORE POP POP DUP1 PUSH14 0xFFFFFFFFFFFFFFFFFFFFFFFFFFFF AND DUP9 PUSH1 0x60 ADD DUP2 DUP2 MLOAD ADD SWAP2 POP SWAP1 PUSH17 0xFFFFFFFFFFFFFFFFFFFFFFFFFFFFFFFFFF AND SWAP1 DUP2 PUSH17 0xFFFFFFFFFFFFFFFFFFFFFFFFFFFFFFFFFF AND DUP2 MSTORE POP POP DUP1 DUP6 ADD SWAP5 POP DUP2 PUSH1 0x7 PUSH1 0x0 DUP9 PUSH3 0xFFFFFF AND DUP2 MSTORE PUSH1 0x20 ADD SWAP1 DUP2 MSTORE PUSH1 0x20 ADD PUSH1 0x0 KECCAK256 SWAP1 PUSH1 0x2 PUSH2 0x16F2 SWAP3 SWAP2 SWAP1 PUSH2 0x4F6D JUMP JUMPDEST POP DUP3 PUSH1 0x1 ADD SWAP3 POP POP POP PUSH2 0x1523 JUMP JUMPDEST POP DUP4 DUP3 GT ISZERO PUSH2 0x173B JUMPI PUSH1 0x40 MLOAD PUSH32 0xEEE8FF2700000000000000000000000000000000000000000000000000000000 DUP2 MSTORE PUSH1 0x4 ADD PUSH1 0x40 MLOAD DUP1 SWAP2 SUB SWAP1 REVERT JUMPDEST PUSH2 0x1752 PUSH1 0xB DUP7 PUSH1 0x8 PUSH2 0x3BCD SWAP1 SWAP3 SWAP2 SWAP1 PUSH4 0xFFFFFFFF AND JUMP JUMPDEST DUP7 PUSH1 0x0 ADD DUP8 PUSH1 0x20 ADD DUP3 PUSH3 0xFFFFFF AND PUSH3 0xFFFFFF AND DUP2 MSTORE POP DUP3 PUSH3 0xFFFFFF AND PUSH3 0xFFFFFF AND DUP2 MSTORE POP POP POP DUP5 PUSH1 0x3 PUSH1 0x0 DUP3 ADD MLOAD DUP2 PUSH1 0x0 ADD PUSH1 0x0 PUSH2 0x100 EXP DUP2 SLOAD DUP2 PUSH3 0xFFFFFF MUL NOT AND SWAP1 DUP4 PUSH3 0xFFFFFF AND MUL OR SWAP1 SSTORE POP PUSH1 0x20 DUP3 ADD MLOAD DUP2 PUSH1 0x0 ADD PUSH1 0x3 PUSH2 0x100 EXP DUP2 SLOAD DUP2 PUSH3 0xFFFFFF MUL NOT AND SWAP1 DUP4 PUSH3 0xFFFFFF AND MUL OR SWAP1 SSTORE POP PUSH1 0x40 DUP3 ADD MLOAD DUP2 PUSH1 0x0 ADD PUSH1 0x6 PUSH2 0x100 EXP DUP2 SLOAD DUP2 PUSH17 0xFFFFFFFFFFFFFFFFFFFFFFFFFFFFFFFFFF MUL NOT AND SWAP1 DUP4 PUSH17 0xFFFFFFFFFFFFFFFFFFFFFFFFFFFFFFFFFF AND MUL OR SWAP1 SSTORE POP PUSH1 0x60 DUP3 ADD MLOAD DUP2 PUSH1 0x1 ADD PUSH1 0x0 PUSH2 0x100 EXP DUP2 SLOAD DUP2 PUSH17 0xFFFFFFFFFFFFFFFFFFFFFFFFFFFFFFFFFF MUL NOT AND SWAP1 DUP4 PUSH17 0xFFFFFFFFFFFFFFFFFFFFFFFFFFFFFFFFFF AND MUL OR SWAP1 SSTORE POP PUSH1 0x80 DUP3 ADD MLOAD DUP2 PUSH1 0x2 ADD SSTORE PUSH1 0xA0 DUP3 ADD MLOAD DUP2 PUSH1 0x3 ADD SSTORE SWAP1 POP POP DUP2 DUP2 SWAP7 POP SWAP7 POP POP POP POP POP POP PUSH1 0x1 PUSH1 0x0 DUP2 SWAP1 SSTORE POP SWAP4 POP SWAP4 SWAP2 POP POP JUMP JUMPDEST PUSH1 0x0 DUP1 PUSH1 0x3 PUSH1 0x2 ADD SLOAD SWAP2 POP PUSH1 0x3 DUP1 ADD SLOAD SWAP1 POP SWAP1 SWAP2 JUMP JUMPDEST PUSH1 0x2 PUSH1 0x0 SWAP1 SLOAD SWAP1 PUSH2 0x100 EXP SWAP1 DIV PUSH20 0xFFFFFFFFFFFFFFFFFFFFFFFFFFFFFFFFFFFFFFFF AND DUP2 JUMP JUMPDEST PUSH32 0x0 DUP2 JUMP JUMPDEST PUSH1 0x13 PUSH1 0x20 MSTORE DUP2 PUSH1 0x0 MSTORE PUSH1 0x40 PUSH1 0x0 KECCAK256 DUP2 DUP2 SLOAD DUP2 LT PUSH2 0x18F5 JUMPI PUSH1 0x0 DUP1 REVERT JUMPDEST SWAP1 PUSH1 0x0 MSTORE PUSH1 0x20 PUSH1 0x0 KECCAK256 ADD PUSH1 0x0 SWAP2 POP SWAP2 POP POP SLOAD DUP2 JUMP JUMPDEST PUSH1 0x0 DUP1 PUSH1 0x1 PUSH1 0x0 SLOAD EQ PUSH2 0x1949 JUMPI PUSH1 0x40 MLOAD PUSH32 0x802D9BF100000000000000000000000000000000000000000000000000000000 DUP2 MSTORE PUSH1 0x4 ADD PUSH1 0x40 MLOAD DUP1 SWAP2 SUB SWAP1 REVERT JUMPDEST PUSH1 0x2 PUSH1 0x0 DUP2 SWAP1 SSTORE POP PUSH1 0x0 DUP9 DUP9 SWAP1 POP EQ DUP1 PUSH2 0x1969 JUMPI POP DUP6 DUP6 SWAP1 POP DUP9 DUP9 SWAP1 POP EQ ISZERO JUMPDEST ISZERO PUSH2 0x19A0 JUMPI PUSH1 0x40 MLOAD PUSH32 0x6FED5FF00000000000000000000000000000000000000000000000000000000 DUP2 MSTORE PUSH1 0x4 ADD PUSH1 0x40 MLOAD DUP1 SWAP2 SUB SWAP1 REVERT JUMPDEST PUSH1 0x0 PUSH1 0x3 PUSH1 0x40 MLOAD DUP1 PUSH1 0xC0 ADD PUSH1 0x40 MSTORE SWAP1 DUP2 PUSH1 0x0 DUP3 ADD PUSH1 0x0 SWAP1 SLOAD SWAP1 PUSH2 0x100 EXP SWAP1 DIV PUSH3 0xFFFFFF AND PUSH3 0xFFFFFF AND PUSH3 0xFFFFFF AND DUP2 MSTORE PUSH1 0x20 ADD PUSH1 0x0 DUP3 ADD PUSH1 0x3 SWAP1 SLOAD SWAP1 PUSH2 0x100 EXP SWAP1 DIV PUSH3 0xFFFFFF AND PUSH3 0xFFFFFF AND PUSH3 0xFFFFFF AND DUP2 MSTORE PUSH1 0x20 ADD PUSH1 0x0 DUP3 ADD PUSH1 0x6 SWAP1 SLOAD SWAP1 PUSH2 0x100 EXP SWAP1 DIV PUSH17 0xFFFFFFFFFFFFFFFFFFFFFFFFFFFFFFFFFF AND PUSH17 0xFFFFFFFFFFFFFFFFFFFFFFFFFFFFFFFFFF AND PUSH17 0xFFFFFFFFFFFFFFFFFFFFFFFFFFFFFFFFFF AND DUP2 MSTORE PUSH1 0x20 ADD PUSH1 0x1 DUP3 ADD PUSH1 0x0 SWAP1 SLOAD SWAP1 PUSH2 0x100 EXP SWAP1 DIV PUSH17 0xFFFFFFFFFFFFFFFFFFFFFFFFFFFFFFFFFF AND PUSH17 0xFFFFFFFFFFFFFFFFFFFFFFFFFFFFFFFFFF AND PUSH17 0xFFFFFFFFFFFFFFFFFFFFFFFFFFFFFFFFFF AND DUP2 MSTORE PUSH1 0x20 ADD PUSH1 0x2 DUP3 ADD SLOAD DUP2 MSTORE PUSH1 0x20 ADD PUSH1 0x3 DUP3 ADD SLOAD DUP2 MSTORE POP POP SWAP1 POP DUP4 ISZERO ISZERO PUSH1 0x0 PUSH1 0x2 PUSH1 0x11 SLOAD PUSH2 0x1AB9 SWAP2 SWAP1 PUSH2 0x5B6A JUMP JUMPDEST EQ ISZERO ISZERO EQ PUSH2 0x1ADF JUMPI PUSH1 0x2 PUSH1 0x11 PUSH1 0x0 DUP3 DUP3 SLOAD PUSH2 0x1AD4 SWAP2 SWAP1 PUSH2 0x5A08 JUMP JUMPDEST SWAP3 POP POP DUP2 SWAP1 SSTORE PUSH2 0x1AF9 JUMP JUMPDEST PUSH1 0x1 PUSH1 0x11 PUSH1 0x0 DUP3 DUP3 SLOAD PUSH2 0x1AF2 SWAP2 SWAP1 PUSH2 0x5A08 JUMP JUMPDEST SWAP3 POP POP DUP2 SWAP1 SSTORE JUMPDEST POP PUSH1 0x0 PUSH1 0x11 SLOAD SWAP1 POP PUSH1 0x12 PUSH1 0x0 SWAP1 SLOAD SWAP1 PUSH2 0x100 EXP SWAP1 DIV PUSH20 0xFFFFFFFFFFFFFFFFFFFFFFFFFFFFFFFFFFFFFFFF AND PUSH20 0xFFFFFFFFFFFFFFFFFFFFFFFFFFFFFFFFFFFFFFFF AND PUSH4 0x40C10F19 DUP8 DUP4 PUSH1 0x40 MLOAD DUP4 PUSH4 0xFFFFFFFF AND PUSH1 0xE0 SHL DUP2 MSTORE PUSH1 0x4 ADD PUSH2 0x1B5E SWAP3 SWAP2 SWAP1 PUSH2 0x5AC9 JUMP JUMPDEST PUSH1 0x0 PUSH1 0x40 MLOAD DUP1 DUP4 SUB DUP2 PUSH1 0x0 DUP8 DUP1 EXTCODESIZE ISZERO DUP1 ISZERO PUSH2 0x1B78 JUMPI PUSH1 0x0 DUP1 REVERT JUMPDEST POP GAS CALL ISZERO DUP1 ISZERO PUSH2 0x1B8C JUMPI RETURNDATASIZE PUSH1 0x0 DUP1 RETURNDATACOPY RETURNDATASIZE PUSH1 0x0 REVERT JUMPDEST POP POP POP POP PUSH2 0x1BDA DUP11 DUP11 DUP1 DUP1 PUSH1 0x20 MUL PUSH1 0x20 ADD PUSH1 0x40 MLOAD SWAP1 DUP2 ADD PUSH1 0x40 MSTORE DUP1 SWAP4 SWAP3 SWAP2 SWAP1 DUP2 DUP2 MSTORE PUSH1 0x20 ADD DUP4 DUP4 PUSH1 0x20 MUL DUP1 DUP3 DUP5 CALLDATACOPY PUSH1 0x0 DUP2 DUP5 ADD MSTORE PUSH1 0x1F NOT PUSH1 0x1F DUP3 ADD AND SWAP1 POP DUP1 DUP4 ADD SWAP3 POP POP POP POP POP POP POP PUSH2 0x3D94 JUMP JUMPDEST PUSH2 0x1BE3 JUMPI PUSH1 0x0 DUP1 REVERT JUMPDEST DUP10 DUP10 PUSH1 0x0 DUP2 DUP2 LT PUSH2 0x1BF7 JUMPI PUSH2 0x1BF6 PUSH2 0x58B0 JUMP JUMPDEST JUMPDEST SWAP1 POP PUSH1 0x20 MUL ADD PUSH1 0x20 DUP2 ADD SWAP1 PUSH2 0x1C0C SWAP2 SWAP1 PUSH2 0x50D4 JUMP JUMPDEST PUSH1 0x14 PUSH1 0x0 DUP4 DUP2 MSTORE PUSH1 0x20 ADD SWAP1 DUP2 MSTORE PUSH1 0x20 ADD PUSH1 0x0 KECCAK256 PUSH1 0x0 ADD PUSH1 0x0 PUSH2 0x100 EXP DUP2 SLOAD DUP2 PUSH3 0xFFFFFF MUL NOT AND SWAP1 DUP4 PUSH3 0xFFFFFF AND MUL OR SWAP1 SSTORE POP DUP10 DUP10 PUSH1 0x0 DUP2 DUP2 LT PUSH2 0x1C52 JUMPI PUSH2 0x1C51 PUSH2 0x58B0 JUMP JUMPDEST JUMPDEST SWAP1 POP PUSH1 0x20 MUL ADD PUSH1 0x20 DUP2 ADD SWAP1 PUSH2 0x1C67 SWAP2 SWAP1 PUSH2 0x50D4 JUMP JUMPDEST PUSH1 0x14 PUSH1 0x0 DUP4 DUP2 MSTORE PUSH1 0x20 ADD SWAP1 DUP2 MSTORE PUSH1 0x20 ADD PUSH1 0x0 KECCAK256 PUSH1 0x0 ADD PUSH1 0x3 PUSH2 0x100 EXP DUP2 SLOAD DUP2 PUSH3 0xFFFFFF MUL NOT AND SWAP1 DUP4 PUSH3 0xFFFFFF AND MUL OR SWAP1 SSTORE POP PUSH2 0x1CE3 DUP11 DUP11 DUP1 DUP1 PUSH1 0x20 MUL PUSH1 0x20 ADD PUSH1 0x40 MLOAD SWAP1 DUP2 ADD PUSH1 0x40 MSTORE DUP1 SWAP4 SWAP3 SWAP2 SWAP1 DUP2 DUP2 MSTORE PUSH1 0x20 ADD DUP4 DUP4 PUSH1 0x20 MUL DUP1 DUP3 DUP5 CALLDATACOPY PUSH1 0x0 DUP2 DUP5 ADD MSTORE PUSH1 0x1F NOT PUSH1 0x1F DUP3 ADD AND SWAP1 POP DUP1 DUP4 ADD SWAP3 POP POP POP POP POP POP POP PUSH2 0x3F34 JUMP JUMPDEST PUSH1 0x14 PUSH1 0x0 DUP4 DUP2 MSTORE PUSH1 0x20 ADD SWAP1 DUP2 MSTORE PUSH1 0x20 ADD PUSH1 0x0 KECCAK256 PUSH1 0x0 ADD PUSH1 0x6 PUSH2 0x100 EXP DUP2 SLOAD DUP2 PUSH3 0xFFFFFF MUL NOT AND SWAP1 DUP4 PUSH3 0xFFFFFF AND MUL OR SWAP1 SSTORE POP DUP10 DUP10 SWAP1 POP PUSH1 0x14 PUSH1 0x0 DUP4 DUP2 MSTORE PUSH1 0x20 ADD SWAP1 DUP2 MSTORE PUSH1 0x20 ADD PUSH1 0x0 KECCAK256 PUSH1 0x1 ADD DUP2 SWAP1 SSTORE POP PUSH1 0x0 JUMPDEST DUP9 DUP9 SWAP1 POP DUP2 LT ISZERO PUSH2 0x1F06 JUMPI PUSH1 0x1 PUSH1 0x0 SWAP1 SLOAD SWAP1 PUSH2 0x100 EXP SWAP1 DIV PUSH20 0xFFFFFFFFFFFFFFFFFFFFFFFFFFFFFFFFFFFFFFFF AND PUSH20 0xFFFFFFFFFFFFFFFFFFFFFFFFFFFFFFFFFFFFFFFF AND PUSH4 0x42842E0E DUP9 ADDRESS DUP13 DUP13 DUP7 DUP2 DUP2 LT PUSH2 0x1D94 JUMPI PUSH2 0x1D93 PUSH2 0x58B0 JUMP JUMPDEST JUMPDEST SWAP1 POP PUSH1 0x20 MUL ADD CALLDATALOAD PUSH1 0x40 MLOAD DUP5 PUSH4 0xFFFFFFFF AND PUSH1 0xE0 SHL DUP2 MSTORE PUSH1 0x4 ADD PUSH2 0x1DB9 SWAP4 SWAP3 SWAP2 SWAP1 PUSH2 0x593A JUMP JUMPDEST PUSH1 0x0 PUSH1 0x40 MLOAD DUP1 DUP4 SUB DUP2 PUSH1 0x0 DUP8 DUP1 EXTCODESIZE ISZERO DUP1 ISZERO PUSH2 0x1DD3 JUMPI PUSH1 0x0 DUP1 REVERT JUMPDEST POP GAS CALL ISZERO DUP1 ISZERO PUSH2 0x1DE7 JUMPI RETURNDATASIZE PUSH1 0x0 DUP1 RETURNDATACOPY RETURNDATASIZE PUSH1 0x0 REVERT JUMPDEST POP POP POP POP DUP2 PUSH1 0x15 PUSH1 0x0 DUP12 DUP12 DUP6 DUP2 DUP2 LT PUSH2 0x1E03 JUMPI PUSH2 0x1E02 PUSH2 0x58B0 JUMP JUMPDEST JUMPDEST SWAP1 POP PUSH1 0x20 MUL ADD CALLDATALOAD DUP2 MSTORE PUSH1 0x20 ADD SWAP1 DUP2 MSTORE PUSH1 0x20 ADD PUSH1 0x0 KECCAK256 DUP2 SWAP1 SSTORE POP PUSH1 0x16 PUSH1 0x0 DUP13 DUP13 DUP5 DUP2 DUP2 LT PUSH2 0x1E33 JUMPI PUSH2 0x1E32 PUSH2 0x58B0 JUMP JUMPDEST JUMPDEST SWAP1 POP PUSH1 0x20 MUL ADD PUSH1 0x20 DUP2 ADD SWAP1 PUSH2 0x1E48 SWAP2 SWAP1 PUSH2 0x50D4 JUMP JUMPDEST PUSH3 0xFFFFFF AND PUSH3 0xFFFFFF AND DUP2 MSTORE PUSH1 0x20 ADD SWAP1 DUP2 MSTORE PUSH1 0x20 ADD PUSH1 0x0 KECCAK256 DUP3 SWAP1 DUP1 PUSH1 0x1 DUP2 SLOAD ADD DUP1 DUP3 SSTORE DUP1 SWAP2 POP POP PUSH1 0x1 SWAP1 SUB SWAP1 PUSH1 0x0 MSTORE PUSH1 0x20 PUSH1 0x0 KECCAK256 ADD PUSH1 0x0 SWAP1 SWAP2 SWAP1 SWAP2 SWAP1 SWAP2 POP SSTORE PUSH1 0x17 PUSH1 0x0 DUP13 DUP13 DUP5 DUP2 DUP2 LT PUSH2 0x1E9E JUMPI PUSH2 0x1E9D PUSH2 0x58B0 JUMP JUMPDEST JUMPDEST SWAP1 POP PUSH1 0x20 MUL ADD PUSH1 0x20 DUP2 ADD SWAP1 PUSH2 0x1EB3 SWAP2 SWAP1 PUSH2 0x50D4 JUMP JUMPDEST PUSH3 0xFFFFFF AND PUSH3 0xFFFFFF AND DUP2 MSTORE PUSH1 0x20 ADD SWAP1 DUP2 MSTORE PUSH1 0x20 ADD PUSH1 0x0 KECCAK256 PUSH1 0x0 SWAP1 DUP1 PUSH1 0x1 DUP2 SLOAD ADD DUP1 DUP3 SSTORE DUP1 SWAP2 POP POP PUSH1 0x1 SWAP1 SUB SWAP1 PUSH1 0x0 MSTORE PUSH1 0x20 PUSH1 0x0 KECCAK256 ADD PUSH1 0x0 SWAP1 SWAP2 SWAP1 SWAP2 SWAP1 SWAP2 POP SSTORE DUP1 DUP1 PUSH2 0x1EFE SWAP1 PUSH2 0x5AF2 JUMP JUMPDEST SWAP2 POP POP PUSH2 0x1D36 JUMP JUMPDEST POP DUP8 DUP8 PUSH1 0x13 PUSH1 0x0 DUP5 DUP2 MSTORE PUSH1 0x20 ADD SWAP1 DUP2 MSTORE PUSH1 0x20 ADD PUSH1 0x0 KECCAK256 SWAP2 SWAP1 PUSH2 0x1F29 SWAP3 SWAP2 SWAP1 PUSH2 0x4FAD JUMP JUMPDEST POP DUP2 PUSH1 0x0 ADD MLOAD PUSH3 0xFFFFFF AND DUP11 DUP11 PUSH1 0x0 DUP2 DUP2 LT PUSH2 0x1F48 JUMPI PUSH2 0x1F47 PUSH2 0x58B0 JUMP JUMPDEST JUMPDEST SWAP1 POP PUSH1 0x20 MUL ADD PUSH1 0x20 DUP2 ADD SWAP1 PUSH2 0x1F5D SWAP2 SWAP1 PUSH2 0x50D4 JUMP JUMPDEST PUSH3 0xFFFFFF AND LT ISZERO PUSH2 0x1FCD JUMPI DUP10 DUP10 PUSH1 0x0 DUP2 DUP2 LT PUSH2 0x1F7C JUMPI PUSH2 0x1F7B PUSH2 0x58B0 JUMP JUMPDEST JUMPDEST SWAP1 POP PUSH1 0x20 MUL ADD PUSH1 0x20 DUP2 ADD SWAP1 PUSH2 0x1F91 SWAP2 SWAP1 PUSH2 0x50D4 JUMP JUMPDEST PUSH1 0x40 MLOAD PUSH32 0xB42CD28700000000000000000000000000000000000000000000000000000000 DUP2 MSTORE PUSH1 0x4 ADD PUSH2 0x1FC4 SWAP2 SWAP1 PUSH2 0x5910 JUMP JUMPDEST PUSH1 0x40 MLOAD DUP1 SWAP2 SUB SWAP1 REVERT JUMPDEST PUSH1 0x0 DUP1 JUMPDEST DUP12 DUP12 SWAP1 POP DUP2 LT ISZERO PUSH2 0x21C1 JUMPI DUP12 DUP12 DUP3 DUP2 DUP2 LT PUSH2 0x1FEF JUMPI PUSH2 0x1FEE PUSH2 0x58B0 JUMP JUMPDEST JUMPDEST SWAP1 POP PUSH1 0x20 MUL ADD PUSH1 0x20 DUP2 ADD SWAP1 PUSH2 0x2004 SWAP2 SWAP1 PUSH2 0x50D4 JUMP JUMPDEST SWAP2 POP PUSH1 0x0 PUSH1 0x7 PUSH1 0x0 DUP5 PUSH3 0xFFFFFF AND DUP2 MSTORE PUSH1 0x20 ADD SWAP1 DUP2 MSTORE PUSH1 0x20 ADD PUSH1 0x0 KECCAK256 PUSH1 0x2 DUP1 PUSH1 0x20 MUL PUSH1 0x40 MLOAD SWAP1 DUP2 ADD PUSH1 0x40 MSTORE DUP1 SWAP3 SWAP2 SWAP1 DUP3 PUSH1 0x2 DUP1 ISZERO PUSH2 0x2057 JUMPI PUSH1 0x20 MUL DUP3 ADD SWAP2 JUMPDEST DUP2 SLOAD DUP2 MSTORE PUSH1 0x20 ADD SWAP1 PUSH1 0x1 ADD SWAP1 DUP1 DUP4 GT PUSH2 0x2043 JUMPI JUMPDEST POP POP POP POP POP SWAP1 POP PUSH1 0x0 DUP2 PUSH1 0x0 PUSH1 0x2 DUP2 LT PUSH2 0x2074 JUMPI PUSH2 0x2073 PUSH2 0x58B0 JUMP JUMPDEST JUMPDEST PUSH1 0x20 MUL ADD MLOAD EQ DUP1 ISZERO PUSH2 0x209E JUMPI POP PUSH1 0x0 DUP2 PUSH1 0x1 PUSH1 0x2 DUP2 LT PUSH2 0x2097 JUMPI PUSH2 0x2096 PUSH2 0x58B0 JUMP JUMPDEST JUMPDEST PUSH1 0x20 MUL ADD MLOAD EQ JUMPDEST ISZERO PUSH2 0x20BD JUMPI PUSH2 0x20BC DUP4 PUSH3 0xFFFFFF AND PUSH1 0x8 PUSH2 0x3866 SWAP1 SWAP2 SWAP1 PUSH4 0xFFFFFFFF AND JUMP JUMPDEST JUMPDEST PUSH1 0x0 DUP2 PUSH1 0x0 PUSH1 0x2 DUP2 LT PUSH2 0x20D3 JUMPI PUSH2 0x20D2 PUSH2 0x58B0 JUMP JUMPDEST JUMPDEST PUSH1 0x20 MUL ADD MLOAD EQ ISZERO PUSH2 0x20F8 JUMPI PUSH2 0x20F7 DUP4 PUSH3 0xFFFFFF AND PUSH1 0xB PUSH2 0x3866 SWAP1 SWAP2 SWAP1 PUSH4 0xFFFFFFFF AND JUMP JUMPDEST JUMPDEST PUSH8 0xDE0B6B3A7640000 PUSH14 0xFFFFFFFFFFFFFFFFFFFFFFFFFFFF AND DUP2 PUSH1 0x0 PUSH1 0x2 DUP2 LT PUSH2 0x2125 JUMPI PUSH2 0x2124 PUSH2 0x58B0 JUMP JUMPDEST JUMPDEST PUSH1 0x20 MUL ADD DUP2 DUP2 MLOAD PUSH2 0x2136 SWAP2 SWAP1 PUSH2 0x5A08 JUMP JUMPDEST SWAP2 POP DUP2 DUP2 MSTORE POP POP PUSH8 0xDE0B6B3A7640000 PUSH14 0xFFFFFFFFFFFFFFFFFFFFFFFFFFFF AND DUP6 PUSH1 0x40 ADD DUP2 DUP2 MLOAD ADD SWAP2 POP SWAP1 PUSH17 0xFFFFFFFFFFFFFFFFFFFFFFFFFFFFFFFFFF AND SWAP1 DUP2 PUSH17 0xFFFFFFFFFFFFFFFFFFFFFFFFFFFFFFFFFF AND DUP2 MSTORE POP POP DUP1 PUSH1 0x7 PUSH1 0x0 DUP6 PUSH3 0xFFFFFF AND DUP2 MSTORE PUSH1 0x20 ADD SWAP1 DUP2 MSTORE PUSH1 0x20 ADD PUSH1 0x0 KECCAK256 SWAP1 PUSH1 0x2 PUSH2 0x21B4 SWAP3 SWAP2 SWAP1 PUSH2 0x4F6D JUMP JUMPDEST POP DUP2 PUSH1 0x1 ADD SWAP2 POP POP PUSH2 0x1FD1 JUMP JUMPDEST POP PUSH2 0x21D9 PUSH1 0xB DUP5 PUSH1 0x8 PUSH2 0x3BCD SWAP1 SWAP3 SWAP2 SWAP1 PUSH4 0xFFFFFFFF AND JUMP JUMPDEST DUP5 PUSH1 0x0 ADD DUP6 PUSH1 0x20 ADD DUP3 PUSH3 0xFFFFFF AND PUSH3 0xFFFFFF AND DUP2 MSTORE POP DUP3 PUSH3 0xFFFFFF AND PUSH3 0xFFFFFF AND DUP2 MSTORE POP POP POP DUP3 PUSH1 0x3 PUSH1 0x0 DUP3 ADD MLOAD DUP2 PUSH1 0x0 ADD PUSH1 0x0 PUSH2 0x100 EXP DUP2 SLOAD DUP2 PUSH3 0xFFFFFF MUL NOT AND SWAP1 DUP4 PUSH3 0xFFFFFF AND MUL OR SWAP1 SSTORE POP PUSH1 0x20 DUP3 ADD MLOAD DUP2 PUSH1 0x0 ADD PUSH1 0x3 PUSH2 0x100 EXP DUP2 SLOAD DUP2 PUSH3 0xFFFFFF MUL NOT AND SWAP1 DUP4 PUSH3 0xFFFFFF AND MUL OR SWAP1 SSTORE POP PUSH1 0x40 DUP3 ADD MLOAD DUP2 PUSH1 0x0 ADD PUSH1 0x6 PUSH2 0x100 EXP DUP2 SLOAD DUP2 PUSH17 0xFFFFFFFFFFFFFFFFFFFFFFFFFFFFFFFFFF MUL NOT AND SWAP1 DUP4 PUSH17 0xFFFFFFFFFFFFFFFFFFFFFFFFFFFFFFFFFF AND MUL OR SWAP1 SSTORE POP PUSH1 0x60 DUP3 ADD MLOAD DUP2 PUSH1 0x1 ADD PUSH1 0x0 PUSH2 0x100 EXP DUP2 SLOAD DUP2 PUSH17 0xFFFFFFFFFFFFFFFFFFFFFFFFFFFFFFFFFF MUL NOT AND SWAP1 DUP4 PUSH17 0xFFFFFFFFFFFFFFFFFFFFFFFFFFFFFFFFFF AND MUL OR SWAP1 SSTORE POP PUSH1 0x80 DUP3 ADD MLOAD DUP2 PUSH1 0x2 ADD SSTORE PUSH1 0xA0 DUP3 ADD MLOAD DUP2 PUSH1 0x3 ADD SSTORE SWAP1 POP POP DUP11 DUP11 SWAP1 POP DUP3 SWAP5 POP SWAP5 POP POP POP POP PUSH1 0x1 PUSH1 0x0 DUP2 SWAP1 SSTORE POP SWAP7 POP SWAP7 SWAP5 POP POP POP POP POP JUMP JUMPDEST PUSH1 0x1 PUSH1 0x0 SLOAD EQ PUSH2 0x2340 JUMPI PUSH1 0x40 MLOAD PUSH32 0x802D9BF100000000000000000000000000000000000000000000000000000000 DUP2 MSTORE PUSH1 0x4 ADD PUSH1 0x40 MLOAD DUP1 SWAP2 SUB SWAP1 REVERT JUMPDEST PUSH1 0x2 PUSH1 0x0 DUP2 SWAP1 SSTORE POP PUSH1 0x0 PUSH1 0x3 PUSH1 0x40 MLOAD DUP1 PUSH1 0xC0 ADD PUSH1 0x40 MSTORE SWAP1 DUP2 PUSH1 0x0 DUP3 ADD PUSH1 0x0 SWAP1 SLOAD SWAP1 PUSH2 0x100 EXP SWAP1 DIV PUSH3 0xFFFFFF AND PUSH3 0xFFFFFF AND PUSH3 0xFFFFFF AND DUP2 MSTORE PUSH1 0x20 ADD PUSH1 0x0 DUP3 ADD PUSH1 0x3 SWAP1 SLOAD SWAP1 PUSH2 0x100 EXP SWAP1 DIV PUSH3 0xFFFFFF AND PUSH3 0xFFFFFF AND PUSH3 0xFFFFFF AND DUP2 MSTORE PUSH1 0x20 ADD PUSH1 0x0 DUP3 ADD PUSH1 0x6 SWAP1 SLOAD SWAP1 PUSH2 0x100 EXP SWAP1 DIV PUSH17 0xFFFFFFFFFFFFFFFFFFFFFFFFFFFFFFFFFF AND PUSH17 0xFFFFFFFFFFFFFFFFFFFFFFFFFFFFFFFFFF AND PUSH17 0xFFFFFFFFFFFFFFFFFFFFFFFFFFFFFFFFFF AND DUP2 MSTORE PUSH1 0x20 ADD PUSH1 0x1 DUP3 ADD PUSH1 0x0 SWAP1 SLOAD SWAP1 PUSH2 0x100 EXP SWAP1 DIV PUSH17 0xFFFFFFFFFFFFFFFFFFFFFFFFFFFFFFFFFF AND PUSH17 0xFFFFFFFFFFFFFFFFFFFFFFFFFFFFFFFFFF AND PUSH17 0xFFFFFFFFFFFFFFFFFFFFFFFFFFFFFFFFFF AND DUP2 MSTORE PUSH1 0x20 ADD PUSH1 0x2 DUP3 ADD SLOAD DUP2 MSTORE PUSH1 0x20 ADD PUSH1 0x3 DUP3 ADD SLOAD DUP2 MSTORE POP POP SWAP1 POP PUSH1 0x0 PUSH1 0x15 PUSH1 0x0 DUP6 DUP2 MSTORE PUSH1 0x20 ADD SWAP1 DUP2 MSTORE PUSH1 0x20 ADD PUSH1 0x0 KECCAK256 SLOAD SWAP1 POP PUSH1 0x0 PUSH1 0x13 PUSH1 0x0 DUP4 DUP2 MSTORE PUSH1 0x20 ADD SWAP1 DUP2 MSTORE PUSH1 0x20 ADD PUSH1 0x0 KECCAK256 DUP1 SLOAD DUP1 PUSH1 0x20 MUL PUSH1 0x20 ADD PUSH1 0x40 MLOAD SWAP1 DUP2 ADD PUSH1 0x40 MSTORE DUP1 SWAP3 SWAP2 SWAP1 DUP2 DUP2 MSTORE PUSH1 0x20 ADD DUP3 DUP1 SLOAD DUP1 ISZERO PUSH2 0x24C4 JUMPI PUSH1 0x20 MUL DUP3 ADD SWAP2 SWAP1 PUSH1 0x0 MSTORE PUSH1 0x20 PUSH1 0x0 KECCAK256 SWAP1 JUMPDEST DUP2 SLOAD DUP2 MSTORE PUSH1 0x20 ADD SWAP1 PUSH1 0x1 ADD SWAP1 DUP1 DUP4 GT PUSH2 0x24B0 JUMPI JUMPDEST POP POP POP POP POP SWAP1 POP PUSH1 0x0 PUSH1 0x14 PUSH1 0x0 DUP5 DUP2 MSTORE PUSH1 0x20 ADD SWAP1 DUP2 MSTORE PUSH1 0x20 ADD PUSH1 0x0 KECCAK256 PUSH1 0x0 ADD PUSH1 0x3 SWAP1 SLOAD SWAP1 PUSH2 0x100 EXP SWAP1 DIV PUSH3 0xFFFFFF AND SWAP1 POP PUSH1 0x1 PUSH1 0x0 SWAP1 SLOAD SWAP1 PUSH2 0x100 EXP SWAP1 DIV PUSH20 0xFFFFFFFFFFFFFFFFFFFFFFFFFFFFFFFFFFFFFFFF AND PUSH20 0xFFFFFFFFFFFFFFFFFFFFFFFFFFFFFFFFFFFFFFFF AND PUSH4 0x42842E0E ADDRESS DUP8 DUP10 PUSH1 0x40 MLOAD DUP5 PUSH4 0xFFFFFFFF AND PUSH1 0xE0 SHL DUP2 MSTORE PUSH1 0x4 ADD PUSH2 0x2554 SWAP4 SWAP3 SWAP2 SWAP1 PUSH2 0x593A JUMP JUMPDEST PUSH1 0x0 PUSH1 0x40 MLOAD DUP1 DUP4 SUB DUP2 PUSH1 0x0 DUP8 DUP1 EXTCODESIZE ISZERO DUP1 ISZERO PUSH2 0x256E JUMPI PUSH1 0x0 DUP1 REVERT JUMPDEST POP GAS CALL ISZERO DUP1 ISZERO PUSH2 0x2582 JUMPI RETURNDATASIZE PUSH1 0x0 DUP1 RETURNDATACOPY RETURNDATASIZE PUSH1 0x0 REVERT JUMPDEST POP POP POP POP PUSH1 0x14 PUSH1 0x0 DUP5 DUP2 MSTORE PUSH1 0x20 ADD SWAP1 DUP2 MSTORE PUSH1 0x20 ADD PUSH1 0x0 KECCAK256 PUSH1 0x0 ADD PUSH1 0x6 SWAP1 SLOAD SWAP1 PUSH2 0x100 EXP SWAP1 DIV PUSH3 0xFFFFFF AND PUSH1 0x14 PUSH1 0x0 DUP6 DUP2 MSTORE PUSH1 0x20 ADD SWAP1 DUP2 MSTORE PUSH1 0x20 ADD PUSH1 0x0 KECCAK256 PUSH1 0x0 ADD PUSH1 0x3 DUP3 DUP3 DUP3 SWAP1 SLOAD SWAP1 PUSH2 0x100 EXP SWAP1 DIV PUSH3 0xFFFFFF AND PUSH2 0x25DF SWAP2 SWAP1 PUSH2 0x5B9B JUMP JUMPDEST SWAP3 POP PUSH2 0x100 EXP DUP2 SLOAD DUP2 PUSH3 0xFFFFFF MUL NOT AND SWAP1 DUP4 PUSH3 0xFFFFFF AND MUL OR SWAP1 SSTORE POP PUSH1 0x0 PUSH1 0x1 PUSH1 0x2 DUP6 PUSH2 0x260C SWAP2 SWAP1 PUSH2 0x5B6A JUMP JUMPDEST EQ SWAP1 POP DUP1 PUSH2 0x262B JUMPI PUSH2 0x2629 DUP5 DUP4 PUSH8 0xDE0B6B3A7640000 PUSH1 0x0 PUSH2 0x372A JUMP JUMPDEST POP JUMPDEST PUSH1 0x0 PUSH2 0x2637 DUP5 DUP10 PUSH2 0x3F93 JUMP JUMPDEST SWAP1 POP PUSH2 0x2643 DUP5 DUP3 PUSH2 0x400D JUMP JUMPDEST PUSH1 0x13 PUSH1 0x0 DUP8 DUP2 MSTORE PUSH1 0x20 ADD SWAP1 DUP2 MSTORE PUSH1 0x20 ADD PUSH1 0x0 KECCAK256 SWAP1 DUP1 MLOAD SWAP1 PUSH1 0x20 ADD SWAP1 PUSH2 0x2669 SWAP3 SWAP2 SWAP1 PUSH2 0x4FFA JUMP JUMPDEST POP PUSH1 0x15 PUSH1 0x0 DUP10 DUP2 MSTORE PUSH1 0x20 ADD SWAP1 DUP2 MSTORE PUSH1 0x20 ADD PUSH1 0x0 KECCAK256 PUSH1 0x0 SWAP1 SSTORE PUSH1 0x0 PUSH1 0x7 PUSH1 0x0 DUP6 PUSH3 0xFFFFFF AND DUP2 MSTORE PUSH1 0x20 ADD SWAP1 DUP2 MSTORE PUSH1 0x20 ADD PUSH1 0x0 KECCAK256 PUSH1 0x2 DUP1 PUSH1 0x20 MUL PUSH1 0x40 MLOAD SWAP1 DUP2 ADD PUSH1 0x40 MSTORE DUP1 SWAP3 SWAP2 SWAP1 DUP3 PUSH1 0x2 DUP1 ISZERO PUSH2 0x26D2 JUMPI PUSH1 0x20 MUL DUP3 ADD SWAP2 JUMPDEST DUP2 SLOAD DUP2 MSTORE PUSH1 0x20 ADD SWAP1 PUSH1 0x1 ADD SWAP1 DUP1 DUP4 GT PUSH2 0x26BE JUMPI JUMPDEST POP POP POP POP POP SWAP1 POP PUSH1 0x0 PUSH2 0x26E9 DUP6 PUSH3 0xFFFFFF AND PUSH2 0x34DF JUMP JUMPDEST SWAP1 POP PUSH1 0x0 PUSH2 0x270B PUSH8 0xDE0B6B3A7640000 PUSH1 0x80 DUP5 PUSH2 0x354C SWAP1 SWAP3 SWAP2 SWAP1 PUSH4 0xFFFFFFFF AND JUMP JUMPDEST SWAP1 POP PUSH1 0x0 DUP1 PUSH2 0x2739 PUSH2 0x2728 DUP5 PUSH1 0xF SLOAD PUSH2 0x40E5 SWAP1 SWAP2 SWAP1 PUSH4 0xFFFFFFFF AND JUMP JUMPDEST PUSH1 0x10 SLOAD PUSH2 0x3664 SWAP1 SWAP2 SWAP1 PUSH4 0xFFFFFFFF AND JUMP JUMPDEST SWAP2 POP SWAP2 POP PUSH1 0x0 DUP3 DUP5 PUSH2 0x274B SWAP2 SWAP1 PUSH2 0x5A08 JUMP JUMPDEST SWAP1 POP DUP8 ISZERO PUSH2 0x278D JUMPI DUP5 PUSH1 0xE PUSH1 0x0 DUP14 DUP2 MSTORE PUSH1 0x20 ADD SWAP1 DUP2 MSTORE PUSH1 0x20 ADD PUSH1 0x0 KECCAK256 PUSH1 0x0 DUP3 DUP3 SLOAD PUSH2 0x2776 SWAP2 SWAP1 PUSH2 0x5A08 JUMP JUMPDEST SWAP3 POP POP DUP2 SWAP1 SSTORE POP PUSH2 0x2788 DUP13 DUP5 DUP6 PUSH2 0x392C JUMP JUMPDEST PUSH2 0x27CE JUMP JUMPDEST DUP2 DUP4 PUSH2 0x2799 SWAP2 SWAP1 PUSH2 0x59D4 JUMP JUMPDEST PUSH1 0xE PUSH1 0x0 DUP14 DUP2 MSTORE PUSH1 0x20 ADD SWAP1 DUP2 MSTORE PUSH1 0x20 ADD PUSH1 0x0 KECCAK256 PUSH1 0x0 DUP3 DUP3 SLOAD PUSH2 0x27BB SWAP2 SWAP1 PUSH2 0x5A08 JUMP JUMPDEST SWAP3 POP POP DUP2 SWAP1 SSTORE POP PUSH2 0x27CD DUP13 DUP5 DUP5 PUSH2 0x392C JUMP JUMPDEST JUMPDEST PUSH2 0x2800 DUP13 PUSH1 0x0 PUSH2 0x27DD DUP8 PUSH2 0x395A JUMP JUMPDEST PUSH2 0x27EE PUSH8 0xDE0B6B3A7640000 PUSH2 0x395A JUMP JUMPDEST DUP11 PUSH2 0x39B8 SWAP1 SWAP5 SWAP4 SWAP3 SWAP2 SWAP1 PUSH4 0xFFFFFFFF AND JUMP JUMPDEST PUSH1 0x0 DUP7 PUSH1 0x0 PUSH1 0x2 DUP2 LT PUSH2 0x2816 JUMPI PUSH2 0x2815 PUSH2 0x58B0 JUMP JUMPDEST JUMPDEST PUSH1 0x20 MUL ADD MLOAD EQ ISZERO PUSH2 0x283B JUMPI PUSH2 0x283A DUP10 PUSH3 0xFFFFFF AND PUSH1 0xB PUSH2 0x4135 SWAP1 SWAP2 SWAP1 PUSH4 0xFFFFFFFF AND JUMP JUMPDEST JUMPDEST PUSH1 0x0 DUP7 PUSH1 0x0 PUSH1 0x2 DUP2 LT PUSH2 0x2851 JUMPI PUSH2 0x2850 PUSH2 0x58B0 JUMP JUMPDEST JUMPDEST PUSH1 0x20 MUL ADD MLOAD EQ DUP1 ISZERO PUSH2 0x287B JUMPI POP PUSH1 0x0 DUP7 PUSH1 0x1 PUSH1 0x2 DUP2 LT PUSH2 0x2874 JUMPI PUSH2 0x2873 PUSH2 0x58B0 JUMP JUMPDEST JUMPDEST PUSH1 0x20 MUL ADD MLOAD EQ JUMPDEST ISZERO PUSH2 0x289A JUMPI PUSH2 0x2899 DUP10 PUSH3 0xFFFFFF AND PUSH1 0x8 PUSH2 0x4135 SWAP1 SWAP2 SWAP1 PUSH4 0xFFFFFFFF AND JUMP JUMPDEST JUMPDEST PUSH2 0x2902 DUP13 PUSH1 0x60 ADD MLOAD PUSH17 0xFFFFFFFFFFFFFFFFFFFFFFFFFFFFFFFFFF AND DUP14 PUSH1 0x80 ADD MLOAD PUSH1 0x2 PUSH1 0x0 SWAP1 SLOAD SWAP1 PUSH2 0x100 EXP SWAP1 DIV PUSH20 0xFFFFFFFFFFFFFFFFFFFFFFFFFFFFFFFFFFFFFFFF AND PUSH20 0xFFFFFFFFFFFFFFFFFFFFFFFFFFFFFFFFFFFFFFFF AND PUSH2 0x3E9D SWAP1 SWAP3 SWAP2 SWAP1 PUSH4 0xFFFFFFFF AND JUMP JUMPDEST DUP2 GT ISZERO PUSH2 0x2946 JUMPI DUP9 PUSH1 0x40 MLOAD PUSH32 0xB42CD28700000000000000000000000000000000000000000000000000000000 DUP2 MSTORE PUSH1 0x4 ADD PUSH2 0x293D SWAP2 SWAP1 PUSH2 0x5910 JUMP JUMPDEST PUSH1 0x40 MLOAD DUP1 SWAP2 SUB SWAP1 REVERT JUMPDEST PUSH2 0x295D PUSH1 0xB DUP14 PUSH1 0x8 PUSH2 0x3BCD SWAP1 SWAP3 SWAP2 SWAP1 PUSH4 0xFFFFFFFF AND JUMP JUMPDEST DUP14 PUSH1 0x0 ADD DUP15 PUSH1 0x20 ADD DUP3 PUSH3 0xFFFFFF AND PUSH3 0xFFFFFF AND DUP2 MSTORE POP DUP3 PUSH3 0xFFFFFF AND PUSH3 0xFFFFFF AND DUP2 MSTORE POP POP POP DUP6 PUSH1 0x7 PUSH1 0x0 DUP12 PUSH3 0xFFFFFF AND DUP2 MSTORE PUSH1 0x20 ADD SWAP1 DUP2 MSTORE PUSH1 0x20 ADD PUSH1 0x0 KECCAK256 SWAP1 PUSH1 0x2 PUSH2 0x29AA SWAP3 SWAP2 SWAP1 PUSH2 0x4F6D JUMP JUMPDEST POP DUP12 PUSH1 0x3 PUSH1 0x0 DUP3 ADD MLOAD DUP2 PUSH1 0x0 ADD PUSH1 0x0 PUSH2 0x100 EXP DUP2 SLOAD DUP2 PUSH3 0xFFFFFF MUL NOT AND SWAP1 DUP4 PUSH3 0xFFFFFF AND MUL OR SWAP1 SSTORE POP PUSH1 0x20 DUP3 ADD MLOAD DUP2 PUSH1 0x0 ADD PUSH1 0x3 PUSH2 0x100 EXP DUP2 SLOAD DUP2 PUSH3 0xFFFFFF MUL NOT AND SWAP1 DUP4 PUSH3 0xFFFFFF AND MUL OR SWAP1 SSTORE POP PUSH1 0x40 DUP3 ADD MLOAD DUP2 PUSH1 0x0 ADD PUSH1 0x6 PUSH2 0x100 EXP DUP2 SLOAD DUP2 PUSH17 0xFFFFFFFFFFFFFFFFFFFFFFFFFFFFFFFFFF MUL NOT AND SWAP1 DUP4 PUSH17 0xFFFFFFFFFFFFFFFFFFFFFFFFFFFFFFFFFF AND MUL OR SWAP1 SSTORE POP PUSH1 0x60 DUP3 ADD MLOAD DUP2 PUSH1 0x1 ADD PUSH1 0x0 PUSH2 0x100 EXP DUP2 SLOAD DUP2 PUSH17 0xFFFFFFFFFFFFFFFFFFFFFFFFFFFFFFFFFF MUL NOT AND SWAP1 DUP4 PUSH17 0xFFFFFFFFFFFFFFFFFFFFFFFFFFFFFFFFFF AND MUL OR SWAP1 SSTORE POP PUSH1 0x80 DUP3 ADD MLOAD DUP2 PUSH1 0x2 ADD SSTORE PUSH1 0xA0 DUP3 ADD MLOAD DUP2 PUSH1 0x3 ADD SSTORE SWAP1 POP POP POP POP POP POP POP POP POP POP POP POP POP POP PUSH1 0x1 PUSH1 0x0 DUP2 SWAP1 SSTORE POP POP POP JUMP JUMPDEST PUSH1 0x0 DUP1 PUSH1 0x1 PUSH1 0x0 SLOAD EQ PUSH2 0x2AE8 JUMPI PUSH1 0x40 MLOAD PUSH32 0x802D9BF100000000000000000000000000000000000000000000000000000000 DUP2 MSTORE PUSH1 0x4 ADD PUSH1 0x40 MLOAD DUP1 SWAP2 SUB SWAP1 REVERT JUMPDEST PUSH1 0x2 PUSH1 0x0 DUP2 SWAP1 SSTORE POP PUSH1 0x0 PUSH1 0x3 PUSH1 0x40 MLOAD DUP1 PUSH1 0xC0 ADD PUSH1 0x40 MSTORE SWAP1 DUP2 PUSH1 0x0 DUP3 ADD PUSH1 0x0 SWAP1 SLOAD SWAP1 PUSH2 0x100 EXP SWAP1 DIV PUSH3 0xFFFFFF AND PUSH3 0xFFFFFF AND PUSH3 0xFFFFFF AND DUP2 MSTORE PUSH1 0x20 ADD PUSH1 0x0 DUP3 ADD PUSH1 0x3 SWAP1 SLOAD SWAP1 PUSH2 0x100 EXP SWAP1 DIV PUSH3 0xFFFFFF AND PUSH3 0xFFFFFF AND PUSH3 0xFFFFFF AND DUP2 MSTORE PUSH1 0x20 ADD PUSH1 0x0 DUP3 ADD PUSH1 0x6 SWAP1 SLOAD SWAP1 PUSH2 0x100 EXP SWAP1 DIV PUSH17 0xFFFFFFFFFFFFFFFFFFFFFFFFFFFFFFFFFF AND PUSH17 0xFFFFFFFFFFFFFFFFFFFFFFFFFFFFFFFFFF AND PUSH17 0xFFFFFFFFFFFFFFFFFFFFFFFFFFFFFFFFFF AND DUP2 MSTORE PUSH1 0x20 ADD PUSH1 0x1 DUP3 ADD PUSH1 0x0 SWAP1 SLOAD SWAP1 PUSH2 0x100 EXP SWAP1 DIV PUSH17 0xFFFFFFFFFFFFFFFFFFFFFFFFFFFFFFFFFF AND PUSH17 0xFFFFFFFFFFFFFFFFFFFFFFFFFFFFFFFFFF AND PUSH17 0xFFFFFFFFFFFFFFFFFFFFFFFFFFFFFFFFFF AND DUP2 MSTORE PUSH1 0x20 ADD PUSH1 0x2 DUP3 ADD SLOAD DUP2 MSTORE PUSH1 0x20 ADD PUSH1 0x3 DUP3 ADD SLOAD DUP2 MSTORE POP POP SWAP1 POP PUSH1 0x60 DUP1 PUSH1 0x0 PUSH1 0x13 PUSH1 0x0 DUP10 DUP2 MSTORE PUSH1 0x20 ADD SWAP1 DUP2 MSTORE PUSH1 0x20 ADD PUSH1 0x0 KECCAK256 DUP1 SLOAD DUP1 PUSH1 0x20 MUL PUSH1 0x20 ADD PUSH1 0x40 MLOAD SWAP1 DUP2 ADD PUSH1 0x40 MSTORE DUP1 SWAP3 SWAP2 SWAP1 DUP2 DUP2 MSTORE PUSH1 0x20 ADD DUP3 DUP1 SLOAD DUP1 ISZERO PUSH2 0x2C57 JUMPI PUSH1 0x20 MUL DUP3 ADD SWAP2 SWAP1 PUSH1 0x0 MSTORE PUSH1 0x20 PUSH1 0x0 KECCAK256 SWAP1 JUMPDEST DUP2 SLOAD DUP2 MSTORE PUSH1 0x20 ADD SWAP1 PUSH1 0x1 ADD SWAP1 DUP1 DUP4 GT PUSH2 0x2C43 JUMPI JUMPDEST POP POP POP POP POP SWAP1 POP PUSH1 0x0 JUMPDEST DUP2 MLOAD DUP2 LT ISZERO PUSH2 0x2D59 JUMPI PUSH1 0x1 PUSH1 0x0 SWAP1 SLOAD SWAP1 PUSH2 0x100 EXP SWAP1 DIV PUSH20 0xFFFFFFFFFFFFFFFFFFFFFFFFFFFFFFFFFFFFFFFF AND PUSH20 0xFFFFFFFFFFFFFFFFFFFFFFFFFFFFFFFFFFFFFFFF AND PUSH4 0x42842E0E ADDRESS DUP11 DUP6 DUP6 DUP2 MLOAD DUP2 LT PUSH2 0x2CBD JUMPI PUSH2 0x2CBC PUSH2 0x58B0 JUMP JUMPDEST JUMPDEST PUSH1 0x20 MUL PUSH1 0x20 ADD ADD MLOAD PUSH1 0x40 MLOAD DUP5 PUSH4 0xFFFFFFFF AND PUSH1 0xE0 SHL DUP2 MSTORE PUSH1 0x4 ADD PUSH2 0x2CE3 SWAP4 SWAP3 SWAP2 SWAP1 PUSH2 0x593A JUMP JUMPDEST PUSH1 0x0 PUSH1 0x40 MLOAD DUP1 DUP4 SUB DUP2 PUSH1 0x0 DUP8 DUP1 EXTCODESIZE ISZERO DUP1 ISZERO PUSH2 0x2CFD JUMPI PUSH1 0x0 DUP1 REVERT JUMPDEST POP GAS CALL ISZERO DUP1 ISZERO PUSH2 0x2D11 JUMPI RETURNDATASIZE PUSH1 0x0 DUP1 RETURNDATACOPY RETURNDATASIZE PUSH1 0x0 REVERT JUMPDEST POP POP POP POP PUSH1 0x15 PUSH1 0x0 DUP4 DUP4 DUP2 MLOAD DUP2 LT PUSH2 0x2D2C JUMPI PUSH2 0x2D2B PUSH2 0x58B0 JUMP JUMPDEST JUMPDEST PUSH1 0x20 MUL PUSH1 0x20 ADD ADD MLOAD DUP2 MSTORE PUSH1 0x20 ADD SWAP1 DUP2 MSTORE PUSH1 0x20 ADD PUSH1 0x0 KECCAK256 PUSH1 0x0 SWAP1 SSTORE DUP1 DUP1 PUSH2 0x2D51 SWAP1 PUSH2 0x5AF2 JUMP JUMPDEST SWAP2 POP POP PUSH2 0x2C61 JUMP JUMPDEST POP PUSH1 0x0 PUSH1 0x14 PUSH1 0x0 DUP11 DUP2 MSTORE PUSH1 0x20 ADD SWAP1 DUP2 MSTORE PUSH1 0x20 ADD PUSH1 0x0 KECCAK256 PUSH1 0x1 ADD SLOAD SWAP1 POP PUSH1 0x0 PUSH1 0x14 PUSH1 0x0 DUP12 DUP2 MSTORE PUSH1 0x20 ADD SWAP1 DUP2 MSTORE PUSH1 0x20 ADD PUSH1 0x0 KECCAK256 PUSH1 0x0 ADD PUSH1 0x0 SWAP1 SLOAD SWAP1 PUSH2 0x100 EXP SWAP1 DIV PUSH3 0xFFFFFF AND SWAP1 POP PUSH1 0x0 PUSH1 0x14 PUSH1 0x0 DUP13 DUP2 MSTORE PUSH1 0x20 ADD SWAP1 DUP2 MSTORE PUSH1 0x20 ADD PUSH1 0x0 KECCAK256 PUSH1 0x0 ADD PUSH1 0x6 SWAP1 SLOAD SWAP1 PUSH2 0x100 EXP SWAP1 DIV PUSH3 0xFFFFFF AND SWAP1 POP PUSH1 0x0 DUP5 MLOAD DUP5 PUSH2 0x2DD8 SWAP2 SWAP1 PUSH2 0x59D4 JUMP JUMPDEST SWAP1 POP PUSH1 0x0 JUMPDEST DUP5 DUP2 PUSH3 0xFFFFFF AND LT ISZERO PUSH2 0x2EB4 JUMPI PUSH1 0x0 DUP4 DUP3 PUSH2 0x2DF8 SWAP2 SWAP1 PUSH2 0x5BD4 JUMP JUMPDEST DUP6 PUSH2 0x2E03 SWAP2 SWAP1 PUSH2 0x5B9B JUMP JUMPDEST SWAP1 POP DUP1 DUP10 DUP11 MLOAD DUP2 MLOAD DUP2 LT PUSH2 0x2E1A JUMPI PUSH2 0x2E19 PUSH2 0x58B0 JUMP JUMPDEST JUMPDEST PUSH1 0x20 MUL PUSH1 0x20 ADD ADD SWAP1 PUSH3 0xFFFFFF AND SWAP1 DUP2 PUSH3 0xFFFFFF AND DUP2 MSTORE POP POP PUSH2 0x2E3C DUP15 DUP3 PUSH2 0x42BC JUMP JUMPDEST POP DUP3 DUP3 PUSH3 0xFFFFFF AND LT ISZERO PUSH2 0x2E77 JUMPI PUSH1 0x0 DUP9 DUP10 MLOAD DUP2 MLOAD DUP2 LT PUSH2 0x2E60 JUMPI PUSH2 0x2E5F PUSH2 0x58B0 JUMP JUMPDEST JUMPDEST PUSH1 0x20 MUL PUSH1 0x20 ADD ADD SWAP1 ISZERO ISZERO SWAP1 DUP2 ISZERO ISZERO DUP2 MSTORE POP POP PUSH2 0x2EA0 JUMP JUMPDEST PUSH1 0x1 DUP9 DUP10 MLOAD DUP2 MLOAD DUP2 LT PUSH2 0x2E8D JUMPI PUSH2 0x2E8C PUSH2 0x58B0 JUMP JUMPDEST JUMPDEST PUSH1 0x20 MUL PUSH1 0x20 ADD ADD SWAP1 ISZERO ISZERO SWAP1 DUP2 ISZERO ISZERO DUP2 MSTORE POP POP JUMPDEST POP DUP1 DUP1 PUSH2 0x2EAC SWAP1 PUSH2 0x5C11 JUMP JUMPDEST SWAP2 POP POP PUSH2 0x2DDD JUMP JUMPDEST POP PUSH1 0x13 PUSH1 0x0 DUP14 DUP2 MSTORE PUSH1 0x20 ADD SWAP1 DUP2 MSTORE PUSH1 0x20 ADD PUSH1 0x0 KECCAK256 PUSH1 0x0 PUSH2 0x2ED4 SWAP2 SWAP1 PUSH2 0x5047 JUMP JUMPDEST PUSH1 0x14 PUSH1 0x0 DUP14 DUP2 MSTORE PUSH1 0x20 ADD SWAP1 DUP2 MSTORE PUSH1 0x20 ADD PUSH1 0x0 KECCAK256 PUSH1 0x0 DUP1 DUP3 ADD PUSH1 0x0 PUSH2 0x100 EXP DUP2 SLOAD SWAP1 PUSH3 0xFFFFFF MUL NOT AND SWAP1 SSTORE PUSH1 0x0 DUP3 ADD PUSH1 0x3 PUSH2 0x100 EXP DUP2 SLOAD SWAP1 PUSH3 0xFFFFFF MUL NOT AND SWAP1 SSTORE PUSH1 0x0 DUP3 ADD PUSH1 0x6 PUSH2 0x100 EXP DUP2 SLOAD SWAP1 PUSH3 0xFFFFFF MUL NOT AND SWAP1 SSTORE PUSH1 0x1 DUP3 ADD PUSH1 0x0 SWAP1 SSTORE POP POP PUSH1 0x0 JUMPDEST DUP8 MLOAD DUP2 LT ISZERO PUSH2 0x31F9 JUMPI PUSH1 0x0 DUP9 DUP3 DUP2 MLOAD DUP2 LT PUSH2 0x2F55 JUMPI PUSH2 0x2F54 PUSH2 0x58B0 JUMP JUMPDEST JUMPDEST PUSH1 0x20 MUL PUSH1 0x20 ADD ADD MLOAD SWAP1 POP PUSH1 0x0 PUSH1 0x7 PUSH1 0x0 DUP4 PUSH3 0xFFFFFF AND DUP2 MSTORE PUSH1 0x20 ADD SWAP1 DUP2 MSTORE PUSH1 0x20 ADD PUSH1 0x0 KECCAK256 PUSH1 0x2 DUP1 PUSH1 0x20 MUL PUSH1 0x40 MLOAD SWAP1 DUP2 ADD PUSH1 0x40 MSTORE DUP1 SWAP3 SWAP2 SWAP1 DUP3 PUSH1 0x2 DUP1 ISZERO PUSH2 0x2FB0 JUMPI PUSH1 0x20 MUL DUP3 ADD SWAP2 JUMPDEST DUP2 SLOAD DUP2 MSTORE PUSH1 0x20 ADD SWAP1 PUSH1 0x1 ADD SWAP1 DUP1 DUP4 GT PUSH2 0x2F9C JUMPI JUMPDEST POP POP POP POP POP SWAP1 POP DUP9 DUP4 DUP2 MLOAD DUP2 LT PUSH2 0x2FCA JUMPI PUSH2 0x2FC9 PUSH2 0x58B0 JUMP JUMPDEST JUMPDEST PUSH1 0x20 MUL PUSH1 0x20 ADD ADD MLOAD ISZERO PUSH2 0x30B0 JUMPI PUSH8 0xDE0B6B3A7640000 DUP14 ADD SWAP13 POP PUSH2 0x2FF5 PUSH8 0xDE0B6B3A7640000 PUSH2 0x395A JUMP JUMPDEST PUSH14 0xFFFFFFFFFFFFFFFFFFFFFFFFFFFF AND DUP2 PUSH1 0x0 PUSH1 0x2 DUP2 LT PUSH2 0x3019 JUMPI PUSH2 0x3018 PUSH2 0x58B0 JUMP JUMPDEST JUMPDEST PUSH1 0x20 MUL ADD DUP2 DUP2 MLOAD SUB SWAP2 POP DUP2 DUP2 MSTORE POP POP PUSH2 0x3039 PUSH8 0xDE0B6B3A7640000 PUSH2 0x448D JUMP JUMPDEST DUP12 PUSH1 0x40 ADD DUP2 DUP2 MLOAD SUB SWAP2 POP SWAP1 PUSH17 0xFFFFFFFFFFFFFFFFFFFFFFFFFFFFFFFFFF AND SWAP1 DUP2 PUSH17 0xFFFFFFFFFFFFFFFFFFFFFFFFFFFFFFFFFF AND DUP2 MSTORE POP POP PUSH1 0x0 DUP2 PUSH1 0x0 PUSH1 0x2 DUP2 LT PUSH2 0x3086 JUMPI PUSH2 0x3085 PUSH2 0x58B0 JUMP JUMPDEST JUMPDEST PUSH1 0x20 MUL ADD MLOAD EQ ISZERO PUSH2 0x30AB JUMPI PUSH2 0x30AA DUP3 PUSH3 0xFFFFFF AND PUSH1 0xB PUSH2 0x4135 SWAP1 SWAP2 SWAP1 PUSH4 0xFFFFFFFF AND JUMP JUMPDEST JUMPDEST PUSH2 0x3165 JUMP JUMPDEST PUSH1 0x0 PUSH2 0x30C0 DUP4 PUSH3 0xFFFFFF AND PUSH2 0x34DF JUMP JUMPDEST SWAP1 POP PUSH2 0x30E0 PUSH8 0xDE0B6B3A7640000 PUSH1 0x80 DUP4 PUSH2 0x354C SWAP1 SWAP3 SWAP2 SWAP1 PUSH4 0xFFFFFFFF AND JUMP JUMPDEST SWAP1 POP DUP1 DUP14 ADD SWAP13 POP PUSH2 0x30F0 DUP2 PUSH2 0x395A JUMP JUMPDEST PUSH14 0xFFFFFFFFFFFFFFFFFFFFFFFFFFFF AND DUP3 PUSH1 0x1 PUSH1 0x2 DUP2 LT PUSH2 0x3114 JUMPI PUSH2 0x3113 PUSH2 0x58B0 JUMP JUMPDEST JUMPDEST PUSH1 0x20 MUL ADD DUP2 DUP2 MLOAD SUB SWAP2 POP DUP2 DUP2 MSTORE POP POP PUSH2 0x312C DUP2 PUSH2 0x448D JUMP JUMPDEST DUP13 PUSH1 0x60 ADD DUP2 DUP2 MLOAD SUB SWAP2 POP SWAP1 PUSH17 0xFFFFFFFFFFFFFFFFFFFFFFFFFFFFFFFFFF AND SWAP1 DUP2 PUSH17 0xFFFFFFFFFFFFFFFFFFFFFFFFFFFFFFFFFF AND DUP2 MSTORE POP POP POP JUMPDEST PUSH1 0x0 DUP2 PUSH1 0x0 PUSH1 0x2 DUP2 LT PUSH2 0x317B JUMPI PUSH2 0x317A PUSH2 0x58B0 JUMP JUMPDEST JUMPDEST PUSH1 0x20 MUL ADD MLOAD EQ DUP1 ISZERO PUSH2 0x31A5 JUMPI POP PUSH1 0x0 DUP2 PUSH1 0x1 PUSH1 0x2 DUP2 LT PUSH2 0x319E JUMPI PUSH2 0x319D PUSH2 0x58B0 JUMP JUMPDEST JUMPDEST PUSH1 0x20 MUL ADD MLOAD EQ JUMPDEST ISZERO PUSH2 0x31C4 JUMPI PUSH2 0x31C3 DUP3 PUSH3 0xFFFFFF AND PUSH1 0x8 PUSH2 0x4135 SWAP1 SWAP2 SWAP1 PUSH4 0xFFFFFFFF AND JUMP JUMPDEST JUMPDEST DUP1 PUSH1 0x7 PUSH1 0x0 DUP5 PUSH3 0xFFFFFF AND DUP2 MSTORE PUSH1 0x20 ADD SWAP1 DUP2 MSTORE PUSH1 0x20 ADD PUSH1 0x0 KECCAK256 SWAP1 PUSH1 0x2 PUSH2 0x31EB SWAP3 SWAP2 SWAP1 PUSH2 0x4F6D JUMP JUMPDEST POP POP POP DUP1 PUSH1 0x1 ADD SWAP1 POP PUSH2 0x2F37 JUMP JUMPDEST POP PUSH2 0x3211 PUSH1 0xB DUP10 PUSH1 0x8 PUSH2 0x3BCD SWAP1 SWAP3 SWAP2 SWAP1 PUSH4 0xFFFFFFFF AND JUMP JUMPDEST DUP10 PUSH1 0x0 ADD DUP11 PUSH1 0x20 ADD DUP3 PUSH3 0xFFFFFF AND PUSH3 0xFFFFFF AND DUP2 MSTORE POP DUP3 PUSH3 0xFFFFFF AND PUSH3 0xFFFFFF AND DUP2 MSTORE POP POP POP DUP8 PUSH1 0x3 PUSH1 0x0 DUP3 ADD MLOAD DUP2 PUSH1 0x0 ADD PUSH1 0x0 PUSH2 0x100 EXP DUP2 SLOAD DUP2 PUSH3 0xFFFFFF MUL NOT AND SWAP1 DUP4 PUSH3 0xFFFFFF AND MUL OR SWAP1 SSTORE POP PUSH1 0x20 DUP3 ADD MLOAD DUP2 PUSH1 0x0 ADD PUSH1 0x3 PUSH2 0x100 EXP DUP2 SLOAD DUP2 PUSH3 0xFFFFFF MUL NOT AND SWAP1 DUP4 PUSH3 0xFFFFFF AND MUL OR SWAP1 SSTORE POP PUSH1 0x40 DUP3 ADD MLOAD DUP2 PUSH1 0x0 ADD PUSH1 0x6 PUSH2 0x100 EXP DUP2 SLOAD DUP2 PUSH17 0xFFFFFFFFFFFFFFFFFFFFFFFFFFFFFFFFFF MUL NOT AND SWAP1 DUP4 PUSH17 0xFFFFFFFFFFFFFFFFFFFFFFFFFFFFFFFFFF AND MUL OR SWAP1 SSTORE POP PUSH1 0x60 DUP3 ADD MLOAD DUP2 PUSH1 0x1 ADD PUSH1 0x0 PUSH2 0x100 EXP DUP2 SLOAD DUP2 PUSH17 0xFFFFFFFFFFFFFFFFFFFFFFFFFFFFFFFFFF MUL NOT AND SWAP1 DUP4 PUSH17 0xFFFFFFFFFFFFFFFFFFFFFFFFFFFFFFFFFF AND MUL OR SWAP1 SSTORE POP PUSH1 0x80 DUP3 ADD MLOAD DUP2 PUSH1 0x2 ADD SSTORE PUSH1 0xA0 DUP3 ADD MLOAD DUP2 PUSH1 0x3 ADD SSTORE SWAP1 POP POP PUSH1 0x0 PUSH1 0xE PUSH1 0x0 DUP15 DUP2 MSTORE PUSH1 0x20 ADD SWAP1 DUP2 MSTORE PUSH1 0x20 ADD PUSH1 0x0 KECCAK256 SLOAD SWAP1 POP PUSH1 0x0 DUP2 EQ PUSH2 0x33BE JUMPI PUSH1 0xE PUSH1 0x0 DUP15 DUP2 MSTORE PUSH1 0x20 ADD SWAP1 DUP2 MSTORE PUSH1 0x20 ADD PUSH1 0x0 KECCAK256 PUSH1 0x0 SWAP1 SSTORE DUP1 PUSH1 0x3 PUSH1 0x2 ADD PUSH1 0x0 DUP3 DUP3 SLOAD PUSH2 0x3369 SWAP2 SWAP1 PUSH2 0x59D4 JUMP JUMPDEST SWAP3 POP POP DUP2 SWAP1 SSTORE POP PUSH2 0x33BD DUP13 DUP3 PUSH1 0x2 PUSH1 0x0 SWAP1 SLOAD SWAP1 PUSH2 0x100 EXP SWAP1 DIV PUSH20 0xFFFFFFFFFFFFFFFFFFFFFFFFFFFFFFFFFFFFFFFF AND PUSH20 0xFFFFFFFFFFFFFFFFFFFFFFFFFFFFFFFFFFFFFFFF AND PUSH2 0x3C6A SWAP1 SWAP3 SWAP2 SWAP1 PUSH4 0xFFFFFFFF AND JUMP JUMPDEST JUMPDEST PUSH2 0x340B DUP13 DUP12 PUSH1 0x2 PUSH1 0x0 SWAP1 SLOAD SWAP1 PUSH2 0x100 EXP SWAP1 DIV PUSH20 0xFFFFFFFFFFFFFFFFFFFFFFFFFFFFFFFFFFFFFFFF AND PUSH20 0xFFFFFFFFFFFFFFFFFFFFFFFFFFFFFFFFFFFFFFFF AND PUSH2 0x3C6A SWAP1 SWAP3 SWAP2 SWAP1 PUSH4 0xFFFFFFFF AND JUMP JUMPDEST PUSH1 0x12 PUSH1 0x0 SWAP1 SLOAD SWAP1 PUSH2 0x100 EXP SWAP1 DIV PUSH20 0xFFFFFFFFFFFFFFFFFFFFFFFFFFFFFFFFFFFFFFFF AND PUSH20 0xFFFFFFFFFFFFFFFFFFFFFFFFFFFFFFFFFFFFFFFF AND PUSH4 0x42966C68 DUP15 PUSH1 0x40 MLOAD DUP3 PUSH4 0xFFFFFFFF AND PUSH1 0xE0 SHL DUP2 MSTORE PUSH1 0x4 ADD PUSH2 0x3466 SWAP2 SWAP1 PUSH2 0x54EB JUMP JUMPDEST PUSH1 0x0 PUSH1 0x40 MLOAD DUP1 DUP4 SUB DUP2 PUSH1 0x0 DUP8 DUP1 EXTCODESIZE ISZERO DUP1 ISZERO PUSH2 0x3480 JUMPI PUSH1 0x0 DUP1 REVERT JUMPDEST POP GAS CALL ISZERO DUP1 ISZERO PUSH2 0x3494 JUMPI RETURNDATASIZE PUSH1 0x0 DUP1 RETURNDATACOPY RETURNDATASIZE PUSH1 0x0 REVERT JUMPDEST POP POP POP POP POP POP POP POP POP POP POP POP POP PUSH1 0x1 PUSH1 0x0 DUP2 SWAP1 SSTORE POP SWAP3 POP SWAP3 SWAP1 POP JUMP JUMPDEST PUSH1 0x0 PUSH1 0xE PUSH1 0x0 DUP4 DUP2 MSTORE PUSH1 0x20 ADD SWAP1 DUP2 MSTORE PUSH1 0x20 ADD PUSH1 0x0 KECCAK256 SLOAD SWAP1 POP SWAP2 SWAP1 POP JUMP JUMPDEST PUSH1 0x0 PUSH2 0x34D8 DUP3 PUSH2 0x3D5D JUMP JUMPDEST SWAP1 POP SWAP2 SWAP1 POP JUMP JUMPDEST PUSH1 0x0 PUSH3 0xFFFFFF DUP1 AND DUP3 GT ISZERO PUSH2 0x3520 JUMPI PUSH1 0x40 MLOAD PUSH32 0x58F62EAC00000000000000000000000000000000000000000000000000000000 DUP2 MSTORE PUSH1 0x4 ADD PUSH1 0x40 MLOAD DUP1 SWAP2 SUB SWAP1 REVERT JUMPDEST PUSH1 0x0 PUSH3 0x800000 DUP4 SUB SWAP1 POP PUSH2 0x3544 DUP2 PUSH2 0x3536 PUSH2 0x44EE JUMP JUMPDEST PUSH2 0x4514 SWAP1 SWAP2 SWAP1 PUSH4 0xFFFFFFFF AND JUMP JUMPDEST SWAP2 POP POP SWAP2 SWAP1 POP JUMP JUMPDEST PUSH1 0x0 PUSH1 0xFF DUP3 GT ISZERO PUSH2 0x3594 JUMPI DUP2 PUSH1 0x40 MLOAD PUSH32 0xB72ECF5000000000000000000000000000000000000000000000000000000000 DUP2 MSTORE PUSH1 0x4 ADD PUSH2 0x358B SWAP2 SWAP1 PUSH2 0x54EB JUMP JUMPDEST PUSH1 0x40 MLOAD DUP1 SWAP2 SUB SWAP1 REVERT JUMPDEST PUSH1 0x0 DUP1 PUSH2 0x35A1 DUP7 DUP7 PUSH2 0x481C JUMP JUMPDEST SWAP2 POP SWAP2 POP PUSH1 0x0 DUP3 EQ PUSH2 0x35B4 JUMPI DUP4 DUP3 SWAP1 SHR SWAP3 POP JUMPDEST PUSH1 0x0 DUP2 EQ PUSH2 0x3613 JUMPI DUP4 PUSH1 0x1 SWAP1 SHL DUP2 LT PUSH2 0x3606 JUMPI DUP1 DUP5 PUSH1 0x40 MLOAD PUSH32 0x3D90990F00000000000000000000000000000000000000000000000000000000 DUP2 MSTORE PUSH1 0x4 ADD PUSH2 0x35FD SWAP3 SWAP2 SWAP1 PUSH2 0x511A JUMP JUMPDEST PUSH1 0x40 MLOAD DUP1 SWAP2 SUB SWAP1 REVERT JUMPDEST DUP4 PUSH2 0x100 SUB DUP2 SWAP1 SHL DUP4 ADD SWAP3 POP JUMPDEST POP POP SWAP4 SWAP3 POP POP POP JUMP JUMPDEST PUSH1 0x0 PUSH8 0xDE0B6B3A7640000 PUSH1 0x1 PUSH8 0xDE0B6B3A7640000 DUP6 DUP6 PUSH2 0x363E SWAP2 SWAP1 PUSH2 0x5C3D JUMP JUMPDEST PUSH2 0x3648 SWAP2 SWAP1 PUSH2 0x5A08 JUMP JUMPDEST PUSH2 0x3652 SWAP2 SWAP1 PUSH2 0x59D4 JUMP JUMPDEST PUSH2 0x365C SWAP2 SWAP1 PUSH2 0x5C97 JUMP JUMPDEST SWAP1 POP SWAP3 SWAP2 POP POP JUMP JUMPDEST PUSH1 0x0 DUP1 DUP3 SWAP2 POP PUSH2 0x2710 DUP5 DUP5 MUL DUP2 PUSH2 0x367E JUMPI PUSH2 0x367D PUSH2 0x5B3B JUMP JUMPDEST JUMPDEST DIV SWAP1 POP SWAP3 POP SWAP3 SWAP1 POP JUMP JUMPDEST PUSH1 0x0 DUP1 PUSH1 0x0 SWAP1 POP JUMPDEST DUP3 MLOAD DUP2 LT ISZERO PUSH2 0x3700 JUMPI PUSH1 0x0 DUP4 DUP3 DUP2 MLOAD DUP2 LT PUSH2 0x36AE JUMPI PUSH2 0x36AD PUSH2 0x58B0 JUMP JUMPDEST JUMPDEST PUSH1 0x20 MUL PUSH1 0x20 ADD ADD MLOAD EQ ISZERO DUP1 ISZERO PUSH2 0x36DF JUMPI POP PUSH1 0x1 DUP4 DUP3 DUP2 MLOAD DUP2 LT PUSH2 0x36D4 JUMPI PUSH2 0x36D3 PUSH2 0x58B0 JUMP JUMPDEST JUMPDEST PUSH1 0x20 MUL PUSH1 0x20 ADD ADD MLOAD LT ISZERO JUMPDEST ISZERO PUSH2 0x36ED JUMPI DUP1 SWAP2 POP POP PUSH2 0x3725 JUMP JUMPDEST DUP1 DUP1 PUSH2 0x36F8 SWAP1 PUSH2 0x5AF2 JUMP JUMPDEST SWAP2 POP POP PUSH2 0x3690 JUMP JUMPDEST POP PUSH32 0xFFFFFFFFFFFFFFFFFFFFFFFFFFFFFFFFFFFFFFFFFFFFFFFFFFFFFFFFFFFFFFFF SWAP1 POP JUMPDEST SWAP2 SWAP1 POP JUMP JUMPDEST PUSH1 0x0 DUP1 PUSH2 0x37A2 PUSH1 0x16 PUSH1 0x0 DUP8 PUSH3 0xFFFFFF AND PUSH3 0xFFFFFF AND DUP2 MSTORE PUSH1 0x20 ADD SWAP1 DUP2 MSTORE PUSH1 0x20 ADD PUSH1 0x0 KECCAK256 DUP1 SLOAD DUP1 PUSH1 0x20 MUL PUSH1 0x20 ADD PUSH1 0x40 MLOAD SWAP1 DUP2 ADD PUSH1 0x40 MSTORE DUP1 SWAP3 SWAP2 SWAP1 DUP2 DUP2 MSTORE PUSH1 0x20 ADD DUP3 DUP1 SLOAD DUP1 ISZERO PUSH2 0x3797 JUMPI PUSH1 0x20 MUL DUP3 ADD SWAP2 SWAP1 PUSH1 0x0 MSTORE PUSH1 0x20 PUSH1 0x0 KECCAK256 SWAP1 JUMPDEST DUP2 SLOAD DUP2 MSTORE PUSH1 0x20 ADD SWAP1 PUSH1 0x1 ADD SWAP1 DUP1 DUP4 GT PUSH2 0x3783 JUMPI JUMPDEST POP POP POP POP POP DUP8 PUSH2 0x3F93 JUMP JUMPDEST SWAP1 POP PUSH1 0x0 PUSH1 0x17 PUSH1 0x0 DUP8 PUSH3 0xFFFFFF AND PUSH3 0xFFFFFF AND DUP2 MSTORE PUSH1 0x20 ADD SWAP1 DUP2 MSTORE PUSH1 0x20 ADD PUSH1 0x0 KECCAK256 DUP3 DUP2 SLOAD DUP2 LT PUSH2 0x37D5 JUMPI PUSH2 0x37D4 PUSH2 0x58B0 JUMP JUMPDEST JUMPDEST SWAP1 PUSH1 0x0 MSTORE PUSH1 0x20 PUSH1 0x0 KECCAK256 ADD SLOAD SWAP1 POP PUSH1 0x1 ISZERO ISZERO DUP5 ISZERO ISZERO EQ ISZERO PUSH2 0x3802 JUMPI DUP5 DUP2 PUSH2 0x37FB SWAP2 SWAP1 PUSH2 0x5A08 JUMP JUMPDEST SWAP3 POP PUSH2 0x381E JUMP JUMPDEST DUP5 DUP2 LT ISZERO PUSH2 0x380F JUMPI PUSH1 0x0 DUP1 REVERT JUMPDEST DUP5 DUP2 PUSH2 0x381B SWAP2 SWAP1 PUSH2 0x59D4 JUMP JUMPDEST SWAP3 POP JUMPDEST DUP3 PUSH1 0x17 PUSH1 0x0 DUP9 PUSH3 0xFFFFFF AND PUSH3 0xFFFFFF AND DUP2 MSTORE PUSH1 0x20 ADD SWAP1 DUP2 MSTORE PUSH1 0x20 ADD PUSH1 0x0 KECCAK256 DUP4 DUP2 SLOAD DUP2 LT PUSH2 0x384E JUMPI PUSH2 0x384D PUSH2 0x58B0 JUMP JUMPDEST JUMPDEST SWAP1 PUSH1 0x0 MSTORE PUSH1 0x20 PUSH1 0x0 KECCAK256 ADD DUP2 SWAP1 SSTORE POP POP POP SWAP5 SWAP4 POP POP POP POP JUMP JUMPDEST PUSH1 0x0 PUSH1 0x8 DUP3 SWAP1 SHR SWAP1 POP PUSH1 0x0 PUSH1 0x10 DUP4 SWAP1 SHR SWAP1 POP PUSH1 0xFF DUP4 AND PUSH1 0x1 SWAP1 SHL DUP5 PUSH1 0x2 PUSH1 0x3 DUP2 LT PUSH2 0x3894 JUMPI PUSH2 0x3893 PUSH2 0x58B0 JUMP JUMPDEST JUMPDEST ADD PUSH1 0x0 DUP5 DUP2 MSTORE PUSH1 0x20 ADD SWAP1 DUP2 MSTORE PUSH1 0x20 ADD PUSH1 0x0 KECCAK256 PUSH1 0x0 DUP3 DUP3 SLOAD OR SWAP3 POP POP DUP2 SWAP1 SSTORE POP PUSH1 0xFF DUP3 AND PUSH1 0x1 SWAP1 SHL DUP5 PUSH1 0x1 PUSH1 0x3 DUP2 LT PUSH2 0x38CF JUMPI PUSH2 0x38CE PUSH2 0x58B0 JUMP JUMPDEST JUMPDEST ADD PUSH1 0x0 DUP4 DUP2 MSTORE PUSH1 0x20 ADD SWAP1 DUP2 MSTORE PUSH1 0x20 ADD PUSH1 0x0 KECCAK256 PUSH1 0x0 DUP3 DUP3 SLOAD OR SWAP3 POP POP DUP2 SWAP1 SSTORE POP DUP1 PUSH1 0x1 SWAP1 SHL DUP5 PUSH1 0x0 PUSH1 0x3 DUP2 LT PUSH2 0x3907 JUMPI PUSH2 0x3906 PUSH2 0x58B0 JUMP JUMPDEST JUMPDEST ADD PUSH1 0x0 DUP1 DUP2 MSTORE PUSH1 0x20 ADD SWAP1 DUP2 MSTORE PUSH1 0x20 ADD PUSH1 0x0 KECCAK256 PUSH1 0x0 DUP3 DUP3 SLOAD OR SWAP3 POP POP DUP2 SWAP1 SSTORE POP POP POP POP POP JUMP JUMPDEST DUP2 DUP4 PUSH1 0x80 ADD DUP2 DUP2 MLOAD PUSH2 0x393E SWAP2 SWAP1 PUSH2 0x5A08 JUMP JUMPDEST SWAP2 POP DUP2 DUP2 MSTORE POP POP DUP1 DUP4 PUSH1 0xA0 ADD DUP2 DUP2 MLOAD ADD SWAP2 POP DUP2 DUP2 MSTORE POP POP POP POP POP JUMP JUMPDEST PUSH1 0x0 DUP2 DUP3 SWAP2 POP DUP2 PUSH14 0xFFFFFFFFFFFFFFFFFFFFFFFFFFFF AND EQ PUSH2 0x39B3 JUMPI DUP2 PUSH1 0x40 MLOAD PUSH32 0x1CE5DCF700000000000000000000000000000000000000000000000000000000 DUP2 MSTORE PUSH1 0x4 ADD PUSH2 0x39AA SWAP2 SWAP1 PUSH2 0x54EB JUMP JUMPDEST PUSH1 0x40 MLOAD DUP1 SWAP2 SUB SWAP1 REVERT JUMPDEST SWAP2 SWAP1 POP JUMP JUMPDEST DUP3 ISZERO PUSH2 0x3AC4 JUMPI DUP2 PUSH14 0xFFFFFFFFFFFFFFFFFFFFFFFFFFFF AND DUP6 PUSH1 0x0 PUSH1 0x2 DUP2 LT PUSH2 0x39E3 JUMPI PUSH2 0x39E2 PUSH2 0x58B0 JUMP JUMPDEST JUMPDEST PUSH1 0x20 MUL ADD DUP2 DUP2 MLOAD PUSH2 0x39F4 SWAP2 SWAP1 PUSH2 0x5A08 JUMP JUMPDEST SWAP2 POP DUP2 DUP2 MSTORE POP POP DUP1 PUSH14 0xFFFFFFFFFFFFFFFFFFFFFFFFFFFF AND DUP6 PUSH1 0x1 PUSH1 0x2 DUP2 LT PUSH2 0x3A20 JUMPI PUSH2 0x3A1F PUSH2 0x58B0 JUMP JUMPDEST JUMPDEST PUSH1 0x20 MUL ADD DUP2 DUP2 MLOAD SUB SWAP2 POP DUP2 DUP2 MSTORE POP POP DUP2 PUSH14 0xFFFFFFFFFFFFFFFFFFFFFFFFFFFF AND DUP5 PUSH1 0x40 ADD DUP2 DUP2 MLOAD ADD SWAP2 POP SWAP1 PUSH17 0xFFFFFFFFFFFFFFFFFFFFFFFFFFFFFFFFFF AND SWAP1 DUP2 PUSH17 0xFFFFFFFFFFFFFFFFFFFFFFFFFFFFFFFFFF AND DUP2 MSTORE POP POP DUP1 PUSH14 0xFFFFFFFFFFFFFFFFFFFFFFFFFFFF AND DUP5 PUSH1 0x60 ADD DUP2 DUP2 MLOAD SUB SWAP2 POP SWAP1 PUSH17 0xFFFFFFFFFFFFFFFFFFFFFFFFFFFFFFFFFF AND SWAP1 DUP2 PUSH17 0xFFFFFFFFFFFFFFFFFFFFFFFFFFFFFFFFFF AND DUP2 MSTORE POP POP PUSH2 0x3BC6 JUMP JUMPDEST DUP2 PUSH14 0xFFFFFFFFFFFFFFFFFFFFFFFFFFFF AND DUP6 PUSH1 0x1 PUSH1 0x2 DUP2 LT PUSH2 0x3AE9 JUMPI PUSH2 0x3AE8 PUSH2 0x58B0 JUMP JUMPDEST JUMPDEST PUSH1 0x20 MUL ADD DUP2 DUP2 MLOAD PUSH2 0x3AFA SWAP2 SWAP1 PUSH2 0x5A08 JUMP JUMPDEST SWAP2 POP DUP2 DUP2 MSTORE POP POP DUP1 PUSH14 0xFFFFFFFFFFFFFFFFFFFFFFFFFFFF AND DUP6 PUSH1 0x0 PUSH1 0x2 DUP2 LT PUSH2 0x3B26 JUMPI PUSH2 0x3B25 PUSH2 0x58B0 JUMP JUMPDEST JUMPDEST PUSH1 0x20 MUL ADD DUP2 DUP2 MLOAD SUB SWAP2 POP DUP2 DUP2 MSTORE POP POP DUP1 PUSH14 0xFFFFFFFFFFFFFFFFFFFFFFFFFFFF AND DUP5 PUSH1 0x40 ADD DUP2 DUP2 MLOAD SUB SWAP2 POP SWAP1 PUSH17 0xFFFFFFFFFFFFFFFFFFFFFFFFFFFFFFFFFF AND SWAP1 DUP2 PUSH17 0xFFFFFFFFFFFFFFFFFFFFFFFFFFFFFFFFFF AND DUP2 MSTORE POP POP DUP2 PUSH14 0xFFFFFFFFFFFFFFFFFFFFFFFFFFFF AND DUP5 PUSH1 0x60 ADD DUP2 DUP2 MLOAD ADD SWAP2 POP SWAP1 PUSH17 0xFFFFFFFFFFFFFFFFFFFFFFFFFFFFFFFFFF AND SWAP1 DUP2 PUSH17 0xFFFFFFFFFFFFFFFFFFFFFFFFFFFFFFFFFF AND DUP2 MSTORE POP POP JUMPDEST POP POP POP POP POP JUMP JUMPDEST PUSH1 0x0 DUP1 PUSH1 0x0 DUP4 PUSH1 0x40 ADD MLOAD PUSH17 0xFFFFFFFFFFFFFFFFFFFFFFFFFFFFFFFFFF AND EQ PUSH2 0x3C30 JUMPI PUSH2 0x3BFB DUP5 PUSH1 0x0 DUP1 PUSH2 0x483B JUMP JUMPDEST SWAP1 POP PUSH1 0x0 DUP4 PUSH1 0x60 ADD MLOAD PUSH17 0xFFFFFFFFFFFFFFFFFFFFFFFFFFFFFFFFFF AND EQ PUSH2 0x3C2B JUMPI PUSH2 0x3C28 DUP6 DUP3 PUSH1 0x1 PUSH2 0x483B JUMP JUMPDEST SWAP2 POP JUMPDEST PUSH2 0x3C62 JUMP JUMPDEST PUSH1 0x0 DUP4 PUSH1 0x60 ADD MLOAD PUSH17 0xFFFFFFFFFFFFFFFFFFFFFFFFFFFFFFFFFF AND EQ PUSH2 0x3C61 JUMPI PUSH2 0x3C5E DUP6 PUSH3 0xFFFFFF PUSH1 0x1 PUSH2 0x483B JUMP JUMPDEST SWAP2 POP JUMPDEST JUMPDEST SWAP4 POP SWAP4 SWAP2 POP POP JUMP JUMPDEST PUSH1 0x0 DUP2 EQ PUSH2 0x3D58 JUMPI PUSH1 0x0 PUSH4 0xA9059CBB PUSH1 0xE0 SHL DUP4 DUP4 PUSH1 0x40 MLOAD PUSH1 0x24 ADD PUSH2 0x3C8F SWAP3 SWAP2 SWAP1 PUSH2 0x5AC9 JUMP JUMPDEST PUSH1 0x40 MLOAD PUSH1 0x20 DUP2 DUP4 SUB SUB DUP2 MSTORE SWAP1 PUSH1 0x40 MSTORE SWAP1 PUSH28 0xFFFFFFFFFFFFFFFFFFFFFFFFFFFFFFFFFFFFFFFFFFFFFFFFFFFFFFFF NOT AND PUSH1 0x20 DUP3 ADD DUP1 MLOAD PUSH28 0xFFFFFFFFFFFFFFFFFFFFFFFFFFFFFFFFFFFFFFFFFFFFFFFFFFFFFFFF DUP4 DUP2 DUP4 AND OR DUP4 MSTORE POP POP POP POP SWAP1 POP PUSH1 0x0 PUSH2 0x3CFA DUP6 DUP4 PUSH2 0x4B50 JUMP JUMPDEST SWAP1 POP PUSH1 0x0 DUP2 MLOAD GT DUP1 ISZERO PUSH2 0x3D1E JUMPI POP DUP1 DUP1 PUSH1 0x20 ADD SWAP1 MLOAD DUP2 ADD SWAP1 PUSH2 0x3D1C SWAP2 SWAP1 PUSH2 0x5CDD JUMP JUMPDEST ISZERO JUMPDEST ISZERO PUSH2 0x3D55 JUMPI PUSH1 0x40 MLOAD PUSH32 0x32E2717A00000000000000000000000000000000000000000000000000000000 DUP2 MSTORE PUSH1 0x4 ADD PUSH1 0x40 MLOAD DUP1 SWAP2 SUB SWAP1 REVERT JUMPDEST POP POP JUMPDEST POP POP POP JUMP JUMPDEST PUSH1 0x0 PUSH2 0x3D6D DUP3 PUSH3 0xFFFFFF AND PUSH2 0x34DF JUMP JUMPDEST SWAP1 POP PUSH2 0x3D8D PUSH8 0xDE0B6B3A7640000 PUSH1 0x80 DUP4 PUSH2 0x354C SWAP1 SWAP3 SWAP2 SWAP1 PUSH4 0xFFFFFFFF AND JUMP JUMPDEST SWAP1 POP SWAP2 SWAP1 POP JUMP JUMPDEST PUSH1 0x0 PUSH1 0x2 DUP3 MLOAD LT ISZERO PUSH2 0x3DA9 JUMPI PUSH1 0x1 SWAP1 POP PUSH2 0x3E98 JUMP JUMPDEST PUSH1 0x0 DUP3 PUSH1 0x0 DUP2 MLOAD DUP2 LT PUSH2 0x3DBF JUMPI PUSH2 0x3DBE PUSH2 0x58B0 JUMP JUMPDEST JUMPDEST PUSH1 0x20 MUL PUSH1 0x20 ADD ADD MLOAD DUP4 PUSH1 0x1 DUP2 MLOAD DUP2 LT PUSH2 0x3DDB JUMPI PUSH2 0x3DDA PUSH2 0x58B0 JUMP JUMPDEST JUMPDEST PUSH1 0x20 MUL PUSH1 0x20 ADD ADD MLOAD PUSH2 0x3DED SWAP2 SWAP1 PUSH2 0x59A0 JUMP JUMPDEST SWAP1 POP PUSH1 0x0 DUP2 PUSH3 0xFFFFFF AND LT ISZERO PUSH2 0x3E07 JUMPI PUSH1 0x0 SWAP2 POP POP PUSH2 0x3E98 JUMP JUMPDEST PUSH1 0x0 PUSH1 0x2 SWAP1 POP JUMPDEST DUP4 MLOAD DUP2 LT ISZERO PUSH2 0x3E91 JUMPI DUP2 PUSH3 0xFFFFFF AND DUP5 PUSH1 0x1 DUP4 PUSH2 0x3E2B SWAP2 SWAP1 PUSH2 0x59D4 JUMP JUMPDEST DUP2 MLOAD DUP2 LT PUSH2 0x3E3C JUMPI PUSH2 0x3E3B PUSH2 0x58B0 JUMP JUMPDEST JUMPDEST PUSH1 0x20 MUL PUSH1 0x20 ADD ADD MLOAD DUP6 DUP4 DUP2 MLOAD DUP2 LT PUSH2 0x3E57 JUMPI PUSH2 0x3E56 PUSH2 0x58B0 JUMP JUMPDEST JUMPDEST PUSH1 0x20 MUL PUSH1 0x20 ADD ADD MLOAD PUSH2 0x3E69 SWAP2 SWAP1 PUSH2 0x59A0 JUMP JUMPDEST PUSH3 0xFFFFFF AND EQ PUSH2 0x3E7E JUMPI PUSH1 0x0 SWAP3 POP POP POP PUSH2 0x3E98 JUMP JUMPDEST DUP1 DUP1 PUSH2 0x3E89 SWAP1 PUSH2 0x5AF2 JUMP JUMPDEST SWAP2 POP POP PUSH2 0x3E0E JUMP JUMPDEST POP PUSH1 0x1 SWAP2 POP POP JUMPDEST SWAP2 SWAP1 POP JUMP JUMPDEST PUSH1 0x0 DUP1 DUP3 DUP5 ADD SWAP1 POP DUP1 DUP6 PUSH20 0xFFFFFFFFFFFFFFFFFFFFFFFFFFFFFFFFFFFFFFFF AND PUSH4 0x70A08231 ADDRESS PUSH1 0x40 MLOAD DUP3 PUSH4 0xFFFFFFFF AND PUSH1 0xE0 SHL DUP2 MSTORE PUSH1 0x4 ADD PUSH2 0x3EDF SWAP2 SWAP1 PUSH2 0x5D0A JUMP JUMPDEST PUSH1 0x20 PUSH1 0x40 MLOAD DUP1 DUP4 SUB DUP2 DUP7 GAS STATICCALL ISZERO DUP1 ISZERO PUSH2 0x3EFC JUMPI RETURNDATASIZE PUSH1 0x0 DUP1 RETURNDATACOPY RETURNDATASIZE PUSH1 0x0 REVERT JUMPDEST POP POP POP POP PUSH1 0x40 MLOAD RETURNDATASIZE PUSH1 0x1F NOT PUSH1 0x1F DUP3 ADD AND DUP3 ADD DUP1 PUSH1 0x40 MSTORE POP DUP2 ADD SWAP1 PUSH2 0x3F20 SWAP2 SWAP1 PUSH2 0x5D3A JUMP JUMPDEST PUSH2 0x3F2A SWAP2 SWAP1 PUSH2 0x59D4 JUMP JUMPDEST SWAP2 POP POP SWAP4 SWAP3 POP POP POP JUMP JUMPDEST PUSH1 0x0 PUSH1 0x2 DUP3 MLOAD LT ISZERO PUSH2 0x3F49 JUMPI PUSH1 0x0 SWAP1 POP PUSH2 0x3F8E JUMP JUMPDEST DUP2 PUSH1 0x0 DUP2 MLOAD DUP2 LT PUSH2 0x3F5D JUMPI PUSH2 0x3F5C PUSH2 0x58B0 JUMP JUMPDEST JUMPDEST PUSH1 0x20 MUL PUSH1 0x20 ADD ADD MLOAD DUP3 PUSH1 0x1 DUP2 MLOAD DUP2 LT PUSH2 0x3F79 JUMPI PUSH2 0x3F78 PUSH2 0x58B0 JUMP JUMPDEST JUMPDEST PUSH1 0x20 MUL PUSH1 0x20 ADD ADD MLOAD PUSH2 0x3F8B SWAP2 SWAP1 PUSH2 0x59A0 JUMP JUMPDEST SWAP1 POP JUMPDEST SWAP2 SWAP1 POP JUMP JUMPDEST PUSH1 0x0 DUP1 PUSH1 0x0 SWAP1 POP JUMPDEST DUP4 MLOAD DUP2 LT ISZERO PUSH2 0x3FE2 JUMPI DUP3 DUP5 DUP3 DUP2 MLOAD DUP2 LT PUSH2 0x3FB8 JUMPI PUSH2 0x3FB7 PUSH2 0x58B0 JUMP JUMPDEST JUMPDEST PUSH1 0x20 MUL PUSH1 0x20 ADD ADD MLOAD EQ ISZERO PUSH2 0x3FCF JUMPI DUP1 SWAP2 POP POP PUSH2 0x4007 JUMP JUMPDEST DUP1 DUP1 PUSH2 0x3FDA SWAP1 PUSH2 0x5AF2 JUMP JUMPDEST SWAP2 POP POP PUSH2 0x3F9B JUMP JUMPDEST POP PUSH32 0xFFFFFFFFFFFFFFFFFFFFFFFFFFFFFFFFFFFFFFFFFFFFFFFFFFFFFFFFFFFFFFFF SWAP1 POP JUMPDEST SWAP3 SWAP2 POP POP JUMP JUMPDEST PUSH1 0x60 PUSH1 0x0 PUSH1 0x1 DUP5 MLOAD PUSH2 0x401F SWAP2 SWAP1 PUSH2 0x59D4 JUMP JUMPDEST PUSH8 0xFFFFFFFFFFFFFFFF DUP2 GT ISZERO PUSH2 0x4038 JUMPI PUSH2 0x4037 PUSH2 0x51E8 JUMP JUMPDEST JUMPDEST PUSH1 0x40 MLOAD SWAP1 DUP1 DUP3 MSTORE DUP1 PUSH1 0x20 MUL PUSH1 0x20 ADD DUP3 ADD PUSH1 0x40 MSTORE DUP1 ISZERO PUSH2 0x4066 JUMPI DUP2 PUSH1 0x20 ADD PUSH1 0x20 DUP3 MUL DUP1 CALLDATASIZE DUP4 CALLDATACOPY DUP1 DUP3 ADD SWAP2 POP POP SWAP1 POP JUMPDEST POP SWAP1 POP PUSH1 0x0 DUP1 JUMPDEST DUP6 MLOAD DUP2 LT ISZERO PUSH2 0x40D9 JUMPI DUP5 DUP2 EQ PUSH2 0x40C6 JUMPI DUP6 DUP2 DUP2 MLOAD DUP2 LT PUSH2 0x4090 JUMPI PUSH2 0x408F PUSH2 0x58B0 JUMP JUMPDEST JUMPDEST PUSH1 0x20 MUL PUSH1 0x20 ADD ADD MLOAD DUP4 DUP4 DUP2 MLOAD DUP2 LT PUSH2 0x40AB JUMPI PUSH2 0x40AA PUSH2 0x58B0 JUMP JUMPDEST JUMPDEST PUSH1 0x20 MUL PUSH1 0x20 ADD ADD DUP2 DUP2 MSTORE POP POP DUP2 DUP1 PUSH2 0x40C2 SWAP1 PUSH2 0x5AF2 JUMP JUMPDEST SWAP3 POP POP JUMPDEST DUP1 DUP1 PUSH2 0x40D1 SWAP1 PUSH2 0x5AF2 JUMP JUMPDEST SWAP2 POP POP PUSH2 0x406D JUMP JUMPDEST POP DUP2 SWAP3 POP POP POP SWAP3 SWAP2 POP POP JUMP JUMPDEST PUSH1 0x0 DUP1 DUP4 PUSH8 0xDE0B6B3A7640000 PUSH2 0x40FC SWAP2 SWAP1 PUSH2 0x59D4 JUMP JUMPDEST SWAP1 POP DUP1 PUSH1 0x1 DUP3 DUP7 DUP7 PUSH2 0x410E SWAP2 SWAP1 PUSH2 0x5C3D JUMP JUMPDEST PUSH2 0x4118 SWAP2 SWAP1 PUSH2 0x5A08 JUMP JUMPDEST PUSH2 0x4122 SWAP2 SWAP1 PUSH2 0x59D4 JUMP JUMPDEST PUSH2 0x412C SWAP2 SWAP1 PUSH2 0x5C97 JUMP JUMPDEST SWAP2 POP POP SWAP3 SWAP2 POP POP JUMP JUMPDEST PUSH1 0x0 PUSH1 0x8 DUP3 SWAP1 SHR SWAP1 POP PUSH1 0x0 PUSH1 0xFF DUP4 AND PUSH1 0x1 SWAP1 SHL PUSH32 0xFFFFFFFFFFFFFFFFFFFFFFFFFFFFFFFFFFFFFFFFFFFFFFFFFFFFFFFFFFFFFFFF XOR DUP5 PUSH1 0x2 PUSH1 0x3 DUP2 LT PUSH2 0x417E JUMPI PUSH2 0x417D PUSH2 0x58B0 JUMP JUMPDEST JUMPDEST ADD PUSH1 0x0 DUP5 DUP2 MSTORE PUSH1 0x20 ADD SWAP1 DUP2 MSTORE PUSH1 0x20 ADD PUSH1 0x0 KECCAK256 SLOAD AND SWAP1 POP DUP1 DUP5 PUSH1 0x2 PUSH1 0x3 DUP2 LT PUSH2 0x41A9 JUMPI PUSH2 0x41A8 PUSH2 0x58B0 JUMP JUMPDEST JUMPDEST ADD PUSH1 0x0 DUP5 DUP2 MSTORE PUSH1 0x20 ADD SWAP1 DUP2 MSTORE PUSH1 0x20 ADD PUSH1 0x0 KECCAK256 DUP2 SWAP1 SSTORE POP PUSH1 0x0 DUP2 EQ ISZERO PUSH2 0x42B6 JUMPI PUSH1 0x0 PUSH1 0x10 DUP5 SWAP1 SHR SWAP1 POP PUSH1 0xFF DUP4 AND PUSH1 0x1 SWAP1 SHL PUSH32 0xFFFFFFFFFFFFFFFFFFFFFFFFFFFFFFFFFFFFFFFFFFFFFFFFFFFFFFFFFFFFFFFF XOR DUP6 PUSH1 0x1 PUSH1 0x3 DUP2 LT PUSH2 0x420F JUMPI PUSH2 0x420E PUSH2 0x58B0 JUMP JUMPDEST JUMPDEST ADD PUSH1 0x0 DUP4 DUP2 MSTORE PUSH1 0x20 ADD SWAP1 DUP2 MSTORE PUSH1 0x20 ADD PUSH1 0x0 KECCAK256 SLOAD AND SWAP2 POP DUP2 DUP6 PUSH1 0x1 PUSH1 0x3 DUP2 LT PUSH2 0x423A JUMPI PUSH2 0x4239 PUSH2 0x58B0 JUMP JUMPDEST JUMPDEST ADD PUSH1 0x0 DUP4 DUP2 MSTORE PUSH1 0x20 ADD SWAP1 DUP2 MSTORE PUSH1 0x20 ADD PUSH1 0x0 KECCAK256 DUP2 SWAP1 SSTORE POP PUSH1 0x0 DUP3 EQ ISZERO PUSH2 0x42B4 JUMPI DUP1 PUSH1 0x1 SWAP1 SHL PUSH32 0xFFFFFFFFFFFFFFFFFFFFFFFFFFFFFFFFFFFFFFFFFFFFFFFFFFFFFFFFFFFFFFFF XOR DUP6 PUSH1 0x0 PUSH1 0x3 DUP2 LT PUSH2 0x4294 JUMPI PUSH2 0x4293 PUSH2 0x58B0 JUMP JUMPDEST JUMPDEST ADD PUSH1 0x0 DUP1 DUP2 MSTORE PUSH1 0x20 ADD SWAP1 DUP2 MSTORE PUSH1 0x20 ADD PUSH1 0x0 KECCAK256 PUSH1 0x0 DUP3 DUP3 SLOAD AND SWAP3 POP POP DUP2 SWAP1 SSTORE POP JUMPDEST POP JUMPDEST POP POP POP POP JUMP JUMPDEST PUSH1 0x0 DUP1 PUSH2 0x4334 PUSH1 0x16 PUSH1 0x0 DUP6 PUSH3 0xFFFFFF AND PUSH3 0xFFFFFF AND DUP2 MSTORE PUSH1 0x20 ADD SWAP1 DUP2 MSTORE PUSH1 0x20 ADD PUSH1 0x0 KECCAK256 DUP1 SLOAD DUP1 PUSH1 0x20 MUL PUSH1 0x20 ADD PUSH1 0x40 MLOAD SWAP1 DUP2 ADD PUSH1 0x40 MSTORE DUP1 SWAP3 SWAP2 SWAP1 DUP2 DUP2 MSTORE PUSH1 0x20 ADD DUP3 DUP1 SLOAD DUP1 ISZERO PUSH2 0x4329 JUMPI PUSH1 0x20 MUL DUP3 ADD SWAP2 SWAP1 PUSH1 0x0 MSTORE PUSH1 0x20 PUSH1 0x0 KECCAK256 SWAP1 JUMPDEST DUP2 SLOAD DUP2 MSTORE PUSH1 0x20 ADD SWAP1 PUSH1 0x1 ADD SWAP1 DUP1 DUP4 GT PUSH2 0x4315 JUMPI JUMPDEST POP POP POP POP POP DUP6 PUSH2 0x3F93 JUMP JUMPDEST SWAP1 POP PUSH2 0x43AB PUSH1 0x16 PUSH1 0x0 DUP6 PUSH3 0xFFFFFF AND PUSH3 0xFFFFFF AND DUP2 MSTORE PUSH1 0x20 ADD SWAP1 DUP2 MSTORE PUSH1 0x20 ADD PUSH1 0x0 KECCAK256 DUP1 SLOAD DUP1 PUSH1 0x20 MUL PUSH1 0x20 ADD PUSH1 0x40 MLOAD SWAP1 DUP2 ADD PUSH1 0x40 MSTORE DUP1 SWAP3 SWAP2 SWAP1 DUP2 DUP2 MSTORE PUSH1 0x20 ADD DUP3 DUP1 SLOAD DUP1 ISZERO PUSH2 0x43A0 JUMPI PUSH1 0x20 MUL DUP3 ADD SWAP2 SWAP1 PUSH1 0x0 MSTORE PUSH1 0x20 PUSH1 0x0 KECCAK256 SWAP1 JUMPDEST DUP2 SLOAD DUP2 MSTORE PUSH1 0x20 ADD SWAP1 PUSH1 0x1 ADD SWAP1 DUP1 DUP4 GT PUSH2 0x438C JUMPI JUMPDEST POP POP POP POP POP DUP3 PUSH2 0x400D JUMP JUMPDEST PUSH1 0x16 PUSH1 0x0 DUP6 PUSH3 0xFFFFFF AND PUSH3 0xFFFFFF AND DUP2 MSTORE PUSH1 0x20 ADD SWAP1 DUP2 MSTORE PUSH1 0x20 ADD PUSH1 0x0 KECCAK256 SWAP1 DUP1 MLOAD SWAP1 PUSH1 0x20 ADD SWAP1 PUSH2 0x43DB SWAP3 SWAP2 SWAP1 PUSH2 0x4FFA JUMP JUMPDEST POP PUSH2 0x4451 PUSH1 0x17 PUSH1 0x0 DUP6 PUSH3 0xFFFFFF AND PUSH3 0xFFFFFF AND DUP2 MSTORE PUSH1 0x20 ADD SWAP1 DUP2 MSTORE PUSH1 0x20 ADD PUSH1 0x0 KECCAK256 DUP1 SLOAD DUP1 PUSH1 0x20 MUL PUSH1 0x20 ADD PUSH1 0x40 MLOAD SWAP1 DUP2 ADD PUSH1 0x40 MSTORE DUP1 SWAP3 SWAP2 SWAP1 DUP2 DUP2 MSTORE PUSH1 0x20 ADD DUP3 DUP1 SLOAD DUP1 ISZERO PUSH2 0x4446 JUMPI PUSH1 0x20 MUL DUP3 ADD SWAP2 SWAP1 PUSH1 0x0 MSTORE PUSH1 0x20 PUSH1 0x0 KECCAK256 SWAP1 JUMPDEST DUP2 SLOAD DUP2 MSTORE PUSH1 0x20 ADD SWAP1 PUSH1 0x1 ADD SWAP1 DUP1 DUP4 GT PUSH2 0x4432 JUMPI JUMPDEST POP POP POP POP POP DUP3 PUSH2 0x400D JUMP JUMPDEST PUSH1 0x17 PUSH1 0x0 DUP6 PUSH3 0xFFFFFF AND PUSH3 0xFFFFFF AND DUP2 MSTORE PUSH1 0x20 ADD SWAP1 DUP2 MSTORE PUSH1 0x20 ADD PUSH1 0x0 KECCAK256 SWAP1 DUP1 MLOAD SWAP1 PUSH1 0x20 ADD SWAP1 PUSH2 0x4481 SWAP3 SWAP2 SWAP1 PUSH2 0x4FFA JUMP JUMPDEST POP PUSH1 0x1 SWAP2 POP POP SWAP3 SWAP2 POP POP JUMP JUMPDEST PUSH1 0x0 DUP2 DUP3 SWAP2 POP DUP2 PUSH17 0xFFFFFFFFFFFFFFFFFFFFFFFFFFFFFFFFFF AND EQ PUSH2 0x44E9 JUMPI DUP2 PUSH1 0x40 MLOAD PUSH32 0xBDBA3C9F00000000000000000000000000000000000000000000000000000000 DUP2 MSTORE PUSH1 0x4 ADD PUSH2 0x44E0 SWAP2 SWAP1 PUSH2 0x54EB JUMP JUMPDEST PUSH1 0x40 MLOAD DUP1 SWAP2 SUB SWAP1 REVERT JUMPDEST SWAP2 SWAP1 POP JUMP JUMPDEST PUSH1 0x0 PUSH2 0x2710 PUSH1 0x80 PUSH1 0x1 SWAP1 SHL DUP2 PUSH2 0x4507 JUMPI PUSH2 0x4506 PUSH2 0x5B3B JUMP JUMPDEST JUMPDEST DIV PUSH1 0x80 PUSH1 0x1 SWAP1 SHL ADD SWAP1 POP SWAP1 JUMP JUMPDEST PUSH1 0x0 DUP1 PUSH1 0x0 DUP1 DUP5 EQ ISZERO PUSH2 0x4530 JUMPI PUSH1 0x80 PUSH1 0x1 SWAP1 SHL SWAP3 POP POP POP PUSH2 0x4816 JUMP JUMPDEST DUP4 SWAP1 POP PUSH1 0x0 DUP2 SLT ISZERO PUSH2 0x4547 JUMPI DUP1 PUSH1 0x0 SUB SWAP1 POP DUP2 ISZERO SWAP2 POP JUMPDEST PUSH3 0x100000 DUP2 LT ISZERO PUSH2 0x4791 JUMPI PUSH1 0x80 PUSH1 0x1 SWAP1 SHL SWAP3 POP DUP5 PUSH16 0xFFFFFFFFFFFFFFFFFFFFFFFFFFFFFFFF DUP7 GT ISZERO PUSH2 0x457F JUMPI DUP1 PUSH1 0x0 NOT DIV SWAP1 POP DUP3 ISZERO SWAP3 POP JUMPDEST PUSH1 0x1 DUP3 AND ISZERO PUSH2 0x4591 JUMPI DUP1 DUP5 MUL PUSH1 0x80 SHR SWAP4 POP JUMPDEST DUP1 DUP2 MUL PUSH1 0x80 SHR SWAP1 POP PUSH1 0x2 DUP3 AND ISZERO PUSH2 0x45AB JUMPI DUP1 DUP5 MUL PUSH1 0x80 SHR SWAP4 POP JUMPDEST DUP1 DUP2 MUL PUSH1 0x80 SHR SWAP1 POP PUSH1 0x4 DUP3 AND ISZERO PUSH2 0x45C5 JUMPI DUP1 DUP5 MUL PUSH1 0x80 SHR SWAP4 POP JUMPDEST DUP1 DUP2 MUL PUSH1 0x80 SHR SWAP1 POP PUSH1 0x8 DUP3 AND ISZERO PUSH2 0x45DF JUMPI DUP1 DUP5 MUL PUSH1 0x80 SHR SWAP4 POP JUMPDEST DUP1 DUP2 MUL PUSH1 0x80 SHR SWAP1 POP PUSH1 0x10 DUP3 AND ISZERO PUSH2 0x45F9 JUMPI DUP1 DUP5 MUL PUSH1 0x80 SHR SWAP4 POP JUMPDEST DUP1 DUP2 MUL PUSH1 0x80 SHR SWAP1 POP PUSH1 0x20 DUP3 AND ISZERO PUSH2 0x4613 JUMPI DUP1 DUP5 MUL PUSH1 0x80 SHR SWAP4 POP JUMPDEST DUP1 DUP2 MUL PUSH1 0x80 SHR SWAP1 POP PUSH1 0x40 DUP3 AND ISZERO PUSH2 0x462D JUMPI DUP1 DUP5 MUL PUSH1 0x80 SHR SWAP4 POP JUMPDEST DUP1 DUP2 MUL PUSH1 0x80 SHR SWAP1 POP PUSH1 0x80 DUP3 AND ISZERO PUSH2 0x4647 JUMPI DUP1 DUP5 MUL PUSH1 0x80 SHR SWAP4 POP JUMPDEST DUP1 DUP2 MUL PUSH1 0x80 SHR SWAP1 POP PUSH2 0x100 DUP3 AND ISZERO PUSH2 0x4662 JUMPI DUP1 DUP5 MUL PUSH1 0x80 SHR SWAP4 POP JUMPDEST DUP1 DUP2 MUL PUSH1 0x80 SHR SWAP1 POP PUSH2 0x200 DUP3 AND ISZERO PUSH2 0x467D JUMPI DUP1 DUP5 MUL PUSH1 0x80 SHR SWAP4 POP JUMPDEST DUP1 DUP2 MUL PUSH1 0x80 SHR SWAP1 POP PUSH2 0x400 DUP3 AND ISZERO PUSH2 0x4698 JUMPI DUP1 DUP5 MUL PUSH1 0x80 SHR SWAP4 POP JUMPDEST DUP1 DUP2 MUL PUSH1 0x80 SHR SWAP1 POP PUSH2 0x800 DUP3 AND ISZERO PUSH2 0x46B3 JUMPI DUP1 DUP5 MUL PUSH1 0x80 SHR SWAP4 POP JUMPDEST DUP1 DUP2 MUL PUSH1 0x80 SHR SWAP1 POP PUSH2 0x1000 DUP3 AND ISZERO PUSH2 0x46CE JUMPI DUP1 DUP5 MUL PUSH1 0x80 SHR SWAP4 POP JUMPDEST DUP1 DUP2 MUL PUSH1 0x80 SHR SWAP1 POP PUSH2 0x2000 DUP3 AND ISZERO PUSH2 0x46E9 JUMPI DUP1 DUP5 MUL PUSH1 0x80 SHR SWAP4 POP JUMPDEST DUP1 DUP2 MUL PUSH1 0x80 SHR SWAP1 POP PUSH2 0x4000 DUP3 AND ISZERO PUSH2 0x4704 JUMPI DUP1 DUP5 MUL PUSH1 0x80 SHR SWAP4 POP JUMPDEST DUP1 DUP2 MUL PUSH1 0x80 SHR SWAP1 POP PUSH2 0x8000 DUP3 AND ISZERO PUSH2 0x471F JUMPI DUP1 DUP5 MUL PUSH1 0x80 SHR SWAP4 POP JUMPDEST DUP1 DUP2 MUL PUSH1 0x80 SHR SWAP1 POP PUSH3 0x10000 DUP3 AND ISZERO PUSH2 0x473B JUMPI DUP1 DUP5 MUL PUSH1 0x80 SHR SWAP4 POP JUMPDEST DUP1 DUP2 MUL PUSH1 0x80 SHR SWAP1 POP PUSH3 0x20000 DUP3 AND ISZERO PUSH2 0x4757 JUMPI DUP1 DUP5 MUL PUSH1 0x80 SHR SWAP4 POP JUMPDEST DUP1 DUP2 MUL PUSH1 0x80 SHR SWAP1 POP PUSH3 0x40000 DUP3 AND ISZERO PUSH2 0x4773 JUMPI DUP1 DUP5 MUL PUSH1 0x80 SHR SWAP4 POP JUMPDEST DUP1 DUP2 MUL PUSH1 0x80 SHR SWAP1 POP PUSH3 0x80000 DUP3 AND ISZERO PUSH2 0x478F JUMPI DUP1 DUP5 MUL PUSH1 0x80 SHR SWAP4 POP JUMPDEST POP JUMPDEST PUSH1 0x0 DUP4 EQ ISZERO PUSH2 0x47D9 JUMPI DUP5 DUP5 PUSH1 0x40 MLOAD PUSH32 0x74E3EB0800000000000000000000000000000000000000000000000000000000 DUP2 MSTORE PUSH1 0x4 ADD PUSH2 0x47D0 SWAP3 SWAP2 SWAP1 PUSH2 0x5D80 JUMP JUMPDEST PUSH1 0x40 MLOAD DUP1 SWAP2 SUB SWAP1 REVERT JUMPDEST DUP2 PUSH2 0x47E4 JUMPI DUP3 PUSH2 0x4811 JUMP JUMPDEST DUP3 PUSH32 0xFFFFFFFFFFFFFFFFFFFFFFFFFFFFFFFFFFFFFFFFFFFFFFFFFFFFFFFFFFFFFFFF PUSH2 0x4810 SWAP2 SWAP1 PUSH2 0x5C97 JUMP JUMPDEST JUMPDEST SWAP3 POP POP POP JUMPDEST SWAP3 SWAP2 POP POP JUMP JUMPDEST PUSH1 0x0 DUP1 PUSH1 0x0 NOT DUP4 DUP6 MULMOD DUP4 DUP6 MUL SWAP3 POP DUP3 DUP2 LT DUP4 DUP3 SUB SUB SWAP2 POP POP SWAP3 POP SWAP3 SWAP1 POP JUMP JUMPDEST PUSH1 0x0 DUP1 PUSH1 0x0 PUSH2 0x4849 DUP6 PUSH2 0x4C69 JUMP JUMPDEST DUP1 PUSH3 0xFFFFFF AND SWAP1 POP DUP1 SWAP3 POP DUP2 SWAP7 POP POP POP DUP4 DUP1 ISZERO PUSH2 0x4867 JUMPI POP PUSH1 0x0 DUP2 EQ ISZERO JUMPDEST DUP1 PUSH2 0x487D JUMPI POP DUP4 ISZERO DUP1 ISZERO PUSH2 0x487C JUMPI POP PUSH1 0xFF DUP2 EQ ISZERO JUMPDEST JUMPDEST ISZERO PUSH2 0x4902 JUMPI DUP6 PUSH1 0x2 PUSH1 0x3 DUP2 LT PUSH2 0x4896 JUMPI PUSH2 0x4895 PUSH2 0x58B0 JUMP JUMPDEST JUMPDEST ADD PUSH1 0x0 DUP7 PUSH3 0xFFFFFF AND DUP2 MSTORE PUSH1 0x20 ADD SWAP1 DUP2 MSTORE PUSH1 0x20 ADD PUSH1 0x0 KECCAK256 SLOAD SWAP2 POP PUSH2 0x48C5 DUP2 DUP6 DUP5 PUSH2 0x4C83 SWAP1 SWAP3 SWAP2 SWAP1 PUSH4 0xFFFFFFFF AND JUMP JUMPDEST SWAP1 POP PUSH32 0xFFFFFFFFFFFFFFFFFFFFFFFFFFFFFFFFFFFFFFFFFFFFFFFFFFFFFFFFFFFFFFFF DUP2 EQ PUSH2 0x4901 JUMPI PUSH2 0x48F8 DUP6 DUP3 PUSH2 0x4CC5 JUMP JUMPDEST SWAP3 POP POP POP PUSH2 0x4B49 JUMP JUMPDEST JUMPDEST PUSH2 0x490B DUP6 PUSH2 0x4C69 JUMP JUMPDEST DUP1 PUSH3 0xFFFFFF AND SWAP1 POP DUP1 SWAP3 POP DUP2 SWAP7 POP POP POP DUP4 DUP1 ISZERO PUSH2 0x4929 JUMPI POP PUSH1 0x0 DUP2 EQ ISZERO JUMPDEST DUP1 PUSH2 0x493F JUMPI POP DUP4 ISZERO DUP1 ISZERO PUSH2 0x493E JUMPI POP PUSH1 0xFF DUP2 EQ ISZERO JUMPDEST JUMPDEST ISZERO PUSH2 0x4A13 JUMPI DUP6 PUSH1 0x1 PUSH1 0x3 DUP2 LT PUSH2 0x4958 JUMPI PUSH2 0x4957 PUSH2 0x58B0 JUMP JUMPDEST JUMPDEST ADD PUSH1 0x0 DUP7 PUSH3 0xFFFFFF AND DUP2 MSTORE PUSH1 0x20 ADD SWAP1 DUP2 MSTORE PUSH1 0x20 ADD PUSH1 0x0 KECCAK256 SLOAD SWAP2 POP PUSH2 0x4987 DUP2 DUP6 DUP5 PUSH2 0x4C83 SWAP1 SWAP3 SWAP2 SWAP1 PUSH4 0xFFFFFFFF AND JUMP JUMPDEST SWAP1 POP PUSH32 0xFFFFFFFFFFFFFFFFFFFFFFFFFFFFFFFFFFFFFFFFFFFFFFFFFFFFFFFFFFFFFFFF DUP2 EQ PUSH2 0x4A12 JUMPI PUSH2 0x49BA DUP6 DUP3 PUSH2 0x4CC5 JUMP JUMPDEST SWAP5 POP DUP6 PUSH1 0x2 PUSH1 0x3 DUP2 LT PUSH2 0x49D0 JUMPI PUSH2 0x49CF PUSH2 0x58B0 JUMP JUMPDEST JUMPDEST ADD PUSH1 0x0 DUP7 PUSH3 0xFFFFFF AND DUP2 MSTORE PUSH1 0x20 ADD SWAP1 DUP2 MSTORE PUSH1 0x20 ADD PUSH1 0x0 KECCAK256 SLOAD SWAP2 POP PUSH2 0x4A09 DUP6 PUSH2 0x4A01 DUP7 DUP6 PUSH2 0x4CDB SWAP1 SWAP2 SWAP1 PUSH4 0xFFFFFFFF AND JUMP JUMPDEST PUSH1 0xFF AND PUSH2 0x4CC5 JUMP JUMPDEST SWAP3 POP POP POP PUSH2 0x4B49 JUMP JUMPDEST JUMPDEST DUP6 PUSH1 0x0 PUSH1 0x3 DUP2 LT PUSH2 0x4A27 JUMPI PUSH2 0x4A26 PUSH2 0x58B0 JUMP JUMPDEST JUMPDEST ADD PUSH1 0x0 DUP1 DUP2 MSTORE PUSH1 0x20 ADD SWAP1 DUP2 MSTORE PUSH1 0x20 ADD PUSH1 0x0 KECCAK256 SLOAD SWAP2 POP PUSH2 0x4A51 DUP6 DUP6 DUP5 PUSH2 0x4C83 SWAP1 SWAP3 SWAP2 SWAP1 PUSH4 0xFFFFFFFF AND JUMP JUMPDEST SWAP1 POP PUSH32 0xFFFFFFFFFFFFFFFFFFFFFFFFFFFFFFFFFFFFFFFFFFFFFFFFFFFFFFFFFFFFFFFF DUP2 EQ ISZERO PUSH2 0x4AAD JUMPI PUSH1 0x40 MLOAD PUSH32 0x10D6486100000000000000000000000000000000000000000000000000000000 DUP2 MSTORE PUSH1 0x4 ADD PUSH1 0x40 MLOAD DUP1 SWAP2 SUB SWAP1 REVERT JUMPDEST DUP6 PUSH1 0x1 PUSH1 0x3 DUP2 LT PUSH2 0x4AC1 JUMPI PUSH2 0x4AC0 PUSH2 0x58B0 JUMP JUMPDEST JUMPDEST ADD PUSH1 0x0 DUP3 DUP2 MSTORE PUSH1 0x20 ADD SWAP1 DUP2 MSTORE PUSH1 0x20 ADD PUSH1 0x0 KECCAK256 SLOAD SWAP2 POP PUSH2 0x4AF5 DUP2 PUSH2 0x4AED DUP7 DUP6 PUSH2 0x4CDB SWAP1 SWAP2 SWAP1 PUSH4 0xFFFFFFFF AND JUMP JUMPDEST PUSH1 0xFF AND PUSH2 0x4CC5 JUMP JUMPDEST SWAP5 POP DUP6 PUSH1 0x2 PUSH1 0x3 DUP2 LT PUSH2 0x4B0B JUMPI PUSH2 0x4B0A PUSH2 0x58B0 JUMP JUMPDEST JUMPDEST ADD PUSH1 0x0 DUP7 PUSH3 0xFFFFFF AND DUP2 MSTORE PUSH1 0x20 ADD SWAP1 DUP2 MSTORE PUSH1 0x20 ADD PUSH1 0x0 KECCAK256 SLOAD SWAP2 POP PUSH2 0x4B44 DUP6 PUSH2 0x4B3C DUP7 DUP6 PUSH2 0x4CDB SWAP1 SWAP2 SWAP1 PUSH4 0xFFFFFFFF AND JUMP JUMPDEST PUSH1 0xFF AND PUSH2 0x4CC5 JUMP JUMPDEST SWAP3 POP POP POP JUMPDEST SWAP4 SWAP3 POP POP POP JUMP JUMPDEST PUSH1 0x60 PUSH1 0x0 DUP1 DUP5 PUSH20 0xFFFFFFFFFFFFFFFFFFFFFFFFFFFFFFFFFFFFFFFF AND DUP5 PUSH1 0x40 MLOAD PUSH2 0x4B7A SWAP2 SWAP1 PUSH2 0x5E23 JUMP JUMPDEST PUSH1 0x0 PUSH1 0x40 MLOAD DUP1 DUP4 SUB DUP2 PUSH1 0x0 DUP7 GAS CALL SWAP2 POP POP RETURNDATASIZE DUP1 PUSH1 0x0 DUP2 EQ PUSH2 0x4BB7 JUMPI PUSH1 0x40 MLOAD SWAP2 POP PUSH1 0x1F NOT PUSH1 0x3F RETURNDATASIZE ADD AND DUP3 ADD PUSH1 0x40 MSTORE RETURNDATASIZE DUP3 MSTORE RETURNDATASIZE PUSH1 0x0 PUSH1 0x20 DUP5 ADD RETURNDATACOPY PUSH2 0x4BBC JUMP JUMPDEST PUSH1 0x60 SWAP2 POP JUMPDEST POP SWAP2 POP SWAP2 POP DUP2 ISZERO PUSH2 0x4C1A JUMPI PUSH1 0x0 DUP2 MLOAD EQ DUP1 ISZERO PUSH2 0x4BDE JUMPI POP PUSH2 0x4BDC DUP6 PUSH2 0x4D02 JUMP JUMPDEST ISZERO JUMPDEST ISZERO PUSH2 0x4C15 JUMPI PUSH1 0x40 MLOAD PUSH32 0x5D97DF8900000000000000000000000000000000000000000000000000000000 DUP2 MSTORE PUSH1 0x4 ADD PUSH1 0x40 MLOAD DUP1 SWAP2 SUB SWAP1 REVERT JUMPDEST PUSH2 0x4C5E JUMP JUMPDEST PUSH1 0x0 DUP2 MLOAD EQ ISZERO PUSH2 0x4C56 JUMPI PUSH1 0x40 MLOAD PUSH32 0x2407429100000000000000000000000000000000000000000000000000000000 DUP2 MSTORE PUSH1 0x4 ADD PUSH1 0x40 MLOAD DUP1 SWAP2 SUB SWAP1 REVERT JUMPDEST DUP1 MLOAD DUP2 PUSH1 0x20 ADD REVERT JUMPDEST DUP1 SWAP3 POP POP POP SWAP3 SWAP2 POP POP JUMP JUMPDEST PUSH1 0x0 DUP1 PUSH1 0x8 DUP4 PUSH3 0xFFFFFF AND SWAP1 SHR PUSH1 0xFF DUP5 AND SWAP2 POP SWAP2 POP SWAP2 POP SWAP2 JUMP JUMPDEST PUSH1 0x0 DUP2 PUSH2 0x4CA5 JUMPI PUSH2 0x4CA0 DUP5 PUSH1 0x1 DUP6 PUSH2 0x4C9B SWAP2 SWAP1 PUSH2 0x5E47 JUMP JUMPDEST PUSH2 0x4D25 JUMP JUMPDEST PUSH2 0x4CBC JUMP JUMPDEST PUSH2 0x4CBB DUP5 PUSH1 0x1 DUP6 PUSH2 0x4CB6 SWAP2 SWAP1 PUSH2 0x5E7E JUMP JUMPDEST PUSH2 0x4D75 JUMP JUMPDEST JUMPDEST SWAP1 POP SWAP4 SWAP3 POP POP POP JUMP JUMPDEST PUSH1 0x0 DUP2 PUSH1 0x8 DUP5 PUSH3 0xFFFFFF AND SWAP1 SHL ADD SWAP1 POP SWAP3 SWAP2 POP POP JUMP JUMPDEST PUSH1 0x0 DUP2 PUSH2 0x4CF0 JUMPI PUSH2 0x4CEB DUP4 PUSH2 0x4DCD JUMP JUMPDEST PUSH2 0x4CFA JUMP JUMPDEST PUSH2 0x4CF9 DUP4 PUSH2 0x4EA0 JUMP JUMPDEST JUMPDEST SWAP1 POP SWAP3 SWAP2 POP POP JUMP JUMPDEST PUSH1 0x0 DUP1 DUP3 PUSH20 0xFFFFFFFFFFFFFFFFFFFFFFFFFFFFFFFFFFFFFFFF AND EXTCODESIZE GT SWAP1 POP SWAP2 SWAP1 POP JUMP JUMPDEST PUSH1 0x0 DUP2 PUSH1 0xFF AND DUP4 SWAP1 SHR SWAP3 POP PUSH1 0x0 DUP4 EQ PUSH2 0x4D4B JUMPI DUP2 PUSH2 0x4D42 DUP5 PUSH2 0x4DCD JUMP JUMPDEST ADD PUSH1 0xFF AND PUSH2 0x4D6D JUMP JUMPDEST PUSH32 0xFFFFFFFFFFFFFFFFFFFFFFFFFFFFFFFFFFFFFFFFFFFFFFFFFFFFFFFFFFFFFFFF JUMPDEST SWAP1 POP SWAP3 SWAP2 POP POP JUMP JUMPDEST PUSH1 0x0 DUP1 DUP3 PUSH1 0xFF SUB PUSH1 0xFF AND SWAP1 POP DUP1 DUP5 SWAP1 SHL SWAP4 POP PUSH1 0x0 DUP5 EQ PUSH2 0x4DA2 JUMPI DUP1 PUSH2 0x4D99 DUP6 PUSH2 0x4EA0 JUMP JUMPDEST PUSH1 0xFF AND SUB PUSH2 0x4DC4 JUMP JUMPDEST PUSH32 0xFFFFFFFFFFFFFFFFFFFFFFFFFFFFFFFFFFFFFFFFFFFFFFFFFFFFFFFFFFFFFFFF JUMPDEST SWAP2 POP POP SWAP3 SWAP2 POP POP JUMP JUMPDEST PUSH1 0x0 DUP1 PUSH1 0x80 DUP4 SWAP1 SHL EQ PUSH2 0x4DE6 JUMPI PUSH1 0x80 DUP3 SWAP1 SHL SWAP2 POP PUSH1 0x80 SWAP1 POP JUMPDEST PUSH1 0x0 PUSH1 0x40 DUP4 SWAP1 SHL EQ PUSH2 0x4E00 JUMPI PUSH1 0x40 DUP3 SWAP1 SHL SWAP2 POP PUSH1 0x40 DUP2 ADD SWAP1 POP JUMPDEST PUSH1 0x0 PUSH1 0x20 DUP4 SWAP1 SHL EQ PUSH2 0x4E1A JUMPI PUSH1 0x20 DUP3 SWAP1 SHL SWAP2 POP PUSH1 0x20 DUP2 ADD SWAP1 POP JUMPDEST PUSH1 0x0 PUSH1 0x10 DUP4 SWAP1 SHL EQ PUSH2 0x4E34 JUMPI PUSH1 0x10 DUP3 SWAP1 SHL SWAP2 POP PUSH1 0x10 DUP2 ADD SWAP1 POP JUMPDEST PUSH1 0x0 PUSH1 0x8 DUP4 SWAP1 SHL EQ PUSH2 0x4E4E JUMPI PUSH1 0x8 DUP3 SWAP1 SHL SWAP2 POP PUSH1 0x8 DUP2 ADD SWAP1 POP JUMPDEST PUSH1 0x0 PUSH1 0x4 DUP4 SWAP1 SHL EQ PUSH2 0x4E68 JUMPI PUSH1 0x4 DUP3 SWAP1 SHL SWAP2 POP PUSH1 0x4 DUP2 ADD SWAP1 POP JUMPDEST PUSH1 0x0 PUSH1 0x2 DUP4 SWAP1 SHL EQ PUSH2 0x4E82 JUMPI PUSH1 0x2 DUP3 SWAP1 SHL SWAP2 POP PUSH1 0x2 DUP2 ADD SWAP1 POP JUMPDEST PUSH1 0x0 PUSH1 0x1 DUP4 SWAP1 SHL EQ PUSH2 0x4E95 JUMPI PUSH1 0x1 DUP2 ADD SWAP1 POP JUMPDEST DUP1 PUSH1 0xFF SUB SWAP1 POP SWAP2 SWAP1 POP JUMP JUMPDEST PUSH1 0x0 PUSH17 0x100000000000000000000000000000000 DUP3 LT PUSH2 0x4EC6 JUMPI PUSH1 0x80 DUP3 SWAP1 SHR SWAP2 POP PUSH1 0x80 SWAP1 POP JUMPDEST PUSH9 0x10000000000000000 DUP3 LT PUSH2 0x4EE4 JUMPI PUSH1 0x40 DUP3 SWAP1 SHR SWAP2 POP PUSH1 0x40 DUP2 ADD SWAP1 POP JUMPDEST PUSH5 0x100000000 DUP3 LT PUSH2 0x4EFE JUMPI PUSH1 0x20 DUP3 SWAP1 SHR SWAP2 POP PUSH1 0x20 DUP2 ADD SWAP1 POP JUMPDEST PUSH3 0x10000 DUP3 LT PUSH2 0x4F16 JUMPI PUSH1 0x10 DUP3 SWAP1 SHR SWAP2 POP PUSH1 0x10 DUP2 ADD SWAP1 POP JUMPDEST PUSH2 0x100 DUP3 LT PUSH2 0x4F2D JUMPI PUSH1 0x8 DUP3 SWAP1 SHR SWAP2 POP PUSH1 0x8 DUP2 ADD SWAP1 POP JUMPDEST PUSH1 0x10 DUP3 LT PUSH2 0x4F43 JUMPI PUSH1 0x4 DUP3 SWAP1 SHR SWAP2 POP PUSH1 0x4 DUP2 ADD SWAP1 POP JUMPDEST PUSH1 0x4 DUP3 LT PUSH2 0x4F59 JUMPI PUSH1 0x2 DUP3 SWAP1 SHR SWAP2 POP PUSH1 0x2 DUP2 ADD SWAP1 POP JUMPDEST PUSH1 0x2 DUP3 LT PUSH2 0x4F68 JUMPI PUSH1 0x1 DUP2 ADD SWAP1 POP JUMPDEST SWAP2 SWAP1 POP JUMP JUMPDEST DUP3 PUSH1 0x2 DUP2 ADD SWAP3 DUP3 ISZERO PUSH2 0x4F9C JUMPI SWAP2 PUSH1 0x20 MUL DUP3 ADD JUMPDEST DUP3 DUP2 GT ISZERO PUSH2 0x4F9B JUMPI DUP3 MLOAD DUP3 SSTORE SWAP2 PUSH1 0x20 ADD SWAP2 SWAP1 PUSH1 0x1 ADD SWAP1 PUSH2 0x4F80 JUMP JUMPDEST JUMPDEST POP SWAP1 POP PUSH2 0x4FA9 SWAP2 SWAP1 PUSH2 0x5068 JUMP JUMPDEST POP SWAP1 JUMP JUMPDEST DUP3 DUP1 SLOAD DUP3 DUP3 SSTORE SWAP1 PUSH1 0x0 MSTORE PUSH1 0x20 PUSH1 0x0 KECCAK256 SWAP1 DUP2 ADD SWAP3 DUP3 ISZERO PUSH2 0x4FE9 JUMPI SWAP2 PUSH1 0x20 MUL DUP3 ADD JUMPDEST DUP3 DUP2 GT ISZERO PUSH2 0x4FE8 JUMPI DUP3 CALLDATALOAD DUP3 SSTORE SWAP2 PUSH1 0x20 ADD SWAP2 SWAP1 PUSH1 0x1 ADD SWAP1 PUSH2 0x4FCD JUMP JUMPDEST JUMPDEST POP SWAP1 POP PUSH2 0x4FF6 SWAP2 SWAP1 PUSH2 0x5068 JUMP JUMPDEST POP SWAP1 JUMP JUMPDEST DUP3 DUP1 SLOAD DUP3 DUP3 SSTORE SWAP1 PUSH1 0x0 MSTORE PUSH1 0x20 PUSH1 0x0 KECCAK256 SWAP1 DUP2 ADD SWAP3 DUP3 ISZERO PUSH2 0x5036 JUMPI SWAP2 PUSH1 0x20 MUL DUP3 ADD JUMPDEST DUP3 DUP2 GT ISZERO PUSH2 0x5035 JUMPI DUP3 MLOAD DUP3 SSTORE SWAP2 PUSH1 0x20 ADD SWAP2 SWAP1 PUSH1 0x1 ADD SWAP1 PUSH2 0x501A JUMP JUMPDEST JUMPDEST POP SWAP1 POP PUSH2 0x5043 SWAP2 SWAP1 PUSH2 0x5068 JUMP JUMPDEST POP SWAP1 JUMP JUMPDEST POP DUP1 SLOAD PUSH1 0x0 DUP3 SSTORE SWAP1 PUSH1 0x0 MSTORE PUSH1 0x20 PUSH1 0x0 KECCAK256 SWAP1 DUP2 ADD SWAP1 PUSH2 0x5065 SWAP2 SWAP1 PUSH2 0x5068 JUMP JUMPDEST POP JUMP JUMPDEST JUMPDEST DUP1 DUP3 GT ISZERO PUSH2 0x5081 JUMPI PUSH1 0x0 DUP2 PUSH1 0x0 SWAP1 SSTORE POP PUSH1 0x1 ADD PUSH2 0x5069 JUMP JUMPDEST POP SWAP1 JUMP JUMPDEST PUSH1 0x0 PUSH1 0x40 MLOAD SWAP1 POP SWAP1 JUMP JUMPDEST PUSH1 0x0 DUP1 REVERT JUMPDEST PUSH1 0x0 DUP1 REVERT JUMPDEST PUSH1 0x0 PUSH3 0xFFFFFF DUP3 AND SWAP1 POP SWAP2 SWAP1 POP JUMP JUMPDEST PUSH2 0x50B1 DUP2 PUSH2 0x5099 JUMP JUMPDEST DUP2 EQ PUSH2 0x50BC JUMPI PUSH1 0x0 DUP1 REVERT JUMPDEST POP JUMP JUMPDEST PUSH1 0x0 DUP2 CALLDATALOAD SWAP1 POP PUSH2 0x50CE DUP2 PUSH2 0x50A8 JUMP JUMPDEST SWAP3 SWAP2 POP POP JUMP JUMPDEST PUSH1 0x0 PUSH1 0x20 DUP3 DUP5 SUB SLT ISZERO PUSH2 0x50EA JUMPI PUSH2 0x50E9 PUSH2 0x508F JUMP JUMPDEST JUMPDEST PUSH1 0x0 PUSH2 0x50F8 DUP5 DUP3 DUP6 ADD PUSH2 0x50BF JUMP JUMPDEST SWAP2 POP POP SWAP3 SWAP2 POP POP JUMP JUMPDEST PUSH1 0x0 DUP2 SWAP1 POP SWAP2 SWAP1 POP JUMP JUMPDEST PUSH2 0x5114 DUP2 PUSH2 0x5101 JUMP JUMPDEST DUP3 MSTORE POP POP JUMP JUMPDEST PUSH1 0x0 PUSH1 0x40 DUP3 ADD SWAP1 POP PUSH2 0x512F PUSH1 0x0 DUP4 ADD DUP6 PUSH2 0x510B JUMP JUMPDEST PUSH2 0x513C PUSH1 0x20 DUP4 ADD DUP5 PUSH2 0x510B JUMP JUMPDEST SWAP4 SWAP3 POP POP POP JUMP JUMPDEST PUSH1 0x0 PUSH20 0xFFFFFFFFFFFFFFFFFFFFFFFFFFFFFFFFFFFFFFFF DUP3 AND SWAP1 POP SWAP2 SWAP1 POP JUMP JUMPDEST PUSH1 0x0 PUSH2 0x516E DUP3 PUSH2 0x5143 JUMP JUMPDEST SWAP1 POP SWAP2 SWAP1 POP JUMP JUMPDEST PUSH2 0x517E DUP2 PUSH2 0x5163 JUMP JUMPDEST DUP2 EQ PUSH2 0x5189 JUMPI PUSH1 0x0 DUP1 REVERT JUMPDEST POP JUMP JUMPDEST PUSH1 0x0 DUP2 CALLDATALOAD SWAP1 POP PUSH2 0x519B DUP2 PUSH2 0x5175 JUMP JUMPDEST SWAP3 SWAP2 POP POP JUMP JUMPDEST PUSH2 0x51AA DUP2 PUSH2 0x5101 JUMP JUMPDEST DUP2 EQ PUSH2 0x51B5 JUMPI PUSH1 0x0 DUP1 REVERT JUMPDEST POP JUMP JUMPDEST PUSH1 0x0 DUP2 CALLDATALOAD SWAP1 POP PUSH2 0x51C7 DUP2 PUSH2 0x51A1 JUMP JUMPDEST SWAP3 SWAP2 POP POP JUMP JUMPDEST PUSH1 0x0 DUP1 REVERT JUMPDEST PUSH1 0x0 DUP1 REVERT JUMPDEST PUSH1 0x0 PUSH1 0x1F NOT PUSH1 0x1F DUP4 ADD AND SWAP1 POP SWAP2 SWAP1 POP JUMP JUMPDEST PUSH32 0x4E487B7100000000000000000000000000000000000000000000000000000000 PUSH1 0x0 MSTORE PUSH1 0x41 PUSH1 0x4 MSTORE PUSH1 0x24 PUSH1 0x0 REVERT JUMPDEST PUSH2 0x5220 DUP3 PUSH2 0x51D7 JUMP JUMPDEST DUP2 ADD DUP2 DUP2 LT PUSH8 0xFFFFFFFFFFFFFFFF DUP3 GT OR ISZERO PUSH2 0x523F JUMPI PUSH2 0x523E PUSH2 0x51E8 JUMP JUMPDEST JUMPDEST DUP1 PUSH1 0x40 MSTORE POP POP POP JUMP JUMPDEST PUSH1 0x0 PUSH2 0x5252 PUSH2 0x5085 JUMP JUMPDEST SWAP1 POP PUSH2 0x525E DUP3 DUP3 PUSH2 0x5217 JUMP JUMPDEST SWAP2 SWAP1 POP JUMP JUMPDEST PUSH1 0x0 PUSH8 0xFFFFFFFFFFFFFFFF DUP3 GT ISZERO PUSH2 0x527E JUMPI PUSH2 0x527D PUSH2 0x51E8 JUMP JUMPDEST JUMPDEST PUSH2 0x5287 DUP3 PUSH2 0x51D7 JUMP JUMPDEST SWAP1 POP PUSH1 0x20 DUP2 ADD SWAP1 POP SWAP2 SWAP1 POP JUMP JUMPDEST DUP3 DUP2 DUP4 CALLDATACOPY PUSH1 0x0 DUP4 DUP4 ADD MSTORE POP POP POP JUMP JUMPDEST PUSH1 0x0 PUSH2 0x52B6 PUSH2 0x52B1 DUP5 PUSH2 0x5263 JUMP JUMPDEST PUSH2 0x5248 JUMP JUMPDEST SWAP1 POP DUP3 DUP2 MSTORE PUSH1 0x20 DUP2 ADD DUP5 DUP5 DUP5 ADD GT ISZERO PUSH2 0x52D2 JUMPI PUSH2 0x52D1 PUSH2 0x51D2 JUMP JUMPDEST JUMPDEST PUSH2 0x52DD DUP5 DUP3 DUP6 PUSH2 0x5294 JUMP JUMPDEST POP SWAP4 SWAP3 POP POP POP JUMP JUMPDEST PUSH1 0x0 DUP3 PUSH1 0x1F DUP4 ADD SLT PUSH2 0x52FA JUMPI PUSH2 0x52F9 PUSH2 0x51CD JUMP JUMPDEST JUMPDEST DUP2 CALLDATALOAD PUSH2 0x530A DUP5 DUP3 PUSH1 0x20 DUP7 ADD PUSH2 0x52A3 JUMP JUMPDEST SWAP2 POP POP SWAP3 SWAP2 POP POP JUMP JUMPDEST PUSH1 0x0 DUP1 PUSH1 0x0 DUP1 PUSH1 0x80 DUP6 DUP8 SUB SLT ISZERO PUSH2 0x532D JUMPI PUSH2 0x532C PUSH2 0x508F JUMP JUMPDEST JUMPDEST PUSH1 0x0 PUSH2 0x533B DUP8 DUP3 DUP9 ADD PUSH2 0x518C JUMP JUMPDEST SWAP5 POP POP PUSH1 0x20 PUSH2 0x534C DUP8 DUP3 DUP9 ADD PUSH2 0x518C JUMP JUMPDEST SWAP4 POP POP PUSH1 0x40 PUSH2 0x535D DUP8 DUP3 DUP9 ADD PUSH2 0x51B8 JUMP JUMPDEST SWAP3 POP POP PUSH1 0x60 DUP6 ADD CALLDATALOAD PUSH8 0xFFFFFFFFFFFFFFFF DUP2 GT ISZERO PUSH2 0x537E JUMPI PUSH2 0x537D PUSH2 0x5094 JUMP JUMPDEST JUMPDEST PUSH2 0x538A DUP8 DUP3 DUP9 ADD PUSH2 0x52E5 JUMP JUMPDEST SWAP2 POP POP SWAP3 SWAP6 SWAP2 SWAP5 POP SWAP3 POP JUMP JUMPDEST PUSH1 0x0 PUSH32 0xFFFFFFFF00000000000000000000000000000000000000000000000000000000 DUP3 AND SWAP1 POP SWAP2 SWAP1 POP JUMP JUMPDEST PUSH2 0x53CB DUP2 PUSH2 0x5396 JUMP JUMPDEST DUP3 MSTORE POP POP JUMP JUMPDEST PUSH1 0x0 PUSH1 0x20 DUP3 ADD SWAP1 POP PUSH2 0x53E6 PUSH1 0x0 DUP4 ADD DUP5 PUSH2 0x53C2 JUMP JUMPDEST SWAP3 SWAP2 POP POP JUMP JUMPDEST PUSH1 0x0 DUP2 SWAP1 POP SWAP2 SWAP1 POP JUMP JUMPDEST PUSH1 0x0 PUSH2 0x5411 PUSH2 0x540C PUSH2 0x5407 DUP5 PUSH2 0x5143 JUMP JUMPDEST PUSH2 0x53EC JUMP JUMPDEST PUSH2 0x5143 JUMP JUMPDEST SWAP1 POP SWAP2 SWAP1 POP JUMP JUMPDEST PUSH1 0x0 PUSH2 0x5423 DUP3 PUSH2 0x53F6 JUMP JUMPDEST SWAP1 POP SWAP2 SWAP1 POP JUMP JUMPDEST PUSH1 0x0 PUSH2 0x5435 DUP3 PUSH2 0x5418 JUMP JUMPDEST SWAP1 POP SWAP2 SWAP1 POP JUMP JUMPDEST PUSH2 0x5445 DUP2 PUSH2 0x542A JUMP JUMPDEST DUP3 MSTORE POP POP JUMP JUMPDEST PUSH1 0x0 PUSH1 0x20 DUP3 ADD SWAP1 POP PUSH2 0x5460 PUSH1 0x0 DUP4 ADD DUP5 PUSH2 0x543C JUMP JUMPDEST SWAP3 SWAP2 POP POP JUMP JUMPDEST PUSH1 0x0 PUSH1 0x80 DUP3 ADD SWAP1 POP PUSH2 0x547B PUSH1 0x0 DUP4 ADD DUP8 PUSH2 0x510B JUMP JUMPDEST PUSH2 0x5488 PUSH1 0x20 DUP4 ADD DUP7 PUSH2 0x510B JUMP JUMPDEST PUSH2 0x5495 PUSH1 0x40 DUP4 ADD DUP6 PUSH2 0x510B JUMP JUMPDEST PUSH2 0x54A2 PUSH1 0x60 DUP4 ADD DUP5 PUSH2 0x510B JUMP JUMPDEST SWAP6 SWAP5 POP POP POP POP POP JUMP JUMPDEST PUSH1 0x0 DUP1 PUSH1 0x40 DUP4 DUP6 SUB SLT ISZERO PUSH2 0x54C2 JUMPI PUSH2 0x54C1 PUSH2 0x508F JUMP JUMPDEST JUMPDEST PUSH1 0x0 PUSH2 0x54D0 DUP6 DUP3 DUP7 ADD PUSH2 0x51B8 JUMP JUMPDEST SWAP3 POP POP PUSH1 0x20 PUSH2 0x54E1 DUP6 DUP3 DUP7 ADD PUSH2 0x518C JUMP JUMPDEST SWAP2 POP POP SWAP3 POP SWAP3 SWAP1 POP JUMP JUMPDEST PUSH1 0x0 PUSH1 0x20 DUP3 ADD SWAP1 POP PUSH2 0x5500 PUSH1 0x0 DUP4 ADD DUP5 PUSH2 0x510B JUMP JUMPDEST SWAP3 SWAP2 POP POP JUMP JUMPDEST PUSH1 0x0 PUSH1 0x20 DUP3 DUP5 SUB SLT ISZERO PUSH2 0x551C JUMPI PUSH2 0x551B PUSH2 0x508F JUMP JUMPDEST JUMPDEST PUSH1 0x0 PUSH2 0x552A DUP5 DUP3 DUP6 ADD PUSH2 0x51B8 JUMP JUMPDEST SWAP2 POP POP SWAP3 SWAP2 POP POP JUMP JUMPDEST PUSH1 0x0 DUP1 PUSH1 0x40 DUP4 DUP6 SUB SLT ISZERO PUSH2 0x554A JUMPI PUSH2 0x5549 PUSH2 0x508F JUMP JUMPDEST JUMPDEST PUSH1 0x0 PUSH2 0x5558 DUP6 DUP3 DUP7 ADD PUSH2 0x50BF JUMP JUMPDEST SWAP3 POP POP PUSH1 0x20 PUSH2 0x5569 DUP6 DUP3 DUP7 ADD PUSH2 0x51B8 JUMP JUMPDEST SWAP2 POP POP SWAP3 POP SWAP3 SWAP1 POP JUMP JUMPDEST PUSH1 0x0 PUSH2 0x557E DUP3 PUSH2 0x5418 JUMP JUMPDEST SWAP1 POP SWAP2 SWAP1 POP JUMP JUMPDEST PUSH2 0x558E DUP2 PUSH2 0x5573 JUMP JUMPDEST DUP3 MSTORE POP POP JUMP JUMPDEST PUSH1 0x0 PUSH1 0x20 DUP3 ADD SWAP1 POP PUSH2 0x55A9 PUSH1 0x0 DUP4 ADD DUP5 PUSH2 0x5585 JUMP JUMPDEST SWAP3 SWAP2 POP POP JUMP JUMPDEST PUSH2 0x55B8 DUP2 PUSH2 0x5099 JUMP JUMPDEST DUP3 MSTORE POP POP JUMP JUMPDEST PUSH1 0x0 PUSH1 0x80 DUP3 ADD SWAP1 POP PUSH2 0x55D3 PUSH1 0x0 DUP4 ADD DUP8 PUSH2 0x55AF JUMP JUMPDEST PUSH2 0x55E0 PUSH1 0x20 DUP4 ADD DUP7 PUSH2 0x55AF JUMP JUMPDEST PUSH2 0x55ED PUSH1 0x40 DUP4 ADD DUP6 PUSH2 0x55AF JUMP JUMPDEST PUSH2 0x55FA PUSH1 0x60 DUP4 ADD DUP5 PUSH2 0x510B JUMP JUMPDEST SWAP6 SWAP5 POP POP POP POP POP JUMP JUMPDEST PUSH1 0x0 DUP1 REVERT JUMPDEST PUSH1 0x0 DUP1 REVERT JUMPDEST PUSH1 0x0 DUP1 DUP4 PUSH1 0x1F DUP5 ADD SLT PUSH2 0x5623 JUMPI PUSH2 0x5622 PUSH2 0x51CD JUMP JUMPDEST JUMPDEST DUP3 CALLDATALOAD SWAP1 POP PUSH8 0xFFFFFFFFFFFFFFFF DUP2 GT ISZERO PUSH2 0x5640 JUMPI PUSH2 0x563F PUSH2 0x5603 JUMP JUMPDEST JUMPDEST PUSH1 0x20 DUP4 ADD SWAP2 POP DUP4 PUSH1 0x20 DUP3 MUL DUP4 ADD GT ISZERO PUSH2 0x565C JUMPI PUSH2 0x565B PUSH2 0x5608 JUMP JUMPDEST JUMPDEST SWAP3 POP SWAP3 SWAP1 POP JUMP JUMPDEST PUSH1 0x0 DUP1 PUSH1 0x0 PUSH1 0x40 DUP5 DUP7 SUB SLT ISZERO PUSH2 0x567C JUMPI PUSH2 0x567B PUSH2 0x508F JUMP JUMPDEST JUMPDEST PUSH1 0x0 DUP5 ADD CALLDATALOAD PUSH8 0xFFFFFFFFFFFFFFFF DUP2 GT ISZERO PUSH2 0x569A JUMPI PUSH2 0x5699 PUSH2 0x5094 JUMP JUMPDEST JUMPDEST PUSH2 0x56A6 DUP7 DUP3 DUP8 ADD PUSH2 0x560D JUMP JUMPDEST SWAP4 POP SWAP4 POP POP PUSH1 0x20 PUSH2 0x56B9 DUP7 DUP3 DUP8 ADD PUSH2 0x518C JUMP JUMPDEST SWAP2 POP POP SWAP3 POP SWAP3 POP SWAP3 JUMP JUMPDEST PUSH1 0x0 PUSH2 0x56CE DUP3 PUSH2 0x5418 JUMP JUMPDEST SWAP1 POP SWAP2 SWAP1 POP JUMP JUMPDEST PUSH2 0x56DE DUP2 PUSH2 0x56C3 JUMP JUMPDEST DUP3 MSTORE POP POP JUMP JUMPDEST PUSH1 0x0 PUSH1 0x20 DUP3 ADD SWAP1 POP PUSH2 0x56F9 PUSH1 0x0 DUP4 ADD DUP5 PUSH2 0x56D5 JUMP JUMPDEST SWAP3 SWAP2 POP POP JUMP JUMPDEST PUSH1 0x0 PUSH2 0x570A DUP3 PUSH2 0x5418 JUMP JUMPDEST SWAP1 POP SWAP2 SWAP1 POP JUMP JUMPDEST PUSH2 0x571A DUP2 PUSH2 0x56FF JUMP JUMPDEST DUP3 MSTORE POP POP JUMP JUMPDEST PUSH1 0x0 PUSH1 0x20 DUP3 ADD SWAP1 POP PUSH2 0x5735 PUSH1 0x0 DUP4 ADD DUP5 PUSH2 0x5711 JUMP JUMPDEST SWAP3 SWAP2 POP POP JUMP JUMPDEST PUSH1 0x0 DUP1 PUSH1 0x40 DUP4 DUP6 SUB SLT ISZERO PUSH2 0x5752 JUMPI PUSH2 0x5751 PUSH2 0x508F JUMP JUMPDEST JUMPDEST PUSH1 0x0 PUSH2 0x5760 DUP6 DUP3 DUP7 ADD PUSH2 0x51B8 JUMP JUMPDEST SWAP3 POP POP PUSH1 0x20 PUSH2 0x5771 DUP6 DUP3 DUP7 ADD PUSH2 0x51B8 JUMP JUMPDEST SWAP2 POP POP SWAP3 POP SWAP3 SWAP1 POP JUMP JUMPDEST PUSH1 0x0 DUP1 DUP4 PUSH1 0x1F DUP5 ADD SLT PUSH2 0x5791 JUMPI PUSH2 0x5790 PUSH2 0x51CD JUMP JUMPDEST JUMPDEST DUP3 CALLDATALOAD SWAP1 POP PUSH8 0xFFFFFFFFFFFFFFFF DUP2 GT ISZERO PUSH2 0x57AE JUMPI PUSH2 0x57AD PUSH2 0x5603 JUMP JUMPDEST JUMPDEST PUSH1 0x20 DUP4 ADD SWAP2 POP DUP4 PUSH1 0x20 DUP3 MUL DUP4 ADD GT ISZERO PUSH2 0x57CA JUMPI PUSH2 0x57C9 PUSH2 0x5608 JUMP JUMPDEST JUMPDEST SWAP3 POP SWAP3 SWAP1 POP JUMP JUMPDEST PUSH1 0x0 DUP2 ISZERO ISZERO SWAP1 POP SWAP2 SWAP1 POP JUMP JUMPDEST PUSH2 0x57E6 DUP2 PUSH2 0x57D1 JUMP JUMPDEST DUP2 EQ PUSH2 0x57F1 JUMPI PUSH1 0x0 DUP1 REVERT JUMPDEST POP JUMP JUMPDEST PUSH1 0x0 DUP2 CALLDATALOAD SWAP1 POP PUSH2 0x5803 DUP2 PUSH2 0x57DD JUMP JUMPDEST SWAP3 SWAP2 POP POP JUMP JUMPDEST PUSH1 0x0 DUP1 PUSH1 0x0 DUP1 PUSH1 0x0 DUP1 PUSH1 0x80 DUP8 DUP10 SUB SLT ISZERO PUSH2 0x5826 JUMPI PUSH2 0x5825 PUSH2 0x508F JUMP JUMPDEST JUMPDEST PUSH1 0x0 DUP8 ADD CALLDATALOAD PUSH8 0xFFFFFFFFFFFFFFFF DUP2 GT ISZERO PUSH2 0x5844 JUMPI PUSH2 0x5843 PUSH2 0x5094 JUMP JUMPDEST JUMPDEST PUSH2 0x5850 DUP10 DUP3 DUP11 ADD PUSH2 0x560D JUMP JUMPDEST SWAP7 POP SWAP7 POP POP PUSH1 0x20 DUP8 ADD CALLDATALOAD PUSH8 0xFFFFFFFFFFFFFFFF DUP2 GT ISZERO PUSH2 0x5873 JUMPI PUSH2 0x5872 PUSH2 0x5094 JUMP JUMPDEST JUMPDEST PUSH2 0x587F DUP10 DUP3 DUP11 ADD PUSH2 0x577B JUMP JUMPDEST SWAP5 POP SWAP5 POP POP PUSH1 0x40 PUSH2 0x5892 DUP10 DUP3 DUP11 ADD PUSH2 0x518C JUMP JUMPDEST SWAP3 POP POP PUSH1 0x60 PUSH2 0x58A3 DUP10 DUP3 DUP11 ADD PUSH2 0x57F4 JUMP JUMPDEST SWAP2 POP POP SWAP3 SWAP6 POP SWAP3 SWAP6 POP SWAP3 SWAP6 JUMP JUMPDEST PUSH32 0x4E487B7100000000000000000000000000000000000000000000000000000000 PUSH1 0x0 MSTORE PUSH1 0x32 PUSH1 0x4 MSTORE PUSH1 0x24 PUSH1 0x0 REVERT JUMPDEST PUSH1 0x0 PUSH2 0x58FA PUSH2 0x58F5 PUSH2 0x58F0 DUP5 PUSH2 0x5099 JUMP JUMPDEST PUSH2 0x53EC JUMP JUMPDEST PUSH2 0x5101 JUMP JUMPDEST SWAP1 POP SWAP2 SWAP1 POP JUMP JUMPDEST PUSH2 0x590A DUP2 PUSH2 0x58DF JUMP JUMPDEST DUP3 MSTORE POP POP JUMP JUMPDEST PUSH1 0x0 PUSH1 0x20 DUP3 ADD SWAP1 POP PUSH2 0x5925 PUSH1 0x0 DUP4 ADD DUP5 PUSH2 0x5901 JUMP JUMPDEST SWAP3 SWAP2 POP POP JUMP JUMPDEST PUSH2 0x5934 DUP2 PUSH2 0x5163 JUMP JUMPDEST DUP3 MSTORE POP POP JUMP JUMPDEST PUSH1 0x0 PUSH1 0x60 DUP3 ADD SWAP1 POP PUSH2 0x594F PUSH1 0x0 DUP4 ADD DUP7 PUSH2 0x592B JUMP JUMPDEST PUSH2 0x595C PUSH1 0x20 DUP4 ADD DUP6 PUSH2 0x592B JUMP JUMPDEST PUSH2 0x5969 PUSH1 0x40 DUP4 ADD DUP5 PUSH2 0x510B JUMP JUMPDEST SWAP5 SWAP4 POP POP POP POP JUMP JUMPDEST PUSH32 0x4E487B7100000000000000000000000000000000000000000000000000000000 PUSH1 0x0 MSTORE PUSH1 0x11 PUSH1 0x4 MSTORE PUSH1 0x24 PUSH1 0x0 REVERT JUMPDEST PUSH1 0x0 PUSH2 0x59AB DUP3 PUSH2 0x5099 JUMP JUMPDEST SWAP2 POP PUSH2 0x59B6 DUP4 PUSH2 0x5099 JUMP JUMPDEST SWAP3 POP DUP3 DUP3 LT ISZERO PUSH2 0x59C9 JUMPI PUSH2 0x59C8 PUSH2 0x5971 JUMP JUMPDEST JUMPDEST DUP3 DUP3 SUB SWAP1 POP SWAP3 SWAP2 POP POP JUMP JUMPDEST PUSH1 0x0 PUSH2 0x59DF DUP3 PUSH2 0x5101 JUMP JUMPDEST SWAP2 POP PUSH2 0x59EA DUP4 PUSH2 0x5101 JUMP JUMPDEST SWAP3 POP DUP3 DUP3 LT ISZERO PUSH2 0x59FD JUMPI PUSH2 0x59FC PUSH2 0x5971 JUMP JUMPDEST JUMPDEST DUP3 DUP3 SUB SWAP1 POP SWAP3 SWAP2 POP POP JUMP JUMPDEST PUSH1 0x0 PUSH2 0x5A13 DUP3 PUSH2 0x5101 JUMP JUMPDEST SWAP2 POP PUSH2 0x5A1E DUP4 PUSH2 0x5101 JUMP JUMPDEST SWAP3 POP DUP3 PUSH32 0xFFFFFFFFFFFFFFFFFFFFFFFFFFFFFFFFFFFFFFFFFFFFFFFFFFFFFFFFFFFFFFFF SUB DUP3 GT ISZERO PUSH2 0x5A53 JUMPI PUSH2 0x5A52 PUSH2 0x5971 JUMP JUMPDEST JUMPDEST DUP3 DUP3 ADD SWAP1 POP SWAP3 SWAP2 POP POP JUMP JUMPDEST PUSH1 0x0 DUP2 MLOAD SWAP1 POP PUSH2 0x5A6D DUP2 PUSH2 0x5175 JUMP JUMPDEST SWAP3 SWAP2 POP POP JUMP JUMPDEST PUSH1 0x0 PUSH1 0x20 DUP3 DUP5 SUB SLT ISZERO PUSH2 0x5A89 JUMPI PUSH2 0x5A88 PUSH2 0x508F JUMP JUMPDEST JUMPDEST PUSH1 0x0 PUSH2 0x5A97 DUP5 DUP3 DUP6 ADD PUSH2 0x5A5E JUMP JUMPDEST SWAP2 POP POP SWAP3 SWAP2 POP POP JUMP JUMPDEST PUSH1 0x0 PUSH1 0x40 DUP3 ADD SWAP1 POP PUSH2 0x5AB5 PUSH1 0x0 DUP4 ADD DUP6 PUSH2 0x592B JUMP JUMPDEST PUSH2 0x5AC2 PUSH1 0x20 DUP4 ADD DUP5 PUSH2 0x592B JUMP JUMPDEST SWAP4 SWAP3 POP POP POP JUMP JUMPDEST PUSH1 0x0 PUSH1 0x40 DUP3 ADD SWAP1 POP PUSH2 0x5ADE PUSH1 0x0 DUP4 ADD DUP6 PUSH2 0x592B JUMP JUMPDEST PUSH2 0x5AEB PUSH1 0x20 DUP4 ADD DUP5 PUSH2 0x510B JUMP JUMPDEST SWAP4 SWAP3 POP POP POP JUMP JUMPDEST PUSH1 0x0 PUSH2 0x5AFD DUP3 PUSH2 0x5101 JUMP JUMPDEST SWAP2 POP PUSH32 0xFFFFFFFFFFFFFFFFFFFFFFFFFFFFFFFFFFFFFFFFFFFFFFFFFFFFFFFFFFFFFFFF DUP3 EQ ISZERO PUSH2 0x5B30 JUMPI PUSH2 0x5B2F PUSH2 0x5971 JUMP JUMPDEST JUMPDEST PUSH1 0x1 DUP3 ADD SWAP1 POP SWAP2 SWAP1 POP JUMP JUMPDEST PUSH32 0x4E487B7100000000000000000000000000000000000000000000000000000000 PUSH1 0x0 MSTORE PUSH1 0x12 PUSH1 0x4 MSTORE PUSH1 0x24 PUSH1 0x0 REVERT JUMPDEST PUSH1 0x0 PUSH2 0x5B75 DUP3 PUSH2 0x5101 JUMP JUMPDEST SWAP2 POP PUSH2 0x5B80 DUP4 PUSH2 0x5101 JUMP JUMPDEST SWAP3 POP DUP3 PUSH2 0x5B90 JUMPI PUSH2 0x5B8F PUSH2 0x5B3B JUMP JUMPDEST JUMPDEST DUP3 DUP3 MOD SWAP1 POP SWAP3 SWAP2 POP POP JUMP JUMPDEST PUSH1 0x0 PUSH2 0x5BA6 DUP3 PUSH2 0x5099 JUMP JUMPDEST SWAP2 POP PUSH2 0x5BB1 DUP4 PUSH2 0x5099 JUMP JUMPDEST SWAP3 POP DUP3 PUSH3 0xFFFFFF SUB DUP3 GT ISZERO PUSH2 0x5BC9 JUMPI PUSH2 0x5BC8 PUSH2 0x5971 JUMP JUMPDEST JUMPDEST DUP3 DUP3 ADD SWAP1 POP SWAP3 SWAP2 POP POP JUMP JUMPDEST PUSH1 0x0 PUSH2 0x5BDF DUP3 PUSH2 0x5099 JUMP JUMPDEST SWAP2 POP PUSH2 0x5BEA DUP4 PUSH2 0x5099 JUMP JUMPDEST SWAP3 POP DUP2 PUSH3 0xFFFFFF DIV DUP4 GT DUP3 ISZERO ISZERO AND ISZERO PUSH2 0x5C06 JUMPI PUSH2 0x5C05 PUSH2 0x5971 JUMP JUMPDEST JUMPDEST DUP3 DUP3 MUL SWAP1 POP SWAP3 SWAP2 POP POP JUMP JUMPDEST PUSH1 0x0 PUSH2 0x5C1C DUP3 PUSH2 0x5099 JUMP JUMPDEST SWAP2 POP PUSH3 0xFFFFFF DUP3 EQ ISZERO PUSH2 0x5C32 JUMPI PUSH2 0x5C31 PUSH2 0x5971 JUMP JUMPDEST JUMPDEST PUSH1 0x1 DUP3 ADD SWAP1 POP SWAP2 SWAP1 POP JUMP JUMPDEST PUSH1 0x0 PUSH2 0x5C48 DUP3 PUSH2 0x5101 JUMP JUMPDEST SWAP2 POP PUSH2 0x5C53 DUP4 PUSH2 0x5101 JUMP JUMPDEST SWAP3 POP DUP2 PUSH32 0xFFFFFFFFFFFFFFFFFFFFFFFFFFFFFFFFFFFFFFFFFFFFFFFFFFFFFFFFFFFFFFFF DIV DUP4 GT DUP3 ISZERO ISZERO AND ISZERO PUSH2 0x5C8C JUMPI PUSH2 0x5C8B PUSH2 0x5971 JUMP JUMPDEST JUMPDEST DUP3 DUP3 MUL SWAP1 POP SWAP3 SWAP2 POP POP JUMP JUMPDEST PUSH1 0x0 PUSH2 0x5CA2 DUP3 PUSH2 0x5101 JUMP JUMPDEST SWAP2 POP PUSH2 0x5CAD DUP4 PUSH2 0x5101 JUMP JUMPDEST SWAP3 POP DUP3 PUSH2 0x5CBD JUMPI PUSH2 0x5CBC PUSH2 0x5B3B JUMP JUMPDEST JUMPDEST DUP3 DUP3 DIV SWAP1 POP SWAP3 SWAP2 POP POP JUMP JUMPDEST PUSH1 0x0 DUP2 MLOAD SWAP1 POP PUSH2 0x5CD7 DUP2 PUSH2 0x57DD JUMP JUMPDEST SWAP3 SWAP2 POP POP JUMP JUMPDEST PUSH1 0x0 PUSH1 0x20 DUP3 DUP5 SUB SLT ISZERO PUSH2 0x5CF3 JUMPI PUSH2 0x5CF2 PUSH2 0x508F JUMP JUMPDEST JUMPDEST PUSH1 0x0 PUSH2 0x5D01 DUP5 DUP3 DUP6 ADD PUSH2 0x5CC8 JUMP JUMPDEST SWAP2 POP POP SWAP3 SWAP2 POP POP JUMP JUMPDEST PUSH1 0x0 PUSH1 0x20 DUP3 ADD SWAP1 POP PUSH2 0x5D1F PUSH1 0x0 DUP4 ADD DUP5 PUSH2 0x592B JUMP JUMPDEST SWAP3 SWAP2 POP POP JUMP JUMPDEST PUSH1 0x0 DUP2 MLOAD SWAP1 POP PUSH2 0x5D34 DUP2 PUSH2 0x51A1 JUMP JUMPDEST SWAP3 SWAP2 POP POP JUMP JUMPDEST PUSH1 0x0 PUSH1 0x20 DUP3 DUP5 SUB SLT ISZERO PUSH2 0x5D50 JUMPI PUSH2 0x5D4F PUSH2 0x508F JUMP JUMPDEST JUMPDEST PUSH1 0x0 PUSH2 0x5D5E DUP5 DUP3 DUP6 ADD PUSH2 0x5D25 JUMP JUMPDEST SWAP2 POP POP SWAP3 SWAP2 POP POP JUMP JUMPDEST PUSH1 0x0 DUP2 SWAP1 POP SWAP2 SWAP1 POP JUMP JUMPDEST PUSH2 0x5D7A DUP2 PUSH2 0x5D67 JUMP JUMPDEST DUP3 MSTORE POP POP JUMP JUMPDEST PUSH1 0x0 PUSH1 0x40 DUP3 ADD SWAP1 POP PUSH2 0x5D95 PUSH1 0x0 DUP4 ADD DUP6 PUSH2 0x510B JUMP JUMPDEST PUSH2 0x5DA2 PUSH1 0x20 DUP4 ADD DUP5 PUSH2 0x5D71 JUMP JUMPDEST SWAP4 SWAP3 POP POP POP JUMP JUMPDEST PUSH1 0x0 DUP2 MLOAD SWAP1 POP SWAP2 SWAP1 POP JUMP JUMPDEST PUSH1 0x0 DUP2 SWAP1 POP SWAP3 SWAP2 POP POP JUMP JUMPDEST PUSH1 0x0 JUMPDEST DUP4 DUP2 LT ISZERO PUSH2 0x5DDD JUMPI DUP1 DUP3 ADD MLOAD DUP2 DUP5 ADD MSTORE PUSH1 0x20 DUP2 ADD SWAP1 POP PUSH2 0x5DC2 JUMP JUMPDEST DUP4 DUP2 GT ISZERO PUSH2 0x5DEC JUMPI PUSH1 0x0 DUP5 DUP5 ADD MSTORE JUMPDEST POP POP POP POP JUMP JUMPDEST PUSH1 0x0 PUSH2 0x5DFD DUP3 PUSH2 0x5DA9 JUMP JUMPDEST PUSH2 0x5E07 DUP2 DUP6 PUSH2 0x5DB4 JUMP JUMPDEST SWAP4 POP PUSH2 0x5E17 DUP2 DUP6 PUSH1 0x20 DUP7 ADD PUSH2 0x5DBF JUMP JUMPDEST DUP1 DUP5 ADD SWAP2 POP POP SWAP3 SWAP2 POP POP JUMP JUMPDEST PUSH1 0x0 PUSH2 0x5E2F DUP3 DUP5 PUSH2 0x5DF2 JUMP JUMPDEST SWAP2 POP DUP2 SWAP1 POP SWAP3 SWAP2 POP POP JUMP JUMPDEST PUSH1 0x0 PUSH1 0xFF DUP3 AND SWAP1 POP SWAP2 SWAP1 POP JUMP JUMPDEST PUSH1 0x0 PUSH2 0x5E52 DUP3 PUSH2 0x5E3A JUMP JUMPDEST SWAP2 POP PUSH2 0x5E5D DUP4 PUSH2 0x5E3A JUMP JUMPDEST SWAP3 POP DUP3 PUSH1 0xFF SUB DUP3 GT ISZERO PUSH2 0x5E73 JUMPI PUSH2 0x5E72 PUSH2 0x5971 JUMP JUMPDEST JUMPDEST DUP3 DUP3 ADD SWAP1 POP SWAP3 SWAP2 POP POP JUMP JUMPDEST PUSH1 0x0 PUSH2 0x5E89 DUP3 PUSH2 0x5E3A JUMP JUMPDEST SWAP2 POP PUSH2 0x5E94 DUP4 PUSH2 0x5E3A JUMP JUMPDEST SWAP3 POP DUP3 DUP3 LT ISZERO PUSH2 0x5EA7 JUMPI PUSH2 0x5EA6 PUSH2 0x5971 JUMP JUMPDEST JUMPDEST DUP3 DUP3 SUB SWAP1 POP SWAP3 SWAP2 POP POP JUMP INVALID LOG2 PUSH5 0x6970667358 0x22 SLT KECCAK256 DELEGATECALL SWAP15 EQ 0xBE PUSH19 0x5AA018336AD958985CA6424D8BC1B796CFEEA3 DUP13 0xC4 0x25 LOG0 PUSH17 0x3EB25264736F6C634300080A0033000000 "
		},
		"gasEstimates": {
			"creation": {
				"codeDepositCost": "4859200",
				"executionCost": "infinite",
				"totalCost": "infinite"
			},
			"external": {
				"assetLPMap(uint256)": "infinite",
				"binLPMap(uint24,uint256)": "infinite",
				"burn(uint256,address)": "infinite",
				"buyNFT(uint256,address)": "infinite",
				"collectProtocolFees()": "infinite",
				"factory()": "infinite",
				"feeParameters()": "infinite",
				"ftAmountMap(uint24,uint256)": "infinite",
				"getBin(uint24)": "infinite",
				"getFee(uint256)": "infinite",
				"getGlobalFees()": "infinite",
				"getPriceFromBin(uint24)": "infinite",
				"getPriceFromNFT(uint256)": "infinite",
				"getReservesAndId()": "infinite",
				"lpBinParamsMap(uint256)": "infinite",
				"lpToken()": "infinite",
				"lpTokenAssetsMap(uint256,uint256)": "infinite",
				"mintFT(uint24[],address)": "infinite",
				"mintNFT(uint24[],uint256[],address,bool)": "infinite",
				"onERC721Received(address,address,uint256,bytes)": "infinite",
				"sellNFT(uint256,address)": "infinite",
				"tokenX()": "infinite",
				"tokenY()": "infinite"
			},
			"internal": {
				"_getPriceFromBin(uint24)": "infinite",
				"_removeLP(uint256,uint24)": "infinite",
				"_updateFTAmount(uint256,uint24,uint256,bool)": "infinite"
			}
		},
		"methodIdentifiers": {
			"assetLPMap(uint256)": "5b9c5c02",
			"binLPMap(uint24,uint256)": "906c7779",
			"burn(uint256,address)": "fcd3533c",
			"buyNFT(uint256,address)": "d8db47a7",
			"collectProtocolFees()": "a1af5b9a",
			"factory()": "c45a0155",
			"feeParameters()": "98c7adf3",
			"ftAmountMap(uint24,uint256)": "5d6aeb2a",
			"getBin(uint24)": "0abe9688",
			"getFee(uint256)": "fcee45f4",
			"getGlobalFees()": "a582cdaa",
			"getPriceFromBin(uint24)": "fd31c4ab",
			"getPriceFromNFT(uint256)": "7eb695d7",
			"getReservesAndId()": "1b05b83e",
			"lpBinParamsMap(uint256)": "902f905d",
			"lpToken()": "5fcbd285",
			"lpTokenAssetsMap(uint256,uint256)": "c67b321d",
			"mintFT(uint24[],address)": "a3d055a7",
			"mintNFT(uint24[],uint256[],address,bool)": "d1ad1fae",
			"onERC721Received(address,address,uint256,bytes)": "150b7a02",
			"sellNFT(uint256,address)": "5728ad49",
			"tokenX()": "16dc165b",
			"tokenY()": "b7d19fc4"
		}
	},
	"abi": [
		{
			"inputs": [
				{
					"internalType": "contract ILBFactory",
					"name": "_factory",
					"type": "address"
				},
				{
					"internalType": "contract IERC721",
					"name": "_nftAddress",
					"type": "address"
				},
				{
					"internalType": "contract IERC20",
					"name": "_ftAddress",
					"type": "address"
				},
				{
					"internalType": "address",
					"name": "_lpToken",
					"type": "address"
				},
				{
					"internalType": "uint128",
					"name": "_feeRate",
					"type": "uint128"
				}
			],
			"stateMutability": "nonpayable",
			"type": "constructor"
		},
		{
			"inputs": [],
			"name": "BinHelper__IdOverflows",
			"type": "error"
		},
		{
			"inputs": [],
			"name": "LBPair__AddressZero",
			"type": "error"
		},
		{
			"inputs": [],
			"name": "LBPair__DistributionsOverflow",
			"type": "error"
		},
		{
			"inputs": [
				{
					"internalType": "uint256",
					"name": "id",
					"type": "uint256"
				}
			],
			"name": "LBPair__InsufficientLiquidityMinted",
			"type": "error"
		},
		{
			"inputs": [
				{
					"internalType": "address",
					"name": "feeRecipient",
					"type": "address"
				},
				{
					"internalType": "address",
					"name": "sender",
					"type": "address"
				}
			],
			"name": "LBPair__OnlyFeeRecipient",
			"type": "error"
		},
		{
			"inputs": [],
			"name": "LBPair__WrongLengths",
			"type": "error"
		},
		{
			"inputs": [
				{
					"internalType": "uint256",
					"name": "x",
					"type": "uint256"
				},
				{
					"internalType": "int256",
					"name": "y",
					"type": "int256"
				}
			],
			"name": "Math128x128__PowerUnderflow",
			"type": "error"
		},
		{
			"inputs": [
				{
					"internalType": "uint256",
					"name": "prod1",
					"type": "uint256"
				},
				{
					"internalType": "uint256",
					"name": "offset",
					"type": "uint256"
				}
			],
			"name": "Math512Bits__MulShiftOverflow",
			"type": "error"
		},
		{
			"inputs": [
				{
					"internalType": "uint256",
					"name": "offset",
					"type": "uint256"
				}
			],
			"name": "Math512Bits__OffsetOverflows",
			"type": "error"
		},
		{
			"inputs": [],
			"name": "ReentrancyGuardUpgradeable__AlreadyInitialized",
			"type": "error"
		},
		{
			"inputs": [],
			"name": "ReentrancyGuardUpgradeable__ReentrantCall",
			"type": "error"
		},
		{
			"inputs": [
				{
					"internalType": "uint256",
					"name": "x",
					"type": "uint256"
				}
			],
			"name": "SafeCast__Exceeds112Bits",
			"type": "error"
		},
		{
			"inputs": [
				{
					"internalType": "uint256",
					"name": "x",
					"type": "uint256"
				}
			],
			"name": "SafeCast__Exceeds136Bits",
			"type": "error"
		},
		{
			"inputs": [],
			"name": "TokenHelper__CallFailed",
			"type": "error"
		},
		{
			"inputs": [],
			"name": "TokenHelper__NonContract",
			"type": "error"
		},
		{
			"inputs": [],
			"name": "TokenHelper__TransferFailed",
			"type": "error"
		},
		{
			"inputs": [],
			"name": "TreeMath__ErrorDepthSearch",
			"type": "error"
		},
		{
			"inputs": [
				{
					"internalType": "uint256",
					"name": "",
					"type": "uint256"
				}
			],
			"name": "assetLPMap",
			"outputs": [
				{
					"internalType": "uint256",
					"name": "",
					"type": "uint256"
				}
			],
			"stateMutability": "view",
			"type": "function"
		},
		{
			"inputs": [
				{
					"internalType": "uint24",
					"name": "",
					"type": "uint24"
				},
				{
					"internalType": "uint256",
					"name": "",
					"type": "uint256"
				}
			],
			"name": "binLPMap",
			"outputs": [
				{
					"internalType": "uint256",
					"name": "",
					"type": "uint256"
				}
			],
			"stateMutability": "view",
			"type": "function"
		},
		{
			"inputs": [
				{
					"internalType": "uint256",
					"name": "_LPtokenID",
					"type": "uint256"
				},
				{
					"internalType": "address",
					"name": "_to",
					"type": "address"
				}
			],
			"name": "burn",
			"outputs": [
				{
					"internalType": "uint256",
					"name": "amountX",
					"type": "uint256"
				},
				{
					"internalType": "uint256",
					"name": "amountY",
					"type": "uint256"
				}
			],
			"stateMutability": "nonpayable",
			"type": "function"
		},
		{
			"inputs": [
				{
					"internalType": "uint256",
					"name": "NFTID",
					"type": "uint256"
				},
				{
					"internalType": "address",
					"name": "_to",
					"type": "address"
				}
			],
			"name": "buyNFT",
			"outputs": [],
			"stateMutability": "nonpayable",
			"type": "function"
		},
		{
			"inputs": [],
			"name": "collectProtocolFees",
			"outputs": [
				{
					"internalType": "uint256",
					"name": "amountY",
					"type": "uint256"
				}
			],
			"stateMutability": "nonpayable",
			"type": "function"
		},
		{
			"inputs": [],
			"name": "factory",
			"outputs": [
				{
					"internalType": "contract ILBFactory",
					"name": "",
					"type": "address"
				}
			],
			"stateMutability": "view",
			"type": "function"
		},
		{
			"inputs": [],
			"name": "feeParameters",
			"outputs": [
				{
					"internalType": "uint256",
					"name": "",
					"type": "uint256"
				},
				{
					"internalType": "uint256",
					"name": "",
					"type": "uint256"
				}
			],
			"stateMutability": "view",
			"type": "function"
		},
		{
			"inputs": [
				{
					"internalType": "uint24",
					"name": "",
					"type": "uint24"
				},
				{
					"internalType": "uint256",
					"name": "",
					"type": "uint256"
				}
			],
			"name": "ftAmountMap",
			"outputs": [
				{
					"internalType": "uint256",
					"name": "",
					"type": "uint256"
				}
			],
			"stateMutability": "view",
			"type": "function"
		},
		{
			"inputs": [
				{
					"internalType": "uint24",
					"name": "_id",
					"type": "uint24"
				}
			],
			"name": "getBin",
			"outputs": [
				{
					"internalType": "uint256",
					"name": "",
					"type": "uint256"
				},
				{
					"internalType": "uint256",
					"name": "",
					"type": "uint256"
				}
			],
			"stateMutability": "view",
			"type": "function"
		},
		{
			"inputs": [
				{
					"internalType": "uint256",
					"name": "_LPtokenID",
					"type": "uint256"
				}
			],
			"name": "getFee",
			"outputs": [
				{
					"internalType": "uint256",
					"name": "_fee",
					"type": "uint256"
				}
			],
			"stateMutability": "view",
			"type": "function"
		},
		{
			"inputs": [],
			"name": "getGlobalFees",
			"outputs": [
				{
					"internalType": "uint256",
					"name": "feesYTotal",
					"type": "uint256"
				},
				{
					"internalType": "uint256",
					"name": "feesYProtocol",
					"type": "uint256"
				}
			],
			"stateMutability": "view",
			"type": "function"
		},
		{
			"inputs": [
				{
					"internalType": "uint24",
					"name": "_id",
					"type": "uint24"
				}
			],
			"name": "getPriceFromBin",
			"outputs": [
				{
					"internalType": "uint256",
					"name": "",
					"type": "uint256"
				}
			],
			"stateMutability": "pure",
			"type": "function"
		},
		{
			"inputs": [
				{
					"internalType": "uint256",
					"name": "_NFTID",
					"type": "uint256"
				}
			],
			"name": "getPriceFromNFT",
			"outputs": [
				{
					"internalType": "uint256",
					"name": "_price",
					"type": "uint256"
				}
			],
			"stateMutability": "view",
			"type": "function"
		},
		{
			"inputs": [],
			"name": "getReservesAndId",
			"outputs": [
				{
					"internalType": "uint256",
					"name": "reserveX",
					"type": "uint256"
				},
				{
					"internalType": "uint256",
					"name": "reserveY",
					"type": "uint256"
				},
				{
					"internalType": "uint256",
					"name": "floorPriceID",
					"type": "uint256"
				},
				{
					"internalType": "uint256",
					"name": "bestOfferID",
					"type": "uint256"
				}
			],
			"stateMutability": "view",
			"type": "function"
		},
		{
			"inputs": [
				{
					"internalType": "uint256",
					"name": "",
					"type": "uint256"
				}
			],
			"name": "lpBinParamsMap",
			"outputs": [
				{
					"internalType": "uint24",
					"name": "originBin",
					"type": "uint24"
				},
				{
					"internalType": "uint24",
					"name": "activeBin",
					"type": "uint24"
				},
				{
					"internalType": "uint24",
					"name": "binStep",
					"type": "uint24"
				},
				{
					"internalType": "uint256",
					"name": "binAmount",
					"type": "uint256"
				}
			],
			"stateMutability": "view",
			"type": "function"
		},
		{
			"inputs": [],
			"name": "lpToken",
			"outputs": [
				{
					"internalType": "contract LPToken",
					"name": "",
					"type": "address"
				}
			],
			"stateMutability": "view",
			"type": "function"
		},
		{
			"inputs": [
				{
					"internalType": "uint256",
					"name": "",
					"type": "uint256"
				},
				{
					"internalType": "uint256",
					"name": "",
					"type": "uint256"
				}
			],
			"name": "lpTokenAssetsMap",
			"outputs": [
				{
					"internalType": "uint256",
					"name": "",
					"type": "uint256"
				}
			],
			"stateMutability": "view",
			"type": "function"
		},
		{
			"inputs": [
				{
					"internalType": "uint24[]",
					"name": "_ids",
					"type": "uint24[]"
				},
				{
					"internalType": "address",
					"name": "_to",
					"type": "address"
				}
			],
			"name": "mintFT",
			"outputs": [
				{
					"internalType": "uint256",
					"name": "",
					"type": "uint256"
				},
				{
					"internalType": "uint256",
					"name": "",
					"type": "uint256"
				}
			],
			"stateMutability": "nonpayable",
			"type": "function"
		},
		{
			"inputs": [
				{
					"internalType": "uint24[]",
					"name": "_ids",
					"type": "uint24[]"
				},
				{
					"internalType": "uint256[]",
					"name": "_NFTIDs",
					"type": "uint256[]"
				},
				{
					"internalType": "address",
					"name": "_to",
					"type": "address"
				},
				{
					"internalType": "bool",
					"name": "isLimited",
					"type": "bool"
				}
			],
			"name": "mintNFT",
			"outputs": [
				{
					"internalType": "uint256",
					"name": "",
					"type": "uint256"
				},
				{
					"internalType": "uint256",
					"name": "",
					"type": "uint256"
				}
			],
			"stateMutability": "nonpayable",
			"type": "function"
		},
		{
			"inputs": [
				{
					"internalType": "address",
					"name": "",
					"type": "address"
				},
				{
					"internalType": "address",
					"name": "",
					"type": "address"
				},
				{
					"internalType": "uint256",
					"name": "",
					"type": "uint256"
				},
				{
					"internalType": "bytes",
					"name": "",
					"type": "bytes"
				}
			],
			"name": "onERC721Received",
			"outputs": [
				{
					"internalType": "bytes4",
					"name": "",
					"type": "bytes4"
				}
			],
			"stateMutability": "nonpayable",
			"type": "function"
		},
		{
			"inputs": [
				{
					"internalType": "uint256",
					"name": "NFTID",
					"type": "uint256"
				},
				{
					"internalType": "address",
					"name": "_to",
					"type": "address"
				}
			],
			"name": "sellNFT",
			"outputs": [
				{
					"internalType": "uint256",
					"name": "_amountOut",
					"type": "uint256"
				}
			],
			"stateMutability": "nonpayable",
			"type": "function"
		},
		{
			"inputs": [],
			"name": "tokenX",
			"outputs": [
				{
					"internalType": "contract IERC721",
					"name": "",
					"type": "address"
				}
			],
			"stateMutability": "view",
			"type": "function"
		},
		{
			"inputs": [],
			"name": "tokenY",
			"outputs": [
				{
					"internalType": "contract IERC20",
					"name": "",
					"type": "address"
				}
			],
			"stateMutability": "view",
			"type": "function"
		}
	]
}