{
	"data": {
		"bytecode": {
			"linkReferences": {},
			"object": "60c06040523480156200001157600080fd5b506040516200442638038062004426833981016040819052620000349162000065565b6001600160a01b039182166080521660a052620000a4565b6001600160a01b03811681146200006257600080fd5b50565b600080604083850312156200007957600080fd5b825162000086816200004c565b602084015190925062000099816200004c565b809150509250929050565b60805160a0516142de620001486000396000818161022c015281816105cd01528181610c140152818161147401528181611536015281816115f6015281816116930152818161189901528181611aa301528181611b3801528181611bc201528181611cff01528181611d7d01528181611e2c0152818161309a01526131180152600081816103a3015281816104740152818161119301526124c001526142de6000f3fe60806040526004361061012e5760003560e01c806362c06767116100ab578063b6f9de951161006f578063b6f9de951461037e578063c45a015514610391578063cb5b059a146103c5578063edf31178146103e5578063f5e29329146103f8578063fb3bdb411461042c57600080fd5b806362c06767146102db57806362ebdf98146102fd578063791ac9471461032b5780637ff36ab51461034b5780638803dbee1461035e57600080fd5b80633fc8cef3116100f25780633fc8cef31461021a5780634a25d94a1461024e5780634c7cffbd1461027b5780635bdd4b7c1461029b5780635c11d795146102bb57600080fd5b806302e48ce21461013a57806318cbafe5146101775780632004b724146101a5578063276f78dd146101da57806338ed1739146101fa57600080fd5b3661013557005b600080fd5b34801561014657600080fd5b5061015a6101553660046138f3565b61043f565b6040516001600160a01b0390911681526020015b60405180910390f35b34801561018357600080fd5b50610197610192366004613a43565b6104eb565b60405190815260200161016e565b3480156101b157600080fd5b506101c56101c0366004613abb565b610646565b6040805192835260208301919091520161016e565b3480156101e657600080fd5b506101c56101f5366004613b4d565b610956565b34801561020657600080fd5b50610197610215366004613a43565b610a44565b34801561022657600080fd5b5061015a7f000000000000000000000000000000000000000000000000000000000000000081565b34801561025a57600080fd5b5061026e610269366004613a43565b610ace565b60405161016e9190613c42565b34801561028757600080fd5b50610197610296366004613c55565b610c8e565b3480156102a757600080fd5b506101c56102b6366004613abb565b610ca4565b3480156102c757600080fd5b506101976102d6366004613a43565b610fd6565b3480156102e757600080fd5b506102fb6102f6366004613c72565b611191565b005b34801561030957600080fd5b5061031d610318366004613cb3565b6112f7565b60405161016e929190613cee565b34801561033757600080fd5b50610197610346366004613a43565b611419565b610197610359366004613d13565b611664565b34801561036a57600080fd5b5061026e610379366004613a43565b61179c565b61019761038c366004613d13565b61186a565b34801561039d57600080fd5b5061015a7f000000000000000000000000000000000000000000000000000000000000000081565b3480156103d157600080fd5b506101c56103e0366004613d73565b611a6d565b61031d6103f3366004613cb3565b611c3f565b34801561040457600080fd5b50610418610413366004613e1a565b611df2565b60405162ffffff909116815260200161016e565b61026e61043a366004613d13565b611dfd565b604051630172467160e11b81526001600160a01b038481166004830152838116602483015262ffffff831660448301526000917f0000000000000000000000000000000000000000000000000000000000000000909116906302e48ce2906064016020604051808303816000875af11580156104bf573d6000803e3d6000fd5b505050506040513d601f19601f820116820180604052508101906104e39190613e33565b949350505050565b6000818042111561051d5760405163dae7ca7d60e01b8152600481018290524260248201526044015b60405180910390fd5b600061052886611fb4565b905061057e338260008151811061054157610541613e50565b60200260200101518a8960008151811061055d5761055d613e50565b60200260200101516001600160a01b0316612099909392919063ffffffff16565b61058a88828830612145565b9250828711156105b7576040516313fab00360e21b81526004810188905260248101849052604401610514565b604051632e1a7d4d60e01b8152600481018490527f00000000000000000000000000000000000000000000000000000000000000006001600160a01b031690632e1a7d4d90602401600060405180830381600087803b15801561061957600080fd5b505af115801561062d573d6000803e3d6000fd5b5050505061063b85846122fe565b505095945050505050565b6000806000856001600160a01b0316631b05b83e6040518163ffffffff1660e01b8152600401606060405180830381865afa158015610689573d6000803e3d6000fd5b505050506040513d601f19601f820116820180604052508101906106ad9190613e66565b925050506000866001600160a01b03166398c7adf36040518163ffffffff1660e01b81526004016040805180830381865afa1580156106f0573d6000803e3d6000fd5b505050506040513d601f19601f820116820180604052508101906107149190613eab565b9050610753604051806080016040528060006001600160701b0316815260200160006001600160701b0316815260200160008152602001600081525090565b604051630157d2d160e31b815262ffffff8416600482015260009081906001600160a01b038b1690630abe9688906024016040805180830381865afa1580156107a0573d6000803e3d6000fd5b505050506040513d601f19601f820116820180604052508101906107c49190613ee8565b604080516080810182526001600160701b0393841680825293909216602083015260009082018190526060820152935015159150819050610811575060208101516001600160701b031615155b156108a257600080806108278486888c8e61234b565b919450925090506001600160701b0383111561085957604051633d9af4e160e11b815260048101879052602401610514565b805161086e906001600160801b031684613f22565b610878908b613f3a565b8151909a50610890906001600160801b031688613f22565b965061089c8289613f22565b97505050505b861561092957604051638f919a8360e01b815262ffffff8416600482015286151560248201526001600160a01b03891690638f919a8390604401602060405180830381865afa1580156108f9573d6000803e3d6000fd5b505050506040513d601f19601f8201168201806040525081019061091d9190613f51565b62ffffff169250610753565b861561094b576040516349cda5cd60e11b815260048101889052602401610514565b505050935093915050565b60008082804211156109845760405163dae7ca7d60e01b815260048101829052426024820152604401610514565b60006109908c8c612494565b90506000816001600160a01b03166316dc165b6040518163ffffffff1660e01b8152600401602060405180830381865afa1580156109d2573d6000803e3d6000fd5b505050506040513d601f19601f820116820180604052508101906109f69190613e33565b6001600160a01b03168d6001600160a01b0316141590508015610a17579899985b610a25828c8c8c8c8c612533565b90955093508015610a34579293925b5050509850989650505050505050565b60008180421115610a715760405163dae7ca7d60e01b815260048101829052426024820152604401610514565b6000610a7c86611fb4565b9050610a95338260008151811061054157610541613e50565b610aa188828888612145565b92508287111561063b576040516313fab00360e21b81526004810188905260248101849052604401610514565b60608180421115610afb5760405163dae7ca7d60e01b815260048101829052426024820152604401610514565b6000610b0686611fb4565b9050610b1381878a61265f565b92508683600081518110610b2957610b29613e50565b60200260200101511115610b77578683600081518110610b4b57610b4b613e50565b602002602001015160405163194ee21960e31b8152600401610514929190918252602082015260400190565b610bc43382600081518110610b8e57610b8e613e50565b602002602001015185600081518110610ba957610ba9613e50565b60200260200101518960008151811061055d5761055d613e50565b6000610bd18288306127ff565b905088811015610bfe576040516313fab00360e21b8152600481018a905260248101829052604401610514565b604051632e1a7d4d60e01b8152600481018290527f00000000000000000000000000000000000000000000000000000000000000006001600160a01b031690632e1a7d4d90602401600060405180830381600087803b158015610c6057600080fd5b505af1158015610c74573d6000803e3d6000fd5b50505050610c8286826122fe565b50505095945050505050565b6000610c9e8262ffffff166129b4565b92915050565b6000806000806000876001600160a01b0316631b05b83e6040518163ffffffff1660e01b8152600401606060405180830381865afa158015610cea573d6000803e3d6000fd5b505050506040513d601f19601f82011682018060405250810190610d0e9190613e66565b9250925092508660001480610d2f575085610d2b57828711610d2f565b8187115b15610d64578686610d405783610d42565b825b604051637c40a4df60e01b815260048101929092526024820152604401610514565b6000886001600160a01b03166398c7adf36040518163ffffffff1660e01b81526004016040805180830381865afa158015610da3573d6000803e3d6000fd5b505050506040513d601f19601f82011682018060405250810190610dc79190613eab565b905060008060005b604051630157d2d160e31b815262ffffff8616600482015260009081906001600160a01b038f1690630abe9688906024016040805180830381865afa158015610e1c573d6000803e3d6000fd5b505050506040513d601f19601f82011682018060405250810190610e409190613ee8565b915091508b610e4f5781610e51565b805b925050506000610e60866129b4565b90508115610f1557818c1015610e76578b610e78565b815b935060008b610e9257610e8d82866080612a03565b610e9e565b610e9e85608084612a35565b90506000610eac8783612a67565b9050610eb88183613f22565b94506001600160701b03610ecc8587613f22565b1115610eee5760405163ec44eb8960e01b815260048101899052602401610514565b610ef8858d613f22565b9b50610f04818c613f22565b9a50610f10868f613f3a565b9d5050505b8b15610f9c57604051638f919a8360e01b815262ffffff871660048201528b151560248201526001600160a01b038e1690638f919a8390604401602060405180830381865afa158015610f6c573d6000803e3d6000fd5b505050506040513d601f19601f82011682018060405250810190610f909190613f51565b62ffffff169550610fa2565b50610fa8565b50610dcf565b8a15610fc7576040516330b1335760e21b815260040160405180910390fd5b50505050505050935093915050565b600081804211156110035760405163dae7ca7d60e01b815260048101829052426024820152604401610514565b600061100e86611fb4565b905060008682518151811061102557611025613e50565b60209081029190910101516040516370a0823160e01b81526001600160a01b0388811660048301529192506000918316906370a0823190602401602060405180830381865afa15801561107c573d6000803e3d6000fd5b505050506040513d601f19601f820116820180604052508101906110a09190613f6e565b90506110d533846000815181106110b9576110b9613e50565b60200260200101518c8b60008151811061055d5761055d613e50565b6110e0838989612ac8565b6040516370a0823160e01b81526001600160a01b0388811660048301528291908416906370a0823190602401602060405180830381865afa158015611129573d6000803e3d6000fd5b505050506040513d601f19601f8201168201806040525081019061114d9190613f6e565b6111579190613f3a565b945084891115611184576040516313fab00360e21b8152600481018a905260248101869052604401610514565b5050505095945050505050565b7f00000000000000000000000000000000000000000000000000000000000000006001600160a01b0316638da5cb5b6040518163ffffffff1660e01b8152600401602060405180830381865afa1580156111ef573d6000803e3d6000fd5b505050506040513d601f19601f820116820180604052508101906112139190613e33565b6001600160a01b0316336001600160a01b03161461124457604051635d9515b960e11b815260040160405180910390fd5b6001600160a01b03831661126e5760001981141561125f5750475b61126982826122fe565b505050565b6000198114156112e3576040516370a0823160e01b81523060048201526001600160a01b038416906370a0823190602401602060405180830381865afa1580156112bc573d6000803e3d6000fd5b505050506040513d601f19601f820116820180604052508101906112e09190613f6e565b90505b6112696001600160a01b0384168383612c60565b606080600061132161130c6020860186613f87565b61131c6040870160208801613f87565b612494565b9050806001600160a01b03166316dc165b6040518163ffffffff1660e01b8152600401602060405180830381865afa158015611361573d6000803e3d6000fd5b505050506040513d601f19601f820116820180604052508101906113859190613e33565b6001600160a01b031661139b6020860186613f87565b6001600160a01b0316146113c25760405163b33f8ab960e01b815260040160405180910390fd5b6113ea338260408701356113d96020890189613f87565b6001600160a01b0316929190612099565b611404338260608701356113d96040890160208a01613f87565b61140e8482612d02565b909590945092505050565b600081804211156114465760405163dae7ca7d60e01b815260048101829052426024820152604401610514565b600061145186611fb4565b6040516370a0823160e01b81523060048201529091506000906001600160a01b037f000000000000000000000000000000000000000000000000000000000000000016906370a0823190602401602060405180830381865afa1580156114bb573d6000803e3d6000fd5b505050506040513d601f19601f820116820180604052508101906114df9190613f6e565b905061151433836000815181106114f8576114f8613e50565b60200260200101518b8a60008151811061055d5761055d613e50565b61151f828830612ac8565b6040516370a0823160e01b815230600482015281907f00000000000000000000000000000000000000000000000000000000000000006001600160a01b0316906370a0823190602401602060405180830381865afa158015611585573d6000803e3d6000fd5b505050506040513d601f19601f820116820180604052508101906115a99190613f6e565b6115b39190613f3a565b9350838811156115e0576040516313fab00360e21b81526004810189905260248101859052604401610514565b604051632e1a7d4d60e01b8152600481018590527f00000000000000000000000000000000000000000000000000000000000000006001600160a01b031690632e1a7d4d90602401600060405180830381600087803b15801561164257600080fd5b505af1158015611656573d6000803e3d6000fd5b50505050610c8286856122fe565b600081804211156116915760405163dae7ca7d60e01b815260048101829052426024820152604401610514565b7f00000000000000000000000000000000000000000000000000000000000000006001600160a01b0316856000815181106116ce576116ce613e50565b60200260200101516001600160a01b03161461172857846000815181106116f7576116f7613e50565b602002602001015160405163cfec0e0160e01b815260040161051491906001600160a01b0391909116815260200190565b600061173386611fb4565b90506117598160008151811061174b5761174b613e50565b602002602001015134613098565b61176534828888612145565b925082871115611792576040516313fab00360e21b81526004810188905260248101849052604401610514565b5050949350505050565b606081804211156117c95760405163dae7ca7d60e01b815260048101829052426024820152604401610514565b60006117d486611fb4565b90506117e181878a61265f565b925086836000815181106117f7576117f7613e50565b60200260200101511115611819578683600081518110610b4b57610b4b613e50565b6118303382600081518110610b8e57610b8e613e50565b600061183d8288886127ff565b905088811015610c82576040516313fab00360e21b8152600481018a905260248101829052604401610514565b600081804211156118975760405163dae7ca7d60e01b815260048101829052426024820152604401610514565b7f00000000000000000000000000000000000000000000000000000000000000006001600160a01b0316856000815181106118d4576118d4613e50565b60200260200101516001600160a01b0316146118fd57846000815181106116f7576116f7613e50565b600061190886611fb4565b905060008682518151811061191f5761191f613e50565b60209081029190910101516040516370a0823160e01b81526001600160a01b0388811660048301529192506000918316906370a0823190602401602060405180830381865afa158015611976573d6000803e3d6000fd5b505050506040513d601f19601f8201168201806040525081019061199a9190613f6e565b90506119b28360008151811061174b5761174b613e50565b6119bd838989612ac8565b6040516370a0823160e01b81526001600160a01b0388811660048301528291908416906370a0823190602401602060405180830381865afa158015611a06573d6000803e3d6000fd5b505050506040513d601f19601f82011682018060405250810190611a2a9190613f6e565b611a349190613f3a565b945084891115611a61576040516313fab00360e21b8152600481018a905260248101869052604401610514565b50505050949350505050565b6000808280421115611a9b5760405163dae7ca7d60e01b815260048101829052426024820152604401610514565b6000611ac78b7f0000000000000000000000000000000000000000000000000000000000000000612494565b90506000816001600160a01b031663b7d19fc46040518163ffffffff1660e01b8152600401602060405180830381865afa158015611b09573d6000803e3d6000fd5b505050506040513d601f19601f82011682018060405250810190611b2d9190613e33565b6001600160a01b03167f00000000000000000000000000000000000000000000000000000000000000006001600160a01b031614905080611b6c579899985b600080611b7d848e8e8e8e30612533565b9150915082611b8d578082611b90565b81815b9097509550611bac9150506001600160a01b038d168887612c60565b604051632e1a7d4d60e01b8152600481018590527f00000000000000000000000000000000000000000000000000000000000000006001600160a01b031690632e1a7d4d90602401600060405180830381600087803b158015611c0e57600080fd5b505af1158015611c22573d6000803e3d6000fd5b50505050611c3087856122fe565b50505097509795505050505050565b6060806000611c5461130c6020860186613f87565b9050806001600160a01b03166316dc165b6040518163ffffffff1660e01b8152600401602060405180830381865afa158015611c94573d6000803e3d6000fd5b505050506040513d601f19601f82011682018060405250810190611cb89190613e33565b6001600160a01b0316611cce6020860186613f87565b6001600160a01b031614611cf55760405163b33f8ab960e01b815260040160405180910390fd5b6001600160a01b037f000000000000000000000000000000000000000000000000000000000000000016611d2c6020860186613f87565b6001600160a01b0316148015611d455750348460400135145b15611d7357611d548134613098565b611d6e338260608701356113d96040890160208a01613f87565b611dec565b6001600160a01b037f000000000000000000000000000000000000000000000000000000000000000016611dad6040860160208701613f87565b6001600160a01b0316148015611dc65750348460600135145b1561140457611de2338260408701356113d96020890189613f87565b611d6e8134613098565b50915091565b6000610c9e82613147565b60608180421115611e2a5760405163dae7ca7d60e01b815260048101829052426024820152604401610514565b7f00000000000000000000000000000000000000000000000000000000000000006001600160a01b031685600081518110611e6757611e67613e50565b60200260200101516001600160a01b031614611e9057846000815181106116f7576116f7613e50565b6000611e9b86611fb4565b9050611ea881878961265f565b92503483600081518110611ebe57611ebe613e50565b60200260200101511115611ee0573483600081518110610b4b57610b4b613e50565b611f1e81600081518110611ef657611ef6613e50565b602002602001015184600081518110611f1157611f11613e50565b6020026020010151613098565b6000611f2b8288886127ff565b905087811015611f58576040516313fab00360e21b81526004810189905260248101829052604401610514565b83600081518110611f6b57611f6b613e50565b6020026020010151341115611fa957611fa93385600081518110611f9157611f91613e50565b602002602001015134611fa49190613f3a565b6122fe565b505050949350505050565b606060018251611fc49190613f3a565b6001600160401b03811115611fdb57611fdb61393e565b604051908082528060200260200182016040528015612004578160200160208202803683370190505b5090506000808360008151811061201d5761201d613e50565b6020026020010151905060005b83518110156120915781925084816001018151811061204b5761204b613e50565b6020026020010151915061205f83836131b2565b84828151811061207157612071613e50565b6001600160a01b039092166020928302919091019091015260010161202a565b505050919050565b801561213f57604080516001600160a01b0385811660248301528416604482015260648082018490528251808303909101815260849091019091526020810180516001600160e01b03166323b872dd60e01b17905260006120fa86836131be565b90506000815111801561211e57508080602001905181019061211c9190613fa4565b155b1561213c5760405163197138bd60e11b815260040160405180910390fd5b50505b50505050565b60008060008060008660008151811061216057612160613e50565b6020026020010151905088945060005b88518110156122f15788818151811061218b5761218b613e50565b602002602001015192508194508781600101815181106121ad576121ad613e50565b60200260200101519150885181600101146121e4578881600101815181106121d7576121d7613e50565b60200260200101516121e6565b865b93506000836001600160a01b031663b7d19fc46040518163ffffffff1660e01b8152600401602060405180830381865afa158015612228573d6000803e3d6000fd5b505050506040513d601f19601f8201168201806040525081019061224c9190613e33565b60405163029e02cd60e51b81526001600160a01b039182168583161460048201819052878316602483015292506000918291908716906353c059a09060440160408051808303816000875af11580156122a9573d6000803e3d6000fd5b505050506040513d601f19601f820116820180604052508101906122cd9190613ee8565b9150915082156122df578098506122e3565b8198505b505050806001019050612170565b5050505050949350505050565b6000826001600160a01b03168260405160006040518083038185875af1925050503d806000811461213c576040519150601f19603f3d011682016040523d82523d6000602084013e61213c565b60408051808201909152600080825260208201819052908190600061236f876129b4565b905060008087156123f25760208b01516001600160701b0316915061239682608085612a35565b90506123ac6123a58b84613289565b8b906132d8565b93508681116123c0578095508194506123e1565b8695506123cf83876080613323565b94506123de6123a58b87613289565b93505b818511156123ed578194505b612486565b8a516001600160701b0316915061240b83836080612a03565b905061241a6123a58b83612a67565b80519094508790612434906001600160801b031683613f22565b116124445780955081945061247a565b6124516123a58b89613289565b8051909450612469906001600160801b031688613f3a565b9550612477866080856133b2565b94505b81851115612486578194505b505050955095509592505050565b604051633abb10a960e21b81526001600160a01b038381166004830152828116602483015260009182917f0000000000000000000000000000000000000000000000000000000000000000169063eaec42a4906044016040805180830381865afa158015612506573d6000803e3d6000fd5b505050506040513d601f19601f8201168201806040525081019061252a9190613fc1565b51949350505050565b600080876001600160a01b031663fba0ee64338a88886040518563ffffffff1660e01b81526004016125689493929190613ff6565b600060405180830381600087803b15801561258257600080fd5b505af1158015612596573d6000803e3d6000fd5b5050604051630acd451d60e01b81526001600160a01b038b169250630acd451d91506125ca9088908890889060040161403f565b60408051808303816000875af11580156125e8573d6000803e3d6000fd5b505050506040513d601f19601f8201168201806040525081019061260c9190613ee8565b90925090508682108061261e57508581105b15612654576040516318ccfb7760e11b815260048101889052602481018390526044810187905260648101829052608401610514565b965096945050505050565b606082516001600160401b0381111561267a5761267a61393e565b6040519080825280602002602001820160405280156126a3578160200160208202803683370190505b50905081818551815181106126ba576126ba613e50565b602090810291909101015283515b80156127f7576000846126dc600184613f3a565b815181106126ec576126ec613e50565b602002602001015190506000866001846127069190613f3a565b8151811061271657612716613e50565b602002602001015190506127b98185858151811061273657612736613e50565b6020026020010151846001600160a01b0316846001600160a01b03166316dc165b6040518163ffffffff1660e01b8152600401602060405180830381865afa158015612786573d6000803e3d6000fd5b505050506040513d601f19601f820116820180604052508101906127aa9190613e33565b6001600160a01b031614610ca4565b50846127c6600186613f3a565b815181106127d6576127d6613e50565b602002602001018181525050505080806127ef9061407d565b9150506126c8565b509392505050565b60008060008060008660008151811061281a5761281a613e50565b6020026020010151905060005b88518110156129a85788818151811061284257612842613e50565b6020026020010151925081945087816001018151811061286457612864613e50565b602002602001015191508851816001011461289b5788816001018151811061288e5761288e613e50565b602002602001015161289d565b865b93506000836001600160a01b031663b7d19fc46040518163ffffffff1660e01b8152600401602060405180830381865afa1580156128df573d6000803e3d6000fd5b505050506040513d601f19601f820116820180604052508101906129039190613e33565b60405163029e02cd60e51b81526001600160a01b039182168583161460048201819052878316602483015292506000918291908716906353c059a09060440160408051808303816000875af1158015612960573d6000803e3d6000fd5b505050506040513d601f19601f820116820180604052508101906129849190613ee8565b9150915082156129965780985061299a565b8198505b505050806001019050612827565b50505050509392505050565b600062ffffff8211156129da5760405163163d8bab60e21b815260040160405180910390fd5b627fffff1982016129fc700100068db8bac710cb295e9e1b089a0275826133ff565b9392505050565b6000612a10848484613323565b90506001821b80612a2357612a23614094565b838509156129fc576001019392505050565b6000612a428484846133b2565b90508180612a5257612a52614094565b6001841b8509156129fc576001019392505050565b600080612a7b84516001600160801b031690565b90506000612a9182670de0b6b3a7640000613f3a565b905080600181612aa185886140aa565b612aab9190613f22565b612ab59190613f3a565b612abf91906140c9565b95945050505050565b60008060008085600081518110612ae157612ae1613e50565b6020026020010151905060005b8751811015612c5657878181518110612b0957612b09613e50565b60200260200101519250819450868160010181518110612b2b57612b2b613e50565b6020026020010151915087518160010114612b6257878160010181518110612b5557612b55613e50565b6020026020010151612b64565b855b9350826001600160a01b03166353c059a0846001600160a01b031663b7d19fc46040518163ffffffff1660e01b8152600401602060405180830381865afa158015612bb3573d6000803e3d6000fd5b505050506040513d601f19601f82011682018060405250810190612bd79190613e33565b60405160e083901b6001600160e01b03191681526001600160a01b03918216868316146004820152908716602482015260440160408051808303816000875af1158015612c28573d6000803e3d6000fd5b505050506040513d601f19601f82011682018060405250810190612c4c9190613ee8565b5050600101612aee565b5050505050505050565b801561126957604080516001600160a01b038416602482015260448082018490528251808303909101815260649091019091526020810180516001600160e01b031663a9059cbb60e01b1790526000612cb985836131be565b905060008151118015612cdd575080806020019051810190612cdb9190613fa4565b155b15612cfb5760405163197138bd60e11b815260040160405180910390fd5b5050505050565b60608083610180013580421115612d355760405163dae7ca7d60e01b815260048101829052426024820152604401610514565b612d436101208601866140eb565b9050612d536101008701876140eb565b905014158015612d815750612d6c6101408601866140eb565b9050612d7c6101008701876140eb565b905014155b15612d9f5760405163b91b4d4d60e01b815260040160405180910390fd5b62ffffff60c08601351180612dba575062ffffff60e0860135115b15612de85760405163197a55c760e11b815260c0860135600482015260e08601356024820152604401610514565b6000846001600160a01b0316631b05b83e6040518163ffffffff1660e01b8152600401606060405180830381865afa158015612e28573d6000803e3d6000fd5b505050506040513d601f19601f82011682018060405250810190612e4c9190613e66565b92505050808660e001358760c00135011080612e7157508560c001358660e001358201105b15612ea657604051637d50edab60e11b815260c0870135600482015260e0870135602482015260448101829052606401610514565b612eb46101008701876140eb565b90506001600160401b03811115612ecd57612ecd61393e565b604051908082528060200260200182016040528015612ef6578160200160208202803683370190505b50935060005b8451811015612f89576000612f156101008901896140eb565b83818110612f2557612f25613e50565b90506020020135830190506000811280612f41575062ffffff81115b15612f62576040516370a82e6160e11b815260048101829052602401610514565b80868381518110612f7557612f75613e50565b602090810291909101015250600101612efc565b506000806001600160a01b03871663714c859287612fab6101208c018c6140eb565b612fb96101408e018e6140eb565b8e610160016020810190612fcd9190613f87565b6040518763ffffffff1660e01b8152600401612fee96959493929190614171565b6000604051808303816000875af115801561300d573d6000803e3d6000fd5b505050506040513d6000823e601f3d908101601f1916820160405261303591908101906141c8565b96509092509050608088013582108061305157508760a0013581105b1561308d576040516318ccfb7760e11b8152608089013560048201526024810183905260a0890135604482015260648101829052608401610514565b505050509250929050565b7f00000000000000000000000000000000000000000000000000000000000000006001600160a01b031663d0e30db0826040518263ffffffff1660e01b81526004016000604051808303818588803b1580156130f357600080fd5b505af1158015613107573d6000803e3d6000fd5b506131439350506001600160a01b037f000000000000000000000000000000000000000000000000000000000000000016915084905083612c60565b5050565b6000700100068db8bac710cb295e9e1b089a02758161316582613658565b61316e85613658565b8161317b5761317b614094565b05628000000190506000811280613194575062ffffff81115b156129fc5760405163163d8bab60e21b815260040160405180910390fd5b60006129fc8383612494565b6060600080846001600160a01b0316846040516131db919061426d565b6000604051808303816000865af19150503d8060008114613218576040519150601f19603f3d011682016040523d82523d6000602084013e61321d565b606091505b5091509150811561326257805115801561323f57506001600160a01b0385163b155b1561325d57604051635d97df8960e01b815260040160405180910390fd5b6104e3565b805161328157604051632407429160e01b815260040160405180910390fd5b805181602001fd5b6000670de0b6b3a76400006001670de0b6b3a76400006132b086516001600160801b031690565b6132ba90866140aa565b6132c49190613f22565b6132ce9190613f3a565b6129fc91906140c9565b60408051808201909152600080825260208201526132f582613732565b6001600160801b039081168252602084015161271091168302046001600160801b0316602082015292915050565b600060ff82111561334a57604051630b72ecf560e41b815260048101839052602401610514565b6000806133578686613764565b91509150816000146133695781841c92505b80156133a9576001841b811061339c57604051633d90990f60e01b81526004810182905260248101859052604401610514565b836101000381901b830192505b50509392505050565b600060ff8311156133d957604051630b72ecf560e41b815260048101849052602401610514565b83831b61010084900385901c6133f5866001871b868585613783565b9695505050505050565b60008080836134175750600160801b9150610c9e9050565b50826000811215613429579015906000035b6210000081101561361957600160801b9250846001600160801b0381111561345357911591600019045b60018216156134645792830260801c925b800260801c600282161561347a5792830260801c925b800260801c60048216156134905792830260801c925b800260801c60088216156134a65792830260801c925b800260801c60108216156134bc5792830260801c925b800260801c60208216156134d25792830260801c925b800260801c60408216156134e85792830260801c925b8002608090811c908216156134ff5792830260801c925b800260801c6101008216156135165792830260801c925b800260801c61020082161561352d5792830260801c925b800260801c6104008216156135445792830260801c925b800260801c61080082161561355b5792830260801c925b800260801c6110008216156135725792830260801c925b800260801c6120008216156135895792830260801c925b800260801c6140008216156135a05792830260801c925b800260801c6180008216156135b75792830260801c925b800260801c620100008216156135cf5792830260801c925b800260801c620200008216156135e75792830260801c925b800260801c620400008216156135ff5792830260801c925b800260801c620800008216156136175792830260801c925b505b8261364157604051630e9c7d6160e31b81526004810186905260248101859052604401610514565b8161364c5782612abf565b612abf836000196140c9565b6000816001141561366c5750607f19919050565b8161368a576040516304c9fcb960e01b815260040160405180910390fd5b60019190911c9060006001607f1b83106136a6575060016136c1565b5060001982600160fe1b816136bd576136bd614094565b0492505b60006136d0607f85901c613836565b60ff607f1b607f82901b16935060ff16905083811c6001607f1b8114613727576001607e1b5b600081131561372557908002607f1c90600160801b821061371d579384019360019190911c905b60011d6136f6565b505b50500260011b919050565b806001600160801b038116811461375f5760405163089f6cfb60e21b815260048101839052602401610514565b919050565b6000806000198385098385029250828110838203039150509250929050565b6000816137a15783838161379957613799614094565b049050612abf565b8382106137cb5760405163656b542b60e11b81526004810183905260248101859052604401610514565b600084868809600186198101871660008190038190049091018683119095039490940294038390049390931760029290940460038102831880820284030280820284030280820284030280820284030280820284030290810290920390910292909202949350505050565b6000600160801b821061384b5750608090811c905b68010000000000000000821061386357604091821c91015b640100000000821061387757602091821c91015b62010000821061388957601091821c91015b610100821061389a57600891821c91015b601082106138aa57600491821c91015b600482106138ba57600291821c91015b6002821061375f57600101919050565b6001600160a01b03811681146138df57600080fd5b50565b62ffffff811681146138df57600080fd5b60008060006060848603121561390857600080fd5b8335613913816138ca565b92506020840135613923816138ca565b91506040840135613933816138e2565b809150509250925092565b634e487b7160e01b600052604160045260246000fd5b604080519081016001600160401b03811182821017156139765761397661393e565b60405290565b604051601f8201601f191681016001600160401b03811182821017156139a4576139a461393e565b604052919050565b60006001600160401b038211156139c5576139c561393e565b5060051b60200190565b600082601f8301126139e057600080fd5b813560206139f56139f0836139ac565b61397c565b82815260059290921b84018101918181019086841115613a1457600080fd5b8286015b84811015613a38578035613a2b816138ca565b8352918301918301613a18565b509695505050505050565b600080600080600060a08688031215613a5b57600080fd5b853594506020860135935060408601356001600160401b03811115613a7f57600080fd5b613a8b888289016139cf565b9350506060860135613a9c816138ca565b949793965091946080013592915050565b80151581146138df57600080fd5b600080600060608486031215613ad057600080fd5b8335613adb816138ca565b925060208401359150604084013561393381613aad565b600082601f830112613b0357600080fd5b81356020613b136139f0836139ac565b82815260059290921b84018101918181019086841115613b3257600080fd5b8286015b84811015613a385780358352918301918301613b36565b600080600080600080600080610100898b031215613b6a57600080fd5b8835613b75816138ca565b97506020890135613b85816138ca565b9650604089013595506060890135945060808901356001600160401b0380821115613baf57600080fd5b613bbb8c838d01613af2565b955060a08b0135915080821115613bd157600080fd5b50613bde8b828c01613af2565b93505060c0890135613bef816138ca565b8092505060e089013590509295985092959890939650565b600081518084526020808501945080840160005b83811015613c3757815187529582019590820190600101613c1b565b509495945050505050565b6020815260006129fc6020830184613c07565b600060208284031215613c6757600080fd5b81356129fc816138e2565b600080600060608486031215613c8757600080fd5b8335613c92816138ca565b92506020840135613ca2816138ca565b929592945050506040919091013590565b600060208284031215613cc557600080fd5b81356001600160401b03811115613cdb57600080fd5b82016101a081850312156129fc57600080fd5b604081526000613d016040830185613c07565b8281036020840152612abf8185613c07565b60008060008060808587031215613d2957600080fd5b8435935060208501356001600160401b03811115613d4657600080fd5b613d52878288016139cf565b9350506040850135613d63816138ca565b9396929550929360600135925050565b600080600080600080600060e0888a031215613d8e57600080fd5b8735613d99816138ca565b9650602088013595506040880135945060608801356001600160401b0380821115613dc357600080fd5b613dcf8b838c01613af2565b955060808a0135915080821115613de557600080fd5b50613df28a828b01613af2565b93505060a0880135613e03816138ca565b8092505060c0880135905092959891949750929550565b600060208284031215613e2c57600080fd5b5035919050565b600060208284031215613e4557600080fd5b81516129fc816138ca565b634e487b7160e01b600052603260045260246000fd5b600080600060608486031215613e7b57600080fd5b8351925060208401519150604084015190509250925092565b80516001600160801b038116811461375f57600080fd5b600060408284031215613ebd57600080fd5b613ec5613954565b613ece83613e94565b8152613edc60208401613e94565b60208201529392505050565b60008060408385031215613efb57600080fd5b505080516020909101519092909150565b634e487b7160e01b600052601160045260246000fd5b60008219821115613f3557613f35613f0c565b500190565b600082821015613f4c57613f4c613f0c565b500390565b600060208284031215613f6357600080fd5b81516129fc816138e2565b600060208284031215613f8057600080fd5b5051919050565b600060208284031215613f9957600080fd5b81356129fc816138ca565b600060208284031215613fb657600080fd5b81516129fc81613aad565b600060408284031215613fd357600080fd5b613fdb613954565b8251613fe6816138ca565b81526020830151613edc81613aad565b6001600160a01b0385811682528416602082015260806040820181905260009061402290830185613c07565b82810360608401526140348185613c07565b979650505050505050565b6060815260006140526060830186613c07565b82810360208401526140648186613c07565b91505060018060a01b0383166040830152949350505050565b60008161408c5761408c613f0c565b506000190190565b634e487b7160e01b600052601260045260246000fd5b60008160001904831182151516156140c4576140c4613f0c565b500290565b6000826140e657634e487b7160e01b600052601260045260246000fd5b500490565b6000808335601e1984360301811261410257600080fd5b8301803591506001600160401b0382111561411c57600080fd5b6020019150600581901b360382131561413457600080fd5b9250929050565b81835260006001600160fb1b0383111561415457600080fd5b8260051b8083602087013760009401602001938452509192915050565b6080815260006141846080830189613c07565b828103602084015261419781888a61413b565b905082810360408401526141ac81868861413b565b91505060018060a01b0383166060830152979650505050505050565b6000806000606084860312156141dd57600080fd5b83519250602080850151925060408501516001600160401b0381111561420257600080fd5b8501601f8101871361421357600080fd5b80516142216139f0826139ac565b81815260059190911b8201830190838101908983111561424057600080fd5b928401925b8284101561425e57835182529284019290840190614245565b80955050505050509250925092565b6000825160005b8181101561428e5760208186018101518583015201614274565b8181111561429d576000828501525b50919091019291505056fea2646970667358221220abe57d856e0ce39f18a845912ef186f3d4741b48ead884786deafbea1903974064736f6c634300080a0033",
			"opcodes": "PUSH1 0xC0 PUSH1 0x40 MSTORE CALLVALUE DUP1 ISZERO PUSH3 0x11 JUMPI PUSH1 0x0 DUP1 REVERT JUMPDEST POP PUSH1 0x40 MLOAD PUSH3 0x4426 CODESIZE SUB DUP1 PUSH3 0x4426 DUP4 CODECOPY DUP2 ADD PUSH1 0x40 DUP2 SWAP1 MSTORE PUSH3 0x34 SWAP2 PUSH3 0x65 JUMP JUMPDEST PUSH1 0x1 PUSH1 0x1 PUSH1 0xA0 SHL SUB SWAP2 DUP3 AND PUSH1 0x80 MSTORE AND PUSH1 0xA0 MSTORE PUSH3 0xA4 JUMP JUMPDEST PUSH1 0x1 PUSH1 0x1 PUSH1 0xA0 SHL SUB DUP2 AND DUP2 EQ PUSH3 0x62 JUMPI PUSH1 0x0 DUP1 REVERT JUMPDEST POP JUMP JUMPDEST PUSH1 0x0 DUP1 PUSH1 0x40 DUP4 DUP6 SUB SLT ISZERO PUSH3 0x79 JUMPI PUSH1 0x0 DUP1 REVERT JUMPDEST DUP3 MLOAD PUSH3 0x86 DUP2 PUSH3 0x4C JUMP JUMPDEST PUSH1 0x20 DUP5 ADD MLOAD SWAP1 SWAP3 POP PUSH3 0x99 DUP2 PUSH3 0x4C JUMP JUMPDEST DUP1 SWAP2 POP POP SWAP3 POP SWAP3 SWAP1 POP JUMP JUMPDEST PUSH1 0x80 MLOAD PUSH1 0xA0 MLOAD PUSH2 0x42DE PUSH3 0x148 PUSH1 0x0 CODECOPY PUSH1 0x0 DUP2 DUP2 PUSH2 0x22C ADD MSTORE DUP2 DUP2 PUSH2 0x5CD ADD MSTORE DUP2 DUP2 PUSH2 0xC14 ADD MSTORE DUP2 DUP2 PUSH2 0x1474 ADD MSTORE DUP2 DUP2 PUSH2 0x1536 ADD MSTORE DUP2 DUP2 PUSH2 0x15F6 ADD MSTORE DUP2 DUP2 PUSH2 0x1693 ADD MSTORE DUP2 DUP2 PUSH2 0x1899 ADD MSTORE DUP2 DUP2 PUSH2 0x1AA3 ADD MSTORE DUP2 DUP2 PUSH2 0x1B38 ADD MSTORE DUP2 DUP2 PUSH2 0x1BC2 ADD MSTORE DUP2 DUP2 PUSH2 0x1CFF ADD MSTORE DUP2 DUP2 PUSH2 0x1D7D ADD MSTORE DUP2 DUP2 PUSH2 0x1E2C ADD MSTORE DUP2 DUP2 PUSH2 0x309A ADD MSTORE PUSH2 0x3118 ADD MSTORE PUSH1 0x0 DUP2 DUP2 PUSH2 0x3A3 ADD MSTORE DUP2 DUP2 PUSH2 0x474 ADD MSTORE DUP2 DUP2 PUSH2 0x1193 ADD MSTORE PUSH2 0x24C0 ADD MSTORE PUSH2 0x42DE PUSH1 0x0 RETURN INVALID PUSH1 0x80 PUSH1 0x40 MSTORE PUSH1 0x4 CALLDATASIZE LT PUSH2 0x12E JUMPI PUSH1 0x0 CALLDATALOAD PUSH1 0xE0 SHR DUP1 PUSH4 0x62C06767 GT PUSH2 0xAB JUMPI DUP1 PUSH4 0xB6F9DE95 GT PUSH2 0x6F JUMPI DUP1 PUSH4 0xB6F9DE95 EQ PUSH2 0x37E JUMPI DUP1 PUSH4 0xC45A0155 EQ PUSH2 0x391 JUMPI DUP1 PUSH4 0xCB5B059A EQ PUSH2 0x3C5 JUMPI DUP1 PUSH4 0xEDF31178 EQ PUSH2 0x3E5 JUMPI DUP1 PUSH4 0xF5E29329 EQ PUSH2 0x3F8 JUMPI DUP1 PUSH4 0xFB3BDB41 EQ PUSH2 0x42C JUMPI PUSH1 0x0 DUP1 REVERT JUMPDEST DUP1 PUSH4 0x62C06767 EQ PUSH2 0x2DB JUMPI DUP1 PUSH4 0x62EBDF98 EQ PUSH2 0x2FD JUMPI DUP1 PUSH4 0x791AC947 EQ PUSH2 0x32B JUMPI DUP1 PUSH4 0x7FF36AB5 EQ PUSH2 0x34B JUMPI DUP1 PUSH4 0x8803DBEE EQ PUSH2 0x35E JUMPI PUSH1 0x0 DUP1 REVERT JUMPDEST DUP1 PUSH4 0x3FC8CEF3 GT PUSH2 0xF2 JUMPI DUP1 PUSH4 0x3FC8CEF3 EQ PUSH2 0x21A JUMPI DUP1 PUSH4 0x4A25D94A EQ PUSH2 0x24E JUMPI DUP1 PUSH4 0x4C7CFFBD EQ PUSH2 0x27B JUMPI DUP1 PUSH4 0x5BDD4B7C EQ PUSH2 0x29B JUMPI DUP1 PUSH4 0x5C11D795 EQ PUSH2 0x2BB JUMPI PUSH1 0x0 DUP1 REVERT JUMPDEST DUP1 PUSH4 0x2E48CE2 EQ PUSH2 0x13A JUMPI DUP1 PUSH4 0x18CBAFE5 EQ PUSH2 0x177 JUMPI DUP1 PUSH4 0x2004B724 EQ PUSH2 0x1A5 JUMPI DUP1 PUSH4 0x276F78DD EQ PUSH2 0x1DA JUMPI DUP1 PUSH4 0x38ED1739 EQ PUSH2 0x1FA JUMPI PUSH1 0x0 DUP1 REVERT JUMPDEST CALLDATASIZE PUSH2 0x135 JUMPI STOP JUMPDEST PUSH1 0x0 DUP1 REVERT JUMPDEST CALLVALUE DUP1 ISZERO PUSH2 0x146 JUMPI PUSH1 0x0 DUP1 REVERT JUMPDEST POP PUSH2 0x15A PUSH2 0x155 CALLDATASIZE PUSH1 0x4 PUSH2 0x38F3 JUMP JUMPDEST PUSH2 0x43F JUMP JUMPDEST PUSH1 0x40 MLOAD PUSH1 0x1 PUSH1 0x1 PUSH1 0xA0 SHL SUB SWAP1 SWAP2 AND DUP2 MSTORE PUSH1 0x20 ADD JUMPDEST PUSH1 0x40 MLOAD DUP1 SWAP2 SUB SWAP1 RETURN JUMPDEST CALLVALUE DUP1 ISZERO PUSH2 0x183 JUMPI PUSH1 0x0 DUP1 REVERT JUMPDEST POP PUSH2 0x197 PUSH2 0x192 CALLDATASIZE PUSH1 0x4 PUSH2 0x3A43 JUMP JUMPDEST PUSH2 0x4EB JUMP JUMPDEST PUSH1 0x40 MLOAD SWAP1 DUP2 MSTORE PUSH1 0x20 ADD PUSH2 0x16E JUMP JUMPDEST CALLVALUE DUP1 ISZERO PUSH2 0x1B1 JUMPI PUSH1 0x0 DUP1 REVERT JUMPDEST POP PUSH2 0x1C5 PUSH2 0x1C0 CALLDATASIZE PUSH1 0x4 PUSH2 0x3ABB JUMP JUMPDEST PUSH2 0x646 JUMP JUMPDEST PUSH1 0x40 DUP1 MLOAD SWAP3 DUP4 MSTORE PUSH1 0x20 DUP4 ADD SWAP2 SWAP1 SWAP2 MSTORE ADD PUSH2 0x16E JUMP JUMPDEST CALLVALUE DUP1 ISZERO PUSH2 0x1E6 JUMPI PUSH1 0x0 DUP1 REVERT JUMPDEST POP PUSH2 0x1C5 PUSH2 0x1F5 CALLDATASIZE PUSH1 0x4 PUSH2 0x3B4D JUMP JUMPDEST PUSH2 0x956 JUMP JUMPDEST CALLVALUE DUP1 ISZERO PUSH2 0x206 JUMPI PUSH1 0x0 DUP1 REVERT JUMPDEST POP PUSH2 0x197 PUSH2 0x215 CALLDATASIZE PUSH1 0x4 PUSH2 0x3A43 JUMP JUMPDEST PUSH2 0xA44 JUMP JUMPDEST CALLVALUE DUP1 ISZERO PUSH2 0x226 JUMPI PUSH1 0x0 DUP1 REVERT JUMPDEST POP PUSH2 0x15A PUSH32 0x0 DUP2 JUMP JUMPDEST CALLVALUE DUP1 ISZERO PUSH2 0x25A JUMPI PUSH1 0x0 DUP1 REVERT JUMPDEST POP PUSH2 0x26E PUSH2 0x269 CALLDATASIZE PUSH1 0x4 PUSH2 0x3A43 JUMP JUMPDEST PUSH2 0xACE JUMP JUMPDEST PUSH1 0x40 MLOAD PUSH2 0x16E SWAP2 SWAP1 PUSH2 0x3C42 JUMP JUMPDEST CALLVALUE DUP1 ISZERO PUSH2 0x287 JUMPI PUSH1 0x0 DUP1 REVERT JUMPDEST POP PUSH2 0x197 PUSH2 0x296 CALLDATASIZE PUSH1 0x4 PUSH2 0x3C55 JUMP JUMPDEST PUSH2 0xC8E JUMP JUMPDEST CALLVALUE DUP1 ISZERO PUSH2 0x2A7 JUMPI PUSH1 0x0 DUP1 REVERT JUMPDEST POP PUSH2 0x1C5 PUSH2 0x2B6 CALLDATASIZE PUSH1 0x4 PUSH2 0x3ABB JUMP JUMPDEST PUSH2 0xCA4 JUMP JUMPDEST CALLVALUE DUP1 ISZERO PUSH2 0x2C7 JUMPI PUSH1 0x0 DUP1 REVERT JUMPDEST POP PUSH2 0x197 PUSH2 0x2D6 CALLDATASIZE PUSH1 0x4 PUSH2 0x3A43 JUMP JUMPDEST PUSH2 0xFD6 JUMP JUMPDEST CALLVALUE DUP1 ISZERO PUSH2 0x2E7 JUMPI PUSH1 0x0 DUP1 REVERT JUMPDEST POP PUSH2 0x2FB PUSH2 0x2F6 CALLDATASIZE PUSH1 0x4 PUSH2 0x3C72 JUMP JUMPDEST PUSH2 0x1191 JUMP JUMPDEST STOP JUMPDEST CALLVALUE DUP1 ISZERO PUSH2 0x309 JUMPI PUSH1 0x0 DUP1 REVERT JUMPDEST POP PUSH2 0x31D PUSH2 0x318 CALLDATASIZE PUSH1 0x4 PUSH2 0x3CB3 JUMP JUMPDEST PUSH2 0x12F7 JUMP JUMPDEST PUSH1 0x40 MLOAD PUSH2 0x16E SWAP3 SWAP2 SWAP1 PUSH2 0x3CEE JUMP JUMPDEST CALLVALUE DUP1 ISZERO PUSH2 0x337 JUMPI PUSH1 0x0 DUP1 REVERT JUMPDEST POP PUSH2 0x197 PUSH2 0x346 CALLDATASIZE PUSH1 0x4 PUSH2 0x3A43 JUMP JUMPDEST PUSH2 0x1419 JUMP JUMPDEST PUSH2 0x197 PUSH2 0x359 CALLDATASIZE PUSH1 0x4 PUSH2 0x3D13 JUMP JUMPDEST PUSH2 0x1664 JUMP JUMPDEST CALLVALUE DUP1 ISZERO PUSH2 0x36A JUMPI PUSH1 0x0 DUP1 REVERT JUMPDEST POP PUSH2 0x26E PUSH2 0x379 CALLDATASIZE PUSH1 0x4 PUSH2 0x3A43 JUMP JUMPDEST PUSH2 0x179C JUMP JUMPDEST PUSH2 0x197 PUSH2 0x38C CALLDATASIZE PUSH1 0x4 PUSH2 0x3D13 JUMP JUMPDEST PUSH2 0x186A JUMP JUMPDEST CALLVALUE DUP1 ISZERO PUSH2 0x39D JUMPI PUSH1 0x0 DUP1 REVERT JUMPDEST POP PUSH2 0x15A PUSH32 0x0 DUP2 JUMP JUMPDEST CALLVALUE DUP1 ISZERO PUSH2 0x3D1 JUMPI PUSH1 0x0 DUP1 REVERT JUMPDEST POP PUSH2 0x1C5 PUSH2 0x3E0 CALLDATASIZE PUSH1 0x4 PUSH2 0x3D73 JUMP JUMPDEST PUSH2 0x1A6D JUMP JUMPDEST PUSH2 0x31D PUSH2 0x3F3 CALLDATASIZE PUSH1 0x4 PUSH2 0x3CB3 JUMP JUMPDEST PUSH2 0x1C3F JUMP JUMPDEST CALLVALUE DUP1 ISZERO PUSH2 0x404 JUMPI PUSH1 0x0 DUP1 REVERT JUMPDEST POP PUSH2 0x418 PUSH2 0x413 CALLDATASIZE PUSH1 0x4 PUSH2 0x3E1A JUMP JUMPDEST PUSH2 0x1DF2 JUMP JUMPDEST PUSH1 0x40 MLOAD PUSH3 0xFFFFFF SWAP1 SWAP2 AND DUP2 MSTORE PUSH1 0x20 ADD PUSH2 0x16E JUMP JUMPDEST PUSH2 0x26E PUSH2 0x43A CALLDATASIZE PUSH1 0x4 PUSH2 0x3D13 JUMP JUMPDEST PUSH2 0x1DFD JUMP JUMPDEST PUSH1 0x40 MLOAD PUSH4 0x1724671 PUSH1 0xE1 SHL DUP2 MSTORE PUSH1 0x1 PUSH1 0x1 PUSH1 0xA0 SHL SUB DUP5 DUP2 AND PUSH1 0x4 DUP4 ADD MSTORE DUP4 DUP2 AND PUSH1 0x24 DUP4 ADD MSTORE PUSH3 0xFFFFFF DUP4 AND PUSH1 0x44 DUP4 ADD MSTORE PUSH1 0x0 SWAP2 PUSH32 0x0 SWAP1 SWAP2 AND SWAP1 PUSH4 0x2E48CE2 SWAP1 PUSH1 0x64 ADD PUSH1 0x20 PUSH1 0x40 MLOAD DUP1 DUP4 SUB DUP2 PUSH1 0x0 DUP8 GAS CALL ISZERO DUP1 ISZERO PUSH2 0x4BF JUMPI RETURNDATASIZE PUSH1 0x0 DUP1 RETURNDATACOPY RETURNDATASIZE PUSH1 0x0 REVERT JUMPDEST POP POP POP POP PUSH1 0x40 MLOAD RETURNDATASIZE PUSH1 0x1F NOT PUSH1 0x1F DUP3 ADD AND DUP3 ADD DUP1 PUSH1 0x40 MSTORE POP DUP2 ADD SWAP1 PUSH2 0x4E3 SWAP2 SWAP1 PUSH2 0x3E33 JUMP JUMPDEST SWAP5 SWAP4 POP POP POP POP JUMP JUMPDEST PUSH1 0x0 DUP2 DUP1 TIMESTAMP GT ISZERO PUSH2 0x51D JUMPI PUSH1 0x40 MLOAD PUSH4 0xDAE7CA7D PUSH1 0xE0 SHL DUP2 MSTORE PUSH1 0x4 DUP2 ADD DUP3 SWAP1 MSTORE TIMESTAMP PUSH1 0x24 DUP3 ADD MSTORE PUSH1 0x44 ADD JUMPDEST PUSH1 0x40 MLOAD DUP1 SWAP2 SUB SWAP1 REVERT JUMPDEST PUSH1 0x0 PUSH2 0x528 DUP7 PUSH2 0x1FB4 JUMP JUMPDEST SWAP1 POP PUSH2 0x57E CALLER DUP3 PUSH1 0x0 DUP2 MLOAD DUP2 LT PUSH2 0x541 JUMPI PUSH2 0x541 PUSH2 0x3E50 JUMP JUMPDEST PUSH1 0x20 MUL PUSH1 0x20 ADD ADD MLOAD DUP11 DUP10 PUSH1 0x0 DUP2 MLOAD DUP2 LT PUSH2 0x55D JUMPI PUSH2 0x55D PUSH2 0x3E50 JUMP JUMPDEST PUSH1 0x20 MUL PUSH1 0x20 ADD ADD MLOAD PUSH1 0x1 PUSH1 0x1 PUSH1 0xA0 SHL SUB AND PUSH2 0x2099 SWAP1 SWAP4 SWAP3 SWAP2 SWAP1 PUSH4 0xFFFFFFFF AND JUMP JUMPDEST PUSH2 0x58A DUP9 DUP3 DUP9 ADDRESS PUSH2 0x2145 JUMP JUMPDEST SWAP3 POP DUP3 DUP8 GT ISZERO PUSH2 0x5B7 JUMPI PUSH1 0x40 MLOAD PUSH4 0x13FAB003 PUSH1 0xE2 SHL DUP2 MSTORE PUSH1 0x4 DUP2 ADD DUP9 SWAP1 MSTORE PUSH1 0x24 DUP2 ADD DUP5 SWAP1 MSTORE PUSH1 0x44 ADD PUSH2 0x514 JUMP JUMPDEST PUSH1 0x40 MLOAD PUSH4 0x2E1A7D4D PUSH1 0xE0 SHL DUP2 MSTORE PUSH1 0x4 DUP2 ADD DUP5 SWAP1 MSTORE PUSH32 0x0 PUSH1 0x1 PUSH1 0x1 PUSH1 0xA0 SHL SUB AND SWAP1 PUSH4 0x2E1A7D4D SWAP1 PUSH1 0x24 ADD PUSH1 0x0 PUSH1 0x40 MLOAD DUP1 DUP4 SUB DUP2 PUSH1 0x0 DUP8 DUP1 EXTCODESIZE ISZERO DUP1 ISZERO PUSH2 0x619 JUMPI PUSH1 0x0 DUP1 REVERT JUMPDEST POP GAS CALL ISZERO DUP1 ISZERO PUSH2 0x62D JUMPI RETURNDATASIZE PUSH1 0x0 DUP1 RETURNDATACOPY RETURNDATASIZE PUSH1 0x0 REVERT JUMPDEST POP POP POP POP PUSH2 0x63B DUP6 DUP5 PUSH2 0x22FE JUMP JUMPDEST POP POP SWAP6 SWAP5 POP POP POP POP POP JUMP JUMPDEST PUSH1 0x0 DUP1 PUSH1 0x0 DUP6 PUSH1 0x1 PUSH1 0x1 PUSH1 0xA0 SHL SUB AND PUSH4 0x1B05B83E PUSH1 0x40 MLOAD DUP2 PUSH4 0xFFFFFFFF AND PUSH1 0xE0 SHL DUP2 MSTORE PUSH1 0x4 ADD PUSH1 0x60 PUSH1 0x40 MLOAD DUP1 DUP4 SUB DUP2 DUP7 GAS STATICCALL ISZERO DUP1 ISZERO PUSH2 0x689 JUMPI RETURNDATASIZE PUSH1 0x0 DUP1 RETURNDATACOPY RETURNDATASIZE PUSH1 0x0 REVERT JUMPDEST POP POP POP POP PUSH1 0x40 MLOAD RETURNDATASIZE PUSH1 0x1F NOT PUSH1 0x1F DUP3 ADD AND DUP3 ADD DUP1 PUSH1 0x40 MSTORE POP DUP2 ADD SWAP1 PUSH2 0x6AD SWAP2 SWAP1 PUSH2 0x3E66 JUMP JUMPDEST SWAP3 POP POP POP PUSH1 0x0 DUP7 PUSH1 0x1 PUSH1 0x1 PUSH1 0xA0 SHL SUB AND PUSH4 0x98C7ADF3 PUSH1 0x40 MLOAD DUP2 PUSH4 0xFFFFFFFF AND PUSH1 0xE0 SHL DUP2 MSTORE PUSH1 0x4 ADD PUSH1 0x40 DUP1 MLOAD DUP1 DUP4 SUB DUP2 DUP7 GAS STATICCALL ISZERO DUP1 ISZERO PUSH2 0x6F0 JUMPI RETURNDATASIZE PUSH1 0x0 DUP1 RETURNDATACOPY RETURNDATASIZE PUSH1 0x0 REVERT JUMPDEST POP POP POP POP PUSH1 0x40 MLOAD RETURNDATASIZE PUSH1 0x1F NOT PUSH1 0x1F DUP3 ADD AND DUP3 ADD DUP1 PUSH1 0x40 MSTORE POP DUP2 ADD SWAP1 PUSH2 0x714 SWAP2 SWAP1 PUSH2 0x3EAB JUMP JUMPDEST SWAP1 POP PUSH2 0x753 PUSH1 0x40 MLOAD DUP1 PUSH1 0x80 ADD PUSH1 0x40 MSTORE DUP1 PUSH1 0x0 PUSH1 0x1 PUSH1 0x1 PUSH1 0x70 SHL SUB AND DUP2 MSTORE PUSH1 0x20 ADD PUSH1 0x0 PUSH1 0x1 PUSH1 0x1 PUSH1 0x70 SHL SUB AND DUP2 MSTORE PUSH1 0x20 ADD PUSH1 0x0 DUP2 MSTORE PUSH1 0x20 ADD PUSH1 0x0 DUP2 MSTORE POP SWAP1 JUMP JUMPDEST PUSH1 0x40 MLOAD PUSH4 0x157D2D1 PUSH1 0xE3 SHL DUP2 MSTORE PUSH3 0xFFFFFF DUP5 AND PUSH1 0x4 DUP3 ADD MSTORE PUSH1 0x0 SWAP1 DUP2 SWAP1 PUSH1 0x1 PUSH1 0x1 PUSH1 0xA0 SHL SUB DUP12 AND SWAP1 PUSH4 0xABE9688 SWAP1 PUSH1 0x24 ADD PUSH1 0x40 DUP1 MLOAD DUP1 DUP4 SUB DUP2 DUP7 GAS STATICCALL ISZERO DUP1 ISZERO PUSH2 0x7A0 JUMPI RETURNDATASIZE PUSH1 0x0 DUP1 RETURNDATACOPY RETURNDATASIZE PUSH1 0x0 REVERT JUMPDEST POP POP POP POP PUSH1 0x40 MLOAD RETURNDATASIZE PUSH1 0x1F NOT PUSH1 0x1F DUP3 ADD AND DUP3 ADD DUP1 PUSH1 0x40 MSTORE POP DUP2 ADD SWAP1 PUSH2 0x7C4 SWAP2 SWAP1 PUSH2 0x3EE8 JUMP JUMPDEST PUSH1 0x40 DUP1 MLOAD PUSH1 0x80 DUP2 ADD DUP3 MSTORE PUSH1 0x1 PUSH1 0x1 PUSH1 0x70 SHL SUB SWAP4 DUP5 AND DUP1 DUP3 MSTORE SWAP4 SWAP1 SWAP3 AND PUSH1 0x20 DUP4 ADD MSTORE PUSH1 0x0 SWAP1 DUP3 ADD DUP2 SWAP1 MSTORE PUSH1 0x60 DUP3 ADD MSTORE SWAP4 POP ISZERO ISZERO SWAP2 POP DUP2 SWAP1 POP PUSH2 0x811 JUMPI POP PUSH1 0x20 DUP2 ADD MLOAD PUSH1 0x1 PUSH1 0x1 PUSH1 0x70 SHL SUB AND ISZERO ISZERO JUMPDEST ISZERO PUSH2 0x8A2 JUMPI PUSH1 0x0 DUP1 DUP1 PUSH2 0x827 DUP5 DUP7 DUP9 DUP13 DUP15 PUSH2 0x234B JUMP JUMPDEST SWAP2 SWAP5 POP SWAP3 POP SWAP1 POP PUSH1 0x1 PUSH1 0x1 PUSH1 0x70 SHL SUB DUP4 GT ISZERO PUSH2 0x859 JUMPI PUSH1 0x40 MLOAD PUSH4 0x3D9AF4E1 PUSH1 0xE1 SHL DUP2 MSTORE PUSH1 0x4 DUP2 ADD DUP8 SWAP1 MSTORE PUSH1 0x24 ADD PUSH2 0x514 JUMP JUMPDEST DUP1 MLOAD PUSH2 0x86E SWAP1 PUSH1 0x1 PUSH1 0x1 PUSH1 0x80 SHL SUB AND DUP5 PUSH2 0x3F22 JUMP JUMPDEST PUSH2 0x878 SWAP1 DUP12 PUSH2 0x3F3A JUMP JUMPDEST DUP2 MLOAD SWAP1 SWAP11 POP PUSH2 0x890 SWAP1 PUSH1 0x1 PUSH1 0x1 PUSH1 0x80 SHL SUB AND DUP9 PUSH2 0x3F22 JUMP JUMPDEST SWAP7 POP PUSH2 0x89C DUP3 DUP10 PUSH2 0x3F22 JUMP JUMPDEST SWAP8 POP POP POP POP JUMPDEST DUP7 ISZERO PUSH2 0x929 JUMPI PUSH1 0x40 MLOAD PUSH4 0x8F919A83 PUSH1 0xE0 SHL DUP2 MSTORE PUSH3 0xFFFFFF DUP5 AND PUSH1 0x4 DUP3 ADD MSTORE DUP7 ISZERO ISZERO PUSH1 0x24 DUP3 ADD MSTORE PUSH1 0x1 PUSH1 0x1 PUSH1 0xA0 SHL SUB DUP10 AND SWAP1 PUSH4 0x8F919A83 SWAP1 PUSH1 0x44 ADD PUSH1 0x20 PUSH1 0x40 MLOAD DUP1 DUP4 SUB DUP2 DUP7 GAS STATICCALL ISZERO DUP1 ISZERO PUSH2 0x8F9 JUMPI RETURNDATASIZE PUSH1 0x0 DUP1 RETURNDATACOPY RETURNDATASIZE PUSH1 0x0 REVERT JUMPDEST POP POP POP POP PUSH1 0x40 MLOAD RETURNDATASIZE PUSH1 0x1F NOT PUSH1 0x1F DUP3 ADD AND DUP3 ADD DUP1 PUSH1 0x40 MSTORE POP DUP2 ADD SWAP1 PUSH2 0x91D SWAP2 SWAP1 PUSH2 0x3F51 JUMP JUMPDEST PUSH3 0xFFFFFF AND SWAP3 POP PUSH2 0x753 JUMP JUMPDEST DUP7 ISZERO PUSH2 0x94B JUMPI PUSH1 0x40 MLOAD PUSH4 0x49CDA5CD PUSH1 0xE1 SHL DUP2 MSTORE PUSH1 0x4 DUP2 ADD DUP9 SWAP1 MSTORE PUSH1 0x24 ADD PUSH2 0x514 JUMP JUMPDEST POP POP POP SWAP4 POP SWAP4 SWAP2 POP POP JUMP JUMPDEST PUSH1 0x0 DUP1 DUP3 DUP1 TIMESTAMP GT ISZERO PUSH2 0x984 JUMPI PUSH1 0x40 MLOAD PUSH4 0xDAE7CA7D PUSH1 0xE0 SHL DUP2 MSTORE PUSH1 0x4 DUP2 ADD DUP3 SWAP1 MSTORE TIMESTAMP PUSH1 0x24 DUP3 ADD MSTORE PUSH1 0x44 ADD PUSH2 0x514 JUMP JUMPDEST PUSH1 0x0 PUSH2 0x990 DUP13 DUP13 PUSH2 0x2494 JUMP JUMPDEST SWAP1 POP PUSH1 0x0 DUP2 PUSH1 0x1 PUSH1 0x1 PUSH1 0xA0 SHL SUB AND PUSH4 0x16DC165B PUSH1 0x40 MLOAD DUP2 PUSH4 0xFFFFFFFF AND PUSH1 0xE0 SHL DUP2 MSTORE PUSH1 0x4 ADD PUSH1 0x20 PUSH1 0x40 MLOAD DUP1 DUP4 SUB DUP2 DUP7 GAS STATICCALL ISZERO DUP1 ISZERO PUSH2 0x9D2 JUMPI RETURNDATASIZE PUSH1 0x0 DUP1 RETURNDATACOPY RETURNDATASIZE PUSH1 0x0 REVERT JUMPDEST POP POP POP POP PUSH1 0x40 MLOAD RETURNDATASIZE PUSH1 0x1F NOT PUSH1 0x1F DUP3 ADD AND DUP3 ADD DUP1 PUSH1 0x40 MSTORE POP DUP2 ADD SWAP1 PUSH2 0x9F6 SWAP2 SWAP1 PUSH2 0x3E33 JUMP JUMPDEST PUSH1 0x1 PUSH1 0x1 PUSH1 0xA0 SHL SUB AND DUP14 PUSH1 0x1 PUSH1 0x1 PUSH1 0xA0 SHL SUB AND EQ ISZERO SWAP1 POP DUP1 ISZERO PUSH2 0xA17 JUMPI SWAP9 SWAP10 SWAP9 JUMPDEST PUSH2 0xA25 DUP3 DUP13 DUP13 DUP13 DUP13 DUP13 PUSH2 0x2533 JUMP JUMPDEST SWAP1 SWAP6 POP SWAP4 POP DUP1 ISZERO PUSH2 0xA34 JUMPI SWAP3 SWAP4 SWAP3 JUMPDEST POP POP POP SWAP9 POP SWAP9 SWAP7 POP POP POP POP POP POP POP JUMP JUMPDEST PUSH1 0x0 DUP2 DUP1 TIMESTAMP GT ISZERO PUSH2 0xA71 JUMPI PUSH1 0x40 MLOAD PUSH4 0xDAE7CA7D PUSH1 0xE0 SHL DUP2 MSTORE PUSH1 0x4 DUP2 ADD DUP3 SWAP1 MSTORE TIMESTAMP PUSH1 0x24 DUP3 ADD MSTORE PUSH1 0x44 ADD PUSH2 0x514 JUMP JUMPDEST PUSH1 0x0 PUSH2 0xA7C DUP7 PUSH2 0x1FB4 JUMP JUMPDEST SWAP1 POP PUSH2 0xA95 CALLER DUP3 PUSH1 0x0 DUP2 MLOAD DUP2 LT PUSH2 0x541 JUMPI PUSH2 0x541 PUSH2 0x3E50 JUMP JUMPDEST PUSH2 0xAA1 DUP9 DUP3 DUP9 DUP9 PUSH2 0x2145 JUMP JUMPDEST SWAP3 POP DUP3 DUP8 GT ISZERO PUSH2 0x63B JUMPI PUSH1 0x40 MLOAD PUSH4 0x13FAB003 PUSH1 0xE2 SHL DUP2 MSTORE PUSH1 0x4 DUP2 ADD DUP9 SWAP1 MSTORE PUSH1 0x24 DUP2 ADD DUP5 SWAP1 MSTORE PUSH1 0x44 ADD PUSH2 0x514 JUMP JUMPDEST PUSH1 0x60 DUP2 DUP1 TIMESTAMP GT ISZERO PUSH2 0xAFB JUMPI PUSH1 0x40 MLOAD PUSH4 0xDAE7CA7D PUSH1 0xE0 SHL DUP2 MSTORE PUSH1 0x4 DUP2 ADD DUP3 SWAP1 MSTORE TIMESTAMP PUSH1 0x24 DUP3 ADD MSTORE PUSH1 0x44 ADD PUSH2 0x514 JUMP JUMPDEST PUSH1 0x0 PUSH2 0xB06 DUP7 PUSH2 0x1FB4 JUMP JUMPDEST SWAP1 POP PUSH2 0xB13 DUP2 DUP8 DUP11 PUSH2 0x265F JUMP JUMPDEST SWAP3 POP DUP7 DUP4 PUSH1 0x0 DUP2 MLOAD DUP2 LT PUSH2 0xB29 JUMPI PUSH2 0xB29 PUSH2 0x3E50 JUMP JUMPDEST PUSH1 0x20 MUL PUSH1 0x20 ADD ADD MLOAD GT ISZERO PUSH2 0xB77 JUMPI DUP7 DUP4 PUSH1 0x0 DUP2 MLOAD DUP2 LT PUSH2 0xB4B JUMPI PUSH2 0xB4B PUSH2 0x3E50 JUMP JUMPDEST PUSH1 0x20 MUL PUSH1 0x20 ADD ADD MLOAD PUSH1 0x40 MLOAD PUSH4 0x194EE219 PUSH1 0xE3 SHL DUP2 MSTORE PUSH1 0x4 ADD PUSH2 0x514 SWAP3 SWAP2 SWAP1 SWAP2 DUP3 MSTORE PUSH1 0x20 DUP3 ADD MSTORE PUSH1 0x40 ADD SWAP1 JUMP JUMPDEST PUSH2 0xBC4 CALLER DUP3 PUSH1 0x0 DUP2 MLOAD DUP2 LT PUSH2 0xB8E JUMPI PUSH2 0xB8E PUSH2 0x3E50 JUMP JUMPDEST PUSH1 0x20 MUL PUSH1 0x20 ADD ADD MLOAD DUP6 PUSH1 0x0 DUP2 MLOAD DUP2 LT PUSH2 0xBA9 JUMPI PUSH2 0xBA9 PUSH2 0x3E50 JUMP JUMPDEST PUSH1 0x20 MUL PUSH1 0x20 ADD ADD MLOAD DUP10 PUSH1 0x0 DUP2 MLOAD DUP2 LT PUSH2 0x55D JUMPI PUSH2 0x55D PUSH2 0x3E50 JUMP JUMPDEST PUSH1 0x0 PUSH2 0xBD1 DUP3 DUP9 ADDRESS PUSH2 0x27FF JUMP JUMPDEST SWAP1 POP DUP9 DUP2 LT ISZERO PUSH2 0xBFE JUMPI PUSH1 0x40 MLOAD PUSH4 0x13FAB003 PUSH1 0xE2 SHL DUP2 MSTORE PUSH1 0x4 DUP2 ADD DUP11 SWAP1 MSTORE PUSH1 0x24 DUP2 ADD DUP3 SWAP1 MSTORE PUSH1 0x44 ADD PUSH2 0x514 JUMP JUMPDEST PUSH1 0x40 MLOAD PUSH4 0x2E1A7D4D PUSH1 0xE0 SHL DUP2 MSTORE PUSH1 0x4 DUP2 ADD DUP3 SWAP1 MSTORE PUSH32 0x0 PUSH1 0x1 PUSH1 0x1 PUSH1 0xA0 SHL SUB AND SWAP1 PUSH4 0x2E1A7D4D SWAP1 PUSH1 0x24 ADD PUSH1 0x0 PUSH1 0x40 MLOAD DUP1 DUP4 SUB DUP2 PUSH1 0x0 DUP8 DUP1 EXTCODESIZE ISZERO DUP1 ISZERO PUSH2 0xC60 JUMPI PUSH1 0x0 DUP1 REVERT JUMPDEST POP GAS CALL ISZERO DUP1 ISZERO PUSH2 0xC74 JUMPI RETURNDATASIZE PUSH1 0x0 DUP1 RETURNDATACOPY RETURNDATASIZE PUSH1 0x0 REVERT JUMPDEST POP POP POP POP PUSH2 0xC82 DUP7 DUP3 PUSH2 0x22FE JUMP JUMPDEST POP POP POP SWAP6 SWAP5 POP POP POP POP POP JUMP JUMPDEST PUSH1 0x0 PUSH2 0xC9E DUP3 PUSH3 0xFFFFFF AND PUSH2 0x29B4 JUMP JUMPDEST SWAP3 SWAP2 POP POP JUMP JUMPDEST PUSH1 0x0 DUP1 PUSH1 0x0 DUP1 PUSH1 0x0 DUP8 PUSH1 0x1 PUSH1 0x1 PUSH1 0xA0 SHL SUB AND PUSH4 0x1B05B83E PUSH1 0x40 MLOAD DUP2 PUSH4 0xFFFFFFFF AND PUSH1 0xE0 SHL DUP2 MSTORE PUSH1 0x4 ADD PUSH1 0x60 PUSH1 0x40 MLOAD DUP1 DUP4 SUB DUP2 DUP7 GAS STATICCALL ISZERO DUP1 ISZERO PUSH2 0xCEA JUMPI RETURNDATASIZE PUSH1 0x0 DUP1 RETURNDATACOPY RETURNDATASIZE PUSH1 0x0 REVERT JUMPDEST POP POP POP POP PUSH1 0x40 MLOAD RETURNDATASIZE PUSH1 0x1F NOT PUSH1 0x1F DUP3 ADD AND DUP3 ADD DUP1 PUSH1 0x40 MSTORE POP DUP2 ADD SWAP1 PUSH2 0xD0E SWAP2 SWAP1 PUSH2 0x3E66 JUMP JUMPDEST SWAP3 POP SWAP3 POP SWAP3 POP DUP7 PUSH1 0x0 EQ DUP1 PUSH2 0xD2F JUMPI POP DUP6 PUSH2 0xD2B JUMPI DUP3 DUP8 GT PUSH2 0xD2F JUMP JUMPDEST DUP2 DUP8 GT JUMPDEST ISZERO PUSH2 0xD64 JUMPI DUP7 DUP7 PUSH2 0xD40 JUMPI DUP4 PUSH2 0xD42 JUMP JUMPDEST DUP3 JUMPDEST PUSH1 0x40 MLOAD PUSH4 0x7C40A4DF PUSH1 0xE0 SHL DUP2 MSTORE PUSH1 0x4 DUP2 ADD SWAP3 SWAP1 SWAP3 MSTORE PUSH1 0x24 DUP3 ADD MSTORE PUSH1 0x44 ADD PUSH2 0x514 JUMP JUMPDEST PUSH1 0x0 DUP9 PUSH1 0x1 PUSH1 0x1 PUSH1 0xA0 SHL SUB AND PUSH4 0x98C7ADF3 PUSH1 0x40 MLOAD DUP2 PUSH4 0xFFFFFFFF AND PUSH1 0xE0 SHL DUP2 MSTORE PUSH1 0x4 ADD PUSH1 0x40 DUP1 MLOAD DUP1 DUP4 SUB DUP2 DUP7 GAS STATICCALL ISZERO DUP1 ISZERO PUSH2 0xDA3 JUMPI RETURNDATASIZE PUSH1 0x0 DUP1 RETURNDATACOPY RETURNDATASIZE PUSH1 0x0 REVERT JUMPDEST POP POP POP POP PUSH1 0x40 MLOAD RETURNDATASIZE PUSH1 0x1F NOT PUSH1 0x1F DUP3 ADD AND DUP3 ADD DUP1 PUSH1 0x40 MSTORE POP DUP2 ADD SWAP1 PUSH2 0xDC7 SWAP2 SWAP1 PUSH2 0x3EAB JUMP JUMPDEST SWAP1 POP PUSH1 0x0 DUP1 PUSH1 0x0 JUMPDEST PUSH1 0x40 MLOAD PUSH4 0x157D2D1 PUSH1 0xE3 SHL DUP2 MSTORE PUSH3 0xFFFFFF DUP7 AND PUSH1 0x4 DUP3 ADD MSTORE PUSH1 0x0 SWAP1 DUP2 SWAP1 PUSH1 0x1 PUSH1 0x1 PUSH1 0xA0 SHL SUB DUP16 AND SWAP1 PUSH4 0xABE9688 SWAP1 PUSH1 0x24 ADD PUSH1 0x40 DUP1 MLOAD DUP1 DUP4 SUB DUP2 DUP7 GAS STATICCALL ISZERO DUP1 ISZERO PUSH2 0xE1C JUMPI RETURNDATASIZE PUSH1 0x0 DUP1 RETURNDATACOPY RETURNDATASIZE PUSH1 0x0 REVERT JUMPDEST POP POP POP POP PUSH1 0x40 MLOAD RETURNDATASIZE PUSH1 0x1F NOT PUSH1 0x1F DUP3 ADD AND DUP3 ADD DUP1 PUSH1 0x40 MSTORE POP DUP2 ADD SWAP1 PUSH2 0xE40 SWAP2 SWAP1 PUSH2 0x3EE8 JUMP JUMPDEST SWAP2 POP SWAP2 POP DUP12 PUSH2 0xE4F JUMPI DUP2 PUSH2 0xE51 JUMP JUMPDEST DUP1 JUMPDEST SWAP3 POP POP POP PUSH1 0x0 PUSH2 0xE60 DUP7 PUSH2 0x29B4 JUMP JUMPDEST SWAP1 POP DUP2 ISZERO PUSH2 0xF15 JUMPI DUP2 DUP13 LT ISZERO PUSH2 0xE76 JUMPI DUP12 PUSH2 0xE78 JUMP JUMPDEST DUP2 JUMPDEST SWAP4 POP PUSH1 0x0 DUP12 PUSH2 0xE92 JUMPI PUSH2 0xE8D DUP3 DUP7 PUSH1 0x80 PUSH2 0x2A03 JUMP JUMPDEST PUSH2 0xE9E JUMP JUMPDEST PUSH2 0xE9E DUP6 PUSH1 0x80 DUP5 PUSH2 0x2A35 JUMP JUMPDEST SWAP1 POP PUSH1 0x0 PUSH2 0xEAC DUP8 DUP4 PUSH2 0x2A67 JUMP JUMPDEST SWAP1 POP PUSH2 0xEB8 DUP2 DUP4 PUSH2 0x3F22 JUMP JUMPDEST SWAP5 POP PUSH1 0x1 PUSH1 0x1 PUSH1 0x70 SHL SUB PUSH2 0xECC DUP6 DUP8 PUSH2 0x3F22 JUMP JUMPDEST GT ISZERO PUSH2 0xEEE JUMPI PUSH1 0x40 MLOAD PUSH4 0xEC44EB89 PUSH1 0xE0 SHL DUP2 MSTORE PUSH1 0x4 DUP2 ADD DUP10 SWAP1 MSTORE PUSH1 0x24 ADD PUSH2 0x514 JUMP JUMPDEST PUSH2 0xEF8 DUP6 DUP14 PUSH2 0x3F22 JUMP JUMPDEST SWAP12 POP PUSH2 0xF04 DUP2 DUP13 PUSH2 0x3F22 JUMP JUMPDEST SWAP11 POP PUSH2 0xF10 DUP7 DUP16 PUSH2 0x3F3A JUMP JUMPDEST SWAP14 POP POP POP JUMPDEST DUP12 ISZERO PUSH2 0xF9C JUMPI PUSH1 0x40 MLOAD PUSH4 0x8F919A83 PUSH1 0xE0 SHL DUP2 MSTORE PUSH3 0xFFFFFF DUP8 AND PUSH1 0x4 DUP3 ADD MSTORE DUP12 ISZERO ISZERO PUSH1 0x24 DUP3 ADD MSTORE PUSH1 0x1 PUSH1 0x1 PUSH1 0xA0 SHL SUB DUP15 AND SWAP1 PUSH4 0x8F919A83 SWAP1 PUSH1 0x44 ADD PUSH1 0x20 PUSH1 0x40 MLOAD DUP1 DUP4 SUB DUP2 DUP7 GAS STATICCALL ISZERO DUP1 ISZERO PUSH2 0xF6C JUMPI RETURNDATASIZE PUSH1 0x0 DUP1 RETURNDATACOPY RETURNDATASIZE PUSH1 0x0 REVERT JUMPDEST POP POP POP POP PUSH1 0x40 MLOAD RETURNDATASIZE PUSH1 0x1F NOT PUSH1 0x1F DUP3 ADD AND DUP3 ADD DUP1 PUSH1 0x40 MSTORE POP DUP2 ADD SWAP1 PUSH2 0xF90 SWAP2 SWAP1 PUSH2 0x3F51 JUMP JUMPDEST PUSH3 0xFFFFFF AND SWAP6 POP PUSH2 0xFA2 JUMP JUMPDEST POP PUSH2 0xFA8 JUMP JUMPDEST POP PUSH2 0xDCF JUMP JUMPDEST DUP11 ISZERO PUSH2 0xFC7 JUMPI PUSH1 0x40 MLOAD PUSH4 0x30B13357 PUSH1 0xE2 SHL DUP2 MSTORE PUSH1 0x4 ADD PUSH1 0x40 MLOAD DUP1 SWAP2 SUB SWAP1 REVERT JUMPDEST POP POP POP POP POP POP POP SWAP4 POP SWAP4 SWAP2 POP POP JUMP JUMPDEST PUSH1 0x0 DUP2 DUP1 TIMESTAMP GT ISZERO PUSH2 0x1003 JUMPI PUSH1 0x40 MLOAD PUSH4 0xDAE7CA7D PUSH1 0xE0 SHL DUP2 MSTORE PUSH1 0x4 DUP2 ADD DUP3 SWAP1 MSTORE TIMESTAMP PUSH1 0x24 DUP3 ADD MSTORE PUSH1 0x44 ADD PUSH2 0x514 JUMP JUMPDEST PUSH1 0x0 PUSH2 0x100E DUP7 PUSH2 0x1FB4 JUMP JUMPDEST SWAP1 POP PUSH1 0x0 DUP7 DUP3 MLOAD DUP2 MLOAD DUP2 LT PUSH2 0x1025 JUMPI PUSH2 0x1025 PUSH2 0x3E50 JUMP JUMPDEST PUSH1 0x20 SWAP1 DUP2 MUL SWAP2 SWAP1 SWAP2 ADD ADD MLOAD PUSH1 0x40 MLOAD PUSH4 0x70A08231 PUSH1 0xE0 SHL DUP2 MSTORE PUSH1 0x1 PUSH1 0x1 PUSH1 0xA0 SHL SUB DUP9 DUP2 AND PUSH1 0x4 DUP4 ADD MSTORE SWAP2 SWAP3 POP PUSH1 0x0 SWAP2 DUP4 AND SWAP1 PUSH4 0x70A08231 SWAP1 PUSH1 0x24 ADD PUSH1 0x20 PUSH1 0x40 MLOAD DUP1 DUP4 SUB DUP2 DUP7 GAS STATICCALL ISZERO DUP1 ISZERO PUSH2 0x107C JUMPI RETURNDATASIZE PUSH1 0x0 DUP1 RETURNDATACOPY RETURNDATASIZE PUSH1 0x0 REVERT JUMPDEST POP POP POP POP PUSH1 0x40 MLOAD RETURNDATASIZE PUSH1 0x1F NOT PUSH1 0x1F DUP3 ADD AND DUP3 ADD DUP1 PUSH1 0x40 MSTORE POP DUP2 ADD SWAP1 PUSH2 0x10A0 SWAP2 SWAP1 PUSH2 0x3F6E JUMP JUMPDEST SWAP1 POP PUSH2 0x10D5 CALLER DUP5 PUSH1 0x0 DUP2 MLOAD DUP2 LT PUSH2 0x10B9 JUMPI PUSH2 0x10B9 PUSH2 0x3E50 JUMP JUMPDEST PUSH1 0x20 MUL PUSH1 0x20 ADD ADD MLOAD DUP13 DUP12 PUSH1 0x0 DUP2 MLOAD DUP2 LT PUSH2 0x55D JUMPI PUSH2 0x55D PUSH2 0x3E50 JUMP JUMPDEST PUSH2 0x10E0 DUP4 DUP10 DUP10 PUSH2 0x2AC8 JUMP JUMPDEST PUSH1 0x40 MLOAD PUSH4 0x70A08231 PUSH1 0xE0 SHL DUP2 MSTORE PUSH1 0x1 PUSH1 0x1 PUSH1 0xA0 SHL SUB DUP9 DUP2 AND PUSH1 0x4 DUP4 ADD MSTORE DUP3 SWAP2 SWAP1 DUP5 AND SWAP1 PUSH4 0x70A08231 SWAP1 PUSH1 0x24 ADD PUSH1 0x20 PUSH1 0x40 MLOAD DUP1 DUP4 SUB DUP2 DUP7 GAS STATICCALL ISZERO DUP1 ISZERO PUSH2 0x1129 JUMPI RETURNDATASIZE PUSH1 0x0 DUP1 RETURNDATACOPY RETURNDATASIZE PUSH1 0x0 REVERT JUMPDEST POP POP POP POP PUSH1 0x40 MLOAD RETURNDATASIZE PUSH1 0x1F NOT PUSH1 0x1F DUP3 ADD AND DUP3 ADD DUP1 PUSH1 0x40 MSTORE POP DUP2 ADD SWAP1 PUSH2 0x114D SWAP2 SWAP1 PUSH2 0x3F6E JUMP JUMPDEST PUSH2 0x1157 SWAP2 SWAP1 PUSH2 0x3F3A JUMP JUMPDEST SWAP5 POP DUP5 DUP10 GT ISZERO PUSH2 0x1184 JUMPI PUSH1 0x40 MLOAD PUSH4 0x13FAB003 PUSH1 0xE2 SHL DUP2 MSTORE PUSH1 0x4 DUP2 ADD DUP11 SWAP1 MSTORE PUSH1 0x24 DUP2 ADD DUP7 SWAP1 MSTORE PUSH1 0x44 ADD PUSH2 0x514 JUMP JUMPDEST POP POP POP POP SWAP6 SWAP5 POP POP POP POP POP JUMP JUMPDEST PUSH32 0x0 PUSH1 0x1 PUSH1 0x1 PUSH1 0xA0 SHL SUB AND PUSH4 0x8DA5CB5B PUSH1 0x40 MLOAD DUP2 PUSH4 0xFFFFFFFF AND PUSH1 0xE0 SHL DUP2 MSTORE PUSH1 0x4 ADD PUSH1 0x20 PUSH1 0x40 MLOAD DUP1 DUP4 SUB DUP2 DUP7 GAS STATICCALL ISZERO DUP1 ISZERO PUSH2 0x11EF JUMPI RETURNDATASIZE PUSH1 0x0 DUP1 RETURNDATACOPY RETURNDATASIZE PUSH1 0x0 REVERT JUMPDEST POP POP POP POP PUSH1 0x40 MLOAD RETURNDATASIZE PUSH1 0x1F NOT PUSH1 0x1F DUP3 ADD AND DUP3 ADD DUP1 PUSH1 0x40 MSTORE POP DUP2 ADD SWAP1 PUSH2 0x1213 SWAP2 SWAP1 PUSH2 0x3E33 JUMP JUMPDEST PUSH1 0x1 PUSH1 0x1 PUSH1 0xA0 SHL SUB AND CALLER PUSH1 0x1 PUSH1 0x1 PUSH1 0xA0 SHL SUB AND EQ PUSH2 0x1244 JUMPI PUSH1 0x40 MLOAD PUSH4 0x5D9515B9 PUSH1 0xE1 SHL DUP2 MSTORE PUSH1 0x4 ADD PUSH1 0x40 MLOAD DUP1 SWAP2 SUB SWAP1 REVERT JUMPDEST PUSH1 0x1 PUSH1 0x1 PUSH1 0xA0 SHL SUB DUP4 AND PUSH2 0x126E JUMPI PUSH1 0x0 NOT DUP2 EQ ISZERO PUSH2 0x125F JUMPI POP SELFBALANCE JUMPDEST PUSH2 0x1269 DUP3 DUP3 PUSH2 0x22FE JUMP JUMPDEST POP POP POP JUMP JUMPDEST PUSH1 0x0 NOT DUP2 EQ ISZERO PUSH2 0x12E3 JUMPI PUSH1 0x40 MLOAD PUSH4 0x70A08231 PUSH1 0xE0 SHL DUP2 MSTORE ADDRESS PUSH1 0x4 DUP3 ADD MSTORE PUSH1 0x1 PUSH1 0x1 PUSH1 0xA0 SHL SUB DUP5 AND SWAP1 PUSH4 0x70A08231 SWAP1 PUSH1 0x24 ADD PUSH1 0x20 PUSH1 0x40 MLOAD DUP1 DUP4 SUB DUP2 DUP7 GAS STATICCALL ISZERO DUP1 ISZERO PUSH2 0x12BC JUMPI RETURNDATASIZE PUSH1 0x0 DUP1 RETURNDATACOPY RETURNDATASIZE PUSH1 0x0 REVERT JUMPDEST POP POP POP POP PUSH1 0x40 MLOAD RETURNDATASIZE PUSH1 0x1F NOT PUSH1 0x1F DUP3 ADD AND DUP3 ADD DUP1 PUSH1 0x40 MSTORE POP DUP2 ADD SWAP1 PUSH2 0x12E0 SWAP2 SWAP1 PUSH2 0x3F6E JUMP JUMPDEST SWAP1 POP JUMPDEST PUSH2 0x1269 PUSH1 0x1 PUSH1 0x1 PUSH1 0xA0 SHL SUB DUP5 AND DUP4 DUP4 PUSH2 0x2C60 JUMP JUMPDEST PUSH1 0x60 DUP1 PUSH1 0x0 PUSH2 0x1321 PUSH2 0x130C PUSH1 0x20 DUP7 ADD DUP7 PUSH2 0x3F87 JUMP JUMPDEST PUSH2 0x131C PUSH1 0x40 DUP8 ADD PUSH1 0x20 DUP9 ADD PUSH2 0x3F87 JUMP JUMPDEST PUSH2 0x2494 JUMP JUMPDEST SWAP1 POP DUP1 PUSH1 0x1 PUSH1 0x1 PUSH1 0xA0 SHL SUB AND PUSH4 0x16DC165B PUSH1 0x40 MLOAD DUP2 PUSH4 0xFFFFFFFF AND PUSH1 0xE0 SHL DUP2 MSTORE PUSH1 0x4 ADD PUSH1 0x20 PUSH1 0x40 MLOAD DUP1 DUP4 SUB DUP2 DUP7 GAS STATICCALL ISZERO DUP1 ISZERO PUSH2 0x1361 JUMPI RETURNDATASIZE PUSH1 0x0 DUP1 RETURNDATACOPY RETURNDATASIZE PUSH1 0x0 REVERT JUMPDEST POP POP POP POP PUSH1 0x40 MLOAD RETURNDATASIZE PUSH1 0x1F NOT PUSH1 0x1F DUP3 ADD AND DUP3 ADD DUP1 PUSH1 0x40 MSTORE POP DUP2 ADD SWAP1 PUSH2 0x1385 SWAP2 SWAP1 PUSH2 0x3E33 JUMP JUMPDEST PUSH1 0x1 PUSH1 0x1 PUSH1 0xA0 SHL SUB AND PUSH2 0x139B PUSH1 0x20 DUP7 ADD DUP7 PUSH2 0x3F87 JUMP JUMPDEST PUSH1 0x1 PUSH1 0x1 PUSH1 0xA0 SHL SUB AND EQ PUSH2 0x13C2 JUMPI PUSH1 0x40 MLOAD PUSH4 0xB33F8AB9 PUSH1 0xE0 SHL DUP2 MSTORE PUSH1 0x4 ADD PUSH1 0x40 MLOAD DUP1 SWAP2 SUB SWAP1 REVERT JUMPDEST PUSH2 0x13EA CALLER DUP3 PUSH1 0x40 DUP8 ADD CALLDATALOAD PUSH2 0x13D9 PUSH1 0x20 DUP10 ADD DUP10 PUSH2 0x3F87 JUMP JUMPDEST PUSH1 0x1 PUSH1 0x1 PUSH1 0xA0 SHL SUB AND SWAP3 SWAP2 SWAP1 PUSH2 0x2099 JUMP JUMPDEST PUSH2 0x1404 CALLER DUP3 PUSH1 0x60 DUP8 ADD CALLDATALOAD PUSH2 0x13D9 PUSH1 0x40 DUP10 ADD PUSH1 0x20 DUP11 ADD PUSH2 0x3F87 JUMP JUMPDEST PUSH2 0x140E DUP5 DUP3 PUSH2 0x2D02 JUMP JUMPDEST SWAP1 SWAP6 SWAP1 SWAP5 POP SWAP3 POP POP POP JUMP JUMPDEST PUSH1 0x0 DUP2 DUP1 TIMESTAMP GT ISZERO PUSH2 0x1446 JUMPI PUSH1 0x40 MLOAD PUSH4 0xDAE7CA7D PUSH1 0xE0 SHL DUP2 MSTORE PUSH1 0x4 DUP2 ADD DUP3 SWAP1 MSTORE TIMESTAMP PUSH1 0x24 DUP3 ADD MSTORE PUSH1 0x44 ADD PUSH2 0x514 JUMP JUMPDEST PUSH1 0x0 PUSH2 0x1451 DUP7 PUSH2 0x1FB4 JUMP JUMPDEST PUSH1 0x40 MLOAD PUSH4 0x70A08231 PUSH1 0xE0 SHL DUP2 MSTORE ADDRESS PUSH1 0x4 DUP3 ADD MSTORE SWAP1 SWAP2 POP PUSH1 0x0 SWAP1 PUSH1 0x1 PUSH1 0x1 PUSH1 0xA0 SHL SUB PUSH32 0x0 AND SWAP1 PUSH4 0x70A08231 SWAP1 PUSH1 0x24 ADD PUSH1 0x20 PUSH1 0x40 MLOAD DUP1 DUP4 SUB DUP2 DUP7 GAS STATICCALL ISZERO DUP1 ISZERO PUSH2 0x14BB JUMPI RETURNDATASIZE PUSH1 0x0 DUP1 RETURNDATACOPY RETURNDATASIZE PUSH1 0x0 REVERT JUMPDEST POP POP POP POP PUSH1 0x40 MLOAD RETURNDATASIZE PUSH1 0x1F NOT PUSH1 0x1F DUP3 ADD AND DUP3 ADD DUP1 PUSH1 0x40 MSTORE POP DUP2 ADD SWAP1 PUSH2 0x14DF SWAP2 SWAP1 PUSH2 0x3F6E JUMP JUMPDEST SWAP1 POP PUSH2 0x1514 CALLER DUP4 PUSH1 0x0 DUP2 MLOAD DUP2 LT PUSH2 0x14F8 JUMPI PUSH2 0x14F8 PUSH2 0x3E50 JUMP JUMPDEST PUSH1 0x20 MUL PUSH1 0x20 ADD ADD MLOAD DUP12 DUP11 PUSH1 0x0 DUP2 MLOAD DUP2 LT PUSH2 0x55D JUMPI PUSH2 0x55D PUSH2 0x3E50 JUMP JUMPDEST PUSH2 0x151F DUP3 DUP9 ADDRESS PUSH2 0x2AC8 JUMP JUMPDEST PUSH1 0x40 MLOAD PUSH4 0x70A08231 PUSH1 0xE0 SHL DUP2 MSTORE ADDRESS PUSH1 0x4 DUP3 ADD MSTORE DUP2 SWAP1 PUSH32 0x0 PUSH1 0x1 PUSH1 0x1 PUSH1 0xA0 SHL SUB AND SWAP1 PUSH4 0x70A08231 SWAP1 PUSH1 0x24 ADD PUSH1 0x20 PUSH1 0x40 MLOAD DUP1 DUP4 SUB DUP2 DUP7 GAS STATICCALL ISZERO DUP1 ISZERO PUSH2 0x1585 JUMPI RETURNDATASIZE PUSH1 0x0 DUP1 RETURNDATACOPY RETURNDATASIZE PUSH1 0x0 REVERT JUMPDEST POP POP POP POP PUSH1 0x40 MLOAD RETURNDATASIZE PUSH1 0x1F NOT PUSH1 0x1F DUP3 ADD AND DUP3 ADD DUP1 PUSH1 0x40 MSTORE POP DUP2 ADD SWAP1 PUSH2 0x15A9 SWAP2 SWAP1 PUSH2 0x3F6E JUMP JUMPDEST PUSH2 0x15B3 SWAP2 SWAP1 PUSH2 0x3F3A JUMP JUMPDEST SWAP4 POP DUP4 DUP9 GT ISZERO PUSH2 0x15E0 JUMPI PUSH1 0x40 MLOAD PUSH4 0x13FAB003 PUSH1 0xE2 SHL DUP2 MSTORE PUSH1 0x4 DUP2 ADD DUP10 SWAP1 MSTORE PUSH1 0x24 DUP2 ADD DUP6 SWAP1 MSTORE PUSH1 0x44 ADD PUSH2 0x514 JUMP JUMPDEST PUSH1 0x40 MLOAD PUSH4 0x2E1A7D4D PUSH1 0xE0 SHL DUP2 MSTORE PUSH1 0x4 DUP2 ADD DUP6 SWAP1 MSTORE PUSH32 0x0 PUSH1 0x1 PUSH1 0x1 PUSH1 0xA0 SHL SUB AND SWAP1 PUSH4 0x2E1A7D4D SWAP1 PUSH1 0x24 ADD PUSH1 0x0 PUSH1 0x40 MLOAD DUP1 DUP4 SUB DUP2 PUSH1 0x0 DUP8 DUP1 EXTCODESIZE ISZERO DUP1 ISZERO PUSH2 0x1642 JUMPI PUSH1 0x0 DUP1 REVERT JUMPDEST POP GAS CALL ISZERO DUP1 ISZERO PUSH2 0x1656 JUMPI RETURNDATASIZE PUSH1 0x0 DUP1 RETURNDATACOPY RETURNDATASIZE PUSH1 0x0 REVERT JUMPDEST POP POP POP POP PUSH2 0xC82 DUP7 DUP6 PUSH2 0x22FE JUMP JUMPDEST PUSH1 0x0 DUP2 DUP1 TIMESTAMP GT ISZERO PUSH2 0x1691 JUMPI PUSH1 0x40 MLOAD PUSH4 0xDAE7CA7D PUSH1 0xE0 SHL DUP2 MSTORE PUSH1 0x4 DUP2 ADD DUP3 SWAP1 MSTORE TIMESTAMP PUSH1 0x24 DUP3 ADD MSTORE PUSH1 0x44 ADD PUSH2 0x514 JUMP JUMPDEST PUSH32 0x0 PUSH1 0x1 PUSH1 0x1 PUSH1 0xA0 SHL SUB AND DUP6 PUSH1 0x0 DUP2 MLOAD DUP2 LT PUSH2 0x16CE JUMPI PUSH2 0x16CE PUSH2 0x3E50 JUMP JUMPDEST PUSH1 0x20 MUL PUSH1 0x20 ADD ADD MLOAD PUSH1 0x1 PUSH1 0x1 PUSH1 0xA0 SHL SUB AND EQ PUSH2 0x1728 JUMPI DUP5 PUSH1 0x0 DUP2 MLOAD DUP2 LT PUSH2 0x16F7 JUMPI PUSH2 0x16F7 PUSH2 0x3E50 JUMP JUMPDEST PUSH1 0x20 MUL PUSH1 0x20 ADD ADD MLOAD PUSH1 0x40 MLOAD PUSH4 0xCFEC0E01 PUSH1 0xE0 SHL DUP2 MSTORE PUSH1 0x4 ADD PUSH2 0x514 SWAP2 SWAP1 PUSH1 0x1 PUSH1 0x1 PUSH1 0xA0 SHL SUB SWAP2 SWAP1 SWAP2 AND DUP2 MSTORE PUSH1 0x20 ADD SWAP1 JUMP JUMPDEST PUSH1 0x0 PUSH2 0x1733 DUP7 PUSH2 0x1FB4 JUMP JUMPDEST SWAP1 POP PUSH2 0x1759 DUP2 PUSH1 0x0 DUP2 MLOAD DUP2 LT PUSH2 0x174B JUMPI PUSH2 0x174B PUSH2 0x3E50 JUMP JUMPDEST PUSH1 0x20 MUL PUSH1 0x20 ADD ADD MLOAD CALLVALUE PUSH2 0x3098 JUMP JUMPDEST PUSH2 0x1765 CALLVALUE DUP3 DUP9 DUP9 PUSH2 0x2145 JUMP JUMPDEST SWAP3 POP DUP3 DUP8 GT ISZERO PUSH2 0x1792 JUMPI PUSH1 0x40 MLOAD PUSH4 0x13FAB003 PUSH1 0xE2 SHL DUP2 MSTORE PUSH1 0x4 DUP2 ADD DUP9 SWAP1 MSTORE PUSH1 0x24 DUP2 ADD DUP5 SWAP1 MSTORE PUSH1 0x44 ADD PUSH2 0x514 JUMP JUMPDEST POP POP SWAP5 SWAP4 POP POP POP POP JUMP JUMPDEST PUSH1 0x60 DUP2 DUP1 TIMESTAMP GT ISZERO PUSH2 0x17C9 JUMPI PUSH1 0x40 MLOAD PUSH4 0xDAE7CA7D PUSH1 0xE0 SHL DUP2 MSTORE PUSH1 0x4 DUP2 ADD DUP3 SWAP1 MSTORE TIMESTAMP PUSH1 0x24 DUP3 ADD MSTORE PUSH1 0x44 ADD PUSH2 0x514 JUMP JUMPDEST PUSH1 0x0 PUSH2 0x17D4 DUP7 PUSH2 0x1FB4 JUMP JUMPDEST SWAP1 POP PUSH2 0x17E1 DUP2 DUP8 DUP11 PUSH2 0x265F JUMP JUMPDEST SWAP3 POP DUP7 DUP4 PUSH1 0x0 DUP2 MLOAD DUP2 LT PUSH2 0x17F7 JUMPI PUSH2 0x17F7 PUSH2 0x3E50 JUMP JUMPDEST PUSH1 0x20 MUL PUSH1 0x20 ADD ADD MLOAD GT ISZERO PUSH2 0x1819 JUMPI DUP7 DUP4 PUSH1 0x0 DUP2 MLOAD DUP2 LT PUSH2 0xB4B JUMPI PUSH2 0xB4B PUSH2 0x3E50 JUMP JUMPDEST PUSH2 0x1830 CALLER DUP3 PUSH1 0x0 DUP2 MLOAD DUP2 LT PUSH2 0xB8E JUMPI PUSH2 0xB8E PUSH2 0x3E50 JUMP JUMPDEST PUSH1 0x0 PUSH2 0x183D DUP3 DUP9 DUP9 PUSH2 0x27FF JUMP JUMPDEST SWAP1 POP DUP9 DUP2 LT ISZERO PUSH2 0xC82 JUMPI PUSH1 0x40 MLOAD PUSH4 0x13FAB003 PUSH1 0xE2 SHL DUP2 MSTORE PUSH1 0x4 DUP2 ADD DUP11 SWAP1 MSTORE PUSH1 0x24 DUP2 ADD DUP3 SWAP1 MSTORE PUSH1 0x44 ADD PUSH2 0x514 JUMP JUMPDEST PUSH1 0x0 DUP2 DUP1 TIMESTAMP GT ISZERO PUSH2 0x1897 JUMPI PUSH1 0x40 MLOAD PUSH4 0xDAE7CA7D PUSH1 0xE0 SHL DUP2 MSTORE PUSH1 0x4 DUP2 ADD DUP3 SWAP1 MSTORE TIMESTAMP PUSH1 0x24 DUP3 ADD MSTORE PUSH1 0x44 ADD PUSH2 0x514 JUMP JUMPDEST PUSH32 0x0 PUSH1 0x1 PUSH1 0x1 PUSH1 0xA0 SHL SUB AND DUP6 PUSH1 0x0 DUP2 MLOAD DUP2 LT PUSH2 0x18D4 JUMPI PUSH2 0x18D4 PUSH2 0x3E50 JUMP JUMPDEST PUSH1 0x20 MUL PUSH1 0x20 ADD ADD MLOAD PUSH1 0x1 PUSH1 0x1 PUSH1 0xA0 SHL SUB AND EQ PUSH2 0x18FD JUMPI DUP5 PUSH1 0x0 DUP2 MLOAD DUP2 LT PUSH2 0x16F7 JUMPI PUSH2 0x16F7 PUSH2 0x3E50 JUMP JUMPDEST PUSH1 0x0 PUSH2 0x1908 DUP7 PUSH2 0x1FB4 JUMP JUMPDEST SWAP1 POP PUSH1 0x0 DUP7 DUP3 MLOAD DUP2 MLOAD DUP2 LT PUSH2 0x191F JUMPI PUSH2 0x191F PUSH2 0x3E50 JUMP JUMPDEST PUSH1 0x20 SWAP1 DUP2 MUL SWAP2 SWAP1 SWAP2 ADD ADD MLOAD PUSH1 0x40 MLOAD PUSH4 0x70A08231 PUSH1 0xE0 SHL DUP2 MSTORE PUSH1 0x1 PUSH1 0x1 PUSH1 0xA0 SHL SUB DUP9 DUP2 AND PUSH1 0x4 DUP4 ADD MSTORE SWAP2 SWAP3 POP PUSH1 0x0 SWAP2 DUP4 AND SWAP1 PUSH4 0x70A08231 SWAP1 PUSH1 0x24 ADD PUSH1 0x20 PUSH1 0x40 MLOAD DUP1 DUP4 SUB DUP2 DUP7 GAS STATICCALL ISZERO DUP1 ISZERO PUSH2 0x1976 JUMPI RETURNDATASIZE PUSH1 0x0 DUP1 RETURNDATACOPY RETURNDATASIZE PUSH1 0x0 REVERT JUMPDEST POP POP POP POP PUSH1 0x40 MLOAD RETURNDATASIZE PUSH1 0x1F NOT PUSH1 0x1F DUP3 ADD AND DUP3 ADD DUP1 PUSH1 0x40 MSTORE POP DUP2 ADD SWAP1 PUSH2 0x199A SWAP2 SWAP1 PUSH2 0x3F6E JUMP JUMPDEST SWAP1 POP PUSH2 0x19B2 DUP4 PUSH1 0x0 DUP2 MLOAD DUP2 LT PUSH2 0x174B JUMPI PUSH2 0x174B PUSH2 0x3E50 JUMP JUMPDEST PUSH2 0x19BD DUP4 DUP10 DUP10 PUSH2 0x2AC8 JUMP JUMPDEST PUSH1 0x40 MLOAD PUSH4 0x70A08231 PUSH1 0xE0 SHL DUP2 MSTORE PUSH1 0x1 PUSH1 0x1 PUSH1 0xA0 SHL SUB DUP9 DUP2 AND PUSH1 0x4 DUP4 ADD MSTORE DUP3 SWAP2 SWAP1 DUP5 AND SWAP1 PUSH4 0x70A08231 SWAP1 PUSH1 0x24 ADD PUSH1 0x20 PUSH1 0x40 MLOAD DUP1 DUP4 SUB DUP2 DUP7 GAS STATICCALL ISZERO DUP1 ISZERO PUSH2 0x1A06 JUMPI RETURNDATASIZE PUSH1 0x0 DUP1 RETURNDATACOPY RETURNDATASIZE PUSH1 0x0 REVERT JUMPDEST POP POP POP POP PUSH1 0x40 MLOAD RETURNDATASIZE PUSH1 0x1F NOT PUSH1 0x1F DUP3 ADD AND DUP3 ADD DUP1 PUSH1 0x40 MSTORE POP DUP2 ADD SWAP1 PUSH2 0x1A2A SWAP2 SWAP1 PUSH2 0x3F6E JUMP JUMPDEST PUSH2 0x1A34 SWAP2 SWAP1 PUSH2 0x3F3A JUMP JUMPDEST SWAP5 POP DUP5 DUP10 GT ISZERO PUSH2 0x1A61 JUMPI PUSH1 0x40 MLOAD PUSH4 0x13FAB003 PUSH1 0xE2 SHL DUP2 MSTORE PUSH1 0x4 DUP2 ADD DUP11 SWAP1 MSTORE PUSH1 0x24 DUP2 ADD DUP7 SWAP1 MSTORE PUSH1 0x44 ADD PUSH2 0x514 JUMP JUMPDEST POP POP POP POP SWAP5 SWAP4 POP POP POP POP JUMP JUMPDEST PUSH1 0x0 DUP1 DUP3 DUP1 TIMESTAMP GT ISZERO PUSH2 0x1A9B JUMPI PUSH1 0x40 MLOAD PUSH4 0xDAE7CA7D PUSH1 0xE0 SHL DUP2 MSTORE PUSH1 0x4 DUP2 ADD DUP3 SWAP1 MSTORE TIMESTAMP PUSH1 0x24 DUP3 ADD MSTORE PUSH1 0x44 ADD PUSH2 0x514 JUMP JUMPDEST PUSH1 0x0 PUSH2 0x1AC7 DUP12 PUSH32 0x0 PUSH2 0x2494 JUMP JUMPDEST SWAP1 POP PUSH1 0x0 DUP2 PUSH1 0x1 PUSH1 0x1 PUSH1 0xA0 SHL SUB AND PUSH4 0xB7D19FC4 PUSH1 0x40 MLOAD DUP2 PUSH4 0xFFFFFFFF AND PUSH1 0xE0 SHL DUP2 MSTORE PUSH1 0x4 ADD PUSH1 0x20 PUSH1 0x40 MLOAD DUP1 DUP4 SUB DUP2 DUP7 GAS STATICCALL ISZERO DUP1 ISZERO PUSH2 0x1B09 JUMPI RETURNDATASIZE PUSH1 0x0 DUP1 RETURNDATACOPY RETURNDATASIZE PUSH1 0x0 REVERT JUMPDEST POP POP POP POP PUSH1 0x40 MLOAD RETURNDATASIZE PUSH1 0x1F NOT PUSH1 0x1F DUP3 ADD AND DUP3 ADD DUP1 PUSH1 0x40 MSTORE POP DUP2 ADD SWAP1 PUSH2 0x1B2D SWAP2 SWAP1 PUSH2 0x3E33 JUMP JUMPDEST PUSH1 0x1 PUSH1 0x1 PUSH1 0xA0 SHL SUB AND PUSH32 0x0 PUSH1 0x1 PUSH1 0x1 PUSH1 0xA0 SHL SUB AND EQ SWAP1 POP DUP1 PUSH2 0x1B6C JUMPI SWAP9 SWAP10 SWAP9 JUMPDEST PUSH1 0x0 DUP1 PUSH2 0x1B7D DUP5 DUP15 DUP15 DUP15 DUP15 ADDRESS PUSH2 0x2533 JUMP JUMPDEST SWAP2 POP SWAP2 POP DUP3 PUSH2 0x1B8D JUMPI DUP1 DUP3 PUSH2 0x1B90 JUMP JUMPDEST DUP2 DUP2 JUMPDEST SWAP1 SWAP8 POP SWAP6 POP PUSH2 0x1BAC SWAP2 POP POP PUSH1 0x1 PUSH1 0x1 PUSH1 0xA0 SHL SUB DUP14 AND DUP9 DUP8 PUSH2 0x2C60 JUMP JUMPDEST PUSH1 0x40 MLOAD PUSH4 0x2E1A7D4D PUSH1 0xE0 SHL DUP2 MSTORE PUSH1 0x4 DUP2 ADD DUP6 SWAP1 MSTORE PUSH32 0x0 PUSH1 0x1 PUSH1 0x1 PUSH1 0xA0 SHL SUB AND SWAP1 PUSH4 0x2E1A7D4D SWAP1 PUSH1 0x24 ADD PUSH1 0x0 PUSH1 0x40 MLOAD DUP1 DUP4 SUB DUP2 PUSH1 0x0 DUP8 DUP1 EXTCODESIZE ISZERO DUP1 ISZERO PUSH2 0x1C0E JUMPI PUSH1 0x0 DUP1 REVERT JUMPDEST POP GAS CALL ISZERO DUP1 ISZERO PUSH2 0x1C22 JUMPI RETURNDATASIZE PUSH1 0x0 DUP1 RETURNDATACOPY RETURNDATASIZE PUSH1 0x0 REVERT JUMPDEST POP POP POP POP PUSH2 0x1C30 DUP8 DUP6 PUSH2 0x22FE JUMP JUMPDEST POP POP POP SWAP8 POP SWAP8 SWAP6 POP POP POP POP POP POP JUMP JUMPDEST PUSH1 0x60 DUP1 PUSH1 0x0 PUSH2 0x1C54 PUSH2 0x130C PUSH1 0x20 DUP7 ADD DUP7 PUSH2 0x3F87 JUMP JUMPDEST SWAP1 POP DUP1 PUSH1 0x1 PUSH1 0x1 PUSH1 0xA0 SHL SUB AND PUSH4 0x16DC165B PUSH1 0x40 MLOAD DUP2 PUSH4 0xFFFFFFFF AND PUSH1 0xE0 SHL DUP2 MSTORE PUSH1 0x4 ADD PUSH1 0x20 PUSH1 0x40 MLOAD DUP1 DUP4 SUB DUP2 DUP7 GAS STATICCALL ISZERO DUP1 ISZERO PUSH2 0x1C94 JUMPI RETURNDATASIZE PUSH1 0x0 DUP1 RETURNDATACOPY RETURNDATASIZE PUSH1 0x0 REVERT JUMPDEST POP POP POP POP PUSH1 0x40 MLOAD RETURNDATASIZE PUSH1 0x1F NOT PUSH1 0x1F DUP3 ADD AND DUP3 ADD DUP1 PUSH1 0x40 MSTORE POP DUP2 ADD SWAP1 PUSH2 0x1CB8 SWAP2 SWAP1 PUSH2 0x3E33 JUMP JUMPDEST PUSH1 0x1 PUSH1 0x1 PUSH1 0xA0 SHL SUB AND PUSH2 0x1CCE PUSH1 0x20 DUP7 ADD DUP7 PUSH2 0x3F87 JUMP JUMPDEST PUSH1 0x1 PUSH1 0x1 PUSH1 0xA0 SHL SUB AND EQ PUSH2 0x1CF5 JUMPI PUSH1 0x40 MLOAD PUSH4 0xB33F8AB9 PUSH1 0xE0 SHL DUP2 MSTORE PUSH1 0x4 ADD PUSH1 0x40 MLOAD DUP1 SWAP2 SUB SWAP1 REVERT JUMPDEST PUSH1 0x1 PUSH1 0x1 PUSH1 0xA0 SHL SUB PUSH32 0x0 AND PUSH2 0x1D2C PUSH1 0x20 DUP7 ADD DUP7 PUSH2 0x3F87 JUMP JUMPDEST PUSH1 0x1 PUSH1 0x1 PUSH1 0xA0 SHL SUB AND EQ DUP1 ISZERO PUSH2 0x1D45 JUMPI POP CALLVALUE DUP5 PUSH1 0x40 ADD CALLDATALOAD EQ JUMPDEST ISZERO PUSH2 0x1D73 JUMPI PUSH2 0x1D54 DUP2 CALLVALUE PUSH2 0x3098 JUMP JUMPDEST PUSH2 0x1D6E CALLER DUP3 PUSH1 0x60 DUP8 ADD CALLDATALOAD PUSH2 0x13D9 PUSH1 0x40 DUP10 ADD PUSH1 0x20 DUP11 ADD PUSH2 0x3F87 JUMP JUMPDEST PUSH2 0x1DEC JUMP JUMPDEST PUSH1 0x1 PUSH1 0x1 PUSH1 0xA0 SHL SUB PUSH32 0x0 AND PUSH2 0x1DAD PUSH1 0x40 DUP7 ADD PUSH1 0x20 DUP8 ADD PUSH2 0x3F87 JUMP JUMPDEST PUSH1 0x1 PUSH1 0x1 PUSH1 0xA0 SHL SUB AND EQ DUP1 ISZERO PUSH2 0x1DC6 JUMPI POP CALLVALUE DUP5 PUSH1 0x60 ADD CALLDATALOAD EQ JUMPDEST ISZERO PUSH2 0x1404 JUMPI PUSH2 0x1DE2 CALLER DUP3 PUSH1 0x40 DUP8 ADD CALLDATALOAD PUSH2 0x13D9 PUSH1 0x20 DUP10 ADD DUP10 PUSH2 0x3F87 JUMP JUMPDEST PUSH2 0x1D6E DUP2 CALLVALUE PUSH2 0x3098 JUMP JUMPDEST POP SWAP2 POP SWAP2 JUMP JUMPDEST PUSH1 0x0 PUSH2 0xC9E DUP3 PUSH2 0x3147 JUMP JUMPDEST PUSH1 0x60 DUP2 DUP1 TIMESTAMP GT ISZERO PUSH2 0x1E2A JUMPI PUSH1 0x40 MLOAD PUSH4 0xDAE7CA7D PUSH1 0xE0 SHL DUP2 MSTORE PUSH1 0x4 DUP2 ADD DUP3 SWAP1 MSTORE TIMESTAMP PUSH1 0x24 DUP3 ADD MSTORE PUSH1 0x44 ADD PUSH2 0x514 JUMP JUMPDEST PUSH32 0x0 PUSH1 0x1 PUSH1 0x1 PUSH1 0xA0 SHL SUB AND DUP6 PUSH1 0x0 DUP2 MLOAD DUP2 LT PUSH2 0x1E67 JUMPI PUSH2 0x1E67 PUSH2 0x3E50 JUMP JUMPDEST PUSH1 0x20 MUL PUSH1 0x20 ADD ADD MLOAD PUSH1 0x1 PUSH1 0x1 PUSH1 0xA0 SHL SUB AND EQ PUSH2 0x1E90 JUMPI DUP5 PUSH1 0x0 DUP2 MLOAD DUP2 LT PUSH2 0x16F7 JUMPI PUSH2 0x16F7 PUSH2 0x3E50 JUMP JUMPDEST PUSH1 0x0 PUSH2 0x1E9B DUP7 PUSH2 0x1FB4 JUMP JUMPDEST SWAP1 POP PUSH2 0x1EA8 DUP2 DUP8 DUP10 PUSH2 0x265F JUMP JUMPDEST SWAP3 POP CALLVALUE DUP4 PUSH1 0x0 DUP2 MLOAD DUP2 LT PUSH2 0x1EBE JUMPI PUSH2 0x1EBE PUSH2 0x3E50 JUMP JUMPDEST PUSH1 0x20 MUL PUSH1 0x20 ADD ADD MLOAD GT ISZERO PUSH2 0x1EE0 JUMPI CALLVALUE DUP4 PUSH1 0x0 DUP2 MLOAD DUP2 LT PUSH2 0xB4B JUMPI PUSH2 0xB4B PUSH2 0x3E50 JUMP JUMPDEST PUSH2 0x1F1E DUP2 PUSH1 0x0 DUP2 MLOAD DUP2 LT PUSH2 0x1EF6 JUMPI PUSH2 0x1EF6 PUSH2 0x3E50 JUMP JUMPDEST PUSH1 0x20 MUL PUSH1 0x20 ADD ADD MLOAD DUP5 PUSH1 0x0 DUP2 MLOAD DUP2 LT PUSH2 0x1F11 JUMPI PUSH2 0x1F11 PUSH2 0x3E50 JUMP JUMPDEST PUSH1 0x20 MUL PUSH1 0x20 ADD ADD MLOAD PUSH2 0x3098 JUMP JUMPDEST PUSH1 0x0 PUSH2 0x1F2B DUP3 DUP9 DUP9 PUSH2 0x27FF JUMP JUMPDEST SWAP1 POP DUP8 DUP2 LT ISZERO PUSH2 0x1F58 JUMPI PUSH1 0x40 MLOAD PUSH4 0x13FAB003 PUSH1 0xE2 SHL DUP2 MSTORE PUSH1 0x4 DUP2 ADD DUP10 SWAP1 MSTORE PUSH1 0x24 DUP2 ADD DUP3 SWAP1 MSTORE PUSH1 0x44 ADD PUSH2 0x514 JUMP JUMPDEST DUP4 PUSH1 0x0 DUP2 MLOAD DUP2 LT PUSH2 0x1F6B JUMPI PUSH2 0x1F6B PUSH2 0x3E50 JUMP JUMPDEST PUSH1 0x20 MUL PUSH1 0x20 ADD ADD MLOAD CALLVALUE GT ISZERO PUSH2 0x1FA9 JUMPI PUSH2 0x1FA9 CALLER DUP6 PUSH1 0x0 DUP2 MLOAD DUP2 LT PUSH2 0x1F91 JUMPI PUSH2 0x1F91 PUSH2 0x3E50 JUMP JUMPDEST PUSH1 0x20 MUL PUSH1 0x20 ADD ADD MLOAD CALLVALUE PUSH2 0x1FA4 SWAP2 SWAP1 PUSH2 0x3F3A JUMP JUMPDEST PUSH2 0x22FE JUMP JUMPDEST POP POP POP SWAP5 SWAP4 POP POP POP POP JUMP JUMPDEST PUSH1 0x60 PUSH1 0x1 DUP3 MLOAD PUSH2 0x1FC4 SWAP2 SWAP1 PUSH2 0x3F3A JUMP JUMPDEST PUSH1 0x1 PUSH1 0x1 PUSH1 0x40 SHL SUB DUP2 GT ISZERO PUSH2 0x1FDB JUMPI PUSH2 0x1FDB PUSH2 0x393E JUMP JUMPDEST PUSH1 0x40 MLOAD SWAP1 DUP1 DUP3 MSTORE DUP1 PUSH1 0x20 MUL PUSH1 0x20 ADD DUP3 ADD PUSH1 0x40 MSTORE DUP1 ISZERO PUSH2 0x2004 JUMPI DUP2 PUSH1 0x20 ADD PUSH1 0x20 DUP3 MUL DUP1 CALLDATASIZE DUP4 CALLDATACOPY ADD SWAP1 POP JUMPDEST POP SWAP1 POP PUSH1 0x0 DUP1 DUP4 PUSH1 0x0 DUP2 MLOAD DUP2 LT PUSH2 0x201D JUMPI PUSH2 0x201D PUSH2 0x3E50 JUMP JUMPDEST PUSH1 0x20 MUL PUSH1 0x20 ADD ADD MLOAD SWAP1 POP PUSH1 0x0 JUMPDEST DUP4 MLOAD DUP2 LT ISZERO PUSH2 0x2091 JUMPI DUP2 SWAP3 POP DUP5 DUP2 PUSH1 0x1 ADD DUP2 MLOAD DUP2 LT PUSH2 0x204B JUMPI PUSH2 0x204B PUSH2 0x3E50 JUMP JUMPDEST PUSH1 0x20 MUL PUSH1 0x20 ADD ADD MLOAD SWAP2 POP PUSH2 0x205F DUP4 DUP4 PUSH2 0x31B2 JUMP JUMPDEST DUP5 DUP3 DUP2 MLOAD DUP2 LT PUSH2 0x2071 JUMPI PUSH2 0x2071 PUSH2 0x3E50 JUMP JUMPDEST PUSH1 0x1 PUSH1 0x1 PUSH1 0xA0 SHL SUB SWAP1 SWAP3 AND PUSH1 0x20 SWAP3 DUP4 MUL SWAP2 SWAP1 SWAP2 ADD SWAP1 SWAP2 ADD MSTORE PUSH1 0x1 ADD PUSH2 0x202A JUMP JUMPDEST POP POP POP SWAP2 SWAP1 POP JUMP JUMPDEST DUP1 ISZERO PUSH2 0x213F JUMPI PUSH1 0x40 DUP1 MLOAD PUSH1 0x1 PUSH1 0x1 PUSH1 0xA0 SHL SUB DUP6 DUP2 AND PUSH1 0x24 DUP4 ADD MSTORE DUP5 AND PUSH1 0x44 DUP3 ADD MSTORE PUSH1 0x64 DUP1 DUP3 ADD DUP5 SWAP1 MSTORE DUP3 MLOAD DUP1 DUP4 SUB SWAP1 SWAP2 ADD DUP2 MSTORE PUSH1 0x84 SWAP1 SWAP2 ADD SWAP1 SWAP2 MSTORE PUSH1 0x20 DUP2 ADD DUP1 MLOAD PUSH1 0x1 PUSH1 0x1 PUSH1 0xE0 SHL SUB AND PUSH4 0x23B872DD PUSH1 0xE0 SHL OR SWAP1 MSTORE PUSH1 0x0 PUSH2 0x20FA DUP7 DUP4 PUSH2 0x31BE JUMP JUMPDEST SWAP1 POP PUSH1 0x0 DUP2 MLOAD GT DUP1 ISZERO PUSH2 0x211E JUMPI POP DUP1 DUP1 PUSH1 0x20 ADD SWAP1 MLOAD DUP2 ADD SWAP1 PUSH2 0x211C SWAP2 SWAP1 PUSH2 0x3FA4 JUMP JUMPDEST ISZERO JUMPDEST ISZERO PUSH2 0x213C JUMPI PUSH1 0x40 MLOAD PUSH4 0x197138BD PUSH1 0xE1 SHL DUP2 MSTORE PUSH1 0x4 ADD PUSH1 0x40 MLOAD DUP1 SWAP2 SUB SWAP1 REVERT JUMPDEST POP POP JUMPDEST POP POP POP POP JUMP JUMPDEST PUSH1 0x0 DUP1 PUSH1 0x0 DUP1 PUSH1 0x0 DUP7 PUSH1 0x0 DUP2 MLOAD DUP2 LT PUSH2 0x2160 JUMPI PUSH2 0x2160 PUSH2 0x3E50 JUMP JUMPDEST PUSH1 0x20 MUL PUSH1 0x20 ADD ADD MLOAD SWAP1 POP DUP9 SWAP5 POP PUSH1 0x0 JUMPDEST DUP9 MLOAD DUP2 LT ISZERO PUSH2 0x22F1 JUMPI DUP9 DUP2 DUP2 MLOAD DUP2 LT PUSH2 0x218B JUMPI PUSH2 0x218B PUSH2 0x3E50 JUMP JUMPDEST PUSH1 0x20 MUL PUSH1 0x20 ADD ADD MLOAD SWAP3 POP DUP2 SWAP5 POP DUP8 DUP2 PUSH1 0x1 ADD DUP2 MLOAD DUP2 LT PUSH2 0x21AD JUMPI PUSH2 0x21AD PUSH2 0x3E50 JUMP JUMPDEST PUSH1 0x20 MUL PUSH1 0x20 ADD ADD MLOAD SWAP2 POP DUP9 MLOAD DUP2 PUSH1 0x1 ADD EQ PUSH2 0x21E4 JUMPI DUP9 DUP2 PUSH1 0x1 ADD DUP2 MLOAD DUP2 LT PUSH2 0x21D7 JUMPI PUSH2 0x21D7 PUSH2 0x3E50 JUMP JUMPDEST PUSH1 0x20 MUL PUSH1 0x20 ADD ADD MLOAD PUSH2 0x21E6 JUMP JUMPDEST DUP7 JUMPDEST SWAP4 POP PUSH1 0x0 DUP4 PUSH1 0x1 PUSH1 0x1 PUSH1 0xA0 SHL SUB AND PUSH4 0xB7D19FC4 PUSH1 0x40 MLOAD DUP2 PUSH4 0xFFFFFFFF AND PUSH1 0xE0 SHL DUP2 MSTORE PUSH1 0x4 ADD PUSH1 0x20 PUSH1 0x40 MLOAD DUP1 DUP4 SUB DUP2 DUP7 GAS STATICCALL ISZERO DUP1 ISZERO PUSH2 0x2228 JUMPI RETURNDATASIZE PUSH1 0x0 DUP1 RETURNDATACOPY RETURNDATASIZE PUSH1 0x0 REVERT JUMPDEST POP POP POP POP PUSH1 0x40 MLOAD RETURNDATASIZE PUSH1 0x1F NOT PUSH1 0x1F DUP3 ADD AND DUP3 ADD DUP1 PUSH1 0x40 MSTORE POP DUP2 ADD SWAP1 PUSH2 0x224C SWAP2 SWAP1 PUSH2 0x3E33 JUMP JUMPDEST PUSH1 0x40 MLOAD PUSH4 0x29E02CD PUSH1 0xE5 SHL DUP2 MSTORE PUSH1 0x1 PUSH1 0x1 PUSH1 0xA0 SHL SUB SWAP2 DUP3 AND DUP6 DUP4 AND EQ PUSH1 0x4 DUP3 ADD DUP2 SWAP1 MSTORE DUP8 DUP4 AND PUSH1 0x24 DUP4 ADD MSTORE SWAP3 POP PUSH1 0x0 SWAP2 DUP3 SWAP2 SWAP1 DUP8 AND SWAP1 PUSH4 0x53C059A0 SWAP1 PUSH1 0x44 ADD PUSH1 0x40 DUP1 MLOAD DUP1 DUP4 SUB DUP2 PUSH1 0x0 DUP8 GAS CALL ISZERO DUP1 ISZERO PUSH2 0x22A9 JUMPI RETURNDATASIZE PUSH1 0x0 DUP1 RETURNDATACOPY RETURNDATASIZE PUSH1 0x0 REVERT JUMPDEST POP POP POP POP PUSH1 0x40 MLOAD RETURNDATASIZE PUSH1 0x1F NOT PUSH1 0x1F DUP3 ADD AND DUP3 ADD DUP1 PUSH1 0x40 MSTORE POP DUP2 ADD SWAP1 PUSH2 0x22CD SWAP2 SWAP1 PUSH2 0x3EE8 JUMP JUMPDEST SWAP2 POP SWAP2 POP DUP3 ISZERO PUSH2 0x22DF JUMPI DUP1 SWAP9 POP PUSH2 0x22E3 JUMP JUMPDEST DUP2 SWAP9 POP JUMPDEST POP POP POP DUP1 PUSH1 0x1 ADD SWAP1 POP PUSH2 0x2170 JUMP JUMPDEST POP POP POP POP POP SWAP5 SWAP4 POP POP POP POP JUMP JUMPDEST PUSH1 0x0 DUP3 PUSH1 0x1 PUSH1 0x1 PUSH1 0xA0 SHL SUB AND DUP3 PUSH1 0x40 MLOAD PUSH1 0x0 PUSH1 0x40 MLOAD DUP1 DUP4 SUB DUP2 DUP6 DUP8 GAS CALL SWAP3 POP POP POP RETURNDATASIZE DUP1 PUSH1 0x0 DUP2 EQ PUSH2 0x213C JUMPI PUSH1 0x40 MLOAD SWAP2 POP PUSH1 0x1F NOT PUSH1 0x3F RETURNDATASIZE ADD AND DUP3 ADD PUSH1 0x40 MSTORE RETURNDATASIZE DUP3 MSTORE RETURNDATASIZE PUSH1 0x0 PUSH1 0x20 DUP5 ADD RETURNDATACOPY PUSH2 0x213C JUMP JUMPDEST PUSH1 0x40 DUP1 MLOAD DUP1 DUP3 ADD SWAP1 SWAP2 MSTORE PUSH1 0x0 DUP1 DUP3 MSTORE PUSH1 0x20 DUP3 ADD DUP2 SWAP1 MSTORE SWAP1 DUP2 SWAP1 PUSH1 0x0 PUSH2 0x236F DUP8 PUSH2 0x29B4 JUMP JUMPDEST SWAP1 POP PUSH1 0x0 DUP1 DUP8 ISZERO PUSH2 0x23F2 JUMPI PUSH1 0x20 DUP12 ADD MLOAD PUSH1 0x1 PUSH1 0x1 PUSH1 0x70 SHL SUB AND SWAP2 POP PUSH2 0x2396 DUP3 PUSH1 0x80 DUP6 PUSH2 0x2A35 JUMP JUMPDEST SWAP1 POP PUSH2 0x23AC PUSH2 0x23A5 DUP12 DUP5 PUSH2 0x3289 JUMP JUMPDEST DUP12 SWAP1 PUSH2 0x32D8 JUMP JUMPDEST SWAP4 POP DUP7 DUP2 GT PUSH2 0x23C0 JUMPI DUP1 SWAP6 POP DUP2 SWAP5 POP PUSH2 0x23E1 JUMP JUMPDEST DUP7 SWAP6 POP PUSH2 0x23CF DUP4 DUP8 PUSH1 0x80 PUSH2 0x3323 JUMP JUMPDEST SWAP5 POP PUSH2 0x23DE PUSH2 0x23A5 DUP12 DUP8 PUSH2 0x3289 JUMP JUMPDEST SWAP4 POP JUMPDEST DUP2 DUP6 GT ISZERO PUSH2 0x23ED JUMPI DUP2 SWAP5 POP JUMPDEST PUSH2 0x2486 JUMP JUMPDEST DUP11 MLOAD PUSH1 0x1 PUSH1 0x1 PUSH1 0x70 SHL SUB AND SWAP2 POP PUSH2 0x240B DUP4 DUP4 PUSH1 0x80 PUSH2 0x2A03 JUMP JUMPDEST SWAP1 POP PUSH2 0x241A PUSH2 0x23A5 DUP12 DUP4 PUSH2 0x2A67 JUMP JUMPDEST DUP1 MLOAD SWAP1 SWAP5 POP DUP8 SWAP1 PUSH2 0x2434 SWAP1 PUSH1 0x1 PUSH1 0x1 PUSH1 0x80 SHL SUB AND DUP4 PUSH2 0x3F22 JUMP JUMPDEST GT PUSH2 0x2444 JUMPI DUP1 SWAP6 POP DUP2 SWAP5 POP PUSH2 0x247A JUMP JUMPDEST PUSH2 0x2451 PUSH2 0x23A5 DUP12 DUP10 PUSH2 0x3289 JUMP JUMPDEST DUP1 MLOAD SWAP1 SWAP5 POP PUSH2 0x2469 SWAP1 PUSH1 0x1 PUSH1 0x1 PUSH1 0x80 SHL SUB AND DUP9 PUSH2 0x3F3A JUMP JUMPDEST SWAP6 POP PUSH2 0x2477 DUP7 PUSH1 0x80 DUP6 PUSH2 0x33B2 JUMP JUMPDEST SWAP5 POP JUMPDEST DUP2 DUP6 GT ISZERO PUSH2 0x2486 JUMPI DUP2 SWAP5 POP JUMPDEST POP POP POP SWAP6 POP SWAP6 POP SWAP6 SWAP3 POP POP POP JUMP JUMPDEST PUSH1 0x40 MLOAD PUSH4 0x3ABB10A9 PUSH1 0xE2 SHL DUP2 MSTORE PUSH1 0x1 PUSH1 0x1 PUSH1 0xA0 SHL SUB DUP4 DUP2 AND PUSH1 0x4 DUP4 ADD MSTORE DUP3 DUP2 AND PUSH1 0x24 DUP4 ADD MSTORE PUSH1 0x0 SWAP2 DUP3 SWAP2 PUSH32 0x0 AND SWAP1 PUSH4 0xEAEC42A4 SWAP1 PUSH1 0x44 ADD PUSH1 0x40 DUP1 MLOAD DUP1 DUP4 SUB DUP2 DUP7 GAS STATICCALL ISZERO DUP1 ISZERO PUSH2 0x2506 JUMPI RETURNDATASIZE PUSH1 0x0 DUP1 RETURNDATACOPY RETURNDATASIZE PUSH1 0x0 REVERT JUMPDEST POP POP POP POP PUSH1 0x40 MLOAD RETURNDATASIZE PUSH1 0x1F NOT PUSH1 0x1F DUP3 ADD AND DUP3 ADD DUP1 PUSH1 0x40 MSTORE POP DUP2 ADD SWAP1 PUSH2 0x252A SWAP2 SWAP1 PUSH2 0x3FC1 JUMP JUMPDEST MLOAD SWAP5 SWAP4 POP POP POP POP JUMP JUMPDEST PUSH1 0x0 DUP1 DUP8 PUSH1 0x1 PUSH1 0x1 PUSH1 0xA0 SHL SUB AND PUSH4 0xFBA0EE64 CALLER DUP11 DUP9 DUP9 PUSH1 0x40 MLOAD DUP6 PUSH4 0xFFFFFFFF AND PUSH1 0xE0 SHL DUP2 MSTORE PUSH1 0x4 ADD PUSH2 0x2568 SWAP5 SWAP4 SWAP3 SWAP2 SWAP1 PUSH2 0x3FF6 JUMP JUMPDEST PUSH1 0x0 PUSH1 0x40 MLOAD DUP1 DUP4 SUB DUP2 PUSH1 0x0 DUP8 DUP1 EXTCODESIZE ISZERO DUP1 ISZERO PUSH2 0x2582 JUMPI PUSH1 0x0 DUP1 REVERT JUMPDEST POP GAS CALL ISZERO DUP1 ISZERO PUSH2 0x2596 JUMPI RETURNDATASIZE PUSH1 0x0 DUP1 RETURNDATACOPY RETURNDATASIZE PUSH1 0x0 REVERT JUMPDEST POP POP PUSH1 0x40 MLOAD PUSH4 0xACD451D PUSH1 0xE0 SHL DUP2 MSTORE PUSH1 0x1 PUSH1 0x1 PUSH1 0xA0 SHL SUB DUP12 AND SWAP3 POP PUSH4 0xACD451D SWAP2 POP PUSH2 0x25CA SWAP1 DUP9 SWAP1 DUP9 SWAP1 DUP9 SWAP1 PUSH1 0x4 ADD PUSH2 0x403F JUMP JUMPDEST PUSH1 0x40 DUP1 MLOAD DUP1 DUP4 SUB DUP2 PUSH1 0x0 DUP8 GAS CALL ISZERO DUP1 ISZERO PUSH2 0x25E8 JUMPI RETURNDATASIZE PUSH1 0x0 DUP1 RETURNDATACOPY RETURNDATASIZE PUSH1 0x0 REVERT JUMPDEST POP POP POP POP PUSH1 0x40 MLOAD RETURNDATASIZE PUSH1 0x1F NOT PUSH1 0x1F DUP3 ADD AND DUP3 ADD DUP1 PUSH1 0x40 MSTORE POP DUP2 ADD SWAP1 PUSH2 0x260C SWAP2 SWAP1 PUSH2 0x3EE8 JUMP JUMPDEST SWAP1 SWAP3 POP SWAP1 POP DUP7 DUP3 LT DUP1 PUSH2 0x261E JUMPI POP DUP6 DUP2 LT JUMPDEST ISZERO PUSH2 0x2654 JUMPI PUSH1 0x40 MLOAD PUSH4 0x18CCFB77 PUSH1 0xE1 SHL DUP2 MSTORE PUSH1 0x4 DUP2 ADD DUP9 SWAP1 MSTORE PUSH1 0x24 DUP2 ADD DUP4 SWAP1 MSTORE PUSH1 0x44 DUP2 ADD DUP8 SWAP1 MSTORE PUSH1 0x64 DUP2 ADD DUP3 SWAP1 MSTORE PUSH1 0x84 ADD PUSH2 0x514 JUMP JUMPDEST SWAP7 POP SWAP7 SWAP5 POP POP POP POP POP JUMP JUMPDEST PUSH1 0x60 DUP3 MLOAD PUSH1 0x1 PUSH1 0x1 PUSH1 0x40 SHL SUB DUP2 GT ISZERO PUSH2 0x267A JUMPI PUSH2 0x267A PUSH2 0x393E JUMP JUMPDEST PUSH1 0x40 MLOAD SWAP1 DUP1 DUP3 MSTORE DUP1 PUSH1 0x20 MUL PUSH1 0x20 ADD DUP3 ADD PUSH1 0x40 MSTORE DUP1 ISZERO PUSH2 0x26A3 JUMPI DUP2 PUSH1 0x20 ADD PUSH1 0x20 DUP3 MUL DUP1 CALLDATASIZE DUP4 CALLDATACOPY ADD SWAP1 POP JUMPDEST POP SWAP1 POP DUP2 DUP2 DUP6 MLOAD DUP2 MLOAD DUP2 LT PUSH2 0x26BA JUMPI PUSH2 0x26BA PUSH2 0x3E50 JUMP JUMPDEST PUSH1 0x20 SWAP1 DUP2 MUL SWAP2 SWAP1 SWAP2 ADD ADD MSTORE DUP4 MLOAD JUMPDEST DUP1 ISZERO PUSH2 0x27F7 JUMPI PUSH1 0x0 DUP5 PUSH2 0x26DC PUSH1 0x1 DUP5 PUSH2 0x3F3A JUMP JUMPDEST DUP2 MLOAD DUP2 LT PUSH2 0x26EC JUMPI PUSH2 0x26EC PUSH2 0x3E50 JUMP JUMPDEST PUSH1 0x20 MUL PUSH1 0x20 ADD ADD MLOAD SWAP1 POP PUSH1 0x0 DUP7 PUSH1 0x1 DUP5 PUSH2 0x2706 SWAP2 SWAP1 PUSH2 0x3F3A JUMP JUMPDEST DUP2 MLOAD DUP2 LT PUSH2 0x2716 JUMPI PUSH2 0x2716 PUSH2 0x3E50 JUMP JUMPDEST PUSH1 0x20 MUL PUSH1 0x20 ADD ADD MLOAD SWAP1 POP PUSH2 0x27B9 DUP2 DUP6 DUP6 DUP2 MLOAD DUP2 LT PUSH2 0x2736 JUMPI PUSH2 0x2736 PUSH2 0x3E50 JUMP JUMPDEST PUSH1 0x20 MUL PUSH1 0x20 ADD ADD MLOAD DUP5 PUSH1 0x1 PUSH1 0x1 PUSH1 0xA0 SHL SUB AND DUP5 PUSH1 0x1 PUSH1 0x1 PUSH1 0xA0 SHL SUB AND PUSH4 0x16DC165B PUSH1 0x40 MLOAD DUP2 PUSH4 0xFFFFFFFF AND PUSH1 0xE0 SHL DUP2 MSTORE PUSH1 0x4 ADD PUSH1 0x20 PUSH1 0x40 MLOAD DUP1 DUP4 SUB DUP2 DUP7 GAS STATICCALL ISZERO DUP1 ISZERO PUSH2 0x2786 JUMPI RETURNDATASIZE PUSH1 0x0 DUP1 RETURNDATACOPY RETURNDATASIZE PUSH1 0x0 REVERT JUMPDEST POP POP POP POP PUSH1 0x40 MLOAD RETURNDATASIZE PUSH1 0x1F NOT PUSH1 0x1F DUP3 ADD AND DUP3 ADD DUP1 PUSH1 0x40 MSTORE POP DUP2 ADD SWAP1 PUSH2 0x27AA SWAP2 SWAP1 PUSH2 0x3E33 JUMP JUMPDEST PUSH1 0x1 PUSH1 0x1 PUSH1 0xA0 SHL SUB AND EQ PUSH2 0xCA4 JUMP JUMPDEST POP DUP5 PUSH2 0x27C6 PUSH1 0x1 DUP7 PUSH2 0x3F3A JUMP JUMPDEST DUP2 MLOAD DUP2 LT PUSH2 0x27D6 JUMPI PUSH2 0x27D6 PUSH2 0x3E50 JUMP JUMPDEST PUSH1 0x20 MUL PUSH1 0x20 ADD ADD DUP2 DUP2 MSTORE POP POP POP POP DUP1 DUP1 PUSH2 0x27EF SWAP1 PUSH2 0x407D JUMP JUMPDEST SWAP2 POP POP PUSH2 0x26C8 JUMP JUMPDEST POP SWAP4 SWAP3 POP POP POP JUMP JUMPDEST PUSH1 0x0 DUP1 PUSH1 0x0 DUP1 PUSH1 0x0 DUP7 PUSH1 0x0 DUP2 MLOAD DUP2 LT PUSH2 0x281A JUMPI PUSH2 0x281A PUSH2 0x3E50 JUMP JUMPDEST PUSH1 0x20 MUL PUSH1 0x20 ADD ADD MLOAD SWAP1 POP PUSH1 0x0 JUMPDEST DUP9 MLOAD DUP2 LT ISZERO PUSH2 0x29A8 JUMPI DUP9 DUP2 DUP2 MLOAD DUP2 LT PUSH2 0x2842 JUMPI PUSH2 0x2842 PUSH2 0x3E50 JUMP JUMPDEST PUSH1 0x20 MUL PUSH1 0x20 ADD ADD MLOAD SWAP3 POP DUP2 SWAP5 POP DUP8 DUP2 PUSH1 0x1 ADD DUP2 MLOAD DUP2 LT PUSH2 0x2864 JUMPI PUSH2 0x2864 PUSH2 0x3E50 JUMP JUMPDEST PUSH1 0x20 MUL PUSH1 0x20 ADD ADD MLOAD SWAP2 POP DUP9 MLOAD DUP2 PUSH1 0x1 ADD EQ PUSH2 0x289B JUMPI DUP9 DUP2 PUSH1 0x1 ADD DUP2 MLOAD DUP2 LT PUSH2 0x288E JUMPI PUSH2 0x288E PUSH2 0x3E50 JUMP JUMPDEST PUSH1 0x20 MUL PUSH1 0x20 ADD ADD MLOAD PUSH2 0x289D JUMP JUMPDEST DUP7 JUMPDEST SWAP4 POP PUSH1 0x0 DUP4 PUSH1 0x1 PUSH1 0x1 PUSH1 0xA0 SHL SUB AND PUSH4 0xB7D19FC4 PUSH1 0x40 MLOAD DUP2 PUSH4 0xFFFFFFFF AND PUSH1 0xE0 SHL DUP2 MSTORE PUSH1 0x4 ADD PUSH1 0x20 PUSH1 0x40 MLOAD DUP1 DUP4 SUB DUP2 DUP7 GAS STATICCALL ISZERO DUP1 ISZERO PUSH2 0x28DF JUMPI RETURNDATASIZE PUSH1 0x0 DUP1 RETURNDATACOPY RETURNDATASIZE PUSH1 0x0 REVERT JUMPDEST POP POP POP POP PUSH1 0x40 MLOAD RETURNDATASIZE PUSH1 0x1F NOT PUSH1 0x1F DUP3 ADD AND DUP3 ADD DUP1 PUSH1 0x40 MSTORE POP DUP2 ADD SWAP1 PUSH2 0x2903 SWAP2 SWAP1 PUSH2 0x3E33 JUMP JUMPDEST PUSH1 0x40 MLOAD PUSH4 0x29E02CD PUSH1 0xE5 SHL DUP2 MSTORE PUSH1 0x1 PUSH1 0x1 PUSH1 0xA0 SHL SUB SWAP2 DUP3 AND DUP6 DUP4 AND EQ PUSH1 0x4 DUP3 ADD DUP2 SWAP1 MSTORE DUP8 DUP4 AND PUSH1 0x24 DUP4 ADD MSTORE SWAP3 POP PUSH1 0x0 SWAP2 DUP3 SWAP2 SWAP1 DUP8 AND SWAP1 PUSH4 0x53C059A0 SWAP1 PUSH1 0x44 ADD PUSH1 0x40 DUP1 MLOAD DUP1 DUP4 SUB DUP2 PUSH1 0x0 DUP8 GAS CALL ISZERO DUP1 ISZERO PUSH2 0x2960 JUMPI RETURNDATASIZE PUSH1 0x0 DUP1 RETURNDATACOPY RETURNDATASIZE PUSH1 0x0 REVERT JUMPDEST POP POP POP POP PUSH1 0x40 MLOAD RETURNDATASIZE PUSH1 0x1F NOT PUSH1 0x1F DUP3 ADD AND DUP3 ADD DUP1 PUSH1 0x40 MSTORE POP DUP2 ADD SWAP1 PUSH2 0x2984 SWAP2 SWAP1 PUSH2 0x3EE8 JUMP JUMPDEST SWAP2 POP SWAP2 POP DUP3 ISZERO PUSH2 0x2996 JUMPI DUP1 SWAP9 POP PUSH2 0x299A JUMP JUMPDEST DUP2 SWAP9 POP JUMPDEST POP POP POP DUP1 PUSH1 0x1 ADD SWAP1 POP PUSH2 0x2827 JUMP JUMPDEST POP POP POP POP POP SWAP4 SWAP3 POP POP POP JUMP JUMPDEST PUSH1 0x0 PUSH3 0xFFFFFF DUP3 GT ISZERO PUSH2 0x29DA JUMPI PUSH1 0x40 MLOAD PUSH4 0x163D8BAB PUSH1 0xE2 SHL DUP2 MSTORE PUSH1 0x4 ADD PUSH1 0x40 MLOAD DUP1 SWAP2 SUB SWAP1 REVERT JUMPDEST PUSH3 0x7FFFFF NOT DUP3 ADD PUSH2 0x29FC PUSH17 0x100068DB8BAC710CB295E9E1B089A0275 DUP3 PUSH2 0x33FF JUMP JUMPDEST SWAP4 SWAP3 POP POP POP JUMP JUMPDEST PUSH1 0x0 PUSH2 0x2A10 DUP5 DUP5 DUP5 PUSH2 0x3323 JUMP JUMPDEST SWAP1 POP PUSH1 0x1 DUP3 SHL DUP1 PUSH2 0x2A23 JUMPI PUSH2 0x2A23 PUSH2 0x4094 JUMP JUMPDEST DUP4 DUP6 MULMOD ISZERO PUSH2 0x29FC JUMPI PUSH1 0x1 ADD SWAP4 SWAP3 POP POP POP JUMP JUMPDEST PUSH1 0x0 PUSH2 0x2A42 DUP5 DUP5 DUP5 PUSH2 0x33B2 JUMP JUMPDEST SWAP1 POP DUP2 DUP1 PUSH2 0x2A52 JUMPI PUSH2 0x2A52 PUSH2 0x4094 JUMP JUMPDEST PUSH1 0x1 DUP5 SHL DUP6 MULMOD ISZERO PUSH2 0x29FC JUMPI PUSH1 0x1 ADD SWAP4 SWAP3 POP POP POP JUMP JUMPDEST PUSH1 0x0 DUP1 PUSH2 0x2A7B DUP5 MLOAD PUSH1 0x1 PUSH1 0x1 PUSH1 0x80 SHL SUB AND SWAP1 JUMP JUMPDEST SWAP1 POP PUSH1 0x0 PUSH2 0x2A91 DUP3 PUSH8 0xDE0B6B3A7640000 PUSH2 0x3F3A JUMP JUMPDEST SWAP1 POP DUP1 PUSH1 0x1 DUP2 PUSH2 0x2AA1 DUP6 DUP9 PUSH2 0x40AA JUMP JUMPDEST PUSH2 0x2AAB SWAP2 SWAP1 PUSH2 0x3F22 JUMP JUMPDEST PUSH2 0x2AB5 SWAP2 SWAP1 PUSH2 0x3F3A JUMP JUMPDEST PUSH2 0x2ABF SWAP2 SWAP1 PUSH2 0x40C9 JUMP JUMPDEST SWAP6 SWAP5 POP POP POP POP POP JUMP JUMPDEST PUSH1 0x0 DUP1 PUSH1 0x0 DUP1 DUP6 PUSH1 0x0 DUP2 MLOAD DUP2 LT PUSH2 0x2AE1 JUMPI PUSH2 0x2AE1 PUSH2 0x3E50 JUMP JUMPDEST PUSH1 0x20 MUL PUSH1 0x20 ADD ADD MLOAD SWAP1 POP PUSH1 0x0 JUMPDEST DUP8 MLOAD DUP2 LT ISZERO PUSH2 0x2C56 JUMPI DUP8 DUP2 DUP2 MLOAD DUP2 LT PUSH2 0x2B09 JUMPI PUSH2 0x2B09 PUSH2 0x3E50 JUMP JUMPDEST PUSH1 0x20 MUL PUSH1 0x20 ADD ADD MLOAD SWAP3 POP DUP2 SWAP5 POP DUP7 DUP2 PUSH1 0x1 ADD DUP2 MLOAD DUP2 LT PUSH2 0x2B2B JUMPI PUSH2 0x2B2B PUSH2 0x3E50 JUMP JUMPDEST PUSH1 0x20 MUL PUSH1 0x20 ADD ADD MLOAD SWAP2 POP DUP8 MLOAD DUP2 PUSH1 0x1 ADD EQ PUSH2 0x2B62 JUMPI DUP8 DUP2 PUSH1 0x1 ADD DUP2 MLOAD DUP2 LT PUSH2 0x2B55 JUMPI PUSH2 0x2B55 PUSH2 0x3E50 JUMP JUMPDEST PUSH1 0x20 MUL PUSH1 0x20 ADD ADD MLOAD PUSH2 0x2B64 JUMP JUMPDEST DUP6 JUMPDEST SWAP4 POP DUP3 PUSH1 0x1 PUSH1 0x1 PUSH1 0xA0 SHL SUB AND PUSH4 0x53C059A0 DUP5 PUSH1 0x1 PUSH1 0x1 PUSH1 0xA0 SHL SUB AND PUSH4 0xB7D19FC4 PUSH1 0x40 MLOAD DUP2 PUSH4 0xFFFFFFFF AND PUSH1 0xE0 SHL DUP2 MSTORE PUSH1 0x4 ADD PUSH1 0x20 PUSH1 0x40 MLOAD DUP1 DUP4 SUB DUP2 DUP7 GAS STATICCALL ISZERO DUP1 ISZERO PUSH2 0x2BB3 JUMPI RETURNDATASIZE PUSH1 0x0 DUP1 RETURNDATACOPY RETURNDATASIZE PUSH1 0x0 REVERT JUMPDEST POP POP POP POP PUSH1 0x40 MLOAD RETURNDATASIZE PUSH1 0x1F NOT PUSH1 0x1F DUP3 ADD AND DUP3 ADD DUP1 PUSH1 0x40 MSTORE POP DUP2 ADD SWAP1 PUSH2 0x2BD7 SWAP2 SWAP1 PUSH2 0x3E33 JUMP JUMPDEST PUSH1 0x40 MLOAD PUSH1 0xE0 DUP4 SWAP1 SHL PUSH1 0x1 PUSH1 0x1 PUSH1 0xE0 SHL SUB NOT AND DUP2 MSTORE PUSH1 0x1 PUSH1 0x1 PUSH1 0xA0 SHL SUB SWAP2 DUP3 AND DUP7 DUP4 AND EQ PUSH1 0x4 DUP3 ADD MSTORE SWAP1 DUP8 AND PUSH1 0x24 DUP3 ADD MSTORE PUSH1 0x44 ADD PUSH1 0x40 DUP1 MLOAD DUP1 DUP4 SUB DUP2 PUSH1 0x0 DUP8 GAS CALL ISZERO DUP1 ISZERO PUSH2 0x2C28 JUMPI RETURNDATASIZE PUSH1 0x0 DUP1 RETURNDATACOPY RETURNDATASIZE PUSH1 0x0 REVERT JUMPDEST POP POP POP POP PUSH1 0x40 MLOAD RETURNDATASIZE PUSH1 0x1F NOT PUSH1 0x1F DUP3 ADD AND DUP3 ADD DUP1 PUSH1 0x40 MSTORE POP DUP2 ADD SWAP1 PUSH2 0x2C4C SWAP2 SWAP1 PUSH2 0x3EE8 JUMP JUMPDEST POP POP PUSH1 0x1 ADD PUSH2 0x2AEE JUMP JUMPDEST POP POP POP POP POP POP POP POP JUMP JUMPDEST DUP1 ISZERO PUSH2 0x1269 JUMPI PUSH1 0x40 DUP1 MLOAD PUSH1 0x1 PUSH1 0x1 PUSH1 0xA0 SHL SUB DUP5 AND PUSH1 0x24 DUP3 ADD MSTORE PUSH1 0x44 DUP1 DUP3 ADD DUP5 SWAP1 MSTORE DUP3 MLOAD DUP1 DUP4 SUB SWAP1 SWAP2 ADD DUP2 MSTORE PUSH1 0x64 SWAP1 SWAP2 ADD SWAP1 SWAP2 MSTORE PUSH1 0x20 DUP2 ADD DUP1 MLOAD PUSH1 0x1 PUSH1 0x1 PUSH1 0xE0 SHL SUB AND PUSH4 0xA9059CBB PUSH1 0xE0 SHL OR SWAP1 MSTORE PUSH1 0x0 PUSH2 0x2CB9 DUP6 DUP4 PUSH2 0x31BE JUMP JUMPDEST SWAP1 POP PUSH1 0x0 DUP2 MLOAD GT DUP1 ISZERO PUSH2 0x2CDD JUMPI POP DUP1 DUP1 PUSH1 0x20 ADD SWAP1 MLOAD DUP2 ADD SWAP1 PUSH2 0x2CDB SWAP2 SWAP1 PUSH2 0x3FA4 JUMP JUMPDEST ISZERO JUMPDEST ISZERO PUSH2 0x2CFB JUMPI PUSH1 0x40 MLOAD PUSH4 0x197138BD PUSH1 0xE1 SHL DUP2 MSTORE PUSH1 0x4 ADD PUSH1 0x40 MLOAD DUP1 SWAP2 SUB SWAP1 REVERT JUMPDEST POP POP POP POP POP JUMP JUMPDEST PUSH1 0x60 DUP1 DUP4 PUSH2 0x180 ADD CALLDATALOAD DUP1 TIMESTAMP GT ISZERO PUSH2 0x2D35 JUMPI PUSH1 0x40 MLOAD PUSH4 0xDAE7CA7D PUSH1 0xE0 SHL DUP2 MSTORE PUSH1 0x4 DUP2 ADD DUP3 SWAP1 MSTORE TIMESTAMP PUSH1 0x24 DUP3 ADD MSTORE PUSH1 0x44 ADD PUSH2 0x514 JUMP JUMPDEST PUSH2 0x2D43 PUSH2 0x120 DUP7 ADD DUP7 PUSH2 0x40EB JUMP JUMPDEST SWAP1 POP PUSH2 0x2D53 PUSH2 0x100 DUP8 ADD DUP8 PUSH2 0x40EB JUMP JUMPDEST SWAP1 POP EQ ISZERO DUP1 ISZERO PUSH2 0x2D81 JUMPI POP PUSH2 0x2D6C PUSH2 0x140 DUP7 ADD DUP7 PUSH2 0x40EB JUMP JUMPDEST SWAP1 POP PUSH2 0x2D7C PUSH2 0x100 DUP8 ADD DUP8 PUSH2 0x40EB JUMP JUMPDEST SWAP1 POP EQ ISZERO JUMPDEST ISZERO PUSH2 0x2D9F JUMPI PUSH1 0x40 MLOAD PUSH4 0xB91B4D4D PUSH1 0xE0 SHL DUP2 MSTORE PUSH1 0x4 ADD PUSH1 0x40 MLOAD DUP1 SWAP2 SUB SWAP1 REVERT JUMPDEST PUSH3 0xFFFFFF PUSH1 0xC0 DUP7 ADD CALLDATALOAD GT DUP1 PUSH2 0x2DBA JUMPI POP PUSH3 0xFFFFFF PUSH1 0xE0 DUP7 ADD CALLDATALOAD GT JUMPDEST ISZERO PUSH2 0x2DE8 JUMPI PUSH1 0x40 MLOAD PUSH4 0x197A55C7 PUSH1 0xE1 SHL DUP2 MSTORE PUSH1 0xC0 DUP7 ADD CALLDATALOAD PUSH1 0x4 DUP3 ADD MSTORE PUSH1 0xE0 DUP7 ADD CALLDATALOAD PUSH1 0x24 DUP3 ADD MSTORE PUSH1 0x44 ADD PUSH2 0x514 JUMP JUMPDEST PUSH1 0x0 DUP5 PUSH1 0x1 PUSH1 0x1 PUSH1 0xA0 SHL SUB AND PUSH4 0x1B05B83E PUSH1 0x40 MLOAD DUP2 PUSH4 0xFFFFFFFF AND PUSH1 0xE0 SHL DUP2 MSTORE PUSH1 0x4 ADD PUSH1 0x60 PUSH1 0x40 MLOAD DUP1 DUP4 SUB DUP2 DUP7 GAS STATICCALL ISZERO DUP1 ISZERO PUSH2 0x2E28 JUMPI RETURNDATASIZE PUSH1 0x0 DUP1 RETURNDATACOPY RETURNDATASIZE PUSH1 0x0 REVERT JUMPDEST POP POP POP POP PUSH1 0x40 MLOAD RETURNDATASIZE PUSH1 0x1F NOT PUSH1 0x1F DUP3 ADD AND DUP3 ADD DUP1 PUSH1 0x40 MSTORE POP DUP2 ADD SWAP1 PUSH2 0x2E4C SWAP2 SWAP1 PUSH2 0x3E66 JUMP JUMPDEST SWAP3 POP POP POP DUP1 DUP7 PUSH1 0xE0 ADD CALLDATALOAD DUP8 PUSH1 0xC0 ADD CALLDATALOAD ADD LT DUP1 PUSH2 0x2E71 JUMPI POP DUP6 PUSH1 0xC0 ADD CALLDATALOAD DUP7 PUSH1 0xE0 ADD CALLDATALOAD DUP3 ADD LT JUMPDEST ISZERO PUSH2 0x2EA6 JUMPI PUSH1 0x40 MLOAD PUSH4 0x7D50EDAB PUSH1 0xE1 SHL DUP2 MSTORE PUSH1 0xC0 DUP8 ADD CALLDATALOAD PUSH1 0x4 DUP3 ADD MSTORE PUSH1 0xE0 DUP8 ADD CALLDATALOAD PUSH1 0x24 DUP3 ADD MSTORE PUSH1 0x44 DUP2 ADD DUP3 SWAP1 MSTORE PUSH1 0x64 ADD PUSH2 0x514 JUMP JUMPDEST PUSH2 0x2EB4 PUSH2 0x100 DUP8 ADD DUP8 PUSH2 0x40EB JUMP JUMPDEST SWAP1 POP PUSH1 0x1 PUSH1 0x1 PUSH1 0x40 SHL SUB DUP2 GT ISZERO PUSH2 0x2ECD JUMPI PUSH2 0x2ECD PUSH2 0x393E JUMP JUMPDEST PUSH1 0x40 MLOAD SWAP1 DUP1 DUP3 MSTORE DUP1 PUSH1 0x20 MUL PUSH1 0x20 ADD DUP3 ADD PUSH1 0x40 MSTORE DUP1 ISZERO PUSH2 0x2EF6 JUMPI DUP2 PUSH1 0x20 ADD PUSH1 0x20 DUP3 MUL DUP1 CALLDATASIZE DUP4 CALLDATACOPY ADD SWAP1 POP JUMPDEST POP SWAP4 POP PUSH1 0x0 JUMPDEST DUP5 MLOAD DUP2 LT ISZERO PUSH2 0x2F89 JUMPI PUSH1 0x0 PUSH2 0x2F15 PUSH2 0x100 DUP10 ADD DUP10 PUSH2 0x40EB JUMP JUMPDEST DUP4 DUP2 DUP2 LT PUSH2 0x2F25 JUMPI PUSH2 0x2F25 PUSH2 0x3E50 JUMP JUMPDEST SWAP1 POP PUSH1 0x20 MUL ADD CALLDATALOAD DUP4 ADD SWAP1 POP PUSH1 0x0 DUP2 SLT DUP1 PUSH2 0x2F41 JUMPI POP PUSH3 0xFFFFFF DUP2 GT JUMPDEST ISZERO PUSH2 0x2F62 JUMPI PUSH1 0x40 MLOAD PUSH4 0x70A82E61 PUSH1 0xE1 SHL DUP2 MSTORE PUSH1 0x4 DUP2 ADD DUP3 SWAP1 MSTORE PUSH1 0x24 ADD PUSH2 0x514 JUMP JUMPDEST DUP1 DUP7 DUP4 DUP2 MLOAD DUP2 LT PUSH2 0x2F75 JUMPI PUSH2 0x2F75 PUSH2 0x3E50 JUMP JUMPDEST PUSH1 0x20 SWAP1 DUP2 MUL SWAP2 SWAP1 SWAP2 ADD ADD MSTORE POP PUSH1 0x1 ADD PUSH2 0x2EFC JUMP JUMPDEST POP PUSH1 0x0 DUP1 PUSH1 0x1 PUSH1 0x1 PUSH1 0xA0 SHL SUB DUP8 AND PUSH4 0x714C8592 DUP8 PUSH2 0x2FAB PUSH2 0x120 DUP13 ADD DUP13 PUSH2 0x40EB JUMP JUMPDEST PUSH2 0x2FB9 PUSH2 0x140 DUP15 ADD DUP15 PUSH2 0x40EB JUMP JUMPDEST DUP15 PUSH2 0x160 ADD PUSH1 0x20 DUP2 ADD SWAP1 PUSH2 0x2FCD SWAP2 SWAP1 PUSH2 0x3F87 JUMP JUMPDEST PUSH1 0x40 MLOAD DUP8 PUSH4 0xFFFFFFFF AND PUSH1 0xE0 SHL DUP2 MSTORE PUSH1 0x4 ADD PUSH2 0x2FEE SWAP7 SWAP6 SWAP5 SWAP4 SWAP3 SWAP2 SWAP1 PUSH2 0x4171 JUMP JUMPDEST PUSH1 0x0 PUSH1 0x40 MLOAD DUP1 DUP4 SUB DUP2 PUSH1 0x0 DUP8 GAS CALL ISZERO DUP1 ISZERO PUSH2 0x300D JUMPI RETURNDATASIZE PUSH1 0x0 DUP1 RETURNDATACOPY RETURNDATASIZE PUSH1 0x0 REVERT JUMPDEST POP POP POP POP PUSH1 0x40 MLOAD RETURNDATASIZE PUSH1 0x0 DUP3 RETURNDATACOPY PUSH1 0x1F RETURNDATASIZE SWAP1 DUP2 ADD PUSH1 0x1F NOT AND DUP3 ADD PUSH1 0x40 MSTORE PUSH2 0x3035 SWAP2 SWAP1 DUP2 ADD SWAP1 PUSH2 0x41C8 JUMP JUMPDEST SWAP7 POP SWAP1 SWAP3 POP SWAP1 POP PUSH1 0x80 DUP9 ADD CALLDATALOAD DUP3 LT DUP1 PUSH2 0x3051 JUMPI POP DUP8 PUSH1 0xA0 ADD CALLDATALOAD DUP2 LT JUMPDEST ISZERO PUSH2 0x308D JUMPI PUSH1 0x40 MLOAD PUSH4 0x18CCFB77 PUSH1 0xE1 SHL DUP2 MSTORE PUSH1 0x80 DUP10 ADD CALLDATALOAD PUSH1 0x4 DUP3 ADD MSTORE PUSH1 0x24 DUP2 ADD DUP4 SWAP1 MSTORE PUSH1 0xA0 DUP10 ADD CALLDATALOAD PUSH1 0x44 DUP3 ADD MSTORE PUSH1 0x64 DUP2 ADD DUP3 SWAP1 MSTORE PUSH1 0x84 ADD PUSH2 0x514 JUMP JUMPDEST POP POP POP POP SWAP3 POP SWAP3 SWAP1 POP JUMP JUMPDEST PUSH32 0x0 PUSH1 0x1 PUSH1 0x1 PUSH1 0xA0 SHL SUB AND PUSH4 0xD0E30DB0 DUP3 PUSH1 0x40 MLOAD DUP3 PUSH4 0xFFFFFFFF AND PUSH1 0xE0 SHL DUP2 MSTORE PUSH1 0x4 ADD PUSH1 0x0 PUSH1 0x40 MLOAD DUP1 DUP4 SUB DUP2 DUP6 DUP9 DUP1 EXTCODESIZE ISZERO DUP1 ISZERO PUSH2 0x30F3 JUMPI PUSH1 0x0 DUP1 REVERT JUMPDEST POP GAS CALL ISZERO DUP1 ISZERO PUSH2 0x3107 JUMPI RETURNDATASIZE PUSH1 0x0 DUP1 RETURNDATACOPY RETURNDATASIZE PUSH1 0x0 REVERT JUMPDEST POP PUSH2 0x3143 SWAP4 POP POP PUSH1 0x1 PUSH1 0x1 PUSH1 0xA0 SHL SUB PUSH32 0x0 AND SWAP2 POP DUP5 SWAP1 POP DUP4 PUSH2 0x2C60 JUMP JUMPDEST POP POP JUMP JUMPDEST PUSH1 0x0 PUSH17 0x100068DB8BAC710CB295E9E1B089A0275 DUP2 PUSH2 0x3165 DUP3 PUSH2 0x3658 JUMP JUMPDEST PUSH2 0x316E DUP6 PUSH2 0x3658 JUMP JUMPDEST DUP2 PUSH2 0x317B JUMPI PUSH2 0x317B PUSH2 0x4094 JUMP JUMPDEST SDIV PUSH3 0x800000 ADD SWAP1 POP PUSH1 0x0 DUP2 SLT DUP1 PUSH2 0x3194 JUMPI POP PUSH3 0xFFFFFF DUP2 GT JUMPDEST ISZERO PUSH2 0x29FC JUMPI PUSH1 0x40 MLOAD PUSH4 0x163D8BAB PUSH1 0xE2 SHL DUP2 MSTORE PUSH1 0x4 ADD PUSH1 0x40 MLOAD DUP1 SWAP2 SUB SWAP1 REVERT JUMPDEST PUSH1 0x0 PUSH2 0x29FC DUP4 DUP4 PUSH2 0x2494 JUMP JUMPDEST PUSH1 0x60 PUSH1 0x0 DUP1 DUP5 PUSH1 0x1 PUSH1 0x1 PUSH1 0xA0 SHL SUB AND DUP5 PUSH1 0x40 MLOAD PUSH2 0x31DB SWAP2 SWAP1 PUSH2 0x426D JUMP JUMPDEST PUSH1 0x0 PUSH1 0x40 MLOAD DUP1 DUP4 SUB DUP2 PUSH1 0x0 DUP7 GAS CALL SWAP2 POP POP RETURNDATASIZE DUP1 PUSH1 0x0 DUP2 EQ PUSH2 0x3218 JUMPI PUSH1 0x40 MLOAD SWAP2 POP PUSH1 0x1F NOT PUSH1 0x3F RETURNDATASIZE ADD AND DUP3 ADD PUSH1 0x40 MSTORE RETURNDATASIZE DUP3 MSTORE RETURNDATASIZE PUSH1 0x0 PUSH1 0x20 DUP5 ADD RETURNDATACOPY PUSH2 0x321D JUMP JUMPDEST PUSH1 0x60 SWAP2 POP JUMPDEST POP SWAP2 POP SWAP2 POP DUP2 ISZERO PUSH2 0x3262 JUMPI DUP1 MLOAD ISZERO DUP1 ISZERO PUSH2 0x323F JUMPI POP PUSH1 0x1 PUSH1 0x1 PUSH1 0xA0 SHL SUB DUP6 AND EXTCODESIZE ISZERO JUMPDEST ISZERO PUSH2 0x325D JUMPI PUSH1 0x40 MLOAD PUSH4 0x5D97DF89 PUSH1 0xE0 SHL DUP2 MSTORE PUSH1 0x4 ADD PUSH1 0x40 MLOAD DUP1 SWAP2 SUB SWAP1 REVERT JUMPDEST PUSH2 0x4E3 JUMP JUMPDEST DUP1 MLOAD PUSH2 0x3281 JUMPI PUSH1 0x40 MLOAD PUSH4 0x24074291 PUSH1 0xE0 SHL DUP2 MSTORE PUSH1 0x4 ADD PUSH1 0x40 MLOAD DUP1 SWAP2 SUB SWAP1 REVERT JUMPDEST DUP1 MLOAD DUP2 PUSH1 0x20 ADD REVERT JUMPDEST PUSH1 0x0 PUSH8 0xDE0B6B3A7640000 PUSH1 0x1 PUSH8 0xDE0B6B3A7640000 PUSH2 0x32B0 DUP7 MLOAD PUSH1 0x1 PUSH1 0x1 PUSH1 0x80 SHL SUB AND SWAP1 JUMP JUMPDEST PUSH2 0x32BA SWAP1 DUP7 PUSH2 0x40AA JUMP JUMPDEST PUSH2 0x32C4 SWAP2 SWAP1 PUSH2 0x3F22 JUMP JUMPDEST PUSH2 0x32CE SWAP2 SWAP1 PUSH2 0x3F3A JUMP JUMPDEST PUSH2 0x29FC SWAP2 SWAP1 PUSH2 0x40C9 JUMP JUMPDEST PUSH1 0x40 DUP1 MLOAD DUP1 DUP3 ADD SWAP1 SWAP2 MSTORE PUSH1 0x0 DUP1 DUP3 MSTORE PUSH1 0x20 DUP3 ADD MSTORE PUSH2 0x32F5 DUP3 PUSH2 0x3732 JUMP JUMPDEST PUSH1 0x1 PUSH1 0x1 PUSH1 0x80 SHL SUB SWAP1 DUP2 AND DUP3 MSTORE PUSH1 0x20 DUP5 ADD MLOAD PUSH2 0x2710 SWAP2 AND DUP4 MUL DIV PUSH1 0x1 PUSH1 0x1 PUSH1 0x80 SHL SUB AND PUSH1 0x20 DUP3 ADD MSTORE SWAP3 SWAP2 POP POP JUMP JUMPDEST PUSH1 0x0 PUSH1 0xFF DUP3 GT ISZERO PUSH2 0x334A JUMPI PUSH1 0x40 MLOAD PUSH4 0xB72ECF5 PUSH1 0xE4 SHL DUP2 MSTORE PUSH1 0x4 DUP2 ADD DUP4 SWAP1 MSTORE PUSH1 0x24 ADD PUSH2 0x514 JUMP JUMPDEST PUSH1 0x0 DUP1 PUSH2 0x3357 DUP7 DUP7 PUSH2 0x3764 JUMP JUMPDEST SWAP2 POP SWAP2 POP DUP2 PUSH1 0x0 EQ PUSH2 0x3369 JUMPI DUP2 DUP5 SHR SWAP3 POP JUMPDEST DUP1 ISZERO PUSH2 0x33A9 JUMPI PUSH1 0x1 DUP5 SHL DUP2 LT PUSH2 0x339C JUMPI PUSH1 0x40 MLOAD PUSH4 0x3D90990F PUSH1 0xE0 SHL DUP2 MSTORE PUSH1 0x4 DUP2 ADD DUP3 SWAP1 MSTORE PUSH1 0x24 DUP2 ADD DUP6 SWAP1 MSTORE PUSH1 0x44 ADD PUSH2 0x514 JUMP JUMPDEST DUP4 PUSH2 0x100 SUB DUP2 SWAP1 SHL DUP4 ADD SWAP3 POP JUMPDEST POP POP SWAP4 SWAP3 POP POP POP JUMP JUMPDEST PUSH1 0x0 PUSH1 0xFF DUP4 GT ISZERO PUSH2 0x33D9 JUMPI PUSH1 0x40 MLOAD PUSH4 0xB72ECF5 PUSH1 0xE4 SHL DUP2 MSTORE PUSH1 0x4 DUP2 ADD DUP5 SWAP1 MSTORE PUSH1 0x24 ADD PUSH2 0x514 JUMP JUMPDEST DUP4 DUP4 SHL PUSH2 0x100 DUP5 SWAP1 SUB DUP6 SWAP1 SHR PUSH2 0x33F5 DUP7 PUSH1 0x1 DUP8 SHL DUP7 DUP6 DUP6 PUSH2 0x3783 JUMP JUMPDEST SWAP7 SWAP6 POP POP POP POP POP POP JUMP JUMPDEST PUSH1 0x0 DUP1 DUP1 DUP4 PUSH2 0x3417 JUMPI POP PUSH1 0x1 PUSH1 0x80 SHL SWAP2 POP PUSH2 0xC9E SWAP1 POP JUMP JUMPDEST POP DUP3 PUSH1 0x0 DUP2 SLT ISZERO PUSH2 0x3429 JUMPI SWAP1 ISZERO SWAP1 PUSH1 0x0 SUB JUMPDEST PUSH3 0x100000 DUP2 LT ISZERO PUSH2 0x3619 JUMPI PUSH1 0x1 PUSH1 0x80 SHL SWAP3 POP DUP5 PUSH1 0x1 PUSH1 0x1 PUSH1 0x80 SHL SUB DUP2 GT ISZERO PUSH2 0x3453 JUMPI SWAP2 ISZERO SWAP2 PUSH1 0x0 NOT DIV JUMPDEST PUSH1 0x1 DUP3 AND ISZERO PUSH2 0x3464 JUMPI SWAP3 DUP4 MUL PUSH1 0x80 SHR SWAP3 JUMPDEST DUP1 MUL PUSH1 0x80 SHR PUSH1 0x2 DUP3 AND ISZERO PUSH2 0x347A JUMPI SWAP3 DUP4 MUL PUSH1 0x80 SHR SWAP3 JUMPDEST DUP1 MUL PUSH1 0x80 SHR PUSH1 0x4 DUP3 AND ISZERO PUSH2 0x3490 JUMPI SWAP3 DUP4 MUL PUSH1 0x80 SHR SWAP3 JUMPDEST DUP1 MUL PUSH1 0x80 SHR PUSH1 0x8 DUP3 AND ISZERO PUSH2 0x34A6 JUMPI SWAP3 DUP4 MUL PUSH1 0x80 SHR SWAP3 JUMPDEST DUP1 MUL PUSH1 0x80 SHR PUSH1 0x10 DUP3 AND ISZERO PUSH2 0x34BC JUMPI SWAP3 DUP4 MUL PUSH1 0x80 SHR SWAP3 JUMPDEST DUP1 MUL PUSH1 0x80 SHR PUSH1 0x20 DUP3 AND ISZERO PUSH2 0x34D2 JUMPI SWAP3 DUP4 MUL PUSH1 0x80 SHR SWAP3 JUMPDEST DUP1 MUL PUSH1 0x80 SHR PUSH1 0x40 DUP3 AND ISZERO PUSH2 0x34E8 JUMPI SWAP3 DUP4 MUL PUSH1 0x80 SHR SWAP3 JUMPDEST DUP1 MUL PUSH1 0x80 SWAP1 DUP2 SHR SWAP1 DUP3 AND ISZERO PUSH2 0x34FF JUMPI SWAP3 DUP4 MUL PUSH1 0x80 SHR SWAP3 JUMPDEST DUP1 MUL PUSH1 0x80 SHR PUSH2 0x100 DUP3 AND ISZERO PUSH2 0x3516 JUMPI SWAP3 DUP4 MUL PUSH1 0x80 SHR SWAP3 JUMPDEST DUP1 MUL PUSH1 0x80 SHR PUSH2 0x200 DUP3 AND ISZERO PUSH2 0x352D JUMPI SWAP3 DUP4 MUL PUSH1 0x80 SHR SWAP3 JUMPDEST DUP1 MUL PUSH1 0x80 SHR PUSH2 0x400 DUP3 AND ISZERO PUSH2 0x3544 JUMPI SWAP3 DUP4 MUL PUSH1 0x80 SHR SWAP3 JUMPDEST DUP1 MUL PUSH1 0x80 SHR PUSH2 0x800 DUP3 AND ISZERO PUSH2 0x355B JUMPI SWAP3 DUP4 MUL PUSH1 0x80 SHR SWAP3 JUMPDEST DUP1 MUL PUSH1 0x80 SHR PUSH2 0x1000 DUP3 AND ISZERO PUSH2 0x3572 JUMPI SWAP3 DUP4 MUL PUSH1 0x80 SHR SWAP3 JUMPDEST DUP1 MUL PUSH1 0x80 SHR PUSH2 0x2000 DUP3 AND ISZERO PUSH2 0x3589 JUMPI SWAP3 DUP4 MUL PUSH1 0x80 SHR SWAP3 JUMPDEST DUP1 MUL PUSH1 0x80 SHR PUSH2 0x4000 DUP3 AND ISZERO PUSH2 0x35A0 JUMPI SWAP3 DUP4 MUL PUSH1 0x80 SHR SWAP3 JUMPDEST DUP1 MUL PUSH1 0x80 SHR PUSH2 0x8000 DUP3 AND ISZERO PUSH2 0x35B7 JUMPI SWAP3 DUP4 MUL PUSH1 0x80 SHR SWAP3 JUMPDEST DUP1 MUL PUSH1 0x80 SHR PUSH3 0x10000 DUP3 AND ISZERO PUSH2 0x35CF JUMPI SWAP3 DUP4 MUL PUSH1 0x80 SHR SWAP3 JUMPDEST DUP1 MUL PUSH1 0x80 SHR PUSH3 0x20000 DUP3 AND ISZERO PUSH2 0x35E7 JUMPI SWAP3 DUP4 MUL PUSH1 0x80 SHR SWAP3 JUMPDEST DUP1 MUL PUSH1 0x80 SHR PUSH3 0x40000 DUP3 AND ISZERO PUSH2 0x35FF JUMPI SWAP3 DUP4 MUL PUSH1 0x80 SHR SWAP3 JUMPDEST DUP1 MUL PUSH1 0x80 SHR PUSH3 0x80000 DUP3 AND ISZERO PUSH2 0x3617 JUMPI SWAP3 DUP4 MUL PUSH1 0x80 SHR SWAP3 JUMPDEST POP JUMPDEST DUP3 PUSH2 0x3641 JUMPI PUSH1 0x40 MLOAD PUSH4 0xE9C7D61 PUSH1 0xE3 SHL DUP2 MSTORE PUSH1 0x4 DUP2 ADD DUP7 SWAP1 MSTORE PUSH1 0x24 DUP2 ADD DUP6 SWAP1 MSTORE PUSH1 0x44 ADD PUSH2 0x514 JUMP JUMPDEST DUP2 PUSH2 0x364C JUMPI DUP3 PUSH2 0x2ABF JUMP JUMPDEST PUSH2 0x2ABF DUP4 PUSH1 0x0 NOT PUSH2 0x40C9 JUMP JUMPDEST PUSH1 0x0 DUP2 PUSH1 0x1 EQ ISZERO PUSH2 0x366C JUMPI POP PUSH1 0x7F NOT SWAP2 SWAP1 POP JUMP JUMPDEST DUP2 PUSH2 0x368A JUMPI PUSH1 0x40 MLOAD PUSH4 0x4C9FCB9 PUSH1 0xE0 SHL DUP2 MSTORE PUSH1 0x4 ADD PUSH1 0x40 MLOAD DUP1 SWAP2 SUB SWAP1 REVERT JUMPDEST PUSH1 0x1 SWAP2 SWAP1 SWAP2 SHR SWAP1 PUSH1 0x0 PUSH1 0x1 PUSH1 0x7F SHL DUP4 LT PUSH2 0x36A6 JUMPI POP PUSH1 0x1 PUSH2 0x36C1 JUMP JUMPDEST POP PUSH1 0x0 NOT DUP3 PUSH1 0x1 PUSH1 0xFE SHL DUP2 PUSH2 0x36BD JUMPI PUSH2 0x36BD PUSH2 0x4094 JUMP JUMPDEST DIV SWAP3 POP JUMPDEST PUSH1 0x0 PUSH2 0x36D0 PUSH1 0x7F DUP6 SWAP1 SHR PUSH2 0x3836 JUMP JUMPDEST PUSH1 0xFF PUSH1 0x7F SHL PUSH1 0x7F DUP3 SWAP1 SHL AND SWAP4 POP PUSH1 0xFF AND SWAP1 POP DUP4 DUP2 SHR PUSH1 0x1 PUSH1 0x7F SHL DUP2 EQ PUSH2 0x3727 JUMPI PUSH1 0x1 PUSH1 0x7E SHL JUMPDEST PUSH1 0x0 DUP2 SGT ISZERO PUSH2 0x3725 JUMPI SWAP1 DUP1 MUL PUSH1 0x7F SHR SWAP1 PUSH1 0x1 PUSH1 0x80 SHL DUP3 LT PUSH2 0x371D JUMPI SWAP4 DUP5 ADD SWAP4 PUSH1 0x1 SWAP2 SWAP1 SWAP2 SHR SWAP1 JUMPDEST PUSH1 0x1 SAR PUSH2 0x36F6 JUMP JUMPDEST POP JUMPDEST POP POP MUL PUSH1 0x1 SHL SWAP2 SWAP1 POP JUMP JUMPDEST DUP1 PUSH1 0x1 PUSH1 0x1 PUSH1 0x80 SHL SUB DUP2 AND DUP2 EQ PUSH2 0x375F JUMPI PUSH1 0x40 MLOAD PUSH4 0x89F6CFB PUSH1 0xE2 SHL DUP2 MSTORE PUSH1 0x4 DUP2 ADD DUP4 SWAP1 MSTORE PUSH1 0x24 ADD PUSH2 0x514 JUMP JUMPDEST SWAP2 SWAP1 POP JUMP JUMPDEST PUSH1 0x0 DUP1 PUSH1 0x0 NOT DUP4 DUP6 MULMOD DUP4 DUP6 MUL SWAP3 POP DUP3 DUP2 LT DUP4 DUP3 SUB SUB SWAP2 POP POP SWAP3 POP SWAP3 SWAP1 POP JUMP JUMPDEST PUSH1 0x0 DUP2 PUSH2 0x37A1 JUMPI DUP4 DUP4 DUP2 PUSH2 0x3799 JUMPI PUSH2 0x3799 PUSH2 0x4094 JUMP JUMPDEST DIV SWAP1 POP PUSH2 0x2ABF JUMP JUMPDEST DUP4 DUP3 LT PUSH2 0x37CB JUMPI PUSH1 0x40 MLOAD PUSH4 0x656B542B PUSH1 0xE1 SHL DUP2 MSTORE PUSH1 0x4 DUP2 ADD DUP4 SWAP1 MSTORE PUSH1 0x24 DUP2 ADD DUP6 SWAP1 MSTORE PUSH1 0x44 ADD PUSH2 0x514 JUMP JUMPDEST PUSH1 0x0 DUP5 DUP7 DUP9 MULMOD PUSH1 0x1 DUP7 NOT DUP2 ADD DUP8 AND PUSH1 0x0 DUP2 SWAP1 SUB DUP2 SWAP1 DIV SWAP1 SWAP2 ADD DUP7 DUP4 GT SWAP1 SWAP6 SUB SWAP5 SWAP1 SWAP5 MUL SWAP5 SUB DUP4 SWAP1 DIV SWAP4 SWAP1 SWAP4 OR PUSH1 0x2 SWAP3 SWAP1 SWAP5 DIV PUSH1 0x3 DUP2 MUL DUP4 XOR DUP1 DUP3 MUL DUP5 SUB MUL DUP1 DUP3 MUL DUP5 SUB MUL DUP1 DUP3 MUL DUP5 SUB MUL DUP1 DUP3 MUL DUP5 SUB MUL DUP1 DUP3 MUL DUP5 SUB MUL SWAP1 DUP2 MUL SWAP1 SWAP3 SUB SWAP1 SWAP2 MUL SWAP3 SWAP1 SWAP3 MUL SWAP5 SWAP4 POP POP POP POP JUMP JUMPDEST PUSH1 0x0 PUSH1 0x1 PUSH1 0x80 SHL DUP3 LT PUSH2 0x384B JUMPI POP PUSH1 0x80 SWAP1 DUP2 SHR SWAP1 JUMPDEST PUSH9 0x10000000000000000 DUP3 LT PUSH2 0x3863 JUMPI PUSH1 0x40 SWAP2 DUP3 SHR SWAP2 ADD JUMPDEST PUSH5 0x100000000 DUP3 LT PUSH2 0x3877 JUMPI PUSH1 0x20 SWAP2 DUP3 SHR SWAP2 ADD JUMPDEST PUSH3 0x10000 DUP3 LT PUSH2 0x3889 JUMPI PUSH1 0x10 SWAP2 DUP3 SHR SWAP2 ADD JUMPDEST PUSH2 0x100 DUP3 LT PUSH2 0x389A JUMPI PUSH1 0x8 SWAP2 DUP3 SHR SWAP2 ADD JUMPDEST PUSH1 0x10 DUP3 LT PUSH2 0x38AA JUMPI PUSH1 0x4 SWAP2 DUP3 SHR SWAP2 ADD JUMPDEST PUSH1 0x4 DUP3 LT PUSH2 0x38BA JUMPI PUSH1 0x2 SWAP2 DUP3 SHR SWAP2 ADD JUMPDEST PUSH1 0x2 DUP3 LT PUSH2 0x375F JUMPI PUSH1 0x1 ADD SWAP2 SWAP1 POP JUMP JUMPDEST PUSH1 0x1 PUSH1 0x1 PUSH1 0xA0 SHL SUB DUP2 AND DUP2 EQ PUSH2 0x38DF JUMPI PUSH1 0x0 DUP1 REVERT JUMPDEST POP JUMP JUMPDEST PUSH3 0xFFFFFF DUP2 AND DUP2 EQ PUSH2 0x38DF JUMPI PUSH1 0x0 DUP1 REVERT JUMPDEST PUSH1 0x0 DUP1 PUSH1 0x0 PUSH1 0x60 DUP5 DUP7 SUB SLT ISZERO PUSH2 0x3908 JUMPI PUSH1 0x0 DUP1 REVERT JUMPDEST DUP4 CALLDATALOAD PUSH2 0x3913 DUP2 PUSH2 0x38CA JUMP JUMPDEST SWAP3 POP PUSH1 0x20 DUP5 ADD CALLDATALOAD PUSH2 0x3923 DUP2 PUSH2 0x38CA JUMP JUMPDEST SWAP2 POP PUSH1 0x40 DUP5 ADD CALLDATALOAD PUSH2 0x3933 DUP2 PUSH2 0x38E2 JUMP JUMPDEST DUP1 SWAP2 POP POP SWAP3 POP SWAP3 POP SWAP3 JUMP JUMPDEST PUSH4 0x4E487B71 PUSH1 0xE0 SHL PUSH1 0x0 MSTORE PUSH1 0x41 PUSH1 0x4 MSTORE PUSH1 0x24 PUSH1 0x0 REVERT JUMPDEST PUSH1 0x40 DUP1 MLOAD SWAP1 DUP2 ADD PUSH1 0x1 PUSH1 0x1 PUSH1 0x40 SHL SUB DUP2 GT DUP3 DUP3 LT OR ISZERO PUSH2 0x3976 JUMPI PUSH2 0x3976 PUSH2 0x393E JUMP JUMPDEST PUSH1 0x40 MSTORE SWAP1 JUMP JUMPDEST PUSH1 0x40 MLOAD PUSH1 0x1F DUP3 ADD PUSH1 0x1F NOT AND DUP2 ADD PUSH1 0x1 PUSH1 0x1 PUSH1 0x40 SHL SUB DUP2 GT DUP3 DUP3 LT OR ISZERO PUSH2 0x39A4 JUMPI PUSH2 0x39A4 PUSH2 0x393E JUMP JUMPDEST PUSH1 0x40 MSTORE SWAP2 SWAP1 POP JUMP JUMPDEST PUSH1 0x0 PUSH1 0x1 PUSH1 0x1 PUSH1 0x40 SHL SUB DUP3 GT ISZERO PUSH2 0x39C5 JUMPI PUSH2 0x39C5 PUSH2 0x393E JUMP JUMPDEST POP PUSH1 0x5 SHL PUSH1 0x20 ADD SWAP1 JUMP JUMPDEST PUSH1 0x0 DUP3 PUSH1 0x1F DUP4 ADD SLT PUSH2 0x39E0 JUMPI PUSH1 0x0 DUP1 REVERT JUMPDEST DUP2 CALLDATALOAD PUSH1 0x20 PUSH2 0x39F5 PUSH2 0x39F0 DUP4 PUSH2 0x39AC JUMP JUMPDEST PUSH2 0x397C JUMP JUMPDEST DUP3 DUP2 MSTORE PUSH1 0x5 SWAP3 SWAP1 SWAP3 SHL DUP5 ADD DUP2 ADD SWAP2 DUP2 DUP2 ADD SWAP1 DUP7 DUP5 GT ISZERO PUSH2 0x3A14 JUMPI PUSH1 0x0 DUP1 REVERT JUMPDEST DUP3 DUP7 ADD JUMPDEST DUP5 DUP2 LT ISZERO PUSH2 0x3A38 JUMPI DUP1 CALLDATALOAD PUSH2 0x3A2B DUP2 PUSH2 0x38CA JUMP JUMPDEST DUP4 MSTORE SWAP2 DUP4 ADD SWAP2 DUP4 ADD PUSH2 0x3A18 JUMP JUMPDEST POP SWAP7 SWAP6 POP POP POP POP POP POP JUMP JUMPDEST PUSH1 0x0 DUP1 PUSH1 0x0 DUP1 PUSH1 0x0 PUSH1 0xA0 DUP7 DUP9 SUB SLT ISZERO PUSH2 0x3A5B JUMPI PUSH1 0x0 DUP1 REVERT JUMPDEST DUP6 CALLDATALOAD SWAP5 POP PUSH1 0x20 DUP7 ADD CALLDATALOAD SWAP4 POP PUSH1 0x40 DUP7 ADD CALLDATALOAD PUSH1 0x1 PUSH1 0x1 PUSH1 0x40 SHL SUB DUP2 GT ISZERO PUSH2 0x3A7F JUMPI PUSH1 0x0 DUP1 REVERT JUMPDEST PUSH2 0x3A8B DUP9 DUP3 DUP10 ADD PUSH2 0x39CF JUMP JUMPDEST SWAP4 POP POP PUSH1 0x60 DUP7 ADD CALLDATALOAD PUSH2 0x3A9C DUP2 PUSH2 0x38CA JUMP JUMPDEST SWAP5 SWAP8 SWAP4 SWAP7 POP SWAP2 SWAP5 PUSH1 0x80 ADD CALLDATALOAD SWAP3 SWAP2 POP POP JUMP JUMPDEST DUP1 ISZERO ISZERO DUP2 EQ PUSH2 0x38DF JUMPI PUSH1 0x0 DUP1 REVERT JUMPDEST PUSH1 0x0 DUP1 PUSH1 0x0 PUSH1 0x60 DUP5 DUP7 SUB SLT ISZERO PUSH2 0x3AD0 JUMPI PUSH1 0x0 DUP1 REVERT JUMPDEST DUP4 CALLDATALOAD PUSH2 0x3ADB DUP2 PUSH2 0x38CA JUMP JUMPDEST SWAP3 POP PUSH1 0x20 DUP5 ADD CALLDATALOAD SWAP2 POP PUSH1 0x40 DUP5 ADD CALLDATALOAD PUSH2 0x3933 DUP2 PUSH2 0x3AAD JUMP JUMPDEST PUSH1 0x0 DUP3 PUSH1 0x1F DUP4 ADD SLT PUSH2 0x3B03 JUMPI PUSH1 0x0 DUP1 REVERT JUMPDEST DUP2 CALLDATALOAD PUSH1 0x20 PUSH2 0x3B13 PUSH2 0x39F0 DUP4 PUSH2 0x39AC JUMP JUMPDEST DUP3 DUP2 MSTORE PUSH1 0x5 SWAP3 SWAP1 SWAP3 SHL DUP5 ADD DUP2 ADD SWAP2 DUP2 DUP2 ADD SWAP1 DUP7 DUP5 GT ISZERO PUSH2 0x3B32 JUMPI PUSH1 0x0 DUP1 REVERT JUMPDEST DUP3 DUP7 ADD JUMPDEST DUP5 DUP2 LT ISZERO PUSH2 0x3A38 JUMPI DUP1 CALLDATALOAD DUP4 MSTORE SWAP2 DUP4 ADD SWAP2 DUP4 ADD PUSH2 0x3B36 JUMP JUMPDEST PUSH1 0x0 DUP1 PUSH1 0x0 DUP1 PUSH1 0x0 DUP1 PUSH1 0x0 DUP1 PUSH2 0x100 DUP10 DUP12 SUB SLT ISZERO PUSH2 0x3B6A JUMPI PUSH1 0x0 DUP1 REVERT JUMPDEST DUP9 CALLDATALOAD PUSH2 0x3B75 DUP2 PUSH2 0x38CA JUMP JUMPDEST SWAP8 POP PUSH1 0x20 DUP10 ADD CALLDATALOAD PUSH2 0x3B85 DUP2 PUSH2 0x38CA JUMP JUMPDEST SWAP7 POP PUSH1 0x40 DUP10 ADD CALLDATALOAD SWAP6 POP PUSH1 0x60 DUP10 ADD CALLDATALOAD SWAP5 POP PUSH1 0x80 DUP10 ADD CALLDATALOAD PUSH1 0x1 PUSH1 0x1 PUSH1 0x40 SHL SUB DUP1 DUP3 GT ISZERO PUSH2 0x3BAF JUMPI PUSH1 0x0 DUP1 REVERT JUMPDEST PUSH2 0x3BBB DUP13 DUP4 DUP14 ADD PUSH2 0x3AF2 JUMP JUMPDEST SWAP6 POP PUSH1 0xA0 DUP12 ADD CALLDATALOAD SWAP2 POP DUP1 DUP3 GT ISZERO PUSH2 0x3BD1 JUMPI PUSH1 0x0 DUP1 REVERT JUMPDEST POP PUSH2 0x3BDE DUP12 DUP3 DUP13 ADD PUSH2 0x3AF2 JUMP JUMPDEST SWAP4 POP POP PUSH1 0xC0 DUP10 ADD CALLDATALOAD PUSH2 0x3BEF DUP2 PUSH2 0x38CA JUMP JUMPDEST DUP1 SWAP3 POP POP PUSH1 0xE0 DUP10 ADD CALLDATALOAD SWAP1 POP SWAP3 SWAP6 SWAP9 POP SWAP3 SWAP6 SWAP9 SWAP1 SWAP4 SWAP7 POP JUMP JUMPDEST PUSH1 0x0 DUP2 MLOAD DUP1 DUP5 MSTORE PUSH1 0x20 DUP1 DUP6 ADD SWAP5 POP DUP1 DUP5 ADD PUSH1 0x0 JUMPDEST DUP4 DUP2 LT ISZERO PUSH2 0x3C37 JUMPI DUP2 MLOAD DUP8 MSTORE SWAP6 DUP3 ADD SWAP6 SWAP1 DUP3 ADD SWAP1 PUSH1 0x1 ADD PUSH2 0x3C1B JUMP JUMPDEST POP SWAP5 SWAP6 SWAP5 POP POP POP POP POP JUMP JUMPDEST PUSH1 0x20 DUP2 MSTORE PUSH1 0x0 PUSH2 0x29FC PUSH1 0x20 DUP4 ADD DUP5 PUSH2 0x3C07 JUMP JUMPDEST PUSH1 0x0 PUSH1 0x20 DUP3 DUP5 SUB SLT ISZERO PUSH2 0x3C67 JUMPI PUSH1 0x0 DUP1 REVERT JUMPDEST DUP2 CALLDATALOAD PUSH2 0x29FC DUP2 PUSH2 0x38E2 JUMP JUMPDEST PUSH1 0x0 DUP1 PUSH1 0x0 PUSH1 0x60 DUP5 DUP7 SUB SLT ISZERO PUSH2 0x3C87 JUMPI PUSH1 0x0 DUP1 REVERT JUMPDEST DUP4 CALLDATALOAD PUSH2 0x3C92 DUP2 PUSH2 0x38CA JUMP JUMPDEST SWAP3 POP PUSH1 0x20 DUP5 ADD CALLDATALOAD PUSH2 0x3CA2 DUP2 PUSH2 0x38CA JUMP JUMPDEST SWAP3 SWAP6 SWAP3 SWAP5 POP POP POP PUSH1 0x40 SWAP2 SWAP1 SWAP2 ADD CALLDATALOAD SWAP1 JUMP JUMPDEST PUSH1 0x0 PUSH1 0x20 DUP3 DUP5 SUB SLT ISZERO PUSH2 0x3CC5 JUMPI PUSH1 0x0 DUP1 REVERT JUMPDEST DUP2 CALLDATALOAD PUSH1 0x1 PUSH1 0x1 PUSH1 0x40 SHL SUB DUP2 GT ISZERO PUSH2 0x3CDB JUMPI PUSH1 0x0 DUP1 REVERT JUMPDEST DUP3 ADD PUSH2 0x1A0 DUP2 DUP6 SUB SLT ISZERO PUSH2 0x29FC JUMPI PUSH1 0x0 DUP1 REVERT JUMPDEST PUSH1 0x40 DUP2 MSTORE PUSH1 0x0 PUSH2 0x3D01 PUSH1 0x40 DUP4 ADD DUP6 PUSH2 0x3C07 JUMP JUMPDEST DUP3 DUP2 SUB PUSH1 0x20 DUP5 ADD MSTORE PUSH2 0x2ABF DUP2 DUP6 PUSH2 0x3C07 JUMP JUMPDEST PUSH1 0x0 DUP1 PUSH1 0x0 DUP1 PUSH1 0x80 DUP6 DUP8 SUB SLT ISZERO PUSH2 0x3D29 JUMPI PUSH1 0x0 DUP1 REVERT JUMPDEST DUP5 CALLDATALOAD SWAP4 POP PUSH1 0x20 DUP6 ADD CALLDATALOAD PUSH1 0x1 PUSH1 0x1 PUSH1 0x40 SHL SUB DUP2 GT ISZERO PUSH2 0x3D46 JUMPI PUSH1 0x0 DUP1 REVERT JUMPDEST PUSH2 0x3D52 DUP8 DUP3 DUP9 ADD PUSH2 0x39CF JUMP JUMPDEST SWAP4 POP POP PUSH1 0x40 DUP6 ADD CALLDATALOAD PUSH2 0x3D63 DUP2 PUSH2 0x38CA JUMP JUMPDEST SWAP4 SWAP7 SWAP3 SWAP6 POP SWAP3 SWAP4 PUSH1 0x60 ADD CALLDATALOAD SWAP3 POP POP JUMP JUMPDEST PUSH1 0x0 DUP1 PUSH1 0x0 DUP1 PUSH1 0x0 DUP1 PUSH1 0x0 PUSH1 0xE0 DUP9 DUP11 SUB SLT ISZERO PUSH2 0x3D8E JUMPI PUSH1 0x0 DUP1 REVERT JUMPDEST DUP8 CALLDATALOAD PUSH2 0x3D99 DUP2 PUSH2 0x38CA JUMP JUMPDEST SWAP7 POP PUSH1 0x20 DUP9 ADD CALLDATALOAD SWAP6 POP PUSH1 0x40 DUP9 ADD CALLDATALOAD SWAP5 POP PUSH1 0x60 DUP9 ADD CALLDATALOAD PUSH1 0x1 PUSH1 0x1 PUSH1 0x40 SHL SUB DUP1 DUP3 GT ISZERO PUSH2 0x3DC3 JUMPI PUSH1 0x0 DUP1 REVERT JUMPDEST PUSH2 0x3DCF DUP12 DUP4 DUP13 ADD PUSH2 0x3AF2 JUMP JUMPDEST SWAP6 POP PUSH1 0x80 DUP11 ADD CALLDATALOAD SWAP2 POP DUP1 DUP3 GT ISZERO PUSH2 0x3DE5 JUMPI PUSH1 0x0 DUP1 REVERT JUMPDEST POP PUSH2 0x3DF2 DUP11 DUP3 DUP12 ADD PUSH2 0x3AF2 JUMP JUMPDEST SWAP4 POP POP PUSH1 0xA0 DUP9 ADD CALLDATALOAD PUSH2 0x3E03 DUP2 PUSH2 0x38CA JUMP JUMPDEST DUP1 SWAP3 POP POP PUSH1 0xC0 DUP9 ADD CALLDATALOAD SWAP1 POP SWAP3 SWAP6 SWAP9 SWAP2 SWAP5 SWAP8 POP SWAP3 SWAP6 POP JUMP JUMPDEST PUSH1 0x0 PUSH1 0x20 DUP3 DUP5 SUB SLT ISZERO PUSH2 0x3E2C JUMPI PUSH1 0x0 DUP1 REVERT JUMPDEST POP CALLDATALOAD SWAP2 SWAP1 POP JUMP JUMPDEST PUSH1 0x0 PUSH1 0x20 DUP3 DUP5 SUB SLT ISZERO PUSH2 0x3E45 JUMPI PUSH1 0x0 DUP1 REVERT JUMPDEST DUP2 MLOAD PUSH2 0x29FC DUP2 PUSH2 0x38CA JUMP JUMPDEST PUSH4 0x4E487B71 PUSH1 0xE0 SHL PUSH1 0x0 MSTORE PUSH1 0x32 PUSH1 0x4 MSTORE PUSH1 0x24 PUSH1 0x0 REVERT JUMPDEST PUSH1 0x0 DUP1 PUSH1 0x0 PUSH1 0x60 DUP5 DUP7 SUB SLT ISZERO PUSH2 0x3E7B JUMPI PUSH1 0x0 DUP1 REVERT JUMPDEST DUP4 MLOAD SWAP3 POP PUSH1 0x20 DUP5 ADD MLOAD SWAP2 POP PUSH1 0x40 DUP5 ADD MLOAD SWAP1 POP SWAP3 POP SWAP3 POP SWAP3 JUMP JUMPDEST DUP1 MLOAD PUSH1 0x1 PUSH1 0x1 PUSH1 0x80 SHL SUB DUP2 AND DUP2 EQ PUSH2 0x375F JUMPI PUSH1 0x0 DUP1 REVERT JUMPDEST PUSH1 0x0 PUSH1 0x40 DUP3 DUP5 SUB SLT ISZERO PUSH2 0x3EBD JUMPI PUSH1 0x0 DUP1 REVERT JUMPDEST PUSH2 0x3EC5 PUSH2 0x3954 JUMP JUMPDEST PUSH2 0x3ECE DUP4 PUSH2 0x3E94 JUMP JUMPDEST DUP2 MSTORE PUSH2 0x3EDC PUSH1 0x20 DUP5 ADD PUSH2 0x3E94 JUMP JUMPDEST PUSH1 0x20 DUP3 ADD MSTORE SWAP4 SWAP3 POP POP POP JUMP JUMPDEST PUSH1 0x0 DUP1 PUSH1 0x40 DUP4 DUP6 SUB SLT ISZERO PUSH2 0x3EFB JUMPI PUSH1 0x0 DUP1 REVERT JUMPDEST POP POP DUP1 MLOAD PUSH1 0x20 SWAP1 SWAP2 ADD MLOAD SWAP1 SWAP3 SWAP1 SWAP2 POP JUMP JUMPDEST PUSH4 0x4E487B71 PUSH1 0xE0 SHL PUSH1 0x0 MSTORE PUSH1 0x11 PUSH1 0x4 MSTORE PUSH1 0x24 PUSH1 0x0 REVERT JUMPDEST PUSH1 0x0 DUP3 NOT DUP3 GT ISZERO PUSH2 0x3F35 JUMPI PUSH2 0x3F35 PUSH2 0x3F0C JUMP JUMPDEST POP ADD SWAP1 JUMP JUMPDEST PUSH1 0x0 DUP3 DUP3 LT ISZERO PUSH2 0x3F4C JUMPI PUSH2 0x3F4C PUSH2 0x3F0C JUMP JUMPDEST POP SUB SWAP1 JUMP JUMPDEST PUSH1 0x0 PUSH1 0x20 DUP3 DUP5 SUB SLT ISZERO PUSH2 0x3F63 JUMPI PUSH1 0x0 DUP1 REVERT JUMPDEST DUP2 MLOAD PUSH2 0x29FC DUP2 PUSH2 0x38E2 JUMP JUMPDEST PUSH1 0x0 PUSH1 0x20 DUP3 DUP5 SUB SLT ISZERO PUSH2 0x3F80 JUMPI PUSH1 0x0 DUP1 REVERT JUMPDEST POP MLOAD SWAP2 SWAP1 POP JUMP JUMPDEST PUSH1 0x0 PUSH1 0x20 DUP3 DUP5 SUB SLT ISZERO PUSH2 0x3F99 JUMPI PUSH1 0x0 DUP1 REVERT JUMPDEST DUP2 CALLDATALOAD PUSH2 0x29FC DUP2 PUSH2 0x38CA JUMP JUMPDEST PUSH1 0x0 PUSH1 0x20 DUP3 DUP5 SUB SLT ISZERO PUSH2 0x3FB6 JUMPI PUSH1 0x0 DUP1 REVERT JUMPDEST DUP2 MLOAD PUSH2 0x29FC DUP2 PUSH2 0x3AAD JUMP JUMPDEST PUSH1 0x0 PUSH1 0x40 DUP3 DUP5 SUB SLT ISZERO PUSH2 0x3FD3 JUMPI PUSH1 0x0 DUP1 REVERT JUMPDEST PUSH2 0x3FDB PUSH2 0x3954 JUMP JUMPDEST DUP3 MLOAD PUSH2 0x3FE6 DUP2 PUSH2 0x38CA JUMP JUMPDEST DUP2 MSTORE PUSH1 0x20 DUP4 ADD MLOAD PUSH2 0x3EDC DUP2 PUSH2 0x3AAD JUMP JUMPDEST PUSH1 0x1 PUSH1 0x1 PUSH1 0xA0 SHL SUB DUP6 DUP2 AND DUP3 MSTORE DUP5 AND PUSH1 0x20 DUP3 ADD MSTORE PUSH1 0x80 PUSH1 0x40 DUP3 ADD DUP2 SWAP1 MSTORE PUSH1 0x0 SWAP1 PUSH2 0x4022 SWAP1 DUP4 ADD DUP6 PUSH2 0x3C07 JUMP JUMPDEST DUP3 DUP2 SUB PUSH1 0x60 DUP5 ADD MSTORE PUSH2 0x4034 DUP2 DUP6 PUSH2 0x3C07 JUMP JUMPDEST SWAP8 SWAP7 POP POP POP POP POP POP POP JUMP JUMPDEST PUSH1 0x60 DUP2 MSTORE PUSH1 0x0 PUSH2 0x4052 PUSH1 0x60 DUP4 ADD DUP7 PUSH2 0x3C07 JUMP JUMPDEST DUP3 DUP2 SUB PUSH1 0x20 DUP5 ADD MSTORE PUSH2 0x4064 DUP2 DUP7 PUSH2 0x3C07 JUMP JUMPDEST SWAP2 POP POP PUSH1 0x1 DUP1 PUSH1 0xA0 SHL SUB DUP4 AND PUSH1 0x40 DUP4 ADD MSTORE SWAP5 SWAP4 POP POP POP POP JUMP JUMPDEST PUSH1 0x0 DUP2 PUSH2 0x408C JUMPI PUSH2 0x408C PUSH2 0x3F0C JUMP JUMPDEST POP PUSH1 0x0 NOT ADD SWAP1 JUMP JUMPDEST PUSH4 0x4E487B71 PUSH1 0xE0 SHL PUSH1 0x0 MSTORE PUSH1 0x12 PUSH1 0x4 MSTORE PUSH1 0x24 PUSH1 0x0 REVERT JUMPDEST PUSH1 0x0 DUP2 PUSH1 0x0 NOT DIV DUP4 GT DUP3 ISZERO ISZERO AND ISZERO PUSH2 0x40C4 JUMPI PUSH2 0x40C4 PUSH2 0x3F0C JUMP JUMPDEST POP MUL SWAP1 JUMP JUMPDEST PUSH1 0x0 DUP3 PUSH2 0x40E6 JUMPI PUSH4 0x4E487B71 PUSH1 0xE0 SHL PUSH1 0x0 MSTORE PUSH1 0x12 PUSH1 0x4 MSTORE PUSH1 0x24 PUSH1 0x0 REVERT JUMPDEST POP DIV SWAP1 JUMP JUMPDEST PUSH1 0x0 DUP1 DUP4 CALLDATALOAD PUSH1 0x1E NOT DUP5 CALLDATASIZE SUB ADD DUP2 SLT PUSH2 0x4102 JUMPI PUSH1 0x0 DUP1 REVERT JUMPDEST DUP4 ADD DUP1 CALLDATALOAD SWAP2 POP PUSH1 0x1 PUSH1 0x1 PUSH1 0x40 SHL SUB DUP3 GT ISZERO PUSH2 0x411C JUMPI PUSH1 0x0 DUP1 REVERT JUMPDEST PUSH1 0x20 ADD SWAP2 POP PUSH1 0x5 DUP2 SWAP1 SHL CALLDATASIZE SUB DUP3 SGT ISZERO PUSH2 0x4134 JUMPI PUSH1 0x0 DUP1 REVERT JUMPDEST SWAP3 POP SWAP3 SWAP1 POP JUMP JUMPDEST DUP2 DUP4 MSTORE PUSH1 0x0 PUSH1 0x1 PUSH1 0x1 PUSH1 0xFB SHL SUB DUP4 GT ISZERO PUSH2 0x4154 JUMPI PUSH1 0x0 DUP1 REVERT JUMPDEST DUP3 PUSH1 0x5 SHL DUP1 DUP4 PUSH1 0x20 DUP8 ADD CALLDATACOPY PUSH1 0x0 SWAP5 ADD PUSH1 0x20 ADD SWAP4 DUP5 MSTORE POP SWAP2 SWAP3 SWAP2 POP POP JUMP JUMPDEST PUSH1 0x80 DUP2 MSTORE PUSH1 0x0 PUSH2 0x4184 PUSH1 0x80 DUP4 ADD DUP10 PUSH2 0x3C07 JUMP JUMPDEST DUP3 DUP2 SUB PUSH1 0x20 DUP5 ADD MSTORE PUSH2 0x4197 DUP2 DUP9 DUP11 PUSH2 0x413B JUMP JUMPDEST SWAP1 POP DUP3 DUP2 SUB PUSH1 0x40 DUP5 ADD MSTORE PUSH2 0x41AC DUP2 DUP7 DUP9 PUSH2 0x413B JUMP JUMPDEST SWAP2 POP POP PUSH1 0x1 DUP1 PUSH1 0xA0 SHL SUB DUP4 AND PUSH1 0x60 DUP4 ADD MSTORE SWAP8 SWAP7 POP POP POP POP POP POP POP JUMP JUMPDEST PUSH1 0x0 DUP1 PUSH1 0x0 PUSH1 0x60 DUP5 DUP7 SUB SLT ISZERO PUSH2 0x41DD JUMPI PUSH1 0x0 DUP1 REVERT JUMPDEST DUP4 MLOAD SWAP3 POP PUSH1 0x20 DUP1 DUP6 ADD MLOAD SWAP3 POP PUSH1 0x40 DUP6 ADD MLOAD PUSH1 0x1 PUSH1 0x1 PUSH1 0x40 SHL SUB DUP2 GT ISZERO PUSH2 0x4202 JUMPI PUSH1 0x0 DUP1 REVERT JUMPDEST DUP6 ADD PUSH1 0x1F DUP2 ADD DUP8 SGT PUSH2 0x4213 JUMPI PUSH1 0x0 DUP1 REVERT JUMPDEST DUP1 MLOAD PUSH2 0x4221 PUSH2 0x39F0 DUP3 PUSH2 0x39AC JUMP JUMPDEST DUP2 DUP2 MSTORE PUSH1 0x5 SWAP2 SWAP1 SWAP2 SHL DUP3 ADD DUP4 ADD SWAP1 DUP4 DUP2 ADD SWAP1 DUP10 DUP4 GT ISZERO PUSH2 0x4240 JUMPI PUSH1 0x0 DUP1 REVERT JUMPDEST SWAP3 DUP5 ADD SWAP3 JUMPDEST DUP3 DUP5 LT ISZERO PUSH2 0x425E JUMPI DUP4 MLOAD DUP3 MSTORE SWAP3 DUP5 ADD SWAP3 SWAP1 DUP5 ADD SWAP1 PUSH2 0x4245 JUMP JUMPDEST DUP1 SWAP6 POP POP POP POP POP POP SWAP3 POP SWAP3 POP SWAP3 JUMP JUMPDEST PUSH1 0x0 DUP3 MLOAD PUSH1 0x0 JUMPDEST DUP2 DUP2 LT ISZERO PUSH2 0x428E JUMPI PUSH1 0x20 DUP2 DUP7 ADD DUP2 ADD MLOAD DUP6 DUP4 ADD MSTORE ADD PUSH2 0x4274 JUMP JUMPDEST DUP2 DUP2 GT ISZERO PUSH2 0x429D JUMPI PUSH1 0x0 DUP3 DUP6 ADD MSTORE JUMPDEST POP SWAP2 SWAP1 SWAP2 ADD SWAP3 SWAP2 POP POP JUMP INVALID LOG2 PUSH5 0x6970667358 0x22 SLT KECCAK256 0xAB 0xE5 PUSH30 0x856E0CE39F18A845912EF186F3D4741B48EAD884786DEAFBEA1903974064 PUSH20 0x6F6C634300080A00330000000000000000000000 "
		},
		"gasEstimates": {
			"creation": {
				"codeDepositCost": "3423600",
				"executionCost": "infinite",
				"totalCost": "infinite"
			},
			"external": {
				"addLiquidity((address,address,uint256,uint256,uint256,uint256,uint256,uint256,int256[],uint256[],uint256[],address,uint256))": "infinite",
				"addLiquidityETH((address,address,uint256,uint256,uint256,uint256,uint256,uint256,int256[],uint256[],uint256[],address,uint256))": "infinite",
				"createLBPair(address,address,uint24)": "infinite",
				"factory()": "infinite",
				"getIdFromPrice(uint256)": "infinite",
				"getPriceFromId(uint24)": "infinite",
				"getSwapIn(address,uint256,bool)": "infinite",
				"getSwapOut(address,uint256,bool)": "infinite",
				"removeLiquidity(address,address,uint256,uint256,uint256[],uint256[],address,uint256)": "infinite",
				"removeLiquidityETH(address,uint256,uint256,uint256[],uint256[],address,uint256)": "infinite",
				"swapETHForExactTokens(uint256,address[],address,uint256)": "infinite",
				"swapExactETHForTokens(uint256,address[],address,uint256)": "infinite",
				"swapExactETHForTokensSupportingFeeOnTransferTokens(uint256,address[],address,uint256)": "infinite",
				"swapExactTokensForETH(uint256,uint256,address[],address,uint256)": "infinite",
				"swapExactTokensForETHSupportingFeeOnTransferTokens(uint256,uint256,address[],address,uint256)": "infinite",
				"swapExactTokensForTokens(uint256,uint256,address[],address,uint256)": "infinite",
				"swapExactTokensForTokensSupportingFeeOnTransferTokens(uint256,uint256,address[],address,uint256)": "infinite",
				"swapTokensForExactETH(uint256,uint256,address[],address,uint256)": "infinite",
				"swapTokensForExactTokens(uint256,uint256,address[],address,uint256)": "infinite",
				"sweep(address,address,uint256)": "infinite",
				"weth()": "infinite"
			},
			"internal": {
				"_addLiquidity(struct ILBRouter.LiquidityParameters calldata,contract ILBPair)": "infinite",
				"_getAmountsIn(address[] memory,contract IERC20[] memory,uint256)": "infinite",
				"_getLBPairInformation(contract IERC20,contract IERC20)": "infinite",
				"_getPair(contract IERC20,contract IERC20)": "infinite",
				"_getPairs(contract IERC20[] memory)": "infinite",
				"_removeLiquidity(contract ILBPair,uint256,uint256,uint256[] memory,uint256[] memory,address)": "infinite",
				"_safeTransferETH(address,uint256)": "infinite",
				"_swapExactTokensForTokens(uint256,address[] memory,contract IERC20[] memory,address)": "infinite",
				"_swapSupportingFeeOnTransferTokens(address[] memory,contract IERC20[] memory,address)": "infinite",
				"_swapTokensForExactTokens(address[] memory,contract IERC20[] memory,address)": "infinite",
				"_wethDepositAndTransfer(address,uint256)": "infinite"
			}
		},
		"methodIdentifiers": {
			"addLiquidity((address,address,uint256,uint256,uint256,uint256,uint256,uint256,int256[],uint256[],uint256[],address,uint256))": "62ebdf98",
			"addLiquidityETH((address,address,uint256,uint256,uint256,uint256,uint256,uint256,int256[],uint256[],uint256[],address,uint256))": "edf31178",
			"createLBPair(address,address,uint24)": "02e48ce2",
			"factory()": "c45a0155",
			"getIdFromPrice(uint256)": "f5e29329",
			"getPriceFromId(uint24)": "4c7cffbd",
			"getSwapIn(address,uint256,bool)": "5bdd4b7c",
			"getSwapOut(address,uint256,bool)": "2004b724",
			"removeLiquidity(address,address,uint256,uint256,uint256[],uint256[],address,uint256)": "276f78dd",
			"removeLiquidityETH(address,uint256,uint256,uint256[],uint256[],address,uint256)": "cb5b059a",
			"swapETHForExactTokens(uint256,address[],address,uint256)": "fb3bdb41",
			"swapExactETHForTokens(uint256,address[],address,uint256)": "7ff36ab5",
			"swapExactETHForTokensSupportingFeeOnTransferTokens(uint256,address[],address,uint256)": "b6f9de95",
			"swapExactTokensForETH(uint256,uint256,address[],address,uint256)": "18cbafe5",
			"swapExactTokensForETHSupportingFeeOnTransferTokens(uint256,uint256,address[],address,uint256)": "791ac947",
			"swapExactTokensForTokens(uint256,uint256,address[],address,uint256)": "38ed1739",
			"swapExactTokensForTokensSupportingFeeOnTransferTokens(uint256,uint256,address[],address,uint256)": "5c11d795",
			"swapTokensForExactETH(uint256,uint256,address[],address,uint256)": "4a25d94a",
			"swapTokensForExactTokens(uint256,uint256,address[],address,uint256)": "8803dbee",
			"sweep(address,address,uint256)": "62c06767",
			"weth()": "3fc8cef3"
		}
	},
	"abi": [
		{
			"inputs": [
				{
					"internalType": "contract ILBFactory",
					"name": "_factory",
					"type": "address"
				},
				{
					"internalType": "contract IWETH",
					"name": "_weth",
					"type": "address"
				}
			],
			"stateMutability": "nonpayable",
			"type": "constructor"
		},
		{
			"inputs": [],
			"name": "BinHelper__IdOverflows",
			"type": "error"
		},
		{
			"inputs": [
				{
					"internalType": "uint256",
					"name": "amountXMin",
					"type": "uint256"
				},
				{
					"internalType": "uint256",
					"name": "amountX",
					"type": "uint256"
				},
				{
					"internalType": "uint256",
					"name": "amountYMin",
					"type": "uint256"
				},
				{
					"internalType": "uint256",
					"name": "amountY",
					"type": "uint256"
				}
			],
			"name": "LBRouter__AmountSlippageCaught",
			"type": "error"
		},
		{
			"inputs": [
				{
					"internalType": "uint256",
					"name": "id",
					"type": "uint256"
				}
			],
			"name": "LBRouter__BinReserveOverflows",
			"type": "error"
		},
		{
			"inputs": [],
			"name": "LBRouter__BrokenSwapSafetyCheck",
			"type": "error"
		},
		{
			"inputs": [
				{
					"internalType": "uint256",
					"name": "deadline",
					"type": "uint256"
				},
				{
					"internalType": "uint256",
					"name": "currentTimestamp",
					"type": "uint256"
				}
			],
			"name": "LBRouter__DeadlineExceeded",
			"type": "error"
		},
		{
			"inputs": [
				{
					"internalType": "uint256",
					"name": "idDesired",
					"type": "uint256"
				},
				{
					"internalType": "uint256",
					"name": "idSlippage",
					"type": "uint256"
				}
			],
			"name": "LBRouter__IdDesiredOverflows",
			"type": "error"
		},
		{
			"inputs": [
				{
					"internalType": "int256",
					"name": "id",
					"type": "int256"
				}
			],
			"name": "LBRouter__IdOverflows",
			"type": "error"
		},
		{
			"inputs": [
				{
					"internalType": "uint256",
					"name": "activeIdDesired",
					"type": "uint256"
				},
				{
					"internalType": "uint256",
					"name": "idSlippage",
					"type": "uint256"
				},
				{
					"internalType": "uint256",
					"name": "activeId",
					"type": "uint256"
				}
			],
			"name": "LBRouter__IdSlippageCaught",
			"type": "error"
		},
		{
			"inputs": [
				{
					"internalType": "uint256",
					"name": "amountOutMin",
					"type": "uint256"
				},
				{
					"internalType": "uint256",
					"name": "amountOut",
					"type": "uint256"
				}
			],
			"name": "LBRouter__InsufficientAmountOut",
			"type": "error"
		},
		{
			"inputs": [
				{
					"internalType": "address",
					"name": "wrongToken",
					"type": "address"
				}
			],
			"name": "LBRouter__InvalidTokenPath",
			"type": "error"
		},
		{
			"inputs": [],
			"name": "LBRouter__LengthsMismatch",
			"type": "error"
		},
		{
			"inputs": [
				{
					"internalType": "uint256",
					"name": "amountInMax",
					"type": "uint256"
				},
				{
					"internalType": "uint256",
					"name": "amountIn",
					"type": "uint256"
				}
			],
			"name": "LBRouter__MaxAmountInExceeded",
			"type": "error"
		},
		{
			"inputs": [],
			"name": "LBRouter__NotFactoryOwner",
			"type": "error"
		},
		{
			"inputs": [
				{
					"internalType": "uint256",
					"name": "id",
					"type": "uint256"
				}
			],
			"name": "LBRouter__SwapOverflows",
			"type": "error"
		},
		{
			"inputs": [
				{
					"internalType": "uint256",
					"name": "excess",
					"type": "uint256"
				}
			],
			"name": "LBRouter__TooMuchTokensIn",
			"type": "error"
		},
		{
			"inputs": [
				{
					"internalType": "uint256",
					"name": "amount",
					"type": "uint256"
				},
				{
					"internalType": "uint256",
					"name": "reserve",
					"type": "uint256"
				}
			],
			"name": "LBRouter__WrongAmounts",
			"type": "error"
		},
		{
			"inputs": [],
			"name": "LBRouter__WrongTokenOrder",
			"type": "error"
		},
		{
			"inputs": [],
			"name": "Math128x128__LogUnderflow",
			"type": "error"
		},
		{
			"inputs": [
				{
					"internalType": "uint256",
					"name": "x",
					"type": "uint256"
				},
				{
					"internalType": "int256",
					"name": "y",
					"type": "int256"
				}
			],
			"name": "Math128x128__PowerUnderflow",
			"type": "error"
		},
		{
			"inputs": [
				{
					"internalType": "uint256",
					"name": "prod1",
					"type": "uint256"
				},
				{
					"internalType": "uint256",
					"name": "denominator",
					"type": "uint256"
				}
			],
			"name": "Math512Bits__MulDivOverflow",
			"type": "error"
		},
		{
			"inputs": [
				{
					"internalType": "uint256",
					"name": "prod1",
					"type": "uint256"
				},
				{
					"internalType": "uint256",
					"name": "offset",
					"type": "uint256"
				}
			],
			"name": "Math512Bits__MulShiftOverflow",
			"type": "error"
		},
		{
			"inputs": [
				{
					"internalType": "uint256",
					"name": "offset",
					"type": "uint256"
				}
			],
			"name": "Math512Bits__OffsetOverflows",
			"type": "error"
		},
		{
			"inputs": [
				{
					"internalType": "uint256",
					"name": "x",
					"type": "uint256"
				}
			],
			"name": "SafeCast__Exceeds128Bits",
			"type": "error"
		},
		{
			"inputs": [],
			"name": "TokenHelper__CallFailed",
			"type": "error"
		},
		{
			"inputs": [],
			"name": "TokenHelper__NonContract",
			"type": "error"
		},
		{
			"inputs": [],
			"name": "TokenHelper__TransferFailed",
			"type": "error"
		},
		{
			"inputs": [
				{
					"components": [
						{
							"internalType": "contract IERC20",
							"name": "tokenX",
							"type": "address"
						},
						{
							"internalType": "contract IERC20",
							"name": "tokenY",
							"type": "address"
						},
						{
							"internalType": "uint256",
							"name": "amountX",
							"type": "uint256"
						},
						{
							"internalType": "uint256",
							"name": "amountY",
							"type": "uint256"
						},
						{
							"internalType": "uint256",
							"name": "amountXMin",
							"type": "uint256"
						},
						{
							"internalType": "uint256",
							"name": "amountYMin",
							"type": "uint256"
						},
						{
							"internalType": "uint256",
							"name": "activeIdDesired",
							"type": "uint256"
						},
						{
							"internalType": "uint256",
							"name": "idSlippage",
							"type": "uint256"
						},
						{
							"internalType": "int256[]",
							"name": "deltaIds",
							"type": "int256[]"
						},
						{
							"internalType": "uint256[]",
							"name": "distributionX",
							"type": "uint256[]"
						},
						{
							"internalType": "uint256[]",
							"name": "distributionY",
							"type": "uint256[]"
						},
						{
							"internalType": "address",
							"name": "to",
							"type": "address"
						},
						{
							"internalType": "uint256",
							"name": "deadline",
							"type": "uint256"
						}
					],
					"internalType": "struct ILBRouter.LiquidityParameters",
					"name": "_liquidityParameters",
					"type": "tuple"
				}
			],
			"name": "addLiquidity",
			"outputs": [
				{
					"internalType": "uint256[]",
					"name": "depositIds",
					"type": "uint256[]"
				},
				{
					"internalType": "uint256[]",
					"name": "liquidityMinted",
					"type": "uint256[]"
				}
			],
			"stateMutability": "nonpayable",
			"type": "function"
		},
		{
			"inputs": [
				{
					"components": [
						{
							"internalType": "contract IERC20",
							"name": "tokenX",
							"type": "address"
						},
						{
							"internalType": "contract IERC20",
							"name": "tokenY",
							"type": "address"
						},
						{
							"internalType": "uint256",
							"name": "amountX",
							"type": "uint256"
						},
						{
							"internalType": "uint256",
							"name": "amountY",
							"type": "uint256"
						},
						{
							"internalType": "uint256",
							"name": "amountXMin",
							"type": "uint256"
						},
						{
							"internalType": "uint256",
							"name": "amountYMin",
							"type": "uint256"
						},
						{
							"internalType": "uint256",
							"name": "activeIdDesired",
							"type": "uint256"
						},
						{
							"internalType": "uint256",
							"name": "idSlippage",
							"type": "uint256"
						},
						{
							"internalType": "int256[]",
							"name": "deltaIds",
							"type": "int256[]"
						},
						{
							"internalType": "uint256[]",
							"name": "distributionX",
							"type": "uint256[]"
						},
						{
							"internalType": "uint256[]",
							"name": "distributionY",
							"type": "uint256[]"
						},
						{
							"internalType": "address",
							"name": "to",
							"type": "address"
						},
						{
							"internalType": "uint256",
							"name": "deadline",
							"type": "uint256"
						}
					],
					"internalType": "struct ILBRouter.LiquidityParameters",
					"name": "_liquidityParameters",
					"type": "tuple"
				}
			],
			"name": "addLiquidityETH",
			"outputs": [
				{
					"internalType": "uint256[]",
					"name": "depositIds",
					"type": "uint256[]"
				},
				{
					"internalType": "uint256[]",
					"name": "liquidityMinted",
					"type": "uint256[]"
				}
			],
			"stateMutability": "payable",
			"type": "function"
		},
		{
			"inputs": [
				{
					"internalType": "contract IERC20",
					"name": "_tokenX",
					"type": "address"
				},
				{
					"internalType": "contract IERC20",
					"name": "_tokenY",
					"type": "address"
				},
				{
					"internalType": "uint24",
					"name": "_activeId",
					"type": "uint24"
				}
			],
			"name": "createLBPair",
			"outputs": [
				{
					"internalType": "contract ILBPair",
					"name": "pair",
					"type": "address"
				}
			],
			"stateMutability": "nonpayable",
			"type": "function"
		},
		{
			"inputs": [],
			"name": "factory",
			"outputs": [
				{
					"internalType": "contract ILBFactory",
					"name": "",
					"type": "address"
				}
			],
			"stateMutability": "view",
			"type": "function"
		},
		{
			"inputs": [
				{
					"internalType": "uint256",
					"name": "_price",
					"type": "uint256"
				}
			],
			"name": "getIdFromPrice",
			"outputs": [
				{
					"internalType": "uint24",
					"name": "",
					"type": "uint24"
				}
			],
			"stateMutability": "view",
			"type": "function"
		},
		{
			"inputs": [
				{
					"internalType": "uint24",
					"name": "_id",
					"type": "uint24"
				}
			],
			"name": "getPriceFromId",
			"outputs": [
				{
					"internalType": "uint256",
					"name": "",
					"type": "uint256"
				}
			],
			"stateMutability": "view",
			"type": "function"
		},
		{
			"inputs": [
				{
					"internalType": "contract ILBPair",
					"name": "_LBPair",
					"type": "address"
				},
				{
					"internalType": "uint256",
					"name": "_amountOut",
					"type": "uint256"
				},
				{
					"internalType": "bool",
					"name": "_swapForY",
					"type": "bool"
				}
			],
			"name": "getSwapIn",
			"outputs": [
				{
					"internalType": "uint256",
					"name": "amountIn",
					"type": "uint256"
				},
				{
					"internalType": "uint256",
					"name": "feesIn",
					"type": "uint256"
				}
			],
			"stateMutability": "view",
			"type": "function"
		},
		{
			"inputs": [
				{
					"internalType": "contract ILBPair",
					"name": "_LBPair",
					"type": "address"
				},
				{
					"internalType": "uint256",
					"name": "_amountIn",
					"type": "uint256"
				},
				{
					"internalType": "bool",
					"name": "_swapForY",
					"type": "bool"
				}
			],
			"name": "getSwapOut",
			"outputs": [
				{
					"internalType": "uint256",
					"name": "amountOut",
					"type": "uint256"
				},
				{
					"internalType": "uint256",
					"name": "feesIn",
					"type": "uint256"
				}
			],
			"stateMutability": "view",
			"type": "function"
		},
		{
			"inputs": [
				{
					"internalType": "contract IERC20",
					"name": "_tokenX",
					"type": "address"
				},
				{
					"internalType": "contract IERC20",
					"name": "_tokenY",
					"type": "address"
				},
				{
					"internalType": "uint256",
					"name": "_amountXMin",
					"type": "uint256"
				},
				{
					"internalType": "uint256",
					"name": "_amountYMin",
					"type": "uint256"
				},
				{
					"internalType": "uint256[]",
					"name": "_ids",
					"type": "uint256[]"
				},
				{
					"internalType": "uint256[]",
					"name": "_amounts",
					"type": "uint256[]"
				},
				{
					"internalType": "address",
					"name": "_to",
					"type": "address"
				},
				{
					"internalType": "uint256",
					"name": "_deadline",
					"type": "uint256"
				}
			],
			"name": "removeLiquidity",
			"outputs": [
				{
					"internalType": "uint256",
					"name": "amountX",
					"type": "uint256"
				},
				{
					"internalType": "uint256",
					"name": "amountY",
					"type": "uint256"
				}
			],
			"stateMutability": "nonpayable",
			"type": "function"
		},
		{
			"inputs": [
				{
					"internalType": "contract IERC20",
					"name": "_token",
					"type": "address"
				},
				{
					"internalType": "uint256",
					"name": "_amountTokenMin",
					"type": "uint256"
				},
				{
					"internalType": "uint256",
					"name": "_amountETHMin",
					"type": "uint256"
				},
				{
					"internalType": "uint256[]",
					"name": "_ids",
					"type": "uint256[]"
				},
				{
					"internalType": "uint256[]",
					"name": "_amounts",
					"type": "uint256[]"
				},
				{
					"internalType": "address payable",
					"name": "_to",
					"type": "address"
				},
				{
					"internalType": "uint256",
					"name": "_deadline",
					"type": "uint256"
				}
			],
			"name": "removeLiquidityETH",
			"outputs": [
				{
					"internalType": "uint256",
					"name": "amountToken",
					"type": "uint256"
				},
				{
					"internalType": "uint256",
					"name": "amountETH",
					"type": "uint256"
				}
			],
			"stateMutability": "nonpayable",
			"type": "function"
		},
		{
			"inputs": [
				{
					"internalType": "uint256",
					"name": "_amountOut",
					"type": "uint256"
				},
				{
					"internalType": "contract IERC20[]",
					"name": "_tokenPath",
					"type": "address[]"
				},
				{
					"internalType": "address",
					"name": "_to",
					"type": "address"
				},
				{
					"internalType": "uint256",
					"name": "_deadline",
					"type": "uint256"
				}
			],
			"name": "swapETHForExactTokens",
			"outputs": [
				{
					"internalType": "uint256[]",
					"name": "amountsIn",
					"type": "uint256[]"
				}
			],
			"stateMutability": "payable",
			"type": "function"
		},
		{
			"inputs": [
				{
					"internalType": "uint256",
					"name": "_amountOutMin",
					"type": "uint256"
				},
				{
					"internalType": "contract IERC20[]",
					"name": "_tokenPath",
					"type": "address[]"
				},
				{
					"internalType": "address",
					"name": "_to",
					"type": "address"
				},
				{
					"internalType": "uint256",
					"name": "_deadline",
					"type": "uint256"
				}
			],
			"name": "swapExactETHForTokens",
			"outputs": [
				{
					"internalType": "uint256",
					"name": "amountOut",
					"type": "uint256"
				}
			],
			"stateMutability": "payable",
			"type": "function"
		},
		{
			"inputs": [
				{
					"internalType": "uint256",
					"name": "_amountOutMin",
					"type": "uint256"
				},
				{
					"internalType": "contract IERC20[]",
					"name": "_tokenPath",
					"type": "address[]"
				},
				{
					"internalType": "address",
					"name": "_to",
					"type": "address"
				},
				{
					"internalType": "uint256",
					"name": "_deadline",
					"type": "uint256"
				}
			],
			"name": "swapExactETHForTokensSupportingFeeOnTransferTokens",
			"outputs": [
				{
					"internalType": "uint256",
					"name": "amountOut",
					"type": "uint256"
				}
			],
			"stateMutability": "payable",
			"type": "function"
		},
		{
			"inputs": [
				{
					"internalType": "uint256",
					"name": "_amountIn",
					"type": "uint256"
				},
				{
					"internalType": "uint256",
					"name": "_amountOutMinETH",
					"type": "uint256"
				},
				{
					"internalType": "contract IERC20[]",
					"name": "_tokenPath",
					"type": "address[]"
				},
				{
					"internalType": "address payable",
					"name": "_to",
					"type": "address"
				},
				{
					"internalType": "uint256",
					"name": "_deadline",
					"type": "uint256"
				}
			],
			"name": "swapExactTokensForETH",
			"outputs": [
				{
					"internalType": "uint256",
					"name": "amountOut",
					"type": "uint256"
				}
			],
			"stateMutability": "nonpayable",
			"type": "function"
		},
		{
			"inputs": [
				{
					"internalType": "uint256",
					"name": "_amountIn",
					"type": "uint256"
				},
				{
					"internalType": "uint256",
					"name": "_amountOutMinETH",
					"type": "uint256"
				},
				{
					"internalType": "contract IERC20[]",
					"name": "_tokenPath",
					"type": "address[]"
				},
				{
					"internalType": "address payable",
					"name": "_to",
					"type": "address"
				},
				{
					"internalType": "uint256",
					"name": "_deadline",
					"type": "uint256"
				}
			],
			"name": "swapExactTokensForETHSupportingFeeOnTransferTokens",
			"outputs": [
				{
					"internalType": "uint256",
					"name": "amountOut",
					"type": "uint256"
				}
			],
			"stateMutability": "nonpayable",
			"type": "function"
		},
		{
			"inputs": [
				{
					"internalType": "uint256",
					"name": "_amountIn",
					"type": "uint256"
				},
				{
					"internalType": "uint256",
					"name": "_amountOutMin",
					"type": "uint256"
				},
				{
					"internalType": "contract IERC20[]",
					"name": "_tokenPath",
					"type": "address[]"
				},
				{
					"internalType": "address",
					"name": "_to",
					"type": "address"
				},
				{
					"internalType": "uint256",
					"name": "_deadline",
					"type": "uint256"
				}
			],
			"name": "swapExactTokensForTokens",
			"outputs": [
				{
					"internalType": "uint256",
					"name": "amountOut",
					"type": "uint256"
				}
			],
			"stateMutability": "nonpayable",
			"type": "function"
		},
		{
			"inputs": [
				{
					"internalType": "uint256",
					"name": "_amountIn",
					"type": "uint256"
				},
				{
					"internalType": "uint256",
					"name": "_amountOutMin",
					"type": "uint256"
				},
				{
					"internalType": "contract IERC20[]",
					"name": "_tokenPath",
					"type": "address[]"
				},
				{
					"internalType": "address",
					"name": "_to",
					"type": "address"
				},
				{
					"internalType": "uint256",
					"name": "_deadline",
					"type": "uint256"
				}
			],
			"name": "swapExactTokensForTokensSupportingFeeOnTransferTokens",
			"outputs": [
				{
					"internalType": "uint256",
					"name": "amountOut",
					"type": "uint256"
				}
			],
			"stateMutability": "nonpayable",
			"type": "function"
		},
		{
			"inputs": [
				{
					"internalType": "uint256",
					"name": "_amountETHOut",
					"type": "uint256"
				},
				{
					"internalType": "uint256",
					"name": "_amountInMax",
					"type": "uint256"
				},
				{
					"internalType": "contract IERC20[]",
					"name": "_tokenPath",
					"type": "address[]"
				},
				{
					"internalType": "address payable",
					"name": "_to",
					"type": "address"
				},
				{
					"internalType": "uint256",
					"name": "_deadline",
					"type": "uint256"
				}
			],
			"name": "swapTokensForExactETH",
			"outputs": [
				{
					"internalType": "uint256[]",
					"name": "amountsIn",
					"type": "uint256[]"
				}
			],
			"stateMutability": "nonpayable",
			"type": "function"
		},
		{
			"inputs": [
				{
					"internalType": "uint256",
					"name": "_amountOut",
					"type": "uint256"
				},
				{
					"internalType": "uint256",
					"name": "_amountInMax",
					"type": "uint256"
				},
				{
					"internalType": "contract IERC20[]",
					"name": "_tokenPath",
					"type": "address[]"
				},
				{
					"internalType": "address",
					"name": "_to",
					"type": "address"
				},
				{
					"internalType": "uint256",
					"name": "_deadline",
					"type": "uint256"
				}
			],
			"name": "swapTokensForExactTokens",
			"outputs": [
				{
					"internalType": "uint256[]",
					"name": "amountsIn",
					"type": "uint256[]"
				}
			],
			"stateMutability": "nonpayable",
			"type": "function"
		},
		{
			"inputs": [
				{
					"internalType": "contract IERC20",
					"name": "_token",
					"type": "address"
				},
				{
					"internalType": "address",
					"name": "_to",
					"type": "address"
				},
				{
					"internalType": "uint256",
					"name": "_amount",
					"type": "uint256"
				}
			],
			"name": "sweep",
			"outputs": [],
			"stateMutability": "nonpayable",
			"type": "function"
		},
		{
			"inputs": [],
			"name": "weth",
			"outputs": [
				{
					"internalType": "contract IWETH",
					"name": "",
					"type": "address"
				}
			],
			"stateMutability": "view",
			"type": "function"
		},
		{
			"stateMutability": "payable",
			"type": "receive"
		}
	]
}