{
	"data": {
		"bytecode": {
			"linkReferences": {},
			"object": "60a060405234801561001057600080fd5b5060405161610a38038061610a83398101604081905261002f916100e6565b30608052600080546001600160a01b0319163390811782556040519091907fb532073b38c83145e3e5135377a08bf9aab55bc0fd7c1179cd4fb995d2a5159c908290a3600180546001600160801b0319166001600160801b0385169081179091556040516000907f026422b40df1058c69bada67c7c42ade33c6d1ae80778f5a65def8d6e57d7523908290a3600291909155600380546001600160a01b0319166001600160a01b0390921691909117905550610141565b6000806000606084860312156100fb57600080fd5b83516001600160801b038116811461011257600080fd5b6020850151604086015191945092506001600160a01b038116811461013657600080fd5b809150509250925092565b608051615fae61015c600039600061061b0152615fae6000f3fe60806040523480156200001157600080fd5b50600436106200006a5760003560e01c806313af4035146200006f5780632060003b146200008857806346904840146200009f57806365329a4f14620000c457806383d16e1314620000fb578063c0d768b11462000132575b600080fd5b62000086620000803660046200085f565b62000159565b005b620000866200009936600462000886565b620001cc565b6000546001600160a01b03165b604051620000bb9190620008cc565b60405180910390f35b620000ac620000d5366004620008e0565b60056020908152600092835260408084209091529082529020546001600160a01b031681565b620000ac6200010c366004620008e0565b60046020908152600092835260408084209091529082529020546001600160a01b031681565b6200014962000143366004620008e0565b6200043e565b604051620000bb9291906200091e565b6000546001600160a01b031633146200017157600080fd5b600080546040516001600160a01b03808516939216917fb532073b38c83145e3e5135377a08bf9aab55bc0fd7c1179cd4fb995d2a5159c91a3600080546001600160a01b0319166001600160a01b0392909216919091179055565b6000546001600160a01b03163314620001e457600080fd5b6002819055600354604051630f84100560e21b81526001600160a01b03858116600483015260016024830152670de0b6b3a764000060448301526000928392911690633e10401490606401600060405180830381865afa1580156200024d573d6000803e3d6000fd5b505050506040513d6000823e601f3d908101601f1916820160405262000277919081019062000a1a565b8051919350915015620003cf576000805b8251811015620002d157828181518110620002a757620002a762000aec565b602002602001015182620002bc919062000b18565b9150620002c98162000b33565b905062000288565b5060005b82518110156200035f57600182848381518110620002f757620002f762000aec565b6020026020010151670de0b6b3a764000062000314919062000b51565b62000320919062000b73565b6200032c919062000b96565b83828151811062000341576200034162000aec565b6020908102919091010152620003578162000b33565b9050620002d5565b50600254604051631708b41360e01b81526001600160a01b03871691631708b413916200039491908790879060040162000bb0565b600060405180830381600087803b158015620003af57600080fd5b505af1158015620003c4573d6000803e3d6000fd5b505050505062000437565b604051631708b41360e01b81526001600160a01b03851690631708b4139062000402906000908690869060040162000bb0565b600060405180830381600087803b1580156200041d57600080fd5b505af115801562000432573d6000803e3d6000fd5b505050505b5050505050565b6000806200044b62000610565b826001600160a01b0316846001600160a01b031614156200046b57600080fd5b6000806200047a868662000648565b90925090506001600160a01b0381166200049357600080fd5b6001600160a01b03828116600090815260046020908152604080832085851684529091529020541615620004c657600080fd5b600154620004e3903090849084906001600160801b0316620006d7565b8094508195505050620004fa8284600254620001cc565b60405163189acdbd60e31b81526001600160a01b0385169063c4d66de89062000528908690600401620008cc565b600060405180830381600087803b1580156200054357600080fd5b505af115801562000558573d6000803e3d6000fd5b5050506001600160a01b0380841660008181526004602090815260408083208786168085529083528184208054878c166001600160a01b03199182161790915585855260058452828520828652909352928190208054958b169590921694909417905560015492516001600160801b039093169350917fff8cfa22379d26bf170d6b51e89cdd427ecff0e00a8709edc1d5d909705d200990620005ff9088908a906200091e565b60405180910390a450509250929050565b306001600160a01b037f000000000000000000000000000000000000000000000000000000000000000016146200064657600080fd5b565b6040516301ffc9a760e01b81526380ac58cd60e01b600482018190526000918291906001600160a01b038616906301ffc9a790602401602060405180830381865afa1580156200069c573d6000803e3d6000fd5b505050506040513d601f19601f82011682018060405250810190620006c2919062000c43565b15620006cf578492508391505b509250929050565b6000808484604051602001620006ef9291906200091e565b604051602081830303815290604052805190602001208660405162000714906200082a565b6060808252600c908201526b26b4b230b9a6282a37b5b2b760a11b608082015260a060208201819052600490820152631353141560e21b60c08201526001600160a01b03909116604082015260e0018190604051809103906000f590508015801562000784573d6000803e3d6000fd5b50915084846040516020016200079c9291906200091e565b604051602081830303815290604052805190602001208686868587604051620007c59062000838565b6001600160a01b0395861681529385166020850152918416604084015290921660608201526001600160801b03909116608082015260a0018190604051809103906000f59050801580156200081e573d6000803e3d6000fd5b50905094509492505050565b6117e68062000c6883390190565b613b2b806200244e83390190565b6001600160a01b03811681146200085c57600080fd5b50565b6000602082840312156200087257600080fd5b81356200087f8162000846565b9392505050565b6000806000606084860312156200089c57600080fd5b8335620008a98162000846565b92506020840135620008bb8162000846565b929592945050506040919091013590565b6001600160a01b0391909116815260200190565b60008060408385031215620008f457600080fd5b8235620009018162000846565b91506020830135620009138162000846565b809150509250929050565b6001600160a01b0392831681529116602082015260400190565b634e487b7160e01b600052604160045260246000fd5b604051601f8201601f191681016001600160401b038111828210171562000979576200097962000938565b604052919050565b60006001600160401b038211156200099d576200099d62000938565b5060051b60200190565b600082601f830112620009b957600080fd5b81516020620009d2620009cc8362000981565b6200094e565b82815260059290921b84018101918181019086841115620009f257600080fd5b8286015b8481101562000a0f5780518352918301918301620009f6565b509695505050505050565b6000806040838503121562000a2e57600080fd5b82516001600160401b038082111562000a4657600080fd5b818501915085601f83011262000a5b57600080fd5b8151602062000a6e620009cc8362000981565b82815260059290921b8401810191818101908984111562000a8e57600080fd5b948201945b8386101562000ab957855162000aa98162000846565b8252948201949082019062000a93565b9188015191965090935050508082111562000ad357600080fd5b5062000ae285828601620009a7565b9150509250929050565b634e487b7160e01b600052603260045260246000fd5b634e487b7160e01b600052601160045260246000fd5b6000821982111562000b2e5762000b2e62000b02565b500190565b600060001982141562000b4a5762000b4a62000b02565b5060010190565b600081600019048311821515161562000b6e5762000b6e62000b02565b500290565b60008262000b9157634e487b7160e01b600052601260045260246000fd5b500490565b60008282101562000bab5762000bab62000b02565b500390565b6000606082018583526020606081850152818651808452608086019150828801935060005b8181101562000bfc5784516001600160a01b03168352938301939183019160010162000bd5565b50508481036040860152855180825290820192508186019060005b8181101562000c355782518552938301939183019160010162000c17565b509298975050505050505050565b60006020828403121562000c5657600080fd5b815180151581146200087f57600080fdfe60806040523480156200001157600080fd5b50604051620017e6380380620017e68339810160408190526200003491620001fc565b82516200004990600090602086019062000089565b5081516200005f90600190602085019062000089565b50600380546001600160a01b0319166001600160a01b039290921691909117905550620002c69050565b828054620000979062000289565b90600052602060002090601f016020900481019282620000bb576000855562000106565b82601f10620000d657805160ff191683800117855562000106565b8280016001018555821562000106579182015b8281111562000106578251825591602001919060010190620000e9565b506200011492915062000118565b5090565b5b8082111562000114576000815560010162000119565b634e487b7160e01b600052604160045260246000fd5b600082601f8301126200015757600080fd5b81516001600160401b03808211156200017457620001746200012f565b604051601f8301601f19908116603f011681019082821181831017156200019f576200019f6200012f565b81604052838152602092508683858801011115620001bc57600080fd5b600091505b83821015620001e05785820183015181830184015290820190620001c1565b83821115620001f25760008385830101525b9695505050505050565b6000806000606084860312156200021257600080fd5b83516001600160401b03808211156200022a57600080fd5b620002388783880162000145565b945060208601519150808211156200024f57600080fd5b506200025e8682870162000145565b604086015190935090506001600160a01b03811681146200027e57600080fd5b809150509250925092565b600181811c908216806200029e57607f821691505b60208210811415620002c057634e487b7160e01b600052602260045260246000fd5b50919050565b61151080620002d66000396000f3fe608060405234801561001057600080fd5b50600436106100d05760003560e01c806301ffc9a7146100d557806306fdde03146100fd578063081812fc14610112578063095ea7b31461013d57806323b872dd1461015257806340c10f191461016557806342842e0e1461017857806342966c681461018b5780636352211e1461019e57806370a08231146101b157806395d89b41146101d2578063a22cb465146101da578063b88d4fde146101ed578063c4d66de814610200578063c87b56dd14610213578063e985e9c514610226575b600080fd5b6100e86100e3366004611008565b610239565b60405190151581526020015b60405180910390f35b61010561028b565b6040516100f4919061107d565b610125610120366004611090565b61031d565b6040516001600160a01b0390911681526020016100f4565b61015061014b3660046110c5565b610344565b005b6101506101603660046110ef565b610460565b6101506101733660046110c5565b610492565b6101506101863660046110ef565b6104b7565b610150610199366004611090565b6104d2565b6101256101ac366004611090565b61051a565b6101c46101bf36600461112b565b61054e565b6040519081526020016100f4565b6101056105d5565b6101506101e8366004611146565b6105e4565b6101506101fb366004611198565b6105ef565b61015061020e36600461112b565b610627565b610105610221366004611090565b610660565b6100e8610234366004611273565b6106d4565b60006001600160e01b031982166380ac58cd60e01b148061026a57506001600160e01b03198216635b5e139f60e01b145b8061028557506301ffc9a760e01b6001600160e01b03198316145b92915050565b60606000805461029a906112a6565b80601f01602080910402602001604051908101604052809291908181526020018280546102c6906112a6565b80156103135780601f106102e857610100808354040283529160200191610313565b820191906000526020600020905b8154815290600101906020018083116102f657829003601f168201915b5050505050905090565b600061032882610702565b506000908152600660205260409020546001600160a01b031690565b600061034f8261051a565b9050806001600160a01b0316836001600160a01b031614156103c35760405162461bcd60e51b815260206004820152602260248201527f4c50546f6b656e3a20617070726f76616c20746f2063757272656e74206f776e60448201526132b960f11b60648201526084015b60405180910390fd5b336001600160a01b03821614806103df57506103df81336106d4565b6104515760405162461bcd60e51b815260206004820152603e60248201527f4c50546f6b656e3a20617070726f76652063616c6c6572206973206e6f74207460448201527f6f6b656e206f776e6572206f7220617070726f76656420666f7220616c6c000060648201526084016103ba565b61045b8383610727565b505050565b61046b335b82610795565b6104875760405162461bcd60e51b81526004016103ba906112e1565b61045b8383836107f4565b6002546001600160a01b031633146104a957600080fd5b6104b382826109d2565b5050565b61045b838383604051806020016040528060008152506105ef565b6002546001600160a01b031633146104e957600080fd5b6104f233610465565b61050e5760405162461bcd60e51b81526004016103ba906112e1565b610517816109ec565b50565b60008061052683610a7d565b90506001600160a01b0381166102855760405162461bcd60e51b81526004016103ba9061132f565b60006001600160a01b0382166105b95760405162461bcd60e51b815260206004820152602a60248201527f4c50546f6b656e3a2061646472657373207a65726f206973206e6f742061207660448201526930b634b21037bbb732b960b11b60648201526084016103ba565b506001600160a01b031660009081526005602052604090205490565b60606001805461029a906112a6565b6104b3338383610a98565b6105f93383610795565b6106155760405162461bcd60e51b81526004016103ba906112e1565b61062184848484610b64565b50505050565b6003546001600160a01b0316331461063e57600080fd5b600280546001600160a01b0319166001600160a01b0392909216919091179055565b606061066b82610702565b600061068260408051602081019091526000815290565b905060008151116106a257604051806020016040528060008152506106cd565b806106ac84610b97565b6040516020016106bd929190611362565b6040516020818303038152906040525b9392505050565b6001600160a01b03918216600090815260076020908152604080832093909416825291909152205460ff1690565b61070b81610c33565b6105175760405162461bcd60e51b81526004016103ba9061132f565b600081815260066020526040902080546001600160a01b0319166001600160a01b038416908117909155819061075c8261051a565b6001600160a01b03167f8c5be1e5ebec7d5bd14f71427d1e84f3dd0314c0f7b2291e5b200ac8c7c3b92560405160405180910390a45050565b6000806107a18361051a565b9050806001600160a01b0316846001600160a01b031614806107c857506107c881856106d4565b806107ec5750836001600160a01b03166107e18461031d565b6001600160a01b0316145b949350505050565b826001600160a01b03166108078261051a565b6001600160a01b03161461086c5760405162461bcd60e51b815260206004820152602660248201527f4c50546f6b656e3a207472616e736665722066726f6d20696e636f72726563746044820152651037bbb732b960d11b60648201526084016103ba565b6001600160a01b0382166108d05760405162461bcd60e51b815260206004820152602560248201527f4c50546f6b656e3a207472616e7366657220746f20746865207a65726f206164604482015264647265737360d81b60648201526084016103ba565b6108dd8383836001610c50565b826001600160a01b03166108f08261051a565b6001600160a01b0316146109545760405162461bcd60e51b815260206004820152602560248201527f4552433732313a207472616e736665722066726f6d20696e636f72726563742060448201526437bbb732b960d91b60648201526084016103ba565b600081815260066020908152604080832080546001600160a01b03199081169091556001600160a01b0387811680865260058552838620805460001901905590871680865283862080546001019055868652600490945282852080549092168417909155905184936000805160206114bb83398151915291a4505050565b6104b3828260405180602001604052806000815250610cd8565b60006109f78261051a565b9050610a07816000846001610c50565b610a108261051a565b600083815260066020908152604080832080546001600160a01b03199081169091556001600160a01b0385168085526005845282852080546000190190558785526004909352818420805490911690555192935084926000805160206114bb833981519152908390a45050565b6000908152600460205260409020546001600160a01b031690565b816001600160a01b0316836001600160a01b03161415610af75760405162461bcd60e51b815260206004820152601a60248201527926282a37b5b2b71d1030b8383937bb32903a379031b0b63632b960311b60448201526064016103ba565b6001600160a01b03838116600081815260076020908152604080832094871680845294825291829020805460ff191686151590811790915591519182527f17307eab39ab6107e8899845ad3d59bd9653f200f220920489ca2b5937696c31910160405180910390a3505050565b610b6f8484846107f4565b610b7b84848484610d0b565b6106215760405162461bcd60e51b81526004016103ba90611391565b60606000610ba483610e09565b60010190506000816001600160401b03811115610bc357610bc3611182565b6040519080825280601f01601f191660200182016040528015610bed576020820181803683370190505b5090508181016020015b600019016f181899199a1a9b1b9c1cb0b131b232b360811b600a86061a8153600a8504945084610c2657610c2b565b610bf7565b509392505050565b600080610c3f83610a7d565b6001600160a01b0316141592915050565b6001811115610621576001600160a01b03841615610c96576001600160a01b03841660009081526005602052604081208054839290610c909084906113fa565b90915550505b6001600160a01b03831615610621576001600160a01b03831660009081526005602052604081208054839290610ccd908490611411565b909155505050505050565b610ce28383610edf565b610cef6000848484610d0b565b61045b5760405162461bcd60e51b81526004016103ba90611391565b60006001600160a01b0384163b15610dfe57604051630a85bd0160e11b81526001600160a01b0385169063150b7a0290610d4f903390899088908890600401611429565b6020604051808303816000875af1925050508015610d8a575060408051601f3d908101601f19168201909252610d8791810190611466565b60015b610de4573d808015610db8576040519150601f19603f3d011682016040523d82523d6000602084013e610dbd565b606091505b508051610ddc5760405162461bcd60e51b81526004016103ba90611391565b805181602001fd5b6001600160e01b031916630a85bd0160e11b1490506107ec565b506001949350505050565b60008072184f03e93ff9f4daa797ed6e38ed64bf6a1f0160401b8310610e485772184f03e93ff9f4daa797ed6e38ed64bf6a1f0160401b830492506040015b6904ee2d6d415b85acef8160201b8310610e72576904ee2d6d415b85acef8160201b830492506020015b662386f26fc100008310610e9057662386f26fc10000830492506010015b6305f5e1008310610ea8576305f5e100830492506008015b6127108310610ebc57612710830492506004015b60648310610ece576064830492506002015b600a83106102855760010192915050565b6001600160a01b038216610f3f5760405162461bcd60e51b815260206004820152602160248201527f4c50546f6b656e3a206d696e7420746f20746865207a65726f206164647265736044820152607360f81b60648201526084016103ba565b610f4881610c33565b15610f655760405162461bcd60e51b81526004016103ba90611483565b610f73600083836001610c50565b610f7c81610c33565b15610f995760405162461bcd60e51b81526004016103ba90611483565b6001600160a01b038216600081815260056020908152604080832080546001019055848352600490915280822080546001600160a01b0319168417905551839291906000805160206114bb833981519152908290a45050565b6001600160e01b03198116811461051757600080fd5b60006020828403121561101a57600080fd5b81356106cd81610ff2565b60005b83811015611040578181015183820152602001611028565b838111156106215750506000910152565b60008151808452611069816020860160208601611025565b601f01601f19169290920160200192915050565b6020815260006106cd6020830184611051565b6000602082840312156110a257600080fd5b5035919050565b80356001600160a01b03811681146110c057600080fd5b919050565b600080604083850312156110d857600080fd5b6110e1836110a9565b946020939093013593505050565b60008060006060848603121561110457600080fd5b61110d846110a9565b925061111b602085016110a9565b9150604084013590509250925092565b60006020828403121561113d57600080fd5b6106cd826110a9565b6000806040838503121561115957600080fd5b611162836110a9565b91506020830135801515811461117757600080fd5b809150509250929050565b634e487b7160e01b600052604160045260246000fd5b600080600080608085870312156111ae57600080fd5b6111b7856110a9565b93506111c5602086016110a9565b92506040850135915060608501356001600160401b03808211156111e857600080fd5b818701915087601f8301126111fc57600080fd5b81358181111561120e5761120e611182565b604051601f8201601f19908116603f0116810190838211818310171561123657611236611182565b816040528281528a602084870101111561124f57600080fd5b82602086016020830137600060208483010152809550505050505092959194509250565b6000806040838503121561128657600080fd5b61128f836110a9565b915061129d602084016110a9565b90509250929050565b600181811c908216806112ba57607f821691505b602082108114156112db57634e487b7160e01b600052602260045260246000fd5b50919050565b6020808252602e908201527f4c50546f6b656e3a2063616c6c6572206973206e6f7420746f6b656e206f776e60408201526d195c881bdc88185c1c1c9bdd995960921b606082015260800190565b6020808252601990820152781314151bdad95b8e881a5b9d985b1a59081d1bdad95b881251603a1b604082015260600190565b60008351611374818460208801611025565b835190830190611388818360208801611025565b01949350505050565b60208082526033908201527f4c50546f6b656e3a207472616e7366657220746f206e6f6e204552433732315260408201527232b1b2b4bb32b91034b6b83632b6b2b73a32b960691b606082015260800190565b634e487b7160e01b600052601160045260246000fd5b60008282101561140c5761140c6113e4565b500390565b60008219821115611424576114246113e4565b500190565b6001600160a01b038581168252841660208201526040810183905260806060820181905260009061145c90830184611051565b9695505050505050565b60006020828403121561147857600080fd5b81516106cd81610ff2565b6020808252601d908201527f4c50546f6b656e3a20746f6b656e20616c7265616479206d696e74656400000060408201526060019056feddf252ad1be2c89b69c2b068fc378daa952ba7f163c4a11628f55a4df523b3efa2646970667358221220dcd4107ecdae1c68fc5ddb541ebfe4982a8137784f4f83acad9aad1b16295bee64736f6c634300080a003360a06040523480156200001157600080fd5b5060405162003b2b38038062003b2b83398101604081905262000034916200019f565b6001600160a01b0385166200004857600080fd5b6001600160a01b03858116608052600180546001600160a01b031990811687841690811790925560028054821687851617905560188054821693861693909317909255601980549092161790556200009f620000e0565b6001600160801b038116601655600a670de0b6b3a764000004601755620000d5600a6000620000ec602090811b620020d917901c565b50505050506200021f565b620000ea62000159565b565b600881901c601082901c600160ff84161b846002600085815291016020526040902080549091179055600160ff831681901b908590600084815291016020526040812080549092179091556001821b90859060008080529101602052604090208054909117905550505050565b600054156200017b5760405163d80075c160e01b815260040160405180910390fd5b6001600055565b80516001600160a01b03811681146200019a57600080fd5b919050565b600080600080600060a08688031215620001b857600080fd5b620001c38662000182565b9450620001d36020870162000182565b9350620001e36040870162000182565b9250620001f36060870162000182565b60808701519092506001600160801b03811681146200021157600080fd5b809150509295509295909350565b6080516138e262000249600039600081816102fb01528181610489015261093701526138e26000f3fe608060405234801561001057600080fd5b50600436106101075760003560e01c80630abe96881461010c5780630ae645bc14610153578063150b7a021461016957806316dc165b146101a05780631708b413146101c05780631b05b83e146101d55780633357fcb1146102205780635728ad49146102735780635fcbd2851461028657806398c7adf314610299578063a1af5b9a146102bd578063a3d055a7146102c5578063a582cdaa146102d8578063b7d19fc4146102e3578063c45a0155146102f6578063c88dd2711461031d578063d1ad1fae1461033d578063d8db47a714610350578063fcd3533c14610363578063fcee45f414610376578063fd31c4ab14610396575b600080fd5b61013961011a366004613333565b62ffffff16600090815260096020526040902080546001909101549091565b604080519283526020830191909152015b60405180910390f35b61015b6103a9565b60405190815260200161014a565b610187610177366004613383565b630a85bd0160e11b949350505050565b6040516001600160e01b0319909116815260200161014a565b6001546101b3906001600160a01b031681565b60405161014a9190613462565b6101d36101ce3660046134c1565b61047e565b005b6003546004546001600160881b03600160301b830481169291169062ffffff80821691630100000090041660408051948552602085019390935291830152606082015260800161014a565b61025761022e36600461353a565b60009081526012602052604090205462ffffff63010000008204811692600160301b9092041690565b6040805162ffffff93841681529290911660208301520161014a565b61015b610281366004613553565b6104d9565b6018546101b3906001600160a01b031681565b601654601754601c546040805193845260208401929092529082015260600161014a565b61015b610906565b6101396102d3366004613583565b6109fa565b600554600654610139565b6002546101b3906001600160a01b031681565b6101b37f000000000000000000000000000000000000000000000000000000000000000081565b61015b61032b36600461353a565b60009081526013602052604090205490565b61013961034b3660046135e7565b610fb6565b6101d361035e366004613553565b6115f0565b610139610371366004613553565b611a99565b61015b61038436600461353a565b60009081526010602052604090205490565b61015b6103a4366004613333565b6120c8565b60006001600054146103ce5760405163802d9bf160e01b815260040160405180910390fd5b50600260009081556007805490829055905b601a548110156104755761046d601a82815481106104005761040061367b565b9060005260206000200160009054906101000a90046001600160a01b03166001670de0b6b3a764000085601b868154811061043d5761043d61367b565b9060005260206000200154028161045657610456613691565b6002546001600160a01b0316939291900403612146565b6001016103e0565b50600160005590565b336001600160a01b037f000000000000000000000000000000000000000000000000000000000000000016146104b357600080fd5b6104bf601a85856131f7565b506104cc601b838361325a565b505050601c929092555050565b60006001600054146104fe5760405163802d9bf160e01b815260040160405180910390fd5b60026000818155604080516101008101825260035462ffffff80821680845263010000008304909116602080850191909152600160301b9092046001600160881b0390811684860152600454166060840152600554608084015260065460a084015260075460c084015260085460e08401528085526009909152828420835180850194859052929591949390919082845b81548152602001906001019080831161058f57505050505090506000816001600281106105be576105be61367b565b6020020151116105cd57600080fd5b60006105d8836121f3565b90506105ea601c546016540182612219565b81039450600080600061060588601654601754601c54612264565b62ffffff8916600090815260156020908152604080832080548251818502810185019093528083529699509497509295509093610676939183018282801561066c57602002820191906000526020600020905b815481526020019060010190808311610658575b5050505050612287565b62ffffff8816600090815260146020526040812080549293509091839081106106a1576106a161367b565b90600052602060002001549050600160009054906101000a90046001600160a01b03166001600160a01b03166342842e0e8c308f6040518463ffffffff1660e01b81526004016106f3939291906136a7565b600060405180830381600087803b15801561070d57600080fd5b505af1158015610721573d6000803e3d6000fd5b5050505061073a8189670de0b6b3a764000060016122ff565b5060008181526011602090815260408083208054600181018255908452828420018f905583835260128252808320805465ffffff000000198116600160301b820462ffffff908116630100000093849004821603169091021790556010909152902080548587030190556107af89868661240d565b60c089018051840190526107cf89886001670de0b6b3a76400008a612432565b8651670de0b6b3a764000014156107f0576107f0600d62ffffff8a166120d9565b602087015161080957610809600a62ffffff8a166124c8565b610816600a600d8b61254d565b62ffffff9081166020808d01919091529181168b528916600090815260099091526040902061084790886002613295565b5088516003805460208c015160408d015162ffffff94851665ffffffffffff19909316929092176301000000949091169390930292909217600160301b600160b81b031916600160301b6001600160881b039384160217905560608a0151600480546001600160881b03191691909216179055608089015160055560a089015160065560c089015160075560e08901516008556002546108f1906001600160a01b03168c8c612146565b50506001600055509598975050505050505050565b600060016000541461092b5760405163802d9bf160e01b815260040160405180910390fd5b600260008190555060007f00000000000000000000000000000000000000000000000000000000000000006001600160a01b031663469048406040518163ffffffff1660e01b8152600401602060405180830381865afa158015610993573d6000803e3d6000fd5b505050506040513d601f19601f820116820180604052508101906109b791906136cb565b9050336001600160a01b038216146109ce57600080fd5b600680546005805482900390556000909155600254909250610475906001600160a01b03168284612146565b600080600160005414610a205760405163802d9bf160e01b815260040160405180910390fd5b60026000818155604080516101008101825260035462ffffff8082168352630100000082041660208301526001600160881b03600160301b9091048116928201929092526004549091166060820152600554608082015260065460a082015260075460c082015260085460e08201819052909282918291900615610ab05760e08401805160010190819052610abe565b60e084018051600201908190525b5060e08401516018546040516340c10f1960e01b81526001600160a01b03909116906340c10f1990610af6908b9085906004016136e8565b600060405180830381600087803b158015610b1057600080fd5b505af1158015610b24573d6000803e3d6000fd5b50505050610b648a8a808060200260200160405190810160405280939291908181526020018383602002808284376000920191909152506125aa92505050565b610b6d57600080fd5b60005b89811015610c3657601460008c8c84818110610b8e57610b8e61367b565b9050602002016020810190610ba39190613333565b62ffffff168152602080820192909252604001600090812080546001810182559082529181209091018390556015908c8c84818110610be457610be461367b565b9050602002016020810190610bf99190613333565b62ffffff168152602080820192909252604001600090812080546001818101835591835292909120670de0b6b3a764000092019190915501610b70565b5089896000818110610c4a57610c4a61367b565b9050602002016020810190610c5f9190613333565b600082815260126020908152604091829020805462ffffff191662ffffff949094169390931790925580518b830280820184019092528b8152610cbf9290918d918d91829185019084908082843760009201919091525061268c92505050565b6000828152601260205260409020805462ffffff60301b1916600160301b62ffffff938416810291909117918290559004168a8a6000198101818110610d0757610d0761367b565b9050602002016020810190610d1c9190613333565b6000838152601260205260409020805462ffffff939092019290921663010000000265ffffff00000019909116178155600101899055606085015160c08601516080870151610d8b926001600160881b031691610d7891613717565b6002546001600160a01b031691906126e5565b602086015190945062ffffff168a8a610da560018261372f565b818110610db457610db461367b565b9050602002016020810190610dc99190613333565b62ffffff16111580610de25750602085015162ffffff16155b610deb57600080fd5b60005b89811015610ef5578a8a82818110610e0857610e0861367b565b9050602002016020810190610e1d9190613333565b62ffffff81166000908152600960205260408082208151808301928390529397509192919060029082845b815481526020019060010190808311610e48575050505050905080600160028110610e7557610e7561367b565b6020020151610e8e57610e8e600a62ffffff87166120d9565b6000610e99866121f3565b602083018051820190529050610eae81612770565b606089018051919091016001600160881b0316905262ffffff8616600090815260096020526040902094810194610ee790836002613295565b505050806001019050610dee565b5083821115610f0357600080fd5b610f10600a600d8761254d565b62ffffff90811660208801819052911680875260038054604089015165ffffffffffff19909116909217630100000090930292909217600160301b600160b81b031916600160301b6001600160881b0392831602179091556060860151600480546001600160881b03191691909216179055608085015160055560a085015160065560c085015160075560e0909401516008556001600055989297509195505050505050565b600080600160005414610fdc5760405163802d9bf160e01b815260040160405180910390fd5b60026000558615801590610fef57508685145b610ff857600080fd5b604080516101008101825260035462ffffff8082168352630100000082041660208301526001600160881b03600160301b9091048116928201929092526004549091166060820152600554608082015260065460a082015260075460c082015260085460e082018190528415159061107290600290613746565b15146110965760028160e00181815161108b9190613717565b9150818152506110b0565b60018160e0018181516110a99190613717565b9150818152505b5060e08101516018546040516340c10f1960e01b81526001600160a01b03909116906340c10f19906110e890899085906004016136e8565b600060405180830381600087803b15801561110257600080fd5b505af1158015611116573d6000803e3d6000fd5b505050506111568a8a808060200260200160405190810160405280939291908181526020018383602002808284376000920191909152506125aa92505050565b61115f57600080fd5b898960008181106111725761117261367b565b90506020020160208101906111879190613333565b6000828152601260205260408120805462ffffff191662ffffff93909316929092179091558a908a90816111bd576111bd61367b565b90506020020160208101906111d29190613333565b6012600083815260200190815260200160002060000160036101000a81548162ffffff021916908362ffffff1602179055506112408a8a8080602002602001604051908101604052809392919081815260200183836020028082843760009201919091525061268c92505050565b6000828152601260205260408120805462ffffff93909316600160301b0262ffffff60301b1990931692909217825560019091018a90555b878110156113e9576001546001600160a01b03166342842e0e88308c8c868181106112a5576112a561367b565b905060200201356040518463ffffffff1660e01b81526004016112ca939291906136a7565b600060405180830381600087803b1580156112e457600080fd5b505af11580156112f8573d6000803e3d6000fd5b5050505081601360008b8b858181106113135761131361367b565b90506020020135815260200190815260200160002081905550601460008c8c848181106113425761134261367b565b90506020020160208101906113579190613333565b62ffffff168152602080820192909252604001600090812080546001810182559082529181209091018390556015908c8c848181106113985761139861367b565b90506020020160208101906113ad9190613333565b62ffffff1681526020808201929092526040016000908120805460018101825590825291812090910155806113e18161375a565b915050611278565b50600081815260116020526040902061140390898961325a565b50815162ffffff168a8a60008161141c5761141c61367b565b90506020020160208101906114319190613333565b62ffffff16101561144157600080fd5b6000805b8a81101561153c578b8b8281811061145f5761145f61367b565b90506020020160208101906114749190613333565b62ffffff81166000908152600960205260408082208151808301928390529395509192919060029082845b81548152602001906001019080831161149f5750505050509050806000600281106114cc576114cc61367b565b60200201516114e5576114e5600d62ffffff85166120d9565b8051670de0b6b3a764000090810182526114fe90612770565b60408681018051929092016001600160881b031690915262ffffff8416600090815260096020522061153290826002613295565b5050600101611445565b5061154a600a600d8561254d565b62ffffff90811660208601819052911680855260038054604087015165ffffffffffff19909116909217630100000090930292909217600160301b600160b81b031916600160301b6001600160881b0392831602179091556060840151600480546001600160881b0319169190921617905550608082015160055560a082015160065560c082015160075560e09091015160085560016000559698969750505050505050565b6001600054146116135760405163802d9bf160e01b815260040160405180910390fd5b60026000908155604080516101008101825260035462ffffff80821683526301000000820416602080840191909152600160301b9091046001600160881b0390811683850152600454166060830152600554608083015260065460a083015260075460c083015260085460e0830152858452601381528284205480855260118252838520805485518185028101850190965280865293959194919391929091908301828280156116e257602002820191906000526020600020905b8154815260200190600101908083116116ce575b50505060008581526012602052604090819020546001549151632142170760e11b81529495506301000000900462ffffff16936001600160a01b0390911692506342842e0e915061173b90309089908b906004016136a7565b600060405180830381600087803b15801561175557600080fd5b505af1158015611769573d6000803e3d6000fd5b50505060008481526012602052604081208054630100000080820462ffffff908116600160301b8404821601160265ffffff0000001990911617905590506117b2600285613746565b600114905060006117c384896127a2565b90506117cf84826127f4565b600086815260116020908152604090912082516117f293919291909101906132c3565b50600088815260136020908152604080832083905562ffffff8616835260099091528082208151808301928390529160029082845b8154815260200190600101908083116118275750505050509050670de0b6b3a76400008160006002811061185d5761185d61367b565b6020020151141561187857611878600d62ffffff86166124c8565b602081015161189157611891600a62ffffff86166120d9565b600061189c856121f3565b905060008060006118b584601654601754601c54612264565b9250925092506119058b606001516001600160881b03168c60c001518d6080015101600260009054906101000a90046001600160a01b03166001600160a01b03166126e59092919063ffffffff16565b8184860101111561191557600080fd5b60c08b0180518201905286156119685760008a8152601060205260409020805484860184810390910190915561194d908c908461240d565b6119638b86600080670de0b6b3a7640000612432565b6119b6565b60008a815260106020526040902080548385030190556119898b848461240d565b61199f8b86600087670de0b6b3a7640000612432565b6119b48a89670de0b6b3a764000060006122ff565b505b6119c3600a600d8d61254d565b62ffffff9081166020808f01919091529181168d52891660009081526009909152604090206119f490866002613295565b505089516003805460208d015160408e015162ffffff94851665ffffffffffff19909316929092176301000000949091169390930292909217600160301b600160b81b031916600160301b6001600160881b039384160217905560608b0151600480546001600160881b03191691909216179055505050608087015160055550505060a084015160065550505060c081015160075560e0015160085550506001600055565b600080600160005414611abf5760405163802d9bf160e01b815260040160405180910390fd5b60026000908155604080516101008101825260035462ffffff80821683526301000000820416602080840191909152600160301b9091046001600160881b0390811683850152600454166060830152600554608083015260065460a083015260075460c083015260085460e0830152878452601181528284208054845181840281018401909552808552929493929091830182828015611b7e57602002820191906000526020600020905b815481526020019060010190808311611b6a575b5050505050905060005b8151811015611c515760015482516001600160a01b03909116906342842e0e9030908990869086908110611bbe57611bbe61367b565b60200260200101516040518463ffffffff1660e01b8152600401611be4939291906136a7565b600060405180830381600087803b158015611bfe57600080fd5b505af1158015611c12573d6000803e3d6000fd5b5050505060136000838381518110611c2c57611c2c61367b565b6020026020010151815260200190815260200160002060009055806001019050611b88565b5060008681526012602052604090206001810154905462ffffff80821691600160301b900416606080846001600160401b03811115611c9257611c9261336d565b604051908082528060200260200182016040528015611cbb578160200160208202803683370190505b509150846001600160401b03811115611cd657611cd661336d565b604051908082528060200260200182016040528015611cff578160200160208202803683370190505b50905060005b85811015611dae5760008482028601905080848381518110611d2957611d2961367b565b602002602001019062ffffff16908162ffffff1681525050611d4b8d826128be565b5087518703821015611d80576000838381518110611d6b57611d6b61367b565b91151560209283029190910190910152611da5565b6001838381518110611d9457611d9461367b565b911515602092830291909101909101525b50600101611d05565b5060008b8152601160205260408120611dc6916132fd565b60008b815260126020526040812080546001600160481b03191681556001018190555b8251811015611f56576000838281518110611e0657611e0661367b565b60209081029190910181015162ffffff81166000908152600990925260408083208151808301928390529294509060029082845b815481526020019060010190808311611e3a5750505050509050838381518110611e6657611e6661367b565b602002602001015115611ec8578051670de0b6b3a763ffff19018152670de0b6b3a76400009b8c019b611e9890612770565b60408b018051919091036001600160881b031690528051611ec357611ec3600d62ffffff84166124c8565b611f28565b60028e06611f28576000611edb836121f3565b60208301805182900390529b8c019b9050611ef581612770565b60608c018051919091036001600160881b031690528160016020020151611f2657611f26600a62ffffff85166124c8565b505b62ffffff82166000908152600960205260409020611f4890826002613295565b505050806001019050611de9565b50611f64600a600d8961254d565b62ffffff90811660208a810182905292909116808a52600380546040808d015165ffffffffffff19909216909317630100000090940293909317600160301b600160b81b031916600160301b6001600160881b039485160217905560608a0151600480546001600160881b0319169190931617909155608089015160055560a089015160065560c089015160075560e089015160085560008d81526010909252902054801561203c5760008c81526010602052604081205560058054829003905560025461203c906001600160a01b03168c83612146565b600254612053906001600160a01b03168c8b612146565b601854604051630852cd8d60e31b8152600481018e90526001600160a01b03909116906342966c6890602401600060405180830381600087803b15801561209957600080fd5b505af11580156120ad573d6000803e3d6000fd5b50505050505050505050505060016000819055509250929050565b60006120d3826121f3565b92915050565b600881901c601082901c600160ff84161b846002600085815291016020526040902080549091179055600160ff831681901b908590600084815291016020526040812080549092179091556001821b90859060008080529101602052604090208054909117905550505050565b80156121ee57600063a9059cbb60e01b83836040516024016121699291906136e8565b60408051601f198184030181529190526020810180516001600160e01b03166001600160e01b031990931692909217909152905060006121a98583612a59565b9050600081511180156121cd5750808060200190518101906121cb9190613775565b155b156121eb5760405163197138bd60e11b815260040160405180910390fd5b50505b505050565b60006122038262ffffff16612b24565b90506120d381670de0b6b3a76400006080612b6c565b60008061222e84670de0b6b3a7640000613717565b90508060018161223e8787613792565b6122489190613717565b612252919061372f565b61225c91906137b1565b949350505050565b600019670de0b6b3a7640000938502849004019491850283900493029190910490565b6000805b82518110156122f5578281815181106122a6576122a661367b565b60200260200101516000141580156122d8575060018382815181106122cd576122cd61367b565b602002602001015110155b156122e35792915050565b806122ed8161375a565b91505061228b565b5060001992915050565b62ffffff831660009081526014602090815260408083208054825181850281018501909352808352849361236a9392919083018282801561235f57602002820191906000526020600020905b81548152602001906001019080831161234b575b5050505050876127a2565b62ffffff8616600090815260156020526040812080549293509091839081106123955761239561367b565b906000526020600020015490508315156001151514156123c657848110156123bc57600080fd5b84810392506123cc565b84810192505b62ffffff861660009081526015602052604090208054849190849081106123f5576123f561367b565b90600052602060002001819055505050949350505050565b818360800181815161241f9190613717565b90525060a0909201805190920190915250565b821561248057835182908590612449908390613717565b905250602084018051829003905260408501805183016001600160881b0390811690915260608601805183900390911690526121eb565b81846001602002018181516124959190613717565b90525083518190039093526040840180516001600160881b03949003841690526060909301805190930190911690915250565b600881901c600081815260028401602052604090208054600160ff85161b600019181690819055806125475750601082901c600081815260018581016020526040909120805460ff85169290921b600019189091169081905590816121eb5760008080526020869052604090208054600190921b600019189190911690555b50505050565b60008082604001516001600160881b03166000146125905761257184600080612bfb565b9050612589856125828360016137c5565b6001612bfb565b91506125a2565b61259f8562ffffff6001612bfb565b91505b935093915050565b60006002825110156125be57506001919050565b6000826000815181106125d3576125d361367b565b6020026020010151836001815181106125ee576125ee61367b565b602002602001015161260091906137ec565b905060025b83518110156126825762ffffff82168461262060018461372f565b815181106126305761263061367b565b602002602001015185838151811061264a5761264a61367b565b602002602001015161265c91906137ec565b62ffffff1614612670575060009392505050565b8061267a8161375a565b915050612605565b5060019392505050565b60006002825110156126a057506000919050565b816000815181106126b3576126b361367b565b6020026020010151826001815181106126ce576126ce61367b565b60200260200101516120d391906137ec565b919050565b6040516370a0823160e01b81526000908383019081906001600160a01b038716906370a082319061271a903090600401613462565b602060405180830381865afa158015612737573d6000803e3d6000fd5b505050506040513d601f19601f8201168201806040525081019061275b9190613810565b612765919061372f565b9150505b9392505050565b806001600160881b03811681146126e05760405163bdba3c9f60e01b8152600481018390526024015b60405180910390fd5b6000805b83518110156127e957828482815181106127c2576127c261367b565b602002602001015114156127d75790506120d3565b806127e18161375a565b9150506127a6565b506000199392505050565b6060600060018451612806919061372f565b6001600160401b0381111561281d5761281d61336d565b604051908082528060200260200182016040528015612846578160200160208202803683370190505b5090506000805b85518110156128b4578481146128a25785818151811061286f5761286f61367b565b60200260200101518383815181106128895761288961367b565b60209081029190910101528161289e8161375a565b9250505b806128ac8161375a565b91505061284d565b5090949350505050565b62ffffff81166000908152601460209081526040808320805482518185028101850190935280835284936129299392919083018282801561291e57602002820191906000526020600020905b81548152602001906001019080831161290a575b5050505050856127a2565b62ffffff8416600090815260146020908152604091829020805483518184028101840190945280845293945061299593909183018282801561298a57602002820191906000526020600020905b815481526020019060010190808311612976575b5050505050826127f4565b62ffffff8416600090815260146020908152604090912082516129be93919291909101906132c3565b5062ffffff83166000908152601560209081526040918290208054835181840281018401909452808452612a25939283018282801561298a5760200282019190600052602060002090815481526020019060010190808311612976575050505050826127f4565b62ffffff841660009081526015602090815260409091208251612a4e93919291909101906132c3565b506001949350505050565b6060600080846001600160a01b031684604051612a769190613829565b6000604051808303816000865af19150503d8060008114612ab3576040519150601f19603f3d011682016040523d82523d6000602084013e612ab8565b606091505b50915091508115612afd578051158015612ada57506001600160a01b0385163b155b15612af857604051635d97df8960e01b815260040160405180910390fd5b61225c565b8051612b1c57604051632407429160e01b815260040160405180910390fd5b805181602001fd5b600062ffffff821115612b4a5760405163163d8bab60e21b815260040160405180910390fd5b627fffff198201612769700100068db8bac710cb295e9e1b089a027582612dbb565b600060ff821115612b9357604051630b72ecf560e41b815260048101839052602401612799565b600080612ba0868661301d565b9150915081600014612bb25781841c92505b8015612bf2576001841b8110612be557604051633d90990f60e01b81526004810182905260248101859052604401612799565b836101000381901b830192505b50509392505050565b61ffff600883901c1691600090819060ff16838015612c1957508015155b80612c2e575083158015612c2e57508060ff14155b15612c795762ffffff851660009081526002870160205260409020549150612c5782828661303c565b90506000198114612c795763ffffff00600886901b1681015b92505050612769565b5061ffff600885901c169360ff16838015612c9357508015155b80612ca8575083158015612ca857508060ff14155b15612d255762ffffff851660009081526001870160205260409020549150612cd182828661303c565b90506000198114612d255762ffffff60089590951b63ffffff0016810194851660009081526002870160205260409020549150612c7085612d12848761306b565b60ff1660089190911b63ffffff00160190565b6000808052602087905260409020549150612d4182868661303c565b9050600019811415612d66576040516310d6486160e01b815260040160405180910390fd5b60008181526001870160205260409020549150612d8781612d12848761306b565b945085600262ffffff87166000908152910160205260409020549150612db185612d12848761306b565b9695505050505050565b6000808083612dd35750600160801b91506120d39050565b50826000811215612de5579015906000035b62100000811015612fd557600160801b9250846001600160801b03811115612e0f57911591600019045b6001821615612e205792830260801c925b800260801c6002821615612e365792830260801c925b800260801c6004821615612e4c5792830260801c925b800260801c6008821615612e625792830260801c925b800260801c6010821615612e785792830260801c925b800260801c6020821615612e8e5792830260801c925b800260801c6040821615612ea45792830260801c925b8002608090811c90821615612ebb5792830260801c925b800260801c610100821615612ed25792830260801c925b800260801c610200821615612ee95792830260801c925b800260801c610400821615612f005792830260801c925b800260801c610800821615612f175792830260801c925b800260801c611000821615612f2e5792830260801c925b800260801c612000821615612f455792830260801c925b800260801c614000821615612f5c5792830260801c925b800260801c618000821615612f735792830260801c925b800260801c62010000821615612f8b5792830260801c925b800260801c62020000821615612fa35792830260801c925b800260801c62040000821615612fbb5792830260801c925b800260801c62080000821615612fd35792830260801c925b505b82612ffd57604051630e9c7d6160e31b81526004810186905260248101859052604401612799565b816130085782613014565b613014836000196137b1565b95945050505050565b6000806000198385098385029250828110838203039150509250929050565b60008161305757612af884613052856001613864565b613089565b61225c84613066600186613889565b6130ad565b6000816130805761307b836130d3565b612769565b61276983613169565b60ff81169190911c90600082156122f557816130a4846130d3565b0160ff16612769565b60ff8181031691821b9160009083156127e957806130ca85613169565b60ff160361225c565b6000608082901b156130e75750608090811b905b604082901b156130f957604091821b91015b602082901b1561310b57602091821b91015b601082901b1561311d57601091821b91015b600882901b1561312f57600891821b91015b600482901b1561314157600491821b91015b600282901b1561315357600291821b91015b600182901b15613161576001015b60ff03919050565b6000600160801b821061317e5750608090811c905b600160401b821061319157604091821c91015b600160201b82106131a457602091821c91015b6201000082106131b657601091821c91015b61010082106131c757600891821c91015b601082106131d757600491821c91015b600482106131e757600291821c91015b600282106126e057600101919050565b82805482825590600052602060002090810192821561324a579160200282015b8281111561324a5781546001600160a01b0319166001600160a01b03843516178255602090920191600190910190613217565b5061325692915061331e565b5090565b82805482825590600052602060002090810192821561324a579160200282015b8281111561324a57823582559160200191906001019061327a565b826002810192821561324a579160200282015b8281111561324a5782518255916020019190600101906132a8565b82805482825590600052602060002090810192821561324a579160200282018281111561324a5782518255916020019190600101906132a8565b508054600082559060005260206000209081019061331b919061331e565b50565b5b80821115613256576000815560010161331f565b60006020828403121561334557600080fd5b813562ffffff8116811461276957600080fd5b6001600160a01b038116811461331b57600080fd5b634e487b7160e01b600052604160045260246000fd5b6000806000806080858703121561339957600080fd5b84356133a481613358565b935060208501356133b481613358565b92506040850135915060608501356001600160401b03808211156133d757600080fd5b818701915087601f8301126133eb57600080fd5b8135818111156133fd576133fd61336d565b604051601f8201601f19908116603f011681019083821181831017156134255761342561336d565b816040528281528a602084870101111561343e57600080fd5b82602086016020830137600060208483010152809550505050505092959194509250565b6001600160a01b0391909116815260200190565b60008083601f84011261348857600080fd5b5081356001600160401b0381111561349f57600080fd5b6020830191508360208260051b85010111156134ba57600080fd5b9250929050565b6000806000806000606086880312156134d957600080fd5b8535945060208601356001600160401b03808211156134f757600080fd5b61350389838a01613476565b9096509450604088013591508082111561351c57600080fd5b5061352988828901613476565b969995985093965092949392505050565b60006020828403121561354c57600080fd5b5035919050565b6000806040838503121561356657600080fd5b82359150602083013561357881613358565b809150509250929050565b60008060006040848603121561359857600080fd5b83356001600160401b038111156135ae57600080fd5b6135ba86828701613476565b90945092505060208401356135ce81613358565b809150509250925092565b801515811461331b57600080fd5b6000806000806000806080878903121561360057600080fd5b86356001600160401b038082111561361757600080fd5b6136238a838b01613476565b9098509650602089013591508082111561363c57600080fd5b5061364989828a01613476565b909550935050604087013561365d81613358565b9150606087013561366d816135d9565b809150509295509295509295565b634e487b7160e01b600052603260045260246000fd5b634e487b7160e01b600052601260045260246000fd5b6001600160a01b039384168152919092166020820152604081019190915260600190565b6000602082840312156136dd57600080fd5b815161276981613358565b6001600160a01b03929092168252602082015260400190565b634e487b7160e01b600052601160045260246000fd5b6000821982111561372a5761372a613701565b500190565b60008282101561374157613741613701565b500390565b60008261375557613755613691565b500690565b600060001982141561376e5761376e613701565b5060010190565b60006020828403121561378757600080fd5b8151612769816135d9565b60008160001904831182151516156137ac576137ac613701565b500290565b6000826137c0576137c0613691565b500490565b600062ffffff8083168185168083038211156137e3576137e3613701565b01949350505050565b600062ffffff8381169083168181101561380857613808613701565b039392505050565b60006020828403121561382257600080fd5b5051919050565b6000825160005b8181101561384a5760208186018101518583015201613830565b81811115613859576000828501525b509190910192915050565b600060ff821660ff84168060ff0382111561388157613881613701565b019392505050565b600060ff821660ff8416808210156138a3576138a3613701565b9003939250505056fea26469706673582212206f5f98368026dae8c705343c5f2aeb2432572e79558182ba0f50ceb7a66056db64736f6c634300080a0033a26469706673582212200a773047a186372586c0d93962099946f2c46e9b5a848283e818e2d786527ebb64736f6c634300080a0033",
			"opcodes": "PUSH1 0xA0 PUSH1 0x40 MSTORE CALLVALUE DUP1 ISZERO PUSH2 0x10 JUMPI PUSH1 0x0 DUP1 REVERT JUMPDEST POP PUSH1 0x40 MLOAD PUSH2 0x610A CODESIZE SUB DUP1 PUSH2 0x610A DUP4 CODECOPY DUP2 ADD PUSH1 0x40 DUP2 SWAP1 MSTORE PUSH2 0x2F SWAP2 PUSH2 0xE6 JUMP JUMPDEST ADDRESS PUSH1 0x80 MSTORE PUSH1 0x0 DUP1 SLOAD PUSH1 0x1 PUSH1 0x1 PUSH1 0xA0 SHL SUB NOT AND CALLER SWAP1 DUP2 OR DUP3 SSTORE PUSH1 0x40 MLOAD SWAP1 SWAP2 SWAP1 PUSH32 0xB532073B38C83145E3E5135377A08BF9AAB55BC0FD7C1179CD4FB995D2A5159C SWAP1 DUP3 SWAP1 LOG3 PUSH1 0x1 DUP1 SLOAD PUSH1 0x1 PUSH1 0x1 PUSH1 0x80 SHL SUB NOT AND PUSH1 0x1 PUSH1 0x1 PUSH1 0x80 SHL SUB DUP6 AND SWAP1 DUP2 OR SWAP1 SWAP2 SSTORE PUSH1 0x40 MLOAD PUSH1 0x0 SWAP1 PUSH32 0x26422B40DF1058C69BADA67C7C42ADE33C6D1AE80778F5A65DEF8D6E57D7523 SWAP1 DUP3 SWAP1 LOG3 PUSH1 0x2 SWAP2 SWAP1 SWAP2 SSTORE PUSH1 0x3 DUP1 SLOAD PUSH1 0x1 PUSH1 0x1 PUSH1 0xA0 SHL SUB NOT AND PUSH1 0x1 PUSH1 0x1 PUSH1 0xA0 SHL SUB SWAP1 SWAP3 AND SWAP2 SWAP1 SWAP2 OR SWAP1 SSTORE POP PUSH2 0x141 JUMP JUMPDEST PUSH1 0x0 DUP1 PUSH1 0x0 PUSH1 0x60 DUP5 DUP7 SUB SLT ISZERO PUSH2 0xFB JUMPI PUSH1 0x0 DUP1 REVERT JUMPDEST DUP4 MLOAD PUSH1 0x1 PUSH1 0x1 PUSH1 0x80 SHL SUB DUP2 AND DUP2 EQ PUSH2 0x112 JUMPI PUSH1 0x0 DUP1 REVERT JUMPDEST PUSH1 0x20 DUP6 ADD MLOAD PUSH1 0x40 DUP7 ADD MLOAD SWAP2 SWAP5 POP SWAP3 POP PUSH1 0x1 PUSH1 0x1 PUSH1 0xA0 SHL SUB DUP2 AND DUP2 EQ PUSH2 0x136 JUMPI PUSH1 0x0 DUP1 REVERT JUMPDEST DUP1 SWAP2 POP POP SWAP3 POP SWAP3 POP SWAP3 JUMP JUMPDEST PUSH1 0x80 MLOAD PUSH2 0x5FAE PUSH2 0x15C PUSH1 0x0 CODECOPY PUSH1 0x0 PUSH2 0x61B ADD MSTORE PUSH2 0x5FAE PUSH1 0x0 RETURN INVALID PUSH1 0x80 PUSH1 0x40 MSTORE CALLVALUE DUP1 ISZERO PUSH3 0x11 JUMPI PUSH1 0x0 DUP1 REVERT JUMPDEST POP PUSH1 0x4 CALLDATASIZE LT PUSH3 0x6A JUMPI PUSH1 0x0 CALLDATALOAD PUSH1 0xE0 SHR DUP1 PUSH4 0x13AF4035 EQ PUSH3 0x6F JUMPI DUP1 PUSH4 0x2060003B EQ PUSH3 0x88 JUMPI DUP1 PUSH4 0x46904840 EQ PUSH3 0x9F JUMPI DUP1 PUSH4 0x65329A4F EQ PUSH3 0xC4 JUMPI DUP1 PUSH4 0x83D16E13 EQ PUSH3 0xFB JUMPI DUP1 PUSH4 0xC0D768B1 EQ PUSH3 0x132 JUMPI JUMPDEST PUSH1 0x0 DUP1 REVERT JUMPDEST PUSH3 0x86 PUSH3 0x80 CALLDATASIZE PUSH1 0x4 PUSH3 0x85F JUMP JUMPDEST PUSH3 0x159 JUMP JUMPDEST STOP JUMPDEST PUSH3 0x86 PUSH3 0x99 CALLDATASIZE PUSH1 0x4 PUSH3 0x886 JUMP JUMPDEST PUSH3 0x1CC JUMP JUMPDEST PUSH1 0x0 SLOAD PUSH1 0x1 PUSH1 0x1 PUSH1 0xA0 SHL SUB AND JUMPDEST PUSH1 0x40 MLOAD PUSH3 0xBB SWAP2 SWAP1 PUSH3 0x8CC JUMP JUMPDEST PUSH1 0x40 MLOAD DUP1 SWAP2 SUB SWAP1 RETURN JUMPDEST PUSH3 0xAC PUSH3 0xD5 CALLDATASIZE PUSH1 0x4 PUSH3 0x8E0 JUMP JUMPDEST PUSH1 0x5 PUSH1 0x20 SWAP1 DUP2 MSTORE PUSH1 0x0 SWAP3 DUP4 MSTORE PUSH1 0x40 DUP1 DUP5 KECCAK256 SWAP1 SWAP2 MSTORE SWAP1 DUP3 MSTORE SWAP1 KECCAK256 SLOAD PUSH1 0x1 PUSH1 0x1 PUSH1 0xA0 SHL SUB AND DUP2 JUMP JUMPDEST PUSH3 0xAC PUSH3 0x10C CALLDATASIZE PUSH1 0x4 PUSH3 0x8E0 JUMP JUMPDEST PUSH1 0x4 PUSH1 0x20 SWAP1 DUP2 MSTORE PUSH1 0x0 SWAP3 DUP4 MSTORE PUSH1 0x40 DUP1 DUP5 KECCAK256 SWAP1 SWAP2 MSTORE SWAP1 DUP3 MSTORE SWAP1 KECCAK256 SLOAD PUSH1 0x1 PUSH1 0x1 PUSH1 0xA0 SHL SUB AND DUP2 JUMP JUMPDEST PUSH3 0x149 PUSH3 0x143 CALLDATASIZE PUSH1 0x4 PUSH3 0x8E0 JUMP JUMPDEST PUSH3 0x43E JUMP JUMPDEST PUSH1 0x40 MLOAD PUSH3 0xBB SWAP3 SWAP2 SWAP1 PUSH3 0x91E JUMP JUMPDEST PUSH1 0x0 SLOAD PUSH1 0x1 PUSH1 0x1 PUSH1 0xA0 SHL SUB AND CALLER EQ PUSH3 0x171 JUMPI PUSH1 0x0 DUP1 REVERT JUMPDEST PUSH1 0x0 DUP1 SLOAD PUSH1 0x40 MLOAD PUSH1 0x1 PUSH1 0x1 PUSH1 0xA0 SHL SUB DUP1 DUP6 AND SWAP4 SWAP3 AND SWAP2 PUSH32 0xB532073B38C83145E3E5135377A08BF9AAB55BC0FD7C1179CD4FB995D2A5159C SWAP2 LOG3 PUSH1 0x0 DUP1 SLOAD PUSH1 0x1 PUSH1 0x1 PUSH1 0xA0 SHL SUB NOT AND PUSH1 0x1 PUSH1 0x1 PUSH1 0xA0 SHL SUB SWAP3 SWAP1 SWAP3 AND SWAP2 SWAP1 SWAP2 OR SWAP1 SSTORE JUMP JUMPDEST PUSH1 0x0 SLOAD PUSH1 0x1 PUSH1 0x1 PUSH1 0xA0 SHL SUB AND CALLER EQ PUSH3 0x1E4 JUMPI PUSH1 0x0 DUP1 REVERT JUMPDEST PUSH1 0x2 DUP2 SWAP1 SSTORE PUSH1 0x3 SLOAD PUSH1 0x40 MLOAD PUSH4 0xF841005 PUSH1 0xE2 SHL DUP2 MSTORE PUSH1 0x1 PUSH1 0x1 PUSH1 0xA0 SHL SUB DUP6 DUP2 AND PUSH1 0x4 DUP4 ADD MSTORE PUSH1 0x1 PUSH1 0x24 DUP4 ADD MSTORE PUSH8 0xDE0B6B3A7640000 PUSH1 0x44 DUP4 ADD MSTORE PUSH1 0x0 SWAP3 DUP4 SWAP3 SWAP2 AND SWAP1 PUSH4 0x3E104014 SWAP1 PUSH1 0x64 ADD PUSH1 0x0 PUSH1 0x40 MLOAD DUP1 DUP4 SUB DUP2 DUP7 GAS STATICCALL ISZERO DUP1 ISZERO PUSH3 0x24D JUMPI RETURNDATASIZE PUSH1 0x0 DUP1 RETURNDATACOPY RETURNDATASIZE PUSH1 0x0 REVERT JUMPDEST POP POP POP POP PUSH1 0x40 MLOAD RETURNDATASIZE PUSH1 0x0 DUP3 RETURNDATACOPY PUSH1 0x1F RETURNDATASIZE SWAP1 DUP2 ADD PUSH1 0x1F NOT AND DUP3 ADD PUSH1 0x40 MSTORE PUSH3 0x277 SWAP2 SWAP1 DUP2 ADD SWAP1 PUSH3 0xA1A JUMP JUMPDEST DUP1 MLOAD SWAP2 SWAP4 POP SWAP2 POP ISZERO PUSH3 0x3CF JUMPI PUSH1 0x0 DUP1 JUMPDEST DUP3 MLOAD DUP2 LT ISZERO PUSH3 0x2D1 JUMPI DUP3 DUP2 DUP2 MLOAD DUP2 LT PUSH3 0x2A7 JUMPI PUSH3 0x2A7 PUSH3 0xAEC JUMP JUMPDEST PUSH1 0x20 MUL PUSH1 0x20 ADD ADD MLOAD DUP3 PUSH3 0x2BC SWAP2 SWAP1 PUSH3 0xB18 JUMP JUMPDEST SWAP2 POP PUSH3 0x2C9 DUP2 PUSH3 0xB33 JUMP JUMPDEST SWAP1 POP PUSH3 0x288 JUMP JUMPDEST POP PUSH1 0x0 JUMPDEST DUP3 MLOAD DUP2 LT ISZERO PUSH3 0x35F JUMPI PUSH1 0x1 DUP3 DUP5 DUP4 DUP2 MLOAD DUP2 LT PUSH3 0x2F7 JUMPI PUSH3 0x2F7 PUSH3 0xAEC JUMP JUMPDEST PUSH1 0x20 MUL PUSH1 0x20 ADD ADD MLOAD PUSH8 0xDE0B6B3A7640000 PUSH3 0x314 SWAP2 SWAP1 PUSH3 0xB51 JUMP JUMPDEST PUSH3 0x320 SWAP2 SWAP1 PUSH3 0xB73 JUMP JUMPDEST PUSH3 0x32C SWAP2 SWAP1 PUSH3 0xB96 JUMP JUMPDEST DUP4 DUP3 DUP2 MLOAD DUP2 LT PUSH3 0x341 JUMPI PUSH3 0x341 PUSH3 0xAEC JUMP JUMPDEST PUSH1 0x20 SWAP1 DUP2 MUL SWAP2 SWAP1 SWAP2 ADD ADD MSTORE PUSH3 0x357 DUP2 PUSH3 0xB33 JUMP JUMPDEST SWAP1 POP PUSH3 0x2D5 JUMP JUMPDEST POP PUSH1 0x2 SLOAD PUSH1 0x40 MLOAD PUSH4 0x1708B413 PUSH1 0xE0 SHL DUP2 MSTORE PUSH1 0x1 PUSH1 0x1 PUSH1 0xA0 SHL SUB DUP8 AND SWAP2 PUSH4 0x1708B413 SWAP2 PUSH3 0x394 SWAP2 SWAP1 DUP8 SWAP1 DUP8 SWAP1 PUSH1 0x4 ADD PUSH3 0xBB0 JUMP JUMPDEST PUSH1 0x0 PUSH1 0x40 MLOAD DUP1 DUP4 SUB DUP2 PUSH1 0x0 DUP8 DUP1 EXTCODESIZE ISZERO DUP1 ISZERO PUSH3 0x3AF JUMPI PUSH1 0x0 DUP1 REVERT JUMPDEST POP GAS CALL ISZERO DUP1 ISZERO PUSH3 0x3C4 JUMPI RETURNDATASIZE PUSH1 0x0 DUP1 RETURNDATACOPY RETURNDATASIZE PUSH1 0x0 REVERT JUMPDEST POP POP POP POP POP PUSH3 0x437 JUMP JUMPDEST PUSH1 0x40 MLOAD PUSH4 0x1708B413 PUSH1 0xE0 SHL DUP2 MSTORE PUSH1 0x1 PUSH1 0x1 PUSH1 0xA0 SHL SUB DUP6 AND SWAP1 PUSH4 0x1708B413 SWAP1 PUSH3 0x402 SWAP1 PUSH1 0x0 SWAP1 DUP7 SWAP1 DUP7 SWAP1 PUSH1 0x4 ADD PUSH3 0xBB0 JUMP JUMPDEST PUSH1 0x0 PUSH1 0x40 MLOAD DUP1 DUP4 SUB DUP2 PUSH1 0x0 DUP8 DUP1 EXTCODESIZE ISZERO DUP1 ISZERO PUSH3 0x41D JUMPI PUSH1 0x0 DUP1 REVERT JUMPDEST POP GAS CALL ISZERO DUP1 ISZERO PUSH3 0x432 JUMPI RETURNDATASIZE PUSH1 0x0 DUP1 RETURNDATACOPY RETURNDATASIZE PUSH1 0x0 REVERT JUMPDEST POP POP POP POP JUMPDEST POP POP POP POP POP JUMP JUMPDEST PUSH1 0x0 DUP1 PUSH3 0x44B PUSH3 0x610 JUMP JUMPDEST DUP3 PUSH1 0x1 PUSH1 0x1 PUSH1 0xA0 SHL SUB AND DUP5 PUSH1 0x1 PUSH1 0x1 PUSH1 0xA0 SHL SUB AND EQ ISZERO PUSH3 0x46B JUMPI PUSH1 0x0 DUP1 REVERT JUMPDEST PUSH1 0x0 DUP1 PUSH3 0x47A DUP7 DUP7 PUSH3 0x648 JUMP JUMPDEST SWAP1 SWAP3 POP SWAP1 POP PUSH1 0x1 PUSH1 0x1 PUSH1 0xA0 SHL SUB DUP2 AND PUSH3 0x493 JUMPI PUSH1 0x0 DUP1 REVERT JUMPDEST PUSH1 0x1 PUSH1 0x1 PUSH1 0xA0 SHL SUB DUP3 DUP2 AND PUSH1 0x0 SWAP1 DUP2 MSTORE PUSH1 0x4 PUSH1 0x20 SWAP1 DUP2 MSTORE PUSH1 0x40 DUP1 DUP4 KECCAK256 DUP6 DUP6 AND DUP5 MSTORE SWAP1 SWAP2 MSTORE SWAP1 KECCAK256 SLOAD AND ISZERO PUSH3 0x4C6 JUMPI PUSH1 0x0 DUP1 REVERT JUMPDEST PUSH1 0x1 SLOAD PUSH3 0x4E3 SWAP1 ADDRESS SWAP1 DUP5 SWAP1 DUP5 SWAP1 PUSH1 0x1 PUSH1 0x1 PUSH1 0x80 SHL SUB AND PUSH3 0x6D7 JUMP JUMPDEST DUP1 SWAP5 POP DUP2 SWAP6 POP POP POP PUSH3 0x4FA DUP3 DUP5 PUSH1 0x2 SLOAD PUSH3 0x1CC JUMP JUMPDEST PUSH1 0x40 MLOAD PUSH4 0x189ACDBD PUSH1 0xE3 SHL DUP2 MSTORE PUSH1 0x1 PUSH1 0x1 PUSH1 0xA0 SHL SUB DUP6 AND SWAP1 PUSH4 0xC4D66DE8 SWAP1 PUSH3 0x528 SWAP1 DUP7 SWAP1 PUSH1 0x4 ADD PUSH3 0x8CC JUMP JUMPDEST PUSH1 0x0 PUSH1 0x40 MLOAD DUP1 DUP4 SUB DUP2 PUSH1 0x0 DUP8 DUP1 EXTCODESIZE ISZERO DUP1 ISZERO PUSH3 0x543 JUMPI PUSH1 0x0 DUP1 REVERT JUMPDEST POP GAS CALL ISZERO DUP1 ISZERO PUSH3 0x558 JUMPI RETURNDATASIZE PUSH1 0x0 DUP1 RETURNDATACOPY RETURNDATASIZE PUSH1 0x0 REVERT JUMPDEST POP POP POP PUSH1 0x1 PUSH1 0x1 PUSH1 0xA0 SHL SUB DUP1 DUP5 AND PUSH1 0x0 DUP2 DUP2 MSTORE PUSH1 0x4 PUSH1 0x20 SWAP1 DUP2 MSTORE PUSH1 0x40 DUP1 DUP4 KECCAK256 DUP8 DUP7 AND DUP1 DUP6 MSTORE SWAP1 DUP4 MSTORE DUP2 DUP5 KECCAK256 DUP1 SLOAD DUP8 DUP13 AND PUSH1 0x1 PUSH1 0x1 PUSH1 0xA0 SHL SUB NOT SWAP2 DUP3 AND OR SWAP1 SWAP2 SSTORE DUP6 DUP6 MSTORE PUSH1 0x5 DUP5 MSTORE DUP3 DUP6 KECCAK256 DUP3 DUP7 MSTORE SWAP1 SWAP4 MSTORE SWAP3 DUP2 SWAP1 KECCAK256 DUP1 SLOAD SWAP6 DUP12 AND SWAP6 SWAP1 SWAP3 AND SWAP5 SWAP1 SWAP5 OR SWAP1 SSTORE PUSH1 0x1 SLOAD SWAP3 MLOAD PUSH1 0x1 PUSH1 0x1 PUSH1 0x80 SHL SUB SWAP1 SWAP4 AND SWAP4 POP SWAP2 PUSH32 0xFF8CFA22379D26BF170D6B51E89CDD427ECFF0E00A8709EDC1D5D909705D2009 SWAP1 PUSH3 0x5FF SWAP1 DUP9 SWAP1 DUP11 SWAP1 PUSH3 0x91E JUMP JUMPDEST PUSH1 0x40 MLOAD DUP1 SWAP2 SUB SWAP1 LOG4 POP POP SWAP3 POP SWAP3 SWAP1 POP JUMP JUMPDEST ADDRESS PUSH1 0x1 PUSH1 0x1 PUSH1 0xA0 SHL SUB PUSH32 0x0 AND EQ PUSH3 0x646 JUMPI PUSH1 0x0 DUP1 REVERT JUMPDEST JUMP JUMPDEST PUSH1 0x40 MLOAD PUSH4 0x1FFC9A7 PUSH1 0xE0 SHL DUP2 MSTORE PUSH4 0x80AC58CD PUSH1 0xE0 SHL PUSH1 0x4 DUP3 ADD DUP2 SWAP1 MSTORE PUSH1 0x0 SWAP2 DUP3 SWAP2 SWAP1 PUSH1 0x1 PUSH1 0x1 PUSH1 0xA0 SHL SUB DUP7 AND SWAP1 PUSH4 0x1FFC9A7 SWAP1 PUSH1 0x24 ADD PUSH1 0x20 PUSH1 0x40 MLOAD DUP1 DUP4 SUB DUP2 DUP7 GAS STATICCALL ISZERO DUP1 ISZERO PUSH3 0x69C JUMPI RETURNDATASIZE PUSH1 0x0 DUP1 RETURNDATACOPY RETURNDATASIZE PUSH1 0x0 REVERT JUMPDEST POP POP POP POP PUSH1 0x40 MLOAD RETURNDATASIZE PUSH1 0x1F NOT PUSH1 0x1F DUP3 ADD AND DUP3 ADD DUP1 PUSH1 0x40 MSTORE POP DUP2 ADD SWAP1 PUSH3 0x6C2 SWAP2 SWAP1 PUSH3 0xC43 JUMP JUMPDEST ISZERO PUSH3 0x6CF JUMPI DUP5 SWAP3 POP DUP4 SWAP2 POP JUMPDEST POP SWAP3 POP SWAP3 SWAP1 POP JUMP JUMPDEST PUSH1 0x0 DUP1 DUP5 DUP5 PUSH1 0x40 MLOAD PUSH1 0x20 ADD PUSH3 0x6EF SWAP3 SWAP2 SWAP1 PUSH3 0x91E JUMP JUMPDEST PUSH1 0x40 MLOAD PUSH1 0x20 DUP2 DUP4 SUB SUB DUP2 MSTORE SWAP1 PUSH1 0x40 MSTORE DUP1 MLOAD SWAP1 PUSH1 0x20 ADD KECCAK256 DUP7 PUSH1 0x40 MLOAD PUSH3 0x714 SWAP1 PUSH3 0x82A JUMP JUMPDEST PUSH1 0x60 DUP1 DUP3 MSTORE PUSH1 0xC SWAP1 DUP3 ADD MSTORE PUSH12 0x26B4B230B9A6282A37B5B2B7 PUSH1 0xA1 SHL PUSH1 0x80 DUP3 ADD MSTORE PUSH1 0xA0 PUSH1 0x20 DUP3 ADD DUP2 SWAP1 MSTORE PUSH1 0x4 SWAP1 DUP3 ADD MSTORE PUSH4 0x13531415 PUSH1 0xE2 SHL PUSH1 0xC0 DUP3 ADD MSTORE PUSH1 0x1 PUSH1 0x1 PUSH1 0xA0 SHL SUB SWAP1 SWAP2 AND PUSH1 0x40 DUP3 ADD MSTORE PUSH1 0xE0 ADD DUP2 SWAP1 PUSH1 0x40 MLOAD DUP1 SWAP2 SUB SWAP1 PUSH1 0x0 CREATE2 SWAP1 POP DUP1 ISZERO DUP1 ISZERO PUSH3 0x784 JUMPI RETURNDATASIZE PUSH1 0x0 DUP1 RETURNDATACOPY RETURNDATASIZE PUSH1 0x0 REVERT JUMPDEST POP SWAP2 POP DUP5 DUP5 PUSH1 0x40 MLOAD PUSH1 0x20 ADD PUSH3 0x79C SWAP3 SWAP2 SWAP1 PUSH3 0x91E JUMP JUMPDEST PUSH1 0x40 MLOAD PUSH1 0x20 DUP2 DUP4 SUB SUB DUP2 MSTORE SWAP1 PUSH1 0x40 MSTORE DUP1 MLOAD SWAP1 PUSH1 0x20 ADD KECCAK256 DUP7 DUP7 DUP7 DUP6 DUP8 PUSH1 0x40 MLOAD PUSH3 0x7C5 SWAP1 PUSH3 0x838 JUMP JUMPDEST PUSH1 0x1 PUSH1 0x1 PUSH1 0xA0 SHL SUB SWAP6 DUP7 AND DUP2 MSTORE SWAP4 DUP6 AND PUSH1 0x20 DUP6 ADD MSTORE SWAP2 DUP5 AND PUSH1 0x40 DUP5 ADD MSTORE SWAP1 SWAP3 AND PUSH1 0x60 DUP3 ADD MSTORE PUSH1 0x1 PUSH1 0x1 PUSH1 0x80 SHL SUB SWAP1 SWAP2 AND PUSH1 0x80 DUP3 ADD MSTORE PUSH1 0xA0 ADD DUP2 SWAP1 PUSH1 0x40 MLOAD DUP1 SWAP2 SUB SWAP1 PUSH1 0x0 CREATE2 SWAP1 POP DUP1 ISZERO DUP1 ISZERO PUSH3 0x81E JUMPI RETURNDATASIZE PUSH1 0x0 DUP1 RETURNDATACOPY RETURNDATASIZE PUSH1 0x0 REVERT JUMPDEST POP SWAP1 POP SWAP5 POP SWAP5 SWAP3 POP POP POP JUMP JUMPDEST PUSH2 0x17E6 DUP1 PUSH3 0xC68 DUP4 CODECOPY ADD SWAP1 JUMP JUMPDEST PUSH2 0x3B2B DUP1 PUSH3 0x244E DUP4 CODECOPY ADD SWAP1 JUMP JUMPDEST PUSH1 0x1 PUSH1 0x1 PUSH1 0xA0 SHL SUB DUP2 AND DUP2 EQ PUSH3 0x85C JUMPI PUSH1 0x0 DUP1 REVERT JUMPDEST POP JUMP JUMPDEST PUSH1 0x0 PUSH1 0x20 DUP3 DUP5 SUB SLT ISZERO PUSH3 0x872 JUMPI PUSH1 0x0 DUP1 REVERT JUMPDEST DUP2 CALLDATALOAD PUSH3 0x87F DUP2 PUSH3 0x846 JUMP JUMPDEST SWAP4 SWAP3 POP POP POP JUMP JUMPDEST PUSH1 0x0 DUP1 PUSH1 0x0 PUSH1 0x60 DUP5 DUP7 SUB SLT ISZERO PUSH3 0x89C JUMPI PUSH1 0x0 DUP1 REVERT JUMPDEST DUP4 CALLDATALOAD PUSH3 0x8A9 DUP2 PUSH3 0x846 JUMP JUMPDEST SWAP3 POP PUSH1 0x20 DUP5 ADD CALLDATALOAD PUSH3 0x8BB DUP2 PUSH3 0x846 JUMP JUMPDEST SWAP3 SWAP6 SWAP3 SWAP5 POP POP POP PUSH1 0x40 SWAP2 SWAP1 SWAP2 ADD CALLDATALOAD SWAP1 JUMP JUMPDEST PUSH1 0x1 PUSH1 0x1 PUSH1 0xA0 SHL SUB SWAP2 SWAP1 SWAP2 AND DUP2 MSTORE PUSH1 0x20 ADD SWAP1 JUMP JUMPDEST PUSH1 0x0 DUP1 PUSH1 0x40 DUP4 DUP6 SUB SLT ISZERO PUSH3 0x8F4 JUMPI PUSH1 0x0 DUP1 REVERT JUMPDEST DUP3 CALLDATALOAD PUSH3 0x901 DUP2 PUSH3 0x846 JUMP JUMPDEST SWAP2 POP PUSH1 0x20 DUP4 ADD CALLDATALOAD PUSH3 0x913 DUP2 PUSH3 0x846 JUMP JUMPDEST DUP1 SWAP2 POP POP SWAP3 POP SWAP3 SWAP1 POP JUMP JUMPDEST PUSH1 0x1 PUSH1 0x1 PUSH1 0xA0 SHL SUB SWAP3 DUP4 AND DUP2 MSTORE SWAP2 AND PUSH1 0x20 DUP3 ADD MSTORE PUSH1 0x40 ADD SWAP1 JUMP JUMPDEST PUSH4 0x4E487B71 PUSH1 0xE0 SHL PUSH1 0x0 MSTORE PUSH1 0x41 PUSH1 0x4 MSTORE PUSH1 0x24 PUSH1 0x0 REVERT JUMPDEST PUSH1 0x40 MLOAD PUSH1 0x1F DUP3 ADD PUSH1 0x1F NOT AND DUP2 ADD PUSH1 0x1 PUSH1 0x1 PUSH1 0x40 SHL SUB DUP2 GT DUP3 DUP3 LT OR ISZERO PUSH3 0x979 JUMPI PUSH3 0x979 PUSH3 0x938 JUMP JUMPDEST PUSH1 0x40 MSTORE SWAP2 SWAP1 POP JUMP JUMPDEST PUSH1 0x0 PUSH1 0x1 PUSH1 0x1 PUSH1 0x40 SHL SUB DUP3 GT ISZERO PUSH3 0x99D JUMPI PUSH3 0x99D PUSH3 0x938 JUMP JUMPDEST POP PUSH1 0x5 SHL PUSH1 0x20 ADD SWAP1 JUMP JUMPDEST PUSH1 0x0 DUP3 PUSH1 0x1F DUP4 ADD SLT PUSH3 0x9B9 JUMPI PUSH1 0x0 DUP1 REVERT JUMPDEST DUP2 MLOAD PUSH1 0x20 PUSH3 0x9D2 PUSH3 0x9CC DUP4 PUSH3 0x981 JUMP JUMPDEST PUSH3 0x94E JUMP JUMPDEST DUP3 DUP2 MSTORE PUSH1 0x5 SWAP3 SWAP1 SWAP3 SHL DUP5 ADD DUP2 ADD SWAP2 DUP2 DUP2 ADD SWAP1 DUP7 DUP5 GT ISZERO PUSH3 0x9F2 JUMPI PUSH1 0x0 DUP1 REVERT JUMPDEST DUP3 DUP7 ADD JUMPDEST DUP5 DUP2 LT ISZERO PUSH3 0xA0F JUMPI DUP1 MLOAD DUP4 MSTORE SWAP2 DUP4 ADD SWAP2 DUP4 ADD PUSH3 0x9F6 JUMP JUMPDEST POP SWAP7 SWAP6 POP POP POP POP POP POP JUMP JUMPDEST PUSH1 0x0 DUP1 PUSH1 0x40 DUP4 DUP6 SUB SLT ISZERO PUSH3 0xA2E JUMPI PUSH1 0x0 DUP1 REVERT JUMPDEST DUP3 MLOAD PUSH1 0x1 PUSH1 0x1 PUSH1 0x40 SHL SUB DUP1 DUP3 GT ISZERO PUSH3 0xA46 JUMPI PUSH1 0x0 DUP1 REVERT JUMPDEST DUP2 DUP6 ADD SWAP2 POP DUP6 PUSH1 0x1F DUP4 ADD SLT PUSH3 0xA5B JUMPI PUSH1 0x0 DUP1 REVERT JUMPDEST DUP2 MLOAD PUSH1 0x20 PUSH3 0xA6E PUSH3 0x9CC DUP4 PUSH3 0x981 JUMP JUMPDEST DUP3 DUP2 MSTORE PUSH1 0x5 SWAP3 SWAP1 SWAP3 SHL DUP5 ADD DUP2 ADD SWAP2 DUP2 DUP2 ADD SWAP1 DUP10 DUP5 GT ISZERO PUSH3 0xA8E JUMPI PUSH1 0x0 DUP1 REVERT JUMPDEST SWAP5 DUP3 ADD SWAP5 JUMPDEST DUP4 DUP7 LT ISZERO PUSH3 0xAB9 JUMPI DUP6 MLOAD PUSH3 0xAA9 DUP2 PUSH3 0x846 JUMP JUMPDEST DUP3 MSTORE SWAP5 DUP3 ADD SWAP5 SWAP1 DUP3 ADD SWAP1 PUSH3 0xA93 JUMP JUMPDEST SWAP2 DUP9 ADD MLOAD SWAP2 SWAP7 POP SWAP1 SWAP4 POP POP POP DUP1 DUP3 GT ISZERO PUSH3 0xAD3 JUMPI PUSH1 0x0 DUP1 REVERT JUMPDEST POP PUSH3 0xAE2 DUP6 DUP3 DUP7 ADD PUSH3 0x9A7 JUMP JUMPDEST SWAP2 POP POP SWAP3 POP SWAP3 SWAP1 POP JUMP JUMPDEST PUSH4 0x4E487B71 PUSH1 0xE0 SHL PUSH1 0x0 MSTORE PUSH1 0x32 PUSH1 0x4 MSTORE PUSH1 0x24 PUSH1 0x0 REVERT JUMPDEST PUSH4 0x4E487B71 PUSH1 0xE0 SHL PUSH1 0x0 MSTORE PUSH1 0x11 PUSH1 0x4 MSTORE PUSH1 0x24 PUSH1 0x0 REVERT JUMPDEST PUSH1 0x0 DUP3 NOT DUP3 GT ISZERO PUSH3 0xB2E JUMPI PUSH3 0xB2E PUSH3 0xB02 JUMP JUMPDEST POP ADD SWAP1 JUMP JUMPDEST PUSH1 0x0 PUSH1 0x0 NOT DUP3 EQ ISZERO PUSH3 0xB4A JUMPI PUSH3 0xB4A PUSH3 0xB02 JUMP JUMPDEST POP PUSH1 0x1 ADD SWAP1 JUMP JUMPDEST PUSH1 0x0 DUP2 PUSH1 0x0 NOT DIV DUP4 GT DUP3 ISZERO ISZERO AND ISZERO PUSH3 0xB6E JUMPI PUSH3 0xB6E PUSH3 0xB02 JUMP JUMPDEST POP MUL SWAP1 JUMP JUMPDEST PUSH1 0x0 DUP3 PUSH3 0xB91 JUMPI PUSH4 0x4E487B71 PUSH1 0xE0 SHL PUSH1 0x0 MSTORE PUSH1 0x12 PUSH1 0x4 MSTORE PUSH1 0x24 PUSH1 0x0 REVERT JUMPDEST POP DIV SWAP1 JUMP JUMPDEST PUSH1 0x0 DUP3 DUP3 LT ISZERO PUSH3 0xBAB JUMPI PUSH3 0xBAB PUSH3 0xB02 JUMP JUMPDEST POP SUB SWAP1 JUMP JUMPDEST PUSH1 0x0 PUSH1 0x60 DUP3 ADD DUP6 DUP4 MSTORE PUSH1 0x20 PUSH1 0x60 DUP2 DUP6 ADD MSTORE DUP2 DUP7 MLOAD DUP1 DUP5 MSTORE PUSH1 0x80 DUP7 ADD SWAP2 POP DUP3 DUP9 ADD SWAP4 POP PUSH1 0x0 JUMPDEST DUP2 DUP2 LT ISZERO PUSH3 0xBFC JUMPI DUP5 MLOAD PUSH1 0x1 PUSH1 0x1 PUSH1 0xA0 SHL SUB AND DUP4 MSTORE SWAP4 DUP4 ADD SWAP4 SWAP2 DUP4 ADD SWAP2 PUSH1 0x1 ADD PUSH3 0xBD5 JUMP JUMPDEST POP POP DUP5 DUP2 SUB PUSH1 0x40 DUP7 ADD MSTORE DUP6 MLOAD DUP1 DUP3 MSTORE SWAP1 DUP3 ADD SWAP3 POP DUP2 DUP7 ADD SWAP1 PUSH1 0x0 JUMPDEST DUP2 DUP2 LT ISZERO PUSH3 0xC35 JUMPI DUP3 MLOAD DUP6 MSTORE SWAP4 DUP4 ADD SWAP4 SWAP2 DUP4 ADD SWAP2 PUSH1 0x1 ADD PUSH3 0xC17 JUMP JUMPDEST POP SWAP3 SWAP9 SWAP8 POP POP POP POP POP POP POP POP JUMP JUMPDEST PUSH1 0x0 PUSH1 0x20 DUP3 DUP5 SUB SLT ISZERO PUSH3 0xC56 JUMPI PUSH1 0x0 DUP1 REVERT JUMPDEST DUP2 MLOAD DUP1 ISZERO ISZERO DUP2 EQ PUSH3 0x87F JUMPI PUSH1 0x0 DUP1 REVERT INVALID PUSH1 0x80 PUSH1 0x40 MSTORE CALLVALUE DUP1 ISZERO PUSH3 0x11 JUMPI PUSH1 0x0 DUP1 REVERT JUMPDEST POP PUSH1 0x40 MLOAD PUSH3 0x17E6 CODESIZE SUB DUP1 PUSH3 0x17E6 DUP4 CODECOPY DUP2 ADD PUSH1 0x40 DUP2 SWAP1 MSTORE PUSH3 0x34 SWAP2 PUSH3 0x1FC JUMP JUMPDEST DUP3 MLOAD PUSH3 0x49 SWAP1 PUSH1 0x0 SWAP1 PUSH1 0x20 DUP7 ADD SWAP1 PUSH3 0x89 JUMP JUMPDEST POP DUP2 MLOAD PUSH3 0x5F SWAP1 PUSH1 0x1 SWAP1 PUSH1 0x20 DUP6 ADD SWAP1 PUSH3 0x89 JUMP JUMPDEST POP PUSH1 0x3 DUP1 SLOAD PUSH1 0x1 PUSH1 0x1 PUSH1 0xA0 SHL SUB NOT AND PUSH1 0x1 PUSH1 0x1 PUSH1 0xA0 SHL SUB SWAP3 SWAP1 SWAP3 AND SWAP2 SWAP1 SWAP2 OR SWAP1 SSTORE POP PUSH3 0x2C6 SWAP1 POP JUMP JUMPDEST DUP3 DUP1 SLOAD PUSH3 0x97 SWAP1 PUSH3 0x289 JUMP JUMPDEST SWAP1 PUSH1 0x0 MSTORE PUSH1 0x20 PUSH1 0x0 KECCAK256 SWAP1 PUSH1 0x1F ADD PUSH1 0x20 SWAP1 DIV DUP2 ADD SWAP3 DUP3 PUSH3 0xBB JUMPI PUSH1 0x0 DUP6 SSTORE PUSH3 0x106 JUMP JUMPDEST DUP3 PUSH1 0x1F LT PUSH3 0xD6 JUMPI DUP1 MLOAD PUSH1 0xFF NOT AND DUP4 DUP1 ADD OR DUP6 SSTORE PUSH3 0x106 JUMP JUMPDEST DUP3 DUP1 ADD PUSH1 0x1 ADD DUP6 SSTORE DUP3 ISZERO PUSH3 0x106 JUMPI SWAP2 DUP3 ADD JUMPDEST DUP3 DUP2 GT ISZERO PUSH3 0x106 JUMPI DUP3 MLOAD DUP3 SSTORE SWAP2 PUSH1 0x20 ADD SWAP2 SWAP1 PUSH1 0x1 ADD SWAP1 PUSH3 0xE9 JUMP JUMPDEST POP PUSH3 0x114 SWAP3 SWAP2 POP PUSH3 0x118 JUMP JUMPDEST POP SWAP1 JUMP JUMPDEST JUMPDEST DUP1 DUP3 GT ISZERO PUSH3 0x114 JUMPI PUSH1 0x0 DUP2 SSTORE PUSH1 0x1 ADD PUSH3 0x119 JUMP JUMPDEST PUSH4 0x4E487B71 PUSH1 0xE0 SHL PUSH1 0x0 MSTORE PUSH1 0x41 PUSH1 0x4 MSTORE PUSH1 0x24 PUSH1 0x0 REVERT JUMPDEST PUSH1 0x0 DUP3 PUSH1 0x1F DUP4 ADD SLT PUSH3 0x157 JUMPI PUSH1 0x0 DUP1 REVERT JUMPDEST DUP2 MLOAD PUSH1 0x1 PUSH1 0x1 PUSH1 0x40 SHL SUB DUP1 DUP3 GT ISZERO PUSH3 0x174 JUMPI PUSH3 0x174 PUSH3 0x12F JUMP JUMPDEST PUSH1 0x40 MLOAD PUSH1 0x1F DUP4 ADD PUSH1 0x1F NOT SWAP1 DUP2 AND PUSH1 0x3F ADD AND DUP2 ADD SWAP1 DUP3 DUP3 GT DUP2 DUP4 LT OR ISZERO PUSH3 0x19F JUMPI PUSH3 0x19F PUSH3 0x12F JUMP JUMPDEST DUP2 PUSH1 0x40 MSTORE DUP4 DUP2 MSTORE PUSH1 0x20 SWAP3 POP DUP7 DUP4 DUP6 DUP9 ADD ADD GT ISZERO PUSH3 0x1BC JUMPI PUSH1 0x0 DUP1 REVERT JUMPDEST PUSH1 0x0 SWAP2 POP JUMPDEST DUP4 DUP3 LT ISZERO PUSH3 0x1E0 JUMPI DUP6 DUP3 ADD DUP4 ADD MLOAD DUP2 DUP4 ADD DUP5 ADD MSTORE SWAP1 DUP3 ADD SWAP1 PUSH3 0x1C1 JUMP JUMPDEST DUP4 DUP3 GT ISZERO PUSH3 0x1F2 JUMPI PUSH1 0x0 DUP4 DUP6 DUP4 ADD ADD MSTORE JUMPDEST SWAP7 SWAP6 POP POP POP POP POP POP JUMP JUMPDEST PUSH1 0x0 DUP1 PUSH1 0x0 PUSH1 0x60 DUP5 DUP7 SUB SLT ISZERO PUSH3 0x212 JUMPI PUSH1 0x0 DUP1 REVERT JUMPDEST DUP4 MLOAD PUSH1 0x1 PUSH1 0x1 PUSH1 0x40 SHL SUB DUP1 DUP3 GT ISZERO PUSH3 0x22A JUMPI PUSH1 0x0 DUP1 REVERT JUMPDEST PUSH3 0x238 DUP8 DUP4 DUP9 ADD PUSH3 0x145 JUMP JUMPDEST SWAP5 POP PUSH1 0x20 DUP7 ADD MLOAD SWAP2 POP DUP1 DUP3 GT ISZERO PUSH3 0x24F JUMPI PUSH1 0x0 DUP1 REVERT JUMPDEST POP PUSH3 0x25E DUP7 DUP3 DUP8 ADD PUSH3 0x145 JUMP JUMPDEST PUSH1 0x40 DUP7 ADD MLOAD SWAP1 SWAP4 POP SWAP1 POP PUSH1 0x1 PUSH1 0x1 PUSH1 0xA0 SHL SUB DUP2 AND DUP2 EQ PUSH3 0x27E JUMPI PUSH1 0x0 DUP1 REVERT JUMPDEST DUP1 SWAP2 POP POP SWAP3 POP SWAP3 POP SWAP3 JUMP JUMPDEST PUSH1 0x1 DUP2 DUP2 SHR SWAP1 DUP3 AND DUP1 PUSH3 0x29E JUMPI PUSH1 0x7F DUP3 AND SWAP2 POP JUMPDEST PUSH1 0x20 DUP3 LT DUP2 EQ ISZERO PUSH3 0x2C0 JUMPI PUSH4 0x4E487B71 PUSH1 0xE0 SHL PUSH1 0x0 MSTORE PUSH1 0x22 PUSH1 0x4 MSTORE PUSH1 0x24 PUSH1 0x0 REVERT JUMPDEST POP SWAP2 SWAP1 POP JUMP JUMPDEST PUSH2 0x1510 DUP1 PUSH3 0x2D6 PUSH1 0x0 CODECOPY PUSH1 0x0 RETURN INVALID PUSH1 0x80 PUSH1 0x40 MSTORE CALLVALUE DUP1 ISZERO PUSH2 0x10 JUMPI PUSH1 0x0 DUP1 REVERT JUMPDEST POP PUSH1 0x4 CALLDATASIZE LT PUSH2 0xD0 JUMPI PUSH1 0x0 CALLDATALOAD PUSH1 0xE0 SHR DUP1 PUSH4 0x1FFC9A7 EQ PUSH2 0xD5 JUMPI DUP1 PUSH4 0x6FDDE03 EQ PUSH2 0xFD JUMPI DUP1 PUSH4 0x81812FC EQ PUSH2 0x112 JUMPI DUP1 PUSH4 0x95EA7B3 EQ PUSH2 0x13D JUMPI DUP1 PUSH4 0x23B872DD EQ PUSH2 0x152 JUMPI DUP1 PUSH4 0x40C10F19 EQ PUSH2 0x165 JUMPI DUP1 PUSH4 0x42842E0E EQ PUSH2 0x178 JUMPI DUP1 PUSH4 0x42966C68 EQ PUSH2 0x18B JUMPI DUP1 PUSH4 0x6352211E EQ PUSH2 0x19E JUMPI DUP1 PUSH4 0x70A08231 EQ PUSH2 0x1B1 JUMPI DUP1 PUSH4 0x95D89B41 EQ PUSH2 0x1D2 JUMPI DUP1 PUSH4 0xA22CB465 EQ PUSH2 0x1DA JUMPI DUP1 PUSH4 0xB88D4FDE EQ PUSH2 0x1ED JUMPI DUP1 PUSH4 0xC4D66DE8 EQ PUSH2 0x200 JUMPI DUP1 PUSH4 0xC87B56DD EQ PUSH2 0x213 JUMPI DUP1 PUSH4 0xE985E9C5 EQ PUSH2 0x226 JUMPI JUMPDEST PUSH1 0x0 DUP1 REVERT JUMPDEST PUSH2 0xE8 PUSH2 0xE3 CALLDATASIZE PUSH1 0x4 PUSH2 0x1008 JUMP JUMPDEST PUSH2 0x239 JUMP JUMPDEST PUSH1 0x40 MLOAD SWAP1 ISZERO ISZERO DUP2 MSTORE PUSH1 0x20 ADD JUMPDEST PUSH1 0x40 MLOAD DUP1 SWAP2 SUB SWAP1 RETURN JUMPDEST PUSH2 0x105 PUSH2 0x28B JUMP JUMPDEST PUSH1 0x40 MLOAD PUSH2 0xF4 SWAP2 SWAP1 PUSH2 0x107D JUMP JUMPDEST PUSH2 0x125 PUSH2 0x120 CALLDATASIZE PUSH1 0x4 PUSH2 0x1090 JUMP JUMPDEST PUSH2 0x31D JUMP JUMPDEST PUSH1 0x40 MLOAD PUSH1 0x1 PUSH1 0x1 PUSH1 0xA0 SHL SUB SWAP1 SWAP2 AND DUP2 MSTORE PUSH1 0x20 ADD PUSH2 0xF4 JUMP JUMPDEST PUSH2 0x150 PUSH2 0x14B CALLDATASIZE PUSH1 0x4 PUSH2 0x10C5 JUMP JUMPDEST PUSH2 0x344 JUMP JUMPDEST STOP JUMPDEST PUSH2 0x150 PUSH2 0x160 CALLDATASIZE PUSH1 0x4 PUSH2 0x10EF JUMP JUMPDEST PUSH2 0x460 JUMP JUMPDEST PUSH2 0x150 PUSH2 0x173 CALLDATASIZE PUSH1 0x4 PUSH2 0x10C5 JUMP JUMPDEST PUSH2 0x492 JUMP JUMPDEST PUSH2 0x150 PUSH2 0x186 CALLDATASIZE PUSH1 0x4 PUSH2 0x10EF JUMP JUMPDEST PUSH2 0x4B7 JUMP JUMPDEST PUSH2 0x150 PUSH2 0x199 CALLDATASIZE PUSH1 0x4 PUSH2 0x1090 JUMP JUMPDEST PUSH2 0x4D2 JUMP JUMPDEST PUSH2 0x125 PUSH2 0x1AC CALLDATASIZE PUSH1 0x4 PUSH2 0x1090 JUMP JUMPDEST PUSH2 0x51A JUMP JUMPDEST PUSH2 0x1C4 PUSH2 0x1BF CALLDATASIZE PUSH1 0x4 PUSH2 0x112B JUMP JUMPDEST PUSH2 0x54E JUMP JUMPDEST PUSH1 0x40 MLOAD SWAP1 DUP2 MSTORE PUSH1 0x20 ADD PUSH2 0xF4 JUMP JUMPDEST PUSH2 0x105 PUSH2 0x5D5 JUMP JUMPDEST PUSH2 0x150 PUSH2 0x1E8 CALLDATASIZE PUSH1 0x4 PUSH2 0x1146 JUMP JUMPDEST PUSH2 0x5E4 JUMP JUMPDEST PUSH2 0x150 PUSH2 0x1FB CALLDATASIZE PUSH1 0x4 PUSH2 0x1198 JUMP JUMPDEST PUSH2 0x5EF JUMP JUMPDEST PUSH2 0x150 PUSH2 0x20E CALLDATASIZE PUSH1 0x4 PUSH2 0x112B JUMP JUMPDEST PUSH2 0x627 JUMP JUMPDEST PUSH2 0x105 PUSH2 0x221 CALLDATASIZE PUSH1 0x4 PUSH2 0x1090 JUMP JUMPDEST PUSH2 0x660 JUMP JUMPDEST PUSH2 0xE8 PUSH2 0x234 CALLDATASIZE PUSH1 0x4 PUSH2 0x1273 JUMP JUMPDEST PUSH2 0x6D4 JUMP JUMPDEST PUSH1 0x0 PUSH1 0x1 PUSH1 0x1 PUSH1 0xE0 SHL SUB NOT DUP3 AND PUSH4 0x80AC58CD PUSH1 0xE0 SHL EQ DUP1 PUSH2 0x26A JUMPI POP PUSH1 0x1 PUSH1 0x1 PUSH1 0xE0 SHL SUB NOT DUP3 AND PUSH4 0x5B5E139F PUSH1 0xE0 SHL EQ JUMPDEST DUP1 PUSH2 0x285 JUMPI POP PUSH4 0x1FFC9A7 PUSH1 0xE0 SHL PUSH1 0x1 PUSH1 0x1 PUSH1 0xE0 SHL SUB NOT DUP4 AND EQ JUMPDEST SWAP3 SWAP2 POP POP JUMP JUMPDEST PUSH1 0x60 PUSH1 0x0 DUP1 SLOAD PUSH2 0x29A SWAP1 PUSH2 0x12A6 JUMP JUMPDEST DUP1 PUSH1 0x1F ADD PUSH1 0x20 DUP1 SWAP2 DIV MUL PUSH1 0x20 ADD PUSH1 0x40 MLOAD SWAP1 DUP2 ADD PUSH1 0x40 MSTORE DUP1 SWAP3 SWAP2 SWAP1 DUP2 DUP2 MSTORE PUSH1 0x20 ADD DUP3 DUP1 SLOAD PUSH2 0x2C6 SWAP1 PUSH2 0x12A6 JUMP JUMPDEST DUP1 ISZERO PUSH2 0x313 JUMPI DUP1 PUSH1 0x1F LT PUSH2 0x2E8 JUMPI PUSH2 0x100 DUP1 DUP4 SLOAD DIV MUL DUP4 MSTORE SWAP2 PUSH1 0x20 ADD SWAP2 PUSH2 0x313 JUMP JUMPDEST DUP3 ADD SWAP2 SWAP1 PUSH1 0x0 MSTORE PUSH1 0x20 PUSH1 0x0 KECCAK256 SWAP1 JUMPDEST DUP2 SLOAD DUP2 MSTORE SWAP1 PUSH1 0x1 ADD SWAP1 PUSH1 0x20 ADD DUP1 DUP4 GT PUSH2 0x2F6 JUMPI DUP3 SWAP1 SUB PUSH1 0x1F AND DUP3 ADD SWAP2 JUMPDEST POP POP POP POP POP SWAP1 POP SWAP1 JUMP JUMPDEST PUSH1 0x0 PUSH2 0x328 DUP3 PUSH2 0x702 JUMP JUMPDEST POP PUSH1 0x0 SWAP1 DUP2 MSTORE PUSH1 0x6 PUSH1 0x20 MSTORE PUSH1 0x40 SWAP1 KECCAK256 SLOAD PUSH1 0x1 PUSH1 0x1 PUSH1 0xA0 SHL SUB AND SWAP1 JUMP JUMPDEST PUSH1 0x0 PUSH2 0x34F DUP3 PUSH2 0x51A JUMP JUMPDEST SWAP1 POP DUP1 PUSH1 0x1 PUSH1 0x1 PUSH1 0xA0 SHL SUB AND DUP4 PUSH1 0x1 PUSH1 0x1 PUSH1 0xA0 SHL SUB AND EQ ISZERO PUSH2 0x3C3 JUMPI PUSH1 0x40 MLOAD PUSH3 0x461BCD PUSH1 0xE5 SHL DUP2 MSTORE PUSH1 0x20 PUSH1 0x4 DUP3 ADD MSTORE PUSH1 0x22 PUSH1 0x24 DUP3 ADD MSTORE PUSH32 0x4C50546F6B656E3A20617070726F76616C20746F2063757272656E74206F776E PUSH1 0x44 DUP3 ADD MSTORE PUSH2 0x32B9 PUSH1 0xF1 SHL PUSH1 0x64 DUP3 ADD MSTORE PUSH1 0x84 ADD JUMPDEST PUSH1 0x40 MLOAD DUP1 SWAP2 SUB SWAP1 REVERT JUMPDEST CALLER PUSH1 0x1 PUSH1 0x1 PUSH1 0xA0 SHL SUB DUP3 AND EQ DUP1 PUSH2 0x3DF JUMPI POP PUSH2 0x3DF DUP2 CALLER PUSH2 0x6D4 JUMP JUMPDEST PUSH2 0x451 JUMPI PUSH1 0x40 MLOAD PUSH3 0x461BCD PUSH1 0xE5 SHL DUP2 MSTORE PUSH1 0x20 PUSH1 0x4 DUP3 ADD MSTORE PUSH1 0x3E PUSH1 0x24 DUP3 ADD MSTORE PUSH32 0x4C50546F6B656E3A20617070726F76652063616C6C6572206973206E6F742074 PUSH1 0x44 DUP3 ADD MSTORE PUSH32 0x6F6B656E206F776E6572206F7220617070726F76656420666F7220616C6C0000 PUSH1 0x64 DUP3 ADD MSTORE PUSH1 0x84 ADD PUSH2 0x3BA JUMP JUMPDEST PUSH2 0x45B DUP4 DUP4 PUSH2 0x727 JUMP JUMPDEST POP POP POP JUMP JUMPDEST PUSH2 0x46B CALLER JUMPDEST DUP3 PUSH2 0x795 JUMP JUMPDEST PUSH2 0x487 JUMPI PUSH1 0x40 MLOAD PUSH3 0x461BCD PUSH1 0xE5 SHL DUP2 MSTORE PUSH1 0x4 ADD PUSH2 0x3BA SWAP1 PUSH2 0x12E1 JUMP JUMPDEST PUSH2 0x45B DUP4 DUP4 DUP4 PUSH2 0x7F4 JUMP JUMPDEST PUSH1 0x2 SLOAD PUSH1 0x1 PUSH1 0x1 PUSH1 0xA0 SHL SUB AND CALLER EQ PUSH2 0x4A9 JUMPI PUSH1 0x0 DUP1 REVERT JUMPDEST PUSH2 0x4B3 DUP3 DUP3 PUSH2 0x9D2 JUMP JUMPDEST POP POP JUMP JUMPDEST PUSH2 0x45B DUP4 DUP4 DUP4 PUSH1 0x40 MLOAD DUP1 PUSH1 0x20 ADD PUSH1 0x40 MSTORE DUP1 PUSH1 0x0 DUP2 MSTORE POP PUSH2 0x5EF JUMP JUMPDEST PUSH1 0x2 SLOAD PUSH1 0x1 PUSH1 0x1 PUSH1 0xA0 SHL SUB AND CALLER EQ PUSH2 0x4E9 JUMPI PUSH1 0x0 DUP1 REVERT JUMPDEST PUSH2 0x4F2 CALLER PUSH2 0x465 JUMP JUMPDEST PUSH2 0x50E JUMPI PUSH1 0x40 MLOAD PUSH3 0x461BCD PUSH1 0xE5 SHL DUP2 MSTORE PUSH1 0x4 ADD PUSH2 0x3BA SWAP1 PUSH2 0x12E1 JUMP JUMPDEST PUSH2 0x517 DUP2 PUSH2 0x9EC JUMP JUMPDEST POP JUMP JUMPDEST PUSH1 0x0 DUP1 PUSH2 0x526 DUP4 PUSH2 0xA7D JUMP JUMPDEST SWAP1 POP PUSH1 0x1 PUSH1 0x1 PUSH1 0xA0 SHL SUB DUP2 AND PUSH2 0x285 JUMPI PUSH1 0x40 MLOAD PUSH3 0x461BCD PUSH1 0xE5 SHL DUP2 MSTORE PUSH1 0x4 ADD PUSH2 0x3BA SWAP1 PUSH2 0x132F JUMP JUMPDEST PUSH1 0x0 PUSH1 0x1 PUSH1 0x1 PUSH1 0xA0 SHL SUB DUP3 AND PUSH2 0x5B9 JUMPI PUSH1 0x40 MLOAD PUSH3 0x461BCD PUSH1 0xE5 SHL DUP2 MSTORE PUSH1 0x20 PUSH1 0x4 DUP3 ADD MSTORE PUSH1 0x2A PUSH1 0x24 DUP3 ADD MSTORE PUSH32 0x4C50546F6B656E3A2061646472657373207A65726F206973206E6F7420612076 PUSH1 0x44 DUP3 ADD MSTORE PUSH10 0x30B634B21037BBB732B9 PUSH1 0xB1 SHL PUSH1 0x64 DUP3 ADD MSTORE PUSH1 0x84 ADD PUSH2 0x3BA JUMP JUMPDEST POP PUSH1 0x1 PUSH1 0x1 PUSH1 0xA0 SHL SUB AND PUSH1 0x0 SWAP1 DUP2 MSTORE PUSH1 0x5 PUSH1 0x20 MSTORE PUSH1 0x40 SWAP1 KECCAK256 SLOAD SWAP1 JUMP JUMPDEST PUSH1 0x60 PUSH1 0x1 DUP1 SLOAD PUSH2 0x29A SWAP1 PUSH2 0x12A6 JUMP JUMPDEST PUSH2 0x4B3 CALLER DUP4 DUP4 PUSH2 0xA98 JUMP JUMPDEST PUSH2 0x5F9 CALLER DUP4 PUSH2 0x795 JUMP JUMPDEST PUSH2 0x615 JUMPI PUSH1 0x40 MLOAD PUSH3 0x461BCD PUSH1 0xE5 SHL DUP2 MSTORE PUSH1 0x4 ADD PUSH2 0x3BA SWAP1 PUSH2 0x12E1 JUMP JUMPDEST PUSH2 0x621 DUP5 DUP5 DUP5 DUP5 PUSH2 0xB64 JUMP JUMPDEST POP POP POP POP JUMP JUMPDEST PUSH1 0x3 SLOAD PUSH1 0x1 PUSH1 0x1 PUSH1 0xA0 SHL SUB AND CALLER EQ PUSH2 0x63E JUMPI PUSH1 0x0 DUP1 REVERT JUMPDEST PUSH1 0x2 DUP1 SLOAD PUSH1 0x1 PUSH1 0x1 PUSH1 0xA0 SHL SUB NOT AND PUSH1 0x1 PUSH1 0x1 PUSH1 0xA0 SHL SUB SWAP3 SWAP1 SWAP3 AND SWAP2 SWAP1 SWAP2 OR SWAP1 SSTORE JUMP JUMPDEST PUSH1 0x60 PUSH2 0x66B DUP3 PUSH2 0x702 JUMP JUMPDEST PUSH1 0x0 PUSH2 0x682 PUSH1 0x40 DUP1 MLOAD PUSH1 0x20 DUP2 ADD SWAP1 SWAP2 MSTORE PUSH1 0x0 DUP2 MSTORE SWAP1 JUMP JUMPDEST SWAP1 POP PUSH1 0x0 DUP2 MLOAD GT PUSH2 0x6A2 JUMPI PUSH1 0x40 MLOAD DUP1 PUSH1 0x20 ADD PUSH1 0x40 MSTORE DUP1 PUSH1 0x0 DUP2 MSTORE POP PUSH2 0x6CD JUMP JUMPDEST DUP1 PUSH2 0x6AC DUP5 PUSH2 0xB97 JUMP JUMPDEST PUSH1 0x40 MLOAD PUSH1 0x20 ADD PUSH2 0x6BD SWAP3 SWAP2 SWAP1 PUSH2 0x1362 JUMP JUMPDEST PUSH1 0x40 MLOAD PUSH1 0x20 DUP2 DUP4 SUB SUB DUP2 MSTORE SWAP1 PUSH1 0x40 MSTORE JUMPDEST SWAP4 SWAP3 POP POP POP JUMP JUMPDEST PUSH1 0x1 PUSH1 0x1 PUSH1 0xA0 SHL SUB SWAP2 DUP3 AND PUSH1 0x0 SWAP1 DUP2 MSTORE PUSH1 0x7 PUSH1 0x20 SWAP1 DUP2 MSTORE PUSH1 0x40 DUP1 DUP4 KECCAK256 SWAP4 SWAP1 SWAP5 AND DUP3 MSTORE SWAP2 SWAP1 SWAP2 MSTORE KECCAK256 SLOAD PUSH1 0xFF AND SWAP1 JUMP JUMPDEST PUSH2 0x70B DUP2 PUSH2 0xC33 JUMP JUMPDEST PUSH2 0x517 JUMPI PUSH1 0x40 MLOAD PUSH3 0x461BCD PUSH1 0xE5 SHL DUP2 MSTORE PUSH1 0x4 ADD PUSH2 0x3BA SWAP1 PUSH2 0x132F JUMP JUMPDEST PUSH1 0x0 DUP2 DUP2 MSTORE PUSH1 0x6 PUSH1 0x20 MSTORE PUSH1 0x40 SWAP1 KECCAK256 DUP1 SLOAD PUSH1 0x1 PUSH1 0x1 PUSH1 0xA0 SHL SUB NOT AND PUSH1 0x1 PUSH1 0x1 PUSH1 0xA0 SHL SUB DUP5 AND SWAP1 DUP2 OR SWAP1 SWAP2 SSTORE DUP2 SWAP1 PUSH2 0x75C DUP3 PUSH2 0x51A JUMP JUMPDEST PUSH1 0x1 PUSH1 0x1 PUSH1 0xA0 SHL SUB AND PUSH32 0x8C5BE1E5EBEC7D5BD14F71427D1E84F3DD0314C0F7B2291E5B200AC8C7C3B925 PUSH1 0x40 MLOAD PUSH1 0x40 MLOAD DUP1 SWAP2 SUB SWAP1 LOG4 POP POP JUMP JUMPDEST PUSH1 0x0 DUP1 PUSH2 0x7A1 DUP4 PUSH2 0x51A JUMP JUMPDEST SWAP1 POP DUP1 PUSH1 0x1 PUSH1 0x1 PUSH1 0xA0 SHL SUB AND DUP5 PUSH1 0x1 PUSH1 0x1 PUSH1 0xA0 SHL SUB AND EQ DUP1 PUSH2 0x7C8 JUMPI POP PUSH2 0x7C8 DUP2 DUP6 PUSH2 0x6D4 JUMP JUMPDEST DUP1 PUSH2 0x7EC JUMPI POP DUP4 PUSH1 0x1 PUSH1 0x1 PUSH1 0xA0 SHL SUB AND PUSH2 0x7E1 DUP5 PUSH2 0x31D JUMP JUMPDEST PUSH1 0x1 PUSH1 0x1 PUSH1 0xA0 SHL SUB AND EQ JUMPDEST SWAP5 SWAP4 POP POP POP POP JUMP JUMPDEST DUP3 PUSH1 0x1 PUSH1 0x1 PUSH1 0xA0 SHL SUB AND PUSH2 0x807 DUP3 PUSH2 0x51A JUMP JUMPDEST PUSH1 0x1 PUSH1 0x1 PUSH1 0xA0 SHL SUB AND EQ PUSH2 0x86C JUMPI PUSH1 0x40 MLOAD PUSH3 0x461BCD PUSH1 0xE5 SHL DUP2 MSTORE PUSH1 0x20 PUSH1 0x4 DUP3 ADD MSTORE PUSH1 0x26 PUSH1 0x24 DUP3 ADD MSTORE PUSH32 0x4C50546F6B656E3A207472616E736665722066726F6D20696E636F7272656374 PUSH1 0x44 DUP3 ADD MSTORE PUSH6 0x1037BBB732B9 PUSH1 0xD1 SHL PUSH1 0x64 DUP3 ADD MSTORE PUSH1 0x84 ADD PUSH2 0x3BA JUMP JUMPDEST PUSH1 0x1 PUSH1 0x1 PUSH1 0xA0 SHL SUB DUP3 AND PUSH2 0x8D0 JUMPI PUSH1 0x40 MLOAD PUSH3 0x461BCD PUSH1 0xE5 SHL DUP2 MSTORE PUSH1 0x20 PUSH1 0x4 DUP3 ADD MSTORE PUSH1 0x25 PUSH1 0x24 DUP3 ADD MSTORE PUSH32 0x4C50546F6B656E3A207472616E7366657220746F20746865207A65726F206164 PUSH1 0x44 DUP3 ADD MSTORE PUSH5 0x6472657373 PUSH1 0xD8 SHL PUSH1 0x64 DUP3 ADD MSTORE PUSH1 0x84 ADD PUSH2 0x3BA JUMP JUMPDEST PUSH2 0x8DD DUP4 DUP4 DUP4 PUSH1 0x1 PUSH2 0xC50 JUMP JUMPDEST DUP3 PUSH1 0x1 PUSH1 0x1 PUSH1 0xA0 SHL SUB AND PUSH2 0x8F0 DUP3 PUSH2 0x51A JUMP JUMPDEST PUSH1 0x1 PUSH1 0x1 PUSH1 0xA0 SHL SUB AND EQ PUSH2 0x954 JUMPI PUSH1 0x40 MLOAD PUSH3 0x461BCD PUSH1 0xE5 SHL DUP2 MSTORE PUSH1 0x20 PUSH1 0x4 DUP3 ADD MSTORE PUSH1 0x25 PUSH1 0x24 DUP3 ADD MSTORE PUSH32 0x4552433732313A207472616E736665722066726F6D20696E636F727265637420 PUSH1 0x44 DUP3 ADD MSTORE PUSH5 0x37BBB732B9 PUSH1 0xD9 SHL PUSH1 0x64 DUP3 ADD MSTORE PUSH1 0x84 ADD PUSH2 0x3BA JUMP JUMPDEST PUSH1 0x0 DUP2 DUP2 MSTORE PUSH1 0x6 PUSH1 0x20 SWAP1 DUP2 MSTORE PUSH1 0x40 DUP1 DUP4 KECCAK256 DUP1 SLOAD PUSH1 0x1 PUSH1 0x1 PUSH1 0xA0 SHL SUB NOT SWAP1 DUP2 AND SWAP1 SWAP2 SSTORE PUSH1 0x1 PUSH1 0x1 PUSH1 0xA0 SHL SUB DUP8 DUP2 AND DUP1 DUP7 MSTORE PUSH1 0x5 DUP6 MSTORE DUP4 DUP7 KECCAK256 DUP1 SLOAD PUSH1 0x0 NOT ADD SWAP1 SSTORE SWAP1 DUP8 AND DUP1 DUP7 MSTORE DUP4 DUP7 KECCAK256 DUP1 SLOAD PUSH1 0x1 ADD SWAP1 SSTORE DUP7 DUP7 MSTORE PUSH1 0x4 SWAP1 SWAP5 MSTORE DUP3 DUP6 KECCAK256 DUP1 SLOAD SWAP1 SWAP3 AND DUP5 OR SWAP1 SWAP2 SSTORE SWAP1 MLOAD DUP5 SWAP4 PUSH1 0x0 DUP1 MLOAD PUSH1 0x20 PUSH2 0x14BB DUP4 CODECOPY DUP2 MLOAD SWAP2 MSTORE SWAP2 LOG4 POP POP POP JUMP JUMPDEST PUSH2 0x4B3 DUP3 DUP3 PUSH1 0x40 MLOAD DUP1 PUSH1 0x20 ADD PUSH1 0x40 MSTORE DUP1 PUSH1 0x0 DUP2 MSTORE POP PUSH2 0xCD8 JUMP JUMPDEST PUSH1 0x0 PUSH2 0x9F7 DUP3 PUSH2 0x51A JUMP JUMPDEST SWAP1 POP PUSH2 0xA07 DUP2 PUSH1 0x0 DUP5 PUSH1 0x1 PUSH2 0xC50 JUMP JUMPDEST PUSH2 0xA10 DUP3 PUSH2 0x51A JUMP JUMPDEST PUSH1 0x0 DUP4 DUP2 MSTORE PUSH1 0x6 PUSH1 0x20 SWAP1 DUP2 MSTORE PUSH1 0x40 DUP1 DUP4 KECCAK256 DUP1 SLOAD PUSH1 0x1 PUSH1 0x1 PUSH1 0xA0 SHL SUB NOT SWAP1 DUP2 AND SWAP1 SWAP2 SSTORE PUSH1 0x1 PUSH1 0x1 PUSH1 0xA0 SHL SUB DUP6 AND DUP1 DUP6 MSTORE PUSH1 0x5 DUP5 MSTORE DUP3 DUP6 KECCAK256 DUP1 SLOAD PUSH1 0x0 NOT ADD SWAP1 SSTORE DUP8 DUP6 MSTORE PUSH1 0x4 SWAP1 SWAP4 MSTORE DUP2 DUP5 KECCAK256 DUP1 SLOAD SWAP1 SWAP2 AND SWAP1 SSTORE MLOAD SWAP3 SWAP4 POP DUP5 SWAP3 PUSH1 0x0 DUP1 MLOAD PUSH1 0x20 PUSH2 0x14BB DUP4 CODECOPY DUP2 MLOAD SWAP2 MSTORE SWAP1 DUP4 SWAP1 LOG4 POP POP JUMP JUMPDEST PUSH1 0x0 SWAP1 DUP2 MSTORE PUSH1 0x4 PUSH1 0x20 MSTORE PUSH1 0x40 SWAP1 KECCAK256 SLOAD PUSH1 0x1 PUSH1 0x1 PUSH1 0xA0 SHL SUB AND SWAP1 JUMP JUMPDEST DUP2 PUSH1 0x1 PUSH1 0x1 PUSH1 0xA0 SHL SUB AND DUP4 PUSH1 0x1 PUSH1 0x1 PUSH1 0xA0 SHL SUB AND EQ ISZERO PUSH2 0xAF7 JUMPI PUSH1 0x40 MLOAD PUSH3 0x461BCD PUSH1 0xE5 SHL DUP2 MSTORE PUSH1 0x20 PUSH1 0x4 DUP3 ADD MSTORE PUSH1 0x1A PUSH1 0x24 DUP3 ADD MSTORE PUSH26 0x26282A37B5B2B71D1030B8383937BB32903A379031B0B63632B9 PUSH1 0x31 SHL PUSH1 0x44 DUP3 ADD MSTORE PUSH1 0x64 ADD PUSH2 0x3BA JUMP JUMPDEST PUSH1 0x1 PUSH1 0x1 PUSH1 0xA0 SHL SUB DUP4 DUP2 AND PUSH1 0x0 DUP2 DUP2 MSTORE PUSH1 0x7 PUSH1 0x20 SWAP1 DUP2 MSTORE PUSH1 0x40 DUP1 DUP4 KECCAK256 SWAP5 DUP8 AND DUP1 DUP5 MSTORE SWAP5 DUP3 MSTORE SWAP2 DUP3 SWAP1 KECCAK256 DUP1 SLOAD PUSH1 0xFF NOT AND DUP7 ISZERO ISZERO SWAP1 DUP2 OR SWAP1 SWAP2 SSTORE SWAP2 MLOAD SWAP2 DUP3 MSTORE PUSH32 0x17307EAB39AB6107E8899845AD3D59BD9653F200F220920489CA2B5937696C31 SWAP2 ADD PUSH1 0x40 MLOAD DUP1 SWAP2 SUB SWAP1 LOG3 POP POP POP JUMP JUMPDEST PUSH2 0xB6F DUP5 DUP5 DUP5 PUSH2 0x7F4 JUMP JUMPDEST PUSH2 0xB7B DUP5 DUP5 DUP5 DUP5 PUSH2 0xD0B JUMP JUMPDEST PUSH2 0x621 JUMPI PUSH1 0x40 MLOAD PUSH3 0x461BCD PUSH1 0xE5 SHL DUP2 MSTORE PUSH1 0x4 ADD PUSH2 0x3BA SWAP1 PUSH2 0x1391 JUMP JUMPDEST PUSH1 0x60 PUSH1 0x0 PUSH2 0xBA4 DUP4 PUSH2 0xE09 JUMP JUMPDEST PUSH1 0x1 ADD SWAP1 POP PUSH1 0x0 DUP2 PUSH1 0x1 PUSH1 0x1 PUSH1 0x40 SHL SUB DUP2 GT ISZERO PUSH2 0xBC3 JUMPI PUSH2 0xBC3 PUSH2 0x1182 JUMP JUMPDEST PUSH1 0x40 MLOAD SWAP1 DUP1 DUP3 MSTORE DUP1 PUSH1 0x1F ADD PUSH1 0x1F NOT AND PUSH1 0x20 ADD DUP3 ADD PUSH1 0x40 MSTORE DUP1 ISZERO PUSH2 0xBED JUMPI PUSH1 0x20 DUP3 ADD DUP2 DUP1 CALLDATASIZE DUP4 CALLDATACOPY ADD SWAP1 POP JUMPDEST POP SWAP1 POP DUP2 DUP2 ADD PUSH1 0x20 ADD JUMPDEST PUSH1 0x0 NOT ADD PUSH16 0x181899199A1A9B1B9C1CB0B131B232B3 PUSH1 0x81 SHL PUSH1 0xA DUP7 MOD BYTE DUP2 MSTORE8 PUSH1 0xA DUP6 DIV SWAP5 POP DUP5 PUSH2 0xC26 JUMPI PUSH2 0xC2B JUMP JUMPDEST PUSH2 0xBF7 JUMP JUMPDEST POP SWAP4 SWAP3 POP POP POP JUMP JUMPDEST PUSH1 0x0 DUP1 PUSH2 0xC3F DUP4 PUSH2 0xA7D JUMP JUMPDEST PUSH1 0x1 PUSH1 0x1 PUSH1 0xA0 SHL SUB AND EQ ISZERO SWAP3 SWAP2 POP POP JUMP JUMPDEST PUSH1 0x1 DUP2 GT ISZERO PUSH2 0x621 JUMPI PUSH1 0x1 PUSH1 0x1 PUSH1 0xA0 SHL SUB DUP5 AND ISZERO PUSH2 0xC96 JUMPI PUSH1 0x1 PUSH1 0x1 PUSH1 0xA0 SHL SUB DUP5 AND PUSH1 0x0 SWAP1 DUP2 MSTORE PUSH1 0x5 PUSH1 0x20 MSTORE PUSH1 0x40 DUP2 KECCAK256 DUP1 SLOAD DUP4 SWAP3 SWAP1 PUSH2 0xC90 SWAP1 DUP5 SWAP1 PUSH2 0x13FA JUMP JUMPDEST SWAP1 SWAP2 SSTORE POP POP JUMPDEST PUSH1 0x1 PUSH1 0x1 PUSH1 0xA0 SHL SUB DUP4 AND ISZERO PUSH2 0x621 JUMPI PUSH1 0x1 PUSH1 0x1 PUSH1 0xA0 SHL SUB DUP4 AND PUSH1 0x0 SWAP1 DUP2 MSTORE PUSH1 0x5 PUSH1 0x20 MSTORE PUSH1 0x40 DUP2 KECCAK256 DUP1 SLOAD DUP4 SWAP3 SWAP1 PUSH2 0xCCD SWAP1 DUP5 SWAP1 PUSH2 0x1411 JUMP JUMPDEST SWAP1 SWAP2 SSTORE POP POP POP POP POP POP JUMP JUMPDEST PUSH2 0xCE2 DUP4 DUP4 PUSH2 0xEDF JUMP JUMPDEST PUSH2 0xCEF PUSH1 0x0 DUP5 DUP5 DUP5 PUSH2 0xD0B JUMP JUMPDEST PUSH2 0x45B JUMPI PUSH1 0x40 MLOAD PUSH3 0x461BCD PUSH1 0xE5 SHL DUP2 MSTORE PUSH1 0x4 ADD PUSH2 0x3BA SWAP1 PUSH2 0x1391 JUMP JUMPDEST PUSH1 0x0 PUSH1 0x1 PUSH1 0x1 PUSH1 0xA0 SHL SUB DUP5 AND EXTCODESIZE ISZERO PUSH2 0xDFE JUMPI PUSH1 0x40 MLOAD PUSH4 0xA85BD01 PUSH1 0xE1 SHL DUP2 MSTORE PUSH1 0x1 PUSH1 0x1 PUSH1 0xA0 SHL SUB DUP6 AND SWAP1 PUSH4 0x150B7A02 SWAP1 PUSH2 0xD4F SWAP1 CALLER SWAP1 DUP10 SWAP1 DUP9 SWAP1 DUP9 SWAP1 PUSH1 0x4 ADD PUSH2 0x1429 JUMP JUMPDEST PUSH1 0x20 PUSH1 0x40 MLOAD DUP1 DUP4 SUB DUP2 PUSH1 0x0 DUP8 GAS CALL SWAP3 POP POP POP DUP1 ISZERO PUSH2 0xD8A JUMPI POP PUSH1 0x40 DUP1 MLOAD PUSH1 0x1F RETURNDATASIZE SWAP1 DUP2 ADD PUSH1 0x1F NOT AND DUP3 ADD SWAP1 SWAP3 MSTORE PUSH2 0xD87 SWAP2 DUP2 ADD SWAP1 PUSH2 0x1466 JUMP JUMPDEST PUSH1 0x1 JUMPDEST PUSH2 0xDE4 JUMPI RETURNDATASIZE DUP1 DUP1 ISZERO PUSH2 0xDB8 JUMPI PUSH1 0x40 MLOAD SWAP2 POP PUSH1 0x1F NOT PUSH1 0x3F RETURNDATASIZE ADD AND DUP3 ADD PUSH1 0x40 MSTORE RETURNDATASIZE DUP3 MSTORE RETURNDATASIZE PUSH1 0x0 PUSH1 0x20 DUP5 ADD RETURNDATACOPY PUSH2 0xDBD JUMP JUMPDEST PUSH1 0x60 SWAP2 POP JUMPDEST POP DUP1 MLOAD PUSH2 0xDDC JUMPI PUSH1 0x40 MLOAD PUSH3 0x461BCD PUSH1 0xE5 SHL DUP2 MSTORE PUSH1 0x4 ADD PUSH2 0x3BA SWAP1 PUSH2 0x1391 JUMP JUMPDEST DUP1 MLOAD DUP2 PUSH1 0x20 ADD REVERT JUMPDEST PUSH1 0x1 PUSH1 0x1 PUSH1 0xE0 SHL SUB NOT AND PUSH4 0xA85BD01 PUSH1 0xE1 SHL EQ SWAP1 POP PUSH2 0x7EC JUMP JUMPDEST POP PUSH1 0x1 SWAP5 SWAP4 POP POP POP POP JUMP JUMPDEST PUSH1 0x0 DUP1 PUSH19 0x184F03E93FF9F4DAA797ED6E38ED64BF6A1F01 PUSH1 0x40 SHL DUP4 LT PUSH2 0xE48 JUMPI PUSH19 0x184F03E93FF9F4DAA797ED6E38ED64BF6A1F01 PUSH1 0x40 SHL DUP4 DIV SWAP3 POP PUSH1 0x40 ADD JUMPDEST PUSH10 0x4EE2D6D415B85ACEF81 PUSH1 0x20 SHL DUP4 LT PUSH2 0xE72 JUMPI PUSH10 0x4EE2D6D415B85ACEF81 PUSH1 0x20 SHL DUP4 DIV SWAP3 POP PUSH1 0x20 ADD JUMPDEST PUSH7 0x2386F26FC10000 DUP4 LT PUSH2 0xE90 JUMPI PUSH7 0x2386F26FC10000 DUP4 DIV SWAP3 POP PUSH1 0x10 ADD JUMPDEST PUSH4 0x5F5E100 DUP4 LT PUSH2 0xEA8 JUMPI PUSH4 0x5F5E100 DUP4 DIV SWAP3 POP PUSH1 0x8 ADD JUMPDEST PUSH2 0x2710 DUP4 LT PUSH2 0xEBC JUMPI PUSH2 0x2710 DUP4 DIV SWAP3 POP PUSH1 0x4 ADD JUMPDEST PUSH1 0x64 DUP4 LT PUSH2 0xECE JUMPI PUSH1 0x64 DUP4 DIV SWAP3 POP PUSH1 0x2 ADD JUMPDEST PUSH1 0xA DUP4 LT PUSH2 0x285 JUMPI PUSH1 0x1 ADD SWAP3 SWAP2 POP POP JUMP JUMPDEST PUSH1 0x1 PUSH1 0x1 PUSH1 0xA0 SHL SUB DUP3 AND PUSH2 0xF3F JUMPI PUSH1 0x40 MLOAD PUSH3 0x461BCD PUSH1 0xE5 SHL DUP2 MSTORE PUSH1 0x20 PUSH1 0x4 DUP3 ADD MSTORE PUSH1 0x21 PUSH1 0x24 DUP3 ADD MSTORE PUSH32 0x4C50546F6B656E3A206D696E7420746F20746865207A65726F20616464726573 PUSH1 0x44 DUP3 ADD MSTORE PUSH1 0x73 PUSH1 0xF8 SHL PUSH1 0x64 DUP3 ADD MSTORE PUSH1 0x84 ADD PUSH2 0x3BA JUMP JUMPDEST PUSH2 0xF48 DUP2 PUSH2 0xC33 JUMP JUMPDEST ISZERO PUSH2 0xF65 JUMPI PUSH1 0x40 MLOAD PUSH3 0x461BCD PUSH1 0xE5 SHL DUP2 MSTORE PUSH1 0x4 ADD PUSH2 0x3BA SWAP1 PUSH2 0x1483 JUMP JUMPDEST PUSH2 0xF73 PUSH1 0x0 DUP4 DUP4 PUSH1 0x1 PUSH2 0xC50 JUMP JUMPDEST PUSH2 0xF7C DUP2 PUSH2 0xC33 JUMP JUMPDEST ISZERO PUSH2 0xF99 JUMPI PUSH1 0x40 MLOAD PUSH3 0x461BCD PUSH1 0xE5 SHL DUP2 MSTORE PUSH1 0x4 ADD PUSH2 0x3BA SWAP1 PUSH2 0x1483 JUMP JUMPDEST PUSH1 0x1 PUSH1 0x1 PUSH1 0xA0 SHL SUB DUP3 AND PUSH1 0x0 DUP2 DUP2 MSTORE PUSH1 0x5 PUSH1 0x20 SWAP1 DUP2 MSTORE PUSH1 0x40 DUP1 DUP4 KECCAK256 DUP1 SLOAD PUSH1 0x1 ADD SWAP1 SSTORE DUP5 DUP4 MSTORE PUSH1 0x4 SWAP1 SWAP2 MSTORE DUP1 DUP3 KECCAK256 DUP1 SLOAD PUSH1 0x1 PUSH1 0x1 PUSH1 0xA0 SHL SUB NOT AND DUP5 OR SWAP1 SSTORE MLOAD DUP4 SWAP3 SWAP2 SWAP1 PUSH1 0x0 DUP1 MLOAD PUSH1 0x20 PUSH2 0x14BB DUP4 CODECOPY DUP2 MLOAD SWAP2 MSTORE SWAP1 DUP3 SWAP1 LOG4 POP POP JUMP JUMPDEST PUSH1 0x1 PUSH1 0x1 PUSH1 0xE0 SHL SUB NOT DUP2 AND DUP2 EQ PUSH2 0x517 JUMPI PUSH1 0x0 DUP1 REVERT JUMPDEST PUSH1 0x0 PUSH1 0x20 DUP3 DUP5 SUB SLT ISZERO PUSH2 0x101A JUMPI PUSH1 0x0 DUP1 REVERT JUMPDEST DUP2 CALLDATALOAD PUSH2 0x6CD DUP2 PUSH2 0xFF2 JUMP JUMPDEST PUSH1 0x0 JUMPDEST DUP4 DUP2 LT ISZERO PUSH2 0x1040 JUMPI DUP2 DUP2 ADD MLOAD DUP4 DUP3 ADD MSTORE PUSH1 0x20 ADD PUSH2 0x1028 JUMP JUMPDEST DUP4 DUP2 GT ISZERO PUSH2 0x621 JUMPI POP POP PUSH1 0x0 SWAP2 ADD MSTORE JUMP JUMPDEST PUSH1 0x0 DUP2 MLOAD DUP1 DUP5 MSTORE PUSH2 0x1069 DUP2 PUSH1 0x20 DUP7 ADD PUSH1 0x20 DUP7 ADD PUSH2 0x1025 JUMP JUMPDEST PUSH1 0x1F ADD PUSH1 0x1F NOT AND SWAP3 SWAP1 SWAP3 ADD PUSH1 0x20 ADD SWAP3 SWAP2 POP POP JUMP JUMPDEST PUSH1 0x20 DUP2 MSTORE PUSH1 0x0 PUSH2 0x6CD PUSH1 0x20 DUP4 ADD DUP5 PUSH2 0x1051 JUMP JUMPDEST PUSH1 0x0 PUSH1 0x20 DUP3 DUP5 SUB SLT ISZERO PUSH2 0x10A2 JUMPI PUSH1 0x0 DUP1 REVERT JUMPDEST POP CALLDATALOAD SWAP2 SWAP1 POP JUMP JUMPDEST DUP1 CALLDATALOAD PUSH1 0x1 PUSH1 0x1 PUSH1 0xA0 SHL SUB DUP2 AND DUP2 EQ PUSH2 0x10C0 JUMPI PUSH1 0x0 DUP1 REVERT JUMPDEST SWAP2 SWAP1 POP JUMP JUMPDEST PUSH1 0x0 DUP1 PUSH1 0x40 DUP4 DUP6 SUB SLT ISZERO PUSH2 0x10D8 JUMPI PUSH1 0x0 DUP1 REVERT JUMPDEST PUSH2 0x10E1 DUP4 PUSH2 0x10A9 JUMP JUMPDEST SWAP5 PUSH1 0x20 SWAP4 SWAP1 SWAP4 ADD CALLDATALOAD SWAP4 POP POP POP JUMP JUMPDEST PUSH1 0x0 DUP1 PUSH1 0x0 PUSH1 0x60 DUP5 DUP7 SUB SLT ISZERO PUSH2 0x1104 JUMPI PUSH1 0x0 DUP1 REVERT JUMPDEST PUSH2 0x110D DUP5 PUSH2 0x10A9 JUMP JUMPDEST SWAP3 POP PUSH2 0x111B PUSH1 0x20 DUP6 ADD PUSH2 0x10A9 JUMP JUMPDEST SWAP2 POP PUSH1 0x40 DUP5 ADD CALLDATALOAD SWAP1 POP SWAP3 POP SWAP3 POP SWAP3 JUMP JUMPDEST PUSH1 0x0 PUSH1 0x20 DUP3 DUP5 SUB SLT ISZERO PUSH2 0x113D JUMPI PUSH1 0x0 DUP1 REVERT JUMPDEST PUSH2 0x6CD DUP3 PUSH2 0x10A9 JUMP JUMPDEST PUSH1 0x0 DUP1 PUSH1 0x40 DUP4 DUP6 SUB SLT ISZERO PUSH2 0x1159 JUMPI PUSH1 0x0 DUP1 REVERT JUMPDEST PUSH2 0x1162 DUP4 PUSH2 0x10A9 JUMP JUMPDEST SWAP2 POP PUSH1 0x20 DUP4 ADD CALLDATALOAD DUP1 ISZERO ISZERO DUP2 EQ PUSH2 0x1177 JUMPI PUSH1 0x0 DUP1 REVERT JUMPDEST DUP1 SWAP2 POP POP SWAP3 POP SWAP3 SWAP1 POP JUMP JUMPDEST PUSH4 0x4E487B71 PUSH1 0xE0 SHL PUSH1 0x0 MSTORE PUSH1 0x41 PUSH1 0x4 MSTORE PUSH1 0x24 PUSH1 0x0 REVERT JUMPDEST PUSH1 0x0 DUP1 PUSH1 0x0 DUP1 PUSH1 0x80 DUP6 DUP8 SUB SLT ISZERO PUSH2 0x11AE JUMPI PUSH1 0x0 DUP1 REVERT JUMPDEST PUSH2 0x11B7 DUP6 PUSH2 0x10A9 JUMP JUMPDEST SWAP4 POP PUSH2 0x11C5 PUSH1 0x20 DUP7 ADD PUSH2 0x10A9 JUMP JUMPDEST SWAP3 POP PUSH1 0x40 DUP6 ADD CALLDATALOAD SWAP2 POP PUSH1 0x60 DUP6 ADD CALLDATALOAD PUSH1 0x1 PUSH1 0x1 PUSH1 0x40 SHL SUB DUP1 DUP3 GT ISZERO PUSH2 0x11E8 JUMPI PUSH1 0x0 DUP1 REVERT JUMPDEST DUP2 DUP8 ADD SWAP2 POP DUP8 PUSH1 0x1F DUP4 ADD SLT PUSH2 0x11FC JUMPI PUSH1 0x0 DUP1 REVERT JUMPDEST DUP2 CALLDATALOAD DUP2 DUP2 GT ISZERO PUSH2 0x120E JUMPI PUSH2 0x120E PUSH2 0x1182 JUMP JUMPDEST PUSH1 0x40 MLOAD PUSH1 0x1F DUP3 ADD PUSH1 0x1F NOT SWAP1 DUP2 AND PUSH1 0x3F ADD AND DUP2 ADD SWAP1 DUP4 DUP3 GT DUP2 DUP4 LT OR ISZERO PUSH2 0x1236 JUMPI PUSH2 0x1236 PUSH2 0x1182 JUMP JUMPDEST DUP2 PUSH1 0x40 MSTORE DUP3 DUP2 MSTORE DUP11 PUSH1 0x20 DUP5 DUP8 ADD ADD GT ISZERO PUSH2 0x124F JUMPI PUSH1 0x0 DUP1 REVERT JUMPDEST DUP3 PUSH1 0x20 DUP7 ADD PUSH1 0x20 DUP4 ADD CALLDATACOPY PUSH1 0x0 PUSH1 0x20 DUP5 DUP4 ADD ADD MSTORE DUP1 SWAP6 POP POP POP POP POP POP SWAP3 SWAP6 SWAP2 SWAP5 POP SWAP3 POP JUMP JUMPDEST PUSH1 0x0 DUP1 PUSH1 0x40 DUP4 DUP6 SUB SLT ISZERO PUSH2 0x1286 JUMPI PUSH1 0x0 DUP1 REVERT JUMPDEST PUSH2 0x128F DUP4 PUSH2 0x10A9 JUMP JUMPDEST SWAP2 POP PUSH2 0x129D PUSH1 0x20 DUP5 ADD PUSH2 0x10A9 JUMP JUMPDEST SWAP1 POP SWAP3 POP SWAP3 SWAP1 POP JUMP JUMPDEST PUSH1 0x1 DUP2 DUP2 SHR SWAP1 DUP3 AND DUP1 PUSH2 0x12BA JUMPI PUSH1 0x7F DUP3 AND SWAP2 POP JUMPDEST PUSH1 0x20 DUP3 LT DUP2 EQ ISZERO PUSH2 0x12DB JUMPI PUSH4 0x4E487B71 PUSH1 0xE0 SHL PUSH1 0x0 MSTORE PUSH1 0x22 PUSH1 0x4 MSTORE PUSH1 0x24 PUSH1 0x0 REVERT JUMPDEST POP SWAP2 SWAP1 POP JUMP JUMPDEST PUSH1 0x20 DUP1 DUP3 MSTORE PUSH1 0x2E SWAP1 DUP3 ADD MSTORE PUSH32 0x4C50546F6B656E3A2063616C6C6572206973206E6F7420746F6B656E206F776E PUSH1 0x40 DUP3 ADD MSTORE PUSH14 0x195C881BDC88185C1C1C9BDD9959 PUSH1 0x92 SHL PUSH1 0x60 DUP3 ADD MSTORE PUSH1 0x80 ADD SWAP1 JUMP JUMPDEST PUSH1 0x20 DUP1 DUP3 MSTORE PUSH1 0x19 SWAP1 DUP3 ADD MSTORE PUSH25 0x1314151BDAD95B8E881A5B9D985B1A59081D1BDAD95B881251 PUSH1 0x3A SHL PUSH1 0x40 DUP3 ADD MSTORE PUSH1 0x60 ADD SWAP1 JUMP JUMPDEST PUSH1 0x0 DUP4 MLOAD PUSH2 0x1374 DUP2 DUP5 PUSH1 0x20 DUP9 ADD PUSH2 0x1025 JUMP JUMPDEST DUP4 MLOAD SWAP1 DUP4 ADD SWAP1 PUSH2 0x1388 DUP2 DUP4 PUSH1 0x20 DUP9 ADD PUSH2 0x1025 JUMP JUMPDEST ADD SWAP5 SWAP4 POP POP POP POP JUMP JUMPDEST PUSH1 0x20 DUP1 DUP3 MSTORE PUSH1 0x33 SWAP1 DUP3 ADD MSTORE PUSH32 0x4C50546F6B656E3A207472616E7366657220746F206E6F6E2045524337323152 PUSH1 0x40 DUP3 ADD MSTORE PUSH19 0x32B1B2B4BB32B91034B6B83632B6B2B73A32B9 PUSH1 0x69 SHL PUSH1 0x60 DUP3 ADD MSTORE PUSH1 0x80 ADD SWAP1 JUMP JUMPDEST PUSH4 0x4E487B71 PUSH1 0xE0 SHL PUSH1 0x0 MSTORE PUSH1 0x11 PUSH1 0x4 MSTORE PUSH1 0x24 PUSH1 0x0 REVERT JUMPDEST PUSH1 0x0 DUP3 DUP3 LT ISZERO PUSH2 0x140C JUMPI PUSH2 0x140C PUSH2 0x13E4 JUMP JUMPDEST POP SUB SWAP1 JUMP JUMPDEST PUSH1 0x0 DUP3 NOT DUP3 GT ISZERO PUSH2 0x1424 JUMPI PUSH2 0x1424 PUSH2 0x13E4 JUMP JUMPDEST POP ADD SWAP1 JUMP JUMPDEST PUSH1 0x1 PUSH1 0x1 PUSH1 0xA0 SHL SUB DUP6 DUP2 AND DUP3 MSTORE DUP5 AND PUSH1 0x20 DUP3 ADD MSTORE PUSH1 0x40 DUP2 ADD DUP4 SWAP1 MSTORE PUSH1 0x80 PUSH1 0x60 DUP3 ADD DUP2 SWAP1 MSTORE PUSH1 0x0 SWAP1 PUSH2 0x145C SWAP1 DUP4 ADD DUP5 PUSH2 0x1051 JUMP JUMPDEST SWAP7 SWAP6 POP POP POP POP POP POP JUMP JUMPDEST PUSH1 0x0 PUSH1 0x20 DUP3 DUP5 SUB SLT ISZERO PUSH2 0x1478 JUMPI PUSH1 0x0 DUP1 REVERT JUMPDEST DUP2 MLOAD PUSH2 0x6CD DUP2 PUSH2 0xFF2 JUMP JUMPDEST PUSH1 0x20 DUP1 DUP3 MSTORE PUSH1 0x1D SWAP1 DUP3 ADD MSTORE PUSH32 0x4C50546F6B656E3A20746F6B656E20616C7265616479206D696E746564000000 PUSH1 0x40 DUP3 ADD MSTORE PUSH1 0x60 ADD SWAP1 JUMP INVALID 0xDD CALLCODE MSTORE 0xAD SHL 0xE2 0xC8 SWAP12 PUSH10 0xC2B068FC378DAA952BA7 CALL PUSH4 0xC4A11628 CREATE2 GAS 0x4D CREATE2 0x23 0xB3 0xEF LOG2 PUSH5 0x6970667358 0x22 SLT KECCAK256 0xDC 0xD4 LT PUSH31 0xCDAE1C68FC5DDB541EBFE4982A8137784F4F83ACAD9AAD1B16295BEE64736F PUSH13 0x634300080A003360A060405234 DUP1 ISZERO PUSH3 0x11 JUMPI PUSH1 0x0 DUP1 REVERT JUMPDEST POP PUSH1 0x40 MLOAD PUSH3 0x3B2B CODESIZE SUB DUP1 PUSH3 0x3B2B DUP4 CODECOPY DUP2 ADD PUSH1 0x40 DUP2 SWAP1 MSTORE PUSH3 0x34 SWAP2 PUSH3 0x19F JUMP JUMPDEST PUSH1 0x1 PUSH1 0x1 PUSH1 0xA0 SHL SUB DUP6 AND PUSH3 0x48 JUMPI PUSH1 0x0 DUP1 REVERT JUMPDEST PUSH1 0x1 PUSH1 0x1 PUSH1 0xA0 SHL SUB DUP6 DUP2 AND PUSH1 0x80 MSTORE PUSH1 0x1 DUP1 SLOAD PUSH1 0x1 PUSH1 0x1 PUSH1 0xA0 SHL SUB NOT SWAP1 DUP2 AND DUP8 DUP5 AND SWAP1 DUP2 OR SWAP1 SWAP3 SSTORE PUSH1 0x2 DUP1 SLOAD DUP3 AND DUP8 DUP6 AND OR SWAP1 SSTORE PUSH1 0x18 DUP1 SLOAD DUP3 AND SWAP4 DUP7 AND SWAP4 SWAP1 SWAP4 OR SWAP1 SWAP3 SSTORE PUSH1 0x19 DUP1 SLOAD SWAP1 SWAP3 AND OR SWAP1 SSTORE PUSH3 0x9F PUSH3 0xE0 JUMP JUMPDEST PUSH1 0x1 PUSH1 0x1 PUSH1 0x80 SHL SUB DUP2 AND PUSH1 0x16 SSTORE PUSH1 0xA PUSH8 0xDE0B6B3A7640000 DIV PUSH1 0x17 SSTORE PUSH3 0xD5 PUSH1 0xA PUSH1 0x0 PUSH3 0xEC PUSH1 0x20 SWAP1 DUP2 SHL PUSH3 0x20D9 OR SWAP1 SHR JUMP JUMPDEST POP POP POP POP POP PUSH3 0x21F JUMP JUMPDEST PUSH3 0xEA PUSH3 0x159 JUMP JUMPDEST JUMP JUMPDEST PUSH1 0x8 DUP2 SWAP1 SHR PUSH1 0x10 DUP3 SWAP1 SHR PUSH1 0x1 PUSH1 0xFF DUP5 AND SHL DUP5 PUSH1 0x2 PUSH1 0x0 DUP6 DUP2 MSTORE SWAP2 ADD PUSH1 0x20 MSTORE PUSH1 0x40 SWAP1 KECCAK256 DUP1 SLOAD SWAP1 SWAP2 OR SWAP1 SSTORE PUSH1 0x1 PUSH1 0xFF DUP4 AND DUP2 SWAP1 SHL SWAP1 DUP6 SWAP1 PUSH1 0x0 DUP5 DUP2 MSTORE SWAP2 ADD PUSH1 0x20 MSTORE PUSH1 0x40 DUP2 KECCAK256 DUP1 SLOAD SWAP1 SWAP3 OR SWAP1 SWAP2 SSTORE PUSH1 0x1 DUP3 SHL SWAP1 DUP6 SWAP1 PUSH1 0x0 DUP1 DUP1 MSTORE SWAP2 ADD PUSH1 0x20 MSTORE PUSH1 0x40 SWAP1 KECCAK256 DUP1 SLOAD SWAP1 SWAP2 OR SWAP1 SSTORE POP POP POP POP JUMP JUMPDEST PUSH1 0x0 SLOAD ISZERO PUSH3 0x17B JUMPI PUSH1 0x40 MLOAD PUSH4 0xD80075C1 PUSH1 0xE0 SHL DUP2 MSTORE PUSH1 0x4 ADD PUSH1 0x40 MLOAD DUP1 SWAP2 SUB SWAP1 REVERT JUMPDEST PUSH1 0x1 PUSH1 0x0 SSTORE JUMP JUMPDEST DUP1 MLOAD PUSH1 0x1 PUSH1 0x1 PUSH1 0xA0 SHL SUB DUP2 AND DUP2 EQ PUSH3 0x19A JUMPI PUSH1 0x0 DUP1 REVERT JUMPDEST SWAP2 SWAP1 POP JUMP JUMPDEST PUSH1 0x0 DUP1 PUSH1 0x0 DUP1 PUSH1 0x0 PUSH1 0xA0 DUP7 DUP9 SUB SLT ISZERO PUSH3 0x1B8 JUMPI PUSH1 0x0 DUP1 REVERT JUMPDEST PUSH3 0x1C3 DUP7 PUSH3 0x182 JUMP JUMPDEST SWAP5 POP PUSH3 0x1D3 PUSH1 0x20 DUP8 ADD PUSH3 0x182 JUMP JUMPDEST SWAP4 POP PUSH3 0x1E3 PUSH1 0x40 DUP8 ADD PUSH3 0x182 JUMP JUMPDEST SWAP3 POP PUSH3 0x1F3 PUSH1 0x60 DUP8 ADD PUSH3 0x182 JUMP JUMPDEST PUSH1 0x80 DUP8 ADD MLOAD SWAP1 SWAP3 POP PUSH1 0x1 PUSH1 0x1 PUSH1 0x80 SHL SUB DUP2 AND DUP2 EQ PUSH3 0x211 JUMPI PUSH1 0x0 DUP1 REVERT JUMPDEST DUP1 SWAP2 POP POP SWAP3 SWAP6 POP SWAP3 SWAP6 SWAP1 SWAP4 POP JUMP JUMPDEST PUSH1 0x80 MLOAD PUSH2 0x38E2 PUSH3 0x249 PUSH1 0x0 CODECOPY PUSH1 0x0 DUP2 DUP2 PUSH2 0x2FB ADD MSTORE DUP2 DUP2 PUSH2 0x489 ADD MSTORE PUSH2 0x937 ADD MSTORE PUSH2 0x38E2 PUSH1 0x0 RETURN INVALID PUSH1 0x80 PUSH1 0x40 MSTORE CALLVALUE DUP1 ISZERO PUSH2 0x10 JUMPI PUSH1 0x0 DUP1 REVERT JUMPDEST POP PUSH1 0x4 CALLDATASIZE LT PUSH2 0x107 JUMPI PUSH1 0x0 CALLDATALOAD PUSH1 0xE0 SHR DUP1 PUSH4 0xABE9688 EQ PUSH2 0x10C JUMPI DUP1 PUSH4 0xAE645BC EQ PUSH2 0x153 JUMPI DUP1 PUSH4 0x150B7A02 EQ PUSH2 0x169 JUMPI DUP1 PUSH4 0x16DC165B EQ PUSH2 0x1A0 JUMPI DUP1 PUSH4 0x1708B413 EQ PUSH2 0x1C0 JUMPI DUP1 PUSH4 0x1B05B83E EQ PUSH2 0x1D5 JUMPI DUP1 PUSH4 0x3357FCB1 EQ PUSH2 0x220 JUMPI DUP1 PUSH4 0x5728AD49 EQ PUSH2 0x273 JUMPI DUP1 PUSH4 0x5FCBD285 EQ PUSH2 0x286 JUMPI DUP1 PUSH4 0x98C7ADF3 EQ PUSH2 0x299 JUMPI DUP1 PUSH4 0xA1AF5B9A EQ PUSH2 0x2BD JUMPI DUP1 PUSH4 0xA3D055A7 EQ PUSH2 0x2C5 JUMPI DUP1 PUSH4 0xA582CDAA EQ PUSH2 0x2D8 JUMPI DUP1 PUSH4 0xB7D19FC4 EQ PUSH2 0x2E3 JUMPI DUP1 PUSH4 0xC45A0155 EQ PUSH2 0x2F6 JUMPI DUP1 PUSH4 0xC88DD271 EQ PUSH2 0x31D JUMPI DUP1 PUSH4 0xD1AD1FAE EQ PUSH2 0x33D JUMPI DUP1 PUSH4 0xD8DB47A7 EQ PUSH2 0x350 JUMPI DUP1 PUSH4 0xFCD3533C EQ PUSH2 0x363 JUMPI DUP1 PUSH4 0xFCEE45F4 EQ PUSH2 0x376 JUMPI DUP1 PUSH4 0xFD31C4AB EQ PUSH2 0x396 JUMPI JUMPDEST PUSH1 0x0 DUP1 REVERT JUMPDEST PUSH2 0x139 PUSH2 0x11A CALLDATASIZE PUSH1 0x4 PUSH2 0x3333 JUMP JUMPDEST PUSH3 0xFFFFFF AND PUSH1 0x0 SWAP1 DUP2 MSTORE PUSH1 0x9 PUSH1 0x20 MSTORE PUSH1 0x40 SWAP1 KECCAK256 DUP1 SLOAD PUSH1 0x1 SWAP1 SWAP2 ADD SLOAD SWAP1 SWAP2 JUMP JUMPDEST PUSH1 0x40 DUP1 MLOAD SWAP3 DUP4 MSTORE PUSH1 0x20 DUP4 ADD SWAP2 SWAP1 SWAP2 MSTORE ADD JUMPDEST PUSH1 0x40 MLOAD DUP1 SWAP2 SUB SWAP1 RETURN JUMPDEST PUSH2 0x15B PUSH2 0x3A9 JUMP JUMPDEST PUSH1 0x40 MLOAD SWAP1 DUP2 MSTORE PUSH1 0x20 ADD PUSH2 0x14A JUMP JUMPDEST PUSH2 0x187 PUSH2 0x177 CALLDATASIZE PUSH1 0x4 PUSH2 0x3383 JUMP JUMPDEST PUSH4 0xA85BD01 PUSH1 0xE1 SHL SWAP5 SWAP4 POP POP POP POP JUMP JUMPDEST PUSH1 0x40 MLOAD PUSH1 0x1 PUSH1 0x1 PUSH1 0xE0 SHL SUB NOT SWAP1 SWAP2 AND DUP2 MSTORE PUSH1 0x20 ADD PUSH2 0x14A JUMP JUMPDEST PUSH1 0x1 SLOAD PUSH2 0x1B3 SWAP1 PUSH1 0x1 PUSH1 0x1 PUSH1 0xA0 SHL SUB AND DUP2 JUMP JUMPDEST PUSH1 0x40 MLOAD PUSH2 0x14A SWAP2 SWAP1 PUSH2 0x3462 JUMP JUMPDEST PUSH2 0x1D3 PUSH2 0x1CE CALLDATASIZE PUSH1 0x4 PUSH2 0x34C1 JUMP JUMPDEST PUSH2 0x47E JUMP JUMPDEST STOP JUMPDEST PUSH1 0x3 SLOAD PUSH1 0x4 SLOAD PUSH1 0x1 PUSH1 0x1 PUSH1 0x88 SHL SUB PUSH1 0x1 PUSH1 0x30 SHL DUP4 DIV DUP2 AND SWAP3 SWAP2 AND SWAP1 PUSH3 0xFFFFFF DUP1 DUP3 AND SWAP2 PUSH4 0x1000000 SWAP1 DIV AND PUSH1 0x40 DUP1 MLOAD SWAP5 DUP6 MSTORE PUSH1 0x20 DUP6 ADD SWAP4 SWAP1 SWAP4 MSTORE SWAP2 DUP4 ADD MSTORE PUSH1 0x60 DUP3 ADD MSTORE PUSH1 0x80 ADD PUSH2 0x14A JUMP JUMPDEST PUSH2 0x257 PUSH2 0x22E CALLDATASIZE PUSH1 0x4 PUSH2 0x353A JUMP JUMPDEST PUSH1 0x0 SWAP1 DUP2 MSTORE PUSH1 0x12 PUSH1 0x20 MSTORE PUSH1 0x40 SWAP1 KECCAK256 SLOAD PUSH3 0xFFFFFF PUSH4 0x1000000 DUP3 DIV DUP2 AND SWAP3 PUSH1 0x1 PUSH1 0x30 SHL SWAP1 SWAP3 DIV AND SWAP1 JUMP JUMPDEST PUSH1 0x40 DUP1 MLOAD PUSH3 0xFFFFFF SWAP4 DUP5 AND DUP2 MSTORE SWAP3 SWAP1 SWAP2 AND PUSH1 0x20 DUP4 ADD MSTORE ADD PUSH2 0x14A JUMP JUMPDEST PUSH2 0x15B PUSH2 0x281 CALLDATASIZE PUSH1 0x4 PUSH2 0x3553 JUMP JUMPDEST PUSH2 0x4D9 JUMP JUMPDEST PUSH1 0x18 SLOAD PUSH2 0x1B3 SWAP1 PUSH1 0x1 PUSH1 0x1 PUSH1 0xA0 SHL SUB AND DUP2 JUMP JUMPDEST PUSH1 0x16 SLOAD PUSH1 0x17 SLOAD PUSH1 0x1C SLOAD PUSH1 0x40 DUP1 MLOAD SWAP4 DUP5 MSTORE PUSH1 0x20 DUP5 ADD SWAP3 SWAP1 SWAP3 MSTORE SWAP1 DUP3 ADD MSTORE PUSH1 0x60 ADD PUSH2 0x14A JUMP JUMPDEST PUSH2 0x15B PUSH2 0x906 JUMP JUMPDEST PUSH2 0x139 PUSH2 0x2D3 CALLDATASIZE PUSH1 0x4 PUSH2 0x3583 JUMP JUMPDEST PUSH2 0x9FA JUMP JUMPDEST PUSH1 0x5 SLOAD PUSH1 0x6 SLOAD PUSH2 0x139 JUMP JUMPDEST PUSH1 0x2 SLOAD PUSH2 0x1B3 SWAP1 PUSH1 0x1 PUSH1 0x1 PUSH1 0xA0 SHL SUB AND DUP2 JUMP JUMPDEST PUSH2 0x1B3 PUSH32 0x0 DUP2 JUMP JUMPDEST PUSH2 0x15B PUSH2 0x32B CALLDATASIZE PUSH1 0x4 PUSH2 0x353A JUMP JUMPDEST PUSH1 0x0 SWAP1 DUP2 MSTORE PUSH1 0x13 PUSH1 0x20 MSTORE PUSH1 0x40 SWAP1 KECCAK256 SLOAD SWAP1 JUMP JUMPDEST PUSH2 0x139 PUSH2 0x34B CALLDATASIZE PUSH1 0x4 PUSH2 0x35E7 JUMP JUMPDEST PUSH2 0xFB6 JUMP JUMPDEST PUSH2 0x1D3 PUSH2 0x35E CALLDATASIZE PUSH1 0x4 PUSH2 0x3553 JUMP JUMPDEST PUSH2 0x15F0 JUMP JUMPDEST PUSH2 0x139 PUSH2 0x371 CALLDATASIZE PUSH1 0x4 PUSH2 0x3553 JUMP JUMPDEST PUSH2 0x1A99 JUMP JUMPDEST PUSH2 0x15B PUSH2 0x384 CALLDATASIZE PUSH1 0x4 PUSH2 0x353A JUMP JUMPDEST PUSH1 0x0 SWAP1 DUP2 MSTORE PUSH1 0x10 PUSH1 0x20 MSTORE PUSH1 0x40 SWAP1 KECCAK256 SLOAD SWAP1 JUMP JUMPDEST PUSH2 0x15B PUSH2 0x3A4 CALLDATASIZE PUSH1 0x4 PUSH2 0x3333 JUMP JUMPDEST PUSH2 0x20C8 JUMP JUMPDEST PUSH1 0x0 PUSH1 0x1 PUSH1 0x0 SLOAD EQ PUSH2 0x3CE JUMPI PUSH1 0x40 MLOAD PUSH4 0x802D9BF1 PUSH1 0xE0 SHL DUP2 MSTORE PUSH1 0x4 ADD PUSH1 0x40 MLOAD DUP1 SWAP2 SUB SWAP1 REVERT JUMPDEST POP PUSH1 0x2 PUSH1 0x0 SWAP1 DUP2 SSTORE PUSH1 0x7 DUP1 SLOAD SWAP1 DUP3 SWAP1 SSTORE SWAP1 JUMPDEST PUSH1 0x1A SLOAD DUP2 LT ISZERO PUSH2 0x475 JUMPI PUSH2 0x46D PUSH1 0x1A DUP3 DUP2 SLOAD DUP2 LT PUSH2 0x400 JUMPI PUSH2 0x400 PUSH2 0x367B JUMP JUMPDEST SWAP1 PUSH1 0x0 MSTORE PUSH1 0x20 PUSH1 0x0 KECCAK256 ADD PUSH1 0x0 SWAP1 SLOAD SWAP1 PUSH2 0x100 EXP SWAP1 DIV PUSH1 0x1 PUSH1 0x1 PUSH1 0xA0 SHL SUB AND PUSH1 0x1 PUSH8 0xDE0B6B3A7640000 DUP6 PUSH1 0x1B DUP7 DUP2 SLOAD DUP2 LT PUSH2 0x43D JUMPI PUSH2 0x43D PUSH2 0x367B JUMP JUMPDEST SWAP1 PUSH1 0x0 MSTORE PUSH1 0x20 PUSH1 0x0 KECCAK256 ADD SLOAD MUL DUP2 PUSH2 0x456 JUMPI PUSH2 0x456 PUSH2 0x3691 JUMP JUMPDEST PUSH1 0x2 SLOAD PUSH1 0x1 PUSH1 0x1 PUSH1 0xA0 SHL SUB AND SWAP4 SWAP3 SWAP2 SWAP1 DIV SUB PUSH2 0x2146 JUMP JUMPDEST PUSH1 0x1 ADD PUSH2 0x3E0 JUMP JUMPDEST POP PUSH1 0x1 PUSH1 0x0 SSTORE SWAP1 JUMP JUMPDEST CALLER PUSH1 0x1 PUSH1 0x1 PUSH1 0xA0 SHL SUB PUSH32 0x0 AND EQ PUSH2 0x4B3 JUMPI PUSH1 0x0 DUP1 REVERT JUMPDEST PUSH2 0x4BF PUSH1 0x1A DUP6 DUP6 PUSH2 0x31F7 JUMP JUMPDEST POP PUSH2 0x4CC PUSH1 0x1B DUP4 DUP4 PUSH2 0x325A JUMP JUMPDEST POP POP POP PUSH1 0x1C SWAP3 SWAP1 SWAP3 SSTORE POP POP JUMP JUMPDEST PUSH1 0x0 PUSH1 0x1 PUSH1 0x0 SLOAD EQ PUSH2 0x4FE JUMPI PUSH1 0x40 MLOAD PUSH4 0x802D9BF1 PUSH1 0xE0 SHL DUP2 MSTORE PUSH1 0x4 ADD PUSH1 0x40 MLOAD DUP1 SWAP2 SUB SWAP1 REVERT JUMPDEST PUSH1 0x2 PUSH1 0x0 DUP2 DUP2 SSTORE PUSH1 0x40 DUP1 MLOAD PUSH2 0x100 DUP2 ADD DUP3 MSTORE PUSH1 0x3 SLOAD PUSH3 0xFFFFFF DUP1 DUP3 AND DUP1 DUP5 MSTORE PUSH4 0x1000000 DUP4 DIV SWAP1 SWAP2 AND PUSH1 0x20 DUP1 DUP6 ADD SWAP2 SWAP1 SWAP2 MSTORE PUSH1 0x1 PUSH1 0x30 SHL SWAP1 SWAP3 DIV PUSH1 0x1 PUSH1 0x1 PUSH1 0x88 SHL SUB SWAP1 DUP2 AND DUP5 DUP7 ADD MSTORE PUSH1 0x4 SLOAD AND PUSH1 0x60 DUP5 ADD MSTORE PUSH1 0x5 SLOAD PUSH1 0x80 DUP5 ADD MSTORE PUSH1 0x6 SLOAD PUSH1 0xA0 DUP5 ADD MSTORE PUSH1 0x7 SLOAD PUSH1 0xC0 DUP5 ADD MSTORE PUSH1 0x8 SLOAD PUSH1 0xE0 DUP5 ADD MSTORE DUP1 DUP6 MSTORE PUSH1 0x9 SWAP1 SWAP2 MSTORE DUP3 DUP5 KECCAK256 DUP4 MLOAD DUP1 DUP6 ADD SWAP5 DUP6 SWAP1 MSTORE SWAP3 SWAP6 SWAP2 SWAP5 SWAP4 SWAP1 SWAP2 SWAP1 DUP3 DUP5 JUMPDEST DUP2 SLOAD DUP2 MSTORE PUSH1 0x20 ADD SWAP1 PUSH1 0x1 ADD SWAP1 DUP1 DUP4 GT PUSH2 0x58F JUMPI POP POP POP POP POP SWAP1 POP PUSH1 0x0 DUP2 PUSH1 0x1 PUSH1 0x2 DUP2 LT PUSH2 0x5BE JUMPI PUSH2 0x5BE PUSH2 0x367B JUMP JUMPDEST PUSH1 0x20 MUL ADD MLOAD GT PUSH2 0x5CD JUMPI PUSH1 0x0 DUP1 REVERT JUMPDEST PUSH1 0x0 PUSH2 0x5D8 DUP4 PUSH2 0x21F3 JUMP JUMPDEST SWAP1 POP PUSH2 0x5EA PUSH1 0x1C SLOAD PUSH1 0x16 SLOAD ADD DUP3 PUSH2 0x2219 JUMP JUMPDEST DUP2 SUB SWAP5 POP PUSH1 0x0 DUP1 PUSH1 0x0 PUSH2 0x605 DUP9 PUSH1 0x16 SLOAD PUSH1 0x17 SLOAD PUSH1 0x1C SLOAD PUSH2 0x2264 JUMP JUMPDEST PUSH3 0xFFFFFF DUP10 AND PUSH1 0x0 SWAP1 DUP2 MSTORE PUSH1 0x15 PUSH1 0x20 SWAP1 DUP2 MSTORE PUSH1 0x40 DUP1 DUP4 KECCAK256 DUP1 SLOAD DUP3 MLOAD DUP2 DUP6 MUL DUP2 ADD DUP6 ADD SWAP1 SWAP4 MSTORE DUP1 DUP4 MSTORE SWAP7 SWAP10 POP SWAP5 SWAP8 POP SWAP3 SWAP6 POP SWAP1 SWAP4 PUSH2 0x676 SWAP4 SWAP2 DUP4 ADD DUP3 DUP3 DUP1 ISZERO PUSH2 0x66C JUMPI PUSH1 0x20 MUL DUP3 ADD SWAP2 SWAP1 PUSH1 0x0 MSTORE PUSH1 0x20 PUSH1 0x0 KECCAK256 SWAP1 JUMPDEST DUP2 SLOAD DUP2 MSTORE PUSH1 0x20 ADD SWAP1 PUSH1 0x1 ADD SWAP1 DUP1 DUP4 GT PUSH2 0x658 JUMPI JUMPDEST POP POP POP POP POP PUSH2 0x2287 JUMP JUMPDEST PUSH3 0xFFFFFF DUP9 AND PUSH1 0x0 SWAP1 DUP2 MSTORE PUSH1 0x14 PUSH1 0x20 MSTORE PUSH1 0x40 DUP2 KECCAK256 DUP1 SLOAD SWAP3 SWAP4 POP SWAP1 SWAP2 DUP4 SWAP1 DUP2 LT PUSH2 0x6A1 JUMPI PUSH2 0x6A1 PUSH2 0x367B JUMP JUMPDEST SWAP1 PUSH1 0x0 MSTORE PUSH1 0x20 PUSH1 0x0 KECCAK256 ADD SLOAD SWAP1 POP PUSH1 0x1 PUSH1 0x0 SWAP1 SLOAD SWAP1 PUSH2 0x100 EXP SWAP1 DIV PUSH1 0x1 PUSH1 0x1 PUSH1 0xA0 SHL SUB AND PUSH1 0x1 PUSH1 0x1 PUSH1 0xA0 SHL SUB AND PUSH4 0x42842E0E DUP13 ADDRESS DUP16 PUSH1 0x40 MLOAD DUP5 PUSH4 0xFFFFFFFF AND PUSH1 0xE0 SHL DUP2 MSTORE PUSH1 0x4 ADD PUSH2 0x6F3 SWAP4 SWAP3 SWAP2 SWAP1 PUSH2 0x36A7 JUMP JUMPDEST PUSH1 0x0 PUSH1 0x40 MLOAD DUP1 DUP4 SUB DUP2 PUSH1 0x0 DUP8 DUP1 EXTCODESIZE ISZERO DUP1 ISZERO PUSH2 0x70D JUMPI PUSH1 0x0 DUP1 REVERT JUMPDEST POP GAS CALL ISZERO DUP1 ISZERO PUSH2 0x721 JUMPI RETURNDATASIZE PUSH1 0x0 DUP1 RETURNDATACOPY RETURNDATASIZE PUSH1 0x0 REVERT JUMPDEST POP POP POP POP PUSH2 0x73A DUP2 DUP10 PUSH8 0xDE0B6B3A7640000 PUSH1 0x1 PUSH2 0x22FF JUMP JUMPDEST POP PUSH1 0x0 DUP2 DUP2 MSTORE PUSH1 0x11 PUSH1 0x20 SWAP1 DUP2 MSTORE PUSH1 0x40 DUP1 DUP4 KECCAK256 DUP1 SLOAD PUSH1 0x1 DUP2 ADD DUP3 SSTORE SWAP1 DUP5 MSTORE DUP3 DUP5 KECCAK256 ADD DUP16 SWAP1 SSTORE DUP4 DUP4 MSTORE PUSH1 0x12 DUP3 MSTORE DUP1 DUP4 KECCAK256 DUP1 SLOAD PUSH6 0xFFFFFF000000 NOT DUP2 AND PUSH1 0x1 PUSH1 0x30 SHL DUP3 DIV PUSH3 0xFFFFFF SWAP1 DUP2 AND PUSH4 0x1000000 SWAP4 DUP5 SWAP1 DIV DUP3 AND SUB AND SWAP1 SWAP2 MUL OR SWAP1 SSTORE PUSH1 0x10 SWAP1 SWAP2 MSTORE SWAP1 KECCAK256 DUP1 SLOAD DUP6 DUP8 SUB ADD SWAP1 SSTORE PUSH2 0x7AF DUP10 DUP7 DUP7 PUSH2 0x240D JUMP JUMPDEST PUSH1 0xC0 DUP10 ADD DUP1 MLOAD DUP5 ADD SWAP1 MSTORE PUSH2 0x7CF DUP10 DUP9 PUSH1 0x1 PUSH8 0xDE0B6B3A7640000 DUP11 PUSH2 0x2432 JUMP JUMPDEST DUP7 MLOAD PUSH8 0xDE0B6B3A7640000 EQ ISZERO PUSH2 0x7F0 JUMPI PUSH2 0x7F0 PUSH1 0xD PUSH3 0xFFFFFF DUP11 AND PUSH2 0x20D9 JUMP JUMPDEST PUSH1 0x20 DUP8 ADD MLOAD PUSH2 0x809 JUMPI PUSH2 0x809 PUSH1 0xA PUSH3 0xFFFFFF DUP11 AND PUSH2 0x24C8 JUMP JUMPDEST PUSH2 0x816 PUSH1 0xA PUSH1 0xD DUP12 PUSH2 0x254D JUMP JUMPDEST PUSH3 0xFFFFFF SWAP1 DUP2 AND PUSH1 0x20 DUP1 DUP14 ADD SWAP2 SWAP1 SWAP2 MSTORE SWAP2 DUP2 AND DUP12 MSTORE DUP10 AND PUSH1 0x0 SWAP1 DUP2 MSTORE PUSH1 0x9 SWAP1 SWAP2 MSTORE PUSH1 0x40 SWAP1 KECCAK256 PUSH2 0x847 SWAP1 DUP9 PUSH1 0x2 PUSH2 0x3295 JUMP JUMPDEST POP DUP9 MLOAD PUSH1 0x3 DUP1 SLOAD PUSH1 0x20 DUP13 ADD MLOAD PUSH1 0x40 DUP14 ADD MLOAD PUSH3 0xFFFFFF SWAP5 DUP6 AND PUSH6 0xFFFFFFFFFFFF NOT SWAP1 SWAP4 AND SWAP3 SWAP1 SWAP3 OR PUSH4 0x1000000 SWAP5 SWAP1 SWAP2 AND SWAP4 SWAP1 SWAP4 MUL SWAP3 SWAP1 SWAP3 OR PUSH1 0x1 PUSH1 0x30 SHL PUSH1 0x1 PUSH1 0xB8 SHL SUB NOT AND PUSH1 0x1 PUSH1 0x30 SHL PUSH1 0x1 PUSH1 0x1 PUSH1 0x88 SHL SUB SWAP4 DUP5 AND MUL OR SWAP1 SSTORE PUSH1 0x60 DUP11 ADD MLOAD PUSH1 0x4 DUP1 SLOAD PUSH1 0x1 PUSH1 0x1 PUSH1 0x88 SHL SUB NOT AND SWAP2 SWAP1 SWAP3 AND OR SWAP1 SSTORE PUSH1 0x80 DUP10 ADD MLOAD PUSH1 0x5 SSTORE PUSH1 0xA0 DUP10 ADD MLOAD PUSH1 0x6 SSTORE PUSH1 0xC0 DUP10 ADD MLOAD PUSH1 0x7 SSTORE PUSH1 0xE0 DUP10 ADD MLOAD PUSH1 0x8 SSTORE PUSH1 0x2 SLOAD PUSH2 0x8F1 SWAP1 PUSH1 0x1 PUSH1 0x1 PUSH1 0xA0 SHL SUB AND DUP13 DUP13 PUSH2 0x2146 JUMP JUMPDEST POP POP PUSH1 0x1 PUSH1 0x0 SSTORE POP SWAP6 SWAP9 SWAP8 POP POP POP POP POP POP POP POP JUMP JUMPDEST PUSH1 0x0 PUSH1 0x1 PUSH1 0x0 SLOAD EQ PUSH2 0x92B JUMPI PUSH1 0x40 MLOAD PUSH4 0x802D9BF1 PUSH1 0xE0 SHL DUP2 MSTORE PUSH1 0x4 ADD PUSH1 0x40 MLOAD DUP1 SWAP2 SUB SWAP1 REVERT JUMPDEST PUSH1 0x2 PUSH1 0x0 DUP2 SWAP1 SSTORE POP PUSH1 0x0 PUSH32 0x0 PUSH1 0x1 PUSH1 0x1 PUSH1 0xA0 SHL SUB AND PUSH4 0x46904840 PUSH1 0x40 MLOAD DUP2 PUSH4 0xFFFFFFFF AND PUSH1 0xE0 SHL DUP2 MSTORE PUSH1 0x4 ADD PUSH1 0x20 PUSH1 0x40 MLOAD DUP1 DUP4 SUB DUP2 DUP7 GAS STATICCALL ISZERO DUP1 ISZERO PUSH2 0x993 JUMPI RETURNDATASIZE PUSH1 0x0 DUP1 RETURNDATACOPY RETURNDATASIZE PUSH1 0x0 REVERT JUMPDEST POP POP POP POP PUSH1 0x40 MLOAD RETURNDATASIZE PUSH1 0x1F NOT PUSH1 0x1F DUP3 ADD AND DUP3 ADD DUP1 PUSH1 0x40 MSTORE POP DUP2 ADD SWAP1 PUSH2 0x9B7 SWAP2 SWAP1 PUSH2 0x36CB JUMP JUMPDEST SWAP1 POP CALLER PUSH1 0x1 PUSH1 0x1 PUSH1 0xA0 SHL SUB DUP3 AND EQ PUSH2 0x9CE JUMPI PUSH1 0x0 DUP1 REVERT JUMPDEST PUSH1 0x6 DUP1 SLOAD PUSH1 0x5 DUP1 SLOAD DUP3 SWAP1 SUB SWAP1 SSTORE PUSH1 0x0 SWAP1 SWAP2 SSTORE PUSH1 0x2 SLOAD SWAP1 SWAP3 POP PUSH2 0x475 SWAP1 PUSH1 0x1 PUSH1 0x1 PUSH1 0xA0 SHL SUB AND DUP3 DUP5 PUSH2 0x2146 JUMP JUMPDEST PUSH1 0x0 DUP1 PUSH1 0x1 PUSH1 0x0 SLOAD EQ PUSH2 0xA20 JUMPI PUSH1 0x40 MLOAD PUSH4 0x802D9BF1 PUSH1 0xE0 SHL DUP2 MSTORE PUSH1 0x4 ADD PUSH1 0x40 MLOAD DUP1 SWAP2 SUB SWAP1 REVERT JUMPDEST PUSH1 0x2 PUSH1 0x0 DUP2 DUP2 SSTORE PUSH1 0x40 DUP1 MLOAD PUSH2 0x100 DUP2 ADD DUP3 MSTORE PUSH1 0x3 SLOAD PUSH3 0xFFFFFF DUP1 DUP3 AND DUP4 MSTORE PUSH4 0x1000000 DUP3 DIV AND PUSH1 0x20 DUP4 ADD MSTORE PUSH1 0x1 PUSH1 0x1 PUSH1 0x88 SHL SUB PUSH1 0x1 PUSH1 0x30 SHL SWAP1 SWAP2 DIV DUP2 AND SWAP3 DUP3 ADD SWAP3 SWAP1 SWAP3 MSTORE PUSH1 0x4 SLOAD SWAP1 SWAP2 AND PUSH1 0x60 DUP3 ADD MSTORE PUSH1 0x5 SLOAD PUSH1 0x80 DUP3 ADD MSTORE PUSH1 0x6 SLOAD PUSH1 0xA0 DUP3 ADD MSTORE PUSH1 0x7 SLOAD PUSH1 0xC0 DUP3 ADD MSTORE PUSH1 0x8 SLOAD PUSH1 0xE0 DUP3 ADD DUP2 SWAP1 MSTORE SWAP1 SWAP3 DUP3 SWAP2 DUP3 SWAP2 SWAP1 MOD ISZERO PUSH2 0xAB0 JUMPI PUSH1 0xE0 DUP5 ADD DUP1 MLOAD PUSH1 0x1 ADD SWAP1 DUP2 SWAP1 MSTORE PUSH2 0xABE JUMP JUMPDEST PUSH1 0xE0 DUP5 ADD DUP1 MLOAD PUSH1 0x2 ADD SWAP1 DUP2 SWAP1 MSTORE JUMPDEST POP PUSH1 0xE0 DUP5 ADD MLOAD PUSH1 0x18 SLOAD PUSH1 0x40 MLOAD PUSH4 0x40C10F19 PUSH1 0xE0 SHL DUP2 MSTORE PUSH1 0x1 PUSH1 0x1 PUSH1 0xA0 SHL SUB SWAP1 SWAP2 AND SWAP1 PUSH4 0x40C10F19 SWAP1 PUSH2 0xAF6 SWAP1 DUP12 SWAP1 DUP6 SWAP1 PUSH1 0x4 ADD PUSH2 0x36E8 JUMP JUMPDEST PUSH1 0x0 PUSH1 0x40 MLOAD DUP1 DUP4 SUB DUP2 PUSH1 0x0 DUP8 DUP1 EXTCODESIZE ISZERO DUP1 ISZERO PUSH2 0xB10 JUMPI PUSH1 0x0 DUP1 REVERT JUMPDEST POP GAS CALL ISZERO DUP1 ISZERO PUSH2 0xB24 JUMPI RETURNDATASIZE PUSH1 0x0 DUP1 RETURNDATACOPY RETURNDATASIZE PUSH1 0x0 REVERT JUMPDEST POP POP POP POP PUSH2 0xB64 DUP11 DUP11 DUP1 DUP1 PUSH1 0x20 MUL PUSH1 0x20 ADD PUSH1 0x40 MLOAD SWAP1 DUP2 ADD PUSH1 0x40 MSTORE DUP1 SWAP4 SWAP3 SWAP2 SWAP1 DUP2 DUP2 MSTORE PUSH1 0x20 ADD DUP4 DUP4 PUSH1 0x20 MUL DUP1 DUP3 DUP5 CALLDATACOPY PUSH1 0x0 SWAP3 ADD SWAP2 SWAP1 SWAP2 MSTORE POP PUSH2 0x25AA SWAP3 POP POP POP JUMP JUMPDEST PUSH2 0xB6D JUMPI PUSH1 0x0 DUP1 REVERT JUMPDEST PUSH1 0x0 JUMPDEST DUP10 DUP2 LT ISZERO PUSH2 0xC36 JUMPI PUSH1 0x14 PUSH1 0x0 DUP13 DUP13 DUP5 DUP2 DUP2 LT PUSH2 0xB8E JUMPI PUSH2 0xB8E PUSH2 0x367B JUMP JUMPDEST SWAP1 POP PUSH1 0x20 MUL ADD PUSH1 0x20 DUP2 ADD SWAP1 PUSH2 0xBA3 SWAP2 SWAP1 PUSH2 0x3333 JUMP JUMPDEST PUSH3 0xFFFFFF AND DUP2 MSTORE PUSH1 0x20 DUP1 DUP3 ADD SWAP3 SWAP1 SWAP3 MSTORE PUSH1 0x40 ADD PUSH1 0x0 SWAP1 DUP2 KECCAK256 DUP1 SLOAD PUSH1 0x1 DUP2 ADD DUP3 SSTORE SWAP1 DUP3 MSTORE SWAP2 DUP2 KECCAK256 SWAP1 SWAP2 ADD DUP4 SWAP1 SSTORE PUSH1 0x15 SWAP1 DUP13 DUP13 DUP5 DUP2 DUP2 LT PUSH2 0xBE4 JUMPI PUSH2 0xBE4 PUSH2 0x367B JUMP JUMPDEST SWAP1 POP PUSH1 0x20 MUL ADD PUSH1 0x20 DUP2 ADD SWAP1 PUSH2 0xBF9 SWAP2 SWAP1 PUSH2 0x3333 JUMP JUMPDEST PUSH3 0xFFFFFF AND DUP2 MSTORE PUSH1 0x20 DUP1 DUP3 ADD SWAP3 SWAP1 SWAP3 MSTORE PUSH1 0x40 ADD PUSH1 0x0 SWAP1 DUP2 KECCAK256 DUP1 SLOAD PUSH1 0x1 DUP2 DUP2 ADD DUP4 SSTORE SWAP2 DUP4 MSTORE SWAP3 SWAP1 SWAP2 KECCAK256 PUSH8 0xDE0B6B3A7640000 SWAP3 ADD SWAP2 SWAP1 SWAP2 SSTORE ADD PUSH2 0xB70 JUMP JUMPDEST POP DUP10 DUP10 PUSH1 0x0 DUP2 DUP2 LT PUSH2 0xC4A JUMPI PUSH2 0xC4A PUSH2 0x367B JUMP JUMPDEST SWAP1 POP PUSH1 0x20 MUL ADD PUSH1 0x20 DUP2 ADD SWAP1 PUSH2 0xC5F SWAP2 SWAP1 PUSH2 0x3333 JUMP JUMPDEST PUSH1 0x0 DUP3 DUP2 MSTORE PUSH1 0x12 PUSH1 0x20 SWAP1 DUP2 MSTORE PUSH1 0x40 SWAP2 DUP3 SWAP1 KECCAK256 DUP1 SLOAD PUSH3 0xFFFFFF NOT AND PUSH3 0xFFFFFF SWAP5 SWAP1 SWAP5 AND SWAP4 SWAP1 SWAP4 OR SWAP1 SWAP3 SSTORE DUP1 MLOAD DUP12 DUP4 MUL DUP1 DUP3 ADD DUP5 ADD SWAP1 SWAP3 MSTORE DUP12 DUP2 MSTORE PUSH2 0xCBF SWAP3 SWAP1 SWAP2 DUP14 SWAP2 DUP14 SWAP2 DUP3 SWAP2 DUP6 ADD SWAP1 DUP5 SWAP1 DUP1 DUP3 DUP5 CALLDATACOPY PUSH1 0x0 SWAP3 ADD SWAP2 SWAP1 SWAP2 MSTORE POP PUSH2 0x268C SWAP3 POP POP POP JUMP JUMPDEST PUSH1 0x0 DUP3 DUP2 MSTORE PUSH1 0x12 PUSH1 0x20 MSTORE PUSH1 0x40 SWAP1 KECCAK256 DUP1 SLOAD PUSH3 0xFFFFFF PUSH1 0x30 SHL NOT AND PUSH1 0x1 PUSH1 0x30 SHL PUSH3 0xFFFFFF SWAP4 DUP5 AND DUP2 MUL SWAP2 SWAP1 SWAP2 OR SWAP2 DUP3 SWAP1 SSTORE SWAP1 DIV AND DUP11 DUP11 PUSH1 0x0 NOT DUP2 ADD DUP2 DUP2 LT PUSH2 0xD07 JUMPI PUSH2 0xD07 PUSH2 0x367B JUMP JUMPDEST SWAP1 POP PUSH1 0x20 MUL ADD PUSH1 0x20 DUP2 ADD SWAP1 PUSH2 0xD1C SWAP2 SWAP1 PUSH2 0x3333 JUMP JUMPDEST PUSH1 0x0 DUP4 DUP2 MSTORE PUSH1 0x12 PUSH1 0x20 MSTORE PUSH1 0x40 SWAP1 KECCAK256 DUP1 SLOAD PUSH3 0xFFFFFF SWAP4 SWAP1 SWAP3 ADD SWAP3 SWAP1 SWAP3 AND PUSH4 0x1000000 MUL PUSH6 0xFFFFFF000000 NOT SWAP1 SWAP2 AND OR DUP2 SSTORE PUSH1 0x1 ADD DUP10 SWAP1 SSTORE PUSH1 0x60 DUP6 ADD MLOAD PUSH1 0xC0 DUP7 ADD MLOAD PUSH1 0x80 DUP8 ADD MLOAD PUSH2 0xD8B SWAP3 PUSH1 0x1 PUSH1 0x1 PUSH1 0x88 SHL SUB AND SWAP2 PUSH2 0xD78 SWAP2 PUSH2 0x3717 JUMP JUMPDEST PUSH1 0x2 SLOAD PUSH1 0x1 PUSH1 0x1 PUSH1 0xA0 SHL SUB AND SWAP2 SWAP1 PUSH2 0x26E5 JUMP JUMPDEST PUSH1 0x20 DUP7 ADD MLOAD SWAP1 SWAP5 POP PUSH3 0xFFFFFF AND DUP11 DUP11 PUSH2 0xDA5 PUSH1 0x1 DUP3 PUSH2 0x372F JUMP JUMPDEST DUP2 DUP2 LT PUSH2 0xDB4 JUMPI PUSH2 0xDB4 PUSH2 0x367B JUMP JUMPDEST SWAP1 POP PUSH1 0x20 MUL ADD PUSH1 0x20 DUP2 ADD SWAP1 PUSH2 0xDC9 SWAP2 SWAP1 PUSH2 0x3333 JUMP JUMPDEST PUSH3 0xFFFFFF AND GT ISZERO DUP1 PUSH2 0xDE2 JUMPI POP PUSH1 0x20 DUP6 ADD MLOAD PUSH3 0xFFFFFF AND ISZERO JUMPDEST PUSH2 0xDEB JUMPI PUSH1 0x0 DUP1 REVERT JUMPDEST PUSH1 0x0 JUMPDEST DUP10 DUP2 LT ISZERO PUSH2 0xEF5 JUMPI DUP11 DUP11 DUP3 DUP2 DUP2 LT PUSH2 0xE08 JUMPI PUSH2 0xE08 PUSH2 0x367B JUMP JUMPDEST SWAP1 POP PUSH1 0x20 MUL ADD PUSH1 0x20 DUP2 ADD SWAP1 PUSH2 0xE1D SWAP2 SWAP1 PUSH2 0x3333 JUMP JUMPDEST PUSH3 0xFFFFFF DUP2 AND PUSH1 0x0 SWAP1 DUP2 MSTORE PUSH1 0x9 PUSH1 0x20 MSTORE PUSH1 0x40 DUP1 DUP3 KECCAK256 DUP2 MLOAD DUP1 DUP4 ADD SWAP3 DUP4 SWAP1 MSTORE SWAP4 SWAP8 POP SWAP2 SWAP3 SWAP2 SWAP1 PUSH1 0x2 SWAP1 DUP3 DUP5 JUMPDEST DUP2 SLOAD DUP2 MSTORE PUSH1 0x20 ADD SWAP1 PUSH1 0x1 ADD SWAP1 DUP1 DUP4 GT PUSH2 0xE48 JUMPI POP POP POP POP POP SWAP1 POP DUP1 PUSH1 0x1 PUSH1 0x2 DUP2 LT PUSH2 0xE75 JUMPI PUSH2 0xE75 PUSH2 0x367B JUMP JUMPDEST PUSH1 0x20 MUL ADD MLOAD PUSH2 0xE8E JUMPI PUSH2 0xE8E PUSH1 0xA PUSH3 0xFFFFFF DUP8 AND PUSH2 0x20D9 JUMP JUMPDEST PUSH1 0x0 PUSH2 0xE99 DUP7 PUSH2 0x21F3 JUMP JUMPDEST PUSH1 0x20 DUP4 ADD DUP1 MLOAD DUP3 ADD SWAP1 MSTORE SWAP1 POP PUSH2 0xEAE DUP2 PUSH2 0x2770 JUMP JUMPDEST PUSH1 0x60 DUP10 ADD DUP1 MLOAD SWAP2 SWAP1 SWAP2 ADD PUSH1 0x1 PUSH1 0x1 PUSH1 0x88 SHL SUB AND SWAP1 MSTORE PUSH3 0xFFFFFF DUP7 AND PUSH1 0x0 SWAP1 DUP2 MSTORE PUSH1 0x9 PUSH1 0x20 MSTORE PUSH1 0x40 SWAP1 KECCAK256 SWAP5 DUP2 ADD SWAP5 PUSH2 0xEE7 SWAP1 DUP4 PUSH1 0x2 PUSH2 0x3295 JUMP JUMPDEST POP POP POP DUP1 PUSH1 0x1 ADD SWAP1 POP PUSH2 0xDEE JUMP JUMPDEST POP DUP4 DUP3 GT ISZERO PUSH2 0xF03 JUMPI PUSH1 0x0 DUP1 REVERT JUMPDEST PUSH2 0xF10 PUSH1 0xA PUSH1 0xD DUP8 PUSH2 0x254D JUMP JUMPDEST PUSH3 0xFFFFFF SWAP1 DUP2 AND PUSH1 0x20 DUP9 ADD DUP2 SWAP1 MSTORE SWAP2 AND DUP1 DUP8 MSTORE PUSH1 0x3 DUP1 SLOAD PUSH1 0x40 DUP10 ADD MLOAD PUSH6 0xFFFFFFFFFFFF NOT SWAP1 SWAP2 AND SWAP1 SWAP3 OR PUSH4 0x1000000 SWAP1 SWAP4 MUL SWAP3 SWAP1 SWAP3 OR PUSH1 0x1 PUSH1 0x30 SHL PUSH1 0x1 PUSH1 0xB8 SHL SUB NOT AND PUSH1 0x1 PUSH1 0x30 SHL PUSH1 0x1 PUSH1 0x1 PUSH1 0x88 SHL SUB SWAP3 DUP4 AND MUL OR SWAP1 SWAP2 SSTORE PUSH1 0x60 DUP7 ADD MLOAD PUSH1 0x4 DUP1 SLOAD PUSH1 0x1 PUSH1 0x1 PUSH1 0x88 SHL SUB NOT AND SWAP2 SWAP1 SWAP3 AND OR SWAP1 SSTORE PUSH1 0x80 DUP6 ADD MLOAD PUSH1 0x5 SSTORE PUSH1 0xA0 DUP6 ADD MLOAD PUSH1 0x6 SSTORE PUSH1 0xC0 DUP6 ADD MLOAD PUSH1 0x7 SSTORE PUSH1 0xE0 SWAP1 SWAP5 ADD MLOAD PUSH1 0x8 SSTORE PUSH1 0x1 PUSH1 0x0 SSTORE SWAP9 SWAP3 SWAP8 POP SWAP2 SWAP6 POP POP POP POP POP POP JUMP JUMPDEST PUSH1 0x0 DUP1 PUSH1 0x1 PUSH1 0x0 SLOAD EQ PUSH2 0xFDC JUMPI PUSH1 0x40 MLOAD PUSH4 0x802D9BF1 PUSH1 0xE0 SHL DUP2 MSTORE PUSH1 0x4 ADD PUSH1 0x40 MLOAD DUP1 SWAP2 SUB SWAP1 REVERT JUMPDEST PUSH1 0x2 PUSH1 0x0 SSTORE DUP7 ISZERO DUP1 ISZERO SWAP1 PUSH2 0xFEF JUMPI POP DUP7 DUP6 EQ JUMPDEST PUSH2 0xFF8 JUMPI PUSH1 0x0 DUP1 REVERT JUMPDEST PUSH1 0x40 DUP1 MLOAD PUSH2 0x100 DUP2 ADD DUP3 MSTORE PUSH1 0x3 SLOAD PUSH3 0xFFFFFF DUP1 DUP3 AND DUP4 MSTORE PUSH4 0x1000000 DUP3 DIV AND PUSH1 0x20 DUP4 ADD MSTORE PUSH1 0x1 PUSH1 0x1 PUSH1 0x88 SHL SUB PUSH1 0x1 PUSH1 0x30 SHL SWAP1 SWAP2 DIV DUP2 AND SWAP3 DUP3 ADD SWAP3 SWAP1 SWAP3 MSTORE PUSH1 0x4 SLOAD SWAP1 SWAP2 AND PUSH1 0x60 DUP3 ADD MSTORE PUSH1 0x5 SLOAD PUSH1 0x80 DUP3 ADD MSTORE PUSH1 0x6 SLOAD PUSH1 0xA0 DUP3 ADD MSTORE PUSH1 0x7 SLOAD PUSH1 0xC0 DUP3 ADD MSTORE PUSH1 0x8 SLOAD PUSH1 0xE0 DUP3 ADD DUP2 SWAP1 MSTORE DUP5 ISZERO ISZERO SWAP1 PUSH2 0x1072 SWAP1 PUSH1 0x2 SWAP1 PUSH2 0x3746 JUMP JUMPDEST ISZERO EQ PUSH2 0x1096 JUMPI PUSH1 0x2 DUP2 PUSH1 0xE0 ADD DUP2 DUP2 MLOAD PUSH2 0x108B SWAP2 SWAP1 PUSH2 0x3717 JUMP JUMPDEST SWAP2 POP DUP2 DUP2 MSTORE POP PUSH2 0x10B0 JUMP JUMPDEST PUSH1 0x1 DUP2 PUSH1 0xE0 ADD DUP2 DUP2 MLOAD PUSH2 0x10A9 SWAP2 SWAP1 PUSH2 0x3717 JUMP JUMPDEST SWAP2 POP DUP2 DUP2 MSTORE POP JUMPDEST POP PUSH1 0xE0 DUP2 ADD MLOAD PUSH1 0x18 SLOAD PUSH1 0x40 MLOAD PUSH4 0x40C10F19 PUSH1 0xE0 SHL DUP2 MSTORE PUSH1 0x1 PUSH1 0x1 PUSH1 0xA0 SHL SUB SWAP1 SWAP2 AND SWAP1 PUSH4 0x40C10F19 SWAP1 PUSH2 0x10E8 SWAP1 DUP10 SWAP1 DUP6 SWAP1 PUSH1 0x4 ADD PUSH2 0x36E8 JUMP JUMPDEST PUSH1 0x0 PUSH1 0x40 MLOAD DUP1 DUP4 SUB DUP2 PUSH1 0x0 DUP8 DUP1 EXTCODESIZE ISZERO DUP1 ISZERO PUSH2 0x1102 JUMPI PUSH1 0x0 DUP1 REVERT JUMPDEST POP GAS CALL ISZERO DUP1 ISZERO PUSH2 0x1116 JUMPI RETURNDATASIZE PUSH1 0x0 DUP1 RETURNDATACOPY RETURNDATASIZE PUSH1 0x0 REVERT JUMPDEST POP POP POP POP PUSH2 0x1156 DUP11 DUP11 DUP1 DUP1 PUSH1 0x20 MUL PUSH1 0x20 ADD PUSH1 0x40 MLOAD SWAP1 DUP2 ADD PUSH1 0x40 MSTORE DUP1 SWAP4 SWAP3 SWAP2 SWAP1 DUP2 DUP2 MSTORE PUSH1 0x20 ADD DUP4 DUP4 PUSH1 0x20 MUL DUP1 DUP3 DUP5 CALLDATACOPY PUSH1 0x0 SWAP3 ADD SWAP2 SWAP1 SWAP2 MSTORE POP PUSH2 0x25AA SWAP3 POP POP POP JUMP JUMPDEST PUSH2 0x115F JUMPI PUSH1 0x0 DUP1 REVERT JUMPDEST DUP10 DUP10 PUSH1 0x0 DUP2 DUP2 LT PUSH2 0x1172 JUMPI PUSH2 0x1172 PUSH2 0x367B JUMP JUMPDEST SWAP1 POP PUSH1 0x20 MUL ADD PUSH1 0x20 DUP2 ADD SWAP1 PUSH2 0x1187 SWAP2 SWAP1 PUSH2 0x3333 JUMP JUMPDEST PUSH1 0x0 DUP3 DUP2 MSTORE PUSH1 0x12 PUSH1 0x20 MSTORE PUSH1 0x40 DUP2 KECCAK256 DUP1 SLOAD PUSH3 0xFFFFFF NOT AND PUSH3 0xFFFFFF SWAP4 SWAP1 SWAP4 AND SWAP3 SWAP1 SWAP3 OR SWAP1 SWAP2 SSTORE DUP11 SWAP1 DUP11 SWAP1 DUP2 PUSH2 0x11BD JUMPI PUSH2 0x11BD PUSH2 0x367B JUMP JUMPDEST SWAP1 POP PUSH1 0x20 MUL ADD PUSH1 0x20 DUP2 ADD SWAP1 PUSH2 0x11D2 SWAP2 SWAP1 PUSH2 0x3333 JUMP JUMPDEST PUSH1 0x12 PUSH1 0x0 DUP4 DUP2 MSTORE PUSH1 0x20 ADD SWAP1 DUP2 MSTORE PUSH1 0x20 ADD PUSH1 0x0 KECCAK256 PUSH1 0x0 ADD PUSH1 0x3 PUSH2 0x100 EXP DUP2 SLOAD DUP2 PUSH3 0xFFFFFF MUL NOT AND SWAP1 DUP4 PUSH3 0xFFFFFF AND MUL OR SWAP1 SSTORE POP PUSH2 0x1240 DUP11 DUP11 DUP1 DUP1 PUSH1 0x20 MUL PUSH1 0x20 ADD PUSH1 0x40 MLOAD SWAP1 DUP2 ADD PUSH1 0x40 MSTORE DUP1 SWAP4 SWAP3 SWAP2 SWAP1 DUP2 DUP2 MSTORE PUSH1 0x20 ADD DUP4 DUP4 PUSH1 0x20 MUL DUP1 DUP3 DUP5 CALLDATACOPY PUSH1 0x0 SWAP3 ADD SWAP2 SWAP1 SWAP2 MSTORE POP PUSH2 0x268C SWAP3 POP POP POP JUMP JUMPDEST PUSH1 0x0 DUP3 DUP2 MSTORE PUSH1 0x12 PUSH1 0x20 MSTORE PUSH1 0x40 DUP2 KECCAK256 DUP1 SLOAD PUSH3 0xFFFFFF SWAP4 SWAP1 SWAP4 AND PUSH1 0x1 PUSH1 0x30 SHL MUL PUSH3 0xFFFFFF PUSH1 0x30 SHL NOT SWAP1 SWAP4 AND SWAP3 SWAP1 SWAP3 OR DUP3 SSTORE PUSH1 0x1 SWAP1 SWAP2 ADD DUP11 SWAP1 SSTORE JUMPDEST DUP8 DUP2 LT ISZERO PUSH2 0x13E9 JUMPI PUSH1 0x1 SLOAD PUSH1 0x1 PUSH1 0x1 PUSH1 0xA0 SHL SUB AND PUSH4 0x42842E0E DUP9 ADDRESS DUP13 DUP13 DUP7 DUP2 DUP2 LT PUSH2 0x12A5 JUMPI PUSH2 0x12A5 PUSH2 0x367B JUMP JUMPDEST SWAP1 POP PUSH1 0x20 MUL ADD CALLDATALOAD PUSH1 0x40 MLOAD DUP5 PUSH4 0xFFFFFFFF AND PUSH1 0xE0 SHL DUP2 MSTORE PUSH1 0x4 ADD PUSH2 0x12CA SWAP4 SWAP3 SWAP2 SWAP1 PUSH2 0x36A7 JUMP JUMPDEST PUSH1 0x0 PUSH1 0x40 MLOAD DUP1 DUP4 SUB DUP2 PUSH1 0x0 DUP8 DUP1 EXTCODESIZE ISZERO DUP1 ISZERO PUSH2 0x12E4 JUMPI PUSH1 0x0 DUP1 REVERT JUMPDEST POP GAS CALL ISZERO DUP1 ISZERO PUSH2 0x12F8 JUMPI RETURNDATASIZE PUSH1 0x0 DUP1 RETURNDATACOPY RETURNDATASIZE PUSH1 0x0 REVERT JUMPDEST POP POP POP POP DUP2 PUSH1 0x13 PUSH1 0x0 DUP12 DUP12 DUP6 DUP2 DUP2 LT PUSH2 0x1313 JUMPI PUSH2 0x1313 PUSH2 0x367B JUMP JUMPDEST SWAP1 POP PUSH1 0x20 MUL ADD CALLDATALOAD DUP2 MSTORE PUSH1 0x20 ADD SWAP1 DUP2 MSTORE PUSH1 0x20 ADD PUSH1 0x0 KECCAK256 DUP2 SWAP1 SSTORE POP PUSH1 0x14 PUSH1 0x0 DUP13 DUP13 DUP5 DUP2 DUP2 LT PUSH2 0x1342 JUMPI PUSH2 0x1342 PUSH2 0x367B JUMP JUMPDEST SWAP1 POP PUSH1 0x20 MUL ADD PUSH1 0x20 DUP2 ADD SWAP1 PUSH2 0x1357 SWAP2 SWAP1 PUSH2 0x3333 JUMP JUMPDEST PUSH3 0xFFFFFF AND DUP2 MSTORE PUSH1 0x20 DUP1 DUP3 ADD SWAP3 SWAP1 SWAP3 MSTORE PUSH1 0x40 ADD PUSH1 0x0 SWAP1 DUP2 KECCAK256 DUP1 SLOAD PUSH1 0x1 DUP2 ADD DUP3 SSTORE SWAP1 DUP3 MSTORE SWAP2 DUP2 KECCAK256 SWAP1 SWAP2 ADD DUP4 SWAP1 SSTORE PUSH1 0x15 SWAP1 DUP13 DUP13 DUP5 DUP2 DUP2 LT PUSH2 0x1398 JUMPI PUSH2 0x1398 PUSH2 0x367B JUMP JUMPDEST SWAP1 POP PUSH1 0x20 MUL ADD PUSH1 0x20 DUP2 ADD SWAP1 PUSH2 0x13AD SWAP2 SWAP1 PUSH2 0x3333 JUMP JUMPDEST PUSH3 0xFFFFFF AND DUP2 MSTORE PUSH1 0x20 DUP1 DUP3 ADD SWAP3 SWAP1 SWAP3 MSTORE PUSH1 0x40 ADD PUSH1 0x0 SWAP1 DUP2 KECCAK256 DUP1 SLOAD PUSH1 0x1 DUP2 ADD DUP3 SSTORE SWAP1 DUP3 MSTORE SWAP2 DUP2 KECCAK256 SWAP1 SWAP2 ADD SSTORE DUP1 PUSH2 0x13E1 DUP2 PUSH2 0x375A JUMP JUMPDEST SWAP2 POP POP PUSH2 0x1278 JUMP JUMPDEST POP PUSH1 0x0 DUP2 DUP2 MSTORE PUSH1 0x11 PUSH1 0x20 MSTORE PUSH1 0x40 SWAP1 KECCAK256 PUSH2 0x1403 SWAP1 DUP10 DUP10 PUSH2 0x325A JUMP JUMPDEST POP DUP2 MLOAD PUSH3 0xFFFFFF AND DUP11 DUP11 PUSH1 0x0 DUP2 PUSH2 0x141C JUMPI PUSH2 0x141C PUSH2 0x367B JUMP JUMPDEST SWAP1 POP PUSH1 0x20 MUL ADD PUSH1 0x20 DUP2 ADD SWAP1 PUSH2 0x1431 SWAP2 SWAP1 PUSH2 0x3333 JUMP JUMPDEST PUSH3 0xFFFFFF AND LT ISZERO PUSH2 0x1441 JUMPI PUSH1 0x0 DUP1 REVERT JUMPDEST PUSH1 0x0 DUP1 JUMPDEST DUP11 DUP2 LT ISZERO PUSH2 0x153C JUMPI DUP12 DUP12 DUP3 DUP2 DUP2 LT PUSH2 0x145F JUMPI PUSH2 0x145F PUSH2 0x367B JUMP JUMPDEST SWAP1 POP PUSH1 0x20 MUL ADD PUSH1 0x20 DUP2 ADD SWAP1 PUSH2 0x1474 SWAP2 SWAP1 PUSH2 0x3333 JUMP JUMPDEST PUSH3 0xFFFFFF DUP2 AND PUSH1 0x0 SWAP1 DUP2 MSTORE PUSH1 0x9 PUSH1 0x20 MSTORE PUSH1 0x40 DUP1 DUP3 KECCAK256 DUP2 MLOAD DUP1 DUP4 ADD SWAP3 DUP4 SWAP1 MSTORE SWAP4 SWAP6 POP SWAP2 SWAP3 SWAP2 SWAP1 PUSH1 0x2 SWAP1 DUP3 DUP5 JUMPDEST DUP2 SLOAD DUP2 MSTORE PUSH1 0x20 ADD SWAP1 PUSH1 0x1 ADD SWAP1 DUP1 DUP4 GT PUSH2 0x149F JUMPI POP POP POP POP POP SWAP1 POP DUP1 PUSH1 0x0 PUSH1 0x2 DUP2 LT PUSH2 0x14CC JUMPI PUSH2 0x14CC PUSH2 0x367B JUMP JUMPDEST PUSH1 0x20 MUL ADD MLOAD PUSH2 0x14E5 JUMPI PUSH2 0x14E5 PUSH1 0xD PUSH3 0xFFFFFF DUP6 AND PUSH2 0x20D9 JUMP JUMPDEST DUP1 MLOAD PUSH8 0xDE0B6B3A7640000 SWAP1 DUP2 ADD DUP3 MSTORE PUSH2 0x14FE SWAP1 PUSH2 0x2770 JUMP JUMPDEST PUSH1 0x40 DUP7 DUP2 ADD DUP1 MLOAD SWAP3 SWAP1 SWAP3 ADD PUSH1 0x1 PUSH1 0x1 PUSH1 0x88 SHL SUB AND SWAP1 SWAP2 MSTORE PUSH3 0xFFFFFF DUP5 AND PUSH1 0x0 SWAP1 DUP2 MSTORE PUSH1 0x9 PUSH1 0x20 MSTORE KECCAK256 PUSH2 0x1532 SWAP1 DUP3 PUSH1 0x2 PUSH2 0x3295 JUMP JUMPDEST POP POP PUSH1 0x1 ADD PUSH2 0x1445 JUMP JUMPDEST POP PUSH2 0x154A PUSH1 0xA PUSH1 0xD DUP6 PUSH2 0x254D JUMP JUMPDEST PUSH3 0xFFFFFF SWAP1 DUP2 AND PUSH1 0x20 DUP7 ADD DUP2 SWAP1 MSTORE SWAP2 AND DUP1 DUP6 MSTORE PUSH1 0x3 DUP1 SLOAD PUSH1 0x40 DUP8 ADD MLOAD PUSH6 0xFFFFFFFFFFFF NOT SWAP1 SWAP2 AND SWAP1 SWAP3 OR PUSH4 0x1000000 SWAP1 SWAP4 MUL SWAP3 SWAP1 SWAP3 OR PUSH1 0x1 PUSH1 0x30 SHL PUSH1 0x1 PUSH1 0xB8 SHL SUB NOT AND PUSH1 0x1 PUSH1 0x30 SHL PUSH1 0x1 PUSH1 0x1 PUSH1 0x88 SHL SUB SWAP3 DUP4 AND MUL OR SWAP1 SWAP2 SSTORE PUSH1 0x60 DUP5 ADD MLOAD PUSH1 0x4 DUP1 SLOAD PUSH1 0x1 PUSH1 0x1 PUSH1 0x88 SHL SUB NOT AND SWAP2 SWAP1 SWAP3 AND OR SWAP1 SSTORE POP PUSH1 0x80 DUP3 ADD MLOAD PUSH1 0x5 SSTORE PUSH1 0xA0 DUP3 ADD MLOAD PUSH1 0x6 SSTORE PUSH1 0xC0 DUP3 ADD MLOAD PUSH1 0x7 SSTORE PUSH1 0xE0 SWAP1 SWAP2 ADD MLOAD PUSH1 0x8 SSTORE PUSH1 0x1 PUSH1 0x0 SSTORE SWAP7 SWAP9 SWAP7 SWAP8 POP POP POP POP POP POP POP JUMP JUMPDEST PUSH1 0x1 PUSH1 0x0 SLOAD EQ PUSH2 0x1613 JUMPI PUSH1 0x40 MLOAD PUSH4 0x802D9BF1 PUSH1 0xE0 SHL DUP2 MSTORE PUSH1 0x4 ADD PUSH1 0x40 MLOAD DUP1 SWAP2 SUB SWAP1 REVERT JUMPDEST PUSH1 0x2 PUSH1 0x0 SWAP1 DUP2 SSTORE PUSH1 0x40 DUP1 MLOAD PUSH2 0x100 DUP2 ADD DUP3 MSTORE PUSH1 0x3 SLOAD PUSH3 0xFFFFFF DUP1 DUP3 AND DUP4 MSTORE PUSH4 0x1000000 DUP3 DIV AND PUSH1 0x20 DUP1 DUP5 ADD SWAP2 SWAP1 SWAP2 MSTORE PUSH1 0x1 PUSH1 0x30 SHL SWAP1 SWAP2 DIV PUSH1 0x1 PUSH1 0x1 PUSH1 0x88 SHL SUB SWAP1 DUP2 AND DUP4 DUP6 ADD MSTORE PUSH1 0x4 SLOAD AND PUSH1 0x60 DUP4 ADD MSTORE PUSH1 0x5 SLOAD PUSH1 0x80 DUP4 ADD MSTORE PUSH1 0x6 SLOAD PUSH1 0xA0 DUP4 ADD MSTORE PUSH1 0x7 SLOAD PUSH1 0xC0 DUP4 ADD MSTORE PUSH1 0x8 SLOAD PUSH1 0xE0 DUP4 ADD MSTORE DUP6 DUP5 MSTORE PUSH1 0x13 DUP2 MSTORE DUP3 DUP5 KECCAK256 SLOAD DUP1 DUP6 MSTORE PUSH1 0x11 DUP3 MSTORE DUP4 DUP6 KECCAK256 DUP1 SLOAD DUP6 MLOAD DUP2 DUP6 MUL DUP2 ADD DUP6 ADD SWAP1 SWAP7 MSTORE DUP1 DUP7 MSTORE SWAP4 SWAP6 SWAP2 SWAP5 SWAP2 SWAP4 SWAP2 SWAP3 SWAP1 SWAP2 SWAP1 DUP4 ADD DUP3 DUP3 DUP1 ISZERO PUSH2 0x16E2 JUMPI PUSH1 0x20 MUL DUP3 ADD SWAP2 SWAP1 PUSH1 0x0 MSTORE PUSH1 0x20 PUSH1 0x0 KECCAK256 SWAP1 JUMPDEST DUP2 SLOAD DUP2 MSTORE PUSH1 0x20 ADD SWAP1 PUSH1 0x1 ADD SWAP1 DUP1 DUP4 GT PUSH2 0x16CE JUMPI JUMPDEST POP POP POP PUSH1 0x0 DUP6 DUP2 MSTORE PUSH1 0x12 PUSH1 0x20 MSTORE PUSH1 0x40 SWAP1 DUP2 SWAP1 KECCAK256 SLOAD PUSH1 0x1 SLOAD SWAP2 MLOAD PUSH4 0x21421707 PUSH1 0xE1 SHL DUP2 MSTORE SWAP5 SWAP6 POP PUSH4 0x1000000 SWAP1 DIV PUSH3 0xFFFFFF AND SWAP4 PUSH1 0x1 PUSH1 0x1 PUSH1 0xA0 SHL SUB SWAP1 SWAP2 AND SWAP3 POP PUSH4 0x42842E0E SWAP2 POP PUSH2 0x173B SWAP1 ADDRESS SWAP1 DUP10 SWAP1 DUP12 SWAP1 PUSH1 0x4 ADD PUSH2 0x36A7 JUMP JUMPDEST PUSH1 0x0 PUSH1 0x40 MLOAD DUP1 DUP4 SUB DUP2 PUSH1 0x0 DUP8 DUP1 EXTCODESIZE ISZERO DUP1 ISZERO PUSH2 0x1755 JUMPI PUSH1 0x0 DUP1 REVERT JUMPDEST POP GAS CALL ISZERO DUP1 ISZERO PUSH2 0x1769 JUMPI RETURNDATASIZE PUSH1 0x0 DUP1 RETURNDATACOPY RETURNDATASIZE PUSH1 0x0 REVERT JUMPDEST POP POP POP PUSH1 0x0 DUP5 DUP2 MSTORE PUSH1 0x12 PUSH1 0x20 MSTORE PUSH1 0x40 DUP2 KECCAK256 DUP1 SLOAD PUSH4 0x1000000 DUP1 DUP3 DIV PUSH3 0xFFFFFF SWAP1 DUP2 AND PUSH1 0x1 PUSH1 0x30 SHL DUP5 DIV DUP3 AND ADD AND MUL PUSH6 0xFFFFFF000000 NOT SWAP1 SWAP2 AND OR SWAP1 SSTORE SWAP1 POP PUSH2 0x17B2 PUSH1 0x2 DUP6 PUSH2 0x3746 JUMP JUMPDEST PUSH1 0x1 EQ SWAP1 POP PUSH1 0x0 PUSH2 0x17C3 DUP5 DUP10 PUSH2 0x27A2 JUMP JUMPDEST SWAP1 POP PUSH2 0x17CF DUP5 DUP3 PUSH2 0x27F4 JUMP JUMPDEST PUSH1 0x0 DUP7 DUP2 MSTORE PUSH1 0x11 PUSH1 0x20 SWAP1 DUP2 MSTORE PUSH1 0x40 SWAP1 SWAP2 KECCAK256 DUP3 MLOAD PUSH2 0x17F2 SWAP4 SWAP2 SWAP3 SWAP2 SWAP1 SWAP2 ADD SWAP1 PUSH2 0x32C3 JUMP JUMPDEST POP PUSH1 0x0 DUP9 DUP2 MSTORE PUSH1 0x13 PUSH1 0x20 SWAP1 DUP2 MSTORE PUSH1 0x40 DUP1 DUP4 KECCAK256 DUP4 SWAP1 SSTORE PUSH3 0xFFFFFF DUP7 AND DUP4 MSTORE PUSH1 0x9 SWAP1 SWAP2 MSTORE DUP1 DUP3 KECCAK256 DUP2 MLOAD DUP1 DUP4 ADD SWAP3 DUP4 SWAP1 MSTORE SWAP2 PUSH1 0x2 SWAP1 DUP3 DUP5 JUMPDEST DUP2 SLOAD DUP2 MSTORE PUSH1 0x20 ADD SWAP1 PUSH1 0x1 ADD SWAP1 DUP1 DUP4 GT PUSH2 0x1827 JUMPI POP POP POP POP POP SWAP1 POP PUSH8 0xDE0B6B3A7640000 DUP2 PUSH1 0x0 PUSH1 0x2 DUP2 LT PUSH2 0x185D JUMPI PUSH2 0x185D PUSH2 0x367B JUMP JUMPDEST PUSH1 0x20 MUL ADD MLOAD EQ ISZERO PUSH2 0x1878 JUMPI PUSH2 0x1878 PUSH1 0xD PUSH3 0xFFFFFF DUP7 AND PUSH2 0x24C8 JUMP JUMPDEST PUSH1 0x20 DUP2 ADD MLOAD PUSH2 0x1891 JUMPI PUSH2 0x1891 PUSH1 0xA PUSH3 0xFFFFFF DUP7 AND PUSH2 0x20D9 JUMP JUMPDEST PUSH1 0x0 PUSH2 0x189C DUP6 PUSH2 0x21F3 JUMP JUMPDEST SWAP1 POP PUSH1 0x0 DUP1 PUSH1 0x0 PUSH2 0x18B5 DUP5 PUSH1 0x16 SLOAD PUSH1 0x17 SLOAD PUSH1 0x1C SLOAD PUSH2 0x2264 JUMP JUMPDEST SWAP3 POP SWAP3 POP SWAP3 POP PUSH2 0x1905 DUP12 PUSH1 0x60 ADD MLOAD PUSH1 0x1 PUSH1 0x1 PUSH1 0x88 SHL SUB AND DUP13 PUSH1 0xC0 ADD MLOAD DUP14 PUSH1 0x80 ADD MLOAD ADD PUSH1 0x2 PUSH1 0x0 SWAP1 SLOAD SWAP1 PUSH2 0x100 EXP SWAP1 DIV PUSH1 0x1 PUSH1 0x1 PUSH1 0xA0 SHL SUB AND PUSH1 0x1 PUSH1 0x1 PUSH1 0xA0 SHL SUB AND PUSH2 0x26E5 SWAP1 SWAP3 SWAP2 SWAP1 PUSH4 0xFFFFFFFF AND JUMP JUMPDEST DUP2 DUP5 DUP7 ADD ADD GT ISZERO PUSH2 0x1915 JUMPI PUSH1 0x0 DUP1 REVERT JUMPDEST PUSH1 0xC0 DUP12 ADD DUP1 MLOAD DUP3 ADD SWAP1 MSTORE DUP7 ISZERO PUSH2 0x1968 JUMPI PUSH1 0x0 DUP11 DUP2 MSTORE PUSH1 0x10 PUSH1 0x20 MSTORE PUSH1 0x40 SWAP1 KECCAK256 DUP1 SLOAD DUP5 DUP7 ADD DUP5 DUP2 SUB SWAP1 SWAP2 ADD SWAP1 SWAP2 SSTORE PUSH2 0x194D SWAP1 DUP13 SWAP1 DUP5 PUSH2 0x240D JUMP JUMPDEST PUSH2 0x1963 DUP12 DUP7 PUSH1 0x0 DUP1 PUSH8 0xDE0B6B3A7640000 PUSH2 0x2432 JUMP JUMPDEST PUSH2 0x19B6 JUMP JUMPDEST PUSH1 0x0 DUP11 DUP2 MSTORE PUSH1 0x10 PUSH1 0x20 MSTORE PUSH1 0x40 SWAP1 KECCAK256 DUP1 SLOAD DUP4 DUP6 SUB ADD SWAP1 SSTORE PUSH2 0x1989 DUP12 DUP5 DUP5 PUSH2 0x240D JUMP JUMPDEST PUSH2 0x199F DUP12 DUP7 PUSH1 0x0 DUP8 PUSH8 0xDE0B6B3A7640000 PUSH2 0x2432 JUMP JUMPDEST PUSH2 0x19B4 DUP11 DUP10 PUSH8 0xDE0B6B3A7640000 PUSH1 0x0 PUSH2 0x22FF JUMP JUMPDEST POP JUMPDEST PUSH2 0x19C3 PUSH1 0xA PUSH1 0xD DUP14 PUSH2 0x254D JUMP JUMPDEST PUSH3 0xFFFFFF SWAP1 DUP2 AND PUSH1 0x20 DUP1 DUP16 ADD SWAP2 SWAP1 SWAP2 MSTORE SWAP2 DUP2 AND DUP14 MSTORE DUP10 AND PUSH1 0x0 SWAP1 DUP2 MSTORE PUSH1 0x9 SWAP1 SWAP2 MSTORE PUSH1 0x40 SWAP1 KECCAK256 PUSH2 0x19F4 SWAP1 DUP7 PUSH1 0x2 PUSH2 0x3295 JUMP JUMPDEST POP POP DUP10 MLOAD PUSH1 0x3 DUP1 SLOAD PUSH1 0x20 DUP14 ADD MLOAD PUSH1 0x40 DUP15 ADD MLOAD PUSH3 0xFFFFFF SWAP5 DUP6 AND PUSH6 0xFFFFFFFFFFFF NOT SWAP1 SWAP4 AND SWAP3 SWAP1 SWAP3 OR PUSH4 0x1000000 SWAP5 SWAP1 SWAP2 AND SWAP4 SWAP1 SWAP4 MUL SWAP3 SWAP1 SWAP3 OR PUSH1 0x1 PUSH1 0x30 SHL PUSH1 0x1 PUSH1 0xB8 SHL SUB NOT AND PUSH1 0x1 PUSH1 0x30 SHL PUSH1 0x1 PUSH1 0x1 PUSH1 0x88 SHL SUB SWAP4 DUP5 AND MUL OR SWAP1 SSTORE PUSH1 0x60 DUP12 ADD MLOAD PUSH1 0x4 DUP1 SLOAD PUSH1 0x1 PUSH1 0x1 PUSH1 0x88 SHL SUB NOT AND SWAP2 SWAP1 SWAP3 AND OR SWAP1 SSTORE POP POP POP PUSH1 0x80 DUP8 ADD MLOAD PUSH1 0x5 SSTORE POP POP POP PUSH1 0xA0 DUP5 ADD MLOAD PUSH1 0x6 SSTORE POP POP POP PUSH1 0xC0 DUP2 ADD MLOAD PUSH1 0x7 SSTORE PUSH1 0xE0 ADD MLOAD PUSH1 0x8 SSTORE POP POP PUSH1 0x1 PUSH1 0x0 SSTORE JUMP JUMPDEST PUSH1 0x0 DUP1 PUSH1 0x1 PUSH1 0x0 SLOAD EQ PUSH2 0x1ABF JUMPI PUSH1 0x40 MLOAD PUSH4 0x802D9BF1 PUSH1 0xE0 SHL DUP2 MSTORE PUSH1 0x4 ADD PUSH1 0x40 MLOAD DUP1 SWAP2 SUB SWAP1 REVERT JUMPDEST PUSH1 0x2 PUSH1 0x0 SWAP1 DUP2 SSTORE PUSH1 0x40 DUP1 MLOAD PUSH2 0x100 DUP2 ADD DUP3 MSTORE PUSH1 0x3 SLOAD PUSH3 0xFFFFFF DUP1 DUP3 AND DUP4 MSTORE PUSH4 0x1000000 DUP3 DIV AND PUSH1 0x20 DUP1 DUP5 ADD SWAP2 SWAP1 SWAP2 MSTORE PUSH1 0x1 PUSH1 0x30 SHL SWAP1 SWAP2 DIV PUSH1 0x1 PUSH1 0x1 PUSH1 0x88 SHL SUB SWAP1 DUP2 AND DUP4 DUP6 ADD MSTORE PUSH1 0x4 SLOAD AND PUSH1 0x60 DUP4 ADD MSTORE PUSH1 0x5 SLOAD PUSH1 0x80 DUP4 ADD MSTORE PUSH1 0x6 SLOAD PUSH1 0xA0 DUP4 ADD MSTORE PUSH1 0x7 SLOAD PUSH1 0xC0 DUP4 ADD MSTORE PUSH1 0x8 SLOAD PUSH1 0xE0 DUP4 ADD MSTORE DUP8 DUP5 MSTORE PUSH1 0x11 DUP2 MSTORE DUP3 DUP5 KECCAK256 DUP1 SLOAD DUP5 MLOAD DUP2 DUP5 MUL DUP2 ADD DUP5 ADD SWAP1 SWAP6 MSTORE DUP1 DUP6 MSTORE SWAP3 SWAP5 SWAP4 SWAP3 SWAP1 SWAP2 DUP4 ADD DUP3 DUP3 DUP1 ISZERO PUSH2 0x1B7E JUMPI PUSH1 0x20 MUL DUP3 ADD SWAP2 SWAP1 PUSH1 0x0 MSTORE PUSH1 0x20 PUSH1 0x0 KECCAK256 SWAP1 JUMPDEST DUP2 SLOAD DUP2 MSTORE PUSH1 0x20 ADD SWAP1 PUSH1 0x1 ADD SWAP1 DUP1 DUP4 GT PUSH2 0x1B6A JUMPI JUMPDEST POP POP POP POP POP SWAP1 POP PUSH1 0x0 JUMPDEST DUP2 MLOAD DUP2 LT ISZERO PUSH2 0x1C51 JUMPI PUSH1 0x1 SLOAD DUP3 MLOAD PUSH1 0x1 PUSH1 0x1 PUSH1 0xA0 SHL SUB SWAP1 SWAP2 AND SWAP1 PUSH4 0x42842E0E SWAP1 ADDRESS SWAP1 DUP10 SWAP1 DUP7 SWAP1 DUP7 SWAP1 DUP2 LT PUSH2 0x1BBE JUMPI PUSH2 0x1BBE PUSH2 0x367B JUMP JUMPDEST PUSH1 0x20 MUL PUSH1 0x20 ADD ADD MLOAD PUSH1 0x40 MLOAD DUP5 PUSH4 0xFFFFFFFF AND PUSH1 0xE0 SHL DUP2 MSTORE PUSH1 0x4 ADD PUSH2 0x1BE4 SWAP4 SWAP3 SWAP2 SWAP1 PUSH2 0x36A7 JUMP JUMPDEST PUSH1 0x0 PUSH1 0x40 MLOAD DUP1 DUP4 SUB DUP2 PUSH1 0x0 DUP8 DUP1 EXTCODESIZE ISZERO DUP1 ISZERO PUSH2 0x1BFE JUMPI PUSH1 0x0 DUP1 REVERT JUMPDEST POP GAS CALL ISZERO DUP1 ISZERO PUSH2 0x1C12 JUMPI RETURNDATASIZE PUSH1 0x0 DUP1 RETURNDATACOPY RETURNDATASIZE PUSH1 0x0 REVERT JUMPDEST POP POP POP POP PUSH1 0x13 PUSH1 0x0 DUP4 DUP4 DUP2 MLOAD DUP2 LT PUSH2 0x1C2C JUMPI PUSH2 0x1C2C PUSH2 0x367B JUMP JUMPDEST PUSH1 0x20 MUL PUSH1 0x20 ADD ADD MLOAD DUP2 MSTORE PUSH1 0x20 ADD SWAP1 DUP2 MSTORE PUSH1 0x20 ADD PUSH1 0x0 KECCAK256 PUSH1 0x0 SWAP1 SSTORE DUP1 PUSH1 0x1 ADD SWAP1 POP PUSH2 0x1B88 JUMP JUMPDEST POP PUSH1 0x0 DUP7 DUP2 MSTORE PUSH1 0x12 PUSH1 0x20 MSTORE PUSH1 0x40 SWAP1 KECCAK256 PUSH1 0x1 DUP2 ADD SLOAD SWAP1 SLOAD PUSH3 0xFFFFFF DUP1 DUP3 AND SWAP2 PUSH1 0x1 PUSH1 0x30 SHL SWAP1 DIV AND PUSH1 0x60 DUP1 DUP5 PUSH1 0x1 PUSH1 0x1 PUSH1 0x40 SHL SUB DUP2 GT ISZERO PUSH2 0x1C92 JUMPI PUSH2 0x1C92 PUSH2 0x336D JUMP JUMPDEST PUSH1 0x40 MLOAD SWAP1 DUP1 DUP3 MSTORE DUP1 PUSH1 0x20 MUL PUSH1 0x20 ADD DUP3 ADD PUSH1 0x40 MSTORE DUP1 ISZERO PUSH2 0x1CBB JUMPI DUP2 PUSH1 0x20 ADD PUSH1 0x20 DUP3 MUL DUP1 CALLDATASIZE DUP4 CALLDATACOPY ADD SWAP1 POP JUMPDEST POP SWAP2 POP DUP5 PUSH1 0x1 PUSH1 0x1 PUSH1 0x40 SHL SUB DUP2 GT ISZERO PUSH2 0x1CD6 JUMPI PUSH2 0x1CD6 PUSH2 0x336D JUMP JUMPDEST PUSH1 0x40 MLOAD SWAP1 DUP1 DUP3 MSTORE DUP1 PUSH1 0x20 MUL PUSH1 0x20 ADD DUP3 ADD PUSH1 0x40 MSTORE DUP1 ISZERO PUSH2 0x1CFF JUMPI DUP2 PUSH1 0x20 ADD PUSH1 0x20 DUP3 MUL DUP1 CALLDATASIZE DUP4 CALLDATACOPY ADD SWAP1 POP JUMPDEST POP SWAP1 POP PUSH1 0x0 JUMPDEST DUP6 DUP2 LT ISZERO PUSH2 0x1DAE JUMPI PUSH1 0x0 DUP5 DUP3 MUL DUP7 ADD SWAP1 POP DUP1 DUP5 DUP4 DUP2 MLOAD DUP2 LT PUSH2 0x1D29 JUMPI PUSH2 0x1D29 PUSH2 0x367B JUMP JUMPDEST PUSH1 0x20 MUL PUSH1 0x20 ADD ADD SWAP1 PUSH3 0xFFFFFF AND SWAP1 DUP2 PUSH3 0xFFFFFF AND DUP2 MSTORE POP POP PUSH2 0x1D4B DUP14 DUP3 PUSH2 0x28BE JUMP JUMPDEST POP DUP8 MLOAD DUP8 SUB DUP3 LT ISZERO PUSH2 0x1D80 JUMPI PUSH1 0x0 DUP4 DUP4 DUP2 MLOAD DUP2 LT PUSH2 0x1D6B JUMPI PUSH2 0x1D6B PUSH2 0x367B JUMP JUMPDEST SWAP2 ISZERO ISZERO PUSH1 0x20 SWAP3 DUP4 MUL SWAP2 SWAP1 SWAP2 ADD SWAP1 SWAP2 ADD MSTORE PUSH2 0x1DA5 JUMP JUMPDEST PUSH1 0x1 DUP4 DUP4 DUP2 MLOAD DUP2 LT PUSH2 0x1D94 JUMPI PUSH2 0x1D94 PUSH2 0x367B JUMP JUMPDEST SWAP2 ISZERO ISZERO PUSH1 0x20 SWAP3 DUP4 MUL SWAP2 SWAP1 SWAP2 ADD SWAP1 SWAP2 ADD MSTORE JUMPDEST POP PUSH1 0x1 ADD PUSH2 0x1D05 JUMP JUMPDEST POP PUSH1 0x0 DUP12 DUP2 MSTORE PUSH1 0x11 PUSH1 0x20 MSTORE PUSH1 0x40 DUP2 KECCAK256 PUSH2 0x1DC6 SWAP2 PUSH2 0x32FD JUMP JUMPDEST PUSH1 0x0 DUP12 DUP2 MSTORE PUSH1 0x12 PUSH1 0x20 MSTORE PUSH1 0x40 DUP2 KECCAK256 DUP1 SLOAD PUSH1 0x1 PUSH1 0x1 PUSH1 0x48 SHL SUB NOT AND DUP2 SSTORE PUSH1 0x1 ADD DUP2 SWAP1 SSTORE JUMPDEST DUP3 MLOAD DUP2 LT ISZERO PUSH2 0x1F56 JUMPI PUSH1 0x0 DUP4 DUP3 DUP2 MLOAD DUP2 LT PUSH2 0x1E06 JUMPI PUSH2 0x1E06 PUSH2 0x367B JUMP JUMPDEST PUSH1 0x20 SWAP1 DUP2 MUL SWAP2 SWAP1 SWAP2 ADD DUP2 ADD MLOAD PUSH3 0xFFFFFF DUP2 AND PUSH1 0x0 SWAP1 DUP2 MSTORE PUSH1 0x9 SWAP1 SWAP3 MSTORE PUSH1 0x40 DUP1 DUP4 KECCAK256 DUP2 MLOAD DUP1 DUP4 ADD SWAP3 DUP4 SWAP1 MSTORE SWAP3 SWAP5 POP SWAP1 PUSH1 0x2 SWAP1 DUP3 DUP5 JUMPDEST DUP2 SLOAD DUP2 MSTORE PUSH1 0x20 ADD SWAP1 PUSH1 0x1 ADD SWAP1 DUP1 DUP4 GT PUSH2 0x1E3A JUMPI POP POP POP POP POP SWAP1 POP DUP4 DUP4 DUP2 MLOAD DUP2 LT PUSH2 0x1E66 JUMPI PUSH2 0x1E66 PUSH2 0x367B JUMP JUMPDEST PUSH1 0x20 MUL PUSH1 0x20 ADD ADD MLOAD ISZERO PUSH2 0x1EC8 JUMPI DUP1 MLOAD PUSH8 0xDE0B6B3A763FFFF NOT ADD DUP2 MSTORE PUSH8 0xDE0B6B3A7640000 SWAP12 DUP13 ADD SWAP12 PUSH2 0x1E98 SWAP1 PUSH2 0x2770 JUMP JUMPDEST PUSH1 0x40 DUP12 ADD DUP1 MLOAD SWAP2 SWAP1 SWAP2 SUB PUSH1 0x1 PUSH1 0x1 PUSH1 0x88 SHL SUB AND SWAP1 MSTORE DUP1 MLOAD PUSH2 0x1EC3 JUMPI PUSH2 0x1EC3 PUSH1 0xD PUSH3 0xFFFFFF DUP5 AND PUSH2 0x24C8 JUMP JUMPDEST PUSH2 0x1F28 JUMP JUMPDEST PUSH1 0x2 DUP15 MOD PUSH2 0x1F28 JUMPI PUSH1 0x0 PUSH2 0x1EDB DUP4 PUSH2 0x21F3 JUMP JUMPDEST PUSH1 0x20 DUP4 ADD DUP1 MLOAD DUP3 SWAP1 SUB SWAP1 MSTORE SWAP12 DUP13 ADD SWAP12 SWAP1 POP PUSH2 0x1EF5 DUP2 PUSH2 0x2770 JUMP JUMPDEST PUSH1 0x60 DUP13 ADD DUP1 MLOAD SWAP2 SWAP1 SWAP2 SUB PUSH1 0x1 PUSH1 0x1 PUSH1 0x88 SHL SUB AND SWAP1 MSTORE DUP2 PUSH1 0x1 PUSH1 0x20 MUL ADD MLOAD PUSH2 0x1F26 JUMPI PUSH2 0x1F26 PUSH1 0xA PUSH3 0xFFFFFF DUP6 AND PUSH2 0x24C8 JUMP JUMPDEST POP JUMPDEST PUSH3 0xFFFFFF DUP3 AND PUSH1 0x0 SWAP1 DUP2 MSTORE PUSH1 0x9 PUSH1 0x20 MSTORE PUSH1 0x40 SWAP1 KECCAK256 PUSH2 0x1F48 SWAP1 DUP3 PUSH1 0x2 PUSH2 0x3295 JUMP JUMPDEST POP POP POP DUP1 PUSH1 0x1 ADD SWAP1 POP PUSH2 0x1DE9 JUMP JUMPDEST POP PUSH2 0x1F64 PUSH1 0xA PUSH1 0xD DUP10 PUSH2 0x254D JUMP JUMPDEST PUSH3 0xFFFFFF SWAP1 DUP2 AND PUSH1 0x20 DUP11 DUP2 ADD DUP3 SWAP1 MSTORE SWAP3 SWAP1 SWAP2 AND DUP1 DUP11 MSTORE PUSH1 0x3 DUP1 SLOAD PUSH1 0x40 DUP1 DUP14 ADD MLOAD PUSH6 0xFFFFFFFFFFFF NOT SWAP1 SWAP3 AND SWAP1 SWAP4 OR PUSH4 0x1000000 SWAP1 SWAP5 MUL SWAP4 SWAP1 SWAP4 OR PUSH1 0x1 PUSH1 0x30 SHL PUSH1 0x1 PUSH1 0xB8 SHL SUB NOT AND PUSH1 0x1 PUSH1 0x30 SHL PUSH1 0x1 PUSH1 0x1 PUSH1 0x88 SHL SUB SWAP5 DUP6 AND MUL OR SWAP1 SSTORE PUSH1 0x60 DUP11 ADD MLOAD PUSH1 0x4 DUP1 SLOAD PUSH1 0x1 PUSH1 0x1 PUSH1 0x88 SHL SUB NOT AND SWAP2 SWAP1 SWAP4 AND OR SWAP1 SWAP2 SSTORE PUSH1 0x80 DUP10 ADD MLOAD PUSH1 0x5 SSTORE PUSH1 0xA0 DUP10 ADD MLOAD PUSH1 0x6 SSTORE PUSH1 0xC0 DUP10 ADD MLOAD PUSH1 0x7 SSTORE PUSH1 0xE0 DUP10 ADD MLOAD PUSH1 0x8 SSTORE PUSH1 0x0 DUP14 DUP2 MSTORE PUSH1 0x10 SWAP1 SWAP3 MSTORE SWAP1 KECCAK256 SLOAD DUP1 ISZERO PUSH2 0x203C JUMPI PUSH1 0x0 DUP13 DUP2 MSTORE PUSH1 0x10 PUSH1 0x20 MSTORE PUSH1 0x40 DUP2 KECCAK256 SSTORE PUSH1 0x5 DUP1 SLOAD DUP3 SWAP1 SUB SWAP1 SSTORE PUSH1 0x2 SLOAD PUSH2 0x203C SWAP1 PUSH1 0x1 PUSH1 0x1 PUSH1 0xA0 SHL SUB AND DUP13 DUP4 PUSH2 0x2146 JUMP JUMPDEST PUSH1 0x2 SLOAD PUSH2 0x2053 SWAP1 PUSH1 0x1 PUSH1 0x1 PUSH1 0xA0 SHL SUB AND DUP13 DUP12 PUSH2 0x2146 JUMP JUMPDEST PUSH1 0x18 SLOAD PUSH1 0x40 MLOAD PUSH4 0x852CD8D PUSH1 0xE3 SHL DUP2 MSTORE PUSH1 0x4 DUP2 ADD DUP15 SWAP1 MSTORE PUSH1 0x1 PUSH1 0x1 PUSH1 0xA0 SHL SUB SWAP1 SWAP2 AND SWAP1 PUSH4 0x42966C68 SWAP1 PUSH1 0x24 ADD PUSH1 0x0 PUSH1 0x40 MLOAD DUP1 DUP4 SUB DUP2 PUSH1 0x0 DUP8 DUP1 EXTCODESIZE ISZERO DUP1 ISZERO PUSH2 0x2099 JUMPI PUSH1 0x0 DUP1 REVERT JUMPDEST POP GAS CALL ISZERO DUP1 ISZERO PUSH2 0x20AD JUMPI RETURNDATASIZE PUSH1 0x0 DUP1 RETURNDATACOPY RETURNDATASIZE PUSH1 0x0 REVERT JUMPDEST POP POP POP POP POP POP POP POP POP POP POP POP PUSH1 0x1 PUSH1 0x0 DUP2 SWAP1 SSTORE POP SWAP3 POP SWAP3 SWAP1 POP JUMP JUMPDEST PUSH1 0x0 PUSH2 0x20D3 DUP3 PUSH2 0x21F3 JUMP JUMPDEST SWAP3 SWAP2 POP POP JUMP JUMPDEST PUSH1 0x8 DUP2 SWAP1 SHR PUSH1 0x10 DUP3 SWAP1 SHR PUSH1 0x1 PUSH1 0xFF DUP5 AND SHL DUP5 PUSH1 0x2 PUSH1 0x0 DUP6 DUP2 MSTORE SWAP2 ADD PUSH1 0x20 MSTORE PUSH1 0x40 SWAP1 KECCAK256 DUP1 SLOAD SWAP1 SWAP2 OR SWAP1 SSTORE PUSH1 0x1 PUSH1 0xFF DUP4 AND DUP2 SWAP1 SHL SWAP1 DUP6 SWAP1 PUSH1 0x0 DUP5 DUP2 MSTORE SWAP2 ADD PUSH1 0x20 MSTORE PUSH1 0x40 DUP2 KECCAK256 DUP1 SLOAD SWAP1 SWAP3 OR SWAP1 SWAP2 SSTORE PUSH1 0x1 DUP3 SHL SWAP1 DUP6 SWAP1 PUSH1 0x0 DUP1 DUP1 MSTORE SWAP2 ADD PUSH1 0x20 MSTORE PUSH1 0x40 SWAP1 KECCAK256 DUP1 SLOAD SWAP1 SWAP2 OR SWAP1 SSTORE POP POP POP POP JUMP JUMPDEST DUP1 ISZERO PUSH2 0x21EE JUMPI PUSH1 0x0 PUSH4 0xA9059CBB PUSH1 0xE0 SHL DUP4 DUP4 PUSH1 0x40 MLOAD PUSH1 0x24 ADD PUSH2 0x2169 SWAP3 SWAP2 SWAP1 PUSH2 0x36E8 JUMP JUMPDEST PUSH1 0x40 DUP1 MLOAD PUSH1 0x1F NOT DUP2 DUP5 SUB ADD DUP2 MSTORE SWAP2 SWAP1 MSTORE PUSH1 0x20 DUP2 ADD DUP1 MLOAD PUSH1 0x1 PUSH1 0x1 PUSH1 0xE0 SHL SUB AND PUSH1 0x1 PUSH1 0x1 PUSH1 0xE0 SHL SUB NOT SWAP1 SWAP4 AND SWAP3 SWAP1 SWAP3 OR SWAP1 SWAP2 MSTORE SWAP1 POP PUSH1 0x0 PUSH2 0x21A9 DUP6 DUP4 PUSH2 0x2A59 JUMP JUMPDEST SWAP1 POP PUSH1 0x0 DUP2 MLOAD GT DUP1 ISZERO PUSH2 0x21CD JUMPI POP DUP1 DUP1 PUSH1 0x20 ADD SWAP1 MLOAD DUP2 ADD SWAP1 PUSH2 0x21CB SWAP2 SWAP1 PUSH2 0x3775 JUMP JUMPDEST ISZERO JUMPDEST ISZERO PUSH2 0x21EB JUMPI PUSH1 0x40 MLOAD PUSH4 0x197138BD PUSH1 0xE1 SHL DUP2 MSTORE PUSH1 0x4 ADD PUSH1 0x40 MLOAD DUP1 SWAP2 SUB SWAP1 REVERT JUMPDEST POP POP JUMPDEST POP POP POP JUMP JUMPDEST PUSH1 0x0 PUSH2 0x2203 DUP3 PUSH3 0xFFFFFF AND PUSH2 0x2B24 JUMP JUMPDEST SWAP1 POP PUSH2 0x20D3 DUP2 PUSH8 0xDE0B6B3A7640000 PUSH1 0x80 PUSH2 0x2B6C JUMP JUMPDEST PUSH1 0x0 DUP1 PUSH2 0x222E DUP5 PUSH8 0xDE0B6B3A7640000 PUSH2 0x3717 JUMP JUMPDEST SWAP1 POP DUP1 PUSH1 0x1 DUP2 PUSH2 0x223E DUP8 DUP8 PUSH2 0x3792 JUMP JUMPDEST PUSH2 0x2248 SWAP2 SWAP1 PUSH2 0x3717 JUMP JUMPDEST PUSH2 0x2252 SWAP2 SWAP1 PUSH2 0x372F JUMP JUMPDEST PUSH2 0x225C SWAP2 SWAP1 PUSH2 0x37B1 JUMP JUMPDEST SWAP5 SWAP4 POP POP POP POP JUMP JUMPDEST PUSH1 0x0 NOT PUSH8 0xDE0B6B3A7640000 SWAP4 DUP6 MUL DUP5 SWAP1 DIV ADD SWAP5 SWAP2 DUP6 MUL DUP4 SWAP1 DIV SWAP4 MUL SWAP2 SWAP1 SWAP2 DIV SWAP1 JUMP JUMPDEST PUSH1 0x0 DUP1 JUMPDEST DUP3 MLOAD DUP2 LT ISZERO PUSH2 0x22F5 JUMPI DUP3 DUP2 DUP2 MLOAD DUP2 LT PUSH2 0x22A6 JUMPI PUSH2 0x22A6 PUSH2 0x367B JUMP JUMPDEST PUSH1 0x20 MUL PUSH1 0x20 ADD ADD MLOAD PUSH1 0x0 EQ ISZERO DUP1 ISZERO PUSH2 0x22D8 JUMPI POP PUSH1 0x1 DUP4 DUP3 DUP2 MLOAD DUP2 LT PUSH2 0x22CD JUMPI PUSH2 0x22CD PUSH2 0x367B JUMP JUMPDEST PUSH1 0x20 MUL PUSH1 0x20 ADD ADD MLOAD LT ISZERO JUMPDEST ISZERO PUSH2 0x22E3 JUMPI SWAP3 SWAP2 POP POP JUMP JUMPDEST DUP1 PUSH2 0x22ED DUP2 PUSH2 0x375A JUMP JUMPDEST SWAP2 POP POP PUSH2 0x228B JUMP JUMPDEST POP PUSH1 0x0 NOT SWAP3 SWAP2 POP POP JUMP JUMPDEST PUSH3 0xFFFFFF DUP4 AND PUSH1 0x0 SWAP1 DUP2 MSTORE PUSH1 0x14 PUSH1 0x20 SWAP1 DUP2 MSTORE PUSH1 0x40 DUP1 DUP4 KECCAK256 DUP1 SLOAD DUP3 MLOAD DUP2 DUP6 MUL DUP2 ADD DUP6 ADD SWAP1 SWAP4 MSTORE DUP1 DUP4 MSTORE DUP5 SWAP4 PUSH2 0x236A SWAP4 SWAP3 SWAP2 SWAP1 DUP4 ADD DUP3 DUP3 DUP1 ISZERO PUSH2 0x235F JUMPI PUSH1 0x20 MUL DUP3 ADD SWAP2 SWAP1 PUSH1 0x0 MSTORE PUSH1 0x20 PUSH1 0x0 KECCAK256 SWAP1 JUMPDEST DUP2 SLOAD DUP2 MSTORE PUSH1 0x20 ADD SWAP1 PUSH1 0x1 ADD SWAP1 DUP1 DUP4 GT PUSH2 0x234B JUMPI JUMPDEST POP POP POP POP POP DUP8 PUSH2 0x27A2 JUMP JUMPDEST PUSH3 0xFFFFFF DUP7 AND PUSH1 0x0 SWAP1 DUP2 MSTORE PUSH1 0x15 PUSH1 0x20 MSTORE PUSH1 0x40 DUP2 KECCAK256 DUP1 SLOAD SWAP3 SWAP4 POP SWAP1 SWAP2 DUP4 SWAP1 DUP2 LT PUSH2 0x2395 JUMPI PUSH2 0x2395 PUSH2 0x367B JUMP JUMPDEST SWAP1 PUSH1 0x0 MSTORE PUSH1 0x20 PUSH1 0x0 KECCAK256 ADD SLOAD SWAP1 POP DUP4 ISZERO ISZERO PUSH1 0x1 ISZERO ISZERO EQ ISZERO PUSH2 0x23C6 JUMPI DUP5 DUP2 LT ISZERO PUSH2 0x23BC JUMPI PUSH1 0x0 DUP1 REVERT JUMPDEST DUP5 DUP2 SUB SWAP3 POP PUSH2 0x23CC JUMP JUMPDEST DUP5 DUP2 ADD SWAP3 POP JUMPDEST PUSH3 0xFFFFFF DUP7 AND PUSH1 0x0 SWAP1 DUP2 MSTORE PUSH1 0x15 PUSH1 0x20 MSTORE PUSH1 0x40 SWAP1 KECCAK256 DUP1 SLOAD DUP5 SWAP2 SWAP1 DUP5 SWAP1 DUP2 LT PUSH2 0x23F5 JUMPI PUSH2 0x23F5 PUSH2 0x367B JUMP JUMPDEST SWAP1 PUSH1 0x0 MSTORE PUSH1 0x20 PUSH1 0x0 KECCAK256 ADD DUP2 SWAP1 SSTORE POP POP POP SWAP5 SWAP4 POP POP POP POP JUMP JUMPDEST DUP2 DUP4 PUSH1 0x80 ADD DUP2 DUP2 MLOAD PUSH2 0x241F SWAP2 SWAP1 PUSH2 0x3717 JUMP JUMPDEST SWAP1 MSTORE POP PUSH1 0xA0 SWAP1 SWAP3 ADD DUP1 MLOAD SWAP1 SWAP3 ADD SWAP1 SWAP2 MSTORE POP JUMP JUMPDEST DUP3 ISZERO PUSH2 0x2480 JUMPI DUP4 MLOAD DUP3 SWAP1 DUP6 SWAP1 PUSH2 0x2449 SWAP1 DUP4 SWAP1 PUSH2 0x3717 JUMP JUMPDEST SWAP1 MSTORE POP PUSH1 0x20 DUP5 ADD DUP1 MLOAD DUP3 SWAP1 SUB SWAP1 MSTORE PUSH1 0x40 DUP6 ADD DUP1 MLOAD DUP4 ADD PUSH1 0x1 PUSH1 0x1 PUSH1 0x88 SHL SUB SWAP1 DUP2 AND SWAP1 SWAP2 MSTORE PUSH1 0x60 DUP7 ADD DUP1 MLOAD DUP4 SWAP1 SUB SWAP1 SWAP2 AND SWAP1 MSTORE PUSH2 0x21EB JUMP JUMPDEST DUP2 DUP5 PUSH1 0x1 PUSH1 0x20 MUL ADD DUP2 DUP2 MLOAD PUSH2 0x2495 SWAP2 SWAP1 PUSH2 0x3717 JUMP JUMPDEST SWAP1 MSTORE POP DUP4 MLOAD DUP2 SWAP1 SUB SWAP1 SWAP4 MSTORE PUSH1 0x40 DUP5 ADD DUP1 MLOAD PUSH1 0x1 PUSH1 0x1 PUSH1 0x88 SHL SUB SWAP5 SWAP1 SUB DUP5 AND SWAP1 MSTORE PUSH1 0x60 SWAP1 SWAP4 ADD DUP1 MLOAD SWAP1 SWAP4 ADD SWAP1 SWAP2 AND SWAP1 SWAP2 MSTORE POP JUMP JUMPDEST PUSH1 0x8 DUP2 SWAP1 SHR PUSH1 0x0 DUP2 DUP2 MSTORE PUSH1 0x2 DUP5 ADD PUSH1 0x20 MSTORE PUSH1 0x40 SWAP1 KECCAK256 DUP1 SLOAD PUSH1 0x1 PUSH1 0xFF DUP6 AND SHL PUSH1 0x0 NOT XOR AND SWAP1 DUP2 SWAP1 SSTORE DUP1 PUSH2 0x2547 JUMPI POP PUSH1 0x10 DUP3 SWAP1 SHR PUSH1 0x0 DUP2 DUP2 MSTORE PUSH1 0x1 DUP6 DUP2 ADD PUSH1 0x20 MSTORE PUSH1 0x40 SWAP1 SWAP2 KECCAK256 DUP1 SLOAD PUSH1 0xFF DUP6 AND SWAP3 SWAP1 SWAP3 SHL PUSH1 0x0 NOT XOR SWAP1 SWAP2 AND SWAP1 DUP2 SWAP1 SSTORE SWAP1 DUP2 PUSH2 0x21EB JUMPI PUSH1 0x0 DUP1 DUP1 MSTORE PUSH1 0x20 DUP7 SWAP1 MSTORE PUSH1 0x40 SWAP1 KECCAK256 DUP1 SLOAD PUSH1 0x1 SWAP1 SWAP3 SHL PUSH1 0x0 NOT XOR SWAP2 SWAP1 SWAP2 AND SWAP1 SSTORE JUMPDEST POP POP POP POP JUMP JUMPDEST PUSH1 0x0 DUP1 DUP3 PUSH1 0x40 ADD MLOAD PUSH1 0x1 PUSH1 0x1 PUSH1 0x88 SHL SUB AND PUSH1 0x0 EQ PUSH2 0x2590 JUMPI PUSH2 0x2571 DUP5 PUSH1 0x0 DUP1 PUSH2 0x2BFB JUMP JUMPDEST SWAP1 POP PUSH2 0x2589 DUP6 PUSH2 0x2582 DUP4 PUSH1 0x1 PUSH2 0x37C5 JUMP JUMPDEST PUSH1 0x1 PUSH2 0x2BFB JUMP JUMPDEST SWAP2 POP PUSH2 0x25A2 JUMP JUMPDEST PUSH2 0x259F DUP6 PUSH3 0xFFFFFF PUSH1 0x1 PUSH2 0x2BFB JUMP JUMPDEST SWAP2 POP JUMPDEST SWAP4 POP SWAP4 SWAP2 POP POP JUMP JUMPDEST PUSH1 0x0 PUSH1 0x2 DUP3 MLOAD LT ISZERO PUSH2 0x25BE JUMPI POP PUSH1 0x1 SWAP2 SWAP1 POP JUMP JUMPDEST PUSH1 0x0 DUP3 PUSH1 0x0 DUP2 MLOAD DUP2 LT PUSH2 0x25D3 JUMPI PUSH2 0x25D3 PUSH2 0x367B JUMP JUMPDEST PUSH1 0x20 MUL PUSH1 0x20 ADD ADD MLOAD DUP4 PUSH1 0x1 DUP2 MLOAD DUP2 LT PUSH2 0x25EE JUMPI PUSH2 0x25EE PUSH2 0x367B JUMP JUMPDEST PUSH1 0x20 MUL PUSH1 0x20 ADD ADD MLOAD PUSH2 0x2600 SWAP2 SWAP1 PUSH2 0x37EC JUMP JUMPDEST SWAP1 POP PUSH1 0x2 JUMPDEST DUP4 MLOAD DUP2 LT ISZERO PUSH2 0x2682 JUMPI PUSH3 0xFFFFFF DUP3 AND DUP5 PUSH2 0x2620 PUSH1 0x1 DUP5 PUSH2 0x372F JUMP JUMPDEST DUP2 MLOAD DUP2 LT PUSH2 0x2630 JUMPI PUSH2 0x2630 PUSH2 0x367B JUMP JUMPDEST PUSH1 0x20 MUL PUSH1 0x20 ADD ADD MLOAD DUP6 DUP4 DUP2 MLOAD DUP2 LT PUSH2 0x264A JUMPI PUSH2 0x264A PUSH2 0x367B JUMP JUMPDEST PUSH1 0x20 MUL PUSH1 0x20 ADD ADD MLOAD PUSH2 0x265C SWAP2 SWAP1 PUSH2 0x37EC JUMP JUMPDEST PUSH3 0xFFFFFF AND EQ PUSH2 0x2670 JUMPI POP PUSH1 0x0 SWAP4 SWAP3 POP POP POP JUMP JUMPDEST DUP1 PUSH2 0x267A DUP2 PUSH2 0x375A JUMP JUMPDEST SWAP2 POP POP PUSH2 0x2605 JUMP JUMPDEST POP PUSH1 0x1 SWAP4 SWAP3 POP POP POP JUMP JUMPDEST PUSH1 0x0 PUSH1 0x2 DUP3 MLOAD LT ISZERO PUSH2 0x26A0 JUMPI POP PUSH1 0x0 SWAP2 SWAP1 POP JUMP JUMPDEST DUP2 PUSH1 0x0 DUP2 MLOAD DUP2 LT PUSH2 0x26B3 JUMPI PUSH2 0x26B3 PUSH2 0x367B JUMP JUMPDEST PUSH1 0x20 MUL PUSH1 0x20 ADD ADD MLOAD DUP3 PUSH1 0x1 DUP2 MLOAD DUP2 LT PUSH2 0x26CE JUMPI PUSH2 0x26CE PUSH2 0x367B JUMP JUMPDEST PUSH1 0x20 MUL PUSH1 0x20 ADD ADD MLOAD PUSH2 0x20D3 SWAP2 SWAP1 PUSH2 0x37EC JUMP JUMPDEST SWAP2 SWAP1 POP JUMP JUMPDEST PUSH1 0x40 MLOAD PUSH4 0x70A08231 PUSH1 0xE0 SHL DUP2 MSTORE PUSH1 0x0 SWAP1 DUP4 DUP4 ADD SWAP1 DUP2 SWAP1 PUSH1 0x1 PUSH1 0x1 PUSH1 0xA0 SHL SUB DUP8 AND SWAP1 PUSH4 0x70A08231 SWAP1 PUSH2 0x271A SWAP1 ADDRESS SWAP1 PUSH1 0x4 ADD PUSH2 0x3462 JUMP JUMPDEST PUSH1 0x20 PUSH1 0x40 MLOAD DUP1 DUP4 SUB DUP2 DUP7 GAS STATICCALL ISZERO DUP1 ISZERO PUSH2 0x2737 JUMPI RETURNDATASIZE PUSH1 0x0 DUP1 RETURNDATACOPY RETURNDATASIZE PUSH1 0x0 REVERT JUMPDEST POP POP POP POP PUSH1 0x40 MLOAD RETURNDATASIZE PUSH1 0x1F NOT PUSH1 0x1F DUP3 ADD AND DUP3 ADD DUP1 PUSH1 0x40 MSTORE POP DUP2 ADD SWAP1 PUSH2 0x275B SWAP2 SWAP1 PUSH2 0x3810 JUMP JUMPDEST PUSH2 0x2765 SWAP2 SWAP1 PUSH2 0x372F JUMP JUMPDEST SWAP2 POP POP JUMPDEST SWAP4 SWAP3 POP POP POP JUMP JUMPDEST DUP1 PUSH1 0x1 PUSH1 0x1 PUSH1 0x88 SHL SUB DUP2 AND DUP2 EQ PUSH2 0x26E0 JUMPI PUSH1 0x40 MLOAD PUSH4 0xBDBA3C9F PUSH1 0xE0 SHL DUP2 MSTORE PUSH1 0x4 DUP2 ADD DUP4 SWAP1 MSTORE PUSH1 0x24 ADD JUMPDEST PUSH1 0x40 MLOAD DUP1 SWAP2 SUB SWAP1 REVERT JUMPDEST PUSH1 0x0 DUP1 JUMPDEST DUP4 MLOAD DUP2 LT ISZERO PUSH2 0x27E9 JUMPI DUP3 DUP5 DUP3 DUP2 MLOAD DUP2 LT PUSH2 0x27C2 JUMPI PUSH2 0x27C2 PUSH2 0x367B JUMP JUMPDEST PUSH1 0x20 MUL PUSH1 0x20 ADD ADD MLOAD EQ ISZERO PUSH2 0x27D7 JUMPI SWAP1 POP PUSH2 0x20D3 JUMP JUMPDEST DUP1 PUSH2 0x27E1 DUP2 PUSH2 0x375A JUMP JUMPDEST SWAP2 POP POP PUSH2 0x27A6 JUMP JUMPDEST POP PUSH1 0x0 NOT SWAP4 SWAP3 POP POP POP JUMP JUMPDEST PUSH1 0x60 PUSH1 0x0 PUSH1 0x1 DUP5 MLOAD PUSH2 0x2806 SWAP2 SWAP1 PUSH2 0x372F JUMP JUMPDEST PUSH1 0x1 PUSH1 0x1 PUSH1 0x40 SHL SUB DUP2 GT ISZERO PUSH2 0x281D JUMPI PUSH2 0x281D PUSH2 0x336D JUMP JUMPDEST PUSH1 0x40 MLOAD SWAP1 DUP1 DUP3 MSTORE DUP1 PUSH1 0x20 MUL PUSH1 0x20 ADD DUP3 ADD PUSH1 0x40 MSTORE DUP1 ISZERO PUSH2 0x2846 JUMPI DUP2 PUSH1 0x20 ADD PUSH1 0x20 DUP3 MUL DUP1 CALLDATASIZE DUP4 CALLDATACOPY ADD SWAP1 POP JUMPDEST POP SWAP1 POP PUSH1 0x0 DUP1 JUMPDEST DUP6 MLOAD DUP2 LT ISZERO PUSH2 0x28B4 JUMPI DUP5 DUP2 EQ PUSH2 0x28A2 JUMPI DUP6 DUP2 DUP2 MLOAD DUP2 LT PUSH2 0x286F JUMPI PUSH2 0x286F PUSH2 0x367B JUMP JUMPDEST PUSH1 0x20 MUL PUSH1 0x20 ADD ADD MLOAD DUP4 DUP4 DUP2 MLOAD DUP2 LT PUSH2 0x2889 JUMPI PUSH2 0x2889 PUSH2 0x367B JUMP JUMPDEST PUSH1 0x20 SWAP1 DUP2 MUL SWAP2 SWAP1 SWAP2 ADD ADD MSTORE DUP2 PUSH2 0x289E DUP2 PUSH2 0x375A JUMP JUMPDEST SWAP3 POP POP JUMPDEST DUP1 PUSH2 0x28AC DUP2 PUSH2 0x375A JUMP JUMPDEST SWAP2 POP POP PUSH2 0x284D JUMP JUMPDEST POP SWAP1 SWAP5 SWAP4 POP POP POP POP JUMP JUMPDEST PUSH3 0xFFFFFF DUP2 AND PUSH1 0x0 SWAP1 DUP2 MSTORE PUSH1 0x14 PUSH1 0x20 SWAP1 DUP2 MSTORE PUSH1 0x40 DUP1 DUP4 KECCAK256 DUP1 SLOAD DUP3 MLOAD DUP2 DUP6 MUL DUP2 ADD DUP6 ADD SWAP1 SWAP4 MSTORE DUP1 DUP4 MSTORE DUP5 SWAP4 PUSH2 0x2929 SWAP4 SWAP3 SWAP2 SWAP1 DUP4 ADD DUP3 DUP3 DUP1 ISZERO PUSH2 0x291E JUMPI PUSH1 0x20 MUL DUP3 ADD SWAP2 SWAP1 PUSH1 0x0 MSTORE PUSH1 0x20 PUSH1 0x0 KECCAK256 SWAP1 JUMPDEST DUP2 SLOAD DUP2 MSTORE PUSH1 0x20 ADD SWAP1 PUSH1 0x1 ADD SWAP1 DUP1 DUP4 GT PUSH2 0x290A JUMPI JUMPDEST POP POP POP POP POP DUP6 PUSH2 0x27A2 JUMP JUMPDEST PUSH3 0xFFFFFF DUP5 AND PUSH1 0x0 SWAP1 DUP2 MSTORE PUSH1 0x14 PUSH1 0x20 SWAP1 DUP2 MSTORE PUSH1 0x40 SWAP2 DUP3 SWAP1 KECCAK256 DUP1 SLOAD DUP4 MLOAD DUP2 DUP5 MUL DUP2 ADD DUP5 ADD SWAP1 SWAP5 MSTORE DUP1 DUP5 MSTORE SWAP4 SWAP5 POP PUSH2 0x2995 SWAP4 SWAP1 SWAP2 DUP4 ADD DUP3 DUP3 DUP1 ISZERO PUSH2 0x298A JUMPI PUSH1 0x20 MUL DUP3 ADD SWAP2 SWAP1 PUSH1 0x0 MSTORE PUSH1 0x20 PUSH1 0x0 KECCAK256 SWAP1 JUMPDEST DUP2 SLOAD DUP2 MSTORE PUSH1 0x20 ADD SWAP1 PUSH1 0x1 ADD SWAP1 DUP1 DUP4 GT PUSH2 0x2976 JUMPI JUMPDEST POP POP POP POP POP DUP3 PUSH2 0x27F4 JUMP JUMPDEST PUSH3 0xFFFFFF DUP5 AND PUSH1 0x0 SWAP1 DUP2 MSTORE PUSH1 0x14 PUSH1 0x20 SWAP1 DUP2 MSTORE PUSH1 0x40 SWAP1 SWAP2 KECCAK256 DUP3 MLOAD PUSH2 0x29BE SWAP4 SWAP2 SWAP3 SWAP2 SWAP1 SWAP2 ADD SWAP1 PUSH2 0x32C3 JUMP JUMPDEST POP PUSH3 0xFFFFFF DUP4 AND PUSH1 0x0 SWAP1 DUP2 MSTORE PUSH1 0x15 PUSH1 0x20 SWAP1 DUP2 MSTORE PUSH1 0x40 SWAP2 DUP3 SWAP1 KECCAK256 DUP1 SLOAD DUP4 MLOAD DUP2 DUP5 MUL DUP2 ADD DUP5 ADD SWAP1 SWAP5 MSTORE DUP1 DUP5 MSTORE PUSH2 0x2A25 SWAP4 SWAP3 DUP4 ADD DUP3 DUP3 DUP1 ISZERO PUSH2 0x298A JUMPI PUSH1 0x20 MUL DUP3 ADD SWAP2 SWAP1 PUSH1 0x0 MSTORE PUSH1 0x20 PUSH1 0x0 KECCAK256 SWAP1 DUP2 SLOAD DUP2 MSTORE PUSH1 0x20 ADD SWAP1 PUSH1 0x1 ADD SWAP1 DUP1 DUP4 GT PUSH2 0x2976 JUMPI POP POP POP POP POP DUP3 PUSH2 0x27F4 JUMP JUMPDEST PUSH3 0xFFFFFF DUP5 AND PUSH1 0x0 SWAP1 DUP2 MSTORE PUSH1 0x15 PUSH1 0x20 SWAP1 DUP2 MSTORE PUSH1 0x40 SWAP1 SWAP2 KECCAK256 DUP3 MLOAD PUSH2 0x2A4E SWAP4 SWAP2 SWAP3 SWAP2 SWAP1 SWAP2 ADD SWAP1 PUSH2 0x32C3 JUMP JUMPDEST POP PUSH1 0x1 SWAP5 SWAP4 POP POP POP POP JUMP JUMPDEST PUSH1 0x60 PUSH1 0x0 DUP1 DUP5 PUSH1 0x1 PUSH1 0x1 PUSH1 0xA0 SHL SUB AND DUP5 PUSH1 0x40 MLOAD PUSH2 0x2A76 SWAP2 SWAP1 PUSH2 0x3829 JUMP JUMPDEST PUSH1 0x0 PUSH1 0x40 MLOAD DUP1 DUP4 SUB DUP2 PUSH1 0x0 DUP7 GAS CALL SWAP2 POP POP RETURNDATASIZE DUP1 PUSH1 0x0 DUP2 EQ PUSH2 0x2AB3 JUMPI PUSH1 0x40 MLOAD SWAP2 POP PUSH1 0x1F NOT PUSH1 0x3F RETURNDATASIZE ADD AND DUP3 ADD PUSH1 0x40 MSTORE RETURNDATASIZE DUP3 MSTORE RETURNDATASIZE PUSH1 0x0 PUSH1 0x20 DUP5 ADD RETURNDATACOPY PUSH2 0x2AB8 JUMP JUMPDEST PUSH1 0x60 SWAP2 POP JUMPDEST POP SWAP2 POP SWAP2 POP DUP2 ISZERO PUSH2 0x2AFD JUMPI DUP1 MLOAD ISZERO DUP1 ISZERO PUSH2 0x2ADA JUMPI POP PUSH1 0x1 PUSH1 0x1 PUSH1 0xA0 SHL SUB DUP6 AND EXTCODESIZE ISZERO JUMPDEST ISZERO PUSH2 0x2AF8 JUMPI PUSH1 0x40 MLOAD PUSH4 0x5D97DF89 PUSH1 0xE0 SHL DUP2 MSTORE PUSH1 0x4 ADD PUSH1 0x40 MLOAD DUP1 SWAP2 SUB SWAP1 REVERT JUMPDEST PUSH2 0x225C JUMP JUMPDEST DUP1 MLOAD PUSH2 0x2B1C JUMPI PUSH1 0x40 MLOAD PUSH4 0x24074291 PUSH1 0xE0 SHL DUP2 MSTORE PUSH1 0x4 ADD PUSH1 0x40 MLOAD DUP1 SWAP2 SUB SWAP1 REVERT JUMPDEST DUP1 MLOAD DUP2 PUSH1 0x20 ADD REVERT JUMPDEST PUSH1 0x0 PUSH3 0xFFFFFF DUP3 GT ISZERO PUSH2 0x2B4A JUMPI PUSH1 0x40 MLOAD PUSH4 0x163D8BAB PUSH1 0xE2 SHL DUP2 MSTORE PUSH1 0x4 ADD PUSH1 0x40 MLOAD DUP1 SWAP2 SUB SWAP1 REVERT JUMPDEST PUSH3 0x7FFFFF NOT DUP3 ADD PUSH2 0x2769 PUSH17 0x100068DB8BAC710CB295E9E1B089A0275 DUP3 PUSH2 0x2DBB JUMP JUMPDEST PUSH1 0x0 PUSH1 0xFF DUP3 GT ISZERO PUSH2 0x2B93 JUMPI PUSH1 0x40 MLOAD PUSH4 0xB72ECF5 PUSH1 0xE4 SHL DUP2 MSTORE PUSH1 0x4 DUP2 ADD DUP4 SWAP1 MSTORE PUSH1 0x24 ADD PUSH2 0x2799 JUMP JUMPDEST PUSH1 0x0 DUP1 PUSH2 0x2BA0 DUP7 DUP7 PUSH2 0x301D JUMP JUMPDEST SWAP2 POP SWAP2 POP DUP2 PUSH1 0x0 EQ PUSH2 0x2BB2 JUMPI DUP2 DUP5 SHR SWAP3 POP JUMPDEST DUP1 ISZERO PUSH2 0x2BF2 JUMPI PUSH1 0x1 DUP5 SHL DUP2 LT PUSH2 0x2BE5 JUMPI PUSH1 0x40 MLOAD PUSH4 0x3D90990F PUSH1 0xE0 SHL DUP2 MSTORE PUSH1 0x4 DUP2 ADD DUP3 SWAP1 MSTORE PUSH1 0x24 DUP2 ADD DUP6 SWAP1 MSTORE PUSH1 0x44 ADD PUSH2 0x2799 JUMP JUMPDEST DUP4 PUSH2 0x100 SUB DUP2 SWAP1 SHL DUP4 ADD SWAP3 POP JUMPDEST POP POP SWAP4 SWAP3 POP POP POP JUMP JUMPDEST PUSH2 0xFFFF PUSH1 0x8 DUP4 SWAP1 SHR AND SWAP2 PUSH1 0x0 SWAP1 DUP2 SWAP1 PUSH1 0xFF AND DUP4 DUP1 ISZERO PUSH2 0x2C19 JUMPI POP DUP1 ISZERO ISZERO JUMPDEST DUP1 PUSH2 0x2C2E JUMPI POP DUP4 ISZERO DUP1 ISZERO PUSH2 0x2C2E JUMPI POP DUP1 PUSH1 0xFF EQ ISZERO JUMPDEST ISZERO PUSH2 0x2C79 JUMPI PUSH3 0xFFFFFF DUP6 AND PUSH1 0x0 SWAP1 DUP2 MSTORE PUSH1 0x2 DUP8 ADD PUSH1 0x20 MSTORE PUSH1 0x40 SWAP1 KECCAK256 SLOAD SWAP2 POP PUSH2 0x2C57 DUP3 DUP3 DUP7 PUSH2 0x303C JUMP JUMPDEST SWAP1 POP PUSH1 0x0 NOT DUP2 EQ PUSH2 0x2C79 JUMPI PUSH4 0xFFFFFF00 PUSH1 0x8 DUP7 SWAP1 SHL AND DUP2 ADD JUMPDEST SWAP3 POP POP POP PUSH2 0x2769 JUMP JUMPDEST POP PUSH2 0xFFFF PUSH1 0x8 DUP6 SWAP1 SHR AND SWAP4 PUSH1 0xFF AND DUP4 DUP1 ISZERO PUSH2 0x2C93 JUMPI POP DUP1 ISZERO ISZERO JUMPDEST DUP1 PUSH2 0x2CA8 JUMPI POP DUP4 ISZERO DUP1 ISZERO PUSH2 0x2CA8 JUMPI POP DUP1 PUSH1 0xFF EQ ISZERO JUMPDEST ISZERO PUSH2 0x2D25 JUMPI PUSH3 0xFFFFFF DUP6 AND PUSH1 0x0 SWAP1 DUP2 MSTORE PUSH1 0x1 DUP8 ADD PUSH1 0x20 MSTORE PUSH1 0x40 SWAP1 KECCAK256 SLOAD SWAP2 POP PUSH2 0x2CD1 DUP3 DUP3 DUP7 PUSH2 0x303C JUMP JUMPDEST SWAP1 POP PUSH1 0x0 NOT DUP2 EQ PUSH2 0x2D25 JUMPI PUSH3 0xFFFFFF PUSH1 0x8 SWAP6 SWAP1 SWAP6 SHL PUSH4 0xFFFFFF00 AND DUP2 ADD SWAP5 DUP6 AND PUSH1 0x0 SWAP1 DUP2 MSTORE PUSH1 0x2 DUP8 ADD PUSH1 0x20 MSTORE PUSH1 0x40 SWAP1 KECCAK256 SLOAD SWAP2 POP PUSH2 0x2C70 DUP6 PUSH2 0x2D12 DUP5 DUP8 PUSH2 0x306B JUMP JUMPDEST PUSH1 0xFF AND PUSH1 0x8 SWAP2 SWAP1 SWAP2 SHL PUSH4 0xFFFFFF00 AND ADD SWAP1 JUMP JUMPDEST PUSH1 0x0 DUP1 DUP1 MSTORE PUSH1 0x20 DUP8 SWAP1 MSTORE PUSH1 0x40 SWAP1 KECCAK256 SLOAD SWAP2 POP PUSH2 0x2D41 DUP3 DUP7 DUP7 PUSH2 0x303C JUMP JUMPDEST SWAP1 POP PUSH1 0x0 NOT DUP2 EQ ISZERO PUSH2 0x2D66 JUMPI PUSH1 0x40 MLOAD PUSH4 0x10D64861 PUSH1 0xE0 SHL DUP2 MSTORE PUSH1 0x4 ADD PUSH1 0x40 MLOAD DUP1 SWAP2 SUB SWAP1 REVERT JUMPDEST PUSH1 0x0 DUP2 DUP2 MSTORE PUSH1 0x1 DUP8 ADD PUSH1 0x20 MSTORE PUSH1 0x40 SWAP1 KECCAK256 SLOAD SWAP2 POP PUSH2 0x2D87 DUP2 PUSH2 0x2D12 DUP5 DUP8 PUSH2 0x306B JUMP JUMPDEST SWAP5 POP DUP6 PUSH1 0x2 PUSH3 0xFFFFFF DUP8 AND PUSH1 0x0 SWAP1 DUP2 MSTORE SWAP2 ADD PUSH1 0x20 MSTORE PUSH1 0x40 SWAP1 KECCAK256 SLOAD SWAP2 POP PUSH2 0x2DB1 DUP6 PUSH2 0x2D12 DUP5 DUP8 PUSH2 0x306B JUMP JUMPDEST SWAP7 SWAP6 POP POP POP POP POP POP JUMP JUMPDEST PUSH1 0x0 DUP1 DUP1 DUP4 PUSH2 0x2DD3 JUMPI POP PUSH1 0x1 PUSH1 0x80 SHL SWAP2 POP PUSH2 0x20D3 SWAP1 POP JUMP JUMPDEST POP DUP3 PUSH1 0x0 DUP2 SLT ISZERO PUSH2 0x2DE5 JUMPI SWAP1 ISZERO SWAP1 PUSH1 0x0 SUB JUMPDEST PUSH3 0x100000 DUP2 LT ISZERO PUSH2 0x2FD5 JUMPI PUSH1 0x1 PUSH1 0x80 SHL SWAP3 POP DUP5 PUSH1 0x1 PUSH1 0x1 PUSH1 0x80 SHL SUB DUP2 GT ISZERO PUSH2 0x2E0F JUMPI SWAP2 ISZERO SWAP2 PUSH1 0x0 NOT DIV JUMPDEST PUSH1 0x1 DUP3 AND ISZERO PUSH2 0x2E20 JUMPI SWAP3 DUP4 MUL PUSH1 0x80 SHR SWAP3 JUMPDEST DUP1 MUL PUSH1 0x80 SHR PUSH1 0x2 DUP3 AND ISZERO PUSH2 0x2E36 JUMPI SWAP3 DUP4 MUL PUSH1 0x80 SHR SWAP3 JUMPDEST DUP1 MUL PUSH1 0x80 SHR PUSH1 0x4 DUP3 AND ISZERO PUSH2 0x2E4C JUMPI SWAP3 DUP4 MUL PUSH1 0x80 SHR SWAP3 JUMPDEST DUP1 MUL PUSH1 0x80 SHR PUSH1 0x8 DUP3 AND ISZERO PUSH2 0x2E62 JUMPI SWAP3 DUP4 MUL PUSH1 0x80 SHR SWAP3 JUMPDEST DUP1 MUL PUSH1 0x80 SHR PUSH1 0x10 DUP3 AND ISZERO PUSH2 0x2E78 JUMPI SWAP3 DUP4 MUL PUSH1 0x80 SHR SWAP3 JUMPDEST DUP1 MUL PUSH1 0x80 SHR PUSH1 0x20 DUP3 AND ISZERO PUSH2 0x2E8E JUMPI SWAP3 DUP4 MUL PUSH1 0x80 SHR SWAP3 JUMPDEST DUP1 MUL PUSH1 0x80 SHR PUSH1 0x40 DUP3 AND ISZERO PUSH2 0x2EA4 JUMPI SWAP3 DUP4 MUL PUSH1 0x80 SHR SWAP3 JUMPDEST DUP1 MUL PUSH1 0x80 SWAP1 DUP2 SHR SWAP1 DUP3 AND ISZERO PUSH2 0x2EBB JUMPI SWAP3 DUP4 MUL PUSH1 0x80 SHR SWAP3 JUMPDEST DUP1 MUL PUSH1 0x80 SHR PUSH2 0x100 DUP3 AND ISZERO PUSH2 0x2ED2 JUMPI SWAP3 DUP4 MUL PUSH1 0x80 SHR SWAP3 JUMPDEST DUP1 MUL PUSH1 0x80 SHR PUSH2 0x200 DUP3 AND ISZERO PUSH2 0x2EE9 JUMPI SWAP3 DUP4 MUL PUSH1 0x80 SHR SWAP3 JUMPDEST DUP1 MUL PUSH1 0x80 SHR PUSH2 0x400 DUP3 AND ISZERO PUSH2 0x2F00 JUMPI SWAP3 DUP4 MUL PUSH1 0x80 SHR SWAP3 JUMPDEST DUP1 MUL PUSH1 0x80 SHR PUSH2 0x800 DUP3 AND ISZERO PUSH2 0x2F17 JUMPI SWAP3 DUP4 MUL PUSH1 0x80 SHR SWAP3 JUMPDEST DUP1 MUL PUSH1 0x80 SHR PUSH2 0x1000 DUP3 AND ISZERO PUSH2 0x2F2E JUMPI SWAP3 DUP4 MUL PUSH1 0x80 SHR SWAP3 JUMPDEST DUP1 MUL PUSH1 0x80 SHR PUSH2 0x2000 DUP3 AND ISZERO PUSH2 0x2F45 JUMPI SWAP3 DUP4 MUL PUSH1 0x80 SHR SWAP3 JUMPDEST DUP1 MUL PUSH1 0x80 SHR PUSH2 0x4000 DUP3 AND ISZERO PUSH2 0x2F5C JUMPI SWAP3 DUP4 MUL PUSH1 0x80 SHR SWAP3 JUMPDEST DUP1 MUL PUSH1 0x80 SHR PUSH2 0x8000 DUP3 AND ISZERO PUSH2 0x2F73 JUMPI SWAP3 DUP4 MUL PUSH1 0x80 SHR SWAP3 JUMPDEST DUP1 MUL PUSH1 0x80 SHR PUSH3 0x10000 DUP3 AND ISZERO PUSH2 0x2F8B JUMPI SWAP3 DUP4 MUL PUSH1 0x80 SHR SWAP3 JUMPDEST DUP1 MUL PUSH1 0x80 SHR PUSH3 0x20000 DUP3 AND ISZERO PUSH2 0x2FA3 JUMPI SWAP3 DUP4 MUL PUSH1 0x80 SHR SWAP3 JUMPDEST DUP1 MUL PUSH1 0x80 SHR PUSH3 0x40000 DUP3 AND ISZERO PUSH2 0x2FBB JUMPI SWAP3 DUP4 MUL PUSH1 0x80 SHR SWAP3 JUMPDEST DUP1 MUL PUSH1 0x80 SHR PUSH3 0x80000 DUP3 AND ISZERO PUSH2 0x2FD3 JUMPI SWAP3 DUP4 MUL PUSH1 0x80 SHR SWAP3 JUMPDEST POP JUMPDEST DUP3 PUSH2 0x2FFD JUMPI PUSH1 0x40 MLOAD PUSH4 0xE9C7D61 PUSH1 0xE3 SHL DUP2 MSTORE PUSH1 0x4 DUP2 ADD DUP7 SWAP1 MSTORE PUSH1 0x24 DUP2 ADD DUP6 SWAP1 MSTORE PUSH1 0x44 ADD PUSH2 0x2799 JUMP JUMPDEST DUP2 PUSH2 0x3008 JUMPI DUP3 PUSH2 0x3014 JUMP JUMPDEST PUSH2 0x3014 DUP4 PUSH1 0x0 NOT PUSH2 0x37B1 JUMP JUMPDEST SWAP6 SWAP5 POP POP POP POP POP JUMP JUMPDEST PUSH1 0x0 DUP1 PUSH1 0x0 NOT DUP4 DUP6 MULMOD DUP4 DUP6 MUL SWAP3 POP DUP3 DUP2 LT DUP4 DUP3 SUB SUB SWAP2 POP POP SWAP3 POP SWAP3 SWAP1 POP JUMP JUMPDEST PUSH1 0x0 DUP2 PUSH2 0x3057 JUMPI PUSH2 0x2AF8 DUP5 PUSH2 0x3052 DUP6 PUSH1 0x1 PUSH2 0x3864 JUMP JUMPDEST PUSH2 0x3089 JUMP JUMPDEST PUSH2 0x225C DUP5 PUSH2 0x3066 PUSH1 0x1 DUP7 PUSH2 0x3889 JUMP JUMPDEST PUSH2 0x30AD JUMP JUMPDEST PUSH1 0x0 DUP2 PUSH2 0x3080 JUMPI PUSH2 0x307B DUP4 PUSH2 0x30D3 JUMP JUMPDEST PUSH2 0x2769 JUMP JUMPDEST PUSH2 0x2769 DUP4 PUSH2 0x3169 JUMP JUMPDEST PUSH1 0xFF DUP2 AND SWAP2 SWAP1 SWAP2 SHR SWAP1 PUSH1 0x0 DUP3 ISZERO PUSH2 0x22F5 JUMPI DUP2 PUSH2 0x30A4 DUP5 PUSH2 0x30D3 JUMP JUMPDEST ADD PUSH1 0xFF AND PUSH2 0x2769 JUMP JUMPDEST PUSH1 0xFF DUP2 DUP2 SUB AND SWAP2 DUP3 SHL SWAP2 PUSH1 0x0 SWAP1 DUP4 ISZERO PUSH2 0x27E9 JUMPI DUP1 PUSH2 0x30CA DUP6 PUSH2 0x3169 JUMP JUMPDEST PUSH1 0xFF AND SUB PUSH2 0x225C JUMP JUMPDEST PUSH1 0x0 PUSH1 0x80 DUP3 SWAP1 SHL ISZERO PUSH2 0x30E7 JUMPI POP PUSH1 0x80 SWAP1 DUP2 SHL SWAP1 JUMPDEST PUSH1 0x40 DUP3 SWAP1 SHL ISZERO PUSH2 0x30F9 JUMPI PUSH1 0x40 SWAP2 DUP3 SHL SWAP2 ADD JUMPDEST PUSH1 0x20 DUP3 SWAP1 SHL ISZERO PUSH2 0x310B JUMPI PUSH1 0x20 SWAP2 DUP3 SHL SWAP2 ADD JUMPDEST PUSH1 0x10 DUP3 SWAP1 SHL ISZERO PUSH2 0x311D JUMPI PUSH1 0x10 SWAP2 DUP3 SHL SWAP2 ADD JUMPDEST PUSH1 0x8 DUP3 SWAP1 SHL ISZERO PUSH2 0x312F JUMPI PUSH1 0x8 SWAP2 DUP3 SHL SWAP2 ADD JUMPDEST PUSH1 0x4 DUP3 SWAP1 SHL ISZERO PUSH2 0x3141 JUMPI PUSH1 0x4 SWAP2 DUP3 SHL SWAP2 ADD JUMPDEST PUSH1 0x2 DUP3 SWAP1 SHL ISZERO PUSH2 0x3153 JUMPI PUSH1 0x2 SWAP2 DUP3 SHL SWAP2 ADD JUMPDEST PUSH1 0x1 DUP3 SWAP1 SHL ISZERO PUSH2 0x3161 JUMPI PUSH1 0x1 ADD JUMPDEST PUSH1 0xFF SUB SWAP2 SWAP1 POP JUMP JUMPDEST PUSH1 0x0 PUSH1 0x1 PUSH1 0x80 SHL DUP3 LT PUSH2 0x317E JUMPI POP PUSH1 0x80 SWAP1 DUP2 SHR SWAP1 JUMPDEST PUSH1 0x1 PUSH1 0x40 SHL DUP3 LT PUSH2 0x3191 JUMPI PUSH1 0x40 SWAP2 DUP3 SHR SWAP2 ADD JUMPDEST PUSH1 0x1 PUSH1 0x20 SHL DUP3 LT PUSH2 0x31A4 JUMPI PUSH1 0x20 SWAP2 DUP3 SHR SWAP2 ADD JUMPDEST PUSH3 0x10000 DUP3 LT PUSH2 0x31B6 JUMPI PUSH1 0x10 SWAP2 DUP3 SHR SWAP2 ADD JUMPDEST PUSH2 0x100 DUP3 LT PUSH2 0x31C7 JUMPI PUSH1 0x8 SWAP2 DUP3 SHR SWAP2 ADD JUMPDEST PUSH1 0x10 DUP3 LT PUSH2 0x31D7 JUMPI PUSH1 0x4 SWAP2 DUP3 SHR SWAP2 ADD JUMPDEST PUSH1 0x4 DUP3 LT PUSH2 0x31E7 JUMPI PUSH1 0x2 SWAP2 DUP3 SHR SWAP2 ADD JUMPDEST PUSH1 0x2 DUP3 LT PUSH2 0x26E0 JUMPI PUSH1 0x1 ADD SWAP2 SWAP1 POP JUMP JUMPDEST DUP3 DUP1 SLOAD DUP3 DUP3 SSTORE SWAP1 PUSH1 0x0 MSTORE PUSH1 0x20 PUSH1 0x0 KECCAK256 SWAP1 DUP2 ADD SWAP3 DUP3 ISZERO PUSH2 0x324A JUMPI SWAP2 PUSH1 0x20 MUL DUP3 ADD JUMPDEST DUP3 DUP2 GT ISZERO PUSH2 0x324A JUMPI DUP2 SLOAD PUSH1 0x1 PUSH1 0x1 PUSH1 0xA0 SHL SUB NOT AND PUSH1 0x1 PUSH1 0x1 PUSH1 0xA0 SHL SUB DUP5 CALLDATALOAD AND OR DUP3 SSTORE PUSH1 0x20 SWAP1 SWAP3 ADD SWAP2 PUSH1 0x1 SWAP1 SWAP2 ADD SWAP1 PUSH2 0x3217 JUMP JUMPDEST POP PUSH2 0x3256 SWAP3 SWAP2 POP PUSH2 0x331E JUMP JUMPDEST POP SWAP1 JUMP JUMPDEST DUP3 DUP1 SLOAD DUP3 DUP3 SSTORE SWAP1 PUSH1 0x0 MSTORE PUSH1 0x20 PUSH1 0x0 KECCAK256 SWAP1 DUP2 ADD SWAP3 DUP3 ISZERO PUSH2 0x324A JUMPI SWAP2 PUSH1 0x20 MUL DUP3 ADD JUMPDEST DUP3 DUP2 GT ISZERO PUSH2 0x324A JUMPI DUP3 CALLDATALOAD DUP3 SSTORE SWAP2 PUSH1 0x20 ADD SWAP2 SWAP1 PUSH1 0x1 ADD SWAP1 PUSH2 0x327A JUMP JUMPDEST DUP3 PUSH1 0x2 DUP2 ADD SWAP3 DUP3 ISZERO PUSH2 0x324A JUMPI SWAP2 PUSH1 0x20 MUL DUP3 ADD JUMPDEST DUP3 DUP2 GT ISZERO PUSH2 0x324A JUMPI DUP3 MLOAD DUP3 SSTORE SWAP2 PUSH1 0x20 ADD SWAP2 SWAP1 PUSH1 0x1 ADD SWAP1 PUSH2 0x32A8 JUMP JUMPDEST DUP3 DUP1 SLOAD DUP3 DUP3 SSTORE SWAP1 PUSH1 0x0 MSTORE PUSH1 0x20 PUSH1 0x0 KECCAK256 SWAP1 DUP2 ADD SWAP3 DUP3 ISZERO PUSH2 0x324A JUMPI SWAP2 PUSH1 0x20 MUL DUP3 ADD DUP3 DUP2 GT ISZERO PUSH2 0x324A JUMPI DUP3 MLOAD DUP3 SSTORE SWAP2 PUSH1 0x20 ADD SWAP2 SWAP1 PUSH1 0x1 ADD SWAP1 PUSH2 0x32A8 JUMP JUMPDEST POP DUP1 SLOAD PUSH1 0x0 DUP3 SSTORE SWAP1 PUSH1 0x0 MSTORE PUSH1 0x20 PUSH1 0x0 KECCAK256 SWAP1 DUP2 ADD SWAP1 PUSH2 0x331B SWAP2 SWAP1 PUSH2 0x331E JUMP JUMPDEST POP JUMP JUMPDEST JUMPDEST DUP1 DUP3 GT ISZERO PUSH2 0x3256 JUMPI PUSH1 0x0 DUP2 SSTORE PUSH1 0x1 ADD PUSH2 0x331F JUMP JUMPDEST PUSH1 0x0 PUSH1 0x20 DUP3 DUP5 SUB SLT ISZERO PUSH2 0x3345 JUMPI PUSH1 0x0 DUP1 REVERT JUMPDEST DUP2 CALLDATALOAD PUSH3 0xFFFFFF DUP2 AND DUP2 EQ PUSH2 0x2769 JUMPI PUSH1 0x0 DUP1 REVERT JUMPDEST PUSH1 0x1 PUSH1 0x1 PUSH1 0xA0 SHL SUB DUP2 AND DUP2 EQ PUSH2 0x331B JUMPI PUSH1 0x0 DUP1 REVERT JUMPDEST PUSH4 0x4E487B71 PUSH1 0xE0 SHL PUSH1 0x0 MSTORE PUSH1 0x41 PUSH1 0x4 MSTORE PUSH1 0x24 PUSH1 0x0 REVERT JUMPDEST PUSH1 0x0 DUP1 PUSH1 0x0 DUP1 PUSH1 0x80 DUP6 DUP8 SUB SLT ISZERO PUSH2 0x3399 JUMPI PUSH1 0x0 DUP1 REVERT JUMPDEST DUP5 CALLDATALOAD PUSH2 0x33A4 DUP2 PUSH2 0x3358 JUMP JUMPDEST SWAP4 POP PUSH1 0x20 DUP6 ADD CALLDATALOAD PUSH2 0x33B4 DUP2 PUSH2 0x3358 JUMP JUMPDEST SWAP3 POP PUSH1 0x40 DUP6 ADD CALLDATALOAD SWAP2 POP PUSH1 0x60 DUP6 ADD CALLDATALOAD PUSH1 0x1 PUSH1 0x1 PUSH1 0x40 SHL SUB DUP1 DUP3 GT ISZERO PUSH2 0x33D7 JUMPI PUSH1 0x0 DUP1 REVERT JUMPDEST DUP2 DUP8 ADD SWAP2 POP DUP8 PUSH1 0x1F DUP4 ADD SLT PUSH2 0x33EB JUMPI PUSH1 0x0 DUP1 REVERT JUMPDEST DUP2 CALLDATALOAD DUP2 DUP2 GT ISZERO PUSH2 0x33FD JUMPI PUSH2 0x33FD PUSH2 0x336D JUMP JUMPDEST PUSH1 0x40 MLOAD PUSH1 0x1F DUP3 ADD PUSH1 0x1F NOT SWAP1 DUP2 AND PUSH1 0x3F ADD AND DUP2 ADD SWAP1 DUP4 DUP3 GT DUP2 DUP4 LT OR ISZERO PUSH2 0x3425 JUMPI PUSH2 0x3425 PUSH2 0x336D JUMP JUMPDEST DUP2 PUSH1 0x40 MSTORE DUP3 DUP2 MSTORE DUP11 PUSH1 0x20 DUP5 DUP8 ADD ADD GT ISZERO PUSH2 0x343E JUMPI PUSH1 0x0 DUP1 REVERT JUMPDEST DUP3 PUSH1 0x20 DUP7 ADD PUSH1 0x20 DUP4 ADD CALLDATACOPY PUSH1 0x0 PUSH1 0x20 DUP5 DUP4 ADD ADD MSTORE DUP1 SWAP6 POP POP POP POP POP POP SWAP3 SWAP6 SWAP2 SWAP5 POP SWAP3 POP JUMP JUMPDEST PUSH1 0x1 PUSH1 0x1 PUSH1 0xA0 SHL SUB SWAP2 SWAP1 SWAP2 AND DUP2 MSTORE PUSH1 0x20 ADD SWAP1 JUMP JUMPDEST PUSH1 0x0 DUP1 DUP4 PUSH1 0x1F DUP5 ADD SLT PUSH2 0x3488 JUMPI PUSH1 0x0 DUP1 REVERT JUMPDEST POP DUP2 CALLDATALOAD PUSH1 0x1 PUSH1 0x1 PUSH1 0x40 SHL SUB DUP2 GT ISZERO PUSH2 0x349F JUMPI PUSH1 0x0 DUP1 REVERT JUMPDEST PUSH1 0x20 DUP4 ADD SWAP2 POP DUP4 PUSH1 0x20 DUP3 PUSH1 0x5 SHL DUP6 ADD ADD GT ISZERO PUSH2 0x34BA JUMPI PUSH1 0x0 DUP1 REVERT JUMPDEST SWAP3 POP SWAP3 SWAP1 POP JUMP JUMPDEST PUSH1 0x0 DUP1 PUSH1 0x0 DUP1 PUSH1 0x0 PUSH1 0x60 DUP7 DUP9 SUB SLT ISZERO PUSH2 0x34D9 JUMPI PUSH1 0x0 DUP1 REVERT JUMPDEST DUP6 CALLDATALOAD SWAP5 POP PUSH1 0x20 DUP7 ADD CALLDATALOAD PUSH1 0x1 PUSH1 0x1 PUSH1 0x40 SHL SUB DUP1 DUP3 GT ISZERO PUSH2 0x34F7 JUMPI PUSH1 0x0 DUP1 REVERT JUMPDEST PUSH2 0x3503 DUP10 DUP4 DUP11 ADD PUSH2 0x3476 JUMP JUMPDEST SWAP1 SWAP7 POP SWAP5 POP PUSH1 0x40 DUP9 ADD CALLDATALOAD SWAP2 POP DUP1 DUP3 GT ISZERO PUSH2 0x351C JUMPI PUSH1 0x0 DUP1 REVERT JUMPDEST POP PUSH2 0x3529 DUP9 DUP3 DUP10 ADD PUSH2 0x3476 JUMP JUMPDEST SWAP7 SWAP10 SWAP6 SWAP9 POP SWAP4 SWAP7 POP SWAP3 SWAP5 SWAP4 SWAP3 POP POP POP JUMP JUMPDEST PUSH1 0x0 PUSH1 0x20 DUP3 DUP5 SUB SLT ISZERO PUSH2 0x354C JUMPI PUSH1 0x0 DUP1 REVERT JUMPDEST POP CALLDATALOAD SWAP2 SWAP1 POP JUMP JUMPDEST PUSH1 0x0 DUP1 PUSH1 0x40 DUP4 DUP6 SUB SLT ISZERO PUSH2 0x3566 JUMPI PUSH1 0x0 DUP1 REVERT JUMPDEST DUP3 CALLDATALOAD SWAP2 POP PUSH1 0x20 DUP4 ADD CALLDATALOAD PUSH2 0x3578 DUP2 PUSH2 0x3358 JUMP JUMPDEST DUP1 SWAP2 POP POP SWAP3 POP SWAP3 SWAP1 POP JUMP JUMPDEST PUSH1 0x0 DUP1 PUSH1 0x0 PUSH1 0x40 DUP5 DUP7 SUB SLT ISZERO PUSH2 0x3598 JUMPI PUSH1 0x0 DUP1 REVERT JUMPDEST DUP4 CALLDATALOAD PUSH1 0x1 PUSH1 0x1 PUSH1 0x40 SHL SUB DUP2 GT ISZERO PUSH2 0x35AE JUMPI PUSH1 0x0 DUP1 REVERT JUMPDEST PUSH2 0x35BA DUP7 DUP3 DUP8 ADD PUSH2 0x3476 JUMP JUMPDEST SWAP1 SWAP5 POP SWAP3 POP POP PUSH1 0x20 DUP5 ADD CALLDATALOAD PUSH2 0x35CE DUP2 PUSH2 0x3358 JUMP JUMPDEST DUP1 SWAP2 POP POP SWAP3 POP SWAP3 POP SWAP3 JUMP JUMPDEST DUP1 ISZERO ISZERO DUP2 EQ PUSH2 0x331B JUMPI PUSH1 0x0 DUP1 REVERT JUMPDEST PUSH1 0x0 DUP1 PUSH1 0x0 DUP1 PUSH1 0x0 DUP1 PUSH1 0x80 DUP8 DUP10 SUB SLT ISZERO PUSH2 0x3600 JUMPI PUSH1 0x0 DUP1 REVERT JUMPDEST DUP7 CALLDATALOAD PUSH1 0x1 PUSH1 0x1 PUSH1 0x40 SHL SUB DUP1 DUP3 GT ISZERO PUSH2 0x3617 JUMPI PUSH1 0x0 DUP1 REVERT JUMPDEST PUSH2 0x3623 DUP11 DUP4 DUP12 ADD PUSH2 0x3476 JUMP JUMPDEST SWAP1 SWAP9 POP SWAP7 POP PUSH1 0x20 DUP10 ADD CALLDATALOAD SWAP2 POP DUP1 DUP3 GT ISZERO PUSH2 0x363C JUMPI PUSH1 0x0 DUP1 REVERT JUMPDEST POP PUSH2 0x3649 DUP10 DUP3 DUP11 ADD PUSH2 0x3476 JUMP JUMPDEST SWAP1 SWAP6 POP SWAP4 POP POP PUSH1 0x40 DUP8 ADD CALLDATALOAD PUSH2 0x365D DUP2 PUSH2 0x3358 JUMP JUMPDEST SWAP2 POP PUSH1 0x60 DUP8 ADD CALLDATALOAD PUSH2 0x366D DUP2 PUSH2 0x35D9 JUMP JUMPDEST DUP1 SWAP2 POP POP SWAP3 SWAP6 POP SWAP3 SWAP6 POP SWAP3 SWAP6 JUMP JUMPDEST PUSH4 0x4E487B71 PUSH1 0xE0 SHL PUSH1 0x0 MSTORE PUSH1 0x32 PUSH1 0x4 MSTORE PUSH1 0x24 PUSH1 0x0 REVERT JUMPDEST PUSH4 0x4E487B71 PUSH1 0xE0 SHL PUSH1 0x0 MSTORE PUSH1 0x12 PUSH1 0x4 MSTORE PUSH1 0x24 PUSH1 0x0 REVERT JUMPDEST PUSH1 0x1 PUSH1 0x1 PUSH1 0xA0 SHL SUB SWAP4 DUP5 AND DUP2 MSTORE SWAP2 SWAP1 SWAP3 AND PUSH1 0x20 DUP3 ADD MSTORE PUSH1 0x40 DUP2 ADD SWAP2 SWAP1 SWAP2 MSTORE PUSH1 0x60 ADD SWAP1 JUMP JUMPDEST PUSH1 0x0 PUSH1 0x20 DUP3 DUP5 SUB SLT ISZERO PUSH2 0x36DD JUMPI PUSH1 0x0 DUP1 REVERT JUMPDEST DUP2 MLOAD PUSH2 0x2769 DUP2 PUSH2 0x3358 JUMP JUMPDEST PUSH1 0x1 PUSH1 0x1 PUSH1 0xA0 SHL SUB SWAP3 SWAP1 SWAP3 AND DUP3 MSTORE PUSH1 0x20 DUP3 ADD MSTORE PUSH1 0x40 ADD SWAP1 JUMP JUMPDEST PUSH4 0x4E487B71 PUSH1 0xE0 SHL PUSH1 0x0 MSTORE PUSH1 0x11 PUSH1 0x4 MSTORE PUSH1 0x24 PUSH1 0x0 REVERT JUMPDEST PUSH1 0x0 DUP3 NOT DUP3 GT ISZERO PUSH2 0x372A JUMPI PUSH2 0x372A PUSH2 0x3701 JUMP JUMPDEST POP ADD SWAP1 JUMP JUMPDEST PUSH1 0x0 DUP3 DUP3 LT ISZERO PUSH2 0x3741 JUMPI PUSH2 0x3741 PUSH2 0x3701 JUMP JUMPDEST POP SUB SWAP1 JUMP JUMPDEST PUSH1 0x0 DUP3 PUSH2 0x3755 JUMPI PUSH2 0x3755 PUSH2 0x3691 JUMP JUMPDEST POP MOD SWAP1 JUMP JUMPDEST PUSH1 0x0 PUSH1 0x0 NOT DUP3 EQ ISZERO PUSH2 0x376E JUMPI PUSH2 0x376E PUSH2 0x3701 JUMP JUMPDEST POP PUSH1 0x1 ADD SWAP1 JUMP JUMPDEST PUSH1 0x0 PUSH1 0x20 DUP3 DUP5 SUB SLT ISZERO PUSH2 0x3787 JUMPI PUSH1 0x0 DUP1 REVERT JUMPDEST DUP2 MLOAD PUSH2 0x2769 DUP2 PUSH2 0x35D9 JUMP JUMPDEST PUSH1 0x0 DUP2 PUSH1 0x0 NOT DIV DUP4 GT DUP3 ISZERO ISZERO AND ISZERO PUSH2 0x37AC JUMPI PUSH2 0x37AC PUSH2 0x3701 JUMP JUMPDEST POP MUL SWAP1 JUMP JUMPDEST PUSH1 0x0 DUP3 PUSH2 0x37C0 JUMPI PUSH2 0x37C0 PUSH2 0x3691 JUMP JUMPDEST POP DIV SWAP1 JUMP JUMPDEST PUSH1 0x0 PUSH3 0xFFFFFF DUP1 DUP4 AND DUP2 DUP6 AND DUP1 DUP4 SUB DUP3 GT ISZERO PUSH2 0x37E3 JUMPI PUSH2 0x37E3 PUSH2 0x3701 JUMP JUMPDEST ADD SWAP5 SWAP4 POP POP POP POP JUMP JUMPDEST PUSH1 0x0 PUSH3 0xFFFFFF DUP4 DUP2 AND SWAP1 DUP4 AND DUP2 DUP2 LT ISZERO PUSH2 0x3808 JUMPI PUSH2 0x3808 PUSH2 0x3701 JUMP JUMPDEST SUB SWAP4 SWAP3 POP POP POP JUMP JUMPDEST PUSH1 0x0 PUSH1 0x20 DUP3 DUP5 SUB SLT ISZERO PUSH2 0x3822 JUMPI PUSH1 0x0 DUP1 REVERT JUMPDEST POP MLOAD SWAP2 SWAP1 POP JUMP JUMPDEST PUSH1 0x0 DUP3 MLOAD PUSH1 0x0 JUMPDEST DUP2 DUP2 LT ISZERO PUSH2 0x384A JUMPI PUSH1 0x20 DUP2 DUP7 ADD DUP2 ADD MLOAD DUP6 DUP4 ADD MSTORE ADD PUSH2 0x3830 JUMP JUMPDEST DUP2 DUP2 GT ISZERO PUSH2 0x3859 JUMPI PUSH1 0x0 DUP3 DUP6 ADD MSTORE JUMPDEST POP SWAP2 SWAP1 SWAP2 ADD SWAP3 SWAP2 POP POP JUMP JUMPDEST PUSH1 0x0 PUSH1 0xFF DUP3 AND PUSH1 0xFF DUP5 AND DUP1 PUSH1 0xFF SUB DUP3 GT ISZERO PUSH2 0x3881 JUMPI PUSH2 0x3881 PUSH2 0x3701 JUMP JUMPDEST ADD SWAP4 SWAP3 POP POP POP JUMP JUMPDEST PUSH1 0x0 PUSH1 0xFF DUP3 AND PUSH1 0xFF DUP5 AND DUP1 DUP3 LT ISZERO PUSH2 0x38A3 JUMPI PUSH2 0x38A3 PUSH2 0x3701 JUMP JUMPDEST SWAP1 SUB SWAP4 SWAP3 POP POP POP JUMP INVALID LOG2 PUSH5 0x6970667358 0x22 SLT KECCAK256 PUSH16 0x5F98368026DAE8C705343C5F2AEB2432 JUMPI 0x2E PUSH26 0x558182BA0F50CEB7A66056DB64736F6C634300080A0033A26469 PUSH17 0x6673582212200A773047A186372586C0D9 CODECOPY PUSH3 0x99946 CALLCODE 0xC4 PUSH15 0x9B5A848283E818E2D786527EBB6473 PUSH16 0x6C634300080A00330000000000000000 "
		},
		"gasEstimates": {
			"creation": {
				"codeDepositCost": "4898800",
				"executionCost": "infinite",
				"totalCost": "infinite"
			},
			"external": {
				"createERC721Pair(address,address)": "infinite",
				"feeRecipient()": "2366",
				"getLPTokenERC721(address,address)": "infinite",
				"getPairERC721(address,address)": "infinite",
				"setOwner(address)": "30337",
				"setRoyaltyInfo(address,address,uint256)": "infinite"
			},
			"internal": {
				"_tokenDetector(address,address)": "infinite",
				"deployERC721(address,address,address,uint128)": "infinite"
			}
		},
		"methodIdentifiers": {
			"createERC721Pair(address,address)": "c0d768b1",
			"feeRecipient()": "46904840",
			"getLPTokenERC721(address,address)": "65329a4f",
			"getPairERC721(address,address)": "83d16e13",
			"setOwner(address)": "13af4035",
			"setRoyaltyInfo(address,address,uint256)": "2060003b"
		}
	},
	"abi": [
		{
			"inputs": [
				{
					"internalType": "uint128",
					"name": "_feeRate",
					"type": "uint128"
				},
				{
					"internalType": "uint256",
					"name": "_royaltyRate",
					"type": "uint256"
				},
				{
					"internalType": "address",
					"name": "_royaltyEngine",
					"type": "address"
				}
			],
			"stateMutability": "nonpayable",
			"type": "constructor"
		},
		{
			"anonymous": false,
			"inputs": [
				{
					"indexed": true,
					"internalType": "uint128",
					"name": "oldFee",
					"type": "uint128"
				},
				{
					"indexed": true,
					"internalType": "uint128",
					"name": "newFee",
					"type": "uint128"
				}
			],
			"name": "FeeRateChanged",
			"type": "event"
		},
		{
			"anonymous": false,
			"inputs": [
				{
					"indexed": true,
					"internalType": "address",
					"name": "oldOwner",
					"type": "address"
				},
				{
					"indexed": true,
					"internalType": "address",
					"name": "newOwner",
					"type": "address"
				}
			],
			"name": "OwnerChanged",
			"type": "event"
		},
		{
			"anonymous": false,
			"inputs": [
				{
					"indexed": true,
					"internalType": "address",
					"name": "tokenX",
					"type": "address"
				},
				{
					"indexed": true,
					"internalType": "address",
					"name": "tokenY",
					"type": "address"
				},
				{
					"indexed": true,
					"internalType": "uint128",
					"name": "feeRate",
					"type": "uint128"
				},
				{
					"indexed": false,
					"internalType": "address",
					"name": "pair",
					"type": "address"
				},
				{
					"indexed": false,
					"internalType": "address",
					"name": "lpToken",
					"type": "address"
				}
			],
			"name": "PairCreated",
			"type": "event"
		},
		{
			"inputs": [
				{
					"internalType": "address",
					"name": "_token0",
					"type": "address"
				},
				{
					"internalType": "address",
					"name": "_token1",
					"type": "address"
				}
			],
			"name": "createERC721Pair",
			"outputs": [
				{
					"internalType": "address",
					"name": "lpToken",
					"type": "address"
				},
				{
					"internalType": "address",
					"name": "pair",
					"type": "address"
				}
			],
			"stateMutability": "nonpayable",
			"type": "function"
		},
		{
			"inputs": [],
			"name": "feeRecipient",
			"outputs": [
				{
					"internalType": "address",
					"name": "_feeRecipient",
					"type": "address"
				}
			],
			"stateMutability": "view",
			"type": "function"
		},
		{
			"inputs": [
				{
					"internalType": "address",
					"name": "",
					"type": "address"
				},
				{
					"internalType": "address",
					"name": "",
					"type": "address"
				}
			],
			"name": "getLPTokenERC721",
			"outputs": [
				{
					"internalType": "address",
					"name": "",
					"type": "address"
				}
			],
			"stateMutability": "view",
			"type": "function"
		},
		{
			"inputs": [
				{
					"internalType": "address",
					"name": "",
					"type": "address"
				},
				{
					"internalType": "address",
					"name": "",
					"type": "address"
				}
			],
			"name": "getPairERC721",
			"outputs": [
				{
					"internalType": "address",
					"name": "",
					"type": "address"
				}
			],
			"stateMutability": "view",
			"type": "function"
		},
		{
			"inputs": [
				{
					"internalType": "address",
					"name": "_owner",
					"type": "address"
				}
			],
			"name": "setOwner",
			"outputs": [],
			"stateMutability": "nonpayable",
			"type": "function"
		},
		{
			"inputs": [
				{
					"internalType": "address",
					"name": "_nftAddress",
					"type": "address"
				},
				{
					"internalType": "address",
					"name": "_pair",
					"type": "address"
				},
				{
					"internalType": "uint256",
					"name": "_newRate",
					"type": "uint256"
				}
			],
			"name": "setRoyaltyInfo",
			"outputs": [],
			"stateMutability": "nonpayable",
			"type": "function"
		}
	]
}