{
	"data": {
		"bytecode": {
			"linkReferences": {},
			"object": "60a06040523480156200001157600080fd5b506040516200597f3803806200597f833981810160405281019062000037919062000339565b600073ffffffffffffffffffffffffffffffffffffffff168673ffffffffffffffffffffffffffffffffffffffff1614156200009f576040517f17be04b700000000000000000000000000000000000000000000000000000000815260040160405180910390fd5b8573ffffffffffffffffffffffffffffffffffffffff1660808173ffffffffffffffffffffffffffffffffffffffff168152505084600160006101000a81548173ffffffffffffffffffffffffffffffffffffffff021916908373ffffffffffffffffffffffffffffffffffffffff16021790555083600260006101000a81548173ffffffffffffffffffffffffffffffffffffffff021916908373ffffffffffffffffffffffffffffffffffffffff16021790555082601760006101000a81548173ffffffffffffffffffffffffffffffffffffffff021916908373ffffffffffffffffffffffffffffffffffffffff16021790555081601881905550620001ad620001ef60201b60201c565b806fffffffffffffffffffffffffffffffff16601481905550600a670de0b6b3a7640000620001dd919062000404565b6015819055505050505050506200043c565b620001ff6200020160201b60201c565b565b60008054146200023d576040517fd80075c100000000000000000000000000000000000000000000000000000000815260040160405180910390fd5b6001600081905550565b600080fd5b600073ffffffffffffffffffffffffffffffffffffffff82169050919050565b600062000279826200024c565b9050919050565b6200028b816200026c565b81146200029757600080fd5b50565b600081519050620002ab8162000280565b92915050565b6000819050919050565b620002c681620002b1565b8114620002d257600080fd5b50565b600081519050620002e681620002bb565b92915050565b60006fffffffffffffffffffffffffffffffff82169050919050565b6200031381620002ec565b81146200031f57600080fd5b50565b600081519050620003338162000308565b92915050565b60008060008060008060c0878903121562000359576200035862000247565b5b60006200036989828a016200029a565b96505060206200037c89828a016200029a565b95505060406200038f89828a016200029a565b9450506060620003a289828a016200029a565b9350506080620003b589828a01620002d5565b92505060a0620003c889828a0162000322565b9150509295509295509295565b7f4e487b7100000000000000000000000000000000000000000000000000000000600052601260045260246000fd5b60006200041182620002b1565b91506200041e83620002b1565b925082620004315762000430620003d5565b5b828204905092915050565b6080516155206200045f60003960008181610e13015261157801526155206000f3fe608060405234801561001057600080fd5b50600436106101215760003560e01c8063b7d19fc4116100ad578063d3f790d111610071578063d3f790d11461032a578063f23a6e611461035a578063fcd3533c1461038a578063fcee45f4146103bb578063fd31c4ab146103eb57610121565b8063b7d19fc414610271578063ba79b5641461028f578063bc197c81146102ab578063c45a0155146102db578063c6deab32146102f957610121565b80635fcbd285116100f45780635fcbd285146101c6578063720b9bbf146101e457806398c7adf314610215578063a1af5b9a14610234578063a582cdaa1461025257610121565b806301ffc9a7146101265780630abe96881461015657806316dc165b146101875780631b05b83e146101a5575b600080fd5b610140600480360381019061013b91906146ac565b61041b565b60405161014d91906146f4565b60405180910390f35b610170600480360381019061016b919061474a565b610495565b60405161017e929190614790565b60405180910390f35b61018f6104fb565b60405161019c9190614838565b60405180910390f35b6101ad610521565b6040516101bd9493929190614853565b60405180910390f35b6101ce6105d5565b6040516101db91906148b9565b60405180910390f35b6101fe60048036038101906101f991906149cd565b6105fb565b60405161020c929190614790565b60405180910390f35b61021d610db8565b60405161022b929190614790565b60405180910390f35b61023c610dc9565b6040516102499190614a62565b60405180910390f35b61025a610fb3565b604051610268929190614790565b60405180910390f35b610279610fc9565b6040516102869190614a9e565b60405180910390f35b6102a960048036038101906102a49190614ab9565b610fef565b005b6102c560048036038101906102c09190614d16565b611561565b6040516102d29190614df4565b60405180910390f35b6102e3611576565b6040516102f09190614e30565b60405180910390f35b610313600480360381019061030e91906149cd565b61159a565b604051610321929190614790565b60405180910390f35b610344600480360381019061033f9190614ab9565b611cc1565b6040516103519190614a62565b60405180910390f35b610374600480360381019061036f9190614e4b565b612237565b6040516103819190614df4565b60405180910390f35b6103a4600480360381019061039f9190614ee2565b61224c565b6040516103b2929190614790565b60405180910390f35b6103d560048036038101906103d09190614f22565b612cde565b6040516103e29190614a62565b60405180910390f35b6104056004803603810190610400919061474a565b612cfb565b6040516104129190614a62565b60405180910390f35b60007f4e2312e0000000000000000000000000000000000000000000000000000000007bffffffffffffffffffffffffffffffffffffffffffffffffffffffff1916827bffffffffffffffffffffffffffffffffffffffffffffffffffffffff1916148061048e575061048d82612d0d565b5b9050919050565b600080600860008462ffffff1681526020019081526020016000206000600281106104c3576104c2614f4f565b5b0154600860008562ffffff1681526020019081526020016000206001600281106104f0576104ef614f4f565b5b015491509150915091565b600160009054906101000a900473ffffffffffffffffffffffffffffffffffffffff1681565b600080600080600360000160069054906101000a900470ffffffffffffffffffffffffffffffffff1670ffffffffffffffffffffffffffffffffff169350600360010160009054906101000a900470ffffffffffffffffffffffffffffffffff1670ffffffffffffffffffffffffffffffffff169250600360000160009054906101000a900462ffffff1662ffffff169150600360000160039054906101000a900462ffffff1662ffffff16905090919293565b601760009054906101000a900473ffffffffffffffffffffffffffffffffffffffff1681565b60008060016000541461063a576040517f802d9bf100000000000000000000000000000000000000000000000000000000815260040160405180910390fd5b6002600081905550600087879050148061065a5750848490508787905014155b15610691576040517f06fed5ff00000000000000000000000000000000000000000000000000000000815260040160405180910390fd5b600060036040518060e00160405290816000820160009054906101000a900462ffffff1662ffffff1662ffffff1681526020016000820160039054906101000a900462ffffff1662ffffff1662ffffff1681526020016000820160069054906101000a900470ffffffffffffffffffffffffffffffffff1670ffffffffffffffffffffffffffffffffff1670ffffffffffffffffffffffffffffffffff1681526020016001820160009054906101000a900470ffffffffffffffffffffffffffffffffff1670ffffffffffffffffffffffffffffffffff1670ffffffffffffffffffffffffffffffffff168152602001600282015481526020016003820154815260200160048201548152505090506000806001601660008282546107b69190614fad565b9250508190555060006016549050601760009054906101000a900473ffffffffffffffffffffffffffffffffffffffff1673ffffffffffffffffffffffffffffffffffffffff166340c10f1988836040518363ffffffff1660e01b8152600401610821929190615012565b600060405180830381600087803b15801561083b57600080fd5b505af115801561084f573d6000803e3d6000fd5b505050506108bb846060015170ffffffffffffffffffffffffffffffffff168560800151600260009054906101000a900473ffffffffffffffffffffffffffffffffffffffff1673ffffffffffffffffffffffffffffffffffffffff16612d779092919063ffffffff16565b9250836020015162ffffff168b8b60018e8e90506108d9919061503b565b8181106108e9576108e8614f4f565b5b90506020020160208101906108fe919061474a565b62ffffff1611801561091a57506000846020015162ffffff1614155b15610992578a8a60018d8d9050610931919061503b565b81811061094157610940614f4f565b5b9050602002016020810190610956919061474a565b6040517fb42cd28700000000000000000000000000000000000000000000000000000000815260040161098991906150a0565b60405180910390fd5b60008060005b8d8d9050811015610c0f578d8d828181106109b6576109b5614f4f565b5b90506020020160208101906109cb919061474a565b92508b8b828181106109e0576109df614f4f565b5b90506020020135915060006109f484612e0e565b90506000600860008662ffffff168152602001908152602001600020600280602002604051908101604052809291908260028015610a47576020028201915b815481526020019060010190808311610a33575b5050505050905060008285610a5c91906150ea565b14610a6657600080fd5b610a6f85612e45565b600081600060028110610a8557610a84614f4f565b5b6020020151148015610aaf5750600081600160028110610aa857610aa7614f4f565b5b6020020151145b15610ace57610acd8562ffffff16600961308d90919063ffffffff16565b5b836dffffffffffffffffffffffffffff1681600160028110610af357610af2614f4f565b5b60200201818151610b049190614fad565b91508181525050836dffffffffffffffffffffffffffff16896060018181510191509070ffffffffffffffffffffffffffffffffff16908170ffffffffffffffffffffffffffffffffff16815250508387019650601260008662ffffff1662ffffff1681526020019081526020016000208690806001815401808255809150506001900390600052602060002001600090919091909150558184610ba8919061511b565b6010600088815260200190815260200160002060008762ffffff1662ffffff1681526020019081526020016000208190555080600860008762ffffff168152602001908152602001600020906002610c019291906144bc565b508260010192505050610998565b508c8c601160008681526020019081526020016000209190610c329291906144fc565b5084841115610c6d576040517feee8ff2700000000000000000000000000000000000000000000000000000000815260040160405180910390fd5b610c84600c8760096131539092919063ffffffff16565b87600001886020018262ffffff1662ffffff168152508262ffffff1662ffffff16815250505085600360008201518160000160006101000a81548162ffffff021916908362ffffff16021790555060208201518160000160036101000a81548162ffffff021916908362ffffff16021790555060408201518160000160066101000a81548170ffffffffffffffffffffffffffffffffff021916908370ffffffffffffffffffffffffffffffffff16021790555060608201518160010160006101000a81548170ffffffffffffffffffffffffffffffffff021916908370ffffffffffffffffffffffffffffffffff1602179055506080820151816002015560a0820151816003015560c0820151816004015590505083839750975050505050505060016000819055509550959350505050565b600080601454601554915091509091565b6000600160005414610e07576040517f802d9bf100000000000000000000000000000000000000000000000000000000815260040160405180910390fd5b600260008190555060007f000000000000000000000000000000000000000000000000000000000000000073ffffffffffffffffffffffffffffffffffffffff1663469048406040518163ffffffff1660e01b8152600401602060405180830381865afa158015610e7c573d6000803e3d6000fd5b505050506040513d601f19601f82011682018060405250810190610ea09190615161565b90508073ffffffffffffffffffffffffffffffffffffffff163373ffffffffffffffffffffffffffffffffffffffff1614610f145780336040517ff680f028000000000000000000000000000000000000000000000000000000008152600401610f0b92919061518e565b60405180910390fd5b600380015491506001821115610fa757600182610f31919061503b565b91508160036002016000828254610f48919061503b565b9250508190555060016003800181905550610fa68183600260009054906101000a900473ffffffffffffffffffffffffffffffffffffffff1673ffffffffffffffffffffffffffffffffffffffff166131f09092919063ffffffff16565b5b50600160008190555090565b6000806003600201549150600380015490509091565b600260009054906101000a900473ffffffffffffffffffffffffffffffffffffffff1681565b60016000541461102b576040517f802d9bf100000000000000000000000000000000000000000000000000000000815260040160405180910390fd5b6002600081905550600060036040518060e00160405290816000820160009054906101000a900462ffffff1662ffffff1662ffffff1681526020016000820160039054906101000a900462ffffff1662ffffff1662ffffff1681526020016000820160069054906101000a900470ffffffffffffffffffffffffffffffffff1670ffffffffffffffffffffffffffffffffff1670ffffffffffffffffffffffffffffffffff1681526020016001820160009054906101000a900470ffffffffffffffffffffffffffffffffff1670ffffffffffffffffffffffffffffffffff1670ffffffffffffffffffffffffffffffffff168152602001600282015481526020016003820154815260200160048201548152505090506000816020015190506000600860008362ffffff16815260200190815260200160002060028060200260405190810160405280929190826002801561119c576020028201915b815481526020019060010190808311611188575b5050505050905060006111ae83612e0e565b90506000806111dc6111cb846014546132e390919063ffffffff16565b60155461333390919063ffffffff16565b91509150600082846111ee9190614fad565b905081836111fc919061503b565b601360008862ffffff1662ffffff16815260200190815260200160002060008282546112289190614fad565b925050819055506112448383896133579092919063ffffffff16565b61127685600061125387613385565b611264670de0b6b3a7640000613385565b8b6133e390949392919063ffffffff16565b60008560006002811061128c5761128b614f4f565b5b602002015114156112b1576112b08662ffffff16600c6135f890919063ffffffff16565b5b611319876060015170ffffffffffffffffffffffffffffffffff168860800151600260009054906101000a900473ffffffffffffffffffffffffffffffffffffffff1673ffffffffffffffffffffffffffffffffffffffff16612d779092919063ffffffff16565b81111561135d57856040517fb42cd28700000000000000000000000000000000000000000000000000000000815260040161135491906150a0565b60405180910390fd5b611374600c8860096131539092919063ffffffff16565b88600001896020018262ffffff1662ffffff168152508262ffffff1662ffffff16815250505084600860008862ffffff1681526020019081526020016000209060026113c19291906144bc565b5086600360008201518160000160006101000a81548162ffffff021916908362ffffff16021790555060208201518160000160036101000a81548162ffffff021916908362ffffff16021790555060408201518160000160066101000a81548170ffffffffffffffffffffffffffffffffff021916908370ffffffffffffffffffffffffffffffffff16021790555060608201518160010160006101000a81548170ffffffffffffffffffffffffffffffffff021916908370ffffffffffffffffffffffffffffffffff1602179055506080820151816002015560a0820151816003015560c08201518160040155905050600160009054906101000a900473ffffffffffffffffffffffffffffffffffffffff1673ffffffffffffffffffffffffffffffffffffffff1663f242432a308a601854670de0b6b3a76400006040518563ffffffff1660e01b815260040161151d94939291906151ee565b600060405180830381600087803b15801561153757600080fd5b505af115801561154b573d6000803e3d6000fd5b5050505050505050505050600160008190555050565b600063bc197c8160e01b905095945050505050565b7f000000000000000000000000000000000000000000000000000000000000000081565b6000806001600054146115d9576040517f802d9bf100000000000000000000000000000000000000000000000000000000815260040160405180910390fd5b600260008190555060008787905014806115f95750848490508787905014155b15611630576040517f06fed5ff00000000000000000000000000000000000000000000000000000000815260040160405180910390fd5b600060036040518060e00160405290816000820160009054906101000a900462ffffff1662ffffff1662ffffff1681526020016000820160039054906101000a900462ffffff1662ffffff1662ffffff1681526020016000820160069054906101000a900470ffffffffffffffffffffffffffffffffff1670ffffffffffffffffffffffffffffffffff1670ffffffffffffffffffffffffffffffffff1681526020016001820160009054906101000a900470ffffffffffffffffffffffffffffffffff1670ffffffffffffffffffffffffffffffffff1670ffffffffffffffffffffffffffffffffff168152602001600282015481526020016003820154815260200160048201548152505090506001601660008282546117529190614fad565b9250508190555060006016549050601760009054906101000a900473ffffffffffffffffffffffffffffffffffffffff1673ffffffffffffffffffffffffffffffffffffffff166340c10f1986836040518363ffffffff1660e01b81526004016117bd929190615012565b600060405180830381600087803b1580156117d757600080fd5b505af11580156117eb573d6000803e3d6000fd5b50505050816000015162ffffff168989600081811061180d5761180c614f4f565b5b9050602002016020810190611822919061474a565b62ffffff161015611892578888600081811061184157611840614f4f565b5b9050602002016020810190611856919061474a565b6040517fb42cd28700000000000000000000000000000000000000000000000000000000815260040161188991906150a0565b60405180910390fd5b60008060005b8b8b9050811015611b51578b8b828181106118b6576118b5614f4f565b5b90506020020160208101906118cb919061474a565b92508989828181106118e0576118df614f4f565b5b9050602002013591506000600860008562ffffff16815260200190815260200160002060028060200260405190810160405280929190826002801561193a576020028201915b815481526020019060010190808311611926575b505050505090506000670de0b6b3a76400008461195791906150ea565b1461196157600080fd5b61196a84612e45565b6000816000600281106119805761197f614f4f565b5b60200201511480156119aa57506000816001600281106119a3576119a2614f4f565b5b6020020151145b156119c9576119c88462ffffff16600961308d90919063ffffffff16565b5b6000816000600281106119df576119de614f4f565b5b60200201511415611a0457611a038462ffffff16600c61308d90919063ffffffff16565b5b82670de0b6b3a7640000611a189190615246565b6dffffffffffffffffffffffffffff1681600060028110611a3c57611a3b614f4f565b5b60200201818151611a4d9190614fad565b9150818152505082670de0b6b3a7640000026dffffffffffffffffffffffffffff16866040018181510191509070ffffffffffffffffffffffffffffffffff16908170ffffffffffffffffffffffffffffffffff1681525050601260008562ffffff1662ffffff168152602001908152602001600020859080600181540180825580915050600190039060005260206000200160009091909190915055826010600087815260200190815260200160002060008662ffffff1662ffffff1681526020019081526020016000208190555080600860008662ffffff168152602001908152602001600020906002611b449291906144bc565b5081600101915050611898565b508a8a601160008681526020019081526020016000209190611b749291906144fc565b50611b8c600c8560096131539092919063ffffffff16565b85600001866020018262ffffff1662ffffff168152508262ffffff1662ffffff16815250505083600360008201518160000160006101000a81548162ffffff021916908362ffffff16021790555060208201518160000160036101000a81548162ffffff021916908362ffffff16021790555060408201518160000160066101000a81548170ffffffffffffffffffffffffffffffffff021916908370ffffffffffffffffffffffffffffffffff16021790555060608201518160010160006101000a81548170ffffffffffffffffffffffffffffffffff021916908370ffffffffffffffffffffffffffffffffff1602179055506080820151816002015560a0820151816003015560c082015181600401559050508a8a905083955095505050505060016000819055509550959350505050565b6000600160005414611cff576040517f802d9bf100000000000000000000000000000000000000000000000000000000815260040160405180910390fd5b6002600081905550600060036040518060e00160405290816000820160009054906101000a900462ffffff1662ffffff1662ffffff1681526020016000820160039054906101000a900462ffffff1662ffffff1662ffffff1681526020016000820160069054906101000a900470ffffffffffffffffffffffffffffffffff1670ffffffffffffffffffffffffffffffffff1670ffffffffffffffffffffffffffffffffff1681526020016001820160009054906101000a900470ffffffffffffffffffffffffffffffffff1670ffffffffffffffffffffffffffffffffff1670ffffffffffffffffffffffffffffffffff16815260200160028201548152602001600382015481526020016004820154815250509050600060086000836000015162ffffff168152602001908152602001600020600280602002604051908101604052809291908260028015611e6b576020028201915b815481526020019060010190808311611e57575b50505050509050600082600001519050600082600160028110611e9157611e90614f4f565b5b60200201511415611ed957806040517fb42cd287000000000000000000000000000000000000000000000000000000008152600401611ed091906150a0565b60405180910390fd5b600160009054906101000a900473ffffffffffffffffffffffffffffffffffffffff1673ffffffffffffffffffffffffffffffffffffffff1663f242432a8630601854670de0b6b3a76400006040518563ffffffff1660e01b8152600401611f4494939291906151ee565b600060405180830381600087803b158015611f5e57600080fd5b505af1158015611f72573d6000803e3d6000fd5b505050506000611f8182612e0e565b9050600080611faf611f9e8460145461377f90919063ffffffff16565b60155461333390919063ffffffff16565b915091508082611fbf919061503b565b601360008662ffffff1662ffffff1681526020019081526020016000206000828254611feb9190614fad565b9250508190555060008560006002811061200857612007614f4f565b5b6020020151141561202d5761202c8462ffffff16600c61308d90919063ffffffff16565b5b6120428282886133579092919063ffffffff16565b612074856001612059670de0b6b3a7640000613385565b61206287613385565b8a6133e390949392919063ffffffff16565b8183612080919061503b565b9650612099600c8760096131539092919063ffffffff16565b87600001886020018262ffffff1662ffffff168152508262ffffff1662ffffff16815250505084600860008662ffffff1681526020019081526020016000209060026120e69291906144bc565b5085600360008201518160000160006101000a81548162ffffff021916908362ffffff16021790555060208201518160000160036101000a81548162ffffff021916908362ffffff16021790555060408201518160000160066101000a81548170ffffffffffffffffffffffffffffffffff021916908370ffffffffffffffffffffffffffffffffff16021790555060608201518160010160006101000a81548170ffffffffffffffffffffffffffffffffff021916908370ffffffffffffffffffffffffffffffffff1602179055506080820151816002015560a0820151816003015560c082015181600401559050506122248888600260009054906101000a900473ffffffffffffffffffffffffffffffffffffffff1673ffffffffffffffffffffffffffffffffffffffff166131f09092919063ffffffff16565b5050505050506001600081905550919050565b600063f23a6e6160e01b905095945050505050565b60008060016000541461228b576040517f802d9bf100000000000000000000000000000000000000000000000000000000815260040160405180910390fd5b6002600081905550600060036040518060e00160405290816000820160009054906101000a900462ffffff1662ffffff1662ffffff1681526020016000820160039054906101000a900462ffffff1662ffffff1662ffffff1681526020016000820160069054906101000a900470ffffffffffffffffffffffffffffffffff1670ffffffffffffffffffffffffffffffffff1670ffffffffffffffffffffffffffffffffff1681526020016001820160009054906101000a900470ffffffffffffffffffffffffffffffffff1670ffffffffffffffffffffffffffffffffff1670ffffffffffffffffffffffffffffffffff1681526020016002820154815260200160038201548152602001600482015481525050905060006011600087815260200190815260200160002080548060200260200160405190810160405280929190818152602001828054801561242b57602002820191906000526020600020906000905b82829054906101000a900462ffffff1662ffffff16815260200190600301906020826002010492830192600103820291508084116123f05790505b5050505050905060116000878152602001908152602001600020600061245191906145ae565b60008060005b8351811015612a055783818151811061247357612472614f4f565b5b60200260200101519250601060008a815260200190815260200160002060008462ffffff1662ffffff1681526020019081526020016000205491506000600860008562ffffff1681526020019081526020016000206002806020026040519081016040528092919082600280156124ff576020028201915b8154815260200190600101908083116124eb575b5050505050905061250f84612e45565b828160006002811061252457612523614f4f565b5b60200201511061264e57828801975061253c83613385565b6dffffffffffffffffffffffffffff16816000600281106125605761255f614f4f565b5b602002018181510391508181525050612578836137c7565b866040018181510391509070ffffffffffffffffffffffffffffffffff16908170ffffffffffffffffffffffffffffffffff16815250506000816000600281106125c5576125c4614f4f565b5b602002015114156125ea576125e98462ffffff16600c6135f890919063ffffffff16565b5b600081600160028110612600576125ff614f4f565b5b602002015114801561262a575060008160006002811061262357612622614f4f565b5b6020020151145b15612649576126488462ffffff1660096135f890919063ffffffff16565b5b6128f0565b60008160006002811061266457612663614f4f565b5b6020020151141561274457600061267a85612e0e565b90508381028801975061268e848202613385565b6dffffffffffffffffffffffffffff16826001600281106126b2576126b1614f4f565b5b6020020181815103915081815250506126cc8482026137c7565b876060018181510391509070ffffffffffffffffffffffffffffffffff16908170ffffffffffffffffffffffffffffffffff168152505060008260016002811061271957612718614f4f565b5b6020020151141561273e5761273d8562ffffff1660096135f890919063ffffffff16565b5b506128ef565b8060006002811061275857612757614f4f565b5b6020020151880197508060006002811061277557612774614f4f565b5b60200201518303925060006dffffffffffffffffffffffffffff16816000600281106127a4576127a3614f4f565b5b6020020181815250506127ce816000600281106127c4576127c3614f4f565b5b60200201516137c7565b866040018181510391509070ffffffffffffffffffffffffffffffffff16908170ffffffffffffffffffffffffffffffffff168152505061281e8462ffffff16600c6135f890919063ffffffff16565b600061282985612e0e565b90508381028801975061283d848202613385565b6dffffffffffffffffffffffffffff168260016002811061286157612860614f4f565b5b60200201818151039150818152505061287b8482026137c7565b876060018181510391509070ffffffffffffffffffffffffffffffffff16908170ffffffffffffffffffffffffffffffffff16815250506000826001600281106128c8576128c7614f4f565b5b602002015114156128ed576128ec8562ffffff1660096135f890919063ffffffff16565b5b505b5b61296e8a601260008762ffffff1662ffffff16815260200190815260200160002080548060200260200160405190810160405280929190818152602001828054801561295b57602002820191906000526020600020905b815481526020019060010190808311612947575b505050505061382890919063ffffffff16565b601260008662ffffff1662ffffff168152602001908152602001600020908051906020019061299e9291906145d6565b50601060008b815260200190815260200160002060008562ffffff1662ffffff1681526020019081526020016000206000905580600860008662ffffff1681526020019081526020016000209060026129f89291906144bc565b5050806001019050612457565b50601160008981526020019081526020016000206000612a2591906145ae565b612a3c600c8560096131539092919063ffffffff16565b85600001866020018262ffffff1662ffffff168152508262ffffff1662ffffff1681525050506000600f60008a815260200190815260200160002054905060008114612b0057600f60008a8152602001908152602001600020600090558085608001818151612aab919061503b565b91508181525050612aff8882600260009054906101000a900473ffffffffffffffffffffffffffffffffffffffff1673ffffffffffffffffffffffffffffffffffffffff166131f09092919063ffffffff16565b5b84600360008201518160000160006101000a81548162ffffff021916908362ffffff16021790555060208201518160000160036101000a81548162ffffff021916908362ffffff16021790555060408201518160000160066101000a81548170ffffffffffffffffffffffffffffffffff021916908370ffffffffffffffffffffffffffffffffff16021790555060608201518160010160006101000a81548170ffffffffffffffffffffffffffffffffff021916908370ffffffffffffffffffffffffffffffffff1602179055506080820151816002015560a0820151816003015560c08201518160040155905050612c3d8887600260009054906101000a900473ffffffffffffffffffffffffffffffffffffffff1673ffffffffffffffffffffffffffffffffffffffff166131f09092919063ffffffff16565b601760009054906101000a900473ffffffffffffffffffffffffffffffffffffffff1673ffffffffffffffffffffffffffffffffffffffff166342966c688a6040518263ffffffff1660e01b8152600401612c989190614a62565b600060405180830381600087803b158015612cb257600080fd5b505af1158015612cc6573d6000803e3d6000fd5b50505050505050505060016000819055509250929050565b6000600f6000838152602001908152602001600020549050919050565b6000612d0682612e0e565b9050919050565b60007f01ffc9a7000000000000000000000000000000000000000000000000000000007bffffffffffffffffffffffffffffffffffffffffffffffffffffffff1916827bffffffffffffffffffffffffffffffffffffffffffffffffffffffff1916149050919050565b6000808284019050808573ffffffffffffffffffffffffffffffffffffffff166370a08231306040518263ffffffff1660e01b8152600401612db991906152a0565b602060405180830381865afa158015612dd6573d6000803e3d6000fd5b505050506040513d601f19601f82011682018060405250810190612dfa91906152d0565b612e04919061503b565b9150509392505050565b6000612e1e8262ffffff16613900565b9050612e3e670de0b6b3a764000060808361396d9092919063ffffffff16565b9050919050565b600160005414612e81576040517f802d9bf100000000000000000000000000000000000000000000000000000000815260040160405180910390fd5b60026000819055506000601260008362ffffff1662ffffff168152602001908152602001600020805480602002602001604051908101604052809291908181526020018280548015612ef257602002820191906000526020600020905b815481526020019060010190808311612ede575b505050505090506000601360008462ffffff1662ffffff168152602001908152602001600020549050601360008462ffffff1662ffffff168152602001908152602001600020600090556000612f4784612e0e565b600860008662ffffff168152602001908152602001600020600160028110612f7257612f71614f4f565b5b0154612f7e919061511b565b600860008662ffffff168152602001908152602001600020600060028110612fa957612fa8614f4f565b5b0154612fb59190614fad565b905060008183612fc5919061511b565b905060005b845181101561307d578160106000878481518110612feb57612fea614f4f565b5b6020026020010151815260200190815260200160002060008862ffffff1662ffffff168152602001908152602001600020546130279190615246565b600f600087848151811061303e5761303d614f4f565b5b6020026020010151815260200190815260200160002060008282546130639190614fad565b925050819055508080613075906152fd565b915050612fca565b5050505050600160008190555050565b6000600882901c90506000601083901c905060ff83166001901b846002600381106130bb576130ba614f4f565b5b0160008481526020019081526020016000206000828254179250508190555060ff82166001901b846001600381106130f6576130f5614f4f565b5b01600083815260200190815260200160002060008282541792505081905550806001901b8460006003811061312e5761312d614f4f565b5b0160008081526020019081526020016000206000828254179250508190555050505050565b6000806000836040015170ffffffffffffffffffffffffffffffffff16146131b65761318184600080613a3d565b90506000836060015170ffffffffffffffffffffffffffffffffff16146131b1576131ae85826001613a3d565b91505b6131e8565b6000836060015170ffffffffffffffffffffffffffffffffff16146131e7576131e48562ffffff6001613a3d565b91505b5b935093915050565b600081146132de57600063a9059cbb60e01b8383604051602401613215929190615012565b604051602081830303815290604052907bffffffffffffffffffffffffffffffffffffffffffffffffffffffff19166020820180517bffffffffffffffffffffffffffffffffffffffffffffffffffffffff8381831617835250505050905060006132808583613d52565b9050600081511180156132a45750808060200190518101906132a29190615372565b155b156132db576040517f32e2717a00000000000000000000000000000000000000000000000000000000815260040160405180910390fd5b50505b505050565b60008083670de0b6b3a76400006132fa919061503b565b905080600182868661330c9190615246565b6133169190614fad565b613320919061503b565b61332a919061511b565b91505092915050565b6000808291506127108484028161334d5761334c6150bb565b5b0490509250929050565b81836080018181516133699190614fad565b91508181525050808360a0018181510191508181525050505050565b600081829150816dffffffffffffffffffffffffffff16146133de57816040517f1ce5dcf70000000000000000000000000000000000000000000000000000000081526004016133d59190614a62565b60405180910390fd5b919050565b82156134ef57816dffffffffffffffffffffffffffff168460006002811061340e5761340d614f4f565b5b6020020181815161341f9190614fad565b91508181525050806dffffffffffffffffffffffffffff168460016002811061344b5761344a614f4f565b5b602002018181510391508181525050816dffffffffffffffffffffffffffff16856040018181510191509070ffffffffffffffffffffffffffffffffff16908170ffffffffffffffffffffffffffffffffff1681525050806dffffffffffffffffffffffffffff16856060018181510391509070ffffffffffffffffffffffffffffffffff16908170ffffffffffffffffffffffffffffffffff16815250506135f1565b816dffffffffffffffffffffffffffff168460016002811061351457613513614f4f565b5b602002018181516135259190614fad565b91508181525050806dffffffffffffffffffffffffffff168460006002811061355157613550614f4f565b5b602002018181510391508181525050806dffffffffffffffffffffffffffff16856040018181510391509070ffffffffffffffffffffffffffffffffff16908170ffffffffffffffffffffffffffffffffff1681525050816dffffffffffffffffffffffffffff16856060018181510191509070ffffffffffffffffffffffffffffffffff16908170ffffffffffffffffffffffffffffffffff16815250505b5050505050565b6000600882901c9050600060ff83166001901b7fffffffffffffffffffffffffffffffffffffffffffffffffffffffffffffffff188460026003811061364157613640614f4f565b5b01600084815260200190815260200160002054169050808460026003811061366c5761366b614f4f565b5b016000848152602001908152602001600020819055506000811415613779576000601084901c905060ff83166001901b7fffffffffffffffffffffffffffffffffffffffffffffffffffffffffffffffff18856001600381106136d2576136d1614f4f565b5b0160008381526020019081526020016000205416915081856001600381106136fd576136fc614f4f565b5b01600083815260200190815260200160002081905550600082141561377757806001901b7fffffffffffffffffffffffffffffffffffffffffffffffffffffffffffffffff188560006003811061375757613756614f4f565b5b016000808152602001908152602001600020600082825416925050819055505b505b50505050565b6000670de0b6b3a76400006001670de0b6b3a764000085856137a19190615246565b6137ab9190614fad565b6137b5919061503b565b6137bf919061511b565b905092915050565b6000818291508170ffffffffffffffffffffffffffffffffff161461382357816040517fbdba3c9f00000000000000000000000000000000000000000000000000000000815260040161381a9190614a62565b60405180910390fd5b919050565b606060006001845161383a919061503b565b67ffffffffffffffff81111561385357613852614af7565b5b6040519080825280602002602001820160405280156138815781602001602082028036833780820191505090505b5090506000805b85518110156138f4578481146138e1578581815181106138ab576138aa614f4f565b5b60200260200101518383815181106138c6576138c5614f4f565b5b60200260200101818152505081806138dd906152fd565b9250505b80806138ec906152fd565b915050613888565b50819250505092915050565b600062ffffff8016821115613941576040517f58f62eac00000000000000000000000000000000000000000000000000000000815260040160405180910390fd5b6000628000008303905061396581613957613e6b565b613e9190919063ffffffff16565b915050919050565b600060ff8211156139b557816040517fb72ecf500000000000000000000000000000000000000000000000000000000081526004016139ac9190614a62565b60405180910390fd5b6000806139c28686614199565b91509150600082146139d5578382901c92505b60008114613a3457836001901b8110613a275780846040517f3d90990f000000000000000000000000000000000000000000000000000000008152600401613a1e929190614790565b60405180910390fd5b836101000381901b830192505b50509392505050565b6000806000613a4b856141b8565b8062ffffff1690508092508196505050838015613a69575060008114155b80613a7f575083158015613a7e575060ff8114155b5b15613b045785600260038110613a9857613a97614f4f565b5b0160008662ffffff168152602001908152602001600020549150613ac78185846141d29092919063ffffffff16565b90507fffffffffffffffffffffffffffffffffffffffffffffffffffffffffffffffff8114613b0357613afa8582614214565b92505050613d4b565b5b613b0d856141b8565b8062ffffff1690508092508196505050838015613b2b575060008114155b80613b41575083158015613b40575060ff8114155b5b15613c155785600160038110613b5a57613b59614f4f565b5b0160008662ffffff168152602001908152602001600020549150613b898185846141d29092919063ffffffff16565b90507fffffffffffffffffffffffffffffffffffffffffffffffffffffffffffffffff8114613c1457613bbc8582614214565b945085600260038110613bd257613bd1614f4f565b5b0160008662ffffff168152602001908152602001600020549150613c0b85613c03868561422a90919063ffffffff16565b60ff16614214565b92505050613d4b565b5b85600060038110613c2957613c28614f4f565b5b016000808152602001908152602001600020549150613c538585846141d29092919063ffffffff16565b90507fffffffffffffffffffffffffffffffffffffffffffffffffffffffffffffffff811415613caf576040517f10d6486100000000000000000000000000000000000000000000000000000000815260040160405180910390fd5b85600160038110613cc357613cc2614f4f565b5b016000828152602001908152602001600020549150613cf781613cef868561422a90919063ffffffff16565b60ff16614214565b945085600260038110613d0d57613d0c614f4f565b5b0160008662ffffff168152602001908152602001600020549150613d4685613d3e868561422a90919063ffffffff16565b60ff16614214565b925050505b9392505050565b60606000808473ffffffffffffffffffffffffffffffffffffffff1684604051613d7c9190615419565b6000604051808303816000865af19150503d8060008114613db9576040519150601f19603f3d011682016040523d82523d6000602084013e613dbe565b606091505b50915091508115613e1c5760008151148015613de05750613dde85614251565b155b15613e17576040517f5d97df8900000000000000000000000000000000000000000000000000000000815260040160405180910390fd5b613e60565b600081511415613e58576040517f2407429100000000000000000000000000000000000000000000000000000000815260040160405180910390fd5b805181602001fd5b809250505092915050565b600061271060806001901b81613e8457613e836150bb565b5b0460806001901b01905090565b600080600080841415613ead5760806001901b92505050614193565b8390506000811215613ec457806000039050811591505b6210000081101561410e5760806001901b9250846fffffffffffffffffffffffffffffffff861115613efc5780600019049050821592505b6001821615613f0e5780840260801c93505b80810260801c90506002821615613f285780840260801c93505b80810260801c90506004821615613f425780840260801c93505b80810260801c90506008821615613f5c5780840260801c93505b80810260801c90506010821615613f765780840260801c93505b80810260801c90506020821615613f905780840260801c93505b80810260801c90506040821615613faa5780840260801c93505b80810260801c90506080821615613fc45780840260801c93505b80810260801c9050610100821615613fdf5780840260801c93505b80810260801c9050610200821615613ffa5780840260801c93505b80810260801c90506104008216156140155780840260801c93505b80810260801c90506108008216156140305780840260801c93505b80810260801c905061100082161561404b5780840260801c93505b80810260801c90506120008216156140665780840260801c93505b80810260801c90506140008216156140815780840260801c93505b80810260801c905061800082161561409c5780840260801c93505b80810260801c9050620100008216156140b85780840260801c93505b80810260801c9050620200008216156140d45780840260801c93505b80810260801c9050620400008216156140f05780840260801c93505b80810260801c90506208000082161561410c5780840260801c93505b505b60008314156141565784846040517f74e3eb0800000000000000000000000000000000000000000000000000000000815260040161414d929190615449565b60405180910390fd5b81614161578261418e565b827fffffffffffffffffffffffffffffffffffffffffffffffffffffffffffffffff61418d919061511b565b5b925050505b92915050565b6000806000198385098385029250828110838203039150509250929050565b60008060088362ffffff16901c60ff841691509150915091565b6000816141f4576141ef846001856141ea919061547f565b614274565b61420b565b61420a8460018561420591906154b6565b6142c4565b5b90509392505050565b60008160088462ffffff16901b01905092915050565b60008161423f5761423a8361431c565b614249565b614248836143ef565b5b905092915050565b6000808273ffffffffffffffffffffffffffffffffffffffff163b119050919050565b60008160ff1683901c92506000831461429a57816142918461431c565b0160ff166142bc565b7fffffffffffffffffffffffffffffffffffffffffffffffffffffffffffffffff5b905092915050565b6000808260ff0360ff1690508084901b9350600084146142f157806142e8856143ef565b60ff1603614313565b7fffffffffffffffffffffffffffffffffffffffffffffffffffffffffffffffff5b91505092915050565b600080608083901b1461433557608082901b9150608090505b6000604083901b1461434f57604082901b91506040810190505b6000602083901b1461436957602082901b91506020810190505b6000601083901b1461438357601082901b91506010810190505b6000600883901b1461439d57600882901b91506008810190505b6000600483901b146143b757600482901b91506004810190505b6000600283901b146143d157600282901b91506002810190505b6000600183901b146143e4576001810190505b8060ff039050919050565b6000700100000000000000000000000000000000821061441557608082901c9150608090505b68010000000000000000821061443357604082901c91506040810190505b640100000000821061444d57602082901c91506020810190505b62010000821061446557601082901c91506010810190505b610100821061447c57600882901c91506008810190505b6010821061449257600482901c91506004810190505b600482106144a857600282901c91506002810190505b600282106144b7576001810190505b919050565b82600281019282156144eb579160200282015b828111156144ea5782518255916020019190600101906144cf565b5b5090506144f89190614623565b5090565b82805482825590600052602060002090600901600a9004810192821561459d5791602002820160005b8382111561456c57833562ffffff1683826101000a81548162ffffff021916908362ffffff1602179055509260200192600301602081600201049283019260010302614525565b801561459b5782816101000a81549062ffffff021916905560030160208160020104928301926001030261456c565b505b5090506145aa9190614623565b5090565b50805460008255600901600a9004906000526020600020908101906145d39190614623565b50565b828054828255906000526020600020908101928215614612579160200282015b828111156146115782518255916020019190600101906145f6565b5b50905061461f9190614623565b5090565b5b8082111561463c576000816000905550600101614624565b5090565b6000604051905090565b600080fd5b600080fd5b60007fffffffff0000000000000000000000000000000000000000000000000000000082169050919050565b61468981614654565b811461469457600080fd5b50565b6000813590506146a681614680565b92915050565b6000602082840312156146c2576146c161464a565b5b60006146d084828501614697565b91505092915050565b60008115159050919050565b6146ee816146d9565b82525050565b600060208201905061470960008301846146e5565b92915050565b600062ffffff82169050919050565b6147278161470f565b811461473257600080fd5b50565b6000813590506147448161471e565b92915050565b6000602082840312156147605761475f61464a565b5b600061476e84828501614735565b91505092915050565b6000819050919050565b61478a81614777565b82525050565b60006040820190506147a56000830185614781565b6147b26020830184614781565b9392505050565b600073ffffffffffffffffffffffffffffffffffffffff82169050919050565b6000819050919050565b60006147fe6147f96147f4846147b9565b6147d9565b6147b9565b9050919050565b6000614810826147e3565b9050919050565b600061482282614805565b9050919050565b61483281614817565b82525050565b600060208201905061484d6000830184614829565b92915050565b60006080820190506148686000830187614781565b6148756020830186614781565b6148826040830185614781565b61488f6060830184614781565b95945050505050565b60006148a382614805565b9050919050565b6148b381614898565b82525050565b60006020820190506148ce60008301846148aa565b92915050565b600080fd5b600080fd5b600080fd5b60008083601f8401126148f9576148f86148d4565b5b8235905067ffffffffffffffff811115614916576149156148d9565b5b602083019150836020820283011115614932576149316148de565b5b9250929050565b60008083601f84011261494f5761494e6148d4565b5b8235905067ffffffffffffffff81111561496c5761496b6148d9565b5b602083019150836020820283011115614988576149876148de565b5b9250929050565b600061499a826147b9565b9050919050565b6149aa8161498f565b81146149b557600080fd5b50565b6000813590506149c7816149a1565b92915050565b6000806000806000606086880312156149e9576149e861464a565b5b600086013567ffffffffffffffff811115614a0757614a0661464f565b5b614a13888289016148e3565b9550955050602086013567ffffffffffffffff811115614a3657614a3561464f565b5b614a4288828901614939565b93509350506040614a55888289016149b8565b9150509295509295909350565b6000602082019050614a776000830184614781565b92915050565b6000614a8882614805565b9050919050565b614a9881614a7d565b82525050565b6000602082019050614ab36000830184614a8f565b92915050565b600060208284031215614acf57614ace61464a565b5b6000614add848285016149b8565b91505092915050565b6000601f19601f8301169050919050565b7f4e487b7100000000000000000000000000000000000000000000000000000000600052604160045260246000fd5b614b2f82614ae6565b810181811067ffffffffffffffff82111715614b4e57614b4d614af7565b5b80604052505050565b6000614b61614640565b9050614b6d8282614b26565b919050565b600067ffffffffffffffff821115614b8d57614b8c614af7565b5b602082029050602081019050919050565b614ba781614777565b8114614bb257600080fd5b50565b600081359050614bc481614b9e565b92915050565b6000614bdd614bd884614b72565b614b57565b90508083825260208201905060208402830185811115614c0057614bff6148de565b5b835b81811015614c295780614c158882614bb5565b845260208401935050602081019050614c02565b5050509392505050565b600082601f830112614c4857614c476148d4565b5b8135614c58848260208601614bca565b91505092915050565b600080fd5b600067ffffffffffffffff821115614c8157614c80614af7565b5b614c8a82614ae6565b9050602081019050919050565b82818337600083830152505050565b6000614cb9614cb484614c66565b614b57565b905082815260208101848484011115614cd557614cd4614c61565b5b614ce0848285614c97565b509392505050565b600082601f830112614cfd57614cfc6148d4565b5b8135614d0d848260208601614ca6565b91505092915050565b600080600080600060a08688031215614d3257614d3161464a565b5b6000614d40888289016149b8565b9550506020614d51888289016149b8565b945050604086013567ffffffffffffffff811115614d7257614d7161464f565b5b614d7e88828901614c33565b935050606086013567ffffffffffffffff811115614d9f57614d9e61464f565b5b614dab88828901614c33565b925050608086013567ffffffffffffffff811115614dcc57614dcb61464f565b5b614dd888828901614ce8565b9150509295509295909350565b614dee81614654565b82525050565b6000602082019050614e096000830184614de5565b92915050565b6000614e1a82614805565b9050919050565b614e2a81614e0f565b82525050565b6000602082019050614e456000830184614e21565b92915050565b600080600080600060a08688031215614e6757614e6661464a565b5b6000614e75888289016149b8565b9550506020614e86888289016149b8565b9450506040614e9788828901614bb5565b9350506060614ea888828901614bb5565b925050608086013567ffffffffffffffff811115614ec957614ec861464f565b5b614ed588828901614ce8565b9150509295509295909350565b60008060408385031215614ef957614ef861464a565b5b6000614f0785828601614bb5565b9250506020614f18858286016149b8565b9150509250929050565b600060208284031215614f3857614f3761464a565b5b6000614f4684828501614bb5565b91505092915050565b7f4e487b7100000000000000000000000000000000000000000000000000000000600052603260045260246000fd5b7f4e487b7100000000000000000000000000000000000000000000000000000000600052601160045260246000fd5b6000614fb882614777565b9150614fc383614777565b9250827fffffffffffffffffffffffffffffffffffffffffffffffffffffffffffffffff03821115614ff857614ff7614f7e565b5b828201905092915050565b61500c8161498f565b82525050565b60006040820190506150276000830185615003565b6150346020830184614781565b9392505050565b600061504682614777565b915061505183614777565b92508282101561506457615063614f7e565b5b828203905092915050565b600061508a6150856150808461470f565b6147d9565b614777565b9050919050565b61509a8161506f565b82525050565b60006020820190506150b56000830184615091565b92915050565b7f4e487b7100000000000000000000000000000000000000000000000000000000600052601260045260246000fd5b60006150f582614777565b915061510083614777565b9250826151105761510f6150bb565b5b828206905092915050565b600061512682614777565b915061513183614777565b925082615141576151406150bb565b5b828204905092915050565b60008151905061515b816149a1565b92915050565b6000602082840312156151775761517661464a565b5b60006151858482850161514c565b91505092915050565b60006040820190506151a36000830185615003565b6151b06020830184615003565b9392505050565b600082825260208201905092915050565b50565b60006151d86000836151b7565b91506151e3826151c8565b600082019050919050565b600060a0820190506152036000830187615003565b6152106020830186615003565b61521d6040830185614781565b61522a6060830184614781565b818103608083015261523b816151cb565b905095945050505050565b600061525182614777565b915061525c83614777565b9250817fffffffffffffffffffffffffffffffffffffffffffffffffffffffffffffffff048311821515161561529557615294614f7e565b5b828202905092915050565b60006020820190506152b56000830184615003565b92915050565b6000815190506152ca81614b9e565b92915050565b6000602082840312156152e6576152e561464a565b5b60006152f4848285016152bb565b91505092915050565b600061530882614777565b91507fffffffffffffffffffffffffffffffffffffffffffffffffffffffffffffffff82141561533b5761533a614f7e565b5b600182019050919050565b61534f816146d9565b811461535a57600080fd5b50565b60008151905061536c81615346565b92915050565b6000602082840312156153885761538761464a565b5b60006153968482850161535d565b91505092915050565b600081519050919050565b600081905092915050565b60005b838110156153d35780820151818401526020810190506153b8565b838111156153e2576000848401525b50505050565b60006153f38261539f565b6153fd81856153aa565b935061540d8185602086016153b5565b80840191505092915050565b600061542582846153e8565b915081905092915050565b6000819050919050565b61544381615430565b82525050565b600060408201905061545e6000830185614781565b61546b602083018461543a565b9392505050565b600060ff82169050919050565b600061548a82615472565b915061549583615472565b92508260ff038211156154ab576154aa614f7e565b5b828201905092915050565b60006154c182615472565b91506154cc83615472565b9250828210156154df576154de614f7e565b5b82820390509291505056fea2646970667358221220c33fbdb60711942453846cc3ee945ccf5fd95a26c0c77ce88c2e7d9e1921038164736f6c634300080a0033",
			"opcodes": "PUSH1 0xA0 PUSH1 0x40 MSTORE CALLVALUE DUP1 ISZERO PUSH3 0x11 JUMPI PUSH1 0x0 DUP1 REVERT JUMPDEST POP PUSH1 0x40 MLOAD PUSH3 0x597F CODESIZE SUB DUP1 PUSH3 0x597F DUP4 CODECOPY DUP2 DUP2 ADD PUSH1 0x40 MSTORE DUP2 ADD SWAP1 PUSH3 0x37 SWAP2 SWAP1 PUSH3 0x339 JUMP JUMPDEST PUSH1 0x0 PUSH20 0xFFFFFFFFFFFFFFFFFFFFFFFFFFFFFFFFFFFFFFFF AND DUP7 PUSH20 0xFFFFFFFFFFFFFFFFFFFFFFFFFFFFFFFFFFFFFFFF AND EQ ISZERO PUSH3 0x9F JUMPI PUSH1 0x40 MLOAD PUSH32 0x17BE04B700000000000000000000000000000000000000000000000000000000 DUP2 MSTORE PUSH1 0x4 ADD PUSH1 0x40 MLOAD DUP1 SWAP2 SUB SWAP1 REVERT JUMPDEST DUP6 PUSH20 0xFFFFFFFFFFFFFFFFFFFFFFFFFFFFFFFFFFFFFFFF AND PUSH1 0x80 DUP2 PUSH20 0xFFFFFFFFFFFFFFFFFFFFFFFFFFFFFFFFFFFFFFFF AND DUP2 MSTORE POP POP DUP5 PUSH1 0x1 PUSH1 0x0 PUSH2 0x100 EXP DUP2 SLOAD DUP2 PUSH20 0xFFFFFFFFFFFFFFFFFFFFFFFFFFFFFFFFFFFFFFFF MUL NOT AND SWAP1 DUP4 PUSH20 0xFFFFFFFFFFFFFFFFFFFFFFFFFFFFFFFFFFFFFFFF AND MUL OR SWAP1 SSTORE POP DUP4 PUSH1 0x2 PUSH1 0x0 PUSH2 0x100 EXP DUP2 SLOAD DUP2 PUSH20 0xFFFFFFFFFFFFFFFFFFFFFFFFFFFFFFFFFFFFFFFF MUL NOT AND SWAP1 DUP4 PUSH20 0xFFFFFFFFFFFFFFFFFFFFFFFFFFFFFFFFFFFFFFFF AND MUL OR SWAP1 SSTORE POP DUP3 PUSH1 0x17 PUSH1 0x0 PUSH2 0x100 EXP DUP2 SLOAD DUP2 PUSH20 0xFFFFFFFFFFFFFFFFFFFFFFFFFFFFFFFFFFFFFFFF MUL NOT AND SWAP1 DUP4 PUSH20 0xFFFFFFFFFFFFFFFFFFFFFFFFFFFFFFFFFFFFFFFF AND MUL OR SWAP1 SSTORE POP DUP2 PUSH1 0x18 DUP2 SWAP1 SSTORE POP PUSH3 0x1AD PUSH3 0x1EF PUSH1 0x20 SHL PUSH1 0x20 SHR JUMP JUMPDEST DUP1 PUSH16 0xFFFFFFFFFFFFFFFFFFFFFFFFFFFFFFFF AND PUSH1 0x14 DUP2 SWAP1 SSTORE POP PUSH1 0xA PUSH8 0xDE0B6B3A7640000 PUSH3 0x1DD SWAP2 SWAP1 PUSH3 0x404 JUMP JUMPDEST PUSH1 0x15 DUP2 SWAP1 SSTORE POP POP POP POP POP POP POP PUSH3 0x43C JUMP JUMPDEST PUSH3 0x1FF PUSH3 0x201 PUSH1 0x20 SHL PUSH1 0x20 SHR JUMP JUMPDEST JUMP JUMPDEST PUSH1 0x0 DUP1 SLOAD EQ PUSH3 0x23D JUMPI PUSH1 0x40 MLOAD PUSH32 0xD80075C100000000000000000000000000000000000000000000000000000000 DUP2 MSTORE PUSH1 0x4 ADD PUSH1 0x40 MLOAD DUP1 SWAP2 SUB SWAP1 REVERT JUMPDEST PUSH1 0x1 PUSH1 0x0 DUP2 SWAP1 SSTORE POP JUMP JUMPDEST PUSH1 0x0 DUP1 REVERT JUMPDEST PUSH1 0x0 PUSH20 0xFFFFFFFFFFFFFFFFFFFFFFFFFFFFFFFFFFFFFFFF DUP3 AND SWAP1 POP SWAP2 SWAP1 POP JUMP JUMPDEST PUSH1 0x0 PUSH3 0x279 DUP3 PUSH3 0x24C JUMP JUMPDEST SWAP1 POP SWAP2 SWAP1 POP JUMP JUMPDEST PUSH3 0x28B DUP2 PUSH3 0x26C JUMP JUMPDEST DUP2 EQ PUSH3 0x297 JUMPI PUSH1 0x0 DUP1 REVERT JUMPDEST POP JUMP JUMPDEST PUSH1 0x0 DUP2 MLOAD SWAP1 POP PUSH3 0x2AB DUP2 PUSH3 0x280 JUMP JUMPDEST SWAP3 SWAP2 POP POP JUMP JUMPDEST PUSH1 0x0 DUP2 SWAP1 POP SWAP2 SWAP1 POP JUMP JUMPDEST PUSH3 0x2C6 DUP2 PUSH3 0x2B1 JUMP JUMPDEST DUP2 EQ PUSH3 0x2D2 JUMPI PUSH1 0x0 DUP1 REVERT JUMPDEST POP JUMP JUMPDEST PUSH1 0x0 DUP2 MLOAD SWAP1 POP PUSH3 0x2E6 DUP2 PUSH3 0x2BB JUMP JUMPDEST SWAP3 SWAP2 POP POP JUMP JUMPDEST PUSH1 0x0 PUSH16 0xFFFFFFFFFFFFFFFFFFFFFFFFFFFFFFFF DUP3 AND SWAP1 POP SWAP2 SWAP1 POP JUMP JUMPDEST PUSH3 0x313 DUP2 PUSH3 0x2EC JUMP JUMPDEST DUP2 EQ PUSH3 0x31F JUMPI PUSH1 0x0 DUP1 REVERT JUMPDEST POP JUMP JUMPDEST PUSH1 0x0 DUP2 MLOAD SWAP1 POP PUSH3 0x333 DUP2 PUSH3 0x308 JUMP JUMPDEST SWAP3 SWAP2 POP POP JUMP JUMPDEST PUSH1 0x0 DUP1 PUSH1 0x0 DUP1 PUSH1 0x0 DUP1 PUSH1 0xC0 DUP8 DUP10 SUB SLT ISZERO PUSH3 0x359 JUMPI PUSH3 0x358 PUSH3 0x247 JUMP JUMPDEST JUMPDEST PUSH1 0x0 PUSH3 0x369 DUP10 DUP3 DUP11 ADD PUSH3 0x29A JUMP JUMPDEST SWAP7 POP POP PUSH1 0x20 PUSH3 0x37C DUP10 DUP3 DUP11 ADD PUSH3 0x29A JUMP JUMPDEST SWAP6 POP POP PUSH1 0x40 PUSH3 0x38F DUP10 DUP3 DUP11 ADD PUSH3 0x29A JUMP JUMPDEST SWAP5 POP POP PUSH1 0x60 PUSH3 0x3A2 DUP10 DUP3 DUP11 ADD PUSH3 0x29A JUMP JUMPDEST SWAP4 POP POP PUSH1 0x80 PUSH3 0x3B5 DUP10 DUP3 DUP11 ADD PUSH3 0x2D5 JUMP JUMPDEST SWAP3 POP POP PUSH1 0xA0 PUSH3 0x3C8 DUP10 DUP3 DUP11 ADD PUSH3 0x322 JUMP JUMPDEST SWAP2 POP POP SWAP3 SWAP6 POP SWAP3 SWAP6 POP SWAP3 SWAP6 JUMP JUMPDEST PUSH32 0x4E487B7100000000000000000000000000000000000000000000000000000000 PUSH1 0x0 MSTORE PUSH1 0x12 PUSH1 0x4 MSTORE PUSH1 0x24 PUSH1 0x0 REVERT JUMPDEST PUSH1 0x0 PUSH3 0x411 DUP3 PUSH3 0x2B1 JUMP JUMPDEST SWAP2 POP PUSH3 0x41E DUP4 PUSH3 0x2B1 JUMP JUMPDEST SWAP3 POP DUP3 PUSH3 0x431 JUMPI PUSH3 0x430 PUSH3 0x3D5 JUMP JUMPDEST JUMPDEST DUP3 DUP3 DIV SWAP1 POP SWAP3 SWAP2 POP POP JUMP JUMPDEST PUSH1 0x80 MLOAD PUSH2 0x5520 PUSH3 0x45F PUSH1 0x0 CODECOPY PUSH1 0x0 DUP2 DUP2 PUSH2 0xE13 ADD MSTORE PUSH2 0x1578 ADD MSTORE PUSH2 0x5520 PUSH1 0x0 RETURN INVALID PUSH1 0x80 PUSH1 0x40 MSTORE CALLVALUE DUP1 ISZERO PUSH2 0x10 JUMPI PUSH1 0x0 DUP1 REVERT JUMPDEST POP PUSH1 0x4 CALLDATASIZE LT PUSH2 0x121 JUMPI PUSH1 0x0 CALLDATALOAD PUSH1 0xE0 SHR DUP1 PUSH4 0xB7D19FC4 GT PUSH2 0xAD JUMPI DUP1 PUSH4 0xD3F790D1 GT PUSH2 0x71 JUMPI DUP1 PUSH4 0xD3F790D1 EQ PUSH2 0x32A JUMPI DUP1 PUSH4 0xF23A6E61 EQ PUSH2 0x35A JUMPI DUP1 PUSH4 0xFCD3533C EQ PUSH2 0x38A JUMPI DUP1 PUSH4 0xFCEE45F4 EQ PUSH2 0x3BB JUMPI DUP1 PUSH4 0xFD31C4AB EQ PUSH2 0x3EB JUMPI PUSH2 0x121 JUMP JUMPDEST DUP1 PUSH4 0xB7D19FC4 EQ PUSH2 0x271 JUMPI DUP1 PUSH4 0xBA79B564 EQ PUSH2 0x28F JUMPI DUP1 PUSH4 0xBC197C81 EQ PUSH2 0x2AB JUMPI DUP1 PUSH4 0xC45A0155 EQ PUSH2 0x2DB JUMPI DUP1 PUSH4 0xC6DEAB32 EQ PUSH2 0x2F9 JUMPI PUSH2 0x121 JUMP JUMPDEST DUP1 PUSH4 0x5FCBD285 GT PUSH2 0xF4 JUMPI DUP1 PUSH4 0x5FCBD285 EQ PUSH2 0x1C6 JUMPI DUP1 PUSH4 0x720B9BBF EQ PUSH2 0x1E4 JUMPI DUP1 PUSH4 0x98C7ADF3 EQ PUSH2 0x215 JUMPI DUP1 PUSH4 0xA1AF5B9A EQ PUSH2 0x234 JUMPI DUP1 PUSH4 0xA582CDAA EQ PUSH2 0x252 JUMPI PUSH2 0x121 JUMP JUMPDEST DUP1 PUSH4 0x1FFC9A7 EQ PUSH2 0x126 JUMPI DUP1 PUSH4 0xABE9688 EQ PUSH2 0x156 JUMPI DUP1 PUSH4 0x16DC165B EQ PUSH2 0x187 JUMPI DUP1 PUSH4 0x1B05B83E EQ PUSH2 0x1A5 JUMPI JUMPDEST PUSH1 0x0 DUP1 REVERT JUMPDEST PUSH2 0x140 PUSH1 0x4 DUP1 CALLDATASIZE SUB DUP2 ADD SWAP1 PUSH2 0x13B SWAP2 SWAP1 PUSH2 0x46AC JUMP JUMPDEST PUSH2 0x41B JUMP JUMPDEST PUSH1 0x40 MLOAD PUSH2 0x14D SWAP2 SWAP1 PUSH2 0x46F4 JUMP JUMPDEST PUSH1 0x40 MLOAD DUP1 SWAP2 SUB SWAP1 RETURN JUMPDEST PUSH2 0x170 PUSH1 0x4 DUP1 CALLDATASIZE SUB DUP2 ADD SWAP1 PUSH2 0x16B SWAP2 SWAP1 PUSH2 0x474A JUMP JUMPDEST PUSH2 0x495 JUMP JUMPDEST PUSH1 0x40 MLOAD PUSH2 0x17E SWAP3 SWAP2 SWAP1 PUSH2 0x4790 JUMP JUMPDEST PUSH1 0x40 MLOAD DUP1 SWAP2 SUB SWAP1 RETURN JUMPDEST PUSH2 0x18F PUSH2 0x4FB JUMP JUMPDEST PUSH1 0x40 MLOAD PUSH2 0x19C SWAP2 SWAP1 PUSH2 0x4838 JUMP JUMPDEST PUSH1 0x40 MLOAD DUP1 SWAP2 SUB SWAP1 RETURN JUMPDEST PUSH2 0x1AD PUSH2 0x521 JUMP JUMPDEST PUSH1 0x40 MLOAD PUSH2 0x1BD SWAP5 SWAP4 SWAP3 SWAP2 SWAP1 PUSH2 0x4853 JUMP JUMPDEST PUSH1 0x40 MLOAD DUP1 SWAP2 SUB SWAP1 RETURN JUMPDEST PUSH2 0x1CE PUSH2 0x5D5 JUMP JUMPDEST PUSH1 0x40 MLOAD PUSH2 0x1DB SWAP2 SWAP1 PUSH2 0x48B9 JUMP JUMPDEST PUSH1 0x40 MLOAD DUP1 SWAP2 SUB SWAP1 RETURN JUMPDEST PUSH2 0x1FE PUSH1 0x4 DUP1 CALLDATASIZE SUB DUP2 ADD SWAP1 PUSH2 0x1F9 SWAP2 SWAP1 PUSH2 0x49CD JUMP JUMPDEST PUSH2 0x5FB JUMP JUMPDEST PUSH1 0x40 MLOAD PUSH2 0x20C SWAP3 SWAP2 SWAP1 PUSH2 0x4790 JUMP JUMPDEST PUSH1 0x40 MLOAD DUP1 SWAP2 SUB SWAP1 RETURN JUMPDEST PUSH2 0x21D PUSH2 0xDB8 JUMP JUMPDEST PUSH1 0x40 MLOAD PUSH2 0x22B SWAP3 SWAP2 SWAP1 PUSH2 0x4790 JUMP JUMPDEST PUSH1 0x40 MLOAD DUP1 SWAP2 SUB SWAP1 RETURN JUMPDEST PUSH2 0x23C PUSH2 0xDC9 JUMP JUMPDEST PUSH1 0x40 MLOAD PUSH2 0x249 SWAP2 SWAP1 PUSH2 0x4A62 JUMP JUMPDEST PUSH1 0x40 MLOAD DUP1 SWAP2 SUB SWAP1 RETURN JUMPDEST PUSH2 0x25A PUSH2 0xFB3 JUMP JUMPDEST PUSH1 0x40 MLOAD PUSH2 0x268 SWAP3 SWAP2 SWAP1 PUSH2 0x4790 JUMP JUMPDEST PUSH1 0x40 MLOAD DUP1 SWAP2 SUB SWAP1 RETURN JUMPDEST PUSH2 0x279 PUSH2 0xFC9 JUMP JUMPDEST PUSH1 0x40 MLOAD PUSH2 0x286 SWAP2 SWAP1 PUSH2 0x4A9E JUMP JUMPDEST PUSH1 0x40 MLOAD DUP1 SWAP2 SUB SWAP1 RETURN JUMPDEST PUSH2 0x2A9 PUSH1 0x4 DUP1 CALLDATASIZE SUB DUP2 ADD SWAP1 PUSH2 0x2A4 SWAP2 SWAP1 PUSH2 0x4AB9 JUMP JUMPDEST PUSH2 0xFEF JUMP JUMPDEST STOP JUMPDEST PUSH2 0x2C5 PUSH1 0x4 DUP1 CALLDATASIZE SUB DUP2 ADD SWAP1 PUSH2 0x2C0 SWAP2 SWAP1 PUSH2 0x4D16 JUMP JUMPDEST PUSH2 0x1561 JUMP JUMPDEST PUSH1 0x40 MLOAD PUSH2 0x2D2 SWAP2 SWAP1 PUSH2 0x4DF4 JUMP JUMPDEST PUSH1 0x40 MLOAD DUP1 SWAP2 SUB SWAP1 RETURN JUMPDEST PUSH2 0x2E3 PUSH2 0x1576 JUMP JUMPDEST PUSH1 0x40 MLOAD PUSH2 0x2F0 SWAP2 SWAP1 PUSH2 0x4E30 JUMP JUMPDEST PUSH1 0x40 MLOAD DUP1 SWAP2 SUB SWAP1 RETURN JUMPDEST PUSH2 0x313 PUSH1 0x4 DUP1 CALLDATASIZE SUB DUP2 ADD SWAP1 PUSH2 0x30E SWAP2 SWAP1 PUSH2 0x49CD JUMP JUMPDEST PUSH2 0x159A JUMP JUMPDEST PUSH1 0x40 MLOAD PUSH2 0x321 SWAP3 SWAP2 SWAP1 PUSH2 0x4790 JUMP JUMPDEST PUSH1 0x40 MLOAD DUP1 SWAP2 SUB SWAP1 RETURN JUMPDEST PUSH2 0x344 PUSH1 0x4 DUP1 CALLDATASIZE SUB DUP2 ADD SWAP1 PUSH2 0x33F SWAP2 SWAP1 PUSH2 0x4AB9 JUMP JUMPDEST PUSH2 0x1CC1 JUMP JUMPDEST PUSH1 0x40 MLOAD PUSH2 0x351 SWAP2 SWAP1 PUSH2 0x4A62 JUMP JUMPDEST PUSH1 0x40 MLOAD DUP1 SWAP2 SUB SWAP1 RETURN JUMPDEST PUSH2 0x374 PUSH1 0x4 DUP1 CALLDATASIZE SUB DUP2 ADD SWAP1 PUSH2 0x36F SWAP2 SWAP1 PUSH2 0x4E4B JUMP JUMPDEST PUSH2 0x2237 JUMP JUMPDEST PUSH1 0x40 MLOAD PUSH2 0x381 SWAP2 SWAP1 PUSH2 0x4DF4 JUMP JUMPDEST PUSH1 0x40 MLOAD DUP1 SWAP2 SUB SWAP1 RETURN JUMPDEST PUSH2 0x3A4 PUSH1 0x4 DUP1 CALLDATASIZE SUB DUP2 ADD SWAP1 PUSH2 0x39F SWAP2 SWAP1 PUSH2 0x4EE2 JUMP JUMPDEST PUSH2 0x224C JUMP JUMPDEST PUSH1 0x40 MLOAD PUSH2 0x3B2 SWAP3 SWAP2 SWAP1 PUSH2 0x4790 JUMP JUMPDEST PUSH1 0x40 MLOAD DUP1 SWAP2 SUB SWAP1 RETURN JUMPDEST PUSH2 0x3D5 PUSH1 0x4 DUP1 CALLDATASIZE SUB DUP2 ADD SWAP1 PUSH2 0x3D0 SWAP2 SWAP1 PUSH2 0x4F22 JUMP JUMPDEST PUSH2 0x2CDE JUMP JUMPDEST PUSH1 0x40 MLOAD PUSH2 0x3E2 SWAP2 SWAP1 PUSH2 0x4A62 JUMP JUMPDEST PUSH1 0x40 MLOAD DUP1 SWAP2 SUB SWAP1 RETURN JUMPDEST PUSH2 0x405 PUSH1 0x4 DUP1 CALLDATASIZE SUB DUP2 ADD SWAP1 PUSH2 0x400 SWAP2 SWAP1 PUSH2 0x474A JUMP JUMPDEST PUSH2 0x2CFB JUMP JUMPDEST PUSH1 0x40 MLOAD PUSH2 0x412 SWAP2 SWAP1 PUSH2 0x4A62 JUMP JUMPDEST PUSH1 0x40 MLOAD DUP1 SWAP2 SUB SWAP1 RETURN JUMPDEST PUSH1 0x0 PUSH32 0x4E2312E000000000000000000000000000000000000000000000000000000000 PUSH28 0xFFFFFFFFFFFFFFFFFFFFFFFFFFFFFFFFFFFFFFFFFFFFFFFFFFFFFFFF NOT AND DUP3 PUSH28 0xFFFFFFFFFFFFFFFFFFFFFFFFFFFFFFFFFFFFFFFFFFFFFFFFFFFFFFFF NOT AND EQ DUP1 PUSH2 0x48E JUMPI POP PUSH2 0x48D DUP3 PUSH2 0x2D0D JUMP JUMPDEST JUMPDEST SWAP1 POP SWAP2 SWAP1 POP JUMP JUMPDEST PUSH1 0x0 DUP1 PUSH1 0x8 PUSH1 0x0 DUP5 PUSH3 0xFFFFFF AND DUP2 MSTORE PUSH1 0x20 ADD SWAP1 DUP2 MSTORE PUSH1 0x20 ADD PUSH1 0x0 KECCAK256 PUSH1 0x0 PUSH1 0x2 DUP2 LT PUSH2 0x4C3 JUMPI PUSH2 0x4C2 PUSH2 0x4F4F JUMP JUMPDEST JUMPDEST ADD SLOAD PUSH1 0x8 PUSH1 0x0 DUP6 PUSH3 0xFFFFFF AND DUP2 MSTORE PUSH1 0x20 ADD SWAP1 DUP2 MSTORE PUSH1 0x20 ADD PUSH1 0x0 KECCAK256 PUSH1 0x1 PUSH1 0x2 DUP2 LT PUSH2 0x4F0 JUMPI PUSH2 0x4EF PUSH2 0x4F4F JUMP JUMPDEST JUMPDEST ADD SLOAD SWAP2 POP SWAP2 POP SWAP2 POP SWAP2 JUMP JUMPDEST PUSH1 0x1 PUSH1 0x0 SWAP1 SLOAD SWAP1 PUSH2 0x100 EXP SWAP1 DIV PUSH20 0xFFFFFFFFFFFFFFFFFFFFFFFFFFFFFFFFFFFFFFFF AND DUP2 JUMP JUMPDEST PUSH1 0x0 DUP1 PUSH1 0x0 DUP1 PUSH1 0x3 PUSH1 0x0 ADD PUSH1 0x6 SWAP1 SLOAD SWAP1 PUSH2 0x100 EXP SWAP1 DIV PUSH17 0xFFFFFFFFFFFFFFFFFFFFFFFFFFFFFFFFFF AND PUSH17 0xFFFFFFFFFFFFFFFFFFFFFFFFFFFFFFFFFF AND SWAP4 POP PUSH1 0x3 PUSH1 0x1 ADD PUSH1 0x0 SWAP1 SLOAD SWAP1 PUSH2 0x100 EXP SWAP1 DIV PUSH17 0xFFFFFFFFFFFFFFFFFFFFFFFFFFFFFFFFFF AND PUSH17 0xFFFFFFFFFFFFFFFFFFFFFFFFFFFFFFFFFF AND SWAP3 POP PUSH1 0x3 PUSH1 0x0 ADD PUSH1 0x0 SWAP1 SLOAD SWAP1 PUSH2 0x100 EXP SWAP1 DIV PUSH3 0xFFFFFF AND PUSH3 0xFFFFFF AND SWAP2 POP PUSH1 0x3 PUSH1 0x0 ADD PUSH1 0x3 SWAP1 SLOAD SWAP1 PUSH2 0x100 EXP SWAP1 DIV PUSH3 0xFFFFFF AND PUSH3 0xFFFFFF AND SWAP1 POP SWAP1 SWAP2 SWAP3 SWAP4 JUMP JUMPDEST PUSH1 0x17 PUSH1 0x0 SWAP1 SLOAD SWAP1 PUSH2 0x100 EXP SWAP1 DIV PUSH20 0xFFFFFFFFFFFFFFFFFFFFFFFFFFFFFFFFFFFFFFFF AND DUP2 JUMP JUMPDEST PUSH1 0x0 DUP1 PUSH1 0x1 PUSH1 0x0 SLOAD EQ PUSH2 0x63A JUMPI PUSH1 0x40 MLOAD PUSH32 0x802D9BF100000000000000000000000000000000000000000000000000000000 DUP2 MSTORE PUSH1 0x4 ADD PUSH1 0x40 MLOAD DUP1 SWAP2 SUB SWAP1 REVERT JUMPDEST PUSH1 0x2 PUSH1 0x0 DUP2 SWAP1 SSTORE POP PUSH1 0x0 DUP8 DUP8 SWAP1 POP EQ DUP1 PUSH2 0x65A JUMPI POP DUP5 DUP5 SWAP1 POP DUP8 DUP8 SWAP1 POP EQ ISZERO JUMPDEST ISZERO PUSH2 0x691 JUMPI PUSH1 0x40 MLOAD PUSH32 0x6FED5FF00000000000000000000000000000000000000000000000000000000 DUP2 MSTORE PUSH1 0x4 ADD PUSH1 0x40 MLOAD DUP1 SWAP2 SUB SWAP1 REVERT JUMPDEST PUSH1 0x0 PUSH1 0x3 PUSH1 0x40 MLOAD DUP1 PUSH1 0xE0 ADD PUSH1 0x40 MSTORE SWAP1 DUP2 PUSH1 0x0 DUP3 ADD PUSH1 0x0 SWAP1 SLOAD SWAP1 PUSH2 0x100 EXP SWAP1 DIV PUSH3 0xFFFFFF AND PUSH3 0xFFFFFF AND PUSH3 0xFFFFFF AND DUP2 MSTORE PUSH1 0x20 ADD PUSH1 0x0 DUP3 ADD PUSH1 0x3 SWAP1 SLOAD SWAP1 PUSH2 0x100 EXP SWAP1 DIV PUSH3 0xFFFFFF AND PUSH3 0xFFFFFF AND PUSH3 0xFFFFFF AND DUP2 MSTORE PUSH1 0x20 ADD PUSH1 0x0 DUP3 ADD PUSH1 0x6 SWAP1 SLOAD SWAP1 PUSH2 0x100 EXP SWAP1 DIV PUSH17 0xFFFFFFFFFFFFFFFFFFFFFFFFFFFFFFFFFF AND PUSH17 0xFFFFFFFFFFFFFFFFFFFFFFFFFFFFFFFFFF AND PUSH17 0xFFFFFFFFFFFFFFFFFFFFFFFFFFFFFFFFFF AND DUP2 MSTORE PUSH1 0x20 ADD PUSH1 0x1 DUP3 ADD PUSH1 0x0 SWAP1 SLOAD SWAP1 PUSH2 0x100 EXP SWAP1 DIV PUSH17 0xFFFFFFFFFFFFFFFFFFFFFFFFFFFFFFFFFF AND PUSH17 0xFFFFFFFFFFFFFFFFFFFFFFFFFFFFFFFFFF AND PUSH17 0xFFFFFFFFFFFFFFFFFFFFFFFFFFFFFFFFFF AND DUP2 MSTORE PUSH1 0x20 ADD PUSH1 0x2 DUP3 ADD SLOAD DUP2 MSTORE PUSH1 0x20 ADD PUSH1 0x3 DUP3 ADD SLOAD DUP2 MSTORE PUSH1 0x20 ADD PUSH1 0x4 DUP3 ADD SLOAD DUP2 MSTORE POP POP SWAP1 POP PUSH1 0x0 DUP1 PUSH1 0x1 PUSH1 0x16 PUSH1 0x0 DUP3 DUP3 SLOAD PUSH2 0x7B6 SWAP2 SWAP1 PUSH2 0x4FAD JUMP JUMPDEST SWAP3 POP POP DUP2 SWAP1 SSTORE POP PUSH1 0x0 PUSH1 0x16 SLOAD SWAP1 POP PUSH1 0x17 PUSH1 0x0 SWAP1 SLOAD SWAP1 PUSH2 0x100 EXP SWAP1 DIV PUSH20 0xFFFFFFFFFFFFFFFFFFFFFFFFFFFFFFFFFFFFFFFF AND PUSH20 0xFFFFFFFFFFFFFFFFFFFFFFFFFFFFFFFFFFFFFFFF AND PUSH4 0x40C10F19 DUP9 DUP4 PUSH1 0x40 MLOAD DUP4 PUSH4 0xFFFFFFFF AND PUSH1 0xE0 SHL DUP2 MSTORE PUSH1 0x4 ADD PUSH2 0x821 SWAP3 SWAP2 SWAP1 PUSH2 0x5012 JUMP JUMPDEST PUSH1 0x0 PUSH1 0x40 MLOAD DUP1 DUP4 SUB DUP2 PUSH1 0x0 DUP8 DUP1 EXTCODESIZE ISZERO DUP1 ISZERO PUSH2 0x83B JUMPI PUSH1 0x0 DUP1 REVERT JUMPDEST POP GAS CALL ISZERO DUP1 ISZERO PUSH2 0x84F JUMPI RETURNDATASIZE PUSH1 0x0 DUP1 RETURNDATACOPY RETURNDATASIZE PUSH1 0x0 REVERT JUMPDEST POP POP POP POP PUSH2 0x8BB DUP5 PUSH1 0x60 ADD MLOAD PUSH17 0xFFFFFFFFFFFFFFFFFFFFFFFFFFFFFFFFFF AND DUP6 PUSH1 0x80 ADD MLOAD PUSH1 0x2 PUSH1 0x0 SWAP1 SLOAD SWAP1 PUSH2 0x100 EXP SWAP1 DIV PUSH20 0xFFFFFFFFFFFFFFFFFFFFFFFFFFFFFFFFFFFFFFFF AND PUSH20 0xFFFFFFFFFFFFFFFFFFFFFFFFFFFFFFFFFFFFFFFF AND PUSH2 0x2D77 SWAP1 SWAP3 SWAP2 SWAP1 PUSH4 0xFFFFFFFF AND JUMP JUMPDEST SWAP3 POP DUP4 PUSH1 0x20 ADD MLOAD PUSH3 0xFFFFFF AND DUP12 DUP12 PUSH1 0x1 DUP15 DUP15 SWAP1 POP PUSH2 0x8D9 SWAP2 SWAP1 PUSH2 0x503B JUMP JUMPDEST DUP2 DUP2 LT PUSH2 0x8E9 JUMPI PUSH2 0x8E8 PUSH2 0x4F4F JUMP JUMPDEST JUMPDEST SWAP1 POP PUSH1 0x20 MUL ADD PUSH1 0x20 DUP2 ADD SWAP1 PUSH2 0x8FE SWAP2 SWAP1 PUSH2 0x474A JUMP JUMPDEST PUSH3 0xFFFFFF AND GT DUP1 ISZERO PUSH2 0x91A JUMPI POP PUSH1 0x0 DUP5 PUSH1 0x20 ADD MLOAD PUSH3 0xFFFFFF AND EQ ISZERO JUMPDEST ISZERO PUSH2 0x992 JUMPI DUP11 DUP11 PUSH1 0x1 DUP14 DUP14 SWAP1 POP PUSH2 0x931 SWAP2 SWAP1 PUSH2 0x503B JUMP JUMPDEST DUP2 DUP2 LT PUSH2 0x941 JUMPI PUSH2 0x940 PUSH2 0x4F4F JUMP JUMPDEST JUMPDEST SWAP1 POP PUSH1 0x20 MUL ADD PUSH1 0x20 DUP2 ADD SWAP1 PUSH2 0x956 SWAP2 SWAP1 PUSH2 0x474A JUMP JUMPDEST PUSH1 0x40 MLOAD PUSH32 0xB42CD28700000000000000000000000000000000000000000000000000000000 DUP2 MSTORE PUSH1 0x4 ADD PUSH2 0x989 SWAP2 SWAP1 PUSH2 0x50A0 JUMP JUMPDEST PUSH1 0x40 MLOAD DUP1 SWAP2 SUB SWAP1 REVERT JUMPDEST PUSH1 0x0 DUP1 PUSH1 0x0 JUMPDEST DUP14 DUP14 SWAP1 POP DUP2 LT ISZERO PUSH2 0xC0F JUMPI DUP14 DUP14 DUP3 DUP2 DUP2 LT PUSH2 0x9B6 JUMPI PUSH2 0x9B5 PUSH2 0x4F4F JUMP JUMPDEST JUMPDEST SWAP1 POP PUSH1 0x20 MUL ADD PUSH1 0x20 DUP2 ADD SWAP1 PUSH2 0x9CB SWAP2 SWAP1 PUSH2 0x474A JUMP JUMPDEST SWAP3 POP DUP12 DUP12 DUP3 DUP2 DUP2 LT PUSH2 0x9E0 JUMPI PUSH2 0x9DF PUSH2 0x4F4F JUMP JUMPDEST JUMPDEST SWAP1 POP PUSH1 0x20 MUL ADD CALLDATALOAD SWAP2 POP PUSH1 0x0 PUSH2 0x9F4 DUP5 PUSH2 0x2E0E JUMP JUMPDEST SWAP1 POP PUSH1 0x0 PUSH1 0x8 PUSH1 0x0 DUP7 PUSH3 0xFFFFFF AND DUP2 MSTORE PUSH1 0x20 ADD SWAP1 DUP2 MSTORE PUSH1 0x20 ADD PUSH1 0x0 KECCAK256 PUSH1 0x2 DUP1 PUSH1 0x20 MUL PUSH1 0x40 MLOAD SWAP1 DUP2 ADD PUSH1 0x40 MSTORE DUP1 SWAP3 SWAP2 SWAP1 DUP3 PUSH1 0x2 DUP1 ISZERO PUSH2 0xA47 JUMPI PUSH1 0x20 MUL DUP3 ADD SWAP2 JUMPDEST DUP2 SLOAD DUP2 MSTORE PUSH1 0x20 ADD SWAP1 PUSH1 0x1 ADD SWAP1 DUP1 DUP4 GT PUSH2 0xA33 JUMPI JUMPDEST POP POP POP POP POP SWAP1 POP PUSH1 0x0 DUP3 DUP6 PUSH2 0xA5C SWAP2 SWAP1 PUSH2 0x50EA JUMP JUMPDEST EQ PUSH2 0xA66 JUMPI PUSH1 0x0 DUP1 REVERT JUMPDEST PUSH2 0xA6F DUP6 PUSH2 0x2E45 JUMP JUMPDEST PUSH1 0x0 DUP2 PUSH1 0x0 PUSH1 0x2 DUP2 LT PUSH2 0xA85 JUMPI PUSH2 0xA84 PUSH2 0x4F4F JUMP JUMPDEST JUMPDEST PUSH1 0x20 MUL ADD MLOAD EQ DUP1 ISZERO PUSH2 0xAAF JUMPI POP PUSH1 0x0 DUP2 PUSH1 0x1 PUSH1 0x2 DUP2 LT PUSH2 0xAA8 JUMPI PUSH2 0xAA7 PUSH2 0x4F4F JUMP JUMPDEST JUMPDEST PUSH1 0x20 MUL ADD MLOAD EQ JUMPDEST ISZERO PUSH2 0xACE JUMPI PUSH2 0xACD DUP6 PUSH3 0xFFFFFF AND PUSH1 0x9 PUSH2 0x308D SWAP1 SWAP2 SWAP1 PUSH4 0xFFFFFFFF AND JUMP JUMPDEST JUMPDEST DUP4 PUSH14 0xFFFFFFFFFFFFFFFFFFFFFFFFFFFF AND DUP2 PUSH1 0x1 PUSH1 0x2 DUP2 LT PUSH2 0xAF3 JUMPI PUSH2 0xAF2 PUSH2 0x4F4F JUMP JUMPDEST JUMPDEST PUSH1 0x20 MUL ADD DUP2 DUP2 MLOAD PUSH2 0xB04 SWAP2 SWAP1 PUSH2 0x4FAD JUMP JUMPDEST SWAP2 POP DUP2 DUP2 MSTORE POP POP DUP4 PUSH14 0xFFFFFFFFFFFFFFFFFFFFFFFFFFFF AND DUP10 PUSH1 0x60 ADD DUP2 DUP2 MLOAD ADD SWAP2 POP SWAP1 PUSH17 0xFFFFFFFFFFFFFFFFFFFFFFFFFFFFFFFFFF AND SWAP1 DUP2 PUSH17 0xFFFFFFFFFFFFFFFFFFFFFFFFFFFFFFFFFF AND DUP2 MSTORE POP POP DUP4 DUP8 ADD SWAP7 POP PUSH1 0x12 PUSH1 0x0 DUP7 PUSH3 0xFFFFFF AND PUSH3 0xFFFFFF AND DUP2 MSTORE PUSH1 0x20 ADD SWAP1 DUP2 MSTORE PUSH1 0x20 ADD PUSH1 0x0 KECCAK256 DUP7 SWAP1 DUP1 PUSH1 0x1 DUP2 SLOAD ADD DUP1 DUP3 SSTORE DUP1 SWAP2 POP POP PUSH1 0x1 SWAP1 SUB SWAP1 PUSH1 0x0 MSTORE PUSH1 0x20 PUSH1 0x0 KECCAK256 ADD PUSH1 0x0 SWAP1 SWAP2 SWAP1 SWAP2 SWAP1 SWAP2 POP SSTORE DUP2 DUP5 PUSH2 0xBA8 SWAP2 SWAP1 PUSH2 0x511B JUMP JUMPDEST PUSH1 0x10 PUSH1 0x0 DUP9 DUP2 MSTORE PUSH1 0x20 ADD SWAP1 DUP2 MSTORE PUSH1 0x20 ADD PUSH1 0x0 KECCAK256 PUSH1 0x0 DUP8 PUSH3 0xFFFFFF AND PUSH3 0xFFFFFF AND DUP2 MSTORE PUSH1 0x20 ADD SWAP1 DUP2 MSTORE PUSH1 0x20 ADD PUSH1 0x0 KECCAK256 DUP2 SWAP1 SSTORE POP DUP1 PUSH1 0x8 PUSH1 0x0 DUP8 PUSH3 0xFFFFFF AND DUP2 MSTORE PUSH1 0x20 ADD SWAP1 DUP2 MSTORE PUSH1 0x20 ADD PUSH1 0x0 KECCAK256 SWAP1 PUSH1 0x2 PUSH2 0xC01 SWAP3 SWAP2 SWAP1 PUSH2 0x44BC JUMP JUMPDEST POP DUP3 PUSH1 0x1 ADD SWAP3 POP POP POP PUSH2 0x998 JUMP JUMPDEST POP DUP13 DUP13 PUSH1 0x11 PUSH1 0x0 DUP7 DUP2 MSTORE PUSH1 0x20 ADD SWAP1 DUP2 MSTORE PUSH1 0x20 ADD PUSH1 0x0 KECCAK256 SWAP2 SWAP1 PUSH2 0xC32 SWAP3 SWAP2 SWAP1 PUSH2 0x44FC JUMP JUMPDEST POP DUP5 DUP5 GT ISZERO PUSH2 0xC6D JUMPI PUSH1 0x40 MLOAD PUSH32 0xEEE8FF2700000000000000000000000000000000000000000000000000000000 DUP2 MSTORE PUSH1 0x4 ADD PUSH1 0x40 MLOAD DUP1 SWAP2 SUB SWAP1 REVERT JUMPDEST PUSH2 0xC84 PUSH1 0xC DUP8 PUSH1 0x9 PUSH2 0x3153 SWAP1 SWAP3 SWAP2 SWAP1 PUSH4 0xFFFFFFFF AND JUMP JUMPDEST DUP8 PUSH1 0x0 ADD DUP9 PUSH1 0x20 ADD DUP3 PUSH3 0xFFFFFF AND PUSH3 0xFFFFFF AND DUP2 MSTORE POP DUP3 PUSH3 0xFFFFFF AND PUSH3 0xFFFFFF AND DUP2 MSTORE POP POP POP DUP6 PUSH1 0x3 PUSH1 0x0 DUP3 ADD MLOAD DUP2 PUSH1 0x0 ADD PUSH1 0x0 PUSH2 0x100 EXP DUP2 SLOAD DUP2 PUSH3 0xFFFFFF MUL NOT AND SWAP1 DUP4 PUSH3 0xFFFFFF AND MUL OR SWAP1 SSTORE POP PUSH1 0x20 DUP3 ADD MLOAD DUP2 PUSH1 0x0 ADD PUSH1 0x3 PUSH2 0x100 EXP DUP2 SLOAD DUP2 PUSH3 0xFFFFFF MUL NOT AND SWAP1 DUP4 PUSH3 0xFFFFFF AND MUL OR SWAP1 SSTORE POP PUSH1 0x40 DUP3 ADD MLOAD DUP2 PUSH1 0x0 ADD PUSH1 0x6 PUSH2 0x100 EXP DUP2 SLOAD DUP2 PUSH17 0xFFFFFFFFFFFFFFFFFFFFFFFFFFFFFFFFFF MUL NOT AND SWAP1 DUP4 PUSH17 0xFFFFFFFFFFFFFFFFFFFFFFFFFFFFFFFFFF AND MUL OR SWAP1 SSTORE POP PUSH1 0x60 DUP3 ADD MLOAD DUP2 PUSH1 0x1 ADD PUSH1 0x0 PUSH2 0x100 EXP DUP2 SLOAD DUP2 PUSH17 0xFFFFFFFFFFFFFFFFFFFFFFFFFFFFFFFFFF MUL NOT AND SWAP1 DUP4 PUSH17 0xFFFFFFFFFFFFFFFFFFFFFFFFFFFFFFFFFF AND MUL OR SWAP1 SSTORE POP PUSH1 0x80 DUP3 ADD MLOAD DUP2 PUSH1 0x2 ADD SSTORE PUSH1 0xA0 DUP3 ADD MLOAD DUP2 PUSH1 0x3 ADD SSTORE PUSH1 0xC0 DUP3 ADD MLOAD DUP2 PUSH1 0x4 ADD SSTORE SWAP1 POP POP DUP4 DUP4 SWAP8 POP SWAP8 POP POP POP POP POP POP POP PUSH1 0x1 PUSH1 0x0 DUP2 SWAP1 SSTORE POP SWAP6 POP SWAP6 SWAP4 POP POP POP POP JUMP JUMPDEST PUSH1 0x0 DUP1 PUSH1 0x14 SLOAD PUSH1 0x15 SLOAD SWAP2 POP SWAP2 POP SWAP1 SWAP2 JUMP JUMPDEST PUSH1 0x0 PUSH1 0x1 PUSH1 0x0 SLOAD EQ PUSH2 0xE07 JUMPI PUSH1 0x40 MLOAD PUSH32 0x802D9BF100000000000000000000000000000000000000000000000000000000 DUP2 MSTORE PUSH1 0x4 ADD PUSH1 0x40 MLOAD DUP1 SWAP2 SUB SWAP1 REVERT JUMPDEST PUSH1 0x2 PUSH1 0x0 DUP2 SWAP1 SSTORE POP PUSH1 0x0 PUSH32 0x0 PUSH20 0xFFFFFFFFFFFFFFFFFFFFFFFFFFFFFFFFFFFFFFFF AND PUSH4 0x46904840 PUSH1 0x40 MLOAD DUP2 PUSH4 0xFFFFFFFF AND PUSH1 0xE0 SHL DUP2 MSTORE PUSH1 0x4 ADD PUSH1 0x20 PUSH1 0x40 MLOAD DUP1 DUP4 SUB DUP2 DUP7 GAS STATICCALL ISZERO DUP1 ISZERO PUSH2 0xE7C JUMPI RETURNDATASIZE PUSH1 0x0 DUP1 RETURNDATACOPY RETURNDATASIZE PUSH1 0x0 REVERT JUMPDEST POP POP POP POP PUSH1 0x40 MLOAD RETURNDATASIZE PUSH1 0x1F NOT PUSH1 0x1F DUP3 ADD AND DUP3 ADD DUP1 PUSH1 0x40 MSTORE POP DUP2 ADD SWAP1 PUSH2 0xEA0 SWAP2 SWAP1 PUSH2 0x5161 JUMP JUMPDEST SWAP1 POP DUP1 PUSH20 0xFFFFFFFFFFFFFFFFFFFFFFFFFFFFFFFFFFFFFFFF AND CALLER PUSH20 0xFFFFFFFFFFFFFFFFFFFFFFFFFFFFFFFFFFFFFFFF AND EQ PUSH2 0xF14 JUMPI DUP1 CALLER PUSH1 0x40 MLOAD PUSH32 0xF680F02800000000000000000000000000000000000000000000000000000000 DUP2 MSTORE PUSH1 0x4 ADD PUSH2 0xF0B SWAP3 SWAP2 SWAP1 PUSH2 0x518E JUMP JUMPDEST PUSH1 0x40 MLOAD DUP1 SWAP2 SUB SWAP1 REVERT JUMPDEST PUSH1 0x3 DUP1 ADD SLOAD SWAP2 POP PUSH1 0x1 DUP3 GT ISZERO PUSH2 0xFA7 JUMPI PUSH1 0x1 DUP3 PUSH2 0xF31 SWAP2 SWAP1 PUSH2 0x503B JUMP JUMPDEST SWAP2 POP DUP2 PUSH1 0x3 PUSH1 0x2 ADD PUSH1 0x0 DUP3 DUP3 SLOAD PUSH2 0xF48 SWAP2 SWAP1 PUSH2 0x503B JUMP JUMPDEST SWAP3 POP POP DUP2 SWAP1 SSTORE POP PUSH1 0x1 PUSH1 0x3 DUP1 ADD DUP2 SWAP1 SSTORE POP PUSH2 0xFA6 DUP2 DUP4 PUSH1 0x2 PUSH1 0x0 SWAP1 SLOAD SWAP1 PUSH2 0x100 EXP SWAP1 DIV PUSH20 0xFFFFFFFFFFFFFFFFFFFFFFFFFFFFFFFFFFFFFFFF AND PUSH20 0xFFFFFFFFFFFFFFFFFFFFFFFFFFFFFFFFFFFFFFFF AND PUSH2 0x31F0 SWAP1 SWAP3 SWAP2 SWAP1 PUSH4 0xFFFFFFFF AND JUMP JUMPDEST JUMPDEST POP PUSH1 0x1 PUSH1 0x0 DUP2 SWAP1 SSTORE POP SWAP1 JUMP JUMPDEST PUSH1 0x0 DUP1 PUSH1 0x3 PUSH1 0x2 ADD SLOAD SWAP2 POP PUSH1 0x3 DUP1 ADD SLOAD SWAP1 POP SWAP1 SWAP2 JUMP JUMPDEST PUSH1 0x2 PUSH1 0x0 SWAP1 SLOAD SWAP1 PUSH2 0x100 EXP SWAP1 DIV PUSH20 0xFFFFFFFFFFFFFFFFFFFFFFFFFFFFFFFFFFFFFFFF AND DUP2 JUMP JUMPDEST PUSH1 0x1 PUSH1 0x0 SLOAD EQ PUSH2 0x102B JUMPI PUSH1 0x40 MLOAD PUSH32 0x802D9BF100000000000000000000000000000000000000000000000000000000 DUP2 MSTORE PUSH1 0x4 ADD PUSH1 0x40 MLOAD DUP1 SWAP2 SUB SWAP1 REVERT JUMPDEST PUSH1 0x2 PUSH1 0x0 DUP2 SWAP1 SSTORE POP PUSH1 0x0 PUSH1 0x3 PUSH1 0x40 MLOAD DUP1 PUSH1 0xE0 ADD PUSH1 0x40 MSTORE SWAP1 DUP2 PUSH1 0x0 DUP3 ADD PUSH1 0x0 SWAP1 SLOAD SWAP1 PUSH2 0x100 EXP SWAP1 DIV PUSH3 0xFFFFFF AND PUSH3 0xFFFFFF AND PUSH3 0xFFFFFF AND DUP2 MSTORE PUSH1 0x20 ADD PUSH1 0x0 DUP3 ADD PUSH1 0x3 SWAP1 SLOAD SWAP1 PUSH2 0x100 EXP SWAP1 DIV PUSH3 0xFFFFFF AND PUSH3 0xFFFFFF AND PUSH3 0xFFFFFF AND DUP2 MSTORE PUSH1 0x20 ADD PUSH1 0x0 DUP3 ADD PUSH1 0x6 SWAP1 SLOAD SWAP1 PUSH2 0x100 EXP SWAP1 DIV PUSH17 0xFFFFFFFFFFFFFFFFFFFFFFFFFFFFFFFFFF AND PUSH17 0xFFFFFFFFFFFFFFFFFFFFFFFFFFFFFFFFFF AND PUSH17 0xFFFFFFFFFFFFFFFFFFFFFFFFFFFFFFFFFF AND DUP2 MSTORE PUSH1 0x20 ADD PUSH1 0x1 DUP3 ADD PUSH1 0x0 SWAP1 SLOAD SWAP1 PUSH2 0x100 EXP SWAP1 DIV PUSH17 0xFFFFFFFFFFFFFFFFFFFFFFFFFFFFFFFFFF AND PUSH17 0xFFFFFFFFFFFFFFFFFFFFFFFFFFFFFFFFFF AND PUSH17 0xFFFFFFFFFFFFFFFFFFFFFFFFFFFFFFFFFF AND DUP2 MSTORE PUSH1 0x20 ADD PUSH1 0x2 DUP3 ADD SLOAD DUP2 MSTORE PUSH1 0x20 ADD PUSH1 0x3 DUP3 ADD SLOAD DUP2 MSTORE PUSH1 0x20 ADD PUSH1 0x4 DUP3 ADD SLOAD DUP2 MSTORE POP POP SWAP1 POP PUSH1 0x0 DUP2 PUSH1 0x20 ADD MLOAD SWAP1 POP PUSH1 0x0 PUSH1 0x8 PUSH1 0x0 DUP4 PUSH3 0xFFFFFF AND DUP2 MSTORE PUSH1 0x20 ADD SWAP1 DUP2 MSTORE PUSH1 0x20 ADD PUSH1 0x0 KECCAK256 PUSH1 0x2 DUP1 PUSH1 0x20 MUL PUSH1 0x40 MLOAD SWAP1 DUP2 ADD PUSH1 0x40 MSTORE DUP1 SWAP3 SWAP2 SWAP1 DUP3 PUSH1 0x2 DUP1 ISZERO PUSH2 0x119C JUMPI PUSH1 0x20 MUL DUP3 ADD SWAP2 JUMPDEST DUP2 SLOAD DUP2 MSTORE PUSH1 0x20 ADD SWAP1 PUSH1 0x1 ADD SWAP1 DUP1 DUP4 GT PUSH2 0x1188 JUMPI JUMPDEST POP POP POP POP POP SWAP1 POP PUSH1 0x0 PUSH2 0x11AE DUP4 PUSH2 0x2E0E JUMP JUMPDEST SWAP1 POP PUSH1 0x0 DUP1 PUSH2 0x11DC PUSH2 0x11CB DUP5 PUSH1 0x14 SLOAD PUSH2 0x32E3 SWAP1 SWAP2 SWAP1 PUSH4 0xFFFFFFFF AND JUMP JUMPDEST PUSH1 0x15 SLOAD PUSH2 0x3333 SWAP1 SWAP2 SWAP1 PUSH4 0xFFFFFFFF AND JUMP JUMPDEST SWAP2 POP SWAP2 POP PUSH1 0x0 DUP3 DUP5 PUSH2 0x11EE SWAP2 SWAP1 PUSH2 0x4FAD JUMP JUMPDEST SWAP1 POP DUP2 DUP4 PUSH2 0x11FC SWAP2 SWAP1 PUSH2 0x503B JUMP JUMPDEST PUSH1 0x13 PUSH1 0x0 DUP9 PUSH3 0xFFFFFF AND PUSH3 0xFFFFFF AND DUP2 MSTORE PUSH1 0x20 ADD SWAP1 DUP2 MSTORE PUSH1 0x20 ADD PUSH1 0x0 KECCAK256 PUSH1 0x0 DUP3 DUP3 SLOAD PUSH2 0x1228 SWAP2 SWAP1 PUSH2 0x4FAD JUMP JUMPDEST SWAP3 POP POP DUP2 SWAP1 SSTORE POP PUSH2 0x1244 DUP4 DUP4 DUP10 PUSH2 0x3357 SWAP1 SWAP3 SWAP2 SWAP1 PUSH4 0xFFFFFFFF AND JUMP JUMPDEST PUSH2 0x1276 DUP6 PUSH1 0x0 PUSH2 0x1253 DUP8 PUSH2 0x3385 JUMP JUMPDEST PUSH2 0x1264 PUSH8 0xDE0B6B3A7640000 PUSH2 0x3385 JUMP JUMPDEST DUP12 PUSH2 0x33E3 SWAP1 SWAP5 SWAP4 SWAP3 SWAP2 SWAP1 PUSH4 0xFFFFFFFF AND JUMP JUMPDEST PUSH1 0x0 DUP6 PUSH1 0x0 PUSH1 0x2 DUP2 LT PUSH2 0x128C JUMPI PUSH2 0x128B PUSH2 0x4F4F JUMP JUMPDEST JUMPDEST PUSH1 0x20 MUL ADD MLOAD EQ ISZERO PUSH2 0x12B1 JUMPI PUSH2 0x12B0 DUP7 PUSH3 0xFFFFFF AND PUSH1 0xC PUSH2 0x35F8 SWAP1 SWAP2 SWAP1 PUSH4 0xFFFFFFFF AND JUMP JUMPDEST JUMPDEST PUSH2 0x1319 DUP8 PUSH1 0x60 ADD MLOAD PUSH17 0xFFFFFFFFFFFFFFFFFFFFFFFFFFFFFFFFFF AND DUP9 PUSH1 0x80 ADD MLOAD PUSH1 0x2 PUSH1 0x0 SWAP1 SLOAD SWAP1 PUSH2 0x100 EXP SWAP1 DIV PUSH20 0xFFFFFFFFFFFFFFFFFFFFFFFFFFFFFFFFFFFFFFFF AND PUSH20 0xFFFFFFFFFFFFFFFFFFFFFFFFFFFFFFFFFFFFFFFF AND PUSH2 0x2D77 SWAP1 SWAP3 SWAP2 SWAP1 PUSH4 0xFFFFFFFF AND JUMP JUMPDEST DUP2 GT ISZERO PUSH2 0x135D JUMPI DUP6 PUSH1 0x40 MLOAD PUSH32 0xB42CD28700000000000000000000000000000000000000000000000000000000 DUP2 MSTORE PUSH1 0x4 ADD PUSH2 0x1354 SWAP2 SWAP1 PUSH2 0x50A0 JUMP JUMPDEST PUSH1 0x40 MLOAD DUP1 SWAP2 SUB SWAP1 REVERT JUMPDEST PUSH2 0x1374 PUSH1 0xC DUP9 PUSH1 0x9 PUSH2 0x3153 SWAP1 SWAP3 SWAP2 SWAP1 PUSH4 0xFFFFFFFF AND JUMP JUMPDEST DUP9 PUSH1 0x0 ADD DUP10 PUSH1 0x20 ADD DUP3 PUSH3 0xFFFFFF AND PUSH3 0xFFFFFF AND DUP2 MSTORE POP DUP3 PUSH3 0xFFFFFF AND PUSH3 0xFFFFFF AND DUP2 MSTORE POP POP POP DUP5 PUSH1 0x8 PUSH1 0x0 DUP9 PUSH3 0xFFFFFF AND DUP2 MSTORE PUSH1 0x20 ADD SWAP1 DUP2 MSTORE PUSH1 0x20 ADD PUSH1 0x0 KECCAK256 SWAP1 PUSH1 0x2 PUSH2 0x13C1 SWAP3 SWAP2 SWAP1 PUSH2 0x44BC JUMP JUMPDEST POP DUP7 PUSH1 0x3 PUSH1 0x0 DUP3 ADD MLOAD DUP2 PUSH1 0x0 ADD PUSH1 0x0 PUSH2 0x100 EXP DUP2 SLOAD DUP2 PUSH3 0xFFFFFF MUL NOT AND SWAP1 DUP4 PUSH3 0xFFFFFF AND MUL OR SWAP1 SSTORE POP PUSH1 0x20 DUP3 ADD MLOAD DUP2 PUSH1 0x0 ADD PUSH1 0x3 PUSH2 0x100 EXP DUP2 SLOAD DUP2 PUSH3 0xFFFFFF MUL NOT AND SWAP1 DUP4 PUSH3 0xFFFFFF AND MUL OR SWAP1 SSTORE POP PUSH1 0x40 DUP3 ADD MLOAD DUP2 PUSH1 0x0 ADD PUSH1 0x6 PUSH2 0x100 EXP DUP2 SLOAD DUP2 PUSH17 0xFFFFFFFFFFFFFFFFFFFFFFFFFFFFFFFFFF MUL NOT AND SWAP1 DUP4 PUSH17 0xFFFFFFFFFFFFFFFFFFFFFFFFFFFFFFFFFF AND MUL OR SWAP1 SSTORE POP PUSH1 0x60 DUP3 ADD MLOAD DUP2 PUSH1 0x1 ADD PUSH1 0x0 PUSH2 0x100 EXP DUP2 SLOAD DUP2 PUSH17 0xFFFFFFFFFFFFFFFFFFFFFFFFFFFFFFFFFF MUL NOT AND SWAP1 DUP4 PUSH17 0xFFFFFFFFFFFFFFFFFFFFFFFFFFFFFFFFFF AND MUL OR SWAP1 SSTORE POP PUSH1 0x80 DUP3 ADD MLOAD DUP2 PUSH1 0x2 ADD SSTORE PUSH1 0xA0 DUP3 ADD MLOAD DUP2 PUSH1 0x3 ADD SSTORE PUSH1 0xC0 DUP3 ADD MLOAD DUP2 PUSH1 0x4 ADD SSTORE SWAP1 POP POP PUSH1 0x1 PUSH1 0x0 SWAP1 SLOAD SWAP1 PUSH2 0x100 EXP SWAP1 DIV PUSH20 0xFFFFFFFFFFFFFFFFFFFFFFFFFFFFFFFFFFFFFFFF AND PUSH20 0xFFFFFFFFFFFFFFFFFFFFFFFFFFFFFFFFFFFFFFFF AND PUSH4 0xF242432A ADDRESS DUP11 PUSH1 0x18 SLOAD PUSH8 0xDE0B6B3A7640000 PUSH1 0x40 MLOAD DUP6 PUSH4 0xFFFFFFFF AND PUSH1 0xE0 SHL DUP2 MSTORE PUSH1 0x4 ADD PUSH2 0x151D SWAP5 SWAP4 SWAP3 SWAP2 SWAP1 PUSH2 0x51EE JUMP JUMPDEST PUSH1 0x0 PUSH1 0x40 MLOAD DUP1 DUP4 SUB DUP2 PUSH1 0x0 DUP8 DUP1 EXTCODESIZE ISZERO DUP1 ISZERO PUSH2 0x1537 JUMPI PUSH1 0x0 DUP1 REVERT JUMPDEST POP GAS CALL ISZERO DUP1 ISZERO PUSH2 0x154B JUMPI RETURNDATASIZE PUSH1 0x0 DUP1 RETURNDATACOPY RETURNDATASIZE PUSH1 0x0 REVERT JUMPDEST POP POP POP POP POP POP POP POP POP POP POP PUSH1 0x1 PUSH1 0x0 DUP2 SWAP1 SSTORE POP POP JUMP JUMPDEST PUSH1 0x0 PUSH4 0xBC197C81 PUSH1 0xE0 SHL SWAP1 POP SWAP6 SWAP5 POP POP POP POP POP JUMP JUMPDEST PUSH32 0x0 DUP2 JUMP JUMPDEST PUSH1 0x0 DUP1 PUSH1 0x1 PUSH1 0x0 SLOAD EQ PUSH2 0x15D9 JUMPI PUSH1 0x40 MLOAD PUSH32 0x802D9BF100000000000000000000000000000000000000000000000000000000 DUP2 MSTORE PUSH1 0x4 ADD PUSH1 0x40 MLOAD DUP1 SWAP2 SUB SWAP1 REVERT JUMPDEST PUSH1 0x2 PUSH1 0x0 DUP2 SWAP1 SSTORE POP PUSH1 0x0 DUP8 DUP8 SWAP1 POP EQ DUP1 PUSH2 0x15F9 JUMPI POP DUP5 DUP5 SWAP1 POP DUP8 DUP8 SWAP1 POP EQ ISZERO JUMPDEST ISZERO PUSH2 0x1630 JUMPI PUSH1 0x40 MLOAD PUSH32 0x6FED5FF00000000000000000000000000000000000000000000000000000000 DUP2 MSTORE PUSH1 0x4 ADD PUSH1 0x40 MLOAD DUP1 SWAP2 SUB SWAP1 REVERT JUMPDEST PUSH1 0x0 PUSH1 0x3 PUSH1 0x40 MLOAD DUP1 PUSH1 0xE0 ADD PUSH1 0x40 MSTORE SWAP1 DUP2 PUSH1 0x0 DUP3 ADD PUSH1 0x0 SWAP1 SLOAD SWAP1 PUSH2 0x100 EXP SWAP1 DIV PUSH3 0xFFFFFF AND PUSH3 0xFFFFFF AND PUSH3 0xFFFFFF AND DUP2 MSTORE PUSH1 0x20 ADD PUSH1 0x0 DUP3 ADD PUSH1 0x3 SWAP1 SLOAD SWAP1 PUSH2 0x100 EXP SWAP1 DIV PUSH3 0xFFFFFF AND PUSH3 0xFFFFFF AND PUSH3 0xFFFFFF AND DUP2 MSTORE PUSH1 0x20 ADD PUSH1 0x0 DUP3 ADD PUSH1 0x6 SWAP1 SLOAD SWAP1 PUSH2 0x100 EXP SWAP1 DIV PUSH17 0xFFFFFFFFFFFFFFFFFFFFFFFFFFFFFFFFFF AND PUSH17 0xFFFFFFFFFFFFFFFFFFFFFFFFFFFFFFFFFF AND PUSH17 0xFFFFFFFFFFFFFFFFFFFFFFFFFFFFFFFFFF AND DUP2 MSTORE PUSH1 0x20 ADD PUSH1 0x1 DUP3 ADD PUSH1 0x0 SWAP1 SLOAD SWAP1 PUSH2 0x100 EXP SWAP1 DIV PUSH17 0xFFFFFFFFFFFFFFFFFFFFFFFFFFFFFFFFFF AND PUSH17 0xFFFFFFFFFFFFFFFFFFFFFFFFFFFFFFFFFF AND PUSH17 0xFFFFFFFFFFFFFFFFFFFFFFFFFFFFFFFFFF AND DUP2 MSTORE PUSH1 0x20 ADD PUSH1 0x2 DUP3 ADD SLOAD DUP2 MSTORE PUSH1 0x20 ADD PUSH1 0x3 DUP3 ADD SLOAD DUP2 MSTORE PUSH1 0x20 ADD PUSH1 0x4 DUP3 ADD SLOAD DUP2 MSTORE POP POP SWAP1 POP PUSH1 0x1 PUSH1 0x16 PUSH1 0x0 DUP3 DUP3 SLOAD PUSH2 0x1752 SWAP2 SWAP1 PUSH2 0x4FAD JUMP JUMPDEST SWAP3 POP POP DUP2 SWAP1 SSTORE POP PUSH1 0x0 PUSH1 0x16 SLOAD SWAP1 POP PUSH1 0x17 PUSH1 0x0 SWAP1 SLOAD SWAP1 PUSH2 0x100 EXP SWAP1 DIV PUSH20 0xFFFFFFFFFFFFFFFFFFFFFFFFFFFFFFFFFFFFFFFF AND PUSH20 0xFFFFFFFFFFFFFFFFFFFFFFFFFFFFFFFFFFFFFFFF AND PUSH4 0x40C10F19 DUP7 DUP4 PUSH1 0x40 MLOAD DUP4 PUSH4 0xFFFFFFFF AND PUSH1 0xE0 SHL DUP2 MSTORE PUSH1 0x4 ADD PUSH2 0x17BD SWAP3 SWAP2 SWAP1 PUSH2 0x5012 JUMP JUMPDEST PUSH1 0x0 PUSH1 0x40 MLOAD DUP1 DUP4 SUB DUP2 PUSH1 0x0 DUP8 DUP1 EXTCODESIZE ISZERO DUP1 ISZERO PUSH2 0x17D7 JUMPI PUSH1 0x0 DUP1 REVERT JUMPDEST POP GAS CALL ISZERO DUP1 ISZERO PUSH2 0x17EB JUMPI RETURNDATASIZE PUSH1 0x0 DUP1 RETURNDATACOPY RETURNDATASIZE PUSH1 0x0 REVERT JUMPDEST POP POP POP POP DUP2 PUSH1 0x0 ADD MLOAD PUSH3 0xFFFFFF AND DUP10 DUP10 PUSH1 0x0 DUP2 DUP2 LT PUSH2 0x180D JUMPI PUSH2 0x180C PUSH2 0x4F4F JUMP JUMPDEST JUMPDEST SWAP1 POP PUSH1 0x20 MUL ADD PUSH1 0x20 DUP2 ADD SWAP1 PUSH2 0x1822 SWAP2 SWAP1 PUSH2 0x474A JUMP JUMPDEST PUSH3 0xFFFFFF AND LT ISZERO PUSH2 0x1892 JUMPI DUP9 DUP9 PUSH1 0x0 DUP2 DUP2 LT PUSH2 0x1841 JUMPI PUSH2 0x1840 PUSH2 0x4F4F JUMP JUMPDEST JUMPDEST SWAP1 POP PUSH1 0x20 MUL ADD PUSH1 0x20 DUP2 ADD SWAP1 PUSH2 0x1856 SWAP2 SWAP1 PUSH2 0x474A JUMP JUMPDEST PUSH1 0x40 MLOAD PUSH32 0xB42CD28700000000000000000000000000000000000000000000000000000000 DUP2 MSTORE PUSH1 0x4 ADD PUSH2 0x1889 SWAP2 SWAP1 PUSH2 0x50A0 JUMP JUMPDEST PUSH1 0x40 MLOAD DUP1 SWAP2 SUB SWAP1 REVERT JUMPDEST PUSH1 0x0 DUP1 PUSH1 0x0 JUMPDEST DUP12 DUP12 SWAP1 POP DUP2 LT ISZERO PUSH2 0x1B51 JUMPI DUP12 DUP12 DUP3 DUP2 DUP2 LT PUSH2 0x18B6 JUMPI PUSH2 0x18B5 PUSH2 0x4F4F JUMP JUMPDEST JUMPDEST SWAP1 POP PUSH1 0x20 MUL ADD PUSH1 0x20 DUP2 ADD SWAP1 PUSH2 0x18CB SWAP2 SWAP1 PUSH2 0x474A JUMP JUMPDEST SWAP3 POP DUP10 DUP10 DUP3 DUP2 DUP2 LT PUSH2 0x18E0 JUMPI PUSH2 0x18DF PUSH2 0x4F4F JUMP JUMPDEST JUMPDEST SWAP1 POP PUSH1 0x20 MUL ADD CALLDATALOAD SWAP2 POP PUSH1 0x0 PUSH1 0x8 PUSH1 0x0 DUP6 PUSH3 0xFFFFFF AND DUP2 MSTORE PUSH1 0x20 ADD SWAP1 DUP2 MSTORE PUSH1 0x20 ADD PUSH1 0x0 KECCAK256 PUSH1 0x2 DUP1 PUSH1 0x20 MUL PUSH1 0x40 MLOAD SWAP1 DUP2 ADD PUSH1 0x40 MSTORE DUP1 SWAP3 SWAP2 SWAP1 DUP3 PUSH1 0x2 DUP1 ISZERO PUSH2 0x193A JUMPI PUSH1 0x20 MUL DUP3 ADD SWAP2 JUMPDEST DUP2 SLOAD DUP2 MSTORE PUSH1 0x20 ADD SWAP1 PUSH1 0x1 ADD SWAP1 DUP1 DUP4 GT PUSH2 0x1926 JUMPI JUMPDEST POP POP POP POP POP SWAP1 POP PUSH1 0x0 PUSH8 0xDE0B6B3A7640000 DUP5 PUSH2 0x1957 SWAP2 SWAP1 PUSH2 0x50EA JUMP JUMPDEST EQ PUSH2 0x1961 JUMPI PUSH1 0x0 DUP1 REVERT JUMPDEST PUSH2 0x196A DUP5 PUSH2 0x2E45 JUMP JUMPDEST PUSH1 0x0 DUP2 PUSH1 0x0 PUSH1 0x2 DUP2 LT PUSH2 0x1980 JUMPI PUSH2 0x197F PUSH2 0x4F4F JUMP JUMPDEST JUMPDEST PUSH1 0x20 MUL ADD MLOAD EQ DUP1 ISZERO PUSH2 0x19AA JUMPI POP PUSH1 0x0 DUP2 PUSH1 0x1 PUSH1 0x2 DUP2 LT PUSH2 0x19A3 JUMPI PUSH2 0x19A2 PUSH2 0x4F4F JUMP JUMPDEST JUMPDEST PUSH1 0x20 MUL ADD MLOAD EQ JUMPDEST ISZERO PUSH2 0x19C9 JUMPI PUSH2 0x19C8 DUP5 PUSH3 0xFFFFFF AND PUSH1 0x9 PUSH2 0x308D SWAP1 SWAP2 SWAP1 PUSH4 0xFFFFFFFF AND JUMP JUMPDEST JUMPDEST PUSH1 0x0 DUP2 PUSH1 0x0 PUSH1 0x2 DUP2 LT PUSH2 0x19DF JUMPI PUSH2 0x19DE PUSH2 0x4F4F JUMP JUMPDEST JUMPDEST PUSH1 0x20 MUL ADD MLOAD EQ ISZERO PUSH2 0x1A04 JUMPI PUSH2 0x1A03 DUP5 PUSH3 0xFFFFFF AND PUSH1 0xC PUSH2 0x308D SWAP1 SWAP2 SWAP1 PUSH4 0xFFFFFFFF AND JUMP JUMPDEST JUMPDEST DUP3 PUSH8 0xDE0B6B3A7640000 PUSH2 0x1A18 SWAP2 SWAP1 PUSH2 0x5246 JUMP JUMPDEST PUSH14 0xFFFFFFFFFFFFFFFFFFFFFFFFFFFF AND DUP2 PUSH1 0x0 PUSH1 0x2 DUP2 LT PUSH2 0x1A3C JUMPI PUSH2 0x1A3B PUSH2 0x4F4F JUMP JUMPDEST JUMPDEST PUSH1 0x20 MUL ADD DUP2 DUP2 MLOAD PUSH2 0x1A4D SWAP2 SWAP1 PUSH2 0x4FAD JUMP JUMPDEST SWAP2 POP DUP2 DUP2 MSTORE POP POP DUP3 PUSH8 0xDE0B6B3A7640000 MUL PUSH14 0xFFFFFFFFFFFFFFFFFFFFFFFFFFFF AND DUP7 PUSH1 0x40 ADD DUP2 DUP2 MLOAD ADD SWAP2 POP SWAP1 PUSH17 0xFFFFFFFFFFFFFFFFFFFFFFFFFFFFFFFFFF AND SWAP1 DUP2 PUSH17 0xFFFFFFFFFFFFFFFFFFFFFFFFFFFFFFFFFF AND DUP2 MSTORE POP POP PUSH1 0x12 PUSH1 0x0 DUP6 PUSH3 0xFFFFFF AND PUSH3 0xFFFFFF AND DUP2 MSTORE PUSH1 0x20 ADD SWAP1 DUP2 MSTORE PUSH1 0x20 ADD PUSH1 0x0 KECCAK256 DUP6 SWAP1 DUP1 PUSH1 0x1 DUP2 SLOAD ADD DUP1 DUP3 SSTORE DUP1 SWAP2 POP POP PUSH1 0x1 SWAP1 SUB SWAP1 PUSH1 0x0 MSTORE PUSH1 0x20 PUSH1 0x0 KECCAK256 ADD PUSH1 0x0 SWAP1 SWAP2 SWAP1 SWAP2 SWAP1 SWAP2 POP SSTORE DUP3 PUSH1 0x10 PUSH1 0x0 DUP8 DUP2 MSTORE PUSH1 0x20 ADD SWAP1 DUP2 MSTORE PUSH1 0x20 ADD PUSH1 0x0 KECCAK256 PUSH1 0x0 DUP7 PUSH3 0xFFFFFF AND PUSH3 0xFFFFFF AND DUP2 MSTORE PUSH1 0x20 ADD SWAP1 DUP2 MSTORE PUSH1 0x20 ADD PUSH1 0x0 KECCAK256 DUP2 SWAP1 SSTORE POP DUP1 PUSH1 0x8 PUSH1 0x0 DUP7 PUSH3 0xFFFFFF AND DUP2 MSTORE PUSH1 0x20 ADD SWAP1 DUP2 MSTORE PUSH1 0x20 ADD PUSH1 0x0 KECCAK256 SWAP1 PUSH1 0x2 PUSH2 0x1B44 SWAP3 SWAP2 SWAP1 PUSH2 0x44BC JUMP JUMPDEST POP DUP2 PUSH1 0x1 ADD SWAP2 POP POP PUSH2 0x1898 JUMP JUMPDEST POP DUP11 DUP11 PUSH1 0x11 PUSH1 0x0 DUP7 DUP2 MSTORE PUSH1 0x20 ADD SWAP1 DUP2 MSTORE PUSH1 0x20 ADD PUSH1 0x0 KECCAK256 SWAP2 SWAP1 PUSH2 0x1B74 SWAP3 SWAP2 SWAP1 PUSH2 0x44FC JUMP JUMPDEST POP PUSH2 0x1B8C PUSH1 0xC DUP6 PUSH1 0x9 PUSH2 0x3153 SWAP1 SWAP3 SWAP2 SWAP1 PUSH4 0xFFFFFFFF AND JUMP JUMPDEST DUP6 PUSH1 0x0 ADD DUP7 PUSH1 0x20 ADD DUP3 PUSH3 0xFFFFFF AND PUSH3 0xFFFFFF AND DUP2 MSTORE POP DUP3 PUSH3 0xFFFFFF AND PUSH3 0xFFFFFF AND DUP2 MSTORE POP POP POP DUP4 PUSH1 0x3 PUSH1 0x0 DUP3 ADD MLOAD DUP2 PUSH1 0x0 ADD PUSH1 0x0 PUSH2 0x100 EXP DUP2 SLOAD DUP2 PUSH3 0xFFFFFF MUL NOT AND SWAP1 DUP4 PUSH3 0xFFFFFF AND MUL OR SWAP1 SSTORE POP PUSH1 0x20 DUP3 ADD MLOAD DUP2 PUSH1 0x0 ADD PUSH1 0x3 PUSH2 0x100 EXP DUP2 SLOAD DUP2 PUSH3 0xFFFFFF MUL NOT AND SWAP1 DUP4 PUSH3 0xFFFFFF AND MUL OR SWAP1 SSTORE POP PUSH1 0x40 DUP3 ADD MLOAD DUP2 PUSH1 0x0 ADD PUSH1 0x6 PUSH2 0x100 EXP DUP2 SLOAD DUP2 PUSH17 0xFFFFFFFFFFFFFFFFFFFFFFFFFFFFFFFFFF MUL NOT AND SWAP1 DUP4 PUSH17 0xFFFFFFFFFFFFFFFFFFFFFFFFFFFFFFFFFF AND MUL OR SWAP1 SSTORE POP PUSH1 0x60 DUP3 ADD MLOAD DUP2 PUSH1 0x1 ADD PUSH1 0x0 PUSH2 0x100 EXP DUP2 SLOAD DUP2 PUSH17 0xFFFFFFFFFFFFFFFFFFFFFFFFFFFFFFFFFF MUL NOT AND SWAP1 DUP4 PUSH17 0xFFFFFFFFFFFFFFFFFFFFFFFFFFFFFFFFFF AND MUL OR SWAP1 SSTORE POP PUSH1 0x80 DUP3 ADD MLOAD DUP2 PUSH1 0x2 ADD SSTORE PUSH1 0xA0 DUP3 ADD MLOAD DUP2 PUSH1 0x3 ADD SSTORE PUSH1 0xC0 DUP3 ADD MLOAD DUP2 PUSH1 0x4 ADD SSTORE SWAP1 POP POP DUP11 DUP11 SWAP1 POP DUP4 SWAP6 POP SWAP6 POP POP POP POP POP PUSH1 0x1 PUSH1 0x0 DUP2 SWAP1 SSTORE POP SWAP6 POP SWAP6 SWAP4 POP POP POP POP JUMP JUMPDEST PUSH1 0x0 PUSH1 0x1 PUSH1 0x0 SLOAD EQ PUSH2 0x1CFF JUMPI PUSH1 0x40 MLOAD PUSH32 0x802D9BF100000000000000000000000000000000000000000000000000000000 DUP2 MSTORE PUSH1 0x4 ADD PUSH1 0x40 MLOAD DUP1 SWAP2 SUB SWAP1 REVERT JUMPDEST PUSH1 0x2 PUSH1 0x0 DUP2 SWAP1 SSTORE POP PUSH1 0x0 PUSH1 0x3 PUSH1 0x40 MLOAD DUP1 PUSH1 0xE0 ADD PUSH1 0x40 MSTORE SWAP1 DUP2 PUSH1 0x0 DUP3 ADD PUSH1 0x0 SWAP1 SLOAD SWAP1 PUSH2 0x100 EXP SWAP1 DIV PUSH3 0xFFFFFF AND PUSH3 0xFFFFFF AND PUSH3 0xFFFFFF AND DUP2 MSTORE PUSH1 0x20 ADD PUSH1 0x0 DUP3 ADD PUSH1 0x3 SWAP1 SLOAD SWAP1 PUSH2 0x100 EXP SWAP1 DIV PUSH3 0xFFFFFF AND PUSH3 0xFFFFFF AND PUSH3 0xFFFFFF AND DUP2 MSTORE PUSH1 0x20 ADD PUSH1 0x0 DUP3 ADD PUSH1 0x6 SWAP1 SLOAD SWAP1 PUSH2 0x100 EXP SWAP1 DIV PUSH17 0xFFFFFFFFFFFFFFFFFFFFFFFFFFFFFFFFFF AND PUSH17 0xFFFFFFFFFFFFFFFFFFFFFFFFFFFFFFFFFF AND PUSH17 0xFFFFFFFFFFFFFFFFFFFFFFFFFFFFFFFFFF AND DUP2 MSTORE PUSH1 0x20 ADD PUSH1 0x1 DUP3 ADD PUSH1 0x0 SWAP1 SLOAD SWAP1 PUSH2 0x100 EXP SWAP1 DIV PUSH17 0xFFFFFFFFFFFFFFFFFFFFFFFFFFFFFFFFFF AND PUSH17 0xFFFFFFFFFFFFFFFFFFFFFFFFFFFFFFFFFF AND PUSH17 0xFFFFFFFFFFFFFFFFFFFFFFFFFFFFFFFFFF AND DUP2 MSTORE PUSH1 0x20 ADD PUSH1 0x2 DUP3 ADD SLOAD DUP2 MSTORE PUSH1 0x20 ADD PUSH1 0x3 DUP3 ADD SLOAD DUP2 MSTORE PUSH1 0x20 ADD PUSH1 0x4 DUP3 ADD SLOAD DUP2 MSTORE POP POP SWAP1 POP PUSH1 0x0 PUSH1 0x8 PUSH1 0x0 DUP4 PUSH1 0x0 ADD MLOAD PUSH3 0xFFFFFF AND DUP2 MSTORE PUSH1 0x20 ADD SWAP1 DUP2 MSTORE PUSH1 0x20 ADD PUSH1 0x0 KECCAK256 PUSH1 0x2 DUP1 PUSH1 0x20 MUL PUSH1 0x40 MLOAD SWAP1 DUP2 ADD PUSH1 0x40 MSTORE DUP1 SWAP3 SWAP2 SWAP1 DUP3 PUSH1 0x2 DUP1 ISZERO PUSH2 0x1E6B JUMPI PUSH1 0x20 MUL DUP3 ADD SWAP2 JUMPDEST DUP2 SLOAD DUP2 MSTORE PUSH1 0x20 ADD SWAP1 PUSH1 0x1 ADD SWAP1 DUP1 DUP4 GT PUSH2 0x1E57 JUMPI JUMPDEST POP POP POP POP POP SWAP1 POP PUSH1 0x0 DUP3 PUSH1 0x0 ADD MLOAD SWAP1 POP PUSH1 0x0 DUP3 PUSH1 0x1 PUSH1 0x2 DUP2 LT PUSH2 0x1E91 JUMPI PUSH2 0x1E90 PUSH2 0x4F4F JUMP JUMPDEST JUMPDEST PUSH1 0x20 MUL ADD MLOAD EQ ISZERO PUSH2 0x1ED9 JUMPI DUP1 PUSH1 0x40 MLOAD PUSH32 0xB42CD28700000000000000000000000000000000000000000000000000000000 DUP2 MSTORE PUSH1 0x4 ADD PUSH2 0x1ED0 SWAP2 SWAP1 PUSH2 0x50A0 JUMP JUMPDEST PUSH1 0x40 MLOAD DUP1 SWAP2 SUB SWAP1 REVERT JUMPDEST PUSH1 0x1 PUSH1 0x0 SWAP1 SLOAD SWAP1 PUSH2 0x100 EXP SWAP1 DIV PUSH20 0xFFFFFFFFFFFFFFFFFFFFFFFFFFFFFFFFFFFFFFFF AND PUSH20 0xFFFFFFFFFFFFFFFFFFFFFFFFFFFFFFFFFFFFFFFF AND PUSH4 0xF242432A DUP7 ADDRESS PUSH1 0x18 SLOAD PUSH8 0xDE0B6B3A7640000 PUSH1 0x40 MLOAD DUP6 PUSH4 0xFFFFFFFF AND PUSH1 0xE0 SHL DUP2 MSTORE PUSH1 0x4 ADD PUSH2 0x1F44 SWAP5 SWAP4 SWAP3 SWAP2 SWAP1 PUSH2 0x51EE JUMP JUMPDEST PUSH1 0x0 PUSH1 0x40 MLOAD DUP1 DUP4 SUB DUP2 PUSH1 0x0 DUP8 DUP1 EXTCODESIZE ISZERO DUP1 ISZERO PUSH2 0x1F5E JUMPI PUSH1 0x0 DUP1 REVERT JUMPDEST POP GAS CALL ISZERO DUP1 ISZERO PUSH2 0x1F72 JUMPI RETURNDATASIZE PUSH1 0x0 DUP1 RETURNDATACOPY RETURNDATASIZE PUSH1 0x0 REVERT JUMPDEST POP POP POP POP PUSH1 0x0 PUSH2 0x1F81 DUP3 PUSH2 0x2E0E JUMP JUMPDEST SWAP1 POP PUSH1 0x0 DUP1 PUSH2 0x1FAF PUSH2 0x1F9E DUP5 PUSH1 0x14 SLOAD PUSH2 0x377F SWAP1 SWAP2 SWAP1 PUSH4 0xFFFFFFFF AND JUMP JUMPDEST PUSH1 0x15 SLOAD PUSH2 0x3333 SWAP1 SWAP2 SWAP1 PUSH4 0xFFFFFFFF AND JUMP JUMPDEST SWAP2 POP SWAP2 POP DUP1 DUP3 PUSH2 0x1FBF SWAP2 SWAP1 PUSH2 0x503B JUMP JUMPDEST PUSH1 0x13 PUSH1 0x0 DUP7 PUSH3 0xFFFFFF AND PUSH3 0xFFFFFF AND DUP2 MSTORE PUSH1 0x20 ADD SWAP1 DUP2 MSTORE PUSH1 0x20 ADD PUSH1 0x0 KECCAK256 PUSH1 0x0 DUP3 DUP3 SLOAD PUSH2 0x1FEB SWAP2 SWAP1 PUSH2 0x4FAD JUMP JUMPDEST SWAP3 POP POP DUP2 SWAP1 SSTORE POP PUSH1 0x0 DUP6 PUSH1 0x0 PUSH1 0x2 DUP2 LT PUSH2 0x2008 JUMPI PUSH2 0x2007 PUSH2 0x4F4F JUMP JUMPDEST JUMPDEST PUSH1 0x20 MUL ADD MLOAD EQ ISZERO PUSH2 0x202D JUMPI PUSH2 0x202C DUP5 PUSH3 0xFFFFFF AND PUSH1 0xC PUSH2 0x308D SWAP1 SWAP2 SWAP1 PUSH4 0xFFFFFFFF AND JUMP JUMPDEST JUMPDEST PUSH2 0x2042 DUP3 DUP3 DUP9 PUSH2 0x3357 SWAP1 SWAP3 SWAP2 SWAP1 PUSH4 0xFFFFFFFF AND JUMP JUMPDEST PUSH2 0x2074 DUP6 PUSH1 0x1 PUSH2 0x2059 PUSH8 0xDE0B6B3A7640000 PUSH2 0x3385 JUMP JUMPDEST PUSH2 0x2062 DUP8 PUSH2 0x3385 JUMP JUMPDEST DUP11 PUSH2 0x33E3 SWAP1 SWAP5 SWAP4 SWAP3 SWAP2 SWAP1 PUSH4 0xFFFFFFFF AND JUMP JUMPDEST DUP2 DUP4 PUSH2 0x2080 SWAP2 SWAP1 PUSH2 0x503B JUMP JUMPDEST SWAP7 POP PUSH2 0x2099 PUSH1 0xC DUP8 PUSH1 0x9 PUSH2 0x3153 SWAP1 SWAP3 SWAP2 SWAP1 PUSH4 0xFFFFFFFF AND JUMP JUMPDEST DUP8 PUSH1 0x0 ADD DUP9 PUSH1 0x20 ADD DUP3 PUSH3 0xFFFFFF AND PUSH3 0xFFFFFF AND DUP2 MSTORE POP DUP3 PUSH3 0xFFFFFF AND PUSH3 0xFFFFFF AND DUP2 MSTORE POP POP POP DUP5 PUSH1 0x8 PUSH1 0x0 DUP7 PUSH3 0xFFFFFF AND DUP2 MSTORE PUSH1 0x20 ADD SWAP1 DUP2 MSTORE PUSH1 0x20 ADD PUSH1 0x0 KECCAK256 SWAP1 PUSH1 0x2 PUSH2 0x20E6 SWAP3 SWAP2 SWAP1 PUSH2 0x44BC JUMP JUMPDEST POP DUP6 PUSH1 0x3 PUSH1 0x0 DUP3 ADD MLOAD DUP2 PUSH1 0x0 ADD PUSH1 0x0 PUSH2 0x100 EXP DUP2 SLOAD DUP2 PUSH3 0xFFFFFF MUL NOT AND SWAP1 DUP4 PUSH3 0xFFFFFF AND MUL OR SWAP1 SSTORE POP PUSH1 0x20 DUP3 ADD MLOAD DUP2 PUSH1 0x0 ADD PUSH1 0x3 PUSH2 0x100 EXP DUP2 SLOAD DUP2 PUSH3 0xFFFFFF MUL NOT AND SWAP1 DUP4 PUSH3 0xFFFFFF AND MUL OR SWAP1 SSTORE POP PUSH1 0x40 DUP3 ADD MLOAD DUP2 PUSH1 0x0 ADD PUSH1 0x6 PUSH2 0x100 EXP DUP2 SLOAD DUP2 PUSH17 0xFFFFFFFFFFFFFFFFFFFFFFFFFFFFFFFFFF MUL NOT AND SWAP1 DUP4 PUSH17 0xFFFFFFFFFFFFFFFFFFFFFFFFFFFFFFFFFF AND MUL OR SWAP1 SSTORE POP PUSH1 0x60 DUP3 ADD MLOAD DUP2 PUSH1 0x1 ADD PUSH1 0x0 PUSH2 0x100 EXP DUP2 SLOAD DUP2 PUSH17 0xFFFFFFFFFFFFFFFFFFFFFFFFFFFFFFFFFF MUL NOT AND SWAP1 DUP4 PUSH17 0xFFFFFFFFFFFFFFFFFFFFFFFFFFFFFFFFFF AND MUL OR SWAP1 SSTORE POP PUSH1 0x80 DUP3 ADD MLOAD DUP2 PUSH1 0x2 ADD SSTORE PUSH1 0xA0 DUP3 ADD MLOAD DUP2 PUSH1 0x3 ADD SSTORE PUSH1 0xC0 DUP3 ADD MLOAD DUP2 PUSH1 0x4 ADD SSTORE SWAP1 POP POP PUSH2 0x2224 DUP9 DUP9 PUSH1 0x2 PUSH1 0x0 SWAP1 SLOAD SWAP1 PUSH2 0x100 EXP SWAP1 DIV PUSH20 0xFFFFFFFFFFFFFFFFFFFFFFFFFFFFFFFFFFFFFFFF AND PUSH20 0xFFFFFFFFFFFFFFFFFFFFFFFFFFFFFFFFFFFFFFFF AND PUSH2 0x31F0 SWAP1 SWAP3 SWAP2 SWAP1 PUSH4 0xFFFFFFFF AND JUMP JUMPDEST POP POP POP POP POP POP PUSH1 0x1 PUSH1 0x0 DUP2 SWAP1 SSTORE POP SWAP2 SWAP1 POP JUMP JUMPDEST PUSH1 0x0 PUSH4 0xF23A6E61 PUSH1 0xE0 SHL SWAP1 POP SWAP6 SWAP5 POP POP POP POP POP JUMP JUMPDEST PUSH1 0x0 DUP1 PUSH1 0x1 PUSH1 0x0 SLOAD EQ PUSH2 0x228B JUMPI PUSH1 0x40 MLOAD PUSH32 0x802D9BF100000000000000000000000000000000000000000000000000000000 DUP2 MSTORE PUSH1 0x4 ADD PUSH1 0x40 MLOAD DUP1 SWAP2 SUB SWAP1 REVERT JUMPDEST PUSH1 0x2 PUSH1 0x0 DUP2 SWAP1 SSTORE POP PUSH1 0x0 PUSH1 0x3 PUSH1 0x40 MLOAD DUP1 PUSH1 0xE0 ADD PUSH1 0x40 MSTORE SWAP1 DUP2 PUSH1 0x0 DUP3 ADD PUSH1 0x0 SWAP1 SLOAD SWAP1 PUSH2 0x100 EXP SWAP1 DIV PUSH3 0xFFFFFF AND PUSH3 0xFFFFFF AND PUSH3 0xFFFFFF AND DUP2 MSTORE PUSH1 0x20 ADD PUSH1 0x0 DUP3 ADD PUSH1 0x3 SWAP1 SLOAD SWAP1 PUSH2 0x100 EXP SWAP1 DIV PUSH3 0xFFFFFF AND PUSH3 0xFFFFFF AND PUSH3 0xFFFFFF AND DUP2 MSTORE PUSH1 0x20 ADD PUSH1 0x0 DUP3 ADD PUSH1 0x6 SWAP1 SLOAD SWAP1 PUSH2 0x100 EXP SWAP1 DIV PUSH17 0xFFFFFFFFFFFFFFFFFFFFFFFFFFFFFFFFFF AND PUSH17 0xFFFFFFFFFFFFFFFFFFFFFFFFFFFFFFFFFF AND PUSH17 0xFFFFFFFFFFFFFFFFFFFFFFFFFFFFFFFFFF AND DUP2 MSTORE PUSH1 0x20 ADD PUSH1 0x1 DUP3 ADD PUSH1 0x0 SWAP1 SLOAD SWAP1 PUSH2 0x100 EXP SWAP1 DIV PUSH17 0xFFFFFFFFFFFFFFFFFFFFFFFFFFFFFFFFFF AND PUSH17 0xFFFFFFFFFFFFFFFFFFFFFFFFFFFFFFFFFF AND PUSH17 0xFFFFFFFFFFFFFFFFFFFFFFFFFFFFFFFFFF AND DUP2 MSTORE PUSH1 0x20 ADD PUSH1 0x2 DUP3 ADD SLOAD DUP2 MSTORE PUSH1 0x20 ADD PUSH1 0x3 DUP3 ADD SLOAD DUP2 MSTORE PUSH1 0x20 ADD PUSH1 0x4 DUP3 ADD SLOAD DUP2 MSTORE POP POP SWAP1 POP PUSH1 0x0 PUSH1 0x11 PUSH1 0x0 DUP8 DUP2 MSTORE PUSH1 0x20 ADD SWAP1 DUP2 MSTORE PUSH1 0x20 ADD PUSH1 0x0 KECCAK256 DUP1 SLOAD DUP1 PUSH1 0x20 MUL PUSH1 0x20 ADD PUSH1 0x40 MLOAD SWAP1 DUP2 ADD PUSH1 0x40 MSTORE DUP1 SWAP3 SWAP2 SWAP1 DUP2 DUP2 MSTORE PUSH1 0x20 ADD DUP3 DUP1 SLOAD DUP1 ISZERO PUSH2 0x242B JUMPI PUSH1 0x20 MUL DUP3 ADD SWAP2 SWAP1 PUSH1 0x0 MSTORE PUSH1 0x20 PUSH1 0x0 KECCAK256 SWAP1 PUSH1 0x0 SWAP1 JUMPDEST DUP3 DUP3 SWAP1 SLOAD SWAP1 PUSH2 0x100 EXP SWAP1 DIV PUSH3 0xFFFFFF AND PUSH3 0xFFFFFF AND DUP2 MSTORE PUSH1 0x20 ADD SWAP1 PUSH1 0x3 ADD SWAP1 PUSH1 0x20 DUP3 PUSH1 0x2 ADD DIV SWAP3 DUP4 ADD SWAP3 PUSH1 0x1 SUB DUP3 MUL SWAP2 POP DUP1 DUP5 GT PUSH2 0x23F0 JUMPI SWAP1 POP JUMPDEST POP POP POP POP POP SWAP1 POP PUSH1 0x11 PUSH1 0x0 DUP8 DUP2 MSTORE PUSH1 0x20 ADD SWAP1 DUP2 MSTORE PUSH1 0x20 ADD PUSH1 0x0 KECCAK256 PUSH1 0x0 PUSH2 0x2451 SWAP2 SWAP1 PUSH2 0x45AE JUMP JUMPDEST PUSH1 0x0 DUP1 PUSH1 0x0 JUMPDEST DUP4 MLOAD DUP2 LT ISZERO PUSH2 0x2A05 JUMPI DUP4 DUP2 DUP2 MLOAD DUP2 LT PUSH2 0x2473 JUMPI PUSH2 0x2472 PUSH2 0x4F4F JUMP JUMPDEST JUMPDEST PUSH1 0x20 MUL PUSH1 0x20 ADD ADD MLOAD SWAP3 POP PUSH1 0x10 PUSH1 0x0 DUP11 DUP2 MSTORE PUSH1 0x20 ADD SWAP1 DUP2 MSTORE PUSH1 0x20 ADD PUSH1 0x0 KECCAK256 PUSH1 0x0 DUP5 PUSH3 0xFFFFFF AND PUSH3 0xFFFFFF AND DUP2 MSTORE PUSH1 0x20 ADD SWAP1 DUP2 MSTORE PUSH1 0x20 ADD PUSH1 0x0 KECCAK256 SLOAD SWAP2 POP PUSH1 0x0 PUSH1 0x8 PUSH1 0x0 DUP6 PUSH3 0xFFFFFF AND DUP2 MSTORE PUSH1 0x20 ADD SWAP1 DUP2 MSTORE PUSH1 0x20 ADD PUSH1 0x0 KECCAK256 PUSH1 0x2 DUP1 PUSH1 0x20 MUL PUSH1 0x40 MLOAD SWAP1 DUP2 ADD PUSH1 0x40 MSTORE DUP1 SWAP3 SWAP2 SWAP1 DUP3 PUSH1 0x2 DUP1 ISZERO PUSH2 0x24FF JUMPI PUSH1 0x20 MUL DUP3 ADD SWAP2 JUMPDEST DUP2 SLOAD DUP2 MSTORE PUSH1 0x20 ADD SWAP1 PUSH1 0x1 ADD SWAP1 DUP1 DUP4 GT PUSH2 0x24EB JUMPI JUMPDEST POP POP POP POP POP SWAP1 POP PUSH2 0x250F DUP5 PUSH2 0x2E45 JUMP JUMPDEST DUP3 DUP2 PUSH1 0x0 PUSH1 0x2 DUP2 LT PUSH2 0x2524 JUMPI PUSH2 0x2523 PUSH2 0x4F4F JUMP JUMPDEST JUMPDEST PUSH1 0x20 MUL ADD MLOAD LT PUSH2 0x264E JUMPI DUP3 DUP9 ADD SWAP8 POP PUSH2 0x253C DUP4 PUSH2 0x3385 JUMP JUMPDEST PUSH14 0xFFFFFFFFFFFFFFFFFFFFFFFFFFFF AND DUP2 PUSH1 0x0 PUSH1 0x2 DUP2 LT PUSH2 0x2560 JUMPI PUSH2 0x255F PUSH2 0x4F4F JUMP JUMPDEST JUMPDEST PUSH1 0x20 MUL ADD DUP2 DUP2 MLOAD SUB SWAP2 POP DUP2 DUP2 MSTORE POP POP PUSH2 0x2578 DUP4 PUSH2 0x37C7 JUMP JUMPDEST DUP7 PUSH1 0x40 ADD DUP2 DUP2 MLOAD SUB SWAP2 POP SWAP1 PUSH17 0xFFFFFFFFFFFFFFFFFFFFFFFFFFFFFFFFFF AND SWAP1 DUP2 PUSH17 0xFFFFFFFFFFFFFFFFFFFFFFFFFFFFFFFFFF AND DUP2 MSTORE POP POP PUSH1 0x0 DUP2 PUSH1 0x0 PUSH1 0x2 DUP2 LT PUSH2 0x25C5 JUMPI PUSH2 0x25C4 PUSH2 0x4F4F JUMP JUMPDEST JUMPDEST PUSH1 0x20 MUL ADD MLOAD EQ ISZERO PUSH2 0x25EA JUMPI PUSH2 0x25E9 DUP5 PUSH3 0xFFFFFF AND PUSH1 0xC PUSH2 0x35F8 SWAP1 SWAP2 SWAP1 PUSH4 0xFFFFFFFF AND JUMP JUMPDEST JUMPDEST PUSH1 0x0 DUP2 PUSH1 0x1 PUSH1 0x2 DUP2 LT PUSH2 0x2600 JUMPI PUSH2 0x25FF PUSH2 0x4F4F JUMP JUMPDEST JUMPDEST PUSH1 0x20 MUL ADD MLOAD EQ DUP1 ISZERO PUSH2 0x262A JUMPI POP PUSH1 0x0 DUP2 PUSH1 0x0 PUSH1 0x2 DUP2 LT PUSH2 0x2623 JUMPI PUSH2 0x2622 PUSH2 0x4F4F JUMP JUMPDEST JUMPDEST PUSH1 0x20 MUL ADD MLOAD EQ JUMPDEST ISZERO PUSH2 0x2649 JUMPI PUSH2 0x2648 DUP5 PUSH3 0xFFFFFF AND PUSH1 0x9 PUSH2 0x35F8 SWAP1 SWAP2 SWAP1 PUSH4 0xFFFFFFFF AND JUMP JUMPDEST JUMPDEST PUSH2 0x28F0 JUMP JUMPDEST PUSH1 0x0 DUP2 PUSH1 0x0 PUSH1 0x2 DUP2 LT PUSH2 0x2664 JUMPI PUSH2 0x2663 PUSH2 0x4F4F JUMP JUMPDEST JUMPDEST PUSH1 0x20 MUL ADD MLOAD EQ ISZERO PUSH2 0x2744 JUMPI PUSH1 0x0 PUSH2 0x267A DUP6 PUSH2 0x2E0E JUMP JUMPDEST SWAP1 POP DUP4 DUP2 MUL DUP9 ADD SWAP8 POP PUSH2 0x268E DUP5 DUP3 MUL PUSH2 0x3385 JUMP JUMPDEST PUSH14 0xFFFFFFFFFFFFFFFFFFFFFFFFFFFF AND DUP3 PUSH1 0x1 PUSH1 0x2 DUP2 LT PUSH2 0x26B2 JUMPI PUSH2 0x26B1 PUSH2 0x4F4F JUMP JUMPDEST JUMPDEST PUSH1 0x20 MUL ADD DUP2 DUP2 MLOAD SUB SWAP2 POP DUP2 DUP2 MSTORE POP POP PUSH2 0x26CC DUP5 DUP3 MUL PUSH2 0x37C7 JUMP JUMPDEST DUP8 PUSH1 0x60 ADD DUP2 DUP2 MLOAD SUB SWAP2 POP SWAP1 PUSH17 0xFFFFFFFFFFFFFFFFFFFFFFFFFFFFFFFFFF AND SWAP1 DUP2 PUSH17 0xFFFFFFFFFFFFFFFFFFFFFFFFFFFFFFFFFF AND DUP2 MSTORE POP POP PUSH1 0x0 DUP3 PUSH1 0x1 PUSH1 0x2 DUP2 LT PUSH2 0x2719 JUMPI PUSH2 0x2718 PUSH2 0x4F4F JUMP JUMPDEST JUMPDEST PUSH1 0x20 MUL ADD MLOAD EQ ISZERO PUSH2 0x273E JUMPI PUSH2 0x273D DUP6 PUSH3 0xFFFFFF AND PUSH1 0x9 PUSH2 0x35F8 SWAP1 SWAP2 SWAP1 PUSH4 0xFFFFFFFF AND JUMP JUMPDEST JUMPDEST POP PUSH2 0x28EF JUMP JUMPDEST DUP1 PUSH1 0x0 PUSH1 0x2 DUP2 LT PUSH2 0x2758 JUMPI PUSH2 0x2757 PUSH2 0x4F4F JUMP JUMPDEST JUMPDEST PUSH1 0x20 MUL ADD MLOAD DUP9 ADD SWAP8 POP DUP1 PUSH1 0x0 PUSH1 0x2 DUP2 LT PUSH2 0x2775 JUMPI PUSH2 0x2774 PUSH2 0x4F4F JUMP JUMPDEST JUMPDEST PUSH1 0x20 MUL ADD MLOAD DUP4 SUB SWAP3 POP PUSH1 0x0 PUSH14 0xFFFFFFFFFFFFFFFFFFFFFFFFFFFF AND DUP2 PUSH1 0x0 PUSH1 0x2 DUP2 LT PUSH2 0x27A4 JUMPI PUSH2 0x27A3 PUSH2 0x4F4F JUMP JUMPDEST JUMPDEST PUSH1 0x20 MUL ADD DUP2 DUP2 MSTORE POP POP PUSH2 0x27CE DUP2 PUSH1 0x0 PUSH1 0x2 DUP2 LT PUSH2 0x27C4 JUMPI PUSH2 0x27C3 PUSH2 0x4F4F JUMP JUMPDEST JUMPDEST PUSH1 0x20 MUL ADD MLOAD PUSH2 0x37C7 JUMP JUMPDEST DUP7 PUSH1 0x40 ADD DUP2 DUP2 MLOAD SUB SWAP2 POP SWAP1 PUSH17 0xFFFFFFFFFFFFFFFFFFFFFFFFFFFFFFFFFF AND SWAP1 DUP2 PUSH17 0xFFFFFFFFFFFFFFFFFFFFFFFFFFFFFFFFFF AND DUP2 MSTORE POP POP PUSH2 0x281E DUP5 PUSH3 0xFFFFFF AND PUSH1 0xC PUSH2 0x35F8 SWAP1 SWAP2 SWAP1 PUSH4 0xFFFFFFFF AND JUMP JUMPDEST PUSH1 0x0 PUSH2 0x2829 DUP6 PUSH2 0x2E0E JUMP JUMPDEST SWAP1 POP DUP4 DUP2 MUL DUP9 ADD SWAP8 POP PUSH2 0x283D DUP5 DUP3 MUL PUSH2 0x3385 JUMP JUMPDEST PUSH14 0xFFFFFFFFFFFFFFFFFFFFFFFFFFFF AND DUP3 PUSH1 0x1 PUSH1 0x2 DUP2 LT PUSH2 0x2861 JUMPI PUSH2 0x2860 PUSH2 0x4F4F JUMP JUMPDEST JUMPDEST PUSH1 0x20 MUL ADD DUP2 DUP2 MLOAD SUB SWAP2 POP DUP2 DUP2 MSTORE POP POP PUSH2 0x287B DUP5 DUP3 MUL PUSH2 0x37C7 JUMP JUMPDEST DUP8 PUSH1 0x60 ADD DUP2 DUP2 MLOAD SUB SWAP2 POP SWAP1 PUSH17 0xFFFFFFFFFFFFFFFFFFFFFFFFFFFFFFFFFF AND SWAP1 DUP2 PUSH17 0xFFFFFFFFFFFFFFFFFFFFFFFFFFFFFFFFFF AND DUP2 MSTORE POP POP PUSH1 0x0 DUP3 PUSH1 0x1 PUSH1 0x2 DUP2 LT PUSH2 0x28C8 JUMPI PUSH2 0x28C7 PUSH2 0x4F4F JUMP JUMPDEST JUMPDEST PUSH1 0x20 MUL ADD MLOAD EQ ISZERO PUSH2 0x28ED JUMPI PUSH2 0x28EC DUP6 PUSH3 0xFFFFFF AND PUSH1 0x9 PUSH2 0x35F8 SWAP1 SWAP2 SWAP1 PUSH4 0xFFFFFFFF AND JUMP JUMPDEST JUMPDEST POP JUMPDEST JUMPDEST PUSH2 0x296E DUP11 PUSH1 0x12 PUSH1 0x0 DUP8 PUSH3 0xFFFFFF AND PUSH3 0xFFFFFF AND DUP2 MSTORE PUSH1 0x20 ADD SWAP1 DUP2 MSTORE PUSH1 0x20 ADD PUSH1 0x0 KECCAK256 DUP1 SLOAD DUP1 PUSH1 0x20 MUL PUSH1 0x20 ADD PUSH1 0x40 MLOAD SWAP1 DUP2 ADD PUSH1 0x40 MSTORE DUP1 SWAP3 SWAP2 SWAP1 DUP2 DUP2 MSTORE PUSH1 0x20 ADD DUP3 DUP1 SLOAD DUP1 ISZERO PUSH2 0x295B JUMPI PUSH1 0x20 MUL DUP3 ADD SWAP2 SWAP1 PUSH1 0x0 MSTORE PUSH1 0x20 PUSH1 0x0 KECCAK256 SWAP1 JUMPDEST DUP2 SLOAD DUP2 MSTORE PUSH1 0x20 ADD SWAP1 PUSH1 0x1 ADD SWAP1 DUP1 DUP4 GT PUSH2 0x2947 JUMPI JUMPDEST POP POP POP POP POP PUSH2 0x3828 SWAP1 SWAP2 SWAP1 PUSH4 0xFFFFFFFF AND JUMP JUMPDEST PUSH1 0x12 PUSH1 0x0 DUP7 PUSH3 0xFFFFFF AND PUSH3 0xFFFFFF AND DUP2 MSTORE PUSH1 0x20 ADD SWAP1 DUP2 MSTORE PUSH1 0x20 ADD PUSH1 0x0 KECCAK256 SWAP1 DUP1 MLOAD SWAP1 PUSH1 0x20 ADD SWAP1 PUSH2 0x299E SWAP3 SWAP2 SWAP1 PUSH2 0x45D6 JUMP JUMPDEST POP PUSH1 0x10 PUSH1 0x0 DUP12 DUP2 MSTORE PUSH1 0x20 ADD SWAP1 DUP2 MSTORE PUSH1 0x20 ADD PUSH1 0x0 KECCAK256 PUSH1 0x0 DUP6 PUSH3 0xFFFFFF AND PUSH3 0xFFFFFF AND DUP2 MSTORE PUSH1 0x20 ADD SWAP1 DUP2 MSTORE PUSH1 0x20 ADD PUSH1 0x0 KECCAK256 PUSH1 0x0 SWAP1 SSTORE DUP1 PUSH1 0x8 PUSH1 0x0 DUP7 PUSH3 0xFFFFFF AND DUP2 MSTORE PUSH1 0x20 ADD SWAP1 DUP2 MSTORE PUSH1 0x20 ADD PUSH1 0x0 KECCAK256 SWAP1 PUSH1 0x2 PUSH2 0x29F8 SWAP3 SWAP2 SWAP1 PUSH2 0x44BC JUMP JUMPDEST POP POP DUP1 PUSH1 0x1 ADD SWAP1 POP PUSH2 0x2457 JUMP JUMPDEST POP PUSH1 0x11 PUSH1 0x0 DUP10 DUP2 MSTORE PUSH1 0x20 ADD SWAP1 DUP2 MSTORE PUSH1 0x20 ADD PUSH1 0x0 KECCAK256 PUSH1 0x0 PUSH2 0x2A25 SWAP2 SWAP1 PUSH2 0x45AE JUMP JUMPDEST PUSH2 0x2A3C PUSH1 0xC DUP6 PUSH1 0x9 PUSH2 0x3153 SWAP1 SWAP3 SWAP2 SWAP1 PUSH4 0xFFFFFFFF AND JUMP JUMPDEST DUP6 PUSH1 0x0 ADD DUP7 PUSH1 0x20 ADD DUP3 PUSH3 0xFFFFFF AND PUSH3 0xFFFFFF AND DUP2 MSTORE POP DUP3 PUSH3 0xFFFFFF AND PUSH3 0xFFFFFF AND DUP2 MSTORE POP POP POP PUSH1 0x0 PUSH1 0xF PUSH1 0x0 DUP11 DUP2 MSTORE PUSH1 0x20 ADD SWAP1 DUP2 MSTORE PUSH1 0x20 ADD PUSH1 0x0 KECCAK256 SLOAD SWAP1 POP PUSH1 0x0 DUP2 EQ PUSH2 0x2B00 JUMPI PUSH1 0xF PUSH1 0x0 DUP11 DUP2 MSTORE PUSH1 0x20 ADD SWAP1 DUP2 MSTORE PUSH1 0x20 ADD PUSH1 0x0 KECCAK256 PUSH1 0x0 SWAP1 SSTORE DUP1 DUP6 PUSH1 0x80 ADD DUP2 DUP2 MLOAD PUSH2 0x2AAB SWAP2 SWAP1 PUSH2 0x503B JUMP JUMPDEST SWAP2 POP DUP2 DUP2 MSTORE POP POP PUSH2 0x2AFF DUP9 DUP3 PUSH1 0x2 PUSH1 0x0 SWAP1 SLOAD SWAP1 PUSH2 0x100 EXP SWAP1 DIV PUSH20 0xFFFFFFFFFFFFFFFFFFFFFFFFFFFFFFFFFFFFFFFF AND PUSH20 0xFFFFFFFFFFFFFFFFFFFFFFFFFFFFFFFFFFFFFFFF AND PUSH2 0x31F0 SWAP1 SWAP3 SWAP2 SWAP1 PUSH4 0xFFFFFFFF AND JUMP JUMPDEST JUMPDEST DUP5 PUSH1 0x3 PUSH1 0x0 DUP3 ADD MLOAD DUP2 PUSH1 0x0 ADD PUSH1 0x0 PUSH2 0x100 EXP DUP2 SLOAD DUP2 PUSH3 0xFFFFFF MUL NOT AND SWAP1 DUP4 PUSH3 0xFFFFFF AND MUL OR SWAP1 SSTORE POP PUSH1 0x20 DUP3 ADD MLOAD DUP2 PUSH1 0x0 ADD PUSH1 0x3 PUSH2 0x100 EXP DUP2 SLOAD DUP2 PUSH3 0xFFFFFF MUL NOT AND SWAP1 DUP4 PUSH3 0xFFFFFF AND MUL OR SWAP1 SSTORE POP PUSH1 0x40 DUP3 ADD MLOAD DUP2 PUSH1 0x0 ADD PUSH1 0x6 PUSH2 0x100 EXP DUP2 SLOAD DUP2 PUSH17 0xFFFFFFFFFFFFFFFFFFFFFFFFFFFFFFFFFF MUL NOT AND SWAP1 DUP4 PUSH17 0xFFFFFFFFFFFFFFFFFFFFFFFFFFFFFFFFFF AND MUL OR SWAP1 SSTORE POP PUSH1 0x60 DUP3 ADD MLOAD DUP2 PUSH1 0x1 ADD PUSH1 0x0 PUSH2 0x100 EXP DUP2 SLOAD DUP2 PUSH17 0xFFFFFFFFFFFFFFFFFFFFFFFFFFFFFFFFFF MUL NOT AND SWAP1 DUP4 PUSH17 0xFFFFFFFFFFFFFFFFFFFFFFFFFFFFFFFFFF AND MUL OR SWAP1 SSTORE POP PUSH1 0x80 DUP3 ADD MLOAD DUP2 PUSH1 0x2 ADD SSTORE PUSH1 0xA0 DUP3 ADD MLOAD DUP2 PUSH1 0x3 ADD SSTORE PUSH1 0xC0 DUP3 ADD MLOAD DUP2 PUSH1 0x4 ADD SSTORE SWAP1 POP POP PUSH2 0x2C3D DUP9 DUP8 PUSH1 0x2 PUSH1 0x0 SWAP1 SLOAD SWAP1 PUSH2 0x100 EXP SWAP1 DIV PUSH20 0xFFFFFFFFFFFFFFFFFFFFFFFFFFFFFFFFFFFFFFFF AND PUSH20 0xFFFFFFFFFFFFFFFFFFFFFFFFFFFFFFFFFFFFFFFF AND PUSH2 0x31F0 SWAP1 SWAP3 SWAP2 SWAP1 PUSH4 0xFFFFFFFF AND JUMP JUMPDEST PUSH1 0x17 PUSH1 0x0 SWAP1 SLOAD SWAP1 PUSH2 0x100 EXP SWAP1 DIV PUSH20 0xFFFFFFFFFFFFFFFFFFFFFFFFFFFFFFFFFFFFFFFF AND PUSH20 0xFFFFFFFFFFFFFFFFFFFFFFFFFFFFFFFFFFFFFFFF AND PUSH4 0x42966C68 DUP11 PUSH1 0x40 MLOAD DUP3 PUSH4 0xFFFFFFFF AND PUSH1 0xE0 SHL DUP2 MSTORE PUSH1 0x4 ADD PUSH2 0x2C98 SWAP2 SWAP1 PUSH2 0x4A62 JUMP JUMPDEST PUSH1 0x0 PUSH1 0x40 MLOAD DUP1 DUP4 SUB DUP2 PUSH1 0x0 DUP8 DUP1 EXTCODESIZE ISZERO DUP1 ISZERO PUSH2 0x2CB2 JUMPI PUSH1 0x0 DUP1 REVERT JUMPDEST POP GAS CALL ISZERO DUP1 ISZERO PUSH2 0x2CC6 JUMPI RETURNDATASIZE PUSH1 0x0 DUP1 RETURNDATACOPY RETURNDATASIZE PUSH1 0x0 REVERT JUMPDEST POP POP POP POP POP POP POP POP POP PUSH1 0x1 PUSH1 0x0 DUP2 SWAP1 SSTORE POP SWAP3 POP SWAP3 SWAP1 POP JUMP JUMPDEST PUSH1 0x0 PUSH1 0xF PUSH1 0x0 DUP4 DUP2 MSTORE PUSH1 0x20 ADD SWAP1 DUP2 MSTORE PUSH1 0x20 ADD PUSH1 0x0 KECCAK256 SLOAD SWAP1 POP SWAP2 SWAP1 POP JUMP JUMPDEST PUSH1 0x0 PUSH2 0x2D06 DUP3 PUSH2 0x2E0E JUMP JUMPDEST SWAP1 POP SWAP2 SWAP1 POP JUMP JUMPDEST PUSH1 0x0 PUSH32 0x1FFC9A700000000000000000000000000000000000000000000000000000000 PUSH28 0xFFFFFFFFFFFFFFFFFFFFFFFFFFFFFFFFFFFFFFFFFFFFFFFFFFFFFFFF NOT AND DUP3 PUSH28 0xFFFFFFFFFFFFFFFFFFFFFFFFFFFFFFFFFFFFFFFFFFFFFFFFFFFFFFFF NOT AND EQ SWAP1 POP SWAP2 SWAP1 POP JUMP JUMPDEST PUSH1 0x0 DUP1 DUP3 DUP5 ADD SWAP1 POP DUP1 DUP6 PUSH20 0xFFFFFFFFFFFFFFFFFFFFFFFFFFFFFFFFFFFFFFFF AND PUSH4 0x70A08231 ADDRESS PUSH1 0x40 MLOAD DUP3 PUSH4 0xFFFFFFFF AND PUSH1 0xE0 SHL DUP2 MSTORE PUSH1 0x4 ADD PUSH2 0x2DB9 SWAP2 SWAP1 PUSH2 0x52A0 JUMP JUMPDEST PUSH1 0x20 PUSH1 0x40 MLOAD DUP1 DUP4 SUB DUP2 DUP7 GAS STATICCALL ISZERO DUP1 ISZERO PUSH2 0x2DD6 JUMPI RETURNDATASIZE PUSH1 0x0 DUP1 RETURNDATACOPY RETURNDATASIZE PUSH1 0x0 REVERT JUMPDEST POP POP POP POP PUSH1 0x40 MLOAD RETURNDATASIZE PUSH1 0x1F NOT PUSH1 0x1F DUP3 ADD AND DUP3 ADD DUP1 PUSH1 0x40 MSTORE POP DUP2 ADD SWAP1 PUSH2 0x2DFA SWAP2 SWAP1 PUSH2 0x52D0 JUMP JUMPDEST PUSH2 0x2E04 SWAP2 SWAP1 PUSH2 0x503B JUMP JUMPDEST SWAP2 POP POP SWAP4 SWAP3 POP POP POP JUMP JUMPDEST PUSH1 0x0 PUSH2 0x2E1E DUP3 PUSH3 0xFFFFFF AND PUSH2 0x3900 JUMP JUMPDEST SWAP1 POP PUSH2 0x2E3E PUSH8 0xDE0B6B3A7640000 PUSH1 0x80 DUP4 PUSH2 0x396D SWAP1 SWAP3 SWAP2 SWAP1 PUSH4 0xFFFFFFFF AND JUMP JUMPDEST SWAP1 POP SWAP2 SWAP1 POP JUMP JUMPDEST PUSH1 0x1 PUSH1 0x0 SLOAD EQ PUSH2 0x2E81 JUMPI PUSH1 0x40 MLOAD PUSH32 0x802D9BF100000000000000000000000000000000000000000000000000000000 DUP2 MSTORE PUSH1 0x4 ADD PUSH1 0x40 MLOAD DUP1 SWAP2 SUB SWAP1 REVERT JUMPDEST PUSH1 0x2 PUSH1 0x0 DUP2 SWAP1 SSTORE POP PUSH1 0x0 PUSH1 0x12 PUSH1 0x0 DUP4 PUSH3 0xFFFFFF AND PUSH3 0xFFFFFF AND DUP2 MSTORE PUSH1 0x20 ADD SWAP1 DUP2 MSTORE PUSH1 0x20 ADD PUSH1 0x0 KECCAK256 DUP1 SLOAD DUP1 PUSH1 0x20 MUL PUSH1 0x20 ADD PUSH1 0x40 MLOAD SWAP1 DUP2 ADD PUSH1 0x40 MSTORE DUP1 SWAP3 SWAP2 SWAP1 DUP2 DUP2 MSTORE PUSH1 0x20 ADD DUP3 DUP1 SLOAD DUP1 ISZERO PUSH2 0x2EF2 JUMPI PUSH1 0x20 MUL DUP3 ADD SWAP2 SWAP1 PUSH1 0x0 MSTORE PUSH1 0x20 PUSH1 0x0 KECCAK256 SWAP1 JUMPDEST DUP2 SLOAD DUP2 MSTORE PUSH1 0x20 ADD SWAP1 PUSH1 0x1 ADD SWAP1 DUP1 DUP4 GT PUSH2 0x2EDE JUMPI JUMPDEST POP POP POP POP POP SWAP1 POP PUSH1 0x0 PUSH1 0x13 PUSH1 0x0 DUP5 PUSH3 0xFFFFFF AND PUSH3 0xFFFFFF AND DUP2 MSTORE PUSH1 0x20 ADD SWAP1 DUP2 MSTORE PUSH1 0x20 ADD PUSH1 0x0 KECCAK256 SLOAD SWAP1 POP PUSH1 0x13 PUSH1 0x0 DUP5 PUSH3 0xFFFFFF AND PUSH3 0xFFFFFF AND DUP2 MSTORE PUSH1 0x20 ADD SWAP1 DUP2 MSTORE PUSH1 0x20 ADD PUSH1 0x0 KECCAK256 PUSH1 0x0 SWAP1 SSTORE PUSH1 0x0 PUSH2 0x2F47 DUP5 PUSH2 0x2E0E JUMP JUMPDEST PUSH1 0x8 PUSH1 0x0 DUP7 PUSH3 0xFFFFFF AND DUP2 MSTORE PUSH1 0x20 ADD SWAP1 DUP2 MSTORE PUSH1 0x20 ADD PUSH1 0x0 KECCAK256 PUSH1 0x1 PUSH1 0x2 DUP2 LT PUSH2 0x2F72 JUMPI PUSH2 0x2F71 PUSH2 0x4F4F JUMP JUMPDEST JUMPDEST ADD SLOAD PUSH2 0x2F7E SWAP2 SWAP1 PUSH2 0x511B JUMP JUMPDEST PUSH1 0x8 PUSH1 0x0 DUP7 PUSH3 0xFFFFFF AND DUP2 MSTORE PUSH1 0x20 ADD SWAP1 DUP2 MSTORE PUSH1 0x20 ADD PUSH1 0x0 KECCAK256 PUSH1 0x0 PUSH1 0x2 DUP2 LT PUSH2 0x2FA9 JUMPI PUSH2 0x2FA8 PUSH2 0x4F4F JUMP JUMPDEST JUMPDEST ADD SLOAD PUSH2 0x2FB5 SWAP2 SWAP1 PUSH2 0x4FAD JUMP JUMPDEST SWAP1 POP PUSH1 0x0 DUP2 DUP4 PUSH2 0x2FC5 SWAP2 SWAP1 PUSH2 0x511B JUMP JUMPDEST SWAP1 POP PUSH1 0x0 JUMPDEST DUP5 MLOAD DUP2 LT ISZERO PUSH2 0x307D JUMPI DUP2 PUSH1 0x10 PUSH1 0x0 DUP8 DUP5 DUP2 MLOAD DUP2 LT PUSH2 0x2FEB JUMPI PUSH2 0x2FEA PUSH2 0x4F4F JUMP JUMPDEST JUMPDEST PUSH1 0x20 MUL PUSH1 0x20 ADD ADD MLOAD DUP2 MSTORE PUSH1 0x20 ADD SWAP1 DUP2 MSTORE PUSH1 0x20 ADD PUSH1 0x0 KECCAK256 PUSH1 0x0 DUP9 PUSH3 0xFFFFFF AND PUSH3 0xFFFFFF AND DUP2 MSTORE PUSH1 0x20 ADD SWAP1 DUP2 MSTORE PUSH1 0x20 ADD PUSH1 0x0 KECCAK256 SLOAD PUSH2 0x3027 SWAP2 SWAP1 PUSH2 0x5246 JUMP JUMPDEST PUSH1 0xF PUSH1 0x0 DUP8 DUP5 DUP2 MLOAD DUP2 LT PUSH2 0x303E JUMPI PUSH2 0x303D PUSH2 0x4F4F JUMP JUMPDEST JUMPDEST PUSH1 0x20 MUL PUSH1 0x20 ADD ADD MLOAD DUP2 MSTORE PUSH1 0x20 ADD SWAP1 DUP2 MSTORE PUSH1 0x20 ADD PUSH1 0x0 KECCAK256 PUSH1 0x0 DUP3 DUP3 SLOAD PUSH2 0x3063 SWAP2 SWAP1 PUSH2 0x4FAD JUMP JUMPDEST SWAP3 POP POP DUP2 SWAP1 SSTORE POP DUP1 DUP1 PUSH2 0x3075 SWAP1 PUSH2 0x52FD JUMP JUMPDEST SWAP2 POP POP PUSH2 0x2FCA JUMP JUMPDEST POP POP POP POP POP PUSH1 0x1 PUSH1 0x0 DUP2 SWAP1 SSTORE POP POP JUMP JUMPDEST PUSH1 0x0 PUSH1 0x8 DUP3 SWAP1 SHR SWAP1 POP PUSH1 0x0 PUSH1 0x10 DUP4 SWAP1 SHR SWAP1 POP PUSH1 0xFF DUP4 AND PUSH1 0x1 SWAP1 SHL DUP5 PUSH1 0x2 PUSH1 0x3 DUP2 LT PUSH2 0x30BB JUMPI PUSH2 0x30BA PUSH2 0x4F4F JUMP JUMPDEST JUMPDEST ADD PUSH1 0x0 DUP5 DUP2 MSTORE PUSH1 0x20 ADD SWAP1 DUP2 MSTORE PUSH1 0x20 ADD PUSH1 0x0 KECCAK256 PUSH1 0x0 DUP3 DUP3 SLOAD OR SWAP3 POP POP DUP2 SWAP1 SSTORE POP PUSH1 0xFF DUP3 AND PUSH1 0x1 SWAP1 SHL DUP5 PUSH1 0x1 PUSH1 0x3 DUP2 LT PUSH2 0x30F6 JUMPI PUSH2 0x30F5 PUSH2 0x4F4F JUMP JUMPDEST JUMPDEST ADD PUSH1 0x0 DUP4 DUP2 MSTORE PUSH1 0x20 ADD SWAP1 DUP2 MSTORE PUSH1 0x20 ADD PUSH1 0x0 KECCAK256 PUSH1 0x0 DUP3 DUP3 SLOAD OR SWAP3 POP POP DUP2 SWAP1 SSTORE POP DUP1 PUSH1 0x1 SWAP1 SHL DUP5 PUSH1 0x0 PUSH1 0x3 DUP2 LT PUSH2 0x312E JUMPI PUSH2 0x312D PUSH2 0x4F4F JUMP JUMPDEST JUMPDEST ADD PUSH1 0x0 DUP1 DUP2 MSTORE PUSH1 0x20 ADD SWAP1 DUP2 MSTORE PUSH1 0x20 ADD PUSH1 0x0 KECCAK256 PUSH1 0x0 DUP3 DUP3 SLOAD OR SWAP3 POP POP DUP2 SWAP1 SSTORE POP POP POP POP POP JUMP JUMPDEST PUSH1 0x0 DUP1 PUSH1 0x0 DUP4 PUSH1 0x40 ADD MLOAD PUSH17 0xFFFFFFFFFFFFFFFFFFFFFFFFFFFFFFFFFF AND EQ PUSH2 0x31B6 JUMPI PUSH2 0x3181 DUP5 PUSH1 0x0 DUP1 PUSH2 0x3A3D JUMP JUMPDEST SWAP1 POP PUSH1 0x0 DUP4 PUSH1 0x60 ADD MLOAD PUSH17 0xFFFFFFFFFFFFFFFFFFFFFFFFFFFFFFFFFF AND EQ PUSH2 0x31B1 JUMPI PUSH2 0x31AE DUP6 DUP3 PUSH1 0x1 PUSH2 0x3A3D JUMP JUMPDEST SWAP2 POP JUMPDEST PUSH2 0x31E8 JUMP JUMPDEST PUSH1 0x0 DUP4 PUSH1 0x60 ADD MLOAD PUSH17 0xFFFFFFFFFFFFFFFFFFFFFFFFFFFFFFFFFF AND EQ PUSH2 0x31E7 JUMPI PUSH2 0x31E4 DUP6 PUSH3 0xFFFFFF PUSH1 0x1 PUSH2 0x3A3D JUMP JUMPDEST SWAP2 POP JUMPDEST JUMPDEST SWAP4 POP SWAP4 SWAP2 POP POP JUMP JUMPDEST PUSH1 0x0 DUP2 EQ PUSH2 0x32DE JUMPI PUSH1 0x0 PUSH4 0xA9059CBB PUSH1 0xE0 SHL DUP4 DUP4 PUSH1 0x40 MLOAD PUSH1 0x24 ADD PUSH2 0x3215 SWAP3 SWAP2 SWAP1 PUSH2 0x5012 JUMP JUMPDEST PUSH1 0x40 MLOAD PUSH1 0x20 DUP2 DUP4 SUB SUB DUP2 MSTORE SWAP1 PUSH1 0x40 MSTORE SWAP1 PUSH28 0xFFFFFFFFFFFFFFFFFFFFFFFFFFFFFFFFFFFFFFFFFFFFFFFFFFFFFFFF NOT AND PUSH1 0x20 DUP3 ADD DUP1 MLOAD PUSH28 0xFFFFFFFFFFFFFFFFFFFFFFFFFFFFFFFFFFFFFFFFFFFFFFFFFFFFFFFF DUP4 DUP2 DUP4 AND OR DUP4 MSTORE POP POP POP POP SWAP1 POP PUSH1 0x0 PUSH2 0x3280 DUP6 DUP4 PUSH2 0x3D52 JUMP JUMPDEST SWAP1 POP PUSH1 0x0 DUP2 MLOAD GT DUP1 ISZERO PUSH2 0x32A4 JUMPI POP DUP1 DUP1 PUSH1 0x20 ADD SWAP1 MLOAD DUP2 ADD SWAP1 PUSH2 0x32A2 SWAP2 SWAP1 PUSH2 0x5372 JUMP JUMPDEST ISZERO JUMPDEST ISZERO PUSH2 0x32DB JUMPI PUSH1 0x40 MLOAD PUSH32 0x32E2717A00000000000000000000000000000000000000000000000000000000 DUP2 MSTORE PUSH1 0x4 ADD PUSH1 0x40 MLOAD DUP1 SWAP2 SUB SWAP1 REVERT JUMPDEST POP POP JUMPDEST POP POP POP JUMP JUMPDEST PUSH1 0x0 DUP1 DUP4 PUSH8 0xDE0B6B3A7640000 PUSH2 0x32FA SWAP2 SWAP1 PUSH2 0x503B JUMP JUMPDEST SWAP1 POP DUP1 PUSH1 0x1 DUP3 DUP7 DUP7 PUSH2 0x330C SWAP2 SWAP1 PUSH2 0x5246 JUMP JUMPDEST PUSH2 0x3316 SWAP2 SWAP1 PUSH2 0x4FAD JUMP JUMPDEST PUSH2 0x3320 SWAP2 SWAP1 PUSH2 0x503B JUMP JUMPDEST PUSH2 0x332A SWAP2 SWAP1 PUSH2 0x511B JUMP JUMPDEST SWAP2 POP POP SWAP3 SWAP2 POP POP JUMP JUMPDEST PUSH1 0x0 DUP1 DUP3 SWAP2 POP PUSH2 0x2710 DUP5 DUP5 MUL DUP2 PUSH2 0x334D JUMPI PUSH2 0x334C PUSH2 0x50BB JUMP JUMPDEST JUMPDEST DIV SWAP1 POP SWAP3 POP SWAP3 SWAP1 POP JUMP JUMPDEST DUP2 DUP4 PUSH1 0x80 ADD DUP2 DUP2 MLOAD PUSH2 0x3369 SWAP2 SWAP1 PUSH2 0x4FAD JUMP JUMPDEST SWAP2 POP DUP2 DUP2 MSTORE POP POP DUP1 DUP4 PUSH1 0xA0 ADD DUP2 DUP2 MLOAD ADD SWAP2 POP DUP2 DUP2 MSTORE POP POP POP POP POP JUMP JUMPDEST PUSH1 0x0 DUP2 DUP3 SWAP2 POP DUP2 PUSH14 0xFFFFFFFFFFFFFFFFFFFFFFFFFFFF AND EQ PUSH2 0x33DE JUMPI DUP2 PUSH1 0x40 MLOAD PUSH32 0x1CE5DCF700000000000000000000000000000000000000000000000000000000 DUP2 MSTORE PUSH1 0x4 ADD PUSH2 0x33D5 SWAP2 SWAP1 PUSH2 0x4A62 JUMP JUMPDEST PUSH1 0x40 MLOAD DUP1 SWAP2 SUB SWAP1 REVERT JUMPDEST SWAP2 SWAP1 POP JUMP JUMPDEST DUP3 ISZERO PUSH2 0x34EF JUMPI DUP2 PUSH14 0xFFFFFFFFFFFFFFFFFFFFFFFFFFFF AND DUP5 PUSH1 0x0 PUSH1 0x2 DUP2 LT PUSH2 0x340E JUMPI PUSH2 0x340D PUSH2 0x4F4F JUMP JUMPDEST JUMPDEST PUSH1 0x20 MUL ADD DUP2 DUP2 MLOAD PUSH2 0x341F SWAP2 SWAP1 PUSH2 0x4FAD JUMP JUMPDEST SWAP2 POP DUP2 DUP2 MSTORE POP POP DUP1 PUSH14 0xFFFFFFFFFFFFFFFFFFFFFFFFFFFF AND DUP5 PUSH1 0x1 PUSH1 0x2 DUP2 LT PUSH2 0x344B JUMPI PUSH2 0x344A PUSH2 0x4F4F JUMP JUMPDEST JUMPDEST PUSH1 0x20 MUL ADD DUP2 DUP2 MLOAD SUB SWAP2 POP DUP2 DUP2 MSTORE POP POP DUP2 PUSH14 0xFFFFFFFFFFFFFFFFFFFFFFFFFFFF AND DUP6 PUSH1 0x40 ADD DUP2 DUP2 MLOAD ADD SWAP2 POP SWAP1 PUSH17 0xFFFFFFFFFFFFFFFFFFFFFFFFFFFFFFFFFF AND SWAP1 DUP2 PUSH17 0xFFFFFFFFFFFFFFFFFFFFFFFFFFFFFFFFFF AND DUP2 MSTORE POP POP DUP1 PUSH14 0xFFFFFFFFFFFFFFFFFFFFFFFFFFFF AND DUP6 PUSH1 0x60 ADD DUP2 DUP2 MLOAD SUB SWAP2 POP SWAP1 PUSH17 0xFFFFFFFFFFFFFFFFFFFFFFFFFFFFFFFFFF AND SWAP1 DUP2 PUSH17 0xFFFFFFFFFFFFFFFFFFFFFFFFFFFFFFFFFF AND DUP2 MSTORE POP POP PUSH2 0x35F1 JUMP JUMPDEST DUP2 PUSH14 0xFFFFFFFFFFFFFFFFFFFFFFFFFFFF AND DUP5 PUSH1 0x1 PUSH1 0x2 DUP2 LT PUSH2 0x3514 JUMPI PUSH2 0x3513 PUSH2 0x4F4F JUMP JUMPDEST JUMPDEST PUSH1 0x20 MUL ADD DUP2 DUP2 MLOAD PUSH2 0x3525 SWAP2 SWAP1 PUSH2 0x4FAD JUMP JUMPDEST SWAP2 POP DUP2 DUP2 MSTORE POP POP DUP1 PUSH14 0xFFFFFFFFFFFFFFFFFFFFFFFFFFFF AND DUP5 PUSH1 0x0 PUSH1 0x2 DUP2 LT PUSH2 0x3551 JUMPI PUSH2 0x3550 PUSH2 0x4F4F JUMP JUMPDEST JUMPDEST PUSH1 0x20 MUL ADD DUP2 DUP2 MLOAD SUB SWAP2 POP DUP2 DUP2 MSTORE POP POP DUP1 PUSH14 0xFFFFFFFFFFFFFFFFFFFFFFFFFFFF AND DUP6 PUSH1 0x40 ADD DUP2 DUP2 MLOAD SUB SWAP2 POP SWAP1 PUSH17 0xFFFFFFFFFFFFFFFFFFFFFFFFFFFFFFFFFF AND SWAP1 DUP2 PUSH17 0xFFFFFFFFFFFFFFFFFFFFFFFFFFFFFFFFFF AND DUP2 MSTORE POP POP DUP2 PUSH14 0xFFFFFFFFFFFFFFFFFFFFFFFFFFFF AND DUP6 PUSH1 0x60 ADD DUP2 DUP2 MLOAD ADD SWAP2 POP SWAP1 PUSH17 0xFFFFFFFFFFFFFFFFFFFFFFFFFFFFFFFFFF AND SWAP1 DUP2 PUSH17 0xFFFFFFFFFFFFFFFFFFFFFFFFFFFFFFFFFF AND DUP2 MSTORE POP POP JUMPDEST POP POP POP POP POP JUMP JUMPDEST PUSH1 0x0 PUSH1 0x8 DUP3 SWAP1 SHR SWAP1 POP PUSH1 0x0 PUSH1 0xFF DUP4 AND PUSH1 0x1 SWAP1 SHL PUSH32 0xFFFFFFFFFFFFFFFFFFFFFFFFFFFFFFFFFFFFFFFFFFFFFFFFFFFFFFFFFFFFFFFF XOR DUP5 PUSH1 0x2 PUSH1 0x3 DUP2 LT PUSH2 0x3641 JUMPI PUSH2 0x3640 PUSH2 0x4F4F JUMP JUMPDEST JUMPDEST ADD PUSH1 0x0 DUP5 DUP2 MSTORE PUSH1 0x20 ADD SWAP1 DUP2 MSTORE PUSH1 0x20 ADD PUSH1 0x0 KECCAK256 SLOAD AND SWAP1 POP DUP1 DUP5 PUSH1 0x2 PUSH1 0x3 DUP2 LT PUSH2 0x366C JUMPI PUSH2 0x366B PUSH2 0x4F4F JUMP JUMPDEST JUMPDEST ADD PUSH1 0x0 DUP5 DUP2 MSTORE PUSH1 0x20 ADD SWAP1 DUP2 MSTORE PUSH1 0x20 ADD PUSH1 0x0 KECCAK256 DUP2 SWAP1 SSTORE POP PUSH1 0x0 DUP2 EQ ISZERO PUSH2 0x3779 JUMPI PUSH1 0x0 PUSH1 0x10 DUP5 SWAP1 SHR SWAP1 POP PUSH1 0xFF DUP4 AND PUSH1 0x1 SWAP1 SHL PUSH32 0xFFFFFFFFFFFFFFFFFFFFFFFFFFFFFFFFFFFFFFFFFFFFFFFFFFFFFFFFFFFFFFFF XOR DUP6 PUSH1 0x1 PUSH1 0x3 DUP2 LT PUSH2 0x36D2 JUMPI PUSH2 0x36D1 PUSH2 0x4F4F JUMP JUMPDEST JUMPDEST ADD PUSH1 0x0 DUP4 DUP2 MSTORE PUSH1 0x20 ADD SWAP1 DUP2 MSTORE PUSH1 0x20 ADD PUSH1 0x0 KECCAK256 SLOAD AND SWAP2 POP DUP2 DUP6 PUSH1 0x1 PUSH1 0x3 DUP2 LT PUSH2 0x36FD JUMPI PUSH2 0x36FC PUSH2 0x4F4F JUMP JUMPDEST JUMPDEST ADD PUSH1 0x0 DUP4 DUP2 MSTORE PUSH1 0x20 ADD SWAP1 DUP2 MSTORE PUSH1 0x20 ADD PUSH1 0x0 KECCAK256 DUP2 SWAP1 SSTORE POP PUSH1 0x0 DUP3 EQ ISZERO PUSH2 0x3777 JUMPI DUP1 PUSH1 0x1 SWAP1 SHL PUSH32 0xFFFFFFFFFFFFFFFFFFFFFFFFFFFFFFFFFFFFFFFFFFFFFFFFFFFFFFFFFFFFFFFF XOR DUP6 PUSH1 0x0 PUSH1 0x3 DUP2 LT PUSH2 0x3757 JUMPI PUSH2 0x3756 PUSH2 0x4F4F JUMP JUMPDEST JUMPDEST ADD PUSH1 0x0 DUP1 DUP2 MSTORE PUSH1 0x20 ADD SWAP1 DUP2 MSTORE PUSH1 0x20 ADD PUSH1 0x0 KECCAK256 PUSH1 0x0 DUP3 DUP3 SLOAD AND SWAP3 POP POP DUP2 SWAP1 SSTORE POP JUMPDEST POP JUMPDEST POP POP POP POP JUMP JUMPDEST PUSH1 0x0 PUSH8 0xDE0B6B3A7640000 PUSH1 0x1 PUSH8 0xDE0B6B3A7640000 DUP6 DUP6 PUSH2 0x37A1 SWAP2 SWAP1 PUSH2 0x5246 JUMP JUMPDEST PUSH2 0x37AB SWAP2 SWAP1 PUSH2 0x4FAD JUMP JUMPDEST PUSH2 0x37B5 SWAP2 SWAP1 PUSH2 0x503B JUMP JUMPDEST PUSH2 0x37BF SWAP2 SWAP1 PUSH2 0x511B JUMP JUMPDEST SWAP1 POP SWAP3 SWAP2 POP POP JUMP JUMPDEST PUSH1 0x0 DUP2 DUP3 SWAP2 POP DUP2 PUSH17 0xFFFFFFFFFFFFFFFFFFFFFFFFFFFFFFFFFF AND EQ PUSH2 0x3823 JUMPI DUP2 PUSH1 0x40 MLOAD PUSH32 0xBDBA3C9F00000000000000000000000000000000000000000000000000000000 DUP2 MSTORE PUSH1 0x4 ADD PUSH2 0x381A SWAP2 SWAP1 PUSH2 0x4A62 JUMP JUMPDEST PUSH1 0x40 MLOAD DUP1 SWAP2 SUB SWAP1 REVERT JUMPDEST SWAP2 SWAP1 POP JUMP JUMPDEST PUSH1 0x60 PUSH1 0x0 PUSH1 0x1 DUP5 MLOAD PUSH2 0x383A SWAP2 SWAP1 PUSH2 0x503B JUMP JUMPDEST PUSH8 0xFFFFFFFFFFFFFFFF DUP2 GT ISZERO PUSH2 0x3853 JUMPI PUSH2 0x3852 PUSH2 0x4AF7 JUMP JUMPDEST JUMPDEST PUSH1 0x40 MLOAD SWAP1 DUP1 DUP3 MSTORE DUP1 PUSH1 0x20 MUL PUSH1 0x20 ADD DUP3 ADD PUSH1 0x40 MSTORE DUP1 ISZERO PUSH2 0x3881 JUMPI DUP2 PUSH1 0x20 ADD PUSH1 0x20 DUP3 MUL DUP1 CALLDATASIZE DUP4 CALLDATACOPY DUP1 DUP3 ADD SWAP2 POP POP SWAP1 POP JUMPDEST POP SWAP1 POP PUSH1 0x0 DUP1 JUMPDEST DUP6 MLOAD DUP2 LT ISZERO PUSH2 0x38F4 JUMPI DUP5 DUP2 EQ PUSH2 0x38E1 JUMPI DUP6 DUP2 DUP2 MLOAD DUP2 LT PUSH2 0x38AB JUMPI PUSH2 0x38AA PUSH2 0x4F4F JUMP JUMPDEST JUMPDEST PUSH1 0x20 MUL PUSH1 0x20 ADD ADD MLOAD DUP4 DUP4 DUP2 MLOAD DUP2 LT PUSH2 0x38C6 JUMPI PUSH2 0x38C5 PUSH2 0x4F4F JUMP JUMPDEST JUMPDEST PUSH1 0x20 MUL PUSH1 0x20 ADD ADD DUP2 DUP2 MSTORE POP POP DUP2 DUP1 PUSH2 0x38DD SWAP1 PUSH2 0x52FD JUMP JUMPDEST SWAP3 POP POP JUMPDEST DUP1 DUP1 PUSH2 0x38EC SWAP1 PUSH2 0x52FD JUMP JUMPDEST SWAP2 POP POP PUSH2 0x3888 JUMP JUMPDEST POP DUP2 SWAP3 POP POP POP SWAP3 SWAP2 POP POP JUMP JUMPDEST PUSH1 0x0 PUSH3 0xFFFFFF DUP1 AND DUP3 GT ISZERO PUSH2 0x3941 JUMPI PUSH1 0x40 MLOAD PUSH32 0x58F62EAC00000000000000000000000000000000000000000000000000000000 DUP2 MSTORE PUSH1 0x4 ADD PUSH1 0x40 MLOAD DUP1 SWAP2 SUB SWAP1 REVERT JUMPDEST PUSH1 0x0 PUSH3 0x800000 DUP4 SUB SWAP1 POP PUSH2 0x3965 DUP2 PUSH2 0x3957 PUSH2 0x3E6B JUMP JUMPDEST PUSH2 0x3E91 SWAP1 SWAP2 SWAP1 PUSH4 0xFFFFFFFF AND JUMP JUMPDEST SWAP2 POP POP SWAP2 SWAP1 POP JUMP JUMPDEST PUSH1 0x0 PUSH1 0xFF DUP3 GT ISZERO PUSH2 0x39B5 JUMPI DUP2 PUSH1 0x40 MLOAD PUSH32 0xB72ECF5000000000000000000000000000000000000000000000000000000000 DUP2 MSTORE PUSH1 0x4 ADD PUSH2 0x39AC SWAP2 SWAP1 PUSH2 0x4A62 JUMP JUMPDEST PUSH1 0x40 MLOAD DUP1 SWAP2 SUB SWAP1 REVERT JUMPDEST PUSH1 0x0 DUP1 PUSH2 0x39C2 DUP7 DUP7 PUSH2 0x4199 JUMP JUMPDEST SWAP2 POP SWAP2 POP PUSH1 0x0 DUP3 EQ PUSH2 0x39D5 JUMPI DUP4 DUP3 SWAP1 SHR SWAP3 POP JUMPDEST PUSH1 0x0 DUP2 EQ PUSH2 0x3A34 JUMPI DUP4 PUSH1 0x1 SWAP1 SHL DUP2 LT PUSH2 0x3A27 JUMPI DUP1 DUP5 PUSH1 0x40 MLOAD PUSH32 0x3D90990F00000000000000000000000000000000000000000000000000000000 DUP2 MSTORE PUSH1 0x4 ADD PUSH2 0x3A1E SWAP3 SWAP2 SWAP1 PUSH2 0x4790 JUMP JUMPDEST PUSH1 0x40 MLOAD DUP1 SWAP2 SUB SWAP1 REVERT JUMPDEST DUP4 PUSH2 0x100 SUB DUP2 SWAP1 SHL DUP4 ADD SWAP3 POP JUMPDEST POP POP SWAP4 SWAP3 POP POP POP JUMP JUMPDEST PUSH1 0x0 DUP1 PUSH1 0x0 PUSH2 0x3A4B DUP6 PUSH2 0x41B8 JUMP JUMPDEST DUP1 PUSH3 0xFFFFFF AND SWAP1 POP DUP1 SWAP3 POP DUP2 SWAP7 POP POP POP DUP4 DUP1 ISZERO PUSH2 0x3A69 JUMPI POP PUSH1 0x0 DUP2 EQ ISZERO JUMPDEST DUP1 PUSH2 0x3A7F JUMPI POP DUP4 ISZERO DUP1 ISZERO PUSH2 0x3A7E JUMPI POP PUSH1 0xFF DUP2 EQ ISZERO JUMPDEST JUMPDEST ISZERO PUSH2 0x3B04 JUMPI DUP6 PUSH1 0x2 PUSH1 0x3 DUP2 LT PUSH2 0x3A98 JUMPI PUSH2 0x3A97 PUSH2 0x4F4F JUMP JUMPDEST JUMPDEST ADD PUSH1 0x0 DUP7 PUSH3 0xFFFFFF AND DUP2 MSTORE PUSH1 0x20 ADD SWAP1 DUP2 MSTORE PUSH1 0x20 ADD PUSH1 0x0 KECCAK256 SLOAD SWAP2 POP PUSH2 0x3AC7 DUP2 DUP6 DUP5 PUSH2 0x41D2 SWAP1 SWAP3 SWAP2 SWAP1 PUSH4 0xFFFFFFFF AND JUMP JUMPDEST SWAP1 POP PUSH32 0xFFFFFFFFFFFFFFFFFFFFFFFFFFFFFFFFFFFFFFFFFFFFFFFFFFFFFFFFFFFFFFFF DUP2 EQ PUSH2 0x3B03 JUMPI PUSH2 0x3AFA DUP6 DUP3 PUSH2 0x4214 JUMP JUMPDEST SWAP3 POP POP POP PUSH2 0x3D4B JUMP JUMPDEST JUMPDEST PUSH2 0x3B0D DUP6 PUSH2 0x41B8 JUMP JUMPDEST DUP1 PUSH3 0xFFFFFF AND SWAP1 POP DUP1 SWAP3 POP DUP2 SWAP7 POP POP POP DUP4 DUP1 ISZERO PUSH2 0x3B2B JUMPI POP PUSH1 0x0 DUP2 EQ ISZERO JUMPDEST DUP1 PUSH2 0x3B41 JUMPI POP DUP4 ISZERO DUP1 ISZERO PUSH2 0x3B40 JUMPI POP PUSH1 0xFF DUP2 EQ ISZERO JUMPDEST JUMPDEST ISZERO PUSH2 0x3C15 JUMPI DUP6 PUSH1 0x1 PUSH1 0x3 DUP2 LT PUSH2 0x3B5A JUMPI PUSH2 0x3B59 PUSH2 0x4F4F JUMP JUMPDEST JUMPDEST ADD PUSH1 0x0 DUP7 PUSH3 0xFFFFFF AND DUP2 MSTORE PUSH1 0x20 ADD SWAP1 DUP2 MSTORE PUSH1 0x20 ADD PUSH1 0x0 KECCAK256 SLOAD SWAP2 POP PUSH2 0x3B89 DUP2 DUP6 DUP5 PUSH2 0x41D2 SWAP1 SWAP3 SWAP2 SWAP1 PUSH4 0xFFFFFFFF AND JUMP JUMPDEST SWAP1 POP PUSH32 0xFFFFFFFFFFFFFFFFFFFFFFFFFFFFFFFFFFFFFFFFFFFFFFFFFFFFFFFFFFFFFFFF DUP2 EQ PUSH2 0x3C14 JUMPI PUSH2 0x3BBC DUP6 DUP3 PUSH2 0x4214 JUMP JUMPDEST SWAP5 POP DUP6 PUSH1 0x2 PUSH1 0x3 DUP2 LT PUSH2 0x3BD2 JUMPI PUSH2 0x3BD1 PUSH2 0x4F4F JUMP JUMPDEST JUMPDEST ADD PUSH1 0x0 DUP7 PUSH3 0xFFFFFF AND DUP2 MSTORE PUSH1 0x20 ADD SWAP1 DUP2 MSTORE PUSH1 0x20 ADD PUSH1 0x0 KECCAK256 SLOAD SWAP2 POP PUSH2 0x3C0B DUP6 PUSH2 0x3C03 DUP7 DUP6 PUSH2 0x422A SWAP1 SWAP2 SWAP1 PUSH4 0xFFFFFFFF AND JUMP JUMPDEST PUSH1 0xFF AND PUSH2 0x4214 JUMP JUMPDEST SWAP3 POP POP POP PUSH2 0x3D4B JUMP JUMPDEST JUMPDEST DUP6 PUSH1 0x0 PUSH1 0x3 DUP2 LT PUSH2 0x3C29 JUMPI PUSH2 0x3C28 PUSH2 0x4F4F JUMP JUMPDEST JUMPDEST ADD PUSH1 0x0 DUP1 DUP2 MSTORE PUSH1 0x20 ADD SWAP1 DUP2 MSTORE PUSH1 0x20 ADD PUSH1 0x0 KECCAK256 SLOAD SWAP2 POP PUSH2 0x3C53 DUP6 DUP6 DUP5 PUSH2 0x41D2 SWAP1 SWAP3 SWAP2 SWAP1 PUSH4 0xFFFFFFFF AND JUMP JUMPDEST SWAP1 POP PUSH32 0xFFFFFFFFFFFFFFFFFFFFFFFFFFFFFFFFFFFFFFFFFFFFFFFFFFFFFFFFFFFFFFFF DUP2 EQ ISZERO PUSH2 0x3CAF JUMPI PUSH1 0x40 MLOAD PUSH32 0x10D6486100000000000000000000000000000000000000000000000000000000 DUP2 MSTORE PUSH1 0x4 ADD PUSH1 0x40 MLOAD DUP1 SWAP2 SUB SWAP1 REVERT JUMPDEST DUP6 PUSH1 0x1 PUSH1 0x3 DUP2 LT PUSH2 0x3CC3 JUMPI PUSH2 0x3CC2 PUSH2 0x4F4F JUMP JUMPDEST JUMPDEST ADD PUSH1 0x0 DUP3 DUP2 MSTORE PUSH1 0x20 ADD SWAP1 DUP2 MSTORE PUSH1 0x20 ADD PUSH1 0x0 KECCAK256 SLOAD SWAP2 POP PUSH2 0x3CF7 DUP2 PUSH2 0x3CEF DUP7 DUP6 PUSH2 0x422A SWAP1 SWAP2 SWAP1 PUSH4 0xFFFFFFFF AND JUMP JUMPDEST PUSH1 0xFF AND PUSH2 0x4214 JUMP JUMPDEST SWAP5 POP DUP6 PUSH1 0x2 PUSH1 0x3 DUP2 LT PUSH2 0x3D0D JUMPI PUSH2 0x3D0C PUSH2 0x4F4F JUMP JUMPDEST JUMPDEST ADD PUSH1 0x0 DUP7 PUSH3 0xFFFFFF AND DUP2 MSTORE PUSH1 0x20 ADD SWAP1 DUP2 MSTORE PUSH1 0x20 ADD PUSH1 0x0 KECCAK256 SLOAD SWAP2 POP PUSH2 0x3D46 DUP6 PUSH2 0x3D3E DUP7 DUP6 PUSH2 0x422A SWAP1 SWAP2 SWAP1 PUSH4 0xFFFFFFFF AND JUMP JUMPDEST PUSH1 0xFF AND PUSH2 0x4214 JUMP JUMPDEST SWAP3 POP POP POP JUMPDEST SWAP4 SWAP3 POP POP POP JUMP JUMPDEST PUSH1 0x60 PUSH1 0x0 DUP1 DUP5 PUSH20 0xFFFFFFFFFFFFFFFFFFFFFFFFFFFFFFFFFFFFFFFF AND DUP5 PUSH1 0x40 MLOAD PUSH2 0x3D7C SWAP2 SWAP1 PUSH2 0x5419 JUMP JUMPDEST PUSH1 0x0 PUSH1 0x40 MLOAD DUP1 DUP4 SUB DUP2 PUSH1 0x0 DUP7 GAS CALL SWAP2 POP POP RETURNDATASIZE DUP1 PUSH1 0x0 DUP2 EQ PUSH2 0x3DB9 JUMPI PUSH1 0x40 MLOAD SWAP2 POP PUSH1 0x1F NOT PUSH1 0x3F RETURNDATASIZE ADD AND DUP3 ADD PUSH1 0x40 MSTORE RETURNDATASIZE DUP3 MSTORE RETURNDATASIZE PUSH1 0x0 PUSH1 0x20 DUP5 ADD RETURNDATACOPY PUSH2 0x3DBE JUMP JUMPDEST PUSH1 0x60 SWAP2 POP JUMPDEST POP SWAP2 POP SWAP2 POP DUP2 ISZERO PUSH2 0x3E1C JUMPI PUSH1 0x0 DUP2 MLOAD EQ DUP1 ISZERO PUSH2 0x3DE0 JUMPI POP PUSH2 0x3DDE DUP6 PUSH2 0x4251 JUMP JUMPDEST ISZERO JUMPDEST ISZERO PUSH2 0x3E17 JUMPI PUSH1 0x40 MLOAD PUSH32 0x5D97DF8900000000000000000000000000000000000000000000000000000000 DUP2 MSTORE PUSH1 0x4 ADD PUSH1 0x40 MLOAD DUP1 SWAP2 SUB SWAP1 REVERT JUMPDEST PUSH2 0x3E60 JUMP JUMPDEST PUSH1 0x0 DUP2 MLOAD EQ ISZERO PUSH2 0x3E58 JUMPI PUSH1 0x40 MLOAD PUSH32 0x2407429100000000000000000000000000000000000000000000000000000000 DUP2 MSTORE PUSH1 0x4 ADD PUSH1 0x40 MLOAD DUP1 SWAP2 SUB SWAP1 REVERT JUMPDEST DUP1 MLOAD DUP2 PUSH1 0x20 ADD REVERT JUMPDEST DUP1 SWAP3 POP POP POP SWAP3 SWAP2 POP POP JUMP JUMPDEST PUSH1 0x0 PUSH2 0x2710 PUSH1 0x80 PUSH1 0x1 SWAP1 SHL DUP2 PUSH2 0x3E84 JUMPI PUSH2 0x3E83 PUSH2 0x50BB JUMP JUMPDEST JUMPDEST DIV PUSH1 0x80 PUSH1 0x1 SWAP1 SHL ADD SWAP1 POP SWAP1 JUMP JUMPDEST PUSH1 0x0 DUP1 PUSH1 0x0 DUP1 DUP5 EQ ISZERO PUSH2 0x3EAD JUMPI PUSH1 0x80 PUSH1 0x1 SWAP1 SHL SWAP3 POP POP POP PUSH2 0x4193 JUMP JUMPDEST DUP4 SWAP1 POP PUSH1 0x0 DUP2 SLT ISZERO PUSH2 0x3EC4 JUMPI DUP1 PUSH1 0x0 SUB SWAP1 POP DUP2 ISZERO SWAP2 POP JUMPDEST PUSH3 0x100000 DUP2 LT ISZERO PUSH2 0x410E JUMPI PUSH1 0x80 PUSH1 0x1 SWAP1 SHL SWAP3 POP DUP5 PUSH16 0xFFFFFFFFFFFFFFFFFFFFFFFFFFFFFFFF DUP7 GT ISZERO PUSH2 0x3EFC JUMPI DUP1 PUSH1 0x0 NOT DIV SWAP1 POP DUP3 ISZERO SWAP3 POP JUMPDEST PUSH1 0x1 DUP3 AND ISZERO PUSH2 0x3F0E JUMPI DUP1 DUP5 MUL PUSH1 0x80 SHR SWAP4 POP JUMPDEST DUP1 DUP2 MUL PUSH1 0x80 SHR SWAP1 POP PUSH1 0x2 DUP3 AND ISZERO PUSH2 0x3F28 JUMPI DUP1 DUP5 MUL PUSH1 0x80 SHR SWAP4 POP JUMPDEST DUP1 DUP2 MUL PUSH1 0x80 SHR SWAP1 POP PUSH1 0x4 DUP3 AND ISZERO PUSH2 0x3F42 JUMPI DUP1 DUP5 MUL PUSH1 0x80 SHR SWAP4 POP JUMPDEST DUP1 DUP2 MUL PUSH1 0x80 SHR SWAP1 POP PUSH1 0x8 DUP3 AND ISZERO PUSH2 0x3F5C JUMPI DUP1 DUP5 MUL PUSH1 0x80 SHR SWAP4 POP JUMPDEST DUP1 DUP2 MUL PUSH1 0x80 SHR SWAP1 POP PUSH1 0x10 DUP3 AND ISZERO PUSH2 0x3F76 JUMPI DUP1 DUP5 MUL PUSH1 0x80 SHR SWAP4 POP JUMPDEST DUP1 DUP2 MUL PUSH1 0x80 SHR SWAP1 POP PUSH1 0x20 DUP3 AND ISZERO PUSH2 0x3F90 JUMPI DUP1 DUP5 MUL PUSH1 0x80 SHR SWAP4 POP JUMPDEST DUP1 DUP2 MUL PUSH1 0x80 SHR SWAP1 POP PUSH1 0x40 DUP3 AND ISZERO PUSH2 0x3FAA JUMPI DUP1 DUP5 MUL PUSH1 0x80 SHR SWAP4 POP JUMPDEST DUP1 DUP2 MUL PUSH1 0x80 SHR SWAP1 POP PUSH1 0x80 DUP3 AND ISZERO PUSH2 0x3FC4 JUMPI DUP1 DUP5 MUL PUSH1 0x80 SHR SWAP4 POP JUMPDEST DUP1 DUP2 MUL PUSH1 0x80 SHR SWAP1 POP PUSH2 0x100 DUP3 AND ISZERO PUSH2 0x3FDF JUMPI DUP1 DUP5 MUL PUSH1 0x80 SHR SWAP4 POP JUMPDEST DUP1 DUP2 MUL PUSH1 0x80 SHR SWAP1 POP PUSH2 0x200 DUP3 AND ISZERO PUSH2 0x3FFA JUMPI DUP1 DUP5 MUL PUSH1 0x80 SHR SWAP4 POP JUMPDEST DUP1 DUP2 MUL PUSH1 0x80 SHR SWAP1 POP PUSH2 0x400 DUP3 AND ISZERO PUSH2 0x4015 JUMPI DUP1 DUP5 MUL PUSH1 0x80 SHR SWAP4 POP JUMPDEST DUP1 DUP2 MUL PUSH1 0x80 SHR SWAP1 POP PUSH2 0x800 DUP3 AND ISZERO PUSH2 0x4030 JUMPI DUP1 DUP5 MUL PUSH1 0x80 SHR SWAP4 POP JUMPDEST DUP1 DUP2 MUL PUSH1 0x80 SHR SWAP1 POP PUSH2 0x1000 DUP3 AND ISZERO PUSH2 0x404B JUMPI DUP1 DUP5 MUL PUSH1 0x80 SHR SWAP4 POP JUMPDEST DUP1 DUP2 MUL PUSH1 0x80 SHR SWAP1 POP PUSH2 0x2000 DUP3 AND ISZERO PUSH2 0x4066 JUMPI DUP1 DUP5 MUL PUSH1 0x80 SHR SWAP4 POP JUMPDEST DUP1 DUP2 MUL PUSH1 0x80 SHR SWAP1 POP PUSH2 0x4000 DUP3 AND ISZERO PUSH2 0x4081 JUMPI DUP1 DUP5 MUL PUSH1 0x80 SHR SWAP4 POP JUMPDEST DUP1 DUP2 MUL PUSH1 0x80 SHR SWAP1 POP PUSH2 0x8000 DUP3 AND ISZERO PUSH2 0x409C JUMPI DUP1 DUP5 MUL PUSH1 0x80 SHR SWAP4 POP JUMPDEST DUP1 DUP2 MUL PUSH1 0x80 SHR SWAP1 POP PUSH3 0x10000 DUP3 AND ISZERO PUSH2 0x40B8 JUMPI DUP1 DUP5 MUL PUSH1 0x80 SHR SWAP4 POP JUMPDEST DUP1 DUP2 MUL PUSH1 0x80 SHR SWAP1 POP PUSH3 0x20000 DUP3 AND ISZERO PUSH2 0x40D4 JUMPI DUP1 DUP5 MUL PUSH1 0x80 SHR SWAP4 POP JUMPDEST DUP1 DUP2 MUL PUSH1 0x80 SHR SWAP1 POP PUSH3 0x40000 DUP3 AND ISZERO PUSH2 0x40F0 JUMPI DUP1 DUP5 MUL PUSH1 0x80 SHR SWAP4 POP JUMPDEST DUP1 DUP2 MUL PUSH1 0x80 SHR SWAP1 POP PUSH3 0x80000 DUP3 AND ISZERO PUSH2 0x410C JUMPI DUP1 DUP5 MUL PUSH1 0x80 SHR SWAP4 POP JUMPDEST POP JUMPDEST PUSH1 0x0 DUP4 EQ ISZERO PUSH2 0x4156 JUMPI DUP5 DUP5 PUSH1 0x40 MLOAD PUSH32 0x74E3EB0800000000000000000000000000000000000000000000000000000000 DUP2 MSTORE PUSH1 0x4 ADD PUSH2 0x414D SWAP3 SWAP2 SWAP1 PUSH2 0x5449 JUMP JUMPDEST PUSH1 0x40 MLOAD DUP1 SWAP2 SUB SWAP1 REVERT JUMPDEST DUP2 PUSH2 0x4161 JUMPI DUP3 PUSH2 0x418E JUMP JUMPDEST DUP3 PUSH32 0xFFFFFFFFFFFFFFFFFFFFFFFFFFFFFFFFFFFFFFFFFFFFFFFFFFFFFFFFFFFFFFFF PUSH2 0x418D SWAP2 SWAP1 PUSH2 0x511B JUMP JUMPDEST JUMPDEST SWAP3 POP POP POP JUMPDEST SWAP3 SWAP2 POP POP JUMP JUMPDEST PUSH1 0x0 DUP1 PUSH1 0x0 NOT DUP4 DUP6 MULMOD DUP4 DUP6 MUL SWAP3 POP DUP3 DUP2 LT DUP4 DUP3 SUB SUB SWAP2 POP POP SWAP3 POP SWAP3 SWAP1 POP JUMP JUMPDEST PUSH1 0x0 DUP1 PUSH1 0x8 DUP4 PUSH3 0xFFFFFF AND SWAP1 SHR PUSH1 0xFF DUP5 AND SWAP2 POP SWAP2 POP SWAP2 POP SWAP2 JUMP JUMPDEST PUSH1 0x0 DUP2 PUSH2 0x41F4 JUMPI PUSH2 0x41EF DUP5 PUSH1 0x1 DUP6 PUSH2 0x41EA SWAP2 SWAP1 PUSH2 0x547F JUMP JUMPDEST PUSH2 0x4274 JUMP JUMPDEST PUSH2 0x420B JUMP JUMPDEST PUSH2 0x420A DUP5 PUSH1 0x1 DUP6 PUSH2 0x4205 SWAP2 SWAP1 PUSH2 0x54B6 JUMP JUMPDEST PUSH2 0x42C4 JUMP JUMPDEST JUMPDEST SWAP1 POP SWAP4 SWAP3 POP POP POP JUMP JUMPDEST PUSH1 0x0 DUP2 PUSH1 0x8 DUP5 PUSH3 0xFFFFFF AND SWAP1 SHL ADD SWAP1 POP SWAP3 SWAP2 POP POP JUMP JUMPDEST PUSH1 0x0 DUP2 PUSH2 0x423F JUMPI PUSH2 0x423A DUP4 PUSH2 0x431C JUMP JUMPDEST PUSH2 0x4249 JUMP JUMPDEST PUSH2 0x4248 DUP4 PUSH2 0x43EF JUMP JUMPDEST JUMPDEST SWAP1 POP SWAP3 SWAP2 POP POP JUMP JUMPDEST PUSH1 0x0 DUP1 DUP3 PUSH20 0xFFFFFFFFFFFFFFFFFFFFFFFFFFFFFFFFFFFFFFFF AND EXTCODESIZE GT SWAP1 POP SWAP2 SWAP1 POP JUMP JUMPDEST PUSH1 0x0 DUP2 PUSH1 0xFF AND DUP4 SWAP1 SHR SWAP3 POP PUSH1 0x0 DUP4 EQ PUSH2 0x429A JUMPI DUP2 PUSH2 0x4291 DUP5 PUSH2 0x431C JUMP JUMPDEST ADD PUSH1 0xFF AND PUSH2 0x42BC JUMP JUMPDEST PUSH32 0xFFFFFFFFFFFFFFFFFFFFFFFFFFFFFFFFFFFFFFFFFFFFFFFFFFFFFFFFFFFFFFFF JUMPDEST SWAP1 POP SWAP3 SWAP2 POP POP JUMP JUMPDEST PUSH1 0x0 DUP1 DUP3 PUSH1 0xFF SUB PUSH1 0xFF AND SWAP1 POP DUP1 DUP5 SWAP1 SHL SWAP4 POP PUSH1 0x0 DUP5 EQ PUSH2 0x42F1 JUMPI DUP1 PUSH2 0x42E8 DUP6 PUSH2 0x43EF JUMP JUMPDEST PUSH1 0xFF AND SUB PUSH2 0x4313 JUMP JUMPDEST PUSH32 0xFFFFFFFFFFFFFFFFFFFFFFFFFFFFFFFFFFFFFFFFFFFFFFFFFFFFFFFFFFFFFFFF JUMPDEST SWAP2 POP POP SWAP3 SWAP2 POP POP JUMP JUMPDEST PUSH1 0x0 DUP1 PUSH1 0x80 DUP4 SWAP1 SHL EQ PUSH2 0x4335 JUMPI PUSH1 0x80 DUP3 SWAP1 SHL SWAP2 POP PUSH1 0x80 SWAP1 POP JUMPDEST PUSH1 0x0 PUSH1 0x40 DUP4 SWAP1 SHL EQ PUSH2 0x434F JUMPI PUSH1 0x40 DUP3 SWAP1 SHL SWAP2 POP PUSH1 0x40 DUP2 ADD SWAP1 POP JUMPDEST PUSH1 0x0 PUSH1 0x20 DUP4 SWAP1 SHL EQ PUSH2 0x4369 JUMPI PUSH1 0x20 DUP3 SWAP1 SHL SWAP2 POP PUSH1 0x20 DUP2 ADD SWAP1 POP JUMPDEST PUSH1 0x0 PUSH1 0x10 DUP4 SWAP1 SHL EQ PUSH2 0x4383 JUMPI PUSH1 0x10 DUP3 SWAP1 SHL SWAP2 POP PUSH1 0x10 DUP2 ADD SWAP1 POP JUMPDEST PUSH1 0x0 PUSH1 0x8 DUP4 SWAP1 SHL EQ PUSH2 0x439D JUMPI PUSH1 0x8 DUP3 SWAP1 SHL SWAP2 POP PUSH1 0x8 DUP2 ADD SWAP1 POP JUMPDEST PUSH1 0x0 PUSH1 0x4 DUP4 SWAP1 SHL EQ PUSH2 0x43B7 JUMPI PUSH1 0x4 DUP3 SWAP1 SHL SWAP2 POP PUSH1 0x4 DUP2 ADD SWAP1 POP JUMPDEST PUSH1 0x0 PUSH1 0x2 DUP4 SWAP1 SHL EQ PUSH2 0x43D1 JUMPI PUSH1 0x2 DUP3 SWAP1 SHL SWAP2 POP PUSH1 0x2 DUP2 ADD SWAP1 POP JUMPDEST PUSH1 0x0 PUSH1 0x1 DUP4 SWAP1 SHL EQ PUSH2 0x43E4 JUMPI PUSH1 0x1 DUP2 ADD SWAP1 POP JUMPDEST DUP1 PUSH1 0xFF SUB SWAP1 POP SWAP2 SWAP1 POP JUMP JUMPDEST PUSH1 0x0 PUSH17 0x100000000000000000000000000000000 DUP3 LT PUSH2 0x4415 JUMPI PUSH1 0x80 DUP3 SWAP1 SHR SWAP2 POP PUSH1 0x80 SWAP1 POP JUMPDEST PUSH9 0x10000000000000000 DUP3 LT PUSH2 0x4433 JUMPI PUSH1 0x40 DUP3 SWAP1 SHR SWAP2 POP PUSH1 0x40 DUP2 ADD SWAP1 POP JUMPDEST PUSH5 0x100000000 DUP3 LT PUSH2 0x444D JUMPI PUSH1 0x20 DUP3 SWAP1 SHR SWAP2 POP PUSH1 0x20 DUP2 ADD SWAP1 POP JUMPDEST PUSH3 0x10000 DUP3 LT PUSH2 0x4465 JUMPI PUSH1 0x10 DUP3 SWAP1 SHR SWAP2 POP PUSH1 0x10 DUP2 ADD SWAP1 POP JUMPDEST PUSH2 0x100 DUP3 LT PUSH2 0x447C JUMPI PUSH1 0x8 DUP3 SWAP1 SHR SWAP2 POP PUSH1 0x8 DUP2 ADD SWAP1 POP JUMPDEST PUSH1 0x10 DUP3 LT PUSH2 0x4492 JUMPI PUSH1 0x4 DUP3 SWAP1 SHR SWAP2 POP PUSH1 0x4 DUP2 ADD SWAP1 POP JUMPDEST PUSH1 0x4 DUP3 LT PUSH2 0x44A8 JUMPI PUSH1 0x2 DUP3 SWAP1 SHR SWAP2 POP PUSH1 0x2 DUP2 ADD SWAP1 POP JUMPDEST PUSH1 0x2 DUP3 LT PUSH2 0x44B7 JUMPI PUSH1 0x1 DUP2 ADD SWAP1 POP JUMPDEST SWAP2 SWAP1 POP JUMP JUMPDEST DUP3 PUSH1 0x2 DUP2 ADD SWAP3 DUP3 ISZERO PUSH2 0x44EB JUMPI SWAP2 PUSH1 0x20 MUL DUP3 ADD JUMPDEST DUP3 DUP2 GT ISZERO PUSH2 0x44EA JUMPI DUP3 MLOAD DUP3 SSTORE SWAP2 PUSH1 0x20 ADD SWAP2 SWAP1 PUSH1 0x1 ADD SWAP1 PUSH2 0x44CF JUMP JUMPDEST JUMPDEST POP SWAP1 POP PUSH2 0x44F8 SWAP2 SWAP1 PUSH2 0x4623 JUMP JUMPDEST POP SWAP1 JUMP JUMPDEST DUP3 DUP1 SLOAD DUP3 DUP3 SSTORE SWAP1 PUSH1 0x0 MSTORE PUSH1 0x20 PUSH1 0x0 KECCAK256 SWAP1 PUSH1 0x9 ADD PUSH1 0xA SWAP1 DIV DUP2 ADD SWAP3 DUP3 ISZERO PUSH2 0x459D JUMPI SWAP2 PUSH1 0x20 MUL DUP3 ADD PUSH1 0x0 JUMPDEST DUP4 DUP3 GT ISZERO PUSH2 0x456C JUMPI DUP4 CALLDATALOAD PUSH3 0xFFFFFF AND DUP4 DUP3 PUSH2 0x100 EXP DUP2 SLOAD DUP2 PUSH3 0xFFFFFF MUL NOT AND SWAP1 DUP4 PUSH3 0xFFFFFF AND MUL OR SWAP1 SSTORE POP SWAP3 PUSH1 0x20 ADD SWAP3 PUSH1 0x3 ADD PUSH1 0x20 DUP2 PUSH1 0x2 ADD DIV SWAP3 DUP4 ADD SWAP3 PUSH1 0x1 SUB MUL PUSH2 0x4525 JUMP JUMPDEST DUP1 ISZERO PUSH2 0x459B JUMPI DUP3 DUP2 PUSH2 0x100 EXP DUP2 SLOAD SWAP1 PUSH3 0xFFFFFF MUL NOT AND SWAP1 SSTORE PUSH1 0x3 ADD PUSH1 0x20 DUP2 PUSH1 0x2 ADD DIV SWAP3 DUP4 ADD SWAP3 PUSH1 0x1 SUB MUL PUSH2 0x456C JUMP JUMPDEST POP JUMPDEST POP SWAP1 POP PUSH2 0x45AA SWAP2 SWAP1 PUSH2 0x4623 JUMP JUMPDEST POP SWAP1 JUMP JUMPDEST POP DUP1 SLOAD PUSH1 0x0 DUP3 SSTORE PUSH1 0x9 ADD PUSH1 0xA SWAP1 DIV SWAP1 PUSH1 0x0 MSTORE PUSH1 0x20 PUSH1 0x0 KECCAK256 SWAP1 DUP2 ADD SWAP1 PUSH2 0x45D3 SWAP2 SWAP1 PUSH2 0x4623 JUMP JUMPDEST POP JUMP JUMPDEST DUP3 DUP1 SLOAD DUP3 DUP3 SSTORE SWAP1 PUSH1 0x0 MSTORE PUSH1 0x20 PUSH1 0x0 KECCAK256 SWAP1 DUP2 ADD SWAP3 DUP3 ISZERO PUSH2 0x4612 JUMPI SWAP2 PUSH1 0x20 MUL DUP3 ADD JUMPDEST DUP3 DUP2 GT ISZERO PUSH2 0x4611 JUMPI DUP3 MLOAD DUP3 SSTORE SWAP2 PUSH1 0x20 ADD SWAP2 SWAP1 PUSH1 0x1 ADD SWAP1 PUSH2 0x45F6 JUMP JUMPDEST JUMPDEST POP SWAP1 POP PUSH2 0x461F SWAP2 SWAP1 PUSH2 0x4623 JUMP JUMPDEST POP SWAP1 JUMP JUMPDEST JUMPDEST DUP1 DUP3 GT ISZERO PUSH2 0x463C JUMPI PUSH1 0x0 DUP2 PUSH1 0x0 SWAP1 SSTORE POP PUSH1 0x1 ADD PUSH2 0x4624 JUMP JUMPDEST POP SWAP1 JUMP JUMPDEST PUSH1 0x0 PUSH1 0x40 MLOAD SWAP1 POP SWAP1 JUMP JUMPDEST PUSH1 0x0 DUP1 REVERT JUMPDEST PUSH1 0x0 DUP1 REVERT JUMPDEST PUSH1 0x0 PUSH32 0xFFFFFFFF00000000000000000000000000000000000000000000000000000000 DUP3 AND SWAP1 POP SWAP2 SWAP1 POP JUMP JUMPDEST PUSH2 0x4689 DUP2 PUSH2 0x4654 JUMP JUMPDEST DUP2 EQ PUSH2 0x4694 JUMPI PUSH1 0x0 DUP1 REVERT JUMPDEST POP JUMP JUMPDEST PUSH1 0x0 DUP2 CALLDATALOAD SWAP1 POP PUSH2 0x46A6 DUP2 PUSH2 0x4680 JUMP JUMPDEST SWAP3 SWAP2 POP POP JUMP JUMPDEST PUSH1 0x0 PUSH1 0x20 DUP3 DUP5 SUB SLT ISZERO PUSH2 0x46C2 JUMPI PUSH2 0x46C1 PUSH2 0x464A JUMP JUMPDEST JUMPDEST PUSH1 0x0 PUSH2 0x46D0 DUP5 DUP3 DUP6 ADD PUSH2 0x4697 JUMP JUMPDEST SWAP2 POP POP SWAP3 SWAP2 POP POP JUMP JUMPDEST PUSH1 0x0 DUP2 ISZERO ISZERO SWAP1 POP SWAP2 SWAP1 POP JUMP JUMPDEST PUSH2 0x46EE DUP2 PUSH2 0x46D9 JUMP JUMPDEST DUP3 MSTORE POP POP JUMP JUMPDEST PUSH1 0x0 PUSH1 0x20 DUP3 ADD SWAP1 POP PUSH2 0x4709 PUSH1 0x0 DUP4 ADD DUP5 PUSH2 0x46E5 JUMP JUMPDEST SWAP3 SWAP2 POP POP JUMP JUMPDEST PUSH1 0x0 PUSH3 0xFFFFFF DUP3 AND SWAP1 POP SWAP2 SWAP1 POP JUMP JUMPDEST PUSH2 0x4727 DUP2 PUSH2 0x470F JUMP JUMPDEST DUP2 EQ PUSH2 0x4732 JUMPI PUSH1 0x0 DUP1 REVERT JUMPDEST POP JUMP JUMPDEST PUSH1 0x0 DUP2 CALLDATALOAD SWAP1 POP PUSH2 0x4744 DUP2 PUSH2 0x471E JUMP JUMPDEST SWAP3 SWAP2 POP POP JUMP JUMPDEST PUSH1 0x0 PUSH1 0x20 DUP3 DUP5 SUB SLT ISZERO PUSH2 0x4760 JUMPI PUSH2 0x475F PUSH2 0x464A JUMP JUMPDEST JUMPDEST PUSH1 0x0 PUSH2 0x476E DUP5 DUP3 DUP6 ADD PUSH2 0x4735 JUMP JUMPDEST SWAP2 POP POP SWAP3 SWAP2 POP POP JUMP JUMPDEST PUSH1 0x0 DUP2 SWAP1 POP SWAP2 SWAP1 POP JUMP JUMPDEST PUSH2 0x478A DUP2 PUSH2 0x4777 JUMP JUMPDEST DUP3 MSTORE POP POP JUMP JUMPDEST PUSH1 0x0 PUSH1 0x40 DUP3 ADD SWAP1 POP PUSH2 0x47A5 PUSH1 0x0 DUP4 ADD DUP6 PUSH2 0x4781 JUMP JUMPDEST PUSH2 0x47B2 PUSH1 0x20 DUP4 ADD DUP5 PUSH2 0x4781 JUMP JUMPDEST SWAP4 SWAP3 POP POP POP JUMP JUMPDEST PUSH1 0x0 PUSH20 0xFFFFFFFFFFFFFFFFFFFFFFFFFFFFFFFFFFFFFFFF DUP3 AND SWAP1 POP SWAP2 SWAP1 POP JUMP JUMPDEST PUSH1 0x0 DUP2 SWAP1 POP SWAP2 SWAP1 POP JUMP JUMPDEST PUSH1 0x0 PUSH2 0x47FE PUSH2 0x47F9 PUSH2 0x47F4 DUP5 PUSH2 0x47B9 JUMP JUMPDEST PUSH2 0x47D9 JUMP JUMPDEST PUSH2 0x47B9 JUMP JUMPDEST SWAP1 POP SWAP2 SWAP1 POP JUMP JUMPDEST PUSH1 0x0 PUSH2 0x4810 DUP3 PUSH2 0x47E3 JUMP JUMPDEST SWAP1 POP SWAP2 SWAP1 POP JUMP JUMPDEST PUSH1 0x0 PUSH2 0x4822 DUP3 PUSH2 0x4805 JUMP JUMPDEST SWAP1 POP SWAP2 SWAP1 POP JUMP JUMPDEST PUSH2 0x4832 DUP2 PUSH2 0x4817 JUMP JUMPDEST DUP3 MSTORE POP POP JUMP JUMPDEST PUSH1 0x0 PUSH1 0x20 DUP3 ADD SWAP1 POP PUSH2 0x484D PUSH1 0x0 DUP4 ADD DUP5 PUSH2 0x4829 JUMP JUMPDEST SWAP3 SWAP2 POP POP JUMP JUMPDEST PUSH1 0x0 PUSH1 0x80 DUP3 ADD SWAP1 POP PUSH2 0x4868 PUSH1 0x0 DUP4 ADD DUP8 PUSH2 0x4781 JUMP JUMPDEST PUSH2 0x4875 PUSH1 0x20 DUP4 ADD DUP7 PUSH2 0x4781 JUMP JUMPDEST PUSH2 0x4882 PUSH1 0x40 DUP4 ADD DUP6 PUSH2 0x4781 JUMP JUMPDEST PUSH2 0x488F PUSH1 0x60 DUP4 ADD DUP5 PUSH2 0x4781 JUMP JUMPDEST SWAP6 SWAP5 POP POP POP POP POP JUMP JUMPDEST PUSH1 0x0 PUSH2 0x48A3 DUP3 PUSH2 0x4805 JUMP JUMPDEST SWAP1 POP SWAP2 SWAP1 POP JUMP JUMPDEST PUSH2 0x48B3 DUP2 PUSH2 0x4898 JUMP JUMPDEST DUP3 MSTORE POP POP JUMP JUMPDEST PUSH1 0x0 PUSH1 0x20 DUP3 ADD SWAP1 POP PUSH2 0x48CE PUSH1 0x0 DUP4 ADD DUP5 PUSH2 0x48AA JUMP JUMPDEST SWAP3 SWAP2 POP POP JUMP JUMPDEST PUSH1 0x0 DUP1 REVERT JUMPDEST PUSH1 0x0 DUP1 REVERT JUMPDEST PUSH1 0x0 DUP1 REVERT JUMPDEST PUSH1 0x0 DUP1 DUP4 PUSH1 0x1F DUP5 ADD SLT PUSH2 0x48F9 JUMPI PUSH2 0x48F8 PUSH2 0x48D4 JUMP JUMPDEST JUMPDEST DUP3 CALLDATALOAD SWAP1 POP PUSH8 0xFFFFFFFFFFFFFFFF DUP2 GT ISZERO PUSH2 0x4916 JUMPI PUSH2 0x4915 PUSH2 0x48D9 JUMP JUMPDEST JUMPDEST PUSH1 0x20 DUP4 ADD SWAP2 POP DUP4 PUSH1 0x20 DUP3 MUL DUP4 ADD GT ISZERO PUSH2 0x4932 JUMPI PUSH2 0x4931 PUSH2 0x48DE JUMP JUMPDEST JUMPDEST SWAP3 POP SWAP3 SWAP1 POP JUMP JUMPDEST PUSH1 0x0 DUP1 DUP4 PUSH1 0x1F DUP5 ADD SLT PUSH2 0x494F JUMPI PUSH2 0x494E PUSH2 0x48D4 JUMP JUMPDEST JUMPDEST DUP3 CALLDATALOAD SWAP1 POP PUSH8 0xFFFFFFFFFFFFFFFF DUP2 GT ISZERO PUSH2 0x496C JUMPI PUSH2 0x496B PUSH2 0x48D9 JUMP JUMPDEST JUMPDEST PUSH1 0x20 DUP4 ADD SWAP2 POP DUP4 PUSH1 0x20 DUP3 MUL DUP4 ADD GT ISZERO PUSH2 0x4988 JUMPI PUSH2 0x4987 PUSH2 0x48DE JUMP JUMPDEST JUMPDEST SWAP3 POP SWAP3 SWAP1 POP JUMP JUMPDEST PUSH1 0x0 PUSH2 0x499A DUP3 PUSH2 0x47B9 JUMP JUMPDEST SWAP1 POP SWAP2 SWAP1 POP JUMP JUMPDEST PUSH2 0x49AA DUP2 PUSH2 0x498F JUMP JUMPDEST DUP2 EQ PUSH2 0x49B5 JUMPI PUSH1 0x0 DUP1 REVERT JUMPDEST POP JUMP JUMPDEST PUSH1 0x0 DUP2 CALLDATALOAD SWAP1 POP PUSH2 0x49C7 DUP2 PUSH2 0x49A1 JUMP JUMPDEST SWAP3 SWAP2 POP POP JUMP JUMPDEST PUSH1 0x0 DUP1 PUSH1 0x0 DUP1 PUSH1 0x0 PUSH1 0x60 DUP7 DUP9 SUB SLT ISZERO PUSH2 0x49E9 JUMPI PUSH2 0x49E8 PUSH2 0x464A JUMP JUMPDEST JUMPDEST PUSH1 0x0 DUP7 ADD CALLDATALOAD PUSH8 0xFFFFFFFFFFFFFFFF DUP2 GT ISZERO PUSH2 0x4A07 JUMPI PUSH2 0x4A06 PUSH2 0x464F JUMP JUMPDEST JUMPDEST PUSH2 0x4A13 DUP9 DUP3 DUP10 ADD PUSH2 0x48E3 JUMP JUMPDEST SWAP6 POP SWAP6 POP POP PUSH1 0x20 DUP7 ADD CALLDATALOAD PUSH8 0xFFFFFFFFFFFFFFFF DUP2 GT ISZERO PUSH2 0x4A36 JUMPI PUSH2 0x4A35 PUSH2 0x464F JUMP JUMPDEST JUMPDEST PUSH2 0x4A42 DUP9 DUP3 DUP10 ADD PUSH2 0x4939 JUMP JUMPDEST SWAP4 POP SWAP4 POP POP PUSH1 0x40 PUSH2 0x4A55 DUP9 DUP3 DUP10 ADD PUSH2 0x49B8 JUMP JUMPDEST SWAP2 POP POP SWAP3 SWAP6 POP SWAP3 SWAP6 SWAP1 SWAP4 POP JUMP JUMPDEST PUSH1 0x0 PUSH1 0x20 DUP3 ADD SWAP1 POP PUSH2 0x4A77 PUSH1 0x0 DUP4 ADD DUP5 PUSH2 0x4781 JUMP JUMPDEST SWAP3 SWAP2 POP POP JUMP JUMPDEST PUSH1 0x0 PUSH2 0x4A88 DUP3 PUSH2 0x4805 JUMP JUMPDEST SWAP1 POP SWAP2 SWAP1 POP JUMP JUMPDEST PUSH2 0x4A98 DUP2 PUSH2 0x4A7D JUMP JUMPDEST DUP3 MSTORE POP POP JUMP JUMPDEST PUSH1 0x0 PUSH1 0x20 DUP3 ADD SWAP1 POP PUSH2 0x4AB3 PUSH1 0x0 DUP4 ADD DUP5 PUSH2 0x4A8F JUMP JUMPDEST SWAP3 SWAP2 POP POP JUMP JUMPDEST PUSH1 0x0 PUSH1 0x20 DUP3 DUP5 SUB SLT ISZERO PUSH2 0x4ACF JUMPI PUSH2 0x4ACE PUSH2 0x464A JUMP JUMPDEST JUMPDEST PUSH1 0x0 PUSH2 0x4ADD DUP5 DUP3 DUP6 ADD PUSH2 0x49B8 JUMP JUMPDEST SWAP2 POP POP SWAP3 SWAP2 POP POP JUMP JUMPDEST PUSH1 0x0 PUSH1 0x1F NOT PUSH1 0x1F DUP4 ADD AND SWAP1 POP SWAP2 SWAP1 POP JUMP JUMPDEST PUSH32 0x4E487B7100000000000000000000000000000000000000000000000000000000 PUSH1 0x0 MSTORE PUSH1 0x41 PUSH1 0x4 MSTORE PUSH1 0x24 PUSH1 0x0 REVERT JUMPDEST PUSH2 0x4B2F DUP3 PUSH2 0x4AE6 JUMP JUMPDEST DUP2 ADD DUP2 DUP2 LT PUSH8 0xFFFFFFFFFFFFFFFF DUP3 GT OR ISZERO PUSH2 0x4B4E JUMPI PUSH2 0x4B4D PUSH2 0x4AF7 JUMP JUMPDEST JUMPDEST DUP1 PUSH1 0x40 MSTORE POP POP POP JUMP JUMPDEST PUSH1 0x0 PUSH2 0x4B61 PUSH2 0x4640 JUMP JUMPDEST SWAP1 POP PUSH2 0x4B6D DUP3 DUP3 PUSH2 0x4B26 JUMP JUMPDEST SWAP2 SWAP1 POP JUMP JUMPDEST PUSH1 0x0 PUSH8 0xFFFFFFFFFFFFFFFF DUP3 GT ISZERO PUSH2 0x4B8D JUMPI PUSH2 0x4B8C PUSH2 0x4AF7 JUMP JUMPDEST JUMPDEST PUSH1 0x20 DUP3 MUL SWAP1 POP PUSH1 0x20 DUP2 ADD SWAP1 POP SWAP2 SWAP1 POP JUMP JUMPDEST PUSH2 0x4BA7 DUP2 PUSH2 0x4777 JUMP JUMPDEST DUP2 EQ PUSH2 0x4BB2 JUMPI PUSH1 0x0 DUP1 REVERT JUMPDEST POP JUMP JUMPDEST PUSH1 0x0 DUP2 CALLDATALOAD SWAP1 POP PUSH2 0x4BC4 DUP2 PUSH2 0x4B9E JUMP JUMPDEST SWAP3 SWAP2 POP POP JUMP JUMPDEST PUSH1 0x0 PUSH2 0x4BDD PUSH2 0x4BD8 DUP5 PUSH2 0x4B72 JUMP JUMPDEST PUSH2 0x4B57 JUMP JUMPDEST SWAP1 POP DUP1 DUP4 DUP3 MSTORE PUSH1 0x20 DUP3 ADD SWAP1 POP PUSH1 0x20 DUP5 MUL DUP4 ADD DUP6 DUP2 GT ISZERO PUSH2 0x4C00 JUMPI PUSH2 0x4BFF PUSH2 0x48DE JUMP JUMPDEST JUMPDEST DUP4 JUMPDEST DUP2 DUP2 LT ISZERO PUSH2 0x4C29 JUMPI DUP1 PUSH2 0x4C15 DUP9 DUP3 PUSH2 0x4BB5 JUMP JUMPDEST DUP5 MSTORE PUSH1 0x20 DUP5 ADD SWAP4 POP POP PUSH1 0x20 DUP2 ADD SWAP1 POP PUSH2 0x4C02 JUMP JUMPDEST POP POP POP SWAP4 SWAP3 POP POP POP JUMP JUMPDEST PUSH1 0x0 DUP3 PUSH1 0x1F DUP4 ADD SLT PUSH2 0x4C48 JUMPI PUSH2 0x4C47 PUSH2 0x48D4 JUMP JUMPDEST JUMPDEST DUP2 CALLDATALOAD PUSH2 0x4C58 DUP5 DUP3 PUSH1 0x20 DUP7 ADD PUSH2 0x4BCA JUMP JUMPDEST SWAP2 POP POP SWAP3 SWAP2 POP POP JUMP JUMPDEST PUSH1 0x0 DUP1 REVERT JUMPDEST PUSH1 0x0 PUSH8 0xFFFFFFFFFFFFFFFF DUP3 GT ISZERO PUSH2 0x4C81 JUMPI PUSH2 0x4C80 PUSH2 0x4AF7 JUMP JUMPDEST JUMPDEST PUSH2 0x4C8A DUP3 PUSH2 0x4AE6 JUMP JUMPDEST SWAP1 POP PUSH1 0x20 DUP2 ADD SWAP1 POP SWAP2 SWAP1 POP JUMP JUMPDEST DUP3 DUP2 DUP4 CALLDATACOPY PUSH1 0x0 DUP4 DUP4 ADD MSTORE POP POP POP JUMP JUMPDEST PUSH1 0x0 PUSH2 0x4CB9 PUSH2 0x4CB4 DUP5 PUSH2 0x4C66 JUMP JUMPDEST PUSH2 0x4B57 JUMP JUMPDEST SWAP1 POP DUP3 DUP2 MSTORE PUSH1 0x20 DUP2 ADD DUP5 DUP5 DUP5 ADD GT ISZERO PUSH2 0x4CD5 JUMPI PUSH2 0x4CD4 PUSH2 0x4C61 JUMP JUMPDEST JUMPDEST PUSH2 0x4CE0 DUP5 DUP3 DUP6 PUSH2 0x4C97 JUMP JUMPDEST POP SWAP4 SWAP3 POP POP POP JUMP JUMPDEST PUSH1 0x0 DUP3 PUSH1 0x1F DUP4 ADD SLT PUSH2 0x4CFD JUMPI PUSH2 0x4CFC PUSH2 0x48D4 JUMP JUMPDEST JUMPDEST DUP2 CALLDATALOAD PUSH2 0x4D0D DUP5 DUP3 PUSH1 0x20 DUP7 ADD PUSH2 0x4CA6 JUMP JUMPDEST SWAP2 POP POP SWAP3 SWAP2 POP POP JUMP JUMPDEST PUSH1 0x0 DUP1 PUSH1 0x0 DUP1 PUSH1 0x0 PUSH1 0xA0 DUP7 DUP9 SUB SLT ISZERO PUSH2 0x4D32 JUMPI PUSH2 0x4D31 PUSH2 0x464A JUMP JUMPDEST JUMPDEST PUSH1 0x0 PUSH2 0x4D40 DUP9 DUP3 DUP10 ADD PUSH2 0x49B8 JUMP JUMPDEST SWAP6 POP POP PUSH1 0x20 PUSH2 0x4D51 DUP9 DUP3 DUP10 ADD PUSH2 0x49B8 JUMP JUMPDEST SWAP5 POP POP PUSH1 0x40 DUP7 ADD CALLDATALOAD PUSH8 0xFFFFFFFFFFFFFFFF DUP2 GT ISZERO PUSH2 0x4D72 JUMPI PUSH2 0x4D71 PUSH2 0x464F JUMP JUMPDEST JUMPDEST PUSH2 0x4D7E DUP9 DUP3 DUP10 ADD PUSH2 0x4C33 JUMP JUMPDEST SWAP4 POP POP PUSH1 0x60 DUP7 ADD CALLDATALOAD PUSH8 0xFFFFFFFFFFFFFFFF DUP2 GT ISZERO PUSH2 0x4D9F JUMPI PUSH2 0x4D9E PUSH2 0x464F JUMP JUMPDEST JUMPDEST PUSH2 0x4DAB DUP9 DUP3 DUP10 ADD PUSH2 0x4C33 JUMP JUMPDEST SWAP3 POP POP PUSH1 0x80 DUP7 ADD CALLDATALOAD PUSH8 0xFFFFFFFFFFFFFFFF DUP2 GT ISZERO PUSH2 0x4DCC JUMPI PUSH2 0x4DCB PUSH2 0x464F JUMP JUMPDEST JUMPDEST PUSH2 0x4DD8 DUP9 DUP3 DUP10 ADD PUSH2 0x4CE8 JUMP JUMPDEST SWAP2 POP POP SWAP3 SWAP6 POP SWAP3 SWAP6 SWAP1 SWAP4 POP JUMP JUMPDEST PUSH2 0x4DEE DUP2 PUSH2 0x4654 JUMP JUMPDEST DUP3 MSTORE POP POP JUMP JUMPDEST PUSH1 0x0 PUSH1 0x20 DUP3 ADD SWAP1 POP PUSH2 0x4E09 PUSH1 0x0 DUP4 ADD DUP5 PUSH2 0x4DE5 JUMP JUMPDEST SWAP3 SWAP2 POP POP JUMP JUMPDEST PUSH1 0x0 PUSH2 0x4E1A DUP3 PUSH2 0x4805 JUMP JUMPDEST SWAP1 POP SWAP2 SWAP1 POP JUMP JUMPDEST PUSH2 0x4E2A DUP2 PUSH2 0x4E0F JUMP JUMPDEST DUP3 MSTORE POP POP JUMP JUMPDEST PUSH1 0x0 PUSH1 0x20 DUP3 ADD SWAP1 POP PUSH2 0x4E45 PUSH1 0x0 DUP4 ADD DUP5 PUSH2 0x4E21 JUMP JUMPDEST SWAP3 SWAP2 POP POP JUMP JUMPDEST PUSH1 0x0 DUP1 PUSH1 0x0 DUP1 PUSH1 0x0 PUSH1 0xA0 DUP7 DUP9 SUB SLT ISZERO PUSH2 0x4E67 JUMPI PUSH2 0x4E66 PUSH2 0x464A JUMP JUMPDEST JUMPDEST PUSH1 0x0 PUSH2 0x4E75 DUP9 DUP3 DUP10 ADD PUSH2 0x49B8 JUMP JUMPDEST SWAP6 POP POP PUSH1 0x20 PUSH2 0x4E86 DUP9 DUP3 DUP10 ADD PUSH2 0x49B8 JUMP JUMPDEST SWAP5 POP POP PUSH1 0x40 PUSH2 0x4E97 DUP9 DUP3 DUP10 ADD PUSH2 0x4BB5 JUMP JUMPDEST SWAP4 POP POP PUSH1 0x60 PUSH2 0x4EA8 DUP9 DUP3 DUP10 ADD PUSH2 0x4BB5 JUMP JUMPDEST SWAP3 POP POP PUSH1 0x80 DUP7 ADD CALLDATALOAD PUSH8 0xFFFFFFFFFFFFFFFF DUP2 GT ISZERO PUSH2 0x4EC9 JUMPI PUSH2 0x4EC8 PUSH2 0x464F JUMP JUMPDEST JUMPDEST PUSH2 0x4ED5 DUP9 DUP3 DUP10 ADD PUSH2 0x4CE8 JUMP JUMPDEST SWAP2 POP POP SWAP3 SWAP6 POP SWAP3 SWAP6 SWAP1 SWAP4 POP JUMP JUMPDEST PUSH1 0x0 DUP1 PUSH1 0x40 DUP4 DUP6 SUB SLT ISZERO PUSH2 0x4EF9 JUMPI PUSH2 0x4EF8 PUSH2 0x464A JUMP JUMPDEST JUMPDEST PUSH1 0x0 PUSH2 0x4F07 DUP6 DUP3 DUP7 ADD PUSH2 0x4BB5 JUMP JUMPDEST SWAP3 POP POP PUSH1 0x20 PUSH2 0x4F18 DUP6 DUP3 DUP7 ADD PUSH2 0x49B8 JUMP JUMPDEST SWAP2 POP POP SWAP3 POP SWAP3 SWAP1 POP JUMP JUMPDEST PUSH1 0x0 PUSH1 0x20 DUP3 DUP5 SUB SLT ISZERO PUSH2 0x4F38 JUMPI PUSH2 0x4F37 PUSH2 0x464A JUMP JUMPDEST JUMPDEST PUSH1 0x0 PUSH2 0x4F46 DUP5 DUP3 DUP6 ADD PUSH2 0x4BB5 JUMP JUMPDEST SWAP2 POP POP SWAP3 SWAP2 POP POP JUMP JUMPDEST PUSH32 0x4E487B7100000000000000000000000000000000000000000000000000000000 PUSH1 0x0 MSTORE PUSH1 0x32 PUSH1 0x4 MSTORE PUSH1 0x24 PUSH1 0x0 REVERT JUMPDEST PUSH32 0x4E487B7100000000000000000000000000000000000000000000000000000000 PUSH1 0x0 MSTORE PUSH1 0x11 PUSH1 0x4 MSTORE PUSH1 0x24 PUSH1 0x0 REVERT JUMPDEST PUSH1 0x0 PUSH2 0x4FB8 DUP3 PUSH2 0x4777 JUMP JUMPDEST SWAP2 POP PUSH2 0x4FC3 DUP4 PUSH2 0x4777 JUMP JUMPDEST SWAP3 POP DUP3 PUSH32 0xFFFFFFFFFFFFFFFFFFFFFFFFFFFFFFFFFFFFFFFFFFFFFFFFFFFFFFFFFFFFFFFF SUB DUP3 GT ISZERO PUSH2 0x4FF8 JUMPI PUSH2 0x4FF7 PUSH2 0x4F7E JUMP JUMPDEST JUMPDEST DUP3 DUP3 ADD SWAP1 POP SWAP3 SWAP2 POP POP JUMP JUMPDEST PUSH2 0x500C DUP2 PUSH2 0x498F JUMP JUMPDEST DUP3 MSTORE POP POP JUMP JUMPDEST PUSH1 0x0 PUSH1 0x40 DUP3 ADD SWAP1 POP PUSH2 0x5027 PUSH1 0x0 DUP4 ADD DUP6 PUSH2 0x5003 JUMP JUMPDEST PUSH2 0x5034 PUSH1 0x20 DUP4 ADD DUP5 PUSH2 0x4781 JUMP JUMPDEST SWAP4 SWAP3 POP POP POP JUMP JUMPDEST PUSH1 0x0 PUSH2 0x5046 DUP3 PUSH2 0x4777 JUMP JUMPDEST SWAP2 POP PUSH2 0x5051 DUP4 PUSH2 0x4777 JUMP JUMPDEST SWAP3 POP DUP3 DUP3 LT ISZERO PUSH2 0x5064 JUMPI PUSH2 0x5063 PUSH2 0x4F7E JUMP JUMPDEST JUMPDEST DUP3 DUP3 SUB SWAP1 POP SWAP3 SWAP2 POP POP JUMP JUMPDEST PUSH1 0x0 PUSH2 0x508A PUSH2 0x5085 PUSH2 0x5080 DUP5 PUSH2 0x470F JUMP JUMPDEST PUSH2 0x47D9 JUMP JUMPDEST PUSH2 0x4777 JUMP JUMPDEST SWAP1 POP SWAP2 SWAP1 POP JUMP JUMPDEST PUSH2 0x509A DUP2 PUSH2 0x506F JUMP JUMPDEST DUP3 MSTORE POP POP JUMP JUMPDEST PUSH1 0x0 PUSH1 0x20 DUP3 ADD SWAP1 POP PUSH2 0x50B5 PUSH1 0x0 DUP4 ADD DUP5 PUSH2 0x5091 JUMP JUMPDEST SWAP3 SWAP2 POP POP JUMP JUMPDEST PUSH32 0x4E487B7100000000000000000000000000000000000000000000000000000000 PUSH1 0x0 MSTORE PUSH1 0x12 PUSH1 0x4 MSTORE PUSH1 0x24 PUSH1 0x0 REVERT JUMPDEST PUSH1 0x0 PUSH2 0x50F5 DUP3 PUSH2 0x4777 JUMP JUMPDEST SWAP2 POP PUSH2 0x5100 DUP4 PUSH2 0x4777 JUMP JUMPDEST SWAP3 POP DUP3 PUSH2 0x5110 JUMPI PUSH2 0x510F PUSH2 0x50BB JUMP JUMPDEST JUMPDEST DUP3 DUP3 MOD SWAP1 POP SWAP3 SWAP2 POP POP JUMP JUMPDEST PUSH1 0x0 PUSH2 0x5126 DUP3 PUSH2 0x4777 JUMP JUMPDEST SWAP2 POP PUSH2 0x5131 DUP4 PUSH2 0x4777 JUMP JUMPDEST SWAP3 POP DUP3 PUSH2 0x5141 JUMPI PUSH2 0x5140 PUSH2 0x50BB JUMP JUMPDEST JUMPDEST DUP3 DUP3 DIV SWAP1 POP SWAP3 SWAP2 POP POP JUMP JUMPDEST PUSH1 0x0 DUP2 MLOAD SWAP1 POP PUSH2 0x515B DUP2 PUSH2 0x49A1 JUMP JUMPDEST SWAP3 SWAP2 POP POP JUMP JUMPDEST PUSH1 0x0 PUSH1 0x20 DUP3 DUP5 SUB SLT ISZERO PUSH2 0x5177 JUMPI PUSH2 0x5176 PUSH2 0x464A JUMP JUMPDEST JUMPDEST PUSH1 0x0 PUSH2 0x5185 DUP5 DUP3 DUP6 ADD PUSH2 0x514C JUMP JUMPDEST SWAP2 POP POP SWAP3 SWAP2 POP POP JUMP JUMPDEST PUSH1 0x0 PUSH1 0x40 DUP3 ADD SWAP1 POP PUSH2 0x51A3 PUSH1 0x0 DUP4 ADD DUP6 PUSH2 0x5003 JUMP JUMPDEST PUSH2 0x51B0 PUSH1 0x20 DUP4 ADD DUP5 PUSH2 0x5003 JUMP JUMPDEST SWAP4 SWAP3 POP POP POP JUMP JUMPDEST PUSH1 0x0 DUP3 DUP3 MSTORE PUSH1 0x20 DUP3 ADD SWAP1 POP SWAP3 SWAP2 POP POP JUMP JUMPDEST POP JUMP JUMPDEST PUSH1 0x0 PUSH2 0x51D8 PUSH1 0x0 DUP4 PUSH2 0x51B7 JUMP JUMPDEST SWAP2 POP PUSH2 0x51E3 DUP3 PUSH2 0x51C8 JUMP JUMPDEST PUSH1 0x0 DUP3 ADD SWAP1 POP SWAP2 SWAP1 POP JUMP JUMPDEST PUSH1 0x0 PUSH1 0xA0 DUP3 ADD SWAP1 POP PUSH2 0x5203 PUSH1 0x0 DUP4 ADD DUP8 PUSH2 0x5003 JUMP JUMPDEST PUSH2 0x5210 PUSH1 0x20 DUP4 ADD DUP7 PUSH2 0x5003 JUMP JUMPDEST PUSH2 0x521D PUSH1 0x40 DUP4 ADD DUP6 PUSH2 0x4781 JUMP JUMPDEST PUSH2 0x522A PUSH1 0x60 DUP4 ADD DUP5 PUSH2 0x4781 JUMP JUMPDEST DUP2 DUP2 SUB PUSH1 0x80 DUP4 ADD MSTORE PUSH2 0x523B DUP2 PUSH2 0x51CB JUMP JUMPDEST SWAP1 POP SWAP6 SWAP5 POP POP POP POP POP JUMP JUMPDEST PUSH1 0x0 PUSH2 0x5251 DUP3 PUSH2 0x4777 JUMP JUMPDEST SWAP2 POP PUSH2 0x525C DUP4 PUSH2 0x4777 JUMP JUMPDEST SWAP3 POP DUP2 PUSH32 0xFFFFFFFFFFFFFFFFFFFFFFFFFFFFFFFFFFFFFFFFFFFFFFFFFFFFFFFFFFFFFFFF DIV DUP4 GT DUP3 ISZERO ISZERO AND ISZERO PUSH2 0x5295 JUMPI PUSH2 0x5294 PUSH2 0x4F7E JUMP JUMPDEST JUMPDEST DUP3 DUP3 MUL SWAP1 POP SWAP3 SWAP2 POP POP JUMP JUMPDEST PUSH1 0x0 PUSH1 0x20 DUP3 ADD SWAP1 POP PUSH2 0x52B5 PUSH1 0x0 DUP4 ADD DUP5 PUSH2 0x5003 JUMP JUMPDEST SWAP3 SWAP2 POP POP JUMP JUMPDEST PUSH1 0x0 DUP2 MLOAD SWAP1 POP PUSH2 0x52CA DUP2 PUSH2 0x4B9E JUMP JUMPDEST SWAP3 SWAP2 POP POP JUMP JUMPDEST PUSH1 0x0 PUSH1 0x20 DUP3 DUP5 SUB SLT ISZERO PUSH2 0x52E6 JUMPI PUSH2 0x52E5 PUSH2 0x464A JUMP JUMPDEST JUMPDEST PUSH1 0x0 PUSH2 0x52F4 DUP5 DUP3 DUP6 ADD PUSH2 0x52BB JUMP JUMPDEST SWAP2 POP POP SWAP3 SWAP2 POP POP JUMP JUMPDEST PUSH1 0x0 PUSH2 0x5308 DUP3 PUSH2 0x4777 JUMP JUMPDEST SWAP2 POP PUSH32 0xFFFFFFFFFFFFFFFFFFFFFFFFFFFFFFFFFFFFFFFFFFFFFFFFFFFFFFFFFFFFFFFF DUP3 EQ ISZERO PUSH2 0x533B JUMPI PUSH2 0x533A PUSH2 0x4F7E JUMP JUMPDEST JUMPDEST PUSH1 0x1 DUP3 ADD SWAP1 POP SWAP2 SWAP1 POP JUMP JUMPDEST PUSH2 0x534F DUP2 PUSH2 0x46D9 JUMP JUMPDEST DUP2 EQ PUSH2 0x535A JUMPI PUSH1 0x0 DUP1 REVERT JUMPDEST POP JUMP JUMPDEST PUSH1 0x0 DUP2 MLOAD SWAP1 POP PUSH2 0x536C DUP2 PUSH2 0x5346 JUMP JUMPDEST SWAP3 SWAP2 POP POP JUMP JUMPDEST PUSH1 0x0 PUSH1 0x20 DUP3 DUP5 SUB SLT ISZERO PUSH2 0x5388 JUMPI PUSH2 0x5387 PUSH2 0x464A JUMP JUMPDEST JUMPDEST PUSH1 0x0 PUSH2 0x5396 DUP5 DUP3 DUP6 ADD PUSH2 0x535D JUMP JUMPDEST SWAP2 POP POP SWAP3 SWAP2 POP POP JUMP JUMPDEST PUSH1 0x0 DUP2 MLOAD SWAP1 POP SWAP2 SWAP1 POP JUMP JUMPDEST PUSH1 0x0 DUP2 SWAP1 POP SWAP3 SWAP2 POP POP JUMP JUMPDEST PUSH1 0x0 JUMPDEST DUP4 DUP2 LT ISZERO PUSH2 0x53D3 JUMPI DUP1 DUP3 ADD MLOAD DUP2 DUP5 ADD MSTORE PUSH1 0x20 DUP2 ADD SWAP1 POP PUSH2 0x53B8 JUMP JUMPDEST DUP4 DUP2 GT ISZERO PUSH2 0x53E2 JUMPI PUSH1 0x0 DUP5 DUP5 ADD MSTORE JUMPDEST POP POP POP POP JUMP JUMPDEST PUSH1 0x0 PUSH2 0x53F3 DUP3 PUSH2 0x539F JUMP JUMPDEST PUSH2 0x53FD DUP2 DUP6 PUSH2 0x53AA JUMP JUMPDEST SWAP4 POP PUSH2 0x540D DUP2 DUP6 PUSH1 0x20 DUP7 ADD PUSH2 0x53B5 JUMP JUMPDEST DUP1 DUP5 ADD SWAP2 POP POP SWAP3 SWAP2 POP POP JUMP JUMPDEST PUSH1 0x0 PUSH2 0x5425 DUP3 DUP5 PUSH2 0x53E8 JUMP JUMPDEST SWAP2 POP DUP2 SWAP1 POP SWAP3 SWAP2 POP POP JUMP JUMPDEST PUSH1 0x0 DUP2 SWAP1 POP SWAP2 SWAP1 POP JUMP JUMPDEST PUSH2 0x5443 DUP2 PUSH2 0x5430 JUMP JUMPDEST DUP3 MSTORE POP POP JUMP JUMPDEST PUSH1 0x0 PUSH1 0x40 DUP3 ADD SWAP1 POP PUSH2 0x545E PUSH1 0x0 DUP4 ADD DUP6 PUSH2 0x4781 JUMP JUMPDEST PUSH2 0x546B PUSH1 0x20 DUP4 ADD DUP5 PUSH2 0x543A JUMP JUMPDEST SWAP4 SWAP3 POP POP POP JUMP JUMPDEST PUSH1 0x0 PUSH1 0xFF DUP3 AND SWAP1 POP SWAP2 SWAP1 POP JUMP JUMPDEST PUSH1 0x0 PUSH2 0x548A DUP3 PUSH2 0x5472 JUMP JUMPDEST SWAP2 POP PUSH2 0x5495 DUP4 PUSH2 0x5472 JUMP JUMPDEST SWAP3 POP DUP3 PUSH1 0xFF SUB DUP3 GT ISZERO PUSH2 0x54AB JUMPI PUSH2 0x54AA PUSH2 0x4F7E JUMP JUMPDEST JUMPDEST DUP3 DUP3 ADD SWAP1 POP SWAP3 SWAP2 POP POP JUMP JUMPDEST PUSH1 0x0 PUSH2 0x54C1 DUP3 PUSH2 0x5472 JUMP JUMPDEST SWAP2 POP PUSH2 0x54CC DUP4 PUSH2 0x5472 JUMP JUMPDEST SWAP3 POP DUP3 DUP3 LT ISZERO PUSH2 0x54DF JUMPI PUSH2 0x54DE PUSH2 0x4F7E JUMP JUMPDEST JUMPDEST DUP3 DUP3 SUB SWAP1 POP SWAP3 SWAP2 POP POP JUMP INVALID LOG2 PUSH5 0x6970667358 0x22 SLT KECCAK256 0xC3 EXTCODEHASH 0xBD 0xB6 SMOD GT SWAP5 0x24 MSTORE8 DUP5 PUSH13 0xC3EE945CCF5FD95A26C0C77CE8 DUP13 0x2E PUSH30 0x9E1921038164736F6C634300080A00330000000000000000000000000000 "
		},
		"gasEstimates": {
			"creation": {
				"codeDepositCost": "4358400",
				"executionCost": "infinite",
				"totalCost": "infinite"
			},
			"external": {
				"burn(uint256,address)": "infinite",
				"buyNFT(address)": "infinite",
				"collectProtocolFees()": "infinite",
				"factory()": "infinite",
				"feeParameters()": "infinite",
				"getBin(uint24)": "infinite",
				"getFee(uint256)": "infinite",
				"getGlobalFees()": "infinite",
				"getPriceFromBin(uint24)": "infinite",
				"getReservesAndId()": "infinite",
				"lpToken()": "infinite",
				"mintFT(uint24[],uint256[],address)": "infinite",
				"mintNFT(uint24[],uint256[],address)": "infinite",
				"onERC1155BatchReceived(address,address,uint256[],uint256[],bytes)": "infinite",
				"onERC1155Received(address,address,uint256,uint256,bytes)": "infinite",
				"sellNFT(address)": "infinite",
				"supportsInterface(bytes4)": "751",
				"tokenX()": "infinite",
				"tokenY()": "infinite"
			},
			"internal": {
				"_getPriceFromBin(uint24)": "infinite",
				"_updateFeeBook(uint24)": "infinite"
			}
		},
		"methodIdentifiers": {
			"burn(uint256,address)": "fcd3533c",
			"buyNFT(address)": "ba79b564",
			"collectProtocolFees()": "a1af5b9a",
			"factory()": "c45a0155",
			"feeParameters()": "98c7adf3",
			"getBin(uint24)": "0abe9688",
			"getFee(uint256)": "fcee45f4",
			"getGlobalFees()": "a582cdaa",
			"getPriceFromBin(uint24)": "fd31c4ab",
			"getReservesAndId()": "1b05b83e",
			"lpToken()": "5fcbd285",
			"mintFT(uint24[],uint256[],address)": "720b9bbf",
			"mintNFT(uint24[],uint256[],address)": "c6deab32",
			"onERC1155BatchReceived(address,address,uint256[],uint256[],bytes)": "bc197c81",
			"onERC1155Received(address,address,uint256,uint256,bytes)": "f23a6e61",
			"sellNFT(address)": "d3f790d1",
			"supportsInterface(bytes4)": "01ffc9a7",
			"tokenX()": "16dc165b",
			"tokenY()": "b7d19fc4"
		}
	},
	"abi": [
		{
			"inputs": [
				{
					"internalType": "address",
					"name": "_factory",
					"type": "address"
				},
				{
					"internalType": "address",
					"name": "_nftAddress",
					"type": "address"
				},
				{
					"internalType": "address",
					"name": "_ftAddress",
					"type": "address"
				},
				{
					"internalType": "address",
					"name": "_lpToken",
					"type": "address"
				},
				{
					"internalType": "uint256",
					"name": "_ERC1155ID",
					"type": "uint256"
				},
				{
					"internalType": "uint128",
					"name": "_feeRate",
					"type": "uint128"
				}
			],
			"stateMutability": "nonpayable",
			"type": "constructor"
		},
		{
			"inputs": [],
			"name": "BinHelper__IdOverflows",
			"type": "error"
		},
		{
			"inputs": [],
			"name": "LBPair__AddressZero",
			"type": "error"
		},
		{
			"inputs": [],
			"name": "LBPair__DistributionsOverflow",
			"type": "error"
		},
		{
			"inputs": [
				{
					"internalType": "uint256",
					"name": "id",
					"type": "uint256"
				}
			],
			"name": "LBPair__InsufficientLiquidityMinted",
			"type": "error"
		},
		{
			"inputs": [
				{
					"internalType": "address",
					"name": "feeRecipient",
					"type": "address"
				},
				{
					"internalType": "address",
					"name": "sender",
					"type": "address"
				}
			],
			"name": "LBPair__OnlyFeeRecipient",
			"type": "error"
		},
		{
			"inputs": [],
			"name": "LBPair__WrongLengths",
			"type": "error"
		},
		{
			"inputs": [
				{
					"internalType": "uint256",
					"name": "x",
					"type": "uint256"
				},
				{
					"internalType": "int256",
					"name": "y",
					"type": "int256"
				}
			],
			"name": "Math128x128__PowerUnderflow",
			"type": "error"
		},
		{
			"inputs": [
				{
					"internalType": "uint256",
					"name": "prod1",
					"type": "uint256"
				},
				{
					"internalType": "uint256",
					"name": "offset",
					"type": "uint256"
				}
			],
			"name": "Math512Bits__MulShiftOverflow",
			"type": "error"
		},
		{
			"inputs": [
				{
					"internalType": "uint256",
					"name": "offset",
					"type": "uint256"
				}
			],
			"name": "Math512Bits__OffsetOverflows",
			"type": "error"
		},
		{
			"inputs": [],
			"name": "ReentrancyGuardUpgradeable__AlreadyInitialized",
			"type": "error"
		},
		{
			"inputs": [],
			"name": "ReentrancyGuardUpgradeable__ReentrantCall",
			"type": "error"
		},
		{
			"inputs": [
				{
					"internalType": "uint256",
					"name": "x",
					"type": "uint256"
				}
			],
			"name": "SafeCast__Exceeds112Bits",
			"type": "error"
		},
		{
			"inputs": [
				{
					"internalType": "uint256",
					"name": "x",
					"type": "uint256"
				}
			],
			"name": "SafeCast__Exceeds136Bits",
			"type": "error"
		},
		{
			"inputs": [],
			"name": "TokenHelper__CallFailed",
			"type": "error"
		},
		{
			"inputs": [],
			"name": "TokenHelper__NonContract",
			"type": "error"
		},
		{
			"inputs": [],
			"name": "TokenHelper__TransferFailed",
			"type": "error"
		},
		{
			"inputs": [],
			"name": "TreeMath__ErrorDepthSearch",
			"type": "error"
		},
		{
			"inputs": [
				{
					"internalType": "uint256",
					"name": "_LPtokenID",
					"type": "uint256"
				},
				{
					"internalType": "address",
					"name": "_to",
					"type": "address"
				}
			],
			"name": "burn",
			"outputs": [
				{
					"internalType": "uint256",
					"name": "amountX",
					"type": "uint256"
				},
				{
					"internalType": "uint256",
					"name": "amountY",
					"type": "uint256"
				}
			],
			"stateMutability": "nonpayable",
			"type": "function"
		},
		{
			"inputs": [
				{
					"internalType": "address",
					"name": "_to",
					"type": "address"
				}
			],
			"name": "buyNFT",
			"outputs": [],
			"stateMutability": "nonpayable",
			"type": "function"
		},
		{
			"inputs": [],
			"name": "collectProtocolFees",
			"outputs": [
				{
					"internalType": "uint256",
					"name": "amountY",
					"type": "uint256"
				}
			],
			"stateMutability": "nonpayable",
			"type": "function"
		},
		{
			"inputs": [],
			"name": "factory",
			"outputs": [
				{
					"internalType": "contract IMidasFactory1155",
					"name": "",
					"type": "address"
				}
			],
			"stateMutability": "view",
			"type": "function"
		},
		{
			"inputs": [],
			"name": "feeParameters",
			"outputs": [
				{
					"internalType": "uint256",
					"name": "",
					"type": "uint256"
				},
				{
					"internalType": "uint256",
					"name": "",
					"type": "uint256"
				}
			],
			"stateMutability": "view",
			"type": "function"
		},
		{
			"inputs": [
				{
					"internalType": "uint24",
					"name": "_id",
					"type": "uint24"
				}
			],
			"name": "getBin",
			"outputs": [
				{
					"internalType": "uint256",
					"name": "",
					"type": "uint256"
				},
				{
					"internalType": "uint256",
					"name": "",
					"type": "uint256"
				}
			],
			"stateMutability": "view",
			"type": "function"
		},
		{
			"inputs": [
				{
					"internalType": "uint256",
					"name": "_LPtokenID",
					"type": "uint256"
				}
			],
			"name": "getFee",
			"outputs": [
				{
					"internalType": "uint256",
					"name": "_fee",
					"type": "uint256"
				}
			],
			"stateMutability": "view",
			"type": "function"
		},
		{
			"inputs": [],
			"name": "getGlobalFees",
			"outputs": [
				{
					"internalType": "uint256",
					"name": "feesYTotal",
					"type": "uint256"
				},
				{
					"internalType": "uint256",
					"name": "feesYProtocol",
					"type": "uint256"
				}
			],
			"stateMutability": "view",
			"type": "function"
		},
		{
			"inputs": [
				{
					"internalType": "uint24",
					"name": "_id",
					"type": "uint24"
				}
			],
			"name": "getPriceFromBin",
			"outputs": [
				{
					"internalType": "uint256",
					"name": "",
					"type": "uint256"
				}
			],
			"stateMutability": "pure",
			"type": "function"
		},
		{
			"inputs": [],
			"name": "getReservesAndId",
			"outputs": [
				{
					"internalType": "uint256",
					"name": "reserveX",
					"type": "uint256"
				},
				{
					"internalType": "uint256",
					"name": "reserveY",
					"type": "uint256"
				},
				{
					"internalType": "uint256",
					"name": "floorPriceID",
					"type": "uint256"
				},
				{
					"internalType": "uint256",
					"name": "bestOfferID",
					"type": "uint256"
				}
			],
			"stateMutability": "view",
			"type": "function"
		},
		{
			"inputs": [],
			"name": "lpToken",
			"outputs": [
				{
					"internalType": "contract LPToken",
					"name": "",
					"type": "address"
				}
			],
			"stateMutability": "view",
			"type": "function"
		},
		{
			"inputs": [
				{
					"internalType": "uint24[]",
					"name": "_ids",
					"type": "uint24[]"
				},
				{
					"internalType": "uint256[]",
					"name": "_amounts",
					"type": "uint256[]"
				},
				{
					"internalType": "address",
					"name": "_to",
					"type": "address"
				}
			],
			"name": "mintFT",
			"outputs": [
				{
					"internalType": "uint256",
					"name": "",
					"type": "uint256"
				},
				{
					"internalType": "uint256",
					"name": "",
					"type": "uint256"
				}
			],
			"stateMutability": "nonpayable",
			"type": "function"
		},
		{
			"inputs": [
				{
					"internalType": "uint24[]",
					"name": "_ids",
					"type": "uint24[]"
				},
				{
					"internalType": "uint256[]",
					"name": "_amounts",
					"type": "uint256[]"
				},
				{
					"internalType": "address",
					"name": "_to",
					"type": "address"
				}
			],
			"name": "mintNFT",
			"outputs": [
				{
					"internalType": "uint256",
					"name": "",
					"type": "uint256"
				},
				{
					"internalType": "uint256",
					"name": "",
					"type": "uint256"
				}
			],
			"stateMutability": "nonpayable",
			"type": "function"
		},
		{
			"inputs": [
				{
					"internalType": "address",
					"name": "",
					"type": "address"
				},
				{
					"internalType": "address",
					"name": "",
					"type": "address"
				},
				{
					"internalType": "uint256[]",
					"name": "",
					"type": "uint256[]"
				},
				{
					"internalType": "uint256[]",
					"name": "",
					"type": "uint256[]"
				},
				{
					"internalType": "bytes",
					"name": "",
					"type": "bytes"
				}
			],
			"name": "onERC1155BatchReceived",
			"outputs": [
				{
					"internalType": "bytes4",
					"name": "",
					"type": "bytes4"
				}
			],
			"stateMutability": "nonpayable",
			"type": "function"
		},
		{
			"inputs": [
				{
					"internalType": "address",
					"name": "",
					"type": "address"
				},
				{
					"internalType": "address",
					"name": "",
					"type": "address"
				},
				{
					"internalType": "uint256",
					"name": "",
					"type": "uint256"
				},
				{
					"internalType": "uint256",
					"name": "",
					"type": "uint256"
				},
				{
					"internalType": "bytes",
					"name": "",
					"type": "bytes"
				}
			],
			"name": "onERC1155Received",
			"outputs": [
				{
					"internalType": "bytes4",
					"name": "",
					"type": "bytes4"
				}
			],
			"stateMutability": "nonpayable",
			"type": "function"
		},
		{
			"inputs": [
				{
					"internalType": "address",
					"name": "_to",
					"type": "address"
				}
			],
			"name": "sellNFT",
			"outputs": [
				{
					"internalType": "uint256",
					"name": "_amountOut",
					"type": "uint256"
				}
			],
			"stateMutability": "nonpayable",
			"type": "function"
		},
		{
			"inputs": [
				{
					"internalType": "bytes4",
					"name": "interfaceId",
					"type": "bytes4"
				}
			],
			"name": "supportsInterface",
			"outputs": [
				{
					"internalType": "bool",
					"name": "",
					"type": "bool"
				}
			],
			"stateMutability": "view",
			"type": "function"
		},
		{
			"inputs": [],
			"name": "tokenX",
			"outputs": [
				{
					"internalType": "contract IERC1155",
					"name": "",
					"type": "address"
				}
			],
			"stateMutability": "view",
			"type": "function"
		},
		{
			"inputs": [],
			"name": "tokenY",
			"outputs": [
				{
					"internalType": "contract IERC20",
					"name": "",
					"type": "address"
				}
			],
			"stateMutability": "view",
			"type": "function"
		}
	]
}