{
	"data": {
		"bytecode": {
			"linkReferences": {},
			"object": "6080604052348015600f57600080fd5b5060d88061001e6000396000f3fe6080604052348015600f57600080fd5b506004361060285760003560e01c8063e79129ce14602d575b600080fd5b600054600154600254600354600454605f946001600160a01b039081169481169381169216906001600160801b031685565b604080516001600160a01b039687168152948616602086015292851684840152931660608301526001600160801b03909216608082015290519081900360a00190f3fea2646970667358221220cc19fbf355d4f07443a1c24de5d3c660b2e8feb27f4fb479b18a5d0711d160fd64736f6c634300080a0033",
			"opcodes": "PUSH1 0x80 PUSH1 0x40 MSTORE CALLVALUE DUP1 ISZERO PUSH1 0xF JUMPI PUSH1 0x0 DUP1 REVERT JUMPDEST POP PUSH1 0xD8 DUP1 PUSH2 0x1E PUSH1 0x0 CODECOPY PUSH1 0x0 RETURN INVALID PUSH1 0x80 PUSH1 0x40 MSTORE CALLVALUE DUP1 ISZERO PUSH1 0xF JUMPI PUSH1 0x0 DUP1 REVERT JUMPDEST POP PUSH1 0x4 CALLDATASIZE LT PUSH1 0x28 JUMPI PUSH1 0x0 CALLDATALOAD PUSH1 0xE0 SHR DUP1 PUSH4 0xE79129CE EQ PUSH1 0x2D JUMPI JUMPDEST PUSH1 0x0 DUP1 REVERT JUMPDEST PUSH1 0x0 SLOAD PUSH1 0x1 SLOAD PUSH1 0x2 SLOAD PUSH1 0x3 SLOAD PUSH1 0x4 SLOAD PUSH1 0x5F SWAP5 PUSH1 0x1 PUSH1 0x1 PUSH1 0xA0 SHL SUB SWAP1 DUP2 AND SWAP5 DUP2 AND SWAP4 DUP2 AND SWAP3 AND SWAP1 PUSH1 0x1 PUSH1 0x1 PUSH1 0x80 SHL SUB AND DUP6 JUMP JUMPDEST PUSH1 0x40 DUP1 MLOAD PUSH1 0x1 PUSH1 0x1 PUSH1 0xA0 SHL SUB SWAP7 DUP8 AND DUP2 MSTORE SWAP5 DUP7 AND PUSH1 0x20 DUP7 ADD MSTORE SWAP3 DUP6 AND DUP5 DUP5 ADD MSTORE SWAP4 AND PUSH1 0x60 DUP4 ADD MSTORE PUSH1 0x1 PUSH1 0x1 PUSH1 0x80 SHL SUB SWAP1 SWAP3 AND PUSH1 0x80 DUP3 ADD MSTORE SWAP1 MLOAD SWAP1 DUP2 SWAP1 SUB PUSH1 0xA0 ADD SWAP1 RETURN INVALID LOG2 PUSH5 0x6970667358 0x22 SLT KECCAK256 0xCC NOT 0xFB RETURN SSTORE 0xD4 CREATE PUSH21 0x43A1C24DE5D3C660B2E8FEB27F4FB479B18A5D0711 0xD1 PUSH1 0xFD PUSH5 0x736F6C6343 STOP ADDMOD EXP STOP CALLER "
		},
		"gasEstimates": {
			"creation": {
				"codeDepositCost": "43200",
				"executionCost": "93",
				"totalCost": "43293"
			},
			"external": {
				"parameters1()": "10880"
			},
			"internal": {
				"deployERC721(address,address,address,uint128)": "infinite"
			}
		},
		"methodIdentifiers": {
			"parameters1()": "e79129ce"
		}
	},
	"abi": [
		{
			"inputs": [],
			"name": "parameters1",
			"outputs": [
				{
					"internalType": "address",
					"name": "factory",
					"type": "address"
				},
				{
					"internalType": "address",
					"name": "tokenX",
					"type": "address"
				},
				{
					"internalType": "address",
					"name": "tokenY",
					"type": "address"
				},
				{
					"internalType": "address",
					"name": "lpToken",
					"type": "address"
				},
				{
					"internalType": "uint128",
					"name": "feeRate",
					"type": "uint128"
				}
			],
			"stateMutability": "view",
			"type": "function"
		}
	]
}