{
	"data": {
		"bytecode": {
			"linkReferences": {},
			"object": "60a06040523480156200001157600080fd5b506040516200a12a3803806200a12a83398181016040528101906200003791906200020a565b3073ffffffffffffffffffffffffffffffffffffffff1660808173ffffffffffffffffffffffffffffffffffffffff168152505033600b60006101000a81548173ffffffffffffffffffffffffffffffffffffffff021916908373ffffffffffffffffffffffffffffffffffffffff1602179055503373ffffffffffffffffffffffffffffffffffffffff16600073ffffffffffffffffffffffffffffffffffffffff167fb532073b38c83145e3e5135377a08bf9aab55bc0fd7c1179cd4fb995d2a5159c60405160405180910390a380600c60006101000a8154816fffffffffffffffffffffffffffffffff02191690836fffffffffffffffffffffffffffffffff160217905550600c60009054906101000a90046fffffffffffffffffffffffffffffffff166fffffffffffffffffffffffffffffffff1660006fffffffffffffffffffffffffffffffff167f026422b40df1058c69bada67c7c42ade33c6d1ae80778f5a65def8d6e57d752360405160405180910390a3506200023c565b600080fd5b60006fffffffffffffffffffffffffffffffff82169050919050565b620001e481620001bd565b8114620001f057600080fd5b50565b6000815190506200020481620001d9565b92915050565b600060208284031215620002235762000222620001b8565b5b60006200023384828501620001f3565b91505092915050565b608051619ed2620002586000396000610aae0152619ed26000f3fe60806040523480156200001157600080fd5b5060043610620000a05760003560e01c80639be02ca7116200006f5780639be02ca714620001405780639f392ed81462000176578063a771ebc7146200019d578063acd3546114620001bf578063e79129ce14620001f557620000a0565b806313af403514620000a55780632874b49a14620000c55780634690484014620000fc5780638da5cb5b146200011e575b600080fd5b620000c36004803603810190620000bd919062001080565b6200021b565b005b620000e36004803603810190620000dd91906200113a565b62000336565b604051620000f3929190620011bd565b60405180910390f35b6200010662000816565b604051620001159190620011ea565b60405180910390f35b6200012862000840565b604051620001379190620011ea565b60405180910390f35b6200015e600480360381019062000158919062001207565b62000866565b6040516200016d9190620011ea565b60405180910390f35b62000180620008b5565b604051620001949695949392919062001285565b60405180910390f35b620001a76200097b565b604051620001b69190620012f2565b60405180910390f35b620001dd6004803603810190620001d7919062001207565b6200099d565b604051620001ec9190620011ea565b60405180910390f35b620001ff620009ec565b604051620002129594939291906200130f565b60405180910390f35b600b60009054906101000a900473ffffffffffffffffffffffffffffffffffffffff1673ffffffffffffffffffffffffffffffffffffffff163373ffffffffffffffffffffffffffffffffffffffff16146200027657600080fd5b8073ffffffffffffffffffffffffffffffffffffffff16600b60009054906101000a900473ffffffffffffffffffffffffffffffffffffffff1673ffffffffffffffffffffffffffffffffffffffff167fb532073b38c83145e3e5135377a08bf9aab55bc0fd7c1179cd4fb995d2a5159c60405160405180910390a380600b60006101000a81548173ffffffffffffffffffffffffffffffffffffffff021916908373ffffffffffffffffffffffffffffffffffffffff16021790555050565b6000806200034362000aac565b8473ffffffffffffffffffffffffffffffffffffffff168673ffffffffffffffffffffffffffffffffffffffff1614156200037d57600080fd5b6000806200038c888862000b07565b91509150600073ffffffffffffffffffffffffffffffffffffffff168173ffffffffffffffffffffffffffffffffffffffff161415620003cb57600080fd5b600c60009054906101000a90046fffffffffffffffffffffffffffffffff166fffffffffffffffffffffffffffffffff16856fffffffffffffffffffffffffffffffff161462000452576040517f08c379a00000000000000000000000000000000000000000000000000000000081526004016200044990620013cd565b60405180910390fd5b600073ffffffffffffffffffffffffffffffffffffffff16600d60008473ffffffffffffffffffffffffffffffffffffffff1673ffffffffffffffffffffffffffffffffffffffff16815260200190815260200160002060008373ffffffffffffffffffffffffffffffffffffffff1673ffffffffffffffffffffffffffffffffffffffff168152602001908152602001600020600088815260200190815260200160002060009054906101000a900473ffffffffffffffffffffffffffffffffffffffff1673ffffffffffffffffffffffffffffffffffffffff161462000571576040517f08c379a000000000000000000000000000000000000000000000000000000000815260040162000568906200143f565b60405180910390fd5b62000580308383898962000c3e565b80945081955050508373ffffffffffffffffffffffffffffffffffffffff1663c4d66de8846040518263ffffffff1660e01b8152600401620005c39190620011ea565b600060405180830381600087803b158015620005de57600080fd5b505af1158015620005f3573d6000803e3d6000fd5b5050505082600d60008473ffffffffffffffffffffffffffffffffffffffff1673ffffffffffffffffffffffffffffffffffffffff16815260200190815260200160002060008373ffffffffffffffffffffffffffffffffffffffff1673ffffffffffffffffffffffffffffffffffffffff168152602001908152602001600020600088815260200190815260200160002060006101000a81548173ffffffffffffffffffffffffffffffffffffffff021916908373ffffffffffffffffffffffffffffffffffffffff16021790555083600e60008473ffffffffffffffffffffffffffffffffffffffff1673ffffffffffffffffffffffffffffffffffffffff16815260200190815260200160002060008373ffffffffffffffffffffffffffffffffffffffff1673ffffffffffffffffffffffffffffffffffffffff168152602001908152602001600020600088815260200190815260200160002060006101000a81548173ffffffffffffffffffffffffffffffffffffffff021916908373ffffffffffffffffffffffffffffffffffffffff160217905550846fffffffffffffffffffffffffffffffff168173ffffffffffffffffffffffffffffffffffffffff168373ffffffffffffffffffffffffffffffffffffffff167fff8cfa22379d26bf170d6b51e89cdd427ecff0e00a8709edc1d5d909705d2009868860405162000803929190620011bd565b60405180910390a4505094509492505050565b6000600b60009054906101000a900473ffffffffffffffffffffffffffffffffffffffff16905090565b600b60009054906101000a900473ffffffffffffffffffffffffffffffffffffffff1681565b600d602052826000526040600020602052816000526040600020602052806000526040600020600092509250509054906101000a900473ffffffffffffffffffffffffffffffffffffffff1681565b60058060000160009054906101000a900473ffffffffffffffffffffffffffffffffffffffff16908060010160009054906101000a900473ffffffffffffffffffffffffffffffffffffffff16908060020160009054906101000a900473ffffffffffffffffffffffffffffffffffffffff16908060030160009054906101000a900473ffffffffffffffffffffffffffffffffffffffff16908060040154908060050160009054906101000a90046fffffffffffffffffffffffffffffffff16905086565b600c60009054906101000a90046fffffffffffffffffffffffffffffffff1681565b600e602052826000526040600020602052816000526040600020602052806000526040600020600092509250509054906101000a900473ffffffffffffffffffffffffffffffffffffffff1681565b60008060000160009054906101000a900473ffffffffffffffffffffffffffffffffffffffff16908060010160009054906101000a900473ffffffffffffffffffffffffffffffffffffffff16908060020160009054906101000a900473ffffffffffffffffffffffffffffffffffffffff16908060030160009054906101000a900473ffffffffffffffffffffffffffffffffffffffff16908060040160009054906101000a90046fffffffffffffffffffffffffffffffff16905085565b7f000000000000000000000000000000000000000000000000000000000000000073ffffffffffffffffffffffffffffffffffffffff163073ffffffffffffffffffffffffffffffffffffffff161462000b0557600080fd5b565b60008060006380ac58cd60e01b90506000639b9e2aae60e01b90508573ffffffffffffffffffffffffffffffffffffffff166301ffc9a7836040518263ffffffff1660e01b815260040162000b5d91906200149e565b602060405180830381865afa15801562000b7b573d6000803e3d6000fd5b505050506040513d601f19601f8201168201806040525081019062000ba19190620014f8565b8062000c2857508573ffffffffffffffffffffffffffffffffffffffff166301ffc9a7826040518263ffffffff1660e01b815260040162000be391906200149e565b602060405180830381865afa15801562000c01573d6000803e3d6000fd5b505050506040513d601f19601f8201168201806040525081019062000c279190620014f8565b5b1562000c35578593508492505b50509250929050565b60008085858560405160200162000c58939291906200152a565b604051602081830303815290604052805190602001208760405162000c7d9062000ffa565b62000c89919062001607565b8190604051809103906000f590508015801562000caa573d6000803e3d6000fd5b50915085858560405160200162000cc4939291906200152a565b6040516020818303038152906040528051906020012087878785888860405162000cee9062001008565b62000cff9695949392919062001285565b8190604051809103906000f590508015801562000d20573d6000803e3d6000fd5b5090506040518060c001604052808873ffffffffffffffffffffffffffffffffffffffff1681526020018773ffffffffffffffffffffffffffffffffffffffff1681526020018673ffffffffffffffffffffffffffffffffffffffff1681526020018373ffffffffffffffffffffffffffffffffffffffff168152602001858152602001846fffffffffffffffffffffffffffffffff16815250600560008201518160000160006101000a81548173ffffffffffffffffffffffffffffffffffffffff021916908373ffffffffffffffffffffffffffffffffffffffff16021790555060208201518160010160006101000a81548173ffffffffffffffffffffffffffffffffffffffff021916908373ffffffffffffffffffffffffffffffffffffffff16021790555060408201518160020160006101000a81548173ffffffffffffffffffffffffffffffffffffffff021916908373ffffffffffffffffffffffffffffffffffffffff16021790555060608201518160030160006101000a81548173ffffffffffffffffffffffffffffffffffffffff021916908373ffffffffffffffffffffffffffffffffffffffff1602179055506080820151816004015560a08201518160050160006101000a8154816fffffffffffffffffffffffffffffffff02191690836fffffffffffffffffffffffffffffffff1602179055509050506005600080820160006101000a81549073ffffffffffffffffffffffffffffffffffffffff02191690556001820160006101000a81549073ffffffffffffffffffffffffffffffffffffffff02191690556002820160006101000a81549073ffffffffffffffffffffffffffffffffffffffff02191690556003820160006101000a81549073ffffffffffffffffffffffffffffffffffffffff021916905560048201600090556005820160006101000a8154906fffffffffffffffffffffffffffffffff021916905550509550959350505050565b612f3d806200164f83390190565b615911806200458c83390190565b600080fd5b600073ffffffffffffffffffffffffffffffffffffffff82169050919050565b600062001048826200101b565b9050919050565b6200105a816200103b565b81146200106657600080fd5b50565b6000813590506200107a816200104f565b92915050565b60006020828403121562001099576200109862001016565b5b6000620010a98482850162001069565b91505092915050565b6000819050919050565b620010c781620010b2565b8114620010d357600080fd5b50565b600081359050620010e781620010bc565b92915050565b60006fffffffffffffffffffffffffffffffff82169050919050565b6200111481620010ed565b81146200112057600080fd5b50565b600081359050620011348162001109565b92915050565b6000806000806080858703121562001157576200115662001016565b5b6000620011678782880162001069565b94505060206200117a8782880162001069565b93505060406200118d87828801620010d6565b9250506060620011a08782880162001123565b91505092959194509250565b620011b7816200103b565b82525050565b6000604082019050620011d46000830185620011ac565b620011e36020830184620011ac565b9392505050565b6000602082019050620012016000830184620011ac565b92915050565b60008060006060848603121562001223576200122262001016565b5b6000620012338682870162001069565b9350506020620012468682870162001069565b92505060406200125986828701620010d6565b9150509250925092565b6200126e81620010b2565b82525050565b6200127f81620010ed565b82525050565b600060c0820190506200129c6000830189620011ac565b620012ab6020830188620011ac565b620012ba6040830187620011ac565b620012c96060830186620011ac565b620012d8608083018562001263565b620012e760a083018462001274565b979650505050505050565b600060208201905062001309600083018462001274565b92915050565b600060a082019050620013266000830188620011ac565b620013356020830187620011ac565b620013446040830186620011ac565b620013536060830185620011ac565b62001362608083018462001274565b9695505050505050565b600082825260208201905092915050565b7f4e4f542056414c49442046454521000000000000000000000000000000000000600082015250565b6000620013b5600e836200136c565b9150620013c2826200137d565b602082019050919050565b60006020820190508181036000830152620013e881620013a6565b9050919050565b7f5041495220455849535453210000000000000000000000000000000000000000600082015250565b600062001427600c836200136c565b91506200143482620013ef565b602082019050919050565b600060208201905081810360008301526200145a8162001418565b9050919050565b60007fffffffff0000000000000000000000000000000000000000000000000000000082169050919050565b620014988162001461565b82525050565b6000602082019050620014b560008301846200148d565b92915050565b60008115159050919050565b620014d281620014bb565b8114620014de57600080fd5b50565b600081519050620014f281620014c7565b92915050565b60006020828403121562001511576200151062001016565b5b60006200152184828501620014e1565b91505092915050565b6000606082019050620015416000830186620011ac565b620015506020830185620011ac565b6200155f604083018462001263565b949350505050565b7f4d696461734c50546f6b656e0000000000000000000000000000000000000000600082015250565b60006200159f600c836200136c565b9150620015ac8262001567565b602082019050919050565b7f4d4c505400000000000000000000000000000000000000000000000000000000600082015250565b6000620015ef6004836200136c565b9150620015fc82620015b7565b602082019050919050565b60006060820190508181036000830152620016228162001590565b905081810360208301526200163781620015e0565b9050620016486040830184620011ac565b9291505056fe60806040523480156200001157600080fd5b5060405162002f3d38038062002f3d833981810160405281019062000037919062000365565b82600090805190602001906200004f929190620000b3565b50816001908051906020019062000068929190620000b3565b5080600360006101000a81548173ffffffffffffffffffffffffffffffffffffffff021916908373ffffffffffffffffffffffffffffffffffffffff16021790555050505062000464565b828054620000c1906200042e565b90600052602060002090601f016020900481019282620000e5576000855562000131565b82601f106200010057805160ff191683800117855562000131565b8280016001018555821562000131579182015b828111156200013057825182559160200191906001019062000113565b5b50905062000140919062000144565b5090565b5b808211156200015f57600081600090555060010162000145565b5090565b6000604051905090565b600080fd5b600080fd5b600080fd5b600080fd5b6000601f19601f8301169050919050565b7f4e487b7100000000000000000000000000000000000000000000000000000000600052604160045260246000fd5b620001cc8262000181565b810181811067ffffffffffffffff82111715620001ee57620001ed62000192565b5b80604052505050565b60006200020362000163565b9050620002118282620001c1565b919050565b600067ffffffffffffffff82111562000234576200023362000192565b5b6200023f8262000181565b9050602081019050919050565b60005b838110156200026c5780820151818401526020810190506200024f565b838111156200027c576000848401525b50505050565b600062000299620002938462000216565b620001f7565b905082815260208101848484011115620002b857620002b76200017c565b5b620002c58482856200024c565b509392505050565b600082601f830112620002e557620002e462000177565b5b8151620002f784826020860162000282565b91505092915050565b600073ffffffffffffffffffffffffffffffffffffffff82169050919050565b60006200032d8262000300565b9050919050565b6200033f8162000320565b81146200034b57600080fd5b50565b6000815190506200035f8162000334565b92915050565b6000806000606084860312156200038157620003806200016d565b5b600084015167ffffffffffffffff811115620003a257620003a162000172565b5b620003b086828701620002cd565b935050602084015167ffffffffffffffff811115620003d457620003d362000172565b5b620003e286828701620002cd565b9250506040620003f5868287016200034e565b9150509250925092565b7f4e487b7100000000000000000000000000000000000000000000000000000000600052602260045260246000fd5b600060028204905060018216806200044757607f821691505b602082108114156200045e576200045d620003ff565b5b50919050565b612ac980620004746000396000f3fe608060405234801561001057600080fd5b50600436106101005760003560e01c80636352211e11610097578063b88d4fde11610066578063b88d4fde146102a9578063c4d66de8146102c5578063c87b56dd146102e1578063e985e9c51461031157610100565b80636352211e1461020f57806370a082311461023f57806395d89b411461026f578063a22cb4651461028d57610100565b806323b872dd116100d357806323b872dd1461019f57806340c10f19146101bb57806342842e0e146101d757806342966c68146101f357610100565b806301ffc9a71461010557806306fdde0314610135578063081812fc14610153578063095ea7b314610183575b600080fd5b61011f600480360381019061011a9190611c4a565b610341565b60405161012c9190611c92565b60405180910390f35b61013d610423565b60405161014a9190611d46565b60405180910390f35b61016d60048036038101906101689190611d9e565b6104b5565b60405161017a9190611e0c565b60405180910390f35b61019d60048036038101906101989190611e53565b6104fb565b005b6101b960048036038101906101b49190611e93565b610613565b005b6101d560048036038101906101d09190611e53565b610673565b005b6101f160048036038101906101ec9190611e93565b6106db565b005b61020d60048036038101906102089190611d9e565b6106fb565b005b61022960048036038101906102249190611d9e565b6107b1565b6040516102369190611e0c565b60405180910390f35b61025960048036038101906102549190611ee6565b610838565b6040516102669190611f22565b60405180910390f35b6102776108f0565b6040516102849190611d46565b60405180910390f35b6102a760048036038101906102a29190611f69565b610982565b005b6102c360048036038101906102be91906120de565b610998565b005b6102df60048036038101906102da9190611ee6565b6109fa565b005b6102fb60048036038101906102f69190611d9e565b610a98565b6040516103089190611d46565b60405180910390f35b61032b60048036038101906103269190612161565b610b00565b6040516103389190611c92565b60405180910390f35b60007f80ac58cd000000000000000000000000000000000000000000000000000000007bffffffffffffffffffffffffffffffffffffffffffffffffffffffff1916827bffffffffffffffffffffffffffffffffffffffffffffffffffffffff1916148061040c57507f5b5e139f000000000000000000000000000000000000000000000000000000007bffffffffffffffffffffffffffffffffffffffffffffffffffffffff1916827bffffffffffffffffffffffffffffffffffffffffffffffffffffffff1916145b8061041c575061041b82610b94565b5b9050919050565b606060008054610432906121d0565b80601f016020809104026020016040519081016040528092919081815260200182805461045e906121d0565b80156104ab5780601f10610480576101008083540402835291602001916104ab565b820191906000526020600020905b81548152906001019060200180831161048e57829003601f168201915b5050505050905090565b60006104c082610bfe565b6006600083815260200190815260200160002060009054906101000a900473ffffffffffffffffffffffffffffffffffffffff169050919050565b6000610506826107b1565b90508073ffffffffffffffffffffffffffffffffffffffff168373ffffffffffffffffffffffffffffffffffffffff161415610577576040517f08c379a000000000000000000000000000000000000000000000000000000000815260040161056e90612274565b60405180910390fd5b8073ffffffffffffffffffffffffffffffffffffffff16610596610c49565b73ffffffffffffffffffffffffffffffffffffffff1614806105c557506105c4816105bf610c49565b610b00565b5b610604576040517f08c379a00000000000000000000000000000000000000000000000000000000081526004016105fb90612306565b60405180910390fd5b61060e8383610c51565b505050565b61062461061e610c49565b82610d0a565b610663576040517f08c379a000000000000000000000000000000000000000000000000000000000815260040161065a90612398565b60405180910390fd5b61066e838383610d9f565b505050565b600260009054906101000a900473ffffffffffffffffffffffffffffffffffffffff1673ffffffffffffffffffffffffffffffffffffffff163373ffffffffffffffffffffffffffffffffffffffff16146106cd57600080fd5b6106d78282611099565b5050565b6106f683838360405180602001604052806000815250610998565b505050565b600260009054906101000a900473ffffffffffffffffffffffffffffffffffffffff1673ffffffffffffffffffffffffffffffffffffffff163373ffffffffffffffffffffffffffffffffffffffff161461075557600080fd5b610766610760610c49565b82610d0a565b6107a5576040517f08c379a000000000000000000000000000000000000000000000000000000000815260040161079c90612398565b60405180910390fd5b6107ae816110b7565b50565b6000806107bd83611205565b9050600073ffffffffffffffffffffffffffffffffffffffff168173ffffffffffffffffffffffffffffffffffffffff16141561082f576040517f08c379a000000000000000000000000000000000000000000000000000000000815260040161082690612404565b60405180910390fd5b80915050919050565b60008073ffffffffffffffffffffffffffffffffffffffff168273ffffffffffffffffffffffffffffffffffffffff1614156108a9576040517f08c379a00000000000000000000000000000000000000000000000000000000081526004016108a090612496565b60405180910390fd5b600560008373ffffffffffffffffffffffffffffffffffffffff1673ffffffffffffffffffffffffffffffffffffffff168152602001908152602001600020549050919050565b6060600180546108ff906121d0565b80601f016020809104026020016040519081016040528092919081815260200182805461092b906121d0565b80156109785780601f1061094d57610100808354040283529160200191610978565b820191906000526020600020905b81548152906001019060200180831161095b57829003601f168201915b5050505050905090565b61099461098d610c49565b8383611242565b5050565b6109a96109a3610c49565b83610d0a565b6109e8576040517f08c379a00000000000000000000000000000000000000000000000000000000081526004016109df90612398565b60405180910390fd5b6109f4848484846113af565b50505050565b600360009054906101000a900473ffffffffffffffffffffffffffffffffffffffff1673ffffffffffffffffffffffffffffffffffffffff163373ffffffffffffffffffffffffffffffffffffffff1614610a5457600080fd5b80600260006101000a81548173ffffffffffffffffffffffffffffffffffffffff021916908373ffffffffffffffffffffffffffffffffffffffff16021790555050565b6060610aa382610bfe565b6000610aad61140b565b90506000815111610acd5760405180602001604052806000815250610af8565b80610ad784611422565b604051602001610ae89291906124f2565b6040516020818303038152906040525b915050919050565b6000600760008473ffffffffffffffffffffffffffffffffffffffff1673ffffffffffffffffffffffffffffffffffffffff16815260200190815260200160002060008373ffffffffffffffffffffffffffffffffffffffff1673ffffffffffffffffffffffffffffffffffffffff16815260200190815260200160002060009054906101000a900460ff16905092915050565b60007f01ffc9a7000000000000000000000000000000000000000000000000000000007bffffffffffffffffffffffffffffffffffffffffffffffffffffffff1916827bffffffffffffffffffffffffffffffffffffffffffffffffffffffff1916149050919050565b610c07816114fa565b610c46576040517f08c379a0000000000000000000000000000000000000000000000000000000008152600401610c3d90612404565b60405180910390fd5b50565b600033905090565b816006600083815260200190815260200160002060006101000a81548173ffffffffffffffffffffffffffffffffffffffff021916908373ffffffffffffffffffffffffffffffffffffffff160217905550808273ffffffffffffffffffffffffffffffffffffffff16610cc4836107b1565b73ffffffffffffffffffffffffffffffffffffffff167f8c5be1e5ebec7d5bd14f71427d1e84f3dd0314c0f7b2291e5b200ac8c7c3b92560405160405180910390a45050565b600080610d16836107b1565b90508073ffffffffffffffffffffffffffffffffffffffff168473ffffffffffffffffffffffffffffffffffffffff161480610d585750610d578185610b00565b5b80610d9657508373ffffffffffffffffffffffffffffffffffffffff16610d7e846104b5565b73ffffffffffffffffffffffffffffffffffffffff16145b91505092915050565b8273ffffffffffffffffffffffffffffffffffffffff16610dbf826107b1565b73ffffffffffffffffffffffffffffffffffffffff1614610e15576040517f08c379a0000000000000000000000000000000000000000000000000000000008152600401610e0c90612588565b60405180910390fd5b600073ffffffffffffffffffffffffffffffffffffffff168273ffffffffffffffffffffffffffffffffffffffff161415610e85576040517f08c379a0000000000000000000000000000000000000000000000000000000008152600401610e7c9061261a565b60405180910390fd5b610e92838383600161153b565b8273ffffffffffffffffffffffffffffffffffffffff16610eb2826107b1565b73ffffffffffffffffffffffffffffffffffffffff1614610f08576040517f08c379a0000000000000000000000000000000000000000000000000000000008152600401610eff906126ac565b60405180910390fd5b6006600082815260200190815260200160002060006101000a81549073ffffffffffffffffffffffffffffffffffffffff02191690556001600560008573ffffffffffffffffffffffffffffffffffffffff1673ffffffffffffffffffffffffffffffffffffffff168152602001908152602001600020600082825403925050819055506001600560008473ffffffffffffffffffffffffffffffffffffffff1673ffffffffffffffffffffffffffffffffffffffff16815260200190815260200160002060008282540192505081905550816004600083815260200190815260200160002060006101000a81548173ffffffffffffffffffffffffffffffffffffffff021916908373ffffffffffffffffffffffffffffffffffffffff160217905550808273ffffffffffffffffffffffffffffffffffffffff168473ffffffffffffffffffffffffffffffffffffffff167fddf252ad1be2c89b69c2b068fc378daa952ba7f163c4a11628f55a4df523b3ef60405160405180910390a46110948383836001611661565b505050565b6110b3828260405180602001604052806000815250611667565b5050565b60006110c2826107b1565b90506110d281600084600161153b565b6110db826107b1565b90506006600083815260200190815260200160002060006101000a81549073ffffffffffffffffffffffffffffffffffffffff02191690556001600560008373ffffffffffffffffffffffffffffffffffffffff1673ffffffffffffffffffffffffffffffffffffffff168152602001908152602001600020600082825403925050819055506004600083815260200190815260200160002060006101000a81549073ffffffffffffffffffffffffffffffffffffffff021916905581600073ffffffffffffffffffffffffffffffffffffffff168273ffffffffffffffffffffffffffffffffffffffff167fddf252ad1be2c89b69c2b068fc378daa952ba7f163c4a11628f55a4df523b3ef60405160405180910390a4611201816000846001611661565b5050565b60006004600083815260200190815260200160002060009054906101000a900473ffffffffffffffffffffffffffffffffffffffff169050919050565b8173ffffffffffffffffffffffffffffffffffffffff168373ffffffffffffffffffffffffffffffffffffffff1614156112b1576040517f08c379a00000000000000000000000000000000000000000000000000000000081526004016112a890612718565b60405180910390fd5b80600760008573ffffffffffffffffffffffffffffffffffffffff1673ffffffffffffffffffffffffffffffffffffffff16815260200190815260200160002060008473ffffffffffffffffffffffffffffffffffffffff1673ffffffffffffffffffffffffffffffffffffffff16815260200190815260200160002060006101000a81548160ff0219169083151502179055508173ffffffffffffffffffffffffffffffffffffffff168373ffffffffffffffffffffffffffffffffffffffff167f17307eab39ab6107e8899845ad3d59bd9653f200f220920489ca2b5937696c31836040516113a29190611c92565b60405180910390a3505050565b6113ba848484610d9f565b6113c6848484846116c2565b611405576040517f08c379a00000000000000000000000000000000000000000000000000000000081526004016113fc906127aa565b60405180910390fd5b50505050565b606060405180602001604052806000815250905090565b6060600060016114318461184a565b01905060008167ffffffffffffffff8111156114505761144f611fb3565b5b6040519080825280601f01601f1916602001820160405280156114825781602001600182028036833780820191505090505b509050600082602001820190505b6001156114ef578080600190039150507f3031323334353637383961626364656600000000000000000000000000000000600a86061a8153600a85816114d9576114d86127ca565b5b04945060008514156114ea576114ef565b611490565b819350505050919050565b60008073ffffffffffffffffffffffffffffffffffffffff1661151c83611205565b73ffffffffffffffffffffffffffffffffffffffff1614159050919050565b600181111561165b57600073ffffffffffffffffffffffffffffffffffffffff168473ffffffffffffffffffffffffffffffffffffffff16146115cf5780600560008673ffffffffffffffffffffffffffffffffffffffff1673ffffffffffffffffffffffffffffffffffffffff16815260200190815260200160002060008282546115c79190612828565b925050819055505b600073ffffffffffffffffffffffffffffffffffffffff168373ffffffffffffffffffffffffffffffffffffffff161461165a5780600560008573ffffffffffffffffffffffffffffffffffffffff1673ffffffffffffffffffffffffffffffffffffffff1681526020019081526020016000206000828254611652919061285c565b925050819055505b5b50505050565b50505050565b611671838361199d565b61167e60008484846116c2565b6116bd576040517f08c379a00000000000000000000000000000000000000000000000000000000081526004016116b4906127aa565b60405180910390fd5b505050565b60006116e38473ffffffffffffffffffffffffffffffffffffffff16611bbb565b1561183d578373ffffffffffffffffffffffffffffffffffffffff1663150b7a0261170c610c49565b8786866040518563ffffffff1660e01b815260040161172e9493929190612907565b6020604051808303816000875af192505050801561176a57506040513d601f19601f820116820180604052508101906117679190612968565b60015b6117ed573d806000811461179a576040519150601f19603f3d011682016040523d82523d6000602084013e61179f565b606091505b506000815114156117e5576040517f08c379a00000000000000000000000000000000000000000000000000000000081526004016117dc906127aa565b60405180910390fd5b805181602001fd5b63150b7a0260e01b7bffffffffffffffffffffffffffffffffffffffffffffffffffffffff1916817bffffffffffffffffffffffffffffffffffffffffffffffffffffffff191614915050611842565b600190505b949350505050565b600080600090507a184f03e93ff9f4daa797ed6e38ed64bf6a1f01000000000000000083106118a8577a184f03e93ff9f4daa797ed6e38ed64bf6a1f010000000000000000838161189e5761189d6127ca565b5b0492506040810190505b6d04ee2d6d415b85acef810000000083106118e5576d04ee2d6d415b85acef810000000083816118db576118da6127ca565b5b0492506020810190505b662386f26fc10000831061191457662386f26fc10000838161190a576119096127ca565b5b0492506010810190505b6305f5e100831061193d576305f5e1008381611933576119326127ca565b5b0492506008810190505b6127108310611962576127108381611958576119576127ca565b5b0492506004810190505b60648310611985576064838161197b5761197a6127ca565b5b0492506002810190505b600a8310611994576001810190505b80915050919050565b600073ffffffffffffffffffffffffffffffffffffffff168273ffffffffffffffffffffffffffffffffffffffff161415611a0d576040517f08c379a0000000000000000000000000000000000000000000000000000000008152600401611a0490612a07565b60405180910390fd5b611a16816114fa565b15611a56576040517f08c379a0000000000000000000000000000000000000000000000000000000008152600401611a4d90612a73565b60405180910390fd5b611a6460008383600161153b565b611a6d816114fa565b15611aad576040517f08c379a0000000000000000000000000000000000000000000000000000000008152600401611aa490612a73565b60405180910390fd5b6001600560008473ffffffffffffffffffffffffffffffffffffffff1673ffffffffffffffffffffffffffffffffffffffff16815260200190815260200160002060008282540192505081905550816004600083815260200190815260200160002060006101000a81548173ffffffffffffffffffffffffffffffffffffffff021916908373ffffffffffffffffffffffffffffffffffffffff160217905550808273ffffffffffffffffffffffffffffffffffffffff16600073ffffffffffffffffffffffffffffffffffffffff167fddf252ad1be2c89b69c2b068fc378daa952ba7f163c4a11628f55a4df523b3ef60405160405180910390a4611bb7600083836001611661565b5050565b6000808273ffffffffffffffffffffffffffffffffffffffff163b119050919050565b6000604051905090565b600080fd5b600080fd5b60007fffffffff0000000000000000000000000000000000000000000000000000000082169050919050565b611c2781611bf2565b8114611c3257600080fd5b50565b600081359050611c4481611c1e565b92915050565b600060208284031215611c6057611c5f611be8565b5b6000611c6e84828501611c35565b91505092915050565b60008115159050919050565b611c8c81611c77565b82525050565b6000602082019050611ca76000830184611c83565b92915050565b600081519050919050565b600082825260208201905092915050565b60005b83811015611ce7578082015181840152602081019050611ccc565b83811115611cf6576000848401525b50505050565b6000601f19601f8301169050919050565b6000611d1882611cad565b611d228185611cb8565b9350611d32818560208601611cc9565b611d3b81611cfc565b840191505092915050565b60006020820190508181036000830152611d608184611d0d565b905092915050565b6000819050919050565b611d7b81611d68565b8114611d8657600080fd5b50565b600081359050611d9881611d72565b92915050565b600060208284031215611db457611db3611be8565b5b6000611dc284828501611d89565b91505092915050565b600073ffffffffffffffffffffffffffffffffffffffff82169050919050565b6000611df682611dcb565b9050919050565b611e0681611deb565b82525050565b6000602082019050611e216000830184611dfd565b92915050565b611e3081611deb565b8114611e3b57600080fd5b50565b600081359050611e4d81611e27565b92915050565b60008060408385031215611e6a57611e69611be8565b5b6000611e7885828601611e3e565b9250506020611e8985828601611d89565b9150509250929050565b600080600060608486031215611eac57611eab611be8565b5b6000611eba86828701611e3e565b9350506020611ecb86828701611e3e565b9250506040611edc86828701611d89565b9150509250925092565b600060208284031215611efc57611efb611be8565b5b6000611f0a84828501611e3e565b91505092915050565b611f1c81611d68565b82525050565b6000602082019050611f376000830184611f13565b92915050565b611f4681611c77565b8114611f5157600080fd5b50565b600081359050611f6381611f3d565b92915050565b60008060408385031215611f8057611f7f611be8565b5b6000611f8e85828601611e3e565b9250506020611f9f85828601611f54565b9150509250929050565b600080fd5b600080fd5b7f4e487b7100000000000000000000000000000000000000000000000000000000600052604160045260246000fd5b611feb82611cfc565b810181811067ffffffffffffffff8211171561200a57612009611fb3565b5b80604052505050565b600061201d611bde565b90506120298282611fe2565b919050565b600067ffffffffffffffff82111561204957612048611fb3565b5b61205282611cfc565b9050602081019050919050565b82818337600083830152505050565b600061208161207c8461202e565b612013565b90508281526020810184848401111561209d5761209c611fae565b5b6120a884828561205f565b509392505050565b600082601f8301126120c5576120c4611fa9565b5b81356120d584826020860161206e565b91505092915050565b600080600080608085870312156120f8576120f7611be8565b5b600061210687828801611e3e565b945050602061211787828801611e3e565b935050604061212887828801611d89565b925050606085013567ffffffffffffffff81111561214957612148611bed565b5b612155878288016120b0565b91505092959194509250565b6000806040838503121561217857612177611be8565b5b600061218685828601611e3e565b925050602061219785828601611e3e565b9150509250929050565b7f4e487b7100000000000000000000000000000000000000000000000000000000600052602260045260246000fd5b600060028204905060018216806121e857607f821691505b602082108114156121fc576121fb6121a1565b5b50919050565b7f4c50546f6b656e3a20617070726f76616c20746f2063757272656e74206f776e60008201527f6572000000000000000000000000000000000000000000000000000000000000602082015250565b600061225e602283611cb8565b915061226982612202565b604082019050919050565b6000602082019050818103600083015261228d81612251565b9050919050565b7f4c50546f6b656e3a20617070726f76652063616c6c6572206973206e6f74207460008201527f6f6b656e206f776e6572206f7220617070726f76656420666f7220616c6c0000602082015250565b60006122f0603e83611cb8565b91506122fb82612294565b604082019050919050565b6000602082019050818103600083015261231f816122e3565b9050919050565b7f4c50546f6b656e3a2063616c6c6572206973206e6f7420746f6b656e206f776e60008201527f6572206f7220617070726f766564000000000000000000000000000000000000602082015250565b6000612382602e83611cb8565b915061238d82612326565b604082019050919050565b600060208201905081810360008301526123b181612375565b9050919050565b7f4c50546f6b656e3a20696e76616c696420746f6b656e20494400000000000000600082015250565b60006123ee601983611cb8565b91506123f9826123b8565b602082019050919050565b6000602082019050818103600083015261241d816123e1565b9050919050565b7f4c50546f6b656e3a2061646472657373207a65726f206973206e6f742061207660008201527f616c6964206f776e657200000000000000000000000000000000000000000000602082015250565b6000612480602a83611cb8565b915061248b82612424565b604082019050919050565b600060208201905081810360008301526124af81612473565b9050919050565b600081905092915050565b60006124cc82611cad565b6124d681856124b6565b93506124e6818560208601611cc9565b80840191505092915050565b60006124fe82856124c1565b915061250a82846124c1565b91508190509392505050565b7f4c50546f6b656e3a207472616e736665722066726f6d20696e636f727265637460008201527f206f776e65720000000000000000000000000000000000000000000000000000602082015250565b6000612572602683611cb8565b915061257d82612516565b604082019050919050565b600060208201905081810360008301526125a181612565565b9050919050565b7f4c50546f6b656e3a207472616e7366657220746f20746865207a65726f20616460008201527f6472657373000000000000000000000000000000000000000000000000000000602082015250565b6000612604602583611cb8565b915061260f826125a8565b604082019050919050565b60006020820190508181036000830152612633816125f7565b9050919050565b7f4552433732313a207472616e736665722066726f6d20696e636f72726563742060008201527f6f776e6572000000000000000000000000000000000000000000000000000000602082015250565b6000612696602583611cb8565b91506126a18261263a565b604082019050919050565b600060208201905081810360008301526126c581612689565b9050919050565b7f4c50546f6b656e3a20617070726f766520746f2063616c6c6572000000000000600082015250565b6000612702601a83611cb8565b915061270d826126cc565b602082019050919050565b60006020820190508181036000830152612731816126f5565b9050919050565b7f4c50546f6b656e3a207472616e7366657220746f206e6f6e204552433732315260008201527f6563656976657220696d706c656d656e74657200000000000000000000000000602082015250565b6000612794603383611cb8565b915061279f82612738565b604082019050919050565b600060208201905081810360008301526127c381612787565b9050919050565b7f4e487b7100000000000000000000000000000000000000000000000000000000600052601260045260246000fd5b7f4e487b7100000000000000000000000000000000000000000000000000000000600052601160045260246000fd5b600061283382611d68565b915061283e83611d68565b925082821015612851576128506127f9565b5b828203905092915050565b600061286782611d68565b915061287283611d68565b9250827fffffffffffffffffffffffffffffffffffffffffffffffffffffffffffffffff038211156128a7576128a66127f9565b5b828201905092915050565b600081519050919050565b600082825260208201905092915050565b60006128d9826128b2565b6128e381856128bd565b93506128f3818560208601611cc9565b6128fc81611cfc565b840191505092915050565b600060808201905061291c6000830187611dfd565b6129296020830186611dfd565b6129366040830185611f13565b818103606083015261294881846128ce565b905095945050505050565b60008151905061296281611c1e565b92915050565b60006020828403121561297e5761297d611be8565b5b600061298c84828501612953565b91505092915050565b7f4c50546f6b656e3a206d696e7420746f20746865207a65726f2061646472657360008201527f7300000000000000000000000000000000000000000000000000000000000000602082015250565b60006129f1602183611cb8565b91506129fc82612995565b604082019050919050565b60006020820190508181036000830152612a20816129e4565b9050919050565b7f4c50546f6b656e3a20746f6b656e20616c7265616479206d696e746564000000600082015250565b6000612a5d601d83611cb8565b9150612a6882612a27565b602082019050919050565b60006020820190508181036000830152612a8c81612a50565b905091905056fea2646970667358221220c310bfc98ce40fe4323ff92cb326a3a62f34a66092445f9cf140377a2b5e4f9464736f6c634300080a003360a06040523480156200001157600080fd5b506040516200591138038062005911833981810160405281019062000037919062000343565b600073ffffffffffffffffffffffffffffffffffffffff168673ffffffffffffffffffffffffffffffffffffffff1614156200009f576040517f17be04b700000000000000000000000000000000000000000000000000000000815260040160405180910390fd5b8573ffffffffffffffffffffffffffffffffffffffff1660808173ffffffffffffffffffffffffffffffffffffffff168152505084600160006101000a81548173ffffffffffffffffffffffffffffffffffffffff021916908373ffffffffffffffffffffffffffffffffffffffff16021790555083600260006101000a81548173ffffffffffffffffffffffffffffffffffffffff021916908373ffffffffffffffffffffffffffffffffffffffff16021790555082601660006101000a81548173ffffffffffffffffffffffffffffffffffffffff021916908373ffffffffffffffffffffffffffffffffffffffff16021790555081601781905550620001ad620001f960201b60201c565b806fffffffffffffffffffffffffffffffff16601381905550600a81620001d591906200040e565b6fffffffffffffffffffffffffffffffff1660148190555050505050505062000446565b620002096200020b60201b60201c565b565b600080541462000247576040517fd80075c100000000000000000000000000000000000000000000000000000000815260040160405180910390fd5b6001600081905550565b600080fd5b600073ffffffffffffffffffffffffffffffffffffffff82169050919050565b6000620002838262000256565b9050919050565b620002958162000276565b8114620002a157600080fd5b50565b600081519050620002b5816200028a565b92915050565b6000819050919050565b620002d081620002bb565b8114620002dc57600080fd5b50565b600081519050620002f081620002c5565b92915050565b60006fffffffffffffffffffffffffffffffff82169050919050565b6200031d81620002f6565b81146200032957600080fd5b50565b6000815190506200033d8162000312565b92915050565b60008060008060008060c0878903121562000363576200036262000251565b5b60006200037389828a01620002a4565b96505060206200038689828a01620002a4565b95505060406200039989828a01620002a4565b9450506060620003ac89828a01620002a4565b9350506080620003bf89828a01620002df565b92505060a0620003d289828a016200032c565b9150509295509295509295565b7f4e487b7100000000000000000000000000000000000000000000000000000000600052601260045260246000fd5b60006200041b82620002f6565b91506200042883620002f6565b9250826200043b576200043a620003df565b5b828204905092915050565b6080516154a86200046960003960008181610dff015261154601526154a86000f3fe608060405234801561001057600080fd5b50600436106101215760003560e01c8063b7d19fc4116100ad578063d3f790d111610071578063d3f790d11461032a578063f23a6e611461035a578063fcd3533c1461038a578063fcee45f4146103bb578063fd31c4ab146103eb57610121565b8063b7d19fc414610271578063ba79b5641461028f578063bc197c81146102ab578063c45a0155146102db578063c6deab32146102f957610121565b80635fcbd285116100f45780635fcbd285146101c6578063720b9bbf146101e457806398c7adf314610215578063a1af5b9a14610234578063a582cdaa1461025257610121565b806301ffc9a7146101265780630abe96881461015657806316dc165b146101875780631b05b83e146101a5575b600080fd5b610140600480360381019061013b9190614634565b61041b565b60405161014d919061467c565b60405180910390f35b610170600480360381019061016b91906146d2565b610495565b60405161017e929190614718565b60405180910390f35b61018f6104fb565b60405161019c91906147c0565b60405180910390f35b6101ad610521565b6040516101bd94939291906147db565b60405180910390f35b6101ce6105d5565b6040516101db9190614841565b60405180910390f35b6101fe60048036038101906101f99190614955565b6105fb565b60405161020c929190614718565b60405180910390f35b61021d610da4565b60405161022b929190614718565b60405180910390f35b61023c610db5565b60405161024991906149ea565b60405180910390f35b61025a610f9f565b604051610268929190614718565b60405180910390f35b610279610fb5565b6040516102869190614a26565b60405180910390f35b6102a960048036038101906102a49190614a41565b610fdb565b005b6102c560048036038101906102c09190614c9e565b61152f565b6040516102d29190614d7c565b60405180910390f35b6102e3611544565b6040516102f09190614db8565b60405180910390f35b610313600480360381019061030e9190614955565b611568565b604051610321929190614718565b60405180910390f35b610344600480360381019061033f9190614a41565b611c7b565b60405161035191906149ea565b60405180910390f35b610374600480360381019061036f9190614dd3565b6121d3565b6040516103819190614d7c565b60405180910390f35b6103a4600480360381019061039f9190614e6a565b6121e8565b6040516103b2929190614718565b60405180910390f35b6103d560048036038101906103d09190614eaa565b612c66565b6040516103e291906149ea565b60405180910390f35b610405600480360381019061040091906146d2565b612c83565b60405161041291906149ea565b60405180910390f35b60007f4e2312e0000000000000000000000000000000000000000000000000000000007bffffffffffffffffffffffffffffffffffffffffffffffffffffffff1916827bffffffffffffffffffffffffffffffffffffffffffffffffffffffff1916148061048e575061048d82612c95565b5b9050919050565b600080600760008462ffffff1681526020019081526020016000206000600281106104c3576104c2614ed7565b5b0154600760008562ffffff1681526020019081526020016000206001600281106104f0576104ef614ed7565b5b015491509150915091565b600160009054906101000a900473ffffffffffffffffffffffffffffffffffffffff1681565b600080600080600360000160069054906101000a900470ffffffffffffffffffffffffffffffffff1670ffffffffffffffffffffffffffffffffff169350600360010160009054906101000a900470ffffffffffffffffffffffffffffffffff1670ffffffffffffffffffffffffffffffffff169250600360000160009054906101000a900462ffffff1662ffffff169150600360000160039054906101000a900462ffffff1662ffffff16905090919293565b601660009054906101000a900473ffffffffffffffffffffffffffffffffffffffff1681565b60008060016000541461063a576040517f802d9bf100000000000000000000000000000000000000000000000000000000815260040160405180910390fd5b6002600081905550600087879050148061065a5750848490508787905014155b15610691576040517f06fed5ff00000000000000000000000000000000000000000000000000000000815260040160405180910390fd5b600060036040518060c00160405290816000820160009054906101000a900462ffffff1662ffffff1662ffffff1681526020016000820160039054906101000a900462ffffff1662ffffff1662ffffff1681526020016000820160069054906101000a900470ffffffffffffffffffffffffffffffffff1670ffffffffffffffffffffffffffffffffff1670ffffffffffffffffffffffffffffffffff1681526020016001820160009054906101000a900470ffffffffffffffffffffffffffffffffff1670ffffffffffffffffffffffffffffffffff1670ffffffffffffffffffffffffffffffffff1681526020016002820154815260200160038201548152505090506000806001601560008282546107ac9190614f35565b9250508190555060006015549050601660009054906101000a900473ffffffffffffffffffffffffffffffffffffffff1673ffffffffffffffffffffffffffffffffffffffff166340c10f1988836040518363ffffffff1660e01b8152600401610817929190614f9a565b600060405180830381600087803b15801561083157600080fd5b505af1158015610845573d6000803e3d6000fd5b505050506108b1846060015170ffffffffffffffffffffffffffffffffff168560800151600260009054906101000a900473ffffffffffffffffffffffffffffffffffffffff1673ffffffffffffffffffffffffffffffffffffffff16612cff9092919063ffffffff16565b9250836020015162ffffff168b8b60018e8e90506108cf9190614fc3565b8181106108df576108de614ed7565b5b90506020020160208101906108f491906146d2565b62ffffff1611801561091057506000846020015162ffffff1614155b15610988578a8a60018d8d90506109279190614fc3565b81811061093757610936614ed7565b5b905060200201602081019061094c91906146d2565b6040517fb42cd28700000000000000000000000000000000000000000000000000000000815260040161097f9190615028565b60405180910390fd5b60008060005b8d8d9050811015610c05578d8d828181106109ac576109ab614ed7565b5b90506020020160208101906109c191906146d2565b92508b8b828181106109d6576109d5614ed7565b5b90506020020135915060006109ea84612d96565b90506000600760008662ffffff168152602001908152602001600020600280602002604051908101604052809291908260028015610a3d576020028201915b815481526020019060010190808311610a29575b5050505050905060008285610a529190615072565b14610a5c57600080fd5b610a6585612dcd565b600081600060028110610a7b57610a7a614ed7565b5b6020020151148015610aa55750600081600160028110610a9e57610a9d614ed7565b5b6020020151145b15610ac457610ac38562ffffff16600861301590919063ffffffff16565b5b836dffffffffffffffffffffffffffff1681600160028110610ae957610ae8614ed7565b5b60200201818151610afa9190614f35565b91508181525050836dffffffffffffffffffffffffffff16896060018181510191509070ffffffffffffffffffffffffffffffffff16908170ffffffffffffffffffffffffffffffffff16815250508387019650601160008662ffffff1662ffffff1681526020019081526020016000208690806001815401808255809150506001900390600052602060002001600090919091909150558184610b9e91906150a3565b600f600088815260200190815260200160002060008762ffffff1662ffffff1681526020019081526020016000208190555080600760008762ffffff168152602001908152602001600020906002610bf7929190614444565b50826001019250505061098e565b508c8c601060008681526020019081526020016000209190610c28929190614484565b5084841115610c63576040517feee8ff2700000000000000000000000000000000000000000000000000000000815260040160405180910390fd5b610c7a600b8760086130db9092919063ffffffff16565b87600001886020018262ffffff1662ffffff168152508262ffffff1662ffffff16815250505085600360008201518160000160006101000a81548162ffffff021916908362ffffff16021790555060208201518160000160036101000a81548162ffffff021916908362ffffff16021790555060408201518160000160066101000a81548170ffffffffffffffffffffffffffffffffff021916908370ffffffffffffffffffffffffffffffffff16021790555060608201518160010160006101000a81548170ffffffffffffffffffffffffffffffffff021916908370ffffffffffffffffffffffffffffffffff1602179055506080820151816002015560a0820151816003015590505083839750975050505050505060016000819055509550959350505050565b600080601354601454915091509091565b6000600160005414610df3576040517f802d9bf100000000000000000000000000000000000000000000000000000000815260040160405180910390fd5b600260008190555060007f000000000000000000000000000000000000000000000000000000000000000073ffffffffffffffffffffffffffffffffffffffff1663469048406040518163ffffffff1660e01b8152600401602060405180830381865afa158015610e68573d6000803e3d6000fd5b505050506040513d601f19601f82011682018060405250810190610e8c91906150e9565b90508073ffffffffffffffffffffffffffffffffffffffff163373ffffffffffffffffffffffffffffffffffffffff1614610f005780336040517ff680f028000000000000000000000000000000000000000000000000000000008152600401610ef7929190615116565b60405180910390fd5b600380015491506001821115610f9357600182610f1d9190614fc3565b91508160036002016000828254610f349190614fc3565b9250508190555060016003800181905550610f928183600260009054906101000a900473ffffffffffffffffffffffffffffffffffffffff1673ffffffffffffffffffffffffffffffffffffffff166131789092919063ffffffff16565b5b50600160008190555090565b6000806003600201549150600380015490509091565b600260009054906101000a900473ffffffffffffffffffffffffffffffffffffffff1681565b600160005414611017576040517f802d9bf100000000000000000000000000000000000000000000000000000000815260040160405180910390fd5b6002600081905550600060036040518060c00160405290816000820160009054906101000a900462ffffff1662ffffff1662ffffff1681526020016000820160039054906101000a900462ffffff1662ffffff1662ffffff1681526020016000820160069054906101000a900470ffffffffffffffffffffffffffffffffff1670ffffffffffffffffffffffffffffffffff1670ffffffffffffffffffffffffffffffffff1681526020016001820160009054906101000a900470ffffffffffffffffffffffffffffffffff1670ffffffffffffffffffffffffffffffffff1670ffffffffffffffffffffffffffffffffff1681526020016002820154815260200160038201548152505090506000816020015190506000600760008362ffffff16815260200190815260200160002060028060200260405190810160405280929190826002801561117e576020028201915b81548152602001906001019080831161116a575b50505050509050600061119083612d96565b90506000806111be6111ad8460135461326b90919063ffffffff16565b6014546132bb90919063ffffffff16565b91509150600082846111d09190614f35565b905081836111de9190614fc3565b601260008862ffffff1662ffffff168152602001908152602001600020600082825461120a9190614f35565b9250508190555061121c8784846132df565b61124e87600061122b8761330d565b61123c670de0b6b3a764000061330d565b8961336b90949392919063ffffffff16565b60008560006002811061126457611263614ed7565b5b60200201511415611289576112888662ffffff16600b61358090919063ffffffff16565b5b6112f1876060015170ffffffffffffffffffffffffffffffffff168860800151600260009054906101000a900473ffffffffffffffffffffffffffffffffffffffff1673ffffffffffffffffffffffffffffffffffffffff16612cff9092919063ffffffff16565b81111561133557856040517fb42cd28700000000000000000000000000000000000000000000000000000000815260040161132c9190615028565b60405180910390fd5b61134c600b8860086130db9092919063ffffffff16565b88600001896020018262ffffff1662ffffff168152508262ffffff1662ffffff16815250505084600760008862ffffff168152602001908152602001600020906002611399929190614444565b5086600360008201518160000160006101000a81548162ffffff021916908362ffffff16021790555060208201518160000160036101000a81548162ffffff021916908362ffffff16021790555060408201518160000160066101000a81548170ffffffffffffffffffffffffffffffffff021916908370ffffffffffffffffffffffffffffffffff16021790555060608201518160010160006101000a81548170ffffffffffffffffffffffffffffffffff021916908370ffffffffffffffffffffffffffffffffff1602179055506080820151816002015560a08201518160030155905050600160009054906101000a900473ffffffffffffffffffffffffffffffffffffffff1673ffffffffffffffffffffffffffffffffffffffff1663f242432a308a601754670de0b6b3a76400006040518563ffffffff1660e01b81526004016114eb9493929190615176565b600060405180830381600087803b15801561150557600080fd5b505af1158015611519573d6000803e3d6000fd5b5050505050505050505050600160008190555050565b600063bc197c8160e01b905095945050505050565b7f000000000000000000000000000000000000000000000000000000000000000081565b6000806001600054146115a7576040517f802d9bf100000000000000000000000000000000000000000000000000000000815260040160405180910390fd5b600260008190555060008787905014806115c75750848490508787905014155b156115fe576040517f06fed5ff00000000000000000000000000000000000000000000000000000000815260040160405180910390fd5b600060036040518060c00160405290816000820160009054906101000a900462ffffff1662ffffff1662ffffff1681526020016000820160039054906101000a900462ffffff1662ffffff1662ffffff1681526020016000820160069054906101000a900470ffffffffffffffffffffffffffffffffff1670ffffffffffffffffffffffffffffffffff1670ffffffffffffffffffffffffffffffffff1681526020016001820160009054906101000a900470ffffffffffffffffffffffffffffffffff1670ffffffffffffffffffffffffffffffffff1670ffffffffffffffffffffffffffffffffff1681526020016002820154815260200160038201548152505090506001601560008282546117169190614f35565b9250508190555060006015549050601660009054906101000a900473ffffffffffffffffffffffffffffffffffffffff1673ffffffffffffffffffffffffffffffffffffffff166340c10f1986836040518363ffffffff1660e01b8152600401611781929190614f9a565b600060405180830381600087803b15801561179b57600080fd5b505af11580156117af573d6000803e3d6000fd5b50505050816000015162ffffff16898960008181106117d1576117d0614ed7565b5b90506020020160208101906117e691906146d2565b62ffffff161015611856578888600081811061180557611804614ed7565b5b905060200201602081019061181a91906146d2565b6040517fb42cd28700000000000000000000000000000000000000000000000000000000815260040161184d9190615028565b60405180910390fd5b60008060005b8b8b9050811015611b15578b8b8281811061187a57611879614ed7565b5b905060200201602081019061188f91906146d2565b92508989828181106118a4576118a3614ed7565b5b9050602002013591506000600760008562ffffff1681526020019081526020016000206002806020026040519081016040528092919082600280156118fe576020028201915b8154815260200190600101908083116118ea575b505050505090506000670de0b6b3a76400008461191b9190615072565b1461192557600080fd5b61192e84612dcd565b60008160006002811061194457611943614ed7565b5b602002015114801561196e575060008160016002811061196757611966614ed7565b5b6020020151145b1561198d5761198c8462ffffff16600861301590919063ffffffff16565b5b6000816000600281106119a3576119a2614ed7565b5b602002015114156119c8576119c78462ffffff16600b61301590919063ffffffff16565b5b82670de0b6b3a76400006119dc91906151ce565b6dffffffffffffffffffffffffffff1681600060028110611a00576119ff614ed7565b5b60200201818151611a119190614f35565b9150818152505082670de0b6b3a7640000026dffffffffffffffffffffffffffff16866040018181510191509070ffffffffffffffffffffffffffffffffff16908170ffffffffffffffffffffffffffffffffff1681525050601160008562ffffff1662ffffff16815260200190815260200160002085908060018154018082558091505060019003906000526020600020016000909190919091505582600f600087815260200190815260200160002060008662ffffff1662ffffff1681526020019081526020016000208190555080600760008662ffffff168152602001908152602001600020906002611b08929190614444565b508160010191505061185c565b508a8a601060008681526020019081526020016000209190611b38929190614484565b50611b50600b8560086130db9092919063ffffffff16565b85600001866020018262ffffff1662ffffff168152508262ffffff1662ffffff16815250505083600360008201518160000160006101000a81548162ffffff021916908362ffffff16021790555060208201518160000160036101000a81548162ffffff021916908362ffffff16021790555060408201518160000160066101000a81548170ffffffffffffffffffffffffffffffffff021916908370ffffffffffffffffffffffffffffffffff16021790555060608201518160010160006101000a81548170ffffffffffffffffffffffffffffffffff021916908370ffffffffffffffffffffffffffffffffff1602179055506080820151816002015560a082015181600301559050508a8a905083955095505050505060016000819055509550959350505050565b6000600160005414611cb9576040517f802d9bf100000000000000000000000000000000000000000000000000000000815260040160405180910390fd5b6002600081905550600060036040518060c00160405290816000820160009054906101000a900462ffffff1662ffffff1662ffffff1681526020016000820160039054906101000a900462ffffff1662ffffff1662ffffff1681526020016000820160069054906101000a900470ffffffffffffffffffffffffffffffffff1670ffffffffffffffffffffffffffffffffff1670ffffffffffffffffffffffffffffffffff1681526020016001820160009054906101000a900470ffffffffffffffffffffffffffffffffff1670ffffffffffffffffffffffffffffffffff1670ffffffffffffffffffffffffffffffffff168152602001600282015481526020016003820154815250509050600060076000836000015162ffffff168152602001908152602001600020600280602002604051908101604052809291908260028015611e1b576020028201915b815481526020019060010190808311611e07575b50505050509050600082600001519050600082600160028110611e4157611e40614ed7565b5b60200201511415611e8957806040517fb42cd287000000000000000000000000000000000000000000000000000000008152600401611e809190615028565b60405180910390fd5b600160009054906101000a900473ffffffffffffffffffffffffffffffffffffffff1673ffffffffffffffffffffffffffffffffffffffff1663f242432a8630601754670de0b6b3a76400006040518563ffffffff1660e01b8152600401611ef49493929190615176565b600060405180830381600087803b158015611f0e57600080fd5b505af1158015611f22573d6000803e3d6000fd5b505050506000611f3182612d96565b9050600080611f5f611f4e8460135461370790919063ffffffff16565b6014546132bb90919063ffffffff16565b915091508082611f6f9190614fc3565b601260008662ffffff1662ffffff1681526020019081526020016000206000828254611f9b9190614f35565b92505081905550600085600060028110611fb857611fb7614ed7565b5b60200201511415611fdd57611fdc8462ffffff16600b61301590919063ffffffff16565b5b611fe88683836132df565b61201a866001611fff670de0b6b3a764000061330d565b6120088761330d565b8961336b90949392919063ffffffff16565b81836120269190614fc3565b965061203f600b8760086130db9092919063ffffffff16565b87600001886020018262ffffff1662ffffff168152508262ffffff1662ffffff16815250505084600760008662ffffff16815260200190815260200160002090600261208c929190614444565b5085600360008201518160000160006101000a81548162ffffff021916908362ffffff16021790555060208201518160000160036101000a81548162ffffff021916908362ffffff16021790555060408201518160000160066101000a81548170ffffffffffffffffffffffffffffffffff021916908370ffffffffffffffffffffffffffffffffff16021790555060608201518160010160006101000a81548170ffffffffffffffffffffffffffffffffff021916908370ffffffffffffffffffffffffffffffffff1602179055506080820151816002015560a082015181600301559050506121c08888600260009054906101000a900473ffffffffffffffffffffffffffffffffffffffff1673ffffffffffffffffffffffffffffffffffffffff166131789092919063ffffffff16565b5050505050506001600081905550919050565b600063f23a6e6160e01b905095945050505050565b600080600160005414612227576040517f802d9bf100000000000000000000000000000000000000000000000000000000815260040160405180910390fd5b6002600081905550600060036040518060c00160405290816000820160009054906101000a900462ffffff1662ffffff1662ffffff1681526020016000820160039054906101000a900462ffffff1662ffffff1662ffffff1681526020016000820160069054906101000a900470ffffffffffffffffffffffffffffffffff1670ffffffffffffffffffffffffffffffffff1670ffffffffffffffffffffffffffffffffff1681526020016001820160009054906101000a900470ffffffffffffffffffffffffffffffffff1670ffffffffffffffffffffffffffffffffff1670ffffffffffffffffffffffffffffffffff1681526020016002820154815260200160038201548152505090506000601060008781526020019081526020016000208054806020026020016040519081016040528092919081815260200182805480156123bd57602002820191906000526020600020906000905b82829054906101000a900462ffffff1662ffffff16815260200190600301906020826002010492830192600103820291508084116123825790505b505050505090506010600087815260200190815260200160002060006123e39190614536565b60008060005b83518110156129975783818151811061240557612404614ed7565b5b60200260200101519250600f60008a815260200190815260200160002060008462ffffff1662ffffff1681526020019081526020016000205491506000600760008562ffffff168152602001908152602001600020600280602002604051908101604052809291908260028015612491576020028201915b81548152602001906001019080831161247d575b505050505090506124a184612dcd565b82816000600281106124b6576124b5614ed7565b5b6020020151106125e05782880197506124ce8361330d565b6dffffffffffffffffffffffffffff16816000600281106124f2576124f1614ed7565b5b60200201818151039150818152505061250a8361374f565b866040018181510391509070ffffffffffffffffffffffffffffffffff16908170ffffffffffffffffffffffffffffffffff168152505060008160006002811061255757612556614ed7565b5b6020020151141561257c5761257b8462ffffff16600b61358090919063ffffffff16565b5b60008160016002811061259257612591614ed7565b5b60200201511480156125bc57506000816000600281106125b5576125b4614ed7565b5b6020020151145b156125db576125da8462ffffff16600861358090919063ffffffff16565b5b612882565b6000816000600281106125f6576125f5614ed7565b5b602002015114156126d657600061260c85612d96565b90508381028801975061262084820261330d565b6dffffffffffffffffffffffffffff168260016002811061264457612643614ed7565b5b60200201818151039150818152505061265e84820261374f565b876060018181510391509070ffffffffffffffffffffffffffffffffff16908170ffffffffffffffffffffffffffffffffff16815250506000826001600281106126ab576126aa614ed7565b5b602002015114156126d0576126cf8562ffffff16600861358090919063ffffffff16565b5b50612881565b806000600281106126ea576126e9614ed7565b5b6020020151880197508060006002811061270757612706614ed7565b5b60200201518303925060006dffffffffffffffffffffffffffff168160006002811061273657612735614ed7565b5b6020020181815250506127608160006002811061275657612755614ed7565b5b602002015161374f565b866040018181510391509070ffffffffffffffffffffffffffffffffff16908170ffffffffffffffffffffffffffffffffff16815250506127b08462ffffff16600b61358090919063ffffffff16565b60006127bb85612d96565b9050838102880197506127cf84820261330d565b6dffffffffffffffffffffffffffff16826001600281106127f3576127f2614ed7565b5b60200201818151039150818152505061280d84820261374f565b876060018181510391509070ffffffffffffffffffffffffffffffffff16908170ffffffffffffffffffffffffffffffffff168152505060008260016002811061285a57612859614ed7565b5b6020020151141561287f5761287e8562ffffff16600861358090919063ffffffff16565b5b505b5b6129008a601160008762ffffff1662ffffff1681526020019081526020016000208054806020026020016040519081016040528092919081815260200182805480156128ed57602002820191906000526020600020905b8154815260200190600101908083116128d9575b50505050506137b090919063ffffffff16565b601160008662ffffff1662ffffff168152602001908152602001600020908051906020019061293092919061455e565b50600f60008b815260200190815260200160002060008562ffffff1662ffffff1681526020019081526020016000206000905580600760008662ffffff16815260200190815260200160002090600261298a929190614444565b50508060010190506123e9565b506010600089815260200190815260200160002060006129b79190614536565b6129ce600b8560086130db9092919063ffffffff16565b85600001866020018262ffffff1662ffffff168152508262ffffff1662ffffff1681525050506000600e60008a815260200190815260200160002054905060008114612a9257600e60008a8152602001908152602001600020600090558085608001818151612a3d9190614fc3565b91508181525050612a918882600260009054906101000a900473ffffffffffffffffffffffffffffffffffffffff1673ffffffffffffffffffffffffffffffffffffffff166131789092919063ffffffff16565b5b84600360008201518160000160006101000a81548162ffffff021916908362ffffff16021790555060208201518160000160036101000a81548162ffffff021916908362ffffff16021790555060408201518160000160066101000a81548170ffffffffffffffffffffffffffffffffff021916908370ffffffffffffffffffffffffffffffffff16021790555060608201518160010160006101000a81548170ffffffffffffffffffffffffffffffffff021916908370ffffffffffffffffffffffffffffffffff1602179055506080820151816002015560a08201518160030155905050612bc58887600260009054906101000a900473ffffffffffffffffffffffffffffffffffffffff1673ffffffffffffffffffffffffffffffffffffffff166131789092919063ffffffff16565b601660009054906101000a900473ffffffffffffffffffffffffffffffffffffffff1673ffffffffffffffffffffffffffffffffffffffff166342966c688a6040518263ffffffff1660e01b8152600401612c2091906149ea565b600060405180830381600087803b158015612c3a57600080fd5b505af1158015612c4e573d6000803e3d6000fd5b50505050505050505060016000819055509250929050565b6000600e6000838152602001908152602001600020549050919050565b6000612c8e82612d96565b9050919050565b60007f01ffc9a7000000000000000000000000000000000000000000000000000000007bffffffffffffffffffffffffffffffffffffffffffffffffffffffff1916827bffffffffffffffffffffffffffffffffffffffffffffffffffffffff1916149050919050565b6000808284019050808573ffffffffffffffffffffffffffffffffffffffff166370a08231306040518263ffffffff1660e01b8152600401612d419190615228565b602060405180830381865afa158015612d5e573d6000803e3d6000fd5b505050506040513d601f19601f82011682018060405250810190612d829190615258565b612d8c9190614fc3565b9150509392505050565b6000612da68262ffffff16613888565b9050612dc6670de0b6b3a76400006080836138f59092919063ffffffff16565b9050919050565b600160005414612e09576040517f802d9bf100000000000000000000000000000000000000000000000000000000815260040160405180910390fd5b60026000819055506000601160008362ffffff1662ffffff168152602001908152602001600020805480602002602001604051908101604052809291908181526020018280548015612e7a57602002820191906000526020600020905b815481526020019060010190808311612e66575b505050505090506000601260008462ffffff1662ffffff168152602001908152602001600020549050601260008462ffffff1662ffffff168152602001908152602001600020600090556000612ecf84612d96565b600760008662ffffff168152602001908152602001600020600160028110612efa57612ef9614ed7565b5b0154612f0691906150a3565b600760008662ffffff168152602001908152602001600020600060028110612f3157612f30614ed7565b5b0154612f3d9190614f35565b905060008183612f4d91906150a3565b905060005b84518110156130055781600f6000878481518110612f7357612f72614ed7565b5b6020026020010151815260200190815260200160002060008862ffffff1662ffffff16815260200190815260200160002054612faf91906151ce565b600e6000878481518110612fc657612fc5614ed7565b5b602002602001015181526020019081526020016000206000828254612feb9190614f35565b925050819055508080612ffd90615285565b915050612f52565b5050505050600160008190555050565b6000600882901c90506000601083901c905060ff83166001901b8460026003811061304357613042614ed7565b5b0160008481526020019081526020016000206000828254179250508190555060ff82166001901b8460016003811061307e5761307d614ed7565b5b01600083815260200190815260200160002060008282541792505081905550806001901b846000600381106130b6576130b5614ed7565b5b0160008081526020019081526020016000206000828254179250508190555050505050565b6000806000836040015170ffffffffffffffffffffffffffffffffff161461313e57613109846000806139c5565b90506000836060015170ffffffffffffffffffffffffffffffffff161461313957613136858260016139c5565b91505b613170565b6000836060015170ffffffffffffffffffffffffffffffffff161461316f5761316c8562ffffff60016139c5565b91505b5b935093915050565b6000811461326657600063a9059cbb60e01b838360405160240161319d929190614f9a565b604051602081830303815290604052907bffffffffffffffffffffffffffffffffffffffffffffffffffffffff19166020820180517bffffffffffffffffffffffffffffffffffffffffffffffffffffffff8381831617835250505050905060006132088583613cda565b90506000815111801561322c57508080602001905181019061322a91906152fa565b155b15613263576040517f32e2717a00000000000000000000000000000000000000000000000000000000815260040160405180910390fd5b50505b505050565b60008083670de0b6b3a76400006132829190614fc3565b905080600182868661329491906151ce565b61329e9190614f35565b6132a89190614fc3565b6132b291906150a3565b91505092915050565b600080829150612710848402816132d5576132d4615043565b5b0490509250929050565b81836080018181516132f19190614f35565b91508181525050808360a0018181510191508181525050505050565b600081829150816dffffffffffffffffffffffffffff161461336657816040517f1ce5dcf700000000000000000000000000000000000000000000000000000000815260040161335d91906149ea565b60405180910390fd5b919050565b821561347757816dffffffffffffffffffffffffffff168560006002811061339657613395614ed7565b5b602002018181516133a79190614f35565b91508181525050806dffffffffffffffffffffffffffff16856001600281106133d3576133d2614ed7565b5b602002018181510391508181525050816dffffffffffffffffffffffffffff16846040018181510191509070ffffffffffffffffffffffffffffffffff16908170ffffffffffffffffffffffffffffffffff1681525050806dffffffffffffffffffffffffffff16846060018181510391509070ffffffffffffffffffffffffffffffffff16908170ffffffffffffffffffffffffffffffffff1681525050613579565b816dffffffffffffffffffffffffffff168560016002811061349c5761349b614ed7565b5b602002018181516134ad9190614f35565b91508181525050806dffffffffffffffffffffffffffff16856000600281106134d9576134d8614ed7565b5b602002018181510391508181525050806dffffffffffffffffffffffffffff16846040018181510391509070ffffffffffffffffffffffffffffffffff16908170ffffffffffffffffffffffffffffffffff1681525050816dffffffffffffffffffffffffffff16846060018181510191509070ffffffffffffffffffffffffffffffffff16908170ffffffffffffffffffffffffffffffffff16815250505b5050505050565b6000600882901c9050600060ff83166001901b7fffffffffffffffffffffffffffffffffffffffffffffffffffffffffffffffff18846002600381106135c9576135c8614ed7565b5b0160008481526020019081526020016000205416905080846002600381106135f4576135f3614ed7565b5b016000848152602001908152602001600020819055506000811415613701576000601084901c905060ff83166001901b7fffffffffffffffffffffffffffffffffffffffffffffffffffffffffffffffff188560016003811061365a57613659614ed7565b5b01600083815260200190815260200160002054169150818560016003811061368557613684614ed7565b5b0160008381526020019081526020016000208190555060008214156136ff57806001901b7fffffffffffffffffffffffffffffffffffffffffffffffffffffffffffffffff18856000600381106136df576136de614ed7565b5b016000808152602001908152602001600020600082825416925050819055505b505b50505050565b6000670de0b6b3a76400006001670de0b6b3a7640000858561372991906151ce565b6137339190614f35565b61373d9190614fc3565b61374791906150a3565b905092915050565b6000818291508170ffffffffffffffffffffffffffffffffff16146137ab57816040517fbdba3c9f0000000000000000000000000000000000000000000000000000000081526004016137a291906149ea565b60405180910390fd5b919050565b60606000600184516137c29190614fc3565b67ffffffffffffffff8111156137db576137da614a7f565b5b6040519080825280602002602001820160405280156138095781602001602082028036833780820191505090505b5090506000805b855181101561387c578481146138695785818151811061383357613832614ed7565b5b602002602001015183838151811061384e5761384d614ed7565b5b602002602001018181525050818061386590615285565b9250505b808061387490615285565b915050613810565b50819250505092915050565b600062ffffff80168211156138c9576040517f58f62eac00000000000000000000000000000000000000000000000000000000815260040160405180910390fd5b600062800000830390506138ed816138df613df3565b613e1990919063ffffffff16565b915050919050565b600060ff82111561393d57816040517fb72ecf5000000000000000000000000000000000000000000000000000000000815260040161393491906149ea565b60405180910390fd5b60008061394a8686614121565b915091506000821461395d578382901c92505b600081146139bc57836001901b81106139af5780846040517f3d90990f0000000000000000000000000000000000000000000000000000000081526004016139a6929190614718565b60405180910390fd5b836101000381901b830192505b50509392505050565b60008060006139d385614140565b8062ffffff16905080925081965050508380156139f1575060008114155b80613a07575083158015613a06575060ff8114155b5b15613a8c5785600260038110613a2057613a1f614ed7565b5b0160008662ffffff168152602001908152602001600020549150613a4f81858461415a9092919063ffffffff16565b90507fffffffffffffffffffffffffffffffffffffffffffffffffffffffffffffffff8114613a8b57613a82858261419c565b92505050613cd3565b5b613a9585614140565b8062ffffff1690508092508196505050838015613ab3575060008114155b80613ac9575083158015613ac8575060ff8114155b5b15613b9d5785600160038110613ae257613ae1614ed7565b5b0160008662ffffff168152602001908152602001600020549150613b1181858461415a9092919063ffffffff16565b90507fffffffffffffffffffffffffffffffffffffffffffffffffffffffffffffffff8114613b9c57613b44858261419c565b945085600260038110613b5a57613b59614ed7565b5b0160008662ffffff168152602001908152602001600020549150613b9385613b8b86856141b290919063ffffffff16565b60ff1661419c565b92505050613cd3565b5b85600060038110613bb157613bb0614ed7565b5b016000808152602001908152602001600020549150613bdb85858461415a9092919063ffffffff16565b90507fffffffffffffffffffffffffffffffffffffffffffffffffffffffffffffffff811415613c37576040517f10d6486100000000000000000000000000000000000000000000000000000000815260040160405180910390fd5b85600160038110613c4b57613c4a614ed7565b5b016000828152602001908152602001600020549150613c7f81613c7786856141b290919063ffffffff16565b60ff1661419c565b945085600260038110613c9557613c94614ed7565b5b0160008662ffffff168152602001908152602001600020549150613cce85613cc686856141b290919063ffffffff16565b60ff1661419c565b925050505b9392505050565b60606000808473ffffffffffffffffffffffffffffffffffffffff1684604051613d0491906153a1565b6000604051808303816000865af19150503d8060008114613d41576040519150601f19603f3d011682016040523d82523d6000602084013e613d46565b606091505b50915091508115613da45760008151148015613d685750613d66856141d9565b155b15613d9f576040517f5d97df8900000000000000000000000000000000000000000000000000000000815260040160405180910390fd5b613de8565b600081511415613de0576040517f2407429100000000000000000000000000000000000000000000000000000000815260040160405180910390fd5b805181602001fd5b809250505092915050565b600061271060806001901b81613e0c57613e0b615043565b5b0460806001901b01905090565b600080600080841415613e355760806001901b9250505061411b565b8390506000811215613e4c57806000039050811591505b621000008110156140965760806001901b9250846fffffffffffffffffffffffffffffffff861115613e845780600019049050821592505b6001821615613e965780840260801c93505b80810260801c90506002821615613eb05780840260801c93505b80810260801c90506004821615613eca5780840260801c93505b80810260801c90506008821615613ee45780840260801c93505b80810260801c90506010821615613efe5780840260801c93505b80810260801c90506020821615613f185780840260801c93505b80810260801c90506040821615613f325780840260801c93505b80810260801c90506080821615613f4c5780840260801c93505b80810260801c9050610100821615613f675780840260801c93505b80810260801c9050610200821615613f825780840260801c93505b80810260801c9050610400821615613f9d5780840260801c93505b80810260801c9050610800821615613fb85780840260801c93505b80810260801c9050611000821615613fd35780840260801c93505b80810260801c9050612000821615613fee5780840260801c93505b80810260801c90506140008216156140095780840260801c93505b80810260801c90506180008216156140245780840260801c93505b80810260801c9050620100008216156140405780840260801c93505b80810260801c90506202000082161561405c5780840260801c93505b80810260801c9050620400008216156140785780840260801c93505b80810260801c9050620800008216156140945780840260801c93505b505b60008314156140de5784846040517f74e3eb080000000000000000000000000000000000000000000000000000000081526004016140d59291906153d1565b60405180910390fd5b816140e95782614116565b827fffffffffffffffffffffffffffffffffffffffffffffffffffffffffffffffff61411591906150a3565b5b925050505b92915050565b6000806000198385098385029250828110838203039150509250929050565b60008060088362ffffff16901c60ff841691509150915091565b60008161417c57614177846001856141729190615407565b6141fc565b614193565b6141928460018561418d919061543e565b61424c565b5b90509392505050565b60008160088462ffffff16901b01905092915050565b6000816141c7576141c2836142a4565b6141d1565b6141d083614377565b5b905092915050565b6000808273ffffffffffffffffffffffffffffffffffffffff163b119050919050565b60008160ff1683901c9250600083146142225781614219846142a4565b0160ff16614244565b7fffffffffffffffffffffffffffffffffffffffffffffffffffffffffffffffff5b905092915050565b6000808260ff0360ff1690508084901b935060008414614279578061427085614377565b60ff160361429b565b7fffffffffffffffffffffffffffffffffffffffffffffffffffffffffffffffff5b91505092915050565b600080608083901b146142bd57608082901b9150608090505b6000604083901b146142d757604082901b91506040810190505b6000602083901b146142f157602082901b91506020810190505b6000601083901b1461430b57601082901b91506010810190505b6000600883901b1461432557600882901b91506008810190505b6000600483901b1461433f57600482901b91506004810190505b6000600283901b1461435957600282901b91506002810190505b6000600183901b1461436c576001810190505b8060ff039050919050565b6000700100000000000000000000000000000000821061439d57608082901c9150608090505b6801000000000000000082106143bb57604082901c91506040810190505b64010000000082106143d557602082901c91506020810190505b6201000082106143ed57601082901c91506010810190505b610100821061440457600882901c91506008810190505b6010821061441a57600482901c91506004810190505b6004821061443057600282901c91506002810190505b6002821061443f576001810190505b919050565b8260028101928215614473579160200282015b82811115614472578251825591602001919060010190614457565b5b50905061448091906145ab565b5090565b82805482825590600052602060002090600901600a900481019282156145255791602002820160005b838211156144f457833562ffffff1683826101000a81548162ffffff021916908362ffffff16021790555092602001926003016020816002010492830192600103026144ad565b80156145235782816101000a81549062ffffff02191690556003016020816002010492830192600103026144f4565b505b50905061453291906145ab565b5090565b50805460008255600901600a90049060005260206000209081019061455b91906145ab565b50565b82805482825590600052602060002090810192821561459a579160200282015b8281111561459957825182559160200191906001019061457e565b5b5090506145a791906145ab565b5090565b5b808211156145c45760008160009055506001016145ac565b5090565b6000604051905090565b600080fd5b600080fd5b60007fffffffff0000000000000000000000000000000000000000000000000000000082169050919050565b614611816145dc565b811461461c57600080fd5b50565b60008135905061462e81614608565b92915050565b60006020828403121561464a576146496145d2565b5b60006146588482850161461f565b91505092915050565b60008115159050919050565b61467681614661565b82525050565b6000602082019050614691600083018461466d565b92915050565b600062ffffff82169050919050565b6146af81614697565b81146146ba57600080fd5b50565b6000813590506146cc816146a6565b92915050565b6000602082840312156146e8576146e76145d2565b5b60006146f6848285016146bd565b91505092915050565b6000819050919050565b614712816146ff565b82525050565b600060408201905061472d6000830185614709565b61473a6020830184614709565b9392505050565b600073ffffffffffffffffffffffffffffffffffffffff82169050919050565b6000819050919050565b600061478661478161477c84614741565b614761565b614741565b9050919050565b60006147988261476b565b9050919050565b60006147aa8261478d565b9050919050565b6147ba8161479f565b82525050565b60006020820190506147d560008301846147b1565b92915050565b60006080820190506147f06000830187614709565b6147fd6020830186614709565b61480a6040830185614709565b6148176060830184614709565b95945050505050565b600061482b8261478d565b9050919050565b61483b81614820565b82525050565b60006020820190506148566000830184614832565b92915050565b600080fd5b600080fd5b600080fd5b60008083601f8401126148815761488061485c565b5b8235905067ffffffffffffffff81111561489e5761489d614861565b5b6020830191508360208202830111156148ba576148b9614866565b5b9250929050565b60008083601f8401126148d7576148d661485c565b5b8235905067ffffffffffffffff8111156148f4576148f3614861565b5b6020830191508360208202830111156149105761490f614866565b5b9250929050565b600061492282614741565b9050919050565b61493281614917565b811461493d57600080fd5b50565b60008135905061494f81614929565b92915050565b600080600080600060608688031215614971576149706145d2565b5b600086013567ffffffffffffffff81111561498f5761498e6145d7565b5b61499b8882890161486b565b9550955050602086013567ffffffffffffffff8111156149be576149bd6145d7565b5b6149ca888289016148c1565b935093505060406149dd88828901614940565b9150509295509295909350565b60006020820190506149ff6000830184614709565b92915050565b6000614a108261478d565b9050919050565b614a2081614a05565b82525050565b6000602082019050614a3b6000830184614a17565b92915050565b600060208284031215614a5757614a566145d2565b5b6000614a6584828501614940565b91505092915050565b6000601f19601f8301169050919050565b7f4e487b7100000000000000000000000000000000000000000000000000000000600052604160045260246000fd5b614ab782614a6e565b810181811067ffffffffffffffff82111715614ad657614ad5614a7f565b5b80604052505050565b6000614ae96145c8565b9050614af58282614aae565b919050565b600067ffffffffffffffff821115614b1557614b14614a7f565b5b602082029050602081019050919050565b614b2f816146ff565b8114614b3a57600080fd5b50565b600081359050614b4c81614b26565b92915050565b6000614b65614b6084614afa565b614adf565b90508083825260208201905060208402830185811115614b8857614b87614866565b5b835b81811015614bb15780614b9d8882614b3d565b845260208401935050602081019050614b8a565b5050509392505050565b600082601f830112614bd057614bcf61485c565b5b8135614be0848260208601614b52565b91505092915050565b600080fd5b600067ffffffffffffffff821115614c0957614c08614a7f565b5b614c1282614a6e565b9050602081019050919050565b82818337600083830152505050565b6000614c41614c3c84614bee565b614adf565b905082815260208101848484011115614c5d57614c5c614be9565b5b614c68848285614c1f565b509392505050565b600082601f830112614c8557614c8461485c565b5b8135614c95848260208601614c2e565b91505092915050565b600080600080600060a08688031215614cba57614cb96145d2565b5b6000614cc888828901614940565b9550506020614cd988828901614940565b945050604086013567ffffffffffffffff811115614cfa57614cf96145d7565b5b614d0688828901614bbb565b935050606086013567ffffffffffffffff811115614d2757614d266145d7565b5b614d3388828901614bbb565b925050608086013567ffffffffffffffff811115614d5457614d536145d7565b5b614d6088828901614c70565b9150509295509295909350565b614d76816145dc565b82525050565b6000602082019050614d916000830184614d6d565b92915050565b6000614da28261478d565b9050919050565b614db281614d97565b82525050565b6000602082019050614dcd6000830184614da9565b92915050565b600080600080600060a08688031215614def57614dee6145d2565b5b6000614dfd88828901614940565b9550506020614e0e88828901614940565b9450506040614e1f88828901614b3d565b9350506060614e3088828901614b3d565b925050608086013567ffffffffffffffff811115614e5157614e506145d7565b5b614e5d88828901614c70565b9150509295509295909350565b60008060408385031215614e8157614e806145d2565b5b6000614e8f85828601614b3d565b9250506020614ea085828601614940565b9150509250929050565b600060208284031215614ec057614ebf6145d2565b5b6000614ece84828501614b3d565b91505092915050565b7f4e487b7100000000000000000000000000000000000000000000000000000000600052603260045260246000fd5b7f4e487b7100000000000000000000000000000000000000000000000000000000600052601160045260246000fd5b6000614f40826146ff565b9150614f4b836146ff565b9250827fffffffffffffffffffffffffffffffffffffffffffffffffffffffffffffffff03821115614f8057614f7f614f06565b5b828201905092915050565b614f9481614917565b82525050565b6000604082019050614faf6000830185614f8b565b614fbc6020830184614709565b9392505050565b6000614fce826146ff565b9150614fd9836146ff565b925082821015614fec57614feb614f06565b5b828203905092915050565b600061501261500d61500884614697565b614761565b6146ff565b9050919050565b61502281614ff7565b82525050565b600060208201905061503d6000830184615019565b92915050565b7f4e487b7100000000000000000000000000000000000000000000000000000000600052601260045260246000fd5b600061507d826146ff565b9150615088836146ff565b92508261509857615097615043565b5b828206905092915050565b60006150ae826146ff565b91506150b9836146ff565b9250826150c9576150c8615043565b5b828204905092915050565b6000815190506150e381614929565b92915050565b6000602082840312156150ff576150fe6145d2565b5b600061510d848285016150d4565b91505092915050565b600060408201905061512b6000830185614f8b565b6151386020830184614f8b565b9392505050565b600082825260208201905092915050565b50565b600061516060008361513f565b915061516b82615150565b600082019050919050565b600060a08201905061518b6000830187614f8b565b6151986020830186614f8b565b6151a56040830185614709565b6151b26060830184614709565b81810360808301526151c381615153565b905095945050505050565b60006151d9826146ff565b91506151e4836146ff565b9250817fffffffffffffffffffffffffffffffffffffffffffffffffffffffffffffffff048311821515161561521d5761521c614f06565b5b828202905092915050565b600060208201905061523d6000830184614f8b565b92915050565b60008151905061525281614b26565b92915050565b60006020828403121561526e5761526d6145d2565b5b600061527c84828501615243565b91505092915050565b6000615290826146ff565b91507fffffffffffffffffffffffffffffffffffffffffffffffffffffffffffffffff8214156152c3576152c2614f06565b5b600182019050919050565b6152d781614661565b81146152e257600080fd5b50565b6000815190506152f4816152ce565b92915050565b6000602082840312156153105761530f6145d2565b5b600061531e848285016152e5565b91505092915050565b600081519050919050565b600081905092915050565b60005b8381101561535b578082015181840152602081019050615340565b8381111561536a576000848401525b50505050565b600061537b82615327565b6153858185615332565b935061539581856020860161533d565b80840191505092915050565b60006153ad8284615370565b915081905092915050565b6000819050919050565b6153cb816153b8565b82525050565b60006040820190506153e66000830185614709565b6153f360208301846153c2565b9392505050565b600060ff82169050919050565b6000615412826153fa565b915061541d836153fa565b92508260ff0382111561543357615432614f06565b5b828201905092915050565b6000615449826153fa565b9150615454836153fa565b92508282101561546757615466614f06565b5b82820390509291505056fea26469706673582212209d0291516ac8f97636363d972ee1bc1e9cafba9366daf6878a662d00791e21bf64736f6c634300080a0033a26469706673582212200da42d4dd61f0d23de34f22fdadf58bda340458b890e14e05f90f81b62c4f9ce64736f6c634300080a0033",
			"opcodes": "PUSH1 0xA0 PUSH1 0x40 MSTORE CALLVALUE DUP1 ISZERO PUSH3 0x11 JUMPI PUSH1 0x0 DUP1 REVERT JUMPDEST POP PUSH1 0x40 MLOAD PUSH3 0xA12A CODESIZE SUB DUP1 PUSH3 0xA12A DUP4 CODECOPY DUP2 DUP2 ADD PUSH1 0x40 MSTORE DUP2 ADD SWAP1 PUSH3 0x37 SWAP2 SWAP1 PUSH3 0x20A JUMP JUMPDEST ADDRESS PUSH20 0xFFFFFFFFFFFFFFFFFFFFFFFFFFFFFFFFFFFFFFFF AND PUSH1 0x80 DUP2 PUSH20 0xFFFFFFFFFFFFFFFFFFFFFFFFFFFFFFFFFFFFFFFF AND DUP2 MSTORE POP POP CALLER PUSH1 0xB PUSH1 0x0 PUSH2 0x100 EXP DUP2 SLOAD DUP2 PUSH20 0xFFFFFFFFFFFFFFFFFFFFFFFFFFFFFFFFFFFFFFFF MUL NOT AND SWAP1 DUP4 PUSH20 0xFFFFFFFFFFFFFFFFFFFFFFFFFFFFFFFFFFFFFFFF AND MUL OR SWAP1 SSTORE POP CALLER PUSH20 0xFFFFFFFFFFFFFFFFFFFFFFFFFFFFFFFFFFFFFFFF AND PUSH1 0x0 PUSH20 0xFFFFFFFFFFFFFFFFFFFFFFFFFFFFFFFFFFFFFFFF AND PUSH32 0xB532073B38C83145E3E5135377A08BF9AAB55BC0FD7C1179CD4FB995D2A5159C PUSH1 0x40 MLOAD PUSH1 0x40 MLOAD DUP1 SWAP2 SUB SWAP1 LOG3 DUP1 PUSH1 0xC PUSH1 0x0 PUSH2 0x100 EXP DUP2 SLOAD DUP2 PUSH16 0xFFFFFFFFFFFFFFFFFFFFFFFFFFFFFFFF MUL NOT AND SWAP1 DUP4 PUSH16 0xFFFFFFFFFFFFFFFFFFFFFFFFFFFFFFFF AND MUL OR SWAP1 SSTORE POP PUSH1 0xC PUSH1 0x0 SWAP1 SLOAD SWAP1 PUSH2 0x100 EXP SWAP1 DIV PUSH16 0xFFFFFFFFFFFFFFFFFFFFFFFFFFFFFFFF AND PUSH16 0xFFFFFFFFFFFFFFFFFFFFFFFFFFFFFFFF AND PUSH1 0x0 PUSH16 0xFFFFFFFFFFFFFFFFFFFFFFFFFFFFFFFF AND PUSH32 0x26422B40DF1058C69BADA67C7C42ADE33C6D1AE80778F5A65DEF8D6E57D7523 PUSH1 0x40 MLOAD PUSH1 0x40 MLOAD DUP1 SWAP2 SUB SWAP1 LOG3 POP PUSH3 0x23C JUMP JUMPDEST PUSH1 0x0 DUP1 REVERT JUMPDEST PUSH1 0x0 PUSH16 0xFFFFFFFFFFFFFFFFFFFFFFFFFFFFFFFF DUP3 AND SWAP1 POP SWAP2 SWAP1 POP JUMP JUMPDEST PUSH3 0x1E4 DUP2 PUSH3 0x1BD JUMP JUMPDEST DUP2 EQ PUSH3 0x1F0 JUMPI PUSH1 0x0 DUP1 REVERT JUMPDEST POP JUMP JUMPDEST PUSH1 0x0 DUP2 MLOAD SWAP1 POP PUSH3 0x204 DUP2 PUSH3 0x1D9 JUMP JUMPDEST SWAP3 SWAP2 POP POP JUMP JUMPDEST PUSH1 0x0 PUSH1 0x20 DUP3 DUP5 SUB SLT ISZERO PUSH3 0x223 JUMPI PUSH3 0x222 PUSH3 0x1B8 JUMP JUMPDEST JUMPDEST PUSH1 0x0 PUSH3 0x233 DUP5 DUP3 DUP6 ADD PUSH3 0x1F3 JUMP JUMPDEST SWAP2 POP POP SWAP3 SWAP2 POP POP JUMP JUMPDEST PUSH1 0x80 MLOAD PUSH2 0x9ED2 PUSH3 0x258 PUSH1 0x0 CODECOPY PUSH1 0x0 PUSH2 0xAAE ADD MSTORE PUSH2 0x9ED2 PUSH1 0x0 RETURN INVALID PUSH1 0x80 PUSH1 0x40 MSTORE CALLVALUE DUP1 ISZERO PUSH3 0x11 JUMPI PUSH1 0x0 DUP1 REVERT JUMPDEST POP PUSH1 0x4 CALLDATASIZE LT PUSH3 0xA0 JUMPI PUSH1 0x0 CALLDATALOAD PUSH1 0xE0 SHR DUP1 PUSH4 0x9BE02CA7 GT PUSH3 0x6F JUMPI DUP1 PUSH4 0x9BE02CA7 EQ PUSH3 0x140 JUMPI DUP1 PUSH4 0x9F392ED8 EQ PUSH3 0x176 JUMPI DUP1 PUSH4 0xA771EBC7 EQ PUSH3 0x19D JUMPI DUP1 PUSH4 0xACD35461 EQ PUSH3 0x1BF JUMPI DUP1 PUSH4 0xE79129CE EQ PUSH3 0x1F5 JUMPI PUSH3 0xA0 JUMP JUMPDEST DUP1 PUSH4 0x13AF4035 EQ PUSH3 0xA5 JUMPI DUP1 PUSH4 0x2874B49A EQ PUSH3 0xC5 JUMPI DUP1 PUSH4 0x46904840 EQ PUSH3 0xFC JUMPI DUP1 PUSH4 0x8DA5CB5B EQ PUSH3 0x11E JUMPI JUMPDEST PUSH1 0x0 DUP1 REVERT JUMPDEST PUSH3 0xC3 PUSH1 0x4 DUP1 CALLDATASIZE SUB DUP2 ADD SWAP1 PUSH3 0xBD SWAP2 SWAP1 PUSH3 0x1080 JUMP JUMPDEST PUSH3 0x21B JUMP JUMPDEST STOP JUMPDEST PUSH3 0xE3 PUSH1 0x4 DUP1 CALLDATASIZE SUB DUP2 ADD SWAP1 PUSH3 0xDD SWAP2 SWAP1 PUSH3 0x113A JUMP JUMPDEST PUSH3 0x336 JUMP JUMPDEST PUSH1 0x40 MLOAD PUSH3 0xF3 SWAP3 SWAP2 SWAP1 PUSH3 0x11BD JUMP JUMPDEST PUSH1 0x40 MLOAD DUP1 SWAP2 SUB SWAP1 RETURN JUMPDEST PUSH3 0x106 PUSH3 0x816 JUMP JUMPDEST PUSH1 0x40 MLOAD PUSH3 0x115 SWAP2 SWAP1 PUSH3 0x11EA JUMP JUMPDEST PUSH1 0x40 MLOAD DUP1 SWAP2 SUB SWAP1 RETURN JUMPDEST PUSH3 0x128 PUSH3 0x840 JUMP JUMPDEST PUSH1 0x40 MLOAD PUSH3 0x137 SWAP2 SWAP1 PUSH3 0x11EA JUMP JUMPDEST PUSH1 0x40 MLOAD DUP1 SWAP2 SUB SWAP1 RETURN JUMPDEST PUSH3 0x15E PUSH1 0x4 DUP1 CALLDATASIZE SUB DUP2 ADD SWAP1 PUSH3 0x158 SWAP2 SWAP1 PUSH3 0x1207 JUMP JUMPDEST PUSH3 0x866 JUMP JUMPDEST PUSH1 0x40 MLOAD PUSH3 0x16D SWAP2 SWAP1 PUSH3 0x11EA JUMP JUMPDEST PUSH1 0x40 MLOAD DUP1 SWAP2 SUB SWAP1 RETURN JUMPDEST PUSH3 0x180 PUSH3 0x8B5 JUMP JUMPDEST PUSH1 0x40 MLOAD PUSH3 0x194 SWAP7 SWAP6 SWAP5 SWAP4 SWAP3 SWAP2 SWAP1 PUSH3 0x1285 JUMP JUMPDEST PUSH1 0x40 MLOAD DUP1 SWAP2 SUB SWAP1 RETURN JUMPDEST PUSH3 0x1A7 PUSH3 0x97B JUMP JUMPDEST PUSH1 0x40 MLOAD PUSH3 0x1B6 SWAP2 SWAP1 PUSH3 0x12F2 JUMP JUMPDEST PUSH1 0x40 MLOAD DUP1 SWAP2 SUB SWAP1 RETURN JUMPDEST PUSH3 0x1DD PUSH1 0x4 DUP1 CALLDATASIZE SUB DUP2 ADD SWAP1 PUSH3 0x1D7 SWAP2 SWAP1 PUSH3 0x1207 JUMP JUMPDEST PUSH3 0x99D JUMP JUMPDEST PUSH1 0x40 MLOAD PUSH3 0x1EC SWAP2 SWAP1 PUSH3 0x11EA JUMP JUMPDEST PUSH1 0x40 MLOAD DUP1 SWAP2 SUB SWAP1 RETURN JUMPDEST PUSH3 0x1FF PUSH3 0x9EC JUMP JUMPDEST PUSH1 0x40 MLOAD PUSH3 0x212 SWAP6 SWAP5 SWAP4 SWAP3 SWAP2 SWAP1 PUSH3 0x130F JUMP JUMPDEST PUSH1 0x40 MLOAD DUP1 SWAP2 SUB SWAP1 RETURN JUMPDEST PUSH1 0xB PUSH1 0x0 SWAP1 SLOAD SWAP1 PUSH2 0x100 EXP SWAP1 DIV PUSH20 0xFFFFFFFFFFFFFFFFFFFFFFFFFFFFFFFFFFFFFFFF AND PUSH20 0xFFFFFFFFFFFFFFFFFFFFFFFFFFFFFFFFFFFFFFFF AND CALLER PUSH20 0xFFFFFFFFFFFFFFFFFFFFFFFFFFFFFFFFFFFFFFFF AND EQ PUSH3 0x276 JUMPI PUSH1 0x0 DUP1 REVERT JUMPDEST DUP1 PUSH20 0xFFFFFFFFFFFFFFFFFFFFFFFFFFFFFFFFFFFFFFFF AND PUSH1 0xB PUSH1 0x0 SWAP1 SLOAD SWAP1 PUSH2 0x100 EXP SWAP1 DIV PUSH20 0xFFFFFFFFFFFFFFFFFFFFFFFFFFFFFFFFFFFFFFFF AND PUSH20 0xFFFFFFFFFFFFFFFFFFFFFFFFFFFFFFFFFFFFFFFF AND PUSH32 0xB532073B38C83145E3E5135377A08BF9AAB55BC0FD7C1179CD4FB995D2A5159C PUSH1 0x40 MLOAD PUSH1 0x40 MLOAD DUP1 SWAP2 SUB SWAP1 LOG3 DUP1 PUSH1 0xB PUSH1 0x0 PUSH2 0x100 EXP DUP2 SLOAD DUP2 PUSH20 0xFFFFFFFFFFFFFFFFFFFFFFFFFFFFFFFFFFFFFFFF MUL NOT AND SWAP1 DUP4 PUSH20 0xFFFFFFFFFFFFFFFFFFFFFFFFFFFFFFFFFFFFFFFF AND MUL OR SWAP1 SSTORE POP POP JUMP JUMPDEST PUSH1 0x0 DUP1 PUSH3 0x343 PUSH3 0xAAC JUMP JUMPDEST DUP5 PUSH20 0xFFFFFFFFFFFFFFFFFFFFFFFFFFFFFFFFFFFFFFFF AND DUP7 PUSH20 0xFFFFFFFFFFFFFFFFFFFFFFFFFFFFFFFFFFFFFFFF AND EQ ISZERO PUSH3 0x37D JUMPI PUSH1 0x0 DUP1 REVERT JUMPDEST PUSH1 0x0 DUP1 PUSH3 0x38C DUP9 DUP9 PUSH3 0xB07 JUMP JUMPDEST SWAP2 POP SWAP2 POP PUSH1 0x0 PUSH20 0xFFFFFFFFFFFFFFFFFFFFFFFFFFFFFFFFFFFFFFFF AND DUP2 PUSH20 0xFFFFFFFFFFFFFFFFFFFFFFFFFFFFFFFFFFFFFFFF AND EQ ISZERO PUSH3 0x3CB JUMPI PUSH1 0x0 DUP1 REVERT JUMPDEST PUSH1 0xC PUSH1 0x0 SWAP1 SLOAD SWAP1 PUSH2 0x100 EXP SWAP1 DIV PUSH16 0xFFFFFFFFFFFFFFFFFFFFFFFFFFFFFFFF AND PUSH16 0xFFFFFFFFFFFFFFFFFFFFFFFFFFFFFFFF AND DUP6 PUSH16 0xFFFFFFFFFFFFFFFFFFFFFFFFFFFFFFFF AND EQ PUSH3 0x452 JUMPI PUSH1 0x40 MLOAD PUSH32 0x8C379A000000000000000000000000000000000000000000000000000000000 DUP2 MSTORE PUSH1 0x4 ADD PUSH3 0x449 SWAP1 PUSH3 0x13CD JUMP JUMPDEST PUSH1 0x40 MLOAD DUP1 SWAP2 SUB SWAP1 REVERT JUMPDEST PUSH1 0x0 PUSH20 0xFFFFFFFFFFFFFFFFFFFFFFFFFFFFFFFFFFFFFFFF AND PUSH1 0xD PUSH1 0x0 DUP5 PUSH20 0xFFFFFFFFFFFFFFFFFFFFFFFFFFFFFFFFFFFFFFFF AND PUSH20 0xFFFFFFFFFFFFFFFFFFFFFFFFFFFFFFFFFFFFFFFF AND DUP2 MSTORE PUSH1 0x20 ADD SWAP1 DUP2 MSTORE PUSH1 0x20 ADD PUSH1 0x0 KECCAK256 PUSH1 0x0 DUP4 PUSH20 0xFFFFFFFFFFFFFFFFFFFFFFFFFFFFFFFFFFFFFFFF AND PUSH20 0xFFFFFFFFFFFFFFFFFFFFFFFFFFFFFFFFFFFFFFFF AND DUP2 MSTORE PUSH1 0x20 ADD SWAP1 DUP2 MSTORE PUSH1 0x20 ADD PUSH1 0x0 KECCAK256 PUSH1 0x0 DUP9 DUP2 MSTORE PUSH1 0x20 ADD SWAP1 DUP2 MSTORE PUSH1 0x20 ADD PUSH1 0x0 KECCAK256 PUSH1 0x0 SWAP1 SLOAD SWAP1 PUSH2 0x100 EXP SWAP1 DIV PUSH20 0xFFFFFFFFFFFFFFFFFFFFFFFFFFFFFFFFFFFFFFFF AND PUSH20 0xFFFFFFFFFFFFFFFFFFFFFFFFFFFFFFFFFFFFFFFF AND EQ PUSH3 0x571 JUMPI PUSH1 0x40 MLOAD PUSH32 0x8C379A000000000000000000000000000000000000000000000000000000000 DUP2 MSTORE PUSH1 0x4 ADD PUSH3 0x568 SWAP1 PUSH3 0x143F JUMP JUMPDEST PUSH1 0x40 MLOAD DUP1 SWAP2 SUB SWAP1 REVERT JUMPDEST PUSH3 0x580 ADDRESS DUP4 DUP4 DUP10 DUP10 PUSH3 0xC3E JUMP JUMPDEST DUP1 SWAP5 POP DUP2 SWAP6 POP POP POP DUP4 PUSH20 0xFFFFFFFFFFFFFFFFFFFFFFFFFFFFFFFFFFFFFFFF AND PUSH4 0xC4D66DE8 DUP5 PUSH1 0x40 MLOAD DUP3 PUSH4 0xFFFFFFFF AND PUSH1 0xE0 SHL DUP2 MSTORE PUSH1 0x4 ADD PUSH3 0x5C3 SWAP2 SWAP1 PUSH3 0x11EA JUMP JUMPDEST PUSH1 0x0 PUSH1 0x40 MLOAD DUP1 DUP4 SUB DUP2 PUSH1 0x0 DUP8 DUP1 EXTCODESIZE ISZERO DUP1 ISZERO PUSH3 0x5DE JUMPI PUSH1 0x0 DUP1 REVERT JUMPDEST POP GAS CALL ISZERO DUP1 ISZERO PUSH3 0x5F3 JUMPI RETURNDATASIZE PUSH1 0x0 DUP1 RETURNDATACOPY RETURNDATASIZE PUSH1 0x0 REVERT JUMPDEST POP POP POP POP DUP3 PUSH1 0xD PUSH1 0x0 DUP5 PUSH20 0xFFFFFFFFFFFFFFFFFFFFFFFFFFFFFFFFFFFFFFFF AND PUSH20 0xFFFFFFFFFFFFFFFFFFFFFFFFFFFFFFFFFFFFFFFF AND DUP2 MSTORE PUSH1 0x20 ADD SWAP1 DUP2 MSTORE PUSH1 0x20 ADD PUSH1 0x0 KECCAK256 PUSH1 0x0 DUP4 PUSH20 0xFFFFFFFFFFFFFFFFFFFFFFFFFFFFFFFFFFFFFFFF AND PUSH20 0xFFFFFFFFFFFFFFFFFFFFFFFFFFFFFFFFFFFFFFFF AND DUP2 MSTORE PUSH1 0x20 ADD SWAP1 DUP2 MSTORE PUSH1 0x20 ADD PUSH1 0x0 KECCAK256 PUSH1 0x0 DUP9 DUP2 MSTORE PUSH1 0x20 ADD SWAP1 DUP2 MSTORE PUSH1 0x20 ADD PUSH1 0x0 KECCAK256 PUSH1 0x0 PUSH2 0x100 EXP DUP2 SLOAD DUP2 PUSH20 0xFFFFFFFFFFFFFFFFFFFFFFFFFFFFFFFFFFFFFFFF MUL NOT AND SWAP1 DUP4 PUSH20 0xFFFFFFFFFFFFFFFFFFFFFFFFFFFFFFFFFFFFFFFF AND MUL OR SWAP1 SSTORE POP DUP4 PUSH1 0xE PUSH1 0x0 DUP5 PUSH20 0xFFFFFFFFFFFFFFFFFFFFFFFFFFFFFFFFFFFFFFFF AND PUSH20 0xFFFFFFFFFFFFFFFFFFFFFFFFFFFFFFFFFFFFFFFF AND DUP2 MSTORE PUSH1 0x20 ADD SWAP1 DUP2 MSTORE PUSH1 0x20 ADD PUSH1 0x0 KECCAK256 PUSH1 0x0 DUP4 PUSH20 0xFFFFFFFFFFFFFFFFFFFFFFFFFFFFFFFFFFFFFFFF AND PUSH20 0xFFFFFFFFFFFFFFFFFFFFFFFFFFFFFFFFFFFFFFFF AND DUP2 MSTORE PUSH1 0x20 ADD SWAP1 DUP2 MSTORE PUSH1 0x20 ADD PUSH1 0x0 KECCAK256 PUSH1 0x0 DUP9 DUP2 MSTORE PUSH1 0x20 ADD SWAP1 DUP2 MSTORE PUSH1 0x20 ADD PUSH1 0x0 KECCAK256 PUSH1 0x0 PUSH2 0x100 EXP DUP2 SLOAD DUP2 PUSH20 0xFFFFFFFFFFFFFFFFFFFFFFFFFFFFFFFFFFFFFFFF MUL NOT AND SWAP1 DUP4 PUSH20 0xFFFFFFFFFFFFFFFFFFFFFFFFFFFFFFFFFFFFFFFF AND MUL OR SWAP1 SSTORE POP DUP5 PUSH16 0xFFFFFFFFFFFFFFFFFFFFFFFFFFFFFFFF AND DUP2 PUSH20 0xFFFFFFFFFFFFFFFFFFFFFFFFFFFFFFFFFFFFFFFF AND DUP4 PUSH20 0xFFFFFFFFFFFFFFFFFFFFFFFFFFFFFFFFFFFFFFFF AND PUSH32 0xFF8CFA22379D26BF170D6B51E89CDD427ECFF0E00A8709EDC1D5D909705D2009 DUP7 DUP9 PUSH1 0x40 MLOAD PUSH3 0x803 SWAP3 SWAP2 SWAP1 PUSH3 0x11BD JUMP JUMPDEST PUSH1 0x40 MLOAD DUP1 SWAP2 SUB SWAP1 LOG4 POP POP SWAP5 POP SWAP5 SWAP3 POP POP POP JUMP JUMPDEST PUSH1 0x0 PUSH1 0xB PUSH1 0x0 SWAP1 SLOAD SWAP1 PUSH2 0x100 EXP SWAP1 DIV PUSH20 0xFFFFFFFFFFFFFFFFFFFFFFFFFFFFFFFFFFFFFFFF AND SWAP1 POP SWAP1 JUMP JUMPDEST PUSH1 0xB PUSH1 0x0 SWAP1 SLOAD SWAP1 PUSH2 0x100 EXP SWAP1 DIV PUSH20 0xFFFFFFFFFFFFFFFFFFFFFFFFFFFFFFFFFFFFFFFF AND DUP2 JUMP JUMPDEST PUSH1 0xD PUSH1 0x20 MSTORE DUP3 PUSH1 0x0 MSTORE PUSH1 0x40 PUSH1 0x0 KECCAK256 PUSH1 0x20 MSTORE DUP2 PUSH1 0x0 MSTORE PUSH1 0x40 PUSH1 0x0 KECCAK256 PUSH1 0x20 MSTORE DUP1 PUSH1 0x0 MSTORE PUSH1 0x40 PUSH1 0x0 KECCAK256 PUSH1 0x0 SWAP3 POP SWAP3 POP POP SWAP1 SLOAD SWAP1 PUSH2 0x100 EXP SWAP1 DIV PUSH20 0xFFFFFFFFFFFFFFFFFFFFFFFFFFFFFFFFFFFFFFFF AND DUP2 JUMP JUMPDEST PUSH1 0x5 DUP1 PUSH1 0x0 ADD PUSH1 0x0 SWAP1 SLOAD SWAP1 PUSH2 0x100 EXP SWAP1 DIV PUSH20 0xFFFFFFFFFFFFFFFFFFFFFFFFFFFFFFFFFFFFFFFF AND SWAP1 DUP1 PUSH1 0x1 ADD PUSH1 0x0 SWAP1 SLOAD SWAP1 PUSH2 0x100 EXP SWAP1 DIV PUSH20 0xFFFFFFFFFFFFFFFFFFFFFFFFFFFFFFFFFFFFFFFF AND SWAP1 DUP1 PUSH1 0x2 ADD PUSH1 0x0 SWAP1 SLOAD SWAP1 PUSH2 0x100 EXP SWAP1 DIV PUSH20 0xFFFFFFFFFFFFFFFFFFFFFFFFFFFFFFFFFFFFFFFF AND SWAP1 DUP1 PUSH1 0x3 ADD PUSH1 0x0 SWAP1 SLOAD SWAP1 PUSH2 0x100 EXP SWAP1 DIV PUSH20 0xFFFFFFFFFFFFFFFFFFFFFFFFFFFFFFFFFFFFFFFF AND SWAP1 DUP1 PUSH1 0x4 ADD SLOAD SWAP1 DUP1 PUSH1 0x5 ADD PUSH1 0x0 SWAP1 SLOAD SWAP1 PUSH2 0x100 EXP SWAP1 DIV PUSH16 0xFFFFFFFFFFFFFFFFFFFFFFFFFFFFFFFF AND SWAP1 POP DUP7 JUMP JUMPDEST PUSH1 0xC PUSH1 0x0 SWAP1 SLOAD SWAP1 PUSH2 0x100 EXP SWAP1 DIV PUSH16 0xFFFFFFFFFFFFFFFFFFFFFFFFFFFFFFFF AND DUP2 JUMP JUMPDEST PUSH1 0xE PUSH1 0x20 MSTORE DUP3 PUSH1 0x0 MSTORE PUSH1 0x40 PUSH1 0x0 KECCAK256 PUSH1 0x20 MSTORE DUP2 PUSH1 0x0 MSTORE PUSH1 0x40 PUSH1 0x0 KECCAK256 PUSH1 0x20 MSTORE DUP1 PUSH1 0x0 MSTORE PUSH1 0x40 PUSH1 0x0 KECCAK256 PUSH1 0x0 SWAP3 POP SWAP3 POP POP SWAP1 SLOAD SWAP1 PUSH2 0x100 EXP SWAP1 DIV PUSH20 0xFFFFFFFFFFFFFFFFFFFFFFFFFFFFFFFFFFFFFFFF AND DUP2 JUMP JUMPDEST PUSH1 0x0 DUP1 PUSH1 0x0 ADD PUSH1 0x0 SWAP1 SLOAD SWAP1 PUSH2 0x100 EXP SWAP1 DIV PUSH20 0xFFFFFFFFFFFFFFFFFFFFFFFFFFFFFFFFFFFFFFFF AND SWAP1 DUP1 PUSH1 0x1 ADD PUSH1 0x0 SWAP1 SLOAD SWAP1 PUSH2 0x100 EXP SWAP1 DIV PUSH20 0xFFFFFFFFFFFFFFFFFFFFFFFFFFFFFFFFFFFFFFFF AND SWAP1 DUP1 PUSH1 0x2 ADD PUSH1 0x0 SWAP1 SLOAD SWAP1 PUSH2 0x100 EXP SWAP1 DIV PUSH20 0xFFFFFFFFFFFFFFFFFFFFFFFFFFFFFFFFFFFFFFFF AND SWAP1 DUP1 PUSH1 0x3 ADD PUSH1 0x0 SWAP1 SLOAD SWAP1 PUSH2 0x100 EXP SWAP1 DIV PUSH20 0xFFFFFFFFFFFFFFFFFFFFFFFFFFFFFFFFFFFFFFFF AND SWAP1 DUP1 PUSH1 0x4 ADD PUSH1 0x0 SWAP1 SLOAD SWAP1 PUSH2 0x100 EXP SWAP1 DIV PUSH16 0xFFFFFFFFFFFFFFFFFFFFFFFFFFFFFFFF AND SWAP1 POP DUP6 JUMP JUMPDEST PUSH32 0x0 PUSH20 0xFFFFFFFFFFFFFFFFFFFFFFFFFFFFFFFFFFFFFFFF AND ADDRESS PUSH20 0xFFFFFFFFFFFFFFFFFFFFFFFFFFFFFFFFFFFFFFFF AND EQ PUSH3 0xB05 JUMPI PUSH1 0x0 DUP1 REVERT JUMPDEST JUMP JUMPDEST PUSH1 0x0 DUP1 PUSH1 0x0 PUSH4 0x80AC58CD PUSH1 0xE0 SHL SWAP1 POP PUSH1 0x0 PUSH4 0x9B9E2AAE PUSH1 0xE0 SHL SWAP1 POP DUP6 PUSH20 0xFFFFFFFFFFFFFFFFFFFFFFFFFFFFFFFFFFFFFFFF AND PUSH4 0x1FFC9A7 DUP4 PUSH1 0x40 MLOAD DUP3 PUSH4 0xFFFFFFFF AND PUSH1 0xE0 SHL DUP2 MSTORE PUSH1 0x4 ADD PUSH3 0xB5D SWAP2 SWAP1 PUSH3 0x149E JUMP JUMPDEST PUSH1 0x20 PUSH1 0x40 MLOAD DUP1 DUP4 SUB DUP2 DUP7 GAS STATICCALL ISZERO DUP1 ISZERO PUSH3 0xB7B JUMPI RETURNDATASIZE PUSH1 0x0 DUP1 RETURNDATACOPY RETURNDATASIZE PUSH1 0x0 REVERT JUMPDEST POP POP POP POP PUSH1 0x40 MLOAD RETURNDATASIZE PUSH1 0x1F NOT PUSH1 0x1F DUP3 ADD AND DUP3 ADD DUP1 PUSH1 0x40 MSTORE POP DUP2 ADD SWAP1 PUSH3 0xBA1 SWAP2 SWAP1 PUSH3 0x14F8 JUMP JUMPDEST DUP1 PUSH3 0xC28 JUMPI POP DUP6 PUSH20 0xFFFFFFFFFFFFFFFFFFFFFFFFFFFFFFFFFFFFFFFF AND PUSH4 0x1FFC9A7 DUP3 PUSH1 0x40 MLOAD DUP3 PUSH4 0xFFFFFFFF AND PUSH1 0xE0 SHL DUP2 MSTORE PUSH1 0x4 ADD PUSH3 0xBE3 SWAP2 SWAP1 PUSH3 0x149E JUMP JUMPDEST PUSH1 0x20 PUSH1 0x40 MLOAD DUP1 DUP4 SUB DUP2 DUP7 GAS STATICCALL ISZERO DUP1 ISZERO PUSH3 0xC01 JUMPI RETURNDATASIZE PUSH1 0x0 DUP1 RETURNDATACOPY RETURNDATASIZE PUSH1 0x0 REVERT JUMPDEST POP POP POP POP PUSH1 0x40 MLOAD RETURNDATASIZE PUSH1 0x1F NOT PUSH1 0x1F DUP3 ADD AND DUP3 ADD DUP1 PUSH1 0x40 MSTORE POP DUP2 ADD SWAP1 PUSH3 0xC27 SWAP2 SWAP1 PUSH3 0x14F8 JUMP JUMPDEST JUMPDEST ISZERO PUSH3 0xC35 JUMPI DUP6 SWAP4 POP DUP5 SWAP3 POP JUMPDEST POP POP SWAP3 POP SWAP3 SWAP1 POP JUMP JUMPDEST PUSH1 0x0 DUP1 DUP6 DUP6 DUP6 PUSH1 0x40 MLOAD PUSH1 0x20 ADD PUSH3 0xC58 SWAP4 SWAP3 SWAP2 SWAP1 PUSH3 0x152A JUMP JUMPDEST PUSH1 0x40 MLOAD PUSH1 0x20 DUP2 DUP4 SUB SUB DUP2 MSTORE SWAP1 PUSH1 0x40 MSTORE DUP1 MLOAD SWAP1 PUSH1 0x20 ADD KECCAK256 DUP8 PUSH1 0x40 MLOAD PUSH3 0xC7D SWAP1 PUSH3 0xFFA JUMP JUMPDEST PUSH3 0xC89 SWAP2 SWAP1 PUSH3 0x1607 JUMP JUMPDEST DUP2 SWAP1 PUSH1 0x40 MLOAD DUP1 SWAP2 SUB SWAP1 PUSH1 0x0 CREATE2 SWAP1 POP DUP1 ISZERO DUP1 ISZERO PUSH3 0xCAA JUMPI RETURNDATASIZE PUSH1 0x0 DUP1 RETURNDATACOPY RETURNDATASIZE PUSH1 0x0 REVERT JUMPDEST POP SWAP2 POP DUP6 DUP6 DUP6 PUSH1 0x40 MLOAD PUSH1 0x20 ADD PUSH3 0xCC4 SWAP4 SWAP3 SWAP2 SWAP1 PUSH3 0x152A JUMP JUMPDEST PUSH1 0x40 MLOAD PUSH1 0x20 DUP2 DUP4 SUB SUB DUP2 MSTORE SWAP1 PUSH1 0x40 MSTORE DUP1 MLOAD SWAP1 PUSH1 0x20 ADD KECCAK256 DUP8 DUP8 DUP8 DUP6 DUP9 DUP9 PUSH1 0x40 MLOAD PUSH3 0xCEE SWAP1 PUSH3 0x1008 JUMP JUMPDEST PUSH3 0xCFF SWAP7 SWAP6 SWAP5 SWAP4 SWAP3 SWAP2 SWAP1 PUSH3 0x1285 JUMP JUMPDEST DUP2 SWAP1 PUSH1 0x40 MLOAD DUP1 SWAP2 SUB SWAP1 PUSH1 0x0 CREATE2 SWAP1 POP DUP1 ISZERO DUP1 ISZERO PUSH3 0xD20 JUMPI RETURNDATASIZE PUSH1 0x0 DUP1 RETURNDATACOPY RETURNDATASIZE PUSH1 0x0 REVERT JUMPDEST POP SWAP1 POP PUSH1 0x40 MLOAD DUP1 PUSH1 0xC0 ADD PUSH1 0x40 MSTORE DUP1 DUP9 PUSH20 0xFFFFFFFFFFFFFFFFFFFFFFFFFFFFFFFFFFFFFFFF AND DUP2 MSTORE PUSH1 0x20 ADD DUP8 PUSH20 0xFFFFFFFFFFFFFFFFFFFFFFFFFFFFFFFFFFFFFFFF AND DUP2 MSTORE PUSH1 0x20 ADD DUP7 PUSH20 0xFFFFFFFFFFFFFFFFFFFFFFFFFFFFFFFFFFFFFFFF AND DUP2 MSTORE PUSH1 0x20 ADD DUP4 PUSH20 0xFFFFFFFFFFFFFFFFFFFFFFFFFFFFFFFFFFFFFFFF AND DUP2 MSTORE PUSH1 0x20 ADD DUP6 DUP2 MSTORE PUSH1 0x20 ADD DUP5 PUSH16 0xFFFFFFFFFFFFFFFFFFFFFFFFFFFFFFFF AND DUP2 MSTORE POP PUSH1 0x5 PUSH1 0x0 DUP3 ADD MLOAD DUP2 PUSH1 0x0 ADD PUSH1 0x0 PUSH2 0x100 EXP DUP2 SLOAD DUP2 PUSH20 0xFFFFFFFFFFFFFFFFFFFFFFFFFFFFFFFFFFFFFFFF MUL NOT AND SWAP1 DUP4 PUSH20 0xFFFFFFFFFFFFFFFFFFFFFFFFFFFFFFFFFFFFFFFF AND MUL OR SWAP1 SSTORE POP PUSH1 0x20 DUP3 ADD MLOAD DUP2 PUSH1 0x1 ADD PUSH1 0x0 PUSH2 0x100 EXP DUP2 SLOAD DUP2 PUSH20 0xFFFFFFFFFFFFFFFFFFFFFFFFFFFFFFFFFFFFFFFF MUL NOT AND SWAP1 DUP4 PUSH20 0xFFFFFFFFFFFFFFFFFFFFFFFFFFFFFFFFFFFFFFFF AND MUL OR SWAP1 SSTORE POP PUSH1 0x40 DUP3 ADD MLOAD DUP2 PUSH1 0x2 ADD PUSH1 0x0 PUSH2 0x100 EXP DUP2 SLOAD DUP2 PUSH20 0xFFFFFFFFFFFFFFFFFFFFFFFFFFFFFFFFFFFFFFFF MUL NOT AND SWAP1 DUP4 PUSH20 0xFFFFFFFFFFFFFFFFFFFFFFFFFFFFFFFFFFFFFFFF AND MUL OR SWAP1 SSTORE POP PUSH1 0x60 DUP3 ADD MLOAD DUP2 PUSH1 0x3 ADD PUSH1 0x0 PUSH2 0x100 EXP DUP2 SLOAD DUP2 PUSH20 0xFFFFFFFFFFFFFFFFFFFFFFFFFFFFFFFFFFFFFFFF MUL NOT AND SWAP1 DUP4 PUSH20 0xFFFFFFFFFFFFFFFFFFFFFFFFFFFFFFFFFFFFFFFF AND MUL OR SWAP1 SSTORE POP PUSH1 0x80 DUP3 ADD MLOAD DUP2 PUSH1 0x4 ADD SSTORE PUSH1 0xA0 DUP3 ADD MLOAD DUP2 PUSH1 0x5 ADD PUSH1 0x0 PUSH2 0x100 EXP DUP2 SLOAD DUP2 PUSH16 0xFFFFFFFFFFFFFFFFFFFFFFFFFFFFFFFF MUL NOT AND SWAP1 DUP4 PUSH16 0xFFFFFFFFFFFFFFFFFFFFFFFFFFFFFFFF AND MUL OR SWAP1 SSTORE POP SWAP1 POP POP PUSH1 0x5 PUSH1 0x0 DUP1 DUP3 ADD PUSH1 0x0 PUSH2 0x100 EXP DUP2 SLOAD SWAP1 PUSH20 0xFFFFFFFFFFFFFFFFFFFFFFFFFFFFFFFFFFFFFFFF MUL NOT AND SWAP1 SSTORE PUSH1 0x1 DUP3 ADD PUSH1 0x0 PUSH2 0x100 EXP DUP2 SLOAD SWAP1 PUSH20 0xFFFFFFFFFFFFFFFFFFFFFFFFFFFFFFFFFFFFFFFF MUL NOT AND SWAP1 SSTORE PUSH1 0x2 DUP3 ADD PUSH1 0x0 PUSH2 0x100 EXP DUP2 SLOAD SWAP1 PUSH20 0xFFFFFFFFFFFFFFFFFFFFFFFFFFFFFFFFFFFFFFFF MUL NOT AND SWAP1 SSTORE PUSH1 0x3 DUP3 ADD PUSH1 0x0 PUSH2 0x100 EXP DUP2 SLOAD SWAP1 PUSH20 0xFFFFFFFFFFFFFFFFFFFFFFFFFFFFFFFFFFFFFFFF MUL NOT AND SWAP1 SSTORE PUSH1 0x4 DUP3 ADD PUSH1 0x0 SWAP1 SSTORE PUSH1 0x5 DUP3 ADD PUSH1 0x0 PUSH2 0x100 EXP DUP2 SLOAD SWAP1 PUSH16 0xFFFFFFFFFFFFFFFFFFFFFFFFFFFFFFFF MUL NOT AND SWAP1 SSTORE POP POP SWAP6 POP SWAP6 SWAP4 POP POP POP POP JUMP JUMPDEST PUSH2 0x2F3D DUP1 PUSH3 0x164F DUP4 CODECOPY ADD SWAP1 JUMP JUMPDEST PUSH2 0x5911 DUP1 PUSH3 0x458C DUP4 CODECOPY ADD SWAP1 JUMP JUMPDEST PUSH1 0x0 DUP1 REVERT JUMPDEST PUSH1 0x0 PUSH20 0xFFFFFFFFFFFFFFFFFFFFFFFFFFFFFFFFFFFFFFFF DUP3 AND SWAP1 POP SWAP2 SWAP1 POP JUMP JUMPDEST PUSH1 0x0 PUSH3 0x1048 DUP3 PUSH3 0x101B JUMP JUMPDEST SWAP1 POP SWAP2 SWAP1 POP JUMP JUMPDEST PUSH3 0x105A DUP2 PUSH3 0x103B JUMP JUMPDEST DUP2 EQ PUSH3 0x1066 JUMPI PUSH1 0x0 DUP1 REVERT JUMPDEST POP JUMP JUMPDEST PUSH1 0x0 DUP2 CALLDATALOAD SWAP1 POP PUSH3 0x107A DUP2 PUSH3 0x104F JUMP JUMPDEST SWAP3 SWAP2 POP POP JUMP JUMPDEST PUSH1 0x0 PUSH1 0x20 DUP3 DUP5 SUB SLT ISZERO PUSH3 0x1099 JUMPI PUSH3 0x1098 PUSH3 0x1016 JUMP JUMPDEST JUMPDEST PUSH1 0x0 PUSH3 0x10A9 DUP5 DUP3 DUP6 ADD PUSH3 0x1069 JUMP JUMPDEST SWAP2 POP POP SWAP3 SWAP2 POP POP JUMP JUMPDEST PUSH1 0x0 DUP2 SWAP1 POP SWAP2 SWAP1 POP JUMP JUMPDEST PUSH3 0x10C7 DUP2 PUSH3 0x10B2 JUMP JUMPDEST DUP2 EQ PUSH3 0x10D3 JUMPI PUSH1 0x0 DUP1 REVERT JUMPDEST POP JUMP JUMPDEST PUSH1 0x0 DUP2 CALLDATALOAD SWAP1 POP PUSH3 0x10E7 DUP2 PUSH3 0x10BC JUMP JUMPDEST SWAP3 SWAP2 POP POP JUMP JUMPDEST PUSH1 0x0 PUSH16 0xFFFFFFFFFFFFFFFFFFFFFFFFFFFFFFFF DUP3 AND SWAP1 POP SWAP2 SWAP1 POP JUMP JUMPDEST PUSH3 0x1114 DUP2 PUSH3 0x10ED JUMP JUMPDEST DUP2 EQ PUSH3 0x1120 JUMPI PUSH1 0x0 DUP1 REVERT JUMPDEST POP JUMP JUMPDEST PUSH1 0x0 DUP2 CALLDATALOAD SWAP1 POP PUSH3 0x1134 DUP2 PUSH3 0x1109 JUMP JUMPDEST SWAP3 SWAP2 POP POP JUMP JUMPDEST PUSH1 0x0 DUP1 PUSH1 0x0 DUP1 PUSH1 0x80 DUP6 DUP8 SUB SLT ISZERO PUSH3 0x1157 JUMPI PUSH3 0x1156 PUSH3 0x1016 JUMP JUMPDEST JUMPDEST PUSH1 0x0 PUSH3 0x1167 DUP8 DUP3 DUP9 ADD PUSH3 0x1069 JUMP JUMPDEST SWAP5 POP POP PUSH1 0x20 PUSH3 0x117A DUP8 DUP3 DUP9 ADD PUSH3 0x1069 JUMP JUMPDEST SWAP4 POP POP PUSH1 0x40 PUSH3 0x118D DUP8 DUP3 DUP9 ADD PUSH3 0x10D6 JUMP JUMPDEST SWAP3 POP POP PUSH1 0x60 PUSH3 0x11A0 DUP8 DUP3 DUP9 ADD PUSH3 0x1123 JUMP JUMPDEST SWAP2 POP POP SWAP3 SWAP6 SWAP2 SWAP5 POP SWAP3 POP JUMP JUMPDEST PUSH3 0x11B7 DUP2 PUSH3 0x103B JUMP JUMPDEST DUP3 MSTORE POP POP JUMP JUMPDEST PUSH1 0x0 PUSH1 0x40 DUP3 ADD SWAP1 POP PUSH3 0x11D4 PUSH1 0x0 DUP4 ADD DUP6 PUSH3 0x11AC JUMP JUMPDEST PUSH3 0x11E3 PUSH1 0x20 DUP4 ADD DUP5 PUSH3 0x11AC JUMP JUMPDEST SWAP4 SWAP3 POP POP POP JUMP JUMPDEST PUSH1 0x0 PUSH1 0x20 DUP3 ADD SWAP1 POP PUSH3 0x1201 PUSH1 0x0 DUP4 ADD DUP5 PUSH3 0x11AC JUMP JUMPDEST SWAP3 SWAP2 POP POP JUMP JUMPDEST PUSH1 0x0 DUP1 PUSH1 0x0 PUSH1 0x60 DUP5 DUP7 SUB SLT ISZERO PUSH3 0x1223 JUMPI PUSH3 0x1222 PUSH3 0x1016 JUMP JUMPDEST JUMPDEST PUSH1 0x0 PUSH3 0x1233 DUP7 DUP3 DUP8 ADD PUSH3 0x1069 JUMP JUMPDEST SWAP4 POP POP PUSH1 0x20 PUSH3 0x1246 DUP7 DUP3 DUP8 ADD PUSH3 0x1069 JUMP JUMPDEST SWAP3 POP POP PUSH1 0x40 PUSH3 0x1259 DUP7 DUP3 DUP8 ADD PUSH3 0x10D6 JUMP JUMPDEST SWAP2 POP POP SWAP3 POP SWAP3 POP SWAP3 JUMP JUMPDEST PUSH3 0x126E DUP2 PUSH3 0x10B2 JUMP JUMPDEST DUP3 MSTORE POP POP JUMP JUMPDEST PUSH3 0x127F DUP2 PUSH3 0x10ED JUMP JUMPDEST DUP3 MSTORE POP POP JUMP JUMPDEST PUSH1 0x0 PUSH1 0xC0 DUP3 ADD SWAP1 POP PUSH3 0x129C PUSH1 0x0 DUP4 ADD DUP10 PUSH3 0x11AC JUMP JUMPDEST PUSH3 0x12AB PUSH1 0x20 DUP4 ADD DUP9 PUSH3 0x11AC JUMP JUMPDEST PUSH3 0x12BA PUSH1 0x40 DUP4 ADD DUP8 PUSH3 0x11AC JUMP JUMPDEST PUSH3 0x12C9 PUSH1 0x60 DUP4 ADD DUP7 PUSH3 0x11AC JUMP JUMPDEST PUSH3 0x12D8 PUSH1 0x80 DUP4 ADD DUP6 PUSH3 0x1263 JUMP JUMPDEST PUSH3 0x12E7 PUSH1 0xA0 DUP4 ADD DUP5 PUSH3 0x1274 JUMP JUMPDEST SWAP8 SWAP7 POP POP POP POP POP POP POP JUMP JUMPDEST PUSH1 0x0 PUSH1 0x20 DUP3 ADD SWAP1 POP PUSH3 0x1309 PUSH1 0x0 DUP4 ADD DUP5 PUSH3 0x1274 JUMP JUMPDEST SWAP3 SWAP2 POP POP JUMP JUMPDEST PUSH1 0x0 PUSH1 0xA0 DUP3 ADD SWAP1 POP PUSH3 0x1326 PUSH1 0x0 DUP4 ADD DUP9 PUSH3 0x11AC JUMP JUMPDEST PUSH3 0x1335 PUSH1 0x20 DUP4 ADD DUP8 PUSH3 0x11AC JUMP JUMPDEST PUSH3 0x1344 PUSH1 0x40 DUP4 ADD DUP7 PUSH3 0x11AC JUMP JUMPDEST PUSH3 0x1353 PUSH1 0x60 DUP4 ADD DUP6 PUSH3 0x11AC JUMP JUMPDEST PUSH3 0x1362 PUSH1 0x80 DUP4 ADD DUP5 PUSH3 0x1274 JUMP JUMPDEST SWAP7 SWAP6 POP POP POP POP POP POP JUMP JUMPDEST PUSH1 0x0 DUP3 DUP3 MSTORE PUSH1 0x20 DUP3 ADD SWAP1 POP SWAP3 SWAP2 POP POP JUMP JUMPDEST PUSH32 0x4E4F542056414C49442046454521000000000000000000000000000000000000 PUSH1 0x0 DUP3 ADD MSTORE POP JUMP JUMPDEST PUSH1 0x0 PUSH3 0x13B5 PUSH1 0xE DUP4 PUSH3 0x136C JUMP JUMPDEST SWAP2 POP PUSH3 0x13C2 DUP3 PUSH3 0x137D JUMP JUMPDEST PUSH1 0x20 DUP3 ADD SWAP1 POP SWAP2 SWAP1 POP JUMP JUMPDEST PUSH1 0x0 PUSH1 0x20 DUP3 ADD SWAP1 POP DUP2 DUP2 SUB PUSH1 0x0 DUP4 ADD MSTORE PUSH3 0x13E8 DUP2 PUSH3 0x13A6 JUMP JUMPDEST SWAP1 POP SWAP2 SWAP1 POP JUMP JUMPDEST PUSH32 0x5041495220455849535453210000000000000000000000000000000000000000 PUSH1 0x0 DUP3 ADD MSTORE POP JUMP JUMPDEST PUSH1 0x0 PUSH3 0x1427 PUSH1 0xC DUP4 PUSH3 0x136C JUMP JUMPDEST SWAP2 POP PUSH3 0x1434 DUP3 PUSH3 0x13EF JUMP JUMPDEST PUSH1 0x20 DUP3 ADD SWAP1 POP SWAP2 SWAP1 POP JUMP JUMPDEST PUSH1 0x0 PUSH1 0x20 DUP3 ADD SWAP1 POP DUP2 DUP2 SUB PUSH1 0x0 DUP4 ADD MSTORE PUSH3 0x145A DUP2 PUSH3 0x1418 JUMP JUMPDEST SWAP1 POP SWAP2 SWAP1 POP JUMP JUMPDEST PUSH1 0x0 PUSH32 0xFFFFFFFF00000000000000000000000000000000000000000000000000000000 DUP3 AND SWAP1 POP SWAP2 SWAP1 POP JUMP JUMPDEST PUSH3 0x1498 DUP2 PUSH3 0x1461 JUMP JUMPDEST DUP3 MSTORE POP POP JUMP JUMPDEST PUSH1 0x0 PUSH1 0x20 DUP3 ADD SWAP1 POP PUSH3 0x14B5 PUSH1 0x0 DUP4 ADD DUP5 PUSH3 0x148D JUMP JUMPDEST SWAP3 SWAP2 POP POP JUMP JUMPDEST PUSH1 0x0 DUP2 ISZERO ISZERO SWAP1 POP SWAP2 SWAP1 POP JUMP JUMPDEST PUSH3 0x14D2 DUP2 PUSH3 0x14BB JUMP JUMPDEST DUP2 EQ PUSH3 0x14DE JUMPI PUSH1 0x0 DUP1 REVERT JUMPDEST POP JUMP JUMPDEST PUSH1 0x0 DUP2 MLOAD SWAP1 POP PUSH3 0x14F2 DUP2 PUSH3 0x14C7 JUMP JUMPDEST SWAP3 SWAP2 POP POP JUMP JUMPDEST PUSH1 0x0 PUSH1 0x20 DUP3 DUP5 SUB SLT ISZERO PUSH3 0x1511 JUMPI PUSH3 0x1510 PUSH3 0x1016 JUMP JUMPDEST JUMPDEST PUSH1 0x0 PUSH3 0x1521 DUP5 DUP3 DUP6 ADD PUSH3 0x14E1 JUMP JUMPDEST SWAP2 POP POP SWAP3 SWAP2 POP POP JUMP JUMPDEST PUSH1 0x0 PUSH1 0x60 DUP3 ADD SWAP1 POP PUSH3 0x1541 PUSH1 0x0 DUP4 ADD DUP7 PUSH3 0x11AC JUMP JUMPDEST PUSH3 0x1550 PUSH1 0x20 DUP4 ADD DUP6 PUSH3 0x11AC JUMP JUMPDEST PUSH3 0x155F PUSH1 0x40 DUP4 ADD DUP5 PUSH3 0x1263 JUMP JUMPDEST SWAP5 SWAP4 POP POP POP POP JUMP JUMPDEST PUSH32 0x4D696461734C50546F6B656E0000000000000000000000000000000000000000 PUSH1 0x0 DUP3 ADD MSTORE POP JUMP JUMPDEST PUSH1 0x0 PUSH3 0x159F PUSH1 0xC DUP4 PUSH3 0x136C JUMP JUMPDEST SWAP2 POP PUSH3 0x15AC DUP3 PUSH3 0x1567 JUMP JUMPDEST PUSH1 0x20 DUP3 ADD SWAP1 POP SWAP2 SWAP1 POP JUMP JUMPDEST PUSH32 0x4D4C505400000000000000000000000000000000000000000000000000000000 PUSH1 0x0 DUP3 ADD MSTORE POP JUMP JUMPDEST PUSH1 0x0 PUSH3 0x15EF PUSH1 0x4 DUP4 PUSH3 0x136C JUMP JUMPDEST SWAP2 POP PUSH3 0x15FC DUP3 PUSH3 0x15B7 JUMP JUMPDEST PUSH1 0x20 DUP3 ADD SWAP1 POP SWAP2 SWAP1 POP JUMP JUMPDEST PUSH1 0x0 PUSH1 0x60 DUP3 ADD SWAP1 POP DUP2 DUP2 SUB PUSH1 0x0 DUP4 ADD MSTORE PUSH3 0x1622 DUP2 PUSH3 0x1590 JUMP JUMPDEST SWAP1 POP DUP2 DUP2 SUB PUSH1 0x20 DUP4 ADD MSTORE PUSH3 0x1637 DUP2 PUSH3 0x15E0 JUMP JUMPDEST SWAP1 POP PUSH3 0x1648 PUSH1 0x40 DUP4 ADD DUP5 PUSH3 0x11AC JUMP JUMPDEST SWAP3 SWAP2 POP POP JUMP INVALID PUSH1 0x80 PUSH1 0x40 MSTORE CALLVALUE DUP1 ISZERO PUSH3 0x11 JUMPI PUSH1 0x0 DUP1 REVERT JUMPDEST POP PUSH1 0x40 MLOAD PUSH3 0x2F3D CODESIZE SUB DUP1 PUSH3 0x2F3D DUP4 CODECOPY DUP2 DUP2 ADD PUSH1 0x40 MSTORE DUP2 ADD SWAP1 PUSH3 0x37 SWAP2 SWAP1 PUSH3 0x365 JUMP JUMPDEST DUP3 PUSH1 0x0 SWAP1 DUP1 MLOAD SWAP1 PUSH1 0x20 ADD SWAP1 PUSH3 0x4F SWAP3 SWAP2 SWAP1 PUSH3 0xB3 JUMP JUMPDEST POP DUP2 PUSH1 0x1 SWAP1 DUP1 MLOAD SWAP1 PUSH1 0x20 ADD SWAP1 PUSH3 0x68 SWAP3 SWAP2 SWAP1 PUSH3 0xB3 JUMP JUMPDEST POP DUP1 PUSH1 0x3 PUSH1 0x0 PUSH2 0x100 EXP DUP2 SLOAD DUP2 PUSH20 0xFFFFFFFFFFFFFFFFFFFFFFFFFFFFFFFFFFFFFFFF MUL NOT AND SWAP1 DUP4 PUSH20 0xFFFFFFFFFFFFFFFFFFFFFFFFFFFFFFFFFFFFFFFF AND MUL OR SWAP1 SSTORE POP POP POP POP PUSH3 0x464 JUMP JUMPDEST DUP3 DUP1 SLOAD PUSH3 0xC1 SWAP1 PUSH3 0x42E JUMP JUMPDEST SWAP1 PUSH1 0x0 MSTORE PUSH1 0x20 PUSH1 0x0 KECCAK256 SWAP1 PUSH1 0x1F ADD PUSH1 0x20 SWAP1 DIV DUP2 ADD SWAP3 DUP3 PUSH3 0xE5 JUMPI PUSH1 0x0 DUP6 SSTORE PUSH3 0x131 JUMP JUMPDEST DUP3 PUSH1 0x1F LT PUSH3 0x100 JUMPI DUP1 MLOAD PUSH1 0xFF NOT AND DUP4 DUP1 ADD OR DUP6 SSTORE PUSH3 0x131 JUMP JUMPDEST DUP3 DUP1 ADD PUSH1 0x1 ADD DUP6 SSTORE DUP3 ISZERO PUSH3 0x131 JUMPI SWAP2 DUP3 ADD JUMPDEST DUP3 DUP2 GT ISZERO PUSH3 0x130 JUMPI DUP3 MLOAD DUP3 SSTORE SWAP2 PUSH1 0x20 ADD SWAP2 SWAP1 PUSH1 0x1 ADD SWAP1 PUSH3 0x113 JUMP JUMPDEST JUMPDEST POP SWAP1 POP PUSH3 0x140 SWAP2 SWAP1 PUSH3 0x144 JUMP JUMPDEST POP SWAP1 JUMP JUMPDEST JUMPDEST DUP1 DUP3 GT ISZERO PUSH3 0x15F JUMPI PUSH1 0x0 DUP2 PUSH1 0x0 SWAP1 SSTORE POP PUSH1 0x1 ADD PUSH3 0x145 JUMP JUMPDEST POP SWAP1 JUMP JUMPDEST PUSH1 0x0 PUSH1 0x40 MLOAD SWAP1 POP SWAP1 JUMP JUMPDEST PUSH1 0x0 DUP1 REVERT JUMPDEST PUSH1 0x0 DUP1 REVERT JUMPDEST PUSH1 0x0 DUP1 REVERT JUMPDEST PUSH1 0x0 DUP1 REVERT JUMPDEST PUSH1 0x0 PUSH1 0x1F NOT PUSH1 0x1F DUP4 ADD AND SWAP1 POP SWAP2 SWAP1 POP JUMP JUMPDEST PUSH32 0x4E487B7100000000000000000000000000000000000000000000000000000000 PUSH1 0x0 MSTORE PUSH1 0x41 PUSH1 0x4 MSTORE PUSH1 0x24 PUSH1 0x0 REVERT JUMPDEST PUSH3 0x1CC DUP3 PUSH3 0x181 JUMP JUMPDEST DUP2 ADD DUP2 DUP2 LT PUSH8 0xFFFFFFFFFFFFFFFF DUP3 GT OR ISZERO PUSH3 0x1EE JUMPI PUSH3 0x1ED PUSH3 0x192 JUMP JUMPDEST JUMPDEST DUP1 PUSH1 0x40 MSTORE POP POP POP JUMP JUMPDEST PUSH1 0x0 PUSH3 0x203 PUSH3 0x163 JUMP JUMPDEST SWAP1 POP PUSH3 0x211 DUP3 DUP3 PUSH3 0x1C1 JUMP JUMPDEST SWAP2 SWAP1 POP JUMP JUMPDEST PUSH1 0x0 PUSH8 0xFFFFFFFFFFFFFFFF DUP3 GT ISZERO PUSH3 0x234 JUMPI PUSH3 0x233 PUSH3 0x192 JUMP JUMPDEST JUMPDEST PUSH3 0x23F DUP3 PUSH3 0x181 JUMP JUMPDEST SWAP1 POP PUSH1 0x20 DUP2 ADD SWAP1 POP SWAP2 SWAP1 POP JUMP JUMPDEST PUSH1 0x0 JUMPDEST DUP4 DUP2 LT ISZERO PUSH3 0x26C JUMPI DUP1 DUP3 ADD MLOAD DUP2 DUP5 ADD MSTORE PUSH1 0x20 DUP2 ADD SWAP1 POP PUSH3 0x24F JUMP JUMPDEST DUP4 DUP2 GT ISZERO PUSH3 0x27C JUMPI PUSH1 0x0 DUP5 DUP5 ADD MSTORE JUMPDEST POP POP POP POP JUMP JUMPDEST PUSH1 0x0 PUSH3 0x299 PUSH3 0x293 DUP5 PUSH3 0x216 JUMP JUMPDEST PUSH3 0x1F7 JUMP JUMPDEST SWAP1 POP DUP3 DUP2 MSTORE PUSH1 0x20 DUP2 ADD DUP5 DUP5 DUP5 ADD GT ISZERO PUSH3 0x2B8 JUMPI PUSH3 0x2B7 PUSH3 0x17C JUMP JUMPDEST JUMPDEST PUSH3 0x2C5 DUP5 DUP3 DUP6 PUSH3 0x24C JUMP JUMPDEST POP SWAP4 SWAP3 POP POP POP JUMP JUMPDEST PUSH1 0x0 DUP3 PUSH1 0x1F DUP4 ADD SLT PUSH3 0x2E5 JUMPI PUSH3 0x2E4 PUSH3 0x177 JUMP JUMPDEST JUMPDEST DUP2 MLOAD PUSH3 0x2F7 DUP5 DUP3 PUSH1 0x20 DUP7 ADD PUSH3 0x282 JUMP JUMPDEST SWAP2 POP POP SWAP3 SWAP2 POP POP JUMP JUMPDEST PUSH1 0x0 PUSH20 0xFFFFFFFFFFFFFFFFFFFFFFFFFFFFFFFFFFFFFFFF DUP3 AND SWAP1 POP SWAP2 SWAP1 POP JUMP JUMPDEST PUSH1 0x0 PUSH3 0x32D DUP3 PUSH3 0x300 JUMP JUMPDEST SWAP1 POP SWAP2 SWAP1 POP JUMP JUMPDEST PUSH3 0x33F DUP2 PUSH3 0x320 JUMP JUMPDEST DUP2 EQ PUSH3 0x34B JUMPI PUSH1 0x0 DUP1 REVERT JUMPDEST POP JUMP JUMPDEST PUSH1 0x0 DUP2 MLOAD SWAP1 POP PUSH3 0x35F DUP2 PUSH3 0x334 JUMP JUMPDEST SWAP3 SWAP2 POP POP JUMP JUMPDEST PUSH1 0x0 DUP1 PUSH1 0x0 PUSH1 0x60 DUP5 DUP7 SUB SLT ISZERO PUSH3 0x381 JUMPI PUSH3 0x380 PUSH3 0x16D JUMP JUMPDEST JUMPDEST PUSH1 0x0 DUP5 ADD MLOAD PUSH8 0xFFFFFFFFFFFFFFFF DUP2 GT ISZERO PUSH3 0x3A2 JUMPI PUSH3 0x3A1 PUSH3 0x172 JUMP JUMPDEST JUMPDEST PUSH3 0x3B0 DUP7 DUP3 DUP8 ADD PUSH3 0x2CD JUMP JUMPDEST SWAP4 POP POP PUSH1 0x20 DUP5 ADD MLOAD PUSH8 0xFFFFFFFFFFFFFFFF DUP2 GT ISZERO PUSH3 0x3D4 JUMPI PUSH3 0x3D3 PUSH3 0x172 JUMP JUMPDEST JUMPDEST PUSH3 0x3E2 DUP7 DUP3 DUP8 ADD PUSH3 0x2CD JUMP JUMPDEST SWAP3 POP POP PUSH1 0x40 PUSH3 0x3F5 DUP7 DUP3 DUP8 ADD PUSH3 0x34E JUMP JUMPDEST SWAP2 POP POP SWAP3 POP SWAP3 POP SWAP3 JUMP JUMPDEST PUSH32 0x4E487B7100000000000000000000000000000000000000000000000000000000 PUSH1 0x0 MSTORE PUSH1 0x22 PUSH1 0x4 MSTORE PUSH1 0x24 PUSH1 0x0 REVERT JUMPDEST PUSH1 0x0 PUSH1 0x2 DUP3 DIV SWAP1 POP PUSH1 0x1 DUP3 AND DUP1 PUSH3 0x447 JUMPI PUSH1 0x7F DUP3 AND SWAP2 POP JUMPDEST PUSH1 0x20 DUP3 LT DUP2 EQ ISZERO PUSH3 0x45E JUMPI PUSH3 0x45D PUSH3 0x3FF JUMP JUMPDEST JUMPDEST POP SWAP2 SWAP1 POP JUMP JUMPDEST PUSH2 0x2AC9 DUP1 PUSH3 0x474 PUSH1 0x0 CODECOPY PUSH1 0x0 RETURN INVALID PUSH1 0x80 PUSH1 0x40 MSTORE CALLVALUE DUP1 ISZERO PUSH2 0x10 JUMPI PUSH1 0x0 DUP1 REVERT JUMPDEST POP PUSH1 0x4 CALLDATASIZE LT PUSH2 0x100 JUMPI PUSH1 0x0 CALLDATALOAD PUSH1 0xE0 SHR DUP1 PUSH4 0x6352211E GT PUSH2 0x97 JUMPI DUP1 PUSH4 0xB88D4FDE GT PUSH2 0x66 JUMPI DUP1 PUSH4 0xB88D4FDE EQ PUSH2 0x2A9 JUMPI DUP1 PUSH4 0xC4D66DE8 EQ PUSH2 0x2C5 JUMPI DUP1 PUSH4 0xC87B56DD EQ PUSH2 0x2E1 JUMPI DUP1 PUSH4 0xE985E9C5 EQ PUSH2 0x311 JUMPI PUSH2 0x100 JUMP JUMPDEST DUP1 PUSH4 0x6352211E EQ PUSH2 0x20F JUMPI DUP1 PUSH4 0x70A08231 EQ PUSH2 0x23F JUMPI DUP1 PUSH4 0x95D89B41 EQ PUSH2 0x26F JUMPI DUP1 PUSH4 0xA22CB465 EQ PUSH2 0x28D JUMPI PUSH2 0x100 JUMP JUMPDEST DUP1 PUSH4 0x23B872DD GT PUSH2 0xD3 JUMPI DUP1 PUSH4 0x23B872DD EQ PUSH2 0x19F JUMPI DUP1 PUSH4 0x40C10F19 EQ PUSH2 0x1BB JUMPI DUP1 PUSH4 0x42842E0E EQ PUSH2 0x1D7 JUMPI DUP1 PUSH4 0x42966C68 EQ PUSH2 0x1F3 JUMPI PUSH2 0x100 JUMP JUMPDEST DUP1 PUSH4 0x1FFC9A7 EQ PUSH2 0x105 JUMPI DUP1 PUSH4 0x6FDDE03 EQ PUSH2 0x135 JUMPI DUP1 PUSH4 0x81812FC EQ PUSH2 0x153 JUMPI DUP1 PUSH4 0x95EA7B3 EQ PUSH2 0x183 JUMPI JUMPDEST PUSH1 0x0 DUP1 REVERT JUMPDEST PUSH2 0x11F PUSH1 0x4 DUP1 CALLDATASIZE SUB DUP2 ADD SWAP1 PUSH2 0x11A SWAP2 SWAP1 PUSH2 0x1C4A JUMP JUMPDEST PUSH2 0x341 JUMP JUMPDEST PUSH1 0x40 MLOAD PUSH2 0x12C SWAP2 SWAP1 PUSH2 0x1C92 JUMP JUMPDEST PUSH1 0x40 MLOAD DUP1 SWAP2 SUB SWAP1 RETURN JUMPDEST PUSH2 0x13D PUSH2 0x423 JUMP JUMPDEST PUSH1 0x40 MLOAD PUSH2 0x14A SWAP2 SWAP1 PUSH2 0x1D46 JUMP JUMPDEST PUSH1 0x40 MLOAD DUP1 SWAP2 SUB SWAP1 RETURN JUMPDEST PUSH2 0x16D PUSH1 0x4 DUP1 CALLDATASIZE SUB DUP2 ADD SWAP1 PUSH2 0x168 SWAP2 SWAP1 PUSH2 0x1D9E JUMP JUMPDEST PUSH2 0x4B5 JUMP JUMPDEST PUSH1 0x40 MLOAD PUSH2 0x17A SWAP2 SWAP1 PUSH2 0x1E0C JUMP JUMPDEST PUSH1 0x40 MLOAD DUP1 SWAP2 SUB SWAP1 RETURN JUMPDEST PUSH2 0x19D PUSH1 0x4 DUP1 CALLDATASIZE SUB DUP2 ADD SWAP1 PUSH2 0x198 SWAP2 SWAP1 PUSH2 0x1E53 JUMP JUMPDEST PUSH2 0x4FB JUMP JUMPDEST STOP JUMPDEST PUSH2 0x1B9 PUSH1 0x4 DUP1 CALLDATASIZE SUB DUP2 ADD SWAP1 PUSH2 0x1B4 SWAP2 SWAP1 PUSH2 0x1E93 JUMP JUMPDEST PUSH2 0x613 JUMP JUMPDEST STOP JUMPDEST PUSH2 0x1D5 PUSH1 0x4 DUP1 CALLDATASIZE SUB DUP2 ADD SWAP1 PUSH2 0x1D0 SWAP2 SWAP1 PUSH2 0x1E53 JUMP JUMPDEST PUSH2 0x673 JUMP JUMPDEST STOP JUMPDEST PUSH2 0x1F1 PUSH1 0x4 DUP1 CALLDATASIZE SUB DUP2 ADD SWAP1 PUSH2 0x1EC SWAP2 SWAP1 PUSH2 0x1E93 JUMP JUMPDEST PUSH2 0x6DB JUMP JUMPDEST STOP JUMPDEST PUSH2 0x20D PUSH1 0x4 DUP1 CALLDATASIZE SUB DUP2 ADD SWAP1 PUSH2 0x208 SWAP2 SWAP1 PUSH2 0x1D9E JUMP JUMPDEST PUSH2 0x6FB JUMP JUMPDEST STOP JUMPDEST PUSH2 0x229 PUSH1 0x4 DUP1 CALLDATASIZE SUB DUP2 ADD SWAP1 PUSH2 0x224 SWAP2 SWAP1 PUSH2 0x1D9E JUMP JUMPDEST PUSH2 0x7B1 JUMP JUMPDEST PUSH1 0x40 MLOAD PUSH2 0x236 SWAP2 SWAP1 PUSH2 0x1E0C JUMP JUMPDEST PUSH1 0x40 MLOAD DUP1 SWAP2 SUB SWAP1 RETURN JUMPDEST PUSH2 0x259 PUSH1 0x4 DUP1 CALLDATASIZE SUB DUP2 ADD SWAP1 PUSH2 0x254 SWAP2 SWAP1 PUSH2 0x1EE6 JUMP JUMPDEST PUSH2 0x838 JUMP JUMPDEST PUSH1 0x40 MLOAD PUSH2 0x266 SWAP2 SWAP1 PUSH2 0x1F22 JUMP JUMPDEST PUSH1 0x40 MLOAD DUP1 SWAP2 SUB SWAP1 RETURN JUMPDEST PUSH2 0x277 PUSH2 0x8F0 JUMP JUMPDEST PUSH1 0x40 MLOAD PUSH2 0x284 SWAP2 SWAP1 PUSH2 0x1D46 JUMP JUMPDEST PUSH1 0x40 MLOAD DUP1 SWAP2 SUB SWAP1 RETURN JUMPDEST PUSH2 0x2A7 PUSH1 0x4 DUP1 CALLDATASIZE SUB DUP2 ADD SWAP1 PUSH2 0x2A2 SWAP2 SWAP1 PUSH2 0x1F69 JUMP JUMPDEST PUSH2 0x982 JUMP JUMPDEST STOP JUMPDEST PUSH2 0x2C3 PUSH1 0x4 DUP1 CALLDATASIZE SUB DUP2 ADD SWAP1 PUSH2 0x2BE SWAP2 SWAP1 PUSH2 0x20DE JUMP JUMPDEST PUSH2 0x998 JUMP JUMPDEST STOP JUMPDEST PUSH2 0x2DF PUSH1 0x4 DUP1 CALLDATASIZE SUB DUP2 ADD SWAP1 PUSH2 0x2DA SWAP2 SWAP1 PUSH2 0x1EE6 JUMP JUMPDEST PUSH2 0x9FA JUMP JUMPDEST STOP JUMPDEST PUSH2 0x2FB PUSH1 0x4 DUP1 CALLDATASIZE SUB DUP2 ADD SWAP1 PUSH2 0x2F6 SWAP2 SWAP1 PUSH2 0x1D9E JUMP JUMPDEST PUSH2 0xA98 JUMP JUMPDEST PUSH1 0x40 MLOAD PUSH2 0x308 SWAP2 SWAP1 PUSH2 0x1D46 JUMP JUMPDEST PUSH1 0x40 MLOAD DUP1 SWAP2 SUB SWAP1 RETURN JUMPDEST PUSH2 0x32B PUSH1 0x4 DUP1 CALLDATASIZE SUB DUP2 ADD SWAP1 PUSH2 0x326 SWAP2 SWAP1 PUSH2 0x2161 JUMP JUMPDEST PUSH2 0xB00 JUMP JUMPDEST PUSH1 0x40 MLOAD PUSH2 0x338 SWAP2 SWAP1 PUSH2 0x1C92 JUMP JUMPDEST PUSH1 0x40 MLOAD DUP1 SWAP2 SUB SWAP1 RETURN JUMPDEST PUSH1 0x0 PUSH32 0x80AC58CD00000000000000000000000000000000000000000000000000000000 PUSH28 0xFFFFFFFFFFFFFFFFFFFFFFFFFFFFFFFFFFFFFFFFFFFFFFFFFFFFFFFF NOT AND DUP3 PUSH28 0xFFFFFFFFFFFFFFFFFFFFFFFFFFFFFFFFFFFFFFFFFFFFFFFFFFFFFFFF NOT AND EQ DUP1 PUSH2 0x40C JUMPI POP PUSH32 0x5B5E139F00000000000000000000000000000000000000000000000000000000 PUSH28 0xFFFFFFFFFFFFFFFFFFFFFFFFFFFFFFFFFFFFFFFFFFFFFFFFFFFFFFFF NOT AND DUP3 PUSH28 0xFFFFFFFFFFFFFFFFFFFFFFFFFFFFFFFFFFFFFFFFFFFFFFFFFFFFFFFF NOT AND EQ JUMPDEST DUP1 PUSH2 0x41C JUMPI POP PUSH2 0x41B DUP3 PUSH2 0xB94 JUMP JUMPDEST JUMPDEST SWAP1 POP SWAP2 SWAP1 POP JUMP JUMPDEST PUSH1 0x60 PUSH1 0x0 DUP1 SLOAD PUSH2 0x432 SWAP1 PUSH2 0x21D0 JUMP JUMPDEST DUP1 PUSH1 0x1F ADD PUSH1 0x20 DUP1 SWAP2 DIV MUL PUSH1 0x20 ADD PUSH1 0x40 MLOAD SWAP1 DUP2 ADD PUSH1 0x40 MSTORE DUP1 SWAP3 SWAP2 SWAP1 DUP2 DUP2 MSTORE PUSH1 0x20 ADD DUP3 DUP1 SLOAD PUSH2 0x45E SWAP1 PUSH2 0x21D0 JUMP JUMPDEST DUP1 ISZERO PUSH2 0x4AB JUMPI DUP1 PUSH1 0x1F LT PUSH2 0x480 JUMPI PUSH2 0x100 DUP1 DUP4 SLOAD DIV MUL DUP4 MSTORE SWAP2 PUSH1 0x20 ADD SWAP2 PUSH2 0x4AB JUMP JUMPDEST DUP3 ADD SWAP2 SWAP1 PUSH1 0x0 MSTORE PUSH1 0x20 PUSH1 0x0 KECCAK256 SWAP1 JUMPDEST DUP2 SLOAD DUP2 MSTORE SWAP1 PUSH1 0x1 ADD SWAP1 PUSH1 0x20 ADD DUP1 DUP4 GT PUSH2 0x48E JUMPI DUP3 SWAP1 SUB PUSH1 0x1F AND DUP3 ADD SWAP2 JUMPDEST POP POP POP POP POP SWAP1 POP SWAP1 JUMP JUMPDEST PUSH1 0x0 PUSH2 0x4C0 DUP3 PUSH2 0xBFE JUMP JUMPDEST PUSH1 0x6 PUSH1 0x0 DUP4 DUP2 MSTORE PUSH1 0x20 ADD SWAP1 DUP2 MSTORE PUSH1 0x20 ADD PUSH1 0x0 KECCAK256 PUSH1 0x0 SWAP1 SLOAD SWAP1 PUSH2 0x100 EXP SWAP1 DIV PUSH20 0xFFFFFFFFFFFFFFFFFFFFFFFFFFFFFFFFFFFFFFFF AND SWAP1 POP SWAP2 SWAP1 POP JUMP JUMPDEST PUSH1 0x0 PUSH2 0x506 DUP3 PUSH2 0x7B1 JUMP JUMPDEST SWAP1 POP DUP1 PUSH20 0xFFFFFFFFFFFFFFFFFFFFFFFFFFFFFFFFFFFFFFFF AND DUP4 PUSH20 0xFFFFFFFFFFFFFFFFFFFFFFFFFFFFFFFFFFFFFFFF AND EQ ISZERO PUSH2 0x577 JUMPI PUSH1 0x40 MLOAD PUSH32 0x8C379A000000000000000000000000000000000000000000000000000000000 DUP2 MSTORE PUSH1 0x4 ADD PUSH2 0x56E SWAP1 PUSH2 0x2274 JUMP JUMPDEST PUSH1 0x40 MLOAD DUP1 SWAP2 SUB SWAP1 REVERT JUMPDEST DUP1 PUSH20 0xFFFFFFFFFFFFFFFFFFFFFFFFFFFFFFFFFFFFFFFF AND PUSH2 0x596 PUSH2 0xC49 JUMP JUMPDEST PUSH20 0xFFFFFFFFFFFFFFFFFFFFFFFFFFFFFFFFFFFFFFFF AND EQ DUP1 PUSH2 0x5C5 JUMPI POP PUSH2 0x5C4 DUP2 PUSH2 0x5BF PUSH2 0xC49 JUMP JUMPDEST PUSH2 0xB00 JUMP JUMPDEST JUMPDEST PUSH2 0x604 JUMPI PUSH1 0x40 MLOAD PUSH32 0x8C379A000000000000000000000000000000000000000000000000000000000 DUP2 MSTORE PUSH1 0x4 ADD PUSH2 0x5FB SWAP1 PUSH2 0x2306 JUMP JUMPDEST PUSH1 0x40 MLOAD DUP1 SWAP2 SUB SWAP1 REVERT JUMPDEST PUSH2 0x60E DUP4 DUP4 PUSH2 0xC51 JUMP JUMPDEST POP POP POP JUMP JUMPDEST PUSH2 0x624 PUSH2 0x61E PUSH2 0xC49 JUMP JUMPDEST DUP3 PUSH2 0xD0A JUMP JUMPDEST PUSH2 0x663 JUMPI PUSH1 0x40 MLOAD PUSH32 0x8C379A000000000000000000000000000000000000000000000000000000000 DUP2 MSTORE PUSH1 0x4 ADD PUSH2 0x65A SWAP1 PUSH2 0x2398 JUMP JUMPDEST PUSH1 0x40 MLOAD DUP1 SWAP2 SUB SWAP1 REVERT JUMPDEST PUSH2 0x66E DUP4 DUP4 DUP4 PUSH2 0xD9F JUMP JUMPDEST POP POP POP JUMP JUMPDEST PUSH1 0x2 PUSH1 0x0 SWAP1 SLOAD SWAP1 PUSH2 0x100 EXP SWAP1 DIV PUSH20 0xFFFFFFFFFFFFFFFFFFFFFFFFFFFFFFFFFFFFFFFF AND PUSH20 0xFFFFFFFFFFFFFFFFFFFFFFFFFFFFFFFFFFFFFFFF AND CALLER PUSH20 0xFFFFFFFFFFFFFFFFFFFFFFFFFFFFFFFFFFFFFFFF AND EQ PUSH2 0x6CD JUMPI PUSH1 0x0 DUP1 REVERT JUMPDEST PUSH2 0x6D7 DUP3 DUP3 PUSH2 0x1099 JUMP JUMPDEST POP POP JUMP JUMPDEST PUSH2 0x6F6 DUP4 DUP4 DUP4 PUSH1 0x40 MLOAD DUP1 PUSH1 0x20 ADD PUSH1 0x40 MSTORE DUP1 PUSH1 0x0 DUP2 MSTORE POP PUSH2 0x998 JUMP JUMPDEST POP POP POP JUMP JUMPDEST PUSH1 0x2 PUSH1 0x0 SWAP1 SLOAD SWAP1 PUSH2 0x100 EXP SWAP1 DIV PUSH20 0xFFFFFFFFFFFFFFFFFFFFFFFFFFFFFFFFFFFFFFFF AND PUSH20 0xFFFFFFFFFFFFFFFFFFFFFFFFFFFFFFFFFFFFFFFF AND CALLER PUSH20 0xFFFFFFFFFFFFFFFFFFFFFFFFFFFFFFFFFFFFFFFF AND EQ PUSH2 0x755 JUMPI PUSH1 0x0 DUP1 REVERT JUMPDEST PUSH2 0x766 PUSH2 0x760 PUSH2 0xC49 JUMP JUMPDEST DUP3 PUSH2 0xD0A JUMP JUMPDEST PUSH2 0x7A5 JUMPI PUSH1 0x40 MLOAD PUSH32 0x8C379A000000000000000000000000000000000000000000000000000000000 DUP2 MSTORE PUSH1 0x4 ADD PUSH2 0x79C SWAP1 PUSH2 0x2398 JUMP JUMPDEST PUSH1 0x40 MLOAD DUP1 SWAP2 SUB SWAP1 REVERT JUMPDEST PUSH2 0x7AE DUP2 PUSH2 0x10B7 JUMP JUMPDEST POP JUMP JUMPDEST PUSH1 0x0 DUP1 PUSH2 0x7BD DUP4 PUSH2 0x1205 JUMP JUMPDEST SWAP1 POP PUSH1 0x0 PUSH20 0xFFFFFFFFFFFFFFFFFFFFFFFFFFFFFFFFFFFFFFFF AND DUP2 PUSH20 0xFFFFFFFFFFFFFFFFFFFFFFFFFFFFFFFFFFFFFFFF AND EQ ISZERO PUSH2 0x82F JUMPI PUSH1 0x40 MLOAD PUSH32 0x8C379A000000000000000000000000000000000000000000000000000000000 DUP2 MSTORE PUSH1 0x4 ADD PUSH2 0x826 SWAP1 PUSH2 0x2404 JUMP JUMPDEST PUSH1 0x40 MLOAD DUP1 SWAP2 SUB SWAP1 REVERT JUMPDEST DUP1 SWAP2 POP POP SWAP2 SWAP1 POP JUMP JUMPDEST PUSH1 0x0 DUP1 PUSH20 0xFFFFFFFFFFFFFFFFFFFFFFFFFFFFFFFFFFFFFFFF AND DUP3 PUSH20 0xFFFFFFFFFFFFFFFFFFFFFFFFFFFFFFFFFFFFFFFF AND EQ ISZERO PUSH2 0x8A9 JUMPI PUSH1 0x40 MLOAD PUSH32 0x8C379A000000000000000000000000000000000000000000000000000000000 DUP2 MSTORE PUSH1 0x4 ADD PUSH2 0x8A0 SWAP1 PUSH2 0x2496 JUMP JUMPDEST PUSH1 0x40 MLOAD DUP1 SWAP2 SUB SWAP1 REVERT JUMPDEST PUSH1 0x5 PUSH1 0x0 DUP4 PUSH20 0xFFFFFFFFFFFFFFFFFFFFFFFFFFFFFFFFFFFFFFFF AND PUSH20 0xFFFFFFFFFFFFFFFFFFFFFFFFFFFFFFFFFFFFFFFF AND DUP2 MSTORE PUSH1 0x20 ADD SWAP1 DUP2 MSTORE PUSH1 0x20 ADD PUSH1 0x0 KECCAK256 SLOAD SWAP1 POP SWAP2 SWAP1 POP JUMP JUMPDEST PUSH1 0x60 PUSH1 0x1 DUP1 SLOAD PUSH2 0x8FF SWAP1 PUSH2 0x21D0 JUMP JUMPDEST DUP1 PUSH1 0x1F ADD PUSH1 0x20 DUP1 SWAP2 DIV MUL PUSH1 0x20 ADD PUSH1 0x40 MLOAD SWAP1 DUP2 ADD PUSH1 0x40 MSTORE DUP1 SWAP3 SWAP2 SWAP1 DUP2 DUP2 MSTORE PUSH1 0x20 ADD DUP3 DUP1 SLOAD PUSH2 0x92B SWAP1 PUSH2 0x21D0 JUMP JUMPDEST DUP1 ISZERO PUSH2 0x978 JUMPI DUP1 PUSH1 0x1F LT PUSH2 0x94D JUMPI PUSH2 0x100 DUP1 DUP4 SLOAD DIV MUL DUP4 MSTORE SWAP2 PUSH1 0x20 ADD SWAP2 PUSH2 0x978 JUMP JUMPDEST DUP3 ADD SWAP2 SWAP1 PUSH1 0x0 MSTORE PUSH1 0x20 PUSH1 0x0 KECCAK256 SWAP1 JUMPDEST DUP2 SLOAD DUP2 MSTORE SWAP1 PUSH1 0x1 ADD SWAP1 PUSH1 0x20 ADD DUP1 DUP4 GT PUSH2 0x95B JUMPI DUP3 SWAP1 SUB PUSH1 0x1F AND DUP3 ADD SWAP2 JUMPDEST POP POP POP POP POP SWAP1 POP SWAP1 JUMP JUMPDEST PUSH2 0x994 PUSH2 0x98D PUSH2 0xC49 JUMP JUMPDEST DUP4 DUP4 PUSH2 0x1242 JUMP JUMPDEST POP POP JUMP JUMPDEST PUSH2 0x9A9 PUSH2 0x9A3 PUSH2 0xC49 JUMP JUMPDEST DUP4 PUSH2 0xD0A JUMP JUMPDEST PUSH2 0x9E8 JUMPI PUSH1 0x40 MLOAD PUSH32 0x8C379A000000000000000000000000000000000000000000000000000000000 DUP2 MSTORE PUSH1 0x4 ADD PUSH2 0x9DF SWAP1 PUSH2 0x2398 JUMP JUMPDEST PUSH1 0x40 MLOAD DUP1 SWAP2 SUB SWAP1 REVERT JUMPDEST PUSH2 0x9F4 DUP5 DUP5 DUP5 DUP5 PUSH2 0x13AF JUMP JUMPDEST POP POP POP POP JUMP JUMPDEST PUSH1 0x3 PUSH1 0x0 SWAP1 SLOAD SWAP1 PUSH2 0x100 EXP SWAP1 DIV PUSH20 0xFFFFFFFFFFFFFFFFFFFFFFFFFFFFFFFFFFFFFFFF AND PUSH20 0xFFFFFFFFFFFFFFFFFFFFFFFFFFFFFFFFFFFFFFFF AND CALLER PUSH20 0xFFFFFFFFFFFFFFFFFFFFFFFFFFFFFFFFFFFFFFFF AND EQ PUSH2 0xA54 JUMPI PUSH1 0x0 DUP1 REVERT JUMPDEST DUP1 PUSH1 0x2 PUSH1 0x0 PUSH2 0x100 EXP DUP2 SLOAD DUP2 PUSH20 0xFFFFFFFFFFFFFFFFFFFFFFFFFFFFFFFFFFFFFFFF MUL NOT AND SWAP1 DUP4 PUSH20 0xFFFFFFFFFFFFFFFFFFFFFFFFFFFFFFFFFFFFFFFF AND MUL OR SWAP1 SSTORE POP POP JUMP JUMPDEST PUSH1 0x60 PUSH2 0xAA3 DUP3 PUSH2 0xBFE JUMP JUMPDEST PUSH1 0x0 PUSH2 0xAAD PUSH2 0x140B JUMP JUMPDEST SWAP1 POP PUSH1 0x0 DUP2 MLOAD GT PUSH2 0xACD JUMPI PUSH1 0x40 MLOAD DUP1 PUSH1 0x20 ADD PUSH1 0x40 MSTORE DUP1 PUSH1 0x0 DUP2 MSTORE POP PUSH2 0xAF8 JUMP JUMPDEST DUP1 PUSH2 0xAD7 DUP5 PUSH2 0x1422 JUMP JUMPDEST PUSH1 0x40 MLOAD PUSH1 0x20 ADD PUSH2 0xAE8 SWAP3 SWAP2 SWAP1 PUSH2 0x24F2 JUMP JUMPDEST PUSH1 0x40 MLOAD PUSH1 0x20 DUP2 DUP4 SUB SUB DUP2 MSTORE SWAP1 PUSH1 0x40 MSTORE JUMPDEST SWAP2 POP POP SWAP2 SWAP1 POP JUMP JUMPDEST PUSH1 0x0 PUSH1 0x7 PUSH1 0x0 DUP5 PUSH20 0xFFFFFFFFFFFFFFFFFFFFFFFFFFFFFFFFFFFFFFFF AND PUSH20 0xFFFFFFFFFFFFFFFFFFFFFFFFFFFFFFFFFFFFFFFF AND DUP2 MSTORE PUSH1 0x20 ADD SWAP1 DUP2 MSTORE PUSH1 0x20 ADD PUSH1 0x0 KECCAK256 PUSH1 0x0 DUP4 PUSH20 0xFFFFFFFFFFFFFFFFFFFFFFFFFFFFFFFFFFFFFFFF AND PUSH20 0xFFFFFFFFFFFFFFFFFFFFFFFFFFFFFFFFFFFFFFFF AND DUP2 MSTORE PUSH1 0x20 ADD SWAP1 DUP2 MSTORE PUSH1 0x20 ADD PUSH1 0x0 KECCAK256 PUSH1 0x0 SWAP1 SLOAD SWAP1 PUSH2 0x100 EXP SWAP1 DIV PUSH1 0xFF AND SWAP1 POP SWAP3 SWAP2 POP POP JUMP JUMPDEST PUSH1 0x0 PUSH32 0x1FFC9A700000000000000000000000000000000000000000000000000000000 PUSH28 0xFFFFFFFFFFFFFFFFFFFFFFFFFFFFFFFFFFFFFFFFFFFFFFFFFFFFFFFF NOT AND DUP3 PUSH28 0xFFFFFFFFFFFFFFFFFFFFFFFFFFFFFFFFFFFFFFFFFFFFFFFFFFFFFFFF NOT AND EQ SWAP1 POP SWAP2 SWAP1 POP JUMP JUMPDEST PUSH2 0xC07 DUP2 PUSH2 0x14FA JUMP JUMPDEST PUSH2 0xC46 JUMPI PUSH1 0x40 MLOAD PUSH32 0x8C379A000000000000000000000000000000000000000000000000000000000 DUP2 MSTORE PUSH1 0x4 ADD PUSH2 0xC3D SWAP1 PUSH2 0x2404 JUMP JUMPDEST PUSH1 0x40 MLOAD DUP1 SWAP2 SUB SWAP1 REVERT JUMPDEST POP JUMP JUMPDEST PUSH1 0x0 CALLER SWAP1 POP SWAP1 JUMP JUMPDEST DUP2 PUSH1 0x6 PUSH1 0x0 DUP4 DUP2 MSTORE PUSH1 0x20 ADD SWAP1 DUP2 MSTORE PUSH1 0x20 ADD PUSH1 0x0 KECCAK256 PUSH1 0x0 PUSH2 0x100 EXP DUP2 SLOAD DUP2 PUSH20 0xFFFFFFFFFFFFFFFFFFFFFFFFFFFFFFFFFFFFFFFF MUL NOT AND SWAP1 DUP4 PUSH20 0xFFFFFFFFFFFFFFFFFFFFFFFFFFFFFFFFFFFFFFFF AND MUL OR SWAP1 SSTORE POP DUP1 DUP3 PUSH20 0xFFFFFFFFFFFFFFFFFFFFFFFFFFFFFFFFFFFFFFFF AND PUSH2 0xCC4 DUP4 PUSH2 0x7B1 JUMP JUMPDEST PUSH20 0xFFFFFFFFFFFFFFFFFFFFFFFFFFFFFFFFFFFFFFFF AND PUSH32 0x8C5BE1E5EBEC7D5BD14F71427D1E84F3DD0314C0F7B2291E5B200AC8C7C3B925 PUSH1 0x40 MLOAD PUSH1 0x40 MLOAD DUP1 SWAP2 SUB SWAP1 LOG4 POP POP JUMP JUMPDEST PUSH1 0x0 DUP1 PUSH2 0xD16 DUP4 PUSH2 0x7B1 JUMP JUMPDEST SWAP1 POP DUP1 PUSH20 0xFFFFFFFFFFFFFFFFFFFFFFFFFFFFFFFFFFFFFFFF AND DUP5 PUSH20 0xFFFFFFFFFFFFFFFFFFFFFFFFFFFFFFFFFFFFFFFF AND EQ DUP1 PUSH2 0xD58 JUMPI POP PUSH2 0xD57 DUP2 DUP6 PUSH2 0xB00 JUMP JUMPDEST JUMPDEST DUP1 PUSH2 0xD96 JUMPI POP DUP4 PUSH20 0xFFFFFFFFFFFFFFFFFFFFFFFFFFFFFFFFFFFFFFFF AND PUSH2 0xD7E DUP5 PUSH2 0x4B5 JUMP JUMPDEST PUSH20 0xFFFFFFFFFFFFFFFFFFFFFFFFFFFFFFFFFFFFFFFF AND EQ JUMPDEST SWAP2 POP POP SWAP3 SWAP2 POP POP JUMP JUMPDEST DUP3 PUSH20 0xFFFFFFFFFFFFFFFFFFFFFFFFFFFFFFFFFFFFFFFF AND PUSH2 0xDBF DUP3 PUSH2 0x7B1 JUMP JUMPDEST PUSH20 0xFFFFFFFFFFFFFFFFFFFFFFFFFFFFFFFFFFFFFFFF AND EQ PUSH2 0xE15 JUMPI PUSH1 0x40 MLOAD PUSH32 0x8C379A000000000000000000000000000000000000000000000000000000000 DUP2 MSTORE PUSH1 0x4 ADD PUSH2 0xE0C SWAP1 PUSH2 0x2588 JUMP JUMPDEST PUSH1 0x40 MLOAD DUP1 SWAP2 SUB SWAP1 REVERT JUMPDEST PUSH1 0x0 PUSH20 0xFFFFFFFFFFFFFFFFFFFFFFFFFFFFFFFFFFFFFFFF AND DUP3 PUSH20 0xFFFFFFFFFFFFFFFFFFFFFFFFFFFFFFFFFFFFFFFF AND EQ ISZERO PUSH2 0xE85 JUMPI PUSH1 0x40 MLOAD PUSH32 0x8C379A000000000000000000000000000000000000000000000000000000000 DUP2 MSTORE PUSH1 0x4 ADD PUSH2 0xE7C SWAP1 PUSH2 0x261A JUMP JUMPDEST PUSH1 0x40 MLOAD DUP1 SWAP2 SUB SWAP1 REVERT JUMPDEST PUSH2 0xE92 DUP4 DUP4 DUP4 PUSH1 0x1 PUSH2 0x153B JUMP JUMPDEST DUP3 PUSH20 0xFFFFFFFFFFFFFFFFFFFFFFFFFFFFFFFFFFFFFFFF AND PUSH2 0xEB2 DUP3 PUSH2 0x7B1 JUMP JUMPDEST PUSH20 0xFFFFFFFFFFFFFFFFFFFFFFFFFFFFFFFFFFFFFFFF AND EQ PUSH2 0xF08 JUMPI PUSH1 0x40 MLOAD PUSH32 0x8C379A000000000000000000000000000000000000000000000000000000000 DUP2 MSTORE PUSH1 0x4 ADD PUSH2 0xEFF SWAP1 PUSH2 0x26AC JUMP JUMPDEST PUSH1 0x40 MLOAD DUP1 SWAP2 SUB SWAP1 REVERT JUMPDEST PUSH1 0x6 PUSH1 0x0 DUP3 DUP2 MSTORE PUSH1 0x20 ADD SWAP1 DUP2 MSTORE PUSH1 0x20 ADD PUSH1 0x0 KECCAK256 PUSH1 0x0 PUSH2 0x100 EXP DUP2 SLOAD SWAP1 PUSH20 0xFFFFFFFFFFFFFFFFFFFFFFFFFFFFFFFFFFFFFFFF MUL NOT AND SWAP1 SSTORE PUSH1 0x1 PUSH1 0x5 PUSH1 0x0 DUP6 PUSH20 0xFFFFFFFFFFFFFFFFFFFFFFFFFFFFFFFFFFFFFFFF AND PUSH20 0xFFFFFFFFFFFFFFFFFFFFFFFFFFFFFFFFFFFFFFFF AND DUP2 MSTORE PUSH1 0x20 ADD SWAP1 DUP2 MSTORE PUSH1 0x20 ADD PUSH1 0x0 KECCAK256 PUSH1 0x0 DUP3 DUP3 SLOAD SUB SWAP3 POP POP DUP2 SWAP1 SSTORE POP PUSH1 0x1 PUSH1 0x5 PUSH1 0x0 DUP5 PUSH20 0xFFFFFFFFFFFFFFFFFFFFFFFFFFFFFFFFFFFFFFFF AND PUSH20 0xFFFFFFFFFFFFFFFFFFFFFFFFFFFFFFFFFFFFFFFF AND DUP2 MSTORE PUSH1 0x20 ADD SWAP1 DUP2 MSTORE PUSH1 0x20 ADD PUSH1 0x0 KECCAK256 PUSH1 0x0 DUP3 DUP3 SLOAD ADD SWAP3 POP POP DUP2 SWAP1 SSTORE POP DUP2 PUSH1 0x4 PUSH1 0x0 DUP4 DUP2 MSTORE PUSH1 0x20 ADD SWAP1 DUP2 MSTORE PUSH1 0x20 ADD PUSH1 0x0 KECCAK256 PUSH1 0x0 PUSH2 0x100 EXP DUP2 SLOAD DUP2 PUSH20 0xFFFFFFFFFFFFFFFFFFFFFFFFFFFFFFFFFFFFFFFF MUL NOT AND SWAP1 DUP4 PUSH20 0xFFFFFFFFFFFFFFFFFFFFFFFFFFFFFFFFFFFFFFFF AND MUL OR SWAP1 SSTORE POP DUP1 DUP3 PUSH20 0xFFFFFFFFFFFFFFFFFFFFFFFFFFFFFFFFFFFFFFFF AND DUP5 PUSH20 0xFFFFFFFFFFFFFFFFFFFFFFFFFFFFFFFFFFFFFFFF AND PUSH32 0xDDF252AD1BE2C89B69C2B068FC378DAA952BA7F163C4A11628F55A4DF523B3EF PUSH1 0x40 MLOAD PUSH1 0x40 MLOAD DUP1 SWAP2 SUB SWAP1 LOG4 PUSH2 0x1094 DUP4 DUP4 DUP4 PUSH1 0x1 PUSH2 0x1661 JUMP JUMPDEST POP POP POP JUMP JUMPDEST PUSH2 0x10B3 DUP3 DUP3 PUSH1 0x40 MLOAD DUP1 PUSH1 0x20 ADD PUSH1 0x40 MSTORE DUP1 PUSH1 0x0 DUP2 MSTORE POP PUSH2 0x1667 JUMP JUMPDEST POP POP JUMP JUMPDEST PUSH1 0x0 PUSH2 0x10C2 DUP3 PUSH2 0x7B1 JUMP JUMPDEST SWAP1 POP PUSH2 0x10D2 DUP2 PUSH1 0x0 DUP5 PUSH1 0x1 PUSH2 0x153B JUMP JUMPDEST PUSH2 0x10DB DUP3 PUSH2 0x7B1 JUMP JUMPDEST SWAP1 POP PUSH1 0x6 PUSH1 0x0 DUP4 DUP2 MSTORE PUSH1 0x20 ADD SWAP1 DUP2 MSTORE PUSH1 0x20 ADD PUSH1 0x0 KECCAK256 PUSH1 0x0 PUSH2 0x100 EXP DUP2 SLOAD SWAP1 PUSH20 0xFFFFFFFFFFFFFFFFFFFFFFFFFFFFFFFFFFFFFFFF MUL NOT AND SWAP1 SSTORE PUSH1 0x1 PUSH1 0x5 PUSH1 0x0 DUP4 PUSH20 0xFFFFFFFFFFFFFFFFFFFFFFFFFFFFFFFFFFFFFFFF AND PUSH20 0xFFFFFFFFFFFFFFFFFFFFFFFFFFFFFFFFFFFFFFFF AND DUP2 MSTORE PUSH1 0x20 ADD SWAP1 DUP2 MSTORE PUSH1 0x20 ADD PUSH1 0x0 KECCAK256 PUSH1 0x0 DUP3 DUP3 SLOAD SUB SWAP3 POP POP DUP2 SWAP1 SSTORE POP PUSH1 0x4 PUSH1 0x0 DUP4 DUP2 MSTORE PUSH1 0x20 ADD SWAP1 DUP2 MSTORE PUSH1 0x20 ADD PUSH1 0x0 KECCAK256 PUSH1 0x0 PUSH2 0x100 EXP DUP2 SLOAD SWAP1 PUSH20 0xFFFFFFFFFFFFFFFFFFFFFFFFFFFFFFFFFFFFFFFF MUL NOT AND SWAP1 SSTORE DUP2 PUSH1 0x0 PUSH20 0xFFFFFFFFFFFFFFFFFFFFFFFFFFFFFFFFFFFFFFFF AND DUP3 PUSH20 0xFFFFFFFFFFFFFFFFFFFFFFFFFFFFFFFFFFFFFFFF AND PUSH32 0xDDF252AD1BE2C89B69C2B068FC378DAA952BA7F163C4A11628F55A4DF523B3EF PUSH1 0x40 MLOAD PUSH1 0x40 MLOAD DUP1 SWAP2 SUB SWAP1 LOG4 PUSH2 0x1201 DUP2 PUSH1 0x0 DUP5 PUSH1 0x1 PUSH2 0x1661 JUMP JUMPDEST POP POP JUMP JUMPDEST PUSH1 0x0 PUSH1 0x4 PUSH1 0x0 DUP4 DUP2 MSTORE PUSH1 0x20 ADD SWAP1 DUP2 MSTORE PUSH1 0x20 ADD PUSH1 0x0 KECCAK256 PUSH1 0x0 SWAP1 SLOAD SWAP1 PUSH2 0x100 EXP SWAP1 DIV PUSH20 0xFFFFFFFFFFFFFFFFFFFFFFFFFFFFFFFFFFFFFFFF AND SWAP1 POP SWAP2 SWAP1 POP JUMP JUMPDEST DUP2 PUSH20 0xFFFFFFFFFFFFFFFFFFFFFFFFFFFFFFFFFFFFFFFF AND DUP4 PUSH20 0xFFFFFFFFFFFFFFFFFFFFFFFFFFFFFFFFFFFFFFFF AND EQ ISZERO PUSH2 0x12B1 JUMPI PUSH1 0x40 MLOAD PUSH32 0x8C379A000000000000000000000000000000000000000000000000000000000 DUP2 MSTORE PUSH1 0x4 ADD PUSH2 0x12A8 SWAP1 PUSH2 0x2718 JUMP JUMPDEST PUSH1 0x40 MLOAD DUP1 SWAP2 SUB SWAP1 REVERT JUMPDEST DUP1 PUSH1 0x7 PUSH1 0x0 DUP6 PUSH20 0xFFFFFFFFFFFFFFFFFFFFFFFFFFFFFFFFFFFFFFFF AND PUSH20 0xFFFFFFFFFFFFFFFFFFFFFFFFFFFFFFFFFFFFFFFF AND DUP2 MSTORE PUSH1 0x20 ADD SWAP1 DUP2 MSTORE PUSH1 0x20 ADD PUSH1 0x0 KECCAK256 PUSH1 0x0 DUP5 PUSH20 0xFFFFFFFFFFFFFFFFFFFFFFFFFFFFFFFFFFFFFFFF AND PUSH20 0xFFFFFFFFFFFFFFFFFFFFFFFFFFFFFFFFFFFFFFFF AND DUP2 MSTORE PUSH1 0x20 ADD SWAP1 DUP2 MSTORE PUSH1 0x20 ADD PUSH1 0x0 KECCAK256 PUSH1 0x0 PUSH2 0x100 EXP DUP2 SLOAD DUP2 PUSH1 0xFF MUL NOT AND SWAP1 DUP4 ISZERO ISZERO MUL OR SWAP1 SSTORE POP DUP2 PUSH20 0xFFFFFFFFFFFFFFFFFFFFFFFFFFFFFFFFFFFFFFFF AND DUP4 PUSH20 0xFFFFFFFFFFFFFFFFFFFFFFFFFFFFFFFFFFFFFFFF AND PUSH32 0x17307EAB39AB6107E8899845AD3D59BD9653F200F220920489CA2B5937696C31 DUP4 PUSH1 0x40 MLOAD PUSH2 0x13A2 SWAP2 SWAP1 PUSH2 0x1C92 JUMP JUMPDEST PUSH1 0x40 MLOAD DUP1 SWAP2 SUB SWAP1 LOG3 POP POP POP JUMP JUMPDEST PUSH2 0x13BA DUP5 DUP5 DUP5 PUSH2 0xD9F JUMP JUMPDEST PUSH2 0x13C6 DUP5 DUP5 DUP5 DUP5 PUSH2 0x16C2 JUMP JUMPDEST PUSH2 0x1405 JUMPI PUSH1 0x40 MLOAD PUSH32 0x8C379A000000000000000000000000000000000000000000000000000000000 DUP2 MSTORE PUSH1 0x4 ADD PUSH2 0x13FC SWAP1 PUSH2 0x27AA JUMP JUMPDEST PUSH1 0x40 MLOAD DUP1 SWAP2 SUB SWAP1 REVERT JUMPDEST POP POP POP POP JUMP JUMPDEST PUSH1 0x60 PUSH1 0x40 MLOAD DUP1 PUSH1 0x20 ADD PUSH1 0x40 MSTORE DUP1 PUSH1 0x0 DUP2 MSTORE POP SWAP1 POP SWAP1 JUMP JUMPDEST PUSH1 0x60 PUSH1 0x0 PUSH1 0x1 PUSH2 0x1431 DUP5 PUSH2 0x184A JUMP JUMPDEST ADD SWAP1 POP PUSH1 0x0 DUP2 PUSH8 0xFFFFFFFFFFFFFFFF DUP2 GT ISZERO PUSH2 0x1450 JUMPI PUSH2 0x144F PUSH2 0x1FB3 JUMP JUMPDEST JUMPDEST PUSH1 0x40 MLOAD SWAP1 DUP1 DUP3 MSTORE DUP1 PUSH1 0x1F ADD PUSH1 0x1F NOT AND PUSH1 0x20 ADD DUP3 ADD PUSH1 0x40 MSTORE DUP1 ISZERO PUSH2 0x1482 JUMPI DUP2 PUSH1 0x20 ADD PUSH1 0x1 DUP3 MUL DUP1 CALLDATASIZE DUP4 CALLDATACOPY DUP1 DUP3 ADD SWAP2 POP POP SWAP1 POP JUMPDEST POP SWAP1 POP PUSH1 0x0 DUP3 PUSH1 0x20 ADD DUP3 ADD SWAP1 POP JUMPDEST PUSH1 0x1 ISZERO PUSH2 0x14EF JUMPI DUP1 DUP1 PUSH1 0x1 SWAP1 SUB SWAP2 POP POP PUSH32 0x3031323334353637383961626364656600000000000000000000000000000000 PUSH1 0xA DUP7 MOD BYTE DUP2 MSTORE8 PUSH1 0xA DUP6 DUP2 PUSH2 0x14D9 JUMPI PUSH2 0x14D8 PUSH2 0x27CA JUMP JUMPDEST JUMPDEST DIV SWAP5 POP PUSH1 0x0 DUP6 EQ ISZERO PUSH2 0x14EA JUMPI PUSH2 0x14EF JUMP JUMPDEST PUSH2 0x1490 JUMP JUMPDEST DUP2 SWAP4 POP POP POP POP SWAP2 SWAP1 POP JUMP JUMPDEST PUSH1 0x0 DUP1 PUSH20 0xFFFFFFFFFFFFFFFFFFFFFFFFFFFFFFFFFFFFFFFF AND PUSH2 0x151C DUP4 PUSH2 0x1205 JUMP JUMPDEST PUSH20 0xFFFFFFFFFFFFFFFFFFFFFFFFFFFFFFFFFFFFFFFF AND EQ ISZERO SWAP1 POP SWAP2 SWAP1 POP JUMP JUMPDEST PUSH1 0x1 DUP2 GT ISZERO PUSH2 0x165B JUMPI PUSH1 0x0 PUSH20 0xFFFFFFFFFFFFFFFFFFFFFFFFFFFFFFFFFFFFFFFF AND DUP5 PUSH20 0xFFFFFFFFFFFFFFFFFFFFFFFFFFFFFFFFFFFFFFFF AND EQ PUSH2 0x15CF JUMPI DUP1 PUSH1 0x5 PUSH1 0x0 DUP7 PUSH20 0xFFFFFFFFFFFFFFFFFFFFFFFFFFFFFFFFFFFFFFFF AND PUSH20 0xFFFFFFFFFFFFFFFFFFFFFFFFFFFFFFFFFFFFFFFF AND DUP2 MSTORE PUSH1 0x20 ADD SWAP1 DUP2 MSTORE PUSH1 0x20 ADD PUSH1 0x0 KECCAK256 PUSH1 0x0 DUP3 DUP3 SLOAD PUSH2 0x15C7 SWAP2 SWAP1 PUSH2 0x2828 JUMP JUMPDEST SWAP3 POP POP DUP2 SWAP1 SSTORE POP JUMPDEST PUSH1 0x0 PUSH20 0xFFFFFFFFFFFFFFFFFFFFFFFFFFFFFFFFFFFFFFFF AND DUP4 PUSH20 0xFFFFFFFFFFFFFFFFFFFFFFFFFFFFFFFFFFFFFFFF AND EQ PUSH2 0x165A JUMPI DUP1 PUSH1 0x5 PUSH1 0x0 DUP6 PUSH20 0xFFFFFFFFFFFFFFFFFFFFFFFFFFFFFFFFFFFFFFFF AND PUSH20 0xFFFFFFFFFFFFFFFFFFFFFFFFFFFFFFFFFFFFFFFF AND DUP2 MSTORE PUSH1 0x20 ADD SWAP1 DUP2 MSTORE PUSH1 0x20 ADD PUSH1 0x0 KECCAK256 PUSH1 0x0 DUP3 DUP3 SLOAD PUSH2 0x1652 SWAP2 SWAP1 PUSH2 0x285C JUMP JUMPDEST SWAP3 POP POP DUP2 SWAP1 SSTORE POP JUMPDEST JUMPDEST POP POP POP POP JUMP JUMPDEST POP POP POP POP JUMP JUMPDEST PUSH2 0x1671 DUP4 DUP4 PUSH2 0x199D JUMP JUMPDEST PUSH2 0x167E PUSH1 0x0 DUP5 DUP5 DUP5 PUSH2 0x16C2 JUMP JUMPDEST PUSH2 0x16BD JUMPI PUSH1 0x40 MLOAD PUSH32 0x8C379A000000000000000000000000000000000000000000000000000000000 DUP2 MSTORE PUSH1 0x4 ADD PUSH2 0x16B4 SWAP1 PUSH2 0x27AA JUMP JUMPDEST PUSH1 0x40 MLOAD DUP1 SWAP2 SUB SWAP1 REVERT JUMPDEST POP POP POP JUMP JUMPDEST PUSH1 0x0 PUSH2 0x16E3 DUP5 PUSH20 0xFFFFFFFFFFFFFFFFFFFFFFFFFFFFFFFFFFFFFFFF AND PUSH2 0x1BBB JUMP JUMPDEST ISZERO PUSH2 0x183D JUMPI DUP4 PUSH20 0xFFFFFFFFFFFFFFFFFFFFFFFFFFFFFFFFFFFFFFFF AND PUSH4 0x150B7A02 PUSH2 0x170C PUSH2 0xC49 JUMP JUMPDEST DUP8 DUP7 DUP7 PUSH1 0x40 MLOAD DUP6 PUSH4 0xFFFFFFFF AND PUSH1 0xE0 SHL DUP2 MSTORE PUSH1 0x4 ADD PUSH2 0x172E SWAP5 SWAP4 SWAP3 SWAP2 SWAP1 PUSH2 0x2907 JUMP JUMPDEST PUSH1 0x20 PUSH1 0x40 MLOAD DUP1 DUP4 SUB DUP2 PUSH1 0x0 DUP8 GAS CALL SWAP3 POP POP POP DUP1 ISZERO PUSH2 0x176A JUMPI POP PUSH1 0x40 MLOAD RETURNDATASIZE PUSH1 0x1F NOT PUSH1 0x1F DUP3 ADD AND DUP3 ADD DUP1 PUSH1 0x40 MSTORE POP DUP2 ADD SWAP1 PUSH2 0x1767 SWAP2 SWAP1 PUSH2 0x2968 JUMP JUMPDEST PUSH1 0x1 JUMPDEST PUSH2 0x17ED JUMPI RETURNDATASIZE DUP1 PUSH1 0x0 DUP2 EQ PUSH2 0x179A JUMPI PUSH1 0x40 MLOAD SWAP2 POP PUSH1 0x1F NOT PUSH1 0x3F RETURNDATASIZE ADD AND DUP3 ADD PUSH1 0x40 MSTORE RETURNDATASIZE DUP3 MSTORE RETURNDATASIZE PUSH1 0x0 PUSH1 0x20 DUP5 ADD RETURNDATACOPY PUSH2 0x179F JUMP JUMPDEST PUSH1 0x60 SWAP2 POP JUMPDEST POP PUSH1 0x0 DUP2 MLOAD EQ ISZERO PUSH2 0x17E5 JUMPI PUSH1 0x40 MLOAD PUSH32 0x8C379A000000000000000000000000000000000000000000000000000000000 DUP2 MSTORE PUSH1 0x4 ADD PUSH2 0x17DC SWAP1 PUSH2 0x27AA JUMP JUMPDEST PUSH1 0x40 MLOAD DUP1 SWAP2 SUB SWAP1 REVERT JUMPDEST DUP1 MLOAD DUP2 PUSH1 0x20 ADD REVERT JUMPDEST PUSH4 0x150B7A02 PUSH1 0xE0 SHL PUSH28 0xFFFFFFFFFFFFFFFFFFFFFFFFFFFFFFFFFFFFFFFFFFFFFFFFFFFFFFFF NOT AND DUP2 PUSH28 0xFFFFFFFFFFFFFFFFFFFFFFFFFFFFFFFFFFFFFFFFFFFFFFFFFFFFFFFF NOT AND EQ SWAP2 POP POP PUSH2 0x1842 JUMP JUMPDEST PUSH1 0x1 SWAP1 POP JUMPDEST SWAP5 SWAP4 POP POP POP POP JUMP JUMPDEST PUSH1 0x0 DUP1 PUSH1 0x0 SWAP1 POP PUSH27 0x184F03E93FF9F4DAA797ED6E38ED64BF6A1F010000000000000000 DUP4 LT PUSH2 0x18A8 JUMPI PUSH27 0x184F03E93FF9F4DAA797ED6E38ED64BF6A1F010000000000000000 DUP4 DUP2 PUSH2 0x189E JUMPI PUSH2 0x189D PUSH2 0x27CA JUMP JUMPDEST JUMPDEST DIV SWAP3 POP PUSH1 0x40 DUP2 ADD SWAP1 POP JUMPDEST PUSH14 0x4EE2D6D415B85ACEF8100000000 DUP4 LT PUSH2 0x18E5 JUMPI PUSH14 0x4EE2D6D415B85ACEF8100000000 DUP4 DUP2 PUSH2 0x18DB JUMPI PUSH2 0x18DA PUSH2 0x27CA JUMP JUMPDEST JUMPDEST DIV SWAP3 POP PUSH1 0x20 DUP2 ADD SWAP1 POP JUMPDEST PUSH7 0x2386F26FC10000 DUP4 LT PUSH2 0x1914 JUMPI PUSH7 0x2386F26FC10000 DUP4 DUP2 PUSH2 0x190A JUMPI PUSH2 0x1909 PUSH2 0x27CA JUMP JUMPDEST JUMPDEST DIV SWAP3 POP PUSH1 0x10 DUP2 ADD SWAP1 POP JUMPDEST PUSH4 0x5F5E100 DUP4 LT PUSH2 0x193D JUMPI PUSH4 0x5F5E100 DUP4 DUP2 PUSH2 0x1933 JUMPI PUSH2 0x1932 PUSH2 0x27CA JUMP JUMPDEST JUMPDEST DIV SWAP3 POP PUSH1 0x8 DUP2 ADD SWAP1 POP JUMPDEST PUSH2 0x2710 DUP4 LT PUSH2 0x1962 JUMPI PUSH2 0x2710 DUP4 DUP2 PUSH2 0x1958 JUMPI PUSH2 0x1957 PUSH2 0x27CA JUMP JUMPDEST JUMPDEST DIV SWAP3 POP PUSH1 0x4 DUP2 ADD SWAP1 POP JUMPDEST PUSH1 0x64 DUP4 LT PUSH2 0x1985 JUMPI PUSH1 0x64 DUP4 DUP2 PUSH2 0x197B JUMPI PUSH2 0x197A PUSH2 0x27CA JUMP JUMPDEST JUMPDEST DIV SWAP3 POP PUSH1 0x2 DUP2 ADD SWAP1 POP JUMPDEST PUSH1 0xA DUP4 LT PUSH2 0x1994 JUMPI PUSH1 0x1 DUP2 ADD SWAP1 POP JUMPDEST DUP1 SWAP2 POP POP SWAP2 SWAP1 POP JUMP JUMPDEST PUSH1 0x0 PUSH20 0xFFFFFFFFFFFFFFFFFFFFFFFFFFFFFFFFFFFFFFFF AND DUP3 PUSH20 0xFFFFFFFFFFFFFFFFFFFFFFFFFFFFFFFFFFFFFFFF AND EQ ISZERO PUSH2 0x1A0D JUMPI PUSH1 0x40 MLOAD PUSH32 0x8C379A000000000000000000000000000000000000000000000000000000000 DUP2 MSTORE PUSH1 0x4 ADD PUSH2 0x1A04 SWAP1 PUSH2 0x2A07 JUMP JUMPDEST PUSH1 0x40 MLOAD DUP1 SWAP2 SUB SWAP1 REVERT JUMPDEST PUSH2 0x1A16 DUP2 PUSH2 0x14FA JUMP JUMPDEST ISZERO PUSH2 0x1A56 JUMPI PUSH1 0x40 MLOAD PUSH32 0x8C379A000000000000000000000000000000000000000000000000000000000 DUP2 MSTORE PUSH1 0x4 ADD PUSH2 0x1A4D SWAP1 PUSH2 0x2A73 JUMP JUMPDEST PUSH1 0x40 MLOAD DUP1 SWAP2 SUB SWAP1 REVERT JUMPDEST PUSH2 0x1A64 PUSH1 0x0 DUP4 DUP4 PUSH1 0x1 PUSH2 0x153B JUMP JUMPDEST PUSH2 0x1A6D DUP2 PUSH2 0x14FA JUMP JUMPDEST ISZERO PUSH2 0x1AAD JUMPI PUSH1 0x40 MLOAD PUSH32 0x8C379A000000000000000000000000000000000000000000000000000000000 DUP2 MSTORE PUSH1 0x4 ADD PUSH2 0x1AA4 SWAP1 PUSH2 0x2A73 JUMP JUMPDEST PUSH1 0x40 MLOAD DUP1 SWAP2 SUB SWAP1 REVERT JUMPDEST PUSH1 0x1 PUSH1 0x5 PUSH1 0x0 DUP5 PUSH20 0xFFFFFFFFFFFFFFFFFFFFFFFFFFFFFFFFFFFFFFFF AND PUSH20 0xFFFFFFFFFFFFFFFFFFFFFFFFFFFFFFFFFFFFFFFF AND DUP2 MSTORE PUSH1 0x20 ADD SWAP1 DUP2 MSTORE PUSH1 0x20 ADD PUSH1 0x0 KECCAK256 PUSH1 0x0 DUP3 DUP3 SLOAD ADD SWAP3 POP POP DUP2 SWAP1 SSTORE POP DUP2 PUSH1 0x4 PUSH1 0x0 DUP4 DUP2 MSTORE PUSH1 0x20 ADD SWAP1 DUP2 MSTORE PUSH1 0x20 ADD PUSH1 0x0 KECCAK256 PUSH1 0x0 PUSH2 0x100 EXP DUP2 SLOAD DUP2 PUSH20 0xFFFFFFFFFFFFFFFFFFFFFFFFFFFFFFFFFFFFFFFF MUL NOT AND SWAP1 DUP4 PUSH20 0xFFFFFFFFFFFFFFFFFFFFFFFFFFFFFFFFFFFFFFFF AND MUL OR SWAP1 SSTORE POP DUP1 DUP3 PUSH20 0xFFFFFFFFFFFFFFFFFFFFFFFFFFFFFFFFFFFFFFFF AND PUSH1 0x0 PUSH20 0xFFFFFFFFFFFFFFFFFFFFFFFFFFFFFFFFFFFFFFFF AND PUSH32 0xDDF252AD1BE2C89B69C2B068FC378DAA952BA7F163C4A11628F55A4DF523B3EF PUSH1 0x40 MLOAD PUSH1 0x40 MLOAD DUP1 SWAP2 SUB SWAP1 LOG4 PUSH2 0x1BB7 PUSH1 0x0 DUP4 DUP4 PUSH1 0x1 PUSH2 0x1661 JUMP JUMPDEST POP POP JUMP JUMPDEST PUSH1 0x0 DUP1 DUP3 PUSH20 0xFFFFFFFFFFFFFFFFFFFFFFFFFFFFFFFFFFFFFFFF AND EXTCODESIZE GT SWAP1 POP SWAP2 SWAP1 POP JUMP JUMPDEST PUSH1 0x0 PUSH1 0x40 MLOAD SWAP1 POP SWAP1 JUMP JUMPDEST PUSH1 0x0 DUP1 REVERT JUMPDEST PUSH1 0x0 DUP1 REVERT JUMPDEST PUSH1 0x0 PUSH32 0xFFFFFFFF00000000000000000000000000000000000000000000000000000000 DUP3 AND SWAP1 POP SWAP2 SWAP1 POP JUMP JUMPDEST PUSH2 0x1C27 DUP2 PUSH2 0x1BF2 JUMP JUMPDEST DUP2 EQ PUSH2 0x1C32 JUMPI PUSH1 0x0 DUP1 REVERT JUMPDEST POP JUMP JUMPDEST PUSH1 0x0 DUP2 CALLDATALOAD SWAP1 POP PUSH2 0x1C44 DUP2 PUSH2 0x1C1E JUMP JUMPDEST SWAP3 SWAP2 POP POP JUMP JUMPDEST PUSH1 0x0 PUSH1 0x20 DUP3 DUP5 SUB SLT ISZERO PUSH2 0x1C60 JUMPI PUSH2 0x1C5F PUSH2 0x1BE8 JUMP JUMPDEST JUMPDEST PUSH1 0x0 PUSH2 0x1C6E DUP5 DUP3 DUP6 ADD PUSH2 0x1C35 JUMP JUMPDEST SWAP2 POP POP SWAP3 SWAP2 POP POP JUMP JUMPDEST PUSH1 0x0 DUP2 ISZERO ISZERO SWAP1 POP SWAP2 SWAP1 POP JUMP JUMPDEST PUSH2 0x1C8C DUP2 PUSH2 0x1C77 JUMP JUMPDEST DUP3 MSTORE POP POP JUMP JUMPDEST PUSH1 0x0 PUSH1 0x20 DUP3 ADD SWAP1 POP PUSH2 0x1CA7 PUSH1 0x0 DUP4 ADD DUP5 PUSH2 0x1C83 JUMP JUMPDEST SWAP3 SWAP2 POP POP JUMP JUMPDEST PUSH1 0x0 DUP2 MLOAD SWAP1 POP SWAP2 SWAP1 POP JUMP JUMPDEST PUSH1 0x0 DUP3 DUP3 MSTORE PUSH1 0x20 DUP3 ADD SWAP1 POP SWAP3 SWAP2 POP POP JUMP JUMPDEST PUSH1 0x0 JUMPDEST DUP4 DUP2 LT ISZERO PUSH2 0x1CE7 JUMPI DUP1 DUP3 ADD MLOAD DUP2 DUP5 ADD MSTORE PUSH1 0x20 DUP2 ADD SWAP1 POP PUSH2 0x1CCC JUMP JUMPDEST DUP4 DUP2 GT ISZERO PUSH2 0x1CF6 JUMPI PUSH1 0x0 DUP5 DUP5 ADD MSTORE JUMPDEST POP POP POP POP JUMP JUMPDEST PUSH1 0x0 PUSH1 0x1F NOT PUSH1 0x1F DUP4 ADD AND SWAP1 POP SWAP2 SWAP1 POP JUMP JUMPDEST PUSH1 0x0 PUSH2 0x1D18 DUP3 PUSH2 0x1CAD JUMP JUMPDEST PUSH2 0x1D22 DUP2 DUP6 PUSH2 0x1CB8 JUMP JUMPDEST SWAP4 POP PUSH2 0x1D32 DUP2 DUP6 PUSH1 0x20 DUP7 ADD PUSH2 0x1CC9 JUMP JUMPDEST PUSH2 0x1D3B DUP2 PUSH2 0x1CFC JUMP JUMPDEST DUP5 ADD SWAP2 POP POP SWAP3 SWAP2 POP POP JUMP JUMPDEST PUSH1 0x0 PUSH1 0x20 DUP3 ADD SWAP1 POP DUP2 DUP2 SUB PUSH1 0x0 DUP4 ADD MSTORE PUSH2 0x1D60 DUP2 DUP5 PUSH2 0x1D0D JUMP JUMPDEST SWAP1 POP SWAP3 SWAP2 POP POP JUMP JUMPDEST PUSH1 0x0 DUP2 SWAP1 POP SWAP2 SWAP1 POP JUMP JUMPDEST PUSH2 0x1D7B DUP2 PUSH2 0x1D68 JUMP JUMPDEST DUP2 EQ PUSH2 0x1D86 JUMPI PUSH1 0x0 DUP1 REVERT JUMPDEST POP JUMP JUMPDEST PUSH1 0x0 DUP2 CALLDATALOAD SWAP1 POP PUSH2 0x1D98 DUP2 PUSH2 0x1D72 JUMP JUMPDEST SWAP3 SWAP2 POP POP JUMP JUMPDEST PUSH1 0x0 PUSH1 0x20 DUP3 DUP5 SUB SLT ISZERO PUSH2 0x1DB4 JUMPI PUSH2 0x1DB3 PUSH2 0x1BE8 JUMP JUMPDEST JUMPDEST PUSH1 0x0 PUSH2 0x1DC2 DUP5 DUP3 DUP6 ADD PUSH2 0x1D89 JUMP JUMPDEST SWAP2 POP POP SWAP3 SWAP2 POP POP JUMP JUMPDEST PUSH1 0x0 PUSH20 0xFFFFFFFFFFFFFFFFFFFFFFFFFFFFFFFFFFFFFFFF DUP3 AND SWAP1 POP SWAP2 SWAP1 POP JUMP JUMPDEST PUSH1 0x0 PUSH2 0x1DF6 DUP3 PUSH2 0x1DCB JUMP JUMPDEST SWAP1 POP SWAP2 SWAP1 POP JUMP JUMPDEST PUSH2 0x1E06 DUP2 PUSH2 0x1DEB JUMP JUMPDEST DUP3 MSTORE POP POP JUMP JUMPDEST PUSH1 0x0 PUSH1 0x20 DUP3 ADD SWAP1 POP PUSH2 0x1E21 PUSH1 0x0 DUP4 ADD DUP5 PUSH2 0x1DFD JUMP JUMPDEST SWAP3 SWAP2 POP POP JUMP JUMPDEST PUSH2 0x1E30 DUP2 PUSH2 0x1DEB JUMP JUMPDEST DUP2 EQ PUSH2 0x1E3B JUMPI PUSH1 0x0 DUP1 REVERT JUMPDEST POP JUMP JUMPDEST PUSH1 0x0 DUP2 CALLDATALOAD SWAP1 POP PUSH2 0x1E4D DUP2 PUSH2 0x1E27 JUMP JUMPDEST SWAP3 SWAP2 POP POP JUMP JUMPDEST PUSH1 0x0 DUP1 PUSH1 0x40 DUP4 DUP6 SUB SLT ISZERO PUSH2 0x1E6A JUMPI PUSH2 0x1E69 PUSH2 0x1BE8 JUMP JUMPDEST JUMPDEST PUSH1 0x0 PUSH2 0x1E78 DUP6 DUP3 DUP7 ADD PUSH2 0x1E3E JUMP JUMPDEST SWAP3 POP POP PUSH1 0x20 PUSH2 0x1E89 DUP6 DUP3 DUP7 ADD PUSH2 0x1D89 JUMP JUMPDEST SWAP2 POP POP SWAP3 POP SWAP3 SWAP1 POP JUMP JUMPDEST PUSH1 0x0 DUP1 PUSH1 0x0 PUSH1 0x60 DUP5 DUP7 SUB SLT ISZERO PUSH2 0x1EAC JUMPI PUSH2 0x1EAB PUSH2 0x1BE8 JUMP JUMPDEST JUMPDEST PUSH1 0x0 PUSH2 0x1EBA DUP7 DUP3 DUP8 ADD PUSH2 0x1E3E JUMP JUMPDEST SWAP4 POP POP PUSH1 0x20 PUSH2 0x1ECB DUP7 DUP3 DUP8 ADD PUSH2 0x1E3E JUMP JUMPDEST SWAP3 POP POP PUSH1 0x40 PUSH2 0x1EDC DUP7 DUP3 DUP8 ADD PUSH2 0x1D89 JUMP JUMPDEST SWAP2 POP POP SWAP3 POP SWAP3 POP SWAP3 JUMP JUMPDEST PUSH1 0x0 PUSH1 0x20 DUP3 DUP5 SUB SLT ISZERO PUSH2 0x1EFC JUMPI PUSH2 0x1EFB PUSH2 0x1BE8 JUMP JUMPDEST JUMPDEST PUSH1 0x0 PUSH2 0x1F0A DUP5 DUP3 DUP6 ADD PUSH2 0x1E3E JUMP JUMPDEST SWAP2 POP POP SWAP3 SWAP2 POP POP JUMP JUMPDEST PUSH2 0x1F1C DUP2 PUSH2 0x1D68 JUMP JUMPDEST DUP3 MSTORE POP POP JUMP JUMPDEST PUSH1 0x0 PUSH1 0x20 DUP3 ADD SWAP1 POP PUSH2 0x1F37 PUSH1 0x0 DUP4 ADD DUP5 PUSH2 0x1F13 JUMP JUMPDEST SWAP3 SWAP2 POP POP JUMP JUMPDEST PUSH2 0x1F46 DUP2 PUSH2 0x1C77 JUMP JUMPDEST DUP2 EQ PUSH2 0x1F51 JUMPI PUSH1 0x0 DUP1 REVERT JUMPDEST POP JUMP JUMPDEST PUSH1 0x0 DUP2 CALLDATALOAD SWAP1 POP PUSH2 0x1F63 DUP2 PUSH2 0x1F3D JUMP JUMPDEST SWAP3 SWAP2 POP POP JUMP JUMPDEST PUSH1 0x0 DUP1 PUSH1 0x40 DUP4 DUP6 SUB SLT ISZERO PUSH2 0x1F80 JUMPI PUSH2 0x1F7F PUSH2 0x1BE8 JUMP JUMPDEST JUMPDEST PUSH1 0x0 PUSH2 0x1F8E DUP6 DUP3 DUP7 ADD PUSH2 0x1E3E JUMP JUMPDEST SWAP3 POP POP PUSH1 0x20 PUSH2 0x1F9F DUP6 DUP3 DUP7 ADD PUSH2 0x1F54 JUMP JUMPDEST SWAP2 POP POP SWAP3 POP SWAP3 SWAP1 POP JUMP JUMPDEST PUSH1 0x0 DUP1 REVERT JUMPDEST PUSH1 0x0 DUP1 REVERT JUMPDEST PUSH32 0x4E487B7100000000000000000000000000000000000000000000000000000000 PUSH1 0x0 MSTORE PUSH1 0x41 PUSH1 0x4 MSTORE PUSH1 0x24 PUSH1 0x0 REVERT JUMPDEST PUSH2 0x1FEB DUP3 PUSH2 0x1CFC JUMP JUMPDEST DUP2 ADD DUP2 DUP2 LT PUSH8 0xFFFFFFFFFFFFFFFF DUP3 GT OR ISZERO PUSH2 0x200A JUMPI PUSH2 0x2009 PUSH2 0x1FB3 JUMP JUMPDEST JUMPDEST DUP1 PUSH1 0x40 MSTORE POP POP POP JUMP JUMPDEST PUSH1 0x0 PUSH2 0x201D PUSH2 0x1BDE JUMP JUMPDEST SWAP1 POP PUSH2 0x2029 DUP3 DUP3 PUSH2 0x1FE2 JUMP JUMPDEST SWAP2 SWAP1 POP JUMP JUMPDEST PUSH1 0x0 PUSH8 0xFFFFFFFFFFFFFFFF DUP3 GT ISZERO PUSH2 0x2049 JUMPI PUSH2 0x2048 PUSH2 0x1FB3 JUMP JUMPDEST JUMPDEST PUSH2 0x2052 DUP3 PUSH2 0x1CFC JUMP JUMPDEST SWAP1 POP PUSH1 0x20 DUP2 ADD SWAP1 POP SWAP2 SWAP1 POP JUMP JUMPDEST DUP3 DUP2 DUP4 CALLDATACOPY PUSH1 0x0 DUP4 DUP4 ADD MSTORE POP POP POP JUMP JUMPDEST PUSH1 0x0 PUSH2 0x2081 PUSH2 0x207C DUP5 PUSH2 0x202E JUMP JUMPDEST PUSH2 0x2013 JUMP JUMPDEST SWAP1 POP DUP3 DUP2 MSTORE PUSH1 0x20 DUP2 ADD DUP5 DUP5 DUP5 ADD GT ISZERO PUSH2 0x209D JUMPI PUSH2 0x209C PUSH2 0x1FAE JUMP JUMPDEST JUMPDEST PUSH2 0x20A8 DUP5 DUP3 DUP6 PUSH2 0x205F JUMP JUMPDEST POP SWAP4 SWAP3 POP POP POP JUMP JUMPDEST PUSH1 0x0 DUP3 PUSH1 0x1F DUP4 ADD SLT PUSH2 0x20C5 JUMPI PUSH2 0x20C4 PUSH2 0x1FA9 JUMP JUMPDEST JUMPDEST DUP2 CALLDATALOAD PUSH2 0x20D5 DUP5 DUP3 PUSH1 0x20 DUP7 ADD PUSH2 0x206E JUMP JUMPDEST SWAP2 POP POP SWAP3 SWAP2 POP POP JUMP JUMPDEST PUSH1 0x0 DUP1 PUSH1 0x0 DUP1 PUSH1 0x80 DUP6 DUP8 SUB SLT ISZERO PUSH2 0x20F8 JUMPI PUSH2 0x20F7 PUSH2 0x1BE8 JUMP JUMPDEST JUMPDEST PUSH1 0x0 PUSH2 0x2106 DUP8 DUP3 DUP9 ADD PUSH2 0x1E3E JUMP JUMPDEST SWAP5 POP POP PUSH1 0x20 PUSH2 0x2117 DUP8 DUP3 DUP9 ADD PUSH2 0x1E3E JUMP JUMPDEST SWAP4 POP POP PUSH1 0x40 PUSH2 0x2128 DUP8 DUP3 DUP9 ADD PUSH2 0x1D89 JUMP JUMPDEST SWAP3 POP POP PUSH1 0x60 DUP6 ADD CALLDATALOAD PUSH8 0xFFFFFFFFFFFFFFFF DUP2 GT ISZERO PUSH2 0x2149 JUMPI PUSH2 0x2148 PUSH2 0x1BED JUMP JUMPDEST JUMPDEST PUSH2 0x2155 DUP8 DUP3 DUP9 ADD PUSH2 0x20B0 JUMP JUMPDEST SWAP2 POP POP SWAP3 SWAP6 SWAP2 SWAP5 POP SWAP3 POP JUMP JUMPDEST PUSH1 0x0 DUP1 PUSH1 0x40 DUP4 DUP6 SUB SLT ISZERO PUSH2 0x2178 JUMPI PUSH2 0x2177 PUSH2 0x1BE8 JUMP JUMPDEST JUMPDEST PUSH1 0x0 PUSH2 0x2186 DUP6 DUP3 DUP7 ADD PUSH2 0x1E3E JUMP JUMPDEST SWAP3 POP POP PUSH1 0x20 PUSH2 0x2197 DUP6 DUP3 DUP7 ADD PUSH2 0x1E3E JUMP JUMPDEST SWAP2 POP POP SWAP3 POP SWAP3 SWAP1 POP JUMP JUMPDEST PUSH32 0x4E487B7100000000000000000000000000000000000000000000000000000000 PUSH1 0x0 MSTORE PUSH1 0x22 PUSH1 0x4 MSTORE PUSH1 0x24 PUSH1 0x0 REVERT JUMPDEST PUSH1 0x0 PUSH1 0x2 DUP3 DIV SWAP1 POP PUSH1 0x1 DUP3 AND DUP1 PUSH2 0x21E8 JUMPI PUSH1 0x7F DUP3 AND SWAP2 POP JUMPDEST PUSH1 0x20 DUP3 LT DUP2 EQ ISZERO PUSH2 0x21FC JUMPI PUSH2 0x21FB PUSH2 0x21A1 JUMP JUMPDEST JUMPDEST POP SWAP2 SWAP1 POP JUMP JUMPDEST PUSH32 0x4C50546F6B656E3A20617070726F76616C20746F2063757272656E74206F776E PUSH1 0x0 DUP3 ADD MSTORE PUSH32 0x6572000000000000000000000000000000000000000000000000000000000000 PUSH1 0x20 DUP3 ADD MSTORE POP JUMP JUMPDEST PUSH1 0x0 PUSH2 0x225E PUSH1 0x22 DUP4 PUSH2 0x1CB8 JUMP JUMPDEST SWAP2 POP PUSH2 0x2269 DUP3 PUSH2 0x2202 JUMP JUMPDEST PUSH1 0x40 DUP3 ADD SWAP1 POP SWAP2 SWAP1 POP JUMP JUMPDEST PUSH1 0x0 PUSH1 0x20 DUP3 ADD SWAP1 POP DUP2 DUP2 SUB PUSH1 0x0 DUP4 ADD MSTORE PUSH2 0x228D DUP2 PUSH2 0x2251 JUMP JUMPDEST SWAP1 POP SWAP2 SWAP1 POP JUMP JUMPDEST PUSH32 0x4C50546F6B656E3A20617070726F76652063616C6C6572206973206E6F742074 PUSH1 0x0 DUP3 ADD MSTORE PUSH32 0x6F6B656E206F776E6572206F7220617070726F76656420666F7220616C6C0000 PUSH1 0x20 DUP3 ADD MSTORE POP JUMP JUMPDEST PUSH1 0x0 PUSH2 0x22F0 PUSH1 0x3E DUP4 PUSH2 0x1CB8 JUMP JUMPDEST SWAP2 POP PUSH2 0x22FB DUP3 PUSH2 0x2294 JUMP JUMPDEST PUSH1 0x40 DUP3 ADD SWAP1 POP SWAP2 SWAP1 POP JUMP JUMPDEST PUSH1 0x0 PUSH1 0x20 DUP3 ADD SWAP1 POP DUP2 DUP2 SUB PUSH1 0x0 DUP4 ADD MSTORE PUSH2 0x231F DUP2 PUSH2 0x22E3 JUMP JUMPDEST SWAP1 POP SWAP2 SWAP1 POP JUMP JUMPDEST PUSH32 0x4C50546F6B656E3A2063616C6C6572206973206E6F7420746F6B656E206F776E PUSH1 0x0 DUP3 ADD MSTORE PUSH32 0x6572206F7220617070726F766564000000000000000000000000000000000000 PUSH1 0x20 DUP3 ADD MSTORE POP JUMP JUMPDEST PUSH1 0x0 PUSH2 0x2382 PUSH1 0x2E DUP4 PUSH2 0x1CB8 JUMP JUMPDEST SWAP2 POP PUSH2 0x238D DUP3 PUSH2 0x2326 JUMP JUMPDEST PUSH1 0x40 DUP3 ADD SWAP1 POP SWAP2 SWAP1 POP JUMP JUMPDEST PUSH1 0x0 PUSH1 0x20 DUP3 ADD SWAP1 POP DUP2 DUP2 SUB PUSH1 0x0 DUP4 ADD MSTORE PUSH2 0x23B1 DUP2 PUSH2 0x2375 JUMP JUMPDEST SWAP1 POP SWAP2 SWAP1 POP JUMP JUMPDEST PUSH32 0x4C50546F6B656E3A20696E76616C696420746F6B656E20494400000000000000 PUSH1 0x0 DUP3 ADD MSTORE POP JUMP JUMPDEST PUSH1 0x0 PUSH2 0x23EE PUSH1 0x19 DUP4 PUSH2 0x1CB8 JUMP JUMPDEST SWAP2 POP PUSH2 0x23F9 DUP3 PUSH2 0x23B8 JUMP JUMPDEST PUSH1 0x20 DUP3 ADD SWAP1 POP SWAP2 SWAP1 POP JUMP JUMPDEST PUSH1 0x0 PUSH1 0x20 DUP3 ADD SWAP1 POP DUP2 DUP2 SUB PUSH1 0x0 DUP4 ADD MSTORE PUSH2 0x241D DUP2 PUSH2 0x23E1 JUMP JUMPDEST SWAP1 POP SWAP2 SWAP1 POP JUMP JUMPDEST PUSH32 0x4C50546F6B656E3A2061646472657373207A65726F206973206E6F7420612076 PUSH1 0x0 DUP3 ADD MSTORE PUSH32 0x616C6964206F776E657200000000000000000000000000000000000000000000 PUSH1 0x20 DUP3 ADD MSTORE POP JUMP JUMPDEST PUSH1 0x0 PUSH2 0x2480 PUSH1 0x2A DUP4 PUSH2 0x1CB8 JUMP JUMPDEST SWAP2 POP PUSH2 0x248B DUP3 PUSH2 0x2424 JUMP JUMPDEST PUSH1 0x40 DUP3 ADD SWAP1 POP SWAP2 SWAP1 POP JUMP JUMPDEST PUSH1 0x0 PUSH1 0x20 DUP3 ADD SWAP1 POP DUP2 DUP2 SUB PUSH1 0x0 DUP4 ADD MSTORE PUSH2 0x24AF DUP2 PUSH2 0x2473 JUMP JUMPDEST SWAP1 POP SWAP2 SWAP1 POP JUMP JUMPDEST PUSH1 0x0 DUP2 SWAP1 POP SWAP3 SWAP2 POP POP JUMP JUMPDEST PUSH1 0x0 PUSH2 0x24CC DUP3 PUSH2 0x1CAD JUMP JUMPDEST PUSH2 0x24D6 DUP2 DUP6 PUSH2 0x24B6 JUMP JUMPDEST SWAP4 POP PUSH2 0x24E6 DUP2 DUP6 PUSH1 0x20 DUP7 ADD PUSH2 0x1CC9 JUMP JUMPDEST DUP1 DUP5 ADD SWAP2 POP POP SWAP3 SWAP2 POP POP JUMP JUMPDEST PUSH1 0x0 PUSH2 0x24FE DUP3 DUP6 PUSH2 0x24C1 JUMP JUMPDEST SWAP2 POP PUSH2 0x250A DUP3 DUP5 PUSH2 0x24C1 JUMP JUMPDEST SWAP2 POP DUP2 SWAP1 POP SWAP4 SWAP3 POP POP POP JUMP JUMPDEST PUSH32 0x4C50546F6B656E3A207472616E736665722066726F6D20696E636F7272656374 PUSH1 0x0 DUP3 ADD MSTORE PUSH32 0x206F776E65720000000000000000000000000000000000000000000000000000 PUSH1 0x20 DUP3 ADD MSTORE POP JUMP JUMPDEST PUSH1 0x0 PUSH2 0x2572 PUSH1 0x26 DUP4 PUSH2 0x1CB8 JUMP JUMPDEST SWAP2 POP PUSH2 0x257D DUP3 PUSH2 0x2516 JUMP JUMPDEST PUSH1 0x40 DUP3 ADD SWAP1 POP SWAP2 SWAP1 POP JUMP JUMPDEST PUSH1 0x0 PUSH1 0x20 DUP3 ADD SWAP1 POP DUP2 DUP2 SUB PUSH1 0x0 DUP4 ADD MSTORE PUSH2 0x25A1 DUP2 PUSH2 0x2565 JUMP JUMPDEST SWAP1 POP SWAP2 SWAP1 POP JUMP JUMPDEST PUSH32 0x4C50546F6B656E3A207472616E7366657220746F20746865207A65726F206164 PUSH1 0x0 DUP3 ADD MSTORE PUSH32 0x6472657373000000000000000000000000000000000000000000000000000000 PUSH1 0x20 DUP3 ADD MSTORE POP JUMP JUMPDEST PUSH1 0x0 PUSH2 0x2604 PUSH1 0x25 DUP4 PUSH2 0x1CB8 JUMP JUMPDEST SWAP2 POP PUSH2 0x260F DUP3 PUSH2 0x25A8 JUMP JUMPDEST PUSH1 0x40 DUP3 ADD SWAP1 POP SWAP2 SWAP1 POP JUMP JUMPDEST PUSH1 0x0 PUSH1 0x20 DUP3 ADD SWAP1 POP DUP2 DUP2 SUB PUSH1 0x0 DUP4 ADD MSTORE PUSH2 0x2633 DUP2 PUSH2 0x25F7 JUMP JUMPDEST SWAP1 POP SWAP2 SWAP1 POP JUMP JUMPDEST PUSH32 0x4552433732313A207472616E736665722066726F6D20696E636F727265637420 PUSH1 0x0 DUP3 ADD MSTORE PUSH32 0x6F776E6572000000000000000000000000000000000000000000000000000000 PUSH1 0x20 DUP3 ADD MSTORE POP JUMP JUMPDEST PUSH1 0x0 PUSH2 0x2696 PUSH1 0x25 DUP4 PUSH2 0x1CB8 JUMP JUMPDEST SWAP2 POP PUSH2 0x26A1 DUP3 PUSH2 0x263A JUMP JUMPDEST PUSH1 0x40 DUP3 ADD SWAP1 POP SWAP2 SWAP1 POP JUMP JUMPDEST PUSH1 0x0 PUSH1 0x20 DUP3 ADD SWAP1 POP DUP2 DUP2 SUB PUSH1 0x0 DUP4 ADD MSTORE PUSH2 0x26C5 DUP2 PUSH2 0x2689 JUMP JUMPDEST SWAP1 POP SWAP2 SWAP1 POP JUMP JUMPDEST PUSH32 0x4C50546F6B656E3A20617070726F766520746F2063616C6C6572000000000000 PUSH1 0x0 DUP3 ADD MSTORE POP JUMP JUMPDEST PUSH1 0x0 PUSH2 0x2702 PUSH1 0x1A DUP4 PUSH2 0x1CB8 JUMP JUMPDEST SWAP2 POP PUSH2 0x270D DUP3 PUSH2 0x26CC JUMP JUMPDEST PUSH1 0x20 DUP3 ADD SWAP1 POP SWAP2 SWAP1 POP JUMP JUMPDEST PUSH1 0x0 PUSH1 0x20 DUP3 ADD SWAP1 POP DUP2 DUP2 SUB PUSH1 0x0 DUP4 ADD MSTORE PUSH2 0x2731 DUP2 PUSH2 0x26F5 JUMP JUMPDEST SWAP1 POP SWAP2 SWAP1 POP JUMP JUMPDEST PUSH32 0x4C50546F6B656E3A207472616E7366657220746F206E6F6E2045524337323152 PUSH1 0x0 DUP3 ADD MSTORE PUSH32 0x6563656976657220696D706C656D656E74657200000000000000000000000000 PUSH1 0x20 DUP3 ADD MSTORE POP JUMP JUMPDEST PUSH1 0x0 PUSH2 0x2794 PUSH1 0x33 DUP4 PUSH2 0x1CB8 JUMP JUMPDEST SWAP2 POP PUSH2 0x279F DUP3 PUSH2 0x2738 JUMP JUMPDEST PUSH1 0x40 DUP3 ADD SWAP1 POP SWAP2 SWAP1 POP JUMP JUMPDEST PUSH1 0x0 PUSH1 0x20 DUP3 ADD SWAP1 POP DUP2 DUP2 SUB PUSH1 0x0 DUP4 ADD MSTORE PUSH2 0x27C3 DUP2 PUSH2 0x2787 JUMP JUMPDEST SWAP1 POP SWAP2 SWAP1 POP JUMP JUMPDEST PUSH32 0x4E487B7100000000000000000000000000000000000000000000000000000000 PUSH1 0x0 MSTORE PUSH1 0x12 PUSH1 0x4 MSTORE PUSH1 0x24 PUSH1 0x0 REVERT JUMPDEST PUSH32 0x4E487B7100000000000000000000000000000000000000000000000000000000 PUSH1 0x0 MSTORE PUSH1 0x11 PUSH1 0x4 MSTORE PUSH1 0x24 PUSH1 0x0 REVERT JUMPDEST PUSH1 0x0 PUSH2 0x2833 DUP3 PUSH2 0x1D68 JUMP JUMPDEST SWAP2 POP PUSH2 0x283E DUP4 PUSH2 0x1D68 JUMP JUMPDEST SWAP3 POP DUP3 DUP3 LT ISZERO PUSH2 0x2851 JUMPI PUSH2 0x2850 PUSH2 0x27F9 JUMP JUMPDEST JUMPDEST DUP3 DUP3 SUB SWAP1 POP SWAP3 SWAP2 POP POP JUMP JUMPDEST PUSH1 0x0 PUSH2 0x2867 DUP3 PUSH2 0x1D68 JUMP JUMPDEST SWAP2 POP PUSH2 0x2872 DUP4 PUSH2 0x1D68 JUMP JUMPDEST SWAP3 POP DUP3 PUSH32 0xFFFFFFFFFFFFFFFFFFFFFFFFFFFFFFFFFFFFFFFFFFFFFFFFFFFFFFFFFFFFFFFF SUB DUP3 GT ISZERO PUSH2 0x28A7 JUMPI PUSH2 0x28A6 PUSH2 0x27F9 JUMP JUMPDEST JUMPDEST DUP3 DUP3 ADD SWAP1 POP SWAP3 SWAP2 POP POP JUMP JUMPDEST PUSH1 0x0 DUP2 MLOAD SWAP1 POP SWAP2 SWAP1 POP JUMP JUMPDEST PUSH1 0x0 DUP3 DUP3 MSTORE PUSH1 0x20 DUP3 ADD SWAP1 POP SWAP3 SWAP2 POP POP JUMP JUMPDEST PUSH1 0x0 PUSH2 0x28D9 DUP3 PUSH2 0x28B2 JUMP JUMPDEST PUSH2 0x28E3 DUP2 DUP6 PUSH2 0x28BD JUMP JUMPDEST SWAP4 POP PUSH2 0x28F3 DUP2 DUP6 PUSH1 0x20 DUP7 ADD PUSH2 0x1CC9 JUMP JUMPDEST PUSH2 0x28FC DUP2 PUSH2 0x1CFC JUMP JUMPDEST DUP5 ADD SWAP2 POP POP SWAP3 SWAP2 POP POP JUMP JUMPDEST PUSH1 0x0 PUSH1 0x80 DUP3 ADD SWAP1 POP PUSH2 0x291C PUSH1 0x0 DUP4 ADD DUP8 PUSH2 0x1DFD JUMP JUMPDEST PUSH2 0x2929 PUSH1 0x20 DUP4 ADD DUP7 PUSH2 0x1DFD JUMP JUMPDEST PUSH2 0x2936 PUSH1 0x40 DUP4 ADD DUP6 PUSH2 0x1F13 JUMP JUMPDEST DUP2 DUP2 SUB PUSH1 0x60 DUP4 ADD MSTORE PUSH2 0x2948 DUP2 DUP5 PUSH2 0x28CE JUMP JUMPDEST SWAP1 POP SWAP6 SWAP5 POP POP POP POP POP JUMP JUMPDEST PUSH1 0x0 DUP2 MLOAD SWAP1 POP PUSH2 0x2962 DUP2 PUSH2 0x1C1E JUMP JUMPDEST SWAP3 SWAP2 POP POP JUMP JUMPDEST PUSH1 0x0 PUSH1 0x20 DUP3 DUP5 SUB SLT ISZERO PUSH2 0x297E JUMPI PUSH2 0x297D PUSH2 0x1BE8 JUMP JUMPDEST JUMPDEST PUSH1 0x0 PUSH2 0x298C DUP5 DUP3 DUP6 ADD PUSH2 0x2953 JUMP JUMPDEST SWAP2 POP POP SWAP3 SWAP2 POP POP JUMP JUMPDEST PUSH32 0x4C50546F6B656E3A206D696E7420746F20746865207A65726F20616464726573 PUSH1 0x0 DUP3 ADD MSTORE PUSH32 0x7300000000000000000000000000000000000000000000000000000000000000 PUSH1 0x20 DUP3 ADD MSTORE POP JUMP JUMPDEST PUSH1 0x0 PUSH2 0x29F1 PUSH1 0x21 DUP4 PUSH2 0x1CB8 JUMP JUMPDEST SWAP2 POP PUSH2 0x29FC DUP3 PUSH2 0x2995 JUMP JUMPDEST PUSH1 0x40 DUP3 ADD SWAP1 POP SWAP2 SWAP1 POP JUMP JUMPDEST PUSH1 0x0 PUSH1 0x20 DUP3 ADD SWAP1 POP DUP2 DUP2 SUB PUSH1 0x0 DUP4 ADD MSTORE PUSH2 0x2A20 DUP2 PUSH2 0x29E4 JUMP JUMPDEST SWAP1 POP SWAP2 SWAP1 POP JUMP JUMPDEST PUSH32 0x4C50546F6B656E3A20746F6B656E20616C7265616479206D696E746564000000 PUSH1 0x0 DUP3 ADD MSTORE POP JUMP JUMPDEST PUSH1 0x0 PUSH2 0x2A5D PUSH1 0x1D DUP4 PUSH2 0x1CB8 JUMP JUMPDEST SWAP2 POP PUSH2 0x2A68 DUP3 PUSH2 0x2A27 JUMP JUMPDEST PUSH1 0x20 DUP3 ADD SWAP1 POP SWAP2 SWAP1 POP JUMP JUMPDEST PUSH1 0x0 PUSH1 0x20 DUP3 ADD SWAP1 POP DUP2 DUP2 SUB PUSH1 0x0 DUP4 ADD MSTORE PUSH2 0x2A8C DUP2 PUSH2 0x2A50 JUMP JUMPDEST SWAP1 POP SWAP2 SWAP1 POP JUMP INVALID LOG2 PUSH5 0x6970667358 0x22 SLT KECCAK256 0xC3 LT 0xBF 0xC9 DUP13 0xE4 0xF 0xE4 ORIGIN EXTCODEHASH 0xF9 0x2C 0xB3 0x26 LOG3 0xA6 0x2F CALLVALUE 0xA6 PUSH1 0x92 DIFFICULTY 0x5F SWAP13 CALL BLOCKHASH CALLDATACOPY PUSH27 0x2B5E4F9464736F6C634300080A003360A060405234801562000011 JUMPI PUSH1 0x0 DUP1 REVERT JUMPDEST POP PUSH1 0x40 MLOAD PUSH3 0x5911 CODESIZE SUB DUP1 PUSH3 0x5911 DUP4 CODECOPY DUP2 DUP2 ADD PUSH1 0x40 MSTORE DUP2 ADD SWAP1 PUSH3 0x37 SWAP2 SWAP1 PUSH3 0x343 JUMP JUMPDEST PUSH1 0x0 PUSH20 0xFFFFFFFFFFFFFFFFFFFFFFFFFFFFFFFFFFFFFFFF AND DUP7 PUSH20 0xFFFFFFFFFFFFFFFFFFFFFFFFFFFFFFFFFFFFFFFF AND EQ ISZERO PUSH3 0x9F JUMPI PUSH1 0x40 MLOAD PUSH32 0x17BE04B700000000000000000000000000000000000000000000000000000000 DUP2 MSTORE PUSH1 0x4 ADD PUSH1 0x40 MLOAD DUP1 SWAP2 SUB SWAP1 REVERT JUMPDEST DUP6 PUSH20 0xFFFFFFFFFFFFFFFFFFFFFFFFFFFFFFFFFFFFFFFF AND PUSH1 0x80 DUP2 PUSH20 0xFFFFFFFFFFFFFFFFFFFFFFFFFFFFFFFFFFFFFFFF AND DUP2 MSTORE POP POP DUP5 PUSH1 0x1 PUSH1 0x0 PUSH2 0x100 EXP DUP2 SLOAD DUP2 PUSH20 0xFFFFFFFFFFFFFFFFFFFFFFFFFFFFFFFFFFFFFFFF MUL NOT AND SWAP1 DUP4 PUSH20 0xFFFFFFFFFFFFFFFFFFFFFFFFFFFFFFFFFFFFFFFF AND MUL OR SWAP1 SSTORE POP DUP4 PUSH1 0x2 PUSH1 0x0 PUSH2 0x100 EXP DUP2 SLOAD DUP2 PUSH20 0xFFFFFFFFFFFFFFFFFFFFFFFFFFFFFFFFFFFFFFFF MUL NOT AND SWAP1 DUP4 PUSH20 0xFFFFFFFFFFFFFFFFFFFFFFFFFFFFFFFFFFFFFFFF AND MUL OR SWAP1 SSTORE POP DUP3 PUSH1 0x16 PUSH1 0x0 PUSH2 0x100 EXP DUP2 SLOAD DUP2 PUSH20 0xFFFFFFFFFFFFFFFFFFFFFFFFFFFFFFFFFFFFFFFF MUL NOT AND SWAP1 DUP4 PUSH20 0xFFFFFFFFFFFFFFFFFFFFFFFFFFFFFFFFFFFFFFFF AND MUL OR SWAP1 SSTORE POP DUP2 PUSH1 0x17 DUP2 SWAP1 SSTORE POP PUSH3 0x1AD PUSH3 0x1F9 PUSH1 0x20 SHL PUSH1 0x20 SHR JUMP JUMPDEST DUP1 PUSH16 0xFFFFFFFFFFFFFFFFFFFFFFFFFFFFFFFF AND PUSH1 0x13 DUP2 SWAP1 SSTORE POP PUSH1 0xA DUP2 PUSH3 0x1D5 SWAP2 SWAP1 PUSH3 0x40E JUMP JUMPDEST PUSH16 0xFFFFFFFFFFFFFFFFFFFFFFFFFFFFFFFF AND PUSH1 0x14 DUP2 SWAP1 SSTORE POP POP POP POP POP POP POP PUSH3 0x446 JUMP JUMPDEST PUSH3 0x209 PUSH3 0x20B PUSH1 0x20 SHL PUSH1 0x20 SHR JUMP JUMPDEST JUMP JUMPDEST PUSH1 0x0 DUP1 SLOAD EQ PUSH3 0x247 JUMPI PUSH1 0x40 MLOAD PUSH32 0xD80075C100000000000000000000000000000000000000000000000000000000 DUP2 MSTORE PUSH1 0x4 ADD PUSH1 0x40 MLOAD DUP1 SWAP2 SUB SWAP1 REVERT JUMPDEST PUSH1 0x1 PUSH1 0x0 DUP2 SWAP1 SSTORE POP JUMP JUMPDEST PUSH1 0x0 DUP1 REVERT JUMPDEST PUSH1 0x0 PUSH20 0xFFFFFFFFFFFFFFFFFFFFFFFFFFFFFFFFFFFFFFFF DUP3 AND SWAP1 POP SWAP2 SWAP1 POP JUMP JUMPDEST PUSH1 0x0 PUSH3 0x283 DUP3 PUSH3 0x256 JUMP JUMPDEST SWAP1 POP SWAP2 SWAP1 POP JUMP JUMPDEST PUSH3 0x295 DUP2 PUSH3 0x276 JUMP JUMPDEST DUP2 EQ PUSH3 0x2A1 JUMPI PUSH1 0x0 DUP1 REVERT JUMPDEST POP JUMP JUMPDEST PUSH1 0x0 DUP2 MLOAD SWAP1 POP PUSH3 0x2B5 DUP2 PUSH3 0x28A JUMP JUMPDEST SWAP3 SWAP2 POP POP JUMP JUMPDEST PUSH1 0x0 DUP2 SWAP1 POP SWAP2 SWAP1 POP JUMP JUMPDEST PUSH3 0x2D0 DUP2 PUSH3 0x2BB JUMP JUMPDEST DUP2 EQ PUSH3 0x2DC JUMPI PUSH1 0x0 DUP1 REVERT JUMPDEST POP JUMP JUMPDEST PUSH1 0x0 DUP2 MLOAD SWAP1 POP PUSH3 0x2F0 DUP2 PUSH3 0x2C5 JUMP JUMPDEST SWAP3 SWAP2 POP POP JUMP JUMPDEST PUSH1 0x0 PUSH16 0xFFFFFFFFFFFFFFFFFFFFFFFFFFFFFFFF DUP3 AND SWAP1 POP SWAP2 SWAP1 POP JUMP JUMPDEST PUSH3 0x31D DUP2 PUSH3 0x2F6 JUMP JUMPDEST DUP2 EQ PUSH3 0x329 JUMPI PUSH1 0x0 DUP1 REVERT JUMPDEST POP JUMP JUMPDEST PUSH1 0x0 DUP2 MLOAD SWAP1 POP PUSH3 0x33D DUP2 PUSH3 0x312 JUMP JUMPDEST SWAP3 SWAP2 POP POP JUMP JUMPDEST PUSH1 0x0 DUP1 PUSH1 0x0 DUP1 PUSH1 0x0 DUP1 PUSH1 0xC0 DUP8 DUP10 SUB SLT ISZERO PUSH3 0x363 JUMPI PUSH3 0x362 PUSH3 0x251 JUMP JUMPDEST JUMPDEST PUSH1 0x0 PUSH3 0x373 DUP10 DUP3 DUP11 ADD PUSH3 0x2A4 JUMP JUMPDEST SWAP7 POP POP PUSH1 0x20 PUSH3 0x386 DUP10 DUP3 DUP11 ADD PUSH3 0x2A4 JUMP JUMPDEST SWAP6 POP POP PUSH1 0x40 PUSH3 0x399 DUP10 DUP3 DUP11 ADD PUSH3 0x2A4 JUMP JUMPDEST SWAP5 POP POP PUSH1 0x60 PUSH3 0x3AC DUP10 DUP3 DUP11 ADD PUSH3 0x2A4 JUMP JUMPDEST SWAP4 POP POP PUSH1 0x80 PUSH3 0x3BF DUP10 DUP3 DUP11 ADD PUSH3 0x2DF JUMP JUMPDEST SWAP3 POP POP PUSH1 0xA0 PUSH3 0x3D2 DUP10 DUP3 DUP11 ADD PUSH3 0x32C JUMP JUMPDEST SWAP2 POP POP SWAP3 SWAP6 POP SWAP3 SWAP6 POP SWAP3 SWAP6 JUMP JUMPDEST PUSH32 0x4E487B7100000000000000000000000000000000000000000000000000000000 PUSH1 0x0 MSTORE PUSH1 0x12 PUSH1 0x4 MSTORE PUSH1 0x24 PUSH1 0x0 REVERT JUMPDEST PUSH1 0x0 PUSH3 0x41B DUP3 PUSH3 0x2F6 JUMP JUMPDEST SWAP2 POP PUSH3 0x428 DUP4 PUSH3 0x2F6 JUMP JUMPDEST SWAP3 POP DUP3 PUSH3 0x43B JUMPI PUSH3 0x43A PUSH3 0x3DF JUMP JUMPDEST JUMPDEST DUP3 DUP3 DIV SWAP1 POP SWAP3 SWAP2 POP POP JUMP JUMPDEST PUSH1 0x80 MLOAD PUSH2 0x54A8 PUSH3 0x469 PUSH1 0x0 CODECOPY PUSH1 0x0 DUP2 DUP2 PUSH2 0xDFF ADD MSTORE PUSH2 0x1546 ADD MSTORE PUSH2 0x54A8 PUSH1 0x0 RETURN INVALID PUSH1 0x80 PUSH1 0x40 MSTORE CALLVALUE DUP1 ISZERO PUSH2 0x10 JUMPI PUSH1 0x0 DUP1 REVERT JUMPDEST POP PUSH1 0x4 CALLDATASIZE LT PUSH2 0x121 JUMPI PUSH1 0x0 CALLDATALOAD PUSH1 0xE0 SHR DUP1 PUSH4 0xB7D19FC4 GT PUSH2 0xAD JUMPI DUP1 PUSH4 0xD3F790D1 GT PUSH2 0x71 JUMPI DUP1 PUSH4 0xD3F790D1 EQ PUSH2 0x32A JUMPI DUP1 PUSH4 0xF23A6E61 EQ PUSH2 0x35A JUMPI DUP1 PUSH4 0xFCD3533C EQ PUSH2 0x38A JUMPI DUP1 PUSH4 0xFCEE45F4 EQ PUSH2 0x3BB JUMPI DUP1 PUSH4 0xFD31C4AB EQ PUSH2 0x3EB JUMPI PUSH2 0x121 JUMP JUMPDEST DUP1 PUSH4 0xB7D19FC4 EQ PUSH2 0x271 JUMPI DUP1 PUSH4 0xBA79B564 EQ PUSH2 0x28F JUMPI DUP1 PUSH4 0xBC197C81 EQ PUSH2 0x2AB JUMPI DUP1 PUSH4 0xC45A0155 EQ PUSH2 0x2DB JUMPI DUP1 PUSH4 0xC6DEAB32 EQ PUSH2 0x2F9 JUMPI PUSH2 0x121 JUMP JUMPDEST DUP1 PUSH4 0x5FCBD285 GT PUSH2 0xF4 JUMPI DUP1 PUSH4 0x5FCBD285 EQ PUSH2 0x1C6 JUMPI DUP1 PUSH4 0x720B9BBF EQ PUSH2 0x1E4 JUMPI DUP1 PUSH4 0x98C7ADF3 EQ PUSH2 0x215 JUMPI DUP1 PUSH4 0xA1AF5B9A EQ PUSH2 0x234 JUMPI DUP1 PUSH4 0xA582CDAA EQ PUSH2 0x252 JUMPI PUSH2 0x121 JUMP JUMPDEST DUP1 PUSH4 0x1FFC9A7 EQ PUSH2 0x126 JUMPI DUP1 PUSH4 0xABE9688 EQ PUSH2 0x156 JUMPI DUP1 PUSH4 0x16DC165B EQ PUSH2 0x187 JUMPI DUP1 PUSH4 0x1B05B83E EQ PUSH2 0x1A5 JUMPI JUMPDEST PUSH1 0x0 DUP1 REVERT JUMPDEST PUSH2 0x140 PUSH1 0x4 DUP1 CALLDATASIZE SUB DUP2 ADD SWAP1 PUSH2 0x13B SWAP2 SWAP1 PUSH2 0x4634 JUMP JUMPDEST PUSH2 0x41B JUMP JUMPDEST PUSH1 0x40 MLOAD PUSH2 0x14D SWAP2 SWAP1 PUSH2 0x467C JUMP JUMPDEST PUSH1 0x40 MLOAD DUP1 SWAP2 SUB SWAP1 RETURN JUMPDEST PUSH2 0x170 PUSH1 0x4 DUP1 CALLDATASIZE SUB DUP2 ADD SWAP1 PUSH2 0x16B SWAP2 SWAP1 PUSH2 0x46D2 JUMP JUMPDEST PUSH2 0x495 JUMP JUMPDEST PUSH1 0x40 MLOAD PUSH2 0x17E SWAP3 SWAP2 SWAP1 PUSH2 0x4718 JUMP JUMPDEST PUSH1 0x40 MLOAD DUP1 SWAP2 SUB SWAP1 RETURN JUMPDEST PUSH2 0x18F PUSH2 0x4FB JUMP JUMPDEST PUSH1 0x40 MLOAD PUSH2 0x19C SWAP2 SWAP1 PUSH2 0x47C0 JUMP JUMPDEST PUSH1 0x40 MLOAD DUP1 SWAP2 SUB SWAP1 RETURN JUMPDEST PUSH2 0x1AD PUSH2 0x521 JUMP JUMPDEST PUSH1 0x40 MLOAD PUSH2 0x1BD SWAP5 SWAP4 SWAP3 SWAP2 SWAP1 PUSH2 0x47DB JUMP JUMPDEST PUSH1 0x40 MLOAD DUP1 SWAP2 SUB SWAP1 RETURN JUMPDEST PUSH2 0x1CE PUSH2 0x5D5 JUMP JUMPDEST PUSH1 0x40 MLOAD PUSH2 0x1DB SWAP2 SWAP1 PUSH2 0x4841 JUMP JUMPDEST PUSH1 0x40 MLOAD DUP1 SWAP2 SUB SWAP1 RETURN JUMPDEST PUSH2 0x1FE PUSH1 0x4 DUP1 CALLDATASIZE SUB DUP2 ADD SWAP1 PUSH2 0x1F9 SWAP2 SWAP1 PUSH2 0x4955 JUMP JUMPDEST PUSH2 0x5FB JUMP JUMPDEST PUSH1 0x40 MLOAD PUSH2 0x20C SWAP3 SWAP2 SWAP1 PUSH2 0x4718 JUMP JUMPDEST PUSH1 0x40 MLOAD DUP1 SWAP2 SUB SWAP1 RETURN JUMPDEST PUSH2 0x21D PUSH2 0xDA4 JUMP JUMPDEST PUSH1 0x40 MLOAD PUSH2 0x22B SWAP3 SWAP2 SWAP1 PUSH2 0x4718 JUMP JUMPDEST PUSH1 0x40 MLOAD DUP1 SWAP2 SUB SWAP1 RETURN JUMPDEST PUSH2 0x23C PUSH2 0xDB5 JUMP JUMPDEST PUSH1 0x40 MLOAD PUSH2 0x249 SWAP2 SWAP1 PUSH2 0x49EA JUMP JUMPDEST PUSH1 0x40 MLOAD DUP1 SWAP2 SUB SWAP1 RETURN JUMPDEST PUSH2 0x25A PUSH2 0xF9F JUMP JUMPDEST PUSH1 0x40 MLOAD PUSH2 0x268 SWAP3 SWAP2 SWAP1 PUSH2 0x4718 JUMP JUMPDEST PUSH1 0x40 MLOAD DUP1 SWAP2 SUB SWAP1 RETURN JUMPDEST PUSH2 0x279 PUSH2 0xFB5 JUMP JUMPDEST PUSH1 0x40 MLOAD PUSH2 0x286 SWAP2 SWAP1 PUSH2 0x4A26 JUMP JUMPDEST PUSH1 0x40 MLOAD DUP1 SWAP2 SUB SWAP1 RETURN JUMPDEST PUSH2 0x2A9 PUSH1 0x4 DUP1 CALLDATASIZE SUB DUP2 ADD SWAP1 PUSH2 0x2A4 SWAP2 SWAP1 PUSH2 0x4A41 JUMP JUMPDEST PUSH2 0xFDB JUMP JUMPDEST STOP JUMPDEST PUSH2 0x2C5 PUSH1 0x4 DUP1 CALLDATASIZE SUB DUP2 ADD SWAP1 PUSH2 0x2C0 SWAP2 SWAP1 PUSH2 0x4C9E JUMP JUMPDEST PUSH2 0x152F JUMP JUMPDEST PUSH1 0x40 MLOAD PUSH2 0x2D2 SWAP2 SWAP1 PUSH2 0x4D7C JUMP JUMPDEST PUSH1 0x40 MLOAD DUP1 SWAP2 SUB SWAP1 RETURN JUMPDEST PUSH2 0x2E3 PUSH2 0x1544 JUMP JUMPDEST PUSH1 0x40 MLOAD PUSH2 0x2F0 SWAP2 SWAP1 PUSH2 0x4DB8 JUMP JUMPDEST PUSH1 0x40 MLOAD DUP1 SWAP2 SUB SWAP1 RETURN JUMPDEST PUSH2 0x313 PUSH1 0x4 DUP1 CALLDATASIZE SUB DUP2 ADD SWAP1 PUSH2 0x30E SWAP2 SWAP1 PUSH2 0x4955 JUMP JUMPDEST PUSH2 0x1568 JUMP JUMPDEST PUSH1 0x40 MLOAD PUSH2 0x321 SWAP3 SWAP2 SWAP1 PUSH2 0x4718 JUMP JUMPDEST PUSH1 0x40 MLOAD DUP1 SWAP2 SUB SWAP1 RETURN JUMPDEST PUSH2 0x344 PUSH1 0x4 DUP1 CALLDATASIZE SUB DUP2 ADD SWAP1 PUSH2 0x33F SWAP2 SWAP1 PUSH2 0x4A41 JUMP JUMPDEST PUSH2 0x1C7B JUMP JUMPDEST PUSH1 0x40 MLOAD PUSH2 0x351 SWAP2 SWAP1 PUSH2 0x49EA JUMP JUMPDEST PUSH1 0x40 MLOAD DUP1 SWAP2 SUB SWAP1 RETURN JUMPDEST PUSH2 0x374 PUSH1 0x4 DUP1 CALLDATASIZE SUB DUP2 ADD SWAP1 PUSH2 0x36F SWAP2 SWAP1 PUSH2 0x4DD3 JUMP JUMPDEST PUSH2 0x21D3 JUMP JUMPDEST PUSH1 0x40 MLOAD PUSH2 0x381 SWAP2 SWAP1 PUSH2 0x4D7C JUMP JUMPDEST PUSH1 0x40 MLOAD DUP1 SWAP2 SUB SWAP1 RETURN JUMPDEST PUSH2 0x3A4 PUSH1 0x4 DUP1 CALLDATASIZE SUB DUP2 ADD SWAP1 PUSH2 0x39F SWAP2 SWAP1 PUSH2 0x4E6A JUMP JUMPDEST PUSH2 0x21E8 JUMP JUMPDEST PUSH1 0x40 MLOAD PUSH2 0x3B2 SWAP3 SWAP2 SWAP1 PUSH2 0x4718 JUMP JUMPDEST PUSH1 0x40 MLOAD DUP1 SWAP2 SUB SWAP1 RETURN JUMPDEST PUSH2 0x3D5 PUSH1 0x4 DUP1 CALLDATASIZE SUB DUP2 ADD SWAP1 PUSH2 0x3D0 SWAP2 SWAP1 PUSH2 0x4EAA JUMP JUMPDEST PUSH2 0x2C66 JUMP JUMPDEST PUSH1 0x40 MLOAD PUSH2 0x3E2 SWAP2 SWAP1 PUSH2 0x49EA JUMP JUMPDEST PUSH1 0x40 MLOAD DUP1 SWAP2 SUB SWAP1 RETURN JUMPDEST PUSH2 0x405 PUSH1 0x4 DUP1 CALLDATASIZE SUB DUP2 ADD SWAP1 PUSH2 0x400 SWAP2 SWAP1 PUSH2 0x46D2 JUMP JUMPDEST PUSH2 0x2C83 JUMP JUMPDEST PUSH1 0x40 MLOAD PUSH2 0x412 SWAP2 SWAP1 PUSH2 0x49EA JUMP JUMPDEST PUSH1 0x40 MLOAD DUP1 SWAP2 SUB SWAP1 RETURN JUMPDEST PUSH1 0x0 PUSH32 0x4E2312E000000000000000000000000000000000000000000000000000000000 PUSH28 0xFFFFFFFFFFFFFFFFFFFFFFFFFFFFFFFFFFFFFFFFFFFFFFFFFFFFFFFF NOT AND DUP3 PUSH28 0xFFFFFFFFFFFFFFFFFFFFFFFFFFFFFFFFFFFFFFFFFFFFFFFFFFFFFFFF NOT AND EQ DUP1 PUSH2 0x48E JUMPI POP PUSH2 0x48D DUP3 PUSH2 0x2C95 JUMP JUMPDEST JUMPDEST SWAP1 POP SWAP2 SWAP1 POP JUMP JUMPDEST PUSH1 0x0 DUP1 PUSH1 0x7 PUSH1 0x0 DUP5 PUSH3 0xFFFFFF AND DUP2 MSTORE PUSH1 0x20 ADD SWAP1 DUP2 MSTORE PUSH1 0x20 ADD PUSH1 0x0 KECCAK256 PUSH1 0x0 PUSH1 0x2 DUP2 LT PUSH2 0x4C3 JUMPI PUSH2 0x4C2 PUSH2 0x4ED7 JUMP JUMPDEST JUMPDEST ADD SLOAD PUSH1 0x7 PUSH1 0x0 DUP6 PUSH3 0xFFFFFF AND DUP2 MSTORE PUSH1 0x20 ADD SWAP1 DUP2 MSTORE PUSH1 0x20 ADD PUSH1 0x0 KECCAK256 PUSH1 0x1 PUSH1 0x2 DUP2 LT PUSH2 0x4F0 JUMPI PUSH2 0x4EF PUSH2 0x4ED7 JUMP JUMPDEST JUMPDEST ADD SLOAD SWAP2 POP SWAP2 POP SWAP2 POP SWAP2 JUMP JUMPDEST PUSH1 0x1 PUSH1 0x0 SWAP1 SLOAD SWAP1 PUSH2 0x100 EXP SWAP1 DIV PUSH20 0xFFFFFFFFFFFFFFFFFFFFFFFFFFFFFFFFFFFFFFFF AND DUP2 JUMP JUMPDEST PUSH1 0x0 DUP1 PUSH1 0x0 DUP1 PUSH1 0x3 PUSH1 0x0 ADD PUSH1 0x6 SWAP1 SLOAD SWAP1 PUSH2 0x100 EXP SWAP1 DIV PUSH17 0xFFFFFFFFFFFFFFFFFFFFFFFFFFFFFFFFFF AND PUSH17 0xFFFFFFFFFFFFFFFFFFFFFFFFFFFFFFFFFF AND SWAP4 POP PUSH1 0x3 PUSH1 0x1 ADD PUSH1 0x0 SWAP1 SLOAD SWAP1 PUSH2 0x100 EXP SWAP1 DIV PUSH17 0xFFFFFFFFFFFFFFFFFFFFFFFFFFFFFFFFFF AND PUSH17 0xFFFFFFFFFFFFFFFFFFFFFFFFFFFFFFFFFF AND SWAP3 POP PUSH1 0x3 PUSH1 0x0 ADD PUSH1 0x0 SWAP1 SLOAD SWAP1 PUSH2 0x100 EXP SWAP1 DIV PUSH3 0xFFFFFF AND PUSH3 0xFFFFFF AND SWAP2 POP PUSH1 0x3 PUSH1 0x0 ADD PUSH1 0x3 SWAP1 SLOAD SWAP1 PUSH2 0x100 EXP SWAP1 DIV PUSH3 0xFFFFFF AND PUSH3 0xFFFFFF AND SWAP1 POP SWAP1 SWAP2 SWAP3 SWAP4 JUMP JUMPDEST PUSH1 0x16 PUSH1 0x0 SWAP1 SLOAD SWAP1 PUSH2 0x100 EXP SWAP1 DIV PUSH20 0xFFFFFFFFFFFFFFFFFFFFFFFFFFFFFFFFFFFFFFFF AND DUP2 JUMP JUMPDEST PUSH1 0x0 DUP1 PUSH1 0x1 PUSH1 0x0 SLOAD EQ PUSH2 0x63A JUMPI PUSH1 0x40 MLOAD PUSH32 0x802D9BF100000000000000000000000000000000000000000000000000000000 DUP2 MSTORE PUSH1 0x4 ADD PUSH1 0x40 MLOAD DUP1 SWAP2 SUB SWAP1 REVERT JUMPDEST PUSH1 0x2 PUSH1 0x0 DUP2 SWAP1 SSTORE POP PUSH1 0x0 DUP8 DUP8 SWAP1 POP EQ DUP1 PUSH2 0x65A JUMPI POP DUP5 DUP5 SWAP1 POP DUP8 DUP8 SWAP1 POP EQ ISZERO JUMPDEST ISZERO PUSH2 0x691 JUMPI PUSH1 0x40 MLOAD PUSH32 0x6FED5FF00000000000000000000000000000000000000000000000000000000 DUP2 MSTORE PUSH1 0x4 ADD PUSH1 0x40 MLOAD DUP1 SWAP2 SUB SWAP1 REVERT JUMPDEST PUSH1 0x0 PUSH1 0x3 PUSH1 0x40 MLOAD DUP1 PUSH1 0xC0 ADD PUSH1 0x40 MSTORE SWAP1 DUP2 PUSH1 0x0 DUP3 ADD PUSH1 0x0 SWAP1 SLOAD SWAP1 PUSH2 0x100 EXP SWAP1 DIV PUSH3 0xFFFFFF AND PUSH3 0xFFFFFF AND PUSH3 0xFFFFFF AND DUP2 MSTORE PUSH1 0x20 ADD PUSH1 0x0 DUP3 ADD PUSH1 0x3 SWAP1 SLOAD SWAP1 PUSH2 0x100 EXP SWAP1 DIV PUSH3 0xFFFFFF AND PUSH3 0xFFFFFF AND PUSH3 0xFFFFFF AND DUP2 MSTORE PUSH1 0x20 ADD PUSH1 0x0 DUP3 ADD PUSH1 0x6 SWAP1 SLOAD SWAP1 PUSH2 0x100 EXP SWAP1 DIV PUSH17 0xFFFFFFFFFFFFFFFFFFFFFFFFFFFFFFFFFF AND PUSH17 0xFFFFFFFFFFFFFFFFFFFFFFFFFFFFFFFFFF AND PUSH17 0xFFFFFFFFFFFFFFFFFFFFFFFFFFFFFFFFFF AND DUP2 MSTORE PUSH1 0x20 ADD PUSH1 0x1 DUP3 ADD PUSH1 0x0 SWAP1 SLOAD SWAP1 PUSH2 0x100 EXP SWAP1 DIV PUSH17 0xFFFFFFFFFFFFFFFFFFFFFFFFFFFFFFFFFF AND PUSH17 0xFFFFFFFFFFFFFFFFFFFFFFFFFFFFFFFFFF AND PUSH17 0xFFFFFFFFFFFFFFFFFFFFFFFFFFFFFFFFFF AND DUP2 MSTORE PUSH1 0x20 ADD PUSH1 0x2 DUP3 ADD SLOAD DUP2 MSTORE PUSH1 0x20 ADD PUSH1 0x3 DUP3 ADD SLOAD DUP2 MSTORE POP POP SWAP1 POP PUSH1 0x0 DUP1 PUSH1 0x1 PUSH1 0x15 PUSH1 0x0 DUP3 DUP3 SLOAD PUSH2 0x7AC SWAP2 SWAP1 PUSH2 0x4F35 JUMP JUMPDEST SWAP3 POP POP DUP2 SWAP1 SSTORE POP PUSH1 0x0 PUSH1 0x15 SLOAD SWAP1 POP PUSH1 0x16 PUSH1 0x0 SWAP1 SLOAD SWAP1 PUSH2 0x100 EXP SWAP1 DIV PUSH20 0xFFFFFFFFFFFFFFFFFFFFFFFFFFFFFFFFFFFFFFFF AND PUSH20 0xFFFFFFFFFFFFFFFFFFFFFFFFFFFFFFFFFFFFFFFF AND PUSH4 0x40C10F19 DUP9 DUP4 PUSH1 0x40 MLOAD DUP4 PUSH4 0xFFFFFFFF AND PUSH1 0xE0 SHL DUP2 MSTORE PUSH1 0x4 ADD PUSH2 0x817 SWAP3 SWAP2 SWAP1 PUSH2 0x4F9A JUMP JUMPDEST PUSH1 0x0 PUSH1 0x40 MLOAD DUP1 DUP4 SUB DUP2 PUSH1 0x0 DUP8 DUP1 EXTCODESIZE ISZERO DUP1 ISZERO PUSH2 0x831 JUMPI PUSH1 0x0 DUP1 REVERT JUMPDEST POP GAS CALL ISZERO DUP1 ISZERO PUSH2 0x845 JUMPI RETURNDATASIZE PUSH1 0x0 DUP1 RETURNDATACOPY RETURNDATASIZE PUSH1 0x0 REVERT JUMPDEST POP POP POP POP PUSH2 0x8B1 DUP5 PUSH1 0x60 ADD MLOAD PUSH17 0xFFFFFFFFFFFFFFFFFFFFFFFFFFFFFFFFFF AND DUP6 PUSH1 0x80 ADD MLOAD PUSH1 0x2 PUSH1 0x0 SWAP1 SLOAD SWAP1 PUSH2 0x100 EXP SWAP1 DIV PUSH20 0xFFFFFFFFFFFFFFFFFFFFFFFFFFFFFFFFFFFFFFFF AND PUSH20 0xFFFFFFFFFFFFFFFFFFFFFFFFFFFFFFFFFFFFFFFF AND PUSH2 0x2CFF SWAP1 SWAP3 SWAP2 SWAP1 PUSH4 0xFFFFFFFF AND JUMP JUMPDEST SWAP3 POP DUP4 PUSH1 0x20 ADD MLOAD PUSH3 0xFFFFFF AND DUP12 DUP12 PUSH1 0x1 DUP15 DUP15 SWAP1 POP PUSH2 0x8CF SWAP2 SWAP1 PUSH2 0x4FC3 JUMP JUMPDEST DUP2 DUP2 LT PUSH2 0x8DF JUMPI PUSH2 0x8DE PUSH2 0x4ED7 JUMP JUMPDEST JUMPDEST SWAP1 POP PUSH1 0x20 MUL ADD PUSH1 0x20 DUP2 ADD SWAP1 PUSH2 0x8F4 SWAP2 SWAP1 PUSH2 0x46D2 JUMP JUMPDEST PUSH3 0xFFFFFF AND GT DUP1 ISZERO PUSH2 0x910 JUMPI POP PUSH1 0x0 DUP5 PUSH1 0x20 ADD MLOAD PUSH3 0xFFFFFF AND EQ ISZERO JUMPDEST ISZERO PUSH2 0x988 JUMPI DUP11 DUP11 PUSH1 0x1 DUP14 DUP14 SWAP1 POP PUSH2 0x927 SWAP2 SWAP1 PUSH2 0x4FC3 JUMP JUMPDEST DUP2 DUP2 LT PUSH2 0x937 JUMPI PUSH2 0x936 PUSH2 0x4ED7 JUMP JUMPDEST JUMPDEST SWAP1 POP PUSH1 0x20 MUL ADD PUSH1 0x20 DUP2 ADD SWAP1 PUSH2 0x94C SWAP2 SWAP1 PUSH2 0x46D2 JUMP JUMPDEST PUSH1 0x40 MLOAD PUSH32 0xB42CD28700000000000000000000000000000000000000000000000000000000 DUP2 MSTORE PUSH1 0x4 ADD PUSH2 0x97F SWAP2 SWAP1 PUSH2 0x5028 JUMP JUMPDEST PUSH1 0x40 MLOAD DUP1 SWAP2 SUB SWAP1 REVERT JUMPDEST PUSH1 0x0 DUP1 PUSH1 0x0 JUMPDEST DUP14 DUP14 SWAP1 POP DUP2 LT ISZERO PUSH2 0xC05 JUMPI DUP14 DUP14 DUP3 DUP2 DUP2 LT PUSH2 0x9AC JUMPI PUSH2 0x9AB PUSH2 0x4ED7 JUMP JUMPDEST JUMPDEST SWAP1 POP PUSH1 0x20 MUL ADD PUSH1 0x20 DUP2 ADD SWAP1 PUSH2 0x9C1 SWAP2 SWAP1 PUSH2 0x46D2 JUMP JUMPDEST SWAP3 POP DUP12 DUP12 DUP3 DUP2 DUP2 LT PUSH2 0x9D6 JUMPI PUSH2 0x9D5 PUSH2 0x4ED7 JUMP JUMPDEST JUMPDEST SWAP1 POP PUSH1 0x20 MUL ADD CALLDATALOAD SWAP2 POP PUSH1 0x0 PUSH2 0x9EA DUP5 PUSH2 0x2D96 JUMP JUMPDEST SWAP1 POP PUSH1 0x0 PUSH1 0x7 PUSH1 0x0 DUP7 PUSH3 0xFFFFFF AND DUP2 MSTORE PUSH1 0x20 ADD SWAP1 DUP2 MSTORE PUSH1 0x20 ADD PUSH1 0x0 KECCAK256 PUSH1 0x2 DUP1 PUSH1 0x20 MUL PUSH1 0x40 MLOAD SWAP1 DUP2 ADD PUSH1 0x40 MSTORE DUP1 SWAP3 SWAP2 SWAP1 DUP3 PUSH1 0x2 DUP1 ISZERO PUSH2 0xA3D JUMPI PUSH1 0x20 MUL DUP3 ADD SWAP2 JUMPDEST DUP2 SLOAD DUP2 MSTORE PUSH1 0x20 ADD SWAP1 PUSH1 0x1 ADD SWAP1 DUP1 DUP4 GT PUSH2 0xA29 JUMPI JUMPDEST POP POP POP POP POP SWAP1 POP PUSH1 0x0 DUP3 DUP6 PUSH2 0xA52 SWAP2 SWAP1 PUSH2 0x5072 JUMP JUMPDEST EQ PUSH2 0xA5C JUMPI PUSH1 0x0 DUP1 REVERT JUMPDEST PUSH2 0xA65 DUP6 PUSH2 0x2DCD JUMP JUMPDEST PUSH1 0x0 DUP2 PUSH1 0x0 PUSH1 0x2 DUP2 LT PUSH2 0xA7B JUMPI PUSH2 0xA7A PUSH2 0x4ED7 JUMP JUMPDEST JUMPDEST PUSH1 0x20 MUL ADD MLOAD EQ DUP1 ISZERO PUSH2 0xAA5 JUMPI POP PUSH1 0x0 DUP2 PUSH1 0x1 PUSH1 0x2 DUP2 LT PUSH2 0xA9E JUMPI PUSH2 0xA9D PUSH2 0x4ED7 JUMP JUMPDEST JUMPDEST PUSH1 0x20 MUL ADD MLOAD EQ JUMPDEST ISZERO PUSH2 0xAC4 JUMPI PUSH2 0xAC3 DUP6 PUSH3 0xFFFFFF AND PUSH1 0x8 PUSH2 0x3015 SWAP1 SWAP2 SWAP1 PUSH4 0xFFFFFFFF AND JUMP JUMPDEST JUMPDEST DUP4 PUSH14 0xFFFFFFFFFFFFFFFFFFFFFFFFFFFF AND DUP2 PUSH1 0x1 PUSH1 0x2 DUP2 LT PUSH2 0xAE9 JUMPI PUSH2 0xAE8 PUSH2 0x4ED7 JUMP JUMPDEST JUMPDEST PUSH1 0x20 MUL ADD DUP2 DUP2 MLOAD PUSH2 0xAFA SWAP2 SWAP1 PUSH2 0x4F35 JUMP JUMPDEST SWAP2 POP DUP2 DUP2 MSTORE POP POP DUP4 PUSH14 0xFFFFFFFFFFFFFFFFFFFFFFFFFFFF AND DUP10 PUSH1 0x60 ADD DUP2 DUP2 MLOAD ADD SWAP2 POP SWAP1 PUSH17 0xFFFFFFFFFFFFFFFFFFFFFFFFFFFFFFFFFF AND SWAP1 DUP2 PUSH17 0xFFFFFFFFFFFFFFFFFFFFFFFFFFFFFFFFFF AND DUP2 MSTORE POP POP DUP4 DUP8 ADD SWAP7 POP PUSH1 0x11 PUSH1 0x0 DUP7 PUSH3 0xFFFFFF AND PUSH3 0xFFFFFF AND DUP2 MSTORE PUSH1 0x20 ADD SWAP1 DUP2 MSTORE PUSH1 0x20 ADD PUSH1 0x0 KECCAK256 DUP7 SWAP1 DUP1 PUSH1 0x1 DUP2 SLOAD ADD DUP1 DUP3 SSTORE DUP1 SWAP2 POP POP PUSH1 0x1 SWAP1 SUB SWAP1 PUSH1 0x0 MSTORE PUSH1 0x20 PUSH1 0x0 KECCAK256 ADD PUSH1 0x0 SWAP1 SWAP2 SWAP1 SWAP2 SWAP1 SWAP2 POP SSTORE DUP2 DUP5 PUSH2 0xB9E SWAP2 SWAP1 PUSH2 0x50A3 JUMP JUMPDEST PUSH1 0xF PUSH1 0x0 DUP9 DUP2 MSTORE PUSH1 0x20 ADD SWAP1 DUP2 MSTORE PUSH1 0x20 ADD PUSH1 0x0 KECCAK256 PUSH1 0x0 DUP8 PUSH3 0xFFFFFF AND PUSH3 0xFFFFFF AND DUP2 MSTORE PUSH1 0x20 ADD SWAP1 DUP2 MSTORE PUSH1 0x20 ADD PUSH1 0x0 KECCAK256 DUP2 SWAP1 SSTORE POP DUP1 PUSH1 0x7 PUSH1 0x0 DUP8 PUSH3 0xFFFFFF AND DUP2 MSTORE PUSH1 0x20 ADD SWAP1 DUP2 MSTORE PUSH1 0x20 ADD PUSH1 0x0 KECCAK256 SWAP1 PUSH1 0x2 PUSH2 0xBF7 SWAP3 SWAP2 SWAP1 PUSH2 0x4444 JUMP JUMPDEST POP DUP3 PUSH1 0x1 ADD SWAP3 POP POP POP PUSH2 0x98E JUMP JUMPDEST POP DUP13 DUP13 PUSH1 0x10 PUSH1 0x0 DUP7 DUP2 MSTORE PUSH1 0x20 ADD SWAP1 DUP2 MSTORE PUSH1 0x20 ADD PUSH1 0x0 KECCAK256 SWAP2 SWAP1 PUSH2 0xC28 SWAP3 SWAP2 SWAP1 PUSH2 0x4484 JUMP JUMPDEST POP DUP5 DUP5 GT ISZERO PUSH2 0xC63 JUMPI PUSH1 0x40 MLOAD PUSH32 0xEEE8FF2700000000000000000000000000000000000000000000000000000000 DUP2 MSTORE PUSH1 0x4 ADD PUSH1 0x40 MLOAD DUP1 SWAP2 SUB SWAP1 REVERT JUMPDEST PUSH2 0xC7A PUSH1 0xB DUP8 PUSH1 0x8 PUSH2 0x30DB SWAP1 SWAP3 SWAP2 SWAP1 PUSH4 0xFFFFFFFF AND JUMP JUMPDEST DUP8 PUSH1 0x0 ADD DUP9 PUSH1 0x20 ADD DUP3 PUSH3 0xFFFFFF AND PUSH3 0xFFFFFF AND DUP2 MSTORE POP DUP3 PUSH3 0xFFFFFF AND PUSH3 0xFFFFFF AND DUP2 MSTORE POP POP POP DUP6 PUSH1 0x3 PUSH1 0x0 DUP3 ADD MLOAD DUP2 PUSH1 0x0 ADD PUSH1 0x0 PUSH2 0x100 EXP DUP2 SLOAD DUP2 PUSH3 0xFFFFFF MUL NOT AND SWAP1 DUP4 PUSH3 0xFFFFFF AND MUL OR SWAP1 SSTORE POP PUSH1 0x20 DUP3 ADD MLOAD DUP2 PUSH1 0x0 ADD PUSH1 0x3 PUSH2 0x100 EXP DUP2 SLOAD DUP2 PUSH3 0xFFFFFF MUL NOT AND SWAP1 DUP4 PUSH3 0xFFFFFF AND MUL OR SWAP1 SSTORE POP PUSH1 0x40 DUP3 ADD MLOAD DUP2 PUSH1 0x0 ADD PUSH1 0x6 PUSH2 0x100 EXP DUP2 SLOAD DUP2 PUSH17 0xFFFFFFFFFFFFFFFFFFFFFFFFFFFFFFFFFF MUL NOT AND SWAP1 DUP4 PUSH17 0xFFFFFFFFFFFFFFFFFFFFFFFFFFFFFFFFFF AND MUL OR SWAP1 SSTORE POP PUSH1 0x60 DUP3 ADD MLOAD DUP2 PUSH1 0x1 ADD PUSH1 0x0 PUSH2 0x100 EXP DUP2 SLOAD DUP2 PUSH17 0xFFFFFFFFFFFFFFFFFFFFFFFFFFFFFFFFFF MUL NOT AND SWAP1 DUP4 PUSH17 0xFFFFFFFFFFFFFFFFFFFFFFFFFFFFFFFFFF AND MUL OR SWAP1 SSTORE POP PUSH1 0x80 DUP3 ADD MLOAD DUP2 PUSH1 0x2 ADD SSTORE PUSH1 0xA0 DUP3 ADD MLOAD DUP2 PUSH1 0x3 ADD SSTORE SWAP1 POP POP DUP4 DUP4 SWAP8 POP SWAP8 POP POP POP POP POP POP POP PUSH1 0x1 PUSH1 0x0 DUP2 SWAP1 SSTORE POP SWAP6 POP SWAP6 SWAP4 POP POP POP POP JUMP JUMPDEST PUSH1 0x0 DUP1 PUSH1 0x13 SLOAD PUSH1 0x14 SLOAD SWAP2 POP SWAP2 POP SWAP1 SWAP2 JUMP JUMPDEST PUSH1 0x0 PUSH1 0x1 PUSH1 0x0 SLOAD EQ PUSH2 0xDF3 JUMPI PUSH1 0x40 MLOAD PUSH32 0x802D9BF100000000000000000000000000000000000000000000000000000000 DUP2 MSTORE PUSH1 0x4 ADD PUSH1 0x40 MLOAD DUP1 SWAP2 SUB SWAP1 REVERT JUMPDEST PUSH1 0x2 PUSH1 0x0 DUP2 SWAP1 SSTORE POP PUSH1 0x0 PUSH32 0x0 PUSH20 0xFFFFFFFFFFFFFFFFFFFFFFFFFFFFFFFFFFFFFFFF AND PUSH4 0x46904840 PUSH1 0x40 MLOAD DUP2 PUSH4 0xFFFFFFFF AND PUSH1 0xE0 SHL DUP2 MSTORE PUSH1 0x4 ADD PUSH1 0x20 PUSH1 0x40 MLOAD DUP1 DUP4 SUB DUP2 DUP7 GAS STATICCALL ISZERO DUP1 ISZERO PUSH2 0xE68 JUMPI RETURNDATASIZE PUSH1 0x0 DUP1 RETURNDATACOPY RETURNDATASIZE PUSH1 0x0 REVERT JUMPDEST POP POP POP POP PUSH1 0x40 MLOAD RETURNDATASIZE PUSH1 0x1F NOT PUSH1 0x1F DUP3 ADD AND DUP3 ADD DUP1 PUSH1 0x40 MSTORE POP DUP2 ADD SWAP1 PUSH2 0xE8C SWAP2 SWAP1 PUSH2 0x50E9 JUMP JUMPDEST SWAP1 POP DUP1 PUSH20 0xFFFFFFFFFFFFFFFFFFFFFFFFFFFFFFFFFFFFFFFF AND CALLER PUSH20 0xFFFFFFFFFFFFFFFFFFFFFFFFFFFFFFFFFFFFFFFF AND EQ PUSH2 0xF00 JUMPI DUP1 CALLER PUSH1 0x40 MLOAD PUSH32 0xF680F02800000000000000000000000000000000000000000000000000000000 DUP2 MSTORE PUSH1 0x4 ADD PUSH2 0xEF7 SWAP3 SWAP2 SWAP1 PUSH2 0x5116 JUMP JUMPDEST PUSH1 0x40 MLOAD DUP1 SWAP2 SUB SWAP1 REVERT JUMPDEST PUSH1 0x3 DUP1 ADD SLOAD SWAP2 POP PUSH1 0x1 DUP3 GT ISZERO PUSH2 0xF93 JUMPI PUSH1 0x1 DUP3 PUSH2 0xF1D SWAP2 SWAP1 PUSH2 0x4FC3 JUMP JUMPDEST SWAP2 POP DUP2 PUSH1 0x3 PUSH1 0x2 ADD PUSH1 0x0 DUP3 DUP3 SLOAD PUSH2 0xF34 SWAP2 SWAP1 PUSH2 0x4FC3 JUMP JUMPDEST SWAP3 POP POP DUP2 SWAP1 SSTORE POP PUSH1 0x1 PUSH1 0x3 DUP1 ADD DUP2 SWAP1 SSTORE POP PUSH2 0xF92 DUP2 DUP4 PUSH1 0x2 PUSH1 0x0 SWAP1 SLOAD SWAP1 PUSH2 0x100 EXP SWAP1 DIV PUSH20 0xFFFFFFFFFFFFFFFFFFFFFFFFFFFFFFFFFFFFFFFF AND PUSH20 0xFFFFFFFFFFFFFFFFFFFFFFFFFFFFFFFFFFFFFFFF AND PUSH2 0x3178 SWAP1 SWAP3 SWAP2 SWAP1 PUSH4 0xFFFFFFFF AND JUMP JUMPDEST JUMPDEST POP PUSH1 0x1 PUSH1 0x0 DUP2 SWAP1 SSTORE POP SWAP1 JUMP JUMPDEST PUSH1 0x0 DUP1 PUSH1 0x3 PUSH1 0x2 ADD SLOAD SWAP2 POP PUSH1 0x3 DUP1 ADD SLOAD SWAP1 POP SWAP1 SWAP2 JUMP JUMPDEST PUSH1 0x2 PUSH1 0x0 SWAP1 SLOAD SWAP1 PUSH2 0x100 EXP SWAP1 DIV PUSH20 0xFFFFFFFFFFFFFFFFFFFFFFFFFFFFFFFFFFFFFFFF AND DUP2 JUMP JUMPDEST PUSH1 0x1 PUSH1 0x0 SLOAD EQ PUSH2 0x1017 JUMPI PUSH1 0x40 MLOAD PUSH32 0x802D9BF100000000000000000000000000000000000000000000000000000000 DUP2 MSTORE PUSH1 0x4 ADD PUSH1 0x40 MLOAD DUP1 SWAP2 SUB SWAP1 REVERT JUMPDEST PUSH1 0x2 PUSH1 0x0 DUP2 SWAP1 SSTORE POP PUSH1 0x0 PUSH1 0x3 PUSH1 0x40 MLOAD DUP1 PUSH1 0xC0 ADD PUSH1 0x40 MSTORE SWAP1 DUP2 PUSH1 0x0 DUP3 ADD PUSH1 0x0 SWAP1 SLOAD SWAP1 PUSH2 0x100 EXP SWAP1 DIV PUSH3 0xFFFFFF AND PUSH3 0xFFFFFF AND PUSH3 0xFFFFFF AND DUP2 MSTORE PUSH1 0x20 ADD PUSH1 0x0 DUP3 ADD PUSH1 0x3 SWAP1 SLOAD SWAP1 PUSH2 0x100 EXP SWAP1 DIV PUSH3 0xFFFFFF AND PUSH3 0xFFFFFF AND PUSH3 0xFFFFFF AND DUP2 MSTORE PUSH1 0x20 ADD PUSH1 0x0 DUP3 ADD PUSH1 0x6 SWAP1 SLOAD SWAP1 PUSH2 0x100 EXP SWAP1 DIV PUSH17 0xFFFFFFFFFFFFFFFFFFFFFFFFFFFFFFFFFF AND PUSH17 0xFFFFFFFFFFFFFFFFFFFFFFFFFFFFFFFFFF AND PUSH17 0xFFFFFFFFFFFFFFFFFFFFFFFFFFFFFFFFFF AND DUP2 MSTORE PUSH1 0x20 ADD PUSH1 0x1 DUP3 ADD PUSH1 0x0 SWAP1 SLOAD SWAP1 PUSH2 0x100 EXP SWAP1 DIV PUSH17 0xFFFFFFFFFFFFFFFFFFFFFFFFFFFFFFFFFF AND PUSH17 0xFFFFFFFFFFFFFFFFFFFFFFFFFFFFFFFFFF AND PUSH17 0xFFFFFFFFFFFFFFFFFFFFFFFFFFFFFFFFFF AND DUP2 MSTORE PUSH1 0x20 ADD PUSH1 0x2 DUP3 ADD SLOAD DUP2 MSTORE PUSH1 0x20 ADD PUSH1 0x3 DUP3 ADD SLOAD DUP2 MSTORE POP POP SWAP1 POP PUSH1 0x0 DUP2 PUSH1 0x20 ADD MLOAD SWAP1 POP PUSH1 0x0 PUSH1 0x7 PUSH1 0x0 DUP4 PUSH3 0xFFFFFF AND DUP2 MSTORE PUSH1 0x20 ADD SWAP1 DUP2 MSTORE PUSH1 0x20 ADD PUSH1 0x0 KECCAK256 PUSH1 0x2 DUP1 PUSH1 0x20 MUL PUSH1 0x40 MLOAD SWAP1 DUP2 ADD PUSH1 0x40 MSTORE DUP1 SWAP3 SWAP2 SWAP1 DUP3 PUSH1 0x2 DUP1 ISZERO PUSH2 0x117E JUMPI PUSH1 0x20 MUL DUP3 ADD SWAP2 JUMPDEST DUP2 SLOAD DUP2 MSTORE PUSH1 0x20 ADD SWAP1 PUSH1 0x1 ADD SWAP1 DUP1 DUP4 GT PUSH2 0x116A JUMPI JUMPDEST POP POP POP POP POP SWAP1 POP PUSH1 0x0 PUSH2 0x1190 DUP4 PUSH2 0x2D96 JUMP JUMPDEST SWAP1 POP PUSH1 0x0 DUP1 PUSH2 0x11BE PUSH2 0x11AD DUP5 PUSH1 0x13 SLOAD PUSH2 0x326B SWAP1 SWAP2 SWAP1 PUSH4 0xFFFFFFFF AND JUMP JUMPDEST PUSH1 0x14 SLOAD PUSH2 0x32BB SWAP1 SWAP2 SWAP1 PUSH4 0xFFFFFFFF AND JUMP JUMPDEST SWAP2 POP SWAP2 POP PUSH1 0x0 DUP3 DUP5 PUSH2 0x11D0 SWAP2 SWAP1 PUSH2 0x4F35 JUMP JUMPDEST SWAP1 POP DUP2 DUP4 PUSH2 0x11DE SWAP2 SWAP1 PUSH2 0x4FC3 JUMP JUMPDEST PUSH1 0x12 PUSH1 0x0 DUP9 PUSH3 0xFFFFFF AND PUSH3 0xFFFFFF AND DUP2 MSTORE PUSH1 0x20 ADD SWAP1 DUP2 MSTORE PUSH1 0x20 ADD PUSH1 0x0 KECCAK256 PUSH1 0x0 DUP3 DUP3 SLOAD PUSH2 0x120A SWAP2 SWAP1 PUSH2 0x4F35 JUMP JUMPDEST SWAP3 POP POP DUP2 SWAP1 SSTORE POP PUSH2 0x121C DUP8 DUP5 DUP5 PUSH2 0x32DF JUMP JUMPDEST PUSH2 0x124E DUP8 PUSH1 0x0 PUSH2 0x122B DUP8 PUSH2 0x330D JUMP JUMPDEST PUSH2 0x123C PUSH8 0xDE0B6B3A7640000 PUSH2 0x330D JUMP JUMPDEST DUP10 PUSH2 0x336B SWAP1 SWAP5 SWAP4 SWAP3 SWAP2 SWAP1 PUSH4 0xFFFFFFFF AND JUMP JUMPDEST PUSH1 0x0 DUP6 PUSH1 0x0 PUSH1 0x2 DUP2 LT PUSH2 0x1264 JUMPI PUSH2 0x1263 PUSH2 0x4ED7 JUMP JUMPDEST JUMPDEST PUSH1 0x20 MUL ADD MLOAD EQ ISZERO PUSH2 0x1289 JUMPI PUSH2 0x1288 DUP7 PUSH3 0xFFFFFF AND PUSH1 0xB PUSH2 0x3580 SWAP1 SWAP2 SWAP1 PUSH4 0xFFFFFFFF AND JUMP JUMPDEST JUMPDEST PUSH2 0x12F1 DUP8 PUSH1 0x60 ADD MLOAD PUSH17 0xFFFFFFFFFFFFFFFFFFFFFFFFFFFFFFFFFF AND DUP9 PUSH1 0x80 ADD MLOAD PUSH1 0x2 PUSH1 0x0 SWAP1 SLOAD SWAP1 PUSH2 0x100 EXP SWAP1 DIV PUSH20 0xFFFFFFFFFFFFFFFFFFFFFFFFFFFFFFFFFFFFFFFF AND PUSH20 0xFFFFFFFFFFFFFFFFFFFFFFFFFFFFFFFFFFFFFFFF AND PUSH2 0x2CFF SWAP1 SWAP3 SWAP2 SWAP1 PUSH4 0xFFFFFFFF AND JUMP JUMPDEST DUP2 GT ISZERO PUSH2 0x1335 JUMPI DUP6 PUSH1 0x40 MLOAD PUSH32 0xB42CD28700000000000000000000000000000000000000000000000000000000 DUP2 MSTORE PUSH1 0x4 ADD PUSH2 0x132C SWAP2 SWAP1 PUSH2 0x5028 JUMP JUMPDEST PUSH1 0x40 MLOAD DUP1 SWAP2 SUB SWAP1 REVERT JUMPDEST PUSH2 0x134C PUSH1 0xB DUP9 PUSH1 0x8 PUSH2 0x30DB SWAP1 SWAP3 SWAP2 SWAP1 PUSH4 0xFFFFFFFF AND JUMP JUMPDEST DUP9 PUSH1 0x0 ADD DUP10 PUSH1 0x20 ADD DUP3 PUSH3 0xFFFFFF AND PUSH3 0xFFFFFF AND DUP2 MSTORE POP DUP3 PUSH3 0xFFFFFF AND PUSH3 0xFFFFFF AND DUP2 MSTORE POP POP POP DUP5 PUSH1 0x7 PUSH1 0x0 DUP9 PUSH3 0xFFFFFF AND DUP2 MSTORE PUSH1 0x20 ADD SWAP1 DUP2 MSTORE PUSH1 0x20 ADD PUSH1 0x0 KECCAK256 SWAP1 PUSH1 0x2 PUSH2 0x1399 SWAP3 SWAP2 SWAP1 PUSH2 0x4444 JUMP JUMPDEST POP DUP7 PUSH1 0x3 PUSH1 0x0 DUP3 ADD MLOAD DUP2 PUSH1 0x0 ADD PUSH1 0x0 PUSH2 0x100 EXP DUP2 SLOAD DUP2 PUSH3 0xFFFFFF MUL NOT AND SWAP1 DUP4 PUSH3 0xFFFFFF AND MUL OR SWAP1 SSTORE POP PUSH1 0x20 DUP3 ADD MLOAD DUP2 PUSH1 0x0 ADD PUSH1 0x3 PUSH2 0x100 EXP DUP2 SLOAD DUP2 PUSH3 0xFFFFFF MUL NOT AND SWAP1 DUP4 PUSH3 0xFFFFFF AND MUL OR SWAP1 SSTORE POP PUSH1 0x40 DUP3 ADD MLOAD DUP2 PUSH1 0x0 ADD PUSH1 0x6 PUSH2 0x100 EXP DUP2 SLOAD DUP2 PUSH17 0xFFFFFFFFFFFFFFFFFFFFFFFFFFFFFFFFFF MUL NOT AND SWAP1 DUP4 PUSH17 0xFFFFFFFFFFFFFFFFFFFFFFFFFFFFFFFFFF AND MUL OR SWAP1 SSTORE POP PUSH1 0x60 DUP3 ADD MLOAD DUP2 PUSH1 0x1 ADD PUSH1 0x0 PUSH2 0x100 EXP DUP2 SLOAD DUP2 PUSH17 0xFFFFFFFFFFFFFFFFFFFFFFFFFFFFFFFFFF MUL NOT AND SWAP1 DUP4 PUSH17 0xFFFFFFFFFFFFFFFFFFFFFFFFFFFFFFFFFF AND MUL OR SWAP1 SSTORE POP PUSH1 0x80 DUP3 ADD MLOAD DUP2 PUSH1 0x2 ADD SSTORE PUSH1 0xA0 DUP3 ADD MLOAD DUP2 PUSH1 0x3 ADD SSTORE SWAP1 POP POP PUSH1 0x1 PUSH1 0x0 SWAP1 SLOAD SWAP1 PUSH2 0x100 EXP SWAP1 DIV PUSH20 0xFFFFFFFFFFFFFFFFFFFFFFFFFFFFFFFFFFFFFFFF AND PUSH20 0xFFFFFFFFFFFFFFFFFFFFFFFFFFFFFFFFFFFFFFFF AND PUSH4 0xF242432A ADDRESS DUP11 PUSH1 0x17 SLOAD PUSH8 0xDE0B6B3A7640000 PUSH1 0x40 MLOAD DUP6 PUSH4 0xFFFFFFFF AND PUSH1 0xE0 SHL DUP2 MSTORE PUSH1 0x4 ADD PUSH2 0x14EB SWAP5 SWAP4 SWAP3 SWAP2 SWAP1 PUSH2 0x5176 JUMP JUMPDEST PUSH1 0x0 PUSH1 0x40 MLOAD DUP1 DUP4 SUB DUP2 PUSH1 0x0 DUP8 DUP1 EXTCODESIZE ISZERO DUP1 ISZERO PUSH2 0x1505 JUMPI PUSH1 0x0 DUP1 REVERT JUMPDEST POP GAS CALL ISZERO DUP1 ISZERO PUSH2 0x1519 JUMPI RETURNDATASIZE PUSH1 0x0 DUP1 RETURNDATACOPY RETURNDATASIZE PUSH1 0x0 REVERT JUMPDEST POP POP POP POP POP POP POP POP POP POP POP PUSH1 0x1 PUSH1 0x0 DUP2 SWAP1 SSTORE POP POP JUMP JUMPDEST PUSH1 0x0 PUSH4 0xBC197C81 PUSH1 0xE0 SHL SWAP1 POP SWAP6 SWAP5 POP POP POP POP POP JUMP JUMPDEST PUSH32 0x0 DUP2 JUMP JUMPDEST PUSH1 0x0 DUP1 PUSH1 0x1 PUSH1 0x0 SLOAD EQ PUSH2 0x15A7 JUMPI PUSH1 0x40 MLOAD PUSH32 0x802D9BF100000000000000000000000000000000000000000000000000000000 DUP2 MSTORE PUSH1 0x4 ADD PUSH1 0x40 MLOAD DUP1 SWAP2 SUB SWAP1 REVERT JUMPDEST PUSH1 0x2 PUSH1 0x0 DUP2 SWAP1 SSTORE POP PUSH1 0x0 DUP8 DUP8 SWAP1 POP EQ DUP1 PUSH2 0x15C7 JUMPI POP DUP5 DUP5 SWAP1 POP DUP8 DUP8 SWAP1 POP EQ ISZERO JUMPDEST ISZERO PUSH2 0x15FE JUMPI PUSH1 0x40 MLOAD PUSH32 0x6FED5FF00000000000000000000000000000000000000000000000000000000 DUP2 MSTORE PUSH1 0x4 ADD PUSH1 0x40 MLOAD DUP1 SWAP2 SUB SWAP1 REVERT JUMPDEST PUSH1 0x0 PUSH1 0x3 PUSH1 0x40 MLOAD DUP1 PUSH1 0xC0 ADD PUSH1 0x40 MSTORE SWAP1 DUP2 PUSH1 0x0 DUP3 ADD PUSH1 0x0 SWAP1 SLOAD SWAP1 PUSH2 0x100 EXP SWAP1 DIV PUSH3 0xFFFFFF AND PUSH3 0xFFFFFF AND PUSH3 0xFFFFFF AND DUP2 MSTORE PUSH1 0x20 ADD PUSH1 0x0 DUP3 ADD PUSH1 0x3 SWAP1 SLOAD SWAP1 PUSH2 0x100 EXP SWAP1 DIV PUSH3 0xFFFFFF AND PUSH3 0xFFFFFF AND PUSH3 0xFFFFFF AND DUP2 MSTORE PUSH1 0x20 ADD PUSH1 0x0 DUP3 ADD PUSH1 0x6 SWAP1 SLOAD SWAP1 PUSH2 0x100 EXP SWAP1 DIV PUSH17 0xFFFFFFFFFFFFFFFFFFFFFFFFFFFFFFFFFF AND PUSH17 0xFFFFFFFFFFFFFFFFFFFFFFFFFFFFFFFFFF AND PUSH17 0xFFFFFFFFFFFFFFFFFFFFFFFFFFFFFFFFFF AND DUP2 MSTORE PUSH1 0x20 ADD PUSH1 0x1 DUP3 ADD PUSH1 0x0 SWAP1 SLOAD SWAP1 PUSH2 0x100 EXP SWAP1 DIV PUSH17 0xFFFFFFFFFFFFFFFFFFFFFFFFFFFFFFFFFF AND PUSH17 0xFFFFFFFFFFFFFFFFFFFFFFFFFFFFFFFFFF AND PUSH17 0xFFFFFFFFFFFFFFFFFFFFFFFFFFFFFFFFFF AND DUP2 MSTORE PUSH1 0x20 ADD PUSH1 0x2 DUP3 ADD SLOAD DUP2 MSTORE PUSH1 0x20 ADD PUSH1 0x3 DUP3 ADD SLOAD DUP2 MSTORE POP POP SWAP1 POP PUSH1 0x1 PUSH1 0x15 PUSH1 0x0 DUP3 DUP3 SLOAD PUSH2 0x1716 SWAP2 SWAP1 PUSH2 0x4F35 JUMP JUMPDEST SWAP3 POP POP DUP2 SWAP1 SSTORE POP PUSH1 0x0 PUSH1 0x15 SLOAD SWAP1 POP PUSH1 0x16 PUSH1 0x0 SWAP1 SLOAD SWAP1 PUSH2 0x100 EXP SWAP1 DIV PUSH20 0xFFFFFFFFFFFFFFFFFFFFFFFFFFFFFFFFFFFFFFFF AND PUSH20 0xFFFFFFFFFFFFFFFFFFFFFFFFFFFFFFFFFFFFFFFF AND PUSH4 0x40C10F19 DUP7 DUP4 PUSH1 0x40 MLOAD DUP4 PUSH4 0xFFFFFFFF AND PUSH1 0xE0 SHL DUP2 MSTORE PUSH1 0x4 ADD PUSH2 0x1781 SWAP3 SWAP2 SWAP1 PUSH2 0x4F9A JUMP JUMPDEST PUSH1 0x0 PUSH1 0x40 MLOAD DUP1 DUP4 SUB DUP2 PUSH1 0x0 DUP8 DUP1 EXTCODESIZE ISZERO DUP1 ISZERO PUSH2 0x179B JUMPI PUSH1 0x0 DUP1 REVERT JUMPDEST POP GAS CALL ISZERO DUP1 ISZERO PUSH2 0x17AF JUMPI RETURNDATASIZE PUSH1 0x0 DUP1 RETURNDATACOPY RETURNDATASIZE PUSH1 0x0 REVERT JUMPDEST POP POP POP POP DUP2 PUSH1 0x0 ADD MLOAD PUSH3 0xFFFFFF AND DUP10 DUP10 PUSH1 0x0 DUP2 DUP2 LT PUSH2 0x17D1 JUMPI PUSH2 0x17D0 PUSH2 0x4ED7 JUMP JUMPDEST JUMPDEST SWAP1 POP PUSH1 0x20 MUL ADD PUSH1 0x20 DUP2 ADD SWAP1 PUSH2 0x17E6 SWAP2 SWAP1 PUSH2 0x46D2 JUMP JUMPDEST PUSH3 0xFFFFFF AND LT ISZERO PUSH2 0x1856 JUMPI DUP9 DUP9 PUSH1 0x0 DUP2 DUP2 LT PUSH2 0x1805 JUMPI PUSH2 0x1804 PUSH2 0x4ED7 JUMP JUMPDEST JUMPDEST SWAP1 POP PUSH1 0x20 MUL ADD PUSH1 0x20 DUP2 ADD SWAP1 PUSH2 0x181A SWAP2 SWAP1 PUSH2 0x46D2 JUMP JUMPDEST PUSH1 0x40 MLOAD PUSH32 0xB42CD28700000000000000000000000000000000000000000000000000000000 DUP2 MSTORE PUSH1 0x4 ADD PUSH2 0x184D SWAP2 SWAP1 PUSH2 0x5028 JUMP JUMPDEST PUSH1 0x40 MLOAD DUP1 SWAP2 SUB SWAP1 REVERT JUMPDEST PUSH1 0x0 DUP1 PUSH1 0x0 JUMPDEST DUP12 DUP12 SWAP1 POP DUP2 LT ISZERO PUSH2 0x1B15 JUMPI DUP12 DUP12 DUP3 DUP2 DUP2 LT PUSH2 0x187A JUMPI PUSH2 0x1879 PUSH2 0x4ED7 JUMP JUMPDEST JUMPDEST SWAP1 POP PUSH1 0x20 MUL ADD PUSH1 0x20 DUP2 ADD SWAP1 PUSH2 0x188F SWAP2 SWAP1 PUSH2 0x46D2 JUMP JUMPDEST SWAP3 POP DUP10 DUP10 DUP3 DUP2 DUP2 LT PUSH2 0x18A4 JUMPI PUSH2 0x18A3 PUSH2 0x4ED7 JUMP JUMPDEST JUMPDEST SWAP1 POP PUSH1 0x20 MUL ADD CALLDATALOAD SWAP2 POP PUSH1 0x0 PUSH1 0x7 PUSH1 0x0 DUP6 PUSH3 0xFFFFFF AND DUP2 MSTORE PUSH1 0x20 ADD SWAP1 DUP2 MSTORE PUSH1 0x20 ADD PUSH1 0x0 KECCAK256 PUSH1 0x2 DUP1 PUSH1 0x20 MUL PUSH1 0x40 MLOAD SWAP1 DUP2 ADD PUSH1 0x40 MSTORE DUP1 SWAP3 SWAP2 SWAP1 DUP3 PUSH1 0x2 DUP1 ISZERO PUSH2 0x18FE JUMPI PUSH1 0x20 MUL DUP3 ADD SWAP2 JUMPDEST DUP2 SLOAD DUP2 MSTORE PUSH1 0x20 ADD SWAP1 PUSH1 0x1 ADD SWAP1 DUP1 DUP4 GT PUSH2 0x18EA JUMPI JUMPDEST POP POP POP POP POP SWAP1 POP PUSH1 0x0 PUSH8 0xDE0B6B3A7640000 DUP5 PUSH2 0x191B SWAP2 SWAP1 PUSH2 0x5072 JUMP JUMPDEST EQ PUSH2 0x1925 JUMPI PUSH1 0x0 DUP1 REVERT JUMPDEST PUSH2 0x192E DUP5 PUSH2 0x2DCD JUMP JUMPDEST PUSH1 0x0 DUP2 PUSH1 0x0 PUSH1 0x2 DUP2 LT PUSH2 0x1944 JUMPI PUSH2 0x1943 PUSH2 0x4ED7 JUMP JUMPDEST JUMPDEST PUSH1 0x20 MUL ADD MLOAD EQ DUP1 ISZERO PUSH2 0x196E JUMPI POP PUSH1 0x0 DUP2 PUSH1 0x1 PUSH1 0x2 DUP2 LT PUSH2 0x1967 JUMPI PUSH2 0x1966 PUSH2 0x4ED7 JUMP JUMPDEST JUMPDEST PUSH1 0x20 MUL ADD MLOAD EQ JUMPDEST ISZERO PUSH2 0x198D JUMPI PUSH2 0x198C DUP5 PUSH3 0xFFFFFF AND PUSH1 0x8 PUSH2 0x3015 SWAP1 SWAP2 SWAP1 PUSH4 0xFFFFFFFF AND JUMP JUMPDEST JUMPDEST PUSH1 0x0 DUP2 PUSH1 0x0 PUSH1 0x2 DUP2 LT PUSH2 0x19A3 JUMPI PUSH2 0x19A2 PUSH2 0x4ED7 JUMP JUMPDEST JUMPDEST PUSH1 0x20 MUL ADD MLOAD EQ ISZERO PUSH2 0x19C8 JUMPI PUSH2 0x19C7 DUP5 PUSH3 0xFFFFFF AND PUSH1 0xB PUSH2 0x3015 SWAP1 SWAP2 SWAP1 PUSH4 0xFFFFFFFF AND JUMP JUMPDEST JUMPDEST DUP3 PUSH8 0xDE0B6B3A7640000 PUSH2 0x19DC SWAP2 SWAP1 PUSH2 0x51CE JUMP JUMPDEST PUSH14 0xFFFFFFFFFFFFFFFFFFFFFFFFFFFF AND DUP2 PUSH1 0x0 PUSH1 0x2 DUP2 LT PUSH2 0x1A00 JUMPI PUSH2 0x19FF PUSH2 0x4ED7 JUMP JUMPDEST JUMPDEST PUSH1 0x20 MUL ADD DUP2 DUP2 MLOAD PUSH2 0x1A11 SWAP2 SWAP1 PUSH2 0x4F35 JUMP JUMPDEST SWAP2 POP DUP2 DUP2 MSTORE POP POP DUP3 PUSH8 0xDE0B6B3A7640000 MUL PUSH14 0xFFFFFFFFFFFFFFFFFFFFFFFFFFFF AND DUP7 PUSH1 0x40 ADD DUP2 DUP2 MLOAD ADD SWAP2 POP SWAP1 PUSH17 0xFFFFFFFFFFFFFFFFFFFFFFFFFFFFFFFFFF AND SWAP1 DUP2 PUSH17 0xFFFFFFFFFFFFFFFFFFFFFFFFFFFFFFFFFF AND DUP2 MSTORE POP POP PUSH1 0x11 PUSH1 0x0 DUP6 PUSH3 0xFFFFFF AND PUSH3 0xFFFFFF AND DUP2 MSTORE PUSH1 0x20 ADD SWAP1 DUP2 MSTORE PUSH1 0x20 ADD PUSH1 0x0 KECCAK256 DUP6 SWAP1 DUP1 PUSH1 0x1 DUP2 SLOAD ADD DUP1 DUP3 SSTORE DUP1 SWAP2 POP POP PUSH1 0x1 SWAP1 SUB SWAP1 PUSH1 0x0 MSTORE PUSH1 0x20 PUSH1 0x0 KECCAK256 ADD PUSH1 0x0 SWAP1 SWAP2 SWAP1 SWAP2 SWAP1 SWAP2 POP SSTORE DUP3 PUSH1 0xF PUSH1 0x0 DUP8 DUP2 MSTORE PUSH1 0x20 ADD SWAP1 DUP2 MSTORE PUSH1 0x20 ADD PUSH1 0x0 KECCAK256 PUSH1 0x0 DUP7 PUSH3 0xFFFFFF AND PUSH3 0xFFFFFF AND DUP2 MSTORE PUSH1 0x20 ADD SWAP1 DUP2 MSTORE PUSH1 0x20 ADD PUSH1 0x0 KECCAK256 DUP2 SWAP1 SSTORE POP DUP1 PUSH1 0x7 PUSH1 0x0 DUP7 PUSH3 0xFFFFFF AND DUP2 MSTORE PUSH1 0x20 ADD SWAP1 DUP2 MSTORE PUSH1 0x20 ADD PUSH1 0x0 KECCAK256 SWAP1 PUSH1 0x2 PUSH2 0x1B08 SWAP3 SWAP2 SWAP1 PUSH2 0x4444 JUMP JUMPDEST POP DUP2 PUSH1 0x1 ADD SWAP2 POP POP PUSH2 0x185C JUMP JUMPDEST POP DUP11 DUP11 PUSH1 0x10 PUSH1 0x0 DUP7 DUP2 MSTORE PUSH1 0x20 ADD SWAP1 DUP2 MSTORE PUSH1 0x20 ADD PUSH1 0x0 KECCAK256 SWAP2 SWAP1 PUSH2 0x1B38 SWAP3 SWAP2 SWAP1 PUSH2 0x4484 JUMP JUMPDEST POP PUSH2 0x1B50 PUSH1 0xB DUP6 PUSH1 0x8 PUSH2 0x30DB SWAP1 SWAP3 SWAP2 SWAP1 PUSH4 0xFFFFFFFF AND JUMP JUMPDEST DUP6 PUSH1 0x0 ADD DUP7 PUSH1 0x20 ADD DUP3 PUSH3 0xFFFFFF AND PUSH3 0xFFFFFF AND DUP2 MSTORE POP DUP3 PUSH3 0xFFFFFF AND PUSH3 0xFFFFFF AND DUP2 MSTORE POP POP POP DUP4 PUSH1 0x3 PUSH1 0x0 DUP3 ADD MLOAD DUP2 PUSH1 0x0 ADD PUSH1 0x0 PUSH2 0x100 EXP DUP2 SLOAD DUP2 PUSH3 0xFFFFFF MUL NOT AND SWAP1 DUP4 PUSH3 0xFFFFFF AND MUL OR SWAP1 SSTORE POP PUSH1 0x20 DUP3 ADD MLOAD DUP2 PUSH1 0x0 ADD PUSH1 0x3 PUSH2 0x100 EXP DUP2 SLOAD DUP2 PUSH3 0xFFFFFF MUL NOT AND SWAP1 DUP4 PUSH3 0xFFFFFF AND MUL OR SWAP1 SSTORE POP PUSH1 0x40 DUP3 ADD MLOAD DUP2 PUSH1 0x0 ADD PUSH1 0x6 PUSH2 0x100 EXP DUP2 SLOAD DUP2 PUSH17 0xFFFFFFFFFFFFFFFFFFFFFFFFFFFFFFFFFF MUL NOT AND SWAP1 DUP4 PUSH17 0xFFFFFFFFFFFFFFFFFFFFFFFFFFFFFFFFFF AND MUL OR SWAP1 SSTORE POP PUSH1 0x60 DUP3 ADD MLOAD DUP2 PUSH1 0x1 ADD PUSH1 0x0 PUSH2 0x100 EXP DUP2 SLOAD DUP2 PUSH17 0xFFFFFFFFFFFFFFFFFFFFFFFFFFFFFFFFFF MUL NOT AND SWAP1 DUP4 PUSH17 0xFFFFFFFFFFFFFFFFFFFFFFFFFFFFFFFFFF AND MUL OR SWAP1 SSTORE POP PUSH1 0x80 DUP3 ADD MLOAD DUP2 PUSH1 0x2 ADD SSTORE PUSH1 0xA0 DUP3 ADD MLOAD DUP2 PUSH1 0x3 ADD SSTORE SWAP1 POP POP DUP11 DUP11 SWAP1 POP DUP4 SWAP6 POP SWAP6 POP POP POP POP POP PUSH1 0x1 PUSH1 0x0 DUP2 SWAP1 SSTORE POP SWAP6 POP SWAP6 SWAP4 POP POP POP POP JUMP JUMPDEST PUSH1 0x0 PUSH1 0x1 PUSH1 0x0 SLOAD EQ PUSH2 0x1CB9 JUMPI PUSH1 0x40 MLOAD PUSH32 0x802D9BF100000000000000000000000000000000000000000000000000000000 DUP2 MSTORE PUSH1 0x4 ADD PUSH1 0x40 MLOAD DUP1 SWAP2 SUB SWAP1 REVERT JUMPDEST PUSH1 0x2 PUSH1 0x0 DUP2 SWAP1 SSTORE POP PUSH1 0x0 PUSH1 0x3 PUSH1 0x40 MLOAD DUP1 PUSH1 0xC0 ADD PUSH1 0x40 MSTORE SWAP1 DUP2 PUSH1 0x0 DUP3 ADD PUSH1 0x0 SWAP1 SLOAD SWAP1 PUSH2 0x100 EXP SWAP1 DIV PUSH3 0xFFFFFF AND PUSH3 0xFFFFFF AND PUSH3 0xFFFFFF AND DUP2 MSTORE PUSH1 0x20 ADD PUSH1 0x0 DUP3 ADD PUSH1 0x3 SWAP1 SLOAD SWAP1 PUSH2 0x100 EXP SWAP1 DIV PUSH3 0xFFFFFF AND PUSH3 0xFFFFFF AND PUSH3 0xFFFFFF AND DUP2 MSTORE PUSH1 0x20 ADD PUSH1 0x0 DUP3 ADD PUSH1 0x6 SWAP1 SLOAD SWAP1 PUSH2 0x100 EXP SWAP1 DIV PUSH17 0xFFFFFFFFFFFFFFFFFFFFFFFFFFFFFFFFFF AND PUSH17 0xFFFFFFFFFFFFFFFFFFFFFFFFFFFFFFFFFF AND PUSH17 0xFFFFFFFFFFFFFFFFFFFFFFFFFFFFFFFFFF AND DUP2 MSTORE PUSH1 0x20 ADD PUSH1 0x1 DUP3 ADD PUSH1 0x0 SWAP1 SLOAD SWAP1 PUSH2 0x100 EXP SWAP1 DIV PUSH17 0xFFFFFFFFFFFFFFFFFFFFFFFFFFFFFFFFFF AND PUSH17 0xFFFFFFFFFFFFFFFFFFFFFFFFFFFFFFFFFF AND PUSH17 0xFFFFFFFFFFFFFFFFFFFFFFFFFFFFFFFFFF AND DUP2 MSTORE PUSH1 0x20 ADD PUSH1 0x2 DUP3 ADD SLOAD DUP2 MSTORE PUSH1 0x20 ADD PUSH1 0x3 DUP3 ADD SLOAD DUP2 MSTORE POP POP SWAP1 POP PUSH1 0x0 PUSH1 0x7 PUSH1 0x0 DUP4 PUSH1 0x0 ADD MLOAD PUSH3 0xFFFFFF AND DUP2 MSTORE PUSH1 0x20 ADD SWAP1 DUP2 MSTORE PUSH1 0x20 ADD PUSH1 0x0 KECCAK256 PUSH1 0x2 DUP1 PUSH1 0x20 MUL PUSH1 0x40 MLOAD SWAP1 DUP2 ADD PUSH1 0x40 MSTORE DUP1 SWAP3 SWAP2 SWAP1 DUP3 PUSH1 0x2 DUP1 ISZERO PUSH2 0x1E1B JUMPI PUSH1 0x20 MUL DUP3 ADD SWAP2 JUMPDEST DUP2 SLOAD DUP2 MSTORE PUSH1 0x20 ADD SWAP1 PUSH1 0x1 ADD SWAP1 DUP1 DUP4 GT PUSH2 0x1E07 JUMPI JUMPDEST POP POP POP POP POP SWAP1 POP PUSH1 0x0 DUP3 PUSH1 0x0 ADD MLOAD SWAP1 POP PUSH1 0x0 DUP3 PUSH1 0x1 PUSH1 0x2 DUP2 LT PUSH2 0x1E41 JUMPI PUSH2 0x1E40 PUSH2 0x4ED7 JUMP JUMPDEST JUMPDEST PUSH1 0x20 MUL ADD MLOAD EQ ISZERO PUSH2 0x1E89 JUMPI DUP1 PUSH1 0x40 MLOAD PUSH32 0xB42CD28700000000000000000000000000000000000000000000000000000000 DUP2 MSTORE PUSH1 0x4 ADD PUSH2 0x1E80 SWAP2 SWAP1 PUSH2 0x5028 JUMP JUMPDEST PUSH1 0x40 MLOAD DUP1 SWAP2 SUB SWAP1 REVERT JUMPDEST PUSH1 0x1 PUSH1 0x0 SWAP1 SLOAD SWAP1 PUSH2 0x100 EXP SWAP1 DIV PUSH20 0xFFFFFFFFFFFFFFFFFFFFFFFFFFFFFFFFFFFFFFFF AND PUSH20 0xFFFFFFFFFFFFFFFFFFFFFFFFFFFFFFFFFFFFFFFF AND PUSH4 0xF242432A DUP7 ADDRESS PUSH1 0x17 SLOAD PUSH8 0xDE0B6B3A7640000 PUSH1 0x40 MLOAD DUP6 PUSH4 0xFFFFFFFF AND PUSH1 0xE0 SHL DUP2 MSTORE PUSH1 0x4 ADD PUSH2 0x1EF4 SWAP5 SWAP4 SWAP3 SWAP2 SWAP1 PUSH2 0x5176 JUMP JUMPDEST PUSH1 0x0 PUSH1 0x40 MLOAD DUP1 DUP4 SUB DUP2 PUSH1 0x0 DUP8 DUP1 EXTCODESIZE ISZERO DUP1 ISZERO PUSH2 0x1F0E JUMPI PUSH1 0x0 DUP1 REVERT JUMPDEST POP GAS CALL ISZERO DUP1 ISZERO PUSH2 0x1F22 JUMPI RETURNDATASIZE PUSH1 0x0 DUP1 RETURNDATACOPY RETURNDATASIZE PUSH1 0x0 REVERT JUMPDEST POP POP POP POP PUSH1 0x0 PUSH2 0x1F31 DUP3 PUSH2 0x2D96 JUMP JUMPDEST SWAP1 POP PUSH1 0x0 DUP1 PUSH2 0x1F5F PUSH2 0x1F4E DUP5 PUSH1 0x13 SLOAD PUSH2 0x3707 SWAP1 SWAP2 SWAP1 PUSH4 0xFFFFFFFF AND JUMP JUMPDEST PUSH1 0x14 SLOAD PUSH2 0x32BB SWAP1 SWAP2 SWAP1 PUSH4 0xFFFFFFFF AND JUMP JUMPDEST SWAP2 POP SWAP2 POP DUP1 DUP3 PUSH2 0x1F6F SWAP2 SWAP1 PUSH2 0x4FC3 JUMP JUMPDEST PUSH1 0x12 PUSH1 0x0 DUP7 PUSH3 0xFFFFFF AND PUSH3 0xFFFFFF AND DUP2 MSTORE PUSH1 0x20 ADD SWAP1 DUP2 MSTORE PUSH1 0x20 ADD PUSH1 0x0 KECCAK256 PUSH1 0x0 DUP3 DUP3 SLOAD PUSH2 0x1F9B SWAP2 SWAP1 PUSH2 0x4F35 JUMP JUMPDEST SWAP3 POP POP DUP2 SWAP1 SSTORE POP PUSH1 0x0 DUP6 PUSH1 0x0 PUSH1 0x2 DUP2 LT PUSH2 0x1FB8 JUMPI PUSH2 0x1FB7 PUSH2 0x4ED7 JUMP JUMPDEST JUMPDEST PUSH1 0x20 MUL ADD MLOAD EQ ISZERO PUSH2 0x1FDD JUMPI PUSH2 0x1FDC DUP5 PUSH3 0xFFFFFF AND PUSH1 0xB PUSH2 0x3015 SWAP1 SWAP2 SWAP1 PUSH4 0xFFFFFFFF AND JUMP JUMPDEST JUMPDEST PUSH2 0x1FE8 DUP7 DUP4 DUP4 PUSH2 0x32DF JUMP JUMPDEST PUSH2 0x201A DUP7 PUSH1 0x1 PUSH2 0x1FFF PUSH8 0xDE0B6B3A7640000 PUSH2 0x330D JUMP JUMPDEST PUSH2 0x2008 DUP8 PUSH2 0x330D JUMP JUMPDEST DUP10 PUSH2 0x336B SWAP1 SWAP5 SWAP4 SWAP3 SWAP2 SWAP1 PUSH4 0xFFFFFFFF AND JUMP JUMPDEST DUP2 DUP4 PUSH2 0x2026 SWAP2 SWAP1 PUSH2 0x4FC3 JUMP JUMPDEST SWAP7 POP PUSH2 0x203F PUSH1 0xB DUP8 PUSH1 0x8 PUSH2 0x30DB SWAP1 SWAP3 SWAP2 SWAP1 PUSH4 0xFFFFFFFF AND JUMP JUMPDEST DUP8 PUSH1 0x0 ADD DUP9 PUSH1 0x20 ADD DUP3 PUSH3 0xFFFFFF AND PUSH3 0xFFFFFF AND DUP2 MSTORE POP DUP3 PUSH3 0xFFFFFF AND PUSH3 0xFFFFFF AND DUP2 MSTORE POP POP POP DUP5 PUSH1 0x7 PUSH1 0x0 DUP7 PUSH3 0xFFFFFF AND DUP2 MSTORE PUSH1 0x20 ADD SWAP1 DUP2 MSTORE PUSH1 0x20 ADD PUSH1 0x0 KECCAK256 SWAP1 PUSH1 0x2 PUSH2 0x208C SWAP3 SWAP2 SWAP1 PUSH2 0x4444 JUMP JUMPDEST POP DUP6 PUSH1 0x3 PUSH1 0x0 DUP3 ADD MLOAD DUP2 PUSH1 0x0 ADD PUSH1 0x0 PUSH2 0x100 EXP DUP2 SLOAD DUP2 PUSH3 0xFFFFFF MUL NOT AND SWAP1 DUP4 PUSH3 0xFFFFFF AND MUL OR SWAP1 SSTORE POP PUSH1 0x20 DUP3 ADD MLOAD DUP2 PUSH1 0x0 ADD PUSH1 0x3 PUSH2 0x100 EXP DUP2 SLOAD DUP2 PUSH3 0xFFFFFF MUL NOT AND SWAP1 DUP4 PUSH3 0xFFFFFF AND MUL OR SWAP1 SSTORE POP PUSH1 0x40 DUP3 ADD MLOAD DUP2 PUSH1 0x0 ADD PUSH1 0x6 PUSH2 0x100 EXP DUP2 SLOAD DUP2 PUSH17 0xFFFFFFFFFFFFFFFFFFFFFFFFFFFFFFFFFF MUL NOT AND SWAP1 DUP4 PUSH17 0xFFFFFFFFFFFFFFFFFFFFFFFFFFFFFFFFFF AND MUL OR SWAP1 SSTORE POP PUSH1 0x60 DUP3 ADD MLOAD DUP2 PUSH1 0x1 ADD PUSH1 0x0 PUSH2 0x100 EXP DUP2 SLOAD DUP2 PUSH17 0xFFFFFFFFFFFFFFFFFFFFFFFFFFFFFFFFFF MUL NOT AND SWAP1 DUP4 PUSH17 0xFFFFFFFFFFFFFFFFFFFFFFFFFFFFFFFFFF AND MUL OR SWAP1 SSTORE POP PUSH1 0x80 DUP3 ADD MLOAD DUP2 PUSH1 0x2 ADD SSTORE PUSH1 0xA0 DUP3 ADD MLOAD DUP2 PUSH1 0x3 ADD SSTORE SWAP1 POP POP PUSH2 0x21C0 DUP9 DUP9 PUSH1 0x2 PUSH1 0x0 SWAP1 SLOAD SWAP1 PUSH2 0x100 EXP SWAP1 DIV PUSH20 0xFFFFFFFFFFFFFFFFFFFFFFFFFFFFFFFFFFFFFFFF AND PUSH20 0xFFFFFFFFFFFFFFFFFFFFFFFFFFFFFFFFFFFFFFFF AND PUSH2 0x3178 SWAP1 SWAP3 SWAP2 SWAP1 PUSH4 0xFFFFFFFF AND JUMP JUMPDEST POP POP POP POP POP POP PUSH1 0x1 PUSH1 0x0 DUP2 SWAP1 SSTORE POP SWAP2 SWAP1 POP JUMP JUMPDEST PUSH1 0x0 PUSH4 0xF23A6E61 PUSH1 0xE0 SHL SWAP1 POP SWAP6 SWAP5 POP POP POP POP POP JUMP JUMPDEST PUSH1 0x0 DUP1 PUSH1 0x1 PUSH1 0x0 SLOAD EQ PUSH2 0x2227 JUMPI PUSH1 0x40 MLOAD PUSH32 0x802D9BF100000000000000000000000000000000000000000000000000000000 DUP2 MSTORE PUSH1 0x4 ADD PUSH1 0x40 MLOAD DUP1 SWAP2 SUB SWAP1 REVERT JUMPDEST PUSH1 0x2 PUSH1 0x0 DUP2 SWAP1 SSTORE POP PUSH1 0x0 PUSH1 0x3 PUSH1 0x40 MLOAD DUP1 PUSH1 0xC0 ADD PUSH1 0x40 MSTORE SWAP1 DUP2 PUSH1 0x0 DUP3 ADD PUSH1 0x0 SWAP1 SLOAD SWAP1 PUSH2 0x100 EXP SWAP1 DIV PUSH3 0xFFFFFF AND PUSH3 0xFFFFFF AND PUSH3 0xFFFFFF AND DUP2 MSTORE PUSH1 0x20 ADD PUSH1 0x0 DUP3 ADD PUSH1 0x3 SWAP1 SLOAD SWAP1 PUSH2 0x100 EXP SWAP1 DIV PUSH3 0xFFFFFF AND PUSH3 0xFFFFFF AND PUSH3 0xFFFFFF AND DUP2 MSTORE PUSH1 0x20 ADD PUSH1 0x0 DUP3 ADD PUSH1 0x6 SWAP1 SLOAD SWAP1 PUSH2 0x100 EXP SWAP1 DIV PUSH17 0xFFFFFFFFFFFFFFFFFFFFFFFFFFFFFFFFFF AND PUSH17 0xFFFFFFFFFFFFFFFFFFFFFFFFFFFFFFFFFF AND PUSH17 0xFFFFFFFFFFFFFFFFFFFFFFFFFFFFFFFFFF AND DUP2 MSTORE PUSH1 0x20 ADD PUSH1 0x1 DUP3 ADD PUSH1 0x0 SWAP1 SLOAD SWAP1 PUSH2 0x100 EXP SWAP1 DIV PUSH17 0xFFFFFFFFFFFFFFFFFFFFFFFFFFFFFFFFFF AND PUSH17 0xFFFFFFFFFFFFFFFFFFFFFFFFFFFFFFFFFF AND PUSH17 0xFFFFFFFFFFFFFFFFFFFFFFFFFFFFFFFFFF AND DUP2 MSTORE PUSH1 0x20 ADD PUSH1 0x2 DUP3 ADD SLOAD DUP2 MSTORE PUSH1 0x20 ADD PUSH1 0x3 DUP3 ADD SLOAD DUP2 MSTORE POP POP SWAP1 POP PUSH1 0x0 PUSH1 0x10 PUSH1 0x0 DUP8 DUP2 MSTORE PUSH1 0x20 ADD SWAP1 DUP2 MSTORE PUSH1 0x20 ADD PUSH1 0x0 KECCAK256 DUP1 SLOAD DUP1 PUSH1 0x20 MUL PUSH1 0x20 ADD PUSH1 0x40 MLOAD SWAP1 DUP2 ADD PUSH1 0x40 MSTORE DUP1 SWAP3 SWAP2 SWAP1 DUP2 DUP2 MSTORE PUSH1 0x20 ADD DUP3 DUP1 SLOAD DUP1 ISZERO PUSH2 0x23BD JUMPI PUSH1 0x20 MUL DUP3 ADD SWAP2 SWAP1 PUSH1 0x0 MSTORE PUSH1 0x20 PUSH1 0x0 KECCAK256 SWAP1 PUSH1 0x0 SWAP1 JUMPDEST DUP3 DUP3 SWAP1 SLOAD SWAP1 PUSH2 0x100 EXP SWAP1 DIV PUSH3 0xFFFFFF AND PUSH3 0xFFFFFF AND DUP2 MSTORE PUSH1 0x20 ADD SWAP1 PUSH1 0x3 ADD SWAP1 PUSH1 0x20 DUP3 PUSH1 0x2 ADD DIV SWAP3 DUP4 ADD SWAP3 PUSH1 0x1 SUB DUP3 MUL SWAP2 POP DUP1 DUP5 GT PUSH2 0x2382 JUMPI SWAP1 POP JUMPDEST POP POP POP POP POP SWAP1 POP PUSH1 0x10 PUSH1 0x0 DUP8 DUP2 MSTORE PUSH1 0x20 ADD SWAP1 DUP2 MSTORE PUSH1 0x20 ADD PUSH1 0x0 KECCAK256 PUSH1 0x0 PUSH2 0x23E3 SWAP2 SWAP1 PUSH2 0x4536 JUMP JUMPDEST PUSH1 0x0 DUP1 PUSH1 0x0 JUMPDEST DUP4 MLOAD DUP2 LT ISZERO PUSH2 0x2997 JUMPI DUP4 DUP2 DUP2 MLOAD DUP2 LT PUSH2 0x2405 JUMPI PUSH2 0x2404 PUSH2 0x4ED7 JUMP JUMPDEST JUMPDEST PUSH1 0x20 MUL PUSH1 0x20 ADD ADD MLOAD SWAP3 POP PUSH1 0xF PUSH1 0x0 DUP11 DUP2 MSTORE PUSH1 0x20 ADD SWAP1 DUP2 MSTORE PUSH1 0x20 ADD PUSH1 0x0 KECCAK256 PUSH1 0x0 DUP5 PUSH3 0xFFFFFF AND PUSH3 0xFFFFFF AND DUP2 MSTORE PUSH1 0x20 ADD SWAP1 DUP2 MSTORE PUSH1 0x20 ADD PUSH1 0x0 KECCAK256 SLOAD SWAP2 POP PUSH1 0x0 PUSH1 0x7 PUSH1 0x0 DUP6 PUSH3 0xFFFFFF AND DUP2 MSTORE PUSH1 0x20 ADD SWAP1 DUP2 MSTORE PUSH1 0x20 ADD PUSH1 0x0 KECCAK256 PUSH1 0x2 DUP1 PUSH1 0x20 MUL PUSH1 0x40 MLOAD SWAP1 DUP2 ADD PUSH1 0x40 MSTORE DUP1 SWAP3 SWAP2 SWAP1 DUP3 PUSH1 0x2 DUP1 ISZERO PUSH2 0x2491 JUMPI PUSH1 0x20 MUL DUP3 ADD SWAP2 JUMPDEST DUP2 SLOAD DUP2 MSTORE PUSH1 0x20 ADD SWAP1 PUSH1 0x1 ADD SWAP1 DUP1 DUP4 GT PUSH2 0x247D JUMPI JUMPDEST POP POP POP POP POP SWAP1 POP PUSH2 0x24A1 DUP5 PUSH2 0x2DCD JUMP JUMPDEST DUP3 DUP2 PUSH1 0x0 PUSH1 0x2 DUP2 LT PUSH2 0x24B6 JUMPI PUSH2 0x24B5 PUSH2 0x4ED7 JUMP JUMPDEST JUMPDEST PUSH1 0x20 MUL ADD MLOAD LT PUSH2 0x25E0 JUMPI DUP3 DUP9 ADD SWAP8 POP PUSH2 0x24CE DUP4 PUSH2 0x330D JUMP JUMPDEST PUSH14 0xFFFFFFFFFFFFFFFFFFFFFFFFFFFF AND DUP2 PUSH1 0x0 PUSH1 0x2 DUP2 LT PUSH2 0x24F2 JUMPI PUSH2 0x24F1 PUSH2 0x4ED7 JUMP JUMPDEST JUMPDEST PUSH1 0x20 MUL ADD DUP2 DUP2 MLOAD SUB SWAP2 POP DUP2 DUP2 MSTORE POP POP PUSH2 0x250A DUP4 PUSH2 0x374F JUMP JUMPDEST DUP7 PUSH1 0x40 ADD DUP2 DUP2 MLOAD SUB SWAP2 POP SWAP1 PUSH17 0xFFFFFFFFFFFFFFFFFFFFFFFFFFFFFFFFFF AND SWAP1 DUP2 PUSH17 0xFFFFFFFFFFFFFFFFFFFFFFFFFFFFFFFFFF AND DUP2 MSTORE POP POP PUSH1 0x0 DUP2 PUSH1 0x0 PUSH1 0x2 DUP2 LT PUSH2 0x2557 JUMPI PUSH2 0x2556 PUSH2 0x4ED7 JUMP JUMPDEST JUMPDEST PUSH1 0x20 MUL ADD MLOAD EQ ISZERO PUSH2 0x257C JUMPI PUSH2 0x257B DUP5 PUSH3 0xFFFFFF AND PUSH1 0xB PUSH2 0x3580 SWAP1 SWAP2 SWAP1 PUSH4 0xFFFFFFFF AND JUMP JUMPDEST JUMPDEST PUSH1 0x0 DUP2 PUSH1 0x1 PUSH1 0x2 DUP2 LT PUSH2 0x2592 JUMPI PUSH2 0x2591 PUSH2 0x4ED7 JUMP JUMPDEST JUMPDEST PUSH1 0x20 MUL ADD MLOAD EQ DUP1 ISZERO PUSH2 0x25BC JUMPI POP PUSH1 0x0 DUP2 PUSH1 0x0 PUSH1 0x2 DUP2 LT PUSH2 0x25B5 JUMPI PUSH2 0x25B4 PUSH2 0x4ED7 JUMP JUMPDEST JUMPDEST PUSH1 0x20 MUL ADD MLOAD EQ JUMPDEST ISZERO PUSH2 0x25DB JUMPI PUSH2 0x25DA DUP5 PUSH3 0xFFFFFF AND PUSH1 0x8 PUSH2 0x3580 SWAP1 SWAP2 SWAP1 PUSH4 0xFFFFFFFF AND JUMP JUMPDEST JUMPDEST PUSH2 0x2882 JUMP JUMPDEST PUSH1 0x0 DUP2 PUSH1 0x0 PUSH1 0x2 DUP2 LT PUSH2 0x25F6 JUMPI PUSH2 0x25F5 PUSH2 0x4ED7 JUMP JUMPDEST JUMPDEST PUSH1 0x20 MUL ADD MLOAD EQ ISZERO PUSH2 0x26D6 JUMPI PUSH1 0x0 PUSH2 0x260C DUP6 PUSH2 0x2D96 JUMP JUMPDEST SWAP1 POP DUP4 DUP2 MUL DUP9 ADD SWAP8 POP PUSH2 0x2620 DUP5 DUP3 MUL PUSH2 0x330D JUMP JUMPDEST PUSH14 0xFFFFFFFFFFFFFFFFFFFFFFFFFFFF AND DUP3 PUSH1 0x1 PUSH1 0x2 DUP2 LT PUSH2 0x2644 JUMPI PUSH2 0x2643 PUSH2 0x4ED7 JUMP JUMPDEST JUMPDEST PUSH1 0x20 MUL ADD DUP2 DUP2 MLOAD SUB SWAP2 POP DUP2 DUP2 MSTORE POP POP PUSH2 0x265E DUP5 DUP3 MUL PUSH2 0x374F JUMP JUMPDEST DUP8 PUSH1 0x60 ADD DUP2 DUP2 MLOAD SUB SWAP2 POP SWAP1 PUSH17 0xFFFFFFFFFFFFFFFFFFFFFFFFFFFFFFFFFF AND SWAP1 DUP2 PUSH17 0xFFFFFFFFFFFFFFFFFFFFFFFFFFFFFFFFFF AND DUP2 MSTORE POP POP PUSH1 0x0 DUP3 PUSH1 0x1 PUSH1 0x2 DUP2 LT PUSH2 0x26AB JUMPI PUSH2 0x26AA PUSH2 0x4ED7 JUMP JUMPDEST JUMPDEST PUSH1 0x20 MUL ADD MLOAD EQ ISZERO PUSH2 0x26D0 JUMPI PUSH2 0x26CF DUP6 PUSH3 0xFFFFFF AND PUSH1 0x8 PUSH2 0x3580 SWAP1 SWAP2 SWAP1 PUSH4 0xFFFFFFFF AND JUMP JUMPDEST JUMPDEST POP PUSH2 0x2881 JUMP JUMPDEST DUP1 PUSH1 0x0 PUSH1 0x2 DUP2 LT PUSH2 0x26EA JUMPI PUSH2 0x26E9 PUSH2 0x4ED7 JUMP JUMPDEST JUMPDEST PUSH1 0x20 MUL ADD MLOAD DUP9 ADD SWAP8 POP DUP1 PUSH1 0x0 PUSH1 0x2 DUP2 LT PUSH2 0x2707 JUMPI PUSH2 0x2706 PUSH2 0x4ED7 JUMP JUMPDEST JUMPDEST PUSH1 0x20 MUL ADD MLOAD DUP4 SUB SWAP3 POP PUSH1 0x0 PUSH14 0xFFFFFFFFFFFFFFFFFFFFFFFFFFFF AND DUP2 PUSH1 0x0 PUSH1 0x2 DUP2 LT PUSH2 0x2736 JUMPI PUSH2 0x2735 PUSH2 0x4ED7 JUMP JUMPDEST JUMPDEST PUSH1 0x20 MUL ADD DUP2 DUP2 MSTORE POP POP PUSH2 0x2760 DUP2 PUSH1 0x0 PUSH1 0x2 DUP2 LT PUSH2 0x2756 JUMPI PUSH2 0x2755 PUSH2 0x4ED7 JUMP JUMPDEST JUMPDEST PUSH1 0x20 MUL ADD MLOAD PUSH2 0x374F JUMP JUMPDEST DUP7 PUSH1 0x40 ADD DUP2 DUP2 MLOAD SUB SWAP2 POP SWAP1 PUSH17 0xFFFFFFFFFFFFFFFFFFFFFFFFFFFFFFFFFF AND SWAP1 DUP2 PUSH17 0xFFFFFFFFFFFFFFFFFFFFFFFFFFFFFFFFFF AND DUP2 MSTORE POP POP PUSH2 0x27B0 DUP5 PUSH3 0xFFFFFF AND PUSH1 0xB PUSH2 0x3580 SWAP1 SWAP2 SWAP1 PUSH4 0xFFFFFFFF AND JUMP JUMPDEST PUSH1 0x0 PUSH2 0x27BB DUP6 PUSH2 0x2D96 JUMP JUMPDEST SWAP1 POP DUP4 DUP2 MUL DUP9 ADD SWAP8 POP PUSH2 0x27CF DUP5 DUP3 MUL PUSH2 0x330D JUMP JUMPDEST PUSH14 0xFFFFFFFFFFFFFFFFFFFFFFFFFFFF AND DUP3 PUSH1 0x1 PUSH1 0x2 DUP2 LT PUSH2 0x27F3 JUMPI PUSH2 0x27F2 PUSH2 0x4ED7 JUMP JUMPDEST JUMPDEST PUSH1 0x20 MUL ADD DUP2 DUP2 MLOAD SUB SWAP2 POP DUP2 DUP2 MSTORE POP POP PUSH2 0x280D DUP5 DUP3 MUL PUSH2 0x374F JUMP JUMPDEST DUP8 PUSH1 0x60 ADD DUP2 DUP2 MLOAD SUB SWAP2 POP SWAP1 PUSH17 0xFFFFFFFFFFFFFFFFFFFFFFFFFFFFFFFFFF AND SWAP1 DUP2 PUSH17 0xFFFFFFFFFFFFFFFFFFFFFFFFFFFFFFFFFF AND DUP2 MSTORE POP POP PUSH1 0x0 DUP3 PUSH1 0x1 PUSH1 0x2 DUP2 LT PUSH2 0x285A JUMPI PUSH2 0x2859 PUSH2 0x4ED7 JUMP JUMPDEST JUMPDEST PUSH1 0x20 MUL ADD MLOAD EQ ISZERO PUSH2 0x287F JUMPI PUSH2 0x287E DUP6 PUSH3 0xFFFFFF AND PUSH1 0x8 PUSH2 0x3580 SWAP1 SWAP2 SWAP1 PUSH4 0xFFFFFFFF AND JUMP JUMPDEST JUMPDEST POP JUMPDEST JUMPDEST PUSH2 0x2900 DUP11 PUSH1 0x11 PUSH1 0x0 DUP8 PUSH3 0xFFFFFF AND PUSH3 0xFFFFFF AND DUP2 MSTORE PUSH1 0x20 ADD SWAP1 DUP2 MSTORE PUSH1 0x20 ADD PUSH1 0x0 KECCAK256 DUP1 SLOAD DUP1 PUSH1 0x20 MUL PUSH1 0x20 ADD PUSH1 0x40 MLOAD SWAP1 DUP2 ADD PUSH1 0x40 MSTORE DUP1 SWAP3 SWAP2 SWAP1 DUP2 DUP2 MSTORE PUSH1 0x20 ADD DUP3 DUP1 SLOAD DUP1 ISZERO PUSH2 0x28ED JUMPI PUSH1 0x20 MUL DUP3 ADD SWAP2 SWAP1 PUSH1 0x0 MSTORE PUSH1 0x20 PUSH1 0x0 KECCAK256 SWAP1 JUMPDEST DUP2 SLOAD DUP2 MSTORE PUSH1 0x20 ADD SWAP1 PUSH1 0x1 ADD SWAP1 DUP1 DUP4 GT PUSH2 0x28D9 JUMPI JUMPDEST POP POP POP POP POP PUSH2 0x37B0 SWAP1 SWAP2 SWAP1 PUSH4 0xFFFFFFFF AND JUMP JUMPDEST PUSH1 0x11 PUSH1 0x0 DUP7 PUSH3 0xFFFFFF AND PUSH3 0xFFFFFF AND DUP2 MSTORE PUSH1 0x20 ADD SWAP1 DUP2 MSTORE PUSH1 0x20 ADD PUSH1 0x0 KECCAK256 SWAP1 DUP1 MLOAD SWAP1 PUSH1 0x20 ADD SWAP1 PUSH2 0x2930 SWAP3 SWAP2 SWAP1 PUSH2 0x455E JUMP JUMPDEST POP PUSH1 0xF PUSH1 0x0 DUP12 DUP2 MSTORE PUSH1 0x20 ADD SWAP1 DUP2 MSTORE PUSH1 0x20 ADD PUSH1 0x0 KECCAK256 PUSH1 0x0 DUP6 PUSH3 0xFFFFFF AND PUSH3 0xFFFFFF AND DUP2 MSTORE PUSH1 0x20 ADD SWAP1 DUP2 MSTORE PUSH1 0x20 ADD PUSH1 0x0 KECCAK256 PUSH1 0x0 SWAP1 SSTORE DUP1 PUSH1 0x7 PUSH1 0x0 DUP7 PUSH3 0xFFFFFF AND DUP2 MSTORE PUSH1 0x20 ADD SWAP1 DUP2 MSTORE PUSH1 0x20 ADD PUSH1 0x0 KECCAK256 SWAP1 PUSH1 0x2 PUSH2 0x298A SWAP3 SWAP2 SWAP1 PUSH2 0x4444 JUMP JUMPDEST POP POP DUP1 PUSH1 0x1 ADD SWAP1 POP PUSH2 0x23E9 JUMP JUMPDEST POP PUSH1 0x10 PUSH1 0x0 DUP10 DUP2 MSTORE PUSH1 0x20 ADD SWAP1 DUP2 MSTORE PUSH1 0x20 ADD PUSH1 0x0 KECCAK256 PUSH1 0x0 PUSH2 0x29B7 SWAP2 SWAP1 PUSH2 0x4536 JUMP JUMPDEST PUSH2 0x29CE PUSH1 0xB DUP6 PUSH1 0x8 PUSH2 0x30DB SWAP1 SWAP3 SWAP2 SWAP1 PUSH4 0xFFFFFFFF AND JUMP JUMPDEST DUP6 PUSH1 0x0 ADD DUP7 PUSH1 0x20 ADD DUP3 PUSH3 0xFFFFFF AND PUSH3 0xFFFFFF AND DUP2 MSTORE POP DUP3 PUSH3 0xFFFFFF AND PUSH3 0xFFFFFF AND DUP2 MSTORE POP POP POP PUSH1 0x0 PUSH1 0xE PUSH1 0x0 DUP11 DUP2 MSTORE PUSH1 0x20 ADD SWAP1 DUP2 MSTORE PUSH1 0x20 ADD PUSH1 0x0 KECCAK256 SLOAD SWAP1 POP PUSH1 0x0 DUP2 EQ PUSH2 0x2A92 JUMPI PUSH1 0xE PUSH1 0x0 DUP11 DUP2 MSTORE PUSH1 0x20 ADD SWAP1 DUP2 MSTORE PUSH1 0x20 ADD PUSH1 0x0 KECCAK256 PUSH1 0x0 SWAP1 SSTORE DUP1 DUP6 PUSH1 0x80 ADD DUP2 DUP2 MLOAD PUSH2 0x2A3D SWAP2 SWAP1 PUSH2 0x4FC3 JUMP JUMPDEST SWAP2 POP DUP2 DUP2 MSTORE POP POP PUSH2 0x2A91 DUP9 DUP3 PUSH1 0x2 PUSH1 0x0 SWAP1 SLOAD SWAP1 PUSH2 0x100 EXP SWAP1 DIV PUSH20 0xFFFFFFFFFFFFFFFFFFFFFFFFFFFFFFFFFFFFFFFF AND PUSH20 0xFFFFFFFFFFFFFFFFFFFFFFFFFFFFFFFFFFFFFFFF AND PUSH2 0x3178 SWAP1 SWAP3 SWAP2 SWAP1 PUSH4 0xFFFFFFFF AND JUMP JUMPDEST JUMPDEST DUP5 PUSH1 0x3 PUSH1 0x0 DUP3 ADD MLOAD DUP2 PUSH1 0x0 ADD PUSH1 0x0 PUSH2 0x100 EXP DUP2 SLOAD DUP2 PUSH3 0xFFFFFF MUL NOT AND SWAP1 DUP4 PUSH3 0xFFFFFF AND MUL OR SWAP1 SSTORE POP PUSH1 0x20 DUP3 ADD MLOAD DUP2 PUSH1 0x0 ADD PUSH1 0x3 PUSH2 0x100 EXP DUP2 SLOAD DUP2 PUSH3 0xFFFFFF MUL NOT AND SWAP1 DUP4 PUSH3 0xFFFFFF AND MUL OR SWAP1 SSTORE POP PUSH1 0x40 DUP3 ADD MLOAD DUP2 PUSH1 0x0 ADD PUSH1 0x6 PUSH2 0x100 EXP DUP2 SLOAD DUP2 PUSH17 0xFFFFFFFFFFFFFFFFFFFFFFFFFFFFFFFFFF MUL NOT AND SWAP1 DUP4 PUSH17 0xFFFFFFFFFFFFFFFFFFFFFFFFFFFFFFFFFF AND MUL OR SWAP1 SSTORE POP PUSH1 0x60 DUP3 ADD MLOAD DUP2 PUSH1 0x1 ADD PUSH1 0x0 PUSH2 0x100 EXP DUP2 SLOAD DUP2 PUSH17 0xFFFFFFFFFFFFFFFFFFFFFFFFFFFFFFFFFF MUL NOT AND SWAP1 DUP4 PUSH17 0xFFFFFFFFFFFFFFFFFFFFFFFFFFFFFFFFFF AND MUL OR SWAP1 SSTORE POP PUSH1 0x80 DUP3 ADD MLOAD DUP2 PUSH1 0x2 ADD SSTORE PUSH1 0xA0 DUP3 ADD MLOAD DUP2 PUSH1 0x3 ADD SSTORE SWAP1 POP POP PUSH2 0x2BC5 DUP9 DUP8 PUSH1 0x2 PUSH1 0x0 SWAP1 SLOAD SWAP1 PUSH2 0x100 EXP SWAP1 DIV PUSH20 0xFFFFFFFFFFFFFFFFFFFFFFFFFFFFFFFFFFFFFFFF AND PUSH20 0xFFFFFFFFFFFFFFFFFFFFFFFFFFFFFFFFFFFFFFFF AND PUSH2 0x3178 SWAP1 SWAP3 SWAP2 SWAP1 PUSH4 0xFFFFFFFF AND JUMP JUMPDEST PUSH1 0x16 PUSH1 0x0 SWAP1 SLOAD SWAP1 PUSH2 0x100 EXP SWAP1 DIV PUSH20 0xFFFFFFFFFFFFFFFFFFFFFFFFFFFFFFFFFFFFFFFF AND PUSH20 0xFFFFFFFFFFFFFFFFFFFFFFFFFFFFFFFFFFFFFFFF AND PUSH4 0x42966C68 DUP11 PUSH1 0x40 MLOAD DUP3 PUSH4 0xFFFFFFFF AND PUSH1 0xE0 SHL DUP2 MSTORE PUSH1 0x4 ADD PUSH2 0x2C20 SWAP2 SWAP1 PUSH2 0x49EA JUMP JUMPDEST PUSH1 0x0 PUSH1 0x40 MLOAD DUP1 DUP4 SUB DUP2 PUSH1 0x0 DUP8 DUP1 EXTCODESIZE ISZERO DUP1 ISZERO PUSH2 0x2C3A JUMPI PUSH1 0x0 DUP1 REVERT JUMPDEST POP GAS CALL ISZERO DUP1 ISZERO PUSH2 0x2C4E JUMPI RETURNDATASIZE PUSH1 0x0 DUP1 RETURNDATACOPY RETURNDATASIZE PUSH1 0x0 REVERT JUMPDEST POP POP POP POP POP POP POP POP POP PUSH1 0x1 PUSH1 0x0 DUP2 SWAP1 SSTORE POP SWAP3 POP SWAP3 SWAP1 POP JUMP JUMPDEST PUSH1 0x0 PUSH1 0xE PUSH1 0x0 DUP4 DUP2 MSTORE PUSH1 0x20 ADD SWAP1 DUP2 MSTORE PUSH1 0x20 ADD PUSH1 0x0 KECCAK256 SLOAD SWAP1 POP SWAP2 SWAP1 POP JUMP JUMPDEST PUSH1 0x0 PUSH2 0x2C8E DUP3 PUSH2 0x2D96 JUMP JUMPDEST SWAP1 POP SWAP2 SWAP1 POP JUMP JUMPDEST PUSH1 0x0 PUSH32 0x1FFC9A700000000000000000000000000000000000000000000000000000000 PUSH28 0xFFFFFFFFFFFFFFFFFFFFFFFFFFFFFFFFFFFFFFFFFFFFFFFFFFFFFFFF NOT AND DUP3 PUSH28 0xFFFFFFFFFFFFFFFFFFFFFFFFFFFFFFFFFFFFFFFFFFFFFFFFFFFFFFFF NOT AND EQ SWAP1 POP SWAP2 SWAP1 POP JUMP JUMPDEST PUSH1 0x0 DUP1 DUP3 DUP5 ADD SWAP1 POP DUP1 DUP6 PUSH20 0xFFFFFFFFFFFFFFFFFFFFFFFFFFFFFFFFFFFFFFFF AND PUSH4 0x70A08231 ADDRESS PUSH1 0x40 MLOAD DUP3 PUSH4 0xFFFFFFFF AND PUSH1 0xE0 SHL DUP2 MSTORE PUSH1 0x4 ADD PUSH2 0x2D41 SWAP2 SWAP1 PUSH2 0x5228 JUMP JUMPDEST PUSH1 0x20 PUSH1 0x40 MLOAD DUP1 DUP4 SUB DUP2 DUP7 GAS STATICCALL ISZERO DUP1 ISZERO PUSH2 0x2D5E JUMPI RETURNDATASIZE PUSH1 0x0 DUP1 RETURNDATACOPY RETURNDATASIZE PUSH1 0x0 REVERT JUMPDEST POP POP POP POP PUSH1 0x40 MLOAD RETURNDATASIZE PUSH1 0x1F NOT PUSH1 0x1F DUP3 ADD AND DUP3 ADD DUP1 PUSH1 0x40 MSTORE POP DUP2 ADD SWAP1 PUSH2 0x2D82 SWAP2 SWAP1 PUSH2 0x5258 JUMP JUMPDEST PUSH2 0x2D8C SWAP2 SWAP1 PUSH2 0x4FC3 JUMP JUMPDEST SWAP2 POP POP SWAP4 SWAP3 POP POP POP JUMP JUMPDEST PUSH1 0x0 PUSH2 0x2DA6 DUP3 PUSH3 0xFFFFFF AND PUSH2 0x3888 JUMP JUMPDEST SWAP1 POP PUSH2 0x2DC6 PUSH8 0xDE0B6B3A7640000 PUSH1 0x80 DUP4 PUSH2 0x38F5 SWAP1 SWAP3 SWAP2 SWAP1 PUSH4 0xFFFFFFFF AND JUMP JUMPDEST SWAP1 POP SWAP2 SWAP1 POP JUMP JUMPDEST PUSH1 0x1 PUSH1 0x0 SLOAD EQ PUSH2 0x2E09 JUMPI PUSH1 0x40 MLOAD PUSH32 0x802D9BF100000000000000000000000000000000000000000000000000000000 DUP2 MSTORE PUSH1 0x4 ADD PUSH1 0x40 MLOAD DUP1 SWAP2 SUB SWAP1 REVERT JUMPDEST PUSH1 0x2 PUSH1 0x0 DUP2 SWAP1 SSTORE POP PUSH1 0x0 PUSH1 0x11 PUSH1 0x0 DUP4 PUSH3 0xFFFFFF AND PUSH3 0xFFFFFF AND DUP2 MSTORE PUSH1 0x20 ADD SWAP1 DUP2 MSTORE PUSH1 0x20 ADD PUSH1 0x0 KECCAK256 DUP1 SLOAD DUP1 PUSH1 0x20 MUL PUSH1 0x20 ADD PUSH1 0x40 MLOAD SWAP1 DUP2 ADD PUSH1 0x40 MSTORE DUP1 SWAP3 SWAP2 SWAP1 DUP2 DUP2 MSTORE PUSH1 0x20 ADD DUP3 DUP1 SLOAD DUP1 ISZERO PUSH2 0x2E7A JUMPI PUSH1 0x20 MUL DUP3 ADD SWAP2 SWAP1 PUSH1 0x0 MSTORE PUSH1 0x20 PUSH1 0x0 KECCAK256 SWAP1 JUMPDEST DUP2 SLOAD DUP2 MSTORE PUSH1 0x20 ADD SWAP1 PUSH1 0x1 ADD SWAP1 DUP1 DUP4 GT PUSH2 0x2E66 JUMPI JUMPDEST POP POP POP POP POP SWAP1 POP PUSH1 0x0 PUSH1 0x12 PUSH1 0x0 DUP5 PUSH3 0xFFFFFF AND PUSH3 0xFFFFFF AND DUP2 MSTORE PUSH1 0x20 ADD SWAP1 DUP2 MSTORE PUSH1 0x20 ADD PUSH1 0x0 KECCAK256 SLOAD SWAP1 POP PUSH1 0x12 PUSH1 0x0 DUP5 PUSH3 0xFFFFFF AND PUSH3 0xFFFFFF AND DUP2 MSTORE PUSH1 0x20 ADD SWAP1 DUP2 MSTORE PUSH1 0x20 ADD PUSH1 0x0 KECCAK256 PUSH1 0x0 SWAP1 SSTORE PUSH1 0x0 PUSH2 0x2ECF DUP5 PUSH2 0x2D96 JUMP JUMPDEST PUSH1 0x7 PUSH1 0x0 DUP7 PUSH3 0xFFFFFF AND DUP2 MSTORE PUSH1 0x20 ADD SWAP1 DUP2 MSTORE PUSH1 0x20 ADD PUSH1 0x0 KECCAK256 PUSH1 0x1 PUSH1 0x2 DUP2 LT PUSH2 0x2EFA JUMPI PUSH2 0x2EF9 PUSH2 0x4ED7 JUMP JUMPDEST JUMPDEST ADD SLOAD PUSH2 0x2F06 SWAP2 SWAP1 PUSH2 0x50A3 JUMP JUMPDEST PUSH1 0x7 PUSH1 0x0 DUP7 PUSH3 0xFFFFFF AND DUP2 MSTORE PUSH1 0x20 ADD SWAP1 DUP2 MSTORE PUSH1 0x20 ADD PUSH1 0x0 KECCAK256 PUSH1 0x0 PUSH1 0x2 DUP2 LT PUSH2 0x2F31 JUMPI PUSH2 0x2F30 PUSH2 0x4ED7 JUMP JUMPDEST JUMPDEST ADD SLOAD PUSH2 0x2F3D SWAP2 SWAP1 PUSH2 0x4F35 JUMP JUMPDEST SWAP1 POP PUSH1 0x0 DUP2 DUP4 PUSH2 0x2F4D SWAP2 SWAP1 PUSH2 0x50A3 JUMP JUMPDEST SWAP1 POP PUSH1 0x0 JUMPDEST DUP5 MLOAD DUP2 LT ISZERO PUSH2 0x3005 JUMPI DUP2 PUSH1 0xF PUSH1 0x0 DUP8 DUP5 DUP2 MLOAD DUP2 LT PUSH2 0x2F73 JUMPI PUSH2 0x2F72 PUSH2 0x4ED7 JUMP JUMPDEST JUMPDEST PUSH1 0x20 MUL PUSH1 0x20 ADD ADD MLOAD DUP2 MSTORE PUSH1 0x20 ADD SWAP1 DUP2 MSTORE PUSH1 0x20 ADD PUSH1 0x0 KECCAK256 PUSH1 0x0 DUP9 PUSH3 0xFFFFFF AND PUSH3 0xFFFFFF AND DUP2 MSTORE PUSH1 0x20 ADD SWAP1 DUP2 MSTORE PUSH1 0x20 ADD PUSH1 0x0 KECCAK256 SLOAD PUSH2 0x2FAF SWAP2 SWAP1 PUSH2 0x51CE JUMP JUMPDEST PUSH1 0xE PUSH1 0x0 DUP8 DUP5 DUP2 MLOAD DUP2 LT PUSH2 0x2FC6 JUMPI PUSH2 0x2FC5 PUSH2 0x4ED7 JUMP JUMPDEST JUMPDEST PUSH1 0x20 MUL PUSH1 0x20 ADD ADD MLOAD DUP2 MSTORE PUSH1 0x20 ADD SWAP1 DUP2 MSTORE PUSH1 0x20 ADD PUSH1 0x0 KECCAK256 PUSH1 0x0 DUP3 DUP3 SLOAD PUSH2 0x2FEB SWAP2 SWAP1 PUSH2 0x4F35 JUMP JUMPDEST SWAP3 POP POP DUP2 SWAP1 SSTORE POP DUP1 DUP1 PUSH2 0x2FFD SWAP1 PUSH2 0x5285 JUMP JUMPDEST SWAP2 POP POP PUSH2 0x2F52 JUMP JUMPDEST POP POP POP POP POP PUSH1 0x1 PUSH1 0x0 DUP2 SWAP1 SSTORE POP POP JUMP JUMPDEST PUSH1 0x0 PUSH1 0x8 DUP3 SWAP1 SHR SWAP1 POP PUSH1 0x0 PUSH1 0x10 DUP4 SWAP1 SHR SWAP1 POP PUSH1 0xFF DUP4 AND PUSH1 0x1 SWAP1 SHL DUP5 PUSH1 0x2 PUSH1 0x3 DUP2 LT PUSH2 0x3043 JUMPI PUSH2 0x3042 PUSH2 0x4ED7 JUMP JUMPDEST JUMPDEST ADD PUSH1 0x0 DUP5 DUP2 MSTORE PUSH1 0x20 ADD SWAP1 DUP2 MSTORE PUSH1 0x20 ADD PUSH1 0x0 KECCAK256 PUSH1 0x0 DUP3 DUP3 SLOAD OR SWAP3 POP POP DUP2 SWAP1 SSTORE POP PUSH1 0xFF DUP3 AND PUSH1 0x1 SWAP1 SHL DUP5 PUSH1 0x1 PUSH1 0x3 DUP2 LT PUSH2 0x307E JUMPI PUSH2 0x307D PUSH2 0x4ED7 JUMP JUMPDEST JUMPDEST ADD PUSH1 0x0 DUP4 DUP2 MSTORE PUSH1 0x20 ADD SWAP1 DUP2 MSTORE PUSH1 0x20 ADD PUSH1 0x0 KECCAK256 PUSH1 0x0 DUP3 DUP3 SLOAD OR SWAP3 POP POP DUP2 SWAP1 SSTORE POP DUP1 PUSH1 0x1 SWAP1 SHL DUP5 PUSH1 0x0 PUSH1 0x3 DUP2 LT PUSH2 0x30B6 JUMPI PUSH2 0x30B5 PUSH2 0x4ED7 JUMP JUMPDEST JUMPDEST ADD PUSH1 0x0 DUP1 DUP2 MSTORE PUSH1 0x20 ADD SWAP1 DUP2 MSTORE PUSH1 0x20 ADD PUSH1 0x0 KECCAK256 PUSH1 0x0 DUP3 DUP3 SLOAD OR SWAP3 POP POP DUP2 SWAP1 SSTORE POP POP POP POP POP JUMP JUMPDEST PUSH1 0x0 DUP1 PUSH1 0x0 DUP4 PUSH1 0x40 ADD MLOAD PUSH17 0xFFFFFFFFFFFFFFFFFFFFFFFFFFFFFFFFFF AND EQ PUSH2 0x313E JUMPI PUSH2 0x3109 DUP5 PUSH1 0x0 DUP1 PUSH2 0x39C5 JUMP JUMPDEST SWAP1 POP PUSH1 0x0 DUP4 PUSH1 0x60 ADD MLOAD PUSH17 0xFFFFFFFFFFFFFFFFFFFFFFFFFFFFFFFFFF AND EQ PUSH2 0x3139 JUMPI PUSH2 0x3136 DUP6 DUP3 PUSH1 0x1 PUSH2 0x39C5 JUMP JUMPDEST SWAP2 POP JUMPDEST PUSH2 0x3170 JUMP JUMPDEST PUSH1 0x0 DUP4 PUSH1 0x60 ADD MLOAD PUSH17 0xFFFFFFFFFFFFFFFFFFFFFFFFFFFFFFFFFF AND EQ PUSH2 0x316F JUMPI PUSH2 0x316C DUP6 PUSH3 0xFFFFFF PUSH1 0x1 PUSH2 0x39C5 JUMP JUMPDEST SWAP2 POP JUMPDEST JUMPDEST SWAP4 POP SWAP4 SWAP2 POP POP JUMP JUMPDEST PUSH1 0x0 DUP2 EQ PUSH2 0x3266 JUMPI PUSH1 0x0 PUSH4 0xA9059CBB PUSH1 0xE0 SHL DUP4 DUP4 PUSH1 0x40 MLOAD PUSH1 0x24 ADD PUSH2 0x319D SWAP3 SWAP2 SWAP1 PUSH2 0x4F9A JUMP JUMPDEST PUSH1 0x40 MLOAD PUSH1 0x20 DUP2 DUP4 SUB SUB DUP2 MSTORE SWAP1 PUSH1 0x40 MSTORE SWAP1 PUSH28 0xFFFFFFFFFFFFFFFFFFFFFFFFFFFFFFFFFFFFFFFFFFFFFFFFFFFFFFFF NOT AND PUSH1 0x20 DUP3 ADD DUP1 MLOAD PUSH28 0xFFFFFFFFFFFFFFFFFFFFFFFFFFFFFFFFFFFFFFFFFFFFFFFFFFFFFFFF DUP4 DUP2 DUP4 AND OR DUP4 MSTORE POP POP POP POP SWAP1 POP PUSH1 0x0 PUSH2 0x3208 DUP6 DUP4 PUSH2 0x3CDA JUMP JUMPDEST SWAP1 POP PUSH1 0x0 DUP2 MLOAD GT DUP1 ISZERO PUSH2 0x322C JUMPI POP DUP1 DUP1 PUSH1 0x20 ADD SWAP1 MLOAD DUP2 ADD SWAP1 PUSH2 0x322A SWAP2 SWAP1 PUSH2 0x52FA JUMP JUMPDEST ISZERO JUMPDEST ISZERO PUSH2 0x3263 JUMPI PUSH1 0x40 MLOAD PUSH32 0x32E2717A00000000000000000000000000000000000000000000000000000000 DUP2 MSTORE PUSH1 0x4 ADD PUSH1 0x40 MLOAD DUP1 SWAP2 SUB SWAP1 REVERT JUMPDEST POP POP JUMPDEST POP POP POP JUMP JUMPDEST PUSH1 0x0 DUP1 DUP4 PUSH8 0xDE0B6B3A7640000 PUSH2 0x3282 SWAP2 SWAP1 PUSH2 0x4FC3 JUMP JUMPDEST SWAP1 POP DUP1 PUSH1 0x1 DUP3 DUP7 DUP7 PUSH2 0x3294 SWAP2 SWAP1 PUSH2 0x51CE JUMP JUMPDEST PUSH2 0x329E SWAP2 SWAP1 PUSH2 0x4F35 JUMP JUMPDEST PUSH2 0x32A8 SWAP2 SWAP1 PUSH2 0x4FC3 JUMP JUMPDEST PUSH2 0x32B2 SWAP2 SWAP1 PUSH2 0x50A3 JUMP JUMPDEST SWAP2 POP POP SWAP3 SWAP2 POP POP JUMP JUMPDEST PUSH1 0x0 DUP1 DUP3 SWAP2 POP PUSH2 0x2710 DUP5 DUP5 MUL DUP2 PUSH2 0x32D5 JUMPI PUSH2 0x32D4 PUSH2 0x5043 JUMP JUMPDEST JUMPDEST DIV SWAP1 POP SWAP3 POP SWAP3 SWAP1 POP JUMP JUMPDEST DUP2 DUP4 PUSH1 0x80 ADD DUP2 DUP2 MLOAD PUSH2 0x32F1 SWAP2 SWAP1 PUSH2 0x4F35 JUMP JUMPDEST SWAP2 POP DUP2 DUP2 MSTORE POP POP DUP1 DUP4 PUSH1 0xA0 ADD DUP2 DUP2 MLOAD ADD SWAP2 POP DUP2 DUP2 MSTORE POP POP POP POP POP JUMP JUMPDEST PUSH1 0x0 DUP2 DUP3 SWAP2 POP DUP2 PUSH14 0xFFFFFFFFFFFFFFFFFFFFFFFFFFFF AND EQ PUSH2 0x3366 JUMPI DUP2 PUSH1 0x40 MLOAD PUSH32 0x1CE5DCF700000000000000000000000000000000000000000000000000000000 DUP2 MSTORE PUSH1 0x4 ADD PUSH2 0x335D SWAP2 SWAP1 PUSH2 0x49EA JUMP JUMPDEST PUSH1 0x40 MLOAD DUP1 SWAP2 SUB SWAP1 REVERT JUMPDEST SWAP2 SWAP1 POP JUMP JUMPDEST DUP3 ISZERO PUSH2 0x3477 JUMPI DUP2 PUSH14 0xFFFFFFFFFFFFFFFFFFFFFFFFFFFF AND DUP6 PUSH1 0x0 PUSH1 0x2 DUP2 LT PUSH2 0x3396 JUMPI PUSH2 0x3395 PUSH2 0x4ED7 JUMP JUMPDEST JUMPDEST PUSH1 0x20 MUL ADD DUP2 DUP2 MLOAD PUSH2 0x33A7 SWAP2 SWAP1 PUSH2 0x4F35 JUMP JUMPDEST SWAP2 POP DUP2 DUP2 MSTORE POP POP DUP1 PUSH14 0xFFFFFFFFFFFFFFFFFFFFFFFFFFFF AND DUP6 PUSH1 0x1 PUSH1 0x2 DUP2 LT PUSH2 0x33D3 JUMPI PUSH2 0x33D2 PUSH2 0x4ED7 JUMP JUMPDEST JUMPDEST PUSH1 0x20 MUL ADD DUP2 DUP2 MLOAD SUB SWAP2 POP DUP2 DUP2 MSTORE POP POP DUP2 PUSH14 0xFFFFFFFFFFFFFFFFFFFFFFFFFFFF AND DUP5 PUSH1 0x40 ADD DUP2 DUP2 MLOAD ADD SWAP2 POP SWAP1 PUSH17 0xFFFFFFFFFFFFFFFFFFFFFFFFFFFFFFFFFF AND SWAP1 DUP2 PUSH17 0xFFFFFFFFFFFFFFFFFFFFFFFFFFFFFFFFFF AND DUP2 MSTORE POP POP DUP1 PUSH14 0xFFFFFFFFFFFFFFFFFFFFFFFFFFFF AND DUP5 PUSH1 0x60 ADD DUP2 DUP2 MLOAD SUB SWAP2 POP SWAP1 PUSH17 0xFFFFFFFFFFFFFFFFFFFFFFFFFFFFFFFFFF AND SWAP1 DUP2 PUSH17 0xFFFFFFFFFFFFFFFFFFFFFFFFFFFFFFFFFF AND DUP2 MSTORE POP POP PUSH2 0x3579 JUMP JUMPDEST DUP2 PUSH14 0xFFFFFFFFFFFFFFFFFFFFFFFFFFFF AND DUP6 PUSH1 0x1 PUSH1 0x2 DUP2 LT PUSH2 0x349C JUMPI PUSH2 0x349B PUSH2 0x4ED7 JUMP JUMPDEST JUMPDEST PUSH1 0x20 MUL ADD DUP2 DUP2 MLOAD PUSH2 0x34AD SWAP2 SWAP1 PUSH2 0x4F35 JUMP JUMPDEST SWAP2 POP DUP2 DUP2 MSTORE POP POP DUP1 PUSH14 0xFFFFFFFFFFFFFFFFFFFFFFFFFFFF AND DUP6 PUSH1 0x0 PUSH1 0x2 DUP2 LT PUSH2 0x34D9 JUMPI PUSH2 0x34D8 PUSH2 0x4ED7 JUMP JUMPDEST JUMPDEST PUSH1 0x20 MUL ADD DUP2 DUP2 MLOAD SUB SWAP2 POP DUP2 DUP2 MSTORE POP POP DUP1 PUSH14 0xFFFFFFFFFFFFFFFFFFFFFFFFFFFF AND DUP5 PUSH1 0x40 ADD DUP2 DUP2 MLOAD SUB SWAP2 POP SWAP1 PUSH17 0xFFFFFFFFFFFFFFFFFFFFFFFFFFFFFFFFFF AND SWAP1 DUP2 PUSH17 0xFFFFFFFFFFFFFFFFFFFFFFFFFFFFFFFFFF AND DUP2 MSTORE POP POP DUP2 PUSH14 0xFFFFFFFFFFFFFFFFFFFFFFFFFFFF AND DUP5 PUSH1 0x60 ADD DUP2 DUP2 MLOAD ADD SWAP2 POP SWAP1 PUSH17 0xFFFFFFFFFFFFFFFFFFFFFFFFFFFFFFFFFF AND SWAP1 DUP2 PUSH17 0xFFFFFFFFFFFFFFFFFFFFFFFFFFFFFFFFFF AND DUP2 MSTORE POP POP JUMPDEST POP POP POP POP POP JUMP JUMPDEST PUSH1 0x0 PUSH1 0x8 DUP3 SWAP1 SHR SWAP1 POP PUSH1 0x0 PUSH1 0xFF DUP4 AND PUSH1 0x1 SWAP1 SHL PUSH32 0xFFFFFFFFFFFFFFFFFFFFFFFFFFFFFFFFFFFFFFFFFFFFFFFFFFFFFFFFFFFFFFFF XOR DUP5 PUSH1 0x2 PUSH1 0x3 DUP2 LT PUSH2 0x35C9 JUMPI PUSH2 0x35C8 PUSH2 0x4ED7 JUMP JUMPDEST JUMPDEST ADD PUSH1 0x0 DUP5 DUP2 MSTORE PUSH1 0x20 ADD SWAP1 DUP2 MSTORE PUSH1 0x20 ADD PUSH1 0x0 KECCAK256 SLOAD AND SWAP1 POP DUP1 DUP5 PUSH1 0x2 PUSH1 0x3 DUP2 LT PUSH2 0x35F4 JUMPI PUSH2 0x35F3 PUSH2 0x4ED7 JUMP JUMPDEST JUMPDEST ADD PUSH1 0x0 DUP5 DUP2 MSTORE PUSH1 0x20 ADD SWAP1 DUP2 MSTORE PUSH1 0x20 ADD PUSH1 0x0 KECCAK256 DUP2 SWAP1 SSTORE POP PUSH1 0x0 DUP2 EQ ISZERO PUSH2 0x3701 JUMPI PUSH1 0x0 PUSH1 0x10 DUP5 SWAP1 SHR SWAP1 POP PUSH1 0xFF DUP4 AND PUSH1 0x1 SWAP1 SHL PUSH32 0xFFFFFFFFFFFFFFFFFFFFFFFFFFFFFFFFFFFFFFFFFFFFFFFFFFFFFFFFFFFFFFFF XOR DUP6 PUSH1 0x1 PUSH1 0x3 DUP2 LT PUSH2 0x365A JUMPI PUSH2 0x3659 PUSH2 0x4ED7 JUMP JUMPDEST JUMPDEST ADD PUSH1 0x0 DUP4 DUP2 MSTORE PUSH1 0x20 ADD SWAP1 DUP2 MSTORE PUSH1 0x20 ADD PUSH1 0x0 KECCAK256 SLOAD AND SWAP2 POP DUP2 DUP6 PUSH1 0x1 PUSH1 0x3 DUP2 LT PUSH2 0x3685 JUMPI PUSH2 0x3684 PUSH2 0x4ED7 JUMP JUMPDEST JUMPDEST ADD PUSH1 0x0 DUP4 DUP2 MSTORE PUSH1 0x20 ADD SWAP1 DUP2 MSTORE PUSH1 0x20 ADD PUSH1 0x0 KECCAK256 DUP2 SWAP1 SSTORE POP PUSH1 0x0 DUP3 EQ ISZERO PUSH2 0x36FF JUMPI DUP1 PUSH1 0x1 SWAP1 SHL PUSH32 0xFFFFFFFFFFFFFFFFFFFFFFFFFFFFFFFFFFFFFFFFFFFFFFFFFFFFFFFFFFFFFFFF XOR DUP6 PUSH1 0x0 PUSH1 0x3 DUP2 LT PUSH2 0x36DF JUMPI PUSH2 0x36DE PUSH2 0x4ED7 JUMP JUMPDEST JUMPDEST ADD PUSH1 0x0 DUP1 DUP2 MSTORE PUSH1 0x20 ADD SWAP1 DUP2 MSTORE PUSH1 0x20 ADD PUSH1 0x0 KECCAK256 PUSH1 0x0 DUP3 DUP3 SLOAD AND SWAP3 POP POP DUP2 SWAP1 SSTORE POP JUMPDEST POP JUMPDEST POP POP POP POP JUMP JUMPDEST PUSH1 0x0 PUSH8 0xDE0B6B3A7640000 PUSH1 0x1 PUSH8 0xDE0B6B3A7640000 DUP6 DUP6 PUSH2 0x3729 SWAP2 SWAP1 PUSH2 0x51CE JUMP JUMPDEST PUSH2 0x3733 SWAP2 SWAP1 PUSH2 0x4F35 JUMP JUMPDEST PUSH2 0x373D SWAP2 SWAP1 PUSH2 0x4FC3 JUMP JUMPDEST PUSH2 0x3747 SWAP2 SWAP1 PUSH2 0x50A3 JUMP JUMPDEST SWAP1 POP SWAP3 SWAP2 POP POP JUMP JUMPDEST PUSH1 0x0 DUP2 DUP3 SWAP2 POP DUP2 PUSH17 0xFFFFFFFFFFFFFFFFFFFFFFFFFFFFFFFFFF AND EQ PUSH2 0x37AB JUMPI DUP2 PUSH1 0x40 MLOAD PUSH32 0xBDBA3C9F00000000000000000000000000000000000000000000000000000000 DUP2 MSTORE PUSH1 0x4 ADD PUSH2 0x37A2 SWAP2 SWAP1 PUSH2 0x49EA JUMP JUMPDEST PUSH1 0x40 MLOAD DUP1 SWAP2 SUB SWAP1 REVERT JUMPDEST SWAP2 SWAP1 POP JUMP JUMPDEST PUSH1 0x60 PUSH1 0x0 PUSH1 0x1 DUP5 MLOAD PUSH2 0x37C2 SWAP2 SWAP1 PUSH2 0x4FC3 JUMP JUMPDEST PUSH8 0xFFFFFFFFFFFFFFFF DUP2 GT ISZERO PUSH2 0x37DB JUMPI PUSH2 0x37DA PUSH2 0x4A7F JUMP JUMPDEST JUMPDEST PUSH1 0x40 MLOAD SWAP1 DUP1 DUP3 MSTORE DUP1 PUSH1 0x20 MUL PUSH1 0x20 ADD DUP3 ADD PUSH1 0x40 MSTORE DUP1 ISZERO PUSH2 0x3809 JUMPI DUP2 PUSH1 0x20 ADD PUSH1 0x20 DUP3 MUL DUP1 CALLDATASIZE DUP4 CALLDATACOPY DUP1 DUP3 ADD SWAP2 POP POP SWAP1 POP JUMPDEST POP SWAP1 POP PUSH1 0x0 DUP1 JUMPDEST DUP6 MLOAD DUP2 LT ISZERO PUSH2 0x387C JUMPI DUP5 DUP2 EQ PUSH2 0x3869 JUMPI DUP6 DUP2 DUP2 MLOAD DUP2 LT PUSH2 0x3833 JUMPI PUSH2 0x3832 PUSH2 0x4ED7 JUMP JUMPDEST JUMPDEST PUSH1 0x20 MUL PUSH1 0x20 ADD ADD MLOAD DUP4 DUP4 DUP2 MLOAD DUP2 LT PUSH2 0x384E JUMPI PUSH2 0x384D PUSH2 0x4ED7 JUMP JUMPDEST JUMPDEST PUSH1 0x20 MUL PUSH1 0x20 ADD ADD DUP2 DUP2 MSTORE POP POP DUP2 DUP1 PUSH2 0x3865 SWAP1 PUSH2 0x5285 JUMP JUMPDEST SWAP3 POP POP JUMPDEST DUP1 DUP1 PUSH2 0x3874 SWAP1 PUSH2 0x5285 JUMP JUMPDEST SWAP2 POP POP PUSH2 0x3810 JUMP JUMPDEST POP DUP2 SWAP3 POP POP POP SWAP3 SWAP2 POP POP JUMP JUMPDEST PUSH1 0x0 PUSH3 0xFFFFFF DUP1 AND DUP3 GT ISZERO PUSH2 0x38C9 JUMPI PUSH1 0x40 MLOAD PUSH32 0x58F62EAC00000000000000000000000000000000000000000000000000000000 DUP2 MSTORE PUSH1 0x4 ADD PUSH1 0x40 MLOAD DUP1 SWAP2 SUB SWAP1 REVERT JUMPDEST PUSH1 0x0 PUSH3 0x800000 DUP4 SUB SWAP1 POP PUSH2 0x38ED DUP2 PUSH2 0x38DF PUSH2 0x3DF3 JUMP JUMPDEST PUSH2 0x3E19 SWAP1 SWAP2 SWAP1 PUSH4 0xFFFFFFFF AND JUMP JUMPDEST SWAP2 POP POP SWAP2 SWAP1 POP JUMP JUMPDEST PUSH1 0x0 PUSH1 0xFF DUP3 GT ISZERO PUSH2 0x393D JUMPI DUP2 PUSH1 0x40 MLOAD PUSH32 0xB72ECF5000000000000000000000000000000000000000000000000000000000 DUP2 MSTORE PUSH1 0x4 ADD PUSH2 0x3934 SWAP2 SWAP1 PUSH2 0x49EA JUMP JUMPDEST PUSH1 0x40 MLOAD DUP1 SWAP2 SUB SWAP1 REVERT JUMPDEST PUSH1 0x0 DUP1 PUSH2 0x394A DUP7 DUP7 PUSH2 0x4121 JUMP JUMPDEST SWAP2 POP SWAP2 POP PUSH1 0x0 DUP3 EQ PUSH2 0x395D JUMPI DUP4 DUP3 SWAP1 SHR SWAP3 POP JUMPDEST PUSH1 0x0 DUP2 EQ PUSH2 0x39BC JUMPI DUP4 PUSH1 0x1 SWAP1 SHL DUP2 LT PUSH2 0x39AF JUMPI DUP1 DUP5 PUSH1 0x40 MLOAD PUSH32 0x3D90990F00000000000000000000000000000000000000000000000000000000 DUP2 MSTORE PUSH1 0x4 ADD PUSH2 0x39A6 SWAP3 SWAP2 SWAP1 PUSH2 0x4718 JUMP JUMPDEST PUSH1 0x40 MLOAD DUP1 SWAP2 SUB SWAP1 REVERT JUMPDEST DUP4 PUSH2 0x100 SUB DUP2 SWAP1 SHL DUP4 ADD SWAP3 POP JUMPDEST POP POP SWAP4 SWAP3 POP POP POP JUMP JUMPDEST PUSH1 0x0 DUP1 PUSH1 0x0 PUSH2 0x39D3 DUP6 PUSH2 0x4140 JUMP JUMPDEST DUP1 PUSH3 0xFFFFFF AND SWAP1 POP DUP1 SWAP3 POP DUP2 SWAP7 POP POP POP DUP4 DUP1 ISZERO PUSH2 0x39F1 JUMPI POP PUSH1 0x0 DUP2 EQ ISZERO JUMPDEST DUP1 PUSH2 0x3A07 JUMPI POP DUP4 ISZERO DUP1 ISZERO PUSH2 0x3A06 JUMPI POP PUSH1 0xFF DUP2 EQ ISZERO JUMPDEST JUMPDEST ISZERO PUSH2 0x3A8C JUMPI DUP6 PUSH1 0x2 PUSH1 0x3 DUP2 LT PUSH2 0x3A20 JUMPI PUSH2 0x3A1F PUSH2 0x4ED7 JUMP JUMPDEST JUMPDEST ADD PUSH1 0x0 DUP7 PUSH3 0xFFFFFF AND DUP2 MSTORE PUSH1 0x20 ADD SWAP1 DUP2 MSTORE PUSH1 0x20 ADD PUSH1 0x0 KECCAK256 SLOAD SWAP2 POP PUSH2 0x3A4F DUP2 DUP6 DUP5 PUSH2 0x415A SWAP1 SWAP3 SWAP2 SWAP1 PUSH4 0xFFFFFFFF AND JUMP JUMPDEST SWAP1 POP PUSH32 0xFFFFFFFFFFFFFFFFFFFFFFFFFFFFFFFFFFFFFFFFFFFFFFFFFFFFFFFFFFFFFFFF DUP2 EQ PUSH2 0x3A8B JUMPI PUSH2 0x3A82 DUP6 DUP3 PUSH2 0x419C JUMP JUMPDEST SWAP3 POP POP POP PUSH2 0x3CD3 JUMP JUMPDEST JUMPDEST PUSH2 0x3A95 DUP6 PUSH2 0x4140 JUMP JUMPDEST DUP1 PUSH3 0xFFFFFF AND SWAP1 POP DUP1 SWAP3 POP DUP2 SWAP7 POP POP POP DUP4 DUP1 ISZERO PUSH2 0x3AB3 JUMPI POP PUSH1 0x0 DUP2 EQ ISZERO JUMPDEST DUP1 PUSH2 0x3AC9 JUMPI POP DUP4 ISZERO DUP1 ISZERO PUSH2 0x3AC8 JUMPI POP PUSH1 0xFF DUP2 EQ ISZERO JUMPDEST JUMPDEST ISZERO PUSH2 0x3B9D JUMPI DUP6 PUSH1 0x1 PUSH1 0x3 DUP2 LT PUSH2 0x3AE2 JUMPI PUSH2 0x3AE1 PUSH2 0x4ED7 JUMP JUMPDEST JUMPDEST ADD PUSH1 0x0 DUP7 PUSH3 0xFFFFFF AND DUP2 MSTORE PUSH1 0x20 ADD SWAP1 DUP2 MSTORE PUSH1 0x20 ADD PUSH1 0x0 KECCAK256 SLOAD SWAP2 POP PUSH2 0x3B11 DUP2 DUP6 DUP5 PUSH2 0x415A SWAP1 SWAP3 SWAP2 SWAP1 PUSH4 0xFFFFFFFF AND JUMP JUMPDEST SWAP1 POP PUSH32 0xFFFFFFFFFFFFFFFFFFFFFFFFFFFFFFFFFFFFFFFFFFFFFFFFFFFFFFFFFFFFFFFF DUP2 EQ PUSH2 0x3B9C JUMPI PUSH2 0x3B44 DUP6 DUP3 PUSH2 0x419C JUMP JUMPDEST SWAP5 POP DUP6 PUSH1 0x2 PUSH1 0x3 DUP2 LT PUSH2 0x3B5A JUMPI PUSH2 0x3B59 PUSH2 0x4ED7 JUMP JUMPDEST JUMPDEST ADD PUSH1 0x0 DUP7 PUSH3 0xFFFFFF AND DUP2 MSTORE PUSH1 0x20 ADD SWAP1 DUP2 MSTORE PUSH1 0x20 ADD PUSH1 0x0 KECCAK256 SLOAD SWAP2 POP PUSH2 0x3B93 DUP6 PUSH2 0x3B8B DUP7 DUP6 PUSH2 0x41B2 SWAP1 SWAP2 SWAP1 PUSH4 0xFFFFFFFF AND JUMP JUMPDEST PUSH1 0xFF AND PUSH2 0x419C JUMP JUMPDEST SWAP3 POP POP POP PUSH2 0x3CD3 JUMP JUMPDEST JUMPDEST DUP6 PUSH1 0x0 PUSH1 0x3 DUP2 LT PUSH2 0x3BB1 JUMPI PUSH2 0x3BB0 PUSH2 0x4ED7 JUMP JUMPDEST JUMPDEST ADD PUSH1 0x0 DUP1 DUP2 MSTORE PUSH1 0x20 ADD SWAP1 DUP2 MSTORE PUSH1 0x20 ADD PUSH1 0x0 KECCAK256 SLOAD SWAP2 POP PUSH2 0x3BDB DUP6 DUP6 DUP5 PUSH2 0x415A SWAP1 SWAP3 SWAP2 SWAP1 PUSH4 0xFFFFFFFF AND JUMP JUMPDEST SWAP1 POP PUSH32 0xFFFFFFFFFFFFFFFFFFFFFFFFFFFFFFFFFFFFFFFFFFFFFFFFFFFFFFFFFFFFFFFF DUP2 EQ ISZERO PUSH2 0x3C37 JUMPI PUSH1 0x40 MLOAD PUSH32 0x10D6486100000000000000000000000000000000000000000000000000000000 DUP2 MSTORE PUSH1 0x4 ADD PUSH1 0x40 MLOAD DUP1 SWAP2 SUB SWAP1 REVERT JUMPDEST DUP6 PUSH1 0x1 PUSH1 0x3 DUP2 LT PUSH2 0x3C4B JUMPI PUSH2 0x3C4A PUSH2 0x4ED7 JUMP JUMPDEST JUMPDEST ADD PUSH1 0x0 DUP3 DUP2 MSTORE PUSH1 0x20 ADD SWAP1 DUP2 MSTORE PUSH1 0x20 ADD PUSH1 0x0 KECCAK256 SLOAD SWAP2 POP PUSH2 0x3C7F DUP2 PUSH2 0x3C77 DUP7 DUP6 PUSH2 0x41B2 SWAP1 SWAP2 SWAP1 PUSH4 0xFFFFFFFF AND JUMP JUMPDEST PUSH1 0xFF AND PUSH2 0x419C JUMP JUMPDEST SWAP5 POP DUP6 PUSH1 0x2 PUSH1 0x3 DUP2 LT PUSH2 0x3C95 JUMPI PUSH2 0x3C94 PUSH2 0x4ED7 JUMP JUMPDEST JUMPDEST ADD PUSH1 0x0 DUP7 PUSH3 0xFFFFFF AND DUP2 MSTORE PUSH1 0x20 ADD SWAP1 DUP2 MSTORE PUSH1 0x20 ADD PUSH1 0x0 KECCAK256 SLOAD SWAP2 POP PUSH2 0x3CCE DUP6 PUSH2 0x3CC6 DUP7 DUP6 PUSH2 0x41B2 SWAP1 SWAP2 SWAP1 PUSH4 0xFFFFFFFF AND JUMP JUMPDEST PUSH1 0xFF AND PUSH2 0x419C JUMP JUMPDEST SWAP3 POP POP POP JUMPDEST SWAP4 SWAP3 POP POP POP JUMP JUMPDEST PUSH1 0x60 PUSH1 0x0 DUP1 DUP5 PUSH20 0xFFFFFFFFFFFFFFFFFFFFFFFFFFFFFFFFFFFFFFFF AND DUP5 PUSH1 0x40 MLOAD PUSH2 0x3D04 SWAP2 SWAP1 PUSH2 0x53A1 JUMP JUMPDEST PUSH1 0x0 PUSH1 0x40 MLOAD DUP1 DUP4 SUB DUP2 PUSH1 0x0 DUP7 GAS CALL SWAP2 POP POP RETURNDATASIZE DUP1 PUSH1 0x0 DUP2 EQ PUSH2 0x3D41 JUMPI PUSH1 0x40 MLOAD SWAP2 POP PUSH1 0x1F NOT PUSH1 0x3F RETURNDATASIZE ADD AND DUP3 ADD PUSH1 0x40 MSTORE RETURNDATASIZE DUP3 MSTORE RETURNDATASIZE PUSH1 0x0 PUSH1 0x20 DUP5 ADD RETURNDATACOPY PUSH2 0x3D46 JUMP JUMPDEST PUSH1 0x60 SWAP2 POP JUMPDEST POP SWAP2 POP SWAP2 POP DUP2 ISZERO PUSH2 0x3DA4 JUMPI PUSH1 0x0 DUP2 MLOAD EQ DUP1 ISZERO PUSH2 0x3D68 JUMPI POP PUSH2 0x3D66 DUP6 PUSH2 0x41D9 JUMP JUMPDEST ISZERO JUMPDEST ISZERO PUSH2 0x3D9F JUMPI PUSH1 0x40 MLOAD PUSH32 0x5D97DF8900000000000000000000000000000000000000000000000000000000 DUP2 MSTORE PUSH1 0x4 ADD PUSH1 0x40 MLOAD DUP1 SWAP2 SUB SWAP1 REVERT JUMPDEST PUSH2 0x3DE8 JUMP JUMPDEST PUSH1 0x0 DUP2 MLOAD EQ ISZERO PUSH2 0x3DE0 JUMPI PUSH1 0x40 MLOAD PUSH32 0x2407429100000000000000000000000000000000000000000000000000000000 DUP2 MSTORE PUSH1 0x4 ADD PUSH1 0x40 MLOAD DUP1 SWAP2 SUB SWAP1 REVERT JUMPDEST DUP1 MLOAD DUP2 PUSH1 0x20 ADD REVERT JUMPDEST DUP1 SWAP3 POP POP POP SWAP3 SWAP2 POP POP JUMP JUMPDEST PUSH1 0x0 PUSH2 0x2710 PUSH1 0x80 PUSH1 0x1 SWAP1 SHL DUP2 PUSH2 0x3E0C JUMPI PUSH2 0x3E0B PUSH2 0x5043 JUMP JUMPDEST JUMPDEST DIV PUSH1 0x80 PUSH1 0x1 SWAP1 SHL ADD SWAP1 POP SWAP1 JUMP JUMPDEST PUSH1 0x0 DUP1 PUSH1 0x0 DUP1 DUP5 EQ ISZERO PUSH2 0x3E35 JUMPI PUSH1 0x80 PUSH1 0x1 SWAP1 SHL SWAP3 POP POP POP PUSH2 0x411B JUMP JUMPDEST DUP4 SWAP1 POP PUSH1 0x0 DUP2 SLT ISZERO PUSH2 0x3E4C JUMPI DUP1 PUSH1 0x0 SUB SWAP1 POP DUP2 ISZERO SWAP2 POP JUMPDEST PUSH3 0x100000 DUP2 LT ISZERO PUSH2 0x4096 JUMPI PUSH1 0x80 PUSH1 0x1 SWAP1 SHL SWAP3 POP DUP5 PUSH16 0xFFFFFFFFFFFFFFFFFFFFFFFFFFFFFFFF DUP7 GT ISZERO PUSH2 0x3E84 JUMPI DUP1 PUSH1 0x0 NOT DIV SWAP1 POP DUP3 ISZERO SWAP3 POP JUMPDEST PUSH1 0x1 DUP3 AND ISZERO PUSH2 0x3E96 JUMPI DUP1 DUP5 MUL PUSH1 0x80 SHR SWAP4 POP JUMPDEST DUP1 DUP2 MUL PUSH1 0x80 SHR SWAP1 POP PUSH1 0x2 DUP3 AND ISZERO PUSH2 0x3EB0 JUMPI DUP1 DUP5 MUL PUSH1 0x80 SHR SWAP4 POP JUMPDEST DUP1 DUP2 MUL PUSH1 0x80 SHR SWAP1 POP PUSH1 0x4 DUP3 AND ISZERO PUSH2 0x3ECA JUMPI DUP1 DUP5 MUL PUSH1 0x80 SHR SWAP4 POP JUMPDEST DUP1 DUP2 MUL PUSH1 0x80 SHR SWAP1 POP PUSH1 0x8 DUP3 AND ISZERO PUSH2 0x3EE4 JUMPI DUP1 DUP5 MUL PUSH1 0x80 SHR SWAP4 POP JUMPDEST DUP1 DUP2 MUL PUSH1 0x80 SHR SWAP1 POP PUSH1 0x10 DUP3 AND ISZERO PUSH2 0x3EFE JUMPI DUP1 DUP5 MUL PUSH1 0x80 SHR SWAP4 POP JUMPDEST DUP1 DUP2 MUL PUSH1 0x80 SHR SWAP1 POP PUSH1 0x20 DUP3 AND ISZERO PUSH2 0x3F18 JUMPI DUP1 DUP5 MUL PUSH1 0x80 SHR SWAP4 POP JUMPDEST DUP1 DUP2 MUL PUSH1 0x80 SHR SWAP1 POP PUSH1 0x40 DUP3 AND ISZERO PUSH2 0x3F32 JUMPI DUP1 DUP5 MUL PUSH1 0x80 SHR SWAP4 POP JUMPDEST DUP1 DUP2 MUL PUSH1 0x80 SHR SWAP1 POP PUSH1 0x80 DUP3 AND ISZERO PUSH2 0x3F4C JUMPI DUP1 DUP5 MUL PUSH1 0x80 SHR SWAP4 POP JUMPDEST DUP1 DUP2 MUL PUSH1 0x80 SHR SWAP1 POP PUSH2 0x100 DUP3 AND ISZERO PUSH2 0x3F67 JUMPI DUP1 DUP5 MUL PUSH1 0x80 SHR SWAP4 POP JUMPDEST DUP1 DUP2 MUL PUSH1 0x80 SHR SWAP1 POP PUSH2 0x200 DUP3 AND ISZERO PUSH2 0x3F82 JUMPI DUP1 DUP5 MUL PUSH1 0x80 SHR SWAP4 POP JUMPDEST DUP1 DUP2 MUL PUSH1 0x80 SHR SWAP1 POP PUSH2 0x400 DUP3 AND ISZERO PUSH2 0x3F9D JUMPI DUP1 DUP5 MUL PUSH1 0x80 SHR SWAP4 POP JUMPDEST DUP1 DUP2 MUL PUSH1 0x80 SHR SWAP1 POP PUSH2 0x800 DUP3 AND ISZERO PUSH2 0x3FB8 JUMPI DUP1 DUP5 MUL PUSH1 0x80 SHR SWAP4 POP JUMPDEST DUP1 DUP2 MUL PUSH1 0x80 SHR SWAP1 POP PUSH2 0x1000 DUP3 AND ISZERO PUSH2 0x3FD3 JUMPI DUP1 DUP5 MUL PUSH1 0x80 SHR SWAP4 POP JUMPDEST DUP1 DUP2 MUL PUSH1 0x80 SHR SWAP1 POP PUSH2 0x2000 DUP3 AND ISZERO PUSH2 0x3FEE JUMPI DUP1 DUP5 MUL PUSH1 0x80 SHR SWAP4 POP JUMPDEST DUP1 DUP2 MUL PUSH1 0x80 SHR SWAP1 POP PUSH2 0x4000 DUP3 AND ISZERO PUSH2 0x4009 JUMPI DUP1 DUP5 MUL PUSH1 0x80 SHR SWAP4 POP JUMPDEST DUP1 DUP2 MUL PUSH1 0x80 SHR SWAP1 POP PUSH2 0x8000 DUP3 AND ISZERO PUSH2 0x4024 JUMPI DUP1 DUP5 MUL PUSH1 0x80 SHR SWAP4 POP JUMPDEST DUP1 DUP2 MUL PUSH1 0x80 SHR SWAP1 POP PUSH3 0x10000 DUP3 AND ISZERO PUSH2 0x4040 JUMPI DUP1 DUP5 MUL PUSH1 0x80 SHR SWAP4 POP JUMPDEST DUP1 DUP2 MUL PUSH1 0x80 SHR SWAP1 POP PUSH3 0x20000 DUP3 AND ISZERO PUSH2 0x405C JUMPI DUP1 DUP5 MUL PUSH1 0x80 SHR SWAP4 POP JUMPDEST DUP1 DUP2 MUL PUSH1 0x80 SHR SWAP1 POP PUSH3 0x40000 DUP3 AND ISZERO PUSH2 0x4078 JUMPI DUP1 DUP5 MUL PUSH1 0x80 SHR SWAP4 POP JUMPDEST DUP1 DUP2 MUL PUSH1 0x80 SHR SWAP1 POP PUSH3 0x80000 DUP3 AND ISZERO PUSH2 0x4094 JUMPI DUP1 DUP5 MUL PUSH1 0x80 SHR SWAP4 POP JUMPDEST POP JUMPDEST PUSH1 0x0 DUP4 EQ ISZERO PUSH2 0x40DE JUMPI DUP5 DUP5 PUSH1 0x40 MLOAD PUSH32 0x74E3EB0800000000000000000000000000000000000000000000000000000000 DUP2 MSTORE PUSH1 0x4 ADD PUSH2 0x40D5 SWAP3 SWAP2 SWAP1 PUSH2 0x53D1 JUMP JUMPDEST PUSH1 0x40 MLOAD DUP1 SWAP2 SUB SWAP1 REVERT JUMPDEST DUP2 PUSH2 0x40E9 JUMPI DUP3 PUSH2 0x4116 JUMP JUMPDEST DUP3 PUSH32 0xFFFFFFFFFFFFFFFFFFFFFFFFFFFFFFFFFFFFFFFFFFFFFFFFFFFFFFFFFFFFFFFF PUSH2 0x4115 SWAP2 SWAP1 PUSH2 0x50A3 JUMP JUMPDEST JUMPDEST SWAP3 POP POP POP JUMPDEST SWAP3 SWAP2 POP POP JUMP JUMPDEST PUSH1 0x0 DUP1 PUSH1 0x0 NOT DUP4 DUP6 MULMOD DUP4 DUP6 MUL SWAP3 POP DUP3 DUP2 LT DUP4 DUP3 SUB SUB SWAP2 POP POP SWAP3 POP SWAP3 SWAP1 POP JUMP JUMPDEST PUSH1 0x0 DUP1 PUSH1 0x8 DUP4 PUSH3 0xFFFFFF AND SWAP1 SHR PUSH1 0xFF DUP5 AND SWAP2 POP SWAP2 POP SWAP2 POP SWAP2 JUMP JUMPDEST PUSH1 0x0 DUP2 PUSH2 0x417C JUMPI PUSH2 0x4177 DUP5 PUSH1 0x1 DUP6 PUSH2 0x4172 SWAP2 SWAP1 PUSH2 0x5407 JUMP JUMPDEST PUSH2 0x41FC JUMP JUMPDEST PUSH2 0x4193 JUMP JUMPDEST PUSH2 0x4192 DUP5 PUSH1 0x1 DUP6 PUSH2 0x418D SWAP2 SWAP1 PUSH2 0x543E JUMP JUMPDEST PUSH2 0x424C JUMP JUMPDEST JUMPDEST SWAP1 POP SWAP4 SWAP3 POP POP POP JUMP JUMPDEST PUSH1 0x0 DUP2 PUSH1 0x8 DUP5 PUSH3 0xFFFFFF AND SWAP1 SHL ADD SWAP1 POP SWAP3 SWAP2 POP POP JUMP JUMPDEST PUSH1 0x0 DUP2 PUSH2 0x41C7 JUMPI PUSH2 0x41C2 DUP4 PUSH2 0x42A4 JUMP JUMPDEST PUSH2 0x41D1 JUMP JUMPDEST PUSH2 0x41D0 DUP4 PUSH2 0x4377 JUMP JUMPDEST JUMPDEST SWAP1 POP SWAP3 SWAP2 POP POP JUMP JUMPDEST PUSH1 0x0 DUP1 DUP3 PUSH20 0xFFFFFFFFFFFFFFFFFFFFFFFFFFFFFFFFFFFFFFFF AND EXTCODESIZE GT SWAP1 POP SWAP2 SWAP1 POP JUMP JUMPDEST PUSH1 0x0 DUP2 PUSH1 0xFF AND DUP4 SWAP1 SHR SWAP3 POP PUSH1 0x0 DUP4 EQ PUSH2 0x4222 JUMPI DUP2 PUSH2 0x4219 DUP5 PUSH2 0x42A4 JUMP JUMPDEST ADD PUSH1 0xFF AND PUSH2 0x4244 JUMP JUMPDEST PUSH32 0xFFFFFFFFFFFFFFFFFFFFFFFFFFFFFFFFFFFFFFFFFFFFFFFFFFFFFFFFFFFFFFFF JUMPDEST SWAP1 POP SWAP3 SWAP2 POP POP JUMP JUMPDEST PUSH1 0x0 DUP1 DUP3 PUSH1 0xFF SUB PUSH1 0xFF AND SWAP1 POP DUP1 DUP5 SWAP1 SHL SWAP4 POP PUSH1 0x0 DUP5 EQ PUSH2 0x4279 JUMPI DUP1 PUSH2 0x4270 DUP6 PUSH2 0x4377 JUMP JUMPDEST PUSH1 0xFF AND SUB PUSH2 0x429B JUMP JUMPDEST PUSH32 0xFFFFFFFFFFFFFFFFFFFFFFFFFFFFFFFFFFFFFFFFFFFFFFFFFFFFFFFFFFFFFFFF JUMPDEST SWAP2 POP POP SWAP3 SWAP2 POP POP JUMP JUMPDEST PUSH1 0x0 DUP1 PUSH1 0x80 DUP4 SWAP1 SHL EQ PUSH2 0x42BD JUMPI PUSH1 0x80 DUP3 SWAP1 SHL SWAP2 POP PUSH1 0x80 SWAP1 POP JUMPDEST PUSH1 0x0 PUSH1 0x40 DUP4 SWAP1 SHL EQ PUSH2 0x42D7 JUMPI PUSH1 0x40 DUP3 SWAP1 SHL SWAP2 POP PUSH1 0x40 DUP2 ADD SWAP1 POP JUMPDEST PUSH1 0x0 PUSH1 0x20 DUP4 SWAP1 SHL EQ PUSH2 0x42F1 JUMPI PUSH1 0x20 DUP3 SWAP1 SHL SWAP2 POP PUSH1 0x20 DUP2 ADD SWAP1 POP JUMPDEST PUSH1 0x0 PUSH1 0x10 DUP4 SWAP1 SHL EQ PUSH2 0x430B JUMPI PUSH1 0x10 DUP3 SWAP1 SHL SWAP2 POP PUSH1 0x10 DUP2 ADD SWAP1 POP JUMPDEST PUSH1 0x0 PUSH1 0x8 DUP4 SWAP1 SHL EQ PUSH2 0x4325 JUMPI PUSH1 0x8 DUP3 SWAP1 SHL SWAP2 POP PUSH1 0x8 DUP2 ADD SWAP1 POP JUMPDEST PUSH1 0x0 PUSH1 0x4 DUP4 SWAP1 SHL EQ PUSH2 0x433F JUMPI PUSH1 0x4 DUP3 SWAP1 SHL SWAP2 POP PUSH1 0x4 DUP2 ADD SWAP1 POP JUMPDEST PUSH1 0x0 PUSH1 0x2 DUP4 SWAP1 SHL EQ PUSH2 0x4359 JUMPI PUSH1 0x2 DUP3 SWAP1 SHL SWAP2 POP PUSH1 0x2 DUP2 ADD SWAP1 POP JUMPDEST PUSH1 0x0 PUSH1 0x1 DUP4 SWAP1 SHL EQ PUSH2 0x436C JUMPI PUSH1 0x1 DUP2 ADD SWAP1 POP JUMPDEST DUP1 PUSH1 0xFF SUB SWAP1 POP SWAP2 SWAP1 POP JUMP JUMPDEST PUSH1 0x0 PUSH17 0x100000000000000000000000000000000 DUP3 LT PUSH2 0x439D JUMPI PUSH1 0x80 DUP3 SWAP1 SHR SWAP2 POP PUSH1 0x80 SWAP1 POP JUMPDEST PUSH9 0x10000000000000000 DUP3 LT PUSH2 0x43BB JUMPI PUSH1 0x40 DUP3 SWAP1 SHR SWAP2 POP PUSH1 0x40 DUP2 ADD SWAP1 POP JUMPDEST PUSH5 0x100000000 DUP3 LT PUSH2 0x43D5 JUMPI PUSH1 0x20 DUP3 SWAP1 SHR SWAP2 POP PUSH1 0x20 DUP2 ADD SWAP1 POP JUMPDEST PUSH3 0x10000 DUP3 LT PUSH2 0x43ED JUMPI PUSH1 0x10 DUP3 SWAP1 SHR SWAP2 POP PUSH1 0x10 DUP2 ADD SWAP1 POP JUMPDEST PUSH2 0x100 DUP3 LT PUSH2 0x4404 JUMPI PUSH1 0x8 DUP3 SWAP1 SHR SWAP2 POP PUSH1 0x8 DUP2 ADD SWAP1 POP JUMPDEST PUSH1 0x10 DUP3 LT PUSH2 0x441A JUMPI PUSH1 0x4 DUP3 SWAP1 SHR SWAP2 POP PUSH1 0x4 DUP2 ADD SWAP1 POP JUMPDEST PUSH1 0x4 DUP3 LT PUSH2 0x4430 JUMPI PUSH1 0x2 DUP3 SWAP1 SHR SWAP2 POP PUSH1 0x2 DUP2 ADD SWAP1 POP JUMPDEST PUSH1 0x2 DUP3 LT PUSH2 0x443F JUMPI PUSH1 0x1 DUP2 ADD SWAP1 POP JUMPDEST SWAP2 SWAP1 POP JUMP JUMPDEST DUP3 PUSH1 0x2 DUP2 ADD SWAP3 DUP3 ISZERO PUSH2 0x4473 JUMPI SWAP2 PUSH1 0x20 MUL DUP3 ADD JUMPDEST DUP3 DUP2 GT ISZERO PUSH2 0x4472 JUMPI DUP3 MLOAD DUP3 SSTORE SWAP2 PUSH1 0x20 ADD SWAP2 SWAP1 PUSH1 0x1 ADD SWAP1 PUSH2 0x4457 JUMP JUMPDEST JUMPDEST POP SWAP1 POP PUSH2 0x4480 SWAP2 SWAP1 PUSH2 0x45AB JUMP JUMPDEST POP SWAP1 JUMP JUMPDEST DUP3 DUP1 SLOAD DUP3 DUP3 SSTORE SWAP1 PUSH1 0x0 MSTORE PUSH1 0x20 PUSH1 0x0 KECCAK256 SWAP1 PUSH1 0x9 ADD PUSH1 0xA SWAP1 DIV DUP2 ADD SWAP3 DUP3 ISZERO PUSH2 0x4525 JUMPI SWAP2 PUSH1 0x20 MUL DUP3 ADD PUSH1 0x0 JUMPDEST DUP4 DUP3 GT ISZERO PUSH2 0x44F4 JUMPI DUP4 CALLDATALOAD PUSH3 0xFFFFFF AND DUP4 DUP3 PUSH2 0x100 EXP DUP2 SLOAD DUP2 PUSH3 0xFFFFFF MUL NOT AND SWAP1 DUP4 PUSH3 0xFFFFFF AND MUL OR SWAP1 SSTORE POP SWAP3 PUSH1 0x20 ADD SWAP3 PUSH1 0x3 ADD PUSH1 0x20 DUP2 PUSH1 0x2 ADD DIV SWAP3 DUP4 ADD SWAP3 PUSH1 0x1 SUB MUL PUSH2 0x44AD JUMP JUMPDEST DUP1 ISZERO PUSH2 0x4523 JUMPI DUP3 DUP2 PUSH2 0x100 EXP DUP2 SLOAD SWAP1 PUSH3 0xFFFFFF MUL NOT AND SWAP1 SSTORE PUSH1 0x3 ADD PUSH1 0x20 DUP2 PUSH1 0x2 ADD DIV SWAP3 DUP4 ADD SWAP3 PUSH1 0x1 SUB MUL PUSH2 0x44F4 JUMP JUMPDEST POP JUMPDEST POP SWAP1 POP PUSH2 0x4532 SWAP2 SWAP1 PUSH2 0x45AB JUMP JUMPDEST POP SWAP1 JUMP JUMPDEST POP DUP1 SLOAD PUSH1 0x0 DUP3 SSTORE PUSH1 0x9 ADD PUSH1 0xA SWAP1 DIV SWAP1 PUSH1 0x0 MSTORE PUSH1 0x20 PUSH1 0x0 KECCAK256 SWAP1 DUP2 ADD SWAP1 PUSH2 0x455B SWAP2 SWAP1 PUSH2 0x45AB JUMP JUMPDEST POP JUMP JUMPDEST DUP3 DUP1 SLOAD DUP3 DUP3 SSTORE SWAP1 PUSH1 0x0 MSTORE PUSH1 0x20 PUSH1 0x0 KECCAK256 SWAP1 DUP2 ADD SWAP3 DUP3 ISZERO PUSH2 0x459A JUMPI SWAP2 PUSH1 0x20 MUL DUP3 ADD JUMPDEST DUP3 DUP2 GT ISZERO PUSH2 0x4599 JUMPI DUP3 MLOAD DUP3 SSTORE SWAP2 PUSH1 0x20 ADD SWAP2 SWAP1 PUSH1 0x1 ADD SWAP1 PUSH2 0x457E JUMP JUMPDEST JUMPDEST POP SWAP1 POP PUSH2 0x45A7 SWAP2 SWAP1 PUSH2 0x45AB JUMP JUMPDEST POP SWAP1 JUMP JUMPDEST JUMPDEST DUP1 DUP3 GT ISZERO PUSH2 0x45C4 JUMPI PUSH1 0x0 DUP2 PUSH1 0x0 SWAP1 SSTORE POP PUSH1 0x1 ADD PUSH2 0x45AC JUMP JUMPDEST POP SWAP1 JUMP JUMPDEST PUSH1 0x0 PUSH1 0x40 MLOAD SWAP1 POP SWAP1 JUMP JUMPDEST PUSH1 0x0 DUP1 REVERT JUMPDEST PUSH1 0x0 DUP1 REVERT JUMPDEST PUSH1 0x0 PUSH32 0xFFFFFFFF00000000000000000000000000000000000000000000000000000000 DUP3 AND SWAP1 POP SWAP2 SWAP1 POP JUMP JUMPDEST PUSH2 0x4611 DUP2 PUSH2 0x45DC JUMP JUMPDEST DUP2 EQ PUSH2 0x461C JUMPI PUSH1 0x0 DUP1 REVERT JUMPDEST POP JUMP JUMPDEST PUSH1 0x0 DUP2 CALLDATALOAD SWAP1 POP PUSH2 0x462E DUP2 PUSH2 0x4608 JUMP JUMPDEST SWAP3 SWAP2 POP POP JUMP JUMPDEST PUSH1 0x0 PUSH1 0x20 DUP3 DUP5 SUB SLT ISZERO PUSH2 0x464A JUMPI PUSH2 0x4649 PUSH2 0x45D2 JUMP JUMPDEST JUMPDEST PUSH1 0x0 PUSH2 0x4658 DUP5 DUP3 DUP6 ADD PUSH2 0x461F JUMP JUMPDEST SWAP2 POP POP SWAP3 SWAP2 POP POP JUMP JUMPDEST PUSH1 0x0 DUP2 ISZERO ISZERO SWAP1 POP SWAP2 SWAP1 POP JUMP JUMPDEST PUSH2 0x4676 DUP2 PUSH2 0x4661 JUMP JUMPDEST DUP3 MSTORE POP POP JUMP JUMPDEST PUSH1 0x0 PUSH1 0x20 DUP3 ADD SWAP1 POP PUSH2 0x4691 PUSH1 0x0 DUP4 ADD DUP5 PUSH2 0x466D JUMP JUMPDEST SWAP3 SWAP2 POP POP JUMP JUMPDEST PUSH1 0x0 PUSH3 0xFFFFFF DUP3 AND SWAP1 POP SWAP2 SWAP1 POP JUMP JUMPDEST PUSH2 0x46AF DUP2 PUSH2 0x4697 JUMP JUMPDEST DUP2 EQ PUSH2 0x46BA JUMPI PUSH1 0x0 DUP1 REVERT JUMPDEST POP JUMP JUMPDEST PUSH1 0x0 DUP2 CALLDATALOAD SWAP1 POP PUSH2 0x46CC DUP2 PUSH2 0x46A6 JUMP JUMPDEST SWAP3 SWAP2 POP POP JUMP JUMPDEST PUSH1 0x0 PUSH1 0x20 DUP3 DUP5 SUB SLT ISZERO PUSH2 0x46E8 JUMPI PUSH2 0x46E7 PUSH2 0x45D2 JUMP JUMPDEST JUMPDEST PUSH1 0x0 PUSH2 0x46F6 DUP5 DUP3 DUP6 ADD PUSH2 0x46BD JUMP JUMPDEST SWAP2 POP POP SWAP3 SWAP2 POP POP JUMP JUMPDEST PUSH1 0x0 DUP2 SWAP1 POP SWAP2 SWAP1 POP JUMP JUMPDEST PUSH2 0x4712 DUP2 PUSH2 0x46FF JUMP JUMPDEST DUP3 MSTORE POP POP JUMP JUMPDEST PUSH1 0x0 PUSH1 0x40 DUP3 ADD SWAP1 POP PUSH2 0x472D PUSH1 0x0 DUP4 ADD DUP6 PUSH2 0x4709 JUMP JUMPDEST PUSH2 0x473A PUSH1 0x20 DUP4 ADD DUP5 PUSH2 0x4709 JUMP JUMPDEST SWAP4 SWAP3 POP POP POP JUMP JUMPDEST PUSH1 0x0 PUSH20 0xFFFFFFFFFFFFFFFFFFFFFFFFFFFFFFFFFFFFFFFF DUP3 AND SWAP1 POP SWAP2 SWAP1 POP JUMP JUMPDEST PUSH1 0x0 DUP2 SWAP1 POP SWAP2 SWAP1 POP JUMP JUMPDEST PUSH1 0x0 PUSH2 0x4786 PUSH2 0x4781 PUSH2 0x477C DUP5 PUSH2 0x4741 JUMP JUMPDEST PUSH2 0x4761 JUMP JUMPDEST PUSH2 0x4741 JUMP JUMPDEST SWAP1 POP SWAP2 SWAP1 POP JUMP JUMPDEST PUSH1 0x0 PUSH2 0x4798 DUP3 PUSH2 0x476B JUMP JUMPDEST SWAP1 POP SWAP2 SWAP1 POP JUMP JUMPDEST PUSH1 0x0 PUSH2 0x47AA DUP3 PUSH2 0x478D JUMP JUMPDEST SWAP1 POP SWAP2 SWAP1 POP JUMP JUMPDEST PUSH2 0x47BA DUP2 PUSH2 0x479F JUMP JUMPDEST DUP3 MSTORE POP POP JUMP JUMPDEST PUSH1 0x0 PUSH1 0x20 DUP3 ADD SWAP1 POP PUSH2 0x47D5 PUSH1 0x0 DUP4 ADD DUP5 PUSH2 0x47B1 JUMP JUMPDEST SWAP3 SWAP2 POP POP JUMP JUMPDEST PUSH1 0x0 PUSH1 0x80 DUP3 ADD SWAP1 POP PUSH2 0x47F0 PUSH1 0x0 DUP4 ADD DUP8 PUSH2 0x4709 JUMP JUMPDEST PUSH2 0x47FD PUSH1 0x20 DUP4 ADD DUP7 PUSH2 0x4709 JUMP JUMPDEST PUSH2 0x480A PUSH1 0x40 DUP4 ADD DUP6 PUSH2 0x4709 JUMP JUMPDEST PUSH2 0x4817 PUSH1 0x60 DUP4 ADD DUP5 PUSH2 0x4709 JUMP JUMPDEST SWAP6 SWAP5 POP POP POP POP POP JUMP JUMPDEST PUSH1 0x0 PUSH2 0x482B DUP3 PUSH2 0x478D JUMP JUMPDEST SWAP1 POP SWAP2 SWAP1 POP JUMP JUMPDEST PUSH2 0x483B DUP2 PUSH2 0x4820 JUMP JUMPDEST DUP3 MSTORE POP POP JUMP JUMPDEST PUSH1 0x0 PUSH1 0x20 DUP3 ADD SWAP1 POP PUSH2 0x4856 PUSH1 0x0 DUP4 ADD DUP5 PUSH2 0x4832 JUMP JUMPDEST SWAP3 SWAP2 POP POP JUMP JUMPDEST PUSH1 0x0 DUP1 REVERT JUMPDEST PUSH1 0x0 DUP1 REVERT JUMPDEST PUSH1 0x0 DUP1 REVERT JUMPDEST PUSH1 0x0 DUP1 DUP4 PUSH1 0x1F DUP5 ADD SLT PUSH2 0x4881 JUMPI PUSH2 0x4880 PUSH2 0x485C JUMP JUMPDEST JUMPDEST DUP3 CALLDATALOAD SWAP1 POP PUSH8 0xFFFFFFFFFFFFFFFF DUP2 GT ISZERO PUSH2 0x489E JUMPI PUSH2 0x489D PUSH2 0x4861 JUMP JUMPDEST JUMPDEST PUSH1 0x20 DUP4 ADD SWAP2 POP DUP4 PUSH1 0x20 DUP3 MUL DUP4 ADD GT ISZERO PUSH2 0x48BA JUMPI PUSH2 0x48B9 PUSH2 0x4866 JUMP JUMPDEST JUMPDEST SWAP3 POP SWAP3 SWAP1 POP JUMP JUMPDEST PUSH1 0x0 DUP1 DUP4 PUSH1 0x1F DUP5 ADD SLT PUSH2 0x48D7 JUMPI PUSH2 0x48D6 PUSH2 0x485C JUMP JUMPDEST JUMPDEST DUP3 CALLDATALOAD SWAP1 POP PUSH8 0xFFFFFFFFFFFFFFFF DUP2 GT ISZERO PUSH2 0x48F4 JUMPI PUSH2 0x48F3 PUSH2 0x4861 JUMP JUMPDEST JUMPDEST PUSH1 0x20 DUP4 ADD SWAP2 POP DUP4 PUSH1 0x20 DUP3 MUL DUP4 ADD GT ISZERO PUSH2 0x4910 JUMPI PUSH2 0x490F PUSH2 0x4866 JUMP JUMPDEST JUMPDEST SWAP3 POP SWAP3 SWAP1 POP JUMP JUMPDEST PUSH1 0x0 PUSH2 0x4922 DUP3 PUSH2 0x4741 JUMP JUMPDEST SWAP1 POP SWAP2 SWAP1 POP JUMP JUMPDEST PUSH2 0x4932 DUP2 PUSH2 0x4917 JUMP JUMPDEST DUP2 EQ PUSH2 0x493D JUMPI PUSH1 0x0 DUP1 REVERT JUMPDEST POP JUMP JUMPDEST PUSH1 0x0 DUP2 CALLDATALOAD SWAP1 POP PUSH2 0x494F DUP2 PUSH2 0x4929 JUMP JUMPDEST SWAP3 SWAP2 POP POP JUMP JUMPDEST PUSH1 0x0 DUP1 PUSH1 0x0 DUP1 PUSH1 0x0 PUSH1 0x60 DUP7 DUP9 SUB SLT ISZERO PUSH2 0x4971 JUMPI PUSH2 0x4970 PUSH2 0x45D2 JUMP JUMPDEST JUMPDEST PUSH1 0x0 DUP7 ADD CALLDATALOAD PUSH8 0xFFFFFFFFFFFFFFFF DUP2 GT ISZERO PUSH2 0x498F JUMPI PUSH2 0x498E PUSH2 0x45D7 JUMP JUMPDEST JUMPDEST PUSH2 0x499B DUP9 DUP3 DUP10 ADD PUSH2 0x486B JUMP JUMPDEST SWAP6 POP SWAP6 POP POP PUSH1 0x20 DUP7 ADD CALLDATALOAD PUSH8 0xFFFFFFFFFFFFFFFF DUP2 GT ISZERO PUSH2 0x49BE JUMPI PUSH2 0x49BD PUSH2 0x45D7 JUMP JUMPDEST JUMPDEST PUSH2 0x49CA DUP9 DUP3 DUP10 ADD PUSH2 0x48C1 JUMP JUMPDEST SWAP4 POP SWAP4 POP POP PUSH1 0x40 PUSH2 0x49DD DUP9 DUP3 DUP10 ADD PUSH2 0x4940 JUMP JUMPDEST SWAP2 POP POP SWAP3 SWAP6 POP SWAP3 SWAP6 SWAP1 SWAP4 POP JUMP JUMPDEST PUSH1 0x0 PUSH1 0x20 DUP3 ADD SWAP1 POP PUSH2 0x49FF PUSH1 0x0 DUP4 ADD DUP5 PUSH2 0x4709 JUMP JUMPDEST SWAP3 SWAP2 POP POP JUMP JUMPDEST PUSH1 0x0 PUSH2 0x4A10 DUP3 PUSH2 0x478D JUMP JUMPDEST SWAP1 POP SWAP2 SWAP1 POP JUMP JUMPDEST PUSH2 0x4A20 DUP2 PUSH2 0x4A05 JUMP JUMPDEST DUP3 MSTORE POP POP JUMP JUMPDEST PUSH1 0x0 PUSH1 0x20 DUP3 ADD SWAP1 POP PUSH2 0x4A3B PUSH1 0x0 DUP4 ADD DUP5 PUSH2 0x4A17 JUMP JUMPDEST SWAP3 SWAP2 POP POP JUMP JUMPDEST PUSH1 0x0 PUSH1 0x20 DUP3 DUP5 SUB SLT ISZERO PUSH2 0x4A57 JUMPI PUSH2 0x4A56 PUSH2 0x45D2 JUMP JUMPDEST JUMPDEST PUSH1 0x0 PUSH2 0x4A65 DUP5 DUP3 DUP6 ADD PUSH2 0x4940 JUMP JUMPDEST SWAP2 POP POP SWAP3 SWAP2 POP POP JUMP JUMPDEST PUSH1 0x0 PUSH1 0x1F NOT PUSH1 0x1F DUP4 ADD AND SWAP1 POP SWAP2 SWAP1 POP JUMP JUMPDEST PUSH32 0x4E487B7100000000000000000000000000000000000000000000000000000000 PUSH1 0x0 MSTORE PUSH1 0x41 PUSH1 0x4 MSTORE PUSH1 0x24 PUSH1 0x0 REVERT JUMPDEST PUSH2 0x4AB7 DUP3 PUSH2 0x4A6E JUMP JUMPDEST DUP2 ADD DUP2 DUP2 LT PUSH8 0xFFFFFFFFFFFFFFFF DUP3 GT OR ISZERO PUSH2 0x4AD6 JUMPI PUSH2 0x4AD5 PUSH2 0x4A7F JUMP JUMPDEST JUMPDEST DUP1 PUSH1 0x40 MSTORE POP POP POP JUMP JUMPDEST PUSH1 0x0 PUSH2 0x4AE9 PUSH2 0x45C8 JUMP JUMPDEST SWAP1 POP PUSH2 0x4AF5 DUP3 DUP3 PUSH2 0x4AAE JUMP JUMPDEST SWAP2 SWAP1 POP JUMP JUMPDEST PUSH1 0x0 PUSH8 0xFFFFFFFFFFFFFFFF DUP3 GT ISZERO PUSH2 0x4B15 JUMPI PUSH2 0x4B14 PUSH2 0x4A7F JUMP JUMPDEST JUMPDEST PUSH1 0x20 DUP3 MUL SWAP1 POP PUSH1 0x20 DUP2 ADD SWAP1 POP SWAP2 SWAP1 POP JUMP JUMPDEST PUSH2 0x4B2F DUP2 PUSH2 0x46FF JUMP JUMPDEST DUP2 EQ PUSH2 0x4B3A JUMPI PUSH1 0x0 DUP1 REVERT JUMPDEST POP JUMP JUMPDEST PUSH1 0x0 DUP2 CALLDATALOAD SWAP1 POP PUSH2 0x4B4C DUP2 PUSH2 0x4B26 JUMP JUMPDEST SWAP3 SWAP2 POP POP JUMP JUMPDEST PUSH1 0x0 PUSH2 0x4B65 PUSH2 0x4B60 DUP5 PUSH2 0x4AFA JUMP JUMPDEST PUSH2 0x4ADF JUMP JUMPDEST SWAP1 POP DUP1 DUP4 DUP3 MSTORE PUSH1 0x20 DUP3 ADD SWAP1 POP PUSH1 0x20 DUP5 MUL DUP4 ADD DUP6 DUP2 GT ISZERO PUSH2 0x4B88 JUMPI PUSH2 0x4B87 PUSH2 0x4866 JUMP JUMPDEST JUMPDEST DUP4 JUMPDEST DUP2 DUP2 LT ISZERO PUSH2 0x4BB1 JUMPI DUP1 PUSH2 0x4B9D DUP9 DUP3 PUSH2 0x4B3D JUMP JUMPDEST DUP5 MSTORE PUSH1 0x20 DUP5 ADD SWAP4 POP POP PUSH1 0x20 DUP2 ADD SWAP1 POP PUSH2 0x4B8A JUMP JUMPDEST POP POP POP SWAP4 SWAP3 POP POP POP JUMP JUMPDEST PUSH1 0x0 DUP3 PUSH1 0x1F DUP4 ADD SLT PUSH2 0x4BD0 JUMPI PUSH2 0x4BCF PUSH2 0x485C JUMP JUMPDEST JUMPDEST DUP2 CALLDATALOAD PUSH2 0x4BE0 DUP5 DUP3 PUSH1 0x20 DUP7 ADD PUSH2 0x4B52 JUMP JUMPDEST SWAP2 POP POP SWAP3 SWAP2 POP POP JUMP JUMPDEST PUSH1 0x0 DUP1 REVERT JUMPDEST PUSH1 0x0 PUSH8 0xFFFFFFFFFFFFFFFF DUP3 GT ISZERO PUSH2 0x4C09 JUMPI PUSH2 0x4C08 PUSH2 0x4A7F JUMP JUMPDEST JUMPDEST PUSH2 0x4C12 DUP3 PUSH2 0x4A6E JUMP JUMPDEST SWAP1 POP PUSH1 0x20 DUP2 ADD SWAP1 POP SWAP2 SWAP1 POP JUMP JUMPDEST DUP3 DUP2 DUP4 CALLDATACOPY PUSH1 0x0 DUP4 DUP4 ADD MSTORE POP POP POP JUMP JUMPDEST PUSH1 0x0 PUSH2 0x4C41 PUSH2 0x4C3C DUP5 PUSH2 0x4BEE JUMP JUMPDEST PUSH2 0x4ADF JUMP JUMPDEST SWAP1 POP DUP3 DUP2 MSTORE PUSH1 0x20 DUP2 ADD DUP5 DUP5 DUP5 ADD GT ISZERO PUSH2 0x4C5D JUMPI PUSH2 0x4C5C PUSH2 0x4BE9 JUMP JUMPDEST JUMPDEST PUSH2 0x4C68 DUP5 DUP3 DUP6 PUSH2 0x4C1F JUMP JUMPDEST POP SWAP4 SWAP3 POP POP POP JUMP JUMPDEST PUSH1 0x0 DUP3 PUSH1 0x1F DUP4 ADD SLT PUSH2 0x4C85 JUMPI PUSH2 0x4C84 PUSH2 0x485C JUMP JUMPDEST JUMPDEST DUP2 CALLDATALOAD PUSH2 0x4C95 DUP5 DUP3 PUSH1 0x20 DUP7 ADD PUSH2 0x4C2E JUMP JUMPDEST SWAP2 POP POP SWAP3 SWAP2 POP POP JUMP JUMPDEST PUSH1 0x0 DUP1 PUSH1 0x0 DUP1 PUSH1 0x0 PUSH1 0xA0 DUP7 DUP9 SUB SLT ISZERO PUSH2 0x4CBA JUMPI PUSH2 0x4CB9 PUSH2 0x45D2 JUMP JUMPDEST JUMPDEST PUSH1 0x0 PUSH2 0x4CC8 DUP9 DUP3 DUP10 ADD PUSH2 0x4940 JUMP JUMPDEST SWAP6 POP POP PUSH1 0x20 PUSH2 0x4CD9 DUP9 DUP3 DUP10 ADD PUSH2 0x4940 JUMP JUMPDEST SWAP5 POP POP PUSH1 0x40 DUP7 ADD CALLDATALOAD PUSH8 0xFFFFFFFFFFFFFFFF DUP2 GT ISZERO PUSH2 0x4CFA JUMPI PUSH2 0x4CF9 PUSH2 0x45D7 JUMP JUMPDEST JUMPDEST PUSH2 0x4D06 DUP9 DUP3 DUP10 ADD PUSH2 0x4BBB JUMP JUMPDEST SWAP4 POP POP PUSH1 0x60 DUP7 ADD CALLDATALOAD PUSH8 0xFFFFFFFFFFFFFFFF DUP2 GT ISZERO PUSH2 0x4D27 JUMPI PUSH2 0x4D26 PUSH2 0x45D7 JUMP JUMPDEST JUMPDEST PUSH2 0x4D33 DUP9 DUP3 DUP10 ADD PUSH2 0x4BBB JUMP JUMPDEST SWAP3 POP POP PUSH1 0x80 DUP7 ADD CALLDATALOAD PUSH8 0xFFFFFFFFFFFFFFFF DUP2 GT ISZERO PUSH2 0x4D54 JUMPI PUSH2 0x4D53 PUSH2 0x45D7 JUMP JUMPDEST JUMPDEST PUSH2 0x4D60 DUP9 DUP3 DUP10 ADD PUSH2 0x4C70 JUMP JUMPDEST SWAP2 POP POP SWAP3 SWAP6 POP SWAP3 SWAP6 SWAP1 SWAP4 POP JUMP JUMPDEST PUSH2 0x4D76 DUP2 PUSH2 0x45DC JUMP JUMPDEST DUP3 MSTORE POP POP JUMP JUMPDEST PUSH1 0x0 PUSH1 0x20 DUP3 ADD SWAP1 POP PUSH2 0x4D91 PUSH1 0x0 DUP4 ADD DUP5 PUSH2 0x4D6D JUMP JUMPDEST SWAP3 SWAP2 POP POP JUMP JUMPDEST PUSH1 0x0 PUSH2 0x4DA2 DUP3 PUSH2 0x478D JUMP JUMPDEST SWAP1 POP SWAP2 SWAP1 POP JUMP JUMPDEST PUSH2 0x4DB2 DUP2 PUSH2 0x4D97 JUMP JUMPDEST DUP3 MSTORE POP POP JUMP JUMPDEST PUSH1 0x0 PUSH1 0x20 DUP3 ADD SWAP1 POP PUSH2 0x4DCD PUSH1 0x0 DUP4 ADD DUP5 PUSH2 0x4DA9 JUMP JUMPDEST SWAP3 SWAP2 POP POP JUMP JUMPDEST PUSH1 0x0 DUP1 PUSH1 0x0 DUP1 PUSH1 0x0 PUSH1 0xA0 DUP7 DUP9 SUB SLT ISZERO PUSH2 0x4DEF JUMPI PUSH2 0x4DEE PUSH2 0x45D2 JUMP JUMPDEST JUMPDEST PUSH1 0x0 PUSH2 0x4DFD DUP9 DUP3 DUP10 ADD PUSH2 0x4940 JUMP JUMPDEST SWAP6 POP POP PUSH1 0x20 PUSH2 0x4E0E DUP9 DUP3 DUP10 ADD PUSH2 0x4940 JUMP JUMPDEST SWAP5 POP POP PUSH1 0x40 PUSH2 0x4E1F DUP9 DUP3 DUP10 ADD PUSH2 0x4B3D JUMP JUMPDEST SWAP4 POP POP PUSH1 0x60 PUSH2 0x4E30 DUP9 DUP3 DUP10 ADD PUSH2 0x4B3D JUMP JUMPDEST SWAP3 POP POP PUSH1 0x80 DUP7 ADD CALLDATALOAD PUSH8 0xFFFFFFFFFFFFFFFF DUP2 GT ISZERO PUSH2 0x4E51 JUMPI PUSH2 0x4E50 PUSH2 0x45D7 JUMP JUMPDEST JUMPDEST PUSH2 0x4E5D DUP9 DUP3 DUP10 ADD PUSH2 0x4C70 JUMP JUMPDEST SWAP2 POP POP SWAP3 SWAP6 POP SWAP3 SWAP6 SWAP1 SWAP4 POP JUMP JUMPDEST PUSH1 0x0 DUP1 PUSH1 0x40 DUP4 DUP6 SUB SLT ISZERO PUSH2 0x4E81 JUMPI PUSH2 0x4E80 PUSH2 0x45D2 JUMP JUMPDEST JUMPDEST PUSH1 0x0 PUSH2 0x4E8F DUP6 DUP3 DUP7 ADD PUSH2 0x4B3D JUMP JUMPDEST SWAP3 POP POP PUSH1 0x20 PUSH2 0x4EA0 DUP6 DUP3 DUP7 ADD PUSH2 0x4940 JUMP JUMPDEST SWAP2 POP POP SWAP3 POP SWAP3 SWAP1 POP JUMP JUMPDEST PUSH1 0x0 PUSH1 0x20 DUP3 DUP5 SUB SLT ISZERO PUSH2 0x4EC0 JUMPI PUSH2 0x4EBF PUSH2 0x45D2 JUMP JUMPDEST JUMPDEST PUSH1 0x0 PUSH2 0x4ECE DUP5 DUP3 DUP6 ADD PUSH2 0x4B3D JUMP JUMPDEST SWAP2 POP POP SWAP3 SWAP2 POP POP JUMP JUMPDEST PUSH32 0x4E487B7100000000000000000000000000000000000000000000000000000000 PUSH1 0x0 MSTORE PUSH1 0x32 PUSH1 0x4 MSTORE PUSH1 0x24 PUSH1 0x0 REVERT JUMPDEST PUSH32 0x4E487B7100000000000000000000000000000000000000000000000000000000 PUSH1 0x0 MSTORE PUSH1 0x11 PUSH1 0x4 MSTORE PUSH1 0x24 PUSH1 0x0 REVERT JUMPDEST PUSH1 0x0 PUSH2 0x4F40 DUP3 PUSH2 0x46FF JUMP JUMPDEST SWAP2 POP PUSH2 0x4F4B DUP4 PUSH2 0x46FF JUMP JUMPDEST SWAP3 POP DUP3 PUSH32 0xFFFFFFFFFFFFFFFFFFFFFFFFFFFFFFFFFFFFFFFFFFFFFFFFFFFFFFFFFFFFFFFF SUB DUP3 GT ISZERO PUSH2 0x4F80 JUMPI PUSH2 0x4F7F PUSH2 0x4F06 JUMP JUMPDEST JUMPDEST DUP3 DUP3 ADD SWAP1 POP SWAP3 SWAP2 POP POP JUMP JUMPDEST PUSH2 0x4F94 DUP2 PUSH2 0x4917 JUMP JUMPDEST DUP3 MSTORE POP POP JUMP JUMPDEST PUSH1 0x0 PUSH1 0x40 DUP3 ADD SWAP1 POP PUSH2 0x4FAF PUSH1 0x0 DUP4 ADD DUP6 PUSH2 0x4F8B JUMP JUMPDEST PUSH2 0x4FBC PUSH1 0x20 DUP4 ADD DUP5 PUSH2 0x4709 JUMP JUMPDEST SWAP4 SWAP3 POP POP POP JUMP JUMPDEST PUSH1 0x0 PUSH2 0x4FCE DUP3 PUSH2 0x46FF JUMP JUMPDEST SWAP2 POP PUSH2 0x4FD9 DUP4 PUSH2 0x46FF JUMP JUMPDEST SWAP3 POP DUP3 DUP3 LT ISZERO PUSH2 0x4FEC JUMPI PUSH2 0x4FEB PUSH2 0x4F06 JUMP JUMPDEST JUMPDEST DUP3 DUP3 SUB SWAP1 POP SWAP3 SWAP2 POP POP JUMP JUMPDEST PUSH1 0x0 PUSH2 0x5012 PUSH2 0x500D PUSH2 0x5008 DUP5 PUSH2 0x4697 JUMP JUMPDEST PUSH2 0x4761 JUMP JUMPDEST PUSH2 0x46FF JUMP JUMPDEST SWAP1 POP SWAP2 SWAP1 POP JUMP JUMPDEST PUSH2 0x5022 DUP2 PUSH2 0x4FF7 JUMP JUMPDEST DUP3 MSTORE POP POP JUMP JUMPDEST PUSH1 0x0 PUSH1 0x20 DUP3 ADD SWAP1 POP PUSH2 0x503D PUSH1 0x0 DUP4 ADD DUP5 PUSH2 0x5019 JUMP JUMPDEST SWAP3 SWAP2 POP POP JUMP JUMPDEST PUSH32 0x4E487B7100000000000000000000000000000000000000000000000000000000 PUSH1 0x0 MSTORE PUSH1 0x12 PUSH1 0x4 MSTORE PUSH1 0x24 PUSH1 0x0 REVERT JUMPDEST PUSH1 0x0 PUSH2 0x507D DUP3 PUSH2 0x46FF JUMP JUMPDEST SWAP2 POP PUSH2 0x5088 DUP4 PUSH2 0x46FF JUMP JUMPDEST SWAP3 POP DUP3 PUSH2 0x5098 JUMPI PUSH2 0x5097 PUSH2 0x5043 JUMP JUMPDEST JUMPDEST DUP3 DUP3 MOD SWAP1 POP SWAP3 SWAP2 POP POP JUMP JUMPDEST PUSH1 0x0 PUSH2 0x50AE DUP3 PUSH2 0x46FF JUMP JUMPDEST SWAP2 POP PUSH2 0x50B9 DUP4 PUSH2 0x46FF JUMP JUMPDEST SWAP3 POP DUP3 PUSH2 0x50C9 JUMPI PUSH2 0x50C8 PUSH2 0x5043 JUMP JUMPDEST JUMPDEST DUP3 DUP3 DIV SWAP1 POP SWAP3 SWAP2 POP POP JUMP JUMPDEST PUSH1 0x0 DUP2 MLOAD SWAP1 POP PUSH2 0x50E3 DUP2 PUSH2 0x4929 JUMP JUMPDEST SWAP3 SWAP2 POP POP JUMP JUMPDEST PUSH1 0x0 PUSH1 0x20 DUP3 DUP5 SUB SLT ISZERO PUSH2 0x50FF JUMPI PUSH2 0x50FE PUSH2 0x45D2 JUMP JUMPDEST JUMPDEST PUSH1 0x0 PUSH2 0x510D DUP5 DUP3 DUP6 ADD PUSH2 0x50D4 JUMP JUMPDEST SWAP2 POP POP SWAP3 SWAP2 POP POP JUMP JUMPDEST PUSH1 0x0 PUSH1 0x40 DUP3 ADD SWAP1 POP PUSH2 0x512B PUSH1 0x0 DUP4 ADD DUP6 PUSH2 0x4F8B JUMP JUMPDEST PUSH2 0x5138 PUSH1 0x20 DUP4 ADD DUP5 PUSH2 0x4F8B JUMP JUMPDEST SWAP4 SWAP3 POP POP POP JUMP JUMPDEST PUSH1 0x0 DUP3 DUP3 MSTORE PUSH1 0x20 DUP3 ADD SWAP1 POP SWAP3 SWAP2 POP POP JUMP JUMPDEST POP JUMP JUMPDEST PUSH1 0x0 PUSH2 0x5160 PUSH1 0x0 DUP4 PUSH2 0x513F JUMP JUMPDEST SWAP2 POP PUSH2 0x516B DUP3 PUSH2 0x5150 JUMP JUMPDEST PUSH1 0x0 DUP3 ADD SWAP1 POP SWAP2 SWAP1 POP JUMP JUMPDEST PUSH1 0x0 PUSH1 0xA0 DUP3 ADD SWAP1 POP PUSH2 0x518B PUSH1 0x0 DUP4 ADD DUP8 PUSH2 0x4F8B JUMP JUMPDEST PUSH2 0x5198 PUSH1 0x20 DUP4 ADD DUP7 PUSH2 0x4F8B JUMP JUMPDEST PUSH2 0x51A5 PUSH1 0x40 DUP4 ADD DUP6 PUSH2 0x4709 JUMP JUMPDEST PUSH2 0x51B2 PUSH1 0x60 DUP4 ADD DUP5 PUSH2 0x4709 JUMP JUMPDEST DUP2 DUP2 SUB PUSH1 0x80 DUP4 ADD MSTORE PUSH2 0x51C3 DUP2 PUSH2 0x5153 JUMP JUMPDEST SWAP1 POP SWAP6 SWAP5 POP POP POP POP POP JUMP JUMPDEST PUSH1 0x0 PUSH2 0x51D9 DUP3 PUSH2 0x46FF JUMP JUMPDEST SWAP2 POP PUSH2 0x51E4 DUP4 PUSH2 0x46FF JUMP JUMPDEST SWAP3 POP DUP2 PUSH32 0xFFFFFFFFFFFFFFFFFFFFFFFFFFFFFFFFFFFFFFFFFFFFFFFFFFFFFFFFFFFFFFFF DIV DUP4 GT DUP3 ISZERO ISZERO AND ISZERO PUSH2 0x521D JUMPI PUSH2 0x521C PUSH2 0x4F06 JUMP JUMPDEST JUMPDEST DUP3 DUP3 MUL SWAP1 POP SWAP3 SWAP2 POP POP JUMP JUMPDEST PUSH1 0x0 PUSH1 0x20 DUP3 ADD SWAP1 POP PUSH2 0x523D PUSH1 0x0 DUP4 ADD DUP5 PUSH2 0x4F8B JUMP JUMPDEST SWAP3 SWAP2 POP POP JUMP JUMPDEST PUSH1 0x0 DUP2 MLOAD SWAP1 POP PUSH2 0x5252 DUP2 PUSH2 0x4B26 JUMP JUMPDEST SWAP3 SWAP2 POP POP JUMP JUMPDEST PUSH1 0x0 PUSH1 0x20 DUP3 DUP5 SUB SLT ISZERO PUSH2 0x526E JUMPI PUSH2 0x526D PUSH2 0x45D2 JUMP JUMPDEST JUMPDEST PUSH1 0x0 PUSH2 0x527C DUP5 DUP3 DUP6 ADD PUSH2 0x5243 JUMP JUMPDEST SWAP2 POP POP SWAP3 SWAP2 POP POP JUMP JUMPDEST PUSH1 0x0 PUSH2 0x5290 DUP3 PUSH2 0x46FF JUMP JUMPDEST SWAP2 POP PUSH32 0xFFFFFFFFFFFFFFFFFFFFFFFFFFFFFFFFFFFFFFFFFFFFFFFFFFFFFFFFFFFFFFFF DUP3 EQ ISZERO PUSH2 0x52C3 JUMPI PUSH2 0x52C2 PUSH2 0x4F06 JUMP JUMPDEST JUMPDEST PUSH1 0x1 DUP3 ADD SWAP1 POP SWAP2 SWAP1 POP JUMP JUMPDEST PUSH2 0x52D7 DUP2 PUSH2 0x4661 JUMP JUMPDEST DUP2 EQ PUSH2 0x52E2 JUMPI PUSH1 0x0 DUP1 REVERT JUMPDEST POP JUMP JUMPDEST PUSH1 0x0 DUP2 MLOAD SWAP1 POP PUSH2 0x52F4 DUP2 PUSH2 0x52CE JUMP JUMPDEST SWAP3 SWAP2 POP POP JUMP JUMPDEST PUSH1 0x0 PUSH1 0x20 DUP3 DUP5 SUB SLT ISZERO PUSH2 0x5310 JUMPI PUSH2 0x530F PUSH2 0x45D2 JUMP JUMPDEST JUMPDEST PUSH1 0x0 PUSH2 0x531E DUP5 DUP3 DUP6 ADD PUSH2 0x52E5 JUMP JUMPDEST SWAP2 POP POP SWAP3 SWAP2 POP POP JUMP JUMPDEST PUSH1 0x0 DUP2 MLOAD SWAP1 POP SWAP2 SWAP1 POP JUMP JUMPDEST PUSH1 0x0 DUP2 SWAP1 POP SWAP3 SWAP2 POP POP JUMP JUMPDEST PUSH1 0x0 JUMPDEST DUP4 DUP2 LT ISZERO PUSH2 0x535B JUMPI DUP1 DUP3 ADD MLOAD DUP2 DUP5 ADD MSTORE PUSH1 0x20 DUP2 ADD SWAP1 POP PUSH2 0x5340 JUMP JUMPDEST DUP4 DUP2 GT ISZERO PUSH2 0x536A JUMPI PUSH1 0x0 DUP5 DUP5 ADD MSTORE JUMPDEST POP POP POP POP JUMP JUMPDEST PUSH1 0x0 PUSH2 0x537B DUP3 PUSH2 0x5327 JUMP JUMPDEST PUSH2 0x5385 DUP2 DUP6 PUSH2 0x5332 JUMP JUMPDEST SWAP4 POP PUSH2 0x5395 DUP2 DUP6 PUSH1 0x20 DUP7 ADD PUSH2 0x533D JUMP JUMPDEST DUP1 DUP5 ADD SWAP2 POP POP SWAP3 SWAP2 POP POP JUMP JUMPDEST PUSH1 0x0 PUSH2 0x53AD DUP3 DUP5 PUSH2 0x5370 JUMP JUMPDEST SWAP2 POP DUP2 SWAP1 POP SWAP3 SWAP2 POP POP JUMP JUMPDEST PUSH1 0x0 DUP2 SWAP1 POP SWAP2 SWAP1 POP JUMP JUMPDEST PUSH2 0x53CB DUP2 PUSH2 0x53B8 JUMP JUMPDEST DUP3 MSTORE POP POP JUMP JUMPDEST PUSH1 0x0 PUSH1 0x40 DUP3 ADD SWAP1 POP PUSH2 0x53E6 PUSH1 0x0 DUP4 ADD DUP6 PUSH2 0x4709 JUMP JUMPDEST PUSH2 0x53F3 PUSH1 0x20 DUP4 ADD DUP5 PUSH2 0x53C2 JUMP JUMPDEST SWAP4 SWAP3 POP POP POP JUMP JUMPDEST PUSH1 0x0 PUSH1 0xFF DUP3 AND SWAP1 POP SWAP2 SWAP1 POP JUMP JUMPDEST PUSH1 0x0 PUSH2 0x5412 DUP3 PUSH2 0x53FA JUMP JUMPDEST SWAP2 POP PUSH2 0x541D DUP4 PUSH2 0x53FA JUMP JUMPDEST SWAP3 POP DUP3 PUSH1 0xFF SUB DUP3 GT ISZERO PUSH2 0x5433 JUMPI PUSH2 0x5432 PUSH2 0x4F06 JUMP JUMPDEST JUMPDEST DUP3 DUP3 ADD SWAP1 POP SWAP3 SWAP2 POP POP JUMP JUMPDEST PUSH1 0x0 PUSH2 0x5449 DUP3 PUSH2 0x53FA JUMP JUMPDEST SWAP2 POP PUSH2 0x5454 DUP4 PUSH2 0x53FA JUMP JUMPDEST SWAP3 POP DUP3 DUP3 LT ISZERO PUSH2 0x5467 JUMPI PUSH2 0x5466 PUSH2 0x4F06 JUMP JUMPDEST JUMPDEST DUP3 DUP3 SUB SWAP1 POP SWAP3 SWAP2 POP POP JUMP INVALID LOG2 PUSH5 0x6970667358 0x22 SLT KECCAK256 SWAP14 MUL SWAP2 MLOAD PUSH11 0xC8F97636363D972EE1BC1E SWAP13 0xAF 0xBA SWAP4 PUSH7 0xDAF6878A662D00 PUSH26 0x1E21BF64736F6C634300080A0033A26469706673582212200DA4 0x2D 0x4D 0xD6 0x1F 0xD 0x23 0xDE CALLVALUE CALLCODE 0x2F 0xDA 0xDF PC 0xBD LOG3 BLOCKHASH GASLIMIT DUP12 DUP10 0xE EQ 0xE0 0x5F SWAP1 0xF8 SHL PUSH3 0xC4F9CE PUSH5 0x736F6C6343 STOP ADDMOD EXP STOP CALLER "
		},
		"gasEstimates": {
			"creation": {
				"codeDepositCost": "8131600",
				"executionCost": "infinite",
				"totalCost": "infinite"
			},
			"external": {
				"createERC1155Pair(address,address,uint256,uint128)": "infinite",
				"feeEnabled()": "2515",
				"feeRecipient()": "2567",
				"getLPTokenERC1155(address,address,uint256)": "infinite",
				"getPairERC1155(address,address,uint256)": "infinite",
				"owner()": "2581",
				"parameters1()": "infinite",
				"parameters2()": "infinite",
				"setOwner(address)": "30574"
			},
			"internal": {
				"_tokenDetector(address,address)": "infinite"
			}
		},
		"methodIdentifiers": {
			"createERC1155Pair(address,address,uint256,uint128)": "2874b49a",
			"feeEnabled()": "a771ebc7",
			"feeRecipient()": "46904840",
			"getLPTokenERC1155(address,address,uint256)": "acd35461",
			"getPairERC1155(address,address,uint256)": "9be02ca7",
			"owner()": "8da5cb5b",
			"parameters1()": "e79129ce",
			"parameters2()": "9f392ed8",
			"setOwner(address)": "13af4035"
		}
	},
	"abi": [
		{
			"inputs": [
				{
					"internalType": "uint128",
					"name": "_feeRate",
					"type": "uint128"
				}
			],
			"stateMutability": "nonpayable",
			"type": "constructor"
		},
		{
			"anonymous": false,
			"inputs": [
				{
					"indexed": true,
					"internalType": "uint128",
					"name": "oldFee",
					"type": "uint128"
				},
				{
					"indexed": true,
					"internalType": "uint128",
					"name": "newFee",
					"type": "uint128"
				}
			],
			"name": "FeeRateChanged",
			"type": "event"
		},
		{
			"anonymous": false,
			"inputs": [
				{
					"indexed": true,
					"internalType": "address",
					"name": "oldOwner",
					"type": "address"
				},
				{
					"indexed": true,
					"internalType": "address",
					"name": "newOwner",
					"type": "address"
				}
			],
			"name": "OwnerChanged",
			"type": "event"
		},
		{
			"anonymous": false,
			"inputs": [
				{
					"indexed": true,
					"internalType": "address",
					"name": "tokenX",
					"type": "address"
				},
				{
					"indexed": true,
					"internalType": "address",
					"name": "tokenY",
					"type": "address"
				},
				{
					"indexed": true,
					"internalType": "uint128",
					"name": "feeRate",
					"type": "uint128"
				},
				{
					"indexed": false,
					"internalType": "address",
					"name": "pair",
					"type": "address"
				},
				{
					"indexed": false,
					"internalType": "address",
					"name": "lpToken",
					"type": "address"
				}
			],
			"name": "PairCreated",
			"type": "event"
		},
		{
			"inputs": [
				{
					"internalType": "address",
					"name": "_token0",
					"type": "address"
				},
				{
					"internalType": "address",
					"name": "_token1",
					"type": "address"
				},
				{
					"internalType": "uint256",
					"name": "_id",
					"type": "uint256"
				},
				{
					"internalType": "uint128",
					"name": "_feeRate",
					"type": "uint128"
				}
			],
			"name": "createERC1155Pair",
			"outputs": [
				{
					"internalType": "address",
					"name": "lpToken",
					"type": "address"
				},
				{
					"internalType": "address",
					"name": "pair",
					"type": "address"
				}
			],
			"stateMutability": "nonpayable",
			"type": "function"
		},
		{
			"inputs": [],
			"name": "feeEnabled",
			"outputs": [
				{
					"internalType": "uint128",
					"name": "",
					"type": "uint128"
				}
			],
			"stateMutability": "view",
			"type": "function"
		},
		{
			"inputs": [],
			"name": "feeRecipient",
			"outputs": [
				{
					"internalType": "address",
					"name": "_feeRecipient",
					"type": "address"
				}
			],
			"stateMutability": "view",
			"type": "function"
		},
		{
			"inputs": [
				{
					"internalType": "address",
					"name": "",
					"type": "address"
				},
				{
					"internalType": "address",
					"name": "",
					"type": "address"
				},
				{
					"internalType": "uint256",
					"name": "",
					"type": "uint256"
				}
			],
			"name": "getLPTokenERC1155",
			"outputs": [
				{
					"internalType": "address",
					"name": "",
					"type": "address"
				}
			],
			"stateMutability": "view",
			"type": "function"
		},
		{
			"inputs": [
				{
					"internalType": "address",
					"name": "",
					"type": "address"
				},
				{
					"internalType": "address",
					"name": "",
					"type": "address"
				},
				{
					"internalType": "uint256",
					"name": "",
					"type": "uint256"
				}
			],
			"name": "getPairERC1155",
			"outputs": [
				{
					"internalType": "address",
					"name": "",
					"type": "address"
				}
			],
			"stateMutability": "view",
			"type": "function"
		},
		{
			"inputs": [],
			"name": "owner",
			"outputs": [
				{
					"internalType": "address",
					"name": "",
					"type": "address"
				}
			],
			"stateMutability": "view",
			"type": "function"
		},
		{
			"inputs": [],
			"name": "parameters1",
			"outputs": [
				{
					"internalType": "address",
					"name": "factory",
					"type": "address"
				},
				{
					"internalType": "address",
					"name": "tokenX",
					"type": "address"
				},
				{
					"internalType": "address",
					"name": "tokenY",
					"type": "address"
				},
				{
					"internalType": "address",
					"name": "lpToken",
					"type": "address"
				},
				{
					"internalType": "uint128",
					"name": "feeRate",
					"type": "uint128"
				}
			],
			"stateMutability": "view",
			"type": "function"
		},
		{
			"inputs": [],
			"name": "parameters2",
			"outputs": [
				{
					"internalType": "address",
					"name": "factory",
					"type": "address"
				},
				{
					"internalType": "address",
					"name": "tokenX",
					"type": "address"
				},
				{
					"internalType": "address",
					"name": "tokenY",
					"type": "address"
				},
				{
					"internalType": "address",
					"name": "lpToken",
					"type": "address"
				},
				{
					"internalType": "uint256",
					"name": "id",
					"type": "uint256"
				},
				{
					"internalType": "uint128",
					"name": "feeRate",
					"type": "uint128"
				}
			],
			"stateMutability": "view",
			"type": "function"
		},
		{
			"inputs": [
				{
					"internalType": "address",
					"name": "_owner",
					"type": "address"
				}
			],
			"name": "setOwner",
			"outputs": [],
			"stateMutability": "nonpayable",
			"type": "function"
		}
	]
}