{
	"Midas/Midas_main/src/libraries/PriceHelper.sol": {
		"PriceHelper": {
			"abi": [
				{
					"inputs": [
						{
							"internalType": "uint256[]",
							"name": "arr",
							"type": "uint256[]"
						}
					],
					"name": "sortDesc",
					"outputs": [
						{
							"internalType": "uint256[]",
							"name": "",
							"type": "uint256[]"
						}
					],
					"stateMutability": "pure",
					"type": "function"
				}
			],
			"devdoc": {
				"kind": "dev",
				"methods": {},
				"version": 1
			},
			"evm": {
				"assembly": "    /* \"Midas/Midas_main/src/libraries/PriceHelper.sol\":58:840  library PriceHelper {... */\n  dataSize(sub_0)\n  dataOffset(sub_0)\n  0x0b\n  dup3\n  dup3\n  dup3\n  codecopy\n  dup1\n  mload\n  0x00\n  byte\n  0x73\n  eq\n  tag_1\n  jumpi\n  mstore(0x00, shl(0xe0, 0x4e487b71))\n  mstore(0x04, 0x00)\n  revert(0x00, 0x24)\ntag_1:\n  mstore(0x00, address)\n  0x73\n  dup2\n  mstore8\n  dup3\n  dup2\n  return\nstop\n\nsub_0: assembly {\n        /* \"Midas/Midas_main/src/libraries/PriceHelper.sol\":58:840  library PriceHelper {... */\n      eq(address, deployTimeAddress())\n      mstore(0x40, 0x80)\n      jumpi(tag_1, lt(calldatasize, 0x04))\n      shr(0xe0, calldataload(0x00))\n      dup1\n      0x9d13c02f\n      eq\n      tag_2\n      jumpi\n    tag_1:\n      0x00\n      dup1\n      revert\n        /* \"Midas/Midas_main/src/libraries/PriceHelper.sol\":85:238  function sortDesc(uint[] memory arr) public pure returns (uint[] memory) {... */\n    tag_2:\n      tag_3\n      tag_4\n      calldatasize\n      0x04\n      tag_5\n      jump\t// in\n    tag_4:\n      tag_6\n      jump\t// in\n    tag_3:\n      mload(0x40)\n      tag_7\n      swap2\n      swap1\n      tag_8\n      jump\t// in\n    tag_7:\n      mload(0x40)\n      dup1\n      swap2\n      sub\n      swap1\n      return\n    tag_6:\n        /* \"Midas/Midas_main/src/libraries/PriceHelper.sol\":143:156  uint[] memory */\n      0x60\n        /* \"Midas/Midas_main/src/libraries/PriceHelper.sol\":168:211  quicksort(arr, int(0), int(arr.length - 1)) */\n      tag_10\n        /* \"Midas/Midas_main/src/libraries/PriceHelper.sol\":178:181  arr */\n      dup3\n        /* \"Midas/Midas_main/src/libraries/PriceHelper.sol\":187:188  0 */\n      0x00\n        /* \"Midas/Midas_main/src/libraries/PriceHelper.sol\":208:209  1 */\n      0x01\n        /* \"Midas/Midas_main/src/libraries/PriceHelper.sol\":195:198  arr */\n      dup6\n        /* \"Midas/Midas_main/src/libraries/PriceHelper.sol\":195:205  arr.length */\n      mload\n        /* \"Midas/Midas_main/src/libraries/PriceHelper.sol\":195:209  arr.length - 1 */\n      tag_11\n      swap2\n      swap1\n      tag_12\n      jump\t// in\n    tag_11:\n        /* \"Midas/Midas_main/src/libraries/PriceHelper.sol\":168:177  quicksort */\n      tag_13\n        /* \"Midas/Midas_main/src/libraries/PriceHelper.sol\":168:211  quicksort(arr, int(0), int(arr.length - 1)) */\n      jump\t// in\n    tag_10:\n      pop\n        /* \"Midas/Midas_main/src/libraries/PriceHelper.sol\":228:231  arr */\n      swap1\n        /* \"Midas/Midas_main/src/libraries/PriceHelper.sol\":85:238  function sortDesc(uint[] memory arr) public pure returns (uint[] memory) {... */\n      jump\t// out\n        /* \"Midas/Midas_main/src/libraries/PriceHelper.sol\":244:838  function quicksort(uint[] memory arr, int left, int right) internal pure {... */\n    tag_13:\n        /* \"Midas/Midas_main/src/libraries/PriceHelper.sol\":335:339  left */\n      dup2\n        /* \"Midas/Midas_main/src/libraries/PriceHelper.sol\":357:362  right */\n      dup2\n        /* \"Midas/Midas_main/src/libraries/PriceHelper.sol\":376:382  i == j */\n      dup1\n      dup3\n      eq\n        /* \"Midas/Midas_main/src/libraries/PriceHelper.sol\":372:391  if (i == j) return; */\n      iszero\n      tag_15\n      jumpi\n        /* \"Midas/Midas_main/src/libraries/PriceHelper.sol\":384:391  return; */\n      pop\n      pop\n        /* \"Midas/Midas_main/src/libraries/PriceHelper.sol\":244:838  function quicksort(uint[] memory arr, int left, int right) internal pure {... */\n      pop\n      pop\n      pop\n      jump\t// out\n        /* \"Midas/Midas_main/src/libraries/PriceHelper.sol\":372:391  if (i == j) return; */\n    tag_15:\n        /* \"Midas/Midas_main/src/libraries/PriceHelper.sol\":400:410  uint pivot */\n      0x00\n        /* \"Midas/Midas_main/src/libraries/PriceHelper.sol\":413:416  arr */\n      dup6\n        /* \"Midas/Midas_main/src/libraries/PriceHelper.sol\":446:447  2 */\n      0x02\n        /* \"Midas/Midas_main/src/libraries/PriceHelper.sol\":430:442  right - left */\n      tag_16\n        /* \"Midas/Midas_main/src/libraries/PriceHelper.sol\":438:442  left */\n      dup8\n        /* \"Midas/Midas_main/src/libraries/PriceHelper.sol\":430:435  right */\n      dup8\n        /* \"Midas/Midas_main/src/libraries/PriceHelper.sol\":430:442  right - left */\n      tag_17\n      jump\t// in\n    tag_16:\n        /* \"Midas/Midas_main/src/libraries/PriceHelper.sol\":429:447  (right - left) / 2 */\n      tag_18\n      swap2\n      swap1\n      tag_19\n      jump\t// in\n    tag_18:\n        /* \"Midas/Midas_main/src/libraries/PriceHelper.sol\":422:447  left + (right - left) / 2 */\n      tag_20\n      swap1\n        /* \"Midas/Midas_main/src/libraries/PriceHelper.sol\":422:426  left */\n      dup8\n        /* \"Midas/Midas_main/src/libraries/PriceHelper.sol\":422:447  left + (right - left) / 2 */\n      tag_21\n      jump\t// in\n    tag_20:\n        /* \"Midas/Midas_main/src/libraries/PriceHelper.sol\":413:449  arr[uint(left + (right - left) / 2)] */\n      dup2\n      mload\n      dup2\n      lt\n      tag_23\n      jumpi\n      tag_23\n      tag_24\n      jump\t// in\n    tag_23:\n      0x20\n      mul\n      0x20\n      add\n      add\n      mload\n        /* \"Midas/Midas_main/src/libraries/PriceHelper.sol\":400:449  uint pivot = arr[uint(left + (right - left) / 2)] */\n      swap1\n      pop\n        /* \"Midas/Midas_main/src/libraries/PriceHelper.sol\":459:736  while (i <= j) {... */\n    tag_25:\n        /* \"Midas/Midas_main/src/libraries/PriceHelper.sol\":471:472  j */\n      dup2\n        /* \"Midas/Midas_main/src/libraries/PriceHelper.sol\":466:467  i */\n      dup4\n        /* \"Midas/Midas_main/src/libraries/PriceHelper.sol\":466:472  i <= j */\n      sgt\n        /* \"Midas/Midas_main/src/libraries/PriceHelper.sol\":459:736  while (i <= j) {... */\n      tag_26\n      jumpi\n        /* \"Midas/Midas_main/src/libraries/PriceHelper.sol\":488:520  while (arr[uint(i)] > pivot) i++ */\n    tag_27:\n        /* \"Midas/Midas_main/src/libraries/PriceHelper.sol\":510:515  pivot */\n      dup1\n        /* \"Midas/Midas_main/src/libraries/PriceHelper.sol\":495:498  arr */\n      dup7\n        /* \"Midas/Midas_main/src/libraries/PriceHelper.sol\":504:505  i */\n      dup5\n        /* \"Midas/Midas_main/src/libraries/PriceHelper.sol\":495:507  arr[uint(i)] */\n      dup2\n      mload\n      dup2\n      lt\n      tag_30\n      jumpi\n      tag_30\n      tag_24\n      jump\t// in\n    tag_30:\n      0x20\n      mul\n      0x20\n      add\n      add\n      mload\n        /* \"Midas/Midas_main/src/libraries/PriceHelper.sol\":495:515  arr[uint(i)] > pivot */\n      gt\n        /* \"Midas/Midas_main/src/libraries/PriceHelper.sol\":488:520  while (arr[uint(i)] > pivot) i++ */\n      iszero\n      tag_28\n      jumpi\n        /* \"Midas/Midas_main/src/libraries/PriceHelper.sol\":517:520  i++ */\n      dup3\n      tag_31\n      dup2\n      tag_32\n      jump\t// in\n    tag_31:\n      swap4\n      pop\n      pop\n        /* \"Midas/Midas_main/src/libraries/PriceHelper.sol\":488:520  while (arr[uint(i)] > pivot) i++ */\n      jump(tag_27)\n    tag_28:\n        /* \"Midas/Midas_main/src/libraries/PriceHelper.sol\":549:552  arr */\n      dup6\n        /* \"Midas/Midas_main/src/libraries/PriceHelper.sol\":558:559  j */\n      dup3\n        /* \"Midas/Midas_main/src/libraries/PriceHelper.sol\":549:561  arr[uint(j)] */\n      dup2\n      mload\n      dup2\n      lt\n      tag_36\n      jumpi\n      tag_36\n      tag_24\n      jump\t// in\n    tag_36:\n      0x20\n      mul\n      0x20\n      add\n      add\n      mload\n        /* \"Midas/Midas_main/src/libraries/PriceHelper.sol\":541:546  pivot */\n      dup2\n        /* \"Midas/Midas_main/src/libraries/PriceHelper.sol\":541:561  pivot > arr[uint(j)] */\n      gt\n        /* \"Midas/Midas_main/src/libraries/PriceHelper.sol\":534:566  while (pivot > arr[uint(j)]) j-- */\n      iszero\n      tag_34\n      jumpi\n        /* \"Midas/Midas_main/src/libraries/PriceHelper.sol\":563:566  j-- */\n      dup2\n      tag_37\n      dup2\n      tag_38\n      jump\t// in\n    tag_37:\n      swap3\n      pop\n      pop\n        /* \"Midas/Midas_main/src/libraries/PriceHelper.sol\":534:566  while (pivot > arr[uint(j)]) j-- */\n      jump(tag_28)\n    tag_34:\n        /* \"Midas/Midas_main/src/libraries/PriceHelper.sol\":589:590  j */\n      dup2\n        /* \"Midas/Midas_main/src/libraries/PriceHelper.sol\":584:585  i */\n      dup4\n        /* \"Midas/Midas_main/src/libraries/PriceHelper.sol\":584:590  i <= j */\n      sgt\n        /* \"Midas/Midas_main/src/libraries/PriceHelper.sol\":580:726  if (i <= j) {... */\n      tag_39\n      jumpi\n        /* \"Midas/Midas_main/src/libraries/PriceHelper.sol\":642:645  arr */\n      dup6\n        /* \"Midas/Midas_main/src/libraries/PriceHelper.sol\":651:652  j */\n      dup3\n        /* \"Midas/Midas_main/src/libraries/PriceHelper.sol\":642:654  arr[uint(j)] */\n      dup2\n      mload\n      dup2\n      lt\n      tag_41\n      jumpi\n      tag_41\n      tag_24\n      jump\t// in\n    tag_41:\n      0x20\n      mul\n      0x20\n      add\n      add\n      mload\n        /* \"Midas/Midas_main/src/libraries/PriceHelper.sol\":656:659  arr */\n      dup7\n        /* \"Midas/Midas_main/src/libraries/PriceHelper.sol\":665:666  i */\n      dup5\n        /* \"Midas/Midas_main/src/libraries/PriceHelper.sol\":656:668  arr[uint(i)] */\n      dup2\n      mload\n      dup2\n      lt\n      tag_43\n      jumpi\n      tag_43\n      tag_24\n      jump\t// in\n    tag_43:\n      0x20\n      mul\n      0x20\n      add\n      add\n      mload\n        /* \"Midas/Midas_main/src/libraries/PriceHelper.sol\":611:614  arr */\n      dup8\n        /* \"Midas/Midas_main/src/libraries/PriceHelper.sol\":620:621  i */\n      dup6\n        /* \"Midas/Midas_main/src/libraries/PriceHelper.sol\":611:623  arr[uint(i)] */\n      dup2\n      mload\n      dup2\n      lt\n      tag_45\n      jumpi\n      tag_45\n      tag_24\n      jump\t// in\n    tag_45:\n      0x20\n      mul\n      0x20\n      add\n      add\n        /* \"Midas/Midas_main/src/libraries/PriceHelper.sol\":625:628  arr */\n      dup9\n        /* \"Midas/Midas_main/src/libraries/PriceHelper.sol\":634:635  j */\n      dup6\n        /* \"Midas/Midas_main/src/libraries/PriceHelper.sol\":625:637  arr[uint(j)] */\n      dup2\n      mload\n      dup2\n      lt\n      tag_47\n      jumpi\n      tag_47\n      tag_24\n      jump\t// in\n    tag_47:\n      0x20\n      swap1\n      dup2\n      mul\n      swap2\n      swap1\n      swap2\n      add\n      add\n        /* \"Midas/Midas_main/src/libraries/PriceHelper.sol\":610:669  (arr[uint(i)], arr[uint(j)]) = (arr[uint(j)], arr[uint(i)]) */\n      swap2\n      swap1\n      swap2\n      mstore\n      mstore\n        /* \"Midas/Midas_main/src/libraries/PriceHelper.sol\":687:690  i++ */\n      dup3\n      tag_48\n      dup2\n      tag_32\n      jump\t// in\n    tag_48:\n      swap4\n      pop\n      pop\n        /* \"Midas/Midas_main/src/libraries/PriceHelper.sol\":708:711  j-- */\n      dup2\n      dup1\n      tag_49\n      swap1\n      tag_38\n      jump\t// in\n    tag_49:\n      swap3\n      pop\n      pop\n        /* \"Midas/Midas_main/src/libraries/PriceHelper.sol\":580:726  if (i <= j) {... */\n    tag_39:\n        /* \"Midas/Midas_main/src/libraries/PriceHelper.sol\":459:736  while (i <= j) {... */\n      jump(tag_25)\n    tag_26:\n        /* \"Midas/Midas_main/src/libraries/PriceHelper.sol\":756:757  j */\n      dup2\n        /* \"Midas/Midas_main/src/libraries/PriceHelper.sol\":749:753  left */\n      dup6\n        /* \"Midas/Midas_main/src/libraries/PriceHelper.sol\":749:757  left < j */\n      slt\n        /* \"Midas/Midas_main/src/libraries/PriceHelper.sol\":745:782  if (left < j) quicksort(arr, left, j) */\n      iszero\n      tag_51\n      jumpi\n        /* \"Midas/Midas_main/src/libraries/PriceHelper.sol\":759:782  quicksort(arr, left, j) */\n      tag_51\n        /* \"Midas/Midas_main/src/libraries/PriceHelper.sol\":769:772  arr */\n      dup7\n        /* \"Midas/Midas_main/src/libraries/PriceHelper.sol\":774:778  left */\n      dup7\n        /* \"Midas/Midas_main/src/libraries/PriceHelper.sol\":780:781  j */\n      dup5\n        /* \"Midas/Midas_main/src/libraries/PriceHelper.sol\":759:768  quicksort */\n      tag_13\n        /* \"Midas/Midas_main/src/libraries/PriceHelper.sol\":759:782  quicksort(arr, left, j) */\n      jump\t// in\n    tag_51:\n        /* \"Midas/Midas_main/src/libraries/PriceHelper.sol\":800:805  right */\n      dup4\n        /* \"Midas/Midas_main/src/libraries/PriceHelper.sol\":796:797  i */\n      dup4\n        /* \"Midas/Midas_main/src/libraries/PriceHelper.sol\":796:805  i < right */\n      slt\n        /* \"Midas/Midas_main/src/libraries/PriceHelper.sol\":792:831  if (i < right) quicksort(arr, i, right) */\n      iszero\n      tag_53\n      jumpi\n        /* \"Midas/Midas_main/src/libraries/PriceHelper.sol\":807:831  quicksort(arr, i, right) */\n      tag_53\n        /* \"Midas/Midas_main/src/libraries/PriceHelper.sol\":817:820  arr */\n      dup7\n        /* \"Midas/Midas_main/src/libraries/PriceHelper.sol\":822:823  i */\n      dup5\n        /* \"Midas/Midas_main/src/libraries/PriceHelper.sol\":825:830  right */\n      dup7\n        /* \"Midas/Midas_main/src/libraries/PriceHelper.sol\":807:816  quicksort */\n      tag_13\n        /* \"Midas/Midas_main/src/libraries/PriceHelper.sol\":807:831  quicksort(arr, i, right) */\n      jump\t// in\n    tag_53:\n        /* \"Midas/Midas_main/src/libraries/PriceHelper.sol\":317:838  {... */\n      pop\n      pop\n      pop\n        /* \"Midas/Midas_main/src/libraries/PriceHelper.sol\":244:838  function quicksort(uint[] memory arr, int left, int right) internal pure {... */\n      pop\n      pop\n      pop\n      jump\t// out\n        /* \"#utility.yul\":14:141   */\n    tag_54:\n        /* \"#utility.yul\":75:85   */\n      0x4e487b71\n        /* \"#utility.yul\":70:73   */\n      0xe0\n        /* \"#utility.yul\":66:86   */\n      shl\n        /* \"#utility.yul\":63:64   */\n      0x00\n        /* \"#utility.yul\":56:87   */\n      mstore\n        /* \"#utility.yul\":106:110   */\n      0x41\n        /* \"#utility.yul\":103:104   */\n      0x04\n        /* \"#utility.yul\":96:111   */\n      mstore\n        /* \"#utility.yul\":130:134   */\n      0x24\n        /* \"#utility.yul\":127:128   */\n      0x00\n        /* \"#utility.yul\":120:135   */\n      revert\n        /* \"#utility.yul\":146:1261   */\n    tag_5:\n        /* \"#utility.yul\":230:236   */\n      0x00\n        /* \"#utility.yul\":261:263   */\n      0x20\n        /* \"#utility.yul\":304:306   */\n      dup1\n        /* \"#utility.yul\":292:301   */\n      dup4\n        /* \"#utility.yul\":283:290   */\n      dup6\n        /* \"#utility.yul\":279:302   */\n      sub\n        /* \"#utility.yul\":275:307   */\n      slt\n        /* \"#utility.yul\":272:324   */\n      iszero\n      tag_59\n      jumpi\n        /* \"#utility.yul\":320:321   */\n      0x00\n        /* \"#utility.yul\":317:318   */\n      dup1\n        /* \"#utility.yul\":310:322   */\n      revert\n        /* \"#utility.yul\":272:324   */\n    tag_59:\n        /* \"#utility.yul\":347:370   */\n      dup3\n      calldataload\n      sub(shl(0x40, 0x01), 0x01)\n        /* \"#utility.yul\":419:433   */\n      dup1\n      dup3\n      gt\n        /* \"#utility.yul\":416:450   */\n      iszero\n      tag_60\n      jumpi\n        /* \"#utility.yul\":446:447   */\n      0x00\n        /* \"#utility.yul\":443:444   */\n      dup1\n        /* \"#utility.yul\":436:448   */\n      revert\n        /* \"#utility.yul\":416:450   */\n    tag_60:\n        /* \"#utility.yul\":484:490   */\n      dup2\n        /* \"#utility.yul\":473:482   */\n      dup6\n        /* \"#utility.yul\":469:491   */\n      add\n        /* \"#utility.yul\":459:491   */\n      swap2\n      pop\n        /* \"#utility.yul\":529:536   */\n      dup6\n        /* \"#utility.yul\":522:526   */\n      0x1f\n        /* \"#utility.yul\":518:520   */\n      dup4\n        /* \"#utility.yul\":514:527   */\n      add\n        /* \"#utility.yul\":510:537   */\n      slt\n        /* \"#utility.yul\":500:555   */\n      tag_61\n      jumpi\n        /* \"#utility.yul\":551:552   */\n      0x00\n        /* \"#utility.yul\":548:549   */\n      dup1\n        /* \"#utility.yul\":541:553   */\n      revert\n        /* \"#utility.yul\":500:555   */\n    tag_61:\n        /* \"#utility.yul\":587:589   */\n      dup2\n        /* \"#utility.yul\":574:590   */\n      calldataload\n        /* \"#utility.yul\":609:611   */\n      dup2\n        /* \"#utility.yul\":605:607   */\n      dup2\n        /* \"#utility.yul\":602:612   */\n      gt\n        /* \"#utility.yul\":599:635   */\n      iszero\n      tag_63\n      jumpi\n        /* \"#utility.yul\":615:633   */\n      tag_63\n      tag_54\n      jump\t// in\n    tag_63:\n        /* \"#utility.yul\":661:663   */\n      dup1\n        /* \"#utility.yul\":658:659   */\n      0x05\n        /* \"#utility.yul\":654:664   */\n      shl\n        /* \"#utility.yul\":693:695   */\n      0x40\n        /* \"#utility.yul\":687:696   */\n      mload\n        /* \"#utility.yul\":756:758   */\n      0x1f\n        /* \"#utility.yul\":752:759   */\n      not\n        /* \"#utility.yul\":747:749   */\n      0x3f\n        /* \"#utility.yul\":743:745   */\n      dup4\n        /* \"#utility.yul\":739:750   */\n      add\n        /* \"#utility.yul\":735:760   */\n      and\n        /* \"#utility.yul\":727:733   */\n      dup2\n        /* \"#utility.yul\":723:761   */\n      add\n        /* \"#utility.yul\":811:817   */\n      dup2\n        /* \"#utility.yul\":799:809   */\n      dup2\n        /* \"#utility.yul\":796:818   */\n      lt\n        /* \"#utility.yul\":791:793   */\n      dup6\n        /* \"#utility.yul\":779:789   */\n      dup3\n        /* \"#utility.yul\":776:794   */\n      gt\n        /* \"#utility.yul\":773:819   */\n      or\n        /* \"#utility.yul\":770:842   */\n      iszero\n      tag_65\n      jumpi\n        /* \"#utility.yul\":822:840   */\n      tag_65\n      tag_54\n      jump\t// in\n    tag_65:\n        /* \"#utility.yul\":858:860   */\n      0x40\n        /* \"#utility.yul\":851:873   */\n      mstore\n        /* \"#utility.yul\":908:926   */\n      swap2\n      dup3\n      mstore\n        /* \"#utility.yul\":942:957   */\n      dup5\n      dup3\n      add\n      swap3\n      pop\n        /* \"#utility.yul\":984:995   */\n      dup4\n      dup2\n      add\n        /* \"#utility.yul\":980:1000   */\n      dup6\n      add\n      swap2\n        /* \"#utility.yul\":1012:1031   */\n      dup9\n      dup4\n      gt\n        /* \"#utility.yul\":1009:1048   */\n      iszero\n      tag_66\n      jumpi\n        /* \"#utility.yul\":1044:1045   */\n      0x00\n        /* \"#utility.yul\":1041:1042   */\n      dup1\n        /* \"#utility.yul\":1034:1046   */\n      revert\n        /* \"#utility.yul\":1009:1048   */\n    tag_66:\n        /* \"#utility.yul\":1068:1079   */\n      swap4\n      dup6\n      add\n      swap4\n        /* \"#utility.yul\":1088:1230   */\n    tag_67:\n        /* \"#utility.yul\":1104:1110   */\n      dup3\n        /* \"#utility.yul\":1099:1102   */\n      dup6\n        /* \"#utility.yul\":1096:1111   */\n      lt\n        /* \"#utility.yul\":1088:1230   */\n      iszero\n      tag_69\n      jumpi\n        /* \"#utility.yul\":1170:1187   */\n      dup5\n      calldataload\n        /* \"#utility.yul\":1158:1188   */\n      dup5\n      mstore\n        /* \"#utility.yul\":1121:1133   */\n      swap4\n      dup6\n      add\n      swap4\n        /* \"#utility.yul\":1208:1220   */\n      swap3\n      dup6\n      add\n      swap3\n        /* \"#utility.yul\":1088:1230   */\n      jump(tag_67)\n    tag_69:\n        /* \"#utility.yul\":1249:1255   */\n      swap9\n        /* \"#utility.yul\":146:1261   */\n      swap8\n      pop\n      pop\n      pop\n      pop\n      pop\n      pop\n      pop\n      pop\n      jump\t// out\n        /* \"#utility.yul\":1266:1906   */\n    tag_8:\n        /* \"#utility.yul\":1445:1447   */\n      0x20\n        /* \"#utility.yul\":1497:1518   */\n      dup1\n      dup3\n      mstore\n        /* \"#utility.yul\":1567:1580   */\n      dup3\n      mload\n        /* \"#utility.yul\":1470:1488   */\n      dup3\n      dup3\n      add\n        /* \"#utility.yul\":1589:1611   */\n      dup2\n      swap1\n      mstore\n        /* \"#utility.yul\":1416:1420   */\n      0x00\n      swap2\n        /* \"#utility.yul\":1445:1447   */\n      swap1\n        /* \"#utility.yul\":1668:1683   */\n      dup5\n      dup3\n      add\n      swap1\n        /* \"#utility.yul\":1642:1644   */\n      0x40\n        /* \"#utility.yul\":1627:1645   */\n      dup6\n      add\n      swap1\n        /* \"#utility.yul\":1416:1420   */\n      dup5\n        /* \"#utility.yul\":1711:1880   */\n    tag_71:\n        /* \"#utility.yul\":1725:1731   */\n      dup2\n        /* \"#utility.yul\":1722:1723   */\n      dup2\n        /* \"#utility.yul\":1719:1732   */\n      lt\n        /* \"#utility.yul\":1711:1880   */\n      iszero\n      tag_73\n      jumpi\n        /* \"#utility.yul\":1786:1799   */\n      dup4\n      mload\n        /* \"#utility.yul\":1774:1800   */\n      dup4\n      mstore\n        /* \"#utility.yul\":1855:1870   */\n      swap3\n      dup5\n      add\n      swap3\n        /* \"#utility.yul\":1820:1832   */\n      swap2\n      dup5\n      add\n      swap2\n        /* \"#utility.yul\":1747:1748   */\n      0x01\n        /* \"#utility.yul\":1740:1749   */\n      add\n        /* \"#utility.yul\":1711:1880   */\n      jump(tag_71)\n    tag_73:\n      pop\n        /* \"#utility.yul\":1897:1900   */\n      swap1\n      swap7\n        /* \"#utility.yul\":1266:1906   */\n      swap6\n      pop\n      pop\n      pop\n      pop\n      pop\n      pop\n      jump\t// out\n        /* \"#utility.yul\":1911:2038   */\n    tag_55:\n        /* \"#utility.yul\":1972:1982   */\n      0x4e487b71\n        /* \"#utility.yul\":1967:1970   */\n      0xe0\n        /* \"#utility.yul\":1963:1983   */\n      shl\n        /* \"#utility.yul\":1960:1961   */\n      0x00\n        /* \"#utility.yul\":1953:1984   */\n      mstore\n        /* \"#utility.yul\":2003:2007   */\n      0x11\n        /* \"#utility.yul\":2000:2001   */\n      0x04\n        /* \"#utility.yul\":1993:2008   */\n      mstore\n        /* \"#utility.yul\":2027:2031   */\n      0x24\n        /* \"#utility.yul\":2024:2025   */\n      0x00\n        /* \"#utility.yul\":2017:2032   */\n      revert\n        /* \"#utility.yul\":2043:2168   */\n    tag_12:\n        /* \"#utility.yul\":2083:2087   */\n      0x00\n        /* \"#utility.yul\":2111:2112   */\n      dup3\n        /* \"#utility.yul\":2108:2109   */\n      dup3\n        /* \"#utility.yul\":2105:2113   */\n      lt\n        /* \"#utility.yul\":2102:2136   */\n      iszero\n      tag_77\n      jumpi\n        /* \"#utility.yul\":2116:2134   */\n      tag_77\n      tag_55\n      jump\t// in\n    tag_77:\n      pop\n        /* \"#utility.yul\":2153:2162   */\n      sub\n      swap1\n        /* \"#utility.yul\":2043:2168   */\n      jump\t// out\n        /* \"#utility.yul\":2173:2440   */\n    tag_17:\n        /* \"#utility.yul\":2212:2216   */\n      0x00\n        /* \"#utility.yul\":2241:2250   */\n      dup1\n      dup4\n      slt\n        /* \"#utility.yul\":2266:2276   */\n      dup1\n      iszero\n      shl(0xff, 0x01)\n        /* \"#utility.yul\":2285:2304   */\n      dup6\n      add\n        /* \"#utility.yul\":2278:2305   */\n      dup5\n      slt\n        /* \"#utility.yul\":2262:2306   */\n      and\n        /* \"#utility.yul\":2259:2329   */\n      iszero\n      tag_80\n      jumpi\n        /* \"#utility.yul\":2309:2327   */\n      tag_80\n      tag_55\n      jump\t// in\n    tag_80:\n      sub(shl(0xff, 0x01), 0x01)\n        /* \"#utility.yul\":2356:2383   */\n      dup5\n      add\n        /* \"#utility.yul\":2349:2384   */\n      dup4\n      sgt\n        /* \"#utility.yul\":2341:2385   */\n      dup2\n      and\n        /* \"#utility.yul\":2338:2408   */\n      iszero\n      tag_82\n      jumpi\n        /* \"#utility.yul\":2388:2406   */\n      tag_82\n      tag_55\n      jump\t// in\n    tag_82:\n      pop\n      pop\n        /* \"#utility.yul\":2425:2434   */\n      sub\n      swap1\n        /* \"#utility.yul\":2173:2440   */\n      jump\t// out\n        /* \"#utility.yul\":2445:2735   */\n    tag_19:\n        /* \"#utility.yul\":2484:2485   */\n      0x00\n        /* \"#utility.yul\":2510:2511   */\n      dup3\n        /* \"#utility.yul\":2500:2632   */\n      tag_84\n      jumpi\n        /* \"#utility.yul\":2554:2564   */\n      0x4e487b71\n        /* \"#utility.yul\":2549:2552   */\n      0xe0\n        /* \"#utility.yul\":2545:2565   */\n      shl\n        /* \"#utility.yul\":2542:2543   */\n      0x00\n        /* \"#utility.yul\":2535:2566   */\n      mstore\n        /* \"#utility.yul\":2589:2593   */\n      0x12\n        /* \"#utility.yul\":2586:2587   */\n      0x04\n        /* \"#utility.yul\":2579:2594   */\n      mstore\n        /* \"#utility.yul\":2617:2621   */\n      0x24\n        /* \"#utility.yul\":2614:2615   */\n      0x00\n        /* \"#utility.yul\":2607:2622   */\n      revert\n        /* \"#utility.yul\":2500:2632   */\n    tag_84:\n      shl(0xff, 0x01)\n        /* \"#utility.yul\":2648:2666   */\n      dup3\n      eq\n      not(0x00)\n        /* \"#utility.yul\":2668:2681   */\n      dup5\n      eq\n        /* \"#utility.yul\":2644:2682   */\n      and\n        /* \"#utility.yul\":2641:2705   */\n      iszero\n      tag_86\n      jumpi\n        /* \"#utility.yul\":2685:2703   */\n      tag_86\n      tag_55\n      jump\t// in\n    tag_86:\n      pop\n        /* \"#utility.yul\":2719:2729   */\n      sdiv\n      swap1\n        /* \"#utility.yul\":2445:2735   */\n      jump\t// out\n        /* \"#utility.yul\":2740:3005   */\n    tag_21:\n        /* \"#utility.yul\":2779:2782   */\n      0x00\n        /* \"#utility.yul\":2807:2816   */\n      dup1\n      dup3\n      slt\n        /* \"#utility.yul\":2832:2842   */\n      dup1\n      iszero\n      sub(shl(0xff, 0x01), 0x01)\n        /* \"#utility.yul\":2851:2878   */\n      dup5\n      swap1\n      sub\n        /* \"#utility.yul\":2844:2879   */\n      dup6\n      sgt\n        /* \"#utility.yul\":2828:2880   */\n      and\n        /* \"#utility.yul\":2825:2903   */\n      iszero\n      tag_89\n      jumpi\n        /* \"#utility.yul\":2883:2901   */\n      tag_89\n      tag_55\n      jump\t// in\n    tag_89:\n      shl(0xff, 0x01)\n        /* \"#utility.yul\":2930:2949   */\n      dup4\n      swap1\n      sub\n        /* \"#utility.yul\":2923:2950   */\n      dup5\n      slt\n        /* \"#utility.yul\":2915:2951   */\n      dup2\n      and\n        /* \"#utility.yul\":2912:2974   */\n      iszero\n      tag_91\n      jumpi\n        /* \"#utility.yul\":2954:2972   */\n      tag_91\n      tag_55\n      jump\t// in\n    tag_91:\n      pop\n      pop\n        /* \"#utility.yul\":2990:2999   */\n      add\n      swap1\n        /* \"#utility.yul\":2740:3005   */\n      jump\t// out\n        /* \"#utility.yul\":3010:3137   */\n    tag_24:\n        /* \"#utility.yul\":3071:3081   */\n      0x4e487b71\n        /* \"#utility.yul\":3066:3069   */\n      0xe0\n        /* \"#utility.yul\":3062:3082   */\n      shl\n        /* \"#utility.yul\":3059:3060   */\n      0x00\n        /* \"#utility.yul\":3052:3083   */\n      mstore\n        /* \"#utility.yul\":3102:3106   */\n      0x32\n        /* \"#utility.yul\":3099:3100   */\n      0x04\n        /* \"#utility.yul\":3092:3107   */\n      mstore\n        /* \"#utility.yul\":3126:3130   */\n      0x24\n        /* \"#utility.yul\":3123:3124   */\n      0x00\n        /* \"#utility.yul\":3116:3131   */\n      revert\n        /* \"#utility.yul\":3142:3289   */\n    tag_32:\n        /* \"#utility.yul\":3180:3183   */\n      0x00\n      sub(shl(0xff, 0x01), 0x01)\n        /* \"#utility.yul\":3201:3231   */\n      dup3\n      eq\n        /* \"#utility.yul\":3198:3254   */\n      iszero\n      tag_95\n      jumpi\n        /* \"#utility.yul\":3234:3252   */\n      tag_95\n      tag_55\n      jump\t// in\n    tag_95:\n      pop\n        /* \"#utility.yul\":3281:3282   */\n      0x01\n        /* \"#utility.yul\":3270:3283   */\n      add\n      swap1\n        /* \"#utility.yul\":3142:3289   */\n      jump\t// out\n        /* \"#utility.yul\":3294:3438   */\n    tag_38:\n        /* \"#utility.yul\":3332:3335   */\n      0x00\n      shl(0xff, 0x01)\n        /* \"#utility.yul\":3353:3375   */\n      dup3\n      eq\n        /* \"#utility.yul\":3350:3398   */\n      iszero\n      tag_98\n      jumpi\n        /* \"#utility.yul\":3378:3396   */\n      tag_98\n      tag_55\n      jump\t// in\n    tag_98:\n      pop\n      not(0x00)\n        /* \"#utility.yul\":3414:3432   */\n      add\n      swap1\n        /* \"#utility.yul\":3294:3438   */\n      jump\t// out\n\n    auxdata: 0xa264697066735822122053daa6dd1eef82ff2f2145c114adac5436768ee5eea95f8f442c383585ae222464736f6c634300080a0033\n}\n",
				"bytecode": {
					"linkReferences": {},
					"object": "61048d61003a600b82828239805160001a60731461002d57634e487b7160e01b600052600060045260246000fd5b30600052607381538281f3fe73000000000000000000000000000000000000000030146080604052600436106100355760003560e01c80639d13c02f1461003a575b600080fd5b61004d610048366004610219565b610063565b60405161005a91906102d6565b60405180910390f35b606061007e826000600185516100799190610330565b610082565b5090565b818180821415610093575050505050565b60008560026100a28787610347565b6100ac9190610386565b6100b690876103c2565b815181106100c6576100c6610403565b602002602001015190505b8183136101d5575b808684815181106100ec576100ec610403565b6020026020010151111561010c578261010481610419565b9350506100d9565b85828151811061011e5761011e610403565b602002602001015181111561013f578161013781610439565b92505061010c565b8183136101d05785828151811061015857610158610403565b602002602001015186848151811061017257610172610403565b602002602001015187858151811061018c5761018c610403565b602002602001018885815181106101a5576101a5610403565b602090810291909101019190915252826101be81610419565b93505081806101cc90610439565b9250505b6100d1565b818512156101e8576101e8868684610082565b838312156101fb576101fb868486610082565b505050505050565b634e487b7160e01b600052604160045260246000fd5b6000602080838503121561022c57600080fd5b82356001600160401b038082111561024357600080fd5b818501915085601f83011261025757600080fd5b81358181111561026957610269610203565b8060051b604051601f19603f8301168101818110858211171561028e5761028e610203565b6040529182528482019250838101850191888311156102ac57600080fd5b938501935b828510156102ca578435845293850193928501926102b1565b98975050505050505050565b6020808252825182820181905260009190848201906040850190845b8181101561030e578351835292840192918401916001016102f2565b50909695505050505050565b634e487b7160e01b600052601160045260246000fd5b6000828210156103425761034261031a565b500390565b60008083128015600160ff1b8501841216156103655761036561031a565b6001600160ff1b03840183138116156103805761038061031a565b50500390565b6000826103a357634e487b7160e01b600052601260045260246000fd5b600160ff1b8214600019841416156103bd576103bd61031a565b500590565b600080821280156001600160ff1b03849003851316156103e4576103e461031a565b600160ff1b83900384128116156103fd576103fd61031a565b50500190565b634e487b7160e01b600052603260045260246000fd5b60006001600160ff1b038214156104325761043261031a565b5060010190565b6000600160ff1b82141561044f5761044f61031a565b50600019019056fea264697066735822122053daa6dd1eef82ff2f2145c114adac5436768ee5eea95f8f442c383585ae222464736f6c634300080a0033",
					"opcodes": "PUSH2 0x48D PUSH2 0x3A PUSH1 0xB DUP3 DUP3 DUP3 CODECOPY DUP1 MLOAD PUSH1 0x0 BYTE PUSH1 0x73 EQ PUSH2 0x2D JUMPI PUSH4 0x4E487B71 PUSH1 0xE0 SHL PUSH1 0x0 MSTORE PUSH1 0x0 PUSH1 0x4 MSTORE PUSH1 0x24 PUSH1 0x0 REVERT JUMPDEST ADDRESS PUSH1 0x0 MSTORE PUSH1 0x73 DUP2 MSTORE8 DUP3 DUP2 RETURN INVALID PUSH20 0x0 ADDRESS EQ PUSH1 0x80 PUSH1 0x40 MSTORE PUSH1 0x4 CALLDATASIZE LT PUSH2 0x35 JUMPI PUSH1 0x0 CALLDATALOAD PUSH1 0xE0 SHR DUP1 PUSH4 0x9D13C02F EQ PUSH2 0x3A JUMPI JUMPDEST PUSH1 0x0 DUP1 REVERT JUMPDEST PUSH2 0x4D PUSH2 0x48 CALLDATASIZE PUSH1 0x4 PUSH2 0x219 JUMP JUMPDEST PUSH2 0x63 JUMP JUMPDEST PUSH1 0x40 MLOAD PUSH2 0x5A SWAP2 SWAP1 PUSH2 0x2D6 JUMP JUMPDEST PUSH1 0x40 MLOAD DUP1 SWAP2 SUB SWAP1 RETURN JUMPDEST PUSH1 0x60 PUSH2 0x7E DUP3 PUSH1 0x0 PUSH1 0x1 DUP6 MLOAD PUSH2 0x79 SWAP2 SWAP1 PUSH2 0x330 JUMP JUMPDEST PUSH2 0x82 JUMP JUMPDEST POP SWAP1 JUMP JUMPDEST DUP2 DUP2 DUP1 DUP3 EQ ISZERO PUSH2 0x93 JUMPI POP POP POP POP POP JUMP JUMPDEST PUSH1 0x0 DUP6 PUSH1 0x2 PUSH2 0xA2 DUP8 DUP8 PUSH2 0x347 JUMP JUMPDEST PUSH2 0xAC SWAP2 SWAP1 PUSH2 0x386 JUMP JUMPDEST PUSH2 0xB6 SWAP1 DUP8 PUSH2 0x3C2 JUMP JUMPDEST DUP2 MLOAD DUP2 LT PUSH2 0xC6 JUMPI PUSH2 0xC6 PUSH2 0x403 JUMP JUMPDEST PUSH1 0x20 MUL PUSH1 0x20 ADD ADD MLOAD SWAP1 POP JUMPDEST DUP2 DUP4 SGT PUSH2 0x1D5 JUMPI JUMPDEST DUP1 DUP7 DUP5 DUP2 MLOAD DUP2 LT PUSH2 0xEC JUMPI PUSH2 0xEC PUSH2 0x403 JUMP JUMPDEST PUSH1 0x20 MUL PUSH1 0x20 ADD ADD MLOAD GT ISZERO PUSH2 0x10C JUMPI DUP3 PUSH2 0x104 DUP2 PUSH2 0x419 JUMP JUMPDEST SWAP4 POP POP PUSH2 0xD9 JUMP JUMPDEST DUP6 DUP3 DUP2 MLOAD DUP2 LT PUSH2 0x11E JUMPI PUSH2 0x11E PUSH2 0x403 JUMP JUMPDEST PUSH1 0x20 MUL PUSH1 0x20 ADD ADD MLOAD DUP2 GT ISZERO PUSH2 0x13F JUMPI DUP2 PUSH2 0x137 DUP2 PUSH2 0x439 JUMP JUMPDEST SWAP3 POP POP PUSH2 0x10C JUMP JUMPDEST DUP2 DUP4 SGT PUSH2 0x1D0 JUMPI DUP6 DUP3 DUP2 MLOAD DUP2 LT PUSH2 0x158 JUMPI PUSH2 0x158 PUSH2 0x403 JUMP JUMPDEST PUSH1 0x20 MUL PUSH1 0x20 ADD ADD MLOAD DUP7 DUP5 DUP2 MLOAD DUP2 LT PUSH2 0x172 JUMPI PUSH2 0x172 PUSH2 0x403 JUMP JUMPDEST PUSH1 0x20 MUL PUSH1 0x20 ADD ADD MLOAD DUP8 DUP6 DUP2 MLOAD DUP2 LT PUSH2 0x18C JUMPI PUSH2 0x18C PUSH2 0x403 JUMP JUMPDEST PUSH1 0x20 MUL PUSH1 0x20 ADD ADD DUP9 DUP6 DUP2 MLOAD DUP2 LT PUSH2 0x1A5 JUMPI PUSH2 0x1A5 PUSH2 0x403 JUMP JUMPDEST PUSH1 0x20 SWAP1 DUP2 MUL SWAP2 SWAP1 SWAP2 ADD ADD SWAP2 SWAP1 SWAP2 MSTORE MSTORE DUP3 PUSH2 0x1BE DUP2 PUSH2 0x419 JUMP JUMPDEST SWAP4 POP POP DUP2 DUP1 PUSH2 0x1CC SWAP1 PUSH2 0x439 JUMP JUMPDEST SWAP3 POP POP JUMPDEST PUSH2 0xD1 JUMP JUMPDEST DUP2 DUP6 SLT ISZERO PUSH2 0x1E8 JUMPI PUSH2 0x1E8 DUP7 DUP7 DUP5 PUSH2 0x82 JUMP JUMPDEST DUP4 DUP4 SLT ISZERO PUSH2 0x1FB JUMPI PUSH2 0x1FB DUP7 DUP5 DUP7 PUSH2 0x82 JUMP JUMPDEST POP POP POP POP POP POP JUMP JUMPDEST PUSH4 0x4E487B71 PUSH1 0xE0 SHL PUSH1 0x0 MSTORE PUSH1 0x41 PUSH1 0x4 MSTORE PUSH1 0x24 PUSH1 0x0 REVERT JUMPDEST PUSH1 0x0 PUSH1 0x20 DUP1 DUP4 DUP6 SUB SLT ISZERO PUSH2 0x22C JUMPI PUSH1 0x0 DUP1 REVERT JUMPDEST DUP3 CALLDATALOAD PUSH1 0x1 PUSH1 0x1 PUSH1 0x40 SHL SUB DUP1 DUP3 GT ISZERO PUSH2 0x243 JUMPI PUSH1 0x0 DUP1 REVERT JUMPDEST DUP2 DUP6 ADD SWAP2 POP DUP6 PUSH1 0x1F DUP4 ADD SLT PUSH2 0x257 JUMPI PUSH1 0x0 DUP1 REVERT JUMPDEST DUP2 CALLDATALOAD DUP2 DUP2 GT ISZERO PUSH2 0x269 JUMPI PUSH2 0x269 PUSH2 0x203 JUMP JUMPDEST DUP1 PUSH1 0x5 SHL PUSH1 0x40 MLOAD PUSH1 0x1F NOT PUSH1 0x3F DUP4 ADD AND DUP2 ADD DUP2 DUP2 LT DUP6 DUP3 GT OR ISZERO PUSH2 0x28E JUMPI PUSH2 0x28E PUSH2 0x203 JUMP JUMPDEST PUSH1 0x40 MSTORE SWAP2 DUP3 MSTORE DUP5 DUP3 ADD SWAP3 POP DUP4 DUP2 ADD DUP6 ADD SWAP2 DUP9 DUP4 GT ISZERO PUSH2 0x2AC JUMPI PUSH1 0x0 DUP1 REVERT JUMPDEST SWAP4 DUP6 ADD SWAP4 JUMPDEST DUP3 DUP6 LT ISZERO PUSH2 0x2CA JUMPI DUP5 CALLDATALOAD DUP5 MSTORE SWAP4 DUP6 ADD SWAP4 SWAP3 DUP6 ADD SWAP3 PUSH2 0x2B1 JUMP JUMPDEST SWAP9 SWAP8 POP POP POP POP POP POP POP POP JUMP JUMPDEST PUSH1 0x20 DUP1 DUP3 MSTORE DUP3 MLOAD DUP3 DUP3 ADD DUP2 SWAP1 MSTORE PUSH1 0x0 SWAP2 SWAP1 DUP5 DUP3 ADD SWAP1 PUSH1 0x40 DUP6 ADD SWAP1 DUP5 JUMPDEST DUP2 DUP2 LT ISZERO PUSH2 0x30E JUMPI DUP4 MLOAD DUP4 MSTORE SWAP3 DUP5 ADD SWAP3 SWAP2 DUP5 ADD SWAP2 PUSH1 0x1 ADD PUSH2 0x2F2 JUMP JUMPDEST POP SWAP1 SWAP7 SWAP6 POP POP POP POP POP POP JUMP JUMPDEST PUSH4 0x4E487B71 PUSH1 0xE0 SHL PUSH1 0x0 MSTORE PUSH1 0x11 PUSH1 0x4 MSTORE PUSH1 0x24 PUSH1 0x0 REVERT JUMPDEST PUSH1 0x0 DUP3 DUP3 LT ISZERO PUSH2 0x342 JUMPI PUSH2 0x342 PUSH2 0x31A JUMP JUMPDEST POP SUB SWAP1 JUMP JUMPDEST PUSH1 0x0 DUP1 DUP4 SLT DUP1 ISZERO PUSH1 0x1 PUSH1 0xFF SHL DUP6 ADD DUP5 SLT AND ISZERO PUSH2 0x365 JUMPI PUSH2 0x365 PUSH2 0x31A JUMP JUMPDEST PUSH1 0x1 PUSH1 0x1 PUSH1 0xFF SHL SUB DUP5 ADD DUP4 SGT DUP2 AND ISZERO PUSH2 0x380 JUMPI PUSH2 0x380 PUSH2 0x31A JUMP JUMPDEST POP POP SUB SWAP1 JUMP JUMPDEST PUSH1 0x0 DUP3 PUSH2 0x3A3 JUMPI PUSH4 0x4E487B71 PUSH1 0xE0 SHL PUSH1 0x0 MSTORE PUSH1 0x12 PUSH1 0x4 MSTORE PUSH1 0x24 PUSH1 0x0 REVERT JUMPDEST PUSH1 0x1 PUSH1 0xFF SHL DUP3 EQ PUSH1 0x0 NOT DUP5 EQ AND ISZERO PUSH2 0x3BD JUMPI PUSH2 0x3BD PUSH2 0x31A JUMP JUMPDEST POP SDIV SWAP1 JUMP JUMPDEST PUSH1 0x0 DUP1 DUP3 SLT DUP1 ISZERO PUSH1 0x1 PUSH1 0x1 PUSH1 0xFF SHL SUB DUP5 SWAP1 SUB DUP6 SGT AND ISZERO PUSH2 0x3E4 JUMPI PUSH2 0x3E4 PUSH2 0x31A JUMP JUMPDEST PUSH1 0x1 PUSH1 0xFF SHL DUP4 SWAP1 SUB DUP5 SLT DUP2 AND ISZERO PUSH2 0x3FD JUMPI PUSH2 0x3FD PUSH2 0x31A JUMP JUMPDEST POP POP ADD SWAP1 JUMP JUMPDEST PUSH4 0x4E487B71 PUSH1 0xE0 SHL PUSH1 0x0 MSTORE PUSH1 0x32 PUSH1 0x4 MSTORE PUSH1 0x24 PUSH1 0x0 REVERT JUMPDEST PUSH1 0x0 PUSH1 0x1 PUSH1 0x1 PUSH1 0xFF SHL SUB DUP3 EQ ISZERO PUSH2 0x432 JUMPI PUSH2 0x432 PUSH2 0x31A JUMP JUMPDEST POP PUSH1 0x1 ADD SWAP1 JUMP JUMPDEST PUSH1 0x0 PUSH1 0x1 PUSH1 0xFF SHL DUP3 EQ ISZERO PUSH2 0x44F JUMPI PUSH2 0x44F PUSH2 0x31A JUMP JUMPDEST POP PUSH1 0x0 NOT ADD SWAP1 JUMP INVALID LOG2 PUSH5 0x6970667358 0x22 SLT KECCAK256 MSTORE8 0xDA 0xA6 0xDD 0x1E 0xEF DUP3 SELFDESTRUCT 0x2F 0x21 GASLIMIT 0xC1 EQ 0xAD 0xAC SLOAD CALLDATASIZE PUSH23 0x8EE5EEA95F8F442C383585AE222464736F6C634300080A STOP CALLER "
				},
				"gasEstimates": {
					"creation": {
						"codeDepositCost": "233000",
						"executionCost": "306",
						"totalCost": "233306"
					},
					"external": {
						"sortDesc(uint256[])": "infinite"
					},
					"internal": {
						"quicksort(uint256[] memory,int256,int256)": "infinite"
					}
				},
				"methodIdentifiers": {
					"sortDesc(uint256[])": "9d13c02f"
				}
			},
			"storageLayout": {
				"storage": [],
				"types": null
			},
			"userdoc": {
				"kind": "user",
				"methods": {},
				"version": 1
			}
		}
	}
}