{
	"data": {
		"bytecode": {
			"linkReferences": {},
			"object": "60e06040523480156200001157600080fd5b506040516200345b3803806200345b833981810160405281019062000037919062000146565b8273ffffffffffffffffffffffffffffffffffffffff1660808173ffffffffffffffffffffffffffffffffffffffff16815250508173ffffffffffffffffffffffffffffffffffffffff1660a08173ffffffffffffffffffffffffffffffffffffffff16815250508073ffffffffffffffffffffffffffffffffffffffff1660c08173ffffffffffffffffffffffffffffffffffffffff1681525050505050620001a2565b600080fd5b600073ffffffffffffffffffffffffffffffffffffffff82169050919050565b60006200010e82620000e1565b9050919050565b620001208162000101565b81146200012c57600080fd5b50565b600081519050620001408162000115565b92915050565b600080600060608486031215620001625762000161620000dc565b5b600062000172868287016200012f565b935050602062000185868287016200012f565b925050604062000198868287016200012f565b9150509250925092565b60805160a05160c05161325f620001fc60003960008181610160015281816107d2015261142b0152600081816101180152818161041a01526110cc01526000818161013c01528181610a18015261167d015261325f6000f3fe608060405234801561001057600080fd5b50600436106100575760003560e01c80633957f4531461005c578063502f74461461007a57806368e0d4e1146100985780637000af3f146100b6578063c1b7687b146100e6575b600080fd5b610064610116565b60405161007191906125ab565b60405180910390f35b61008261013a565b60405161008f91906125ab565b60405180910390f35b6100a061015e565b6040516100ad91906125ab565b60405180910390f35b6100d060048036038101906100cb9190612675565b610182565b6040516100dd91906128fd565b60405180910390f35b61010060048036038101906100fb9190612675565b610e36565b60405161010d91906128fd565b60405180910390f35b7f000000000000000000000000000000000000000000000000000000000000000081565b7f000000000000000000000000000000000000000000000000000000000000000081565b7f000000000000000000000000000000000000000000000000000000000000000081565b61018a612534565b60028484905010156101c8576040517f2973c80b00000000000000000000000000000000000000000000000000000000815260040160405180910390fd5b838380806020026020016040519081016040528093929190818152602001838360200280828437600081840152601f19601f8201169050808301925050505050505081600001819052506000600185859050610224919061294e565b90508067ffffffffffffffff8111156102405761023f612982565b5b60405190808252806020026020018201604052801561026e5781602001602082028036833780820191505090505b5082602001819052508067ffffffffffffffff81111561029157610290612982565b5b6040519080825280602002602001820160405280156102bf5781602001602082028036833780820191505090505b5082604001819052508067ffffffffffffffff8111156102e2576102e1612982565b5b6040519080825280602002602001820160405280156103105781602001602082028036833780820191505090505b508260a001819052508484905067ffffffffffffffff81111561033657610335612982565b5b6040519080825280602002602001820160405280156103645781602001602082028036833780820191505090505b5082606001819052508484905067ffffffffffffffff81111561038a57610389612982565b5b6040519080825280602002602001820160405280156103b85781602001602082028036833780820191505090505b50826080018190525082826060015182815181106103d9576103d86129b1565b5b60200260200101818152505082826080015182815181106103fd576103fc6129b1565b5b60200260200101818152505060008190505b6000811115610e2d577f000000000000000000000000000000000000000000000000000000000000000073ffffffffffffffffffffffffffffffffffffffff1663e6a439058787600185610463919061294e565b818110610473576104726129b1565b5b90506020020160208101906104889190612a0c565b88888581811061049b5761049a6129b1565b5b90506020020160208101906104b09190612a0c565b6040518363ffffffff1660e01b81526004016104cd929190612a39565b602060405180830381865afa1580156104ea573d6000803e3d6000fd5b505050506040513d601f19601f8201168201806040525081019061050e9190612a77565b8360200151600183610520919061294e565b81518110610531576105306129b1565b5b602002602001019073ffffffffffffffffffffffffffffffffffffffff16908173ffffffffffffffffffffffffffffffffffffffff1681525050600073ffffffffffffffffffffffffffffffffffffffff168360200151600183610595919061294e565b815181106105a6576105a56129b1565b5b602002602001015173ffffffffffffffffffffffffffffffffffffffff16141580156105f057506000836060015182815181106105e6576105e56129b1565b5b6020026020010151115b156107ce57600080610687856020015160018561060d919061294e565b8151811061061e5761061d6129b1565b5b60200260200101518989600187610635919061294e565b818110610645576106446129b1565b5b905060200201602081019061065a9190612a0c565b8a8a8781811061066d5761066c6129b1565b5b90506020020160208101906106829190612a0c565b611a1c565b915091506000821180156106b85750846060015183815181106106ad576106ac6129b1565b5b602002602001015181115b156107cb576106e6856060015184815181106106d7576106d66129b1565b5b60200260200101518383611b15565b85606001516001856106f8919061294e565b81518110610709576107086129b1565b5b602002602001018181525050600161075a6103e887608001518681518110610734576107336129b1565b5b60200260200101516107469190612aa4565b6103e5846107549190612aa4565b85611bf4565b6107649190612afe565b8560800151600185610776919061294e565b81518110610787576107866129b1565b5b602002602001018181525050660aa87bee5380008560a001516001856107ad919061294e565b815181106107be576107bd6129b1565b5b6020026020010181815250505b50505b60007f000000000000000000000000000000000000000000000000000000000000000073ffffffffffffffffffffffffffffffffffffffff16636622e0d7888860018661081b919061294e565b81811061082b5761082a6129b1565b5b90506020020160208101906108409190612a0c565b898986818110610853576108526129b1565b5b90506020020160208101906108689190612a0c565b6040518363ffffffff1660e01b8152600401610885929190612bb3565b600060405180830381865afa1580156108a2573d6000803e3d6000fd5b505050506040513d6000823e3d601f19601f820116820180604052508101906108cb9190612e29565b9050600081511180156108fc57506000846060015183815181106108f2576108f16129b1565b5b6020026020010151115b15610e195760005b8151811015610e17578181815181106109205761091f6129b1565b5b602002602001015160600151610e04576000888885818110610945576109446129b1565b5b905060200201602081019061095a9190612a0c565b73ffffffffffffffffffffffffffffffffffffffff16838381518110610983576109826129b1565b5b60200260200101516020015173ffffffffffffffffffffffffffffffffffffffff1663b7d19fc46040518163ffffffff1660e01b8152600401602060405180830381865afa1580156109d9573d6000803e3d6000fd5b505050506040513d601f19601f820116820180604052508101906109fd9190612eb0565b73ffffffffffffffffffffffffffffffffffffffff161490507f000000000000000000000000000000000000000000000000000000000000000073ffffffffffffffffffffffffffffffffffffffff16635bdd4b7c848481518110610a6557610a646129b1565b5b60200260200101516020015188606001518781518110610a8857610a876129b1565b5b6020026020010151846040518463ffffffff1660e01b8152600401610aaf93929190612f1c565b6040805180830381865afa925050508015610ae857506040513d601f19601f82011682018060405250810190610ae59190612f68565b60015b610af157610e02565b60008214158015610b6057508760600151600187610b0f919061294e565b81518110610b2057610b1f6129b1565b5b6020026020010151821080610b5f575060008860600151600188610b44919061294e565b81518110610b5557610b546129b1565b5b6020026020010151145b5b15610dff57818860600151600188610b78919061294e565b81518110610b8957610b886129b1565b5b602002602001018181525050848481518110610ba857610ba76129b1565b5b6020026020010151602001518860200151600188610bc6919061294e565b81518110610bd757610bd66129b1565b5b602002602001019073ffffffffffffffffffffffffffffffffffffffff16908173ffffffffffffffffffffffffffffffffffffffff1681525050848481518110610c2457610c236129b1565b5b60200260200101516000015161ffff168860400151600188610c46919061294e565b81518110610c5757610c566129b1565b5b6020026020010181815250506000858581518110610c7857610c776129b1565b5b60200260200101516020015173ffffffffffffffffffffffffffffffffffffffff16631b05b83e6040518163ffffffff1660e01b8152600401606060405180830381865afa158015610cce573d6000803e3d6000fd5b505050506040513d601f19601f82011682018060405250810190610cf29190612fa8565b9250505081610d4c8a608001518981518110610d1157610d106129b1565b5b6020026020010151838c6040015160018c610d2c919061294e565b81518110610d3d57610d3c6129b1565b5b60200260200101518815611c96565b610d569190612afe565b8960800151600189610d68919061294e565b81518110610d7957610d786129b1565b5b6020026020010181815250508860600151600188610d97919061294e565b81518110610da857610da76129b1565b5b6020026020010151670de0b6b3a764000083610dc49190612aa4565b610dce919061302a565b8960a00151600189610de0919061294e565b81518110610df157610df06129b1565b5b602002602001018181525050505b50505b505b8080610e0f9061305b565b915050610904565b505b508080610e25906130a4565b91505061040f565b50509392505050565b610e3e612534565b6002848490501015610e7c576040517f2973c80b00000000000000000000000000000000000000000000000000000000815260040160405180910390fd5b838380806020026020016040519081016040528093929190818152602001838360200280828437600081840152601f19601f8201169050808301925050505050505081600001819052506000600185859050610ed8919061294e565b90508067ffffffffffffffff811115610ef457610ef3612982565b5b604051908082528060200260200182016040528015610f225781602001602082028036833780820191505090505b5082602001819052508067ffffffffffffffff811115610f4557610f44612982565b5b604051908082528060200260200182016040528015610f735781602001602082028036833780820191505090505b5082604001819052508067ffffffffffffffff811115610f9657610f95612982565b5b604051908082528060200260200182016040528015610fc45781602001602082028036833780820191505090505b508260a001819052508484905067ffffffffffffffff811115610fea57610fe9612982565b5b6040519080825280602002602001820160405280156110185781602001602082028036833780820191505090505b5082606001819052508484905067ffffffffffffffff81111561103e5761103d612982565b5b60405190808252806020026020018201604052801561106c5781602001602082028036833780820191505090505b50826080018190525082826060015160008151811061108e5761108d6129b1565b5b6020026020010181815250508282608001516000815181106110b3576110b26129b1565b5b60200260200101818152505060005b81811015611a13577f000000000000000000000000000000000000000000000000000000000000000073ffffffffffffffffffffffffffffffffffffffff1663e6a43905878784818110611119576111186129b1565b5b905060200201602081019061112e9190612a0c565b888860018661113d9190612afe565b81811061114d5761114c6129b1565b5b90506020020160208101906111629190612a0c565b6040518363ffffffff1660e01b815260040161117f929190612a39565b602060405180830381865afa15801561119c573d6000803e3d6000fd5b505050506040513d601f19601f820116820180604052508101906111c09190612a77565b836020015182815181106111d7576111d66129b1565b5b602002602001019073ffffffffffffffffffffffffffffffffffffffff16908173ffffffffffffffffffffffffffffffffffffffff1681525050600073ffffffffffffffffffffffffffffffffffffffff16836020015182815181106112405761123f6129b1565b5b602002602001015173ffffffffffffffffffffffffffffffffffffffff161415801561128a57506000836060015182815181106112805761127f6129b1565b5b6020026020010151115b1561142757600080611315856020015184815181106112ac576112ab6129b1565b5b60200260200101518989868181106112c7576112c66129b1565b5b90506020020160208101906112dc9190612a0c565b8a8a6001886112eb9190612afe565b8181106112fb576112fa6129b1565b5b90506020020160208101906113109190612a0c565b611a1c565b915091506000821180156113295750600081115b156114245761135785606001518481518110611348576113476129b1565b5b60200260200101518383611cee565b85606001516001856113699190612afe565b8151811061137a576113796129b1565b5b6020026020010181815250506113c96103e5866080015185815181106113a3576113a26129b1565b5b60200260200101516113b59190612aa4565b6103e8846113c39190612aa4565b83611bf4565b85608001516001856113db9190612afe565b815181106113ec576113eb6129b1565b5b602002602001018181525050660aa87bee5380008560a001518481518110611417576114166129b1565b5b6020026020010181815250505b50505b60007f000000000000000000000000000000000000000000000000000000000000000073ffffffffffffffffffffffffffffffffffffffff16636622e0d7888885818110611478576114776129b1565b5b905060200201602081019061148d9190612a0c565b898960018761149c9190612afe565b8181106114ac576114ab6129b1565b5b90506020020160208101906114c19190612a0c565b6040518363ffffffff1660e01b81526004016114de929190612bb3565b600060405180830381865afa1580156114fb573d6000803e3d6000fd5b505050506040513d6000823e3d601f19601f820116820180604052508101906115249190612e29565b905060008151118015611555575060008460600151838151811061154b5761154a6129b1565b5b6020026020010151115b156119ff5760005b81518110156119fd57818181518110611579576115786129b1565b5b6020026020010151606001516119ea576000888860018661159a9190612afe565b8181106115aa576115a96129b1565b5b90506020020160208101906115bf9190612a0c565b73ffffffffffffffffffffffffffffffffffffffff168383815181106115e8576115e76129b1565b5b60200260200101516020015173ffffffffffffffffffffffffffffffffffffffff1663b7d19fc46040518163ffffffff1660e01b8152600401602060405180830381865afa15801561163e573d6000803e3d6000fd5b505050506040513d601f19601f820116820180604052508101906116629190612eb0565b73ffffffffffffffffffffffffffffffffffffffff161490507f000000000000000000000000000000000000000000000000000000000000000073ffffffffffffffffffffffffffffffffffffffff16632004b7248484815181106116ca576116c96129b1565b5b602002602001015160200151886060015187815181106116ed576116ec6129b1565b5b6020026020010151846040518463ffffffff1660e01b815260040161171493929190612f1c565b6040805180830381865afa92505050801561174d57506040513d601f19601f8201168201806040525081019061174a9190612f68565b60015b611756576119e8565b87606001516001876117689190612afe565b81518110611779576117786129b1565b5b60200260200101518211156119e55781886060015160018861179b9190612afe565b815181106117ac576117ab6129b1565b5b6020026020010181815250508484815181106117cb576117ca6129b1565b5b602002602001015160200151886020015187815181106117ee576117ed6129b1565b5b602002602001019073ffffffffffffffffffffffffffffffffffffffff16908173ffffffffffffffffffffffffffffffffffffffff168152505084848151811061183b5761183a6129b1565b5b60200260200101516000015161ffff1688604001518781518110611862576118616129b1565b5b6020026020010181815250506000858581518110611883576118826129b1565b5b60200260200101516020015173ffffffffffffffffffffffffffffffffffffffff16631b05b83e6040518163ffffffff1660e01b8152600401606060405180830381865afa1580156118d9573d6000803e3d6000fd5b505050506040513d601f19601f820116820180604052508101906118fd9190612fa8565b92505050611954828a60800151898151811061191c5761191b6129b1565b5b602002602001015161192e919061294e565b828b604001518a81518110611946576119456129b1565b5b602002602001015187611c96565b89608001516001896119669190612afe565b81518110611977576119766129b1565b5b6020026020010181815250508860600151878151811061199a576119996129b1565b5b6020026020010151670de0b6b3a7640000836119b69190612aa4565b6119c0919061302a565b8960a0015188815181106119d7576119d66129b1565b5b602002602001018181525050505b50505b505b80806119f59061305b565b91505061155d565b505b508080611a0b9061305b565b9150506110c2565b50509392505050565b6000806000611a2b8585611dc7565b5090506000808773ffffffffffffffffffffffffffffffffffffffff16630902f1ac6040518163ffffffff1660e01b8152600401606060405180830381865afa158015611a7c573d6000803e3d6000fd5b505050506040513d601f19601f82011682018060405250810190611aa09190613150565b506dffffffffffffffffffffffffffff1691506dffffffffffffffffffffffffffff1691508273ffffffffffffffffffffffffffffffffffffffff168773ffffffffffffffffffffffffffffffffffffffff1614611aff578082611b02565b81815b8095508196505050505050935093915050565b600080841415611b51576040517fb229ed3300000000000000000000000000000000000000000000000000000000815260040160405180910390fd5b6000831480611b605750600082145b15611b97576040517f98c59a2900000000000000000000000000000000000000000000000000000000815260040160405180910390fd5b60006103e88585611ba89190612aa4565b611bb29190612aa4565b905060006103e58685611bc5919061294e565b611bcf9190612aa4565b905060018183611bdf919061302a565b611be99190612afe565b925050509392505050565b600080841415611c30576040517fb229ed3300000000000000000000000000000000000000000000000000000000815260040160405180910390fd5b6000831480611c3f5750600082145b15611c76576040517f98c59a2900000000000000000000000000000000000000000000000000000000815260040160405180910390fd5b828285611c839190612aa4565b611c8d919061302a565b90509392505050565b60008115611cc457611cbd856080611cae8787611ee3565b611f529092919063ffffffff16565b9050611ce6565b611ce36080611cd38686611ee3565b876120229092919063ffffffff16565b90505b949350505050565b600080841415611d2a576040517fb229ed3300000000000000000000000000000000000000000000000000000000815260040160405180910390fd5b6000831480611d395750600082145b15611d70576040517f98c59a2900000000000000000000000000000000000000000000000000000000815260040160405180910390fd5b60006103e585611d809190612aa4565b905060008382611d909190612aa4565b90506000826103e887611da39190612aa4565b611dad9190612afe565b90508082611dbb919061302a565b93505050509392505050565b6000808273ffffffffffffffffffffffffffffffffffffffff168473ffffffffffffffffffffffffffffffffffffffff161415611e30576040517f37d1995c00000000000000000000000000000000000000000000000000000000815260040160405180910390fd5b8273ffffffffffffffffffffffffffffffffffffffff168473ffffffffffffffffffffffffffffffffffffffff1610611e6a578284611e6d565b83835b8092508193505050600073ffffffffffffffffffffffffffffffffffffffff168273ffffffffffffffffffffffffffffffffffffffff161415611edc576040517f99b4b0e000000000000000000000000000000000000000000000000000000000815260040160405180910390fd5b9250929050565b600062ffffff8016831115611f24576040517f58f62eac00000000000000000000000000000000000000000000000000000000815260040160405180910390fd5b60006280000084039050611f4981611f3b85612099565b61211190919063ffffffff16565b91505092915050565b600060ff821115611f9a57816040517fb72ecf50000000000000000000000000000000000000000000000000000000008152600401611f9191906131a3565b60405180910390fd5b600080611fa78686612419565b9150915060008214611fba578382901c92505b6000811461201957836001901b811061200c5780846040517f3d90990f0000000000000000000000000000000000000000000000000000000081526004016120039291906131be565b60405180910390fd5b836101000381901b830192505b50509392505050565b600060ff83111561206a57826040517fb72ecf5000000000000000000000000000000000000000000000000000000000815260040161206191906131a3565b60405180910390fd5b6000808486901b9150846101000386901c905061208e86866001901b868585612438565b925050509392505050565b6000808214806120aa575061271082115b156120ec57816040517fe9b43c220000000000000000000000000000000000000000000000000000000081526004016120e391906131a3565b60405180910390fd5b612710608083901b8161210257612101612ffb565b5b0460806001901b019050919050565b60008060008084141561212d5760806001901b92505050612413565b839050600081121561214457806000039050811591505b6210000081101561238e5760806001901b9250846fffffffffffffffffffffffffffffffff86111561217c5780600019049050821592505b600182161561218e5780840260801c93505b80810260801c905060028216156121a85780840260801c93505b80810260801c905060048216156121c25780840260801c93505b80810260801c905060088216156121dc5780840260801c93505b80810260801c905060108216156121f65780840260801c93505b80810260801c905060208216156122105780840260801c93505b80810260801c9050604082161561222a5780840260801c93505b80810260801c905060808216156122445780840260801c93505b80810260801c905061010082161561225f5780840260801c93505b80810260801c905061020082161561227a5780840260801c93505b80810260801c90506104008216156122955780840260801c93505b80810260801c90506108008216156122b05780840260801c93505b80810260801c90506110008216156122cb5780840260801c93505b80810260801c90506120008216156122e65780840260801c93505b80810260801c90506140008216156123015780840260801c93505b80810260801c905061800082161561231c5780840260801c93505b80810260801c9050620100008216156123385780840260801c93505b80810260801c9050620200008216156123545780840260801c93505b80810260801c9050620400008216156123705780840260801c93505b80810260801c90506208000082161561238c5780840260801c93505b505b60008314156123d65784846040517f74e3eb080000000000000000000000000000000000000000000000000000000081526004016123cd929190613200565b60405180910390fd5b816123e1578261240e565b827fffffffffffffffffffffffffffffffffffffffffffffffffffffffffffffffff61240d919061302a565b5b925050505b92915050565b6000806000198385098385029250828110838203039150509250929050565b60008082141561245a5783838161245257612451612ffb565b5b04905061252b565b8382106124a05781846040517fcad6a8560000000000000000000000000000000000000000000000000000000081526004016124979291906131be565b60405180910390fd5b6000848688099050838111830392508084039350600060018619018616905080860495508085049450600181826000030401905080840285179450600060028760030218905080870260020381029050808702600203810290508087026002038102905080870260020381029050808702600203810290508087026002038102905080860293505050505b95945050505050565b6040518060c001604052806060815260200160608152602001606081526020016060815260200160608152602001606081525090565b600073ffffffffffffffffffffffffffffffffffffffff82169050919050565b60006125958261256a565b9050919050565b6125a58161258a565b82525050565b60006020820190506125c0600083018461259c565b92915050565b6000604051905090565b600080fd5b600080fd5b600080fd5b600080fd5b600080fd5b60008083601f8401126125ff576125fe6125da565b5b8235905067ffffffffffffffff81111561261c5761261b6125df565b5b602083019150836020820283011115612638576126376125e4565b5b9250929050565b6000819050919050565b6126528161263f565b811461265d57600080fd5b50565b60008135905061266f81612649565b92915050565b60008060006040848603121561268e5761268d6125d0565b5b600084013567ffffffffffffffff8111156126ac576126ab6125d5565b5b6126b8868287016125e9565b935093505060206126cb86828701612660565b9150509250925092565b600081519050919050565b600082825260208201905092915050565b6000819050602082019050919050565b61270a8161258a565b82525050565b600061271c8383612701565b60208301905092915050565b6000602082019050919050565b6000612740826126d5565b61274a81856126e0565b9350612755836126f1565b8060005b8381101561278657815161276d8882612710565b975061277883612728565b925050600181019050612759565b5085935050505092915050565b600081519050919050565b600082825260208201905092915050565b6000819050602082019050919050565b6127c88161263f565b82525050565b60006127da83836127bf565b60208301905092915050565b6000602082019050919050565b60006127fe82612793565b612808818561279e565b9350612813836127af565b8060005b8381101561284457815161282b88826127ce565b9750612836836127e6565b925050600181019050612817565b5085935050505092915050565b600060c083016000830151848203600086015261286e8282612735565b915050602083015184820360208601526128888282612735565b915050604083015184820360408601526128a282826127f3565b915050606083015184820360608601526128bc82826127f3565b915050608083015184820360808601526128d682826127f3565b91505060a083015184820360a08601526128f082826127f3565b9150508091505092915050565b600060208201905081810360008301526129178184612851565b905092915050565b7f4e487b7100000000000000000000000000000000000000000000000000000000600052601160045260246000fd5b60006129598261263f565b91506129648361263f565b9250828210156129775761297661291f565b5b828203905092915050565b7f4e487b7100000000000000000000000000000000000000000000000000000000600052604160045260246000fd5b7f4e487b7100000000000000000000000000000000000000000000000000000000600052603260045260246000fd5b6129e98161258a565b81146129f457600080fd5b50565b600081359050612a06816129e0565b92915050565b600060208284031215612a2257612a216125d0565b5b6000612a30848285016129f7565b91505092915050565b6000604082019050612a4e600083018561259c565b612a5b602083018461259c565b9392505050565b600081519050612a71816129e0565b92915050565b600060208284031215612a8d57612a8c6125d0565b5b6000612a9b84828501612a62565b91505092915050565b6000612aaf8261263f565b9150612aba8361263f565b9250817fffffffffffffffffffffffffffffffffffffffffffffffffffffffffffffffff0483118215151615612af357612af261291f565b5b828202905092915050565b6000612b098261263f565b9150612b148361263f565b9250827fffffffffffffffffffffffffffffffffffffffffffffffffffffffffffffffff03821115612b4957612b4861291f565b5b828201905092915050565b6000819050919050565b6000612b79612b74612b6f8461256a565b612b54565b61256a565b9050919050565b6000612b8b82612b5e565b9050919050565b6000612b9d82612b80565b9050919050565b612bad81612b92565b82525050565b6000604082019050612bc86000830185612ba4565b612bd56020830184612ba4565b9392505050565b6000601f19601f8301169050919050565b612bf682612bdc565b810181811067ffffffffffffffff82111715612c1557612c14612982565b5b80604052505050565b6000612c286125c6565b9050612c348282612bed565b919050565b600067ffffffffffffffff821115612c5457612c53612982565b5b602082029050602081019050919050565b600080fd5b600061ffff82169050919050565b612c8181612c6a565b8114612c8c57600080fd5b50565b600081519050612c9e81612c78565b92915050565b6000612caf8261258a565b9050919050565b612cbf81612ca4565b8114612cca57600080fd5b50565b600081519050612cdc81612cb6565b92915050565b60008115159050919050565b612cf781612ce2565b8114612d0257600080fd5b50565b600081519050612d1481612cee565b92915050565b600060808284031215612d3057612d2f612c65565b5b612d3a6080612c1e565b90506000612d4a84828501612c8f565b6000830152506020612d5e84828501612ccd565b6020830152506040612d7284828501612d05565b6040830152506060612d8684828501612d05565b60608301525092915050565b6000612da5612da084612c39565b612c1e565b90508083825260208201905060808402830185811115612dc857612dc76125e4565b5b835b81811015612df15780612ddd8882612d1a565b845260208401935050608081019050612dca565b5050509392505050565b600082601f830112612e1057612e0f6125da565b5b8151612e20848260208601612d92565b91505092915050565b600060208284031215612e3f57612e3e6125d0565b5b600082015167ffffffffffffffff811115612e5d57612e5c6125d5565b5b612e6984828501612dfb565b91505092915050565b6000612e7d8261258a565b9050919050565b612e8d81612e72565b8114612e9857600080fd5b50565b600081519050612eaa81612e84565b92915050565b600060208284031215612ec657612ec56125d0565b5b6000612ed484828501612e9b565b91505092915050565b6000612ee882612b80565b9050919050565b612ef881612edd565b82525050565b612f078161263f565b82525050565b612f1681612ce2565b82525050565b6000606082019050612f316000830186612eef565b612f3e6020830185612efe565b612f4b6040830184612f0d565b949350505050565b600081519050612f6281612649565b92915050565b60008060408385031215612f7f57612f7e6125d0565b5b6000612f8d85828601612f53565b9250506020612f9e85828601612f53565b9150509250929050565b600080600060608486031215612fc157612fc06125d0565b5b6000612fcf86828701612f53565b9350506020612fe086828701612f53565b9250506040612ff186828701612f53565b9150509250925092565b7f4e487b7100000000000000000000000000000000000000000000000000000000600052601260045260246000fd5b60006130358261263f565b91506130408361263f565b9250826130505761304f612ffb565b5b828204905092915050565b60006130668261263f565b91507fffffffffffffffffffffffffffffffffffffffffffffffffffffffffffffffff8214156130995761309861291f565b5b600182019050919050565b60006130af8261263f565b915060008214156130c3576130c261291f565b5b600182039050919050565b60006dffffffffffffffffffffffffffff82169050919050565b6130f1816130ce565b81146130fc57600080fd5b50565b60008151905061310e816130e8565b92915050565b600063ffffffff82169050919050565b61312d81613114565b811461313857600080fd5b50565b60008151905061314a81613124565b92915050565b600080600060608486031215613169576131686125d0565b5b6000613177868287016130ff565b9350506020613188868287016130ff565b92505060406131998682870161313b565b9150509250925092565b60006020820190506131b86000830184612efe565b92915050565b60006040820190506131d36000830185612efe565b6131e06020830184612efe565b9392505050565b6000819050919050565b6131fa816131e7565b82525050565b60006040820190506132156000830185612efe565b61322260208301846131f1565b939250505056fea26469706673582212208aa18b8d72db0b874e2410b20e0dd78ee687b3b689c9a5e176d64a0a6835bdbb64736f6c634300080a0033",
			"opcodes": "PUSH1 0xE0 PUSH1 0x40 MSTORE CALLVALUE DUP1 ISZERO PUSH3 0x11 JUMPI PUSH1 0x0 DUP1 REVERT JUMPDEST POP PUSH1 0x40 MLOAD PUSH3 0x345B CODESIZE SUB DUP1 PUSH3 0x345B DUP4 CODECOPY DUP2 DUP2 ADD PUSH1 0x40 MSTORE DUP2 ADD SWAP1 PUSH3 0x37 SWAP2 SWAP1 PUSH3 0x146 JUMP JUMPDEST DUP3 PUSH20 0xFFFFFFFFFFFFFFFFFFFFFFFFFFFFFFFFFFFFFFFF AND PUSH1 0x80 DUP2 PUSH20 0xFFFFFFFFFFFFFFFFFFFFFFFFFFFFFFFFFFFFFFFF AND DUP2 MSTORE POP POP DUP2 PUSH20 0xFFFFFFFFFFFFFFFFFFFFFFFFFFFFFFFFFFFFFFFF AND PUSH1 0xA0 DUP2 PUSH20 0xFFFFFFFFFFFFFFFFFFFFFFFFFFFFFFFFFFFFFFFF AND DUP2 MSTORE POP POP DUP1 PUSH20 0xFFFFFFFFFFFFFFFFFFFFFFFFFFFFFFFFFFFFFFFF AND PUSH1 0xC0 DUP2 PUSH20 0xFFFFFFFFFFFFFFFFFFFFFFFFFFFFFFFFFFFFFFFF AND DUP2 MSTORE POP POP POP POP POP PUSH3 0x1A2 JUMP JUMPDEST PUSH1 0x0 DUP1 REVERT JUMPDEST PUSH1 0x0 PUSH20 0xFFFFFFFFFFFFFFFFFFFFFFFFFFFFFFFFFFFFFFFF DUP3 AND SWAP1 POP SWAP2 SWAP1 POP JUMP JUMPDEST PUSH1 0x0 PUSH3 0x10E DUP3 PUSH3 0xE1 JUMP JUMPDEST SWAP1 POP SWAP2 SWAP1 POP JUMP JUMPDEST PUSH3 0x120 DUP2 PUSH3 0x101 JUMP JUMPDEST DUP2 EQ PUSH3 0x12C JUMPI PUSH1 0x0 DUP1 REVERT JUMPDEST POP JUMP JUMPDEST PUSH1 0x0 DUP2 MLOAD SWAP1 POP PUSH3 0x140 DUP2 PUSH3 0x115 JUMP JUMPDEST SWAP3 SWAP2 POP POP JUMP JUMPDEST PUSH1 0x0 DUP1 PUSH1 0x0 PUSH1 0x60 DUP5 DUP7 SUB SLT ISZERO PUSH3 0x162 JUMPI PUSH3 0x161 PUSH3 0xDC JUMP JUMPDEST JUMPDEST PUSH1 0x0 PUSH3 0x172 DUP7 DUP3 DUP8 ADD PUSH3 0x12F JUMP JUMPDEST SWAP4 POP POP PUSH1 0x20 PUSH3 0x185 DUP7 DUP3 DUP8 ADD PUSH3 0x12F JUMP JUMPDEST SWAP3 POP POP PUSH1 0x40 PUSH3 0x198 DUP7 DUP3 DUP8 ADD PUSH3 0x12F JUMP JUMPDEST SWAP2 POP POP SWAP3 POP SWAP3 POP SWAP3 JUMP JUMPDEST PUSH1 0x80 MLOAD PUSH1 0xA0 MLOAD PUSH1 0xC0 MLOAD PUSH2 0x325F PUSH3 0x1FC PUSH1 0x0 CODECOPY PUSH1 0x0 DUP2 DUP2 PUSH2 0x160 ADD MSTORE DUP2 DUP2 PUSH2 0x7D2 ADD MSTORE PUSH2 0x142B ADD MSTORE PUSH1 0x0 DUP2 DUP2 PUSH2 0x118 ADD MSTORE DUP2 DUP2 PUSH2 0x41A ADD MSTORE PUSH2 0x10CC ADD MSTORE PUSH1 0x0 DUP2 DUP2 PUSH2 0x13C ADD MSTORE DUP2 DUP2 PUSH2 0xA18 ADD MSTORE PUSH2 0x167D ADD MSTORE PUSH2 0x325F PUSH1 0x0 RETURN INVALID PUSH1 0x80 PUSH1 0x40 MSTORE CALLVALUE DUP1 ISZERO PUSH2 0x10 JUMPI PUSH1 0x0 DUP1 REVERT JUMPDEST POP PUSH1 0x4 CALLDATASIZE LT PUSH2 0x57 JUMPI PUSH1 0x0 CALLDATALOAD PUSH1 0xE0 SHR DUP1 PUSH4 0x3957F453 EQ PUSH2 0x5C JUMPI DUP1 PUSH4 0x502F7446 EQ PUSH2 0x7A JUMPI DUP1 PUSH4 0x68E0D4E1 EQ PUSH2 0x98 JUMPI DUP1 PUSH4 0x7000AF3F EQ PUSH2 0xB6 JUMPI DUP1 PUSH4 0xC1B7687B EQ PUSH2 0xE6 JUMPI JUMPDEST PUSH1 0x0 DUP1 REVERT JUMPDEST PUSH2 0x64 PUSH2 0x116 JUMP JUMPDEST PUSH1 0x40 MLOAD PUSH2 0x71 SWAP2 SWAP1 PUSH2 0x25AB JUMP JUMPDEST PUSH1 0x40 MLOAD DUP1 SWAP2 SUB SWAP1 RETURN JUMPDEST PUSH2 0x82 PUSH2 0x13A JUMP JUMPDEST PUSH1 0x40 MLOAD PUSH2 0x8F SWAP2 SWAP1 PUSH2 0x25AB JUMP JUMPDEST PUSH1 0x40 MLOAD DUP1 SWAP2 SUB SWAP1 RETURN JUMPDEST PUSH2 0xA0 PUSH2 0x15E JUMP JUMPDEST PUSH1 0x40 MLOAD PUSH2 0xAD SWAP2 SWAP1 PUSH2 0x25AB JUMP JUMPDEST PUSH1 0x40 MLOAD DUP1 SWAP2 SUB SWAP1 RETURN JUMPDEST PUSH2 0xD0 PUSH1 0x4 DUP1 CALLDATASIZE SUB DUP2 ADD SWAP1 PUSH2 0xCB SWAP2 SWAP1 PUSH2 0x2675 JUMP JUMPDEST PUSH2 0x182 JUMP JUMPDEST PUSH1 0x40 MLOAD PUSH2 0xDD SWAP2 SWAP1 PUSH2 0x28FD JUMP JUMPDEST PUSH1 0x40 MLOAD DUP1 SWAP2 SUB SWAP1 RETURN JUMPDEST PUSH2 0x100 PUSH1 0x4 DUP1 CALLDATASIZE SUB DUP2 ADD SWAP1 PUSH2 0xFB SWAP2 SWAP1 PUSH2 0x2675 JUMP JUMPDEST PUSH2 0xE36 JUMP JUMPDEST PUSH1 0x40 MLOAD PUSH2 0x10D SWAP2 SWAP1 PUSH2 0x28FD JUMP JUMPDEST PUSH1 0x40 MLOAD DUP1 SWAP2 SUB SWAP1 RETURN JUMPDEST PUSH32 0x0 DUP2 JUMP JUMPDEST PUSH32 0x0 DUP2 JUMP JUMPDEST PUSH32 0x0 DUP2 JUMP JUMPDEST PUSH2 0x18A PUSH2 0x2534 JUMP JUMPDEST PUSH1 0x2 DUP5 DUP5 SWAP1 POP LT ISZERO PUSH2 0x1C8 JUMPI PUSH1 0x40 MLOAD PUSH32 0x2973C80B00000000000000000000000000000000000000000000000000000000 DUP2 MSTORE PUSH1 0x4 ADD PUSH1 0x40 MLOAD DUP1 SWAP2 SUB SWAP1 REVERT JUMPDEST DUP4 DUP4 DUP1 DUP1 PUSH1 0x20 MUL PUSH1 0x20 ADD PUSH1 0x40 MLOAD SWAP1 DUP2 ADD PUSH1 0x40 MSTORE DUP1 SWAP4 SWAP3 SWAP2 SWAP1 DUP2 DUP2 MSTORE PUSH1 0x20 ADD DUP4 DUP4 PUSH1 0x20 MUL DUP1 DUP3 DUP5 CALLDATACOPY PUSH1 0x0 DUP2 DUP5 ADD MSTORE PUSH1 0x1F NOT PUSH1 0x1F DUP3 ADD AND SWAP1 POP DUP1 DUP4 ADD SWAP3 POP POP POP POP POP POP POP DUP2 PUSH1 0x0 ADD DUP2 SWAP1 MSTORE POP PUSH1 0x0 PUSH1 0x1 DUP6 DUP6 SWAP1 POP PUSH2 0x224 SWAP2 SWAP1 PUSH2 0x294E JUMP JUMPDEST SWAP1 POP DUP1 PUSH8 0xFFFFFFFFFFFFFFFF DUP2 GT ISZERO PUSH2 0x240 JUMPI PUSH2 0x23F PUSH2 0x2982 JUMP JUMPDEST JUMPDEST PUSH1 0x40 MLOAD SWAP1 DUP1 DUP3 MSTORE DUP1 PUSH1 0x20 MUL PUSH1 0x20 ADD DUP3 ADD PUSH1 0x40 MSTORE DUP1 ISZERO PUSH2 0x26E JUMPI DUP2 PUSH1 0x20 ADD PUSH1 0x20 DUP3 MUL DUP1 CALLDATASIZE DUP4 CALLDATACOPY DUP1 DUP3 ADD SWAP2 POP POP SWAP1 POP JUMPDEST POP DUP3 PUSH1 0x20 ADD DUP2 SWAP1 MSTORE POP DUP1 PUSH8 0xFFFFFFFFFFFFFFFF DUP2 GT ISZERO PUSH2 0x291 JUMPI PUSH2 0x290 PUSH2 0x2982 JUMP JUMPDEST JUMPDEST PUSH1 0x40 MLOAD SWAP1 DUP1 DUP3 MSTORE DUP1 PUSH1 0x20 MUL PUSH1 0x20 ADD DUP3 ADD PUSH1 0x40 MSTORE DUP1 ISZERO PUSH2 0x2BF JUMPI DUP2 PUSH1 0x20 ADD PUSH1 0x20 DUP3 MUL DUP1 CALLDATASIZE DUP4 CALLDATACOPY DUP1 DUP3 ADD SWAP2 POP POP SWAP1 POP JUMPDEST POP DUP3 PUSH1 0x40 ADD DUP2 SWAP1 MSTORE POP DUP1 PUSH8 0xFFFFFFFFFFFFFFFF DUP2 GT ISZERO PUSH2 0x2E2 JUMPI PUSH2 0x2E1 PUSH2 0x2982 JUMP JUMPDEST JUMPDEST PUSH1 0x40 MLOAD SWAP1 DUP1 DUP3 MSTORE DUP1 PUSH1 0x20 MUL PUSH1 0x20 ADD DUP3 ADD PUSH1 0x40 MSTORE DUP1 ISZERO PUSH2 0x310 JUMPI DUP2 PUSH1 0x20 ADD PUSH1 0x20 DUP3 MUL DUP1 CALLDATASIZE DUP4 CALLDATACOPY DUP1 DUP3 ADD SWAP2 POP POP SWAP1 POP JUMPDEST POP DUP3 PUSH1 0xA0 ADD DUP2 SWAP1 MSTORE POP DUP5 DUP5 SWAP1 POP PUSH8 0xFFFFFFFFFFFFFFFF DUP2 GT ISZERO PUSH2 0x336 JUMPI PUSH2 0x335 PUSH2 0x2982 JUMP JUMPDEST JUMPDEST PUSH1 0x40 MLOAD SWAP1 DUP1 DUP3 MSTORE DUP1 PUSH1 0x20 MUL PUSH1 0x20 ADD DUP3 ADD PUSH1 0x40 MSTORE DUP1 ISZERO PUSH2 0x364 JUMPI DUP2 PUSH1 0x20 ADD PUSH1 0x20 DUP3 MUL DUP1 CALLDATASIZE DUP4 CALLDATACOPY DUP1 DUP3 ADD SWAP2 POP POP SWAP1 POP JUMPDEST POP DUP3 PUSH1 0x60 ADD DUP2 SWAP1 MSTORE POP DUP5 DUP5 SWAP1 POP PUSH8 0xFFFFFFFFFFFFFFFF DUP2 GT ISZERO PUSH2 0x38A JUMPI PUSH2 0x389 PUSH2 0x2982 JUMP JUMPDEST JUMPDEST PUSH1 0x40 MLOAD SWAP1 DUP1 DUP3 MSTORE DUP1 PUSH1 0x20 MUL PUSH1 0x20 ADD DUP3 ADD PUSH1 0x40 MSTORE DUP1 ISZERO PUSH2 0x3B8 JUMPI DUP2 PUSH1 0x20 ADD PUSH1 0x20 DUP3 MUL DUP1 CALLDATASIZE DUP4 CALLDATACOPY DUP1 DUP3 ADD SWAP2 POP POP SWAP1 POP JUMPDEST POP DUP3 PUSH1 0x80 ADD DUP2 SWAP1 MSTORE POP DUP3 DUP3 PUSH1 0x60 ADD MLOAD DUP3 DUP2 MLOAD DUP2 LT PUSH2 0x3D9 JUMPI PUSH2 0x3D8 PUSH2 0x29B1 JUMP JUMPDEST JUMPDEST PUSH1 0x20 MUL PUSH1 0x20 ADD ADD DUP2 DUP2 MSTORE POP POP DUP3 DUP3 PUSH1 0x80 ADD MLOAD DUP3 DUP2 MLOAD DUP2 LT PUSH2 0x3FD JUMPI PUSH2 0x3FC PUSH2 0x29B1 JUMP JUMPDEST JUMPDEST PUSH1 0x20 MUL PUSH1 0x20 ADD ADD DUP2 DUP2 MSTORE POP POP PUSH1 0x0 DUP2 SWAP1 POP JUMPDEST PUSH1 0x0 DUP2 GT ISZERO PUSH2 0xE2D JUMPI PUSH32 0x0 PUSH20 0xFFFFFFFFFFFFFFFFFFFFFFFFFFFFFFFFFFFFFFFF AND PUSH4 0xE6A43905 DUP8 DUP8 PUSH1 0x1 DUP6 PUSH2 0x463 SWAP2 SWAP1 PUSH2 0x294E JUMP JUMPDEST DUP2 DUP2 LT PUSH2 0x473 JUMPI PUSH2 0x472 PUSH2 0x29B1 JUMP JUMPDEST JUMPDEST SWAP1 POP PUSH1 0x20 MUL ADD PUSH1 0x20 DUP2 ADD SWAP1 PUSH2 0x488 SWAP2 SWAP1 PUSH2 0x2A0C JUMP JUMPDEST DUP9 DUP9 DUP6 DUP2 DUP2 LT PUSH2 0x49B JUMPI PUSH2 0x49A PUSH2 0x29B1 JUMP JUMPDEST JUMPDEST SWAP1 POP PUSH1 0x20 MUL ADD PUSH1 0x20 DUP2 ADD SWAP1 PUSH2 0x4B0 SWAP2 SWAP1 PUSH2 0x2A0C JUMP JUMPDEST PUSH1 0x40 MLOAD DUP4 PUSH4 0xFFFFFFFF AND PUSH1 0xE0 SHL DUP2 MSTORE PUSH1 0x4 ADD PUSH2 0x4CD SWAP3 SWAP2 SWAP1 PUSH2 0x2A39 JUMP JUMPDEST PUSH1 0x20 PUSH1 0x40 MLOAD DUP1 DUP4 SUB DUP2 DUP7 GAS STATICCALL ISZERO DUP1 ISZERO PUSH2 0x4EA JUMPI RETURNDATASIZE PUSH1 0x0 DUP1 RETURNDATACOPY RETURNDATASIZE PUSH1 0x0 REVERT JUMPDEST POP POP POP POP PUSH1 0x40 MLOAD RETURNDATASIZE PUSH1 0x1F NOT PUSH1 0x1F DUP3 ADD AND DUP3 ADD DUP1 PUSH1 0x40 MSTORE POP DUP2 ADD SWAP1 PUSH2 0x50E SWAP2 SWAP1 PUSH2 0x2A77 JUMP JUMPDEST DUP4 PUSH1 0x20 ADD MLOAD PUSH1 0x1 DUP4 PUSH2 0x520 SWAP2 SWAP1 PUSH2 0x294E JUMP JUMPDEST DUP2 MLOAD DUP2 LT PUSH2 0x531 JUMPI PUSH2 0x530 PUSH2 0x29B1 JUMP JUMPDEST JUMPDEST PUSH1 0x20 MUL PUSH1 0x20 ADD ADD SWAP1 PUSH20 0xFFFFFFFFFFFFFFFFFFFFFFFFFFFFFFFFFFFFFFFF AND SWAP1 DUP2 PUSH20 0xFFFFFFFFFFFFFFFFFFFFFFFFFFFFFFFFFFFFFFFF AND DUP2 MSTORE POP POP PUSH1 0x0 PUSH20 0xFFFFFFFFFFFFFFFFFFFFFFFFFFFFFFFFFFFFFFFF AND DUP4 PUSH1 0x20 ADD MLOAD PUSH1 0x1 DUP4 PUSH2 0x595 SWAP2 SWAP1 PUSH2 0x294E JUMP JUMPDEST DUP2 MLOAD DUP2 LT PUSH2 0x5A6 JUMPI PUSH2 0x5A5 PUSH2 0x29B1 JUMP JUMPDEST JUMPDEST PUSH1 0x20 MUL PUSH1 0x20 ADD ADD MLOAD PUSH20 0xFFFFFFFFFFFFFFFFFFFFFFFFFFFFFFFFFFFFFFFF AND EQ ISZERO DUP1 ISZERO PUSH2 0x5F0 JUMPI POP PUSH1 0x0 DUP4 PUSH1 0x60 ADD MLOAD DUP3 DUP2 MLOAD DUP2 LT PUSH2 0x5E6 JUMPI PUSH2 0x5E5 PUSH2 0x29B1 JUMP JUMPDEST JUMPDEST PUSH1 0x20 MUL PUSH1 0x20 ADD ADD MLOAD GT JUMPDEST ISZERO PUSH2 0x7CE JUMPI PUSH1 0x0 DUP1 PUSH2 0x687 DUP6 PUSH1 0x20 ADD MLOAD PUSH1 0x1 DUP6 PUSH2 0x60D SWAP2 SWAP1 PUSH2 0x294E JUMP JUMPDEST DUP2 MLOAD DUP2 LT PUSH2 0x61E JUMPI PUSH2 0x61D PUSH2 0x29B1 JUMP JUMPDEST JUMPDEST PUSH1 0x20 MUL PUSH1 0x20 ADD ADD MLOAD DUP10 DUP10 PUSH1 0x1 DUP8 PUSH2 0x635 SWAP2 SWAP1 PUSH2 0x294E JUMP JUMPDEST DUP2 DUP2 LT PUSH2 0x645 JUMPI PUSH2 0x644 PUSH2 0x29B1 JUMP JUMPDEST JUMPDEST SWAP1 POP PUSH1 0x20 MUL ADD PUSH1 0x20 DUP2 ADD SWAP1 PUSH2 0x65A SWAP2 SWAP1 PUSH2 0x2A0C JUMP JUMPDEST DUP11 DUP11 DUP8 DUP2 DUP2 LT PUSH2 0x66D JUMPI PUSH2 0x66C PUSH2 0x29B1 JUMP JUMPDEST JUMPDEST SWAP1 POP PUSH1 0x20 MUL ADD PUSH1 0x20 DUP2 ADD SWAP1 PUSH2 0x682 SWAP2 SWAP1 PUSH2 0x2A0C JUMP JUMPDEST PUSH2 0x1A1C JUMP JUMPDEST SWAP2 POP SWAP2 POP PUSH1 0x0 DUP3 GT DUP1 ISZERO PUSH2 0x6B8 JUMPI POP DUP5 PUSH1 0x60 ADD MLOAD DUP4 DUP2 MLOAD DUP2 LT PUSH2 0x6AD JUMPI PUSH2 0x6AC PUSH2 0x29B1 JUMP JUMPDEST JUMPDEST PUSH1 0x20 MUL PUSH1 0x20 ADD ADD MLOAD DUP2 GT JUMPDEST ISZERO PUSH2 0x7CB JUMPI PUSH2 0x6E6 DUP6 PUSH1 0x60 ADD MLOAD DUP5 DUP2 MLOAD DUP2 LT PUSH2 0x6D7 JUMPI PUSH2 0x6D6 PUSH2 0x29B1 JUMP JUMPDEST JUMPDEST PUSH1 0x20 MUL PUSH1 0x20 ADD ADD MLOAD DUP4 DUP4 PUSH2 0x1B15 JUMP JUMPDEST DUP6 PUSH1 0x60 ADD MLOAD PUSH1 0x1 DUP6 PUSH2 0x6F8 SWAP2 SWAP1 PUSH2 0x294E JUMP JUMPDEST DUP2 MLOAD DUP2 LT PUSH2 0x709 JUMPI PUSH2 0x708 PUSH2 0x29B1 JUMP JUMPDEST JUMPDEST PUSH1 0x20 MUL PUSH1 0x20 ADD ADD DUP2 DUP2 MSTORE POP POP PUSH1 0x1 PUSH2 0x75A PUSH2 0x3E8 DUP8 PUSH1 0x80 ADD MLOAD DUP7 DUP2 MLOAD DUP2 LT PUSH2 0x734 JUMPI PUSH2 0x733 PUSH2 0x29B1 JUMP JUMPDEST JUMPDEST PUSH1 0x20 MUL PUSH1 0x20 ADD ADD MLOAD PUSH2 0x746 SWAP2 SWAP1 PUSH2 0x2AA4 JUMP JUMPDEST PUSH2 0x3E5 DUP5 PUSH2 0x754 SWAP2 SWAP1 PUSH2 0x2AA4 JUMP JUMPDEST DUP6 PUSH2 0x1BF4 JUMP JUMPDEST PUSH2 0x764 SWAP2 SWAP1 PUSH2 0x2AFE JUMP JUMPDEST DUP6 PUSH1 0x80 ADD MLOAD PUSH1 0x1 DUP6 PUSH2 0x776 SWAP2 SWAP1 PUSH2 0x294E JUMP JUMPDEST DUP2 MLOAD DUP2 LT PUSH2 0x787 JUMPI PUSH2 0x786 PUSH2 0x29B1 JUMP JUMPDEST JUMPDEST PUSH1 0x20 MUL PUSH1 0x20 ADD ADD DUP2 DUP2 MSTORE POP POP PUSH7 0xAA87BEE538000 DUP6 PUSH1 0xA0 ADD MLOAD PUSH1 0x1 DUP6 PUSH2 0x7AD SWAP2 SWAP1 PUSH2 0x294E JUMP JUMPDEST DUP2 MLOAD DUP2 LT PUSH2 0x7BE JUMPI PUSH2 0x7BD PUSH2 0x29B1 JUMP JUMPDEST JUMPDEST PUSH1 0x20 MUL PUSH1 0x20 ADD ADD DUP2 DUP2 MSTORE POP POP JUMPDEST POP POP JUMPDEST PUSH1 0x0 PUSH32 0x0 PUSH20 0xFFFFFFFFFFFFFFFFFFFFFFFFFFFFFFFFFFFFFFFF AND PUSH4 0x6622E0D7 DUP9 DUP9 PUSH1 0x1 DUP7 PUSH2 0x81B SWAP2 SWAP1 PUSH2 0x294E JUMP JUMPDEST DUP2 DUP2 LT PUSH2 0x82B JUMPI PUSH2 0x82A PUSH2 0x29B1 JUMP JUMPDEST JUMPDEST SWAP1 POP PUSH1 0x20 MUL ADD PUSH1 0x20 DUP2 ADD SWAP1 PUSH2 0x840 SWAP2 SWAP1 PUSH2 0x2A0C JUMP JUMPDEST DUP10 DUP10 DUP7 DUP2 DUP2 LT PUSH2 0x853 JUMPI PUSH2 0x852 PUSH2 0x29B1 JUMP JUMPDEST JUMPDEST SWAP1 POP PUSH1 0x20 MUL ADD PUSH1 0x20 DUP2 ADD SWAP1 PUSH2 0x868 SWAP2 SWAP1 PUSH2 0x2A0C JUMP JUMPDEST PUSH1 0x40 MLOAD DUP4 PUSH4 0xFFFFFFFF AND PUSH1 0xE0 SHL DUP2 MSTORE PUSH1 0x4 ADD PUSH2 0x885 SWAP3 SWAP2 SWAP1 PUSH2 0x2BB3 JUMP JUMPDEST PUSH1 0x0 PUSH1 0x40 MLOAD DUP1 DUP4 SUB DUP2 DUP7 GAS STATICCALL ISZERO DUP1 ISZERO PUSH2 0x8A2 JUMPI RETURNDATASIZE PUSH1 0x0 DUP1 RETURNDATACOPY RETURNDATASIZE PUSH1 0x0 REVERT JUMPDEST POP POP POP POP PUSH1 0x40 MLOAD RETURNDATASIZE PUSH1 0x0 DUP3 RETURNDATACOPY RETURNDATASIZE PUSH1 0x1F NOT PUSH1 0x1F DUP3 ADD AND DUP3 ADD DUP1 PUSH1 0x40 MSTORE POP DUP2 ADD SWAP1 PUSH2 0x8CB SWAP2 SWAP1 PUSH2 0x2E29 JUMP JUMPDEST SWAP1 POP PUSH1 0x0 DUP2 MLOAD GT DUP1 ISZERO PUSH2 0x8FC JUMPI POP PUSH1 0x0 DUP5 PUSH1 0x60 ADD MLOAD DUP4 DUP2 MLOAD DUP2 LT PUSH2 0x8F2 JUMPI PUSH2 0x8F1 PUSH2 0x29B1 JUMP JUMPDEST JUMPDEST PUSH1 0x20 MUL PUSH1 0x20 ADD ADD MLOAD GT JUMPDEST ISZERO PUSH2 0xE19 JUMPI PUSH1 0x0 JUMPDEST DUP2 MLOAD DUP2 LT ISZERO PUSH2 0xE17 JUMPI DUP2 DUP2 DUP2 MLOAD DUP2 LT PUSH2 0x920 JUMPI PUSH2 0x91F PUSH2 0x29B1 JUMP JUMPDEST JUMPDEST PUSH1 0x20 MUL PUSH1 0x20 ADD ADD MLOAD PUSH1 0x60 ADD MLOAD PUSH2 0xE04 JUMPI PUSH1 0x0 DUP9 DUP9 DUP6 DUP2 DUP2 LT PUSH2 0x945 JUMPI PUSH2 0x944 PUSH2 0x29B1 JUMP JUMPDEST JUMPDEST SWAP1 POP PUSH1 0x20 MUL ADD PUSH1 0x20 DUP2 ADD SWAP1 PUSH2 0x95A SWAP2 SWAP1 PUSH2 0x2A0C JUMP JUMPDEST PUSH20 0xFFFFFFFFFFFFFFFFFFFFFFFFFFFFFFFFFFFFFFFF AND DUP4 DUP4 DUP2 MLOAD DUP2 LT PUSH2 0x983 JUMPI PUSH2 0x982 PUSH2 0x29B1 JUMP JUMPDEST JUMPDEST PUSH1 0x20 MUL PUSH1 0x20 ADD ADD MLOAD PUSH1 0x20 ADD MLOAD PUSH20 0xFFFFFFFFFFFFFFFFFFFFFFFFFFFFFFFFFFFFFFFF AND PUSH4 0xB7D19FC4 PUSH1 0x40 MLOAD DUP2 PUSH4 0xFFFFFFFF AND PUSH1 0xE0 SHL DUP2 MSTORE PUSH1 0x4 ADD PUSH1 0x20 PUSH1 0x40 MLOAD DUP1 DUP4 SUB DUP2 DUP7 GAS STATICCALL ISZERO DUP1 ISZERO PUSH2 0x9D9 JUMPI RETURNDATASIZE PUSH1 0x0 DUP1 RETURNDATACOPY RETURNDATASIZE PUSH1 0x0 REVERT JUMPDEST POP POP POP POP PUSH1 0x40 MLOAD RETURNDATASIZE PUSH1 0x1F NOT PUSH1 0x1F DUP3 ADD AND DUP3 ADD DUP1 PUSH1 0x40 MSTORE POP DUP2 ADD SWAP1 PUSH2 0x9FD SWAP2 SWAP1 PUSH2 0x2EB0 JUMP JUMPDEST PUSH20 0xFFFFFFFFFFFFFFFFFFFFFFFFFFFFFFFFFFFFFFFF AND EQ SWAP1 POP PUSH32 0x0 PUSH20 0xFFFFFFFFFFFFFFFFFFFFFFFFFFFFFFFFFFFFFFFF AND PUSH4 0x5BDD4B7C DUP5 DUP5 DUP2 MLOAD DUP2 LT PUSH2 0xA65 JUMPI PUSH2 0xA64 PUSH2 0x29B1 JUMP JUMPDEST JUMPDEST PUSH1 0x20 MUL PUSH1 0x20 ADD ADD MLOAD PUSH1 0x20 ADD MLOAD DUP9 PUSH1 0x60 ADD MLOAD DUP8 DUP2 MLOAD DUP2 LT PUSH2 0xA88 JUMPI PUSH2 0xA87 PUSH2 0x29B1 JUMP JUMPDEST JUMPDEST PUSH1 0x20 MUL PUSH1 0x20 ADD ADD MLOAD DUP5 PUSH1 0x40 MLOAD DUP5 PUSH4 0xFFFFFFFF AND PUSH1 0xE0 SHL DUP2 MSTORE PUSH1 0x4 ADD PUSH2 0xAAF SWAP4 SWAP3 SWAP2 SWAP1 PUSH2 0x2F1C JUMP JUMPDEST PUSH1 0x40 DUP1 MLOAD DUP1 DUP4 SUB DUP2 DUP7 GAS STATICCALL SWAP3 POP POP POP DUP1 ISZERO PUSH2 0xAE8 JUMPI POP PUSH1 0x40 MLOAD RETURNDATASIZE PUSH1 0x1F NOT PUSH1 0x1F DUP3 ADD AND DUP3 ADD DUP1 PUSH1 0x40 MSTORE POP DUP2 ADD SWAP1 PUSH2 0xAE5 SWAP2 SWAP1 PUSH2 0x2F68 JUMP JUMPDEST PUSH1 0x1 JUMPDEST PUSH2 0xAF1 JUMPI PUSH2 0xE02 JUMP JUMPDEST PUSH1 0x0 DUP3 EQ ISZERO DUP1 ISZERO PUSH2 0xB60 JUMPI POP DUP8 PUSH1 0x60 ADD MLOAD PUSH1 0x1 DUP8 PUSH2 0xB0F SWAP2 SWAP1 PUSH2 0x294E JUMP JUMPDEST DUP2 MLOAD DUP2 LT PUSH2 0xB20 JUMPI PUSH2 0xB1F PUSH2 0x29B1 JUMP JUMPDEST JUMPDEST PUSH1 0x20 MUL PUSH1 0x20 ADD ADD MLOAD DUP3 LT DUP1 PUSH2 0xB5F JUMPI POP PUSH1 0x0 DUP9 PUSH1 0x60 ADD MLOAD PUSH1 0x1 DUP9 PUSH2 0xB44 SWAP2 SWAP1 PUSH2 0x294E JUMP JUMPDEST DUP2 MLOAD DUP2 LT PUSH2 0xB55 JUMPI PUSH2 0xB54 PUSH2 0x29B1 JUMP JUMPDEST JUMPDEST PUSH1 0x20 MUL PUSH1 0x20 ADD ADD MLOAD EQ JUMPDEST JUMPDEST ISZERO PUSH2 0xDFF JUMPI DUP2 DUP9 PUSH1 0x60 ADD MLOAD PUSH1 0x1 DUP9 PUSH2 0xB78 SWAP2 SWAP1 PUSH2 0x294E JUMP JUMPDEST DUP2 MLOAD DUP2 LT PUSH2 0xB89 JUMPI PUSH2 0xB88 PUSH2 0x29B1 JUMP JUMPDEST JUMPDEST PUSH1 0x20 MUL PUSH1 0x20 ADD ADD DUP2 DUP2 MSTORE POP POP DUP5 DUP5 DUP2 MLOAD DUP2 LT PUSH2 0xBA8 JUMPI PUSH2 0xBA7 PUSH2 0x29B1 JUMP JUMPDEST JUMPDEST PUSH1 0x20 MUL PUSH1 0x20 ADD ADD MLOAD PUSH1 0x20 ADD MLOAD DUP9 PUSH1 0x20 ADD MLOAD PUSH1 0x1 DUP9 PUSH2 0xBC6 SWAP2 SWAP1 PUSH2 0x294E JUMP JUMPDEST DUP2 MLOAD DUP2 LT PUSH2 0xBD7 JUMPI PUSH2 0xBD6 PUSH2 0x29B1 JUMP JUMPDEST JUMPDEST PUSH1 0x20 MUL PUSH1 0x20 ADD ADD SWAP1 PUSH20 0xFFFFFFFFFFFFFFFFFFFFFFFFFFFFFFFFFFFFFFFF AND SWAP1 DUP2 PUSH20 0xFFFFFFFFFFFFFFFFFFFFFFFFFFFFFFFFFFFFFFFF AND DUP2 MSTORE POP POP DUP5 DUP5 DUP2 MLOAD DUP2 LT PUSH2 0xC24 JUMPI PUSH2 0xC23 PUSH2 0x29B1 JUMP JUMPDEST JUMPDEST PUSH1 0x20 MUL PUSH1 0x20 ADD ADD MLOAD PUSH1 0x0 ADD MLOAD PUSH2 0xFFFF AND DUP9 PUSH1 0x40 ADD MLOAD PUSH1 0x1 DUP9 PUSH2 0xC46 SWAP2 SWAP1 PUSH2 0x294E JUMP JUMPDEST DUP2 MLOAD DUP2 LT PUSH2 0xC57 JUMPI PUSH2 0xC56 PUSH2 0x29B1 JUMP JUMPDEST JUMPDEST PUSH1 0x20 MUL PUSH1 0x20 ADD ADD DUP2 DUP2 MSTORE POP POP PUSH1 0x0 DUP6 DUP6 DUP2 MLOAD DUP2 LT PUSH2 0xC78 JUMPI PUSH2 0xC77 PUSH2 0x29B1 JUMP JUMPDEST JUMPDEST PUSH1 0x20 MUL PUSH1 0x20 ADD ADD MLOAD PUSH1 0x20 ADD MLOAD PUSH20 0xFFFFFFFFFFFFFFFFFFFFFFFFFFFFFFFFFFFFFFFF AND PUSH4 0x1B05B83E PUSH1 0x40 MLOAD DUP2 PUSH4 0xFFFFFFFF AND PUSH1 0xE0 SHL DUP2 MSTORE PUSH1 0x4 ADD PUSH1 0x60 PUSH1 0x40 MLOAD DUP1 DUP4 SUB DUP2 DUP7 GAS STATICCALL ISZERO DUP1 ISZERO PUSH2 0xCCE JUMPI RETURNDATASIZE PUSH1 0x0 DUP1 RETURNDATACOPY RETURNDATASIZE PUSH1 0x0 REVERT JUMPDEST POP POP POP POP PUSH1 0x40 MLOAD RETURNDATASIZE PUSH1 0x1F NOT PUSH1 0x1F DUP3 ADD AND DUP3 ADD DUP1 PUSH1 0x40 MSTORE POP DUP2 ADD SWAP1 PUSH2 0xCF2 SWAP2 SWAP1 PUSH2 0x2FA8 JUMP JUMPDEST SWAP3 POP POP POP DUP2 PUSH2 0xD4C DUP11 PUSH1 0x80 ADD MLOAD DUP10 DUP2 MLOAD DUP2 LT PUSH2 0xD11 JUMPI PUSH2 0xD10 PUSH2 0x29B1 JUMP JUMPDEST JUMPDEST PUSH1 0x20 MUL PUSH1 0x20 ADD ADD MLOAD DUP4 DUP13 PUSH1 0x40 ADD MLOAD PUSH1 0x1 DUP13 PUSH2 0xD2C SWAP2 SWAP1 PUSH2 0x294E JUMP JUMPDEST DUP2 MLOAD DUP2 LT PUSH2 0xD3D JUMPI PUSH2 0xD3C PUSH2 0x29B1 JUMP JUMPDEST JUMPDEST PUSH1 0x20 MUL PUSH1 0x20 ADD ADD MLOAD DUP9 ISZERO PUSH2 0x1C96 JUMP JUMPDEST PUSH2 0xD56 SWAP2 SWAP1 PUSH2 0x2AFE JUMP JUMPDEST DUP10 PUSH1 0x80 ADD MLOAD PUSH1 0x1 DUP10 PUSH2 0xD68 SWAP2 SWAP1 PUSH2 0x294E JUMP JUMPDEST DUP2 MLOAD DUP2 LT PUSH2 0xD79 JUMPI PUSH2 0xD78 PUSH2 0x29B1 JUMP JUMPDEST JUMPDEST PUSH1 0x20 MUL PUSH1 0x20 ADD ADD DUP2 DUP2 MSTORE POP POP DUP9 PUSH1 0x60 ADD MLOAD PUSH1 0x1 DUP9 PUSH2 0xD97 SWAP2 SWAP1 PUSH2 0x294E JUMP JUMPDEST DUP2 MLOAD DUP2 LT PUSH2 0xDA8 JUMPI PUSH2 0xDA7 PUSH2 0x29B1 JUMP JUMPDEST JUMPDEST PUSH1 0x20 MUL PUSH1 0x20 ADD ADD MLOAD PUSH8 0xDE0B6B3A7640000 DUP4 PUSH2 0xDC4 SWAP2 SWAP1 PUSH2 0x2AA4 JUMP JUMPDEST PUSH2 0xDCE SWAP2 SWAP1 PUSH2 0x302A JUMP JUMPDEST DUP10 PUSH1 0xA0 ADD MLOAD PUSH1 0x1 DUP10 PUSH2 0xDE0 SWAP2 SWAP1 PUSH2 0x294E JUMP JUMPDEST DUP2 MLOAD DUP2 LT PUSH2 0xDF1 JUMPI PUSH2 0xDF0 PUSH2 0x29B1 JUMP JUMPDEST JUMPDEST PUSH1 0x20 MUL PUSH1 0x20 ADD ADD DUP2 DUP2 MSTORE POP POP POP JUMPDEST POP POP JUMPDEST POP JUMPDEST DUP1 DUP1 PUSH2 0xE0F SWAP1 PUSH2 0x305B JUMP JUMPDEST SWAP2 POP POP PUSH2 0x904 JUMP JUMPDEST POP JUMPDEST POP DUP1 DUP1 PUSH2 0xE25 SWAP1 PUSH2 0x30A4 JUMP JUMPDEST SWAP2 POP POP PUSH2 0x40F JUMP JUMPDEST POP POP SWAP4 SWAP3 POP POP POP JUMP JUMPDEST PUSH2 0xE3E PUSH2 0x2534 JUMP JUMPDEST PUSH1 0x2 DUP5 DUP5 SWAP1 POP LT ISZERO PUSH2 0xE7C JUMPI PUSH1 0x40 MLOAD PUSH32 0x2973C80B00000000000000000000000000000000000000000000000000000000 DUP2 MSTORE PUSH1 0x4 ADD PUSH1 0x40 MLOAD DUP1 SWAP2 SUB SWAP1 REVERT JUMPDEST DUP4 DUP4 DUP1 DUP1 PUSH1 0x20 MUL PUSH1 0x20 ADD PUSH1 0x40 MLOAD SWAP1 DUP2 ADD PUSH1 0x40 MSTORE DUP1 SWAP4 SWAP3 SWAP2 SWAP1 DUP2 DUP2 MSTORE PUSH1 0x20 ADD DUP4 DUP4 PUSH1 0x20 MUL DUP1 DUP3 DUP5 CALLDATACOPY PUSH1 0x0 DUP2 DUP5 ADD MSTORE PUSH1 0x1F NOT PUSH1 0x1F DUP3 ADD AND SWAP1 POP DUP1 DUP4 ADD SWAP3 POP POP POP POP POP POP POP DUP2 PUSH1 0x0 ADD DUP2 SWAP1 MSTORE POP PUSH1 0x0 PUSH1 0x1 DUP6 DUP6 SWAP1 POP PUSH2 0xED8 SWAP2 SWAP1 PUSH2 0x294E JUMP JUMPDEST SWAP1 POP DUP1 PUSH8 0xFFFFFFFFFFFFFFFF DUP2 GT ISZERO PUSH2 0xEF4 JUMPI PUSH2 0xEF3 PUSH2 0x2982 JUMP JUMPDEST JUMPDEST PUSH1 0x40 MLOAD SWAP1 DUP1 DUP3 MSTORE DUP1 PUSH1 0x20 MUL PUSH1 0x20 ADD DUP3 ADD PUSH1 0x40 MSTORE DUP1 ISZERO PUSH2 0xF22 JUMPI DUP2 PUSH1 0x20 ADD PUSH1 0x20 DUP3 MUL DUP1 CALLDATASIZE DUP4 CALLDATACOPY DUP1 DUP3 ADD SWAP2 POP POP SWAP1 POP JUMPDEST POP DUP3 PUSH1 0x20 ADD DUP2 SWAP1 MSTORE POP DUP1 PUSH8 0xFFFFFFFFFFFFFFFF DUP2 GT ISZERO PUSH2 0xF45 JUMPI PUSH2 0xF44 PUSH2 0x2982 JUMP JUMPDEST JUMPDEST PUSH1 0x40 MLOAD SWAP1 DUP1 DUP3 MSTORE DUP1 PUSH1 0x20 MUL PUSH1 0x20 ADD DUP3 ADD PUSH1 0x40 MSTORE DUP1 ISZERO PUSH2 0xF73 JUMPI DUP2 PUSH1 0x20 ADD PUSH1 0x20 DUP3 MUL DUP1 CALLDATASIZE DUP4 CALLDATACOPY DUP1 DUP3 ADD SWAP2 POP POP SWAP1 POP JUMPDEST POP DUP3 PUSH1 0x40 ADD DUP2 SWAP1 MSTORE POP DUP1 PUSH8 0xFFFFFFFFFFFFFFFF DUP2 GT ISZERO PUSH2 0xF96 JUMPI PUSH2 0xF95 PUSH2 0x2982 JUMP JUMPDEST JUMPDEST PUSH1 0x40 MLOAD SWAP1 DUP1 DUP3 MSTORE DUP1 PUSH1 0x20 MUL PUSH1 0x20 ADD DUP3 ADD PUSH1 0x40 MSTORE DUP1 ISZERO PUSH2 0xFC4 JUMPI DUP2 PUSH1 0x20 ADD PUSH1 0x20 DUP3 MUL DUP1 CALLDATASIZE DUP4 CALLDATACOPY DUP1 DUP3 ADD SWAP2 POP POP SWAP1 POP JUMPDEST POP DUP3 PUSH1 0xA0 ADD DUP2 SWAP1 MSTORE POP DUP5 DUP5 SWAP1 POP PUSH8 0xFFFFFFFFFFFFFFFF DUP2 GT ISZERO PUSH2 0xFEA JUMPI PUSH2 0xFE9 PUSH2 0x2982 JUMP JUMPDEST JUMPDEST PUSH1 0x40 MLOAD SWAP1 DUP1 DUP3 MSTORE DUP1 PUSH1 0x20 MUL PUSH1 0x20 ADD DUP3 ADD PUSH1 0x40 MSTORE DUP1 ISZERO PUSH2 0x1018 JUMPI DUP2 PUSH1 0x20 ADD PUSH1 0x20 DUP3 MUL DUP1 CALLDATASIZE DUP4 CALLDATACOPY DUP1 DUP3 ADD SWAP2 POP POP SWAP1 POP JUMPDEST POP DUP3 PUSH1 0x60 ADD DUP2 SWAP1 MSTORE POP DUP5 DUP5 SWAP1 POP PUSH8 0xFFFFFFFFFFFFFFFF DUP2 GT ISZERO PUSH2 0x103E JUMPI PUSH2 0x103D PUSH2 0x2982 JUMP JUMPDEST JUMPDEST PUSH1 0x40 MLOAD SWAP1 DUP1 DUP3 MSTORE DUP1 PUSH1 0x20 MUL PUSH1 0x20 ADD DUP3 ADD PUSH1 0x40 MSTORE DUP1 ISZERO PUSH2 0x106C JUMPI DUP2 PUSH1 0x20 ADD PUSH1 0x20 DUP3 MUL DUP1 CALLDATASIZE DUP4 CALLDATACOPY DUP1 DUP3 ADD SWAP2 POP POP SWAP1 POP JUMPDEST POP DUP3 PUSH1 0x80 ADD DUP2 SWAP1 MSTORE POP DUP3 DUP3 PUSH1 0x60 ADD MLOAD PUSH1 0x0 DUP2 MLOAD DUP2 LT PUSH2 0x108E JUMPI PUSH2 0x108D PUSH2 0x29B1 JUMP JUMPDEST JUMPDEST PUSH1 0x20 MUL PUSH1 0x20 ADD ADD DUP2 DUP2 MSTORE POP POP DUP3 DUP3 PUSH1 0x80 ADD MLOAD PUSH1 0x0 DUP2 MLOAD DUP2 LT PUSH2 0x10B3 JUMPI PUSH2 0x10B2 PUSH2 0x29B1 JUMP JUMPDEST JUMPDEST PUSH1 0x20 MUL PUSH1 0x20 ADD ADD DUP2 DUP2 MSTORE POP POP PUSH1 0x0 JUMPDEST DUP2 DUP2 LT ISZERO PUSH2 0x1A13 JUMPI PUSH32 0x0 PUSH20 0xFFFFFFFFFFFFFFFFFFFFFFFFFFFFFFFFFFFFFFFF AND PUSH4 0xE6A43905 DUP8 DUP8 DUP5 DUP2 DUP2 LT PUSH2 0x1119 JUMPI PUSH2 0x1118 PUSH2 0x29B1 JUMP JUMPDEST JUMPDEST SWAP1 POP PUSH1 0x20 MUL ADD PUSH1 0x20 DUP2 ADD SWAP1 PUSH2 0x112E SWAP2 SWAP1 PUSH2 0x2A0C JUMP JUMPDEST DUP9 DUP9 PUSH1 0x1 DUP7 PUSH2 0x113D SWAP2 SWAP1 PUSH2 0x2AFE JUMP JUMPDEST DUP2 DUP2 LT PUSH2 0x114D JUMPI PUSH2 0x114C PUSH2 0x29B1 JUMP JUMPDEST JUMPDEST SWAP1 POP PUSH1 0x20 MUL ADD PUSH1 0x20 DUP2 ADD SWAP1 PUSH2 0x1162 SWAP2 SWAP1 PUSH2 0x2A0C JUMP JUMPDEST PUSH1 0x40 MLOAD DUP4 PUSH4 0xFFFFFFFF AND PUSH1 0xE0 SHL DUP2 MSTORE PUSH1 0x4 ADD PUSH2 0x117F SWAP3 SWAP2 SWAP1 PUSH2 0x2A39 JUMP JUMPDEST PUSH1 0x20 PUSH1 0x40 MLOAD DUP1 DUP4 SUB DUP2 DUP7 GAS STATICCALL ISZERO DUP1 ISZERO PUSH2 0x119C JUMPI RETURNDATASIZE PUSH1 0x0 DUP1 RETURNDATACOPY RETURNDATASIZE PUSH1 0x0 REVERT JUMPDEST POP POP POP POP PUSH1 0x40 MLOAD RETURNDATASIZE PUSH1 0x1F NOT PUSH1 0x1F DUP3 ADD AND DUP3 ADD DUP1 PUSH1 0x40 MSTORE POP DUP2 ADD SWAP1 PUSH2 0x11C0 SWAP2 SWAP1 PUSH2 0x2A77 JUMP JUMPDEST DUP4 PUSH1 0x20 ADD MLOAD DUP3 DUP2 MLOAD DUP2 LT PUSH2 0x11D7 JUMPI PUSH2 0x11D6 PUSH2 0x29B1 JUMP JUMPDEST JUMPDEST PUSH1 0x20 MUL PUSH1 0x20 ADD ADD SWAP1 PUSH20 0xFFFFFFFFFFFFFFFFFFFFFFFFFFFFFFFFFFFFFFFF AND SWAP1 DUP2 PUSH20 0xFFFFFFFFFFFFFFFFFFFFFFFFFFFFFFFFFFFFFFFF AND DUP2 MSTORE POP POP PUSH1 0x0 PUSH20 0xFFFFFFFFFFFFFFFFFFFFFFFFFFFFFFFFFFFFFFFF AND DUP4 PUSH1 0x20 ADD MLOAD DUP3 DUP2 MLOAD DUP2 LT PUSH2 0x1240 JUMPI PUSH2 0x123F PUSH2 0x29B1 JUMP JUMPDEST JUMPDEST PUSH1 0x20 MUL PUSH1 0x20 ADD ADD MLOAD PUSH20 0xFFFFFFFFFFFFFFFFFFFFFFFFFFFFFFFFFFFFFFFF AND EQ ISZERO DUP1 ISZERO PUSH2 0x128A JUMPI POP PUSH1 0x0 DUP4 PUSH1 0x60 ADD MLOAD DUP3 DUP2 MLOAD DUP2 LT PUSH2 0x1280 JUMPI PUSH2 0x127F PUSH2 0x29B1 JUMP JUMPDEST JUMPDEST PUSH1 0x20 MUL PUSH1 0x20 ADD ADD MLOAD GT JUMPDEST ISZERO PUSH2 0x1427 JUMPI PUSH1 0x0 DUP1 PUSH2 0x1315 DUP6 PUSH1 0x20 ADD MLOAD DUP5 DUP2 MLOAD DUP2 LT PUSH2 0x12AC JUMPI PUSH2 0x12AB PUSH2 0x29B1 JUMP JUMPDEST JUMPDEST PUSH1 0x20 MUL PUSH1 0x20 ADD ADD MLOAD DUP10 DUP10 DUP7 DUP2 DUP2 LT PUSH2 0x12C7 JUMPI PUSH2 0x12C6 PUSH2 0x29B1 JUMP JUMPDEST JUMPDEST SWAP1 POP PUSH1 0x20 MUL ADD PUSH1 0x20 DUP2 ADD SWAP1 PUSH2 0x12DC SWAP2 SWAP1 PUSH2 0x2A0C JUMP JUMPDEST DUP11 DUP11 PUSH1 0x1 DUP9 PUSH2 0x12EB SWAP2 SWAP1 PUSH2 0x2AFE JUMP JUMPDEST DUP2 DUP2 LT PUSH2 0x12FB JUMPI PUSH2 0x12FA PUSH2 0x29B1 JUMP JUMPDEST JUMPDEST SWAP1 POP PUSH1 0x20 MUL ADD PUSH1 0x20 DUP2 ADD SWAP1 PUSH2 0x1310 SWAP2 SWAP1 PUSH2 0x2A0C JUMP JUMPDEST PUSH2 0x1A1C JUMP JUMPDEST SWAP2 POP SWAP2 POP PUSH1 0x0 DUP3 GT DUP1 ISZERO PUSH2 0x1329 JUMPI POP PUSH1 0x0 DUP2 GT JUMPDEST ISZERO PUSH2 0x1424 JUMPI PUSH2 0x1357 DUP6 PUSH1 0x60 ADD MLOAD DUP5 DUP2 MLOAD DUP2 LT PUSH2 0x1348 JUMPI PUSH2 0x1347 PUSH2 0x29B1 JUMP JUMPDEST JUMPDEST PUSH1 0x20 MUL PUSH1 0x20 ADD ADD MLOAD DUP4 DUP4 PUSH2 0x1CEE JUMP JUMPDEST DUP6 PUSH1 0x60 ADD MLOAD PUSH1 0x1 DUP6 PUSH2 0x1369 SWAP2 SWAP1 PUSH2 0x2AFE JUMP JUMPDEST DUP2 MLOAD DUP2 LT PUSH2 0x137A JUMPI PUSH2 0x1379 PUSH2 0x29B1 JUMP JUMPDEST JUMPDEST PUSH1 0x20 MUL PUSH1 0x20 ADD ADD DUP2 DUP2 MSTORE POP POP PUSH2 0x13C9 PUSH2 0x3E5 DUP7 PUSH1 0x80 ADD MLOAD DUP6 DUP2 MLOAD DUP2 LT PUSH2 0x13A3 JUMPI PUSH2 0x13A2 PUSH2 0x29B1 JUMP JUMPDEST JUMPDEST PUSH1 0x20 MUL PUSH1 0x20 ADD ADD MLOAD PUSH2 0x13B5 SWAP2 SWAP1 PUSH2 0x2AA4 JUMP JUMPDEST PUSH2 0x3E8 DUP5 PUSH2 0x13C3 SWAP2 SWAP1 PUSH2 0x2AA4 JUMP JUMPDEST DUP4 PUSH2 0x1BF4 JUMP JUMPDEST DUP6 PUSH1 0x80 ADD MLOAD PUSH1 0x1 DUP6 PUSH2 0x13DB SWAP2 SWAP1 PUSH2 0x2AFE JUMP JUMPDEST DUP2 MLOAD DUP2 LT PUSH2 0x13EC JUMPI PUSH2 0x13EB PUSH2 0x29B1 JUMP JUMPDEST JUMPDEST PUSH1 0x20 MUL PUSH1 0x20 ADD ADD DUP2 DUP2 MSTORE POP POP PUSH7 0xAA87BEE538000 DUP6 PUSH1 0xA0 ADD MLOAD DUP5 DUP2 MLOAD DUP2 LT PUSH2 0x1417 JUMPI PUSH2 0x1416 PUSH2 0x29B1 JUMP JUMPDEST JUMPDEST PUSH1 0x20 MUL PUSH1 0x20 ADD ADD DUP2 DUP2 MSTORE POP POP JUMPDEST POP POP JUMPDEST PUSH1 0x0 PUSH32 0x0 PUSH20 0xFFFFFFFFFFFFFFFFFFFFFFFFFFFFFFFFFFFFFFFF AND PUSH4 0x6622E0D7 DUP9 DUP9 DUP6 DUP2 DUP2 LT PUSH2 0x1478 JUMPI PUSH2 0x1477 PUSH2 0x29B1 JUMP JUMPDEST JUMPDEST SWAP1 POP PUSH1 0x20 MUL ADD PUSH1 0x20 DUP2 ADD SWAP1 PUSH2 0x148D SWAP2 SWAP1 PUSH2 0x2A0C JUMP JUMPDEST DUP10 DUP10 PUSH1 0x1 DUP8 PUSH2 0x149C SWAP2 SWAP1 PUSH2 0x2AFE JUMP JUMPDEST DUP2 DUP2 LT PUSH2 0x14AC JUMPI PUSH2 0x14AB PUSH2 0x29B1 JUMP JUMPDEST JUMPDEST SWAP1 POP PUSH1 0x20 MUL ADD PUSH1 0x20 DUP2 ADD SWAP1 PUSH2 0x14C1 SWAP2 SWAP1 PUSH2 0x2A0C JUMP JUMPDEST PUSH1 0x40 MLOAD DUP4 PUSH4 0xFFFFFFFF AND PUSH1 0xE0 SHL DUP2 MSTORE PUSH1 0x4 ADD PUSH2 0x14DE SWAP3 SWAP2 SWAP1 PUSH2 0x2BB3 JUMP JUMPDEST PUSH1 0x0 PUSH1 0x40 MLOAD DUP1 DUP4 SUB DUP2 DUP7 GAS STATICCALL ISZERO DUP1 ISZERO PUSH2 0x14FB JUMPI RETURNDATASIZE PUSH1 0x0 DUP1 RETURNDATACOPY RETURNDATASIZE PUSH1 0x0 REVERT JUMPDEST POP POP POP POP PUSH1 0x40 MLOAD RETURNDATASIZE PUSH1 0x0 DUP3 RETURNDATACOPY RETURNDATASIZE PUSH1 0x1F NOT PUSH1 0x1F DUP3 ADD AND DUP3 ADD DUP1 PUSH1 0x40 MSTORE POP DUP2 ADD SWAP1 PUSH2 0x1524 SWAP2 SWAP1 PUSH2 0x2E29 JUMP JUMPDEST SWAP1 POP PUSH1 0x0 DUP2 MLOAD GT DUP1 ISZERO PUSH2 0x1555 JUMPI POP PUSH1 0x0 DUP5 PUSH1 0x60 ADD MLOAD DUP4 DUP2 MLOAD DUP2 LT PUSH2 0x154B JUMPI PUSH2 0x154A PUSH2 0x29B1 JUMP JUMPDEST JUMPDEST PUSH1 0x20 MUL PUSH1 0x20 ADD ADD MLOAD GT JUMPDEST ISZERO PUSH2 0x19FF JUMPI PUSH1 0x0 JUMPDEST DUP2 MLOAD DUP2 LT ISZERO PUSH2 0x19FD JUMPI DUP2 DUP2 DUP2 MLOAD DUP2 LT PUSH2 0x1579 JUMPI PUSH2 0x1578 PUSH2 0x29B1 JUMP JUMPDEST JUMPDEST PUSH1 0x20 MUL PUSH1 0x20 ADD ADD MLOAD PUSH1 0x60 ADD MLOAD PUSH2 0x19EA JUMPI PUSH1 0x0 DUP9 DUP9 PUSH1 0x1 DUP7 PUSH2 0x159A SWAP2 SWAP1 PUSH2 0x2AFE JUMP JUMPDEST DUP2 DUP2 LT PUSH2 0x15AA JUMPI PUSH2 0x15A9 PUSH2 0x29B1 JUMP JUMPDEST JUMPDEST SWAP1 POP PUSH1 0x20 MUL ADD PUSH1 0x20 DUP2 ADD SWAP1 PUSH2 0x15BF SWAP2 SWAP1 PUSH2 0x2A0C JUMP JUMPDEST PUSH20 0xFFFFFFFFFFFFFFFFFFFFFFFFFFFFFFFFFFFFFFFF AND DUP4 DUP4 DUP2 MLOAD DUP2 LT PUSH2 0x15E8 JUMPI PUSH2 0x15E7 PUSH2 0x29B1 JUMP JUMPDEST JUMPDEST PUSH1 0x20 MUL PUSH1 0x20 ADD ADD MLOAD PUSH1 0x20 ADD MLOAD PUSH20 0xFFFFFFFFFFFFFFFFFFFFFFFFFFFFFFFFFFFFFFFF AND PUSH4 0xB7D19FC4 PUSH1 0x40 MLOAD DUP2 PUSH4 0xFFFFFFFF AND PUSH1 0xE0 SHL DUP2 MSTORE PUSH1 0x4 ADD PUSH1 0x20 PUSH1 0x40 MLOAD DUP1 DUP4 SUB DUP2 DUP7 GAS STATICCALL ISZERO DUP1 ISZERO PUSH2 0x163E JUMPI RETURNDATASIZE PUSH1 0x0 DUP1 RETURNDATACOPY RETURNDATASIZE PUSH1 0x0 REVERT JUMPDEST POP POP POP POP PUSH1 0x40 MLOAD RETURNDATASIZE PUSH1 0x1F NOT PUSH1 0x1F DUP3 ADD AND DUP3 ADD DUP1 PUSH1 0x40 MSTORE POP DUP2 ADD SWAP1 PUSH2 0x1662 SWAP2 SWAP1 PUSH2 0x2EB0 JUMP JUMPDEST PUSH20 0xFFFFFFFFFFFFFFFFFFFFFFFFFFFFFFFFFFFFFFFF AND EQ SWAP1 POP PUSH32 0x0 PUSH20 0xFFFFFFFFFFFFFFFFFFFFFFFFFFFFFFFFFFFFFFFF AND PUSH4 0x2004B724 DUP5 DUP5 DUP2 MLOAD DUP2 LT PUSH2 0x16CA JUMPI PUSH2 0x16C9 PUSH2 0x29B1 JUMP JUMPDEST JUMPDEST PUSH1 0x20 MUL PUSH1 0x20 ADD ADD MLOAD PUSH1 0x20 ADD MLOAD DUP9 PUSH1 0x60 ADD MLOAD DUP8 DUP2 MLOAD DUP2 LT PUSH2 0x16ED JUMPI PUSH2 0x16EC PUSH2 0x29B1 JUMP JUMPDEST JUMPDEST PUSH1 0x20 MUL PUSH1 0x20 ADD ADD MLOAD DUP5 PUSH1 0x40 MLOAD DUP5 PUSH4 0xFFFFFFFF AND PUSH1 0xE0 SHL DUP2 MSTORE PUSH1 0x4 ADD PUSH2 0x1714 SWAP4 SWAP3 SWAP2 SWAP1 PUSH2 0x2F1C JUMP JUMPDEST PUSH1 0x40 DUP1 MLOAD DUP1 DUP4 SUB DUP2 DUP7 GAS STATICCALL SWAP3 POP POP POP DUP1 ISZERO PUSH2 0x174D JUMPI POP PUSH1 0x40 MLOAD RETURNDATASIZE PUSH1 0x1F NOT PUSH1 0x1F DUP3 ADD AND DUP3 ADD DUP1 PUSH1 0x40 MSTORE POP DUP2 ADD SWAP1 PUSH2 0x174A SWAP2 SWAP1 PUSH2 0x2F68 JUMP JUMPDEST PUSH1 0x1 JUMPDEST PUSH2 0x1756 JUMPI PUSH2 0x19E8 JUMP JUMPDEST DUP8 PUSH1 0x60 ADD MLOAD PUSH1 0x1 DUP8 PUSH2 0x1768 SWAP2 SWAP1 PUSH2 0x2AFE JUMP JUMPDEST DUP2 MLOAD DUP2 LT PUSH2 0x1779 JUMPI PUSH2 0x1778 PUSH2 0x29B1 JUMP JUMPDEST JUMPDEST PUSH1 0x20 MUL PUSH1 0x20 ADD ADD MLOAD DUP3 GT ISZERO PUSH2 0x19E5 JUMPI DUP2 DUP9 PUSH1 0x60 ADD MLOAD PUSH1 0x1 DUP9 PUSH2 0x179B SWAP2 SWAP1 PUSH2 0x2AFE JUMP JUMPDEST DUP2 MLOAD DUP2 LT PUSH2 0x17AC JUMPI PUSH2 0x17AB PUSH2 0x29B1 JUMP JUMPDEST JUMPDEST PUSH1 0x20 MUL PUSH1 0x20 ADD ADD DUP2 DUP2 MSTORE POP POP DUP5 DUP5 DUP2 MLOAD DUP2 LT PUSH2 0x17CB JUMPI PUSH2 0x17CA PUSH2 0x29B1 JUMP JUMPDEST JUMPDEST PUSH1 0x20 MUL PUSH1 0x20 ADD ADD MLOAD PUSH1 0x20 ADD MLOAD DUP9 PUSH1 0x20 ADD MLOAD DUP8 DUP2 MLOAD DUP2 LT PUSH2 0x17EE JUMPI PUSH2 0x17ED PUSH2 0x29B1 JUMP JUMPDEST JUMPDEST PUSH1 0x20 MUL PUSH1 0x20 ADD ADD SWAP1 PUSH20 0xFFFFFFFFFFFFFFFFFFFFFFFFFFFFFFFFFFFFFFFF AND SWAP1 DUP2 PUSH20 0xFFFFFFFFFFFFFFFFFFFFFFFFFFFFFFFFFFFFFFFF AND DUP2 MSTORE POP POP DUP5 DUP5 DUP2 MLOAD DUP2 LT PUSH2 0x183B JUMPI PUSH2 0x183A PUSH2 0x29B1 JUMP JUMPDEST JUMPDEST PUSH1 0x20 MUL PUSH1 0x20 ADD ADD MLOAD PUSH1 0x0 ADD MLOAD PUSH2 0xFFFF AND DUP9 PUSH1 0x40 ADD MLOAD DUP8 DUP2 MLOAD DUP2 LT PUSH2 0x1862 JUMPI PUSH2 0x1861 PUSH2 0x29B1 JUMP JUMPDEST JUMPDEST PUSH1 0x20 MUL PUSH1 0x20 ADD ADD DUP2 DUP2 MSTORE POP POP PUSH1 0x0 DUP6 DUP6 DUP2 MLOAD DUP2 LT PUSH2 0x1883 JUMPI PUSH2 0x1882 PUSH2 0x29B1 JUMP JUMPDEST JUMPDEST PUSH1 0x20 MUL PUSH1 0x20 ADD ADD MLOAD PUSH1 0x20 ADD MLOAD PUSH20 0xFFFFFFFFFFFFFFFFFFFFFFFFFFFFFFFFFFFFFFFF AND PUSH4 0x1B05B83E PUSH1 0x40 MLOAD DUP2 PUSH4 0xFFFFFFFF AND PUSH1 0xE0 SHL DUP2 MSTORE PUSH1 0x4 ADD PUSH1 0x60 PUSH1 0x40 MLOAD DUP1 DUP4 SUB DUP2 DUP7 GAS STATICCALL ISZERO DUP1 ISZERO PUSH2 0x18D9 JUMPI RETURNDATASIZE PUSH1 0x0 DUP1 RETURNDATACOPY RETURNDATASIZE PUSH1 0x0 REVERT JUMPDEST POP POP POP POP PUSH1 0x40 MLOAD RETURNDATASIZE PUSH1 0x1F NOT PUSH1 0x1F DUP3 ADD AND DUP3 ADD DUP1 PUSH1 0x40 MSTORE POP DUP2 ADD SWAP1 PUSH2 0x18FD SWAP2 SWAP1 PUSH2 0x2FA8 JUMP JUMPDEST SWAP3 POP POP POP PUSH2 0x1954 DUP3 DUP11 PUSH1 0x80 ADD MLOAD DUP10 DUP2 MLOAD DUP2 LT PUSH2 0x191C JUMPI PUSH2 0x191B PUSH2 0x29B1 JUMP JUMPDEST JUMPDEST PUSH1 0x20 MUL PUSH1 0x20 ADD ADD MLOAD PUSH2 0x192E SWAP2 SWAP1 PUSH2 0x294E JUMP JUMPDEST DUP3 DUP12 PUSH1 0x40 ADD MLOAD DUP11 DUP2 MLOAD DUP2 LT PUSH2 0x1946 JUMPI PUSH2 0x1945 PUSH2 0x29B1 JUMP JUMPDEST JUMPDEST PUSH1 0x20 MUL PUSH1 0x20 ADD ADD MLOAD DUP8 PUSH2 0x1C96 JUMP JUMPDEST DUP10 PUSH1 0x80 ADD MLOAD PUSH1 0x1 DUP10 PUSH2 0x1966 SWAP2 SWAP1 PUSH2 0x2AFE JUMP JUMPDEST DUP2 MLOAD DUP2 LT PUSH2 0x1977 JUMPI PUSH2 0x1976 PUSH2 0x29B1 JUMP JUMPDEST JUMPDEST PUSH1 0x20 MUL PUSH1 0x20 ADD ADD DUP2 DUP2 MSTORE POP POP DUP9 PUSH1 0x60 ADD MLOAD DUP8 DUP2 MLOAD DUP2 LT PUSH2 0x199A JUMPI PUSH2 0x1999 PUSH2 0x29B1 JUMP JUMPDEST JUMPDEST PUSH1 0x20 MUL PUSH1 0x20 ADD ADD MLOAD PUSH8 0xDE0B6B3A7640000 DUP4 PUSH2 0x19B6 SWAP2 SWAP1 PUSH2 0x2AA4 JUMP JUMPDEST PUSH2 0x19C0 SWAP2 SWAP1 PUSH2 0x302A JUMP JUMPDEST DUP10 PUSH1 0xA0 ADD MLOAD DUP9 DUP2 MLOAD DUP2 LT PUSH2 0x19D7 JUMPI PUSH2 0x19D6 PUSH2 0x29B1 JUMP JUMPDEST JUMPDEST PUSH1 0x20 MUL PUSH1 0x20 ADD ADD DUP2 DUP2 MSTORE POP POP POP JUMPDEST POP POP JUMPDEST POP JUMPDEST DUP1 DUP1 PUSH2 0x19F5 SWAP1 PUSH2 0x305B JUMP JUMPDEST SWAP2 POP POP PUSH2 0x155D JUMP JUMPDEST POP JUMPDEST POP DUP1 DUP1 PUSH2 0x1A0B SWAP1 PUSH2 0x305B JUMP JUMPDEST SWAP2 POP POP PUSH2 0x10C2 JUMP JUMPDEST POP POP SWAP4 SWAP3 POP POP POP JUMP JUMPDEST PUSH1 0x0 DUP1 PUSH1 0x0 PUSH2 0x1A2B DUP6 DUP6 PUSH2 0x1DC7 JUMP JUMPDEST POP SWAP1 POP PUSH1 0x0 DUP1 DUP8 PUSH20 0xFFFFFFFFFFFFFFFFFFFFFFFFFFFFFFFFFFFFFFFF AND PUSH4 0x902F1AC PUSH1 0x40 MLOAD DUP2 PUSH4 0xFFFFFFFF AND PUSH1 0xE0 SHL DUP2 MSTORE PUSH1 0x4 ADD PUSH1 0x60 PUSH1 0x40 MLOAD DUP1 DUP4 SUB DUP2 DUP7 GAS STATICCALL ISZERO DUP1 ISZERO PUSH2 0x1A7C JUMPI RETURNDATASIZE PUSH1 0x0 DUP1 RETURNDATACOPY RETURNDATASIZE PUSH1 0x0 REVERT JUMPDEST POP POP POP POP PUSH1 0x40 MLOAD RETURNDATASIZE PUSH1 0x1F NOT PUSH1 0x1F DUP3 ADD AND DUP3 ADD DUP1 PUSH1 0x40 MSTORE POP DUP2 ADD SWAP1 PUSH2 0x1AA0 SWAP2 SWAP1 PUSH2 0x3150 JUMP JUMPDEST POP PUSH14 0xFFFFFFFFFFFFFFFFFFFFFFFFFFFF AND SWAP2 POP PUSH14 0xFFFFFFFFFFFFFFFFFFFFFFFFFFFF AND SWAP2 POP DUP3 PUSH20 0xFFFFFFFFFFFFFFFFFFFFFFFFFFFFFFFFFFFFFFFF AND DUP8 PUSH20 0xFFFFFFFFFFFFFFFFFFFFFFFFFFFFFFFFFFFFFFFF AND EQ PUSH2 0x1AFF JUMPI DUP1 DUP3 PUSH2 0x1B02 JUMP JUMPDEST DUP2 DUP2 JUMPDEST DUP1 SWAP6 POP DUP2 SWAP7 POP POP POP POP POP POP SWAP4 POP SWAP4 SWAP2 POP POP JUMP JUMPDEST PUSH1 0x0 DUP1 DUP5 EQ ISZERO PUSH2 0x1B51 JUMPI PUSH1 0x40 MLOAD PUSH32 0xB229ED3300000000000000000000000000000000000000000000000000000000 DUP2 MSTORE PUSH1 0x4 ADD PUSH1 0x40 MLOAD DUP1 SWAP2 SUB SWAP1 REVERT JUMPDEST PUSH1 0x0 DUP4 EQ DUP1 PUSH2 0x1B60 JUMPI POP PUSH1 0x0 DUP3 EQ JUMPDEST ISZERO PUSH2 0x1B97 JUMPI PUSH1 0x40 MLOAD PUSH32 0x98C59A2900000000000000000000000000000000000000000000000000000000 DUP2 MSTORE PUSH1 0x4 ADD PUSH1 0x40 MLOAD DUP1 SWAP2 SUB SWAP1 REVERT JUMPDEST PUSH1 0x0 PUSH2 0x3E8 DUP6 DUP6 PUSH2 0x1BA8 SWAP2 SWAP1 PUSH2 0x2AA4 JUMP JUMPDEST PUSH2 0x1BB2 SWAP2 SWAP1 PUSH2 0x2AA4 JUMP JUMPDEST SWAP1 POP PUSH1 0x0 PUSH2 0x3E5 DUP7 DUP6 PUSH2 0x1BC5 SWAP2 SWAP1 PUSH2 0x294E JUMP JUMPDEST PUSH2 0x1BCF SWAP2 SWAP1 PUSH2 0x2AA4 JUMP JUMPDEST SWAP1 POP PUSH1 0x1 DUP2 DUP4 PUSH2 0x1BDF SWAP2 SWAP1 PUSH2 0x302A JUMP JUMPDEST PUSH2 0x1BE9 SWAP2 SWAP1 PUSH2 0x2AFE JUMP JUMPDEST SWAP3 POP POP POP SWAP4 SWAP3 POP POP POP JUMP JUMPDEST PUSH1 0x0 DUP1 DUP5 EQ ISZERO PUSH2 0x1C30 JUMPI PUSH1 0x40 MLOAD PUSH32 0xB229ED3300000000000000000000000000000000000000000000000000000000 DUP2 MSTORE PUSH1 0x4 ADD PUSH1 0x40 MLOAD DUP1 SWAP2 SUB SWAP1 REVERT JUMPDEST PUSH1 0x0 DUP4 EQ DUP1 PUSH2 0x1C3F JUMPI POP PUSH1 0x0 DUP3 EQ JUMPDEST ISZERO PUSH2 0x1C76 JUMPI PUSH1 0x40 MLOAD PUSH32 0x98C59A2900000000000000000000000000000000000000000000000000000000 DUP2 MSTORE PUSH1 0x4 ADD PUSH1 0x40 MLOAD DUP1 SWAP2 SUB SWAP1 REVERT JUMPDEST DUP3 DUP3 DUP6 PUSH2 0x1C83 SWAP2 SWAP1 PUSH2 0x2AA4 JUMP JUMPDEST PUSH2 0x1C8D SWAP2 SWAP1 PUSH2 0x302A JUMP JUMPDEST SWAP1 POP SWAP4 SWAP3 POP POP POP JUMP JUMPDEST PUSH1 0x0 DUP2 ISZERO PUSH2 0x1CC4 JUMPI PUSH2 0x1CBD DUP6 PUSH1 0x80 PUSH2 0x1CAE DUP8 DUP8 PUSH2 0x1EE3 JUMP JUMPDEST PUSH2 0x1F52 SWAP1 SWAP3 SWAP2 SWAP1 PUSH4 0xFFFFFFFF AND JUMP JUMPDEST SWAP1 POP PUSH2 0x1CE6 JUMP JUMPDEST PUSH2 0x1CE3 PUSH1 0x80 PUSH2 0x1CD3 DUP7 DUP7 PUSH2 0x1EE3 JUMP JUMPDEST DUP8 PUSH2 0x2022 SWAP1 SWAP3 SWAP2 SWAP1 PUSH4 0xFFFFFFFF AND JUMP JUMPDEST SWAP1 POP JUMPDEST SWAP5 SWAP4 POP POP POP POP JUMP JUMPDEST PUSH1 0x0 DUP1 DUP5 EQ ISZERO PUSH2 0x1D2A JUMPI PUSH1 0x40 MLOAD PUSH32 0xB229ED3300000000000000000000000000000000000000000000000000000000 DUP2 MSTORE PUSH1 0x4 ADD PUSH1 0x40 MLOAD DUP1 SWAP2 SUB SWAP1 REVERT JUMPDEST PUSH1 0x0 DUP4 EQ DUP1 PUSH2 0x1D39 JUMPI POP PUSH1 0x0 DUP3 EQ JUMPDEST ISZERO PUSH2 0x1D70 JUMPI PUSH1 0x40 MLOAD PUSH32 0x98C59A2900000000000000000000000000000000000000000000000000000000 DUP2 MSTORE PUSH1 0x4 ADD PUSH1 0x40 MLOAD DUP1 SWAP2 SUB SWAP1 REVERT JUMPDEST PUSH1 0x0 PUSH2 0x3E5 DUP6 PUSH2 0x1D80 SWAP2 SWAP1 PUSH2 0x2AA4 JUMP JUMPDEST SWAP1 POP PUSH1 0x0 DUP4 DUP3 PUSH2 0x1D90 SWAP2 SWAP1 PUSH2 0x2AA4 JUMP JUMPDEST SWAP1 POP PUSH1 0x0 DUP3 PUSH2 0x3E8 DUP8 PUSH2 0x1DA3 SWAP2 SWAP1 PUSH2 0x2AA4 JUMP JUMPDEST PUSH2 0x1DAD SWAP2 SWAP1 PUSH2 0x2AFE JUMP JUMPDEST SWAP1 POP DUP1 DUP3 PUSH2 0x1DBB SWAP2 SWAP1 PUSH2 0x302A JUMP JUMPDEST SWAP4 POP POP POP POP SWAP4 SWAP3 POP POP POP JUMP JUMPDEST PUSH1 0x0 DUP1 DUP3 PUSH20 0xFFFFFFFFFFFFFFFFFFFFFFFFFFFFFFFFFFFFFFFF AND DUP5 PUSH20 0xFFFFFFFFFFFFFFFFFFFFFFFFFFFFFFFFFFFFFFFF AND EQ ISZERO PUSH2 0x1E30 JUMPI PUSH1 0x40 MLOAD PUSH32 0x37D1995C00000000000000000000000000000000000000000000000000000000 DUP2 MSTORE PUSH1 0x4 ADD PUSH1 0x40 MLOAD DUP1 SWAP2 SUB SWAP1 REVERT JUMPDEST DUP3 PUSH20 0xFFFFFFFFFFFFFFFFFFFFFFFFFFFFFFFFFFFFFFFF AND DUP5 PUSH20 0xFFFFFFFFFFFFFFFFFFFFFFFFFFFFFFFFFFFFFFFF AND LT PUSH2 0x1E6A JUMPI DUP3 DUP5 PUSH2 0x1E6D JUMP JUMPDEST DUP4 DUP4 JUMPDEST DUP1 SWAP3 POP DUP2 SWAP4 POP POP POP PUSH1 0x0 PUSH20 0xFFFFFFFFFFFFFFFFFFFFFFFFFFFFFFFFFFFFFFFF AND DUP3 PUSH20 0xFFFFFFFFFFFFFFFFFFFFFFFFFFFFFFFFFFFFFFFF AND EQ ISZERO PUSH2 0x1EDC JUMPI PUSH1 0x40 MLOAD PUSH32 0x99B4B0E000000000000000000000000000000000000000000000000000000000 DUP2 MSTORE PUSH1 0x4 ADD PUSH1 0x40 MLOAD DUP1 SWAP2 SUB SWAP1 REVERT JUMPDEST SWAP3 POP SWAP3 SWAP1 POP JUMP JUMPDEST PUSH1 0x0 PUSH3 0xFFFFFF DUP1 AND DUP4 GT ISZERO PUSH2 0x1F24 JUMPI PUSH1 0x40 MLOAD PUSH32 0x58F62EAC00000000000000000000000000000000000000000000000000000000 DUP2 MSTORE PUSH1 0x4 ADD PUSH1 0x40 MLOAD DUP1 SWAP2 SUB SWAP1 REVERT JUMPDEST PUSH1 0x0 PUSH3 0x800000 DUP5 SUB SWAP1 POP PUSH2 0x1F49 DUP2 PUSH2 0x1F3B DUP6 PUSH2 0x2099 JUMP JUMPDEST PUSH2 0x2111 SWAP1 SWAP2 SWAP1 PUSH4 0xFFFFFFFF AND JUMP JUMPDEST SWAP2 POP POP SWAP3 SWAP2 POP POP JUMP JUMPDEST PUSH1 0x0 PUSH1 0xFF DUP3 GT ISZERO PUSH2 0x1F9A JUMPI DUP2 PUSH1 0x40 MLOAD PUSH32 0xB72ECF5000000000000000000000000000000000000000000000000000000000 DUP2 MSTORE PUSH1 0x4 ADD PUSH2 0x1F91 SWAP2 SWAP1 PUSH2 0x31A3 JUMP JUMPDEST PUSH1 0x40 MLOAD DUP1 SWAP2 SUB SWAP1 REVERT JUMPDEST PUSH1 0x0 DUP1 PUSH2 0x1FA7 DUP7 DUP7 PUSH2 0x2419 JUMP JUMPDEST SWAP2 POP SWAP2 POP PUSH1 0x0 DUP3 EQ PUSH2 0x1FBA JUMPI DUP4 DUP3 SWAP1 SHR SWAP3 POP JUMPDEST PUSH1 0x0 DUP2 EQ PUSH2 0x2019 JUMPI DUP4 PUSH1 0x1 SWAP1 SHL DUP2 LT PUSH2 0x200C JUMPI DUP1 DUP5 PUSH1 0x40 MLOAD PUSH32 0x3D90990F00000000000000000000000000000000000000000000000000000000 DUP2 MSTORE PUSH1 0x4 ADD PUSH2 0x2003 SWAP3 SWAP2 SWAP1 PUSH2 0x31BE JUMP JUMPDEST PUSH1 0x40 MLOAD DUP1 SWAP2 SUB SWAP1 REVERT JUMPDEST DUP4 PUSH2 0x100 SUB DUP2 SWAP1 SHL DUP4 ADD SWAP3 POP JUMPDEST POP POP SWAP4 SWAP3 POP POP POP JUMP JUMPDEST PUSH1 0x0 PUSH1 0xFF DUP4 GT ISZERO PUSH2 0x206A JUMPI DUP3 PUSH1 0x40 MLOAD PUSH32 0xB72ECF5000000000000000000000000000000000000000000000000000000000 DUP2 MSTORE PUSH1 0x4 ADD PUSH2 0x2061 SWAP2 SWAP1 PUSH2 0x31A3 JUMP JUMPDEST PUSH1 0x40 MLOAD DUP1 SWAP2 SUB SWAP1 REVERT JUMPDEST PUSH1 0x0 DUP1 DUP5 DUP7 SWAP1 SHL SWAP2 POP DUP5 PUSH2 0x100 SUB DUP7 SWAP1 SHR SWAP1 POP PUSH2 0x208E DUP7 DUP7 PUSH1 0x1 SWAP1 SHL DUP7 DUP6 DUP6 PUSH2 0x2438 JUMP JUMPDEST SWAP3 POP POP POP SWAP4 SWAP3 POP POP POP JUMP JUMPDEST PUSH1 0x0 DUP1 DUP3 EQ DUP1 PUSH2 0x20AA JUMPI POP PUSH2 0x2710 DUP3 GT JUMPDEST ISZERO PUSH2 0x20EC JUMPI DUP2 PUSH1 0x40 MLOAD PUSH32 0xE9B43C2200000000000000000000000000000000000000000000000000000000 DUP2 MSTORE PUSH1 0x4 ADD PUSH2 0x20E3 SWAP2 SWAP1 PUSH2 0x31A3 JUMP JUMPDEST PUSH1 0x40 MLOAD DUP1 SWAP2 SUB SWAP1 REVERT JUMPDEST PUSH2 0x2710 PUSH1 0x80 DUP4 SWAP1 SHL DUP2 PUSH2 0x2102 JUMPI PUSH2 0x2101 PUSH2 0x2FFB JUMP JUMPDEST JUMPDEST DIV PUSH1 0x80 PUSH1 0x1 SWAP1 SHL ADD SWAP1 POP SWAP2 SWAP1 POP JUMP JUMPDEST PUSH1 0x0 DUP1 PUSH1 0x0 DUP1 DUP5 EQ ISZERO PUSH2 0x212D JUMPI PUSH1 0x80 PUSH1 0x1 SWAP1 SHL SWAP3 POP POP POP PUSH2 0x2413 JUMP JUMPDEST DUP4 SWAP1 POP PUSH1 0x0 DUP2 SLT ISZERO PUSH2 0x2144 JUMPI DUP1 PUSH1 0x0 SUB SWAP1 POP DUP2 ISZERO SWAP2 POP JUMPDEST PUSH3 0x100000 DUP2 LT ISZERO PUSH2 0x238E JUMPI PUSH1 0x80 PUSH1 0x1 SWAP1 SHL SWAP3 POP DUP5 PUSH16 0xFFFFFFFFFFFFFFFFFFFFFFFFFFFFFFFF DUP7 GT ISZERO PUSH2 0x217C JUMPI DUP1 PUSH1 0x0 NOT DIV SWAP1 POP DUP3 ISZERO SWAP3 POP JUMPDEST PUSH1 0x1 DUP3 AND ISZERO PUSH2 0x218E JUMPI DUP1 DUP5 MUL PUSH1 0x80 SHR SWAP4 POP JUMPDEST DUP1 DUP2 MUL PUSH1 0x80 SHR SWAP1 POP PUSH1 0x2 DUP3 AND ISZERO PUSH2 0x21A8 JUMPI DUP1 DUP5 MUL PUSH1 0x80 SHR SWAP4 POP JUMPDEST DUP1 DUP2 MUL PUSH1 0x80 SHR SWAP1 POP PUSH1 0x4 DUP3 AND ISZERO PUSH2 0x21C2 JUMPI DUP1 DUP5 MUL PUSH1 0x80 SHR SWAP4 POP JUMPDEST DUP1 DUP2 MUL PUSH1 0x80 SHR SWAP1 POP PUSH1 0x8 DUP3 AND ISZERO PUSH2 0x21DC JUMPI DUP1 DUP5 MUL PUSH1 0x80 SHR SWAP4 POP JUMPDEST DUP1 DUP2 MUL PUSH1 0x80 SHR SWAP1 POP PUSH1 0x10 DUP3 AND ISZERO PUSH2 0x21F6 JUMPI DUP1 DUP5 MUL PUSH1 0x80 SHR SWAP4 POP JUMPDEST DUP1 DUP2 MUL PUSH1 0x80 SHR SWAP1 POP PUSH1 0x20 DUP3 AND ISZERO PUSH2 0x2210 JUMPI DUP1 DUP5 MUL PUSH1 0x80 SHR SWAP4 POP JUMPDEST DUP1 DUP2 MUL PUSH1 0x80 SHR SWAP1 POP PUSH1 0x40 DUP3 AND ISZERO PUSH2 0x222A JUMPI DUP1 DUP5 MUL PUSH1 0x80 SHR SWAP4 POP JUMPDEST DUP1 DUP2 MUL PUSH1 0x80 SHR SWAP1 POP PUSH1 0x80 DUP3 AND ISZERO PUSH2 0x2244 JUMPI DUP1 DUP5 MUL PUSH1 0x80 SHR SWAP4 POP JUMPDEST DUP1 DUP2 MUL PUSH1 0x80 SHR SWAP1 POP PUSH2 0x100 DUP3 AND ISZERO PUSH2 0x225F JUMPI DUP1 DUP5 MUL PUSH1 0x80 SHR SWAP4 POP JUMPDEST DUP1 DUP2 MUL PUSH1 0x80 SHR SWAP1 POP PUSH2 0x200 DUP3 AND ISZERO PUSH2 0x227A JUMPI DUP1 DUP5 MUL PUSH1 0x80 SHR SWAP4 POP JUMPDEST DUP1 DUP2 MUL PUSH1 0x80 SHR SWAP1 POP PUSH2 0x400 DUP3 AND ISZERO PUSH2 0x2295 JUMPI DUP1 DUP5 MUL PUSH1 0x80 SHR SWAP4 POP JUMPDEST DUP1 DUP2 MUL PUSH1 0x80 SHR SWAP1 POP PUSH2 0x800 DUP3 AND ISZERO PUSH2 0x22B0 JUMPI DUP1 DUP5 MUL PUSH1 0x80 SHR SWAP4 POP JUMPDEST DUP1 DUP2 MUL PUSH1 0x80 SHR SWAP1 POP PUSH2 0x1000 DUP3 AND ISZERO PUSH2 0x22CB JUMPI DUP1 DUP5 MUL PUSH1 0x80 SHR SWAP4 POP JUMPDEST DUP1 DUP2 MUL PUSH1 0x80 SHR SWAP1 POP PUSH2 0x2000 DUP3 AND ISZERO PUSH2 0x22E6 JUMPI DUP1 DUP5 MUL PUSH1 0x80 SHR SWAP4 POP JUMPDEST DUP1 DUP2 MUL PUSH1 0x80 SHR SWAP1 POP PUSH2 0x4000 DUP3 AND ISZERO PUSH2 0x2301 JUMPI DUP1 DUP5 MUL PUSH1 0x80 SHR SWAP4 POP JUMPDEST DUP1 DUP2 MUL PUSH1 0x80 SHR SWAP1 POP PUSH2 0x8000 DUP3 AND ISZERO PUSH2 0x231C JUMPI DUP1 DUP5 MUL PUSH1 0x80 SHR SWAP4 POP JUMPDEST DUP1 DUP2 MUL PUSH1 0x80 SHR SWAP1 POP PUSH3 0x10000 DUP3 AND ISZERO PUSH2 0x2338 JUMPI DUP1 DUP5 MUL PUSH1 0x80 SHR SWAP4 POP JUMPDEST DUP1 DUP2 MUL PUSH1 0x80 SHR SWAP1 POP PUSH3 0x20000 DUP3 AND ISZERO PUSH2 0x2354 JUMPI DUP1 DUP5 MUL PUSH1 0x80 SHR SWAP4 POP JUMPDEST DUP1 DUP2 MUL PUSH1 0x80 SHR SWAP1 POP PUSH3 0x40000 DUP3 AND ISZERO PUSH2 0x2370 JUMPI DUP1 DUP5 MUL PUSH1 0x80 SHR SWAP4 POP JUMPDEST DUP1 DUP2 MUL PUSH1 0x80 SHR SWAP1 POP PUSH3 0x80000 DUP3 AND ISZERO PUSH2 0x238C JUMPI DUP1 DUP5 MUL PUSH1 0x80 SHR SWAP4 POP JUMPDEST POP JUMPDEST PUSH1 0x0 DUP4 EQ ISZERO PUSH2 0x23D6 JUMPI DUP5 DUP5 PUSH1 0x40 MLOAD PUSH32 0x74E3EB0800000000000000000000000000000000000000000000000000000000 DUP2 MSTORE PUSH1 0x4 ADD PUSH2 0x23CD SWAP3 SWAP2 SWAP1 PUSH2 0x3200 JUMP JUMPDEST PUSH1 0x40 MLOAD DUP1 SWAP2 SUB SWAP1 REVERT JUMPDEST DUP2 PUSH2 0x23E1 JUMPI DUP3 PUSH2 0x240E JUMP JUMPDEST DUP3 PUSH32 0xFFFFFFFFFFFFFFFFFFFFFFFFFFFFFFFFFFFFFFFFFFFFFFFFFFFFFFFFFFFFFFFF PUSH2 0x240D SWAP2 SWAP1 PUSH2 0x302A JUMP JUMPDEST JUMPDEST SWAP3 POP POP POP JUMPDEST SWAP3 SWAP2 POP POP JUMP JUMPDEST PUSH1 0x0 DUP1 PUSH1 0x0 NOT DUP4 DUP6 MULMOD DUP4 DUP6 MUL SWAP3 POP DUP3 DUP2 LT DUP4 DUP3 SUB SUB SWAP2 POP POP SWAP3 POP SWAP3 SWAP1 POP JUMP JUMPDEST PUSH1 0x0 DUP1 DUP3 EQ ISZERO PUSH2 0x245A JUMPI DUP4 DUP4 DUP2 PUSH2 0x2452 JUMPI PUSH2 0x2451 PUSH2 0x2FFB JUMP JUMPDEST JUMPDEST DIV SWAP1 POP PUSH2 0x252B JUMP JUMPDEST DUP4 DUP3 LT PUSH2 0x24A0 JUMPI DUP2 DUP5 PUSH1 0x40 MLOAD PUSH32 0xCAD6A85600000000000000000000000000000000000000000000000000000000 DUP2 MSTORE PUSH1 0x4 ADD PUSH2 0x2497 SWAP3 SWAP2 SWAP1 PUSH2 0x31BE JUMP JUMPDEST PUSH1 0x40 MLOAD DUP1 SWAP2 SUB SWAP1 REVERT JUMPDEST PUSH1 0x0 DUP5 DUP7 DUP9 MULMOD SWAP1 POP DUP4 DUP2 GT DUP4 SUB SWAP3 POP DUP1 DUP5 SUB SWAP4 POP PUSH1 0x0 PUSH1 0x1 DUP7 NOT ADD DUP7 AND SWAP1 POP DUP1 DUP7 DIV SWAP6 POP DUP1 DUP6 DIV SWAP5 POP PUSH1 0x1 DUP2 DUP3 PUSH1 0x0 SUB DIV ADD SWAP1 POP DUP1 DUP5 MUL DUP6 OR SWAP5 POP PUSH1 0x0 PUSH1 0x2 DUP8 PUSH1 0x3 MUL XOR SWAP1 POP DUP1 DUP8 MUL PUSH1 0x2 SUB DUP2 MUL SWAP1 POP DUP1 DUP8 MUL PUSH1 0x2 SUB DUP2 MUL SWAP1 POP DUP1 DUP8 MUL PUSH1 0x2 SUB DUP2 MUL SWAP1 POP DUP1 DUP8 MUL PUSH1 0x2 SUB DUP2 MUL SWAP1 POP DUP1 DUP8 MUL PUSH1 0x2 SUB DUP2 MUL SWAP1 POP DUP1 DUP8 MUL PUSH1 0x2 SUB DUP2 MUL SWAP1 POP DUP1 DUP7 MUL SWAP4 POP POP POP POP JUMPDEST SWAP6 SWAP5 POP POP POP POP POP JUMP JUMPDEST PUSH1 0x40 MLOAD DUP1 PUSH1 0xC0 ADD PUSH1 0x40 MSTORE DUP1 PUSH1 0x60 DUP2 MSTORE PUSH1 0x20 ADD PUSH1 0x60 DUP2 MSTORE PUSH1 0x20 ADD PUSH1 0x60 DUP2 MSTORE PUSH1 0x20 ADD PUSH1 0x60 DUP2 MSTORE PUSH1 0x20 ADD PUSH1 0x60 DUP2 MSTORE PUSH1 0x20 ADD PUSH1 0x60 DUP2 MSTORE POP SWAP1 JUMP JUMPDEST PUSH1 0x0 PUSH20 0xFFFFFFFFFFFFFFFFFFFFFFFFFFFFFFFFFFFFFFFF DUP3 AND SWAP1 POP SWAP2 SWAP1 POP JUMP JUMPDEST PUSH1 0x0 PUSH2 0x2595 DUP3 PUSH2 0x256A JUMP JUMPDEST SWAP1 POP SWAP2 SWAP1 POP JUMP JUMPDEST PUSH2 0x25A5 DUP2 PUSH2 0x258A JUMP JUMPDEST DUP3 MSTORE POP POP JUMP JUMPDEST PUSH1 0x0 PUSH1 0x20 DUP3 ADD SWAP1 POP PUSH2 0x25C0 PUSH1 0x0 DUP4 ADD DUP5 PUSH2 0x259C JUMP JUMPDEST SWAP3 SWAP2 POP POP JUMP JUMPDEST PUSH1 0x0 PUSH1 0x40 MLOAD SWAP1 POP SWAP1 JUMP JUMPDEST PUSH1 0x0 DUP1 REVERT JUMPDEST PUSH1 0x0 DUP1 REVERT JUMPDEST PUSH1 0x0 DUP1 REVERT JUMPDEST PUSH1 0x0 DUP1 REVERT JUMPDEST PUSH1 0x0 DUP1 REVERT JUMPDEST PUSH1 0x0 DUP1 DUP4 PUSH1 0x1F DUP5 ADD SLT PUSH2 0x25FF JUMPI PUSH2 0x25FE PUSH2 0x25DA JUMP JUMPDEST JUMPDEST DUP3 CALLDATALOAD SWAP1 POP PUSH8 0xFFFFFFFFFFFFFFFF DUP2 GT ISZERO PUSH2 0x261C JUMPI PUSH2 0x261B PUSH2 0x25DF JUMP JUMPDEST JUMPDEST PUSH1 0x20 DUP4 ADD SWAP2 POP DUP4 PUSH1 0x20 DUP3 MUL DUP4 ADD GT ISZERO PUSH2 0x2638 JUMPI PUSH2 0x2637 PUSH2 0x25E4 JUMP JUMPDEST JUMPDEST SWAP3 POP SWAP3 SWAP1 POP JUMP JUMPDEST PUSH1 0x0 DUP2 SWAP1 POP SWAP2 SWAP1 POP JUMP JUMPDEST PUSH2 0x2652 DUP2 PUSH2 0x263F JUMP JUMPDEST DUP2 EQ PUSH2 0x265D JUMPI PUSH1 0x0 DUP1 REVERT JUMPDEST POP JUMP JUMPDEST PUSH1 0x0 DUP2 CALLDATALOAD SWAP1 POP PUSH2 0x266F DUP2 PUSH2 0x2649 JUMP JUMPDEST SWAP3 SWAP2 POP POP JUMP JUMPDEST PUSH1 0x0 DUP1 PUSH1 0x0 PUSH1 0x40 DUP5 DUP7 SUB SLT ISZERO PUSH2 0x268E JUMPI PUSH2 0x268D PUSH2 0x25D0 JUMP JUMPDEST JUMPDEST PUSH1 0x0 DUP5 ADD CALLDATALOAD PUSH8 0xFFFFFFFFFFFFFFFF DUP2 GT ISZERO PUSH2 0x26AC JUMPI PUSH2 0x26AB PUSH2 0x25D5 JUMP JUMPDEST JUMPDEST PUSH2 0x26B8 DUP7 DUP3 DUP8 ADD PUSH2 0x25E9 JUMP JUMPDEST SWAP4 POP SWAP4 POP POP PUSH1 0x20 PUSH2 0x26CB DUP7 DUP3 DUP8 ADD PUSH2 0x2660 JUMP JUMPDEST SWAP2 POP POP SWAP3 POP SWAP3 POP SWAP3 JUMP JUMPDEST PUSH1 0x0 DUP2 MLOAD SWAP1 POP SWAP2 SWAP1 POP JUMP JUMPDEST PUSH1 0x0 DUP3 DUP3 MSTORE PUSH1 0x20 DUP3 ADD SWAP1 POP SWAP3 SWAP2 POP POP JUMP JUMPDEST PUSH1 0x0 DUP2 SWAP1 POP PUSH1 0x20 DUP3 ADD SWAP1 POP SWAP2 SWAP1 POP JUMP JUMPDEST PUSH2 0x270A DUP2 PUSH2 0x258A JUMP JUMPDEST DUP3 MSTORE POP POP JUMP JUMPDEST PUSH1 0x0 PUSH2 0x271C DUP4 DUP4 PUSH2 0x2701 JUMP JUMPDEST PUSH1 0x20 DUP4 ADD SWAP1 POP SWAP3 SWAP2 POP POP JUMP JUMPDEST PUSH1 0x0 PUSH1 0x20 DUP3 ADD SWAP1 POP SWAP2 SWAP1 POP JUMP JUMPDEST PUSH1 0x0 PUSH2 0x2740 DUP3 PUSH2 0x26D5 JUMP JUMPDEST PUSH2 0x274A DUP2 DUP6 PUSH2 0x26E0 JUMP JUMPDEST SWAP4 POP PUSH2 0x2755 DUP4 PUSH2 0x26F1 JUMP JUMPDEST DUP1 PUSH1 0x0 JUMPDEST DUP4 DUP2 LT ISZERO PUSH2 0x2786 JUMPI DUP2 MLOAD PUSH2 0x276D DUP9 DUP3 PUSH2 0x2710 JUMP JUMPDEST SWAP8 POP PUSH2 0x2778 DUP4 PUSH2 0x2728 JUMP JUMPDEST SWAP3 POP POP PUSH1 0x1 DUP2 ADD SWAP1 POP PUSH2 0x2759 JUMP JUMPDEST POP DUP6 SWAP4 POP POP POP POP SWAP3 SWAP2 POP POP JUMP JUMPDEST PUSH1 0x0 DUP2 MLOAD SWAP1 POP SWAP2 SWAP1 POP JUMP JUMPDEST PUSH1 0x0 DUP3 DUP3 MSTORE PUSH1 0x20 DUP3 ADD SWAP1 POP SWAP3 SWAP2 POP POP JUMP JUMPDEST PUSH1 0x0 DUP2 SWAP1 POP PUSH1 0x20 DUP3 ADD SWAP1 POP SWAP2 SWAP1 POP JUMP JUMPDEST PUSH2 0x27C8 DUP2 PUSH2 0x263F JUMP JUMPDEST DUP3 MSTORE POP POP JUMP JUMPDEST PUSH1 0x0 PUSH2 0x27DA DUP4 DUP4 PUSH2 0x27BF JUMP JUMPDEST PUSH1 0x20 DUP4 ADD SWAP1 POP SWAP3 SWAP2 POP POP JUMP JUMPDEST PUSH1 0x0 PUSH1 0x20 DUP3 ADD SWAP1 POP SWAP2 SWAP1 POP JUMP JUMPDEST PUSH1 0x0 PUSH2 0x27FE DUP3 PUSH2 0x2793 JUMP JUMPDEST PUSH2 0x2808 DUP2 DUP6 PUSH2 0x279E JUMP JUMPDEST SWAP4 POP PUSH2 0x2813 DUP4 PUSH2 0x27AF JUMP JUMPDEST DUP1 PUSH1 0x0 JUMPDEST DUP4 DUP2 LT ISZERO PUSH2 0x2844 JUMPI DUP2 MLOAD PUSH2 0x282B DUP9 DUP3 PUSH2 0x27CE JUMP JUMPDEST SWAP8 POP PUSH2 0x2836 DUP4 PUSH2 0x27E6 JUMP JUMPDEST SWAP3 POP POP PUSH1 0x1 DUP2 ADD SWAP1 POP PUSH2 0x2817 JUMP JUMPDEST POP DUP6 SWAP4 POP POP POP POP SWAP3 SWAP2 POP POP JUMP JUMPDEST PUSH1 0x0 PUSH1 0xC0 DUP4 ADD PUSH1 0x0 DUP4 ADD MLOAD DUP5 DUP3 SUB PUSH1 0x0 DUP7 ADD MSTORE PUSH2 0x286E DUP3 DUP3 PUSH2 0x2735 JUMP JUMPDEST SWAP2 POP POP PUSH1 0x20 DUP4 ADD MLOAD DUP5 DUP3 SUB PUSH1 0x20 DUP7 ADD MSTORE PUSH2 0x2888 DUP3 DUP3 PUSH2 0x2735 JUMP JUMPDEST SWAP2 POP POP PUSH1 0x40 DUP4 ADD MLOAD DUP5 DUP3 SUB PUSH1 0x40 DUP7 ADD MSTORE PUSH2 0x28A2 DUP3 DUP3 PUSH2 0x27F3 JUMP JUMPDEST SWAP2 POP POP PUSH1 0x60 DUP4 ADD MLOAD DUP5 DUP3 SUB PUSH1 0x60 DUP7 ADD MSTORE PUSH2 0x28BC DUP3 DUP3 PUSH2 0x27F3 JUMP JUMPDEST SWAP2 POP POP PUSH1 0x80 DUP4 ADD MLOAD DUP5 DUP3 SUB PUSH1 0x80 DUP7 ADD MSTORE PUSH2 0x28D6 DUP3 DUP3 PUSH2 0x27F3 JUMP JUMPDEST SWAP2 POP POP PUSH1 0xA0 DUP4 ADD MLOAD DUP5 DUP3 SUB PUSH1 0xA0 DUP7 ADD MSTORE PUSH2 0x28F0 DUP3 DUP3 PUSH2 0x27F3 JUMP JUMPDEST SWAP2 POP POP DUP1 SWAP2 POP POP SWAP3 SWAP2 POP POP JUMP JUMPDEST PUSH1 0x0 PUSH1 0x20 DUP3 ADD SWAP1 POP DUP2 DUP2 SUB PUSH1 0x0 DUP4 ADD MSTORE PUSH2 0x2917 DUP2 DUP5 PUSH2 0x2851 JUMP JUMPDEST SWAP1 POP SWAP3 SWAP2 POP POP JUMP JUMPDEST PUSH32 0x4E487B7100000000000000000000000000000000000000000000000000000000 PUSH1 0x0 MSTORE PUSH1 0x11 PUSH1 0x4 MSTORE PUSH1 0x24 PUSH1 0x0 REVERT JUMPDEST PUSH1 0x0 PUSH2 0x2959 DUP3 PUSH2 0x263F JUMP JUMPDEST SWAP2 POP PUSH2 0x2964 DUP4 PUSH2 0x263F JUMP JUMPDEST SWAP3 POP DUP3 DUP3 LT ISZERO PUSH2 0x2977 JUMPI PUSH2 0x2976 PUSH2 0x291F JUMP JUMPDEST JUMPDEST DUP3 DUP3 SUB SWAP1 POP SWAP3 SWAP2 POP POP JUMP JUMPDEST PUSH32 0x4E487B7100000000000000000000000000000000000000000000000000000000 PUSH1 0x0 MSTORE PUSH1 0x41 PUSH1 0x4 MSTORE PUSH1 0x24 PUSH1 0x0 REVERT JUMPDEST PUSH32 0x4E487B7100000000000000000000000000000000000000000000000000000000 PUSH1 0x0 MSTORE PUSH1 0x32 PUSH1 0x4 MSTORE PUSH1 0x24 PUSH1 0x0 REVERT JUMPDEST PUSH2 0x29E9 DUP2 PUSH2 0x258A JUMP JUMPDEST DUP2 EQ PUSH2 0x29F4 JUMPI PUSH1 0x0 DUP1 REVERT JUMPDEST POP JUMP JUMPDEST PUSH1 0x0 DUP2 CALLDATALOAD SWAP1 POP PUSH2 0x2A06 DUP2 PUSH2 0x29E0 JUMP JUMPDEST SWAP3 SWAP2 POP POP JUMP JUMPDEST PUSH1 0x0 PUSH1 0x20 DUP3 DUP5 SUB SLT ISZERO PUSH2 0x2A22 JUMPI PUSH2 0x2A21 PUSH2 0x25D0 JUMP JUMPDEST JUMPDEST PUSH1 0x0 PUSH2 0x2A30 DUP5 DUP3 DUP6 ADD PUSH2 0x29F7 JUMP JUMPDEST SWAP2 POP POP SWAP3 SWAP2 POP POP JUMP JUMPDEST PUSH1 0x0 PUSH1 0x40 DUP3 ADD SWAP1 POP PUSH2 0x2A4E PUSH1 0x0 DUP4 ADD DUP6 PUSH2 0x259C JUMP JUMPDEST PUSH2 0x2A5B PUSH1 0x20 DUP4 ADD DUP5 PUSH2 0x259C JUMP JUMPDEST SWAP4 SWAP3 POP POP POP JUMP JUMPDEST PUSH1 0x0 DUP2 MLOAD SWAP1 POP PUSH2 0x2A71 DUP2 PUSH2 0x29E0 JUMP JUMPDEST SWAP3 SWAP2 POP POP JUMP JUMPDEST PUSH1 0x0 PUSH1 0x20 DUP3 DUP5 SUB SLT ISZERO PUSH2 0x2A8D JUMPI PUSH2 0x2A8C PUSH2 0x25D0 JUMP JUMPDEST JUMPDEST PUSH1 0x0 PUSH2 0x2A9B DUP5 DUP3 DUP6 ADD PUSH2 0x2A62 JUMP JUMPDEST SWAP2 POP POP SWAP3 SWAP2 POP POP JUMP JUMPDEST PUSH1 0x0 PUSH2 0x2AAF DUP3 PUSH2 0x263F JUMP JUMPDEST SWAP2 POP PUSH2 0x2ABA DUP4 PUSH2 0x263F JUMP JUMPDEST SWAP3 POP DUP2 PUSH32 0xFFFFFFFFFFFFFFFFFFFFFFFFFFFFFFFFFFFFFFFFFFFFFFFFFFFFFFFFFFFFFFFF DIV DUP4 GT DUP3 ISZERO ISZERO AND ISZERO PUSH2 0x2AF3 JUMPI PUSH2 0x2AF2 PUSH2 0x291F JUMP JUMPDEST JUMPDEST DUP3 DUP3 MUL SWAP1 POP SWAP3 SWAP2 POP POP JUMP JUMPDEST PUSH1 0x0 PUSH2 0x2B09 DUP3 PUSH2 0x263F JUMP JUMPDEST SWAP2 POP PUSH2 0x2B14 DUP4 PUSH2 0x263F JUMP JUMPDEST SWAP3 POP DUP3 PUSH32 0xFFFFFFFFFFFFFFFFFFFFFFFFFFFFFFFFFFFFFFFFFFFFFFFFFFFFFFFFFFFFFFFF SUB DUP3 GT ISZERO PUSH2 0x2B49 JUMPI PUSH2 0x2B48 PUSH2 0x291F JUMP JUMPDEST JUMPDEST DUP3 DUP3 ADD SWAP1 POP SWAP3 SWAP2 POP POP JUMP JUMPDEST PUSH1 0x0 DUP2 SWAP1 POP SWAP2 SWAP1 POP JUMP JUMPDEST PUSH1 0x0 PUSH2 0x2B79 PUSH2 0x2B74 PUSH2 0x2B6F DUP5 PUSH2 0x256A JUMP JUMPDEST PUSH2 0x2B54 JUMP JUMPDEST PUSH2 0x256A JUMP JUMPDEST SWAP1 POP SWAP2 SWAP1 POP JUMP JUMPDEST PUSH1 0x0 PUSH2 0x2B8B DUP3 PUSH2 0x2B5E JUMP JUMPDEST SWAP1 POP SWAP2 SWAP1 POP JUMP JUMPDEST PUSH1 0x0 PUSH2 0x2B9D DUP3 PUSH2 0x2B80 JUMP JUMPDEST SWAP1 POP SWAP2 SWAP1 POP JUMP JUMPDEST PUSH2 0x2BAD DUP2 PUSH2 0x2B92 JUMP JUMPDEST DUP3 MSTORE POP POP JUMP JUMPDEST PUSH1 0x0 PUSH1 0x40 DUP3 ADD SWAP1 POP PUSH2 0x2BC8 PUSH1 0x0 DUP4 ADD DUP6 PUSH2 0x2BA4 JUMP JUMPDEST PUSH2 0x2BD5 PUSH1 0x20 DUP4 ADD DUP5 PUSH2 0x2BA4 JUMP JUMPDEST SWAP4 SWAP3 POP POP POP JUMP JUMPDEST PUSH1 0x0 PUSH1 0x1F NOT PUSH1 0x1F DUP4 ADD AND SWAP1 POP SWAP2 SWAP1 POP JUMP JUMPDEST PUSH2 0x2BF6 DUP3 PUSH2 0x2BDC JUMP JUMPDEST DUP2 ADD DUP2 DUP2 LT PUSH8 0xFFFFFFFFFFFFFFFF DUP3 GT OR ISZERO PUSH2 0x2C15 JUMPI PUSH2 0x2C14 PUSH2 0x2982 JUMP JUMPDEST JUMPDEST DUP1 PUSH1 0x40 MSTORE POP POP POP JUMP JUMPDEST PUSH1 0x0 PUSH2 0x2C28 PUSH2 0x25C6 JUMP JUMPDEST SWAP1 POP PUSH2 0x2C34 DUP3 DUP3 PUSH2 0x2BED JUMP JUMPDEST SWAP2 SWAP1 POP JUMP JUMPDEST PUSH1 0x0 PUSH8 0xFFFFFFFFFFFFFFFF DUP3 GT ISZERO PUSH2 0x2C54 JUMPI PUSH2 0x2C53 PUSH2 0x2982 JUMP JUMPDEST JUMPDEST PUSH1 0x20 DUP3 MUL SWAP1 POP PUSH1 0x20 DUP2 ADD SWAP1 POP SWAP2 SWAP1 POP JUMP JUMPDEST PUSH1 0x0 DUP1 REVERT JUMPDEST PUSH1 0x0 PUSH2 0xFFFF DUP3 AND SWAP1 POP SWAP2 SWAP1 POP JUMP JUMPDEST PUSH2 0x2C81 DUP2 PUSH2 0x2C6A JUMP JUMPDEST DUP2 EQ PUSH2 0x2C8C JUMPI PUSH1 0x0 DUP1 REVERT JUMPDEST POP JUMP JUMPDEST PUSH1 0x0 DUP2 MLOAD SWAP1 POP PUSH2 0x2C9E DUP2 PUSH2 0x2C78 JUMP JUMPDEST SWAP3 SWAP2 POP POP JUMP JUMPDEST PUSH1 0x0 PUSH2 0x2CAF DUP3 PUSH2 0x258A JUMP JUMPDEST SWAP1 POP SWAP2 SWAP1 POP JUMP JUMPDEST PUSH2 0x2CBF DUP2 PUSH2 0x2CA4 JUMP JUMPDEST DUP2 EQ PUSH2 0x2CCA JUMPI PUSH1 0x0 DUP1 REVERT JUMPDEST POP JUMP JUMPDEST PUSH1 0x0 DUP2 MLOAD SWAP1 POP PUSH2 0x2CDC DUP2 PUSH2 0x2CB6 JUMP JUMPDEST SWAP3 SWAP2 POP POP JUMP JUMPDEST PUSH1 0x0 DUP2 ISZERO ISZERO SWAP1 POP SWAP2 SWAP1 POP JUMP JUMPDEST PUSH2 0x2CF7 DUP2 PUSH2 0x2CE2 JUMP JUMPDEST DUP2 EQ PUSH2 0x2D02 JUMPI PUSH1 0x0 DUP1 REVERT JUMPDEST POP JUMP JUMPDEST PUSH1 0x0 DUP2 MLOAD SWAP1 POP PUSH2 0x2D14 DUP2 PUSH2 0x2CEE JUMP JUMPDEST SWAP3 SWAP2 POP POP JUMP JUMPDEST PUSH1 0x0 PUSH1 0x80 DUP3 DUP5 SUB SLT ISZERO PUSH2 0x2D30 JUMPI PUSH2 0x2D2F PUSH2 0x2C65 JUMP JUMPDEST JUMPDEST PUSH2 0x2D3A PUSH1 0x80 PUSH2 0x2C1E JUMP JUMPDEST SWAP1 POP PUSH1 0x0 PUSH2 0x2D4A DUP5 DUP3 DUP6 ADD PUSH2 0x2C8F JUMP JUMPDEST PUSH1 0x0 DUP4 ADD MSTORE POP PUSH1 0x20 PUSH2 0x2D5E DUP5 DUP3 DUP6 ADD PUSH2 0x2CCD JUMP JUMPDEST PUSH1 0x20 DUP4 ADD MSTORE POP PUSH1 0x40 PUSH2 0x2D72 DUP5 DUP3 DUP6 ADD PUSH2 0x2D05 JUMP JUMPDEST PUSH1 0x40 DUP4 ADD MSTORE POP PUSH1 0x60 PUSH2 0x2D86 DUP5 DUP3 DUP6 ADD PUSH2 0x2D05 JUMP JUMPDEST PUSH1 0x60 DUP4 ADD MSTORE POP SWAP3 SWAP2 POP POP JUMP JUMPDEST PUSH1 0x0 PUSH2 0x2DA5 PUSH2 0x2DA0 DUP5 PUSH2 0x2C39 JUMP JUMPDEST PUSH2 0x2C1E JUMP JUMPDEST SWAP1 POP DUP1 DUP4 DUP3 MSTORE PUSH1 0x20 DUP3 ADD SWAP1 POP PUSH1 0x80 DUP5 MUL DUP4 ADD DUP6 DUP2 GT ISZERO PUSH2 0x2DC8 JUMPI PUSH2 0x2DC7 PUSH2 0x25E4 JUMP JUMPDEST JUMPDEST DUP4 JUMPDEST DUP2 DUP2 LT ISZERO PUSH2 0x2DF1 JUMPI DUP1 PUSH2 0x2DDD DUP9 DUP3 PUSH2 0x2D1A JUMP JUMPDEST DUP5 MSTORE PUSH1 0x20 DUP5 ADD SWAP4 POP POP PUSH1 0x80 DUP2 ADD SWAP1 POP PUSH2 0x2DCA JUMP JUMPDEST POP POP POP SWAP4 SWAP3 POP POP POP JUMP JUMPDEST PUSH1 0x0 DUP3 PUSH1 0x1F DUP4 ADD SLT PUSH2 0x2E10 JUMPI PUSH2 0x2E0F PUSH2 0x25DA JUMP JUMPDEST JUMPDEST DUP2 MLOAD PUSH2 0x2E20 DUP5 DUP3 PUSH1 0x20 DUP7 ADD PUSH2 0x2D92 JUMP JUMPDEST SWAP2 POP POP SWAP3 SWAP2 POP POP JUMP JUMPDEST PUSH1 0x0 PUSH1 0x20 DUP3 DUP5 SUB SLT ISZERO PUSH2 0x2E3F JUMPI PUSH2 0x2E3E PUSH2 0x25D0 JUMP JUMPDEST JUMPDEST PUSH1 0x0 DUP3 ADD MLOAD PUSH8 0xFFFFFFFFFFFFFFFF DUP2 GT ISZERO PUSH2 0x2E5D JUMPI PUSH2 0x2E5C PUSH2 0x25D5 JUMP JUMPDEST JUMPDEST PUSH2 0x2E69 DUP5 DUP3 DUP6 ADD PUSH2 0x2DFB JUMP JUMPDEST SWAP2 POP POP SWAP3 SWAP2 POP POP JUMP JUMPDEST PUSH1 0x0 PUSH2 0x2E7D DUP3 PUSH2 0x258A JUMP JUMPDEST SWAP1 POP SWAP2 SWAP1 POP JUMP JUMPDEST PUSH2 0x2E8D DUP2 PUSH2 0x2E72 JUMP JUMPDEST DUP2 EQ PUSH2 0x2E98 JUMPI PUSH1 0x0 DUP1 REVERT JUMPDEST POP JUMP JUMPDEST PUSH1 0x0 DUP2 MLOAD SWAP1 POP PUSH2 0x2EAA DUP2 PUSH2 0x2E84 JUMP JUMPDEST SWAP3 SWAP2 POP POP JUMP JUMPDEST PUSH1 0x0 PUSH1 0x20 DUP3 DUP5 SUB SLT ISZERO PUSH2 0x2EC6 JUMPI PUSH2 0x2EC5 PUSH2 0x25D0 JUMP JUMPDEST JUMPDEST PUSH1 0x0 PUSH2 0x2ED4 DUP5 DUP3 DUP6 ADD PUSH2 0x2E9B JUMP JUMPDEST SWAP2 POP POP SWAP3 SWAP2 POP POP JUMP JUMPDEST PUSH1 0x0 PUSH2 0x2EE8 DUP3 PUSH2 0x2B80 JUMP JUMPDEST SWAP1 POP SWAP2 SWAP1 POP JUMP JUMPDEST PUSH2 0x2EF8 DUP2 PUSH2 0x2EDD JUMP JUMPDEST DUP3 MSTORE POP POP JUMP JUMPDEST PUSH2 0x2F07 DUP2 PUSH2 0x263F JUMP JUMPDEST DUP3 MSTORE POP POP JUMP JUMPDEST PUSH2 0x2F16 DUP2 PUSH2 0x2CE2 JUMP JUMPDEST DUP3 MSTORE POP POP JUMP JUMPDEST PUSH1 0x0 PUSH1 0x60 DUP3 ADD SWAP1 POP PUSH2 0x2F31 PUSH1 0x0 DUP4 ADD DUP7 PUSH2 0x2EEF JUMP JUMPDEST PUSH2 0x2F3E PUSH1 0x20 DUP4 ADD DUP6 PUSH2 0x2EFE JUMP JUMPDEST PUSH2 0x2F4B PUSH1 0x40 DUP4 ADD DUP5 PUSH2 0x2F0D JUMP JUMPDEST SWAP5 SWAP4 POP POP POP POP JUMP JUMPDEST PUSH1 0x0 DUP2 MLOAD SWAP1 POP PUSH2 0x2F62 DUP2 PUSH2 0x2649 JUMP JUMPDEST SWAP3 SWAP2 POP POP JUMP JUMPDEST PUSH1 0x0 DUP1 PUSH1 0x40 DUP4 DUP6 SUB SLT ISZERO PUSH2 0x2F7F JUMPI PUSH2 0x2F7E PUSH2 0x25D0 JUMP JUMPDEST JUMPDEST PUSH1 0x0 PUSH2 0x2F8D DUP6 DUP3 DUP7 ADD PUSH2 0x2F53 JUMP JUMPDEST SWAP3 POP POP PUSH1 0x20 PUSH2 0x2F9E DUP6 DUP3 DUP7 ADD PUSH2 0x2F53 JUMP JUMPDEST SWAP2 POP POP SWAP3 POP SWAP3 SWAP1 POP JUMP JUMPDEST PUSH1 0x0 DUP1 PUSH1 0x0 PUSH1 0x60 DUP5 DUP7 SUB SLT ISZERO PUSH2 0x2FC1 JUMPI PUSH2 0x2FC0 PUSH2 0x25D0 JUMP JUMPDEST JUMPDEST PUSH1 0x0 PUSH2 0x2FCF DUP7 DUP3 DUP8 ADD PUSH2 0x2F53 JUMP JUMPDEST SWAP4 POP POP PUSH1 0x20 PUSH2 0x2FE0 DUP7 DUP3 DUP8 ADD PUSH2 0x2F53 JUMP JUMPDEST SWAP3 POP POP PUSH1 0x40 PUSH2 0x2FF1 DUP7 DUP3 DUP8 ADD PUSH2 0x2F53 JUMP JUMPDEST SWAP2 POP POP SWAP3 POP SWAP3 POP SWAP3 JUMP JUMPDEST PUSH32 0x4E487B7100000000000000000000000000000000000000000000000000000000 PUSH1 0x0 MSTORE PUSH1 0x12 PUSH1 0x4 MSTORE PUSH1 0x24 PUSH1 0x0 REVERT JUMPDEST PUSH1 0x0 PUSH2 0x3035 DUP3 PUSH2 0x263F JUMP JUMPDEST SWAP2 POP PUSH2 0x3040 DUP4 PUSH2 0x263F JUMP JUMPDEST SWAP3 POP DUP3 PUSH2 0x3050 JUMPI PUSH2 0x304F PUSH2 0x2FFB JUMP JUMPDEST JUMPDEST DUP3 DUP3 DIV SWAP1 POP SWAP3 SWAP2 POP POP JUMP JUMPDEST PUSH1 0x0 PUSH2 0x3066 DUP3 PUSH2 0x263F JUMP JUMPDEST SWAP2 POP PUSH32 0xFFFFFFFFFFFFFFFFFFFFFFFFFFFFFFFFFFFFFFFFFFFFFFFFFFFFFFFFFFFFFFFF DUP3 EQ ISZERO PUSH2 0x3099 JUMPI PUSH2 0x3098 PUSH2 0x291F JUMP JUMPDEST JUMPDEST PUSH1 0x1 DUP3 ADD SWAP1 POP SWAP2 SWAP1 POP JUMP JUMPDEST PUSH1 0x0 PUSH2 0x30AF DUP3 PUSH2 0x263F JUMP JUMPDEST SWAP2 POP PUSH1 0x0 DUP3 EQ ISZERO PUSH2 0x30C3 JUMPI PUSH2 0x30C2 PUSH2 0x291F JUMP JUMPDEST JUMPDEST PUSH1 0x1 DUP3 SUB SWAP1 POP SWAP2 SWAP1 POP JUMP JUMPDEST PUSH1 0x0 PUSH14 0xFFFFFFFFFFFFFFFFFFFFFFFFFFFF DUP3 AND SWAP1 POP SWAP2 SWAP1 POP JUMP JUMPDEST PUSH2 0x30F1 DUP2 PUSH2 0x30CE JUMP JUMPDEST DUP2 EQ PUSH2 0x30FC JUMPI PUSH1 0x0 DUP1 REVERT JUMPDEST POP JUMP JUMPDEST PUSH1 0x0 DUP2 MLOAD SWAP1 POP PUSH2 0x310E DUP2 PUSH2 0x30E8 JUMP JUMPDEST SWAP3 SWAP2 POP POP JUMP JUMPDEST PUSH1 0x0 PUSH4 0xFFFFFFFF DUP3 AND SWAP1 POP SWAP2 SWAP1 POP JUMP JUMPDEST PUSH2 0x312D DUP2 PUSH2 0x3114 JUMP JUMPDEST DUP2 EQ PUSH2 0x3138 JUMPI PUSH1 0x0 DUP1 REVERT JUMPDEST POP JUMP JUMPDEST PUSH1 0x0 DUP2 MLOAD SWAP1 POP PUSH2 0x314A DUP2 PUSH2 0x3124 JUMP JUMPDEST SWAP3 SWAP2 POP POP JUMP JUMPDEST PUSH1 0x0 DUP1 PUSH1 0x0 PUSH1 0x60 DUP5 DUP7 SUB SLT ISZERO PUSH2 0x3169 JUMPI PUSH2 0x3168 PUSH2 0x25D0 JUMP JUMPDEST JUMPDEST PUSH1 0x0 PUSH2 0x3177 DUP7 DUP3 DUP8 ADD PUSH2 0x30FF JUMP JUMPDEST SWAP4 POP POP PUSH1 0x20 PUSH2 0x3188 DUP7 DUP3 DUP8 ADD PUSH2 0x30FF JUMP JUMPDEST SWAP3 POP POP PUSH1 0x40 PUSH2 0x3199 DUP7 DUP3 DUP8 ADD PUSH2 0x313B JUMP JUMPDEST SWAP2 POP POP SWAP3 POP SWAP3 POP SWAP3 JUMP JUMPDEST PUSH1 0x0 PUSH1 0x20 DUP3 ADD SWAP1 POP PUSH2 0x31B8 PUSH1 0x0 DUP4 ADD DUP5 PUSH2 0x2EFE JUMP JUMPDEST SWAP3 SWAP2 POP POP JUMP JUMPDEST PUSH1 0x0 PUSH1 0x40 DUP3 ADD SWAP1 POP PUSH2 0x31D3 PUSH1 0x0 DUP4 ADD DUP6 PUSH2 0x2EFE JUMP JUMPDEST PUSH2 0x31E0 PUSH1 0x20 DUP4 ADD DUP5 PUSH2 0x2EFE JUMP JUMPDEST SWAP4 SWAP3 POP POP POP JUMP JUMPDEST PUSH1 0x0 DUP2 SWAP1 POP SWAP2 SWAP1 POP JUMP JUMPDEST PUSH2 0x31FA DUP2 PUSH2 0x31E7 JUMP JUMPDEST DUP3 MSTORE POP POP JUMP JUMPDEST PUSH1 0x0 PUSH1 0x40 DUP3 ADD SWAP1 POP PUSH2 0x3215 PUSH1 0x0 DUP4 ADD DUP6 PUSH2 0x2EFE JUMP JUMPDEST PUSH2 0x3222 PUSH1 0x20 DUP4 ADD DUP5 PUSH2 0x31F1 JUMP JUMPDEST SWAP4 SWAP3 POP POP POP JUMP INVALID LOG2 PUSH5 0x6970667358 0x22 SLT KECCAK256 DUP11 LOG1 DUP12 DUP14 PUSH19 0xDB0B874E2410B20E0DD78EE687B3B689C9A5E1 PUSH23 0xD64A0A6835BDBB64736F6C634300080A00330000000000 "
		},
		"gasEstimates": {
			"creation": {
				"codeDepositCost": "2579000",
				"executionCost": "infinite",
				"totalCost": "infinite"
			},
			"external": {
				"factoryV1()": "infinite",
				"factoryV2()": "infinite",
				"findBestPathFromAmountIn(address[],uint256)": "infinite",
				"findBestPathFromAmountOut(address[],uint256)": "infinite",
				"routerV2()": "infinite"
			},
			"internal": {
				"_getReserves(address,address,address)": "infinite",
				"_getV2Quote(uint256,uint256,uint256,bool)": "infinite"
			}
		},
		"methodIdentifiers": {
			"factoryV1()": "3957f453",
			"factoryV2()": "68e0d4e1",
			"findBestPathFromAmountIn(address[],uint256)": "c1b7687b",
			"findBestPathFromAmountOut(address[],uint256)": "7000af3f",
			"routerV2()": "502f7446"
		}
	},
	"abi": [
		{
			"inputs": [
				{
					"internalType": "address",
					"name": "_routerV2",
					"type": "address"
				},
				{
					"internalType": "address",
					"name": "_factoryV1",
					"type": "address"
				},
				{
					"internalType": "address",
					"name": "_factoryV2",
					"type": "address"
				}
			],
			"stateMutability": "nonpayable",
			"type": "constructor"
		},
		{
			"inputs": [
				{
					"internalType": "uint256",
					"name": "bp",
					"type": "uint256"
				}
			],
			"name": "BinHelper__BinStepOverflows",
			"type": "error"
		},
		{
			"inputs": [],
			"name": "BinHelper__IdOverflows",
			"type": "error"
		},
		{
			"inputs": [],
			"name": "JoeLibrary__AddressZero",
			"type": "error"
		},
		{
			"inputs": [],
			"name": "JoeLibrary__IdenticalAddresses",
			"type": "error"
		},
		{
			"inputs": [],
			"name": "JoeLibrary__InsufficientAmount",
			"type": "error"
		},
		{
			"inputs": [],
			"name": "JoeLibrary__InsufficientLiquidity",
			"type": "error"
		},
		{
			"inputs": [],
			"name": "LBQuoter_InvalidLength",
			"type": "error"
		},
		{
			"inputs": [
				{
					"internalType": "uint256",
					"name": "x",
					"type": "uint256"
				},
				{
					"internalType": "int256",
					"name": "y",
					"type": "int256"
				}
			],
			"name": "Math128x128__PowerUnderflow",
			"type": "error"
		},
		{
			"inputs": [
				{
					"internalType": "uint256",
					"name": "prod1",
					"type": "uint256"
				},
				{
					"internalType": "uint256",
					"name": "denominator",
					"type": "uint256"
				}
			],
			"name": "Math512Bits__MulDivOverflow",
			"type": "error"
		},
		{
			"inputs": [
				{
					"internalType": "uint256",
					"name": "prod1",
					"type": "uint256"
				},
				{
					"internalType": "uint256",
					"name": "offset",
					"type": "uint256"
				}
			],
			"name": "Math512Bits__MulShiftOverflow",
			"type": "error"
		},
		{
			"inputs": [
				{
					"internalType": "uint256",
					"name": "offset",
					"type": "uint256"
				}
			],
			"name": "Math512Bits__OffsetOverflows",
			"type": "error"
		},
		{
			"inputs": [],
			"name": "factoryV1",
			"outputs": [
				{
					"internalType": "address",
					"name": "",
					"type": "address"
				}
			],
			"stateMutability": "view",
			"type": "function"
		},
		{
			"inputs": [],
			"name": "factoryV2",
			"outputs": [
				{
					"internalType": "address",
					"name": "",
					"type": "address"
				}
			],
			"stateMutability": "view",
			"type": "function"
		},
		{
			"inputs": [
				{
					"internalType": "address[]",
					"name": "_route",
					"type": "address[]"
				},
				{
					"internalType": "uint256",
					"name": "_amountIn",
					"type": "uint256"
				}
			],
			"name": "findBestPathFromAmountIn",
			"outputs": [
				{
					"components": [
						{
							"internalType": "address[]",
							"name": "route",
							"type": "address[]"
						},
						{
							"internalType": "address[]",
							"name": "pairs",
							"type": "address[]"
						},
						{
							"internalType": "uint256[]",
							"name": "binSteps",
							"type": "uint256[]"
						},
						{
							"internalType": "uint256[]",
							"name": "amounts",
							"type": "uint256[]"
						},
						{
							"internalType": "uint256[]",
							"name": "virtualAmountsWithoutSlippage",
							"type": "uint256[]"
						},
						{
							"internalType": "uint256[]",
							"name": "fees",
							"type": "uint256[]"
						}
					],
					"internalType": "struct LBQuoter.Quote",
					"name": "quote",
					"type": "tuple"
				}
			],
			"stateMutability": "view",
			"type": "function"
		},
		{
			"inputs": [
				{
					"internalType": "address[]",
					"name": "_route",
					"type": "address[]"
				},
				{
					"internalType": "uint256",
					"name": "_amountOut",
					"type": "uint256"
				}
			],
			"name": "findBestPathFromAmountOut",
			"outputs": [
				{
					"components": [
						{
							"internalType": "address[]",
							"name": "route",
							"type": "address[]"
						},
						{
							"internalType": "address[]",
							"name": "pairs",
							"type": "address[]"
						},
						{
							"internalType": "uint256[]",
							"name": "binSteps",
							"type": "uint256[]"
						},
						{
							"internalType": "uint256[]",
							"name": "amounts",
							"type": "uint256[]"
						},
						{
							"internalType": "uint256[]",
							"name": "virtualAmountsWithoutSlippage",
							"type": "uint256[]"
						},
						{
							"internalType": "uint256[]",
							"name": "fees",
							"type": "uint256[]"
						}
					],
					"internalType": "struct LBQuoter.Quote",
					"name": "quote",
					"type": "tuple"
				}
			],
			"stateMutability": "view",
			"type": "function"
		},
		{
			"inputs": [],
			"name": "routerV2",
			"outputs": [
				{
					"internalType": "address",
					"name": "",
					"type": "address"
				}
			],
			"stateMutability": "view",
			"type": "function"
		}
	]
}