{
	"data": {
		"bytecode": {
			"linkReferences": {},
			"object": "60c060405234801561001057600080fd5b50604051620018a2380380620018a283398101604081905261003191610060565b6001600160a01b039182166080521660a05261009a565b6001600160a01b038116811461005d57600080fd5b50565b6000806040838503121561007357600080fd5b825161007e81610048565b602084015190925061008f81610048565b809150509250929050565b60805160a05161175e620001446000396000818160e6015281816101ce01528181610510015281816106230152818161074c0152818161096201528181610aa301528181610d1e01528181610e0601528181610fcc015261108f01526000818161016101528181610327015281816103af01528181610465015281816107e00152818161088b01528181610a0401528181610bbf01528181610c730152610f2e015261175e6000f3fe608060405234801561001057600080fd5b50600436106100885760003560e01c80634f078af11161005b5780634f078af1146101295780635ec8fe2a1461015c57806395b7668e14610183578063c87cfe511461019657600080fd5b80632e4892e31461008d5780632e5929cc146100b65780633dd9aeaf146100e1578063475f666914610108575b600080fd5b6100a061009b3660046111fb565b6101a9565b6040516100ad919061128b565b60405180910390f35b6100c96100c43660046112cf565b6105d5565b6040516001600160a01b0390911681526020016100ad565b6100c97f000000000000000000000000000000000000000000000000000000000000000081565b61011b6101163660046111fb565b6105ff565b6040519081526020016100ad565b61013c6101373660046112e8565b610937565b604080516001600160a01b039384168152929091166020830152016100ad565b6100c97f000000000000000000000000000000000000000000000000000000000000000081565b6100a0610191366004611341565b610a7e565b61011b6101a43660046113c6565b610de2565b60405163831250b960e01b81526001600160a01b0387811660048301526060916000917f0000000000000000000000000000000000000000000000000000000000000000169063831250b990602401602060405180830381865afa158015610215573d6000803e3d6000fd5b505050506040513d601f19601f82011682018060405250810190610239919061145f565b60408051600280825260608201835292935091906020830190803683375050815161026b92600092506020019061111d565b50846000808154811061028057610280611499565b9060005260206000200160006101000a8154816001600160a01b0302191690836001600160a01b031602179055508060006001815481106102c3576102c3611499565b9060005260206000200160006101000a8154816001600160a01b0302191690836001600160a01b031602179055506000808154811061030457610304611499565b60009182526020909120015460405163095ea7b360e01b81526001600160a01b037f000000000000000000000000000000000000000000000000000000000000000081166004830152602482018c90529091169063095ea7b3906044016020604051808303816000875af1158015610380573d6000803e3d6000fd5b505050506040513d601f19601f820116820180604052508101906103a491906114af565b506001600160a01b037f000000000000000000000000000000000000000000000000000000000000000016638803dbee6103e688670de0b6b3a76400006114e7565b8b600088886040518663ffffffff1660e01b815260040161040b95949392919061154f565b6000604051808303816000875af115801561042a573d6000803e3d6000fd5b505050506040513d6000823e601f3d908101601f19168201604052610452919081019061158b565b91506001600160a01b03811663095ea7b37f000000000000000000000000000000000000000000000000000000000000000061049689670de0b6b3a76400006114e7565b6040516001600160e01b031960e085901b1681526001600160a01b03909216600483015260248201526044016020604051808303816000875af11580156104e1573d6000803e3d6000fd5b505050506040513d601f19601f8201168201806040525081019061050591906114af565b506001600160a01b037f00000000000000000000000000000000000000000000000000000000000000001663e679f89a89876105498a670de0b6b3a76400006114e7565b6040516001600160e01b031960e086901b1681526001600160a01b0393841660048201529183166024830152604482015290871660648201526084016020604051808303816000875af11580156105a4573d6000803e3d6000fd5b505050506040513d601f19601f820116820180604052508101906105c89190611649565b5050979650505050505050565b600081815481106105e557600080fd5b6000918252602090912001546001600160a01b0316905081565b60405163831250b960e01b81526001600160a01b03878116600483015260009182917f0000000000000000000000000000000000000000000000000000000000000000169063831250b990602401602060405180830381865afa15801561066a573d6000803e3d6000fd5b505050506040513d601f19601f8201168201806040525081019061068e919061145f565b6040805160028082526060820183529293509190602083019080368337505081516106c092600092506020019061111d565b5080600080815481106106d5576106d5611499565b9060005260206000200160006101000a8154816001600160a01b0302191690836001600160a01b0316021790555084600060018154811061071857610718611499565b600091825260209091200180546001600160a01b0319166001600160a01b03928316179055604051636966278b60e11b81527f00000000000000000000000000000000000000000000000000000000000000009091169063d2cc4f169061078b9087908c908a908d908d90600401611698565b6020604051808303816000875af11580156107aa573d6000803e3d6000fd5b505050506040513d601f19601f820116820180604052508101906107ce9190611649565b506001600160a01b03811663095ea7b37f000000000000000000000000000000000000000000000000000000000000000061081189670de0b6b3a76400006114e7565b6040516001600160e01b031960e085901b1681526001600160a01b03909216600483015260248201526044016020604051808303816000875af115801561085c573d6000803e3d6000fd5b505050506040513d601f19601f8201168201806040525081019061088091906114af565b506001600160a01b037f0000000000000000000000000000000000000000000000000000000000000000166338ed17396108c288670de0b6b3a76400006114e7565b8b600088886040518663ffffffff1660e01b81526004016108e795949392919061154f565b6020604051808303816000875af1158015610906573d6000803e3d6000fd5b505050506040513d601f19601f8201168201806040525081019061092a9190611649565b9998505050505050505050565b60405163666a652d60e01b81526001600160a01b0385811660048301526024820183905260009182917f0000000000000000000000000000000000000000000000000000000000000000169063666a652d906044016020604051808303816000875af11580156109ab573d6000803e3d6000fd5b505050506040513d601f19601f820116820180604052508101906109cf919061145f565b604051630172467160e11b81526001600160a01b038083166004830152878116602483015262ffffff871660448301529192507f0000000000000000000000000000000000000000000000000000000000000000909116906302e48ce2906064016020604051808303816000875af1158015610a4f573d6000803e3d6000fd5b505050506040513d601f19601f82011682018060405250810190610a73919061145f565b915094509492505050565b60405163831250b960e01b81526001600160a01b0387811660048301526060916000917f0000000000000000000000000000000000000000000000000000000000000000169063831250b990602401602060405180830381865afa158015610aea573d6000803e3d6000fd5b505050506040513d601f19601f82011682018060405250810190610b0e919061145f565b604080516002808252606082018352929350919060208301908036833750508151610b4092600092506020019061111d565b508460008081548110610b5557610b55611499565b9060005260206000200160006101000a8154816001600160a01b0302191690836001600160a01b03160217905550806000600181548110610b9857610b98611499565b600091825260209091200180546001600160a01b0319166001600160a01b039283161790557f00000000000000000000000000000000000000000000000000000000000000001663fb3bdb41610bf688670de0b6b3a76400006114e7565b600087876040518563ffffffff1660e01b8152600401610c1994939291906116d8565b6000604051808303816000875af1158015610c38573d6000803e3d6000fd5b505050506040513d6000823e601f3d908101601f19168201604052610c60919081019061158b565b91506001600160a01b03811663095ea7b37f0000000000000000000000000000000000000000000000000000000000000000610ca489670de0b6b3a76400006114e7565b6040516001600160e01b031960e085901b1681526001600160a01b03909216600483015260248201526044016020604051808303816000875af1158015610cef573d6000803e3d6000fd5b505050506040513d601f19601f82011682018060405250810190610d1391906114af565b506001600160a01b037f00000000000000000000000000000000000000000000000000000000000000001663e679f89a8987610d578a670de0b6b3a76400006114e7565b6040516001600160e01b031960e086901b1681526001600160a01b0393841660048201529183166024830152604482015290871660648201526084016020604051808303816000875af1158015610db2573d6000803e3d6000fd5b505050506040513d601f19601f82011682018060405250810190610dd69190611649565b50509695505050505050565b60405163831250b960e01b81526001600160a01b03878116600483015260009182917f0000000000000000000000000000000000000000000000000000000000000000169063831250b990602401602060405180830381865afa158015610e4d573d6000803e3d6000fd5b505050506040513d601f19601f82011682018060405250810190610e71919061145f565b604080516002808252606082018352929350919060208301908036833750508151610ea392600092506020019061111d565b508060008081548110610eb857610eb8611499565b9060005260206000200160006101000a8154816001600160a01b0302191690836001600160a01b03160217905550846000600181548110610efb57610efb611499565b6000918252602082200180546001600160a01b0319166001600160a01b039384161790556040516318cbafe560e01b81527f0000000000000000000000000000000000000000000000000000000000000000909216916318cbafe591610f6b918e918e918a908a9060040161154f565b6020604051808303816000875af1158015610f8a573d6000803e3d6000fd5b505050506040513d601f19601f82011682018060405250810190610fae9190611649565b915060005b8681101561107757886001600160a01b031663095ea7b37f00000000000000000000000000000000000000000000000000000000000000008a8a85818110610ffd57610ffd611499565b6040516001600160e01b031960e087901b1681526001600160a01b0390941660048501526020029190910135602483015250604401600060405180830381600087803b15801561104c57600080fd5b505af1158015611060573d6000803e3d6000fd5b50505050808061106f9061170d565b915050610fb3565b50604051636966278b60e11b81526001600160a01b037f0000000000000000000000000000000000000000000000000000000000000000169063d2cc4f16906110cc9087908c908a908d908d90600401611698565b6020604051808303816000875af11580156110eb573d6000803e3d6000fd5b505050506040513d601f19601f8201168201806040525081019061110f9190611649565b505098975050505050505050565b828054828255906000526020600020908101928215611172579160200282015b8281111561117257825182546001600160a01b0319166001600160a01b0390911617825560209092019160019091019061113d565b5061117e929150611182565b5090565b5b8082111561117e5760008155600101611183565b6001600160a01b03811681146111ac57600080fd5b50565b60008083601f8401126111c157600080fd5b50813567ffffffffffffffff8111156111d957600080fd5b6020830191508360208260051b85010111156111f457600080fd5b9250929050565b600080600080600080600060c0888a03121561121657600080fd5b87359650602088013561122881611197565b9550604088013567ffffffffffffffff81111561124457600080fd5b6112508a828b016111af565b909650945050606088013561126481611197565b9250608088013561127481611197565b8092505060a0880135905092959891949750929550565b6020808252825182820181905260009190848201906040850190845b818110156112c3578351835292840192918401916001016112a7565b50909695505050505050565b6000602082840312156112e157600080fd5b5035919050565b600080600080608085870312156112fe57600080fd5b843561130981611197565b9350602085013561131981611197565b9250604085013562ffffff8116811461133157600080fd5b9396929550929360600135925050565b60008060008060008060a0878903121561135a57600080fd5b863561136581611197565b9550602087013567ffffffffffffffff81111561138157600080fd5b61138d89828a016111af565b90965094505060408701356113a181611197565b925060608701356113b181611197565b80925050608087013590509295509295509295565b60008060008060008060008060e0898b0312156113e257600080fd5b883597506020890135965060408901356113fb81611197565b9550606089013567ffffffffffffffff81111561141757600080fd5b6114238b828c016111af565b909650945050608089013561143781611197565b925060a089013561144781611197565b8092505060c089013590509295985092959890939650565b60006020828403121561147157600080fd5b815161147c81611197565b9392505050565b634e487b7160e01b600052604160045260246000fd5b634e487b7160e01b600052603260045260246000fd5b6000602082840312156114c157600080fd5b8151801515811461147c57600080fd5b634e487b7160e01b600052601160045260246000fd5b6000816000190483118215151615611501576115016114d1565b500290565b6000815480845260208085019450836000528060002060005b838110156115445781546001600160a01b03168752958201956001918201910161151f565b509495945050505050565b85815284602082015260a06040820152600061156e60a0830186611506565b6001600160a01b0394909416606083015250608001529392505050565b6000602080838503121561159e57600080fd5b825167ffffffffffffffff808211156115b657600080fd5b818501915085601f8301126115ca57600080fd5b8151818111156115dc576115dc611483565b8060051b604051601f19603f8301168101818110858211171561160157611601611483565b60405291825284820192508381018501918883111561161f57600080fd5b938501935b8285101561163d57845184529385019392850192611624565b98975050505050505050565b60006020828403121561165b57600080fd5b5051919050565b81835260006001600160fb1b0383111561167b57600080fd5b8260051b8083602087013760009401602001938452509192915050565b6001600160a01b0386811682528581166020830152841660408201526080606082018190526000906116cd9083018486611662565b979650505050505050565b8481526080602082015260006116f16080830186611506565b6001600160a01b03949094166040830152506060015292915050565b6000600019821415611721576117216114d1565b506001019056fea264697066735822122043e5fdb60381f7891b4f14b7c99e838033a0741bf19977b2b2ccc4955ca647bd64736f6c634300080a0033",
			"opcodes": "PUSH1 0xC0 PUSH1 0x40 MSTORE CALLVALUE DUP1 ISZERO PUSH2 0x10 JUMPI PUSH1 0x0 DUP1 REVERT JUMPDEST POP PUSH1 0x40 MLOAD PUSH3 0x18A2 CODESIZE SUB DUP1 PUSH3 0x18A2 DUP4 CODECOPY DUP2 ADD PUSH1 0x40 DUP2 SWAP1 MSTORE PUSH2 0x31 SWAP2 PUSH2 0x60 JUMP JUMPDEST PUSH1 0x1 PUSH1 0x1 PUSH1 0xA0 SHL SUB SWAP2 DUP3 AND PUSH1 0x80 MSTORE AND PUSH1 0xA0 MSTORE PUSH2 0x9A JUMP JUMPDEST PUSH1 0x1 PUSH1 0x1 PUSH1 0xA0 SHL SUB DUP2 AND DUP2 EQ PUSH2 0x5D JUMPI PUSH1 0x0 DUP1 REVERT JUMPDEST POP JUMP JUMPDEST PUSH1 0x0 DUP1 PUSH1 0x40 DUP4 DUP6 SUB SLT ISZERO PUSH2 0x73 JUMPI PUSH1 0x0 DUP1 REVERT JUMPDEST DUP3 MLOAD PUSH2 0x7E DUP2 PUSH2 0x48 JUMP JUMPDEST PUSH1 0x20 DUP5 ADD MLOAD SWAP1 SWAP3 POP PUSH2 0x8F DUP2 PUSH2 0x48 JUMP JUMPDEST DUP1 SWAP2 POP POP SWAP3 POP SWAP3 SWAP1 POP JUMP JUMPDEST PUSH1 0x80 MLOAD PUSH1 0xA0 MLOAD PUSH2 0x175E PUSH3 0x144 PUSH1 0x0 CODECOPY PUSH1 0x0 DUP2 DUP2 PUSH1 0xE6 ADD MSTORE DUP2 DUP2 PUSH2 0x1CE ADD MSTORE DUP2 DUP2 PUSH2 0x510 ADD MSTORE DUP2 DUP2 PUSH2 0x623 ADD MSTORE DUP2 DUP2 PUSH2 0x74C ADD MSTORE DUP2 DUP2 PUSH2 0x962 ADD MSTORE DUP2 DUP2 PUSH2 0xAA3 ADD MSTORE DUP2 DUP2 PUSH2 0xD1E ADD MSTORE DUP2 DUP2 PUSH2 0xE06 ADD MSTORE DUP2 DUP2 PUSH2 0xFCC ADD MSTORE PUSH2 0x108F ADD MSTORE PUSH1 0x0 DUP2 DUP2 PUSH2 0x161 ADD MSTORE DUP2 DUP2 PUSH2 0x327 ADD MSTORE DUP2 DUP2 PUSH2 0x3AF ADD MSTORE DUP2 DUP2 PUSH2 0x465 ADD MSTORE DUP2 DUP2 PUSH2 0x7E0 ADD MSTORE DUP2 DUP2 PUSH2 0x88B ADD MSTORE DUP2 DUP2 PUSH2 0xA04 ADD MSTORE DUP2 DUP2 PUSH2 0xBBF ADD MSTORE DUP2 DUP2 PUSH2 0xC73 ADD MSTORE PUSH2 0xF2E ADD MSTORE PUSH2 0x175E PUSH1 0x0 RETURN INVALID PUSH1 0x80 PUSH1 0x40 MSTORE CALLVALUE DUP1 ISZERO PUSH2 0x10 JUMPI PUSH1 0x0 DUP1 REVERT JUMPDEST POP PUSH1 0x4 CALLDATASIZE LT PUSH2 0x88 JUMPI PUSH1 0x0 CALLDATALOAD PUSH1 0xE0 SHR DUP1 PUSH4 0x4F078AF1 GT PUSH2 0x5B JUMPI DUP1 PUSH4 0x4F078AF1 EQ PUSH2 0x129 JUMPI DUP1 PUSH4 0x5EC8FE2A EQ PUSH2 0x15C JUMPI DUP1 PUSH4 0x95B7668E EQ PUSH2 0x183 JUMPI DUP1 PUSH4 0xC87CFE51 EQ PUSH2 0x196 JUMPI PUSH1 0x0 DUP1 REVERT JUMPDEST DUP1 PUSH4 0x2E4892E3 EQ PUSH2 0x8D JUMPI DUP1 PUSH4 0x2E5929CC EQ PUSH2 0xB6 JUMPI DUP1 PUSH4 0x3DD9AEAF EQ PUSH2 0xE1 JUMPI DUP1 PUSH4 0x475F6669 EQ PUSH2 0x108 JUMPI JUMPDEST PUSH1 0x0 DUP1 REVERT JUMPDEST PUSH2 0xA0 PUSH2 0x9B CALLDATASIZE PUSH1 0x4 PUSH2 0x11FB JUMP JUMPDEST PUSH2 0x1A9 JUMP JUMPDEST PUSH1 0x40 MLOAD PUSH2 0xAD SWAP2 SWAP1 PUSH2 0x128B JUMP JUMPDEST PUSH1 0x40 MLOAD DUP1 SWAP2 SUB SWAP1 RETURN JUMPDEST PUSH2 0xC9 PUSH2 0xC4 CALLDATASIZE PUSH1 0x4 PUSH2 0x12CF JUMP JUMPDEST PUSH2 0x5D5 JUMP JUMPDEST PUSH1 0x40 MLOAD PUSH1 0x1 PUSH1 0x1 PUSH1 0xA0 SHL SUB SWAP1 SWAP2 AND DUP2 MSTORE PUSH1 0x20 ADD PUSH2 0xAD JUMP JUMPDEST PUSH2 0xC9 PUSH32 0x0 DUP2 JUMP JUMPDEST PUSH2 0x11B PUSH2 0x116 CALLDATASIZE PUSH1 0x4 PUSH2 0x11FB JUMP JUMPDEST PUSH2 0x5FF JUMP JUMPDEST PUSH1 0x40 MLOAD SWAP1 DUP2 MSTORE PUSH1 0x20 ADD PUSH2 0xAD JUMP JUMPDEST PUSH2 0x13C PUSH2 0x137 CALLDATASIZE PUSH1 0x4 PUSH2 0x12E8 JUMP JUMPDEST PUSH2 0x937 JUMP JUMPDEST PUSH1 0x40 DUP1 MLOAD PUSH1 0x1 PUSH1 0x1 PUSH1 0xA0 SHL SUB SWAP4 DUP5 AND DUP2 MSTORE SWAP3 SWAP1 SWAP2 AND PUSH1 0x20 DUP4 ADD MSTORE ADD PUSH2 0xAD JUMP JUMPDEST PUSH2 0xC9 PUSH32 0x0 DUP2 JUMP JUMPDEST PUSH2 0xA0 PUSH2 0x191 CALLDATASIZE PUSH1 0x4 PUSH2 0x1341 JUMP JUMPDEST PUSH2 0xA7E JUMP JUMPDEST PUSH2 0x11B PUSH2 0x1A4 CALLDATASIZE PUSH1 0x4 PUSH2 0x13C6 JUMP JUMPDEST PUSH2 0xDE2 JUMP JUMPDEST PUSH1 0x40 MLOAD PUSH4 0x831250B9 PUSH1 0xE0 SHL DUP2 MSTORE PUSH1 0x1 PUSH1 0x1 PUSH1 0xA0 SHL SUB DUP8 DUP2 AND PUSH1 0x4 DUP4 ADD MSTORE PUSH1 0x60 SWAP2 PUSH1 0x0 SWAP2 PUSH32 0x0 AND SWAP1 PUSH4 0x831250B9 SWAP1 PUSH1 0x24 ADD PUSH1 0x20 PUSH1 0x40 MLOAD DUP1 DUP4 SUB DUP2 DUP7 GAS STATICCALL ISZERO DUP1 ISZERO PUSH2 0x215 JUMPI RETURNDATASIZE PUSH1 0x0 DUP1 RETURNDATACOPY RETURNDATASIZE PUSH1 0x0 REVERT JUMPDEST POP POP POP POP PUSH1 0x40 MLOAD RETURNDATASIZE PUSH1 0x1F NOT PUSH1 0x1F DUP3 ADD AND DUP3 ADD DUP1 PUSH1 0x40 MSTORE POP DUP2 ADD SWAP1 PUSH2 0x239 SWAP2 SWAP1 PUSH2 0x145F JUMP JUMPDEST PUSH1 0x40 DUP1 MLOAD PUSH1 0x2 DUP1 DUP3 MSTORE PUSH1 0x60 DUP3 ADD DUP4 MSTORE SWAP3 SWAP4 POP SWAP2 SWAP1 PUSH1 0x20 DUP4 ADD SWAP1 DUP1 CALLDATASIZE DUP4 CALLDATACOPY POP POP DUP2 MLOAD PUSH2 0x26B SWAP3 PUSH1 0x0 SWAP3 POP PUSH1 0x20 ADD SWAP1 PUSH2 0x111D JUMP JUMPDEST POP DUP5 PUSH1 0x0 DUP1 DUP2 SLOAD DUP2 LT PUSH2 0x280 JUMPI PUSH2 0x280 PUSH2 0x1499 JUMP JUMPDEST SWAP1 PUSH1 0x0 MSTORE PUSH1 0x20 PUSH1 0x0 KECCAK256 ADD PUSH1 0x0 PUSH2 0x100 EXP DUP2 SLOAD DUP2 PUSH1 0x1 PUSH1 0x1 PUSH1 0xA0 SHL SUB MUL NOT AND SWAP1 DUP4 PUSH1 0x1 PUSH1 0x1 PUSH1 0xA0 SHL SUB AND MUL OR SWAP1 SSTORE POP DUP1 PUSH1 0x0 PUSH1 0x1 DUP2 SLOAD DUP2 LT PUSH2 0x2C3 JUMPI PUSH2 0x2C3 PUSH2 0x1499 JUMP JUMPDEST SWAP1 PUSH1 0x0 MSTORE PUSH1 0x20 PUSH1 0x0 KECCAK256 ADD PUSH1 0x0 PUSH2 0x100 EXP DUP2 SLOAD DUP2 PUSH1 0x1 PUSH1 0x1 PUSH1 0xA0 SHL SUB MUL NOT AND SWAP1 DUP4 PUSH1 0x1 PUSH1 0x1 PUSH1 0xA0 SHL SUB AND MUL OR SWAP1 SSTORE POP PUSH1 0x0 DUP1 DUP2 SLOAD DUP2 LT PUSH2 0x304 JUMPI PUSH2 0x304 PUSH2 0x1499 JUMP JUMPDEST PUSH1 0x0 SWAP2 DUP3 MSTORE PUSH1 0x20 SWAP1 SWAP2 KECCAK256 ADD SLOAD PUSH1 0x40 MLOAD PUSH4 0x95EA7B3 PUSH1 0xE0 SHL DUP2 MSTORE PUSH1 0x1 PUSH1 0x1 PUSH1 0xA0 SHL SUB PUSH32 0x0 DUP2 AND PUSH1 0x4 DUP4 ADD MSTORE PUSH1 0x24 DUP3 ADD DUP13 SWAP1 MSTORE SWAP1 SWAP2 AND SWAP1 PUSH4 0x95EA7B3 SWAP1 PUSH1 0x44 ADD PUSH1 0x20 PUSH1 0x40 MLOAD DUP1 DUP4 SUB DUP2 PUSH1 0x0 DUP8 GAS CALL ISZERO DUP1 ISZERO PUSH2 0x380 JUMPI RETURNDATASIZE PUSH1 0x0 DUP1 RETURNDATACOPY RETURNDATASIZE PUSH1 0x0 REVERT JUMPDEST POP POP POP POP PUSH1 0x40 MLOAD RETURNDATASIZE PUSH1 0x1F NOT PUSH1 0x1F DUP3 ADD AND DUP3 ADD DUP1 PUSH1 0x40 MSTORE POP DUP2 ADD SWAP1 PUSH2 0x3A4 SWAP2 SWAP1 PUSH2 0x14AF JUMP JUMPDEST POP PUSH1 0x1 PUSH1 0x1 PUSH1 0xA0 SHL SUB PUSH32 0x0 AND PUSH4 0x8803DBEE PUSH2 0x3E6 DUP9 PUSH8 0xDE0B6B3A7640000 PUSH2 0x14E7 JUMP JUMPDEST DUP12 PUSH1 0x0 DUP9 DUP9 PUSH1 0x40 MLOAD DUP7 PUSH4 0xFFFFFFFF AND PUSH1 0xE0 SHL DUP2 MSTORE PUSH1 0x4 ADD PUSH2 0x40B SWAP6 SWAP5 SWAP4 SWAP3 SWAP2 SWAP1 PUSH2 0x154F JUMP JUMPDEST PUSH1 0x0 PUSH1 0x40 MLOAD DUP1 DUP4 SUB DUP2 PUSH1 0x0 DUP8 GAS CALL ISZERO DUP1 ISZERO PUSH2 0x42A JUMPI RETURNDATASIZE PUSH1 0x0 DUP1 RETURNDATACOPY RETURNDATASIZE PUSH1 0x0 REVERT JUMPDEST POP POP POP POP PUSH1 0x40 MLOAD RETURNDATASIZE PUSH1 0x0 DUP3 RETURNDATACOPY PUSH1 0x1F RETURNDATASIZE SWAP1 DUP2 ADD PUSH1 0x1F NOT AND DUP3 ADD PUSH1 0x40 MSTORE PUSH2 0x452 SWAP2 SWAP1 DUP2 ADD SWAP1 PUSH2 0x158B JUMP JUMPDEST SWAP2 POP PUSH1 0x1 PUSH1 0x1 PUSH1 0xA0 SHL SUB DUP2 AND PUSH4 0x95EA7B3 PUSH32 0x0 PUSH2 0x496 DUP10 PUSH8 0xDE0B6B3A7640000 PUSH2 0x14E7 JUMP JUMPDEST PUSH1 0x40 MLOAD PUSH1 0x1 PUSH1 0x1 PUSH1 0xE0 SHL SUB NOT PUSH1 0xE0 DUP6 SWAP1 SHL AND DUP2 MSTORE PUSH1 0x1 PUSH1 0x1 PUSH1 0xA0 SHL SUB SWAP1 SWAP3 AND PUSH1 0x4 DUP4 ADD MSTORE PUSH1 0x24 DUP3 ADD MSTORE PUSH1 0x44 ADD PUSH1 0x20 PUSH1 0x40 MLOAD DUP1 DUP4 SUB DUP2 PUSH1 0x0 DUP8 GAS CALL ISZERO DUP1 ISZERO PUSH2 0x4E1 JUMPI RETURNDATASIZE PUSH1 0x0 DUP1 RETURNDATACOPY RETURNDATASIZE PUSH1 0x0 REVERT JUMPDEST POP POP POP POP PUSH1 0x40 MLOAD RETURNDATASIZE PUSH1 0x1F NOT PUSH1 0x1F DUP3 ADD AND DUP3 ADD DUP1 PUSH1 0x40 MSTORE POP DUP2 ADD SWAP1 PUSH2 0x505 SWAP2 SWAP1 PUSH2 0x14AF JUMP JUMPDEST POP PUSH1 0x1 PUSH1 0x1 PUSH1 0xA0 SHL SUB PUSH32 0x0 AND PUSH4 0xE679F89A DUP10 DUP8 PUSH2 0x549 DUP11 PUSH8 0xDE0B6B3A7640000 PUSH2 0x14E7 JUMP JUMPDEST PUSH1 0x40 MLOAD PUSH1 0x1 PUSH1 0x1 PUSH1 0xE0 SHL SUB NOT PUSH1 0xE0 DUP7 SWAP1 SHL AND DUP2 MSTORE PUSH1 0x1 PUSH1 0x1 PUSH1 0xA0 SHL SUB SWAP4 DUP5 AND PUSH1 0x4 DUP3 ADD MSTORE SWAP2 DUP4 AND PUSH1 0x24 DUP4 ADD MSTORE PUSH1 0x44 DUP3 ADD MSTORE SWAP1 DUP8 AND PUSH1 0x64 DUP3 ADD MSTORE PUSH1 0x84 ADD PUSH1 0x20 PUSH1 0x40 MLOAD DUP1 DUP4 SUB DUP2 PUSH1 0x0 DUP8 GAS CALL ISZERO DUP1 ISZERO PUSH2 0x5A4 JUMPI RETURNDATASIZE PUSH1 0x0 DUP1 RETURNDATACOPY RETURNDATASIZE PUSH1 0x0 REVERT JUMPDEST POP POP POP POP PUSH1 0x40 MLOAD RETURNDATASIZE PUSH1 0x1F NOT PUSH1 0x1F DUP3 ADD AND DUP3 ADD DUP1 PUSH1 0x40 MSTORE POP DUP2 ADD SWAP1 PUSH2 0x5C8 SWAP2 SWAP1 PUSH2 0x1649 JUMP JUMPDEST POP POP SWAP8 SWAP7 POP POP POP POP POP POP POP JUMP JUMPDEST PUSH1 0x0 DUP2 DUP2 SLOAD DUP2 LT PUSH2 0x5E5 JUMPI PUSH1 0x0 DUP1 REVERT JUMPDEST PUSH1 0x0 SWAP2 DUP3 MSTORE PUSH1 0x20 SWAP1 SWAP2 KECCAK256 ADD SLOAD PUSH1 0x1 PUSH1 0x1 PUSH1 0xA0 SHL SUB AND SWAP1 POP DUP2 JUMP JUMPDEST PUSH1 0x40 MLOAD PUSH4 0x831250B9 PUSH1 0xE0 SHL DUP2 MSTORE PUSH1 0x1 PUSH1 0x1 PUSH1 0xA0 SHL SUB DUP8 DUP2 AND PUSH1 0x4 DUP4 ADD MSTORE PUSH1 0x0 SWAP2 DUP3 SWAP2 PUSH32 0x0 AND SWAP1 PUSH4 0x831250B9 SWAP1 PUSH1 0x24 ADD PUSH1 0x20 PUSH1 0x40 MLOAD DUP1 DUP4 SUB DUP2 DUP7 GAS STATICCALL ISZERO DUP1 ISZERO PUSH2 0x66A JUMPI RETURNDATASIZE PUSH1 0x0 DUP1 RETURNDATACOPY RETURNDATASIZE PUSH1 0x0 REVERT JUMPDEST POP POP POP POP PUSH1 0x40 MLOAD RETURNDATASIZE PUSH1 0x1F NOT PUSH1 0x1F DUP3 ADD AND DUP3 ADD DUP1 PUSH1 0x40 MSTORE POP DUP2 ADD SWAP1 PUSH2 0x68E SWAP2 SWAP1 PUSH2 0x145F JUMP JUMPDEST PUSH1 0x40 DUP1 MLOAD PUSH1 0x2 DUP1 DUP3 MSTORE PUSH1 0x60 DUP3 ADD DUP4 MSTORE SWAP3 SWAP4 POP SWAP2 SWAP1 PUSH1 0x20 DUP4 ADD SWAP1 DUP1 CALLDATASIZE DUP4 CALLDATACOPY POP POP DUP2 MLOAD PUSH2 0x6C0 SWAP3 PUSH1 0x0 SWAP3 POP PUSH1 0x20 ADD SWAP1 PUSH2 0x111D JUMP JUMPDEST POP DUP1 PUSH1 0x0 DUP1 DUP2 SLOAD DUP2 LT PUSH2 0x6D5 JUMPI PUSH2 0x6D5 PUSH2 0x1499 JUMP JUMPDEST SWAP1 PUSH1 0x0 MSTORE PUSH1 0x20 PUSH1 0x0 KECCAK256 ADD PUSH1 0x0 PUSH2 0x100 EXP DUP2 SLOAD DUP2 PUSH1 0x1 PUSH1 0x1 PUSH1 0xA0 SHL SUB MUL NOT AND SWAP1 DUP4 PUSH1 0x1 PUSH1 0x1 PUSH1 0xA0 SHL SUB AND MUL OR SWAP1 SSTORE POP DUP5 PUSH1 0x0 PUSH1 0x1 DUP2 SLOAD DUP2 LT PUSH2 0x718 JUMPI PUSH2 0x718 PUSH2 0x1499 JUMP JUMPDEST PUSH1 0x0 SWAP2 DUP3 MSTORE PUSH1 0x20 SWAP1 SWAP2 KECCAK256 ADD DUP1 SLOAD PUSH1 0x1 PUSH1 0x1 PUSH1 0xA0 SHL SUB NOT AND PUSH1 0x1 PUSH1 0x1 PUSH1 0xA0 SHL SUB SWAP3 DUP4 AND OR SWAP1 SSTORE PUSH1 0x40 MLOAD PUSH4 0x6966278B PUSH1 0xE1 SHL DUP2 MSTORE PUSH32 0x0 SWAP1 SWAP2 AND SWAP1 PUSH4 0xD2CC4F16 SWAP1 PUSH2 0x78B SWAP1 DUP8 SWAP1 DUP13 SWAP1 DUP11 SWAP1 DUP14 SWAP1 DUP14 SWAP1 PUSH1 0x4 ADD PUSH2 0x1698 JUMP JUMPDEST PUSH1 0x20 PUSH1 0x40 MLOAD DUP1 DUP4 SUB DUP2 PUSH1 0x0 DUP8 GAS CALL ISZERO DUP1 ISZERO PUSH2 0x7AA JUMPI RETURNDATASIZE PUSH1 0x0 DUP1 RETURNDATACOPY RETURNDATASIZE PUSH1 0x0 REVERT JUMPDEST POP POP POP POP PUSH1 0x40 MLOAD RETURNDATASIZE PUSH1 0x1F NOT PUSH1 0x1F DUP3 ADD AND DUP3 ADD DUP1 PUSH1 0x40 MSTORE POP DUP2 ADD SWAP1 PUSH2 0x7CE SWAP2 SWAP1 PUSH2 0x1649 JUMP JUMPDEST POP PUSH1 0x1 PUSH1 0x1 PUSH1 0xA0 SHL SUB DUP2 AND PUSH4 0x95EA7B3 PUSH32 0x0 PUSH2 0x811 DUP10 PUSH8 0xDE0B6B3A7640000 PUSH2 0x14E7 JUMP JUMPDEST PUSH1 0x40 MLOAD PUSH1 0x1 PUSH1 0x1 PUSH1 0xE0 SHL SUB NOT PUSH1 0xE0 DUP6 SWAP1 SHL AND DUP2 MSTORE PUSH1 0x1 PUSH1 0x1 PUSH1 0xA0 SHL SUB SWAP1 SWAP3 AND PUSH1 0x4 DUP4 ADD MSTORE PUSH1 0x24 DUP3 ADD MSTORE PUSH1 0x44 ADD PUSH1 0x20 PUSH1 0x40 MLOAD DUP1 DUP4 SUB DUP2 PUSH1 0x0 DUP8 GAS CALL ISZERO DUP1 ISZERO PUSH2 0x85C JUMPI RETURNDATASIZE PUSH1 0x0 DUP1 RETURNDATACOPY RETURNDATASIZE PUSH1 0x0 REVERT JUMPDEST POP POP POP POP PUSH1 0x40 MLOAD RETURNDATASIZE PUSH1 0x1F NOT PUSH1 0x1F DUP3 ADD AND DUP3 ADD DUP1 PUSH1 0x40 MSTORE POP DUP2 ADD SWAP1 PUSH2 0x880 SWAP2 SWAP1 PUSH2 0x14AF JUMP JUMPDEST POP PUSH1 0x1 PUSH1 0x1 PUSH1 0xA0 SHL SUB PUSH32 0x0 AND PUSH4 0x38ED1739 PUSH2 0x8C2 DUP9 PUSH8 0xDE0B6B3A7640000 PUSH2 0x14E7 JUMP JUMPDEST DUP12 PUSH1 0x0 DUP9 DUP9 PUSH1 0x40 MLOAD DUP7 PUSH4 0xFFFFFFFF AND PUSH1 0xE0 SHL DUP2 MSTORE PUSH1 0x4 ADD PUSH2 0x8E7 SWAP6 SWAP5 SWAP4 SWAP3 SWAP2 SWAP1 PUSH2 0x154F JUMP JUMPDEST PUSH1 0x20 PUSH1 0x40 MLOAD DUP1 DUP4 SUB DUP2 PUSH1 0x0 DUP8 GAS CALL ISZERO DUP1 ISZERO PUSH2 0x906 JUMPI RETURNDATASIZE PUSH1 0x0 DUP1 RETURNDATACOPY RETURNDATASIZE PUSH1 0x0 REVERT JUMPDEST POP POP POP POP PUSH1 0x40 MLOAD RETURNDATASIZE PUSH1 0x1F NOT PUSH1 0x1F DUP3 ADD AND DUP3 ADD DUP1 PUSH1 0x40 MSTORE POP DUP2 ADD SWAP1 PUSH2 0x92A SWAP2 SWAP1 PUSH2 0x1649 JUMP JUMPDEST SWAP10 SWAP9 POP POP POP POP POP POP POP POP POP JUMP JUMPDEST PUSH1 0x40 MLOAD PUSH4 0x666A652D PUSH1 0xE0 SHL DUP2 MSTORE PUSH1 0x1 PUSH1 0x1 PUSH1 0xA0 SHL SUB DUP6 DUP2 AND PUSH1 0x4 DUP4 ADD MSTORE PUSH1 0x24 DUP3 ADD DUP4 SWAP1 MSTORE PUSH1 0x0 SWAP2 DUP3 SWAP2 PUSH32 0x0 AND SWAP1 PUSH4 0x666A652D SWAP1 PUSH1 0x44 ADD PUSH1 0x20 PUSH1 0x40 MLOAD DUP1 DUP4 SUB DUP2 PUSH1 0x0 DUP8 GAS CALL ISZERO DUP1 ISZERO PUSH2 0x9AB JUMPI RETURNDATASIZE PUSH1 0x0 DUP1 RETURNDATACOPY RETURNDATASIZE PUSH1 0x0 REVERT JUMPDEST POP POP POP POP PUSH1 0x40 MLOAD RETURNDATASIZE PUSH1 0x1F NOT PUSH1 0x1F DUP3 ADD AND DUP3 ADD DUP1 PUSH1 0x40 MSTORE POP DUP2 ADD SWAP1 PUSH2 0x9CF SWAP2 SWAP1 PUSH2 0x145F JUMP JUMPDEST PUSH1 0x40 MLOAD PUSH4 0x1724671 PUSH1 0xE1 SHL DUP2 MSTORE PUSH1 0x1 PUSH1 0x1 PUSH1 0xA0 SHL SUB DUP1 DUP4 AND PUSH1 0x4 DUP4 ADD MSTORE DUP8 DUP2 AND PUSH1 0x24 DUP4 ADD MSTORE PUSH3 0xFFFFFF DUP8 AND PUSH1 0x44 DUP4 ADD MSTORE SWAP2 SWAP3 POP PUSH32 0x0 SWAP1 SWAP2 AND SWAP1 PUSH4 0x2E48CE2 SWAP1 PUSH1 0x64 ADD PUSH1 0x20 PUSH1 0x40 MLOAD DUP1 DUP4 SUB DUP2 PUSH1 0x0 DUP8 GAS CALL ISZERO DUP1 ISZERO PUSH2 0xA4F JUMPI RETURNDATASIZE PUSH1 0x0 DUP1 RETURNDATACOPY RETURNDATASIZE PUSH1 0x0 REVERT JUMPDEST POP POP POP POP PUSH1 0x40 MLOAD RETURNDATASIZE PUSH1 0x1F NOT PUSH1 0x1F DUP3 ADD AND DUP3 ADD DUP1 PUSH1 0x40 MSTORE POP DUP2 ADD SWAP1 PUSH2 0xA73 SWAP2 SWAP1 PUSH2 0x145F JUMP JUMPDEST SWAP2 POP SWAP5 POP SWAP5 SWAP3 POP POP POP JUMP JUMPDEST PUSH1 0x40 MLOAD PUSH4 0x831250B9 PUSH1 0xE0 SHL DUP2 MSTORE PUSH1 0x1 PUSH1 0x1 PUSH1 0xA0 SHL SUB DUP8 DUP2 AND PUSH1 0x4 DUP4 ADD MSTORE PUSH1 0x60 SWAP2 PUSH1 0x0 SWAP2 PUSH32 0x0 AND SWAP1 PUSH4 0x831250B9 SWAP1 PUSH1 0x24 ADD PUSH1 0x20 PUSH1 0x40 MLOAD DUP1 DUP4 SUB DUP2 DUP7 GAS STATICCALL ISZERO DUP1 ISZERO PUSH2 0xAEA JUMPI RETURNDATASIZE PUSH1 0x0 DUP1 RETURNDATACOPY RETURNDATASIZE PUSH1 0x0 REVERT JUMPDEST POP POP POP POP PUSH1 0x40 MLOAD RETURNDATASIZE PUSH1 0x1F NOT PUSH1 0x1F DUP3 ADD AND DUP3 ADD DUP1 PUSH1 0x40 MSTORE POP DUP2 ADD SWAP1 PUSH2 0xB0E SWAP2 SWAP1 PUSH2 0x145F JUMP JUMPDEST PUSH1 0x40 DUP1 MLOAD PUSH1 0x2 DUP1 DUP3 MSTORE PUSH1 0x60 DUP3 ADD DUP4 MSTORE SWAP3 SWAP4 POP SWAP2 SWAP1 PUSH1 0x20 DUP4 ADD SWAP1 DUP1 CALLDATASIZE DUP4 CALLDATACOPY POP POP DUP2 MLOAD PUSH2 0xB40 SWAP3 PUSH1 0x0 SWAP3 POP PUSH1 0x20 ADD SWAP1 PUSH2 0x111D JUMP JUMPDEST POP DUP5 PUSH1 0x0 DUP1 DUP2 SLOAD DUP2 LT PUSH2 0xB55 JUMPI PUSH2 0xB55 PUSH2 0x1499 JUMP JUMPDEST SWAP1 PUSH1 0x0 MSTORE PUSH1 0x20 PUSH1 0x0 KECCAK256 ADD PUSH1 0x0 PUSH2 0x100 EXP DUP2 SLOAD DUP2 PUSH1 0x1 PUSH1 0x1 PUSH1 0xA0 SHL SUB MUL NOT AND SWAP1 DUP4 PUSH1 0x1 PUSH1 0x1 PUSH1 0xA0 SHL SUB AND MUL OR SWAP1 SSTORE POP DUP1 PUSH1 0x0 PUSH1 0x1 DUP2 SLOAD DUP2 LT PUSH2 0xB98 JUMPI PUSH2 0xB98 PUSH2 0x1499 JUMP JUMPDEST PUSH1 0x0 SWAP2 DUP3 MSTORE PUSH1 0x20 SWAP1 SWAP2 KECCAK256 ADD DUP1 SLOAD PUSH1 0x1 PUSH1 0x1 PUSH1 0xA0 SHL SUB NOT AND PUSH1 0x1 PUSH1 0x1 PUSH1 0xA0 SHL SUB SWAP3 DUP4 AND OR SWAP1 SSTORE PUSH32 0x0 AND PUSH4 0xFB3BDB41 PUSH2 0xBF6 DUP9 PUSH8 0xDE0B6B3A7640000 PUSH2 0x14E7 JUMP JUMPDEST PUSH1 0x0 DUP8 DUP8 PUSH1 0x40 MLOAD DUP6 PUSH4 0xFFFFFFFF AND PUSH1 0xE0 SHL DUP2 MSTORE PUSH1 0x4 ADD PUSH2 0xC19 SWAP5 SWAP4 SWAP3 SWAP2 SWAP1 PUSH2 0x16D8 JUMP JUMPDEST PUSH1 0x0 PUSH1 0x40 MLOAD DUP1 DUP4 SUB DUP2 PUSH1 0x0 DUP8 GAS CALL ISZERO DUP1 ISZERO PUSH2 0xC38 JUMPI RETURNDATASIZE PUSH1 0x0 DUP1 RETURNDATACOPY RETURNDATASIZE PUSH1 0x0 REVERT JUMPDEST POP POP POP POP PUSH1 0x40 MLOAD RETURNDATASIZE PUSH1 0x0 DUP3 RETURNDATACOPY PUSH1 0x1F RETURNDATASIZE SWAP1 DUP2 ADD PUSH1 0x1F NOT AND DUP3 ADD PUSH1 0x40 MSTORE PUSH2 0xC60 SWAP2 SWAP1 DUP2 ADD SWAP1 PUSH2 0x158B JUMP JUMPDEST SWAP2 POP PUSH1 0x1 PUSH1 0x1 PUSH1 0xA0 SHL SUB DUP2 AND PUSH4 0x95EA7B3 PUSH32 0x0 PUSH2 0xCA4 DUP10 PUSH8 0xDE0B6B3A7640000 PUSH2 0x14E7 JUMP JUMPDEST PUSH1 0x40 MLOAD PUSH1 0x1 PUSH1 0x1 PUSH1 0xE0 SHL SUB NOT PUSH1 0xE0 DUP6 SWAP1 SHL AND DUP2 MSTORE PUSH1 0x1 PUSH1 0x1 PUSH1 0xA0 SHL SUB SWAP1 SWAP3 AND PUSH1 0x4 DUP4 ADD MSTORE PUSH1 0x24 DUP3 ADD MSTORE PUSH1 0x44 ADD PUSH1 0x20 PUSH1 0x40 MLOAD DUP1 DUP4 SUB DUP2 PUSH1 0x0 DUP8 GAS CALL ISZERO DUP1 ISZERO PUSH2 0xCEF JUMPI RETURNDATASIZE PUSH1 0x0 DUP1 RETURNDATACOPY RETURNDATASIZE PUSH1 0x0 REVERT JUMPDEST POP POP POP POP PUSH1 0x40 MLOAD RETURNDATASIZE PUSH1 0x1F NOT PUSH1 0x1F DUP3 ADD AND DUP3 ADD DUP1 PUSH1 0x40 MSTORE POP DUP2 ADD SWAP1 PUSH2 0xD13 SWAP2 SWAP1 PUSH2 0x14AF JUMP JUMPDEST POP PUSH1 0x1 PUSH1 0x1 PUSH1 0xA0 SHL SUB PUSH32 0x0 AND PUSH4 0xE679F89A DUP10 DUP8 PUSH2 0xD57 DUP11 PUSH8 0xDE0B6B3A7640000 PUSH2 0x14E7 JUMP JUMPDEST PUSH1 0x40 MLOAD PUSH1 0x1 PUSH1 0x1 PUSH1 0xE0 SHL SUB NOT PUSH1 0xE0 DUP7 SWAP1 SHL AND DUP2 MSTORE PUSH1 0x1 PUSH1 0x1 PUSH1 0xA0 SHL SUB SWAP4 DUP5 AND PUSH1 0x4 DUP3 ADD MSTORE SWAP2 DUP4 AND PUSH1 0x24 DUP4 ADD MSTORE PUSH1 0x44 DUP3 ADD MSTORE SWAP1 DUP8 AND PUSH1 0x64 DUP3 ADD MSTORE PUSH1 0x84 ADD PUSH1 0x20 PUSH1 0x40 MLOAD DUP1 DUP4 SUB DUP2 PUSH1 0x0 DUP8 GAS CALL ISZERO DUP1 ISZERO PUSH2 0xDB2 JUMPI RETURNDATASIZE PUSH1 0x0 DUP1 RETURNDATACOPY RETURNDATASIZE PUSH1 0x0 REVERT JUMPDEST POP POP POP POP PUSH1 0x40 MLOAD RETURNDATASIZE PUSH1 0x1F NOT PUSH1 0x1F DUP3 ADD AND DUP3 ADD DUP1 PUSH1 0x40 MSTORE POP DUP2 ADD SWAP1 PUSH2 0xDD6 SWAP2 SWAP1 PUSH2 0x1649 JUMP JUMPDEST POP POP SWAP7 SWAP6 POP POP POP POP POP POP JUMP JUMPDEST PUSH1 0x40 MLOAD PUSH4 0x831250B9 PUSH1 0xE0 SHL DUP2 MSTORE PUSH1 0x1 PUSH1 0x1 PUSH1 0xA0 SHL SUB DUP8 DUP2 AND PUSH1 0x4 DUP4 ADD MSTORE PUSH1 0x0 SWAP2 DUP3 SWAP2 PUSH32 0x0 AND SWAP1 PUSH4 0x831250B9 SWAP1 PUSH1 0x24 ADD PUSH1 0x20 PUSH1 0x40 MLOAD DUP1 DUP4 SUB DUP2 DUP7 GAS STATICCALL ISZERO DUP1 ISZERO PUSH2 0xE4D JUMPI RETURNDATASIZE PUSH1 0x0 DUP1 RETURNDATACOPY RETURNDATASIZE PUSH1 0x0 REVERT JUMPDEST POP POP POP POP PUSH1 0x40 MLOAD RETURNDATASIZE PUSH1 0x1F NOT PUSH1 0x1F DUP3 ADD AND DUP3 ADD DUP1 PUSH1 0x40 MSTORE POP DUP2 ADD SWAP1 PUSH2 0xE71 SWAP2 SWAP1 PUSH2 0x145F JUMP JUMPDEST PUSH1 0x40 DUP1 MLOAD PUSH1 0x2 DUP1 DUP3 MSTORE PUSH1 0x60 DUP3 ADD DUP4 MSTORE SWAP3 SWAP4 POP SWAP2 SWAP1 PUSH1 0x20 DUP4 ADD SWAP1 DUP1 CALLDATASIZE DUP4 CALLDATACOPY POP POP DUP2 MLOAD PUSH2 0xEA3 SWAP3 PUSH1 0x0 SWAP3 POP PUSH1 0x20 ADD SWAP1 PUSH2 0x111D JUMP JUMPDEST POP DUP1 PUSH1 0x0 DUP1 DUP2 SLOAD DUP2 LT PUSH2 0xEB8 JUMPI PUSH2 0xEB8 PUSH2 0x1499 JUMP JUMPDEST SWAP1 PUSH1 0x0 MSTORE PUSH1 0x20 PUSH1 0x0 KECCAK256 ADD PUSH1 0x0 PUSH2 0x100 EXP DUP2 SLOAD DUP2 PUSH1 0x1 PUSH1 0x1 PUSH1 0xA0 SHL SUB MUL NOT AND SWAP1 DUP4 PUSH1 0x1 PUSH1 0x1 PUSH1 0xA0 SHL SUB AND MUL OR SWAP1 SSTORE POP DUP5 PUSH1 0x0 PUSH1 0x1 DUP2 SLOAD DUP2 LT PUSH2 0xEFB JUMPI PUSH2 0xEFB PUSH2 0x1499 JUMP JUMPDEST PUSH1 0x0 SWAP2 DUP3 MSTORE PUSH1 0x20 DUP3 KECCAK256 ADD DUP1 SLOAD PUSH1 0x1 PUSH1 0x1 PUSH1 0xA0 SHL SUB NOT AND PUSH1 0x1 PUSH1 0x1 PUSH1 0xA0 SHL SUB SWAP4 DUP5 AND OR SWAP1 SSTORE PUSH1 0x40 MLOAD PUSH4 0x18CBAFE5 PUSH1 0xE0 SHL DUP2 MSTORE PUSH32 0x0 SWAP1 SWAP3 AND SWAP2 PUSH4 0x18CBAFE5 SWAP2 PUSH2 0xF6B SWAP2 DUP15 SWAP2 DUP15 SWAP2 DUP11 SWAP1 DUP11 SWAP1 PUSH1 0x4 ADD PUSH2 0x154F JUMP JUMPDEST PUSH1 0x20 PUSH1 0x40 MLOAD DUP1 DUP4 SUB DUP2 PUSH1 0x0 DUP8 GAS CALL ISZERO DUP1 ISZERO PUSH2 0xF8A JUMPI RETURNDATASIZE PUSH1 0x0 DUP1 RETURNDATACOPY RETURNDATASIZE PUSH1 0x0 REVERT JUMPDEST POP POP POP POP PUSH1 0x40 MLOAD RETURNDATASIZE PUSH1 0x1F NOT PUSH1 0x1F DUP3 ADD AND DUP3 ADD DUP1 PUSH1 0x40 MSTORE POP DUP2 ADD SWAP1 PUSH2 0xFAE SWAP2 SWAP1 PUSH2 0x1649 JUMP JUMPDEST SWAP2 POP PUSH1 0x0 JUMPDEST DUP7 DUP2 LT ISZERO PUSH2 0x1077 JUMPI DUP9 PUSH1 0x1 PUSH1 0x1 PUSH1 0xA0 SHL SUB AND PUSH4 0x95EA7B3 PUSH32 0x0 DUP11 DUP11 DUP6 DUP2 DUP2 LT PUSH2 0xFFD JUMPI PUSH2 0xFFD PUSH2 0x1499 JUMP JUMPDEST PUSH1 0x40 MLOAD PUSH1 0x1 PUSH1 0x1 PUSH1 0xE0 SHL SUB NOT PUSH1 0xE0 DUP8 SWAP1 SHL AND DUP2 MSTORE PUSH1 0x1 PUSH1 0x1 PUSH1 0xA0 SHL SUB SWAP1 SWAP5 AND PUSH1 0x4 DUP6 ADD MSTORE PUSH1 0x20 MUL SWAP2 SWAP1 SWAP2 ADD CALLDATALOAD PUSH1 0x24 DUP4 ADD MSTORE POP PUSH1 0x44 ADD PUSH1 0x0 PUSH1 0x40 MLOAD DUP1 DUP4 SUB DUP2 PUSH1 0x0 DUP8 DUP1 EXTCODESIZE ISZERO DUP1 ISZERO PUSH2 0x104C JUMPI PUSH1 0x0 DUP1 REVERT JUMPDEST POP GAS CALL ISZERO DUP1 ISZERO PUSH2 0x1060 JUMPI RETURNDATASIZE PUSH1 0x0 DUP1 RETURNDATACOPY RETURNDATASIZE PUSH1 0x0 REVERT JUMPDEST POP POP POP POP DUP1 DUP1 PUSH2 0x106F SWAP1 PUSH2 0x170D JUMP JUMPDEST SWAP2 POP POP PUSH2 0xFB3 JUMP JUMPDEST POP PUSH1 0x40 MLOAD PUSH4 0x6966278B PUSH1 0xE1 SHL DUP2 MSTORE PUSH1 0x1 PUSH1 0x1 PUSH1 0xA0 SHL SUB PUSH32 0x0 AND SWAP1 PUSH4 0xD2CC4F16 SWAP1 PUSH2 0x10CC SWAP1 DUP8 SWAP1 DUP13 SWAP1 DUP11 SWAP1 DUP14 SWAP1 DUP14 SWAP1 PUSH1 0x4 ADD PUSH2 0x1698 JUMP JUMPDEST PUSH1 0x20 PUSH1 0x40 MLOAD DUP1 DUP4 SUB DUP2 PUSH1 0x0 DUP8 GAS CALL ISZERO DUP1 ISZERO PUSH2 0x10EB JUMPI RETURNDATASIZE PUSH1 0x0 DUP1 RETURNDATACOPY RETURNDATASIZE PUSH1 0x0 REVERT JUMPDEST POP POP POP POP PUSH1 0x40 MLOAD RETURNDATASIZE PUSH1 0x1F NOT PUSH1 0x1F DUP3 ADD AND DUP3 ADD DUP1 PUSH1 0x40 MSTORE POP DUP2 ADD SWAP1 PUSH2 0x110F SWAP2 SWAP1 PUSH2 0x1649 JUMP JUMPDEST POP POP SWAP9 SWAP8 POP POP POP POP POP POP POP POP JUMP JUMPDEST DUP3 DUP1 SLOAD DUP3 DUP3 SSTORE SWAP1 PUSH1 0x0 MSTORE PUSH1 0x20 PUSH1 0x0 KECCAK256 SWAP1 DUP2 ADD SWAP3 DUP3 ISZERO PUSH2 0x1172 JUMPI SWAP2 PUSH1 0x20 MUL DUP3 ADD JUMPDEST DUP3 DUP2 GT ISZERO PUSH2 0x1172 JUMPI DUP3 MLOAD DUP3 SLOAD PUSH1 0x1 PUSH1 0x1 PUSH1 0xA0 SHL SUB NOT AND PUSH1 0x1 PUSH1 0x1 PUSH1 0xA0 SHL SUB SWAP1 SWAP2 AND OR DUP3 SSTORE PUSH1 0x20 SWAP1 SWAP3 ADD SWAP2 PUSH1 0x1 SWAP1 SWAP2 ADD SWAP1 PUSH2 0x113D JUMP JUMPDEST POP PUSH2 0x117E SWAP3 SWAP2 POP PUSH2 0x1182 JUMP JUMPDEST POP SWAP1 JUMP JUMPDEST JUMPDEST DUP1 DUP3 GT ISZERO PUSH2 0x117E JUMPI PUSH1 0x0 DUP2 SSTORE PUSH1 0x1 ADD PUSH2 0x1183 JUMP JUMPDEST PUSH1 0x1 PUSH1 0x1 PUSH1 0xA0 SHL SUB DUP2 AND DUP2 EQ PUSH2 0x11AC JUMPI PUSH1 0x0 DUP1 REVERT JUMPDEST POP JUMP JUMPDEST PUSH1 0x0 DUP1 DUP4 PUSH1 0x1F DUP5 ADD SLT PUSH2 0x11C1 JUMPI PUSH1 0x0 DUP1 REVERT JUMPDEST POP DUP2 CALLDATALOAD PUSH8 0xFFFFFFFFFFFFFFFF DUP2 GT ISZERO PUSH2 0x11D9 JUMPI PUSH1 0x0 DUP1 REVERT JUMPDEST PUSH1 0x20 DUP4 ADD SWAP2 POP DUP4 PUSH1 0x20 DUP3 PUSH1 0x5 SHL DUP6 ADD ADD GT ISZERO PUSH2 0x11F4 JUMPI PUSH1 0x0 DUP1 REVERT JUMPDEST SWAP3 POP SWAP3 SWAP1 POP JUMP JUMPDEST PUSH1 0x0 DUP1 PUSH1 0x0 DUP1 PUSH1 0x0 DUP1 PUSH1 0x0 PUSH1 0xC0 DUP9 DUP11 SUB SLT ISZERO PUSH2 0x1216 JUMPI PUSH1 0x0 DUP1 REVERT JUMPDEST DUP8 CALLDATALOAD SWAP7 POP PUSH1 0x20 DUP9 ADD CALLDATALOAD PUSH2 0x1228 DUP2 PUSH2 0x1197 JUMP JUMPDEST SWAP6 POP PUSH1 0x40 DUP9 ADD CALLDATALOAD PUSH8 0xFFFFFFFFFFFFFFFF DUP2 GT ISZERO PUSH2 0x1244 JUMPI PUSH1 0x0 DUP1 REVERT JUMPDEST PUSH2 0x1250 DUP11 DUP3 DUP12 ADD PUSH2 0x11AF JUMP JUMPDEST SWAP1 SWAP7 POP SWAP5 POP POP PUSH1 0x60 DUP9 ADD CALLDATALOAD PUSH2 0x1264 DUP2 PUSH2 0x1197 JUMP JUMPDEST SWAP3 POP PUSH1 0x80 DUP9 ADD CALLDATALOAD PUSH2 0x1274 DUP2 PUSH2 0x1197 JUMP JUMPDEST DUP1 SWAP3 POP POP PUSH1 0xA0 DUP9 ADD CALLDATALOAD SWAP1 POP SWAP3 SWAP6 SWAP9 SWAP2 SWAP5 SWAP8 POP SWAP3 SWAP6 POP JUMP JUMPDEST PUSH1 0x20 DUP1 DUP3 MSTORE DUP3 MLOAD DUP3 DUP3 ADD DUP2 SWAP1 MSTORE PUSH1 0x0 SWAP2 SWAP1 DUP5 DUP3 ADD SWAP1 PUSH1 0x40 DUP6 ADD SWAP1 DUP5 JUMPDEST DUP2 DUP2 LT ISZERO PUSH2 0x12C3 JUMPI DUP4 MLOAD DUP4 MSTORE SWAP3 DUP5 ADD SWAP3 SWAP2 DUP5 ADD SWAP2 PUSH1 0x1 ADD PUSH2 0x12A7 JUMP JUMPDEST POP SWAP1 SWAP7 SWAP6 POP POP POP POP POP POP JUMP JUMPDEST PUSH1 0x0 PUSH1 0x20 DUP3 DUP5 SUB SLT ISZERO PUSH2 0x12E1 JUMPI PUSH1 0x0 DUP1 REVERT JUMPDEST POP CALLDATALOAD SWAP2 SWAP1 POP JUMP JUMPDEST PUSH1 0x0 DUP1 PUSH1 0x0 DUP1 PUSH1 0x80 DUP6 DUP8 SUB SLT ISZERO PUSH2 0x12FE JUMPI PUSH1 0x0 DUP1 REVERT JUMPDEST DUP5 CALLDATALOAD PUSH2 0x1309 DUP2 PUSH2 0x1197 JUMP JUMPDEST SWAP4 POP PUSH1 0x20 DUP6 ADD CALLDATALOAD PUSH2 0x1319 DUP2 PUSH2 0x1197 JUMP JUMPDEST SWAP3 POP PUSH1 0x40 DUP6 ADD CALLDATALOAD PUSH3 0xFFFFFF DUP2 AND DUP2 EQ PUSH2 0x1331 JUMPI PUSH1 0x0 DUP1 REVERT JUMPDEST SWAP4 SWAP7 SWAP3 SWAP6 POP SWAP3 SWAP4 PUSH1 0x60 ADD CALLDATALOAD SWAP3 POP POP JUMP JUMPDEST PUSH1 0x0 DUP1 PUSH1 0x0 DUP1 PUSH1 0x0 DUP1 PUSH1 0xA0 DUP8 DUP10 SUB SLT ISZERO PUSH2 0x135A JUMPI PUSH1 0x0 DUP1 REVERT JUMPDEST DUP7 CALLDATALOAD PUSH2 0x1365 DUP2 PUSH2 0x1197 JUMP JUMPDEST SWAP6 POP PUSH1 0x20 DUP8 ADD CALLDATALOAD PUSH8 0xFFFFFFFFFFFFFFFF DUP2 GT ISZERO PUSH2 0x1381 JUMPI PUSH1 0x0 DUP1 REVERT JUMPDEST PUSH2 0x138D DUP10 DUP3 DUP11 ADD PUSH2 0x11AF JUMP JUMPDEST SWAP1 SWAP7 POP SWAP5 POP POP PUSH1 0x40 DUP8 ADD CALLDATALOAD PUSH2 0x13A1 DUP2 PUSH2 0x1197 JUMP JUMPDEST SWAP3 POP PUSH1 0x60 DUP8 ADD CALLDATALOAD PUSH2 0x13B1 DUP2 PUSH2 0x1197 JUMP JUMPDEST DUP1 SWAP3 POP POP PUSH1 0x80 DUP8 ADD CALLDATALOAD SWAP1 POP SWAP3 SWAP6 POP SWAP3 SWAP6 POP SWAP3 SWAP6 JUMP JUMPDEST PUSH1 0x0 DUP1 PUSH1 0x0 DUP1 PUSH1 0x0 DUP1 PUSH1 0x0 DUP1 PUSH1 0xE0 DUP10 DUP12 SUB SLT ISZERO PUSH2 0x13E2 JUMPI PUSH1 0x0 DUP1 REVERT JUMPDEST DUP9 CALLDATALOAD SWAP8 POP PUSH1 0x20 DUP10 ADD CALLDATALOAD SWAP7 POP PUSH1 0x40 DUP10 ADD CALLDATALOAD PUSH2 0x13FB DUP2 PUSH2 0x1197 JUMP JUMPDEST SWAP6 POP PUSH1 0x60 DUP10 ADD CALLDATALOAD PUSH8 0xFFFFFFFFFFFFFFFF DUP2 GT ISZERO PUSH2 0x1417 JUMPI PUSH1 0x0 DUP1 REVERT JUMPDEST PUSH2 0x1423 DUP12 DUP3 DUP13 ADD PUSH2 0x11AF JUMP JUMPDEST SWAP1 SWAP7 POP SWAP5 POP POP PUSH1 0x80 DUP10 ADD CALLDATALOAD PUSH2 0x1437 DUP2 PUSH2 0x1197 JUMP JUMPDEST SWAP3 POP PUSH1 0xA0 DUP10 ADD CALLDATALOAD PUSH2 0x1447 DUP2 PUSH2 0x1197 JUMP JUMPDEST DUP1 SWAP3 POP POP PUSH1 0xC0 DUP10 ADD CALLDATALOAD SWAP1 POP SWAP3 SWAP6 SWAP9 POP SWAP3 SWAP6 SWAP9 SWAP1 SWAP4 SWAP7 POP JUMP JUMPDEST PUSH1 0x0 PUSH1 0x20 DUP3 DUP5 SUB SLT ISZERO PUSH2 0x1471 JUMPI PUSH1 0x0 DUP1 REVERT JUMPDEST DUP2 MLOAD PUSH2 0x147C DUP2 PUSH2 0x1197 JUMP JUMPDEST SWAP4 SWAP3 POP POP POP JUMP JUMPDEST PUSH4 0x4E487B71 PUSH1 0xE0 SHL PUSH1 0x0 MSTORE PUSH1 0x41 PUSH1 0x4 MSTORE PUSH1 0x24 PUSH1 0x0 REVERT JUMPDEST PUSH4 0x4E487B71 PUSH1 0xE0 SHL PUSH1 0x0 MSTORE PUSH1 0x32 PUSH1 0x4 MSTORE PUSH1 0x24 PUSH1 0x0 REVERT JUMPDEST PUSH1 0x0 PUSH1 0x20 DUP3 DUP5 SUB SLT ISZERO PUSH2 0x14C1 JUMPI PUSH1 0x0 DUP1 REVERT JUMPDEST DUP2 MLOAD DUP1 ISZERO ISZERO DUP2 EQ PUSH2 0x147C JUMPI PUSH1 0x0 DUP1 REVERT JUMPDEST PUSH4 0x4E487B71 PUSH1 0xE0 SHL PUSH1 0x0 MSTORE PUSH1 0x11 PUSH1 0x4 MSTORE PUSH1 0x24 PUSH1 0x0 REVERT JUMPDEST PUSH1 0x0 DUP2 PUSH1 0x0 NOT DIV DUP4 GT DUP3 ISZERO ISZERO AND ISZERO PUSH2 0x1501 JUMPI PUSH2 0x1501 PUSH2 0x14D1 JUMP JUMPDEST POP MUL SWAP1 JUMP JUMPDEST PUSH1 0x0 DUP2 SLOAD DUP1 DUP5 MSTORE PUSH1 0x20 DUP1 DUP6 ADD SWAP5 POP DUP4 PUSH1 0x0 MSTORE DUP1 PUSH1 0x0 KECCAK256 PUSH1 0x0 JUMPDEST DUP4 DUP2 LT ISZERO PUSH2 0x1544 JUMPI DUP2 SLOAD PUSH1 0x1 PUSH1 0x1 PUSH1 0xA0 SHL SUB AND DUP8 MSTORE SWAP6 DUP3 ADD SWAP6 PUSH1 0x1 SWAP2 DUP3 ADD SWAP2 ADD PUSH2 0x151F JUMP JUMPDEST POP SWAP5 SWAP6 SWAP5 POP POP POP POP POP JUMP JUMPDEST DUP6 DUP2 MSTORE DUP5 PUSH1 0x20 DUP3 ADD MSTORE PUSH1 0xA0 PUSH1 0x40 DUP3 ADD MSTORE PUSH1 0x0 PUSH2 0x156E PUSH1 0xA0 DUP4 ADD DUP7 PUSH2 0x1506 JUMP JUMPDEST PUSH1 0x1 PUSH1 0x1 PUSH1 0xA0 SHL SUB SWAP5 SWAP1 SWAP5 AND PUSH1 0x60 DUP4 ADD MSTORE POP PUSH1 0x80 ADD MSTORE SWAP4 SWAP3 POP POP POP JUMP JUMPDEST PUSH1 0x0 PUSH1 0x20 DUP1 DUP4 DUP6 SUB SLT ISZERO PUSH2 0x159E JUMPI PUSH1 0x0 DUP1 REVERT JUMPDEST DUP3 MLOAD PUSH8 0xFFFFFFFFFFFFFFFF DUP1 DUP3 GT ISZERO PUSH2 0x15B6 JUMPI PUSH1 0x0 DUP1 REVERT JUMPDEST DUP2 DUP6 ADD SWAP2 POP DUP6 PUSH1 0x1F DUP4 ADD SLT PUSH2 0x15CA JUMPI PUSH1 0x0 DUP1 REVERT JUMPDEST DUP2 MLOAD DUP2 DUP2 GT ISZERO PUSH2 0x15DC JUMPI PUSH2 0x15DC PUSH2 0x1483 JUMP JUMPDEST DUP1 PUSH1 0x5 SHL PUSH1 0x40 MLOAD PUSH1 0x1F NOT PUSH1 0x3F DUP4 ADD AND DUP2 ADD DUP2 DUP2 LT DUP6 DUP3 GT OR ISZERO PUSH2 0x1601 JUMPI PUSH2 0x1601 PUSH2 0x1483 JUMP JUMPDEST PUSH1 0x40 MSTORE SWAP2 DUP3 MSTORE DUP5 DUP3 ADD SWAP3 POP DUP4 DUP2 ADD DUP6 ADD SWAP2 DUP9 DUP4 GT ISZERO PUSH2 0x161F JUMPI PUSH1 0x0 DUP1 REVERT JUMPDEST SWAP4 DUP6 ADD SWAP4 JUMPDEST DUP3 DUP6 LT ISZERO PUSH2 0x163D JUMPI DUP5 MLOAD DUP5 MSTORE SWAP4 DUP6 ADD SWAP4 SWAP3 DUP6 ADD SWAP3 PUSH2 0x1624 JUMP JUMPDEST SWAP9 SWAP8 POP POP POP POP POP POP POP POP JUMP JUMPDEST PUSH1 0x0 PUSH1 0x20 DUP3 DUP5 SUB SLT ISZERO PUSH2 0x165B JUMPI PUSH1 0x0 DUP1 REVERT JUMPDEST POP MLOAD SWAP2 SWAP1 POP JUMP JUMPDEST DUP2 DUP4 MSTORE PUSH1 0x0 PUSH1 0x1 PUSH1 0x1 PUSH1 0xFB SHL SUB DUP4 GT ISZERO PUSH2 0x167B JUMPI PUSH1 0x0 DUP1 REVERT JUMPDEST DUP3 PUSH1 0x5 SHL DUP1 DUP4 PUSH1 0x20 DUP8 ADD CALLDATACOPY PUSH1 0x0 SWAP5 ADD PUSH1 0x20 ADD SWAP4 DUP5 MSTORE POP SWAP2 SWAP3 SWAP2 POP POP JUMP JUMPDEST PUSH1 0x1 PUSH1 0x1 PUSH1 0xA0 SHL SUB DUP7 DUP2 AND DUP3 MSTORE DUP6 DUP2 AND PUSH1 0x20 DUP4 ADD MSTORE DUP5 AND PUSH1 0x40 DUP3 ADD MSTORE PUSH1 0x80 PUSH1 0x60 DUP3 ADD DUP2 SWAP1 MSTORE PUSH1 0x0 SWAP1 PUSH2 0x16CD SWAP1 DUP4 ADD DUP5 DUP7 PUSH2 0x1662 JUMP JUMPDEST SWAP8 SWAP7 POP POP POP POP POP POP POP JUMP JUMPDEST DUP5 DUP2 MSTORE PUSH1 0x80 PUSH1 0x20 DUP3 ADD MSTORE PUSH1 0x0 PUSH2 0x16F1 PUSH1 0x80 DUP4 ADD DUP7 PUSH2 0x1506 JUMP JUMPDEST PUSH1 0x1 PUSH1 0x1 PUSH1 0xA0 SHL SUB SWAP5 SWAP1 SWAP5 AND PUSH1 0x40 DUP4 ADD MSTORE POP PUSH1 0x60 ADD MSTORE SWAP3 SWAP2 POP POP JUMP JUMPDEST PUSH1 0x0 PUSH1 0x0 NOT DUP3 EQ ISZERO PUSH2 0x1721 JUMPI PUSH2 0x1721 PUSH2 0x14D1 JUMP JUMPDEST POP PUSH1 0x1 ADD SWAP1 JUMP INVALID LOG2 PUSH5 0x6970667358 0x22 SLT KECCAK256 NUMBER 0xE5 REVERT 0xB6 SUB DUP2 0xF7 DUP10 SHL 0x4F EQ 0xB7 0xC9 SWAP15 DUP4 DUP1 CALLER LOG0 PUSH21 0x1BF19977B2B2CCC4955CA647BD64736F6C63430008 EXP STOP CALLER "
		},
		"gasEstimates": {
			"creation": {
				"codeDepositCost": "1196400",
				"executionCost": "infinite",
				"totalCost": "infinite"
			},
			"external": {
				"LBRouter()": "infinite",
				"buyNFT(uint256,address,uint256[],address,address,uint256)": "infinite",
				"buyNFTFromETH(address,uint256[],address,address,uint256)": "infinite",
				"create(address,address,uint24,uint256)": "infinite",
				"midasVault()": "infinite",
				"sellNFT(uint256,address,uint256[],address,address,uint256)": "infinite",
				"sellNFTToETH(uint256,uint256,address,uint256[],address,address,uint256)": "infinite",
				"tokenPath(uint256)": "4637"
			}
		},
		"methodIdentifiers": {
			"LBRouter()": "5ec8fe2a",
			"buyNFT(uint256,address,uint256[],address,address,uint256)": "2e4892e3",
			"buyNFTFromETH(address,uint256[],address,address,uint256)": "95b7668e",
			"create(address,address,uint24,uint256)": "4f078af1",
			"midasVault()": "3dd9aeaf",
			"sellNFT(uint256,address,uint256[],address,address,uint256)": "475f6669",
			"sellNFTToETH(uint256,uint256,address,uint256[],address,address,uint256)": "c87cfe51",
			"tokenPath(uint256)": "2e5929cc"
		}
	},
	"abi": [
		{
			"inputs": [
				{
					"internalType": "contract ILBRouter",
					"name": "_LBRouter",
					"type": "address"
				},
				{
					"internalType": "address",
					"name": "_midasVault",
					"type": "address"
				}
			],
			"stateMutability": "nonpayable",
			"type": "constructor"
		},
		{
			"inputs": [],
			"name": "LBRouter",
			"outputs": [
				{
					"internalType": "contract ILBRouter",
					"name": "",
					"type": "address"
				}
			],
			"stateMutability": "view",
			"type": "function"
		},
		{
			"inputs": [
				{
					"internalType": "uint256",
					"name": "_amountInMax",
					"type": "uint256"
				},
				{
					"internalType": "address",
					"name": "_nftAddress",
					"type": "address"
				},
				{
					"internalType": "uint256[]",
					"name": "_tokenIds",
					"type": "uint256[]"
				},
				{
					"internalType": "contract IERC20",
					"name": "_ftAddress",
					"type": "address"
				},
				{
					"internalType": "address",
					"name": "_to",
					"type": "address"
				},
				{
					"internalType": "uint256",
					"name": "_deadline",
					"type": "uint256"
				}
			],
			"name": "buyNFT",
			"outputs": [
				{
					"internalType": "uint256[]",
					"name": "amountsIn",
					"type": "uint256[]"
				}
			],
			"stateMutability": "nonpayable",
			"type": "function"
		},
		{
			"inputs": [
				{
					"internalType": "address",
					"name": "_nftAddress",
					"type": "address"
				},
				{
					"internalType": "uint256[]",
					"name": "_tokenIds",
					"type": "uint256[]"
				},
				{
					"internalType": "contract IERC20",
					"name": "_ftAddress",
					"type": "address"
				},
				{
					"internalType": "address",
					"name": "_to",
					"type": "address"
				},
				{
					"internalType": "uint256",
					"name": "_deadline",
					"type": "uint256"
				}
			],
			"name": "buyNFTFromETH",
			"outputs": [
				{
					"internalType": "uint256[]",
					"name": "amountsIn",
					"type": "uint256[]"
				}
			],
			"stateMutability": "nonpayable",
			"type": "function"
		},
		{
			"inputs": [
				{
					"internalType": "address",
					"name": "_nftAddress",
					"type": "address"
				},
				{
					"internalType": "address",
					"name": "_ftAddress",
					"type": "address"
				},
				{
					"internalType": "uint24",
					"name": "_activeId",
					"type": "uint24"
				},
				{
					"internalType": "uint256",
					"name": "id",
					"type": "uint256"
				}
			],
			"name": "create",
			"outputs": [
				{
					"internalType": "contract ILBPair",
					"name": "pair",
					"type": "address"
				},
				{
					"internalType": "address",
					"name": "_fractionAddress",
					"type": "address"
				}
			],
			"stateMutability": "nonpayable",
			"type": "function"
		},
		{
			"inputs": [],
			"name": "midasVault",
			"outputs": [
				{
					"internalType": "contract MidasVault",
					"name": "",
					"type": "address"
				}
			],
			"stateMutability": "view",
			"type": "function"
		},
		{
			"inputs": [
				{
					"internalType": "uint256",
					"name": "_amountOutMin",
					"type": "uint256"
				},
				{
					"internalType": "address",
					"name": "_nftAddress",
					"type": "address"
				},
				{
					"internalType": "uint256[]",
					"name": "_tokenIds",
					"type": "uint256[]"
				},
				{
					"internalType": "contract IERC20",
					"name": "_ftAddress",
					"type": "address"
				},
				{
					"internalType": "address",
					"name": "_to",
					"type": "address"
				},
				{
					"internalType": "uint256",
					"name": "_deadline",
					"type": "uint256"
				}
			],
			"name": "sellNFT",
			"outputs": [
				{
					"internalType": "uint256",
					"name": "amountOut",
					"type": "uint256"
				}
			],
			"stateMutability": "nonpayable",
			"type": "function"
		},
		{
			"inputs": [
				{
					"internalType": "uint256",
					"name": "_amountIn",
					"type": "uint256"
				},
				{
					"internalType": "uint256",
					"name": "_amountOutMin",
					"type": "uint256"
				},
				{
					"internalType": "address",
					"name": "_nftAddress",
					"type": "address"
				},
				{
					"internalType": "uint256[]",
					"name": "_tokenIds",
					"type": "uint256[]"
				},
				{
					"internalType": "contract IERC20",
					"name": "_ftAddress",
					"type": "address"
				},
				{
					"internalType": "address payable",
					"name": "_to",
					"type": "address"
				},
				{
					"internalType": "uint256",
					"name": "_deadline",
					"type": "uint256"
				}
			],
			"name": "sellNFTToETH",
			"outputs": [
				{
					"internalType": "uint256",
					"name": "amountOut",
					"type": "uint256"
				}
			],
			"stateMutability": "nonpayable",
			"type": "function"
		},
		{
			"inputs": [
				{
					"internalType": "uint256",
					"name": "",
					"type": "uint256"
				}
			],
			"name": "tokenPath",
			"outputs": [
				{
					"internalType": "contract IERC20",
					"name": "",
					"type": "address"
				}
			],
			"stateMutability": "view",
			"type": "function"
		}
	]
}