{
	"data": {
		"bytecode": {
			"linkReferences": {},
			"object": "60806040523480156200001157600080fd5b5062000032620000266200003860201b60201c565b6200004060201b60201c565b62000104565b600033905090565b60008060009054906101000a900473ffffffffffffffffffffffffffffffffffffffff169050816000806101000a81548173ffffffffffffffffffffffffffffffffffffffff021916908373ffffffffffffffffffffffffffffffffffffffff1602179055508173ffffffffffffffffffffffffffffffffffffffff168173ffffffffffffffffffffffffffffffffffffffff167f8be0079c531659141344cd1fd0a4f28419497f9722a3daafe3b4186f6b6457e060405160405180910390a35050565b615d3880620001146000396000f3fe6080604052600436106200013a5760003560e01c8063715018a611620000af578063d7b5c379116200006d578063d7b5c37914620004d3578063e679f89a1462000509578063f23a6e61146200053f578063f2fde38b1462000583578063fdf2ce9714620005b1576200013a565b8063715018a614620003cb578063831250b914620003e55780638da5cb5b1462000429578063bc197c811462000459578063d2cc4f16146200049d576200013a565b80631743248911620000fd5780631743248914620002775780632138c6ce14620002bb57806340e9b75514620002ff57806344db7d621462000343578063666a652d1462000387576200013a565b806301ffc9a7146200013f5780630376966b14620001835780630fad9d5614620001c757806312908b0114620001fd578063150b7a021462000233575b600080fd5b3480156200014c57600080fd5b506200016b600480360381019062000165919062002b83565b620005e7565b6040516200017a919062002bd2565b60405180910390f35b3480156200019057600080fd5b50620001af6004803603810190620001a9919062002c54565b62000664565b604051620001be919062002bd2565b60405180910390f35b620001e56004803603810190620001df919062002d09565b620006fc565b604051620001f4919062002df3565b60405180910390f35b6200021b600480360381019062000215919062002d09565b62000e70565b6040516200022a919062002df3565b60405180910390f35b3480156200024057600080fd5b506200025f600480360381019062000259919062002f9e565b620010c2565b6040516200026e919062003040565b60405180910390f35b3480156200028457600080fd5b50620002a360048036038101906200029d91906200305d565b620010d6565b604051620002b29190620030b5565b60405180910390f35b348015620002c857600080fd5b50620002e76004803603810190620002e19190620030d2565b62001118565b604051620002f69190620030b5565b60405180910390f35b3480156200030c57600080fd5b506200032b60048036038101906200032591906200305d565b6200114b565b6040516200033a9190620030b5565b60405180910390f35b3480156200035057600080fd5b506200036f600480360381019062000369919062003104565b62001270565b6040516200037e919062002df3565b60405180910390f35b3480156200039457600080fd5b50620003b36004803603810190620003ad91906200305d565b620012bc565b604051620003c29190620030b5565b60405180910390f35b348015620003d857600080fd5b50620003e362001665565b005b348015620003f257600080fd5b506200041160048036038101906200040b9190620030d2565b6200167d565b604051620004209190620030b5565b60405180910390f35b3480156200043657600080fd5b50620004416200177f565b604051620004509190620030b5565b60405180910390f35b3480156200046657600080fd5b506200048560048036038101906200047f91906200324c565b620017a8565b60405162000494919062003040565b60405180910390f35b620004bb6004803603810190620004b5919062003331565b620017bd565b604051620004ca919062002df3565b60405180910390f35b620004f16004803603810190620004eb9190620033c7565b62001b86565b60405162000500919062002df3565b60405180910390f35b6200052760048036038101906200052191906200347f565b62001f3c565b60405162000536919062002df3565b60405180910390f35b3480156200054c57600080fd5b506200056b6004803603810190620005659190620034f1565b620022ab565b6040516200057a919062003040565b60405180910390f35b3480156200059057600080fd5b50620005af6004803603810190620005a99190620030d2565b620022c0565b005b620005cf6004803603810190620005c99190620033c7565b6200234b565b604051620005de919062002df3565b60405180910390f35b60007f4e2312e0000000000000000000000000000000000000000000000000000000007bffffffffffffffffffffffffffffffffffffffffffffffffffffffff1916827bffffffffffffffffffffffffffffffffffffffffffffffffffffffff191614806200065d57506200065c8262002739565b5b9050919050565b600062000670620027a3565b82600260006101000a81548173ffffffffffffffffffffffffffffffffffffffff021916908373ffffffffffffffffffffffffffffffffffffffff16021790555081600160006101000a81548173ffffffffffffffffffffffffffffffffffffffff021916908373ffffffffffffffffffffffffffffffffffffffff1602179055506001905092915050565b6000600260009054906101000a900473ffffffffffffffffffffffffffffffffffffffff1673ffffffffffffffffffffffffffffffffffffffff163373ffffffffffffffffffffffffffffffffffffffff161480620007a85750600160009054906101000a900473ffffffffffffffffffffffffffffffffffffffff1673ffffffffffffffffffffffffffffffffffffffff163373ffffffffffffffffffffffffffffffffffffffff16145b620007b257600080fd5b848490508383905014620007c557600080fd5b60005b8383905081101562000e64576000600560008b73ffffffffffffffffffffffffffffffffffffffff1673ffffffffffffffffffffffffffffffffffffffff16815260200190815260200160002060008a73ffffffffffffffffffffffffffffffffffffffff1673ffffffffffffffffffffffffffffffffffffffff16815260200190815260200160002060008686858181106200086a576200086962003598565b5b9050602002013581526020019081526020016000209050670de0b6b3a7640000878784818110620008a0576200089f62003598565b5b90506020020135620008b3919062003625565b81805490501062000b595760005b670de0b6b3a7640000888885818110620008e057620008df62003598565b5b90506020020135620008f3919062003625565b81101562000a25578a73ffffffffffffffffffffffffffffffffffffffff166342842e0e308b8585815481106200092f576200092e62003598565b5b90600052602060002001546040518463ffffffff1660e01b81526004016200095a939291906200365d565b600060405180830381600087803b1580156200097557600080fd5b505af11580156200098a573d6000803e3d6000fd5b505050508160018380549050620009a291906200369a565b81548110620009b657620009b562003598565b5b9060005260206000200154828281548110620009d757620009d662003598565b5b906000526020600020018190555081805480620009f957620009f8620036d5565b5b60019003818190600052602060002001600090559055808062000a1c9062003704565b915050620008c1565b50670de0b6b3a764000087878481811062000a455762000a4462003598565b5b9050602002013562000a58919062003625565b8362000a65919062003752565b9250600360008b73ffffffffffffffffffffffffffffffffffffffff1673ffffffffffffffffffffffffffffffffffffffff16815260200190815260200160002060009054906101000a900473ffffffffffffffffffffffffffffffffffffffff1673ffffffffffffffffffffffffffffffffffffffff16639dc29fac8989898681811062000af95762000af862003598565b5b905060200201356040518363ffffffff1660e01b815260040162000b1f929190620037af565b600060405180830381600087803b15801562000b3a57600080fd5b505af115801562000b4f573d6000803e3d6000fd5b5050505062000d92565b60005b818054905081101562000c93578a73ffffffffffffffffffffffffffffffffffffffff166342842e0e308b85858154811062000b9d5762000b9c62003598565b5b90600052602060002001546040518463ffffffff1660e01b815260040162000bc8939291906200365d565b600060405180830381600087803b15801562000be357600080fd5b505af115801562000bf8573d6000803e3d6000fd5b50505050816001838054905062000c1091906200369a565b8154811062000c245762000c2362003598565b5b906000526020600020015482828154811062000c455762000c4462003598565b5b90600052602060002001819055508180548062000c675762000c66620036d5565b5b60019003818190600052602060002001600090559055808062000c8a9062003704565b91505062000b5c565b5080805490508362000ca6919062003752565b9250600360008b73ffffffffffffffffffffffffffffffffffffffff1673ffffffffffffffffffffffffffffffffffffffff16815260200190815260200160002060009054906101000a900473ffffffffffffffffffffffffffffffffffffffff1673ffffffffffffffffffffffffffffffffffffffff16639dc29fac89670de0b6b3a7640000848054905062000d3e9190620037dc565b6040518363ffffffff1660e01b815260040162000d5d929190620037af565b600060405180830381600087803b15801562000d7857600080fd5b505af115801562000d8d573d6000803e3d6000fd5b505050505b80600560008c73ffffffffffffffffffffffffffffffffffffffff1673ffffffffffffffffffffffffffffffffffffffff16815260200190815260200160002060008b73ffffffffffffffffffffffffffffffffffffffff1673ffffffffffffffffffffffffffffffffffffffff168152602001908152602001600020600087878681811062000e275762000e2662003598565b5b90506020020135815260200190815260200160002090805462000e4c92919062002a8e565b5050808062000e5b9062003704565b915050620007c8565b50979650505050505050565b60008073ffffffffffffffffffffffffffffffffffffffff16600360008973ffffffffffffffffffffffffffffffffffffffff1673ffffffffffffffffffffffffffffffffffffffff16815260200190815260200160002060009054906101000a900473ffffffffffffffffffffffffffffffffffffffff1673ffffffffffffffffffffffffffffffffffffffff16141562000f0b57600080fd5b60005b8585905081101562000fbf578773ffffffffffffffffffffffffffffffffffffffff166342842e0e8a3089898681811062000f4e5762000f4d62003598565b5b905060200201356040518463ffffffff1660e01b815260040162000f75939291906200365d565b600060405180830381600087803b15801562000f9057600080fd5b505af115801562000fa5573d6000803e3d6000fd5b50505050808062000fb69062003704565b91505062000f0e565b5062000fd087878787878762002828565b9050600360008873ffffffffffffffffffffffffffffffffffffffff1673ffffffffffffffffffffffffffffffffffffffff16815260200190815260200160002060009054906101000a900473ffffffffffffffffffffffffffffffffffffffff1673ffffffffffffffffffffffffffffffffffffffff166340c10f1989670de0b6b3a764000084620010649190620037dc565b6040518363ffffffff1660e01b815260040162001083929190620037af565b600060405180830381600087803b1580156200109e57600080fd5b505af1158015620010b3573d6000803e3d6000fd5b50505050979650505050505050565b600063150b7a0260e01b9050949350505050565b60046020528160005260406000206020528060005260406000206000915091509054906101000a900473ffffffffffffffffffffffffffffffffffffffff1681565b60036020528060005260406000206000915054906101000a900473ffffffffffffffffffffffffffffffffffffffff1681565b60008073ffffffffffffffffffffffffffffffffffffffff16600460008573ffffffffffffffffffffffffffffffffffffffff1673ffffffffffffffffffffffffffffffffffffffff168152602001908152602001600020600084815260200190815260200160002060009054906101000a900473ffffffffffffffffffffffffffffffffffffffff1673ffffffffffffffffffffffffffffffffffffffff161415620011f757600080fd5b600460008473ffffffffffffffffffffffffffffffffffffffff1673ffffffffffffffffffffffffffffffffffffffff168152602001908152602001600020600083815260200190815260200160002060009054906101000a900473ffffffffffffffffffffffffffffffffffffffff16905092915050565b60056020528360005260406000206020528260005260406000206020528160005260406000208181548110620012a557600080fd5b906000526020600020016000935093505050505481565b600080821115620014af57600073ffffffffffffffffffffffffffffffffffffffff16600460008573ffffffffffffffffffffffffffffffffffffffff1673ffffffffffffffffffffffffffffffffffffffff168152602001908152602001600020600084815260200190815260200160002060009054906101000a900473ffffffffffffffffffffffffffffffffffffffff1673ffffffffffffffffffffffffffffffffffffffff16146200137157600080fd5b6040516200137f9062002ae5565b6200138a90620038ee565b604051809103906000f080158015620013a7573d6000803e3d6000fd5b50600460008573ffffffffffffffffffffffffffffffffffffffff1673ffffffffffffffffffffffffffffffffffffffff168152602001908152602001600020600084815260200190815260200160002060006101000a81548173ffffffffffffffffffffffffffffffffffffffff021916908373ffffffffffffffffffffffffffffffffffffffff160217905550600460008473ffffffffffffffffffffffffffffffffffffffff1673ffffffffffffffffffffffffffffffffffffffff168152602001908152602001600020600083815260200190815260200160002060009054906101000a900473ffffffffffffffffffffffffffffffffffffffff1690506200165f565b600073ffffffffffffffffffffffffffffffffffffffff16600360008573ffffffffffffffffffffffffffffffffffffffff1673ffffffffffffffffffffffffffffffffffffffff16815260200190815260200160002060009054906101000a900473ffffffffffffffffffffffffffffffffffffffff1673ffffffffffffffffffffffffffffffffffffffff16146200154857600080fd5b604051620015569062002ae5565b6200156190620039c5565b604051809103906000f0801580156200157e573d6000803e3d6000fd5b50600360008573ffffffffffffffffffffffffffffffffffffffff1673ffffffffffffffffffffffffffffffffffffffff16815260200190815260200160002060006101000a81548173ffffffffffffffffffffffffffffffffffffffff021916908373ffffffffffffffffffffffffffffffffffffffff160217905550600360008473ffffffffffffffffffffffffffffffffffffffff1673ffffffffffffffffffffffffffffffffffffffff16815260200190815260200160002060009054906101000a900473ffffffffffffffffffffffffffffffffffffffff1690505b92915050565b6200166f620027a3565b6200167b6000620029c2565b565b60008073ffffffffffffffffffffffffffffffffffffffff16600360008473ffffffffffffffffffffffffffffffffffffffff1673ffffffffffffffffffffffffffffffffffffffff16815260200190815260200160002060009054906101000a900473ffffffffffffffffffffffffffffffffffffffff1673ffffffffffffffffffffffffffffffffffffffff1614156200171857600080fd5b600360008373ffffffffffffffffffffffffffffffffffffffff1673ffffffffffffffffffffffffffffffffffffffff16815260200190815260200160002060009054906101000a900473ffffffffffffffffffffffffffffffffffffffff169050919050565b60008060009054906101000a900473ffffffffffffffffffffffffffffffffffffffff16905090565b600063bc197c8160e01b905095945050505050565b6000600260009054906101000a900473ffffffffffffffffffffffffffffffffffffffff1673ffffffffffffffffffffffffffffffffffffffff163373ffffffffffffffffffffffffffffffffffffffff161480620018695750600160009054906101000a900473ffffffffffffffffffffffffffffffffffffffff1673ffffffffffffffffffffffffffffffffffffffff163373ffffffffffffffffffffffffffffffffffffffff16145b6200187357600080fd5b600073ffffffffffffffffffffffffffffffffffffffff16600360008773ffffffffffffffffffffffffffffffffffffffff1673ffffffffffffffffffffffffffffffffffffffff16815260200190815260200160002060009054906101000a900473ffffffffffffffffffffffffffffffffffffffff1673ffffffffffffffffffffffffffffffffffffffff1614156200190d57600080fd5b60005b8383905081101562001a91578573ffffffffffffffffffffffffffffffffffffffff166342842e0e883087878681811062001950576200194f62003598565b5b905060200201356040518463ffffffff1660e01b815260040162001977939291906200365d565b600060405180830381600087803b1580156200199257600080fd5b505af1158015620019a7573d6000803e3d6000fd5b50505050600560008773ffffffffffffffffffffffffffffffffffffffff1673ffffffffffffffffffffffffffffffffffffffff16815260200190815260200160002060008673ffffffffffffffffffffffffffffffffffffffff1673ffffffffffffffffffffffffffffffffffffffff168152602001908152602001600020600080815260200190815260200160002084848381811062001a4e5762001a4d62003598565b5b905060200201359080600181540180825580915050600190039060005260206000200160009091909190915055808062001a889062003704565b91505062001910565b50828290509050600360008673ffffffffffffffffffffffffffffffffffffffff1673ffffffffffffffffffffffffffffffffffffffff16815260200190815260200160002060009054906101000a900473ffffffffffffffffffffffffffffffffffffffff1673ffffffffffffffffffffffffffffffffffffffff166340c10f1987670de0b6b3a76400008462001b2a9190620037dc565b6040518363ffffffff1660e01b815260040162001b49929190620037af565b600060405180830381600087803b15801562001b6457600080fd5b505af115801562001b79573d6000803e3d6000fd5b5050505095945050505050565b6000600260009054906101000a900473ffffffffffffffffffffffffffffffffffffffff1673ffffffffffffffffffffffffffffffffffffffff163373ffffffffffffffffffffffffffffffffffffffff16148062001c325750600160009054906101000a900473ffffffffffffffffffffffffffffffffffffffff1673ffffffffffffffffffffffffffffffffffffffff163373ffffffffffffffffffffffffffffffffffffffff16145b62001c3c57600080fd5b83839050868690501462001c4f57600080fd5b6000905060005b8686905081101562001f3157600073ffffffffffffffffffffffffffffffffffffffff16600460008a73ffffffffffffffffffffffffffffffffffffffff1673ffffffffffffffffffffffffffffffffffffffff168152602001908152602001600020600089898581811062001cd15762001cd062003598565b5b90506020020135815260200190815260200160002060009054906101000a900473ffffffffffffffffffffffffffffffffffffffff1673ffffffffffffffffffffffffffffffffffffffff16141562001d2957600080fd5b600460008973ffffffffffffffffffffffffffffffffffffffff1673ffffffffffffffffffffffffffffffffffffffff168152602001908152602001600020600088888481811062001d805762001d7f62003598565b5b90506020020135815260200190815260200160002060009054906101000a900473ffffffffffffffffffffffffffffffffffffffff1673ffffffffffffffffffffffffffffffffffffffff166340c10f198487878581811062001de85762001de762003598565b5b905060200201356040518363ffffffff1660e01b815260040162001e0e929190620037af565b600060405180830381600087803b15801562001e2957600080fd5b505af115801562001e3e573d6000803e3d6000fd5b505050508773ffffffffffffffffffffffffffffffffffffffff1663f242432a84308a8a8681811062001e765762001e7562003598565b5b9050602002013589898781811062001e935762001e9262003598565b5b905060200201356040518563ffffffff1660e01b815260040162001ebb949392919062003a5d565b600060405180830381600087803b15801562001ed657600080fd5b505af115801562001eeb573d6000803e3d6000fd5b5050505084848281811062001f055762001f0462003598565b5b905060200201358262001f19919062003752565b9150808062001f289062003704565b91505062001c56565b509695505050505050565b6000600360008673ffffffffffffffffffffffffffffffffffffffff1673ffffffffffffffffffffffffffffffffffffffff16815260200190815260200160002060009054906101000a900473ffffffffffffffffffffffffffffffffffffffff1673ffffffffffffffffffffffffffffffffffffffff16639dc29fac83856040518363ffffffff1660e01b815260040162001fda929190620037af565b600060405180830381600087803b15801562001ff557600080fd5b505af11580156200200a573d6000803e3d6000fd5b5050505060005b670de0b6b3a76400008462002027919062003625565b8110156200228a576000600560008873ffffffffffffffffffffffffffffffffffffffff1673ffffffffffffffffffffffffffffffffffffffff16815260200190815260200160002060008773ffffffffffffffffffffffffffffffffffffffff1673ffffffffffffffffffffffffffffffffffffffff168152602001908152602001600020600080815260200190815260200160002090508673ffffffffffffffffffffffffffffffffffffffff166342842e0e3086848681548110620020f457620020f362003598565b5b90600052602060002001546040518463ffffffff1660e01b81526004016200211f939291906200365d565b600060405180830381600087803b1580156200213a57600080fd5b505af11580156200214f573d6000803e3d6000fd5b5050505080600182805490506200216791906200369a565b815481106200217b576200217a62003598565b5b90600052602060002001548183815481106200219c576200219b62003598565b5b906000526020600020018190555080805480620021be57620021bd620036d5565b5b6001900381819060005260206000200160009055905580600560008973ffffffffffffffffffffffffffffffffffffffff1673ffffffffffffffffffffffffffffffffffffffff16815260200190815260200160002060008873ffffffffffffffffffffffffffffffffffffffff1673ffffffffffffffffffffffffffffffffffffffff16815260200190815260200160002060008081526020019081526020016000209080546200227292919062002a8e565b50508080620022819062003704565b91505062002011565b50670de0b6b3a764000083620022a1919062003625565b9050949350505050565b600063f23a6e6160e01b905095945050505050565b620022ca620027a3565b600073ffffffffffffffffffffffffffffffffffffffff168173ffffffffffffffffffffffffffffffffffffffff1614156200233d576040517f08c379a0000000000000000000000000000000000000000000000000000000008152600401620023349062003b35565b60405180910390fd5b6200234881620029c2565b50565b6000600260009054906101000a900473ffffffffffffffffffffffffffffffffffffffff1673ffffffffffffffffffffffffffffffffffffffff163373ffffffffffffffffffffffffffffffffffffffff161480620023f75750600160009054906101000a900473ffffffffffffffffffffffffffffffffffffffff1673ffffffffffffffffffffffffffffffffffffffff163373ffffffffffffffffffffffffffffffffffffffff16145b6200240157600080fd5b8383905086869050146200244c576040517f08c379a0000000000000000000000000000000000000000000000000000000008152600401620024439062003ba7565b60405180910390fd5b6000905060005b868690508110156200272e57600073ffffffffffffffffffffffffffffffffffffffff16600460008a73ffffffffffffffffffffffffffffffffffffffff1673ffffffffffffffffffffffffffffffffffffffff1681526020019081526020016000206000898985818110620024ce57620024cd62003598565b5b90506020020135815260200190815260200160002060009054906101000a900473ffffffffffffffffffffffffffffffffffffffff1673ffffffffffffffffffffffffffffffffffffffff1614156200252657600080fd5b600460008973ffffffffffffffffffffffffffffffffffffffff1673ffffffffffffffffffffffffffffffffffffffff16815260200190815260200160002060008888848181106200257d576200257c62003598565b5b90506020020135815260200190815260200160002060009054906101000a900473ffffffffffffffffffffffffffffffffffffffff1673ffffffffffffffffffffffffffffffffffffffff16639dc29fac84878785818110620025e557620025e462003598565b5b905060200201356040518363ffffffff1660e01b81526004016200260b929190620037af565b600060405180830381600087803b1580156200262657600080fd5b505af11580156200263b573d6000803e3d6000fd5b505050508773ffffffffffffffffffffffffffffffffffffffff1663f242432a30858a8a8681811062002673576200267262003598565b5b9050602002013589898781811062002690576200268f62003598565b5b905060200201356040518563ffffffff1660e01b8152600401620026b8949392919062003a5d565b600060405180830381600087803b158015620026d357600080fd5b505af1158015620026e8573d6000803e3d6000fd5b5050505084848281811062002702576200270162003598565b5b905060200201358262002716919062003752565b91508080620027259062003704565b91505062002453565b509695505050505050565b60007f01ffc9a7000000000000000000000000000000000000000000000000000000007bffffffffffffffffffffffffffffffffffffffffffffffffffffffff1916827bffffffffffffffffffffffffffffffffffffffffffffffffffffffff1916149050919050565b620027ad62002a86565b73ffffffffffffffffffffffffffffffffffffffff16620027cd6200177f565b73ffffffffffffffffffffffffffffffffffffffff161462002826576040517f08c379a00000000000000000000000000000000000000000000000000000000081526004016200281d9062003c19565b60405180910390fd5b565b60008083839050868690506200283f919062003c3b565b146200284a57600080fd5b6000838390508686905062002860919062003625565b905060005b84849050811015620029b05760005b828110156200299957600560008b73ffffffffffffffffffffffffffffffffffffffff1673ffffffffffffffffffffffffffffffffffffffff16815260200190815260200160002060008a73ffffffffffffffffffffffffffffffffffffffff1673ffffffffffffffffffffffffffffffffffffffff168152602001908152602001600020600087878581811062002911576200291062003598565b5b90506020020135815260200190815260200160002088888386620029369190620037dc565b8562002943919062003752565b81811062002956576200295562003598565b5b9050602002013590806001815401808255809150506001900390600052602060002001600090919091909150558080620029909062003704565b91505062002874565b508080620029a79062003704565b91505062002865565b50858590509150509695505050505050565b60008060009054906101000a900473ffffffffffffffffffffffffffffffffffffffff169050816000806101000a81548173ffffffffffffffffffffffffffffffffffffffff021916908373ffffffffffffffffffffffffffffffffffffffff1602179055508173ffffffffffffffffffffffffffffffffffffffff168173ffffffffffffffffffffffffffffffffffffffff167f8be0079c531659141344cd1fd0a4f28419497f9722a3daafe3b4186f6b6457e060405160405180910390a35050565b600033905090565b82805482825590600052602060002090810192821562002ad25760005260206000209182015b8281111562002ad157825482559160010191906001019062002ab4565b5b50905062002ae1919062002af3565b5090565b61208f8062003c7483390190565b5b8082111562002b0e57600081600090555060010162002af4565b5090565b6000604051905090565b600080fd5b600080fd5b60007fffffffff0000000000000000000000000000000000000000000000000000000082169050919050565b62002b5d8162002b26565b811462002b6957600080fd5b50565b60008135905062002b7d8162002b52565b92915050565b60006020828403121562002b9c5762002b9b62002b1c565b5b600062002bac8482850162002b6c565b91505092915050565b60008115159050919050565b62002bcc8162002bb5565b82525050565b600060208201905062002be9600083018462002bc1565b92915050565b600073ffffffffffffffffffffffffffffffffffffffff82169050919050565b600062002c1c8262002bef565b9050919050565b62002c2e8162002c0f565b811462002c3a57600080fd5b50565b60008135905062002c4e8162002c23565b92915050565b6000806040838503121562002c6e5762002c6d62002b1c565b5b600062002c7e8582860162002c3d565b925050602062002c918582860162002c3d565b9150509250929050565b600080fd5b600080fd5b600080fd5b60008083601f84011262002cc35762002cc262002c9b565b5b8235905067ffffffffffffffff81111562002ce35762002ce262002ca0565b5b60208301915083602082028301111562002d025762002d0162002ca5565b5b9250929050565b600080600080600080600060a0888a03121562002d2b5762002d2a62002b1c565b5b600062002d3b8a828b0162002c3d565b975050602062002d4e8a828b0162002c3d565b965050604062002d618a828b0162002c3d565b955050606088013567ffffffffffffffff81111562002d855762002d8462002b21565b5b62002d938a828b0162002caa565b9450945050608088013567ffffffffffffffff81111562002db95762002db862002b21565b5b62002dc78a828b0162002caa565b925092505092959891949750929550565b6000819050919050565b62002ded8162002dd8565b82525050565b600060208201905062002e0a600083018462002de2565b92915050565b62002e1b8162002dd8565b811462002e2757600080fd5b50565b60008135905062002e3b8162002e10565b92915050565b600080fd5b6000601f19601f8301169050919050565b7f4e487b7100000000000000000000000000000000000000000000000000000000600052604160045260246000fd5b62002e918262002e46565b810181811067ffffffffffffffff8211171562002eb35762002eb262002e57565b5b80604052505050565b600062002ec862002b12565b905062002ed6828262002e86565b919050565b600067ffffffffffffffff82111562002ef95762002ef862002e57565b5b62002f048262002e46565b9050602081019050919050565b82818337600083830152505050565b600062002f3762002f318462002edb565b62002ebc565b90508281526020810184848401111562002f565762002f5562002e41565b5b62002f6384828562002f11565b509392505050565b600082601f83011262002f835762002f8262002c9b565b5b813562002f9584826020860162002f20565b91505092915050565b6000806000806080858703121562002fbb5762002fba62002b1c565b5b600062002fcb8782880162002c3d565b945050602062002fde8782880162002c3d565b935050604062002ff18782880162002e2a565b925050606085013567ffffffffffffffff81111562003015576200301462002b21565b5b620030238782880162002f6b565b91505092959194509250565b6200303a8162002b26565b82525050565b60006020820190506200305760008301846200302f565b92915050565b6000806040838503121562003077576200307662002b1c565b5b6000620030878582860162002c3d565b92505060206200309a8582860162002e2a565b9150509250929050565b620030af8162002c0f565b82525050565b6000602082019050620030cc6000830184620030a4565b92915050565b600060208284031215620030eb57620030ea62002b1c565b5b6000620030fb8482850162002c3d565b91505092915050565b6000806000806080858703121562003121576200312062002b1c565b5b6000620031318782880162002c3d565b9450506020620031448782880162002c3d565b9350506040620031578782880162002e2a565b92505060606200316a8782880162002e2a565b91505092959194509250565b600067ffffffffffffffff82111562003194576200319362002e57565b5b602082029050602081019050919050565b6000620031bc620031b68462003176565b62002ebc565b90508083825260208201905060208402830185811115620031e257620031e162002ca5565b5b835b818110156200320f5780620031fa888262002e2a565b845260208401935050602081019050620031e4565b5050509392505050565b600082601f83011262003231576200323062002c9b565b5b813562003243848260208601620031a5565b91505092915050565b600080600080600060a086880312156200326b576200326a62002b1c565b5b60006200327b8882890162002c3d565b95505060206200328e8882890162002c3d565b945050604086013567ffffffffffffffff811115620032b257620032b162002b21565b5b620032c08882890162003219565b935050606086013567ffffffffffffffff811115620032e457620032e362002b21565b5b620032f28882890162003219565b925050608086013567ffffffffffffffff81111562003316576200331562002b21565b5b620033248882890162002f6b565b9150509295509295909350565b60008060008060006080868803121562003350576200334f62002b1c565b5b6000620033608882890162002c3d565b9550506020620033738882890162002c3d565b9450506040620033868882890162002c3d565b935050606086013567ffffffffffffffff811115620033aa57620033a962002b21565b5b620033b88882890162002caa565b92509250509295509295909350565b60008060008060008060808789031215620033e757620033e662002b1c565b5b6000620033f789828a0162002c3d565b965050602087013567ffffffffffffffff8111156200341b576200341a62002b21565b5b6200342989828a0162002caa565b9550955050604087013567ffffffffffffffff8111156200344f576200344e62002b21565b5b6200345d89828a0162002caa565b935093505060606200347289828a0162002c3d565b9150509295509295509295565b600080600080608085870312156200349c576200349b62002b1c565b5b6000620034ac8782880162002c3d565b9450506020620034bf8782880162002c3d565b9350506040620034d28782880162002e2a565b9250506060620034e58782880162002c3d565b91505092959194509250565b600080600080600060a0868803121562003510576200350f62002b1c565b5b6000620035208882890162002c3d565b9550506020620035338882890162002c3d565b9450506040620035468882890162002e2a565b9350506060620035598882890162002e2a565b925050608086013567ffffffffffffffff8111156200357d576200357c62002b21565b5b6200358b8882890162002f6b565b9150509295509295909350565b7f4e487b7100000000000000000000000000000000000000000000000000000000600052603260045260246000fd5b7f4e487b7100000000000000000000000000000000000000000000000000000000600052601260045260246000fd5b7f4e487b7100000000000000000000000000000000000000000000000000000000600052601160045260246000fd5b6000620036328262002dd8565b91506200363f8362002dd8565b925082620036525762003651620035c7565b5b828204905092915050565b6000606082019050620036746000830186620030a4565b620036836020830185620030a4565b62003692604083018462002de2565b949350505050565b6000620036a78262002dd8565b9150620036b48362002dd8565b925082821015620036ca57620036c9620035f6565b5b828203905092915050565b7f4e487b7100000000000000000000000000000000000000000000000000000000600052603160045260246000fd5b6000620037118262002dd8565b91507fffffffffffffffffffffffffffffffffffffffffffffffffffffffffffffffff821415620037475762003746620035f6565b5b600182019050919050565b60006200375f8262002dd8565b91506200376c8362002dd8565b9250827fffffffffffffffffffffffffffffffffffffffffffffffffffffffffffffffff03821115620037a457620037a3620035f6565b5b828201905092915050565b6000604082019050620037c66000830185620030a4565b620037d5602083018462002de2565b9392505050565b6000620037e98262002dd8565b9150620037f68362002dd8565b9250817fffffffffffffffffffffffffffffffffffffffffffffffffffffffffffffffff0483118215151615620038325762003831620035f6565b5b828202905092915050565b600082825260208201905092915050565b7f56544f4b454e3131353500000000000000000000000000000000000000000000600082015250565b600062003886600a836200383d565b915062003893826200384e565b602082019050919050565b7f5654313135350000000000000000000000000000000000000000000000000000600082015250565b6000620038d66006836200383d565b9150620038e3826200389e565b602082019050919050565b60006040820190508181036000830152620039098162003877565b905081810360208301526200391e81620038c7565b9050919050565b7f56544f4b454e3732310000000000000000000000000000000000000000000000600082015250565b60006200395d6009836200383d565b91506200396a8262003925565b602082019050919050565b7f5654373231000000000000000000000000000000000000000000000000000000600082015250565b6000620039ad6005836200383d565b9150620039ba8262003975565b602082019050919050565b60006040820190508181036000830152620039e0816200394e565b90508181036020830152620039f5816200399e565b9050919050565b600082825260208201905092915050565b7f3078000000000000000000000000000000000000000000000000000000000000600082015250565b600062003a45600283620039fc565b915062003a528262003a0d565b602082019050919050565b600060a08201905062003a746000830187620030a4565b62003a836020830186620030a4565b62003a92604083018562002de2565b62003aa1606083018462002de2565b818103608083015262003ab48162003a36565b905095945050505050565b7f4f776e61626c653a206e6577206f776e657220697320746865207a65726f206160008201527f6464726573730000000000000000000000000000000000000000000000000000602082015250565b600062003b1d6026836200383d565b915062003b2a8262003abf565b604082019050919050565b6000602082019050818103600083015262003b508162003b0e565b9050919050565b7f41726773206e6f74206d61746368210000000000000000000000000000000000600082015250565b600062003b8f600f836200383d565b915062003b9c8262003b57565b602082019050919050565b6000602082019050818103600083015262003bc28162003b80565b9050919050565b7f4f776e61626c653a2063616c6c6572206973206e6f7420746865206f776e6572600082015250565b600062003c016020836200383d565b915062003c0e8262003bc9565b602082019050919050565b6000602082019050818103600083015262003c348162003bf2565b9050919050565b600062003c488262002dd8565b915062003c558362002dd8565b92508262003c685762003c67620035c7565b5b82820690509291505056fe60806040523480156200001157600080fd5b506040516200208f3803806200208f8339818101604052810190620000379190620003c5565b620000576200004b620000ac60201b60201c565b620000b460201b60201c565b81600490805190602001906200006f92919062000178565b5080600590805190602001906200008892919062000178565b506001600660006101000a81548160ff0219169083151502179055505050620004af565b600033905090565b60008060009054906101000a900473ffffffffffffffffffffffffffffffffffffffff169050816000806101000a81548173ffffffffffffffffffffffffffffffffffffffff021916908373ffffffffffffffffffffffffffffffffffffffff1602179055508173ffffffffffffffffffffffffffffffffffffffff168173ffffffffffffffffffffffffffffffffffffffff167f8be0079c531659141344cd1fd0a4f28419497f9722a3daafe3b4186f6b6457e060405160405180910390a35050565b828054620001869062000479565b90600052602060002090601f016020900481019282620001aa5760008555620001f6565b82601f10620001c557805160ff1916838001178555620001f6565b82800160010185558215620001f6579182015b82811115620001f5578251825591602001919060010190620001d8565b5b50905062000205919062000209565b5090565b5b80821115620002245760008160009055506001016200020a565b5090565b6000604051905090565b600080fd5b600080fd5b600080fd5b600080fd5b6000601f19601f8301169050919050565b7f4e487b7100000000000000000000000000000000000000000000000000000000600052604160045260246000fd5b620002918262000246565b810181811067ffffffffffffffff82111715620002b357620002b262000257565b5b80604052505050565b6000620002c862000228565b9050620002d6828262000286565b919050565b600067ffffffffffffffff821115620002f957620002f862000257565b5b620003048262000246565b9050602081019050919050565b60005b838110156200033157808201518184015260208101905062000314565b8381111562000341576000848401525b50505050565b60006200035e6200035884620002db565b620002bc565b9050828152602081018484840111156200037d576200037c62000241565b5b6200038a84828562000311565b509392505050565b600082601f830112620003aa57620003a96200023c565b5b8151620003bc84826020860162000347565b91505092915050565b60008060408385031215620003df57620003de62000232565b5b600083015167ffffffffffffffff8111156200040057620003ff62000237565b5b6200040e8582860162000392565b925050602083015167ffffffffffffffff81111562000432576200043162000237565b5b620004408582860162000392565b9150509250929050565b7f4e487b7100000000000000000000000000000000000000000000000000000000600052602260045260246000fd5b600060028204905060018216806200049257607f821691505b60208210811415620004a957620004a86200044a565b5b50919050565b611bd080620004bf6000396000f3fe608060405234801561001057600080fd5b506004361061010b5760003560e01c8063715018a6116100a2578063a457c2d711610071578063a457c2d7146102a8578063a9059cbb146102d8578063db68e9c014610308578063dd62ed3e14610326578063f2fde38b146103565761010b565b8063715018a6146102465780638da5cb5b1461025057806395d89b411461026e5780639dc29fac1461028c5761010b565b8063313ce567116100de578063313ce567146101ac57806339509351146101ca57806340c10f19146101fa57806370a08231146102165761010b565b806306fdde0314610110578063095ea7b31461012e57806318160ddd1461015e57806323b872dd1461017c575b600080fd5b610118610372565b604051610125919061119e565b60405180910390f35b61014860048036038101906101439190611259565b610404565b60405161015591906112b4565b60405180910390f35b610166610427565b60405161017391906112de565b60405180910390f35b610196600480360381019061019191906112f9565b610431565b6040516101a391906112b4565b60405180910390f35b6101b4610460565b6040516101c19190611368565b60405180910390f35b6101e460048036038101906101df9190611259565b610469565b6040516101f191906112b4565b60405180910390f35b610214600480360381019061020f9190611259565b6104a0565b005b610230600480360381019061022b9190611383565b6104b6565b60405161023d91906112de565b60405180910390f35b61024e6104ff565b005b610258610513565b60405161026591906113bf565b60405180910390f35b61027661053c565b604051610283919061119e565b60405180910390f35b6102a660048036038101906102a19190611259565b6105ce565b005b6102c260048036038101906102bd9190611259565b6105e4565b6040516102cf91906112b4565b60405180910390f35b6102f260048036038101906102ed9190611259565b61065b565b6040516102ff91906112b4565b60405180910390f35b61031061067e565b60405161031d91906112b4565b60405180910390f35b610340600480360381019061033b91906113da565b610691565b60405161034d91906112de565b60405180910390f35b610370600480360381019061036b9190611383565b610718565b005b60606004805461038190611449565b80601f01602080910402602001604051908101604052809291908181526020018280546103ad90611449565b80156103fa5780601f106103cf576101008083540402835291602001916103fa565b820191906000526020600020905b8154815290600101906020018083116103dd57829003601f168201915b5050505050905090565b60008061040f61079c565b905061041c8185856107a4565b600191505092915050565b6000600354905090565b60008061043c61079c565b905061044985828561096f565b6104548585856109fb565b60019150509392505050565b60006012905090565b60008061047461079c565b90506104958185856104868589610691565b61049091906114aa565b6107a4565b600191505092915050565b6104a8610c7f565b6104b28282610cfd565b5050565b6000600160008373ffffffffffffffffffffffffffffffffffffffff1673ffffffffffffffffffffffffffffffffffffffff168152602001908152602001600020549050919050565b610507610c7f565b6105116000610e5e565b565b60008060009054906101000a900473ffffffffffffffffffffffffffffffffffffffff16905090565b60606005805461054b90611449565b80601f016020809104026020016040519081016040528092919081815260200182805461057790611449565b80156105c45780601f10610599576101008083540402835291602001916105c4565b820191906000526020600020905b8154815290600101906020018083116105a757829003601f168201915b5050505050905090565b6105d6610c7f565b6105e08282610f22565b5050565b6000806105ef61079c565b905060006105fd8286610691565b905083811015610642576040517f08c379a000000000000000000000000000000000000000000000000000000000815260040161063990611572565b60405180910390fd5b61064f82868684036107a4565b60019250505092915050565b60008061066661079c565b90506106738185856109fb565b600191505092915050565b600660009054906101000a900460ff1681565b6000600260008473ffffffffffffffffffffffffffffffffffffffff1673ffffffffffffffffffffffffffffffffffffffff16815260200190815260200160002060008373ffffffffffffffffffffffffffffffffffffffff1673ffffffffffffffffffffffffffffffffffffffff16815260200190815260200160002054905092915050565b610720610c7f565b600073ffffffffffffffffffffffffffffffffffffffff168173ffffffffffffffffffffffffffffffffffffffff161415610790576040517f08c379a000000000000000000000000000000000000000000000000000000000815260040161078790611604565b60405180910390fd5b61079981610e5e565b50565b600033905090565b600073ffffffffffffffffffffffffffffffffffffffff168373ffffffffffffffffffffffffffffffffffffffff161415610814576040517f08c379a000000000000000000000000000000000000000000000000000000000815260040161080b90611696565b60405180910390fd5b600073ffffffffffffffffffffffffffffffffffffffff168273ffffffffffffffffffffffffffffffffffffffff161415610884576040517f08c379a000000000000000000000000000000000000000000000000000000000815260040161087b90611728565b60405180910390fd5b80600260008573ffffffffffffffffffffffffffffffffffffffff1673ffffffffffffffffffffffffffffffffffffffff16815260200190815260200160002060008473ffffffffffffffffffffffffffffffffffffffff1673ffffffffffffffffffffffffffffffffffffffff168152602001908152602001600020819055508173ffffffffffffffffffffffffffffffffffffffff168373ffffffffffffffffffffffffffffffffffffffff167f8c5be1e5ebec7d5bd14f71427d1e84f3dd0314c0f7b2291e5b200ac8c7c3b9258360405161096291906112de565b60405180910390a3505050565b600061097b8484610691565b90507fffffffffffffffffffffffffffffffffffffffffffffffffffffffffffffffff81146109f557818110156109e7576040517f08c379a00000000000000000000000000000000000000000000000000000000081526004016109de90611794565b60405180910390fd5b6109f484848484036107a4565b5b50505050565b600073ffffffffffffffffffffffffffffffffffffffff168373ffffffffffffffffffffffffffffffffffffffff161415610a6b576040517f08c379a0000000000000000000000000000000000000000000000000000000008152600401610a6290611826565b60405180910390fd5b600073ffffffffffffffffffffffffffffffffffffffff168273ffffffffffffffffffffffffffffffffffffffff161415610adb576040517f08c379a0000000000000000000000000000000000000000000000000000000008152600401610ad2906118b8565b60405180910390fd5b610ae68383836110fb565b6000600160008573ffffffffffffffffffffffffffffffffffffffff1673ffffffffffffffffffffffffffffffffffffffff16815260200190815260200160002054905081811015610b6d576040517f08c379a0000000000000000000000000000000000000000000000000000000008152600401610b649061194a565b60405180910390fd5b818103600160008673ffffffffffffffffffffffffffffffffffffffff1673ffffffffffffffffffffffffffffffffffffffff1681526020019081526020016000208190555081600160008573ffffffffffffffffffffffffffffffffffffffff1673ffffffffffffffffffffffffffffffffffffffff1681526020019081526020016000206000828254610c0291906114aa565b925050819055508273ffffffffffffffffffffffffffffffffffffffff168473ffffffffffffffffffffffffffffffffffffffff167fddf252ad1be2c89b69c2b068fc378daa952ba7f163c4a11628f55a4df523b3ef84604051610c6691906112de565b60405180910390a3610c79848484611100565b50505050565b610c8761079c565b73ffffffffffffffffffffffffffffffffffffffff16610ca5610513565b73ffffffffffffffffffffffffffffffffffffffff1614610cfb576040517f08c379a0000000000000000000000000000000000000000000000000000000008152600401610cf2906119b6565b60405180910390fd5b565b600073ffffffffffffffffffffffffffffffffffffffff168273ffffffffffffffffffffffffffffffffffffffff161415610d6d576040517f08c379a0000000000000000000000000000000000000000000000000000000008152600401610d6490611a22565b60405180910390fd5b610d79600083836110fb565b8060036000828254610d8b91906114aa565b9250508190555080600160008473ffffffffffffffffffffffffffffffffffffffff1673ffffffffffffffffffffffffffffffffffffffff1681526020019081526020016000206000828254610de191906114aa565b925050819055508173ffffffffffffffffffffffffffffffffffffffff16600073ffffffffffffffffffffffffffffffffffffffff167fddf252ad1be2c89b69c2b068fc378daa952ba7f163c4a11628f55a4df523b3ef83604051610e4691906112de565b60405180910390a3610e5a60008383611100565b5050565b60008060009054906101000a900473ffffffffffffffffffffffffffffffffffffffff169050816000806101000a81548173ffffffffffffffffffffffffffffffffffffffff021916908373ffffffffffffffffffffffffffffffffffffffff1602179055508173ffffffffffffffffffffffffffffffffffffffff168173ffffffffffffffffffffffffffffffffffffffff167f8be0079c531659141344cd1fd0a4f28419497f9722a3daafe3b4186f6b6457e060405160405180910390a35050565b600073ffffffffffffffffffffffffffffffffffffffff168273ffffffffffffffffffffffffffffffffffffffff161415610f92576040517f08c379a0000000000000000000000000000000000000000000000000000000008152600401610f8990611ab4565b60405180910390fd5b610f9e826000836110fb565b6000600160008473ffffffffffffffffffffffffffffffffffffffff1673ffffffffffffffffffffffffffffffffffffffff16815260200190815260200160002054905081811015611025576040517f08c379a000000000000000000000000000000000000000000000000000000000815260040161101c90611b46565b60405180910390fd5b818103600160008573ffffffffffffffffffffffffffffffffffffffff1673ffffffffffffffffffffffffffffffffffffffff16815260200190815260200160002081905550816003600082825461107d9190611b66565b92505081905550600073ffffffffffffffffffffffffffffffffffffffff168373ffffffffffffffffffffffffffffffffffffffff167fddf252ad1be2c89b69c2b068fc378daa952ba7f163c4a11628f55a4df523b3ef846040516110e291906112de565b60405180910390a36110f683600084611100565b505050565b505050565b505050565b600081519050919050565b600082825260208201905092915050565b60005b8381101561113f578082015181840152602081019050611124565b8381111561114e576000848401525b50505050565b6000601f19601f8301169050919050565b600061117082611105565b61117a8185611110565b935061118a818560208601611121565b61119381611154565b840191505092915050565b600060208201905081810360008301526111b88184611165565b905092915050565b600080fd5b600073ffffffffffffffffffffffffffffffffffffffff82169050919050565b60006111f0826111c5565b9050919050565b611200816111e5565b811461120b57600080fd5b50565b60008135905061121d816111f7565b92915050565b6000819050919050565b61123681611223565b811461124157600080fd5b50565b6000813590506112538161122d565b92915050565b600080604083850312156112705761126f6111c0565b5b600061127e8582860161120e565b925050602061128f85828601611244565b9150509250929050565b60008115159050919050565b6112ae81611299565b82525050565b60006020820190506112c960008301846112a5565b92915050565b6112d881611223565b82525050565b60006020820190506112f360008301846112cf565b92915050565b600080600060608486031215611312576113116111c0565b5b60006113208682870161120e565b93505060206113318682870161120e565b925050604061134286828701611244565b9150509250925092565b600060ff82169050919050565b6113628161134c565b82525050565b600060208201905061137d6000830184611359565b92915050565b600060208284031215611399576113986111c0565b5b60006113a78482850161120e565b91505092915050565b6113b9816111e5565b82525050565b60006020820190506113d460008301846113b0565b92915050565b600080604083850312156113f1576113f06111c0565b5b60006113ff8582860161120e565b92505060206114108582860161120e565b9150509250929050565b7f4e487b7100000000000000000000000000000000000000000000000000000000600052602260045260246000fd5b6000600282049050600182168061146157607f821691505b602082108114156114755761147461141a565b5b50919050565b7f4e487b7100000000000000000000000000000000000000000000000000000000600052601160045260246000fd5b60006114b582611223565b91506114c083611223565b9250827fffffffffffffffffffffffffffffffffffffffffffffffffffffffffffffffff038211156114f5576114f461147b565b5b828201905092915050565b7f45524332303a2064656372656173656420616c6c6f77616e63652062656c6f7760008201527f207a65726f000000000000000000000000000000000000000000000000000000602082015250565b600061155c602583611110565b915061156782611500565b604082019050919050565b6000602082019050818103600083015261158b8161154f565b9050919050565b7f4f776e61626c653a206e6577206f776e657220697320746865207a65726f206160008201527f6464726573730000000000000000000000000000000000000000000000000000602082015250565b60006115ee602683611110565b91506115f982611592565b604082019050919050565b6000602082019050818103600083015261161d816115e1565b9050919050565b7f45524332303a20617070726f76652066726f6d20746865207a65726f2061646460008201527f7265737300000000000000000000000000000000000000000000000000000000602082015250565b6000611680602483611110565b915061168b82611624565b604082019050919050565b600060208201905081810360008301526116af81611673565b9050919050565b7f45524332303a20617070726f766520746f20746865207a65726f20616464726560008201527f7373000000000000000000000000000000000000000000000000000000000000602082015250565b6000611712602283611110565b915061171d826116b6565b604082019050919050565b6000602082019050818103600083015261174181611705565b9050919050565b7f45524332303a20696e73756666696369656e7420616c6c6f77616e6365000000600082015250565b600061177e601d83611110565b915061178982611748565b602082019050919050565b600060208201905081810360008301526117ad81611771565b9050919050565b7f45524332303a207472616e736665722066726f6d20746865207a65726f20616460008201527f6472657373000000000000000000000000000000000000000000000000000000602082015250565b6000611810602583611110565b915061181b826117b4565b604082019050919050565b6000602082019050818103600083015261183f81611803565b9050919050565b7f45524332303a207472616e7366657220746f20746865207a65726f206164647260008201527f6573730000000000000000000000000000000000000000000000000000000000602082015250565b60006118a2602383611110565b91506118ad82611846565b604082019050919050565b600060208201905081810360008301526118d181611895565b9050919050565b7f45524332303a207472616e7366657220616d6f756e742065786365656473206260008201527f616c616e63650000000000000000000000000000000000000000000000000000602082015250565b6000611934602683611110565b915061193f826118d8565b604082019050919050565b6000602082019050818103600083015261196381611927565b9050919050565b7f4f776e61626c653a2063616c6c6572206973206e6f7420746865206f776e6572600082015250565b60006119a0602083611110565b91506119ab8261196a565b602082019050919050565b600060208201905081810360008301526119cf81611993565b9050919050565b7f45524332303a206d696e7420746f20746865207a65726f206164647265737300600082015250565b6000611a0c601f83611110565b9150611a17826119d6565b602082019050919050565b60006020820190508181036000830152611a3b816119ff565b9050919050565b7f45524332303a206275726e2066726f6d20746865207a65726f2061646472657360008201527f7300000000000000000000000000000000000000000000000000000000000000602082015250565b6000611a9e602183611110565b9150611aa982611a42565b604082019050919050565b60006020820190508181036000830152611acd81611a91565b9050919050565b7f45524332303a206275726e20616d6f756e7420657863656564732062616c616e60008201527f6365000000000000000000000000000000000000000000000000000000000000602082015250565b6000611b30602283611110565b9150611b3b82611ad4565b604082019050919050565b60006020820190508181036000830152611b5f81611b23565b9050919050565b6000611b7182611223565b9150611b7c83611223565b925082821015611b8f57611b8e61147b565b5b82820390509291505056fea26469706673582212201043ae7a15aac47f3933f07637c484fc24cde734278ee0af9ffb2e10a7eeb74764736f6c634300080a0033a264697066735822122054b6d185305c8965a590f963b7ca01e5d68b9d6bf70e373086ff577da7bf48d464736f6c634300080a0033",
			"opcodes": "PUSH1 0x80 PUSH1 0x40 MSTORE CALLVALUE DUP1 ISZERO PUSH3 0x11 JUMPI PUSH1 0x0 DUP1 REVERT JUMPDEST POP PUSH3 0x32 PUSH3 0x26 PUSH3 0x38 PUSH1 0x20 SHL PUSH1 0x20 SHR JUMP JUMPDEST PUSH3 0x40 PUSH1 0x20 SHL PUSH1 0x20 SHR JUMP JUMPDEST PUSH3 0x104 JUMP JUMPDEST PUSH1 0x0 CALLER SWAP1 POP SWAP1 JUMP JUMPDEST PUSH1 0x0 DUP1 PUSH1 0x0 SWAP1 SLOAD SWAP1 PUSH2 0x100 EXP SWAP1 DIV PUSH20 0xFFFFFFFFFFFFFFFFFFFFFFFFFFFFFFFFFFFFFFFF AND SWAP1 POP DUP2 PUSH1 0x0 DUP1 PUSH2 0x100 EXP DUP2 SLOAD DUP2 PUSH20 0xFFFFFFFFFFFFFFFFFFFFFFFFFFFFFFFFFFFFFFFF MUL NOT AND SWAP1 DUP4 PUSH20 0xFFFFFFFFFFFFFFFFFFFFFFFFFFFFFFFFFFFFFFFF AND MUL OR SWAP1 SSTORE POP DUP2 PUSH20 0xFFFFFFFFFFFFFFFFFFFFFFFFFFFFFFFFFFFFFFFF AND DUP2 PUSH20 0xFFFFFFFFFFFFFFFFFFFFFFFFFFFFFFFFFFFFFFFF AND PUSH32 0x8BE0079C531659141344CD1FD0A4F28419497F9722A3DAAFE3B4186F6B6457E0 PUSH1 0x40 MLOAD PUSH1 0x40 MLOAD DUP1 SWAP2 SUB SWAP1 LOG3 POP POP JUMP JUMPDEST PUSH2 0x5D38 DUP1 PUSH3 0x114 PUSH1 0x0 CODECOPY PUSH1 0x0 RETURN INVALID PUSH1 0x80 PUSH1 0x40 MSTORE PUSH1 0x4 CALLDATASIZE LT PUSH3 0x13A JUMPI PUSH1 0x0 CALLDATALOAD PUSH1 0xE0 SHR DUP1 PUSH4 0x715018A6 GT PUSH3 0xAF JUMPI DUP1 PUSH4 0xD7B5C379 GT PUSH3 0x6D JUMPI DUP1 PUSH4 0xD7B5C379 EQ PUSH3 0x4D3 JUMPI DUP1 PUSH4 0xE679F89A EQ PUSH3 0x509 JUMPI DUP1 PUSH4 0xF23A6E61 EQ PUSH3 0x53F JUMPI DUP1 PUSH4 0xF2FDE38B EQ PUSH3 0x583 JUMPI DUP1 PUSH4 0xFDF2CE97 EQ PUSH3 0x5B1 JUMPI PUSH3 0x13A JUMP JUMPDEST DUP1 PUSH4 0x715018A6 EQ PUSH3 0x3CB JUMPI DUP1 PUSH4 0x831250B9 EQ PUSH3 0x3E5 JUMPI DUP1 PUSH4 0x8DA5CB5B EQ PUSH3 0x429 JUMPI DUP1 PUSH4 0xBC197C81 EQ PUSH3 0x459 JUMPI DUP1 PUSH4 0xD2CC4F16 EQ PUSH3 0x49D JUMPI PUSH3 0x13A JUMP JUMPDEST DUP1 PUSH4 0x17432489 GT PUSH3 0xFD JUMPI DUP1 PUSH4 0x17432489 EQ PUSH3 0x277 JUMPI DUP1 PUSH4 0x2138C6CE EQ PUSH3 0x2BB JUMPI DUP1 PUSH4 0x40E9B755 EQ PUSH3 0x2FF JUMPI DUP1 PUSH4 0x44DB7D62 EQ PUSH3 0x343 JUMPI DUP1 PUSH4 0x666A652D EQ PUSH3 0x387 JUMPI PUSH3 0x13A JUMP JUMPDEST DUP1 PUSH4 0x1FFC9A7 EQ PUSH3 0x13F JUMPI DUP1 PUSH4 0x376966B EQ PUSH3 0x183 JUMPI DUP1 PUSH4 0xFAD9D56 EQ PUSH3 0x1C7 JUMPI DUP1 PUSH4 0x12908B01 EQ PUSH3 0x1FD JUMPI DUP1 PUSH4 0x150B7A02 EQ PUSH3 0x233 JUMPI JUMPDEST PUSH1 0x0 DUP1 REVERT JUMPDEST CALLVALUE DUP1 ISZERO PUSH3 0x14C JUMPI PUSH1 0x0 DUP1 REVERT JUMPDEST POP PUSH3 0x16B PUSH1 0x4 DUP1 CALLDATASIZE SUB DUP2 ADD SWAP1 PUSH3 0x165 SWAP2 SWAP1 PUSH3 0x2B83 JUMP JUMPDEST PUSH3 0x5E7 JUMP JUMPDEST PUSH1 0x40 MLOAD PUSH3 0x17A SWAP2 SWAP1 PUSH3 0x2BD2 JUMP JUMPDEST PUSH1 0x40 MLOAD DUP1 SWAP2 SUB SWAP1 RETURN JUMPDEST CALLVALUE DUP1 ISZERO PUSH3 0x190 JUMPI PUSH1 0x0 DUP1 REVERT JUMPDEST POP PUSH3 0x1AF PUSH1 0x4 DUP1 CALLDATASIZE SUB DUP2 ADD SWAP1 PUSH3 0x1A9 SWAP2 SWAP1 PUSH3 0x2C54 JUMP JUMPDEST PUSH3 0x664 JUMP JUMPDEST PUSH1 0x40 MLOAD PUSH3 0x1BE SWAP2 SWAP1 PUSH3 0x2BD2 JUMP JUMPDEST PUSH1 0x40 MLOAD DUP1 SWAP2 SUB SWAP1 RETURN JUMPDEST PUSH3 0x1E5 PUSH1 0x4 DUP1 CALLDATASIZE SUB DUP2 ADD SWAP1 PUSH3 0x1DF SWAP2 SWAP1 PUSH3 0x2D09 JUMP JUMPDEST PUSH3 0x6FC JUMP JUMPDEST PUSH1 0x40 MLOAD PUSH3 0x1F4 SWAP2 SWAP1 PUSH3 0x2DF3 JUMP JUMPDEST PUSH1 0x40 MLOAD DUP1 SWAP2 SUB SWAP1 RETURN JUMPDEST PUSH3 0x21B PUSH1 0x4 DUP1 CALLDATASIZE SUB DUP2 ADD SWAP1 PUSH3 0x215 SWAP2 SWAP1 PUSH3 0x2D09 JUMP JUMPDEST PUSH3 0xE70 JUMP JUMPDEST PUSH1 0x40 MLOAD PUSH3 0x22A SWAP2 SWAP1 PUSH3 0x2DF3 JUMP JUMPDEST PUSH1 0x40 MLOAD DUP1 SWAP2 SUB SWAP1 RETURN JUMPDEST CALLVALUE DUP1 ISZERO PUSH3 0x240 JUMPI PUSH1 0x0 DUP1 REVERT JUMPDEST POP PUSH3 0x25F PUSH1 0x4 DUP1 CALLDATASIZE SUB DUP2 ADD SWAP1 PUSH3 0x259 SWAP2 SWAP1 PUSH3 0x2F9E JUMP JUMPDEST PUSH3 0x10C2 JUMP JUMPDEST PUSH1 0x40 MLOAD PUSH3 0x26E SWAP2 SWAP1 PUSH3 0x3040 JUMP JUMPDEST PUSH1 0x40 MLOAD DUP1 SWAP2 SUB SWAP1 RETURN JUMPDEST CALLVALUE DUP1 ISZERO PUSH3 0x284 JUMPI PUSH1 0x0 DUP1 REVERT JUMPDEST POP PUSH3 0x2A3 PUSH1 0x4 DUP1 CALLDATASIZE SUB DUP2 ADD SWAP1 PUSH3 0x29D SWAP2 SWAP1 PUSH3 0x305D JUMP JUMPDEST PUSH3 0x10D6 JUMP JUMPDEST PUSH1 0x40 MLOAD PUSH3 0x2B2 SWAP2 SWAP1 PUSH3 0x30B5 JUMP JUMPDEST PUSH1 0x40 MLOAD DUP1 SWAP2 SUB SWAP1 RETURN JUMPDEST CALLVALUE DUP1 ISZERO PUSH3 0x2C8 JUMPI PUSH1 0x0 DUP1 REVERT JUMPDEST POP PUSH3 0x2E7 PUSH1 0x4 DUP1 CALLDATASIZE SUB DUP2 ADD SWAP1 PUSH3 0x2E1 SWAP2 SWAP1 PUSH3 0x30D2 JUMP JUMPDEST PUSH3 0x1118 JUMP JUMPDEST PUSH1 0x40 MLOAD PUSH3 0x2F6 SWAP2 SWAP1 PUSH3 0x30B5 JUMP JUMPDEST PUSH1 0x40 MLOAD DUP1 SWAP2 SUB SWAP1 RETURN JUMPDEST CALLVALUE DUP1 ISZERO PUSH3 0x30C JUMPI PUSH1 0x0 DUP1 REVERT JUMPDEST POP PUSH3 0x32B PUSH1 0x4 DUP1 CALLDATASIZE SUB DUP2 ADD SWAP1 PUSH3 0x325 SWAP2 SWAP1 PUSH3 0x305D JUMP JUMPDEST PUSH3 0x114B JUMP JUMPDEST PUSH1 0x40 MLOAD PUSH3 0x33A SWAP2 SWAP1 PUSH3 0x30B5 JUMP JUMPDEST PUSH1 0x40 MLOAD DUP1 SWAP2 SUB SWAP1 RETURN JUMPDEST CALLVALUE DUP1 ISZERO PUSH3 0x350 JUMPI PUSH1 0x0 DUP1 REVERT JUMPDEST POP PUSH3 0x36F PUSH1 0x4 DUP1 CALLDATASIZE SUB DUP2 ADD SWAP1 PUSH3 0x369 SWAP2 SWAP1 PUSH3 0x3104 JUMP JUMPDEST PUSH3 0x1270 JUMP JUMPDEST PUSH1 0x40 MLOAD PUSH3 0x37E SWAP2 SWAP1 PUSH3 0x2DF3 JUMP JUMPDEST PUSH1 0x40 MLOAD DUP1 SWAP2 SUB SWAP1 RETURN JUMPDEST CALLVALUE DUP1 ISZERO PUSH3 0x394 JUMPI PUSH1 0x0 DUP1 REVERT JUMPDEST POP PUSH3 0x3B3 PUSH1 0x4 DUP1 CALLDATASIZE SUB DUP2 ADD SWAP1 PUSH3 0x3AD SWAP2 SWAP1 PUSH3 0x305D JUMP JUMPDEST PUSH3 0x12BC JUMP JUMPDEST PUSH1 0x40 MLOAD PUSH3 0x3C2 SWAP2 SWAP1 PUSH3 0x30B5 JUMP JUMPDEST PUSH1 0x40 MLOAD DUP1 SWAP2 SUB SWAP1 RETURN JUMPDEST CALLVALUE DUP1 ISZERO PUSH3 0x3D8 JUMPI PUSH1 0x0 DUP1 REVERT JUMPDEST POP PUSH3 0x3E3 PUSH3 0x1665 JUMP JUMPDEST STOP JUMPDEST CALLVALUE DUP1 ISZERO PUSH3 0x3F2 JUMPI PUSH1 0x0 DUP1 REVERT JUMPDEST POP PUSH3 0x411 PUSH1 0x4 DUP1 CALLDATASIZE SUB DUP2 ADD SWAP1 PUSH3 0x40B SWAP2 SWAP1 PUSH3 0x30D2 JUMP JUMPDEST PUSH3 0x167D JUMP JUMPDEST PUSH1 0x40 MLOAD PUSH3 0x420 SWAP2 SWAP1 PUSH3 0x30B5 JUMP JUMPDEST PUSH1 0x40 MLOAD DUP1 SWAP2 SUB SWAP1 RETURN JUMPDEST CALLVALUE DUP1 ISZERO PUSH3 0x436 JUMPI PUSH1 0x0 DUP1 REVERT JUMPDEST POP PUSH3 0x441 PUSH3 0x177F JUMP JUMPDEST PUSH1 0x40 MLOAD PUSH3 0x450 SWAP2 SWAP1 PUSH3 0x30B5 JUMP JUMPDEST PUSH1 0x40 MLOAD DUP1 SWAP2 SUB SWAP1 RETURN JUMPDEST CALLVALUE DUP1 ISZERO PUSH3 0x466 JUMPI PUSH1 0x0 DUP1 REVERT JUMPDEST POP PUSH3 0x485 PUSH1 0x4 DUP1 CALLDATASIZE SUB DUP2 ADD SWAP1 PUSH3 0x47F SWAP2 SWAP1 PUSH3 0x324C JUMP JUMPDEST PUSH3 0x17A8 JUMP JUMPDEST PUSH1 0x40 MLOAD PUSH3 0x494 SWAP2 SWAP1 PUSH3 0x3040 JUMP JUMPDEST PUSH1 0x40 MLOAD DUP1 SWAP2 SUB SWAP1 RETURN JUMPDEST PUSH3 0x4BB PUSH1 0x4 DUP1 CALLDATASIZE SUB DUP2 ADD SWAP1 PUSH3 0x4B5 SWAP2 SWAP1 PUSH3 0x3331 JUMP JUMPDEST PUSH3 0x17BD JUMP JUMPDEST PUSH1 0x40 MLOAD PUSH3 0x4CA SWAP2 SWAP1 PUSH3 0x2DF3 JUMP JUMPDEST PUSH1 0x40 MLOAD DUP1 SWAP2 SUB SWAP1 RETURN JUMPDEST PUSH3 0x4F1 PUSH1 0x4 DUP1 CALLDATASIZE SUB DUP2 ADD SWAP1 PUSH3 0x4EB SWAP2 SWAP1 PUSH3 0x33C7 JUMP JUMPDEST PUSH3 0x1B86 JUMP JUMPDEST PUSH1 0x40 MLOAD PUSH3 0x500 SWAP2 SWAP1 PUSH3 0x2DF3 JUMP JUMPDEST PUSH1 0x40 MLOAD DUP1 SWAP2 SUB SWAP1 RETURN JUMPDEST PUSH3 0x527 PUSH1 0x4 DUP1 CALLDATASIZE SUB DUP2 ADD SWAP1 PUSH3 0x521 SWAP2 SWAP1 PUSH3 0x347F JUMP JUMPDEST PUSH3 0x1F3C JUMP JUMPDEST PUSH1 0x40 MLOAD PUSH3 0x536 SWAP2 SWAP1 PUSH3 0x2DF3 JUMP JUMPDEST PUSH1 0x40 MLOAD DUP1 SWAP2 SUB SWAP1 RETURN JUMPDEST CALLVALUE DUP1 ISZERO PUSH3 0x54C JUMPI PUSH1 0x0 DUP1 REVERT JUMPDEST POP PUSH3 0x56B PUSH1 0x4 DUP1 CALLDATASIZE SUB DUP2 ADD SWAP1 PUSH3 0x565 SWAP2 SWAP1 PUSH3 0x34F1 JUMP JUMPDEST PUSH3 0x22AB JUMP JUMPDEST PUSH1 0x40 MLOAD PUSH3 0x57A SWAP2 SWAP1 PUSH3 0x3040 JUMP JUMPDEST PUSH1 0x40 MLOAD DUP1 SWAP2 SUB SWAP1 RETURN JUMPDEST CALLVALUE DUP1 ISZERO PUSH3 0x590 JUMPI PUSH1 0x0 DUP1 REVERT JUMPDEST POP PUSH3 0x5AF PUSH1 0x4 DUP1 CALLDATASIZE SUB DUP2 ADD SWAP1 PUSH3 0x5A9 SWAP2 SWAP1 PUSH3 0x30D2 JUMP JUMPDEST PUSH3 0x22C0 JUMP JUMPDEST STOP JUMPDEST PUSH3 0x5CF PUSH1 0x4 DUP1 CALLDATASIZE SUB DUP2 ADD SWAP1 PUSH3 0x5C9 SWAP2 SWAP1 PUSH3 0x33C7 JUMP JUMPDEST PUSH3 0x234B JUMP JUMPDEST PUSH1 0x40 MLOAD PUSH3 0x5DE SWAP2 SWAP1 PUSH3 0x2DF3 JUMP JUMPDEST PUSH1 0x40 MLOAD DUP1 SWAP2 SUB SWAP1 RETURN JUMPDEST PUSH1 0x0 PUSH32 0x4E2312E000000000000000000000000000000000000000000000000000000000 PUSH28 0xFFFFFFFFFFFFFFFFFFFFFFFFFFFFFFFFFFFFFFFFFFFFFFFFFFFFFFFF NOT AND DUP3 PUSH28 0xFFFFFFFFFFFFFFFFFFFFFFFFFFFFFFFFFFFFFFFFFFFFFFFFFFFFFFFF NOT AND EQ DUP1 PUSH3 0x65D JUMPI POP PUSH3 0x65C DUP3 PUSH3 0x2739 JUMP JUMPDEST JUMPDEST SWAP1 POP SWAP2 SWAP1 POP JUMP JUMPDEST PUSH1 0x0 PUSH3 0x670 PUSH3 0x27A3 JUMP JUMPDEST DUP3 PUSH1 0x2 PUSH1 0x0 PUSH2 0x100 EXP DUP2 SLOAD DUP2 PUSH20 0xFFFFFFFFFFFFFFFFFFFFFFFFFFFFFFFFFFFFFFFF MUL NOT AND SWAP1 DUP4 PUSH20 0xFFFFFFFFFFFFFFFFFFFFFFFFFFFFFFFFFFFFFFFF AND MUL OR SWAP1 SSTORE POP DUP2 PUSH1 0x1 PUSH1 0x0 PUSH2 0x100 EXP DUP2 SLOAD DUP2 PUSH20 0xFFFFFFFFFFFFFFFFFFFFFFFFFFFFFFFFFFFFFFFF MUL NOT AND SWAP1 DUP4 PUSH20 0xFFFFFFFFFFFFFFFFFFFFFFFFFFFFFFFFFFFFFFFF AND MUL OR SWAP1 SSTORE POP PUSH1 0x1 SWAP1 POP SWAP3 SWAP2 POP POP JUMP JUMPDEST PUSH1 0x0 PUSH1 0x2 PUSH1 0x0 SWAP1 SLOAD SWAP1 PUSH2 0x100 EXP SWAP1 DIV PUSH20 0xFFFFFFFFFFFFFFFFFFFFFFFFFFFFFFFFFFFFFFFF AND PUSH20 0xFFFFFFFFFFFFFFFFFFFFFFFFFFFFFFFFFFFFFFFF AND CALLER PUSH20 0xFFFFFFFFFFFFFFFFFFFFFFFFFFFFFFFFFFFFFFFF AND EQ DUP1 PUSH3 0x7A8 JUMPI POP PUSH1 0x1 PUSH1 0x0 SWAP1 SLOAD SWAP1 PUSH2 0x100 EXP SWAP1 DIV PUSH20 0xFFFFFFFFFFFFFFFFFFFFFFFFFFFFFFFFFFFFFFFF AND PUSH20 0xFFFFFFFFFFFFFFFFFFFFFFFFFFFFFFFFFFFFFFFF AND CALLER PUSH20 0xFFFFFFFFFFFFFFFFFFFFFFFFFFFFFFFFFFFFFFFF AND EQ JUMPDEST PUSH3 0x7B2 JUMPI PUSH1 0x0 DUP1 REVERT JUMPDEST DUP5 DUP5 SWAP1 POP DUP4 DUP4 SWAP1 POP EQ PUSH3 0x7C5 JUMPI PUSH1 0x0 DUP1 REVERT JUMPDEST PUSH1 0x0 JUMPDEST DUP4 DUP4 SWAP1 POP DUP2 LT ISZERO PUSH3 0xE64 JUMPI PUSH1 0x0 PUSH1 0x5 PUSH1 0x0 DUP12 PUSH20 0xFFFFFFFFFFFFFFFFFFFFFFFFFFFFFFFFFFFFFFFF AND PUSH20 0xFFFFFFFFFFFFFFFFFFFFFFFFFFFFFFFFFFFFFFFF AND DUP2 MSTORE PUSH1 0x20 ADD SWAP1 DUP2 MSTORE PUSH1 0x20 ADD PUSH1 0x0 KECCAK256 PUSH1 0x0 DUP11 PUSH20 0xFFFFFFFFFFFFFFFFFFFFFFFFFFFFFFFFFFFFFFFF AND PUSH20 0xFFFFFFFFFFFFFFFFFFFFFFFFFFFFFFFFFFFFFFFF AND DUP2 MSTORE PUSH1 0x20 ADD SWAP1 DUP2 MSTORE PUSH1 0x20 ADD PUSH1 0x0 KECCAK256 PUSH1 0x0 DUP7 DUP7 DUP6 DUP2 DUP2 LT PUSH3 0x86A JUMPI PUSH3 0x869 PUSH3 0x3598 JUMP JUMPDEST JUMPDEST SWAP1 POP PUSH1 0x20 MUL ADD CALLDATALOAD DUP2 MSTORE PUSH1 0x20 ADD SWAP1 DUP2 MSTORE PUSH1 0x20 ADD PUSH1 0x0 KECCAK256 SWAP1 POP PUSH8 0xDE0B6B3A7640000 DUP8 DUP8 DUP5 DUP2 DUP2 LT PUSH3 0x8A0 JUMPI PUSH3 0x89F PUSH3 0x3598 JUMP JUMPDEST JUMPDEST SWAP1 POP PUSH1 0x20 MUL ADD CALLDATALOAD PUSH3 0x8B3 SWAP2 SWAP1 PUSH3 0x3625 JUMP JUMPDEST DUP2 DUP1 SLOAD SWAP1 POP LT PUSH3 0xB59 JUMPI PUSH1 0x0 JUMPDEST PUSH8 0xDE0B6B3A7640000 DUP9 DUP9 DUP6 DUP2 DUP2 LT PUSH3 0x8E0 JUMPI PUSH3 0x8DF PUSH3 0x3598 JUMP JUMPDEST JUMPDEST SWAP1 POP PUSH1 0x20 MUL ADD CALLDATALOAD PUSH3 0x8F3 SWAP2 SWAP1 PUSH3 0x3625 JUMP JUMPDEST DUP2 LT ISZERO PUSH3 0xA25 JUMPI DUP11 PUSH20 0xFFFFFFFFFFFFFFFFFFFFFFFFFFFFFFFFFFFFFFFF AND PUSH4 0x42842E0E ADDRESS DUP12 DUP6 DUP6 DUP2 SLOAD DUP2 LT PUSH3 0x92F JUMPI PUSH3 0x92E PUSH3 0x3598 JUMP JUMPDEST JUMPDEST SWAP1 PUSH1 0x0 MSTORE PUSH1 0x20 PUSH1 0x0 KECCAK256 ADD SLOAD PUSH1 0x40 MLOAD DUP5 PUSH4 0xFFFFFFFF AND PUSH1 0xE0 SHL DUP2 MSTORE PUSH1 0x4 ADD PUSH3 0x95A SWAP4 SWAP3 SWAP2 SWAP1 PUSH3 0x365D JUMP JUMPDEST PUSH1 0x0 PUSH1 0x40 MLOAD DUP1 DUP4 SUB DUP2 PUSH1 0x0 DUP8 DUP1 EXTCODESIZE ISZERO DUP1 ISZERO PUSH3 0x975 JUMPI PUSH1 0x0 DUP1 REVERT JUMPDEST POP GAS CALL ISZERO DUP1 ISZERO PUSH3 0x98A JUMPI RETURNDATASIZE PUSH1 0x0 DUP1 RETURNDATACOPY RETURNDATASIZE PUSH1 0x0 REVERT JUMPDEST POP POP POP POP DUP2 PUSH1 0x1 DUP4 DUP1 SLOAD SWAP1 POP PUSH3 0x9A2 SWAP2 SWAP1 PUSH3 0x369A JUMP JUMPDEST DUP2 SLOAD DUP2 LT PUSH3 0x9B6 JUMPI PUSH3 0x9B5 PUSH3 0x3598 JUMP JUMPDEST JUMPDEST SWAP1 PUSH1 0x0 MSTORE PUSH1 0x20 PUSH1 0x0 KECCAK256 ADD SLOAD DUP3 DUP3 DUP2 SLOAD DUP2 LT PUSH3 0x9D7 JUMPI PUSH3 0x9D6 PUSH3 0x3598 JUMP JUMPDEST JUMPDEST SWAP1 PUSH1 0x0 MSTORE PUSH1 0x20 PUSH1 0x0 KECCAK256 ADD DUP2 SWAP1 SSTORE POP DUP2 DUP1 SLOAD DUP1 PUSH3 0x9F9 JUMPI PUSH3 0x9F8 PUSH3 0x36D5 JUMP JUMPDEST JUMPDEST PUSH1 0x1 SWAP1 SUB DUP2 DUP2 SWAP1 PUSH1 0x0 MSTORE PUSH1 0x20 PUSH1 0x0 KECCAK256 ADD PUSH1 0x0 SWAP1 SSTORE SWAP1 SSTORE DUP1 DUP1 PUSH3 0xA1C SWAP1 PUSH3 0x3704 JUMP JUMPDEST SWAP2 POP POP PUSH3 0x8C1 JUMP JUMPDEST POP PUSH8 0xDE0B6B3A7640000 DUP8 DUP8 DUP5 DUP2 DUP2 LT PUSH3 0xA45 JUMPI PUSH3 0xA44 PUSH3 0x3598 JUMP JUMPDEST JUMPDEST SWAP1 POP PUSH1 0x20 MUL ADD CALLDATALOAD PUSH3 0xA58 SWAP2 SWAP1 PUSH3 0x3625 JUMP JUMPDEST DUP4 PUSH3 0xA65 SWAP2 SWAP1 PUSH3 0x3752 JUMP JUMPDEST SWAP3 POP PUSH1 0x3 PUSH1 0x0 DUP12 PUSH20 0xFFFFFFFFFFFFFFFFFFFFFFFFFFFFFFFFFFFFFFFF AND PUSH20 0xFFFFFFFFFFFFFFFFFFFFFFFFFFFFFFFFFFFFFFFF AND DUP2 MSTORE PUSH1 0x20 ADD SWAP1 DUP2 MSTORE PUSH1 0x20 ADD PUSH1 0x0 KECCAK256 PUSH1 0x0 SWAP1 SLOAD SWAP1 PUSH2 0x100 EXP SWAP1 DIV PUSH20 0xFFFFFFFFFFFFFFFFFFFFFFFFFFFFFFFFFFFFFFFF AND PUSH20 0xFFFFFFFFFFFFFFFFFFFFFFFFFFFFFFFFFFFFFFFF AND PUSH4 0x9DC29FAC DUP10 DUP10 DUP10 DUP7 DUP2 DUP2 LT PUSH3 0xAF9 JUMPI PUSH3 0xAF8 PUSH3 0x3598 JUMP JUMPDEST JUMPDEST SWAP1 POP PUSH1 0x20 MUL ADD CALLDATALOAD PUSH1 0x40 MLOAD DUP4 PUSH4 0xFFFFFFFF AND PUSH1 0xE0 SHL DUP2 MSTORE PUSH1 0x4 ADD PUSH3 0xB1F SWAP3 SWAP2 SWAP1 PUSH3 0x37AF JUMP JUMPDEST PUSH1 0x0 PUSH1 0x40 MLOAD DUP1 DUP4 SUB DUP2 PUSH1 0x0 DUP8 DUP1 EXTCODESIZE ISZERO DUP1 ISZERO PUSH3 0xB3A JUMPI PUSH1 0x0 DUP1 REVERT JUMPDEST POP GAS CALL ISZERO DUP1 ISZERO PUSH3 0xB4F JUMPI RETURNDATASIZE PUSH1 0x0 DUP1 RETURNDATACOPY RETURNDATASIZE PUSH1 0x0 REVERT JUMPDEST POP POP POP POP PUSH3 0xD92 JUMP JUMPDEST PUSH1 0x0 JUMPDEST DUP2 DUP1 SLOAD SWAP1 POP DUP2 LT ISZERO PUSH3 0xC93 JUMPI DUP11 PUSH20 0xFFFFFFFFFFFFFFFFFFFFFFFFFFFFFFFFFFFFFFFF AND PUSH4 0x42842E0E ADDRESS DUP12 DUP6 DUP6 DUP2 SLOAD DUP2 LT PUSH3 0xB9D JUMPI PUSH3 0xB9C PUSH3 0x3598 JUMP JUMPDEST JUMPDEST SWAP1 PUSH1 0x0 MSTORE PUSH1 0x20 PUSH1 0x0 KECCAK256 ADD SLOAD PUSH1 0x40 MLOAD DUP5 PUSH4 0xFFFFFFFF AND PUSH1 0xE0 SHL DUP2 MSTORE PUSH1 0x4 ADD PUSH3 0xBC8 SWAP4 SWAP3 SWAP2 SWAP1 PUSH3 0x365D JUMP JUMPDEST PUSH1 0x0 PUSH1 0x40 MLOAD DUP1 DUP4 SUB DUP2 PUSH1 0x0 DUP8 DUP1 EXTCODESIZE ISZERO DUP1 ISZERO PUSH3 0xBE3 JUMPI PUSH1 0x0 DUP1 REVERT JUMPDEST POP GAS CALL ISZERO DUP1 ISZERO PUSH3 0xBF8 JUMPI RETURNDATASIZE PUSH1 0x0 DUP1 RETURNDATACOPY RETURNDATASIZE PUSH1 0x0 REVERT JUMPDEST POP POP POP POP DUP2 PUSH1 0x1 DUP4 DUP1 SLOAD SWAP1 POP PUSH3 0xC10 SWAP2 SWAP1 PUSH3 0x369A JUMP JUMPDEST DUP2 SLOAD DUP2 LT PUSH3 0xC24 JUMPI PUSH3 0xC23 PUSH3 0x3598 JUMP JUMPDEST JUMPDEST SWAP1 PUSH1 0x0 MSTORE PUSH1 0x20 PUSH1 0x0 KECCAK256 ADD SLOAD DUP3 DUP3 DUP2 SLOAD DUP2 LT PUSH3 0xC45 JUMPI PUSH3 0xC44 PUSH3 0x3598 JUMP JUMPDEST JUMPDEST SWAP1 PUSH1 0x0 MSTORE PUSH1 0x20 PUSH1 0x0 KECCAK256 ADD DUP2 SWAP1 SSTORE POP DUP2 DUP1 SLOAD DUP1 PUSH3 0xC67 JUMPI PUSH3 0xC66 PUSH3 0x36D5 JUMP JUMPDEST JUMPDEST PUSH1 0x1 SWAP1 SUB DUP2 DUP2 SWAP1 PUSH1 0x0 MSTORE PUSH1 0x20 PUSH1 0x0 KECCAK256 ADD PUSH1 0x0 SWAP1 SSTORE SWAP1 SSTORE DUP1 DUP1 PUSH3 0xC8A SWAP1 PUSH3 0x3704 JUMP JUMPDEST SWAP2 POP POP PUSH3 0xB5C JUMP JUMPDEST POP DUP1 DUP1 SLOAD SWAP1 POP DUP4 PUSH3 0xCA6 SWAP2 SWAP1 PUSH3 0x3752 JUMP JUMPDEST SWAP3 POP PUSH1 0x3 PUSH1 0x0 DUP12 PUSH20 0xFFFFFFFFFFFFFFFFFFFFFFFFFFFFFFFFFFFFFFFF AND PUSH20 0xFFFFFFFFFFFFFFFFFFFFFFFFFFFFFFFFFFFFFFFF AND DUP2 MSTORE PUSH1 0x20 ADD SWAP1 DUP2 MSTORE PUSH1 0x20 ADD PUSH1 0x0 KECCAK256 PUSH1 0x0 SWAP1 SLOAD SWAP1 PUSH2 0x100 EXP SWAP1 DIV PUSH20 0xFFFFFFFFFFFFFFFFFFFFFFFFFFFFFFFFFFFFFFFF AND PUSH20 0xFFFFFFFFFFFFFFFFFFFFFFFFFFFFFFFFFFFFFFFF AND PUSH4 0x9DC29FAC DUP10 PUSH8 0xDE0B6B3A7640000 DUP5 DUP1 SLOAD SWAP1 POP PUSH3 0xD3E SWAP2 SWAP1 PUSH3 0x37DC JUMP JUMPDEST PUSH1 0x40 MLOAD DUP4 PUSH4 0xFFFFFFFF AND PUSH1 0xE0 SHL DUP2 MSTORE PUSH1 0x4 ADD PUSH3 0xD5D SWAP3 SWAP2 SWAP1 PUSH3 0x37AF JUMP JUMPDEST PUSH1 0x0 PUSH1 0x40 MLOAD DUP1 DUP4 SUB DUP2 PUSH1 0x0 DUP8 DUP1 EXTCODESIZE ISZERO DUP1 ISZERO PUSH3 0xD78 JUMPI PUSH1 0x0 DUP1 REVERT JUMPDEST POP GAS CALL ISZERO DUP1 ISZERO PUSH3 0xD8D JUMPI RETURNDATASIZE PUSH1 0x0 DUP1 RETURNDATACOPY RETURNDATASIZE PUSH1 0x0 REVERT JUMPDEST POP POP POP POP JUMPDEST DUP1 PUSH1 0x5 PUSH1 0x0 DUP13 PUSH20 0xFFFFFFFFFFFFFFFFFFFFFFFFFFFFFFFFFFFFFFFF AND PUSH20 0xFFFFFFFFFFFFFFFFFFFFFFFFFFFFFFFFFFFFFFFF AND DUP2 MSTORE PUSH1 0x20 ADD SWAP1 DUP2 MSTORE PUSH1 0x20 ADD PUSH1 0x0 KECCAK256 PUSH1 0x0 DUP12 PUSH20 0xFFFFFFFFFFFFFFFFFFFFFFFFFFFFFFFFFFFFFFFF AND PUSH20 0xFFFFFFFFFFFFFFFFFFFFFFFFFFFFFFFFFFFFFFFF AND DUP2 MSTORE PUSH1 0x20 ADD SWAP1 DUP2 MSTORE PUSH1 0x20 ADD PUSH1 0x0 KECCAK256 PUSH1 0x0 DUP8 DUP8 DUP7 DUP2 DUP2 LT PUSH3 0xE27 JUMPI PUSH3 0xE26 PUSH3 0x3598 JUMP JUMPDEST JUMPDEST SWAP1 POP PUSH1 0x20 MUL ADD CALLDATALOAD DUP2 MSTORE PUSH1 0x20 ADD SWAP1 DUP2 MSTORE PUSH1 0x20 ADD PUSH1 0x0 KECCAK256 SWAP1 DUP1 SLOAD PUSH3 0xE4C SWAP3 SWAP2 SWAP1 PUSH3 0x2A8E JUMP JUMPDEST POP POP DUP1 DUP1 PUSH3 0xE5B SWAP1 PUSH3 0x3704 JUMP JUMPDEST SWAP2 POP POP PUSH3 0x7C8 JUMP JUMPDEST POP SWAP8 SWAP7 POP POP POP POP POP POP POP JUMP JUMPDEST PUSH1 0x0 DUP1 PUSH20 0xFFFFFFFFFFFFFFFFFFFFFFFFFFFFFFFFFFFFFFFF AND PUSH1 0x3 PUSH1 0x0 DUP10 PUSH20 0xFFFFFFFFFFFFFFFFFFFFFFFFFFFFFFFFFFFFFFFF AND PUSH20 0xFFFFFFFFFFFFFFFFFFFFFFFFFFFFFFFFFFFFFFFF AND DUP2 MSTORE PUSH1 0x20 ADD SWAP1 DUP2 MSTORE PUSH1 0x20 ADD PUSH1 0x0 KECCAK256 PUSH1 0x0 SWAP1 SLOAD SWAP1 PUSH2 0x100 EXP SWAP1 DIV PUSH20 0xFFFFFFFFFFFFFFFFFFFFFFFFFFFFFFFFFFFFFFFF AND PUSH20 0xFFFFFFFFFFFFFFFFFFFFFFFFFFFFFFFFFFFFFFFF AND EQ ISZERO PUSH3 0xF0B JUMPI PUSH1 0x0 DUP1 REVERT JUMPDEST PUSH1 0x0 JUMPDEST DUP6 DUP6 SWAP1 POP DUP2 LT ISZERO PUSH3 0xFBF JUMPI DUP8 PUSH20 0xFFFFFFFFFFFFFFFFFFFFFFFFFFFFFFFFFFFFFFFF AND PUSH4 0x42842E0E DUP11 ADDRESS DUP10 DUP10 DUP7 DUP2 DUP2 LT PUSH3 0xF4E JUMPI PUSH3 0xF4D PUSH3 0x3598 JUMP JUMPDEST JUMPDEST SWAP1 POP PUSH1 0x20 MUL ADD CALLDATALOAD PUSH1 0x40 MLOAD DUP5 PUSH4 0xFFFFFFFF AND PUSH1 0xE0 SHL DUP2 MSTORE PUSH1 0x4 ADD PUSH3 0xF75 SWAP4 SWAP3 SWAP2 SWAP1 PUSH3 0x365D JUMP JUMPDEST PUSH1 0x0 PUSH1 0x40 MLOAD DUP1 DUP4 SUB DUP2 PUSH1 0x0 DUP8 DUP1 EXTCODESIZE ISZERO DUP1 ISZERO PUSH3 0xF90 JUMPI PUSH1 0x0 DUP1 REVERT JUMPDEST POP GAS CALL ISZERO DUP1 ISZERO PUSH3 0xFA5 JUMPI RETURNDATASIZE PUSH1 0x0 DUP1 RETURNDATACOPY RETURNDATASIZE PUSH1 0x0 REVERT JUMPDEST POP POP POP POP DUP1 DUP1 PUSH3 0xFB6 SWAP1 PUSH3 0x3704 JUMP JUMPDEST SWAP2 POP POP PUSH3 0xF0E JUMP JUMPDEST POP PUSH3 0xFD0 DUP8 DUP8 DUP8 DUP8 DUP8 DUP8 PUSH3 0x2828 JUMP JUMPDEST SWAP1 POP PUSH1 0x3 PUSH1 0x0 DUP9 PUSH20 0xFFFFFFFFFFFFFFFFFFFFFFFFFFFFFFFFFFFFFFFF AND PUSH20 0xFFFFFFFFFFFFFFFFFFFFFFFFFFFFFFFFFFFFFFFF AND DUP2 MSTORE PUSH1 0x20 ADD SWAP1 DUP2 MSTORE PUSH1 0x20 ADD PUSH1 0x0 KECCAK256 PUSH1 0x0 SWAP1 SLOAD SWAP1 PUSH2 0x100 EXP SWAP1 DIV PUSH20 0xFFFFFFFFFFFFFFFFFFFFFFFFFFFFFFFFFFFFFFFF AND PUSH20 0xFFFFFFFFFFFFFFFFFFFFFFFFFFFFFFFFFFFFFFFF AND PUSH4 0x40C10F19 DUP10 PUSH8 0xDE0B6B3A7640000 DUP5 PUSH3 0x1064 SWAP2 SWAP1 PUSH3 0x37DC JUMP JUMPDEST PUSH1 0x40 MLOAD DUP4 PUSH4 0xFFFFFFFF AND PUSH1 0xE0 SHL DUP2 MSTORE PUSH1 0x4 ADD PUSH3 0x1083 SWAP3 SWAP2 SWAP1 PUSH3 0x37AF JUMP JUMPDEST PUSH1 0x0 PUSH1 0x40 MLOAD DUP1 DUP4 SUB DUP2 PUSH1 0x0 DUP8 DUP1 EXTCODESIZE ISZERO DUP1 ISZERO PUSH3 0x109E JUMPI PUSH1 0x0 DUP1 REVERT JUMPDEST POP GAS CALL ISZERO DUP1 ISZERO PUSH3 0x10B3 JUMPI RETURNDATASIZE PUSH1 0x0 DUP1 RETURNDATACOPY RETURNDATASIZE PUSH1 0x0 REVERT JUMPDEST POP POP POP POP SWAP8 SWAP7 POP POP POP POP POP POP POP JUMP JUMPDEST PUSH1 0x0 PUSH4 0x150B7A02 PUSH1 0xE0 SHL SWAP1 POP SWAP5 SWAP4 POP POP POP POP JUMP JUMPDEST PUSH1 0x4 PUSH1 0x20 MSTORE DUP2 PUSH1 0x0 MSTORE PUSH1 0x40 PUSH1 0x0 KECCAK256 PUSH1 0x20 MSTORE DUP1 PUSH1 0x0 MSTORE PUSH1 0x40 PUSH1 0x0 KECCAK256 PUSH1 0x0 SWAP2 POP SWAP2 POP SWAP1 SLOAD SWAP1 PUSH2 0x100 EXP SWAP1 DIV PUSH20 0xFFFFFFFFFFFFFFFFFFFFFFFFFFFFFFFFFFFFFFFF AND DUP2 JUMP JUMPDEST PUSH1 0x3 PUSH1 0x20 MSTORE DUP1 PUSH1 0x0 MSTORE PUSH1 0x40 PUSH1 0x0 KECCAK256 PUSH1 0x0 SWAP2 POP SLOAD SWAP1 PUSH2 0x100 EXP SWAP1 DIV PUSH20 0xFFFFFFFFFFFFFFFFFFFFFFFFFFFFFFFFFFFFFFFF AND DUP2 JUMP JUMPDEST PUSH1 0x0 DUP1 PUSH20 0xFFFFFFFFFFFFFFFFFFFFFFFFFFFFFFFFFFFFFFFF AND PUSH1 0x4 PUSH1 0x0 DUP6 PUSH20 0xFFFFFFFFFFFFFFFFFFFFFFFFFFFFFFFFFFFFFFFF AND PUSH20 0xFFFFFFFFFFFFFFFFFFFFFFFFFFFFFFFFFFFFFFFF AND DUP2 MSTORE PUSH1 0x20 ADD SWAP1 DUP2 MSTORE PUSH1 0x20 ADD PUSH1 0x0 KECCAK256 PUSH1 0x0 DUP5 DUP2 MSTORE PUSH1 0x20 ADD SWAP1 DUP2 MSTORE PUSH1 0x20 ADD PUSH1 0x0 KECCAK256 PUSH1 0x0 SWAP1 SLOAD SWAP1 PUSH2 0x100 EXP SWAP1 DIV PUSH20 0xFFFFFFFFFFFFFFFFFFFFFFFFFFFFFFFFFFFFFFFF AND PUSH20 0xFFFFFFFFFFFFFFFFFFFFFFFFFFFFFFFFFFFFFFFF AND EQ ISZERO PUSH3 0x11F7 JUMPI PUSH1 0x0 DUP1 REVERT JUMPDEST PUSH1 0x4 PUSH1 0x0 DUP5 PUSH20 0xFFFFFFFFFFFFFFFFFFFFFFFFFFFFFFFFFFFFFFFF AND PUSH20 0xFFFFFFFFFFFFFFFFFFFFFFFFFFFFFFFFFFFFFFFF AND DUP2 MSTORE PUSH1 0x20 ADD SWAP1 DUP2 MSTORE PUSH1 0x20 ADD PUSH1 0x0 KECCAK256 PUSH1 0x0 DUP4 DUP2 MSTORE PUSH1 0x20 ADD SWAP1 DUP2 MSTORE PUSH1 0x20 ADD PUSH1 0x0 KECCAK256 PUSH1 0x0 SWAP1 SLOAD SWAP1 PUSH2 0x100 EXP SWAP1 DIV PUSH20 0xFFFFFFFFFFFFFFFFFFFFFFFFFFFFFFFFFFFFFFFF AND SWAP1 POP SWAP3 SWAP2 POP POP JUMP JUMPDEST PUSH1 0x5 PUSH1 0x20 MSTORE DUP4 PUSH1 0x0 MSTORE PUSH1 0x40 PUSH1 0x0 KECCAK256 PUSH1 0x20 MSTORE DUP3 PUSH1 0x0 MSTORE PUSH1 0x40 PUSH1 0x0 KECCAK256 PUSH1 0x20 MSTORE DUP2 PUSH1 0x0 MSTORE PUSH1 0x40 PUSH1 0x0 KECCAK256 DUP2 DUP2 SLOAD DUP2 LT PUSH3 0x12A5 JUMPI PUSH1 0x0 DUP1 REVERT JUMPDEST SWAP1 PUSH1 0x0 MSTORE PUSH1 0x20 PUSH1 0x0 KECCAK256 ADD PUSH1 0x0 SWAP4 POP SWAP4 POP POP POP POP SLOAD DUP2 JUMP JUMPDEST PUSH1 0x0 DUP1 DUP3 GT ISZERO PUSH3 0x14AF JUMPI PUSH1 0x0 PUSH20 0xFFFFFFFFFFFFFFFFFFFFFFFFFFFFFFFFFFFFFFFF AND PUSH1 0x4 PUSH1 0x0 DUP6 PUSH20 0xFFFFFFFFFFFFFFFFFFFFFFFFFFFFFFFFFFFFFFFF AND PUSH20 0xFFFFFFFFFFFFFFFFFFFFFFFFFFFFFFFFFFFFFFFF AND DUP2 MSTORE PUSH1 0x20 ADD SWAP1 DUP2 MSTORE PUSH1 0x20 ADD PUSH1 0x0 KECCAK256 PUSH1 0x0 DUP5 DUP2 MSTORE PUSH1 0x20 ADD SWAP1 DUP2 MSTORE PUSH1 0x20 ADD PUSH1 0x0 KECCAK256 PUSH1 0x0 SWAP1 SLOAD SWAP1 PUSH2 0x100 EXP SWAP1 DIV PUSH20 0xFFFFFFFFFFFFFFFFFFFFFFFFFFFFFFFFFFFFFFFF AND PUSH20 0xFFFFFFFFFFFFFFFFFFFFFFFFFFFFFFFFFFFFFFFF AND EQ PUSH3 0x1371 JUMPI PUSH1 0x0 DUP1 REVERT JUMPDEST PUSH1 0x40 MLOAD PUSH3 0x137F SWAP1 PUSH3 0x2AE5 JUMP JUMPDEST PUSH3 0x138A SWAP1 PUSH3 0x38EE JUMP JUMPDEST PUSH1 0x40 MLOAD DUP1 SWAP2 SUB SWAP1 PUSH1 0x0 CREATE DUP1 ISZERO DUP1 ISZERO PUSH3 0x13A7 JUMPI RETURNDATASIZE PUSH1 0x0 DUP1 RETURNDATACOPY RETURNDATASIZE PUSH1 0x0 REVERT JUMPDEST POP PUSH1 0x4 PUSH1 0x0 DUP6 PUSH20 0xFFFFFFFFFFFFFFFFFFFFFFFFFFFFFFFFFFFFFFFF AND PUSH20 0xFFFFFFFFFFFFFFFFFFFFFFFFFFFFFFFFFFFFFFFF AND DUP2 MSTORE PUSH1 0x20 ADD SWAP1 DUP2 MSTORE PUSH1 0x20 ADD PUSH1 0x0 KECCAK256 PUSH1 0x0 DUP5 DUP2 MSTORE PUSH1 0x20 ADD SWAP1 DUP2 MSTORE PUSH1 0x20 ADD PUSH1 0x0 KECCAK256 PUSH1 0x0 PUSH2 0x100 EXP DUP2 SLOAD DUP2 PUSH20 0xFFFFFFFFFFFFFFFFFFFFFFFFFFFFFFFFFFFFFFFF MUL NOT AND SWAP1 DUP4 PUSH20 0xFFFFFFFFFFFFFFFFFFFFFFFFFFFFFFFFFFFFFFFF AND MUL OR SWAP1 SSTORE POP PUSH1 0x4 PUSH1 0x0 DUP5 PUSH20 0xFFFFFFFFFFFFFFFFFFFFFFFFFFFFFFFFFFFFFFFF AND PUSH20 0xFFFFFFFFFFFFFFFFFFFFFFFFFFFFFFFFFFFFFFFF AND DUP2 MSTORE PUSH1 0x20 ADD SWAP1 DUP2 MSTORE PUSH1 0x20 ADD PUSH1 0x0 KECCAK256 PUSH1 0x0 DUP4 DUP2 MSTORE PUSH1 0x20 ADD SWAP1 DUP2 MSTORE PUSH1 0x20 ADD PUSH1 0x0 KECCAK256 PUSH1 0x0 SWAP1 SLOAD SWAP1 PUSH2 0x100 EXP SWAP1 DIV PUSH20 0xFFFFFFFFFFFFFFFFFFFFFFFFFFFFFFFFFFFFFFFF AND SWAP1 POP PUSH3 0x165F JUMP JUMPDEST PUSH1 0x0 PUSH20 0xFFFFFFFFFFFFFFFFFFFFFFFFFFFFFFFFFFFFFFFF AND PUSH1 0x3 PUSH1 0x0 DUP6 PUSH20 0xFFFFFFFFFFFFFFFFFFFFFFFFFFFFFFFFFFFFFFFF AND PUSH20 0xFFFFFFFFFFFFFFFFFFFFFFFFFFFFFFFFFFFFFFFF AND DUP2 MSTORE PUSH1 0x20 ADD SWAP1 DUP2 MSTORE PUSH1 0x20 ADD PUSH1 0x0 KECCAK256 PUSH1 0x0 SWAP1 SLOAD SWAP1 PUSH2 0x100 EXP SWAP1 DIV PUSH20 0xFFFFFFFFFFFFFFFFFFFFFFFFFFFFFFFFFFFFFFFF AND PUSH20 0xFFFFFFFFFFFFFFFFFFFFFFFFFFFFFFFFFFFFFFFF AND EQ PUSH3 0x1548 JUMPI PUSH1 0x0 DUP1 REVERT JUMPDEST PUSH1 0x40 MLOAD PUSH3 0x1556 SWAP1 PUSH3 0x2AE5 JUMP JUMPDEST PUSH3 0x1561 SWAP1 PUSH3 0x39C5 JUMP JUMPDEST PUSH1 0x40 MLOAD DUP1 SWAP2 SUB SWAP1 PUSH1 0x0 CREATE DUP1 ISZERO DUP1 ISZERO PUSH3 0x157E JUMPI RETURNDATASIZE PUSH1 0x0 DUP1 RETURNDATACOPY RETURNDATASIZE PUSH1 0x0 REVERT JUMPDEST POP PUSH1 0x3 PUSH1 0x0 DUP6 PUSH20 0xFFFFFFFFFFFFFFFFFFFFFFFFFFFFFFFFFFFFFFFF AND PUSH20 0xFFFFFFFFFFFFFFFFFFFFFFFFFFFFFFFFFFFFFFFF AND DUP2 MSTORE PUSH1 0x20 ADD SWAP1 DUP2 MSTORE PUSH1 0x20 ADD PUSH1 0x0 KECCAK256 PUSH1 0x0 PUSH2 0x100 EXP DUP2 SLOAD DUP2 PUSH20 0xFFFFFFFFFFFFFFFFFFFFFFFFFFFFFFFFFFFFFFFF MUL NOT AND SWAP1 DUP4 PUSH20 0xFFFFFFFFFFFFFFFFFFFFFFFFFFFFFFFFFFFFFFFF AND MUL OR SWAP1 SSTORE POP PUSH1 0x3 PUSH1 0x0 DUP5 PUSH20 0xFFFFFFFFFFFFFFFFFFFFFFFFFFFFFFFFFFFFFFFF AND PUSH20 0xFFFFFFFFFFFFFFFFFFFFFFFFFFFFFFFFFFFFFFFF AND DUP2 MSTORE PUSH1 0x20 ADD SWAP1 DUP2 MSTORE PUSH1 0x20 ADD PUSH1 0x0 KECCAK256 PUSH1 0x0 SWAP1 SLOAD SWAP1 PUSH2 0x100 EXP SWAP1 DIV PUSH20 0xFFFFFFFFFFFFFFFFFFFFFFFFFFFFFFFFFFFFFFFF AND SWAP1 POP JUMPDEST SWAP3 SWAP2 POP POP JUMP JUMPDEST PUSH3 0x166F PUSH3 0x27A3 JUMP JUMPDEST PUSH3 0x167B PUSH1 0x0 PUSH3 0x29C2 JUMP JUMPDEST JUMP JUMPDEST PUSH1 0x0 DUP1 PUSH20 0xFFFFFFFFFFFFFFFFFFFFFFFFFFFFFFFFFFFFFFFF AND PUSH1 0x3 PUSH1 0x0 DUP5 PUSH20 0xFFFFFFFFFFFFFFFFFFFFFFFFFFFFFFFFFFFFFFFF AND PUSH20 0xFFFFFFFFFFFFFFFFFFFFFFFFFFFFFFFFFFFFFFFF AND DUP2 MSTORE PUSH1 0x20 ADD SWAP1 DUP2 MSTORE PUSH1 0x20 ADD PUSH1 0x0 KECCAK256 PUSH1 0x0 SWAP1 SLOAD SWAP1 PUSH2 0x100 EXP SWAP1 DIV PUSH20 0xFFFFFFFFFFFFFFFFFFFFFFFFFFFFFFFFFFFFFFFF AND PUSH20 0xFFFFFFFFFFFFFFFFFFFFFFFFFFFFFFFFFFFFFFFF AND EQ ISZERO PUSH3 0x1718 JUMPI PUSH1 0x0 DUP1 REVERT JUMPDEST PUSH1 0x3 PUSH1 0x0 DUP4 PUSH20 0xFFFFFFFFFFFFFFFFFFFFFFFFFFFFFFFFFFFFFFFF AND PUSH20 0xFFFFFFFFFFFFFFFFFFFFFFFFFFFFFFFFFFFFFFFF AND DUP2 MSTORE PUSH1 0x20 ADD SWAP1 DUP2 MSTORE PUSH1 0x20 ADD PUSH1 0x0 KECCAK256 PUSH1 0x0 SWAP1 SLOAD SWAP1 PUSH2 0x100 EXP SWAP1 DIV PUSH20 0xFFFFFFFFFFFFFFFFFFFFFFFFFFFFFFFFFFFFFFFF AND SWAP1 POP SWAP2 SWAP1 POP JUMP JUMPDEST PUSH1 0x0 DUP1 PUSH1 0x0 SWAP1 SLOAD SWAP1 PUSH2 0x100 EXP SWAP1 DIV PUSH20 0xFFFFFFFFFFFFFFFFFFFFFFFFFFFFFFFFFFFFFFFF AND SWAP1 POP SWAP1 JUMP JUMPDEST PUSH1 0x0 PUSH4 0xBC197C81 PUSH1 0xE0 SHL SWAP1 POP SWAP6 SWAP5 POP POP POP POP POP JUMP JUMPDEST PUSH1 0x0 PUSH1 0x2 PUSH1 0x0 SWAP1 SLOAD SWAP1 PUSH2 0x100 EXP SWAP1 DIV PUSH20 0xFFFFFFFFFFFFFFFFFFFFFFFFFFFFFFFFFFFFFFFF AND PUSH20 0xFFFFFFFFFFFFFFFFFFFFFFFFFFFFFFFFFFFFFFFF AND CALLER PUSH20 0xFFFFFFFFFFFFFFFFFFFFFFFFFFFFFFFFFFFFFFFF AND EQ DUP1 PUSH3 0x1869 JUMPI POP PUSH1 0x1 PUSH1 0x0 SWAP1 SLOAD SWAP1 PUSH2 0x100 EXP SWAP1 DIV PUSH20 0xFFFFFFFFFFFFFFFFFFFFFFFFFFFFFFFFFFFFFFFF AND PUSH20 0xFFFFFFFFFFFFFFFFFFFFFFFFFFFFFFFFFFFFFFFF AND CALLER PUSH20 0xFFFFFFFFFFFFFFFFFFFFFFFFFFFFFFFFFFFFFFFF AND EQ JUMPDEST PUSH3 0x1873 JUMPI PUSH1 0x0 DUP1 REVERT JUMPDEST PUSH1 0x0 PUSH20 0xFFFFFFFFFFFFFFFFFFFFFFFFFFFFFFFFFFFFFFFF AND PUSH1 0x3 PUSH1 0x0 DUP8 PUSH20 0xFFFFFFFFFFFFFFFFFFFFFFFFFFFFFFFFFFFFFFFF AND PUSH20 0xFFFFFFFFFFFFFFFFFFFFFFFFFFFFFFFFFFFFFFFF AND DUP2 MSTORE PUSH1 0x20 ADD SWAP1 DUP2 MSTORE PUSH1 0x20 ADD PUSH1 0x0 KECCAK256 PUSH1 0x0 SWAP1 SLOAD SWAP1 PUSH2 0x100 EXP SWAP1 DIV PUSH20 0xFFFFFFFFFFFFFFFFFFFFFFFFFFFFFFFFFFFFFFFF AND PUSH20 0xFFFFFFFFFFFFFFFFFFFFFFFFFFFFFFFFFFFFFFFF AND EQ ISZERO PUSH3 0x190D JUMPI PUSH1 0x0 DUP1 REVERT JUMPDEST PUSH1 0x0 JUMPDEST DUP4 DUP4 SWAP1 POP DUP2 LT ISZERO PUSH3 0x1A91 JUMPI DUP6 PUSH20 0xFFFFFFFFFFFFFFFFFFFFFFFFFFFFFFFFFFFFFFFF AND PUSH4 0x42842E0E DUP9 ADDRESS DUP8 DUP8 DUP7 DUP2 DUP2 LT PUSH3 0x1950 JUMPI PUSH3 0x194F PUSH3 0x3598 JUMP JUMPDEST JUMPDEST SWAP1 POP PUSH1 0x20 MUL ADD CALLDATALOAD PUSH1 0x40 MLOAD DUP5 PUSH4 0xFFFFFFFF AND PUSH1 0xE0 SHL DUP2 MSTORE PUSH1 0x4 ADD PUSH3 0x1977 SWAP4 SWAP3 SWAP2 SWAP1 PUSH3 0x365D JUMP JUMPDEST PUSH1 0x0 PUSH1 0x40 MLOAD DUP1 DUP4 SUB DUP2 PUSH1 0x0 DUP8 DUP1 EXTCODESIZE ISZERO DUP1 ISZERO PUSH3 0x1992 JUMPI PUSH1 0x0 DUP1 REVERT JUMPDEST POP GAS CALL ISZERO DUP1 ISZERO PUSH3 0x19A7 JUMPI RETURNDATASIZE PUSH1 0x0 DUP1 RETURNDATACOPY RETURNDATASIZE PUSH1 0x0 REVERT JUMPDEST POP POP POP POP PUSH1 0x5 PUSH1 0x0 DUP8 PUSH20 0xFFFFFFFFFFFFFFFFFFFFFFFFFFFFFFFFFFFFFFFF AND PUSH20 0xFFFFFFFFFFFFFFFFFFFFFFFFFFFFFFFFFFFFFFFF AND DUP2 MSTORE PUSH1 0x20 ADD SWAP1 DUP2 MSTORE PUSH1 0x20 ADD PUSH1 0x0 KECCAK256 PUSH1 0x0 DUP7 PUSH20 0xFFFFFFFFFFFFFFFFFFFFFFFFFFFFFFFFFFFFFFFF AND PUSH20 0xFFFFFFFFFFFFFFFFFFFFFFFFFFFFFFFFFFFFFFFF AND DUP2 MSTORE PUSH1 0x20 ADD SWAP1 DUP2 MSTORE PUSH1 0x20 ADD PUSH1 0x0 KECCAK256 PUSH1 0x0 DUP1 DUP2 MSTORE PUSH1 0x20 ADD SWAP1 DUP2 MSTORE PUSH1 0x20 ADD PUSH1 0x0 KECCAK256 DUP5 DUP5 DUP4 DUP2 DUP2 LT PUSH3 0x1A4E JUMPI PUSH3 0x1A4D PUSH3 0x3598 JUMP JUMPDEST JUMPDEST SWAP1 POP PUSH1 0x20 MUL ADD CALLDATALOAD SWAP1 DUP1 PUSH1 0x1 DUP2 SLOAD ADD DUP1 DUP3 SSTORE DUP1 SWAP2 POP POP PUSH1 0x1 SWAP1 SUB SWAP1 PUSH1 0x0 MSTORE PUSH1 0x20 PUSH1 0x0 KECCAK256 ADD PUSH1 0x0 SWAP1 SWAP2 SWAP1 SWAP2 SWAP1 SWAP2 POP SSTORE DUP1 DUP1 PUSH3 0x1A88 SWAP1 PUSH3 0x3704 JUMP JUMPDEST SWAP2 POP POP PUSH3 0x1910 JUMP JUMPDEST POP DUP3 DUP3 SWAP1 POP SWAP1 POP PUSH1 0x3 PUSH1 0x0 DUP7 PUSH20 0xFFFFFFFFFFFFFFFFFFFFFFFFFFFFFFFFFFFFFFFF AND PUSH20 0xFFFFFFFFFFFFFFFFFFFFFFFFFFFFFFFFFFFFFFFF AND DUP2 MSTORE PUSH1 0x20 ADD SWAP1 DUP2 MSTORE PUSH1 0x20 ADD PUSH1 0x0 KECCAK256 PUSH1 0x0 SWAP1 SLOAD SWAP1 PUSH2 0x100 EXP SWAP1 DIV PUSH20 0xFFFFFFFFFFFFFFFFFFFFFFFFFFFFFFFFFFFFFFFF AND PUSH20 0xFFFFFFFFFFFFFFFFFFFFFFFFFFFFFFFFFFFFFFFF AND PUSH4 0x40C10F19 DUP8 PUSH8 0xDE0B6B3A7640000 DUP5 PUSH3 0x1B2A SWAP2 SWAP1 PUSH3 0x37DC JUMP JUMPDEST PUSH1 0x40 MLOAD DUP4 PUSH4 0xFFFFFFFF AND PUSH1 0xE0 SHL DUP2 MSTORE PUSH1 0x4 ADD PUSH3 0x1B49 SWAP3 SWAP2 SWAP1 PUSH3 0x37AF JUMP JUMPDEST PUSH1 0x0 PUSH1 0x40 MLOAD DUP1 DUP4 SUB DUP2 PUSH1 0x0 DUP8 DUP1 EXTCODESIZE ISZERO DUP1 ISZERO PUSH3 0x1B64 JUMPI PUSH1 0x0 DUP1 REVERT JUMPDEST POP GAS CALL ISZERO DUP1 ISZERO PUSH3 0x1B79 JUMPI RETURNDATASIZE PUSH1 0x0 DUP1 RETURNDATACOPY RETURNDATASIZE PUSH1 0x0 REVERT JUMPDEST POP POP POP POP SWAP6 SWAP5 POP POP POP POP POP JUMP JUMPDEST PUSH1 0x0 PUSH1 0x2 PUSH1 0x0 SWAP1 SLOAD SWAP1 PUSH2 0x100 EXP SWAP1 DIV PUSH20 0xFFFFFFFFFFFFFFFFFFFFFFFFFFFFFFFFFFFFFFFF AND PUSH20 0xFFFFFFFFFFFFFFFFFFFFFFFFFFFFFFFFFFFFFFFF AND CALLER PUSH20 0xFFFFFFFFFFFFFFFFFFFFFFFFFFFFFFFFFFFFFFFF AND EQ DUP1 PUSH3 0x1C32 JUMPI POP PUSH1 0x1 PUSH1 0x0 SWAP1 SLOAD SWAP1 PUSH2 0x100 EXP SWAP1 DIV PUSH20 0xFFFFFFFFFFFFFFFFFFFFFFFFFFFFFFFFFFFFFFFF AND PUSH20 0xFFFFFFFFFFFFFFFFFFFFFFFFFFFFFFFFFFFFFFFF AND CALLER PUSH20 0xFFFFFFFFFFFFFFFFFFFFFFFFFFFFFFFFFFFFFFFF AND EQ JUMPDEST PUSH3 0x1C3C JUMPI PUSH1 0x0 DUP1 REVERT JUMPDEST DUP4 DUP4 SWAP1 POP DUP7 DUP7 SWAP1 POP EQ PUSH3 0x1C4F JUMPI PUSH1 0x0 DUP1 REVERT JUMPDEST PUSH1 0x0 SWAP1 POP PUSH1 0x0 JUMPDEST DUP7 DUP7 SWAP1 POP DUP2 LT ISZERO PUSH3 0x1F31 JUMPI PUSH1 0x0 PUSH20 0xFFFFFFFFFFFFFFFFFFFFFFFFFFFFFFFFFFFFFFFF AND PUSH1 0x4 PUSH1 0x0 DUP11 PUSH20 0xFFFFFFFFFFFFFFFFFFFFFFFFFFFFFFFFFFFFFFFF AND PUSH20 0xFFFFFFFFFFFFFFFFFFFFFFFFFFFFFFFFFFFFFFFF AND DUP2 MSTORE PUSH1 0x20 ADD SWAP1 DUP2 MSTORE PUSH1 0x20 ADD PUSH1 0x0 KECCAK256 PUSH1 0x0 DUP10 DUP10 DUP6 DUP2 DUP2 LT PUSH3 0x1CD1 JUMPI PUSH3 0x1CD0 PUSH3 0x3598 JUMP JUMPDEST JUMPDEST SWAP1 POP PUSH1 0x20 MUL ADD CALLDATALOAD DUP2 MSTORE PUSH1 0x20 ADD SWAP1 DUP2 MSTORE PUSH1 0x20 ADD PUSH1 0x0 KECCAK256 PUSH1 0x0 SWAP1 SLOAD SWAP1 PUSH2 0x100 EXP SWAP1 DIV PUSH20 0xFFFFFFFFFFFFFFFFFFFFFFFFFFFFFFFFFFFFFFFF AND PUSH20 0xFFFFFFFFFFFFFFFFFFFFFFFFFFFFFFFFFFFFFFFF AND EQ ISZERO PUSH3 0x1D29 JUMPI PUSH1 0x0 DUP1 REVERT JUMPDEST PUSH1 0x4 PUSH1 0x0 DUP10 PUSH20 0xFFFFFFFFFFFFFFFFFFFFFFFFFFFFFFFFFFFFFFFF AND PUSH20 0xFFFFFFFFFFFFFFFFFFFFFFFFFFFFFFFFFFFFFFFF AND DUP2 MSTORE PUSH1 0x20 ADD SWAP1 DUP2 MSTORE PUSH1 0x20 ADD PUSH1 0x0 KECCAK256 PUSH1 0x0 DUP9 DUP9 DUP5 DUP2 DUP2 LT PUSH3 0x1D80 JUMPI PUSH3 0x1D7F PUSH3 0x3598 JUMP JUMPDEST JUMPDEST SWAP1 POP PUSH1 0x20 MUL ADD CALLDATALOAD DUP2 MSTORE PUSH1 0x20 ADD SWAP1 DUP2 MSTORE PUSH1 0x20 ADD PUSH1 0x0 KECCAK256 PUSH1 0x0 SWAP1 SLOAD SWAP1 PUSH2 0x100 EXP SWAP1 DIV PUSH20 0xFFFFFFFFFFFFFFFFFFFFFFFFFFFFFFFFFFFFFFFF AND PUSH20 0xFFFFFFFFFFFFFFFFFFFFFFFFFFFFFFFFFFFFFFFF AND PUSH4 0x40C10F19 DUP5 DUP8 DUP8 DUP6 DUP2 DUP2 LT PUSH3 0x1DE8 JUMPI PUSH3 0x1DE7 PUSH3 0x3598 JUMP JUMPDEST JUMPDEST SWAP1 POP PUSH1 0x20 MUL ADD CALLDATALOAD PUSH1 0x40 MLOAD DUP4 PUSH4 0xFFFFFFFF AND PUSH1 0xE0 SHL DUP2 MSTORE PUSH1 0x4 ADD PUSH3 0x1E0E SWAP3 SWAP2 SWAP1 PUSH3 0x37AF JUMP JUMPDEST PUSH1 0x0 PUSH1 0x40 MLOAD DUP1 DUP4 SUB DUP2 PUSH1 0x0 DUP8 DUP1 EXTCODESIZE ISZERO DUP1 ISZERO PUSH3 0x1E29 JUMPI PUSH1 0x0 DUP1 REVERT JUMPDEST POP GAS CALL ISZERO DUP1 ISZERO PUSH3 0x1E3E JUMPI RETURNDATASIZE PUSH1 0x0 DUP1 RETURNDATACOPY RETURNDATASIZE PUSH1 0x0 REVERT JUMPDEST POP POP POP POP DUP8 PUSH20 0xFFFFFFFFFFFFFFFFFFFFFFFFFFFFFFFFFFFFFFFF AND PUSH4 0xF242432A DUP5 ADDRESS DUP11 DUP11 DUP7 DUP2 DUP2 LT PUSH3 0x1E76 JUMPI PUSH3 0x1E75 PUSH3 0x3598 JUMP JUMPDEST JUMPDEST SWAP1 POP PUSH1 0x20 MUL ADD CALLDATALOAD DUP10 DUP10 DUP8 DUP2 DUP2 LT PUSH3 0x1E93 JUMPI PUSH3 0x1E92 PUSH3 0x3598 JUMP JUMPDEST JUMPDEST SWAP1 POP PUSH1 0x20 MUL ADD CALLDATALOAD PUSH1 0x40 MLOAD DUP6 PUSH4 0xFFFFFFFF AND PUSH1 0xE0 SHL DUP2 MSTORE PUSH1 0x4 ADD PUSH3 0x1EBB SWAP5 SWAP4 SWAP3 SWAP2 SWAP1 PUSH3 0x3A5D JUMP JUMPDEST PUSH1 0x0 PUSH1 0x40 MLOAD DUP1 DUP4 SUB DUP2 PUSH1 0x0 DUP8 DUP1 EXTCODESIZE ISZERO DUP1 ISZERO PUSH3 0x1ED6 JUMPI PUSH1 0x0 DUP1 REVERT JUMPDEST POP GAS CALL ISZERO DUP1 ISZERO PUSH3 0x1EEB JUMPI RETURNDATASIZE PUSH1 0x0 DUP1 RETURNDATACOPY RETURNDATASIZE PUSH1 0x0 REVERT JUMPDEST POP POP POP POP DUP5 DUP5 DUP3 DUP2 DUP2 LT PUSH3 0x1F05 JUMPI PUSH3 0x1F04 PUSH3 0x3598 JUMP JUMPDEST JUMPDEST SWAP1 POP PUSH1 0x20 MUL ADD CALLDATALOAD DUP3 PUSH3 0x1F19 SWAP2 SWAP1 PUSH3 0x3752 JUMP JUMPDEST SWAP2 POP DUP1 DUP1 PUSH3 0x1F28 SWAP1 PUSH3 0x3704 JUMP JUMPDEST SWAP2 POP POP PUSH3 0x1C56 JUMP JUMPDEST POP SWAP7 SWAP6 POP POP POP POP POP POP JUMP JUMPDEST PUSH1 0x0 PUSH1 0x3 PUSH1 0x0 DUP7 PUSH20 0xFFFFFFFFFFFFFFFFFFFFFFFFFFFFFFFFFFFFFFFF AND PUSH20 0xFFFFFFFFFFFFFFFFFFFFFFFFFFFFFFFFFFFFFFFF AND DUP2 MSTORE PUSH1 0x20 ADD SWAP1 DUP2 MSTORE PUSH1 0x20 ADD PUSH1 0x0 KECCAK256 PUSH1 0x0 SWAP1 SLOAD SWAP1 PUSH2 0x100 EXP SWAP1 DIV PUSH20 0xFFFFFFFFFFFFFFFFFFFFFFFFFFFFFFFFFFFFFFFF AND PUSH20 0xFFFFFFFFFFFFFFFFFFFFFFFFFFFFFFFFFFFFFFFF AND PUSH4 0x9DC29FAC DUP4 DUP6 PUSH1 0x40 MLOAD DUP4 PUSH4 0xFFFFFFFF AND PUSH1 0xE0 SHL DUP2 MSTORE PUSH1 0x4 ADD PUSH3 0x1FDA SWAP3 SWAP2 SWAP1 PUSH3 0x37AF JUMP JUMPDEST PUSH1 0x0 PUSH1 0x40 MLOAD DUP1 DUP4 SUB DUP2 PUSH1 0x0 DUP8 DUP1 EXTCODESIZE ISZERO DUP1 ISZERO PUSH3 0x1FF5 JUMPI PUSH1 0x0 DUP1 REVERT JUMPDEST POP GAS CALL ISZERO DUP1 ISZERO PUSH3 0x200A JUMPI RETURNDATASIZE PUSH1 0x0 DUP1 RETURNDATACOPY RETURNDATASIZE PUSH1 0x0 REVERT JUMPDEST POP POP POP POP PUSH1 0x0 JUMPDEST PUSH8 0xDE0B6B3A7640000 DUP5 PUSH3 0x2027 SWAP2 SWAP1 PUSH3 0x3625 JUMP JUMPDEST DUP2 LT ISZERO PUSH3 0x228A JUMPI PUSH1 0x0 PUSH1 0x5 PUSH1 0x0 DUP9 PUSH20 0xFFFFFFFFFFFFFFFFFFFFFFFFFFFFFFFFFFFFFFFF AND PUSH20 0xFFFFFFFFFFFFFFFFFFFFFFFFFFFFFFFFFFFFFFFF AND DUP2 MSTORE PUSH1 0x20 ADD SWAP1 DUP2 MSTORE PUSH1 0x20 ADD PUSH1 0x0 KECCAK256 PUSH1 0x0 DUP8 PUSH20 0xFFFFFFFFFFFFFFFFFFFFFFFFFFFFFFFFFFFFFFFF AND PUSH20 0xFFFFFFFFFFFFFFFFFFFFFFFFFFFFFFFFFFFFFFFF AND DUP2 MSTORE PUSH1 0x20 ADD SWAP1 DUP2 MSTORE PUSH1 0x20 ADD PUSH1 0x0 KECCAK256 PUSH1 0x0 DUP1 DUP2 MSTORE PUSH1 0x20 ADD SWAP1 DUP2 MSTORE PUSH1 0x20 ADD PUSH1 0x0 KECCAK256 SWAP1 POP DUP7 PUSH20 0xFFFFFFFFFFFFFFFFFFFFFFFFFFFFFFFFFFFFFFFF AND PUSH4 0x42842E0E ADDRESS DUP7 DUP5 DUP7 DUP2 SLOAD DUP2 LT PUSH3 0x20F4 JUMPI PUSH3 0x20F3 PUSH3 0x3598 JUMP JUMPDEST JUMPDEST SWAP1 PUSH1 0x0 MSTORE PUSH1 0x20 PUSH1 0x0 KECCAK256 ADD SLOAD PUSH1 0x40 MLOAD DUP5 PUSH4 0xFFFFFFFF AND PUSH1 0xE0 SHL DUP2 MSTORE PUSH1 0x4 ADD PUSH3 0x211F SWAP4 SWAP3 SWAP2 SWAP1 PUSH3 0x365D JUMP JUMPDEST PUSH1 0x0 PUSH1 0x40 MLOAD DUP1 DUP4 SUB DUP2 PUSH1 0x0 DUP8 DUP1 EXTCODESIZE ISZERO DUP1 ISZERO PUSH3 0x213A JUMPI PUSH1 0x0 DUP1 REVERT JUMPDEST POP GAS CALL ISZERO DUP1 ISZERO PUSH3 0x214F JUMPI RETURNDATASIZE PUSH1 0x0 DUP1 RETURNDATACOPY RETURNDATASIZE PUSH1 0x0 REVERT JUMPDEST POP POP POP POP DUP1 PUSH1 0x1 DUP3 DUP1 SLOAD SWAP1 POP PUSH3 0x2167 SWAP2 SWAP1 PUSH3 0x369A JUMP JUMPDEST DUP2 SLOAD DUP2 LT PUSH3 0x217B JUMPI PUSH3 0x217A PUSH3 0x3598 JUMP JUMPDEST JUMPDEST SWAP1 PUSH1 0x0 MSTORE PUSH1 0x20 PUSH1 0x0 KECCAK256 ADD SLOAD DUP2 DUP4 DUP2 SLOAD DUP2 LT PUSH3 0x219C JUMPI PUSH3 0x219B PUSH3 0x3598 JUMP JUMPDEST JUMPDEST SWAP1 PUSH1 0x0 MSTORE PUSH1 0x20 PUSH1 0x0 KECCAK256 ADD DUP2 SWAP1 SSTORE POP DUP1 DUP1 SLOAD DUP1 PUSH3 0x21BE JUMPI PUSH3 0x21BD PUSH3 0x36D5 JUMP JUMPDEST JUMPDEST PUSH1 0x1 SWAP1 SUB DUP2 DUP2 SWAP1 PUSH1 0x0 MSTORE PUSH1 0x20 PUSH1 0x0 KECCAK256 ADD PUSH1 0x0 SWAP1 SSTORE SWAP1 SSTORE DUP1 PUSH1 0x5 PUSH1 0x0 DUP10 PUSH20 0xFFFFFFFFFFFFFFFFFFFFFFFFFFFFFFFFFFFFFFFF AND PUSH20 0xFFFFFFFFFFFFFFFFFFFFFFFFFFFFFFFFFFFFFFFF AND DUP2 MSTORE PUSH1 0x20 ADD SWAP1 DUP2 MSTORE PUSH1 0x20 ADD PUSH1 0x0 KECCAK256 PUSH1 0x0 DUP9 PUSH20 0xFFFFFFFFFFFFFFFFFFFFFFFFFFFFFFFFFFFFFFFF AND PUSH20 0xFFFFFFFFFFFFFFFFFFFFFFFFFFFFFFFFFFFFFFFF AND DUP2 MSTORE PUSH1 0x20 ADD SWAP1 DUP2 MSTORE PUSH1 0x20 ADD PUSH1 0x0 KECCAK256 PUSH1 0x0 DUP1 DUP2 MSTORE PUSH1 0x20 ADD SWAP1 DUP2 MSTORE PUSH1 0x20 ADD PUSH1 0x0 KECCAK256 SWAP1 DUP1 SLOAD PUSH3 0x2272 SWAP3 SWAP2 SWAP1 PUSH3 0x2A8E JUMP JUMPDEST POP POP DUP1 DUP1 PUSH3 0x2281 SWAP1 PUSH3 0x3704 JUMP JUMPDEST SWAP2 POP POP PUSH3 0x2011 JUMP JUMPDEST POP PUSH8 0xDE0B6B3A7640000 DUP4 PUSH3 0x22A1 SWAP2 SWAP1 PUSH3 0x3625 JUMP JUMPDEST SWAP1 POP SWAP5 SWAP4 POP POP POP POP JUMP JUMPDEST PUSH1 0x0 PUSH4 0xF23A6E61 PUSH1 0xE0 SHL SWAP1 POP SWAP6 SWAP5 POP POP POP POP POP JUMP JUMPDEST PUSH3 0x22CA PUSH3 0x27A3 JUMP JUMPDEST PUSH1 0x0 PUSH20 0xFFFFFFFFFFFFFFFFFFFFFFFFFFFFFFFFFFFFFFFF AND DUP2 PUSH20 0xFFFFFFFFFFFFFFFFFFFFFFFFFFFFFFFFFFFFFFFF AND EQ ISZERO PUSH3 0x233D JUMPI PUSH1 0x40 MLOAD PUSH32 0x8C379A000000000000000000000000000000000000000000000000000000000 DUP2 MSTORE PUSH1 0x4 ADD PUSH3 0x2334 SWAP1 PUSH3 0x3B35 JUMP JUMPDEST PUSH1 0x40 MLOAD DUP1 SWAP2 SUB SWAP1 REVERT JUMPDEST PUSH3 0x2348 DUP2 PUSH3 0x29C2 JUMP JUMPDEST POP JUMP JUMPDEST PUSH1 0x0 PUSH1 0x2 PUSH1 0x0 SWAP1 SLOAD SWAP1 PUSH2 0x100 EXP SWAP1 DIV PUSH20 0xFFFFFFFFFFFFFFFFFFFFFFFFFFFFFFFFFFFFFFFF AND PUSH20 0xFFFFFFFFFFFFFFFFFFFFFFFFFFFFFFFFFFFFFFFF AND CALLER PUSH20 0xFFFFFFFFFFFFFFFFFFFFFFFFFFFFFFFFFFFFFFFF AND EQ DUP1 PUSH3 0x23F7 JUMPI POP PUSH1 0x1 PUSH1 0x0 SWAP1 SLOAD SWAP1 PUSH2 0x100 EXP SWAP1 DIV PUSH20 0xFFFFFFFFFFFFFFFFFFFFFFFFFFFFFFFFFFFFFFFF AND PUSH20 0xFFFFFFFFFFFFFFFFFFFFFFFFFFFFFFFFFFFFFFFF AND CALLER PUSH20 0xFFFFFFFFFFFFFFFFFFFFFFFFFFFFFFFFFFFFFFFF AND EQ JUMPDEST PUSH3 0x2401 JUMPI PUSH1 0x0 DUP1 REVERT JUMPDEST DUP4 DUP4 SWAP1 POP DUP7 DUP7 SWAP1 POP EQ PUSH3 0x244C JUMPI PUSH1 0x40 MLOAD PUSH32 0x8C379A000000000000000000000000000000000000000000000000000000000 DUP2 MSTORE PUSH1 0x4 ADD PUSH3 0x2443 SWAP1 PUSH3 0x3BA7 JUMP JUMPDEST PUSH1 0x40 MLOAD DUP1 SWAP2 SUB SWAP1 REVERT JUMPDEST PUSH1 0x0 SWAP1 POP PUSH1 0x0 JUMPDEST DUP7 DUP7 SWAP1 POP DUP2 LT ISZERO PUSH3 0x272E JUMPI PUSH1 0x0 PUSH20 0xFFFFFFFFFFFFFFFFFFFFFFFFFFFFFFFFFFFFFFFF AND PUSH1 0x4 PUSH1 0x0 DUP11 PUSH20 0xFFFFFFFFFFFFFFFFFFFFFFFFFFFFFFFFFFFFFFFF AND PUSH20 0xFFFFFFFFFFFFFFFFFFFFFFFFFFFFFFFFFFFFFFFF AND DUP2 MSTORE PUSH1 0x20 ADD SWAP1 DUP2 MSTORE PUSH1 0x20 ADD PUSH1 0x0 KECCAK256 PUSH1 0x0 DUP10 DUP10 DUP6 DUP2 DUP2 LT PUSH3 0x24CE JUMPI PUSH3 0x24CD PUSH3 0x3598 JUMP JUMPDEST JUMPDEST SWAP1 POP PUSH1 0x20 MUL ADD CALLDATALOAD DUP2 MSTORE PUSH1 0x20 ADD SWAP1 DUP2 MSTORE PUSH1 0x20 ADD PUSH1 0x0 KECCAK256 PUSH1 0x0 SWAP1 SLOAD SWAP1 PUSH2 0x100 EXP SWAP1 DIV PUSH20 0xFFFFFFFFFFFFFFFFFFFFFFFFFFFFFFFFFFFFFFFF AND PUSH20 0xFFFFFFFFFFFFFFFFFFFFFFFFFFFFFFFFFFFFFFFF AND EQ ISZERO PUSH3 0x2526 JUMPI PUSH1 0x0 DUP1 REVERT JUMPDEST PUSH1 0x4 PUSH1 0x0 DUP10 PUSH20 0xFFFFFFFFFFFFFFFFFFFFFFFFFFFFFFFFFFFFFFFF AND PUSH20 0xFFFFFFFFFFFFFFFFFFFFFFFFFFFFFFFFFFFFFFFF AND DUP2 MSTORE PUSH1 0x20 ADD SWAP1 DUP2 MSTORE PUSH1 0x20 ADD PUSH1 0x0 KECCAK256 PUSH1 0x0 DUP9 DUP9 DUP5 DUP2 DUP2 LT PUSH3 0x257D JUMPI PUSH3 0x257C PUSH3 0x3598 JUMP JUMPDEST JUMPDEST SWAP1 POP PUSH1 0x20 MUL ADD CALLDATALOAD DUP2 MSTORE PUSH1 0x20 ADD SWAP1 DUP2 MSTORE PUSH1 0x20 ADD PUSH1 0x0 KECCAK256 PUSH1 0x0 SWAP1 SLOAD SWAP1 PUSH2 0x100 EXP SWAP1 DIV PUSH20 0xFFFFFFFFFFFFFFFFFFFFFFFFFFFFFFFFFFFFFFFF AND PUSH20 0xFFFFFFFFFFFFFFFFFFFFFFFFFFFFFFFFFFFFFFFF AND PUSH4 0x9DC29FAC DUP5 DUP8 DUP8 DUP6 DUP2 DUP2 LT PUSH3 0x25E5 JUMPI PUSH3 0x25E4 PUSH3 0x3598 JUMP JUMPDEST JUMPDEST SWAP1 POP PUSH1 0x20 MUL ADD CALLDATALOAD PUSH1 0x40 MLOAD DUP4 PUSH4 0xFFFFFFFF AND PUSH1 0xE0 SHL DUP2 MSTORE PUSH1 0x4 ADD PUSH3 0x260B SWAP3 SWAP2 SWAP1 PUSH3 0x37AF JUMP JUMPDEST PUSH1 0x0 PUSH1 0x40 MLOAD DUP1 DUP4 SUB DUP2 PUSH1 0x0 DUP8 DUP1 EXTCODESIZE ISZERO DUP1 ISZERO PUSH3 0x2626 JUMPI PUSH1 0x0 DUP1 REVERT JUMPDEST POP GAS CALL ISZERO DUP1 ISZERO PUSH3 0x263B JUMPI RETURNDATASIZE PUSH1 0x0 DUP1 RETURNDATACOPY RETURNDATASIZE PUSH1 0x0 REVERT JUMPDEST POP POP POP POP DUP8 PUSH20 0xFFFFFFFFFFFFFFFFFFFFFFFFFFFFFFFFFFFFFFFF AND PUSH4 0xF242432A ADDRESS DUP6 DUP11 DUP11 DUP7 DUP2 DUP2 LT PUSH3 0x2673 JUMPI PUSH3 0x2672 PUSH3 0x3598 JUMP JUMPDEST JUMPDEST SWAP1 POP PUSH1 0x20 MUL ADD CALLDATALOAD DUP10 DUP10 DUP8 DUP2 DUP2 LT PUSH3 0x2690 JUMPI PUSH3 0x268F PUSH3 0x3598 JUMP JUMPDEST JUMPDEST SWAP1 POP PUSH1 0x20 MUL ADD CALLDATALOAD PUSH1 0x40 MLOAD DUP6 PUSH4 0xFFFFFFFF AND PUSH1 0xE0 SHL DUP2 MSTORE PUSH1 0x4 ADD PUSH3 0x26B8 SWAP5 SWAP4 SWAP3 SWAP2 SWAP1 PUSH3 0x3A5D JUMP JUMPDEST PUSH1 0x0 PUSH1 0x40 MLOAD DUP1 DUP4 SUB DUP2 PUSH1 0x0 DUP8 DUP1 EXTCODESIZE ISZERO DUP1 ISZERO PUSH3 0x26D3 JUMPI PUSH1 0x0 DUP1 REVERT JUMPDEST POP GAS CALL ISZERO DUP1 ISZERO PUSH3 0x26E8 JUMPI RETURNDATASIZE PUSH1 0x0 DUP1 RETURNDATACOPY RETURNDATASIZE PUSH1 0x0 REVERT JUMPDEST POP POP POP POP DUP5 DUP5 DUP3 DUP2 DUP2 LT PUSH3 0x2702 JUMPI PUSH3 0x2701 PUSH3 0x3598 JUMP JUMPDEST JUMPDEST SWAP1 POP PUSH1 0x20 MUL ADD CALLDATALOAD DUP3 PUSH3 0x2716 SWAP2 SWAP1 PUSH3 0x3752 JUMP JUMPDEST SWAP2 POP DUP1 DUP1 PUSH3 0x2725 SWAP1 PUSH3 0x3704 JUMP JUMPDEST SWAP2 POP POP PUSH3 0x2453 JUMP JUMPDEST POP SWAP7 SWAP6 POP POP POP POP POP POP JUMP JUMPDEST PUSH1 0x0 PUSH32 0x1FFC9A700000000000000000000000000000000000000000000000000000000 PUSH28 0xFFFFFFFFFFFFFFFFFFFFFFFFFFFFFFFFFFFFFFFFFFFFFFFFFFFFFFFF NOT AND DUP3 PUSH28 0xFFFFFFFFFFFFFFFFFFFFFFFFFFFFFFFFFFFFFFFFFFFFFFFFFFFFFFFF NOT AND EQ SWAP1 POP SWAP2 SWAP1 POP JUMP JUMPDEST PUSH3 0x27AD PUSH3 0x2A86 JUMP JUMPDEST PUSH20 0xFFFFFFFFFFFFFFFFFFFFFFFFFFFFFFFFFFFFFFFF AND PUSH3 0x27CD PUSH3 0x177F JUMP JUMPDEST PUSH20 0xFFFFFFFFFFFFFFFFFFFFFFFFFFFFFFFFFFFFFFFF AND EQ PUSH3 0x2826 JUMPI PUSH1 0x40 MLOAD PUSH32 0x8C379A000000000000000000000000000000000000000000000000000000000 DUP2 MSTORE PUSH1 0x4 ADD PUSH3 0x281D SWAP1 PUSH3 0x3C19 JUMP JUMPDEST PUSH1 0x40 MLOAD DUP1 SWAP2 SUB SWAP1 REVERT JUMPDEST JUMP JUMPDEST PUSH1 0x0 DUP1 DUP4 DUP4 SWAP1 POP DUP7 DUP7 SWAP1 POP PUSH3 0x283F SWAP2 SWAP1 PUSH3 0x3C3B JUMP JUMPDEST EQ PUSH3 0x284A JUMPI PUSH1 0x0 DUP1 REVERT JUMPDEST PUSH1 0x0 DUP4 DUP4 SWAP1 POP DUP7 DUP7 SWAP1 POP PUSH3 0x2860 SWAP2 SWAP1 PUSH3 0x3625 JUMP JUMPDEST SWAP1 POP PUSH1 0x0 JUMPDEST DUP5 DUP5 SWAP1 POP DUP2 LT ISZERO PUSH3 0x29B0 JUMPI PUSH1 0x0 JUMPDEST DUP3 DUP2 LT ISZERO PUSH3 0x2999 JUMPI PUSH1 0x5 PUSH1 0x0 DUP12 PUSH20 0xFFFFFFFFFFFFFFFFFFFFFFFFFFFFFFFFFFFFFFFF AND PUSH20 0xFFFFFFFFFFFFFFFFFFFFFFFFFFFFFFFFFFFFFFFF AND DUP2 MSTORE PUSH1 0x20 ADD SWAP1 DUP2 MSTORE PUSH1 0x20 ADD PUSH1 0x0 KECCAK256 PUSH1 0x0 DUP11 PUSH20 0xFFFFFFFFFFFFFFFFFFFFFFFFFFFFFFFFFFFFFFFF AND PUSH20 0xFFFFFFFFFFFFFFFFFFFFFFFFFFFFFFFFFFFFFFFF AND DUP2 MSTORE PUSH1 0x20 ADD SWAP1 DUP2 MSTORE PUSH1 0x20 ADD PUSH1 0x0 KECCAK256 PUSH1 0x0 DUP8 DUP8 DUP6 DUP2 DUP2 LT PUSH3 0x2911 JUMPI PUSH3 0x2910 PUSH3 0x3598 JUMP JUMPDEST JUMPDEST SWAP1 POP PUSH1 0x20 MUL ADD CALLDATALOAD DUP2 MSTORE PUSH1 0x20 ADD SWAP1 DUP2 MSTORE PUSH1 0x20 ADD PUSH1 0x0 KECCAK256 DUP9 DUP9 DUP4 DUP7 PUSH3 0x2936 SWAP2 SWAP1 PUSH3 0x37DC JUMP JUMPDEST DUP6 PUSH3 0x2943 SWAP2 SWAP1 PUSH3 0x3752 JUMP JUMPDEST DUP2 DUP2 LT PUSH3 0x2956 JUMPI PUSH3 0x2955 PUSH3 0x3598 JUMP JUMPDEST JUMPDEST SWAP1 POP PUSH1 0x20 MUL ADD CALLDATALOAD SWAP1 DUP1 PUSH1 0x1 DUP2 SLOAD ADD DUP1 DUP3 SSTORE DUP1 SWAP2 POP POP PUSH1 0x1 SWAP1 SUB SWAP1 PUSH1 0x0 MSTORE PUSH1 0x20 PUSH1 0x0 KECCAK256 ADD PUSH1 0x0 SWAP1 SWAP2 SWAP1 SWAP2 SWAP1 SWAP2 POP SSTORE DUP1 DUP1 PUSH3 0x2990 SWAP1 PUSH3 0x3704 JUMP JUMPDEST SWAP2 POP POP PUSH3 0x2874 JUMP JUMPDEST POP DUP1 DUP1 PUSH3 0x29A7 SWAP1 PUSH3 0x3704 JUMP JUMPDEST SWAP2 POP POP PUSH3 0x2865 JUMP JUMPDEST POP DUP6 DUP6 SWAP1 POP SWAP2 POP POP SWAP7 SWAP6 POP POP POP POP POP POP JUMP JUMPDEST PUSH1 0x0 DUP1 PUSH1 0x0 SWAP1 SLOAD SWAP1 PUSH2 0x100 EXP SWAP1 DIV PUSH20 0xFFFFFFFFFFFFFFFFFFFFFFFFFFFFFFFFFFFFFFFF AND SWAP1 POP DUP2 PUSH1 0x0 DUP1 PUSH2 0x100 EXP DUP2 SLOAD DUP2 PUSH20 0xFFFFFFFFFFFFFFFFFFFFFFFFFFFFFFFFFFFFFFFF MUL NOT AND SWAP1 DUP4 PUSH20 0xFFFFFFFFFFFFFFFFFFFFFFFFFFFFFFFFFFFFFFFF AND MUL OR SWAP1 SSTORE POP DUP2 PUSH20 0xFFFFFFFFFFFFFFFFFFFFFFFFFFFFFFFFFFFFFFFF AND DUP2 PUSH20 0xFFFFFFFFFFFFFFFFFFFFFFFFFFFFFFFFFFFFFFFF AND PUSH32 0x8BE0079C531659141344CD1FD0A4F28419497F9722A3DAAFE3B4186F6B6457E0 PUSH1 0x40 MLOAD PUSH1 0x40 MLOAD DUP1 SWAP2 SUB SWAP1 LOG3 POP POP JUMP JUMPDEST PUSH1 0x0 CALLER SWAP1 POP SWAP1 JUMP JUMPDEST DUP3 DUP1 SLOAD DUP3 DUP3 SSTORE SWAP1 PUSH1 0x0 MSTORE PUSH1 0x20 PUSH1 0x0 KECCAK256 SWAP1 DUP2 ADD SWAP3 DUP3 ISZERO PUSH3 0x2AD2 JUMPI PUSH1 0x0 MSTORE PUSH1 0x20 PUSH1 0x0 KECCAK256 SWAP2 DUP3 ADD JUMPDEST DUP3 DUP2 GT ISZERO PUSH3 0x2AD1 JUMPI DUP3 SLOAD DUP3 SSTORE SWAP2 PUSH1 0x1 ADD SWAP2 SWAP1 PUSH1 0x1 ADD SWAP1 PUSH3 0x2AB4 JUMP JUMPDEST JUMPDEST POP SWAP1 POP PUSH3 0x2AE1 SWAP2 SWAP1 PUSH3 0x2AF3 JUMP JUMPDEST POP SWAP1 JUMP JUMPDEST PUSH2 0x208F DUP1 PUSH3 0x3C74 DUP4 CODECOPY ADD SWAP1 JUMP JUMPDEST JUMPDEST DUP1 DUP3 GT ISZERO PUSH3 0x2B0E JUMPI PUSH1 0x0 DUP2 PUSH1 0x0 SWAP1 SSTORE POP PUSH1 0x1 ADD PUSH3 0x2AF4 JUMP JUMPDEST POP SWAP1 JUMP JUMPDEST PUSH1 0x0 PUSH1 0x40 MLOAD SWAP1 POP SWAP1 JUMP JUMPDEST PUSH1 0x0 DUP1 REVERT JUMPDEST PUSH1 0x0 DUP1 REVERT JUMPDEST PUSH1 0x0 PUSH32 0xFFFFFFFF00000000000000000000000000000000000000000000000000000000 DUP3 AND SWAP1 POP SWAP2 SWAP1 POP JUMP JUMPDEST PUSH3 0x2B5D DUP2 PUSH3 0x2B26 JUMP JUMPDEST DUP2 EQ PUSH3 0x2B69 JUMPI PUSH1 0x0 DUP1 REVERT JUMPDEST POP JUMP JUMPDEST PUSH1 0x0 DUP2 CALLDATALOAD SWAP1 POP PUSH3 0x2B7D DUP2 PUSH3 0x2B52 JUMP JUMPDEST SWAP3 SWAP2 POP POP JUMP JUMPDEST PUSH1 0x0 PUSH1 0x20 DUP3 DUP5 SUB SLT ISZERO PUSH3 0x2B9C JUMPI PUSH3 0x2B9B PUSH3 0x2B1C JUMP JUMPDEST JUMPDEST PUSH1 0x0 PUSH3 0x2BAC DUP5 DUP3 DUP6 ADD PUSH3 0x2B6C JUMP JUMPDEST SWAP2 POP POP SWAP3 SWAP2 POP POP JUMP JUMPDEST PUSH1 0x0 DUP2 ISZERO ISZERO SWAP1 POP SWAP2 SWAP1 POP JUMP JUMPDEST PUSH3 0x2BCC DUP2 PUSH3 0x2BB5 JUMP JUMPDEST DUP3 MSTORE POP POP JUMP JUMPDEST PUSH1 0x0 PUSH1 0x20 DUP3 ADD SWAP1 POP PUSH3 0x2BE9 PUSH1 0x0 DUP4 ADD DUP5 PUSH3 0x2BC1 JUMP JUMPDEST SWAP3 SWAP2 POP POP JUMP JUMPDEST PUSH1 0x0 PUSH20 0xFFFFFFFFFFFFFFFFFFFFFFFFFFFFFFFFFFFFFFFF DUP3 AND SWAP1 POP SWAP2 SWAP1 POP JUMP JUMPDEST PUSH1 0x0 PUSH3 0x2C1C DUP3 PUSH3 0x2BEF JUMP JUMPDEST SWAP1 POP SWAP2 SWAP1 POP JUMP JUMPDEST PUSH3 0x2C2E DUP2 PUSH3 0x2C0F JUMP JUMPDEST DUP2 EQ PUSH3 0x2C3A JUMPI PUSH1 0x0 DUP1 REVERT JUMPDEST POP JUMP JUMPDEST PUSH1 0x0 DUP2 CALLDATALOAD SWAP1 POP PUSH3 0x2C4E DUP2 PUSH3 0x2C23 JUMP JUMPDEST SWAP3 SWAP2 POP POP JUMP JUMPDEST PUSH1 0x0 DUP1 PUSH1 0x40 DUP4 DUP6 SUB SLT ISZERO PUSH3 0x2C6E JUMPI PUSH3 0x2C6D PUSH3 0x2B1C JUMP JUMPDEST JUMPDEST PUSH1 0x0 PUSH3 0x2C7E DUP6 DUP3 DUP7 ADD PUSH3 0x2C3D JUMP JUMPDEST SWAP3 POP POP PUSH1 0x20 PUSH3 0x2C91 DUP6 DUP3 DUP7 ADD PUSH3 0x2C3D JUMP JUMPDEST SWAP2 POP POP SWAP3 POP SWAP3 SWAP1 POP JUMP JUMPDEST PUSH1 0x0 DUP1 REVERT JUMPDEST PUSH1 0x0 DUP1 REVERT JUMPDEST PUSH1 0x0 DUP1 REVERT JUMPDEST PUSH1 0x0 DUP1 DUP4 PUSH1 0x1F DUP5 ADD SLT PUSH3 0x2CC3 JUMPI PUSH3 0x2CC2 PUSH3 0x2C9B JUMP JUMPDEST JUMPDEST DUP3 CALLDATALOAD SWAP1 POP PUSH8 0xFFFFFFFFFFFFFFFF DUP2 GT ISZERO PUSH3 0x2CE3 JUMPI PUSH3 0x2CE2 PUSH3 0x2CA0 JUMP JUMPDEST JUMPDEST PUSH1 0x20 DUP4 ADD SWAP2 POP DUP4 PUSH1 0x20 DUP3 MUL DUP4 ADD GT ISZERO PUSH3 0x2D02 JUMPI PUSH3 0x2D01 PUSH3 0x2CA5 JUMP JUMPDEST JUMPDEST SWAP3 POP SWAP3 SWAP1 POP JUMP JUMPDEST PUSH1 0x0 DUP1 PUSH1 0x0 DUP1 PUSH1 0x0 DUP1 PUSH1 0x0 PUSH1 0xA0 DUP9 DUP11 SUB SLT ISZERO PUSH3 0x2D2B JUMPI PUSH3 0x2D2A PUSH3 0x2B1C JUMP JUMPDEST JUMPDEST PUSH1 0x0 PUSH3 0x2D3B DUP11 DUP3 DUP12 ADD PUSH3 0x2C3D JUMP JUMPDEST SWAP8 POP POP PUSH1 0x20 PUSH3 0x2D4E DUP11 DUP3 DUP12 ADD PUSH3 0x2C3D JUMP JUMPDEST SWAP7 POP POP PUSH1 0x40 PUSH3 0x2D61 DUP11 DUP3 DUP12 ADD PUSH3 0x2C3D JUMP JUMPDEST SWAP6 POP POP PUSH1 0x60 DUP9 ADD CALLDATALOAD PUSH8 0xFFFFFFFFFFFFFFFF DUP2 GT ISZERO PUSH3 0x2D85 JUMPI PUSH3 0x2D84 PUSH3 0x2B21 JUMP JUMPDEST JUMPDEST PUSH3 0x2D93 DUP11 DUP3 DUP12 ADD PUSH3 0x2CAA JUMP JUMPDEST SWAP5 POP SWAP5 POP POP PUSH1 0x80 DUP9 ADD CALLDATALOAD PUSH8 0xFFFFFFFFFFFFFFFF DUP2 GT ISZERO PUSH3 0x2DB9 JUMPI PUSH3 0x2DB8 PUSH3 0x2B21 JUMP JUMPDEST JUMPDEST PUSH3 0x2DC7 DUP11 DUP3 DUP12 ADD PUSH3 0x2CAA JUMP JUMPDEST SWAP3 POP SWAP3 POP POP SWAP3 SWAP6 SWAP9 SWAP2 SWAP5 SWAP8 POP SWAP3 SWAP6 POP JUMP JUMPDEST PUSH1 0x0 DUP2 SWAP1 POP SWAP2 SWAP1 POP JUMP JUMPDEST PUSH3 0x2DED DUP2 PUSH3 0x2DD8 JUMP JUMPDEST DUP3 MSTORE POP POP JUMP JUMPDEST PUSH1 0x0 PUSH1 0x20 DUP3 ADD SWAP1 POP PUSH3 0x2E0A PUSH1 0x0 DUP4 ADD DUP5 PUSH3 0x2DE2 JUMP JUMPDEST SWAP3 SWAP2 POP POP JUMP JUMPDEST PUSH3 0x2E1B DUP2 PUSH3 0x2DD8 JUMP JUMPDEST DUP2 EQ PUSH3 0x2E27 JUMPI PUSH1 0x0 DUP1 REVERT JUMPDEST POP JUMP JUMPDEST PUSH1 0x0 DUP2 CALLDATALOAD SWAP1 POP PUSH3 0x2E3B DUP2 PUSH3 0x2E10 JUMP JUMPDEST SWAP3 SWAP2 POP POP JUMP JUMPDEST PUSH1 0x0 DUP1 REVERT JUMPDEST PUSH1 0x0 PUSH1 0x1F NOT PUSH1 0x1F DUP4 ADD AND SWAP1 POP SWAP2 SWAP1 POP JUMP JUMPDEST PUSH32 0x4E487B7100000000000000000000000000000000000000000000000000000000 PUSH1 0x0 MSTORE PUSH1 0x41 PUSH1 0x4 MSTORE PUSH1 0x24 PUSH1 0x0 REVERT JUMPDEST PUSH3 0x2E91 DUP3 PUSH3 0x2E46 JUMP JUMPDEST DUP2 ADD DUP2 DUP2 LT PUSH8 0xFFFFFFFFFFFFFFFF DUP3 GT OR ISZERO PUSH3 0x2EB3 JUMPI PUSH3 0x2EB2 PUSH3 0x2E57 JUMP JUMPDEST JUMPDEST DUP1 PUSH1 0x40 MSTORE POP POP POP JUMP JUMPDEST PUSH1 0x0 PUSH3 0x2EC8 PUSH3 0x2B12 JUMP JUMPDEST SWAP1 POP PUSH3 0x2ED6 DUP3 DUP3 PUSH3 0x2E86 JUMP JUMPDEST SWAP2 SWAP1 POP JUMP JUMPDEST PUSH1 0x0 PUSH8 0xFFFFFFFFFFFFFFFF DUP3 GT ISZERO PUSH3 0x2EF9 JUMPI PUSH3 0x2EF8 PUSH3 0x2E57 JUMP JUMPDEST JUMPDEST PUSH3 0x2F04 DUP3 PUSH3 0x2E46 JUMP JUMPDEST SWAP1 POP PUSH1 0x20 DUP2 ADD SWAP1 POP SWAP2 SWAP1 POP JUMP JUMPDEST DUP3 DUP2 DUP4 CALLDATACOPY PUSH1 0x0 DUP4 DUP4 ADD MSTORE POP POP POP JUMP JUMPDEST PUSH1 0x0 PUSH3 0x2F37 PUSH3 0x2F31 DUP5 PUSH3 0x2EDB JUMP JUMPDEST PUSH3 0x2EBC JUMP JUMPDEST SWAP1 POP DUP3 DUP2 MSTORE PUSH1 0x20 DUP2 ADD DUP5 DUP5 DUP5 ADD GT ISZERO PUSH3 0x2F56 JUMPI PUSH3 0x2F55 PUSH3 0x2E41 JUMP JUMPDEST JUMPDEST PUSH3 0x2F63 DUP5 DUP3 DUP6 PUSH3 0x2F11 JUMP JUMPDEST POP SWAP4 SWAP3 POP POP POP JUMP JUMPDEST PUSH1 0x0 DUP3 PUSH1 0x1F DUP4 ADD SLT PUSH3 0x2F83 JUMPI PUSH3 0x2F82 PUSH3 0x2C9B JUMP JUMPDEST JUMPDEST DUP2 CALLDATALOAD PUSH3 0x2F95 DUP5 DUP3 PUSH1 0x20 DUP7 ADD PUSH3 0x2F20 JUMP JUMPDEST SWAP2 POP POP SWAP3 SWAP2 POP POP JUMP JUMPDEST PUSH1 0x0 DUP1 PUSH1 0x0 DUP1 PUSH1 0x80 DUP6 DUP8 SUB SLT ISZERO PUSH3 0x2FBB JUMPI PUSH3 0x2FBA PUSH3 0x2B1C JUMP JUMPDEST JUMPDEST PUSH1 0x0 PUSH3 0x2FCB DUP8 DUP3 DUP9 ADD PUSH3 0x2C3D JUMP JUMPDEST SWAP5 POP POP PUSH1 0x20 PUSH3 0x2FDE DUP8 DUP3 DUP9 ADD PUSH3 0x2C3D JUMP JUMPDEST SWAP4 POP POP PUSH1 0x40 PUSH3 0x2FF1 DUP8 DUP3 DUP9 ADD PUSH3 0x2E2A JUMP JUMPDEST SWAP3 POP POP PUSH1 0x60 DUP6 ADD CALLDATALOAD PUSH8 0xFFFFFFFFFFFFFFFF DUP2 GT ISZERO PUSH3 0x3015 JUMPI PUSH3 0x3014 PUSH3 0x2B21 JUMP JUMPDEST JUMPDEST PUSH3 0x3023 DUP8 DUP3 DUP9 ADD PUSH3 0x2F6B JUMP JUMPDEST SWAP2 POP POP SWAP3 SWAP6 SWAP2 SWAP5 POP SWAP3 POP JUMP JUMPDEST PUSH3 0x303A DUP2 PUSH3 0x2B26 JUMP JUMPDEST DUP3 MSTORE POP POP JUMP JUMPDEST PUSH1 0x0 PUSH1 0x20 DUP3 ADD SWAP1 POP PUSH3 0x3057 PUSH1 0x0 DUP4 ADD DUP5 PUSH3 0x302F JUMP JUMPDEST SWAP3 SWAP2 POP POP JUMP JUMPDEST PUSH1 0x0 DUP1 PUSH1 0x40 DUP4 DUP6 SUB SLT ISZERO PUSH3 0x3077 JUMPI PUSH3 0x3076 PUSH3 0x2B1C JUMP JUMPDEST JUMPDEST PUSH1 0x0 PUSH3 0x3087 DUP6 DUP3 DUP7 ADD PUSH3 0x2C3D JUMP JUMPDEST SWAP3 POP POP PUSH1 0x20 PUSH3 0x309A DUP6 DUP3 DUP7 ADD PUSH3 0x2E2A JUMP JUMPDEST SWAP2 POP POP SWAP3 POP SWAP3 SWAP1 POP JUMP JUMPDEST PUSH3 0x30AF DUP2 PUSH3 0x2C0F JUMP JUMPDEST DUP3 MSTORE POP POP JUMP JUMPDEST PUSH1 0x0 PUSH1 0x20 DUP3 ADD SWAP1 POP PUSH3 0x30CC PUSH1 0x0 DUP4 ADD DUP5 PUSH3 0x30A4 JUMP JUMPDEST SWAP3 SWAP2 POP POP JUMP JUMPDEST PUSH1 0x0 PUSH1 0x20 DUP3 DUP5 SUB SLT ISZERO PUSH3 0x30EB JUMPI PUSH3 0x30EA PUSH3 0x2B1C JUMP JUMPDEST JUMPDEST PUSH1 0x0 PUSH3 0x30FB DUP5 DUP3 DUP6 ADD PUSH3 0x2C3D JUMP JUMPDEST SWAP2 POP POP SWAP3 SWAP2 POP POP JUMP JUMPDEST PUSH1 0x0 DUP1 PUSH1 0x0 DUP1 PUSH1 0x80 DUP6 DUP8 SUB SLT ISZERO PUSH3 0x3121 JUMPI PUSH3 0x3120 PUSH3 0x2B1C JUMP JUMPDEST JUMPDEST PUSH1 0x0 PUSH3 0x3131 DUP8 DUP3 DUP9 ADD PUSH3 0x2C3D JUMP JUMPDEST SWAP5 POP POP PUSH1 0x20 PUSH3 0x3144 DUP8 DUP3 DUP9 ADD PUSH3 0x2C3D JUMP JUMPDEST SWAP4 POP POP PUSH1 0x40 PUSH3 0x3157 DUP8 DUP3 DUP9 ADD PUSH3 0x2E2A JUMP JUMPDEST SWAP3 POP POP PUSH1 0x60 PUSH3 0x316A DUP8 DUP3 DUP9 ADD PUSH3 0x2E2A JUMP JUMPDEST SWAP2 POP POP SWAP3 SWAP6 SWAP2 SWAP5 POP SWAP3 POP JUMP JUMPDEST PUSH1 0x0 PUSH8 0xFFFFFFFFFFFFFFFF DUP3 GT ISZERO PUSH3 0x3194 JUMPI PUSH3 0x3193 PUSH3 0x2E57 JUMP JUMPDEST JUMPDEST PUSH1 0x20 DUP3 MUL SWAP1 POP PUSH1 0x20 DUP2 ADD SWAP1 POP SWAP2 SWAP1 POP JUMP JUMPDEST PUSH1 0x0 PUSH3 0x31BC PUSH3 0x31B6 DUP5 PUSH3 0x3176 JUMP JUMPDEST PUSH3 0x2EBC JUMP JUMPDEST SWAP1 POP DUP1 DUP4 DUP3 MSTORE PUSH1 0x20 DUP3 ADD SWAP1 POP PUSH1 0x20 DUP5 MUL DUP4 ADD DUP6 DUP2 GT ISZERO PUSH3 0x31E2 JUMPI PUSH3 0x31E1 PUSH3 0x2CA5 JUMP JUMPDEST JUMPDEST DUP4 JUMPDEST DUP2 DUP2 LT ISZERO PUSH3 0x320F JUMPI DUP1 PUSH3 0x31FA DUP9 DUP3 PUSH3 0x2E2A JUMP JUMPDEST DUP5 MSTORE PUSH1 0x20 DUP5 ADD SWAP4 POP POP PUSH1 0x20 DUP2 ADD SWAP1 POP PUSH3 0x31E4 JUMP JUMPDEST POP POP POP SWAP4 SWAP3 POP POP POP JUMP JUMPDEST PUSH1 0x0 DUP3 PUSH1 0x1F DUP4 ADD SLT PUSH3 0x3231 JUMPI PUSH3 0x3230 PUSH3 0x2C9B JUMP JUMPDEST JUMPDEST DUP2 CALLDATALOAD PUSH3 0x3243 DUP5 DUP3 PUSH1 0x20 DUP7 ADD PUSH3 0x31A5 JUMP JUMPDEST SWAP2 POP POP SWAP3 SWAP2 POP POP JUMP JUMPDEST PUSH1 0x0 DUP1 PUSH1 0x0 DUP1 PUSH1 0x0 PUSH1 0xA0 DUP7 DUP9 SUB SLT ISZERO PUSH3 0x326B JUMPI PUSH3 0x326A PUSH3 0x2B1C JUMP JUMPDEST JUMPDEST PUSH1 0x0 PUSH3 0x327B DUP9 DUP3 DUP10 ADD PUSH3 0x2C3D JUMP JUMPDEST SWAP6 POP POP PUSH1 0x20 PUSH3 0x328E DUP9 DUP3 DUP10 ADD PUSH3 0x2C3D JUMP JUMPDEST SWAP5 POP POP PUSH1 0x40 DUP7 ADD CALLDATALOAD PUSH8 0xFFFFFFFFFFFFFFFF DUP2 GT ISZERO PUSH3 0x32B2 JUMPI PUSH3 0x32B1 PUSH3 0x2B21 JUMP JUMPDEST JUMPDEST PUSH3 0x32C0 DUP9 DUP3 DUP10 ADD PUSH3 0x3219 JUMP JUMPDEST SWAP4 POP POP PUSH1 0x60 DUP7 ADD CALLDATALOAD PUSH8 0xFFFFFFFFFFFFFFFF DUP2 GT ISZERO PUSH3 0x32E4 JUMPI PUSH3 0x32E3 PUSH3 0x2B21 JUMP JUMPDEST JUMPDEST PUSH3 0x32F2 DUP9 DUP3 DUP10 ADD PUSH3 0x3219 JUMP JUMPDEST SWAP3 POP POP PUSH1 0x80 DUP7 ADD CALLDATALOAD PUSH8 0xFFFFFFFFFFFFFFFF DUP2 GT ISZERO PUSH3 0x3316 JUMPI PUSH3 0x3315 PUSH3 0x2B21 JUMP JUMPDEST JUMPDEST PUSH3 0x3324 DUP9 DUP3 DUP10 ADD PUSH3 0x2F6B JUMP JUMPDEST SWAP2 POP POP SWAP3 SWAP6 POP SWAP3 SWAP6 SWAP1 SWAP4 POP JUMP JUMPDEST PUSH1 0x0 DUP1 PUSH1 0x0 DUP1 PUSH1 0x0 PUSH1 0x80 DUP7 DUP9 SUB SLT ISZERO PUSH3 0x3350 JUMPI PUSH3 0x334F PUSH3 0x2B1C JUMP JUMPDEST JUMPDEST PUSH1 0x0 PUSH3 0x3360 DUP9 DUP3 DUP10 ADD PUSH3 0x2C3D JUMP JUMPDEST SWAP6 POP POP PUSH1 0x20 PUSH3 0x3373 DUP9 DUP3 DUP10 ADD PUSH3 0x2C3D JUMP JUMPDEST SWAP5 POP POP PUSH1 0x40 PUSH3 0x3386 DUP9 DUP3 DUP10 ADD PUSH3 0x2C3D JUMP JUMPDEST SWAP4 POP POP PUSH1 0x60 DUP7 ADD CALLDATALOAD PUSH8 0xFFFFFFFFFFFFFFFF DUP2 GT ISZERO PUSH3 0x33AA JUMPI PUSH3 0x33A9 PUSH3 0x2B21 JUMP JUMPDEST JUMPDEST PUSH3 0x33B8 DUP9 DUP3 DUP10 ADD PUSH3 0x2CAA JUMP JUMPDEST SWAP3 POP SWAP3 POP POP SWAP3 SWAP6 POP SWAP3 SWAP6 SWAP1 SWAP4 POP JUMP JUMPDEST PUSH1 0x0 DUP1 PUSH1 0x0 DUP1 PUSH1 0x0 DUP1 PUSH1 0x80 DUP8 DUP10 SUB SLT ISZERO PUSH3 0x33E7 JUMPI PUSH3 0x33E6 PUSH3 0x2B1C JUMP JUMPDEST JUMPDEST PUSH1 0x0 PUSH3 0x33F7 DUP10 DUP3 DUP11 ADD PUSH3 0x2C3D JUMP JUMPDEST SWAP7 POP POP PUSH1 0x20 DUP8 ADD CALLDATALOAD PUSH8 0xFFFFFFFFFFFFFFFF DUP2 GT ISZERO PUSH3 0x341B JUMPI PUSH3 0x341A PUSH3 0x2B21 JUMP JUMPDEST JUMPDEST PUSH3 0x3429 DUP10 DUP3 DUP11 ADD PUSH3 0x2CAA JUMP JUMPDEST SWAP6 POP SWAP6 POP POP PUSH1 0x40 DUP8 ADD CALLDATALOAD PUSH8 0xFFFFFFFFFFFFFFFF DUP2 GT ISZERO PUSH3 0x344F JUMPI PUSH3 0x344E PUSH3 0x2B21 JUMP JUMPDEST JUMPDEST PUSH3 0x345D DUP10 DUP3 DUP11 ADD PUSH3 0x2CAA JUMP JUMPDEST SWAP4 POP SWAP4 POP POP PUSH1 0x60 PUSH3 0x3472 DUP10 DUP3 DUP11 ADD PUSH3 0x2C3D JUMP JUMPDEST SWAP2 POP POP SWAP3 SWAP6 POP SWAP3 SWAP6 POP SWAP3 SWAP6 JUMP JUMPDEST PUSH1 0x0 DUP1 PUSH1 0x0 DUP1 PUSH1 0x80 DUP6 DUP8 SUB SLT ISZERO PUSH3 0x349C JUMPI PUSH3 0x349B PUSH3 0x2B1C JUMP JUMPDEST JUMPDEST PUSH1 0x0 PUSH3 0x34AC DUP8 DUP3 DUP9 ADD PUSH3 0x2C3D JUMP JUMPDEST SWAP5 POP POP PUSH1 0x20 PUSH3 0x34BF DUP8 DUP3 DUP9 ADD PUSH3 0x2C3D JUMP JUMPDEST SWAP4 POP POP PUSH1 0x40 PUSH3 0x34D2 DUP8 DUP3 DUP9 ADD PUSH3 0x2E2A JUMP JUMPDEST SWAP3 POP POP PUSH1 0x60 PUSH3 0x34E5 DUP8 DUP3 DUP9 ADD PUSH3 0x2C3D JUMP JUMPDEST SWAP2 POP POP SWAP3 SWAP6 SWAP2 SWAP5 POP SWAP3 POP JUMP JUMPDEST PUSH1 0x0 DUP1 PUSH1 0x0 DUP1 PUSH1 0x0 PUSH1 0xA0 DUP7 DUP9 SUB SLT ISZERO PUSH3 0x3510 JUMPI PUSH3 0x350F PUSH3 0x2B1C JUMP JUMPDEST JUMPDEST PUSH1 0x0 PUSH3 0x3520 DUP9 DUP3 DUP10 ADD PUSH3 0x2C3D JUMP JUMPDEST SWAP6 POP POP PUSH1 0x20 PUSH3 0x3533 DUP9 DUP3 DUP10 ADD PUSH3 0x2C3D JUMP JUMPDEST SWAP5 POP POP PUSH1 0x40 PUSH3 0x3546 DUP9 DUP3 DUP10 ADD PUSH3 0x2E2A JUMP JUMPDEST SWAP4 POP POP PUSH1 0x60 PUSH3 0x3559 DUP9 DUP3 DUP10 ADD PUSH3 0x2E2A JUMP JUMPDEST SWAP3 POP POP PUSH1 0x80 DUP7 ADD CALLDATALOAD PUSH8 0xFFFFFFFFFFFFFFFF DUP2 GT ISZERO PUSH3 0x357D JUMPI PUSH3 0x357C PUSH3 0x2B21 JUMP JUMPDEST JUMPDEST PUSH3 0x358B DUP9 DUP3 DUP10 ADD PUSH3 0x2F6B JUMP JUMPDEST SWAP2 POP POP SWAP3 SWAP6 POP SWAP3 SWAP6 SWAP1 SWAP4 POP JUMP JUMPDEST PUSH32 0x4E487B7100000000000000000000000000000000000000000000000000000000 PUSH1 0x0 MSTORE PUSH1 0x32 PUSH1 0x4 MSTORE PUSH1 0x24 PUSH1 0x0 REVERT JUMPDEST PUSH32 0x4E487B7100000000000000000000000000000000000000000000000000000000 PUSH1 0x0 MSTORE PUSH1 0x12 PUSH1 0x4 MSTORE PUSH1 0x24 PUSH1 0x0 REVERT JUMPDEST PUSH32 0x4E487B7100000000000000000000000000000000000000000000000000000000 PUSH1 0x0 MSTORE PUSH1 0x11 PUSH1 0x4 MSTORE PUSH1 0x24 PUSH1 0x0 REVERT JUMPDEST PUSH1 0x0 PUSH3 0x3632 DUP3 PUSH3 0x2DD8 JUMP JUMPDEST SWAP2 POP PUSH3 0x363F DUP4 PUSH3 0x2DD8 JUMP JUMPDEST SWAP3 POP DUP3 PUSH3 0x3652 JUMPI PUSH3 0x3651 PUSH3 0x35C7 JUMP JUMPDEST JUMPDEST DUP3 DUP3 DIV SWAP1 POP SWAP3 SWAP2 POP POP JUMP JUMPDEST PUSH1 0x0 PUSH1 0x60 DUP3 ADD SWAP1 POP PUSH3 0x3674 PUSH1 0x0 DUP4 ADD DUP7 PUSH3 0x30A4 JUMP JUMPDEST PUSH3 0x3683 PUSH1 0x20 DUP4 ADD DUP6 PUSH3 0x30A4 JUMP JUMPDEST PUSH3 0x3692 PUSH1 0x40 DUP4 ADD DUP5 PUSH3 0x2DE2 JUMP JUMPDEST SWAP5 SWAP4 POP POP POP POP JUMP JUMPDEST PUSH1 0x0 PUSH3 0x36A7 DUP3 PUSH3 0x2DD8 JUMP JUMPDEST SWAP2 POP PUSH3 0x36B4 DUP4 PUSH3 0x2DD8 JUMP JUMPDEST SWAP3 POP DUP3 DUP3 LT ISZERO PUSH3 0x36CA JUMPI PUSH3 0x36C9 PUSH3 0x35F6 JUMP JUMPDEST JUMPDEST DUP3 DUP3 SUB SWAP1 POP SWAP3 SWAP2 POP POP JUMP JUMPDEST PUSH32 0x4E487B7100000000000000000000000000000000000000000000000000000000 PUSH1 0x0 MSTORE PUSH1 0x31 PUSH1 0x4 MSTORE PUSH1 0x24 PUSH1 0x0 REVERT JUMPDEST PUSH1 0x0 PUSH3 0x3711 DUP3 PUSH3 0x2DD8 JUMP JUMPDEST SWAP2 POP PUSH32 0xFFFFFFFFFFFFFFFFFFFFFFFFFFFFFFFFFFFFFFFFFFFFFFFFFFFFFFFFFFFFFFFF DUP3 EQ ISZERO PUSH3 0x3747 JUMPI PUSH3 0x3746 PUSH3 0x35F6 JUMP JUMPDEST JUMPDEST PUSH1 0x1 DUP3 ADD SWAP1 POP SWAP2 SWAP1 POP JUMP JUMPDEST PUSH1 0x0 PUSH3 0x375F DUP3 PUSH3 0x2DD8 JUMP JUMPDEST SWAP2 POP PUSH3 0x376C DUP4 PUSH3 0x2DD8 JUMP JUMPDEST SWAP3 POP DUP3 PUSH32 0xFFFFFFFFFFFFFFFFFFFFFFFFFFFFFFFFFFFFFFFFFFFFFFFFFFFFFFFFFFFFFFFF SUB DUP3 GT ISZERO PUSH3 0x37A4 JUMPI PUSH3 0x37A3 PUSH3 0x35F6 JUMP JUMPDEST JUMPDEST DUP3 DUP3 ADD SWAP1 POP SWAP3 SWAP2 POP POP JUMP JUMPDEST PUSH1 0x0 PUSH1 0x40 DUP3 ADD SWAP1 POP PUSH3 0x37C6 PUSH1 0x0 DUP4 ADD DUP6 PUSH3 0x30A4 JUMP JUMPDEST PUSH3 0x37D5 PUSH1 0x20 DUP4 ADD DUP5 PUSH3 0x2DE2 JUMP JUMPDEST SWAP4 SWAP3 POP POP POP JUMP JUMPDEST PUSH1 0x0 PUSH3 0x37E9 DUP3 PUSH3 0x2DD8 JUMP JUMPDEST SWAP2 POP PUSH3 0x37F6 DUP4 PUSH3 0x2DD8 JUMP JUMPDEST SWAP3 POP DUP2 PUSH32 0xFFFFFFFFFFFFFFFFFFFFFFFFFFFFFFFFFFFFFFFFFFFFFFFFFFFFFFFFFFFFFFFF DIV DUP4 GT DUP3 ISZERO ISZERO AND ISZERO PUSH3 0x3832 JUMPI PUSH3 0x3831 PUSH3 0x35F6 JUMP JUMPDEST JUMPDEST DUP3 DUP3 MUL SWAP1 POP SWAP3 SWAP2 POP POP JUMP JUMPDEST PUSH1 0x0 DUP3 DUP3 MSTORE PUSH1 0x20 DUP3 ADD SWAP1 POP SWAP3 SWAP2 POP POP JUMP JUMPDEST PUSH32 0x56544F4B454E3131353500000000000000000000000000000000000000000000 PUSH1 0x0 DUP3 ADD MSTORE POP JUMP JUMPDEST PUSH1 0x0 PUSH3 0x3886 PUSH1 0xA DUP4 PUSH3 0x383D JUMP JUMPDEST SWAP2 POP PUSH3 0x3893 DUP3 PUSH3 0x384E JUMP JUMPDEST PUSH1 0x20 DUP3 ADD SWAP1 POP SWAP2 SWAP1 POP JUMP JUMPDEST PUSH32 0x5654313135350000000000000000000000000000000000000000000000000000 PUSH1 0x0 DUP3 ADD MSTORE POP JUMP JUMPDEST PUSH1 0x0 PUSH3 0x38D6 PUSH1 0x6 DUP4 PUSH3 0x383D JUMP JUMPDEST SWAP2 POP PUSH3 0x38E3 DUP3 PUSH3 0x389E JUMP JUMPDEST PUSH1 0x20 DUP3 ADD SWAP1 POP SWAP2 SWAP1 POP JUMP JUMPDEST PUSH1 0x0 PUSH1 0x40 DUP3 ADD SWAP1 POP DUP2 DUP2 SUB PUSH1 0x0 DUP4 ADD MSTORE PUSH3 0x3909 DUP2 PUSH3 0x3877 JUMP JUMPDEST SWAP1 POP DUP2 DUP2 SUB PUSH1 0x20 DUP4 ADD MSTORE PUSH3 0x391E DUP2 PUSH3 0x38C7 JUMP JUMPDEST SWAP1 POP SWAP2 SWAP1 POP JUMP JUMPDEST PUSH32 0x56544F4B454E3732310000000000000000000000000000000000000000000000 PUSH1 0x0 DUP3 ADD MSTORE POP JUMP JUMPDEST PUSH1 0x0 PUSH3 0x395D PUSH1 0x9 DUP4 PUSH3 0x383D JUMP JUMPDEST SWAP2 POP PUSH3 0x396A DUP3 PUSH3 0x3925 JUMP JUMPDEST PUSH1 0x20 DUP3 ADD SWAP1 POP SWAP2 SWAP1 POP JUMP JUMPDEST PUSH32 0x5654373231000000000000000000000000000000000000000000000000000000 PUSH1 0x0 DUP3 ADD MSTORE POP JUMP JUMPDEST PUSH1 0x0 PUSH3 0x39AD PUSH1 0x5 DUP4 PUSH3 0x383D JUMP JUMPDEST SWAP2 POP PUSH3 0x39BA DUP3 PUSH3 0x3975 JUMP JUMPDEST PUSH1 0x20 DUP3 ADD SWAP1 POP SWAP2 SWAP1 POP JUMP JUMPDEST PUSH1 0x0 PUSH1 0x40 DUP3 ADD SWAP1 POP DUP2 DUP2 SUB PUSH1 0x0 DUP4 ADD MSTORE PUSH3 0x39E0 DUP2 PUSH3 0x394E JUMP JUMPDEST SWAP1 POP DUP2 DUP2 SUB PUSH1 0x20 DUP4 ADD MSTORE PUSH3 0x39F5 DUP2 PUSH3 0x399E JUMP JUMPDEST SWAP1 POP SWAP2 SWAP1 POP JUMP JUMPDEST PUSH1 0x0 DUP3 DUP3 MSTORE PUSH1 0x20 DUP3 ADD SWAP1 POP SWAP3 SWAP2 POP POP JUMP JUMPDEST PUSH32 0x3078000000000000000000000000000000000000000000000000000000000000 PUSH1 0x0 DUP3 ADD MSTORE POP JUMP JUMPDEST PUSH1 0x0 PUSH3 0x3A45 PUSH1 0x2 DUP4 PUSH3 0x39FC JUMP JUMPDEST SWAP2 POP PUSH3 0x3A52 DUP3 PUSH3 0x3A0D JUMP JUMPDEST PUSH1 0x20 DUP3 ADD SWAP1 POP SWAP2 SWAP1 POP JUMP JUMPDEST PUSH1 0x0 PUSH1 0xA0 DUP3 ADD SWAP1 POP PUSH3 0x3A74 PUSH1 0x0 DUP4 ADD DUP8 PUSH3 0x30A4 JUMP JUMPDEST PUSH3 0x3A83 PUSH1 0x20 DUP4 ADD DUP7 PUSH3 0x30A4 JUMP JUMPDEST PUSH3 0x3A92 PUSH1 0x40 DUP4 ADD DUP6 PUSH3 0x2DE2 JUMP JUMPDEST PUSH3 0x3AA1 PUSH1 0x60 DUP4 ADD DUP5 PUSH3 0x2DE2 JUMP JUMPDEST DUP2 DUP2 SUB PUSH1 0x80 DUP4 ADD MSTORE PUSH3 0x3AB4 DUP2 PUSH3 0x3A36 JUMP JUMPDEST SWAP1 POP SWAP6 SWAP5 POP POP POP POP POP JUMP JUMPDEST PUSH32 0x4F776E61626C653A206E6577206F776E657220697320746865207A65726F2061 PUSH1 0x0 DUP3 ADD MSTORE PUSH32 0x6464726573730000000000000000000000000000000000000000000000000000 PUSH1 0x20 DUP3 ADD MSTORE POP JUMP JUMPDEST PUSH1 0x0 PUSH3 0x3B1D PUSH1 0x26 DUP4 PUSH3 0x383D JUMP JUMPDEST SWAP2 POP PUSH3 0x3B2A DUP3 PUSH3 0x3ABF JUMP JUMPDEST PUSH1 0x40 DUP3 ADD SWAP1 POP SWAP2 SWAP1 POP JUMP JUMPDEST PUSH1 0x0 PUSH1 0x20 DUP3 ADD SWAP1 POP DUP2 DUP2 SUB PUSH1 0x0 DUP4 ADD MSTORE PUSH3 0x3B50 DUP2 PUSH3 0x3B0E JUMP JUMPDEST SWAP1 POP SWAP2 SWAP1 POP JUMP JUMPDEST PUSH32 0x41726773206E6F74206D61746368210000000000000000000000000000000000 PUSH1 0x0 DUP3 ADD MSTORE POP JUMP JUMPDEST PUSH1 0x0 PUSH3 0x3B8F PUSH1 0xF DUP4 PUSH3 0x383D JUMP JUMPDEST SWAP2 POP PUSH3 0x3B9C DUP3 PUSH3 0x3B57 JUMP JUMPDEST PUSH1 0x20 DUP3 ADD SWAP1 POP SWAP2 SWAP1 POP JUMP JUMPDEST PUSH1 0x0 PUSH1 0x20 DUP3 ADD SWAP1 POP DUP2 DUP2 SUB PUSH1 0x0 DUP4 ADD MSTORE PUSH3 0x3BC2 DUP2 PUSH3 0x3B80 JUMP JUMPDEST SWAP1 POP SWAP2 SWAP1 POP JUMP JUMPDEST PUSH32 0x4F776E61626C653A2063616C6C6572206973206E6F7420746865206F776E6572 PUSH1 0x0 DUP3 ADD MSTORE POP JUMP JUMPDEST PUSH1 0x0 PUSH3 0x3C01 PUSH1 0x20 DUP4 PUSH3 0x383D JUMP JUMPDEST SWAP2 POP PUSH3 0x3C0E DUP3 PUSH3 0x3BC9 JUMP JUMPDEST PUSH1 0x20 DUP3 ADD SWAP1 POP SWAP2 SWAP1 POP JUMP JUMPDEST PUSH1 0x0 PUSH1 0x20 DUP3 ADD SWAP1 POP DUP2 DUP2 SUB PUSH1 0x0 DUP4 ADD MSTORE PUSH3 0x3C34 DUP2 PUSH3 0x3BF2 JUMP JUMPDEST SWAP1 POP SWAP2 SWAP1 POP JUMP JUMPDEST PUSH1 0x0 PUSH3 0x3C48 DUP3 PUSH3 0x2DD8 JUMP JUMPDEST SWAP2 POP PUSH3 0x3C55 DUP4 PUSH3 0x2DD8 JUMP JUMPDEST SWAP3 POP DUP3 PUSH3 0x3C68 JUMPI PUSH3 0x3C67 PUSH3 0x35C7 JUMP JUMPDEST JUMPDEST DUP3 DUP3 MOD SWAP1 POP SWAP3 SWAP2 POP POP JUMP INVALID PUSH1 0x80 PUSH1 0x40 MSTORE CALLVALUE DUP1 ISZERO PUSH3 0x11 JUMPI PUSH1 0x0 DUP1 REVERT JUMPDEST POP PUSH1 0x40 MLOAD PUSH3 0x208F CODESIZE SUB DUP1 PUSH3 0x208F DUP4 CODECOPY DUP2 DUP2 ADD PUSH1 0x40 MSTORE DUP2 ADD SWAP1 PUSH3 0x37 SWAP2 SWAP1 PUSH3 0x3C5 JUMP JUMPDEST PUSH3 0x57 PUSH3 0x4B PUSH3 0xAC PUSH1 0x20 SHL PUSH1 0x20 SHR JUMP JUMPDEST PUSH3 0xB4 PUSH1 0x20 SHL PUSH1 0x20 SHR JUMP JUMPDEST DUP2 PUSH1 0x4 SWAP1 DUP1 MLOAD SWAP1 PUSH1 0x20 ADD SWAP1 PUSH3 0x6F SWAP3 SWAP2 SWAP1 PUSH3 0x178 JUMP JUMPDEST POP DUP1 PUSH1 0x5 SWAP1 DUP1 MLOAD SWAP1 PUSH1 0x20 ADD SWAP1 PUSH3 0x88 SWAP3 SWAP2 SWAP1 PUSH3 0x178 JUMP JUMPDEST POP PUSH1 0x1 PUSH1 0x6 PUSH1 0x0 PUSH2 0x100 EXP DUP2 SLOAD DUP2 PUSH1 0xFF MUL NOT AND SWAP1 DUP4 ISZERO ISZERO MUL OR SWAP1 SSTORE POP POP POP PUSH3 0x4AF JUMP JUMPDEST PUSH1 0x0 CALLER SWAP1 POP SWAP1 JUMP JUMPDEST PUSH1 0x0 DUP1 PUSH1 0x0 SWAP1 SLOAD SWAP1 PUSH2 0x100 EXP SWAP1 DIV PUSH20 0xFFFFFFFFFFFFFFFFFFFFFFFFFFFFFFFFFFFFFFFF AND SWAP1 POP DUP2 PUSH1 0x0 DUP1 PUSH2 0x100 EXP DUP2 SLOAD DUP2 PUSH20 0xFFFFFFFFFFFFFFFFFFFFFFFFFFFFFFFFFFFFFFFF MUL NOT AND SWAP1 DUP4 PUSH20 0xFFFFFFFFFFFFFFFFFFFFFFFFFFFFFFFFFFFFFFFF AND MUL OR SWAP1 SSTORE POP DUP2 PUSH20 0xFFFFFFFFFFFFFFFFFFFFFFFFFFFFFFFFFFFFFFFF AND DUP2 PUSH20 0xFFFFFFFFFFFFFFFFFFFFFFFFFFFFFFFFFFFFFFFF AND PUSH32 0x8BE0079C531659141344CD1FD0A4F28419497F9722A3DAAFE3B4186F6B6457E0 PUSH1 0x40 MLOAD PUSH1 0x40 MLOAD DUP1 SWAP2 SUB SWAP1 LOG3 POP POP JUMP JUMPDEST DUP3 DUP1 SLOAD PUSH3 0x186 SWAP1 PUSH3 0x479 JUMP JUMPDEST SWAP1 PUSH1 0x0 MSTORE PUSH1 0x20 PUSH1 0x0 KECCAK256 SWAP1 PUSH1 0x1F ADD PUSH1 0x20 SWAP1 DIV DUP2 ADD SWAP3 DUP3 PUSH3 0x1AA JUMPI PUSH1 0x0 DUP6 SSTORE PUSH3 0x1F6 JUMP JUMPDEST DUP3 PUSH1 0x1F LT PUSH3 0x1C5 JUMPI DUP1 MLOAD PUSH1 0xFF NOT AND DUP4 DUP1 ADD OR DUP6 SSTORE PUSH3 0x1F6 JUMP JUMPDEST DUP3 DUP1 ADD PUSH1 0x1 ADD DUP6 SSTORE DUP3 ISZERO PUSH3 0x1F6 JUMPI SWAP2 DUP3 ADD JUMPDEST DUP3 DUP2 GT ISZERO PUSH3 0x1F5 JUMPI DUP3 MLOAD DUP3 SSTORE SWAP2 PUSH1 0x20 ADD SWAP2 SWAP1 PUSH1 0x1 ADD SWAP1 PUSH3 0x1D8 JUMP JUMPDEST JUMPDEST POP SWAP1 POP PUSH3 0x205 SWAP2 SWAP1 PUSH3 0x209 JUMP JUMPDEST POP SWAP1 JUMP JUMPDEST JUMPDEST DUP1 DUP3 GT ISZERO PUSH3 0x224 JUMPI PUSH1 0x0 DUP2 PUSH1 0x0 SWAP1 SSTORE POP PUSH1 0x1 ADD PUSH3 0x20A JUMP JUMPDEST POP SWAP1 JUMP JUMPDEST PUSH1 0x0 PUSH1 0x40 MLOAD SWAP1 POP SWAP1 JUMP JUMPDEST PUSH1 0x0 DUP1 REVERT JUMPDEST PUSH1 0x0 DUP1 REVERT JUMPDEST PUSH1 0x0 DUP1 REVERT JUMPDEST PUSH1 0x0 DUP1 REVERT JUMPDEST PUSH1 0x0 PUSH1 0x1F NOT PUSH1 0x1F DUP4 ADD AND SWAP1 POP SWAP2 SWAP1 POP JUMP JUMPDEST PUSH32 0x4E487B7100000000000000000000000000000000000000000000000000000000 PUSH1 0x0 MSTORE PUSH1 0x41 PUSH1 0x4 MSTORE PUSH1 0x24 PUSH1 0x0 REVERT JUMPDEST PUSH3 0x291 DUP3 PUSH3 0x246 JUMP JUMPDEST DUP2 ADD DUP2 DUP2 LT PUSH8 0xFFFFFFFFFFFFFFFF DUP3 GT OR ISZERO PUSH3 0x2B3 JUMPI PUSH3 0x2B2 PUSH3 0x257 JUMP JUMPDEST JUMPDEST DUP1 PUSH1 0x40 MSTORE POP POP POP JUMP JUMPDEST PUSH1 0x0 PUSH3 0x2C8 PUSH3 0x228 JUMP JUMPDEST SWAP1 POP PUSH3 0x2D6 DUP3 DUP3 PUSH3 0x286 JUMP JUMPDEST SWAP2 SWAP1 POP JUMP JUMPDEST PUSH1 0x0 PUSH8 0xFFFFFFFFFFFFFFFF DUP3 GT ISZERO PUSH3 0x2F9 JUMPI PUSH3 0x2F8 PUSH3 0x257 JUMP JUMPDEST JUMPDEST PUSH3 0x304 DUP3 PUSH3 0x246 JUMP JUMPDEST SWAP1 POP PUSH1 0x20 DUP2 ADD SWAP1 POP SWAP2 SWAP1 POP JUMP JUMPDEST PUSH1 0x0 JUMPDEST DUP4 DUP2 LT ISZERO PUSH3 0x331 JUMPI DUP1 DUP3 ADD MLOAD DUP2 DUP5 ADD MSTORE PUSH1 0x20 DUP2 ADD SWAP1 POP PUSH3 0x314 JUMP JUMPDEST DUP4 DUP2 GT ISZERO PUSH3 0x341 JUMPI PUSH1 0x0 DUP5 DUP5 ADD MSTORE JUMPDEST POP POP POP POP JUMP JUMPDEST PUSH1 0x0 PUSH3 0x35E PUSH3 0x358 DUP5 PUSH3 0x2DB JUMP JUMPDEST PUSH3 0x2BC JUMP JUMPDEST SWAP1 POP DUP3 DUP2 MSTORE PUSH1 0x20 DUP2 ADD DUP5 DUP5 DUP5 ADD GT ISZERO PUSH3 0x37D JUMPI PUSH3 0x37C PUSH3 0x241 JUMP JUMPDEST JUMPDEST PUSH3 0x38A DUP5 DUP3 DUP6 PUSH3 0x311 JUMP JUMPDEST POP SWAP4 SWAP3 POP POP POP JUMP JUMPDEST PUSH1 0x0 DUP3 PUSH1 0x1F DUP4 ADD SLT PUSH3 0x3AA JUMPI PUSH3 0x3A9 PUSH3 0x23C JUMP JUMPDEST JUMPDEST DUP2 MLOAD PUSH3 0x3BC DUP5 DUP3 PUSH1 0x20 DUP7 ADD PUSH3 0x347 JUMP JUMPDEST SWAP2 POP POP SWAP3 SWAP2 POP POP JUMP JUMPDEST PUSH1 0x0 DUP1 PUSH1 0x40 DUP4 DUP6 SUB SLT ISZERO PUSH3 0x3DF JUMPI PUSH3 0x3DE PUSH3 0x232 JUMP JUMPDEST JUMPDEST PUSH1 0x0 DUP4 ADD MLOAD PUSH8 0xFFFFFFFFFFFFFFFF DUP2 GT ISZERO PUSH3 0x400 JUMPI PUSH3 0x3FF PUSH3 0x237 JUMP JUMPDEST JUMPDEST PUSH3 0x40E DUP6 DUP3 DUP7 ADD PUSH3 0x392 JUMP JUMPDEST SWAP3 POP POP PUSH1 0x20 DUP4 ADD MLOAD PUSH8 0xFFFFFFFFFFFFFFFF DUP2 GT ISZERO PUSH3 0x432 JUMPI PUSH3 0x431 PUSH3 0x237 JUMP JUMPDEST JUMPDEST PUSH3 0x440 DUP6 DUP3 DUP7 ADD PUSH3 0x392 JUMP JUMPDEST SWAP2 POP POP SWAP3 POP SWAP3 SWAP1 POP JUMP JUMPDEST PUSH32 0x4E487B7100000000000000000000000000000000000000000000000000000000 PUSH1 0x0 MSTORE PUSH1 0x22 PUSH1 0x4 MSTORE PUSH1 0x24 PUSH1 0x0 REVERT JUMPDEST PUSH1 0x0 PUSH1 0x2 DUP3 DIV SWAP1 POP PUSH1 0x1 DUP3 AND DUP1 PUSH3 0x492 JUMPI PUSH1 0x7F DUP3 AND SWAP2 POP JUMPDEST PUSH1 0x20 DUP3 LT DUP2 EQ ISZERO PUSH3 0x4A9 JUMPI PUSH3 0x4A8 PUSH3 0x44A JUMP JUMPDEST JUMPDEST POP SWAP2 SWAP1 POP JUMP JUMPDEST PUSH2 0x1BD0 DUP1 PUSH3 0x4BF PUSH1 0x0 CODECOPY PUSH1 0x0 RETURN INVALID PUSH1 0x80 PUSH1 0x40 MSTORE CALLVALUE DUP1 ISZERO PUSH2 0x10 JUMPI PUSH1 0x0 DUP1 REVERT JUMPDEST POP PUSH1 0x4 CALLDATASIZE LT PUSH2 0x10B JUMPI PUSH1 0x0 CALLDATALOAD PUSH1 0xE0 SHR DUP1 PUSH4 0x715018A6 GT PUSH2 0xA2 JUMPI DUP1 PUSH4 0xA457C2D7 GT PUSH2 0x71 JUMPI DUP1 PUSH4 0xA457C2D7 EQ PUSH2 0x2A8 JUMPI DUP1 PUSH4 0xA9059CBB EQ PUSH2 0x2D8 JUMPI DUP1 PUSH4 0xDB68E9C0 EQ PUSH2 0x308 JUMPI DUP1 PUSH4 0xDD62ED3E EQ PUSH2 0x326 JUMPI DUP1 PUSH4 0xF2FDE38B EQ PUSH2 0x356 JUMPI PUSH2 0x10B JUMP JUMPDEST DUP1 PUSH4 0x715018A6 EQ PUSH2 0x246 JUMPI DUP1 PUSH4 0x8DA5CB5B EQ PUSH2 0x250 JUMPI DUP1 PUSH4 0x95D89B41 EQ PUSH2 0x26E JUMPI DUP1 PUSH4 0x9DC29FAC EQ PUSH2 0x28C JUMPI PUSH2 0x10B JUMP JUMPDEST DUP1 PUSH4 0x313CE567 GT PUSH2 0xDE JUMPI DUP1 PUSH4 0x313CE567 EQ PUSH2 0x1AC JUMPI DUP1 PUSH4 0x39509351 EQ PUSH2 0x1CA JUMPI DUP1 PUSH4 0x40C10F19 EQ PUSH2 0x1FA JUMPI DUP1 PUSH4 0x70A08231 EQ PUSH2 0x216 JUMPI PUSH2 0x10B JUMP JUMPDEST DUP1 PUSH4 0x6FDDE03 EQ PUSH2 0x110 JUMPI DUP1 PUSH4 0x95EA7B3 EQ PUSH2 0x12E JUMPI DUP1 PUSH4 0x18160DDD EQ PUSH2 0x15E JUMPI DUP1 PUSH4 0x23B872DD EQ PUSH2 0x17C JUMPI JUMPDEST PUSH1 0x0 DUP1 REVERT JUMPDEST PUSH2 0x118 PUSH2 0x372 JUMP JUMPDEST PUSH1 0x40 MLOAD PUSH2 0x125 SWAP2 SWAP1 PUSH2 0x119E JUMP JUMPDEST PUSH1 0x40 MLOAD DUP1 SWAP2 SUB SWAP1 RETURN JUMPDEST PUSH2 0x148 PUSH1 0x4 DUP1 CALLDATASIZE SUB DUP2 ADD SWAP1 PUSH2 0x143 SWAP2 SWAP1 PUSH2 0x1259 JUMP JUMPDEST PUSH2 0x404 JUMP JUMPDEST PUSH1 0x40 MLOAD PUSH2 0x155 SWAP2 SWAP1 PUSH2 0x12B4 JUMP JUMPDEST PUSH1 0x40 MLOAD DUP1 SWAP2 SUB SWAP1 RETURN JUMPDEST PUSH2 0x166 PUSH2 0x427 JUMP JUMPDEST PUSH1 0x40 MLOAD PUSH2 0x173 SWAP2 SWAP1 PUSH2 0x12DE JUMP JUMPDEST PUSH1 0x40 MLOAD DUP1 SWAP2 SUB SWAP1 RETURN JUMPDEST PUSH2 0x196 PUSH1 0x4 DUP1 CALLDATASIZE SUB DUP2 ADD SWAP1 PUSH2 0x191 SWAP2 SWAP1 PUSH2 0x12F9 JUMP JUMPDEST PUSH2 0x431 JUMP JUMPDEST PUSH1 0x40 MLOAD PUSH2 0x1A3 SWAP2 SWAP1 PUSH2 0x12B4 JUMP JUMPDEST PUSH1 0x40 MLOAD DUP1 SWAP2 SUB SWAP1 RETURN JUMPDEST PUSH2 0x1B4 PUSH2 0x460 JUMP JUMPDEST PUSH1 0x40 MLOAD PUSH2 0x1C1 SWAP2 SWAP1 PUSH2 0x1368 JUMP JUMPDEST PUSH1 0x40 MLOAD DUP1 SWAP2 SUB SWAP1 RETURN JUMPDEST PUSH2 0x1E4 PUSH1 0x4 DUP1 CALLDATASIZE SUB DUP2 ADD SWAP1 PUSH2 0x1DF SWAP2 SWAP1 PUSH2 0x1259 JUMP JUMPDEST PUSH2 0x469 JUMP JUMPDEST PUSH1 0x40 MLOAD PUSH2 0x1F1 SWAP2 SWAP1 PUSH2 0x12B4 JUMP JUMPDEST PUSH1 0x40 MLOAD DUP1 SWAP2 SUB SWAP1 RETURN JUMPDEST PUSH2 0x214 PUSH1 0x4 DUP1 CALLDATASIZE SUB DUP2 ADD SWAP1 PUSH2 0x20F SWAP2 SWAP1 PUSH2 0x1259 JUMP JUMPDEST PUSH2 0x4A0 JUMP JUMPDEST STOP JUMPDEST PUSH2 0x230 PUSH1 0x4 DUP1 CALLDATASIZE SUB DUP2 ADD SWAP1 PUSH2 0x22B SWAP2 SWAP1 PUSH2 0x1383 JUMP JUMPDEST PUSH2 0x4B6 JUMP JUMPDEST PUSH1 0x40 MLOAD PUSH2 0x23D SWAP2 SWAP1 PUSH2 0x12DE JUMP JUMPDEST PUSH1 0x40 MLOAD DUP1 SWAP2 SUB SWAP1 RETURN JUMPDEST PUSH2 0x24E PUSH2 0x4FF JUMP JUMPDEST STOP JUMPDEST PUSH2 0x258 PUSH2 0x513 JUMP JUMPDEST PUSH1 0x40 MLOAD PUSH2 0x265 SWAP2 SWAP1 PUSH2 0x13BF JUMP JUMPDEST PUSH1 0x40 MLOAD DUP1 SWAP2 SUB SWAP1 RETURN JUMPDEST PUSH2 0x276 PUSH2 0x53C JUMP JUMPDEST PUSH1 0x40 MLOAD PUSH2 0x283 SWAP2 SWAP1 PUSH2 0x119E JUMP JUMPDEST PUSH1 0x40 MLOAD DUP1 SWAP2 SUB SWAP1 RETURN JUMPDEST PUSH2 0x2A6 PUSH1 0x4 DUP1 CALLDATASIZE SUB DUP2 ADD SWAP1 PUSH2 0x2A1 SWAP2 SWAP1 PUSH2 0x1259 JUMP JUMPDEST PUSH2 0x5CE JUMP JUMPDEST STOP JUMPDEST PUSH2 0x2C2 PUSH1 0x4 DUP1 CALLDATASIZE SUB DUP2 ADD SWAP1 PUSH2 0x2BD SWAP2 SWAP1 PUSH2 0x1259 JUMP JUMPDEST PUSH2 0x5E4 JUMP JUMPDEST PUSH1 0x40 MLOAD PUSH2 0x2CF SWAP2 SWAP1 PUSH2 0x12B4 JUMP JUMPDEST PUSH1 0x40 MLOAD DUP1 SWAP2 SUB SWAP1 RETURN JUMPDEST PUSH2 0x2F2 PUSH1 0x4 DUP1 CALLDATASIZE SUB DUP2 ADD SWAP1 PUSH2 0x2ED SWAP2 SWAP1 PUSH2 0x1259 JUMP JUMPDEST PUSH2 0x65B JUMP JUMPDEST PUSH1 0x40 MLOAD PUSH2 0x2FF SWAP2 SWAP1 PUSH2 0x12B4 JUMP JUMPDEST PUSH1 0x40 MLOAD DUP1 SWAP2 SUB SWAP1 RETURN JUMPDEST PUSH2 0x310 PUSH2 0x67E JUMP JUMPDEST PUSH1 0x40 MLOAD PUSH2 0x31D SWAP2 SWAP1 PUSH2 0x12B4 JUMP JUMPDEST PUSH1 0x40 MLOAD DUP1 SWAP2 SUB SWAP1 RETURN JUMPDEST PUSH2 0x340 PUSH1 0x4 DUP1 CALLDATASIZE SUB DUP2 ADD SWAP1 PUSH2 0x33B SWAP2 SWAP1 PUSH2 0x13DA JUMP JUMPDEST PUSH2 0x691 JUMP JUMPDEST PUSH1 0x40 MLOAD PUSH2 0x34D SWAP2 SWAP1 PUSH2 0x12DE JUMP JUMPDEST PUSH1 0x40 MLOAD DUP1 SWAP2 SUB SWAP1 RETURN JUMPDEST PUSH2 0x370 PUSH1 0x4 DUP1 CALLDATASIZE SUB DUP2 ADD SWAP1 PUSH2 0x36B SWAP2 SWAP1 PUSH2 0x1383 JUMP JUMPDEST PUSH2 0x718 JUMP JUMPDEST STOP JUMPDEST PUSH1 0x60 PUSH1 0x4 DUP1 SLOAD PUSH2 0x381 SWAP1 PUSH2 0x1449 JUMP JUMPDEST DUP1 PUSH1 0x1F ADD PUSH1 0x20 DUP1 SWAP2 DIV MUL PUSH1 0x20 ADD PUSH1 0x40 MLOAD SWAP1 DUP2 ADD PUSH1 0x40 MSTORE DUP1 SWAP3 SWAP2 SWAP1 DUP2 DUP2 MSTORE PUSH1 0x20 ADD DUP3 DUP1 SLOAD PUSH2 0x3AD SWAP1 PUSH2 0x1449 JUMP JUMPDEST DUP1 ISZERO PUSH2 0x3FA JUMPI DUP1 PUSH1 0x1F LT PUSH2 0x3CF JUMPI PUSH2 0x100 DUP1 DUP4 SLOAD DIV MUL DUP4 MSTORE SWAP2 PUSH1 0x20 ADD SWAP2 PUSH2 0x3FA JUMP JUMPDEST DUP3 ADD SWAP2 SWAP1 PUSH1 0x0 MSTORE PUSH1 0x20 PUSH1 0x0 KECCAK256 SWAP1 JUMPDEST DUP2 SLOAD DUP2 MSTORE SWAP1 PUSH1 0x1 ADD SWAP1 PUSH1 0x20 ADD DUP1 DUP4 GT PUSH2 0x3DD JUMPI DUP3 SWAP1 SUB PUSH1 0x1F AND DUP3 ADD SWAP2 JUMPDEST POP POP POP POP POP SWAP1 POP SWAP1 JUMP JUMPDEST PUSH1 0x0 DUP1 PUSH2 0x40F PUSH2 0x79C JUMP JUMPDEST SWAP1 POP PUSH2 0x41C DUP2 DUP6 DUP6 PUSH2 0x7A4 JUMP JUMPDEST PUSH1 0x1 SWAP2 POP POP SWAP3 SWAP2 POP POP JUMP JUMPDEST PUSH1 0x0 PUSH1 0x3 SLOAD SWAP1 POP SWAP1 JUMP JUMPDEST PUSH1 0x0 DUP1 PUSH2 0x43C PUSH2 0x79C JUMP JUMPDEST SWAP1 POP PUSH2 0x449 DUP6 DUP3 DUP6 PUSH2 0x96F JUMP JUMPDEST PUSH2 0x454 DUP6 DUP6 DUP6 PUSH2 0x9FB JUMP JUMPDEST PUSH1 0x1 SWAP2 POP POP SWAP4 SWAP3 POP POP POP JUMP JUMPDEST PUSH1 0x0 PUSH1 0x12 SWAP1 POP SWAP1 JUMP JUMPDEST PUSH1 0x0 DUP1 PUSH2 0x474 PUSH2 0x79C JUMP JUMPDEST SWAP1 POP PUSH2 0x495 DUP2 DUP6 DUP6 PUSH2 0x486 DUP6 DUP10 PUSH2 0x691 JUMP JUMPDEST PUSH2 0x490 SWAP2 SWAP1 PUSH2 0x14AA JUMP JUMPDEST PUSH2 0x7A4 JUMP JUMPDEST PUSH1 0x1 SWAP2 POP POP SWAP3 SWAP2 POP POP JUMP JUMPDEST PUSH2 0x4A8 PUSH2 0xC7F JUMP JUMPDEST PUSH2 0x4B2 DUP3 DUP3 PUSH2 0xCFD JUMP JUMPDEST POP POP JUMP JUMPDEST PUSH1 0x0 PUSH1 0x1 PUSH1 0x0 DUP4 PUSH20 0xFFFFFFFFFFFFFFFFFFFFFFFFFFFFFFFFFFFFFFFF AND PUSH20 0xFFFFFFFFFFFFFFFFFFFFFFFFFFFFFFFFFFFFFFFF AND DUP2 MSTORE PUSH1 0x20 ADD SWAP1 DUP2 MSTORE PUSH1 0x20 ADD PUSH1 0x0 KECCAK256 SLOAD SWAP1 POP SWAP2 SWAP1 POP JUMP JUMPDEST PUSH2 0x507 PUSH2 0xC7F JUMP JUMPDEST PUSH2 0x511 PUSH1 0x0 PUSH2 0xE5E JUMP JUMPDEST JUMP JUMPDEST PUSH1 0x0 DUP1 PUSH1 0x0 SWAP1 SLOAD SWAP1 PUSH2 0x100 EXP SWAP1 DIV PUSH20 0xFFFFFFFFFFFFFFFFFFFFFFFFFFFFFFFFFFFFFFFF AND SWAP1 POP SWAP1 JUMP JUMPDEST PUSH1 0x60 PUSH1 0x5 DUP1 SLOAD PUSH2 0x54B SWAP1 PUSH2 0x1449 JUMP JUMPDEST DUP1 PUSH1 0x1F ADD PUSH1 0x20 DUP1 SWAP2 DIV MUL PUSH1 0x20 ADD PUSH1 0x40 MLOAD SWAP1 DUP2 ADD PUSH1 0x40 MSTORE DUP1 SWAP3 SWAP2 SWAP1 DUP2 DUP2 MSTORE PUSH1 0x20 ADD DUP3 DUP1 SLOAD PUSH2 0x577 SWAP1 PUSH2 0x1449 JUMP JUMPDEST DUP1 ISZERO PUSH2 0x5C4 JUMPI DUP1 PUSH1 0x1F LT PUSH2 0x599 JUMPI PUSH2 0x100 DUP1 DUP4 SLOAD DIV MUL DUP4 MSTORE SWAP2 PUSH1 0x20 ADD SWAP2 PUSH2 0x5C4 JUMP JUMPDEST DUP3 ADD SWAP2 SWAP1 PUSH1 0x0 MSTORE PUSH1 0x20 PUSH1 0x0 KECCAK256 SWAP1 JUMPDEST DUP2 SLOAD DUP2 MSTORE SWAP1 PUSH1 0x1 ADD SWAP1 PUSH1 0x20 ADD DUP1 DUP4 GT PUSH2 0x5A7 JUMPI DUP3 SWAP1 SUB PUSH1 0x1F AND DUP3 ADD SWAP2 JUMPDEST POP POP POP POP POP SWAP1 POP SWAP1 JUMP JUMPDEST PUSH2 0x5D6 PUSH2 0xC7F JUMP JUMPDEST PUSH2 0x5E0 DUP3 DUP3 PUSH2 0xF22 JUMP JUMPDEST POP POP JUMP JUMPDEST PUSH1 0x0 DUP1 PUSH2 0x5EF PUSH2 0x79C JUMP JUMPDEST SWAP1 POP PUSH1 0x0 PUSH2 0x5FD DUP3 DUP7 PUSH2 0x691 JUMP JUMPDEST SWAP1 POP DUP4 DUP2 LT ISZERO PUSH2 0x642 JUMPI PUSH1 0x40 MLOAD PUSH32 0x8C379A000000000000000000000000000000000000000000000000000000000 DUP2 MSTORE PUSH1 0x4 ADD PUSH2 0x639 SWAP1 PUSH2 0x1572 JUMP JUMPDEST PUSH1 0x40 MLOAD DUP1 SWAP2 SUB SWAP1 REVERT JUMPDEST PUSH2 0x64F DUP3 DUP7 DUP7 DUP5 SUB PUSH2 0x7A4 JUMP JUMPDEST PUSH1 0x1 SWAP3 POP POP POP SWAP3 SWAP2 POP POP JUMP JUMPDEST PUSH1 0x0 DUP1 PUSH2 0x666 PUSH2 0x79C JUMP JUMPDEST SWAP1 POP PUSH2 0x673 DUP2 DUP6 DUP6 PUSH2 0x9FB JUMP JUMPDEST PUSH1 0x1 SWAP2 POP POP SWAP3 SWAP2 POP POP JUMP JUMPDEST PUSH1 0x6 PUSH1 0x0 SWAP1 SLOAD SWAP1 PUSH2 0x100 EXP SWAP1 DIV PUSH1 0xFF AND DUP2 JUMP JUMPDEST PUSH1 0x0 PUSH1 0x2 PUSH1 0x0 DUP5 PUSH20 0xFFFFFFFFFFFFFFFFFFFFFFFFFFFFFFFFFFFFFFFF AND PUSH20 0xFFFFFFFFFFFFFFFFFFFFFFFFFFFFFFFFFFFFFFFF AND DUP2 MSTORE PUSH1 0x20 ADD SWAP1 DUP2 MSTORE PUSH1 0x20 ADD PUSH1 0x0 KECCAK256 PUSH1 0x0 DUP4 PUSH20 0xFFFFFFFFFFFFFFFFFFFFFFFFFFFFFFFFFFFFFFFF AND PUSH20 0xFFFFFFFFFFFFFFFFFFFFFFFFFFFFFFFFFFFFFFFF AND DUP2 MSTORE PUSH1 0x20 ADD SWAP1 DUP2 MSTORE PUSH1 0x20 ADD PUSH1 0x0 KECCAK256 SLOAD SWAP1 POP SWAP3 SWAP2 POP POP JUMP JUMPDEST PUSH2 0x720 PUSH2 0xC7F JUMP JUMPDEST PUSH1 0x0 PUSH20 0xFFFFFFFFFFFFFFFFFFFFFFFFFFFFFFFFFFFFFFFF AND DUP2 PUSH20 0xFFFFFFFFFFFFFFFFFFFFFFFFFFFFFFFFFFFFFFFF AND EQ ISZERO PUSH2 0x790 JUMPI PUSH1 0x40 MLOAD PUSH32 0x8C379A000000000000000000000000000000000000000000000000000000000 DUP2 MSTORE PUSH1 0x4 ADD PUSH2 0x787 SWAP1 PUSH2 0x1604 JUMP JUMPDEST PUSH1 0x40 MLOAD DUP1 SWAP2 SUB SWAP1 REVERT JUMPDEST PUSH2 0x799 DUP2 PUSH2 0xE5E JUMP JUMPDEST POP JUMP JUMPDEST PUSH1 0x0 CALLER SWAP1 POP SWAP1 JUMP JUMPDEST PUSH1 0x0 PUSH20 0xFFFFFFFFFFFFFFFFFFFFFFFFFFFFFFFFFFFFFFFF AND DUP4 PUSH20 0xFFFFFFFFFFFFFFFFFFFFFFFFFFFFFFFFFFFFFFFF AND EQ ISZERO PUSH2 0x814 JUMPI PUSH1 0x40 MLOAD PUSH32 0x8C379A000000000000000000000000000000000000000000000000000000000 DUP2 MSTORE PUSH1 0x4 ADD PUSH2 0x80B SWAP1 PUSH2 0x1696 JUMP JUMPDEST PUSH1 0x40 MLOAD DUP1 SWAP2 SUB SWAP1 REVERT JUMPDEST PUSH1 0x0 PUSH20 0xFFFFFFFFFFFFFFFFFFFFFFFFFFFFFFFFFFFFFFFF AND DUP3 PUSH20 0xFFFFFFFFFFFFFFFFFFFFFFFFFFFFFFFFFFFFFFFF AND EQ ISZERO PUSH2 0x884 JUMPI PUSH1 0x40 MLOAD PUSH32 0x8C379A000000000000000000000000000000000000000000000000000000000 DUP2 MSTORE PUSH1 0x4 ADD PUSH2 0x87B SWAP1 PUSH2 0x1728 JUMP JUMPDEST PUSH1 0x40 MLOAD DUP1 SWAP2 SUB SWAP1 REVERT JUMPDEST DUP1 PUSH1 0x2 PUSH1 0x0 DUP6 PUSH20 0xFFFFFFFFFFFFFFFFFFFFFFFFFFFFFFFFFFFFFFFF AND PUSH20 0xFFFFFFFFFFFFFFFFFFFFFFFFFFFFFFFFFFFFFFFF AND DUP2 MSTORE PUSH1 0x20 ADD SWAP1 DUP2 MSTORE PUSH1 0x20 ADD PUSH1 0x0 KECCAK256 PUSH1 0x0 DUP5 PUSH20 0xFFFFFFFFFFFFFFFFFFFFFFFFFFFFFFFFFFFFFFFF AND PUSH20 0xFFFFFFFFFFFFFFFFFFFFFFFFFFFFFFFFFFFFFFFF AND DUP2 MSTORE PUSH1 0x20 ADD SWAP1 DUP2 MSTORE PUSH1 0x20 ADD PUSH1 0x0 KECCAK256 DUP2 SWAP1 SSTORE POP DUP2 PUSH20 0xFFFFFFFFFFFFFFFFFFFFFFFFFFFFFFFFFFFFFFFF AND DUP4 PUSH20 0xFFFFFFFFFFFFFFFFFFFFFFFFFFFFFFFFFFFFFFFF AND PUSH32 0x8C5BE1E5EBEC7D5BD14F71427D1E84F3DD0314C0F7B2291E5B200AC8C7C3B925 DUP4 PUSH1 0x40 MLOAD PUSH2 0x962 SWAP2 SWAP1 PUSH2 0x12DE JUMP JUMPDEST PUSH1 0x40 MLOAD DUP1 SWAP2 SUB SWAP1 LOG3 POP POP POP JUMP JUMPDEST PUSH1 0x0 PUSH2 0x97B DUP5 DUP5 PUSH2 0x691 JUMP JUMPDEST SWAP1 POP PUSH32 0xFFFFFFFFFFFFFFFFFFFFFFFFFFFFFFFFFFFFFFFFFFFFFFFFFFFFFFFFFFFFFFFF DUP2 EQ PUSH2 0x9F5 JUMPI DUP2 DUP2 LT ISZERO PUSH2 0x9E7 JUMPI PUSH1 0x40 MLOAD PUSH32 0x8C379A000000000000000000000000000000000000000000000000000000000 DUP2 MSTORE PUSH1 0x4 ADD PUSH2 0x9DE SWAP1 PUSH2 0x1794 JUMP JUMPDEST PUSH1 0x40 MLOAD DUP1 SWAP2 SUB SWAP1 REVERT JUMPDEST PUSH2 0x9F4 DUP5 DUP5 DUP5 DUP5 SUB PUSH2 0x7A4 JUMP JUMPDEST JUMPDEST POP POP POP POP JUMP JUMPDEST PUSH1 0x0 PUSH20 0xFFFFFFFFFFFFFFFFFFFFFFFFFFFFFFFFFFFFFFFF AND DUP4 PUSH20 0xFFFFFFFFFFFFFFFFFFFFFFFFFFFFFFFFFFFFFFFF AND EQ ISZERO PUSH2 0xA6B JUMPI PUSH1 0x40 MLOAD PUSH32 0x8C379A000000000000000000000000000000000000000000000000000000000 DUP2 MSTORE PUSH1 0x4 ADD PUSH2 0xA62 SWAP1 PUSH2 0x1826 JUMP JUMPDEST PUSH1 0x40 MLOAD DUP1 SWAP2 SUB SWAP1 REVERT JUMPDEST PUSH1 0x0 PUSH20 0xFFFFFFFFFFFFFFFFFFFFFFFFFFFFFFFFFFFFFFFF AND DUP3 PUSH20 0xFFFFFFFFFFFFFFFFFFFFFFFFFFFFFFFFFFFFFFFF AND EQ ISZERO PUSH2 0xADB JUMPI PUSH1 0x40 MLOAD PUSH32 0x8C379A000000000000000000000000000000000000000000000000000000000 DUP2 MSTORE PUSH1 0x4 ADD PUSH2 0xAD2 SWAP1 PUSH2 0x18B8 JUMP JUMPDEST PUSH1 0x40 MLOAD DUP1 SWAP2 SUB SWAP1 REVERT JUMPDEST PUSH2 0xAE6 DUP4 DUP4 DUP4 PUSH2 0x10FB JUMP JUMPDEST PUSH1 0x0 PUSH1 0x1 PUSH1 0x0 DUP6 PUSH20 0xFFFFFFFFFFFFFFFFFFFFFFFFFFFFFFFFFFFFFFFF AND PUSH20 0xFFFFFFFFFFFFFFFFFFFFFFFFFFFFFFFFFFFFFFFF AND DUP2 MSTORE PUSH1 0x20 ADD SWAP1 DUP2 MSTORE PUSH1 0x20 ADD PUSH1 0x0 KECCAK256 SLOAD SWAP1 POP DUP2 DUP2 LT ISZERO PUSH2 0xB6D JUMPI PUSH1 0x40 MLOAD PUSH32 0x8C379A000000000000000000000000000000000000000000000000000000000 DUP2 MSTORE PUSH1 0x4 ADD PUSH2 0xB64 SWAP1 PUSH2 0x194A JUMP JUMPDEST PUSH1 0x40 MLOAD DUP1 SWAP2 SUB SWAP1 REVERT JUMPDEST DUP2 DUP2 SUB PUSH1 0x1 PUSH1 0x0 DUP7 PUSH20 0xFFFFFFFFFFFFFFFFFFFFFFFFFFFFFFFFFFFFFFFF AND PUSH20 0xFFFFFFFFFFFFFFFFFFFFFFFFFFFFFFFFFFFFFFFF AND DUP2 MSTORE PUSH1 0x20 ADD SWAP1 DUP2 MSTORE PUSH1 0x20 ADD PUSH1 0x0 KECCAK256 DUP2 SWAP1 SSTORE POP DUP2 PUSH1 0x1 PUSH1 0x0 DUP6 PUSH20 0xFFFFFFFFFFFFFFFFFFFFFFFFFFFFFFFFFFFFFFFF AND PUSH20 0xFFFFFFFFFFFFFFFFFFFFFFFFFFFFFFFFFFFFFFFF AND DUP2 MSTORE PUSH1 0x20 ADD SWAP1 DUP2 MSTORE PUSH1 0x20 ADD PUSH1 0x0 KECCAK256 PUSH1 0x0 DUP3 DUP3 SLOAD PUSH2 0xC02 SWAP2 SWAP1 PUSH2 0x14AA JUMP JUMPDEST SWAP3 POP POP DUP2 SWAP1 SSTORE POP DUP3 PUSH20 0xFFFFFFFFFFFFFFFFFFFFFFFFFFFFFFFFFFFFFFFF AND DUP5 PUSH20 0xFFFFFFFFFFFFFFFFFFFFFFFFFFFFFFFFFFFFFFFF AND PUSH32 0xDDF252AD1BE2C89B69C2B068FC378DAA952BA7F163C4A11628F55A4DF523B3EF DUP5 PUSH1 0x40 MLOAD PUSH2 0xC66 SWAP2 SWAP1 PUSH2 0x12DE JUMP JUMPDEST PUSH1 0x40 MLOAD DUP1 SWAP2 SUB SWAP1 LOG3 PUSH2 0xC79 DUP5 DUP5 DUP5 PUSH2 0x1100 JUMP JUMPDEST POP POP POP POP JUMP JUMPDEST PUSH2 0xC87 PUSH2 0x79C JUMP JUMPDEST PUSH20 0xFFFFFFFFFFFFFFFFFFFFFFFFFFFFFFFFFFFFFFFF AND PUSH2 0xCA5 PUSH2 0x513 JUMP JUMPDEST PUSH20 0xFFFFFFFFFFFFFFFFFFFFFFFFFFFFFFFFFFFFFFFF AND EQ PUSH2 0xCFB JUMPI PUSH1 0x40 MLOAD PUSH32 0x8C379A000000000000000000000000000000000000000000000000000000000 DUP2 MSTORE PUSH1 0x4 ADD PUSH2 0xCF2 SWAP1 PUSH2 0x19B6 JUMP JUMPDEST PUSH1 0x40 MLOAD DUP1 SWAP2 SUB SWAP1 REVERT JUMPDEST JUMP JUMPDEST PUSH1 0x0 PUSH20 0xFFFFFFFFFFFFFFFFFFFFFFFFFFFFFFFFFFFFFFFF AND DUP3 PUSH20 0xFFFFFFFFFFFFFFFFFFFFFFFFFFFFFFFFFFFFFFFF AND EQ ISZERO PUSH2 0xD6D JUMPI PUSH1 0x40 MLOAD PUSH32 0x8C379A000000000000000000000000000000000000000000000000000000000 DUP2 MSTORE PUSH1 0x4 ADD PUSH2 0xD64 SWAP1 PUSH2 0x1A22 JUMP JUMPDEST PUSH1 0x40 MLOAD DUP1 SWAP2 SUB SWAP1 REVERT JUMPDEST PUSH2 0xD79 PUSH1 0x0 DUP4 DUP4 PUSH2 0x10FB JUMP JUMPDEST DUP1 PUSH1 0x3 PUSH1 0x0 DUP3 DUP3 SLOAD PUSH2 0xD8B SWAP2 SWAP1 PUSH2 0x14AA JUMP JUMPDEST SWAP3 POP POP DUP2 SWAP1 SSTORE POP DUP1 PUSH1 0x1 PUSH1 0x0 DUP5 PUSH20 0xFFFFFFFFFFFFFFFFFFFFFFFFFFFFFFFFFFFFFFFF AND PUSH20 0xFFFFFFFFFFFFFFFFFFFFFFFFFFFFFFFFFFFFFFFF AND DUP2 MSTORE PUSH1 0x20 ADD SWAP1 DUP2 MSTORE PUSH1 0x20 ADD PUSH1 0x0 KECCAK256 PUSH1 0x0 DUP3 DUP3 SLOAD PUSH2 0xDE1 SWAP2 SWAP1 PUSH2 0x14AA JUMP JUMPDEST SWAP3 POP POP DUP2 SWAP1 SSTORE POP DUP2 PUSH20 0xFFFFFFFFFFFFFFFFFFFFFFFFFFFFFFFFFFFFFFFF AND PUSH1 0x0 PUSH20 0xFFFFFFFFFFFFFFFFFFFFFFFFFFFFFFFFFFFFFFFF AND PUSH32 0xDDF252AD1BE2C89B69C2B068FC378DAA952BA7F163C4A11628F55A4DF523B3EF DUP4 PUSH1 0x40 MLOAD PUSH2 0xE46 SWAP2 SWAP1 PUSH2 0x12DE JUMP JUMPDEST PUSH1 0x40 MLOAD DUP1 SWAP2 SUB SWAP1 LOG3 PUSH2 0xE5A PUSH1 0x0 DUP4 DUP4 PUSH2 0x1100 JUMP JUMPDEST POP POP JUMP JUMPDEST PUSH1 0x0 DUP1 PUSH1 0x0 SWAP1 SLOAD SWAP1 PUSH2 0x100 EXP SWAP1 DIV PUSH20 0xFFFFFFFFFFFFFFFFFFFFFFFFFFFFFFFFFFFFFFFF AND SWAP1 POP DUP2 PUSH1 0x0 DUP1 PUSH2 0x100 EXP DUP2 SLOAD DUP2 PUSH20 0xFFFFFFFFFFFFFFFFFFFFFFFFFFFFFFFFFFFFFFFF MUL NOT AND SWAP1 DUP4 PUSH20 0xFFFFFFFFFFFFFFFFFFFFFFFFFFFFFFFFFFFFFFFF AND MUL OR SWAP1 SSTORE POP DUP2 PUSH20 0xFFFFFFFFFFFFFFFFFFFFFFFFFFFFFFFFFFFFFFFF AND DUP2 PUSH20 0xFFFFFFFFFFFFFFFFFFFFFFFFFFFFFFFFFFFFFFFF AND PUSH32 0x8BE0079C531659141344CD1FD0A4F28419497F9722A3DAAFE3B4186F6B6457E0 PUSH1 0x40 MLOAD PUSH1 0x40 MLOAD DUP1 SWAP2 SUB SWAP1 LOG3 POP POP JUMP JUMPDEST PUSH1 0x0 PUSH20 0xFFFFFFFFFFFFFFFFFFFFFFFFFFFFFFFFFFFFFFFF AND DUP3 PUSH20 0xFFFFFFFFFFFFFFFFFFFFFFFFFFFFFFFFFFFFFFFF AND EQ ISZERO PUSH2 0xF92 JUMPI PUSH1 0x40 MLOAD PUSH32 0x8C379A000000000000000000000000000000000000000000000000000000000 DUP2 MSTORE PUSH1 0x4 ADD PUSH2 0xF89 SWAP1 PUSH2 0x1AB4 JUMP JUMPDEST PUSH1 0x40 MLOAD DUP1 SWAP2 SUB SWAP1 REVERT JUMPDEST PUSH2 0xF9E DUP3 PUSH1 0x0 DUP4 PUSH2 0x10FB JUMP JUMPDEST PUSH1 0x0 PUSH1 0x1 PUSH1 0x0 DUP5 PUSH20 0xFFFFFFFFFFFFFFFFFFFFFFFFFFFFFFFFFFFFFFFF AND PUSH20 0xFFFFFFFFFFFFFFFFFFFFFFFFFFFFFFFFFFFFFFFF AND DUP2 MSTORE PUSH1 0x20 ADD SWAP1 DUP2 MSTORE PUSH1 0x20 ADD PUSH1 0x0 KECCAK256 SLOAD SWAP1 POP DUP2 DUP2 LT ISZERO PUSH2 0x1025 JUMPI PUSH1 0x40 MLOAD PUSH32 0x8C379A000000000000000000000000000000000000000000000000000000000 DUP2 MSTORE PUSH1 0x4 ADD PUSH2 0x101C SWAP1 PUSH2 0x1B46 JUMP JUMPDEST PUSH1 0x40 MLOAD DUP1 SWAP2 SUB SWAP1 REVERT JUMPDEST DUP2 DUP2 SUB PUSH1 0x1 PUSH1 0x0 DUP6 PUSH20 0xFFFFFFFFFFFFFFFFFFFFFFFFFFFFFFFFFFFFFFFF AND PUSH20 0xFFFFFFFFFFFFFFFFFFFFFFFFFFFFFFFFFFFFFFFF AND DUP2 MSTORE PUSH1 0x20 ADD SWAP1 DUP2 MSTORE PUSH1 0x20 ADD PUSH1 0x0 KECCAK256 DUP2 SWAP1 SSTORE POP DUP2 PUSH1 0x3 PUSH1 0x0 DUP3 DUP3 SLOAD PUSH2 0x107D SWAP2 SWAP1 PUSH2 0x1B66 JUMP JUMPDEST SWAP3 POP POP DUP2 SWAP1 SSTORE POP PUSH1 0x0 PUSH20 0xFFFFFFFFFFFFFFFFFFFFFFFFFFFFFFFFFFFFFFFF AND DUP4 PUSH20 0xFFFFFFFFFFFFFFFFFFFFFFFFFFFFFFFFFFFFFFFF AND PUSH32 0xDDF252AD1BE2C89B69C2B068FC378DAA952BA7F163C4A11628F55A4DF523B3EF DUP5 PUSH1 0x40 MLOAD PUSH2 0x10E2 SWAP2 SWAP1 PUSH2 0x12DE JUMP JUMPDEST PUSH1 0x40 MLOAD DUP1 SWAP2 SUB SWAP1 LOG3 PUSH2 0x10F6 DUP4 PUSH1 0x0 DUP5 PUSH2 0x1100 JUMP JUMPDEST POP POP POP JUMP JUMPDEST POP POP POP JUMP JUMPDEST POP POP POP JUMP JUMPDEST PUSH1 0x0 DUP2 MLOAD SWAP1 POP SWAP2 SWAP1 POP JUMP JUMPDEST PUSH1 0x0 DUP3 DUP3 MSTORE PUSH1 0x20 DUP3 ADD SWAP1 POP SWAP3 SWAP2 POP POP JUMP JUMPDEST PUSH1 0x0 JUMPDEST DUP4 DUP2 LT ISZERO PUSH2 0x113F JUMPI DUP1 DUP3 ADD MLOAD DUP2 DUP5 ADD MSTORE PUSH1 0x20 DUP2 ADD SWAP1 POP PUSH2 0x1124 JUMP JUMPDEST DUP4 DUP2 GT ISZERO PUSH2 0x114E JUMPI PUSH1 0x0 DUP5 DUP5 ADD MSTORE JUMPDEST POP POP POP POP JUMP JUMPDEST PUSH1 0x0 PUSH1 0x1F NOT PUSH1 0x1F DUP4 ADD AND SWAP1 POP SWAP2 SWAP1 POP JUMP JUMPDEST PUSH1 0x0 PUSH2 0x1170 DUP3 PUSH2 0x1105 JUMP JUMPDEST PUSH2 0x117A DUP2 DUP6 PUSH2 0x1110 JUMP JUMPDEST SWAP4 POP PUSH2 0x118A DUP2 DUP6 PUSH1 0x20 DUP7 ADD PUSH2 0x1121 JUMP JUMPDEST PUSH2 0x1193 DUP2 PUSH2 0x1154 JUMP JUMPDEST DUP5 ADD SWAP2 POP POP SWAP3 SWAP2 POP POP JUMP JUMPDEST PUSH1 0x0 PUSH1 0x20 DUP3 ADD SWAP1 POP DUP2 DUP2 SUB PUSH1 0x0 DUP4 ADD MSTORE PUSH2 0x11B8 DUP2 DUP5 PUSH2 0x1165 JUMP JUMPDEST SWAP1 POP SWAP3 SWAP2 POP POP JUMP JUMPDEST PUSH1 0x0 DUP1 REVERT JUMPDEST PUSH1 0x0 PUSH20 0xFFFFFFFFFFFFFFFFFFFFFFFFFFFFFFFFFFFFFFFF DUP3 AND SWAP1 POP SWAP2 SWAP1 POP JUMP JUMPDEST PUSH1 0x0 PUSH2 0x11F0 DUP3 PUSH2 0x11C5 JUMP JUMPDEST SWAP1 POP SWAP2 SWAP1 POP JUMP JUMPDEST PUSH2 0x1200 DUP2 PUSH2 0x11E5 JUMP JUMPDEST DUP2 EQ PUSH2 0x120B JUMPI PUSH1 0x0 DUP1 REVERT JUMPDEST POP JUMP JUMPDEST PUSH1 0x0 DUP2 CALLDATALOAD SWAP1 POP PUSH2 0x121D DUP2 PUSH2 0x11F7 JUMP JUMPDEST SWAP3 SWAP2 POP POP JUMP JUMPDEST PUSH1 0x0 DUP2 SWAP1 POP SWAP2 SWAP1 POP JUMP JUMPDEST PUSH2 0x1236 DUP2 PUSH2 0x1223 JUMP JUMPDEST DUP2 EQ PUSH2 0x1241 JUMPI PUSH1 0x0 DUP1 REVERT JUMPDEST POP JUMP JUMPDEST PUSH1 0x0 DUP2 CALLDATALOAD SWAP1 POP PUSH2 0x1253 DUP2 PUSH2 0x122D JUMP JUMPDEST SWAP3 SWAP2 POP POP JUMP JUMPDEST PUSH1 0x0 DUP1 PUSH1 0x40 DUP4 DUP6 SUB SLT ISZERO PUSH2 0x1270 JUMPI PUSH2 0x126F PUSH2 0x11C0 JUMP JUMPDEST JUMPDEST PUSH1 0x0 PUSH2 0x127E DUP6 DUP3 DUP7 ADD PUSH2 0x120E JUMP JUMPDEST SWAP3 POP POP PUSH1 0x20 PUSH2 0x128F DUP6 DUP3 DUP7 ADD PUSH2 0x1244 JUMP JUMPDEST SWAP2 POP POP SWAP3 POP SWAP3 SWAP1 POP JUMP JUMPDEST PUSH1 0x0 DUP2 ISZERO ISZERO SWAP1 POP SWAP2 SWAP1 POP JUMP JUMPDEST PUSH2 0x12AE DUP2 PUSH2 0x1299 JUMP JUMPDEST DUP3 MSTORE POP POP JUMP JUMPDEST PUSH1 0x0 PUSH1 0x20 DUP3 ADD SWAP1 POP PUSH2 0x12C9 PUSH1 0x0 DUP4 ADD DUP5 PUSH2 0x12A5 JUMP JUMPDEST SWAP3 SWAP2 POP POP JUMP JUMPDEST PUSH2 0x12D8 DUP2 PUSH2 0x1223 JUMP JUMPDEST DUP3 MSTORE POP POP JUMP JUMPDEST PUSH1 0x0 PUSH1 0x20 DUP3 ADD SWAP1 POP PUSH2 0x12F3 PUSH1 0x0 DUP4 ADD DUP5 PUSH2 0x12CF JUMP JUMPDEST SWAP3 SWAP2 POP POP JUMP JUMPDEST PUSH1 0x0 DUP1 PUSH1 0x0 PUSH1 0x60 DUP5 DUP7 SUB SLT ISZERO PUSH2 0x1312 JUMPI PUSH2 0x1311 PUSH2 0x11C0 JUMP JUMPDEST JUMPDEST PUSH1 0x0 PUSH2 0x1320 DUP7 DUP3 DUP8 ADD PUSH2 0x120E JUMP JUMPDEST SWAP4 POP POP PUSH1 0x20 PUSH2 0x1331 DUP7 DUP3 DUP8 ADD PUSH2 0x120E JUMP JUMPDEST SWAP3 POP POP PUSH1 0x40 PUSH2 0x1342 DUP7 DUP3 DUP8 ADD PUSH2 0x1244 JUMP JUMPDEST SWAP2 POP POP SWAP3 POP SWAP3 POP SWAP3 JUMP JUMPDEST PUSH1 0x0 PUSH1 0xFF DUP3 AND SWAP1 POP SWAP2 SWAP1 POP JUMP JUMPDEST PUSH2 0x1362 DUP2 PUSH2 0x134C JUMP JUMPDEST DUP3 MSTORE POP POP JUMP JUMPDEST PUSH1 0x0 PUSH1 0x20 DUP3 ADD SWAP1 POP PUSH2 0x137D PUSH1 0x0 DUP4 ADD DUP5 PUSH2 0x1359 JUMP JUMPDEST SWAP3 SWAP2 POP POP JUMP JUMPDEST PUSH1 0x0 PUSH1 0x20 DUP3 DUP5 SUB SLT ISZERO PUSH2 0x1399 JUMPI PUSH2 0x1398 PUSH2 0x11C0 JUMP JUMPDEST JUMPDEST PUSH1 0x0 PUSH2 0x13A7 DUP5 DUP3 DUP6 ADD PUSH2 0x120E JUMP JUMPDEST SWAP2 POP POP SWAP3 SWAP2 POP POP JUMP JUMPDEST PUSH2 0x13B9 DUP2 PUSH2 0x11E5 JUMP JUMPDEST DUP3 MSTORE POP POP JUMP JUMPDEST PUSH1 0x0 PUSH1 0x20 DUP3 ADD SWAP1 POP PUSH2 0x13D4 PUSH1 0x0 DUP4 ADD DUP5 PUSH2 0x13B0 JUMP JUMPDEST SWAP3 SWAP2 POP POP JUMP JUMPDEST PUSH1 0x0 DUP1 PUSH1 0x40 DUP4 DUP6 SUB SLT ISZERO PUSH2 0x13F1 JUMPI PUSH2 0x13F0 PUSH2 0x11C0 JUMP JUMPDEST JUMPDEST PUSH1 0x0 PUSH2 0x13FF DUP6 DUP3 DUP7 ADD PUSH2 0x120E JUMP JUMPDEST SWAP3 POP POP PUSH1 0x20 PUSH2 0x1410 DUP6 DUP3 DUP7 ADD PUSH2 0x120E JUMP JUMPDEST SWAP2 POP POP SWAP3 POP SWAP3 SWAP1 POP JUMP JUMPDEST PUSH32 0x4E487B7100000000000000000000000000000000000000000000000000000000 PUSH1 0x0 MSTORE PUSH1 0x22 PUSH1 0x4 MSTORE PUSH1 0x24 PUSH1 0x0 REVERT JUMPDEST PUSH1 0x0 PUSH1 0x2 DUP3 DIV SWAP1 POP PUSH1 0x1 DUP3 AND DUP1 PUSH2 0x1461 JUMPI PUSH1 0x7F DUP3 AND SWAP2 POP JUMPDEST PUSH1 0x20 DUP3 LT DUP2 EQ ISZERO PUSH2 0x1475 JUMPI PUSH2 0x1474 PUSH2 0x141A JUMP JUMPDEST JUMPDEST POP SWAP2 SWAP1 POP JUMP JUMPDEST PUSH32 0x4E487B7100000000000000000000000000000000000000000000000000000000 PUSH1 0x0 MSTORE PUSH1 0x11 PUSH1 0x4 MSTORE PUSH1 0x24 PUSH1 0x0 REVERT JUMPDEST PUSH1 0x0 PUSH2 0x14B5 DUP3 PUSH2 0x1223 JUMP JUMPDEST SWAP2 POP PUSH2 0x14C0 DUP4 PUSH2 0x1223 JUMP JUMPDEST SWAP3 POP DUP3 PUSH32 0xFFFFFFFFFFFFFFFFFFFFFFFFFFFFFFFFFFFFFFFFFFFFFFFFFFFFFFFFFFFFFFFF SUB DUP3 GT ISZERO PUSH2 0x14F5 JUMPI PUSH2 0x14F4 PUSH2 0x147B JUMP JUMPDEST JUMPDEST DUP3 DUP3 ADD SWAP1 POP SWAP3 SWAP2 POP POP JUMP JUMPDEST PUSH32 0x45524332303A2064656372656173656420616C6C6F77616E63652062656C6F77 PUSH1 0x0 DUP3 ADD MSTORE PUSH32 0x207A65726F000000000000000000000000000000000000000000000000000000 PUSH1 0x20 DUP3 ADD MSTORE POP JUMP JUMPDEST PUSH1 0x0 PUSH2 0x155C PUSH1 0x25 DUP4 PUSH2 0x1110 JUMP JUMPDEST SWAP2 POP PUSH2 0x1567 DUP3 PUSH2 0x1500 JUMP JUMPDEST PUSH1 0x40 DUP3 ADD SWAP1 POP SWAP2 SWAP1 POP JUMP JUMPDEST PUSH1 0x0 PUSH1 0x20 DUP3 ADD SWAP1 POP DUP2 DUP2 SUB PUSH1 0x0 DUP4 ADD MSTORE PUSH2 0x158B DUP2 PUSH2 0x154F JUMP JUMPDEST SWAP1 POP SWAP2 SWAP1 POP JUMP JUMPDEST PUSH32 0x4F776E61626C653A206E6577206F776E657220697320746865207A65726F2061 PUSH1 0x0 DUP3 ADD MSTORE PUSH32 0x6464726573730000000000000000000000000000000000000000000000000000 PUSH1 0x20 DUP3 ADD MSTORE POP JUMP JUMPDEST PUSH1 0x0 PUSH2 0x15EE PUSH1 0x26 DUP4 PUSH2 0x1110 JUMP JUMPDEST SWAP2 POP PUSH2 0x15F9 DUP3 PUSH2 0x1592 JUMP JUMPDEST PUSH1 0x40 DUP3 ADD SWAP1 POP SWAP2 SWAP1 POP JUMP JUMPDEST PUSH1 0x0 PUSH1 0x20 DUP3 ADD SWAP1 POP DUP2 DUP2 SUB PUSH1 0x0 DUP4 ADD MSTORE PUSH2 0x161D DUP2 PUSH2 0x15E1 JUMP JUMPDEST SWAP1 POP SWAP2 SWAP1 POP JUMP JUMPDEST PUSH32 0x45524332303A20617070726F76652066726F6D20746865207A65726F20616464 PUSH1 0x0 DUP3 ADD MSTORE PUSH32 0x7265737300000000000000000000000000000000000000000000000000000000 PUSH1 0x20 DUP3 ADD MSTORE POP JUMP JUMPDEST PUSH1 0x0 PUSH2 0x1680 PUSH1 0x24 DUP4 PUSH2 0x1110 JUMP JUMPDEST SWAP2 POP PUSH2 0x168B DUP3 PUSH2 0x1624 JUMP JUMPDEST PUSH1 0x40 DUP3 ADD SWAP1 POP SWAP2 SWAP1 POP JUMP JUMPDEST PUSH1 0x0 PUSH1 0x20 DUP3 ADD SWAP1 POP DUP2 DUP2 SUB PUSH1 0x0 DUP4 ADD MSTORE PUSH2 0x16AF DUP2 PUSH2 0x1673 JUMP JUMPDEST SWAP1 POP SWAP2 SWAP1 POP JUMP JUMPDEST PUSH32 0x45524332303A20617070726F766520746F20746865207A65726F206164647265 PUSH1 0x0 DUP3 ADD MSTORE PUSH32 0x7373000000000000000000000000000000000000000000000000000000000000 PUSH1 0x20 DUP3 ADD MSTORE POP JUMP JUMPDEST PUSH1 0x0 PUSH2 0x1712 PUSH1 0x22 DUP4 PUSH2 0x1110 JUMP JUMPDEST SWAP2 POP PUSH2 0x171D DUP3 PUSH2 0x16B6 JUMP JUMPDEST PUSH1 0x40 DUP3 ADD SWAP1 POP SWAP2 SWAP1 POP JUMP JUMPDEST PUSH1 0x0 PUSH1 0x20 DUP3 ADD SWAP1 POP DUP2 DUP2 SUB PUSH1 0x0 DUP4 ADD MSTORE PUSH2 0x1741 DUP2 PUSH2 0x1705 JUMP JUMPDEST SWAP1 POP SWAP2 SWAP1 POP JUMP JUMPDEST PUSH32 0x45524332303A20696E73756666696369656E7420616C6C6F77616E6365000000 PUSH1 0x0 DUP3 ADD MSTORE POP JUMP JUMPDEST PUSH1 0x0 PUSH2 0x177E PUSH1 0x1D DUP4 PUSH2 0x1110 JUMP JUMPDEST SWAP2 POP PUSH2 0x1789 DUP3 PUSH2 0x1748 JUMP JUMPDEST PUSH1 0x20 DUP3 ADD SWAP1 POP SWAP2 SWAP1 POP JUMP JUMPDEST PUSH1 0x0 PUSH1 0x20 DUP3 ADD SWAP1 POP DUP2 DUP2 SUB PUSH1 0x0 DUP4 ADD MSTORE PUSH2 0x17AD DUP2 PUSH2 0x1771 JUMP JUMPDEST SWAP1 POP SWAP2 SWAP1 POP JUMP JUMPDEST PUSH32 0x45524332303A207472616E736665722066726F6D20746865207A65726F206164 PUSH1 0x0 DUP3 ADD MSTORE PUSH32 0x6472657373000000000000000000000000000000000000000000000000000000 PUSH1 0x20 DUP3 ADD MSTORE POP JUMP JUMPDEST PUSH1 0x0 PUSH2 0x1810 PUSH1 0x25 DUP4 PUSH2 0x1110 JUMP JUMPDEST SWAP2 POP PUSH2 0x181B DUP3 PUSH2 0x17B4 JUMP JUMPDEST PUSH1 0x40 DUP3 ADD SWAP1 POP SWAP2 SWAP1 POP JUMP JUMPDEST PUSH1 0x0 PUSH1 0x20 DUP3 ADD SWAP1 POP DUP2 DUP2 SUB PUSH1 0x0 DUP4 ADD MSTORE PUSH2 0x183F DUP2 PUSH2 0x1803 JUMP JUMPDEST SWAP1 POP SWAP2 SWAP1 POP JUMP JUMPDEST PUSH32 0x45524332303A207472616E7366657220746F20746865207A65726F2061646472 PUSH1 0x0 DUP3 ADD MSTORE PUSH32 0x6573730000000000000000000000000000000000000000000000000000000000 PUSH1 0x20 DUP3 ADD MSTORE POP JUMP JUMPDEST PUSH1 0x0 PUSH2 0x18A2 PUSH1 0x23 DUP4 PUSH2 0x1110 JUMP JUMPDEST SWAP2 POP PUSH2 0x18AD DUP3 PUSH2 0x1846 JUMP JUMPDEST PUSH1 0x40 DUP3 ADD SWAP1 POP SWAP2 SWAP1 POP JUMP JUMPDEST PUSH1 0x0 PUSH1 0x20 DUP3 ADD SWAP1 POP DUP2 DUP2 SUB PUSH1 0x0 DUP4 ADD MSTORE PUSH2 0x18D1 DUP2 PUSH2 0x1895 JUMP JUMPDEST SWAP1 POP SWAP2 SWAP1 POP JUMP JUMPDEST PUSH32 0x45524332303A207472616E7366657220616D6F756E7420657863656564732062 PUSH1 0x0 DUP3 ADD MSTORE PUSH32 0x616C616E63650000000000000000000000000000000000000000000000000000 PUSH1 0x20 DUP3 ADD MSTORE POP JUMP JUMPDEST PUSH1 0x0 PUSH2 0x1934 PUSH1 0x26 DUP4 PUSH2 0x1110 JUMP JUMPDEST SWAP2 POP PUSH2 0x193F DUP3 PUSH2 0x18D8 JUMP JUMPDEST PUSH1 0x40 DUP3 ADD SWAP1 POP SWAP2 SWAP1 POP JUMP JUMPDEST PUSH1 0x0 PUSH1 0x20 DUP3 ADD SWAP1 POP DUP2 DUP2 SUB PUSH1 0x0 DUP4 ADD MSTORE PUSH2 0x1963 DUP2 PUSH2 0x1927 JUMP JUMPDEST SWAP1 POP SWAP2 SWAP1 POP JUMP JUMPDEST PUSH32 0x4F776E61626C653A2063616C6C6572206973206E6F7420746865206F776E6572 PUSH1 0x0 DUP3 ADD MSTORE POP JUMP JUMPDEST PUSH1 0x0 PUSH2 0x19A0 PUSH1 0x20 DUP4 PUSH2 0x1110 JUMP JUMPDEST SWAP2 POP PUSH2 0x19AB DUP3 PUSH2 0x196A JUMP JUMPDEST PUSH1 0x20 DUP3 ADD SWAP1 POP SWAP2 SWAP1 POP JUMP JUMPDEST PUSH1 0x0 PUSH1 0x20 DUP3 ADD SWAP1 POP DUP2 DUP2 SUB PUSH1 0x0 DUP4 ADD MSTORE PUSH2 0x19CF DUP2 PUSH2 0x1993 JUMP JUMPDEST SWAP1 POP SWAP2 SWAP1 POP JUMP JUMPDEST PUSH32 0x45524332303A206D696E7420746F20746865207A65726F206164647265737300 PUSH1 0x0 DUP3 ADD MSTORE POP JUMP JUMPDEST PUSH1 0x0 PUSH2 0x1A0C PUSH1 0x1F DUP4 PUSH2 0x1110 JUMP JUMPDEST SWAP2 POP PUSH2 0x1A17 DUP3 PUSH2 0x19D6 JUMP JUMPDEST PUSH1 0x20 DUP3 ADD SWAP1 POP SWAP2 SWAP1 POP JUMP JUMPDEST PUSH1 0x0 PUSH1 0x20 DUP3 ADD SWAP1 POP DUP2 DUP2 SUB PUSH1 0x0 DUP4 ADD MSTORE PUSH2 0x1A3B DUP2 PUSH2 0x19FF JUMP JUMPDEST SWAP1 POP SWAP2 SWAP1 POP JUMP JUMPDEST PUSH32 0x45524332303A206275726E2066726F6D20746865207A65726F20616464726573 PUSH1 0x0 DUP3 ADD MSTORE PUSH32 0x7300000000000000000000000000000000000000000000000000000000000000 PUSH1 0x20 DUP3 ADD MSTORE POP JUMP JUMPDEST PUSH1 0x0 PUSH2 0x1A9E PUSH1 0x21 DUP4 PUSH2 0x1110 JUMP JUMPDEST SWAP2 POP PUSH2 0x1AA9 DUP3 PUSH2 0x1A42 JUMP JUMPDEST PUSH1 0x40 DUP3 ADD SWAP1 POP SWAP2 SWAP1 POP JUMP JUMPDEST PUSH1 0x0 PUSH1 0x20 DUP3 ADD SWAP1 POP DUP2 DUP2 SUB PUSH1 0x0 DUP4 ADD MSTORE PUSH2 0x1ACD DUP2 PUSH2 0x1A91 JUMP JUMPDEST SWAP1 POP SWAP2 SWAP1 POP JUMP JUMPDEST PUSH32 0x45524332303A206275726E20616D6F756E7420657863656564732062616C616E PUSH1 0x0 DUP3 ADD MSTORE PUSH32 0x6365000000000000000000000000000000000000000000000000000000000000 PUSH1 0x20 DUP3 ADD MSTORE POP JUMP JUMPDEST PUSH1 0x0 PUSH2 0x1B30 PUSH1 0x22 DUP4 PUSH2 0x1110 JUMP JUMPDEST SWAP2 POP PUSH2 0x1B3B DUP3 PUSH2 0x1AD4 JUMP JUMPDEST PUSH1 0x40 DUP3 ADD SWAP1 POP SWAP2 SWAP1 POP JUMP JUMPDEST PUSH1 0x0 PUSH1 0x20 DUP3 ADD SWAP1 POP DUP2 DUP2 SUB PUSH1 0x0 DUP4 ADD MSTORE PUSH2 0x1B5F DUP2 PUSH2 0x1B23 JUMP JUMPDEST SWAP1 POP SWAP2 SWAP1 POP JUMP JUMPDEST PUSH1 0x0 PUSH2 0x1B71 DUP3 PUSH2 0x1223 JUMP JUMPDEST SWAP2 POP PUSH2 0x1B7C DUP4 PUSH2 0x1223 JUMP JUMPDEST SWAP3 POP DUP3 DUP3 LT ISZERO PUSH2 0x1B8F JUMPI PUSH2 0x1B8E PUSH2 0x147B JUMP JUMPDEST JUMPDEST DUP3 DUP3 SUB SWAP1 POP SWAP3 SWAP2 POP POP JUMP INVALID LOG2 PUSH5 0x6970667358 0x22 SLT KECCAK256 LT NUMBER 0xAE PUSH27 0x15AAC47F3933F07637C484FC24CDE734278EE0AF9FFB2E10A7EEB7 SELFBALANCE PUSH5 0x736F6C6343 STOP ADDMOD EXP STOP CALLER LOG2 PUSH5 0x6970667358 0x22 SLT KECCAK256 SLOAD 0xB6 0xD1 DUP6 ADDRESS 0x5C DUP10 PUSH6 0xA590F963B7CA ADD 0xE5 0xD6 DUP12 SWAP14 PUSH12 0xF70E373086FF577DA7BF48D4 PUSH5 0x736F6C6343 STOP ADDMOD EXP STOP CALLER "
		},
		"gasEstimates": {
			"creation": {
				"codeDepositCost": "4772800",
				"executionCost": "infinite",
				"totalCost": "infinite"
			},
			"external": {
				"binsNFTMap(address,address,uint256,uint256)": "infinite",
				"convertFractionToNFT(address,address,uint256,address)": "infinite",
				"createFractionsToken(address,uint256)": "infinite",
				"depositNFTFromLP(address,address,address,uint256[],uint256[])": "infinite",
				"exchangeFromERC1155(address,uint256[],uint256[],address)": "infinite",
				"exchangeToERC1155(address,uint256[],uint256[],address)": "infinite",
				"fractionERC1155HashMap(address,uint256)": "infinite",
				"fractionERC721HashMap(address)": "infinite",
				"getERC1155FractionAddress(address,uint256)": "infinite",
				"getERC721FractionAddress(address)": "infinite",
				"onERC1155BatchReceived(address,address,uint256[],uint256[],bytes)": "infinite",
				"onERC1155Received(address,address,uint256,uint256,bytes)": "infinite",
				"onERC721Received(address,address,uint256,bytes)": "infinite",
				"owner()": "2589",
				"renounceOwnership()": "30421",
				"sellNFTFromTrader(address,address,address,uint256[])": "infinite",
				"setRouterAndTester(address,address)": "infinite",
				"supportsInterface(bytes4)": "751",
				"transferOwnership(address)": "30835",
				"withdrawNFT(address,address,address,uint256[],uint256[])": "infinite"
			},
			"internal": {
				"_arrangeIds(address,address,uint256[] calldata,uint256[] calldata)": "infinite",
				"_removeIds(address,address,uint256,uint256)": "infinite"
			}
		},
		"methodIdentifiers": {
			"binsNFTMap(address,address,uint256,uint256)": "44db7d62",
			"convertFractionToNFT(address,address,uint256,address)": "e679f89a",
			"createFractionsToken(address,uint256)": "666a652d",
			"depositNFTFromLP(address,address,address,uint256[],uint256[])": "12908b01",
			"exchangeFromERC1155(address,uint256[],uint256[],address)": "d7b5c379",
			"exchangeToERC1155(address,uint256[],uint256[],address)": "fdf2ce97",
			"fractionERC1155HashMap(address,uint256)": "17432489",
			"fractionERC721HashMap(address)": "2138c6ce",
			"getERC1155FractionAddress(address,uint256)": "40e9b755",
			"getERC721FractionAddress(address)": "831250b9",
			"onERC1155BatchReceived(address,address,uint256[],uint256[],bytes)": "bc197c81",
			"onERC1155Received(address,address,uint256,uint256,bytes)": "f23a6e61",
			"onERC721Received(address,address,uint256,bytes)": "150b7a02",
			"owner()": "8da5cb5b",
			"renounceOwnership()": "715018a6",
			"sellNFTFromTrader(address,address,address,uint256[])": "d2cc4f16",
			"setRouterAndTester(address,address)": "0376966b",
			"supportsInterface(bytes4)": "01ffc9a7",
			"transferOwnership(address)": "f2fde38b",
			"withdrawNFT(address,address,address,uint256[],uint256[])": "0fad9d56"
		}
	},
	"abi": [
		{
			"anonymous": false,
			"inputs": [
				{
					"indexed": true,
					"internalType": "address",
					"name": "previousOwner",
					"type": "address"
				},
				{
					"indexed": true,
					"internalType": "address",
					"name": "newOwner",
					"type": "address"
				}
			],
			"name": "OwnershipTransferred",
			"type": "event"
		},
		{
			"inputs": [
				{
					"internalType": "address",
					"name": "",
					"type": "address"
				},
				{
					"internalType": "address",
					"name": "",
					"type": "address"
				},
				{
					"internalType": "uint256",
					"name": "",
					"type": "uint256"
				},
				{
					"internalType": "uint256",
					"name": "",
					"type": "uint256"
				}
			],
			"name": "binsNFTMap",
			"outputs": [
				{
					"internalType": "uint256",
					"name": "",
					"type": "uint256"
				}
			],
			"stateMutability": "view",
			"type": "function"
		},
		{
			"inputs": [
				{
					"internalType": "address",
					"name": "nftAddress",
					"type": "address"
				},
				{
					"internalType": "address",
					"name": "ftAddress",
					"type": "address"
				},
				{
					"internalType": "uint256",
					"name": "amount",
					"type": "uint256"
				},
				{
					"internalType": "address",
					"name": "receiver",
					"type": "address"
				}
			],
			"name": "convertFractionToNFT",
			"outputs": [
				{
					"internalType": "uint256",
					"name": "nftAmount",
					"type": "uint256"
				}
			],
			"stateMutability": "payable",
			"type": "function"
		},
		{
			"inputs": [
				{
					"internalType": "address",
					"name": "nftAddress",
					"type": "address"
				},
				{
					"internalType": "uint256",
					"name": "id",
					"type": "uint256"
				}
			],
			"name": "createFractionsToken",
			"outputs": [
				{
					"internalType": "address",
					"name": "",
					"type": "address"
				}
			],
			"stateMutability": "nonpayable",
			"type": "function"
		},
		{
			"inputs": [
				{
					"internalType": "address",
					"name": "owner",
					"type": "address"
				},
				{
					"internalType": "address",
					"name": "nftAddress",
					"type": "address"
				},
				{
					"internalType": "address",
					"name": "ftAddress",
					"type": "address"
				},
				{
					"internalType": "uint256[]",
					"name": "tokenIds",
					"type": "uint256[]"
				},
				{
					"internalType": "uint256[]",
					"name": "binIds",
					"type": "uint256[]"
				}
			],
			"name": "depositNFTFromLP",
			"outputs": [
				{
					"internalType": "uint256",
					"name": "nftAmount",
					"type": "uint256"
				}
			],
			"stateMutability": "payable",
			"type": "function"
		},
		{
			"inputs": [
				{
					"internalType": "address",
					"name": "nftAddress",
					"type": "address"
				},
				{
					"internalType": "uint256[]",
					"name": "ids",
					"type": "uint256[]"
				},
				{
					"internalType": "uint256[]",
					"name": "amounts",
					"type": "uint256[]"
				},
				{
					"internalType": "address",
					"name": "receiver",
					"type": "address"
				}
			],
			"name": "exchangeFromERC1155",
			"outputs": [
				{
					"internalType": "uint256",
					"name": "nftAmount",
					"type": "uint256"
				}
			],
			"stateMutability": "payable",
			"type": "function"
		},
		{
			"inputs": [
				{
					"internalType": "address",
					"name": "nftAddress",
					"type": "address"
				},
				{
					"internalType": "uint256[]",
					"name": "ids",
					"type": "uint256[]"
				},
				{
					"internalType": "uint256[]",
					"name": "amounts",
					"type": "uint256[]"
				},
				{
					"internalType": "address",
					"name": "receiver",
					"type": "address"
				}
			],
			"name": "exchangeToERC1155",
			"outputs": [
				{
					"internalType": "uint256",
					"name": "nftAmount",
					"type": "uint256"
				}
			],
			"stateMutability": "payable",
			"type": "function"
		},
		{
			"inputs": [
				{
					"internalType": "address",
					"name": "",
					"type": "address"
				},
				{
					"internalType": "uint256",
					"name": "",
					"type": "uint256"
				}
			],
			"name": "fractionERC1155HashMap",
			"outputs": [
				{
					"internalType": "address",
					"name": "",
					"type": "address"
				}
			],
			"stateMutability": "view",
			"type": "function"
		},
		{
			"inputs": [
				{
					"internalType": "address",
					"name": "",
					"type": "address"
				}
			],
			"name": "fractionERC721HashMap",
			"outputs": [
				{
					"internalType": "address",
					"name": "",
					"type": "address"
				}
			],
			"stateMutability": "view",
			"type": "function"
		},
		{
			"inputs": [
				{
					"internalType": "address",
					"name": "nftAddress",
					"type": "address"
				},
				{
					"internalType": "uint256",
					"name": "id",
					"type": "uint256"
				}
			],
			"name": "getERC1155FractionAddress",
			"outputs": [
				{
					"internalType": "address",
					"name": "fractionAddress",
					"type": "address"
				}
			],
			"stateMutability": "view",
			"type": "function"
		},
		{
			"inputs": [
				{
					"internalType": "address",
					"name": "nftAddress",
					"type": "address"
				}
			],
			"name": "getERC721FractionAddress",
			"outputs": [
				{
					"internalType": "address",
					"name": "fractionAddress",
					"type": "address"
				}
			],
			"stateMutability": "view",
			"type": "function"
		},
		{
			"inputs": [
				{
					"internalType": "address",
					"name": "",
					"type": "address"
				},
				{
					"internalType": "address",
					"name": "",
					"type": "address"
				},
				{
					"internalType": "uint256[]",
					"name": "",
					"type": "uint256[]"
				},
				{
					"internalType": "uint256[]",
					"name": "",
					"type": "uint256[]"
				},
				{
					"internalType": "bytes",
					"name": "",
					"type": "bytes"
				}
			],
			"name": "onERC1155BatchReceived",
			"outputs": [
				{
					"internalType": "bytes4",
					"name": "",
					"type": "bytes4"
				}
			],
			"stateMutability": "nonpayable",
			"type": "function"
		},
		{
			"inputs": [
				{
					"internalType": "address",
					"name": "",
					"type": "address"
				},
				{
					"internalType": "address",
					"name": "",
					"type": "address"
				},
				{
					"internalType": "uint256",
					"name": "",
					"type": "uint256"
				},
				{
					"internalType": "uint256",
					"name": "",
					"type": "uint256"
				},
				{
					"internalType": "bytes",
					"name": "",
					"type": "bytes"
				}
			],
			"name": "onERC1155Received",
			"outputs": [
				{
					"internalType": "bytes4",
					"name": "",
					"type": "bytes4"
				}
			],
			"stateMutability": "nonpayable",
			"type": "function"
		},
		{
			"inputs": [
				{
					"internalType": "address",
					"name": "",
					"type": "address"
				},
				{
					"internalType": "address",
					"name": "",
					"type": "address"
				},
				{
					"internalType": "uint256",
					"name": "",
					"type": "uint256"
				},
				{
					"internalType": "bytes",
					"name": "",
					"type": "bytes"
				}
			],
			"name": "onERC721Received",
			"outputs": [
				{
					"internalType": "bytes4",
					"name": "",
					"type": "bytes4"
				}
			],
			"stateMutability": "nonpayable",
			"type": "function"
		},
		{
			"inputs": [],
			"name": "owner",
			"outputs": [
				{
					"internalType": "address",
					"name": "",
					"type": "address"
				}
			],
			"stateMutability": "view",
			"type": "function"
		},
		{
			"inputs": [],
			"name": "renounceOwnership",
			"outputs": [],
			"stateMutability": "nonpayable",
			"type": "function"
		},
		{
			"inputs": [
				{
					"internalType": "address",
					"name": "sender",
					"type": "address"
				},
				{
					"internalType": "address",
					"name": "nftAddress",
					"type": "address"
				},
				{
					"internalType": "address",
					"name": "ftAddress",
					"type": "address"
				},
				{
					"internalType": "uint256[]",
					"name": "tokenIds",
					"type": "uint256[]"
				}
			],
			"name": "sellNFTFromTrader",
			"outputs": [
				{
					"internalType": "uint256",
					"name": "nftAmount",
					"type": "uint256"
				}
			],
			"stateMutability": "payable",
			"type": "function"
		},
		{
			"inputs": [
				{
					"internalType": "address",
					"name": "_midasRouter",
					"type": "address"
				},
				{
					"internalType": "address",
					"name": "_tester",
					"type": "address"
				}
			],
			"name": "setRouterAndTester",
			"outputs": [
				{
					"internalType": "bool",
					"name": "",
					"type": "bool"
				}
			],
			"stateMutability": "nonpayable",
			"type": "function"
		},
		{
			"inputs": [
				{
					"internalType": "bytes4",
					"name": "interfaceId",
					"type": "bytes4"
				}
			],
			"name": "supportsInterface",
			"outputs": [
				{
					"internalType": "bool",
					"name": "",
					"type": "bool"
				}
			],
			"stateMutability": "view",
			"type": "function"
		},
		{
			"inputs": [
				{
					"internalType": "address",
					"name": "newOwner",
					"type": "address"
				}
			],
			"name": "transferOwnership",
			"outputs": [],
			"stateMutability": "nonpayable",
			"type": "function"
		},
		{
			"inputs": [
				{
					"internalType": "address",
					"name": "nftAddress",
					"type": "address"
				},
				{
					"internalType": "address",
					"name": "ftAddress",
					"type": "address"
				},
				{
					"internalType": "address",
					"name": "receiver",
					"type": "address"
				},
				{
					"internalType": "uint256[]",
					"name": "amounts",
					"type": "uint256[]"
				},
				{
					"internalType": "uint256[]",
					"name": "binIds",
					"type": "uint256[]"
				}
			],
			"name": "withdrawNFT",
			"outputs": [
				{
					"internalType": "uint256",
					"name": "nftAmount",
					"type": "uint256"
				}
			],
			"stateMutability": "payable",
			"type": "function"
		}
	]
}